{
  "contractName": "BuyerToken",
  "abi": [
    {
      "constant": true,
      "inputs": [],
      "name": "name",
      "outputs": [
        {
          "name": "",
          "type": "string"
        }
      ],
      "payable": false,
      "stateMutability": "view",
      "type": "function"
    },
    {
      "constant": true,
      "inputs": [],
      "name": "totalSupply",
      "outputs": [
        {
          "name": "",
          "type": "uint256"
        }
      ],
      "payable": false,
      "stateMutability": "view",
      "type": "function"
    },
    {
      "constant": true,
      "inputs": [],
      "name": "decimals",
      "outputs": [
        {
          "name": "",
          "type": "uint8"
        }
      ],
      "payable": false,
      "stateMutability": "view",
      "type": "function"
    },
    {
      "constant": true,
      "inputs": [],
      "name": "standard",
      "outputs": [
        {
          "name": "",
          "type": "string"
        }
      ],
      "payable": false,
      "stateMutability": "view",
      "type": "function"
    },
    {
      "constant": true,
      "inputs": [
        {
          "name": "",
          "type": "address"
        }
      ],
      "name": "balanceOf",
      "outputs": [
        {
          "name": "",
          "type": "uint256"
        }
      ],
      "payable": false,
      "stateMutability": "view",
      "type": "function"
    },
    {
      "constant": true,
      "inputs": [],
      "name": "buyPrice",
      "outputs": [
        {
          "name": "",
          "type": "uint256"
        }
      ],
      "payable": false,
      "stateMutability": "view",
      "type": "function"
    },
    {
      "constant": true,
      "inputs": [],
      "name": "project_wallet",
      "outputs": [
        {
          "name": "",
          "type": "address"
        }
      ],
      "payable": false,
      "stateMutability": "view",
      "type": "function"
    },
    {
      "constant": true,
      "inputs": [],
      "name": "owner",
      "outputs": [
        {
          "name": "",
          "type": "address"
        }
      ],
      "payable": false,
      "stateMutability": "view",
      "type": "function"
    },
    {
      "constant": true,
      "inputs": [],
      "name": "symbol",
      "outputs": [
        {
          "name": "",
          "type": "string"
        }
      ],
      "payable": false,
      "stateMutability": "view",
      "type": "function"
    },
    {
      "constant": true,
      "inputs": [
        {
          "name": "",
          "type": "address"
        },
        {
          "name": "",
          "type": "address"
        }
      ],
      "name": "allowance",
      "outputs": [
        {
          "name": "",
          "type": "uint256"
        }
      ],
      "payable": false,
      "stateMutability": "view",
      "type": "function"
    },
    {
      "constant": false,
      "inputs": [
        {
          "name": "newOwner",
          "type": "address"
        }
      ],
      "name": "transferOwnership",
      "outputs": [],
      "payable": false,
      "stateMutability": "nonpayable",
      "type": "function"
    },
    {
      "payable": false,
      "stateMutability": "nonpayable",
      "type": "fallback"
    },
    {
      "anonymous": false,
      "inputs": [
        {
          "indexed": true,
          "name": "from",
          "type": "address"
        },
        {
          "indexed": true,
          "name": "to",
          "type": "address"
        },
        {
          "indexed": false,
          "name": "value",
          "type": "uint256"
        }
      ],
      "name": "Transfer",
      "type": "event"
    },
    {
      "constant": false,
      "inputs": [
        {
          "name": "initialSupply",
          "type": "uint256"
        },
        {
          "name": "tokenName",
          "type": "string"
        },
        {
          "name": "decimalUnits",
          "type": "uint8"
        },
        {
          "name": "tokenSymbol",
          "type": "string"
        }
      ],
      "name": "token",
      "outputs": [],
      "payable": false,
      "stateMutability": "nonpayable",
      "type": "function"
    },
    {
      "constant": false,
      "inputs": [
        {
          "name": "target",
          "type": "address"
        }
      ],
      "name": "defineProjectWallet",
      "outputs": [],
      "payable": false,
      "stateMutability": "nonpayable",
      "type": "function"
    },
    {
      "constant": false,
      "inputs": [
        {
          "name": "target",
          "type": "address"
        },
        {
          "name": "mintedAmount",
          "type": "uint256"
        }
      ],
      "name": "mintToken",
      "outputs": [],
      "payable": false,
      "stateMutability": "nonpayable",
      "type": "function"
    },
    {
      "constant": false,
      "inputs": [
        {
          "name": "burnAmount",
          "type": "uint256"
        }
      ],
      "name": "distroyToken",
      "outputs": [],
      "payable": false,
      "stateMutability": "nonpayable",
      "type": "function"
    },
    {
      "constant": false,
      "inputs": [
        {
          "name": "_to",
          "type": "address"
        },
        {
          "name": "_value",
          "type": "uint256"
        }
      ],
      "name": "transfer",
      "outputs": [],
      "payable": false,
      "stateMutability": "nonpayable",
      "type": "function"
    },
    {
      "constant": false,
      "inputs": [
        {
          "name": "_spender",
          "type": "address"
        },
        {
          "name": "_value",
          "type": "uint256"
        }
      ],
      "name": "approve",
      "outputs": [
        {
          "name": "success",
          "type": "bool"
        }
      ],
      "payable": false,
      "stateMutability": "nonpayable",
      "type": "function"
    },
    {
      "constant": false,
      "inputs": [
        {
          "name": "_spender",
          "type": "address"
        },
        {
          "name": "_value",
          "type": "uint256"
        },
        {
          "name": "_extraData",
          "type": "bytes"
        }
      ],
      "name": "approveAndCall",
      "outputs": [
        {
          "name": "success",
          "type": "bool"
        }
      ],
      "payable": false,
      "stateMutability": "nonpayable",
      "type": "function"
    },
    {
      "constant": false,
      "inputs": [
        {
          "name": "_from",
          "type": "address"
        },
        {
          "name": "_to",
          "type": "address"
        },
        {
          "name": "_value",
          "type": "uint256"
        }
      ],
      "name": "transferFrom",
      "outputs": [
        {
          "name": "success",
          "type": "bool"
        }
      ],
      "payable": false,
      "stateMutability": "nonpayable",
      "type": "function"
    },
    {
      "constant": false,
      "inputs": [
        {
          "name": "newBuyPrice",
          "type": "uint256"
        }
      ],
      "name": "setPrices",
      "outputs": [],
      "payable": false,
      "stateMutability": "nonpayable",
      "type": "function"
    },
    {
      "constant": false,
      "inputs": [],
      "name": "buy",
      "outputs": [],
      "payable": true,
      "stateMutability": "payable",
      "type": "function"
    },
    {
      "constant": false,
      "inputs": [],
      "name": "moveFunds",
      "outputs": [],
      "payable": false,
      "stateMutability": "nonpayable",
      "type": "function"
    }
  ],
  "bytecode": "0x60806040526040805190810160405280600981526020017f546f6b656e20302e310000000000000000000000000000000000000000000000815250600190805190602001906200005192919062000098565b50336000806101000a81548173ffffffffffffffffffffffffffffffffffffffff021916908373ffffffffffffffffffffffffffffffffffffffff16021790555062000147565b828054600181600116156101000203166002900490600052602060002090601f016020900481019282601f10620000db57805160ff19168380011785556200010c565b828001600101855582156200010c579182015b828111156200010b578251825591602001919060010190620000ee565b5b5090506200011b91906200011f565b5090565b6200014491905b808211156200014057600081600090555060010162000126565b5090565b90565b6119bc80620001576000396000f300608060405260043610610128576000357c0100000000000000000000000000000000000000000000000000000000900463ffffffff16806306fdde031461013a578063095ea7b3146101ca57806318160ddd1461022f57806323b872dd1461025a578063313ce567146102df578063377d78ce146103105780634db2beef146103535780635a3b7e421461038057806370a082311461041057806379c65068146104675780638620410b146104b45780638d809b0e146104df5780638da5cb5b1461053657806395d89b411461058d578063a3201daa1461061d578063a6f2ae3a1461064a578063a9059cbb14610654578063b29c2493146106a1578063cae9ca5114610767578063d0b6ba2a14610812578063dd62ed3e14610829578063f2fde38b146108a0575b34801561013457600080fd5b50600080fd5b34801561014657600080fd5b5061014f6108e3565b6040518080602001828103825283818151815260200191508051906020019080838360005b8381101561018f578082015181840152602081019050610174565b50505050905090810190601f1680156101bc5780820380516001836020036101000a031916815260200191505b509250505060405180910390f35b3480156101d657600080fd5b50610215600480360381019080803573ffffffffffffffffffffffffffffffffffffffff16906020019092919080359060200190929190505050610981565b604051808215151515815260200191505060405180910390f35b34801561023b57600080fd5b50610244610a13565b6040518082815260200191505060405180910390f35b34801561026657600080fd5b506102c5600480360381019080803573ffffffffffffffffffffffffffffffffffffffff169060200190929190803573ffffffffffffffffffffffffffffffffffffffff16906020019092919080359060200190929190505050610a19565b604051808215151515815260200191505060405180910390f35b3480156102eb57600080fd5b506102f4610d11565b604051808260ff1660ff16815260200191505060405180910390f35b34801561031c57600080fd5b50610351600480360381019080803573ffffffffffffffffffffffffffffffffffffffff169060200190929190505050610d24565b005b34801561035f57600080fd5b5061037e60048036038101908080359060200190929190505050610dc3565b005b34801561038c57600080fd5b50610395610e7e565b6040518080602001828103825283818151815260200191508051906020019080838360005b838110156103d55780820151818401526020810190506103ba565b50505050905090810190601f1680156104025780820380516001836020036101000a031916815260200191505b509250505060405180910390f35b34801561041c57600080fd5b50610451600480360381019080803573ffffffffffffffffffffffffffffffffffffffff169060200190929190505050610f1c565b6040518082815260200191505060405180910390f35b34801561047357600080fd5b506104b2600480360381019080803573ffffffffffffffffffffffffffffffffffffffff16906020019092919080359060200190929190505050610f34565b005b3480156104c057600080fd5b506104c96110a5565b6040518082815260200191505060405180910390f35b3480156104eb57600080fd5b506104f46110ab565b604051808273ffffffffffffffffffffffffffffffffffffffff1673ffffffffffffffffffffffffffffffffffffffff16815260200191505060405180910390f35b34801561054257600080fd5b5061054b6110d1565b604051808273ffffffffffffffffffffffffffffffffffffffff1673ffffffffffffffffffffffffffffffffffffffff16815260200191505060405180910390f35b34801561059957600080fd5b506105a26110f6565b6040518080602001828103825283818151815260200191508051906020019080838360005b838110156105e25780820151818401526020810190506105c7565b50505050905090810190601f16801561060f5780820380516001836020036101000a031916815260200191505b509250505060405180910390f35b34801561062957600080fd5b5061064860048036038101908080359060200190929190505050611194565b005b6106526111f9565b005b34801561066057600080fd5b5061069f600480360381019080803573ffffffffffffffffffffffffffffffffffffffff16906020019092919080359060200190929190505050611359565b005b3480156106ad57600080fd5b5061076560048036038101908080359060200190929190803590602001908201803590602001908080601f0160208091040260200160405190810160405280939291908181526020018383808284378201915050505050509192919290803560ff169060200190929190803590602001908201803590602001908080601f0160208091040260200160405190810160405280939291908181526020018383808284378201915050505050509192919290505050611535565b005b34801561077357600080fd5b506107f8600480360381019080803573ffffffffffffffffffffffffffffffffffffffff16906020019092919080359060200190929190803590602001908201803590602001908080601f01602080910402602001604051908101604052809392919081815260200183838082843782019150505050505091929192905050506115cf565b604051808215151515815260200191505060405180910390f35b34801561081e57600080fd5b50610827611752565b005b34801561083557600080fd5b5061088a600480360381019080803573ffffffffffffffffffffffffffffffffffffffff169060200190929190803573ffffffffffffffffffffffffffffffffffffffff169060200190929190505050611828565b6040518082815260200191505060405180910390f35b3480156108ac57600080fd5b506108e1600480360381019080803573ffffffffffffffffffffffffffffffffffffffff16906020019092919050505061184d565b005b60028054600181600116156101000203166002900480601f0160208091040260200160405190810160405280929190818152602001828054600181600116156101000203166002900480156109795780601f1061094e57610100808354040283529160200191610979565b820191906000526020600020905b81548152906001019060200180831161095c57829003601f168201915b505050505081565b60008082600960003373ffffffffffffffffffffffffffffffffffffffff1673ffffffffffffffffffffffffffffffffffffffff16815260200190815260200160002060008673ffffffffffffffffffffffffffffffffffffffff1673ffffffffffffffffffffffffffffffffffffffff16815260200190815260200160002081905550839050600191505092915050565b60055481565b600081600860008673ffffffffffffffffffffffffffffffffffffffff1673ffffffffffffffffffffffffffffffffffffffff168152602001908152602001600020541015610a6757600080fd5b600860008473ffffffffffffffffffffffffffffffffffffffff1673ffffffffffffffffffffffffffffffffffffffff1681526020019081526020016000205482600860008673ffffffffffffffffffffffffffffffffffffffff1673ffffffffffffffffffffffffffffffffffffffff16815260200190815260200160002054011015610af457600080fd5b600960008573ffffffffffffffffffffffffffffffffffffffff1673ffffffffffffffffffffffffffffffffffffffff16815260200190815260200160002060003373ffffffffffffffffffffffffffffffffffffffff1673ffffffffffffffffffffffffffffffffffffffff16815260200190815260200160002054821115610b7d57600080fd5b81600860008673ffffffffffffffffffffffffffffffffffffffff1673ffffffffffffffffffffffffffffffffffffffff1681526020019081526020016000206000828254039250508190555081600860008573ffffffffffffffffffffffffffffffffffffffff1673ffffffffffffffffffffffffffffffffffffffff1681526020019081526020016000206000828254019250508190555081600960008673ffffffffffffffffffffffffffffffffffffffff1673ffffffffffffffffffffffffffffffffffffffff16815260200190815260200160002060003373ffffffffffffffffffffffffffffffffffffffff1673ffffffffffffffffffffffffffffffffffffffff168152602001908152602001600020600082825403925050819055508273ffffffffffffffffffffffffffffffffffffffff168473ffffffffffffffffffffffffffffffffffffffff167fddf252ad1be2c89b69c2b068fc378daa952ba7f163c4a11628f55a4df523b3ef846040518082815260200191505060405180910390a3600190509392505050565b600460009054906101000a900460ff1681565b6000809054906101000a900473ffffffffffffffffffffffffffffffffffffffff1673ffffffffffffffffffffffffffffffffffffffff163373ffffffffffffffffffffffffffffffffffffffff16141515610d7f57600080fd5b80600760006101000a81548173ffffffffffffffffffffffffffffffffffffffff021916908373ffffffffffffffffffffffffffffffffffffffff16021790555050565b6000809054906101000a900473ffffffffffffffffffffffffffffffffffffffff1673ffffffffffffffffffffffffffffffffffffffff163373ffffffffffffffffffffffffffffffffffffffff16141515610e1e57600080fd5b80600860003073ffffffffffffffffffffffffffffffffffffffff1673ffffffffffffffffffffffffffffffffffffffff168152602001908152602001600020600082825403925050819055508060056000828254039250508190555050565b60018054600181600116156101000203166002900480601f016020809104026020016040519081016040528092919081815260200182805460018160011615610100020316600290048015610f145780601f10610ee957610100808354040283529160200191610f14565b820191906000526020600020905b815481529060010190602001808311610ef757829003601f168201915b505050505081565b60086020528060005260406000206000915090505481565b6000809054906101000a900473ffffffffffffffffffffffffffffffffffffffff1673ffffffffffffffffffffffffffffffffffffffff163373ffffffffffffffffffffffffffffffffffffffff16141515610f8f57600080fd5b80600860008473ffffffffffffffffffffffffffffffffffffffff1673ffffffffffffffffffffffffffffffffffffffff16815260200190815260200160002060008282540192505081905550806005600082825401925050819055503073ffffffffffffffffffffffffffffffffffffffff1660007fddf252ad1be2c89b69c2b068fc378daa952ba7f163c4a11628f55a4df523b3ef836040518082815260200191505060405180910390a38173ffffffffffffffffffffffffffffffffffffffff163073ffffffffffffffffffffffffffffffffffffffff167fddf252ad1be2c89b69c2b068fc378daa952ba7f163c4a11628f55a4df523b3ef836040518082815260200191505060405180910390a35050565b60065481565b600760009054906101000a900473ffffffffffffffffffffffffffffffffffffffff1681565b6000809054906101000a900473ffffffffffffffffffffffffffffffffffffffff1681565b60038054600181600116156101000203166002900480601f01602080910402602001604051908101604052809291908181526020018280546001816001161561010002031660029004801561118c5780601f106111615761010080835404028352916020019161118c565b820191906000526020600020905b81548152906001019060200180831161116f57829003601f168201915b505050505081565b6000809054906101000a900473ffffffffffffffffffffffffffffffffffffffff1673ffffffffffffffffffffffffffffffffffffffff163373ffffffffffffffffffffffffffffffffffffffff161415156111ef57600080fd5b8060068190555050565b60006006543481151561120857fe5b04905080600860003073ffffffffffffffffffffffffffffffffffffffff1673ffffffffffffffffffffffffffffffffffffffff16815260200190815260200160002054101561125757600080fd5b80600860003373ffffffffffffffffffffffffffffffffffffffff1673ffffffffffffffffffffffffffffffffffffffff1681526020019081526020016000206000828254019250508190555080600860003073ffffffffffffffffffffffffffffffffffffffff1673ffffffffffffffffffffffffffffffffffffffff168152602001908152602001600020600082825403925050819055503373ffffffffffffffffffffffffffffffffffffffff163073ffffffffffffffffffffffffffffffffffffffff167fddf252ad1be2c89b69c2b068fc378daa952ba7f163c4a11628f55a4df523b3ef836040518082815260200191505060405180910390a350565b80600860003373ffffffffffffffffffffffffffffffffffffffff1673ffffffffffffffffffffffffffffffffffffffff1681526020019081526020016000205410156113a557600080fd5b600860008373ffffffffffffffffffffffffffffffffffffffff1673ffffffffffffffffffffffffffffffffffffffff1681526020019081526020016000205481600860008573ffffffffffffffffffffffffffffffffffffffff1673ffffffffffffffffffffffffffffffffffffffff1681526020019081526020016000205401101561143257600080fd5b80600860003373ffffffffffffffffffffffffffffffffffffffff1673ffffffffffffffffffffffffffffffffffffffff1681526020019081526020016000206000828254039250508190555080600860008473ffffffffffffffffffffffffffffffffffffffff1673ffffffffffffffffffffffffffffffffffffffff168152602001908152602001600020600082825401925050819055508173ffffffffffffffffffffffffffffffffffffffff163373ffffffffffffffffffffffffffffffffffffffff167fddf252ad1be2c89b69c2b068fc378daa952ba7f163c4a11628f55a4df523b3ef836040518082815260200191505060405180910390a35050565b83600860003373ffffffffffffffffffffffffffffffffffffffff1673ffffffffffffffffffffffffffffffffffffffff168152602001908152602001600020819055508360058190555082600290805190602001906115969291906118eb565b5080600390805190602001906115ad9291906118eb565b5081600460006101000a81548160ff021916908360ff16021790555050505050565b6000808490506115df8585610981565b15611749578073ffffffffffffffffffffffffffffffffffffffff16638f4ffcb1338630876040518563ffffffff167c0100000000000000000000000000000000000000000000000000000000028152600401808573ffffffffffffffffffffffffffffffffffffffff1673ffffffffffffffffffffffffffffffffffffffff1681526020018481526020018373ffffffffffffffffffffffffffffffffffffffff1673ffffffffffffffffffffffffffffffffffffffff16815260200180602001828103825283818151815260200191508051906020019080838360005b838110156116d95780820151818401526020810190506116be565b50505050905090810190601f1680156117065780820380516001836020036101000a031916815260200191505b5095505050505050600060405180830381600087803b15801561172857600080fd5b505af115801561173c573d6000803e3d6000fd5b505050506001915061174a565b5b509392505050565b6000809054906101000a900473ffffffffffffffffffffffffffffffffffffffff1673ffffffffffffffffffffffffffffffffffffffff163373ffffffffffffffffffffffffffffffffffffffff161415156117ad57600080fd5b600760009054906101000a900473ffffffffffffffffffffffffffffffffffffffff1673ffffffffffffffffffffffffffffffffffffffff166108fc3073ffffffffffffffffffffffffffffffffffffffff16319081150290604051600060405180830381858888f19350505050151561182657600080fd5b565b6009602052816000526040600020602052806000526040600020600091509150505481565b6000809054906101000a900473ffffffffffffffffffffffffffffffffffffffff1673ffffffffffffffffffffffffffffffffffffffff163373ffffffffffffffffffffffffffffffffffffffff161415156118a857600080fd5b806000806101000a81548173ffffffffffffffffffffffffffffffffffffffff021916908373ffffffffffffffffffffffffffffffffffffffff16021790555050565b828054600181600116156101000203166002900490600052602060002090601f016020900481019282601f1061192c57805160ff191683800117855561195a565b8280016001018555821561195a579182015b8281111561195957825182559160200191906001019061193e565b5b509050611967919061196b565b5090565b61198d91905b80821115611989576000816000905550600101611971565b5090565b905600a165627a7a723058207d28e80661d1b8fa4377fea5378b7ce8a93f9e32892f12b05f20625c6f2f3fe10029",
  "source": "\ncontract owned {\n    address public owner;\n\n    function owned() {\n        owner = msg.sender;\n    }\n\n    modifier onlyOwner {\n        if (msg.sender != owner) throw;\n        _;\n    }\n\n    function transferOwnership(address newOwner) onlyOwner {\n        owner = newOwner;\n    }\n}\n\ncontract tokenRecipient { function receiveApproval(address _from, uint256 _value, address _token, bytes _extraData); }\n\ncontract BuyerToken is owned {\n    \n    string public standard = 'Token 0.1';\n    string public name;\n    string public symbol;\n    uint8 public decimals;\n    uint256 public totalSupply;\n    uint256 public buyPrice;\n    address public project_wallet;\n\n    \n    mapping (address => uint256) public balanceOf;\n    mapping (address => mapping (address => uint256)) public allowance;\n\n    \n    event Transfer(address indexed from, address indexed to, uint256 value);\n\n    \n    function token(\n        uint256 initialSupply,\n        string tokenName,\n        uint8 decimalUnits,\n        string tokenSymbol\n        ) {\n        balanceOf[msg.sender] = initialSupply;              \n        totalSupply = initialSupply;                        \n        name = tokenName;                                   \n        symbol = tokenSymbol;                               \n        decimals = decimalUnits;                            \n    }\n    \n    function defineProjectWallet(address target) onlyOwner {\n        project_wallet = target;\n    }\n    \n    \n    function mintToken(address target, uint256 mintedAmount) onlyOwner {\n        balanceOf[target] += mintedAmount;\n        totalSupply += mintedAmount;\n        Transfer(0, this, mintedAmount);\n        Transfer(this, target, mintedAmount);\n    }\n    \n    \n    function distroyToken(uint256 burnAmount) onlyOwner {\n        balanceOf[this] -= burnAmount;\n        totalSupply -= burnAmount;\n    }\n\n    \n    function transfer(address _to, uint256 _value) {\n        if (balanceOf[msg.sender] < _value) throw;           \n        if (balanceOf[_to] + _value < balanceOf[_to]) throw; \n        balanceOf[msg.sender] -= _value;                     \n        balanceOf[_to] += _value;                            \n        Transfer(msg.sender, _to, _value);                   \n    }\n\n    \n    function approve(address _spender, uint256 _value)\n        returns (bool success) {\n        allowance[msg.sender][_spender] = _value;\n        tokenRecipient spender = tokenRecipient(_spender);\n        return true;\n    }\n\n    \n    function approveAndCall(address _spender, uint256 _value, bytes _extraData)\n        returns (bool success) {    \n        tokenRecipient spender = tokenRecipient(_spender);\n        if (approve(_spender, _value)) {\n            spender.receiveApproval(msg.sender, _value, this, _extraData);\n            return true;\n        }\n    }\n\n    \n    function transferFrom(address _from, address _to, uint256 _value) returns (bool success) {\n        if (balanceOf[_from] < _value) throw;                 \n        if (balanceOf[_to] + _value < balanceOf[_to]) throw;  \n        if (_value > allowance[_from][msg.sender]) throw;   \n        balanceOf[_from] -= _value;                          \n        balanceOf[_to] += _value;                            \n        allowance[_from][msg.sender] -= _value;\n        Transfer(_from, _to, _value);\n        return true;\n    }\n    \n    function setPrices(uint256 newBuyPrice) onlyOwner {\n        buyPrice = newBuyPrice;\n    }\n\n    function buy() payable {\n        uint amount = msg.value / buyPrice;                \n        if (balanceOf[this] < amount) throw;               \n        balanceOf[msg.sender] += amount;                   \n        balanceOf[this] -= amount;                         \n        Transfer(this, msg.sender, amount);                \n    }\n    \n    function moveFunds() onlyOwner {\n        if (!project_wallet.send(this.balance)) throw;\n    }\n\n\n    \n    function () {\n        throw;     \n    }\n}",
  "sourcePath": "/home/XXX-1/smartrim-experiment/for-rlf/0x18429dedafbb65443edf60402294df5c01aee1da/contracts/0x18429dedafbb65443edf60402294df5c01aee1da.sol",
  "compiler": {
    "name": "solc",
    "version": "0.4.25+commit.59dbf8f1.Emscripten.clang"
  },
  "schemaVersion": "3.4.16",
  "updatedAt": "2025-08-14T03:48:28.818Z",
  "networkType": "ethereum",
  "devdoc": {
    "methods": {}
  },
  "userdoc": {
    "methods": {}
  }
}