{
  "contractName": "SmallRoulette",
  "abi": [
    {
      "constant": true,
      "inputs": [
        {
          "name": "",
          "type": "uint256"
        }
      ],
      "name": "gamesPlayed",
      "outputs": [
        {
          "name": "player",
          "type": "address"
        },
        {
          "name": "number",
          "type": "uint256"
        }
      ],
      "payable": false,
      "stateMutability": "view",
      "type": "function"
    },
    {
      "constant": true,
      "inputs": [],
      "name": "ownerAddr",
      "outputs": [
        {
          "name": "",
          "type": "address"
        }
      ],
      "payable": false,
      "stateMutability": "view",
      "type": "function"
    },
    {
      "constant": true,
      "inputs": [],
      "name": "lastPlayed",
      "outputs": [
        {
          "name": "",
          "type": "uint256"
        }
      ],
      "payable": false,
      "stateMutability": "view",
      "type": "function"
    },
    {
      "constant": true,
      "inputs": [],
      "name": "betPrice",
      "outputs": [
        {
          "name": "",
          "type": "uint256"
        }
      ],
      "payable": false,
      "stateMutability": "view",
      "type": "function"
    },
    {
      "inputs": [],
      "payable": false,
      "stateMutability": "nonpayable",
      "type": "constructor"
    },
    {
      "payable": true,
      "stateMutability": "payable",
      "type": "fallback"
    },
    {
      "constant": false,
      "inputs": [
        {
          "name": "number",
          "type": "uint256"
        }
      ],
      "name": "play",
      "outputs": [],
      "payable": true,
      "stateMutability": "payable",
      "type": "function"
    },
    {
      "constant": false,
      "inputs": [],
      "name": "kill",
      "outputs": [],
      "payable": false,
      "stateMutability": "nonpayable",
      "type": "function"
    }
  ],
  "bytecode": "0x608060405267016345785d8a000060025534801561001c57600080fd5b5033600360006101000a81548173ffffffffffffffffffffffffffffffffffffffff021916908373ffffffffffffffffffffffffffffffffffffffff16021790555061007561007a640100000000026401000000009004565b6100c5565b600160054260014303406040518083815260200182600019166000191681526020019250505060405180910390206001900460ff168115156100b857fe5b060160ff16600081905550565b6104db806100d46000396000f300608060405260043610610078576000357c0100000000000000000000000000000000000000000000000000000000900463ffffffff168063382cf0a61461007a57806341c0e1b5146100ee5780636898f82b146101055780639c675eaa14610125578063c53391321461017c578063cfd8a175146101a7575b005b34801561008657600080fd5b506100a5600480360381019080803590602001909291905050506101d2565b604051808373ffffffffffffffffffffffffffffffffffffffff1673ffffffffffffffffffffffffffffffffffffffff1681526020018281526020019250505060405180910390f35b3480156100fa57600080fd5b50610103610225565b005b610123600480360381019080803590602001909291905050506102a8565b005b34801561013157600080fd5b5061013a610432565b604051808273ffffffffffffffffffffffffffffffffffffffff1673ffffffffffffffffffffffffffffffffffffffff16815260200191505060405180910390f35b34801561018857600080fd5b50610191610458565b6040518082815260200191505060405180910390f35b3480156101b357600080fd5b506101bc61045e565b6040518082815260200191505060405180910390f35b6004818154811015156101e157fe5b90600052602060002090600202016000915090508060000160009054906101000a900473ffffffffffffffffffffffffffffffffffffffff16908060010154905082565b600360009054906101000a900473ffffffffffffffffffffffffffffffffffffffff1673ffffffffffffffffffffffffffffffffffffffff163373ffffffffffffffffffffffffffffffffffffffff161480156102885750620151806001540142115b156102a6573373ffffffffffffffffffffffffffffffffffffffff16ff5b565b600060025434101580156102bd575060058211155b15156102c857600080fd5b338160000160006101000a81548173ffffffffffffffffffffffffffffffffffffffff021916908373ffffffffffffffffffffffffffffffffffffffff160217905550818160010181905550600481908060018154018082558091505090600182039060005260206000209060020201600090919290919091506000820160009054906101000a900473ffffffffffffffffffffffffffffffffffffffff168160000160006101000a81548173ffffffffffffffffffffffffffffffffffffffff021916908373ffffffffffffffffffffffffffffffffffffffff1602179055506001820154816001015550505060005482141561041f573373ffffffffffffffffffffffffffffffffffffffff166108fc3073ffffffffffffffffffffffffffffffffffffffff16319081150290604051600060405180830381858888f1935050505015801561041d573d6000803e3d6000fd5b505b610427610464565b426001819055505050565b600360009054906101000a900473ffffffffffffffffffffffffffffffffffffffff1681565b60015481565b60025481565b600160054260014303406040518083815260200182600019166000191681526020019250505060405180910390206001900460ff168115156104a257fe5b060160ff166000819055505600a165627a7a72305820547dfdc1dba39f9c0260734ce0fc65b44acb34f65459ba172630e42e978abf5a0029",
  "source": "\n\n\n\n\n\n\ncontract SmallRoulette {\n\n    uint256 private secretNumber;\n    uint256 public lastPlayed;\n    uint256 public betPrice = 0.1 ether;\n    address public ownerAddr;\n\n    struct Game {\n        address player;\n        uint256 number;\n    }\n    Game[] public gamesPlayed;\n\n    function SmallRoulette() public {\n        ownerAddr = msg.sender;\n        shuffle();\n    }\n\n    function shuffle() internal {\n        \n        secretNumber = uint8(sha3(now, block.blockhash(block.number-1))) % 5 + 1;\n    }\n\n    function play(uint256 number) payable public {\n        require(msg.value >= betPrice && number <= 5);\n\n        Game game;\n        game.player = msg.sender;\n        game.number = number;\n        gamesPlayed.push(game);\n\n        if (number == secretNumber) {\n            \n            msg.sender.transfer(this.balance);\n        }\n\n        shuffle();\n        lastPlayed = now;\n    }\n\n    function kill() public {\n        if (msg.sender == ownerAddr && now > lastPlayed + 1 days) {\n            suicide(msg.sender);\n        }\n    }\n\n    function() public payable { }\n}",
  "sourcePath": "/home/XXX-1/smartrim-experiment/for-rlf/0x01b21934ba28dfd8a22c4d21c710290500a5081f/contracts/0x01b21934ba28dfd8a22c4d21c710290500a5081f.sol",
  "compiler": {
    "name": "solc",
    "version": "0.4.25+commit.59dbf8f1.Emscripten.clang"
  },
  "schemaVersion": "3.4.16",
  "updatedAt": "2025-08-14T03:44:37.781Z",
  "networkType": "ethereum",
  "devdoc": {
    "methods": {}
  },
  "userdoc": {
    "methods": {}
  }
}