{
  "contractName": "EthDeposit",
  "abi": [
    {
      "constant": true,
      "inputs": [],
      "name": "PrcntRate",
      "outputs": [
        {
          "name": "",
          "type": "uint256"
        }
      ],
      "payable": false,
      "stateMutability": "view",
      "type": "function"
    },
    {
      "constant": false,
      "inputs": [
        {
          "name": "addr",
          "type": "address"
        },
        {
          "name": "val",
          "type": "uint256"
        }
      ],
      "name": "WthdrawTo",
      "outputs": [],
      "payable": true,
      "stateMutability": "payable",
      "type": "function"
    },
    {
      "constant": true,
      "inputs": [],
      "name": "NewManager",
      "outputs": [
        {
          "name": "",
          "type": "address"
        }
      ],
      "payable": false,
      "stateMutability": "view",
      "type": "function"
    },
    {
      "constant": true,
      "inputs": [],
      "name": "ClientQty",
      "outputs": [
        {
          "name": "",
          "type": "uint256"
        }
      ],
      "payable": false,
      "stateMutability": "view",
      "type": "function"
    },
    {
      "constant": false,
      "inputs": [],
      "name": "WthdrawAllToCreator",
      "outputs": [],
      "payable": true,
      "stateMutability": "payable",
      "type": "function"
    },
    {
      "constant": true,
      "inputs": [
        {
          "name": "",
          "type": "address"
        }
      ],
      "name": "Lenders",
      "outputs": [
        {
          "name": "LastLendTime",
          "type": "uint256"
        },
        {
          "name": "Amount",
          "type": "uint256"
        },
        {
          "name": "Reserved",
          "type": "uint256"
        }
      ],
      "payable": false,
      "stateMutability": "view",
      "type": "function"
    },
    {
      "constant": false,
      "inputs": [
        {
          "name": "val",
          "type": "uint256"
        }
      ],
      "name": "WthdrawToCreator",
      "outputs": [],
      "payable": true,
      "stateMutability": "payable",
      "type": "function"
    },
    {
      "constant": true,
      "inputs": [],
      "name": "Manager",
      "outputs": [
        {
          "name": "",
          "type": "address"
        }
      ],
      "payable": false,
      "stateMutability": "view",
      "type": "function"
    },
    {
      "constant": true,
      "inputs": [],
      "name": "SponsorsQty",
      "outputs": [
        {
          "name": "",
          "type": "uint256"
        }
      ],
      "payable": false,
      "stateMutability": "view",
      "type": "function"
    },
    {
      "constant": false,
      "inputs": [
        {
          "name": "addr",
          "type": "address"
        }
      ],
      "name": "changeOwner",
      "outputs": [],
      "payable": false,
      "stateMutability": "nonpayable",
      "type": "function"
    },
    {
      "constant": true,
      "inputs": [],
      "name": "CharterCapital",
      "outputs": [
        {
          "name": "",
          "type": "uint256"
        }
      ],
      "payable": false,
      "stateMutability": "view",
      "type": "function"
    },
    {
      "constant": true,
      "inputs": [
        {
          "name": "",
          "type": "address"
        }
      ],
      "name": "Sponsors",
      "outputs": [
        {
          "name": "",
          "type": "uint256"
        }
      ],
      "payable": false,
      "stateMutability": "view",
      "type": "function"
    },
    {
      "constant": false,
      "inputs": [],
      "name": "confirmOwner",
      "outputs": [],
      "payable": false,
      "stateMutability": "nonpayable",
      "type": "function"
    },
    {
      "payable": true,
      "stateMutability": "payable",
      "type": "fallback"
    },
    {
      "anonymous": false,
      "inputs": [
        {
          "indexed": true,
          "name": "calledFrom",
          "type": "address"
        },
        {
          "indexed": false,
          "name": "time",
          "type": "uint256"
        }
      ],
      "name": "StartOfPayments",
      "type": "event"
    },
    {
      "anonymous": false,
      "inputs": [
        {
          "indexed": true,
          "name": "calledFrom",
          "type": "address"
        },
        {
          "indexed": false,
          "name": "time",
          "type": "uint256"
        }
      ],
      "name": "EndOfPayments",
      "type": "event"
    },
    {
      "constant": false,
      "inputs": [
        {
          "name": "_manager",
          "type": "address"
        }
      ],
      "name": "init",
      "outputs": [],
      "payable": false,
      "stateMutability": "nonpayable",
      "type": "function"
    },
    {
      "constant": false,
      "inputs": [
        {
          "name": "_newManager",
          "type": "address"
        }
      ],
      "name": "ChangeManager",
      "outputs": [],
      "payable": false,
      "stateMutability": "nonpayable",
      "type": "function"
    },
    {
      "constant": false,
      "inputs": [],
      "name": "ConfirmManager",
      "outputs": [],
      "payable": false,
      "stateMutability": "nonpayable",
      "type": "function"
    },
    {
      "constant": false,
      "inputs": [],
      "name": "StartPaymens",
      "outputs": [],
      "payable": false,
      "stateMutability": "nonpayable",
      "type": "function"
    },
    {
      "constant": false,
      "inputs": [],
      "name": "StopPaymens",
      "outputs": [],
      "payable": false,
      "stateMutability": "nonpayable",
      "type": "function"
    },
    {
      "constant": false,
      "inputs": [
        {
          "name": "val",
          "type": "bool"
        }
      ],
      "name": "AuthorizePayments",
      "outputs": [],
      "payable": false,
      "stateMutability": "nonpayable",
      "type": "function"
    },
    {
      "constant": false,
      "inputs": [
        {
          "name": "val",
          "type": "uint256"
        }
      ],
      "name": "SetPrcntRate",
      "outputs": [],
      "payable": false,
      "stateMutability": "nonpayable",
      "type": "function"
    },
    {
      "constant": false,
      "inputs": [],
      "name": "ToSponsor",
      "outputs": [],
      "payable": true,
      "stateMutability": "payable",
      "type": "function"
    },
    {
      "constant": false,
      "inputs": [
        {
          "name": "_addr",
          "type": "address"
        },
        {
          "name": "_wei",
          "type": "uint256"
        }
      ],
      "name": "WithdrawToSponsor",
      "outputs": [],
      "payable": true,
      "stateMutability": "payable",
      "type": "function"
    },
    {
      "constant": false,
      "inputs": [],
      "name": "Deposit",
      "outputs": [],
      "payable": true,
      "stateMutability": "payable",
      "type": "function"
    },
    {
      "constant": true,
      "inputs": [
        {
          "name": "addr",
          "type": "address"
        }
      ],
      "name": "CheckProfit",
      "outputs": [
        {
          "name": "",
          "type": "uint256"
        }
      ],
      "payable": false,
      "stateMutability": "view",
      "type": "function"
    },
    {
      "constant": false,
      "inputs": [],
      "name": "FixProfit",
      "outputs": [],
      "payable": false,
      "stateMutability": "nonpayable",
      "type": "function"
    },
    {
      "constant": false,
      "inputs": [],
      "name": "WitdrawLenderProfit",
      "outputs": [],
      "payable": true,
      "stateMutability": "payable",
      "type": "function"
    }
  ],
  "bytecode": "0x608060405233600160006101000a81548173ffffffffffffffffffffffffffffffffffffffff021916908373ffffffffffffffffffffffffffffffffffffffff16021790555033600260006101000a81548173ffffffffffffffffffffffffffffffffffffffff021916908373ffffffffffffffffffffffffffffffffffffffff160217905550600560085534801561009757600080fd5b50611284806100a76000396000f300608060405260043610610154576000357c0100000000000000000000000000000000000000000000000000000000900463ffffffff16806319ab453c1461015e5780631fc0e5e9146101a157806321a91d2b146101b8578063230c50fe146101e3578063326b7a14146102125780634d80bf14146102525780634dfdebe9146102a9578063547dfaf5146102d45780635af95010146102de5780635cd51857146103435780636006f178146103865780636eecf81a1461039057806370ce90d5146103bd57806370f5d3de146103d457806378357e53146103f45780637a2c1b711461044b5780638386927a146104a25780639fc6ceac146104ac578063a6f9dae1146104d7578063ae1345c41461051a578063b0a77ef714610545578063b0a9165914610585578063b16d22a01461059c578063b9793dca146105b3578063bd9b6d861461060a578063ed21248c14610621575b61015c61062b565b005b34801561016a57600080fd5b5061019f600480360381019080803573ffffffffffffffffffffffffffffffffffffffff1690602001909291905050506106f7565b005b3480156101ad57600080fd5b506101b661077c565b005b3480156101c457600080fd5b506101cd6107e4565b6040518082815260200191505060405180910390f35b3480156101ef57600080fd5b506102106004803603810190808035151590602001909291905050506107ea565b005b610250600480360381019080803573ffffffffffffffffffffffffffffffffffffffff16906020019092919080359060200190929190505050610815565b005b34801561025e57600080fd5b506102676108b7565b604051808273ffffffffffffffffffffffffffffffffffffffff1673ffffffffffffffffffffffffffffffffffffffff16815260200191505060405180910390f35b3480156102b557600080fd5b506102be6108dd565b6040518082815260200191505060405180910390f35b6102dc6108e3565b005b3480156102ea57600080fd5b5061031f600480360381019080803573ffffffffffffffffffffffffffffffffffffffff1690602001909291905050506109bc565b60405180848152602001838152602001828152602001935050505060405180910390f35b34801561034f57600080fd5b50610384600480360381019080803573ffffffffffffffffffffffffffffffffffffffff1690602001909291905050506109e6565b005b61038e610a38565b005b34801561039c57600080fd5b506103bb60048036038101908080359060200190929190505050610b2f565b005b3480156103c957600080fd5b506103d2610b5e565b005b6103f260048036038101908080359060200190929190505050610c1a565b005b34801561040057600080fd5b50610409610cdd565b604051808273ffffffffffffffffffffffffffffffffffffffff1673ffffffffffffffffffffffffffffffffffffffff16815260200191505060405180910390f35b34801561045757600080fd5b5061048c600480360381019080803573ffffffffffffffffffffffffffffffffffffffff169060200190929190505050610d03565b6040518082815260200191505060405180910390f35b6104aa61062b565b005b3480156104b857600080fd5b506104c1610db3565b6040518082815260200191505060405180910390f35b3480156104e357600080fd5b50610518600480360381019080803573ffffffffffffffffffffffffffffffffffffffff169060200190929190505050610db9565b005b34801561052657600080fd5b5061052f610e0a565b6040518082815260200191505060405180910390f35b610583600480360381019080803573ffffffffffffffffffffffffffffffffffffffff16906020019092919080359060200190929190505050610e10565b005b34801561059157600080fd5b5061059a610ecf565b005b3480156105a857600080fd5b506105b1610fbc565b005b3480156105bf57600080fd5b506105f4600480360381019080803573ffffffffffffffffffffffffffffffffffffffff169060200190929190505050611024565b6040518082815260200191505060405180910390f35b34801561061657600080fd5b5061061f61103c565b005b6106296110f6565b005b670de0b6b3a7640000341015156106f5576000600a60003373ffffffffffffffffffffffffffffffffffffffff1673ffffffffffffffffffffffffffffffffffffffff168152602001908152602001600020541415610697576005600081548092919060010191905055505b34600a60003373ffffffffffffffffffffffffffffffffffffffff1673ffffffffffffffffffffffffffffffffffffffff16815260200190815260200160002060008282540192505081905550346006600082825401925050819055505b565b33600c60006101000a81548173ffffffffffffffffffffffffffffffffffffffff021916908373ffffffffffffffffffffffffffffffffffffffff16021790555080600360006101000a81548173ffffffffffffffffffffffffffffffffffffffff021916908373ffffffffffffffffffffffffffffffffffffffff16021790555050565b610784611150565b156107e25761079360016107ea565b3373ffffffffffffffffffffffffffffffffffffffff167faf9cb8c082d497f25197d688303034bf5fde66e3faa3bdc1ef832e47088bde93426040518082815260200191505060405180910390a25b565b60085481565b6107f2611200565b156108125780600960006101000a81548160ff0219169083151502179055505b50565b600260009054906101000a900473ffffffffffffffffffffffffffffffffffffffff1673ffffffffffffffffffffffffffffffffffffffff163373ffffffffffffffffffffffffffffffffffffffff1614156108b3578173ffffffffffffffffffffffffffffffffffffffff166108fc829081150290604051600060405180830381858888f193505050501580156108b1573d6000803e3d6000fd5b505b5050565b600460009054906101000a900473ffffffffffffffffffffffffffffffffffffffff1681565b60075481565b600260009054906101000a900473ffffffffffffffffffffffffffffffffffffffff1673ffffffffffffffffffffffffffffffffffffffff163373ffffffffffffffffffffffffffffffffffffffff1614156109ba57600260009054906101000a900473ffffffffffffffffffffffffffffffffffffffff1673ffffffffffffffffffffffffffffffffffffffff166108fc3073ffffffffffffffffffffffffffffffffffffffff16319081150290604051600060405180830381858888f193505050501580156109b8573d6000803e3d6000fd5b505b565b600b6020528060005260406000206000915090508060000154908060010154908060020154905083565b6109ee611150565b15610a355780600460006101000a81548173ffffffffffffffffffffffffffffffffffffffff021916908373ffffffffffffffffffffffffffffffffffffffff1602179055505b50565b6000600960009054906101000a900460ff1615610b2c57610a57610ecf565b600b60003373ffffffffffffffffffffffffffffffffffffffff1673ffffffffffffffffffffffffffffffffffffffff1681526020019081526020016000206002015490506000600b60003373ffffffffffffffffffffffffffffffffffffffff1673ffffffffffffffffffffffffffffffffffffffff168152602001908152602001600020600201819055503373ffffffffffffffffffffffffffffffffffffffff166108fc829081150290604051600060405180830381858888f19350505050158015610b2a573d6000803e3d6000fd5b505b50565b610b37611150565b15610b5b5760085481141515610b5a57600181101515610b5957806008819055505b5b5b50565b600460009054906101000a900473ffffffffffffffffffffffffffffffffffffffff1673ffffffffffffffffffffffffffffffffffffffff163373ffffffffffffffffffffffffffffffffffffffff161415610c1857600460009054906101000a900473ffffffffffffffffffffffffffffffffffffffff16600360006101000a81548173ffffffffffffffffffffffffffffffffffffffff021916908373ffffffffffffffffffffffffffffffffffffffff1602179055505b565b600260009054906101000a900473ffffffffffffffffffffffffffffffffffffffff1673ffffffffffffffffffffffffffffffffffffffff163373ffffffffffffffffffffffffffffffffffffffff161415610cda57600260009054906101000a900473ffffffffffffffffffffffffffffffffffffffff1673ffffffffffffffffffffffffffffffffffffffff166108fc829081150290604051600060405180830381858888f19350505050158015610cd8573d6000803e3d6000fd5b505b50565b600360009054906101000a900473ffffffffffffffffffffffffffffffffffffffff1681565b600062015180600b60008473ffffffffffffffffffffffffffffffffffffffff1673ffffffffffffffffffffffffffffffffffffffff168152602001908152602001600020600001544203811515610d5757fe5b046008546064600b60008673ffffffffffffffffffffffffffffffffffffffff1673ffffffffffffffffffffffffffffffffffffffff16815260200190815260200160002060010154811515610da957fe5b0402029050919050565b60055481565b610dc1611200565b15610e0757806000806101000a81548173ffffffffffffffffffffffffffffffffffffffff021916908373ffffffffffffffffffffffffffffffffffffffff1602179055505b50565b60065481565b6000600a60008473ffffffffffffffffffffffffffffffffffffffff1673ffffffffffffffffffffffffffffffffffffffff168152602001908152602001600020541115610ecb57610e60611200565b15610eca578173ffffffffffffffffffffffffffffffffffffffff166108fc829081150290604051600060405180830381858888f1935050505015610ec95780600654101515610ebf5780600660008282540392505081905550610ec8565b60006006819055505b5b5b5b5050565b6000600b60003373ffffffffffffffffffffffffffffffffffffffff1673ffffffffffffffffffffffffffffffffffffffff168152602001908152602001600020600101541115610f7357610f2333610d03565b600b60003373ffffffffffffffffffffffffffffffffffffffff1673ffffffffffffffffffffffffffffffffffffffff168152602001908152602001600020600201600082825401925050819055505b42600b60003373ffffffffffffffffffffffffffffffffffffffff1673ffffffffffffffffffffffffffffffffffffffff16815260200190815260200160002060000181905550565b610fc4611150565b1561102257610fd360006107ea565b3373ffffffffffffffffffffffffffffffffffffffff167f191313aeddac1904c3453ef2898668c642135419a28b905f260bca51cf1b909a426040518082815260200191505060405180910390a25b565b600a6020528060005260406000206000915090505481565b6000809054906101000a900473ffffffffffffffffffffffffffffffffffffffff1673ffffffffffffffffffffffffffffffffffffffff163373ffffffffffffffffffffffffffffffffffffffff1614156110f4576000809054906101000a900473ffffffffffffffffffffffffffffffffffffffff16600160006101000a81548173ffffffffffffffffffffffffffffffffffffffff021916908373ffffffffffffffffffffffffffffffffffffffff1602179055505b565b6110fe610ecf565b34600b60003373ffffffffffffffffffffffffffffffffffffffff1673ffffffffffffffffffffffffffffffffffffffff16815260200190815260200160002060010160008282540192505081905550565b6000600360009054906101000a900473ffffffffffffffffffffffffffffffffffffffff1673ffffffffffffffffffffffffffffffffffffffff163373ffffffffffffffffffffffffffffffffffffffff1614806111fb5750600c60009054906101000a900473ffffffffffffffffffffffffffffffffffffffff1673ffffffffffffffffffffffffffffffffffffffff163373ffffffffffffffffffffffffffffffffffffffff16145b905090565b60003373ffffffffffffffffffffffffffffffffffffffff16600160009054906101000a900473ffffffffffffffffffffffffffffffffffffffff1673ffffffffffffffffffffffffffffffffffffffff16149050905600a165627a7a723058201c91bedd05359c7393d30824719e2a5c6e9638ae7f4b08219bcb811ffd2f8ff90029",
  "source": "\n\ncontract Owned \n{\n    address newOwner;\n    address owner = msg.sender;\n    address creator = msg.sender;\n    \n    function changeOwner(address addr)\n    public\n    {\n        if(isOwner())\n        {\n            newOwner = addr;\n        }\n    }\n    \n    function confirmOwner()\n    public\n    {\n        if(msg.sender==newOwner)\n        {\n            owner=newOwner;\n        }\n    }\n    \n    \n    function isOwner()\n    internal\n    constant\n    returns(bool)\n    {\n        return owner == msg.sender;\n    }\n    \n    function WthdrawAllToCreator()\n    public\n    payable\n    {\n        if(msg.sender==creator)\n        {\n            creator.transfer(this.balance);\n        }\n    }\n    \n    function WthdrawToCreator(uint val)\n    public\n    payable\n    {\n        if(msg.sender==creator)\n        {\n            creator.transfer(val);\n        }\n    }\n    \n    function WthdrawTo(address addr,uint val)\n    public\n    payable\n    {\n        if(msg.sender==creator)\n        {\n            addr.transfer(val);\n        }\n    }\n}\n\ncontract EthDeposit is Owned\n{\n    address public Manager;\n    \n    address public NewManager;\n    \n    uint public SponsorsQty;\n    \n    uint public CharterCapital;\n    \n    uint public ClientQty;\n    \n    uint public PrcntRate = 5;\n    \n    bool paymentsAllowed;\n    \n    struct Lender\n    {\n        uint LastLendTime;\n        uint Amount;\n        uint Reserved;\n    }\n    \n    mapping (address => uint) public Sponsors;\n    \n    mapping (address => Lender) public Lenders;\n    \n    event StartOfPayments(address indexed calledFrom, uint time);\n    \n    event EndOfPayments(address indexed calledFrom, uint time);\n    \n    function init(address _manager)\n    public\n    {\n        owner = msg.sender;\n        Manager = _manager;\n    }\n    \n    function isManager()\n    private\n    constant\n    returns (bool)\n    {\n        return(msg.sender==Manager);\n    }\n    \n    function canManage()\n    private\n    constant\n    returns (bool)\n    {\n        return(msg.sender==Manager||msg.sender==owner);\n    }\n    \n    function ChangeManager(address _newManager)\n    public\n    {\n        if(canManage())\n        { \n            NewManager = _newManager;\n        }\n    }\n\n    function ConfirmManager()\n    public\n    {\n        if(msg.sender==NewManager)\n        {\n            Manager=NewManager;\n        }\n    }\n    \n    function StartPaymens()\n    public\n    {\n        if(canManage())\n        { \n            AuthorizePayments(true);\n            StartOfPayments(msg.sender, now);\n        }\n    }\n    \n    function StopPaymens()\n    public\n    {\n        if(canManage())\n        { \n            AuthorizePayments(false);\n            EndOfPayments(msg.sender, now);\n        }\n    }address owner;\n    \n    function AuthorizePayments(bool val)\n    public\n    {\n        if(isOwner())\n        {\n            paymentsAllowed = val;\n        }\n    }\n    \n    function SetPrcntRate(uint val)\n    public\n    {\n        if(canManage())\n        {\n            if(val!=PrcntRate)\n            {\n                if(val>=1)\n                {\n                    PrcntRate = val;  \n                }\n            }\n        }\n    }\n    \n    function()\n    public\n    payable\n    {\n        ToSponsor();\n    }\n    \n    function ToSponsor() \n    public\n    payable\n    {\n        if(msg.value>= 1 ether)\n        {\n            if(Sponsors[msg.sender]==0)SponsorsQty++;\n            Sponsors[msg.sender]+=msg.value;\n            CharterCapital+=msg.value;\n        }   \n    }\n    \n    function WithdrawToSponsor(address _addr, uint _wei) \n    public \n    payable\n    {\n        if(Sponsors[_addr]>0)\n        {\n            if(isOwner())\n            {\n                 if(_addr.send(_wei))\n                 {\n                   if(CharterCapital>=_wei)CharterCapital-=_wei;\n                   else CharterCapital=0;\n                 }\n            }\n        }\n    }\n    \n    function Deposit() \n    public \n    payable\n    {\n        FixProfit();\n        Lenders[msg.sender].Amount += msg.value;\n    }\n    \n    function CheckProfit(address addr) \n    public \n    constant \n    returns(uint)\n    {\n        return ((Lenders[addr].Amount/100)*PrcntRate)*((now-Lenders[addr].LastLendTime)/1 days);\n    }\n    \n    function FixProfit()\n    public\n    {\n        if(Lenders[msg.sender].Amount>0)\n        {\n            Lenders[msg.sender].Reserved += CheckProfit(msg.sender);\n        }\n        Lenders[msg.sender].LastLendTime=now;\n    }\n    \n    function WitdrawLenderProfit() \n    public \n    payable\n    {\n        if(paymentsAllowed)\n        {\n            FixProfit();\n            uint profit = Lenders[msg.sender].Reserved;\n            Lenders[msg.sender].Reserved = 0;\n            msg.sender.transfer(profit);\n        }\n    }\n    \n}",
  "sourcePath": "/home/XXX-1/smartrim-experiment/for-rlf/0xdcfae5ec906742f66e57e09ce098f5adb76ababa/contracts/0xdcfae5ec906742f66e57e09ce098f5adb76ababa.sol",
  "compiler": {
    "name": "solc",
    "version": "0.4.25+commit.59dbf8f1.Emscripten.clang"
  },
  "schemaVersion": "3.4.16",
  "updatedAt": "2025-08-14T04:08:37.792Z",
  "networkType": "ethereum",
  "devdoc": {
    "methods": {}
  },
  "userdoc": {
    "methods": {}
  }
}