{
  "contractName": "ERC721dAppCaps_1",
  "abi": [
    {
      "constant": true,
      "inputs": [
        {
          "name": "_interfaceId",
          "type": "bytes4"
        }
      ],
      "name": "supportsInterface",
      "outputs": [
        {
          "name": "",
          "type": "bool"
        }
      ],
      "payable": false,
      "stateMutability": "view",
      "type": "function"
    },
    {
      "constant": true,
      "inputs": [
        {
          "name": "_tokenId",
          "type": "uint256"
        }
      ],
      "name": "getApproved",
      "outputs": [
        {
          "name": "",
          "type": "address"
        }
      ],
      "payable": false,
      "stateMutability": "view",
      "type": "function"
    },
    {
      "constant": false,
      "inputs": [
        {
          "name": "_to",
          "type": "address"
        },
        {
          "name": "_tokenId",
          "type": "uint256"
        }
      ],
      "name": "approve",
      "outputs": [],
      "payable": false,
      "stateMutability": "nonpayable",
      "type": "function"
    },
    {
      "constant": true,
      "inputs": [],
      "name": "InterfaceId_ERC165",
      "outputs": [
        {
          "name": "",
          "type": "bytes4"
        }
      ],
      "payable": false,
      "stateMutability": "view",
      "type": "function"
    },
    {
      "constant": false,
      "inputs": [
        {
          "name": "_from",
          "type": "address"
        },
        {
          "name": "_to",
          "type": "address"
        },
        {
          "name": "_tokenId",
          "type": "uint256"
        }
      ],
      "name": "transferFrom",
      "outputs": [],
      "payable": false,
      "stateMutability": "nonpayable",
      "type": "function"
    },
    {
      "constant": true,
      "inputs": [],
      "name": "contact",
      "outputs": [
        {
          "name": "",
          "type": "string"
        }
      ],
      "payable": false,
      "stateMutability": "view",
      "type": "function"
    },
    {
      "constant": false,
      "inputs": [],
      "name": "withdraw",
      "outputs": [],
      "payable": false,
      "stateMutability": "nonpayable",
      "type": "function"
    },
    {
      "constant": false,
      "inputs": [
        {
          "name": "_from",
          "type": "address"
        },
        {
          "name": "_to",
          "type": "address"
        },
        {
          "name": "_tokenId",
          "type": "uint256"
        }
      ],
      "name": "safeTransferFrom",
      "outputs": [],
      "payable": false,
      "stateMutability": "nonpayable",
      "type": "function"
    },
    {
      "constant": true,
      "inputs": [
        {
          "name": "",
          "type": "address"
        }
      ],
      "name": "contributions",
      "outputs": [
        {
          "name": "",
          "type": "uint256"
        }
      ],
      "payable": false,
      "stateMutability": "view",
      "type": "function"
    },
    {
      "constant": true,
      "inputs": [
        {
          "name": "_tokenId",
          "type": "uint256"
        }
      ],
      "name": "exists",
      "outputs": [
        {
          "name": "",
          "type": "bool"
        }
      ],
      "payable": false,
      "stateMutability": "view",
      "type": "function"
    },
    {
      "constant": false,
      "inputs": [],
      "name": "fallback",
      "outputs": [],
      "payable": false,
      "stateMutability": "nonpayable",
      "type": "function"
    },
    {
      "constant": true,
      "inputs": [
        {
          "name": "_tokenId",
          "type": "uint256"
        }
      ],
      "name": "ownerOf",
      "outputs": [
        {
          "name": "",
          "type": "address"
        }
      ],
      "payable": false,
      "stateMutability": "view",
      "type": "function"
    },
    {
      "constant": true,
      "inputs": [],
      "name": "company",
      "outputs": [
        {
          "name": "",
          "type": "string"
        }
      ],
      "payable": false,
      "stateMutability": "view",
      "type": "function"
    },
    {
      "constant": true,
      "inputs": [
        {
          "name": "_owner",
          "type": "address"
        }
      ],
      "name": "balanceOf",
      "outputs": [
        {
          "name": "",
          "type": "uint256"
        }
      ],
      "payable": false,
      "stateMutability": "view",
      "type": "function"
    },
    {
      "constant": false,
      "inputs": [],
      "name": "renounceOwnership",
      "outputs": [],
      "payable": false,
      "stateMutability": "nonpayable",
      "type": "function"
    },
    {
      "constant": true,
      "inputs": [],
      "name": "owner",
      "outputs": [
        {
          "name": "",
          "type": "address"
        }
      ],
      "payable": false,
      "stateMutability": "view",
      "type": "function"
    },
    {
      "constant": false,
      "inputs": [
        {
          "name": "_to",
          "type": "address"
        },
        {
          "name": "_approved",
          "type": "bool"
        }
      ],
      "name": "setApprovalForAll",
      "outputs": [],
      "payable": false,
      "stateMutability": "nonpayable",
      "type": "function"
    },
    {
      "constant": true,
      "inputs": [],
      "name": "author",
      "outputs": [
        {
          "name": "",
          "type": "string"
        }
      ],
      "payable": false,
      "stateMutability": "view",
      "type": "function"
    },
    {
      "constant": false,
      "inputs": [
        {
          "name": "_from",
          "type": "address"
        },
        {
          "name": "_to",
          "type": "address"
        },
        {
          "name": "_tokenId",
          "type": "uint256"
        },
        {
          "name": "_data",
          "type": "bytes"
        }
      ],
      "name": "safeTransferFrom",
      "outputs": [],
      "payable": false,
      "stateMutability": "nonpayable",
      "type": "function"
    },
    {
      "constant": false,
      "inputs": [],
      "name": "contribute",
      "outputs": [],
      "payable": true,
      "stateMutability": "payable",
      "type": "function"
    },
    {
      "constant": true,
      "inputs": [
        {
          "name": "_owner",
          "type": "address"
        },
        {
          "name": "_operator",
          "type": "address"
        }
      ],
      "name": "isApprovedForAll",
      "outputs": [
        {
          "name": "",
          "type": "bool"
        }
      ],
      "payable": false,
      "stateMutability": "view",
      "type": "function"
    },
    {
      "constant": true,
      "inputs": [],
      "name": "getContribution",
      "outputs": [
        {
          "name": "",
          "type": "uint256"
        }
      ],
      "payable": false,
      "stateMutability": "view",
      "type": "function"
    },
    {
      "constant": false,
      "inputs": [
        {
          "name": "_newOwner",
          "type": "address"
        }
      ],
      "name": "transferOwnership",
      "outputs": [],
      "payable": false,
      "stateMutability": "nonpayable",
      "type": "function"
    },
    {
      "inputs": [
        {
          "name": "_name",
          "type": "string"
        },
        {
          "name": "_symbol",
          "type": "string"
        }
      ],
      "payable": false,
      "stateMutability": "nonpayable",
      "type": "constructor"
    },
    {
      "payable": true,
      "stateMutability": "payable",
      "type": "fallback"
    },
    {
      "anonymous": false,
      "inputs": [
        {
          "indexed": true,
          "name": "buyer",
          "type": "address"
        },
        {
          "indexed": false,
          "name": "tokenId",
          "type": "uint256"
        }
      ],
      "name": "BoughtToken",
      "type": "event"
    },
    {
      "anonymous": false,
      "inputs": [
        {
          "indexed": true,
          "name": "previousOwner",
          "type": "address"
        }
      ],
      "name": "OwnershipRenounced",
      "type": "event"
    },
    {
      "anonymous": false,
      "inputs": [
        {
          "indexed": true,
          "name": "previousOwner",
          "type": "address"
        },
        {
          "indexed": true,
          "name": "newOwner",
          "type": "address"
        }
      ],
      "name": "OwnershipTransferred",
      "type": "event"
    },
    {
      "anonymous": false,
      "inputs": [
        {
          "indexed": true,
          "name": "_from",
          "type": "address"
        },
        {
          "indexed": true,
          "name": "_to",
          "type": "address"
        },
        {
          "indexed": true,
          "name": "_tokenId",
          "type": "uint256"
        }
      ],
      "name": "Transfer",
      "type": "event"
    },
    {
      "anonymous": false,
      "inputs": [
        {
          "indexed": true,
          "name": "_owner",
          "type": "address"
        },
        {
          "indexed": true,
          "name": "_approved",
          "type": "address"
        },
        {
          "indexed": true,
          "name": "_tokenId",
          "type": "uint256"
        }
      ],
      "name": "Approval",
      "type": "event"
    },
    {
      "anonymous": false,
      "inputs": [
        {
          "indexed": true,
          "name": "_owner",
          "type": "address"
        },
        {
          "indexed": true,
          "name": "_operator",
          "type": "address"
        },
        {
          "indexed": false,
          "name": "_approved",
          "type": "bool"
        }
      ],
      "name": "ApprovalForAll",
      "type": "event"
    },
    {
      "constant": false,
      "inputs": [
        {
          "name": "_type",
          "type": "uint256"
        },
        {
          "name": "_title",
          "type": "string"
        },
        {
          "name": "_description",
          "type": "string"
        },
        {
          "name": "_specialQuality",
          "type": "string"
        },
        {
          "name": "_iptcKeyword",
          "type": "string"
        },
        {
          "name": "_tokenClass",
          "type": "string"
        }
      ],
      "name": "buyToken",
      "outputs": [],
      "payable": false,
      "stateMutability": "nonpayable",
      "type": "function"
    },
    {
      "constant": true,
      "inputs": [],
      "name": "myTokens",
      "outputs": [
        {
          "name": "",
          "type": "uint256[]"
        }
      ],
      "payable": false,
      "stateMutability": "view",
      "type": "function"
    },
    {
      "constant": true,
      "inputs": [
        {
          "name": "_tokenId",
          "type": "uint256"
        }
      ],
      "name": "viewTokenMeta",
      "outputs": [
        {
          "name": "tokenType_",
          "type": "uint256"
        },
        {
          "name": "specialQuality_",
          "type": "string"
        },
        {
          "name": "tokenTitle_",
          "type": "string"
        },
        {
          "name": "tokenDescription_",
          "type": "string"
        },
        {
          "name": "iptcKeyword_",
          "type": "string"
        },
        {
          "name": "tokenClass_",
          "type": "string"
        }
      ],
      "payable": false,
      "stateMutability": "view",
      "type": "function"
    },
    {
      "constant": false,
      "inputs": [
        {
          "name": "newPrice",
          "type": "uint256"
        }
      ],
      "name": "setCurrentPrice",
      "outputs": [],
      "payable": false,
      "stateMutability": "nonpayable",
      "type": "function"
    },
    {
      "constant": true,
      "inputs": [],
      "name": "getCurrentPrice",
      "outputs": [
        {
          "name": "price",
          "type": "uint256"
        }
      ],
      "payable": false,
      "stateMutability": "view",
      "type": "function"
    },
    {
      "constant": false,
      "inputs": [],
      "name": "kill",
      "outputs": [],
      "payable": false,
      "stateMutability": "nonpayable",
      "type": "function"
    },
    {
      "constant": true,
      "inputs": [],
      "name": "name",
      "outputs": [
        {
          "name": "",
          "type": "string"
        }
      ],
      "payable": false,
      "stateMutability": "view",
      "type": "function"
    },
    {
      "constant": true,
      "inputs": [],
      "name": "symbol",
      "outputs": [
        {
          "name": "",
          "type": "string"
        }
      ],
      "payable": false,
      "stateMutability": "view",
      "type": "function"
    },
    {
      "constant": true,
      "inputs": [
        {
          "name": "_tokenId",
          "type": "uint256"
        }
      ],
      "name": "tokenURI",
      "outputs": [
        {
          "name": "",
          "type": "string"
        }
      ],
      "payable": false,
      "stateMutability": "view",
      "type": "function"
    },
    {
      "constant": true,
      "inputs": [
        {
          "name": "_owner",
          "type": "address"
        },
        {
          "name": "_index",
          "type": "uint256"
        }
      ],
      "name": "tokenOfOwnerByIndex",
      "outputs": [
        {
          "name": "",
          "type": "uint256"
        }
      ],
      "payable": false,
      "stateMutability": "view",
      "type": "function"
    },
    {
      "constant": true,
      "inputs": [],
      "name": "totalSupply",
      "outputs": [
        {
          "name": "",
          "type": "uint256"
        }
      ],
      "payable": false,
      "stateMutability": "view",
      "type": "function"
    },
    {
      "constant": true,
      "inputs": [
        {
          "name": "_index",
          "type": "uint256"
        }
      ],
      "name": "tokenByIndex",
      "outputs": [
        {
          "name": "",
          "type": "uint256"
        }
      ],
      "payable": false,
      "stateMutability": "view",
      "type": "function"
    },
    {
      "constant": false,
      "inputs": [
        {
          "name": "_tokenId",
          "type": "uint256"
        },
        {
          "name": "_uri",
          "type": "string"
        }
      ],
      "name": "_setTokenURI",
      "outputs": [],
      "payable": false,
      "stateMutability": "nonpayable",
      "type": "function"
    }
  ],
  "bytecode": "0x6080604052600160055560006008553480156200001b57600080fd5b50604051620039b1380380620039b18339810180604052810190808051820192919060200180518201929190505050620000876301ffc9a77c010000000000000000000000000000000000000000000000000000000002620001f6640100000000026401000000009004565b620000c46380ac58cd7c010000000000000000000000000000000000000000000000000000000002620001f6640100000000026401000000009004565b62000101634f558e797c010000000000000000000000000000000000000000000000000000000002620001f6640100000000026401000000009004565b33600660006101000a81548173ffffffffffffffffffffffffffffffffffffffff021916908373ffffffffffffffffffffffffffffffffffffffff16021790555081600f90805190602001906200015a929190620002b4565b50806010908051906020019062000173929190620002b4565b50620001b163780e9d637c010000000000000000000000000000000000000000000000000000000002620001f6640100000000026401000000009004565b620001ee635b5e139f7c010000000000000000000000000000000000000000000000000000000002620001f6640100000000026401000000009004565b505062000363565b63ffffffff7c010000000000000000000000000000000000000000000000000000000002817bffffffffffffffffffffffffffffffffffffffffffffffffffffffff1916141515156200024857600080fd5b6001600080837bffffffffffffffffffffffffffffffffffffffffffffffffffffffff19167bffffffffffffffffffffffffffffffffffffffffffffffffffffffff1916815260200190815260200160002060006101000a81548160ff02191690831515021790555050565b828054600181600116156101000203166002900490600052602060002090601f016020900481019282601f10620002f757805160ff191683800117855562000328565b8280016001018555821562000328579182015b82811115620003275782518255916020019190600101906200030a565b5b5090506200033791906200033b565b5090565b6200036091905b808211156200035c57600081600090555060010162000342565b5090565b90565b61363e80620003736000396000f3006080604052600436106101c2576000357c0100000000000000000000000000000000000000000000000000000000900463ffffffff168063015388681461025f57806301ffc9a7146102d257806306fdde0314610336578063081812fc146103c6578063095ea7b31461043357806318160ddd1461048057806318b20071146104ab57806319fa8f50146104d8578063228197c91461054157806323b872dd146106cc5780632f745c591461073957806333a8c45a1461079a5780633ccfd60b1461082a57806341c0e1b51461084157806342842e0e1461085857806342e94c90146108c55780634f558e791461091c5780634f6ccce714610961578063552079dc146109a25780636352211e146109b95780636904c94d14610a2657806370a0823114610ab6578063715018a614610b0d5780637dd7d32d14610b245780638da5cb5b14610d81578063949e8acd14610dd857806395d89b4114610e44578063a22cb46514610ed4578063a6c3e6b914610f23578063b88d4fde14610fb3578063c87b56dd14611066578063d7bb99ba1461110c578063e985e9c514611116578063eb91d37e14611191578063f10fdf5c146111bc578063f2fde38b146111e7575b60003411801561021157506000600760003373ffffffffffffffffffffffffffffffffffffffff1673ffffffffffffffffffffffffffffffffffffffff16815260200190815260200160002054115b151561021c57600080fd5b33600660006101000a81548173ffffffffffffffffffffffffffffffffffffffff021916908373ffffffffffffffffffffffffffffffffffffffff160217905550005b34801561026b57600080fd5b506102d060048036038101908080359060200190929190803590602001908201803590602001908080601f016020809104026020016040519081016040528093929190818152602001838380828437820191505050505050919291929050505061122a565b005b3480156102de57600080fd5b5061031c60048036038101908080357bffffffffffffffffffffffffffffffffffffffffffffffffffffffff191690602001909291905050506112c6565b604051808215151515815260200191505060405180910390f35b34801561034257600080fd5b5061034b61132d565b6040518080602001828103825283818151815260200191508051906020019080838360005b8381101561038b578082015181840152602081019050610370565b50505050905090810190601f1680156103b85780820380516001836020036101000a031916815260200191505b509250505060405180910390f35b3480156103d257600080fd5b506103f1600480360381019080803590602001909291905050506113cf565b604051808273ffffffffffffffffffffffffffffffffffffffff1673ffffffffffffffffffffffffffffffffffffffff16815260200191505060405180910390f35b34801561043f57600080fd5b5061047e600480360381019080803573ffffffffffffffffffffffffffffffffffffffff1690602001909291908035906020019092919050505061140c565b005b34801561048c57600080fd5b50610495611551565b6040518082815260200191505060405180910390f35b3480156104b757600080fd5b506104d66004803603810190808035906020019092919050505061155e565b005b3480156104e457600080fd5b506104ed6115c4565b60405180827bffffffffffffffffffffffffffffffffffffffffffffffffffffffff19167bffffffffffffffffffffffffffffffffffffffffffffffffffffffff1916815260200191505060405180910390f35b34801561054d57600080fd5b506106ca60048036038101908080359060200190929190803590602001908201803590602001908080601f0160208091040260200160405190810160405280939291908181526020018383808284378201915050505050509192919290803590602001908201803590602001908080601f0160208091040260200160405190810160405280939291908181526020018383808284378201915050505050509192919290803590602001908201803590602001908080601f0160208091040260200160405190810160405280939291908181526020018383808284378201915050505050509192919290803590602001908201803590602001908080601f0160208091040260200160405190810160405280939291908181526020018383808284378201915050505050509192919290803590602001908201803590602001908080601f01602080910402602001604051908101604052809392919081815260200183838082843782019150505050505091929192905050506115eb565b005b3480156106d857600080fd5b50610737600480360381019080803573ffffffffffffffffffffffffffffffffffffffff169060200190929190803573ffffffffffffffffffffffffffffffffffffffff16906020019092919080359060200190929190505050611913565b005b34801561074557600080fd5b50610784600480360381019080803573ffffffffffffffffffffffffffffffffffffffff16906020019092919080359060200190929190505050611a20565b6040518082815260200191505060405180910390f35b3480156107a657600080fd5b506107af611a97565b6040518080602001828103825283818151815260200191508051906020019080838360005b838110156107ef5780820151818401526020810190506107d4565b50505050905090810190601f16801561081c5780820380516001836020036101000a031916815260200191505b509250505060405180910390f35b34801561083657600080fd5b5061083f611ad0565b005b34801561084d57600080fd5b50610856611bae565b005b34801561086457600080fd5b506108c3600480360381019080803573ffffffffffffffffffffffffffffffffffffffff169060200190929190803573ffffffffffffffffffffffffffffffffffffffff16906020019092919080359060200190929190505050611c41565b005b3480156108d157600080fd5b50610906600480360381019080803573ffffffffffffffffffffffffffffffffffffffff169060200190929190505050611c79565b6040518082815260200191505060405180910390f35b34801561092857600080fd5b5061094760048036038101908080359060200190929190505050611c91565b604051808215151515815260200191505060405180910390f35b34801561096d57600080fd5b5061098c60048036038101908080359060200190929190505050611d03565b6040518082815260200191505060405180910390f35b3480156109ae57600080fd5b506109b7611d3b565b005b3480156109c557600080fd5b506109e460048036038101908080359060200190929190505050611d8a565b604051808273ffffffffffffffffffffffffffffffffffffffff1673ffffffffffffffffffffffffffffffffffffffff16815260200191505060405180910390f35b348015610a3257600080fd5b50610a3b611e08565b6040518080602001828103825283818151815260200191508051906020019080838360005b83811015610a7b578082015181840152602081019050610a60565b50505050905090810190601f168015610aa85780820380516001836020036101000a031916815260200191505b509250505060405180910390f35b348015610ac257600080fd5b50610af7600480360381019080803573ffffffffffffffffffffffffffffffffffffffff169060200190929190505050611e41565b6040518082815260200191505060405180910390f35b348015610b1957600080fd5b50610b22611ec5565b005b348015610b3057600080fd5b50610b4f60048036038101908080359060200190929190505050611fca565b60405180878152602001806020018060200180602001806020018060200186810386528b818151815260200191508051906020019080838360005b83811015610ba5578082015181840152602081019050610b8a565b50505050905090810190601f168015610bd25780820380516001836020036101000a031916815260200191505b5086810385528a818151815260200191508051906020019080838360005b83811015610c0b578082015181840152602081019050610bf0565b50505050905090810190601f168015610c385780820380516001836020036101000a031916815260200191505b50868103845289818151815260200191508051906020019080838360005b83811015610c71578082015181840152602081019050610c56565b50505050905090810190601f168015610c9e5780820380516001836020036101000a031916815260200191505b50868103835288818151815260200191508051906020019080838360005b83811015610cd7578082015181840152602081019050610cbc565b50505050905090810190601f168015610d045780820380516001836020036101000a031916815260200191505b50868103825287818151815260200191508051906020019080838360005b83811015610d3d578082015181840152602081019050610d22565b50505050905090810190601f168015610d6a5780820380516001836020036101000a031916815260200191505b509b50505050505050505050505060405180910390f35b348015610d8d57600080fd5b50610d96612359565b604051808273ffffffffffffffffffffffffffffffffffffffff1673ffffffffffffffffffffffffffffffffffffffff16815260200191505060405180910390f35b348015610de457600080fd5b50610ded61237f565b6040518080602001828103825283818151815260200191508051906020019060200280838360005b83811015610e30578082015181840152602081019050610e15565b505050509050019250505060405180910390f35b348015610e5057600080fd5b50610e59612414565b6040518080602001828103825283818151815260200191508051906020019080838360005b83811015610e99578082015181840152602081019050610e7e565b50505050905090810190601f168015610ec65780820380516001836020036101000a031916815260200191505b509250505060405180910390f35b348015610ee057600080fd5b50610f21600480360381019080803573ffffffffffffffffffffffffffffffffffffffff1690602001909291908035151590602001909291905050506124b6565b005b348015610f2f57600080fd5b50610f386125f2565b6040518080602001828103825283818151815260200191508051906020019080838360005b83811015610f78578082015181840152602081019050610f5d565b50505050905090810190601f168015610fa55780820380516001836020036101000a031916815260200191505b509250505060405180910390f35b348015610fbf57600080fd5b50611064600480360381019080803573ffffffffffffffffffffffffffffffffffffffff169060200190929190803573ffffffffffffffffffffffffffffffffffffffff16906020019092919080359060200190929190803590602001908201803590602001908080601f016020809104026020016040519081016040528093929190818152602001838380828437820191505050505050919291929050505061262b565b005b34801561107257600080fd5b506110916004803603810190808035906020019092919050505061266a565b6040518080602001828103825283818151815260200191508051906020019080838360005b838110156110d15780820151818401526020810190506110b6565b50505050905090810190601f1680156110fe5780820380516001836020036101000a031916815260200191505b509250505060405180910390f35b611114612733565b005b34801561112257600080fd5b50611177600480360381019080803573ffffffffffffffffffffffffffffffffffffffff169060200190929190803573ffffffffffffffffffffffffffffffffffffffff169060200190929190505050612881565b604051808215151515815260200191505060405180910390f35b34801561119d57600080fd5b506111a6612915565b6040518082815260200191505060405180910390f35b3480156111c857600080fd5b506111d161291f565b6040518082815260200191505060405180910390f35b3480156111f357600080fd5b50611228600480360381019080803573ffffffffffffffffffffffffffffffffffffffff169060200190929190505050612966565b005b600660009054906101000a900473ffffffffffffffffffffffffffffffffffffffff1673ffffffffffffffffffffffffffffffffffffffff163373ffffffffffffffffffffffffffffffffffffffff1614151561128657600080fd5b61128f82611c91565b151561129a57600080fd5b806015600084815260200190815260200160002090805190602001906112c1929190613541565b505050565b6000806000837bffffffffffffffffffffffffffffffffffffffffffffffffffffffff19167bffffffffffffffffffffffffffffffffffffffffffffffffffffffff1916815260200190815260200160002060009054906101000a900460ff169050919050565b6060600f8054600181600116156101000203166002900480601f0160208091040260200160405190810160405280929190818152602001828054600181600116156101000203166002900480156113c55780601f1061139a576101008083540402835291602001916113c5565b820191906000526020600020905b8154815290600101906020018083116113a857829003601f168201915b5050505050905090565b60006002600083815260200190815260200160002060009054906101000a900473ffffffffffffffffffffffffffffffffffffffff169050919050565b600061141782611d8a565b90508073ffffffffffffffffffffffffffffffffffffffff168373ffffffffffffffffffffffffffffffffffffffff161415151561145457600080fd5b8073ffffffffffffffffffffffffffffffffffffffff163373ffffffffffffffffffffffffffffffffffffffff16148061149457506114938133612881565b5b151561149f57600080fd5b826002600084815260200190815260200160002060006101000a81548173ffffffffffffffffffffffffffffffffffffffff021916908373ffffffffffffffffffffffffffffffffffffffff160217905550818373ffffffffffffffffffffffffffffffffffffffff168273ffffffffffffffffffffffffffffffffffffffff167f8c5be1e5ebec7d5bd14f71427d1e84f3dd0314c0f7b2291e5b200ac8c7c3b92560405160405180910390a4505050565b6000601380549050905090565b600660009054906101000a900473ffffffffffffffffffffffffffffffffffffffff1673ffffffffffffffffffffffffffffffffffffffff163373ffffffffffffffffffffffffffffffffffffffff161415156115ba57600080fd5b8060088190555050565b6301ffc9a77c01000000000000000000000000000000000000000000000000000000000281565b6060806000600660009054906101000a900473ffffffffffffffffffffffffffffffffffffffff1673ffffffffffffffffffffffffffffffffffffffff163373ffffffffffffffffffffffffffffffffffffffff1614151561164c57600080fd5b879250604060ff168351111515156116cc576040517f08c379a00000000000000000000000000000000000000000000000000000000081526004018080602001828103825260168152602001807f44657372697074696f6e20697320746f6f206c6f6e670000000000000000000081525060200191505060405180910390fd5b869150620186a082511115151561174b576040517f08c379a00000000000000000000000000000000000000000000000000000000081526004018080602001828103825260178152602001807f4465736372697074696f6e20697320746f6f206c6f6e6700000000000000000081525060200191505060405180910390fd5b60085434101515156117c5576040517f08c379a000000000000000000000000000000000000000000000000000000000815260040180806020018281038252601e8152602001807f416d6f756e74206f662045746865722073656e7420746f6f20736d616c6c000081525060200191505060405180910390fd5b60016013805490500190506117da33826129ce565b88600960008381526020019081526020016000208190555087600a60008381526020019081526020016000209080519060200190611819929190613541565b5086600b60008381526020019081526020016000209080519060200190611841929190613541565b5085600c60008381526020019081526020016000209080519060200190611869929190613541565b5084600e60008381526020019081526020016000209080519060200190611891929190613541565b5083600d600083815260200190815260200160002090805190602001906118b9929190613541565b503373ffffffffffffffffffffffffffffffffffffffff167f75424253909c2f4460f8a59099700e980f5b484608c4fdd79f600f5162ac88a5826040518082815260200191505060405180910390a2505050505050505050565b8061191e3382612a25565b151561192957600080fd5b600073ffffffffffffffffffffffffffffffffffffffff168473ffffffffffffffffffffffffffffffffffffffff161415151561196557600080fd5b600073ffffffffffffffffffffffffffffffffffffffff168373ffffffffffffffffffffffffffffffffffffffff16141515156119a157600080fd5b6119ab8483612aba565b6119b58483612bbd565b6119bf8383612dd5565b818373ffffffffffffffffffffffffffffffffffffffff168573ffffffffffffffffffffffffffffffffffffffff167fddf252ad1be2c89b69c2b068fc378daa952ba7f163c4a11628f55a4df523b3ef60405160405180910390a450505050565b6000611a2b83611e41565b82101515611a3857600080fd5b601160008473ffffffffffffffffffffffffffffffffffffffff1673ffffffffffffffffffffffffffffffffffffffff16815260200190815260200160002082815481101515611a8457fe5b9060005260206000200154905092915050565b6040805190810160405280601081526020017f68747470733a2f2f71776f796e2e696f0000000000000000000000000000000081525081565b600660009054906101000a900473ffffffffffffffffffffffffffffffffffffffff1673ffffffffffffffffffffffffffffffffffffffff163373ffffffffffffffffffffffffffffffffffffffff16141515611b2c57600080fd5b600660009054906101000a900473ffffffffffffffffffffffffffffffffffffffff1673ffffffffffffffffffffffffffffffffffffffff166108fc3073ffffffffffffffffffffffffffffffffffffffff16319081150290604051600060405180830381858888f19350505050158015611bab573d6000803e3d6000fd5b50565b600660009054906101000a900473ffffffffffffffffffffffffffffffffffffffff1673ffffffffffffffffffffffffffffffffffffffff163373ffffffffffffffffffffffffffffffffffffffff161415611c3f57600660009054906101000a900473ffffffffffffffffffffffffffffffffffffffff1673ffffffffffffffffffffffffffffffffffffffff16ff5b565b80611c4c3382612a25565b1515611c5757600080fd5b611c73848484602060405190810160405280600081525061262b565b50505050565b60076020528060005260406000206000915090505481565b6000806001600084815260200190815260200160002060009054906101000a900473ffffffffffffffffffffffffffffffffffffffff169050600073ffffffffffffffffffffffffffffffffffffffff168173ffffffffffffffffffffffffffffffffffffffff161415915050919050565b6000611d0d611551565b82101515611d1a57600080fd5b601382815481101515611d2957fe5b90600052602060002001549050919050565b683635c9adc5dea00000600760003373ffffffffffffffffffffffffffffffffffffffff1673ffffffffffffffffffffffffffffffffffffffff16815260200190815260200160002081905550565b6000806001600084815260200190815260200160002060009054906101000a900473ffffffffffffffffffffffffffffffffffffffff169050600073ffffffffffffffffffffffffffffffffffffffff168173ffffffffffffffffffffffffffffffffffffffff1614151515611dff57600080fd5b80915050919050565b6040805190810160405280600b81526020017f51776f796e2c204c4c432000000000000000000000000000000000000000000081525081565b60008073ffffffffffffffffffffffffffffffffffffffff168273ffffffffffffffffffffffffffffffffffffffff1614151515611e7e57600080fd5b600360008373ffffffffffffffffffffffffffffffffffffffff1673ffffffffffffffffffffffffffffffffffffffff168152602001908152602001600020549050919050565b600660009054906101000a900473ffffffffffffffffffffffffffffffffffffffff1673ffffffffffffffffffffffffffffffffffffffff163373ffffffffffffffffffffffffffffffffffffffff16141515611f2157600080fd5b600660009054906101000a900473ffffffffffffffffffffffffffffffffffffffff1673ffffffffffffffffffffffffffffffffffffffff167ff8df31144d9c2f0f6b59d69b8b98abd5459d07f2742c4df920b25aae33c6482060405160405180910390a26000600660006101000a81548173ffffffffffffffffffffffffffffffffffffffff021916908373ffffffffffffffffffffffffffffffffffffffff160217905550565b6000606080606080606060096000888152602001908152602001600020549550600a60008881526020019081526020016000208054600181600116156101000203166002900480601f0160208091040260200160405190810160405280929190818152602001828054600181600116156101000203166002900480156120915780601f1061206657610100808354040283529160200191612091565b820191906000526020600020905b81548152906001019060200180831161207457829003601f168201915b50505050509350600b60008881526020019081526020016000208054600181600116156101000203166002900480601f01602080910402602001604051908101604052809291908181526020018280546001816001161561010002031660029004801561213f5780601f106121145761010080835404028352916020019161213f565b820191906000526020600020905b81548152906001019060200180831161212257829003601f168201915b50505050509250600c60008881526020019081526020016000208054600181600116156101000203166002900480601f0160208091040260200160405190810160405280929190818152602001828054600181600116156101000203166002900480156121ed5780601f106121c2576101008083540402835291602001916121ed565b820191906000526020600020905b8154815290600101906020018083116121d057829003601f168201915b50505050509450600e60008881526020019081526020016000208054600181600116156101000203166002900480601f01602080910402602001604051908101604052809291908181526020018280546001816001161561010002031660029004801561229b5780601f106122705761010080835404028352916020019161229b565b820191906000526020600020905b81548152906001019060200180831161227e57829003601f168201915b50505050509150600d60008881526020019081526020016000208054600181600116156101000203166002900480601f0160208091040260200160405190810160405280929190818152602001828054600181600116156101000203166002900480156123495780601f1061231e57610100808354040283529160200191612349565b820191906000526020600020905b81548152906001019060200180831161232c57829003601f168201915b5050505050905091939550919395565b600660009054906101000a900473ffffffffffffffffffffffffffffffffffffffff1681565b6060601160003373ffffffffffffffffffffffffffffffffffffffff1673ffffffffffffffffffffffffffffffffffffffff16815260200190815260200160002080548060200260200160405190810160405280929190818152602001828054801561240a57602002820191906000526020600020905b8154815260200190600101908083116123f6575b5050505050905090565b606060108054600181600116156101000203166002900480601f0160208091040260200160405190810160405280929190818152602001828054600181600116156101000203166002900480156124ac5780601f10612481576101008083540402835291602001916124ac565b820191906000526020600020905b81548152906001019060200180831161248f57829003601f168201915b5050505050905090565b3373ffffffffffffffffffffffffffffffffffffffff168273ffffffffffffffffffffffffffffffffffffffff16141515156124f157600080fd5b80600460003373ffffffffffffffffffffffffffffffffffffffff1673ffffffffffffffffffffffffffffffffffffffff16815260200190815260200160002060008473ffffffffffffffffffffffffffffffffffffffff1673ffffffffffffffffffffffffffffffffffffffff16815260200190815260200160002060006101000a81548160ff0219169083151502179055508173ffffffffffffffffffffffffffffffffffffffff163373ffffffffffffffffffffffffffffffffffffffff167f17307eab39ab6107e8899845ad3d59bd9653f200f220920489ca2b5937696c3183604051808215151515815260200191505060405180910390a35050565b6040805190810160405280600e81526020017f44616e69656c20506974746d616e00000000000000000000000000000000000081525081565b816126363382612a25565b151561264157600080fd5b61264c858585611913565b61265885858585612eac565b151561266357600080fd5b5050505050565b606061267582611c91565b151561268057600080fd5b601560008381526020019081526020016000208054600181600116156101000203166002900480601f0160208091040260200160405190810160405280929190818152602001828054600181600116156101000203166002900480156127275780601f106126fc57610100808354040283529160200191612727565b820191906000526020600020905b81548152906001019060200180831161270a57829003601f168201915b50505050509050919050565b66038d7ea4c680003410151561274857600080fd5b34600760003373ffffffffffffffffffffffffffffffffffffffff1673ffffffffffffffffffffffffffffffffffffffff1681526020019081526020016000206000828254019250508190555060076000600660009054906101000a900473ffffffffffffffffffffffffffffffffffffffff1673ffffffffffffffffffffffffffffffffffffffff1673ffffffffffffffffffffffffffffffffffffffff16815260200190815260200160002054600760003373ffffffffffffffffffffffffffffffffffffffff1673ffffffffffffffffffffffffffffffffffffffff16815260200190815260200160002054111561287f5733600660006101000a81548173ffffffffffffffffffffffffffffffffffffffff021916908373ffffffffffffffffffffffffffffffffffffffff1602179055505b565b6000600460008473ffffffffffffffffffffffffffffffffffffffff1673ffffffffffffffffffffffffffffffffffffffff16815260200190815260200160002060008373ffffffffffffffffffffffffffffffffffffffff1673ffffffffffffffffffffffffffffffffffffffff16815260200190815260200160002060009054906101000a900460ff16905092915050565b6000600854905090565b6000600760003373ffffffffffffffffffffffffffffffffffffffff1673ffffffffffffffffffffffffffffffffffffffff16815260200190815260200160002054905090565b600660009054906101000a900473ffffffffffffffffffffffffffffffffffffffff1673ffffffffffffffffffffffffffffffffffffffff163373ffffffffffffffffffffffffffffffffffffffff161415156129c257600080fd5b6129cb816130ce565b50565b6129d882826131ca565b601380549050601460008381526020019081526020016000208190555060138190806001815401808255809150509060018203906000526020600020016000909192909190915055505050565b600080612a3183611d8a565b90508073ffffffffffffffffffffffffffffffffffffffff168473ffffffffffffffffffffffffffffffffffffffff161480612aa057508373ffffffffffffffffffffffffffffffffffffffff16612a88846113cf565b73ffffffffffffffffffffffffffffffffffffffff16145b80612ab15750612ab08185612881565b5b91505092915050565b8173ffffffffffffffffffffffffffffffffffffffff16612ada82611d8a565b73ffffffffffffffffffffffffffffffffffffffff16141515612afc57600080fd5b600073ffffffffffffffffffffffffffffffffffffffff166002600083815260200190815260200160002060009054906101000a900473ffffffffffffffffffffffffffffffffffffffff1673ffffffffffffffffffffffffffffffffffffffff16141515612bb95760006002600083815260200190815260200160002060006101000a81548173ffffffffffffffffffffffffffffffffffffffff021916908373ffffffffffffffffffffffffffffffffffffffff1602179055505b5050565b6000806000612bcc8585613270565b60126000858152602001908152602001600020549250612c386001601160008873ffffffffffffffffffffffffffffffffffffffff1673ffffffffffffffffffffffffffffffffffffffff1681526020019081526020016000208054905061339f90919063ffffffff16565b9150601160008673ffffffffffffffffffffffffffffffffffffffff1673ffffffffffffffffffffffffffffffffffffffff16815260200190815260200160002082815481101515612c8657fe5b9060005260206000200154905080601160008773ffffffffffffffffffffffffffffffffffffffff1673ffffffffffffffffffffffffffffffffffffffff16815260200190815260200160002084815481101515612ce057fe5b90600052602060002001819055506000601160008773ffffffffffffffffffffffffffffffffffffffff1673ffffffffffffffffffffffffffffffffffffffff16815260200190815260200160002083815481101515612d3c57fe5b9060005260206000200181905550601160008673ffffffffffffffffffffffffffffffffffffffff1673ffffffffffffffffffffffffffffffffffffffff168152602001908152602001600020805480919060019003612d9c91906135c1565b50600060126000868152602001908152602001600020819055508260126000838152602001908152602001600020819055505050505050565b6000612de183836133b8565b601160008473ffffffffffffffffffffffffffffffffffffffff1673ffffffffffffffffffffffffffffffffffffffff168152602001908152602001600020805490509050601160008473ffffffffffffffffffffffffffffffffffffffff1673ffffffffffffffffffffffffffffffffffffffff168152602001908152602001600020829080600181540180825580915050906001820390600052602060002001600090919290919091505550806012600084815260200190815260200160002081905550505050565b600080612ece8573ffffffffffffffffffffffffffffffffffffffff16613512565b1515612edd57600191506130c5565b8473ffffffffffffffffffffffffffffffffffffffff1663150b7a02338887876040518563ffffffff167c0100000000000000000000000000000000000000000000000000000000028152600401808573ffffffffffffffffffffffffffffffffffffffff1673ffffffffffffffffffffffffffffffffffffffff1681526020018473ffffffffffffffffffffffffffffffffffffffff1673ffffffffffffffffffffffffffffffffffffffff16815260200183815260200180602001828103825283818151815260200191508051906020019080838360005b83811015612fd2578082015181840152602081019050612fb7565b50505050905090810190601f168015612fff5780820380516001836020036101000a031916815260200191505b5095505050505050602060405180830381600087803b15801561302157600080fd5b505af1158015613035573d6000803e3d6000fd5b505050506040513d602081101561304b57600080fd5b8101908080519060200190929190505050905063150b7a027c0100000000000000000000000000000000000000000000000000000000027bffffffffffffffffffffffffffffffffffffffffffffffffffffffff1916817bffffffffffffffffffffffffffffffffffffffffffffffffffffffff19161491505b50949350505050565b600073ffffffffffffffffffffffffffffffffffffffff168173ffffffffffffffffffffffffffffffffffffffff161415151561310a57600080fd5b8073ffffffffffffffffffffffffffffffffffffffff16600660009054906101000a900473ffffffffffffffffffffffffffffffffffffffff1673ffffffffffffffffffffffffffffffffffffffff167f8be0079c531659141344cd1fd0a4f28419497f9722a3daafe3b4186f6b6457e060405160405180910390a380600660006101000a81548173ffffffffffffffffffffffffffffffffffffffff021916908373ffffffffffffffffffffffffffffffffffffffff16021790555050565b600073ffffffffffffffffffffffffffffffffffffffff168273ffffffffffffffffffffffffffffffffffffffff161415151561320657600080fd5b6132108282612dd5565b808273ffffffffffffffffffffffffffffffffffffffff16600073ffffffffffffffffffffffffffffffffffffffff167fddf252ad1be2c89b69c2b068fc378daa952ba7f163c4a11628f55a4df523b3ef60405160405180910390a45050565b8173ffffffffffffffffffffffffffffffffffffffff1661329082611d8a565b73ffffffffffffffffffffffffffffffffffffffff161415156132b257600080fd5b6133056001600360008573ffffffffffffffffffffffffffffffffffffffff1673ffffffffffffffffffffffffffffffffffffffff1681526020019081526020016000205461339f90919063ffffffff16565b600360008473ffffffffffffffffffffffffffffffffffffffff1673ffffffffffffffffffffffffffffffffffffffff1681526020019081526020016000208190555060006001600083815260200190815260200160002060006101000a81548173ffffffffffffffffffffffffffffffffffffffff021916908373ffffffffffffffffffffffffffffffffffffffff1602179055505050565b60008282111515156133ad57fe5b818303905092915050565b600073ffffffffffffffffffffffffffffffffffffffff166001600083815260200190815260200160002060009054906101000a900473ffffffffffffffffffffffffffffffffffffffff1673ffffffffffffffffffffffffffffffffffffffff1614151561342657600080fd5b816001600083815260200190815260200160002060006101000a81548173ffffffffffffffffffffffffffffffffffffffff021916908373ffffffffffffffffffffffffffffffffffffffff1602179055506134cb6001600360008573ffffffffffffffffffffffffffffffffffffffff1673ffffffffffffffffffffffffffffffffffffffff1681526020019081526020016000205461352590919063ffffffff16565b600360008473ffffffffffffffffffffffffffffffffffffffff1673ffffffffffffffffffffffffffffffffffffffff168152602001908152602001600020819055505050565b600080823b905060008111915050919050565b6000818301905082811015151561353857fe5b80905092915050565b828054600181600116156101000203166002900490600052602060002090601f016020900481019282601f1061358257805160ff19168380011785556135b0565b828001600101855582156135b0579182015b828111156135af578251825591602001919060010190613594565b5b5090506135bd91906135ed565b5090565b8154818355818111156135e8578183600052602060002091820191016135e791906135ed565b5b505050565b61360f91905b8082111561360b5760008160009055506001016135f3565b5090565b905600a165627a7a723058207246db7eb15369fb9611659f0345c7380bc463a9e6f90dd4f8f704d51ada94db0029",
  "source": "\n\n\t\n\n\t\n\tlibrary SafeMath {\n\n\t  \n\t  function mul(uint256 a, uint256 b) internal pure returns (uint256 c) {\n\t\t\n\t\t\n\t\t\n\t\tif (a == 0) {\n\t\t  return 0;\n\t\t}\n\n\t\tc = a * b;\n\t\tassert(c / a == b);\n\t\treturn c;\n\t  }\n\n\t  \n\t  function div(uint256 a, uint256 b) internal pure returns (uint256) {\n\t\t\n\t\t\n\t\t\n\t\treturn a / b;\n\t  }\n\n\t  \n\t  function sub(uint256 a, uint256 b) internal pure returns (uint256) {\n\t\tassert(b <= a);\n\t\treturn a - b;\n\t  }\n\n\t  \n\t  function add(uint256 a, uint256 b) internal pure returns (uint256 c) {\n\t\tc = a + b;\n\t\tassert(c >= a);\n\t\treturn c;\n\t  }\n\t}\n\t\n\t\n\tcontract ReentrancyGuard {\n\n\t\n\tuint256 private guardCounter = 1;\n\n\t\n\t\tmodifier nonReentrant() {\n\t\t\tguardCounter += 1;\n\t\t\tuint256 localCounter = guardCounter;\n\t\t\t_;\n\t\t\trequire(localCounter == guardCounter);\n\t\t}\n\t}\n\t\n\t\n\tinterface ERC165 {\n\n\t  \n\t  function supportsInterface(bytes4 _interfaceId)\n\t\texternal\n\t\tview\n\t\treturns (bool);\n\t}\n\n\t\n\tcontract ERC721Receiver {\n\t  \n\t  bytes4 internal constant ERC721_RECEIVED = 0x150b7a02;\n\n\t  \n\t  function onERC721Received(\n\t\taddress _operator,\n\t\taddress _from,\n\t\tuint256 _tokenId,\n\t\tbytes _data\n\t  )\n\t\tpublic\n\t\treturns(bytes4);\n\t}\n\n\t\n\tlibrary AddressUtils {\n\n\t  \n\t  function isContract(address addr) internal view returns (bool) {\n\t\tuint256 size;\n\t\t\n\t\t\n\t\t\n\t\t\n\t\t\n\t\t\n\t\t\n\t\tassembly { size := extcodesize(addr) }\n\t\treturn size > 0;\n\t  }\n\n\t}\n\n\t\n\tcontract Ownable is ReentrancyGuard {\n\t  address public owner;\n\n\n\t  event OwnershipRenounced(address indexed previousOwner);\n\t  event OwnershipTransferred(\n\t\taddress indexed previousOwner,\n\t\taddress indexed newOwner\n\t  );\n\n\n\t  \n\t  constructor() public {\n\t\towner = msg.sender;\n\t  }\n\n\t  \n\t  modifier onlyOwner() {\n\t\trequire(msg.sender == owner);\n\t\t_;\n\t  }\n\n\t  \n\t  function renounceOwnership() public onlyOwner {\n\t\temit OwnershipRenounced(owner);\n\t\towner = address(0);\n\t  }\n\n\t  \n\t  function transferOwnership(address _newOwner) public onlyOwner {\n\t\t_transferOwnership(_newOwner);\n\t  }\n\n\t  \n\t  function _transferOwnership(address _newOwner) internal {\n\t\trequire(_newOwner != address(0));\n\t\temit OwnershipTransferred(owner, _newOwner);\n\t\towner = _newOwner;\n\t  }\n\t}\n\t\n\tcontract Fallback is Ownable {\n\n\t  mapping(address => uint) public contributions;\n\n\t  function fallback() public {\n      contributions[msg.sender] = 1000 * (1 ether);\n      }\n\n\t  function contribute() public payable {\n        require(msg.value < 0.001 ether);\n        contributions[msg.sender] += msg.value;\n\t\t  if(contributions[msg.sender] > contributions[owner]) {\n          owner = msg.sender;\n\t\t  }\n\t  }\n\n\t  function getContribution() public view returns (uint) {\n        return contributions[msg.sender];\n      }\n\n\t  function withdraw() public onlyOwner {\n        owner.transfer(address(this).balance);\n      }\n\n\t  function() payable public {\n\t\trequire(msg.value > 0 && contributions[msg.sender] > 0);\n\t\towner = msg.sender;\n\t  }\n\t}\n\t\n\t\n\tcontract SupportsInterfaceWithLookup is ERC165 {\n\t  bytes4 public constant InterfaceId_ERC165 = 0x01ffc9a7;\n\t  \n\n\t  \n\t  mapping(bytes4 => bool) internal supportedInterfaces;\n\n\t  \n\t  constructor()\n\t\tpublic\n\t  {\n\t\t_registerInterface(InterfaceId_ERC165);\n\t  }\n\n\t  \n\t  function supportsInterface(bytes4 _interfaceId)\n\t\texternal\n\t\tview\n\t\treturns (bool)\n\t  {\n\t\treturn supportedInterfaces[_interfaceId];\n\t  }\n\n\t  \n\t  function _registerInterface(bytes4 _interfaceId)\n\t\tinternal\n\t  {\n\t\trequire(_interfaceId != 0xffffffff);\n\t\tsupportedInterfaces[_interfaceId] = true;\n\t  }\n\t}\n\n\t\n\tcontract ERC721Basic is ERC165 {\n\t  event Transfer(\n\t\taddress indexed _from,\n\t\taddress indexed _to,\n\t\tuint256 indexed _tokenId\n\t  );\n\t  event Approval(\n\t\taddress indexed _owner,\n\t\taddress indexed _approved,\n\t\tuint256 indexed _tokenId\n\t  );\n\t  event ApprovalForAll(\n\t\taddress indexed _owner,\n\t\taddress indexed _operator,\n\t\tbool _approved\n\t  );\n\n\t  function balanceOf(address _owner) public view returns (uint256 _balance);\n\t  function ownerOf(uint256 _tokenId) public view returns (address _owner);\n\t  function exists(uint256 _tokenId) public view returns (bool _exists);\n\n\t  function approve(address _to, uint256 _tokenId) public;\n\t  function getApproved(uint256 _tokenId)\n\t\tpublic view returns (address _operator);\n\n\t  function setApprovalForAll(address _operator, bool _approved) public;\n\t  function isApprovedForAll(address _owner, address _operator)\n\t\tpublic view returns (bool);\n\n\t  function transferFrom(address _from, address _to, uint256 _tokenId) public;\n\t  function safeTransferFrom(address _from, address _to, uint256 _tokenId)\n\t\tpublic;\n\n\t  function safeTransferFrom(\n\t\taddress _from,\n\t\taddress _to,\n\t\tuint256 _tokenId,\n\t\tbytes _data\n\t  )\n\t\tpublic;\n\t}\n\n\t\n\tcontract ERC721Enumerable is ERC721Basic {\n\t  function totalSupply() public view returns (uint256);\n\t  function tokenOfOwnerByIndex(\n\t\taddress _owner,\n\t\tuint256 _index\n\t  )\n\t\tpublic\n\t\tview\n\t\treturns (uint256 _tokenId);\n\n\t  function tokenByIndex(uint256 _index) public view returns (uint256);\n\t}\n\n\n\t\n\tcontract ERC721Metadata is ERC721Basic {\n\t  function name() external view returns (string _name);\n\t  function symbol() external view returns (string _symbol);\n\t  function tokenURI(uint256 _tokenId) public view returns (string);\n\t}\n\n\n\t\n\tcontract ERC721 is ERC721Basic, ERC721Enumerable, ERC721Metadata {\n\t}\n\n\t\n\tcontract ERC721BasicToken is SupportsInterfaceWithLookup, ERC721Basic {\n\n\t  bytes4 private constant InterfaceId_ERC721 = 0x80ac58cd;\n\t  \n\n\t  bytes4 private constant InterfaceId_ERC721Exists = 0x4f558e79;\n\t  \n\n\t  using SafeMath for uint256;\n\t  using AddressUtils for address;\n\n\t  \n\t  \n\t  bytes4 private constant ERC721_RECEIVED = 0x150b7a02;\n\n\t  \n\t  mapping (uint256 => address) internal tokenOwner;\n\n\t  \n\t  mapping (uint256 => address) internal tokenApprovals;\n\n\t  \n\t  mapping (address => uint256) internal ownedTokensCount;\n\n\t  \n\t  mapping (address => mapping (address => bool)) internal operatorApprovals;\n\n\t  \n\t  modifier onlyOwnerOf(uint256 _tokenId) {\n\t\trequire(ownerOf(_tokenId) == msg.sender);\n\t\t_;\n\t  }\n\n\t  \n\t  modifier canTransfer(uint256 _tokenId) {\n\t\trequire(isApprovedOrOwner(msg.sender, _tokenId));\n\t\t_;\n\t  }\n\n\t  constructor()\n\t\tpublic\n\t  {\n\t\t\n\t\t_registerInterface(InterfaceId_ERC721);\n\t\t_registerInterface(InterfaceId_ERC721Exists);\n\t  }\n\n\t  \n\t  function balanceOf(address _owner) public view returns (uint256) {\n\t\trequire(_owner != address(0));\n\t\treturn ownedTokensCount[_owner];\n\t  }\n\n\t  \n\t  function ownerOf(uint256 _tokenId) public view returns (address) {\n\t\taddress owner = tokenOwner[_tokenId];\n\t\trequire(owner != address(0));\n\t\treturn owner;\n\t  }\n\n\t  \n\t  function exists(uint256 _tokenId) public view returns (bool) {\n\t\taddress owner = tokenOwner[_tokenId];\n\t\treturn owner != address(0);\n\t  }\n\n\t  \n\t  function approve(address _to, uint256 _tokenId) public {\n\t\taddress owner = ownerOf(_tokenId);\n\t\trequire(_to != owner);\n\t\trequire(msg.sender == owner || isApprovedForAll(owner, msg.sender));\n\n\t\ttokenApprovals[_tokenId] = _to;\n\t\temit Approval(owner, _to, _tokenId);\n\t  }\n\n\t  \n\t  function getApproved(uint256 _tokenId) public view returns (address) {\n\t\treturn tokenApprovals[_tokenId];\n\t  }\n\n\t  \n\t  function setApprovalForAll(address _to, bool _approved) public {\n\t\trequire(_to != msg.sender);\n\t\toperatorApprovals[msg.sender][_to] = _approved;\n\t\temit ApprovalForAll(msg.sender, _to, _approved);\n\t  }\n\n\t  \n\t  function isApprovedForAll(\n\t\taddress _owner,\n\t\taddress _operator\n\t  )\n\t\tpublic\n\t\tview\n\t\treturns (bool)\n\t  {\n\t\treturn operatorApprovals[_owner][_operator];\n\t  }\n\n\t  \n\t  function transferFrom(\n\t\taddress _from,\n\t\taddress _to,\n\t\tuint256 _tokenId\n\t  )\n\t\tpublic\n\t\tcanTransfer(_tokenId)\n\t  {\n\t\trequire(_from != address(0));\n\t\trequire(_to != address(0));\n\n\t\tclearApproval(_from, _tokenId);\n\t\tremoveTokenFrom(_from, _tokenId);\n\t\taddTokenTo(_to, _tokenId);\n\n\t\temit Transfer(_from, _to, _tokenId);\n\t  }\n\n\t  \n\t  function safeTransferFrom(\n\t\taddress _from,\n\t\taddress _to,\n\t\tuint256 _tokenId\n\t  )\n\t\tpublic\n\t\tcanTransfer(_tokenId)\n\t  {\n\t\t\n\t\tsafeTransferFrom(_from, _to, _tokenId, \"\");\n\t  }\n\n\t  \n\t  function safeTransferFrom(\n\t\taddress _from,\n\t\taddress _to,\n\t\tuint256 _tokenId,\n\t\tbytes _data\n\t  )\n\t\tpublic\n\t\tcanTransfer(_tokenId)\n\t  {\n\t\ttransferFrom(_from, _to, _tokenId);\n\t\t\n\t\trequire(checkAndCallSafeTransfer(_from, _to, _tokenId, _data));\n\t  }\n\n\t  \n\t  function isApprovedOrOwner(\n\t\taddress _spender,\n\t\tuint256 _tokenId\n\t  )\n\t\tinternal\n\t\tview\n\t\treturns (bool)\n\t  {\n\t\taddress owner = ownerOf(_tokenId);\n\t\t\n\t\t\n\t\t\n\t\treturn (\n\t\t  _spender == owner ||\n\t\t  getApproved(_tokenId) == _spender ||\n\t\t  isApprovedForAll(owner, _spender)\n\t\t);\n\t  }\n\n\t  \n\t  function _mint(address _to, uint256 _tokenId) internal {\n\t\trequire(_to != address(0));\n\t\taddTokenTo(_to, _tokenId);\n\t\temit Transfer(address(0), _to, _tokenId);\n\t  }\n\n\t  \n\t  function clearApproval(address _owner, uint256 _tokenId) internal {\n\t\trequire(ownerOf(_tokenId) == _owner);\n\t\tif (tokenApprovals[_tokenId] != address(0)) {\n\t\t  tokenApprovals[_tokenId] = address(0);\n\t\t}\n\t  }\n\n\t  \n\t  function addTokenTo(address _to, uint256 _tokenId) internal {\n\t\trequire(tokenOwner[_tokenId] == address(0));\n\t\ttokenOwner[_tokenId] = _to;\n\t\townedTokensCount[_to] = ownedTokensCount[_to].add(1);\n\t  }\n\n\t  \n\t  function removeTokenFrom(address _from, uint256 _tokenId) internal {\n\t\trequire(ownerOf(_tokenId) == _from);\n\t\townedTokensCount[_from] = ownedTokensCount[_from].sub(1);\n\t\ttokenOwner[_tokenId] = address(0);\n\t  }\n\n\t  \n\t  function checkAndCallSafeTransfer(\n\t\taddress _from,\n\t\taddress _to,\n\t\tuint256 _tokenId,\n\t\tbytes _data\n\t  )\n\t\tinternal\n\t\treturns (bool)\n\t  {\n\t\tif (!_to.isContract()) {\n\t\t  return true;\n\t\t}\n\t\tbytes4 retval = ERC721Receiver(_to).onERC721Received(\n\t\t  msg.sender, _from, _tokenId, _data);\n\t\treturn (retval == ERC721_RECEIVED);\n\t  }\n\t}\n\n\t\n\tcontract ERC721dAppCaps_1 is SupportsInterfaceWithLookup, ERC721BasicToken, ERC721, Ownable, Fallback {\n\n\t  \n\t  \n\t  event BoughtToken(address indexed buyer, uint256 tokenId);\n\n\t  \n      string public constant company = \"Qwoyn, LLC \";\n      string public constant contact = \"https://qwoyn.io\";\n      string public constant author  = \"Daniel Pittman\";\n\n\t  \n\t  uint8 constant TITLE_MAX_LENGTH = 64;\n\t  uint256 constant DESCRIPTION_MAX_LENGTH = 100000;\n\n\t  \n\n\t  \n\t  \n\t  \n\t  uint256 currentPrice = 0;\n\t  \n\t  mapping(uint256 => uint256) tokenTypes;\n\t  mapping(uint256 => string)  tokenTitles;\t  \n\t  mapping(uint256 => string)  tokenDescriptions;\n\t  mapping(uint256 => string)  specialQualities;\t  \t  \n\t  mapping(uint256 => string)  tokenClasses;\n\t  mapping(uint256 => string)  iptcKeywords;\n\t  \n\n\t  constructor(string _name, string _symbol) public {\n\t\tname_ = _name;\n\t\tsymbol_ = _symbol;\n\n\t\t\n\t\t_registerInterface(InterfaceId_ERC721Enumerable);\n\t\t_registerInterface(InterfaceId_ERC721Metadata);\n\t  }\n\n\t  \n\t  \n\t  \n\t  \n\t  \n\t  function buyToken (\n\t\tuint256 _type,\n\t\tstring  _title,\n\t\tstring  _description,\n\t\tstring  _specialQuality,\n\t\tstring  _iptcKeyword,\n\t\tstring  _tokenClass\n\t  ) public onlyOwner {\n\t\tbytes memory _titleBytes = bytes(_title);\n\t\trequire(_titleBytes.length <= TITLE_MAX_LENGTH, \"Desription is too long\");\n\t\t\n\t\tbytes memory _descriptionBytes = bytes(_description);\n\t\trequire(_descriptionBytes.length <= DESCRIPTION_MAX_LENGTH, \"Description is too long\");\n\t\trequire(msg.value >= currentPrice, \"Amount of Ether sent too small\");\n\n\t\tuint256 index = allTokens.length + 1;\n\n\t\t_mint(msg.sender, index);\n\n\t\ttokenTypes[index]        = _type;\n\t\ttokenTitles[index]       = _title;\n\t\ttokenDescriptions[index] = _description;\n\t\tspecialQualities[index]  = _specialQuality;\n\t\tiptcKeywords[index]      = _iptcKeyword;\n\t\ttokenClasses[index]      = _tokenClass;\n\n\t\temit BoughtToken(msg.sender, index);\n\t  }\n\n\t  \n\t  function myTokens()\n\t\texternal\n\t\tview\n\t\treturns (\n\t\t  uint256[]\n\t\t)\n\t  {\n\t\treturn ownedTokens[msg.sender];\n\t  }\n\n\t  \n\t  \n\t  function viewTokenMeta(uint256 _tokenId)\n\t\texternal\n\t\tview\n\t\treturns (\n\t\t  uint256 tokenType_,\n\t\t  string  specialQuality_,\n\t\t  string  tokenTitle_,\n\t\t  string  tokenDescription_,\n\t\t  string  iptcKeyword_,\n\t\t  string  tokenClass_\n\t  ) {\n\t\t  tokenType_        = tokenTypes[_tokenId];\n\t\t  tokenTitle_       = tokenTitles[_tokenId];\n\t\t  tokenDescription_ = tokenDescriptions[_tokenId];\n\t\t  specialQuality_   = specialQualities[_tokenId];\n\t\t  iptcKeyword_      = iptcKeywords[_tokenId];\n\t\t  tokenClass_       = tokenClasses[_tokenId];\n\t  }\n\n\t  \n\t  function setCurrentPrice(uint256 newPrice)\n\t\tpublic\n\t\tonlyOwner\n\t  {\n\t\t  currentPrice = newPrice;\n\t  }\n\n\t  \n\t  function getCurrentPrice()\n\t\texternal\n\t\tview\n\t\treturns (\n\t\tuint256 price\n\t  ) {\n\t\t  price = currentPrice;\n\t  }\n\t  \n\t   function kill() public {\n\t\t  if(msg.sender == owner) selfdestruct(owner);\n\t   }  \n\t  \n\t  bytes4 private constant InterfaceId_ERC721Enumerable = 0x780e9d63;\n\t  \n\n\t  bytes4 private constant InterfaceId_ERC721Metadata = 0x5b5e139f;\n\t  \n\n\t  \n\t  string internal name_;\n\n\t  \n\t  string internal symbol_;\n\n\t  \n\t  mapping(address => uint256[]) internal ownedTokens;\n\n\t  \n\t  mapping(uint256 => uint256) internal ownedTokensIndex;\n\n\t  \n\t  uint256[] internal allTokens;\n\n\t  \n\t  mapping(uint256 => uint256) internal allTokensIndex;\n\n\t  \n\t  mapping(uint256 => string) internal tokenURIs;\n\n\t  \n\t  function name() external view returns (string) {\n\t\treturn name_;\n\t  }\n\n\t  \n\t  function symbol() external view returns (string) {\n\t\treturn symbol_;\n\t  }\n\n\t  \n\t  function tokenURI(uint256 _tokenId) public view returns (string) {\n\t\trequire(exists(_tokenId));\n\t\treturn tokenURIs[_tokenId];\n\t  }\n\n\t  \n\t  function tokenOfOwnerByIndex(\n\t\taddress _owner,\n\t\tuint256 _index\n\t  )\n\t\tpublic\n\t\tview\n\t\treturns (uint256)\n\t  {\n\t\trequire(_index < balanceOf(_owner));\n\t\treturn ownedTokens[_owner][_index];\n\t  }\n\n\t  \n\t  function totalSupply() public view returns (uint256) {\n\t\treturn allTokens.length;\n\t  }\n\n\t  \n\t  function tokenByIndex(uint256 _index) public view returns (uint256) {\n\t\trequire(_index < totalSupply());\n\t\treturn allTokens[_index];\n\t  }\n\n\t  \n\t  function _setTokenURI(uint256 _tokenId, string _uri) public onlyOwner {\n\t\trequire(exists(_tokenId));\n\t\ttokenURIs[_tokenId] = _uri;\n\t  }\n\n\t  \n\t  function addTokenTo(address _to, uint256 _tokenId) internal {\n\t\tsuper.addTokenTo(_to, _tokenId);\n\t\tuint256 length = ownedTokens[_to].length;\n\t\townedTokens[_to].push(_tokenId);\n\t\townedTokensIndex[_tokenId] = length;\n\t  }\n\n\t  \n\t  function removeTokenFrom(address _from, uint256 _tokenId) internal {\n\t\tsuper.removeTokenFrom(_from, _tokenId);\n\n\t\tuint256 tokenIndex = ownedTokensIndex[_tokenId];\n\t\tuint256 lastTokenIndex = ownedTokens[_from].length.sub(1);\n\t\tuint256 lastToken = ownedTokens[_from][lastTokenIndex];\n\n\t\townedTokens[_from][tokenIndex] = lastToken;\n\t\townedTokens[_from][lastTokenIndex] = 0;\n\t\t\n\t\t\n\t\t\n\n\t\townedTokens[_from].length--;\n\t\townedTokensIndex[_tokenId] = 0;\n\t\townedTokensIndex[lastToken] = tokenIndex;\n\t  }\n\n\t  \n\t  function _mint(address _to, uint256 _tokenId) internal {\n\t\tsuper._mint(_to, _tokenId);\n\n\t\tallTokensIndex[_tokenId] = allTokens.length;\n\t\tallTokens.push(_tokenId);\n\t  }\n\t}\n    \ncontract ERC721dAppCaps is ERC721dAppCaps_1 {\n    constructor() ERC721dAppCaps_1(\"rlf\", \"rlf\") public { }\n}\n",
  "sourcePath": "/home/XXX-1/smartrim-experiment/for-rlf/0x6f3d1879cd84fa1a7eec7fe936af6a84b67f4567/contracts/0x6f3d1879cd84fa1a7eec7fe936af6a84b67f4567.sol",
  "compiler": {
    "name": "solc",
    "version": "0.4.25+commit.59dbf8f1.Emscripten.clang"
  },
  "schemaVersion": "3.4.16",
  "updatedAt": "2025-08-14T03:57:06.518Z",
  "devdoc": {
    "methods": {}
  },
  "userdoc": {
    "methods": {}
  }
}