{
  "contractName": "SMARTRealty",
  "abi": [
    {
      "constant": true,
      "inputs": [],
      "name": "name",
      "outputs": [
        {
          "name": "",
          "type": "string"
        }
      ],
      "payable": false,
      "stateMutability": "view",
      "type": "function"
    },
    {
      "constant": false,
      "inputs": [
        {
          "name": "_spender",
          "type": "address"
        },
        {
          "name": "_value",
          "type": "uint256"
        }
      ],
      "name": "approve",
      "outputs": [
        {
          "name": "success",
          "type": "bool"
        }
      ],
      "payable": false,
      "stateMutability": "nonpayable",
      "type": "function"
    },
    {
      "constant": true,
      "inputs": [],
      "name": "totalSupply",
      "outputs": [
        {
          "name": "",
          "type": "uint256"
        }
      ],
      "payable": false,
      "stateMutability": "view",
      "type": "function"
    },
    {
      "constant": true,
      "inputs": [],
      "name": "lockTransfer",
      "outputs": [
        {
          "name": "",
          "type": "bool"
        }
      ],
      "payable": false,
      "stateMutability": "view",
      "type": "function"
    },
    {
      "constant": false,
      "inputs": [
        {
          "name": "_to",
          "type": "address"
        }
      ],
      "name": "setAllowedAddress",
      "outputs": [],
      "payable": false,
      "stateMutability": "nonpayable",
      "type": "function"
    },
    {
      "constant": false,
      "inputs": [
        {
          "name": "_from",
          "type": "address"
        },
        {
          "name": "_to",
          "type": "address"
        },
        {
          "name": "_value",
          "type": "uint256"
        }
      ],
      "name": "transferFrom",
      "outputs": [
        {
          "name": "success",
          "type": "bool"
        }
      ],
      "payable": false,
      "stateMutability": "nonpayable",
      "type": "function"
    },
    {
      "constant": true,
      "inputs": [],
      "name": "decimals",
      "outputs": [
        {
          "name": "",
          "type": "uint8"
        }
      ],
      "payable": false,
      "stateMutability": "view",
      "type": "function"
    },
    {
      "constant": true,
      "inputs": [],
      "name": "lockTokenSupply",
      "outputs": [
        {
          "name": "",
          "type": "bool"
        }
      ],
      "payable": false,
      "stateMutability": "view",
      "type": "function"
    },
    {
      "constant": true,
      "inputs": [],
      "name": "allowedAddress",
      "outputs": [
        {
          "name": "",
          "type": "address"
        }
      ],
      "payable": false,
      "stateMutability": "view",
      "type": "function"
    },
    {
      "constant": true,
      "inputs": [],
      "name": "version",
      "outputs": [
        {
          "name": "",
          "type": "string"
        }
      ],
      "payable": false,
      "stateMutability": "view",
      "type": "function"
    },
    {
      "constant": false,
      "inputs": [
        {
          "name": "_newAdmin",
          "type": "address"
        }
      ],
      "name": "transferAdminship",
      "outputs": [],
      "payable": false,
      "stateMutability": "nonpayable",
      "type": "function"
    },
    {
      "constant": true,
      "inputs": [],
      "name": "RATE",
      "outputs": [
        {
          "name": "",
          "type": "uint256"
        }
      ],
      "payable": false,
      "stateMutability": "view",
      "type": "function"
    },
    {
      "constant": true,
      "inputs": [
        {
          "name": "_owner",
          "type": "address"
        }
      ],
      "name": "balanceOf",
      "outputs": [
        {
          "name": "balance",
          "type": "uint256"
        }
      ],
      "payable": false,
      "stateMutability": "view",
      "type": "function"
    },
    {
      "constant": false,
      "inputs": [
        {
          "name": "_target",
          "type": "address"
        },
        {
          "name": "_mintedAmount",
          "type": "uint256"
        }
      ],
      "name": "mintToken",
      "outputs": [],
      "payable": false,
      "stateMutability": "nonpayable",
      "type": "function"
    },
    {
      "constant": true,
      "inputs": [],
      "name": "lockSupply",
      "outputs": [
        {
          "name": "",
          "type": "bool"
        }
      ],
      "payable": false,
      "stateMutability": "view",
      "type": "function"
    },
    {
      "constant": true,
      "inputs": [],
      "name": "owner",
      "outputs": [
        {
          "name": "",
          "type": "address"
        }
      ],
      "payable": false,
      "stateMutability": "view",
      "type": "function"
    },
    {
      "constant": true,
      "inputs": [],
      "name": "symbol",
      "outputs": [
        {
          "name": "",
          "type": "string"
        }
      ],
      "payable": false,
      "stateMutability": "view",
      "type": "function"
    },
    {
      "constant": false,
      "inputs": [
        {
          "name": "_to",
          "type": "address"
        },
        {
          "name": "_value",
          "type": "uint256"
        }
      ],
      "name": "transfer",
      "outputs": [
        {
          "name": "success",
          "type": "bool"
        }
      ],
      "payable": false,
      "stateMutability": "nonpayable",
      "type": "function"
    },
    {
      "constant": false,
      "inputs": [
        {
          "name": "_target",
          "type": "address"
        },
        {
          "name": "_flag",
          "type": "bool"
        }
      ],
      "name": "setFrozen",
      "outputs": [],
      "payable": false,
      "stateMutability": "nonpayable",
      "type": "function"
    },
    {
      "constant": false,
      "inputs": [
        {
          "name": "_set",
          "type": "bool"
        }
      ],
      "name": "setTransferLock",
      "outputs": [],
      "payable": false,
      "stateMutability": "nonpayable",
      "type": "function"
    },
    {
      "constant": false,
      "inputs": [
        {
          "name": "_target",
          "type": "address"
        },
        {
          "name": "_burnedAmount",
          "type": "uint256"
        }
      ],
      "name": "burnToken",
      "outputs": [],
      "payable": false,
      "stateMutability": "nonpayable",
      "type": "function"
    },
    {
      "constant": false,
      "inputs": [
        {
          "name": "_set",
          "type": "bool"
        }
      ],
      "name": "setLockTokenSupply",
      "outputs": [],
      "payable": false,
      "stateMutability": "nonpayable",
      "type": "function"
    },
    {
      "constant": true,
      "inputs": [
        {
          "name": "_owner",
          "type": "address"
        },
        {
          "name": "_spender",
          "type": "address"
        }
      ],
      "name": "allowance",
      "outputs": [
        {
          "name": "remaining",
          "type": "uint256"
        }
      ],
      "payable": false,
      "stateMutability": "view",
      "type": "function"
    },
    {
      "constant": false,
      "inputs": [],
      "name": "getLockTokenSupply",
      "outputs": [
        {
          "name": "",
          "type": "bool"
        }
      ],
      "payable": false,
      "stateMutability": "nonpayable",
      "type": "function"
    },
    {
      "constant": true,
      "inputs": [],
      "name": "admin",
      "outputs": [
        {
          "name": "",
          "type": "address"
        }
      ],
      "payable": false,
      "stateMutability": "view",
      "type": "function"
    },
    {
      "constant": false,
      "inputs": [
        {
          "name": "_set",
          "type": "bool"
        }
      ],
      "name": "setSupplyLock",
      "outputs": [],
      "payable": false,
      "stateMutability": "nonpayable",
      "type": "function"
    },
    {
      "inputs": [],
      "payable": true,
      "stateMutability": "payable",
      "type": "constructor"
    },
    {
      "payable": true,
      "stateMutability": "payable",
      "type": "fallback"
    },
    {
      "anonymous": false,
      "inputs": [
        {
          "indexed": false,
          "name": "_sender",
          "type": "address"
        },
        {
          "indexed": false,
          "name": "_beneficiary",
          "type": "address"
        },
        {
          "indexed": false,
          "name": "weiAmount",
          "type": "uint256"
        },
        {
          "indexed": false,
          "name": "tokens",
          "type": "uint256"
        }
      ],
      "name": "TokenPurchase",
      "type": "event"
    },
    {
      "anonymous": false,
      "inputs": [
        {
          "indexed": true,
          "name": "_from",
          "type": "address"
        },
        {
          "indexed": true,
          "name": "_to",
          "type": "address"
        },
        {
          "indexed": false,
          "name": "_value",
          "type": "uint256"
        }
      ],
      "name": "Transfer",
      "type": "event"
    },
    {
      "anonymous": false,
      "inputs": [
        {
          "indexed": true,
          "name": "_owner",
          "type": "address"
        },
        {
          "indexed": true,
          "name": "_spender",
          "type": "address"
        },
        {
          "indexed": false,
          "name": "_value",
          "type": "uint256"
        }
      ],
      "name": "Approval",
      "type": "event"
    },
    {
      "anonymous": false,
      "inputs": [
        {
          "indexed": true,
          "name": "_target",
          "type": "address"
        },
        {
          "indexed": false,
          "name": "_value",
          "type": "uint256"
        }
      ],
      "name": "Burned",
      "type": "event"
    },
    {
      "anonymous": false,
      "inputs": [
        {
          "indexed": false,
          "name": "_target",
          "type": "address"
        },
        {
          "indexed": false,
          "name": "_flag",
          "type": "bool"
        }
      ],
      "name": "FrozenStatus",
      "type": "event"
    },
    {
      "anonymous": false,
      "inputs": [
        {
          "indexed": false,
          "name": "_to",
          "type": "address"
        }
      ],
      "name": "AllowedSet",
      "type": "event"
    },
    {
      "anonymous": false,
      "inputs": [
        {
          "indexed": false,
          "name": "_set",
          "type": "bool"
        }
      ],
      "name": "SetSupplyLock",
      "type": "event"
    },
    {
      "anonymous": false,
      "inputs": [
        {
          "indexed": false,
          "name": "_set",
          "type": "bool"
        }
      ],
      "name": "SetTransferLock",
      "type": "event"
    },
    {
      "anonymous": false,
      "inputs": [
        {
          "indexed": false,
          "name": "newAdminister",
          "type": "address"
        }
      ],
      "name": "TransferAdminship",
      "type": "event"
    },
    {
      "anonymous": false,
      "inputs": [
        {
          "indexed": false,
          "name": "administer",
          "type": "address"
        }
      ],
      "name": "Admined",
      "type": "event"
    },
    {
      "anonymous": false,
      "inputs": [
        {
          "indexed": false,
          "name": "_set",
          "type": "bool"
        }
      ],
      "name": "SetLockTokenSupply",
      "type": "event"
    },
    {
      "constant": false,
      "inputs": [],
      "name": "activateICOStatus",
      "outputs": [],
      "payable": false,
      "stateMutability": "nonpayable",
      "type": "function"
    },
    {
      "constant": false,
      "inputs": [
        {
          "name": "_fromTimestamp",
          "type": "uint256"
        },
        {
          "name": "_toTimestamp",
          "type": "uint256"
        },
        {
          "name": "_min",
          "type": "uint256"
        },
        {
          "name": "_bonus",
          "type": "uint256"
        }
      ],
      "name": "setICOPhase",
      "outputs": [
        {
          "name": "ICOPhaseId",
          "type": "uint256"
        }
      ],
      "payable": false,
      "stateMutability": "nonpayable",
      "type": "function"
    },
    {
      "constant": true,
      "inputs": [],
      "name": "getCurrentICOPhaseBonus",
      "outputs": [
        {
          "name": "_bonus",
          "type": "uint256"
        },
        {
          "name": "icoPhaseId",
          "type": "uint256"
        }
      ],
      "payable": false,
      "stateMutability": "view",
      "type": "function"
    },
    {
      "constant": false,
      "inputs": [
        {
          "name": "beneficiary",
          "type": "address"
        }
      ],
      "name": "_buyTokens",
      "outputs": [],
      "payable": true,
      "stateMutability": "payable",
      "type": "function"
    },
    {
      "constant": false,
      "inputs": [
        {
          "name": "_to",
          "type": "address"
        },
        {
          "name": "_amount",
          "type": "uint256"
        }
      ],
      "name": "_transferToken",
      "outputs": [
        {
          "name": "",
          "type": "bool"
        }
      ],
      "payable": false,
      "stateMutability": "nonpayable",
      "type": "function"
    }
  ],
  "bytecode": "0x60806040526040805190810160405280600b81526020017f534d4152545265616c74790000000000000000000000000000000000000000008152506006908051906020019062000051929190620006c6565b506040805190810160405280600481526020017f524c545900000000000000000000000000000000000000000000000000000000815250600790805190602001906200009f929190620006c6565b5060088060006101000a81548160ff021916908360ff1602179055506040805190810160405280600581526020017f312e302e300000000000000000000000000000000000000000000000000000008152506009908051906020019062000108929190620006c6565b506000600d55336000806101000a81548173ffffffffffffffffffffffffffffffffffffffff021916908373ffffffffffffffffffffffffffffffffffffffff1602179055507fa2b0867ddc9434a6620c27aae2ee7b19d3db53f3e7f059bdbecc3f2091e24f776000809054906101000a900473ffffffffffffffffffffffffffffffffffffffff16604051808273ffffffffffffffffffffffffffffffffffffffff1673ffffffffffffffffffffffffffffffffffffffff16815260200191505060405180910390a133600a60006101000a81548173ffffffffffffffffffffffffffffffffffffffff021916908373ffffffffffffffffffffffffffffffffffffffff160217905550600860009054906101000a900460ff1660ff16600a0a631dcd650002600281905550600860009054906101000a900460ff1660ff16600a0a630bebc2000260036000600a60009054906101000a900473ffffffffffffffffffffffffffffffffffffffff1673ffffffffffffffffffffffffffffffffffffffff1673ffffffffffffffffffffffffffffffffffffffff16815260200190815260200160002081905550600860009054906101000a900460ff1660ff16600a0a6302faf080026003600073f9568bd772c9b517193275b3c2e0cdad38e586bb73ffffffffffffffffffffffffffffffffffffffff1673ffffffffffffffffffffffffffffffffffffffff16815260200190815260200160002081905550600860009054906101000a900460ff1660ff16600a0a6302faf08002600360007307adb1d9399bd1fa4fd613d3179dfe883755bb1373ffffffffffffffffffffffffffffffffffffffff1673ffffffffffffffffffffffffffffffffffffffff16815260200190815260200160002081905550600860009054906101000a900460ff1660ff16600a0a6302faf080026003600073d35909dbeeb5255d65b1ea14602c7f00ce3872f673ffffffffffffffffffffffffffffffffffffffff1673ffffffffffffffffffffffffffffffffffffffff16815260200190815260200160002081905550600860009054906101000a900460ff1660ff16600a0a6302faf0800260036000739d2fe4d5f1dc4fca1f0ea5f461c9faa5d09b9cce73ffffffffffffffffffffffffffffffffffffffff1673ffffffffffffffffffffffffffffffffffffffff16815260200190815260200160002081905550600860009054906101000a900460ff1660ff16600a0a63017d78400260036000738bb41848b6dd3d98b8849049b780dc3549568c8973ffffffffffffffffffffffffffffffffffffffff1673ffffffffffffffffffffffffffffffffffffffff16815260200190815260200160002081905550600860009054906101000a900460ff1660ff16600a0a63017d7840026003600073c78df195de5717fb15fb3448d5c6893e8e7fb25473ffffffffffffffffffffffffffffffffffffffff1673ffffffffffffffffffffffffffffffffffffffff16815260200190815260200160002081905550600860009054906101000a900460ff1660ff16600a0a63017d78400260036000734690678926bcf9b30985c06806d4568c0c49812373ffffffffffffffffffffffffffffffffffffffff1673ffffffffffffffffffffffffffffffffffffffff16815260200190815260200160002081905550600860009054906101000a900460ff1660ff16600a0a6301312d0002600360007308af803f0f90ccdbfce046bc113822cff415e14873ffffffffffffffffffffffffffffffffffffffff1673ffffffffffffffffffffffffffffffffffffffff16815260200190815260200160002081905550600860009054906101000a900460ff1660ff16600a0a624c4b400260036000738661dfb67de4e5569da9859f5cb4aa676cd5f48073ffffffffffffffffffffffffffffffffffffffff1673ffffffffffffffffffffffffffffffffffffffff1681526020019081526020016000208190555062000775565b828054600181600116156101000203166002900490600052602060002090601f016020900481019282601f106200070957805160ff19168380011785556200073a565b828001600101855582156200073a579182015b82811115620007395782518255916020019190600101906200071c565b5b5090506200074991906200074d565b5090565b6200077291905b808211156200076e57600081600090555060010162000754565b5090565b90565b61264e80620007856000396000f30060806040526004361061018b576000357c0100000000000000000000000000000000000000000000000000000000900463ffffffff16806306fdde0314610196578063095ea7b31461022657806318160ddd1461028b5780631a9aea0a146102b65780631b8fc2f0146102e55780631f5e881f1461032857806323b872dd1461035e578063313ce567146103e357806344447f47146104145780634cf781701461044357806354fd4d501461049a5780635be7cc161461052a578063664e97041461056d5780636cfe59471461059857806370a08231146105ca578063789a9ae01461062157806379c650681461068057806381eaf99b146106cd5780638da5cb5b146106fc57806395d89b4114610753578063a9059cbb146107e3578063ac869cd814610848578063bff3561814610897578063d1df306c146108c6578063db465df614610913578063dd14d85614610942578063dd62ed3e146109a7578063e487e87b14610a1e578063eb70033114610a35578063f851a44014610a64578063fa51a2bf14610abb575b61019433610aea565b005b3480156101a257600080fd5b506101ab610cf9565b6040518080602001828103825283818151815260200191508051906020019080838360005b838110156101eb5780820151818401526020810190506101d0565b50505050905090810190601f1680156102185780820380516001836020036101000a031916815260200191505b509250505060405180910390f35b34801561023257600080fd5b50610271600480360381019080803573ffffffffffffffffffffffffffffffffffffffff16906020019092919080359060200190929190505050610d97565b604051808215151515815260200191505060405180910390f35b34801561029757600080fd5b506102a0610e89565b6040518082815260200191505060405180910390f35b3480156102c257600080fd5b506102cb610e8f565b604051808215151515815260200191505060405180910390f35b3480156102f157600080fd5b50610326600480360381019080803573ffffffffffffffffffffffffffffffffffffffff169060200190929190505050610ea2565b005b61035c600480360381019080803573ffffffffffffffffffffffffffffffffffffffff169060200190929190505050610aea565b005b34801561036a57600080fd5b506103c9600480360381019080803573ffffffffffffffffffffffffffffffffffffffff169060200190929190803573ffffffffffffffffffffffffffffffffffffffff16906020019092919080359060200190929190505050610f49565b604051808215151515815260200191505060405180910390f35b3480156103ef57600080fd5b506103f86113de565b604051808260ff1660ff16815260200191505060405180910390f35b34801561042057600080fd5b506104296113f1565b604051808215151515815260200191505060405180910390f35b34801561044f57600080fd5b50610458611404565b604051808273ffffffffffffffffffffffffffffffffffffffff1673ffffffffffffffffffffffffffffffffffffffff16815260200191505060405180910390f35b3480156104a657600080fd5b506104af61142a565b6040518080602001828103825283818151815260200191508051906020019080838360005b838110156104ef5780820151818401526020810190506104d4565b50505050905090810190601f16801561051c5780820380516001836020036101000a031916815260200191505b509250505060405180910390f35b34801561053657600080fd5b5061056b600480360381019080803573ffffffffffffffffffffffffffffffffffffffff1690602001909291905050506114c8565b005b34801561057957600080fd5b506105826115ea565b6040518082815260200191505060405180910390f35b3480156105a457600080fd5b506105ad6115f0565b604051808381526020018281526020019250505060405180910390f35b3480156105d657600080fd5b5061060b600480360381019080803573ffffffffffffffffffffffffffffffffffffffff169060200190929190505050611670565b6040518082815260200191505060405180910390f35b34801561062d57600080fd5b5061066a600480360381019080803590602001909291908035906020019092919080359060200190929190803590602001909291905050506116b9565b6040518082815260200191505060405180910390f35b34801561068c57600080fd5b506106cb600480360381019080803573ffffffffffffffffffffffffffffffffffffffff169060200190929190803590602001909291905050506117c5565b005b3480156106d957600080fd5b506106e2611999565b604051808215151515815260200191505060405180910390f35b34801561070857600080fd5b506107116119ac565b604051808273ffffffffffffffffffffffffffffffffffffffff1673ffffffffffffffffffffffffffffffffffffffff16815260200191505060405180910390f35b34801561075f57600080fd5b506107686119d2565b6040518080602001828103825283818151815260200191508051906020019080838360005b838110156107a857808201518184015260208101905061078d565b50505050905090810190601f1680156107d55780820380516001836020036101000a031916815260200191505b509250505060405180910390f35b3480156107ef57600080fd5b5061082e600480360381019080803573ffffffffffffffffffffffffffffffffffffffff16906020019092919080359060200190929190505050611a70565b604051808215151515815260200191505060405180910390f35b34801561085457600080fd5b50610895600480360381019080803573ffffffffffffffffffffffffffffffffffffffff169060200190929190803515159060200190929190505050611d6d565b005b3480156108a357600080fd5b506108c4600480360381019080803515159060200190929190505050611e92565b005b3480156108d257600080fd5b50610911600480360381019080803573ffffffffffffffffffffffffffffffffffffffff16906020019092919080359060200190929190505050611f45565b005b34801561091f57600080fd5b506109406004803603810190808035151590602001909291905050506120b2565b005b34801561094e57600080fd5b5061098d600480360381019080803573ffffffffffffffffffffffffffffffffffffffff16906020019092919080359060200190929190505050612165565b604051808215151515815260200191505060405180910390f35b3480156109b357600080fd5b50610a08600480360381019080803573ffffffffffffffffffffffffffffffffffffffff169060200190929190803573ffffffffffffffffffffffffffffffffffffffff169060200190929190505050612345565b6040518082815260200191505060405180910390f35b348015610a2a57600080fd5b50610a336123cc565b005b348015610a4157600080fd5b50610a4a6123f2565b604051808215151515815260200191505060405180910390f35b348015610a7057600080fd5b50610a79612409565b604051808273ffffffffffffffffffffffffffffffffffffffff1673ffffffffffffffffffffffffffffffffffffffff16815260200191505060405180910390f35b348015610ac757600080fd5b50610ae860048036038101908080351515906020019092919050505061242e565b005b600080600080600073ffffffffffffffffffffffffffffffffffffffff168573ffffffffffffffffffffffffffffffffffffffff1614158015610b7b5750600a60009054906101000a900473ffffffffffffffffffffffffffffffffffffffff1673ffffffffffffffffffffffffffffffffffffffff168573ffffffffffffffffffffffffffffffffffffffff1614155b1515610b8657600080fd5b349350610b92846124e1565b92509250600c60008381526020019081526020016000209050610bc234826003015461254590919063ffffffff16565b816003018190555080600c6000848152602001908152602001600020600082015481600001556001820154816001015560028201548160020155600382015481600301556004820154816004015560058201548160050155905050610c3284600b5461254590919063ffffffff16565b600b81905550610c428584612165565b507f623b3804fa71d67900d064613da8f94b9617215ee90799290593e1745087ad1833868686604051808573ffffffffffffffffffffffffffffffffffffffff1673ffffffffffffffffffffffffffffffffffffffff1681526020018473ffffffffffffffffffffffffffffffffffffffff1673ffffffffffffffffffffffffffffffffffffffff16815260200183815260200182815260200194505050505060405180910390a1610cf2612563565b5050505050565b60068054600181600116156101000203166002900480601f016020809104026020016040519081016040528092919081815260200182805460018160011615610100020316600290048015610d8f5780601f10610d6457610100808354040283529160200191610d8f565b820191906000526020600020905b815481529060010190602001808311610d7257829003601f168201915b505050505081565b600081600460003373ffffffffffffffffffffffffffffffffffffffff1673ffffffffffffffffffffffffffffffffffffffff16815260200190815260200160002060008573ffffffffffffffffffffffffffffffffffffffff1673ffffffffffffffffffffffffffffffffffffffff168152602001908152602001600020819055508273ffffffffffffffffffffffffffffffffffffffff163373ffffffffffffffffffffffffffffffffffffffff167f8c5be1e5ebec7d5bd14f71427d1e84f3dd0314c0f7b2291e5b200ac8c7c3b925846040518082815260200191505060405180910390a36001905092915050565b60025481565b600060159054906101000a900460ff1681565b80600160006101000a81548173ffffffffffffffffffffffffffffffffffffffff021916908373ffffffffffffffffffffffffffffffffffffffff1602179055507f742e2ebd0014f6b28dbbce00d10b8f4f4a46f5b69d9a6224c87d0e733a8d997781604051808273ffffffffffffffffffffffffffffffffffffffff1673ffffffffffffffffffffffffffffffffffffffff16815260200191505060405180910390a150565b6000801515600060159054906101000a900460ff1615151480610fb957503373ffffffffffffffffffffffffffffffffffffffff16600160009054906101000a900473ffffffffffffffffffffffffffffffffffffffff1673ffffffffffffffffffffffffffffffffffffffff16145b1515610fc457600080fd5b600073ffffffffffffffffffffffffffffffffffffffff168373ffffffffffffffffffffffffffffffffffffffff161415151561100057600080fd5b81600360008673ffffffffffffffffffffffffffffffffffffffff1673ffffffffffffffffffffffffffffffffffffffff16815260200190815260200160002054101580156110cb575081600460008673ffffffffffffffffffffffffffffffffffffffff1673ffffffffffffffffffffffffffffffffffffffff16815260200190815260200160002060003373ffffffffffffffffffffffffffffffffffffffff1673ffffffffffffffffffffffffffffffffffffffff1681526020019081526020016000205410155b15156110d657600080fd5b60001515600560008673ffffffffffffffffffffffffffffffffffffffff1673ffffffffffffffffffffffffffffffffffffffff16815260200190815260200160002060009054906101000a900460ff16151514151561113557600080fd5b61118782600360008673ffffffffffffffffffffffffffffffffffffffff1673ffffffffffffffffffffffffffffffffffffffff1681526020019081526020016000205461254590919063ffffffff16565b600360008573ffffffffffffffffffffffffffffffffffffffff1673ffffffffffffffffffffffffffffffffffffffff1681526020019081526020016000208190555061121c82600360008773ffffffffffffffffffffffffffffffffffffffff1673ffffffffffffffffffffffffffffffffffffffff168152602001908152602001600020546125ce90919063ffffffff16565b600360008673ffffffffffffffffffffffffffffffffffffffff1673ffffffffffffffffffffffffffffffffffffffff168152602001908152602001600020819055506112ee82600460008773ffffffffffffffffffffffffffffffffffffffff1673ffffffffffffffffffffffffffffffffffffffff16815260200190815260200160002060003373ffffffffffffffffffffffffffffffffffffffff1673ffffffffffffffffffffffffffffffffffffffff168152602001908152602001600020546125ce90919063ffffffff16565b600460008673ffffffffffffffffffffffffffffffffffffffff1673ffffffffffffffffffffffffffffffffffffffff16815260200190815260200160002060003373ffffffffffffffffffffffffffffffffffffffff1673ffffffffffffffffffffffffffffffffffffffff168152602001908152602001600020819055508273ffffffffffffffffffffffffffffffffffffffff168473ffffffffffffffffffffffffffffffffffffffff167fddf252ad1be2c89b69c2b068fc378daa952ba7f163c4a11628f55a4df523b3ef846040518082815260200191505060405180910390a3600190509392505050565b600860009054906101000a900460ff1681565b600160149054906101000a900460ff1681565b600160009054906101000a900473ffffffffffffffffffffffffffffffffffffffff1681565b60098054600181600116156101000203166002900480601f0160208091040260200160405190810160405280929190818152602001828054600181600116156101000203166002900480156114c05780601f10611495576101008083540402835291602001916114c0565b820191906000526020600020905b8154815290600101906020018083116114a357829003601f168201915b505050505081565b6000809054906101000a900473ffffffffffffffffffffffffffffffffffffffff1673ffffffffffffffffffffffffffffffffffffffff163373ffffffffffffffffffffffffffffffffffffffff1614151561152357600080fd5b806000806101000a81548173ffffffffffffffffffffffffffffffffffffffff021916908373ffffffffffffffffffffffffffffffffffffffff1602179055507f4f2723059e5730f1d4ffa943789d401722067ca1121b828944c6965dbd303e086000809054906101000a900473ffffffffffffffffffffffffffffffffffffffff16604051808273ffffffffffffffffffffffffffffffffffffffff1673ffffffffffffffffffffffffffffffffffffffff16815260200191505060405180910390a150565b6104e281565b600080600080600080600d5411151561160857600080fd5b429250600091505b600d5482101561166857600c6000838152602001908152602001600020905080600001548310158015611647575080600101548311155b1561165b5780600401548294509450611669565b8180600101925050611610565b5b5050509091565b6000600360008373ffffffffffffffffffffffffffffffffffffffff1673ffffffffffffffffffffffffffffffffffffffff168152602001908152602001600020549050919050565b60008060008060009054906101000a900473ffffffffffffffffffffffffffffffffffffffff1673ffffffffffffffffffffffffffffffffffffffff163373ffffffffffffffffffffffffffffffffffffffff1614151561171957600080fd5b600d6000815480929190600101919050559150600c6000838152602001908152602001600020905086816000018190555085816001018190555084816002018190555083816004018190555080600c60008481526020019081526020016000206000820154816000015560018201548160010155600282015481600201556003820154816003015560048201548160040155600582015481600501559050508192505050949350505050565b6000809054906101000a900473ffffffffffffffffffffffffffffffffffffffff1673ffffffffffffffffffffffffffffffffffffffff163373ffffffffffffffffffffffffffffffffffffffff1614151561182057600080fd5b60001515600060149054906101000a900460ff16151514151561184257600080fd5b61188b600360008473ffffffffffffffffffffffffffffffffffffffff1673ffffffffffffffffffffffffffffffffffffffff1681526020019081526020016000205482612545565b600360008473ffffffffffffffffffffffffffffffffffffffff1673ffffffffffffffffffffffffffffffffffffffff168152602001908152602001600020819055506118da60025482612545565b6002819055503073ffffffffffffffffffffffffffffffffffffffff1660007fddf252ad1be2c89b69c2b068fc378daa952ba7f163c4a11628f55a4df523b3ef836040518082815260200191505060405180910390a38173ffffffffffffffffffffffffffffffffffffffff163073ffffffffffffffffffffffffffffffffffffffff167fddf252ad1be2c89b69c2b068fc378daa952ba7f163c4a11628f55a4df523b3ef836040518082815260200191505060405180910390a35050565b600060149054906101000a900460ff1681565b600a60009054906101000a900473ffffffffffffffffffffffffffffffffffffffff1681565b60078054600181600116156101000203166002900480601f016020809104026020016040519081016040528092919081815260200182805460018160011615610100020316600290048015611a685780601f10611a3d57610100808354040283529160200191611a68565b820191906000526020600020905b815481529060010190602001808311611a4b57829003601f168201915b505050505081565b6000801515600060159054906101000a900460ff1615151480611ae057503373ffffffffffffffffffffffffffffffffffffffff16600160009054906101000a900473ffffffffffffffffffffffffffffffffffffffff1673ffffffffffffffffffffffffffffffffffffffff16145b1515611aeb57600080fd5b600073ffffffffffffffffffffffffffffffffffffffff168373ffffffffffffffffffffffffffffffffffffffff1614151515611b2757600080fd5b81600360003373ffffffffffffffffffffffffffffffffffffffff1673ffffffffffffffffffffffffffffffffffffffff1681526020019081526020016000205410151515611b7557600080fd5b60001515600560003373ffffffffffffffffffffffffffffffffffffffff1673ffffffffffffffffffffffffffffffffffffffff16815260200190815260200160002060009054906101000a900460ff161515141515611bd457600080fd5b611c2682600360003373ffffffffffffffffffffffffffffffffffffffff1673ffffffffffffffffffffffffffffffffffffffff168152602001908152602001600020546125ce90919063ffffffff16565b600360003373ffffffffffffffffffffffffffffffffffffffff1673ffffffffffffffffffffffffffffffffffffffff16815260200190815260200160002081905550611cbb82600360008673ffffffffffffffffffffffffffffffffffffffff1673ffffffffffffffffffffffffffffffffffffffff1681526020019081526020016000205461254590919063ffffffff16565b600360008573ffffffffffffffffffffffffffffffffffffffff1673ffffffffffffffffffffffffffffffffffffffff168152602001908152602001600020819055508273ffffffffffffffffffffffffffffffffffffffff163373ffffffffffffffffffffffffffffffffffffffff167fddf252ad1be2c89b69c2b068fc378daa952ba7f163c4a11628f55a4df523b3ef846040518082815260200191505060405180910390a36001905092915050565b6000809054906101000a900473ffffffffffffffffffffffffffffffffffffffff1673ffffffffffffffffffffffffffffffffffffffff163373ffffffffffffffffffffffffffffffffffffffff16141515611dc857600080fd5b80600560008473ffffffffffffffffffffffffffffffffffffffff1673ffffffffffffffffffffffffffffffffffffffff16815260200190815260200160002060006101000a81548160ff0219169083151502179055507f0adeb3125cc5db4bbcd04a6ad07b095f8c5f7db710ea08e9a35481d7a4bcc4718282604051808373ffffffffffffffffffffffffffffffffffffffff1673ffffffffffffffffffffffffffffffffffffffff168152602001821515151581526020019250505060405180910390a15050565b6000809054906101000a900473ffffffffffffffffffffffffffffffffffffffff1673ffffffffffffffffffffffffffffffffffffffff163373ffffffffffffffffffffffffffffffffffffffff16141515611eed57600080fd5b80600060156101000a81548160ff0219169083151502179055507ff33f8ef436f631648b30f6761d8d417b93dc359444a28c3d5c5bdb05c10edc1681604051808215151515815260200191505060405180910390a150565b6000809054906101000a900473ffffffffffffffffffffffffffffffffffffffff1673ffffffffffffffffffffffffffffffffffffffff163373ffffffffffffffffffffffffffffffffffffffff16141515611fa057600080fd5b60001515600060149054906101000a900460ff161515141515611fc257600080fd5b61200b600360008473ffffffffffffffffffffffffffffffffffffffff1673ffffffffffffffffffffffffffffffffffffffff16815260200190815260200160002054826125ce565b600360008473ffffffffffffffffffffffffffffffffffffffff1673ffffffffffffffffffffffffffffffffffffffff1681526020019081526020016000208190555061205a600254826125ce565b6002819055508173ffffffffffffffffffffffffffffffffffffffff167f696de425f79f4a40bc6d2122ca50507f0efbeabbff86a84871b7196ab8ea8df7826040518082815260200191505060405180910390a25050565b6000809054906101000a900473ffffffffffffffffffffffffffffffffffffffff1673ffffffffffffffffffffffffffffffffffffffff163373ffffffffffffffffffffffffffffffffffffffff1614151561210d57600080fd5b80600160146101000a81548160ff0219169083151502179055507fdfb9634853369231485adebfc0de1d11a8276f4d146ad9e94073d0f9a723970881604051808215151515815260200191505060405180910390a150565b60006121db8260036000600a60009054906101000a900473ffffffffffffffffffffffffffffffffffffffff1673ffffffffffffffffffffffffffffffffffffffff1673ffffffffffffffffffffffffffffffffffffffff168152602001908152602001600020546125ce90919063ffffffff16565b60036000600a60009054906101000a900473ffffffffffffffffffffffffffffffffffffffff1673ffffffffffffffffffffffffffffffffffffffff1673ffffffffffffffffffffffffffffffffffffffff1681526020019081526020016000208190555061229282600360008673ffffffffffffffffffffffffffffffffffffffff1673ffffffffffffffffffffffffffffffffffffffff1681526020019081526020016000205461254590919063ffffffff16565b600360008573ffffffffffffffffffffffffffffffffffffffff1673ffffffffffffffffffffffffffffffffffffffff168152602001908152602001600020819055508273ffffffffffffffffffffffffffffffffffffffff16600073ffffffffffffffffffffffffffffffffffffffff167fddf252ad1be2c89b69c2b068fc378daa952ba7f163c4a11628f55a4df523b3ef846040518082815260200191505060405180910390a36001905092915050565b6000600460008473ffffffffffffffffffffffffffffffffffffffff1673ffffffffffffffffffffffffffffffffffffffff16815260200190815260200160002060008373ffffffffffffffffffffffffffffffffffffffff1673ffffffffffffffffffffffffffffffffffffffff16815260200190815260200160002054905092915050565b6001600e60006101000a81548160ff021916908360028111156123eb57fe5b0217905550565b6000600160149054906101000a900460ff16905090565b6000809054906101000a900473ffffffffffffffffffffffffffffffffffffffff1681565b6000809054906101000a900473ffffffffffffffffffffffffffffffffffffffff1673ffffffffffffffffffffffffffffffffffffffff163373ffffffffffffffffffffffffffffffffffffffff1614151561248957600080fd5b80600060146101000a81548160ff0219169083151502179055507fc66e378b596f3b01004d4ee4ade9faff42014dae2242d63966a6d66821500e6a81604051808215151515815260200191505060405180910390a150565b60008060008060008060006124f46115f0565b9450945061250d6104e2896125e790919063ffffffff16565b92508260648681151561251c57fe5b04029150612533828461254590919063ffffffff16565b90508084965096505050505050915091565b600080828401905083811015151561255957fe5b8091505092915050565b600a60009054906101000a900473ffffffffffffffffffffffffffffffffffffffff1673ffffffffffffffffffffffffffffffffffffffff166108fc349081150290604051600060405180830381858888f193505050501580156125cb573d6000803e3d6000fd5b50565b60008282111515156125dc57fe5b818303905092915050565b60008060008414156125fc576000915061261b565b828402905082848281151561260d57fe5b0414151561261757fe5b8091505b50929150505600a165627a7a72305820151aac045c20c8f0b39621ae52172660e3d2d683383a159c0b8c44fd4af2a4da0029",
  "source": "\n\n\n\n\nlibrary SafeMath {\n\n  \n  function safeMul(uint256 a, uint256 b) internal pure returns (uint256) {\n    if (a == 0) {\n      return 0;\n    }\n    uint256 c = a * b;\n    assert(c / a == b);\n    return c;\n  }\n\n  \n  function safeDiv(uint256 a, uint256 b) internal pure returns (uint256) {\n    \n    uint256 c = a / b;\n    \n    return c;\n  }\n\n  \n  function safeSub(uint256 a, uint256 b) internal pure returns (uint256) {\n    assert(b <= a);\n    return a - b;\n  }\n\n  \n  function safeAdd(uint256 a, uint256 b) internal pure returns (uint256) {\n    uint256 c = a + b;\n    assert(c >= a);\n    return c;\n  }\n}\n\n\ncontract admined {\n    \n    address public admin; \n    bool public lockSupply; \n    bool public lockTransfer; \n    address public allowedAddress; \n    bool public lockTokenSupply;\n\n    \n    function admined() internal {\n        admin = msg.sender; \n        Admined(admin);\n    }\n\n   \n    function setAllowedAddress(address _to) public {\n        allowedAddress = _to;\n        AllowedSet(_to);\n    }\n\n    modifier onlyAdmin() { \n        require(msg.sender == admin);\n        _;\n    }\n\n    modifier supplyLock() { \n        require(lockSupply == false);\n        _;\n    }\n\n    modifier transferLock() { \n        require(lockTransfer == false || allowedAddress == msg.sender);\n        _;\n    }\n\n   \n    function transferAdminship(address _newAdmin) onlyAdmin public { \n        admin = _newAdmin;\n        TransferAdminship(admin);\n    }\n\n   \n    function setSupplyLock(bool _set) onlyAdmin public { \n        lockSupply = _set;\n        SetSupplyLock(_set);\n    }\n\n   \n    function setTransferLock(bool _set) onlyAdmin public { \n        lockTransfer = _set;\n        SetTransferLock(_set);\n    }\n\n    function setLockTokenSupply(bool _set) onlyAdmin public {\n        lockTokenSupply = _set;\n        SetLockTokenSupply(_set);\n    }\n\n    function getLockTokenSupply() returns (bool) {\n        return lockTokenSupply;\n    }\n\n    \n    event AllowedSet(address _to);\n    event SetSupplyLock(bool _set);\n    event SetTransferLock(bool _set);\n    event TransferAdminship(address newAdminister);\n    event Admined(address administer);\n    event SetLockTokenSupply(bool _set);\n\n}\n\n\ncontract ERC20TokenInterface {\n    function balanceOf(address _owner) public constant returns (uint256 balance);\n    function transfer(address _to, uint256 _value) public returns (bool success);\n    function transferFrom(address _from, address _to, uint256 _value) public returns (bool success);\n    function approve(address _spender, uint256 _value) public returns (bool success);\n    function allowance(address _owner, address _spender) public constant returns (uint256 remaining);\n}\n\n\ncontract StandardToken is ERC20TokenInterface, admined { \n    using SafeMath for uint256;\n    uint256 public totalSupply;\n    mapping (address => uint256) balances; \n    mapping (address => mapping (address => uint256)) allowed; \n    mapping (address => bool) frozen; \n\n    \n    function balanceOf(address _owner) public constant returns (uint256 balance) {\n      return balances[_owner];\n    }\n\n    \n    function transfer(address _to, uint256 _value) transferLock public returns (bool success) {\n        require(_to != address(0)); \n        require(balances[msg.sender] >= _value);\n        require(frozen[msg.sender]==false);\n        balances[msg.sender] = balances[msg.sender].safeSub(_value);\n        balances[_to] = balances[_to].safeAdd(_value);\n        Transfer(msg.sender, _to, _value);\n        return true;\n    }\n\n    \n    function transferFrom(address _from, address _to, uint256 _value) transferLock public returns (bool success) {\n        require(_to != address(0)); \n        require(balances[_from] >= _value && allowed[_from][msg.sender] >= _value);\n        require(frozen[_from]==false);\n        balances[_to] = balances[_to].safeAdd(_value);\n        balances[_from] = balances[_from].safeSub(_value);\n        allowed[_from][msg.sender] = allowed[_from][msg.sender].safeSub(_value);\n        Transfer(_from, _to, _value);\n        return true;\n    }\n\n    \n    function approve(address _spender, uint256 _value) public returns (bool success) {\n      allowed[msg.sender][_spender] = _value;\n        Approval(msg.sender, _spender, _value);\n        return true;\n    }\n\n    \n    function allowance(address _owner, address _spender) public constant returns (uint256 remaining) {\n        return allowed[_owner][_spender];\n    }\n\n    \n    function mintToken(address _target, uint256 _mintedAmount) onlyAdmin supplyLock public {\n        balances[_target] = SafeMath.safeAdd(balances[_target], _mintedAmount);\n        totalSupply = SafeMath.safeAdd(totalSupply, _mintedAmount);\n        Transfer(0, this, _mintedAmount);\n        Transfer(this, _target, _mintedAmount);\n    }\n\n    \n    function burnToken(address _target, uint256 _burnedAmount) onlyAdmin supplyLock public {\n        balances[_target] = SafeMath.safeSub(balances[_target], _burnedAmount);\n        totalSupply = SafeMath.safeSub(totalSupply, _burnedAmount);\n        Burned(_target, _burnedAmount);\n    }\n\n    \n    function setFrozen(address _target,bool _flag) onlyAdmin public {\n        frozen[_target]=_flag;\n        FrozenStatus(_target,_flag);\n    }\n\n    \n    event Transfer(address indexed _from, address indexed _to, uint256 _value);\n    event Approval(address indexed _owner, address indexed _spender, uint256 _value);\n    event Burned(address indexed _target, uint256 _value);\n    event FrozenStatus(address _target,bool _flag);\n}\n\ncontract SMARTRealty is StandardToken{\n    \n    \n    string public name = \"SMARTRealty\";\n    string public symbol = \"RLTY\";\n    uint8 public decimals = 8;\n    string public version = \"1.0.0\";\n\n    uint public constant RATE = 1250; \n    address public owner;\n    \n    \n    uint256 weiRaised;    \n    \n    struct ICOPhase {\n        uint fromTimestamp; \n        uint toTimestamp; \n        uint256 minimum; \n        uint256 fundRaised;\n        uint bonus; \n        uint totalNumberOfTokenPurchase; \n    }\n    \n    mapping(uint => ICOPhase) phases;\n    uint icoPhaseCounter = 0;\n    \n    enum IcoStatus{Pending, Active, Inactive}\n    IcoStatus status;    \n    \n    function SMARTRealty() public payable {\n        \n        owner = msg.sender;\n        \n        totalSupply = 500000000 * (10**uint256(decimals));          \n        \n        \n        balances[owner] = 200000000 * (10**uint256(decimals)); \n        \n        \n        balances[0xF9568bd772C9B517193275b3C2E0CDAd38E586bB] = 50000000 * (10**uint256(decimals)); \n        balances[0x07ADB1D9399Bd1Fa4fD613D3179DFE883755Bb13] = 50000000 * (10**uint256(decimals)); \n        balances[0xd35909DbeEb5255D65b1ea14602C7f00ce3872f6] = 50000000 * (10**uint256(decimals)); \n        balances[0x9D2Fe4D5f1dc4FcA1f0Ea5f461C9fAA5D09b9CCE] = 50000000 * (10**uint256(decimals)); \n        balances[0x8Bb41848B6dD3D98b8849049b780dC3549568c89] = 25000000 * (10**uint256(decimals)); \n        balances[0xC78DF195DE5717FB15FB3448D5C6893E8e7fB254] = 25000000 * (10**uint256(decimals)); \n        balances[0x4690678926BCf9B30985c06806d4568C0C498123] = 25000000 * (10**uint256(decimals)); \n        balances[0x08AF803F0F90ccDBFCe046Bc113822cFf415e148] = 20000000 * (10**uint256(decimals)); \n        balances[0x8661dFb67dE4E5569da9859f5CB4Aa676cd5F480] = 5000000 * (10**uint256(decimals)); \n        \n    }\n    \n    \n    function activateICOStatus() public {\n        status = IcoStatus.Active;\n    }    \n    \n    \n    function setICOPhase(uint _fromTimestamp, uint _toTimestamp, uint256 _min, uint _bonus) onlyAdmin public returns (uint ICOPhaseId) {\n        uint icoPhaseId = icoPhaseCounter++;\n        ICOPhase storage ico = phases[icoPhaseId];\n        ico.fromTimestamp = _fromTimestamp;\n        ico.toTimestamp = _toTimestamp;\n        ico.minimum = _min;\n        ico.bonus = _bonus;\n        \n\n        phases[icoPhaseId] = ico;\n\n        return icoPhaseId;\n    }\n    \n    \n    function getCurrentICOPhaseBonus() public view returns (uint _bonus, uint icoPhaseId) {\n        require(icoPhaseCounter > 0);\n        uint currentTimestamp = block.timestamp; \n\n        for (uint i = 0; i < icoPhaseCounter; i++) {\n            \n            ICOPhase storage ico = phases[i];\n\n            if (currentTimestamp >= ico.fromTimestamp && currentTimestamp <= ico.toTimestamp) {\n                return (ico.bonus, i);\n            }\n        }\n\n    }\n    \n    \n    function getTokenAmount(uint256 weiAmount) internal returns(uint256 token, uint id) {\n        var (bonus, phaseId) = getCurrentICOPhaseBonus();       \n        uint256 numOfTokens = weiAmount.safeMul(RATE);\n        uint256 bonusToken = (bonus / 100) * numOfTokens;\n        \n        uint256 totalToken = numOfTokens.safeAdd(bonusToken);               \n        return (totalToken, phaseId);\n    }    \n    \n    \n    function _buyTokens(address beneficiary) public payable {\n        require(beneficiary != address(0) && beneficiary != owner);\n        \n        uint256 weiAmount = msg.value;\n        \n        \n        var (tokens, phaseId) = getTokenAmount(weiAmount);\n        \n        \n        ICOPhase storage ico = phases[phaseId]; \n        ico.fundRaised = ico.fundRaised.safeAdd(msg.value); \n        phases[phaseId] = ico;\n        \n        \n        weiRaised = weiRaised.safeAdd(weiAmount);\n        \n        _transferToken(beneficiary, tokens);\n        TokenPurchase(msg.sender, beneficiary, weiAmount, tokens);\n        \n        forwardFunds();\n    }\n    \n    function _transferToken(address _to, uint256 _amount) public returns (bool){\n        balances[owner] = balances[owner].safeSub(_amount);\n        balances[_to] = balances[_to].safeAdd(_amount);\n        Transfer(address(0), _to, _amount);\n        return true;        \n    }\n    \n    \n    \n    function forwardFunds() internal {\n        owner.transfer(msg.value);\n    }    \n\n    \n    function () external payable {\n        _buyTokens(msg.sender);\n    } \n    \n    \n    event TokenPurchase(address _sender, address _beneficiary, uint256 weiAmount, uint256 tokens);\n    \n}",
  "sourcePath": "/home/XXX-1/smartrim-experiment/for-rlf/0x35ba0d41cdf5e4cd2542a3ff8ea206398439a230/contracts/0x35ba0d41cdf5e4cd2542a3ff8ea206398439a230.sol",
  "compiler": {
    "name": "solc",
    "version": "0.4.25+commit.59dbf8f1.Emscripten.clang"
  },
  "schemaVersion": "3.4.16",
  "updatedAt": "2025-08-14T03:52:01.775Z",
  "networkType": "ethereum",
  "devdoc": {
    "methods": {}
  },
  "userdoc": {
    "methods": {}
  }
}