{
  "contractName": "SkinMinting",
  "abi": [
    {
      "constant": false,
      "inputs": [
        {
          "name": "skinId",
          "type": "uint256"
        }
      ],
      "name": "withdrawSale",
      "outputs": [],
      "payable": false,
      "stateMutability": "nonpayable",
      "type": "function"
    },
    {
      "constant": true,
      "inputs": [
        {
          "name": "",
          "type": "address"
        }
      ],
      "name": "accountLastClearTime",
      "outputs": [
        {
          "name": "",
          "type": "uint256"
        }
      ],
      "payable": false,
      "stateMutability": "view",
      "type": "function"
    },
    {
      "constant": true,
      "inputs": [],
      "name": "baseSummonPrice",
      "outputs": [
        {
          "name": "",
          "type": "uint256"
        }
      ],
      "payable": false,
      "stateMutability": "view",
      "type": "function"
    },
    {
      "constant": false,
      "inputs": [
        {
          "name": "skinAId",
          "type": "uint256"
        },
        {
          "name": "skinBId",
          "type": "uint256"
        }
      ],
      "name": "getMixingResult",
      "outputs": [],
      "payable": false,
      "stateMutability": "nonpayable",
      "type": "function"
    },
    {
      "constant": true,
      "inputs": [],
      "name": "coo",
      "outputs": [
        {
          "name": "",
          "type": "address"
        }
      ],
      "payable": false,
      "stateMutability": "view",
      "type": "function"
    },
    {
      "constant": true,
      "inputs": [
        {
          "name": "",
          "type": "address"
        }
      ],
      "name": "accountToSummonNum",
      "outputs": [
        {
          "name": "",
          "type": "uint256"
        }
      ],
      "payable": false,
      "stateMutability": "view",
      "type": "function"
    },
    {
      "constant": true,
      "inputs": [
        {
          "name": "",
          "type": "address"
        }
      ],
      "name": "accountToPayLevel",
      "outputs": [
        {
          "name": "",
          "type": "uint256"
        }
      ],
      "payable": false,
      "stateMutability": "view",
      "type": "function"
    },
    {
      "constant": true,
      "inputs": [],
      "name": "cfo",
      "outputs": [
        {
          "name": "",
          "type": "address"
        }
      ],
      "payable": false,
      "stateMutability": "view",
      "type": "function"
    },
    {
      "constant": true,
      "inputs": [],
      "name": "mixFormula",
      "outputs": [
        {
          "name": "",
          "type": "address"
        }
      ],
      "payable": false,
      "stateMutability": "view",
      "type": "function"
    },
    {
      "constant": true,
      "inputs": [
        {
          "name": "",
          "type": "uint256"
        }
      ],
      "name": "skinIdToOwner",
      "outputs": [
        {
          "name": "",
          "type": "address"
        }
      ],
      "payable": false,
      "stateMutability": "view",
      "type": "function"
    },
    {
      "constant": false,
      "inputs": [
        {
          "name": "mixFormulaAddress",
          "type": "address"
        }
      ],
      "name": "setMixFormulaAddress",
      "outputs": [],
      "payable": false,
      "stateMutability": "nonpayable",
      "type": "function"
    },
    {
      "constant": false,
      "inputs": [
        {
          "name": "newCoo",
          "type": "address"
        }
      ],
      "name": "setCOO",
      "outputs": [],
      "payable": false,
      "stateMutability": "nonpayable",
      "type": "function"
    },
    {
      "constant": true,
      "inputs": [],
      "name": "nextSkinId",
      "outputs": [
        {
          "name": "",
          "type": "uint256"
        }
      ],
      "payable": false,
      "stateMutability": "view",
      "type": "function"
    },
    {
      "constant": true,
      "inputs": [],
      "name": "cao",
      "outputs": [
        {
          "name": "",
          "type": "address"
        }
      ],
      "payable": false,
      "stateMutability": "view",
      "type": "function"
    },
    {
      "constant": false,
      "inputs": [
        {
          "name": "skinId",
          "type": "uint256"
        },
        {
          "name": "price",
          "type": "uint256"
        }
      ],
      "name": "putOnSale",
      "outputs": [],
      "payable": false,
      "stateMutability": "nonpayable",
      "type": "function"
    },
    {
      "constant": true,
      "inputs": [],
      "name": "bleachPrice",
      "outputs": [
        {
          "name": "",
          "type": "uint256"
        }
      ],
      "payable": false,
      "stateMutability": "view",
      "type": "function"
    },
    {
      "constant": true,
      "inputs": [
        {
          "name": "",
          "type": "uint256"
        }
      ],
      "name": "payMultiple",
      "outputs": [
        {
          "name": "",
          "type": "uint256"
        }
      ],
      "payable": false,
      "stateMutability": "view",
      "type": "function"
    },
    {
      "constant": false,
      "inputs": [],
      "name": "unpause",
      "outputs": [],
      "payable": false,
      "stateMutability": "nonpayable",
      "type": "function"
    },
    {
      "constant": true,
      "inputs": [],
      "name": "bleachDailyLimit",
      "outputs": [
        {
          "name": "",
          "type": "uint256"
        }
      ],
      "payable": false,
      "stateMutability": "view",
      "type": "function"
    },
    {
      "constant": false,
      "inputs": [
        {
          "name": "newCfo",
          "type": "address"
        }
      ],
      "name": "setCFO",
      "outputs": [],
      "payable": false,
      "stateMutability": "nonpayable",
      "type": "function"
    },
    {
      "constant": true,
      "inputs": [],
      "name": "trCut",
      "outputs": [
        {
          "name": "",
          "type": "uint128"
        }
      ],
      "payable": false,
      "stateMutability": "view",
      "type": "function"
    },
    {
      "constant": false,
      "inputs": [
        {
          "name": "skinAId",
          "type": "uint256"
        },
        {
          "name": "skinBId",
          "type": "uint256"
        }
      ],
      "name": "mixAuto",
      "outputs": [],
      "payable": true,
      "stateMutability": "payable",
      "type": "function"
    },
    {
      "constant": true,
      "inputs": [],
      "name": "paused",
      "outputs": [
        {
          "name": "",
          "type": "bool"
        }
      ],
      "payable": false,
      "stateMutability": "view",
      "type": "function"
    },
    {
      "constant": true,
      "inputs": [
        {
          "name": "",
          "type": "uint256"
        }
      ],
      "name": "desiredPrice",
      "outputs": [
        {
          "name": "",
          "type": "uint256"
        }
      ],
      "payable": false,
      "stateMutability": "view",
      "type": "function"
    },
    {
      "constant": false,
      "inputs": [
        {
          "name": "id",
          "type": "uint256"
        },
        {
          "name": "targetAccount",
          "type": "address"
        }
      ],
      "name": "transferP2P",
      "outputs": [],
      "payable": false,
      "stateMutability": "nonpayable",
      "type": "function"
    },
    {
      "constant": true,
      "inputs": [
        {
          "name": "",
          "type": "uint256"
        }
      ],
      "name": "levelSplits",
      "outputs": [
        {
          "name": "",
          "type": "uint256"
        }
      ],
      "payable": false,
      "stateMutability": "view",
      "type": "function"
    },
    {
      "constant": true,
      "inputs": [
        {
          "name": "",
          "type": "address"
        }
      ],
      "name": "accountToBleachNum",
      "outputs": [
        {
          "name": "",
          "type": "uint256"
        }
      ],
      "payable": false,
      "stateMutability": "view",
      "type": "function"
    },
    {
      "constant": true,
      "inputs": [
        {
          "name": "",
          "type": "address"
        }
      ],
      "name": "numSkinOfAccounts",
      "outputs": [
        {
          "name": "",
          "type": "uint256"
        }
      ],
      "payable": false,
      "stateMutability": "view",
      "type": "function"
    },
    {
      "constant": true,
      "inputs": [],
      "name": "prePaidFee",
      "outputs": [
        {
          "name": "",
          "type": "uint256"
        }
      ],
      "payable": false,
      "stateMutability": "view",
      "type": "function"
    },
    {
      "constant": true,
      "inputs": [],
      "name": "levelClearTime",
      "outputs": [
        {
          "name": "",
          "type": "uint256"
        }
      ],
      "payable": false,
      "stateMutability": "view",
      "type": "function"
    },
    {
      "constant": true,
      "inputs": [
        {
          "name": "",
          "type": "address"
        }
      ],
      "name": "freeBleachNum",
      "outputs": [
        {
          "name": "",
          "type": "uint256"
        }
      ],
      "payable": false,
      "stateMutability": "view",
      "type": "function"
    },
    {
      "constant": false,
      "inputs": [],
      "name": "pause",
      "outputs": [],
      "payable": false,
      "stateMutability": "nonpayable",
      "type": "function"
    },
    {
      "constant": true,
      "inputs": [],
      "name": "skinCreatedLimit",
      "outputs": [
        {
          "name": "",
          "type": "uint256"
        }
      ],
      "payable": false,
      "stateMutability": "view",
      "type": "function"
    },
    {
      "constant": true,
      "inputs": [],
      "name": "ceo",
      "outputs": [
        {
          "name": "",
          "type": "address"
        }
      ],
      "payable": false,
      "stateMutability": "view",
      "type": "function"
    },
    {
      "constant": false,
      "inputs": [
        {
          "name": "newPrePaidFee",
          "type": "uint256"
        }
      ],
      "name": "setPrePaidFee",
      "outputs": [],
      "payable": false,
      "stateMutability": "nonpayable",
      "type": "function"
    },
    {
      "constant": true,
      "inputs": [
        {
          "name": "id",
          "type": "uint256"
        }
      ],
      "name": "getSkin",
      "outputs": [
        {
          "name": "",
          "type": "uint128"
        },
        {
          "name": "",
          "type": "uint64"
        },
        {
          "name": "",
          "type": "uint64"
        }
      ],
      "payable": false,
      "stateMutability": "view",
      "type": "function"
    },
    {
      "constant": true,
      "inputs": [
        {
          "name": "account",
          "type": "address"
        },
        {
          "name": "id",
          "type": "uint256"
        }
      ],
      "name": "skinOfAccountById",
      "outputs": [
        {
          "name": "",
          "type": "uint256"
        }
      ],
      "payable": false,
      "stateMutability": "view",
      "type": "function"
    },
    {
      "constant": false,
      "inputs": [
        {
          "name": "skinAId",
          "type": "uint256"
        },
        {
          "name": "skinBId",
          "type": "uint256"
        }
      ],
      "name": "mix",
      "outputs": [],
      "payable": false,
      "stateMutability": "nonpayable",
      "type": "function"
    },
    {
      "constant": false,
      "inputs": [
        {
          "name": "newCao",
          "type": "address"
        }
      ],
      "name": "setCAO",
      "outputs": [],
      "payable": false,
      "stateMutability": "nonpayable",
      "type": "function"
    },
    {
      "constant": false,
      "inputs": [],
      "name": "changeAllowTransferState",
      "outputs": [],
      "payable": false,
      "stateMutability": "nonpayable",
      "type": "function"
    },
    {
      "constant": false,
      "inputs": [
        {
          "name": "skinId",
          "type": "uint256"
        }
      ],
      "name": "buyInMarket",
      "outputs": [],
      "payable": true,
      "stateMutability": "payable",
      "type": "function"
    },
    {
      "constant": false,
      "inputs": [
        {
          "name": "newCut",
          "type": "uint256"
        }
      ],
      "name": "setTrCut",
      "outputs": [],
      "payable": false,
      "stateMutability": "nonpayable",
      "type": "function"
    },
    {
      "constant": false,
      "inputs": [],
      "name": "withdrawETH",
      "outputs": [],
      "payable": false,
      "stateMutability": "nonpayable",
      "type": "function"
    },
    {
      "constant": true,
      "inputs": [],
      "name": "skinCreatedNum",
      "outputs": [
        {
          "name": "",
          "type": "uint256"
        }
      ],
      "payable": false,
      "stateMutability": "view",
      "type": "function"
    },
    {
      "constant": true,
      "inputs": [
        {
          "name": "",
          "type": "uint256"
        }
      ],
      "name": "isOnSale",
      "outputs": [
        {
          "name": "",
          "type": "bool"
        }
      ],
      "payable": false,
      "stateMutability": "view",
      "type": "function"
    },
    {
      "constant": false,
      "inputs": [
        {
          "name": "newCeo",
          "type": "address"
        }
      ],
      "name": "demiseCEO",
      "outputs": [],
      "payable": false,
      "stateMutability": "nonpayable",
      "type": "function"
    },
    {
      "anonymous": false,
      "inputs": [
        {
          "indexed": false,
          "name": "skinId",
          "type": "uint256"
        },
        {
          "indexed": false,
          "name": "account",
          "type": "address"
        }
      ],
      "name": "CreateNewSkin",
      "type": "event"
    },
    {
      "anonymous": false,
      "inputs": [
        {
          "indexed": false,
          "name": "skinId",
          "type": "uint256"
        },
        {
          "indexed": false,
          "name": "newAppearance",
          "type": "uint128"
        }
      ],
      "name": "Bleach",
      "type": "event"
    },
    {
      "anonymous": false,
      "inputs": [
        {
          "indexed": false,
          "name": "account",
          "type": "address"
        },
        {
          "indexed": false,
          "name": "skinId",
          "type": "uint256"
        }
      ],
      "name": "PutOnSale",
      "type": "event"
    },
    {
      "anonymous": false,
      "inputs": [
        {
          "indexed": false,
          "name": "account",
          "type": "address"
        },
        {
          "indexed": false,
          "name": "skinId",
          "type": "uint256"
        }
      ],
      "name": "WithdrawSale",
      "type": "event"
    },
    {
      "anonymous": false,
      "inputs": [
        {
          "indexed": false,
          "name": "buyer",
          "type": "address"
        },
        {
          "indexed": false,
          "name": "skinId",
          "type": "uint256"
        }
      ],
      "name": "BuyInMarket",
      "type": "event"
    },
    {
      "anonymous": false,
      "inputs": [
        {
          "indexed": false,
          "name": "account",
          "type": "address"
        },
        {
          "indexed": false,
          "name": "skinAId",
          "type": "uint256"
        },
        {
          "indexed": false,
          "name": "skinBId",
          "type": "uint256"
        }
      ],
      "name": "MixStart",
      "type": "event"
    },
    {
      "anonymous": false,
      "inputs": [
        {
          "indexed": false,
          "name": "account",
          "type": "address"
        },
        {
          "indexed": false,
          "name": "skinAId",
          "type": "uint256"
        },
        {
          "indexed": false,
          "name": "skinBId",
          "type": "uint256"
        },
        {
          "indexed": false,
          "name": "cooldownEndTime",
          "type": "uint64"
        }
      ],
      "name": "AutoMix",
      "type": "event"
    },
    {
      "anonymous": false,
      "inputs": [
        {
          "indexed": false,
          "name": "account",
          "type": "address"
        },
        {
          "indexed": false,
          "name": "skinId",
          "type": "uint256"
        },
        {
          "indexed": false,
          "name": "skinAId",
          "type": "uint256"
        },
        {
          "indexed": false,
          "name": "skinBId",
          "type": "uint256"
        }
      ],
      "name": "MixSuccess",
      "type": "event"
    },
    {
      "anonymous": false,
      "inputs": [
        {
          "indexed": false,
          "name": "from",
          "type": "address"
        },
        {
          "indexed": false,
          "name": "to",
          "type": "address"
        },
        {
          "indexed": false,
          "name": "skinId",
          "type": "uint256"
        }
      ],
      "name": "SkinTransfer",
      "type": "event"
    },
    {
      "anonymous": false,
      "inputs": [
        {
          "indexed": true,
          "name": "previousCeo",
          "type": "address"
        },
        {
          "indexed": true,
          "name": "newCeo",
          "type": "address"
        }
      ],
      "name": "OwnershipTransferred",
      "type": "event"
    },
    {
      "anonymous": false,
      "inputs": [],
      "name": "Pause",
      "type": "event"
    },
    {
      "anonymous": false,
      "inputs": [],
      "name": "Unpause",
      "type": "event"
    },
    {
      "constant": false,
      "inputs": [
        {
          "name": "newPrice",
          "type": "uint256"
        }
      ],
      "name": "setBaseSummonPrice",
      "outputs": [],
      "payable": false,
      "stateMutability": "nonpayable",
      "type": "function"
    },
    {
      "constant": false,
      "inputs": [
        {
          "name": "newPrice",
          "type": "uint256"
        }
      ],
      "name": "setBleachPrice",
      "outputs": [],
      "payable": false,
      "stateMutability": "nonpayable",
      "type": "function"
    },
    {
      "constant": false,
      "inputs": [
        {
          "name": "limit",
          "type": "uint256"
        }
      ],
      "name": "setBleachDailyLimit",
      "outputs": [],
      "payable": false,
      "stateMutability": "nonpayable",
      "type": "function"
    },
    {
      "constant": false,
      "inputs": [
        {
          "name": "newBleachAllowed",
          "type": "bool"
        }
      ],
      "name": "switchBleachAllowed",
      "outputs": [],
      "payable": false,
      "stateMutability": "nonpayable",
      "type": "function"
    },
    {
      "constant": false,
      "inputs": [
        {
          "name": "specifiedAppearance",
          "type": "uint128"
        },
        {
          "name": "salePrice",
          "type": "uint256"
        }
      ],
      "name": "createSkin",
      "outputs": [],
      "payable": false,
      "stateMutability": "nonpayable",
      "type": "function"
    },
    {
      "constant": false,
      "inputs": [
        {
          "name": "specifiedAppearance",
          "type": "uint128"
        },
        {
          "name": "donee",
          "type": "address"
        }
      ],
      "name": "donateSkin",
      "outputs": [],
      "payable": false,
      "stateMutability": "nonpayable",
      "type": "function"
    },
    {
      "constant": false,
      "inputs": [
        {
          "name": "legacyAppearance",
          "type": "uint128[]"
        },
        {
          "name": "legacyOwner",
          "type": "address[]"
        },
        {
          "name": "legacyIsOnSale",
          "type": "bool[]"
        },
        {
          "name": "legacyDesiredPrice",
          "type": "uint256[]"
        }
      ],
      "name": "moveData",
      "outputs": [],
      "payable": false,
      "stateMutability": "nonpayable",
      "type": "function"
    },
    {
      "constant": false,
      "inputs": [],
      "name": "summon",
      "outputs": [],
      "payable": true,
      "stateMutability": "payable",
      "type": "function"
    },
    {
      "constant": false,
      "inputs": [],
      "name": "summon10",
      "outputs": [],
      "payable": true,
      "stateMutability": "payable",
      "type": "function"
    },
    {
      "constant": false,
      "inputs": [
        {
          "name": "wasteSkins",
          "type": "uint256[5]"
        },
        {
          "name": "preferIndex",
          "type": "uint256"
        }
      ],
      "name": "recycleSkin",
      "outputs": [],
      "payable": false,
      "stateMutability": "nonpayable",
      "type": "function"
    },
    {
      "constant": false,
      "inputs": [
        {
          "name": "skinId",
          "type": "uint128"
        },
        {
          "name": "attributes",
          "type": "uint128"
        }
      ],
      "name": "bleach",
      "outputs": [],
      "payable": true,
      "stateMutability": "payable",
      "type": "function"
    },
    {
      "constant": false,
      "inputs": [],
      "name": "clearSummonNum",
      "outputs": [],
      "payable": false,
      "stateMutability": "nonpayable",
      "type": "function"
    }
  ],
  "bytecode": "0x60806040526000600360146101000a81548160ff0219169083151502179055506000600360156101000a81548160ff02191690831515021790555060016007556602aa1efb94e000600a55610190600b60006101000a8154816fffffffffffffffffffffffffffffffff02191690836fffffffffffffffffffffffffffffffff16021790555061c350600d556001601460006101000a81548160ff02191690831515021790555042601555600360165566038d7ea4c68000601755670429d069189e000060185560a060405190810160405280600a60ff168152602001601460ff168152602001603260ff168152602001606460ff16815260200160c860ff16815250601990600562000114929190620002b3565b5060c060405190810160405280600a60ff168152602001600c60ff168152602001600f60ff168152602001601460ff168152602001601e60ff168152602001602860ff16815250601e9060066200016d929190620002fd565b5033600260006101000a81548173ffffffffffffffffffffffffffffffffffffffff021916908373ffffffffffffffffffffffffffffffffffffffff16021790555073447870c2f334fcda68e644ae53db3471a9f7302d600160006101000a81548173ffffffffffffffffffffffffffffffffffffffff021916908373ffffffffffffffffffffffffffffffffffffffff160217905550736ec9c6fce15db982521ea2087474291fa5ad6d316000806101000a81548173ffffffffffffffffffffffffffffffffffffffff021916908373ffffffffffffffffffffffffffffffffffffffff16021790555073391ef2cb0c81a2c47d659c3e3e6675f550e4b183600360006101000a81548173ffffffffffffffffffffffffffffffffffffffff021916908373ffffffffffffffffffffffffffffffffffffffff1602179055506200036f565b8260058101928215620002ea579160200282015b82811115620002e9578251829060ff16905591602001919060010190620002c7565b5b509050620002f9919062000347565b5090565b826006810192821562000334579160200282015b8281111562000333578251829060ff1690559160200191906001019062000311565b5b50905062000343919062000347565b5090565b6200036c91905b80821115620003685760008160009055506001016200034e565b5090565b90565b615b98806200037f6000396000f3006080604052600436106102b4576000357c0100000000000000000000000000000000000000000000000000000000900463ffffffff16806302ce8ac9146102b957806302cff44f146102e657806304f7a69d1461033d57806305d258dd1461036857806307cdee491461039f5780630a26e4e4146103f65780630dc6787b1461044d578063148222cf146104a457806314ca6e01146105035780631ed20347146105305780632038e80a146105875780632104fa0b146105de578063287efb571461064b5780632ba73c151461068e5780632c9ea1b7146106d15780632f94afba146106fc578063363dd19e1461075357806336f7992b1461075d5780633a21ec8d146107945780633ef5f368146107bf5780633f4ba83a1461080057806348642e21146108175780634e0a33791461084257806356f91399146108855780635b548ab4146108d45780635c975abb146108fe578063675a690c1461092d5780636885edcd1461095a5780636b7285d71461099b5780636c779d57146109e8578063728d0efc14610a29578063733efe1614610a8057806373acbcb214610ad75780637b04b1f814610b065780637b6e760314610b31578063825b804f14610b5c5780638456cb5914610bb357806387934ec814610bca578063908921fc14610bf5578063959b3fa014610c4c57806397b3116e14610c9557806398e4f58114610cc2578063a02a34cd14610d5d578063ab5706ee14610dbe578063b3b51aa314610deb578063b4bb58fb14610e22578063bca3eb2414610e59578063c04c68eb14610e9c578063d46aa61014610eb3578063dba9a8a214610ed3578063dd50e9d414610f00578063e086e5ec14610f17578063e70990d714610f2e578063ede02b7114610f38578063efce828e14610f86578063f0c8785214610fb1578063f0f2805f14611034578063fde1773314611079575b600080fd5b3480156102c557600080fd5b506102e4600480360381019080803590602001909291905050506110bc565b005b3480156102f257600080fd5b50610327600480360381019080803573ffffffffffffffffffffffffffffffffffffffff16906020019092919050505061122b565b6040518082815260200191505060405180910390f35b34801561034957600080fd5b50610352611243565b6040518082815260200191505060405180910390f35b34801561037457600080fd5b5061039d6004803603810190808035906020019092919080359060200190929190505050611249565b005b3480156103ab57600080fd5b506103b4611851565b604051808273ffffffffffffffffffffffffffffffffffffffff1673ffffffffffffffffffffffffffffffffffffffff16815260200191505060405180910390f35b34801561040257600080fd5b50610437600480360381019080803573ffffffffffffffffffffffffffffffffffffffff169060200190929190505050611877565b6040518082815260200191505060405180910390f35b34801561045957600080fd5b5061048e600480360381019080803573ffffffffffffffffffffffffffffffffffffffff16906020019092919050505061188f565b6040518082815260200191505060405180910390f35b3480156104b057600080fd5b5061050160048036038101908080356fffffffffffffffffffffffffffffffff169060200190929190803573ffffffffffffffffffffffffffffffffffffffff1690602001909291905050506118a7565b005b34801561050f57600080fd5b5061052e60048036038101908080359060200190929190505050611b87565b005b34801561053c57600080fd5b50610545611bed565b604051808273ffffffffffffffffffffffffffffffffffffffff1673ffffffffffffffffffffffffffffffffffffffff16815260200191505060405180910390f35b34801561059357600080fd5b5061059c611c13565b604051808273ffffffffffffffffffffffffffffffffffffffff1673ffffffffffffffffffffffffffffffffffffffff16815260200191505060405180910390f35b3480156105ea57600080fd5b5061060960048036038101908080359060200190929190505050611c39565b604051808273ffffffffffffffffffffffffffffffffffffffff1673ffffffffffffffffffffffffffffffffffffffff16815260200191505060405180910390f35b34801561065757600080fd5b5061068c600480360381019080803573ffffffffffffffffffffffffffffffffffffffff169060200190929190505050611c6c565b005b34801561069a57600080fd5b506106cf600480360381019080803573ffffffffffffffffffffffffffffffffffffffff169060200190929190505050611d0c565b005b3480156106dd57600080fd5b506106e6611de7565b6040518082815260200191505060405180910390f35b34801561070857600080fd5b50610711611ded565b604051808273ffffffffffffffffffffffffffffffffffffffff1673ffffffffffffffffffffffffffffffffffffffff16815260200191505060405180910390f35b61075b611e13565b005b34801561076957600080fd5b506107926004803603810190808035906020019092919080359060200190929190505050612473565b005b3480156107a057600080fd5b506107a9612634565b6040518082815260200191505060405180910390f35b3480156107cb57600080fd5b506107ea6004803603810190808035906020019092919050505061263a565b6040518082815260200191505060405180910390f35b34801561080c57600080fd5b50610815612654565b005b34801561082357600080fd5b5061082c612714565b6040518082815260200191505060405180910390f35b34801561084e57600080fd5b50610883600480360381019080803573ffffffffffffffffffffffffffffffffffffffff16906020019092919050505061271a565b005b34801561089157600080fd5b5061089a6127f5565b60405180826fffffffffffffffffffffffffffffffff166fffffffffffffffffffffffffffffffff16815260200191505060405180910390f35b6108fc6004803603810190808035906020019092919080359060200190929190505050612817565b005b34801561090a57600080fd5b50610913612911565b604051808215151515815260200191505060405180910390f35b34801561093957600080fd5b5061095860048036038101908080359060200190929190505050612924565b005b34801561096657600080fd5b506109856004803603810190808035906020019092919050505061298a565b6040518082815260200191505060405180910390f35b3480156109a757600080fd5b506109e660048036038101908080359060200190929190803573ffffffffffffffffffffffffffffffffffffffff1690602001909291905050506129a2565b005b3480156109f457600080fd5b50610a1360048036038101908080359060200190929190505050612bf6565b6040518082815260200191505060405180910390f35b348015610a3557600080fd5b50610a6a600480360381019080803573ffffffffffffffffffffffffffffffffffffffff169060200190929190505050612c10565b6040518082815260200191505060405180910390f35b348015610a8c57600080fd5b50610ac1600480360381019080803573ffffffffffffffffffffffffffffffffffffffff169060200190929190505050612c28565b6040518082815260200191505060405180910390f35b348015610ae357600080fd5b50610b04600480360381019080803515159060200190929190505050612c40565b005b348015610b1257600080fd5b50610b1b612cb9565b6040518082815260200191505060405180910390f35b348015610b3d57600080fd5b50610b46612cbf565b6040518082815260200191505060405180910390f35b348015610b6857600080fd5b50610b9d600480360381019080803573ffffffffffffffffffffffffffffffffffffffff169060200190929190505050612cc5565b6040518082815260200191505060405180910390f35b348015610bbf57600080fd5b50610bc8612cdd565b005b348015610bd657600080fd5b50610bdf612d9e565b6040518082815260200191505060405180910390f35b348015610c0157600080fd5b50610c0a612da4565b604051808273ffffffffffffffffffffffffffffffffffffffff1673ffffffffffffffffffffffffffffffffffffffff16815260200191505060405180910390f35b348015610c5857600080fd5b50610c9360048036038101908080356fffffffffffffffffffffffffffffffff16906020019092919080359060200190929190505050612dc9565b005b348015610ca157600080fd5b50610cc060048036038101908080359060200190929190505050613111565b005b348015610cce57600080fd5b50610ced60048036038101908080359060200190929190505050613177565b60405180846fffffffffffffffffffffffffffffffff166fffffffffffffffffffffffffffffffff1681526020018367ffffffffffffffff1667ffffffffffffffff1681526020018267ffffffffffffffff1667ffffffffffffffff168152602001935050505060405180910390f35b348015610d6957600080fd5b50610da8600480360381019080803573ffffffffffffffffffffffffffffffffffffffff16906020019092919080359060200190929190505050613212565b6040518082815260200191505060405180910390f35b348015610dca57600080fd5b50610de960048036038101908080359060200190929190505050613325565b005b348015610df757600080fd5b50610e206004803603810190808060a0019091929192908035906020019092919050505061338b565b005b348015610e2e57600080fd5b50610e5760048036038101908080359060200190929190803590602001909291905050506138a7565b005b348015610e6557600080fd5b50610e9a600480360381019080803573ffffffffffffffffffffffffffffffffffffffff169060200190929190505050613a23565b005b348015610ea857600080fd5b50610eb1613afe565b005b610ed160048036038101908080359060200190929190505050613bad565b005b348015610edf57600080fd5b50610efe60048036038101908080359060200190929190505050613e8f565b005b348015610f0c57600080fd5b50610f15613f27565b005b348015610f2357600080fd5b50610f2c613fa2565b005b610f36614080565b005b610f8460048036038101908080356fffffffffffffffffffffffffffffffff16906020019092919080356fffffffffffffffffffffffffffffffff1690602001909291905050506149cc565b005b348015610f9257600080fd5b50610f9b615039565b6040518082815260200191505060405180910390f35b348015610fbd57600080fd5b5061103260048036038101908080359060200190820180359060200191909192939192939080359060200190820180359060200191909192939192939080359060200190820180359060200191909192939192939080359060200190820180359060200191909192939192939050505061503f565b005b34801561104057600080fd5b5061105f6004803603810190808035906020019092919050505061564d565b604051808215151515815260200191505060405180910390f35b34801561108557600080fd5b506110ba600480360381019080803573ffffffffffffffffffffffffffffffffffffffff16906020019092919050505061566d565b005b600360159054906101000a900460ff161515156110d857600080fd5b600115156006600083815260200190815260200160002060009054906101000a900460ff16151514151561110b57600080fd5b3373ffffffffffffffffffffffffffffffffffffffff166005600083815260200190815260200160002060009054906101000a900473ffffffffffffffffffffffffffffffffffffffff1673ffffffffffffffffffffffffffffffffffffffff1614151561117857600080fd5b60006006600083815260200190815260200160002060006101000a81548160ff0219169083151502179055506000600c6000838152602001908152602001600020819055507f0d0e55f4e2a77f6d27f3ecdbe59fb9f5b4f4de61c10b3243e99905d4763baab63382604051808373ffffffffffffffffffffffffffffffffffffffff1673ffffffffffffffffffffffffffffffffffffffff1681526020018281526020019250505060405180910390a150565b60126020528060005260406000206000915090505481565b60175481565b600080600080611257615b01565b600360159054906101000a900460ff1615151561127357600080fd5b6005600088815260200190815260200160002060009054906101000a900473ffffffffffffffffffffffffffffffffffffffff1694506005600087815260200190815260200160002060009054906101000a900473ffffffffffffffffffffffffffffffffffffffff1673ffffffffffffffffffffffffffffffffffffffff168573ffffffffffffffffffffffffffffffffffffffff1614151561131657600080fd5b6004600088815260200190815260200160002093506004600087815260200190815260200160002092508567ffffffffffffffff168460000160189054906101000a900467ffffffffffffffff1667ffffffffffffffff1614151561137a57600080fd5b8667ffffffffffffffff168360000160189054906101000a900467ffffffffffffffff1667ffffffffffffffff161415156113b457600080fd5b6113be87876157c2565b15156113c957600080fd5b600960009054906101000a900473ffffffffffffffffffffffffffffffffffffffff1673ffffffffffffffffffffffffffffffffffffffff1663a1c1519a8560000160009054906101000a90046fffffffffffffffffffffffffffffffff168560000160009054906101000a90046fffffffffffffffffffffffffffffffff166040518363ffffffff167c010000000000000000000000000000000000000000000000000000000002815260040180836fffffffffffffffffffffffffffffffff166fffffffffffffffffffffffffffffffff168152602001826fffffffffffffffffffffffffffffffff166fffffffffffffffffffffffffffffffff16815260200192505050602060405180830381600087803b1580156114ea57600080fd5b505af11580156114fe573d6000803e3d6000fd5b505050506040513d602081101561151457600080fd5b81019080805190602001909291905050509150606060405190810160405280836fffffffffffffffffffffffffffffffff1681526020014267ffffffffffffffff168152602001600067ffffffffffffffff1681525090508060046000600754815260200190815260200160002060008201518160000160006101000a8154816fffffffffffffffffffffffffffffffff02191690836fffffffffffffffffffffffffffffffff16021790555060208201518160000160106101000a81548167ffffffffffffffff021916908367ffffffffffffffff16021790555060408201518160000160186101000a81548167ffffffffffffffff021916908367ffffffffffffffff1602179055509050508460056000600754815260200190815260200160002060006101000a81548173ffffffffffffffffffffffffffffffffffffffff021916908373ffffffffffffffffffffffffffffffffffffffff160217905550600060066000600754815260200190815260200160002060006101000a81548160ff02191690831515021790555060076000815480929190600101919050555060008460000160186101000a81548167ffffffffffffffff021916908367ffffffffffffffff16021790555060008360000160186101000a81548167ffffffffffffffff021916908367ffffffffffffffff1602179055506005600088815260200190815260200160002060006101000a81549073ffffffffffffffffffffffffffffffffffffffff02191690556005600087815260200190815260200160002060006101000a81549073ffffffffffffffffffffffffffffffffffffffff02191690556001600860008773ffffffffffffffffffffffffffffffffffffffff1673ffffffffffffffffffffffffffffffffffffffff168152602001908152602001600020600082825403925050819055507fac81ba101131fd51da2d33fa7ef506549a1f53c29fad06382d86b257fc5888d9856001600754038989604051808573ffffffffffffffffffffffffffffffffffffffff1673ffffffffffffffffffffffffffffffffffffffff16815260200184815260200183815260200182815260200194505050505060405180910390a150505050505050565b600260009054906101000a900473ffffffffffffffffffffffffffffffffffffffff1681565b600f6020528060005260406000206000915090505481565b60116020528060005260406000206000915090505481565b6118af615b01565b600360159054906101000a900460ff161515156118cb57600080fd5b600260009054906101000a900473ffffffffffffffffffffffffffffffffffffffff1673ffffffffffffffffffffffffffffffffffffffff163373ffffffffffffffffffffffffffffffffffffffff1614151561192757600080fd5b606060405190810160405280846fffffffffffffffffffffffffffffffff1681526020014267ffffffffffffffff168152602001600067ffffffffffffffff1681525090508060046000600754815260200190815260200160002060008201518160000160006101000a8154816fffffffffffffffffffffffffffffffff02191690836fffffffffffffffffffffffffffffffff16021790555060208201518160000160106101000a81548167ffffffffffffffff021916908367ffffffffffffffff16021790555060408201518160000160186101000a81548167ffffffffffffffff021916908367ffffffffffffffff1602179055509050508160056000600754815260200190815260200160002060006101000a81548173ffffffffffffffffffffffffffffffffffffffff021916908373ffffffffffffffffffffffffffffffffffffffff160217905550600060066000600754815260200190815260200160002060006101000a81548160ff0219169083151502179055507fe02fda003a77c2554ac72a53bbeacf3440a1e22212fd46e961fc2b123294dd4e60075483604051808381526020018273ffffffffffffffffffffffffffffffffffffffff1673ffffffffffffffffffffffffffffffffffffffff1681526020019250505060405180910390a16007600081548092919060010191905055506001600860008473ffffffffffffffffffffffffffffffffffffffff1673ffffffffffffffffffffffffffffffffffffffff168152602001908152602001600020600082825401925050819055506001600e60008282540192505081905550505050565b600260009054906101000a900473ffffffffffffffffffffffffffffffffffffffff1673ffffffffffffffffffffffffffffffffffffffff163373ffffffffffffffffffffffffffffffffffffffff16141515611be357600080fd5b8060188190555050565b600160009054906101000a900473ffffffffffffffffffffffffffffffffffffffff1681565b600960009054906101000a900473ffffffffffffffffffffffffffffffffffffffff1681565b60056020528060005260406000206000915054906101000a900473ffffffffffffffffffffffffffffffffffffffff1681565b600260009054906101000a900473ffffffffffffffffffffffffffffffffffffffff1673ffffffffffffffffffffffffffffffffffffffff163373ffffffffffffffffffffffffffffffffffffffff16141515611cc857600080fd5b80600960006101000a81548173ffffffffffffffffffffffffffffffffffffffff021916908373ffffffffffffffffffffffffffffffffffffffff16021790555050565b6000809054906101000a900473ffffffffffffffffffffffffffffffffffffffff1673ffffffffffffffffffffffffffffffffffffffff163373ffffffffffffffffffffffffffffffffffffffff16141515611d6757600080fd5b600073ffffffffffffffffffffffffffffffffffffffff168173ffffffffffffffffffffffffffffffffffffffff1614151515611da357600080fd5b80600260006101000a81548173ffffffffffffffffffffffffffffffffffffffff021916908373ffffffffffffffffffffffffffffffffffffffff16021790555050565b60075481565b600360009054906101000a900473ffffffffffffffffffffffffffffffffffffffff1681565b6000806000611e20615b01565b600360159054906101000a900460ff16151515611e3c57600080fd5b6000601260003373ffffffffffffffffffffffffffffffffffffffff1673ffffffffffffffffffffffffffffffffffffffff168152602001908152602001600020541415611ecd5742601260003373ffffffffffffffffffffffffffffffffffffffff1673ffffffffffffffffffffffffffffffffffffffff16815260200190815260200160002081905550611ff3565b601554601260003373ffffffffffffffffffffffffffffffffffffffff1673ffffffffffffffffffffffffffffffffffffffff16815260200190815260200160002054108015611f1e575060155442115b15611ff2576000600f60003373ffffffffffffffffffffffffffffffffffffffff1673ffffffffffffffffffffffffffffffffffffffff168152602001908152602001600020819055506000601160003373ffffffffffffffffffffffffffffffffffffffff1673ffffffffffffffffffffffffffffffffffffffff1681526020019081526020016000208190555042601260003373ffffffffffffffffffffffffffffffffffffffff1673ffffffffffffffffffffffffffffffffffffffff168152602001908152602001600020819055505b5b601160003373ffffffffffffffffffffffffffffffffffffffff1673ffffffffffffffffffffffffffffffffffffffff168152602001908152602001600020549350601754601e8560068110151561204757fe5b015402925082341015151561205b57600080fd5b600960009054906101000a900473ffffffffffffffffffffffffffffffffffffffff1673ffffffffffffffffffffffffffffffffffffffff16633d24081c6007546040518263ffffffff167c010000000000000000000000000000000000000000000000000000000002815260040180828152602001915050602060405180830381600087803b1580156120ee57600080fd5b505af1158015612102573d6000803e3d6000fd5b505050506040513d602081101561211857600080fd5b81019080805190602001909291905050509150606060405190810160405280836fffffffffffffffffffffffffffffffff1681526020014267ffffffffffffffff168152602001600067ffffffffffffffff1681525090508060046000600754815260200190815260200160002060008201518160000160006101000a8154816fffffffffffffffffffffffffffffffff02191690836fffffffffffffffffffffffffffffffff16021790555060208201518160000160106101000a81548167ffffffffffffffff021916908367ffffffffffffffff16021790555060408201518160000160186101000a81548167ffffffffffffffff021916908367ffffffffffffffff1602179055509050503360056000600754815260200190815260200160002060006101000a81548173ffffffffffffffffffffffffffffffffffffffff021916908373ffffffffffffffffffffffffffffffffffffffff160217905550600060066000600754815260200190815260200160002060006101000a81548160ff0219169083151502179055507fe02fda003a77c2554ac72a53bbeacf3440a1e22212fd46e961fc2b123294dd4e60075433604051808381526020018273ffffffffffffffffffffffffffffffffffffffff1673ffffffffffffffffffffffffffffffffffffffff1681526020019250505060405180910390a16007600081548092919060010191905055506001600860003373ffffffffffffffffffffffffffffffffffffffff1673ffffffffffffffffffffffffffffffffffffffff168152602001908152602001600020600082825401925050819055506001600f60003373ffffffffffffffffffffffffffffffffffffffff1673ffffffffffffffffffffffffffffffffffffffff16815260200190815260200160002060008282540192505081905550600584101561246d576019846005811015156123db57fe5b0154600f60003373ffffffffffffffffffffffffffffffffffffffff1673ffffffffffffffffffffffffffffffffffffffff1681526020019081526020016000205410151561246c5760018401601160003373ffffffffffffffffffffffffffffffffffffffff1673ffffffffffffffffffffffffffffffffffffffff168152602001908152602001600020819055505b5b50505050565b600360159054906101000a900460ff1615151561248f57600080fd5b3373ffffffffffffffffffffffffffffffffffffffff166005600084815260200190815260200160002060009054906101000a900473ffffffffffffffffffffffffffffffffffffffff1673ffffffffffffffffffffffffffffffffffffffff161415156124fc57600080fd5b60006004600084815260200190815260200160002060000160189054906101000a900467ffffffffffffffff1667ffffffffffffffff1614151561253f57600080fd5b600015156006600084815260200190815260200160002060009054906101000a900460ff16151514151561257257600080fd5b60008111151561258157600080fd5b80600c60008481526020019081526020016000208190555060016006600084815260200190815260200160002060006101000a81548160ff0219169083151502179055507f490fad3155d80ff0da3b5e2676a2b0121544ec602724a25f5f41157862ad582a3383604051808373ffffffffffffffffffffffffffffffffffffffff1673ffffffffffffffffffffffffffffffffffffffff1681526020018281526020019250505060405180910390a15050565b60185481565b601e8160068110151561264957fe5b016000915090505481565b600360009054906101000a900473ffffffffffffffffffffffffffffffffffffffff1673ffffffffffffffffffffffffffffffffffffffff163373ffffffffffffffffffffffffffffffffffffffff161415156126b057600080fd5b600360159054906101000a900460ff1615156126cb57600080fd5b6000600360156101000a81548160ff0219169083151502179055507f7805862f689e2f13df9f062ff482ad3ad112aca9e0847911ed832e158c525b3360405160405180910390a1565b60165481565b6000809054906101000a900473ffffffffffffffffffffffffffffffffffffffff1673ffffffffffffffffffffffffffffffffffffffff163373ffffffffffffffffffffffffffffffffffffffff1614151561277557600080fd5b600073ffffffffffffffffffffffffffffffffffffffff168173ffffffffffffffffffffffffffffffffffffffff16141515156127b157600080fd5b80600160006101000a81548173ffffffffffffffffffffffffffffffffffffffff021916908373ffffffffffffffffffffffffffffffffffffffff16021790555050565b600b60009054906101000a90046fffffffffffffffffffffffffffffffff1681565b6000600360159054906101000a900460ff1615151561283557600080fd5b600a54341015151561284657600080fd5b61285083836138a7565b6004600084815260200190815260200160002090507fa0b8773c576b204aa8e6df0ff342f9b00297636e99dce8a2103e8d966e767f843384848460000160109054906101000a900467ffffffffffffffff16604051808573ffffffffffffffffffffffffffffffffffffffff1673ffffffffffffffffffffffffffffffffffffffff1681526020018481526020018381526020018267ffffffffffffffff1667ffffffffffffffff16815260200194505050505060405180910390a1505050565b600360159054906101000a900460ff1681565b600260009054906101000a900473ffffffffffffffffffffffffffffffffffffffff1673ffffffffffffffffffffffffffffffffffffffff163373ffffffffffffffffffffffffffffffffffffffff1614151561298057600080fd5b8060168190555050565b600c6020528060005260406000206000915090505481565b600360149054906101000a900460ff1615156129bd57600080fd5b3373ffffffffffffffffffffffffffffffffffffffff166005600084815260200190815260200160002060009054906101000a900473ffffffffffffffffffffffffffffffffffffffff1673ffffffffffffffffffffffffffffffffffffffff16141515612a2a57600080fd5b8073ffffffffffffffffffffffffffffffffffffffff163373ffffffffffffffffffffffffffffffffffffffff1614151515612a6557600080fd5b806005600084815260200190815260200160002060006101000a81548173ffffffffffffffffffffffffffffffffffffffff021916908373ffffffffffffffffffffffffffffffffffffffff1602179055506001600860003373ffffffffffffffffffffffffffffffffffffffff1673ffffffffffffffffffffffffffffffffffffffff168152602001908152602001600020600082825403925050819055506001600860008373ffffffffffffffffffffffffffffffffffffffff1673ffffffffffffffffffffffffffffffffffffffff168152602001908152602001600020600082825401925050819055507f048f413bfac7a55d25aa29caae5ec687a94f84ac947403796b5fe6c6446acf56338284604051808473ffffffffffffffffffffffffffffffffffffffff1673ffffffffffffffffffffffffffffffffffffffff1681526020018373ffffffffffffffffffffffffffffffffffffffff1673ffffffffffffffffffffffffffffffffffffffff168152602001828152602001935050505060405180910390a15050565b601981600581101515612c0557fe5b016000915090505481565b60106020528060005260406000206000915090505481565b60086020528060005260406000206000915090505481565b600260009054906101000a900473ffffffffffffffffffffffffffffffffffffffff1673ffffffffffffffffffffffffffffffffffffffff163373ffffffffffffffffffffffffffffffffffffffff16141515612c9c57600080fd5b80601460006101000a81548160ff02191690831515021790555050565b600a5481565b60155481565b60136020528060005260406000206000915090505481565b600360009054906101000a900473ffffffffffffffffffffffffffffffffffffffff1673ffffffffffffffffffffffffffffffffffffffff163373ffffffffffffffffffffffffffffffffffffffff16141515612d3957600080fd5b600360159054906101000a900460ff16151515612d5557600080fd5b6001600360156101000a81548160ff0219169083151502179055507f6985a02210a168e66602d3235cb6db0e70f92b3ba4d376a33c0f3d9434bff62560405160405180910390a1565b600d5481565b6000809054906101000a900473ffffffffffffffffffffffffffffffffffffffff1681565b612dd1615b01565b600260009054906101000a900473ffffffffffffffffffffffffffffffffffffffff1673ffffffffffffffffffffffffffffffffffffffff163373ffffffffffffffffffffffffffffffffffffffff16141515612e2d57600080fd5b600d54600e54101515612e3f57600080fd5b606060405190810160405280846fffffffffffffffffffffffffffffffff1681526020014267ffffffffffffffff168152602001600067ffffffffffffffff1681525090508060046000600754815260200190815260200160002060008201518160000160006101000a8154816fffffffffffffffffffffffffffffffff02191690836fffffffffffffffffffffffffffffffff16021790555060208201518160000160106101000a81548167ffffffffffffffff021916908367ffffffffffffffff16021790555060408201518160000160186101000a81548167ffffffffffffffff021916908367ffffffffffffffff160217905550905050600260009054906101000a900473ffffffffffffffffffffffffffffffffffffffff1660056000600754815260200190815260200160002060006101000a81548173ffffffffffffffffffffffffffffffffffffffff021916908373ffffffffffffffffffffffffffffffffffffffff160217905550600060066000600754815260200190815260200160002060006101000a81548160ff0219169083151502179055507fe02fda003a77c2554ac72a53bbeacf3440a1e22212fd46e961fc2b123294dd4e600754600260009054906101000a900473ffffffffffffffffffffffffffffffffffffffff16604051808381526020018273ffffffffffffffffffffffffffffffffffffffff1673ffffffffffffffffffffffffffffffffffffffff1681526020019250505060405180910390a161307960075483612473565b600760008154809291906001019190505550600160086000600260009054906101000a900473ffffffffffffffffffffffffffffffffffffffff1673ffffffffffffffffffffffffffffffffffffffff1673ffffffffffffffffffffffffffffffffffffffff168152602001908152602001600020600082825401925050819055506001600e60008282540192505081905550505050565b600260009054906101000a900473ffffffffffffffffffffffffffffffffffffffff1673ffffffffffffffffffffffffffffffffffffffff163373ffffffffffffffffffffffffffffffffffffffff1614151561316d57600080fd5b80600a8190555050565b60008060008060008511151561318c57600080fd5b6007548510151561319c57600080fd5b6004600086815260200190815260200160002090508060000160009054906101000a90046fffffffffffffffffffffffffffffffff168160000160109054906101000a900467ffffffffffffffff168260000160189054906101000a900467ffffffffffffffff16935093509350509193909250565b60008060008060009250600860008773ffffffffffffffffffffffffffffffffffffffff1673ffffffffffffffffffffffffffffffffffffffff16815260200190815260200160002054915060008211151561326d57600080fd5b818510151561327b57600080fd5b600190505b600754811015613317578573ffffffffffffffffffffffffffffffffffffffff166005600083815260200190815260200160002060009054906101000a900473ffffffffffffffffffffffffffffffffffffffff1673ffffffffffffffffffffffffffffffffffffffff16141561330a57848314156133015780935061331c565b82806001019350505b8080600101915050613280565b600080fd5b50505092915050565b600260009054906101000a900473ffffffffffffffffffffffffffffffffffffffff1673ffffffffffffffffffffffffffffffffffffffff163373ffffffffffffffffffffffffffffffffffffffff1614151561338157600080fd5b8060178190555050565b6000613395615b49565b600061339f615b01565b600360159054906101000a900460ff161515156133bb57600080fd5b600093505b60058410156134ba573373ffffffffffffffffffffffffffffffffffffffff166005600088876005811015156133f257fe5b6020020135815260200190815260200160002060009054906101000a900473ffffffffffffffffffffffffffffffffffffffff1673ffffffffffffffffffffffffffffffffffffffff1614151561344857600080fd5b600060056000888760058110151561345c57fe5b6020020135815260200190815260200160002060006101000a81548173ffffffffffffffffffffffffffffffffffffffff021916908373ffffffffffffffffffffffffffffffffffffffff16021790555083806001019450506133c0565b600093505b6005841015613557576004600087866005811015156134da57fe5b6020020135815260200190815260200160002060000160009054906101000a90046fffffffffffffffffffffffffffffffff16838560058110151561351b57fe5b60200201906fffffffffffffffffffffffffffffffff1690816fffffffffffffffffffffffffffffffff168152505083806001019450506134bf565b600960009054906101000a900473ffffffffffffffffffffffffffffffffffffffff1673ffffffffffffffffffffffffffffffffffffffff16637ad06be384876040518363ffffffff167c01000000000000000000000000000000000000000000000000000000000281526004018083600560200280838360005b838110156135ed5780820151818401526020810190506135d2565b5050505090500182815260200192505050602060405180830381600087803b15801561361857600080fd5b505af115801561362c573d6000803e3d6000fd5b505050506040513d602081101561364257600080fd5b81019080805190602001909291905050509150606060405190810160405280836fffffffffffffffffffffffffffffffff1681526020014267ffffffffffffffff168152602001600067ffffffffffffffff1681525090508060046000600754815260200190815260200160002060008201518160000160006101000a8154816fffffffffffffffffffffffffffffffff02191690836fffffffffffffffffffffffffffffffff16021790555060208201518160000160106101000a81548167ffffffffffffffff021916908367ffffffffffffffff16021790555060408201518160000160186101000a81548167ffffffffffffffff021916908367ffffffffffffffff1602179055509050503360056000600754815260200190815260200160002060006101000a81548173ffffffffffffffffffffffffffffffffffffffff021916908373ffffffffffffffffffffffffffffffffffffffff160217905550600060066000600754815260200190815260200160002060006101000a81548160ff0219169083151502179055507fe02fda003a77c2554ac72a53bbeacf3440a1e22212fd46e961fc2b123294dd4e60075433604051808381526020018273ffffffffffffffffffffffffffffffffffffffff1673ffffffffffffffffffffffffffffffffffffffff1681526020019250505060405180910390a16007600081548092919060010191905055506004600860003373ffffffffffffffffffffffffffffffffffffffff1673ffffffffffffffffffffffffffffffffffffffff16815260200190815260200160002060008282540392505081905550505050505050565b600360159054906101000a900460ff161515156138c357600080fd5b6138ce338383615858565b15156138d957600080fd5b6138e28261597f565b80156138f357506138f28161597f565b5b15156138fe57600080fd5b61390882826157c2565b151561391357600080fd5b61391d82826159af565b151561392857600080fd5b6139328282615a30565b806004600084815260200190815260200160002060000160186101000a81548167ffffffffffffffff021916908367ffffffffffffffff160217905550816004600083815260200190815260200160002060000160186101000a81548167ffffffffffffffff021916908367ffffffffffffffff1602179055507f4e1f80806ba228e25ed6f726450eaef48a5ae8e2604ca9156f554699acdd883f338383604051808473ffffffffffffffffffffffffffffffffffffffff1673ffffffffffffffffffffffffffffffffffffffff168152602001838152602001828152602001935050505060405180910390a15050565b6000809054906101000a900473ffffffffffffffffffffffffffffffffffffffff1673ffffffffffffffffffffffffffffffffffffffff163373ffffffffffffffffffffffffffffffffffffffff16141515613a7e57600080fd5b600073ffffffffffffffffffffffffffffffffffffffff168173ffffffffffffffffffffffffffffffffffffffff1614151515613aba57600080fd5b80600360006101000a81548173ffffffffffffffffffffffffffffffffffffffff021916908373ffffffffffffffffffffffffffffffffffffffff16021790555050565b600260009054906101000a900473ffffffffffffffffffffffffffffffffffffffff1673ffffffffffffffffffffffffffffffffffffffff163373ffffffffffffffffffffffffffffffffffffffff16141515613b5a57600080fd5b600360149054906101000a900460ff1615613b8f576000600360146101000a81548160ff021916908315150217905550613bab565b6001600360146101000a81548160ff0219169083151502179055505b565b6000806000600360159054906101000a900460ff16151515613bce57600080fd5b600115156006600086815260200190815260200160002060009054906101000a900460ff161515141515613c0157600080fd5b6005600085815260200190815260200160002060009054906101000a900473ffffffffffffffffffffffffffffffffffffffff1692508273ffffffffffffffffffffffffffffffffffffffff163373ffffffffffffffffffffffffffffffffffffffff1614151515613c7257600080fd5b600c6000858152602001908152602001600020549150813410151515613c9757600080fd5b613ca082615ab8565b820390508273ffffffffffffffffffffffffffffffffffffffff166108fc829081150290604051600060405180830381858888f19350505050158015613cea573d6000803e3d6000fd5b506001600860008573ffffffffffffffffffffffffffffffffffffffff1673ffffffffffffffffffffffffffffffffffffffff16815260200190815260200160002060008282540392505081905550336005600086815260200190815260200160002060006101000a81548173ffffffffffffffffffffffffffffffffffffffff021916908373ffffffffffffffffffffffffffffffffffffffff1602179055506001600860003373ffffffffffffffffffffffffffffffffffffffff1673ffffffffffffffffffffffffffffffffffffffff1681526020019081526020016000206000828254019250508190555060006006600086815260200190815260200160002060006101000a81548160ff0219169083151502179055506000600c6000868152602001908152602001600020819055507ff6de23dfab6e1deb1628f4b40e812dcd594adc18c2738b3606e6525e8b63d4ca3385604051808373ffffffffffffffffffffffffffffffffffffffff1673ffffffffffffffffffffffffffffffffffffffff1681526020018281526020019250505060405180910390a150505050565b600260009054906101000a900473ffffffffffffffffffffffffffffffffffffffff1673ffffffffffffffffffffffffffffffffffffffff163373ffffffffffffffffffffffffffffffffffffffff16141515613eeb57600080fd5b80600b60006101000a8154816fffffffffffffffffffffffffffffffff02191690836fffffffffffffffffffffffffffffffff16021790555050565b6000600260009054906101000a900473ffffffffffffffffffffffffffffffffffffffff1673ffffffffffffffffffffffffffffffffffffffff163373ffffffffffffffffffffffffffffffffffffffff16141515613f8557600080fd5b6201518060155401905080421115613f9f57806015819055505b50565b600360009054906101000a900473ffffffffffffffffffffffffffffffffffffffff1673ffffffffffffffffffffffffffffffffffffffff163373ffffffffffffffffffffffffffffffffffffffff16141515613ffe57600080fd5b600160009054906101000a900473ffffffffffffffffffffffffffffffffffffffff1673ffffffffffffffffffffffffffffffffffffffff166108fc3073ffffffffffffffffffffffffffffffffffffffff16319081150290604051600060405180830381858888f1935050505015801561407d573d6000803e3d6000fd5b50565b60008061408b615b01565b600080600360159054906101000a900460ff161515156140aa57600080fd5b6000601260003373ffffffffffffffffffffffffffffffffffffffff1673ffffffffffffffffffffffffffffffffffffffff16815260200190815260200160002054141561413b5742601260003373ffffffffffffffffffffffffffffffffffffffff1673ffffffffffffffffffffffffffffffffffffffff16815260200190815260200160002081905550614261565b601554601260003373ffffffffffffffffffffffffffffffffffffffff1673ffffffffffffffffffffffffffffffffffffffff1681526020019081526020016000205410801561418c575060155442115b15614260576000600f60003373ffffffffffffffffffffffffffffffffffffffff1673ffffffffffffffffffffffffffffffffffffffff168152602001908152602001600020819055506000601160003373ffffffffffffffffffffffffffffffffffffffff1673ffffffffffffffffffffffffffffffffffffffff1681526020019081526020016000208190555042601260003373ffffffffffffffffffffffffffffffffffffffff1673ffffffffffffffffffffffffffffffffffffffff168152602001908152602001600020819055505b5b601160003373ffffffffffffffffffffffffffffffffffffffff1673ffffffffffffffffffffffffffffffffffffffff168152602001908152602001600020549450601754601e866006811015156142b557fe5b0154029350600a840234101515156142cc57600080fd5b600090505b600a8110156145b357600960009054906101000a900473ffffffffffffffffffffffffffffffffffffffff1673ffffffffffffffffffffffffffffffffffffffff16633d24081c6007546040518263ffffffff167c010000000000000000000000000000000000000000000000000000000002815260040180828152602001915050602060405180830381600087803b15801561436d57600080fd5b505af1158015614381573d6000803e3d6000fd5b505050506040513d602081101561439757600080fd5b81019080805190602001909291905050509150606060405190810160405280836fffffffffffffffffffffffffffffffff1681526020014267ffffffffffffffff168152602001600067ffffffffffffffff1681525092508260046000600754815260200190815260200160002060008201518160000160006101000a8154816fffffffffffffffffffffffffffffffff02191690836fffffffffffffffffffffffffffffffff16021790555060208201518160000160106101000a81548167ffffffffffffffff021916908367ffffffffffffffff16021790555060408201518160000160186101000a81548167ffffffffffffffff021916908367ffffffffffffffff1602179055509050503360056000600754815260200190815260200160002060006101000a81548173ffffffffffffffffffffffffffffffffffffffff021916908373ffffffffffffffffffffffffffffffffffffffff160217905550600060066000600754815260200190815260200160002060006101000a81548160ff0219169083151502179055507fe02fda003a77c2554ac72a53bbeacf3440a1e22212fd46e961fc2b123294dd4e60075433604051808381526020018273ffffffffffffffffffffffffffffffffffffffff1673ffffffffffffffffffffffffffffffffffffffff1681526020019250505060405180910390a160076000815480929190600101919050555080806001019150506142d1565b600960009054906101000a900473ffffffffffffffffffffffffffffffffffffffff1673ffffffffffffffffffffffffffffffffffffffff1663e1ce95c86007546040518263ffffffff167c010000000000000000000000000000000000000000000000000000000002815260040180828152602001915050602060405180830381600087803b15801561464657600080fd5b505af115801561465a573d6000803e3d6000fd5b505050506040513d602081101561467057600080fd5b81019080805190602001909291905050509150606060405190810160405280836fffffffffffffffffffffffffffffffff1681526020014267ffffffffffffffff168152602001600067ffffffffffffffff1681525092508260046000600754815260200190815260200160002060008201518160000160006101000a8154816fffffffffffffffffffffffffffffffff02191690836fffffffffffffffffffffffffffffffff16021790555060208201518160000160106101000a81548167ffffffffffffffff021916908367ffffffffffffffff16021790555060408201518160000160186101000a81548167ffffffffffffffff021916908367ffffffffffffffff1602179055509050503360056000600754815260200190815260200160002060006101000a81548173ffffffffffffffffffffffffffffffffffffffff021916908373ffffffffffffffffffffffffffffffffffffffff160217905550600060066000600754815260200190815260200160002060006101000a81548160ff0219169083151502179055507fe02fda003a77c2554ac72a53bbeacf3440a1e22212fd46e961fc2b123294dd4e60075433604051808381526020018273ffffffffffffffffffffffffffffffffffffffff1673ffffffffffffffffffffffffffffffffffffffff1681526020019250505060405180910390a1600760008154809291906001019190505550600b600860003373ffffffffffffffffffffffffffffffffffffffff1673ffffffffffffffffffffffffffffffffffffffff16815260200190815260200160002060008282540192505081905550600a600f60003373ffffffffffffffffffffffffffffffffffffffff1673ffffffffffffffffffffffffffffffffffffffff1681526020019081526020016000206000828254019250508190555060058510156149c55760198560058110151561493357fe5b0154600f60003373ffffffffffffffffffffffffffffffffffffffff1673ffffffffffffffffffffffffffffffffffffffff168152602001908152602001600020541015156149c45760018501601160003373ffffffffffffffffffffffffffffffffffffffff1673ffffffffffffffffffffffffffffffffffffffff168152602001908152602001600020819055505b5b5050505050565b600080600080600360159054906101000a900460ff161515156149ee57600080fd5b601460009054906101000a900460ff161515614a0957600080fd5b6000601260003373ffffffffffffffffffffffffffffffffffffffff1673ffffffffffffffffffffffffffffffffffffffff168152602001908152602001600020541415614a9a5742601260003373ffffffffffffffffffffffffffffffffffffffff1673ffffffffffffffffffffffffffffffffffffffff16815260200190815260200160002081905550614b7b565b601554601260003373ffffffffffffffffffffffffffffffffffffffff1673ffffffffffffffffffffffffffffffffffffffff16815260200190815260200160002054108015614aeb575060155442115b15614b7a576000601060003373ffffffffffffffffffffffffffffffffffffffff1673ffffffffffffffffffffffffffffffffffffffff1681526020019081526020016000208190555042601260003373ffffffffffffffffffffffffffffffffffffffff1673ffffffffffffffffffffffffffffffffffffffff168152602001908152602001600020819055505b5b601654601060003373ffffffffffffffffffffffffffffffffffffffff1673ffffffffffffffffffffffffffffffffffffffff16815260200190815260200160002054101515614bca57600080fd5b6001601060003373ffffffffffffffffffffffffffffffffffffffff1673ffffffffffffffffffffffffffffffffffffffff1681526020019081526020016000206000828254019250508190555060056000876fffffffffffffffffffffffffffffffff16815260200190815260200160002060009054906101000a900473ffffffffffffffffffffffffffffffffffffffff1673ffffffffffffffffffffffffffffffffffffffff163373ffffffffffffffffffffffffffffffffffffffff16141515614c9757600080fd5b6000151560066000886fffffffffffffffffffffffffffffffff16815260200190815260200160002060009054906101000a900460ff161515141515614cdc57600080fd5b60009350600092505b6008831015614dd85760008360016fffffffffffffffffffffffffffffffff169060020a0286166fffffffffffffffffffffffffffffffff161115614dcb576000601360003373ffffffffffffffffffffffffffffffffffffffff1673ffffffffffffffffffffffffffffffffffffffff168152602001908152602001600020541115614dc157601360003373ffffffffffffffffffffffffffffffffffffffff1673ffffffffffffffffffffffffffffffffffffffff1681526020019081526020016000206000815480929190600190039190505550614dca565b83806001019450505b5b8280600101935050614ce5565b60185484023410151515614deb57600080fd5b60046000876fffffffffffffffffffffffffffffffff168152602001908152602001600020915060008260000160189054906101000a900467ffffffffffffffff1667ffffffffffffffff16141515614e4357600080fd5b600960009054906101000a900473ffffffffffffffffffffffffffffffffffffffff1673ffffffffffffffffffffffffffffffffffffffff1663250312ce8360000160009054906101000a90046fffffffffffffffffffffffffffffffff16876040518363ffffffff167c010000000000000000000000000000000000000000000000000000000002815260040180836fffffffffffffffffffffffffffffffff166fffffffffffffffffffffffffffffffff168152602001826fffffffffffffffffffffffffffffffff166fffffffffffffffffffffffffffffffff16815260200192505050602060405180830381600087803b158015614f4457600080fd5b505af1158015614f58573d6000803e3d6000fd5b505050506040513d6020811015614f6e57600080fd5b81019080805190602001909291905050509050808260000160006101000a8154816fffffffffffffffffffffffffffffffff02191690836fffffffffffffffffffffffffffffffff1602179055507fb1682fb0e70bb59dd5b0108ba10dad2a8cfa888b95b829260d566317d5d70fcb868260405180836fffffffffffffffffffffffffffffffff168152602001826fffffffffffffffffffffffffffffffff166fffffffffffffffffffffffffffffffff1681526020019250505060405180910390a1505050505050565b600e5481565b615047615b01565b6000600260009054906101000a900473ffffffffffffffffffffffffffffffffffffffff1673ffffffffffffffffffffffffffffffffffffffff163373ffffffffffffffffffffffffffffffffffffffff161415156150a557600080fd5b60606040519081016040528060006fffffffffffffffffffffffffffffffff168152602001600067ffffffffffffffff168152602001600067ffffffffffffffff168152509150600090505b8787905081101561564157898982818110151561510a57fe5b905060200201356fffffffffffffffffffffffffffffffff1682600001906fffffffffffffffffffffffffffffffff1690816fffffffffffffffffffffffffffffffff168152505042826020019067ffffffffffffffff16908167ffffffffffffffff16815250506000826040019067ffffffffffffffff16908167ffffffffffffffff16815250508160046000600754815260200190815260200160002060008201518160000160006101000a8154816fffffffffffffffffffffffffffffffff02191690836fffffffffffffffffffffffffffffffff16021790555060208201518160000160106101000a81548167ffffffffffffffff021916908367ffffffffffffffff16021790555060408201518160000160186101000a81548167ffffffffffffffff021916908367ffffffffffffffff160217905550905050878782818110151561525757fe5b9050602002013573ffffffffffffffffffffffffffffffffffffffff1660056000600754815260200190815260200160002060006101000a81548173ffffffffffffffffffffffffffffffffffffffff021916908373ffffffffffffffffffffffffffffffffffffffff16021790555085858281811015156152d557fe5b90506020020135151560066000600754815260200190815260200160002060006101000a81548160ff021916908315150217905550838382818110151561531857fe5b90506020020135600c60006007548152602001908152602001600020819055507fe02fda003a77c2554ac72a53bbeacf3440a1e22212fd46e961fc2b123294dd4e600754898984818110151561536a57fe5b9050602002013573ffffffffffffffffffffffffffffffffffffffff16604051808381526020018273ffffffffffffffffffffffffffffffffffffffff1673ffffffffffffffffffffffffffffffffffffffff1681526020019250505060405180910390a16007600081548092919060010191905055506001600860008a8a8581811015156153f557fe5b9050602002013573ffffffffffffffffffffffffffffffffffffffff1673ffffffffffffffffffffffffffffffffffffffff1673ffffffffffffffffffffffffffffffffffffffff16815260200190815260200160002060008282540192505081905550600a601360008a8a85818110151561546d57fe5b9050602002013573ffffffffffffffffffffffffffffffffffffffff1673ffffffffffffffffffffffffffffffffffffffff1673ffffffffffffffffffffffffffffffffffffffff1681526020019081526020016000205402600860008a8a8581811015156154d857fe5b9050602002013573ffffffffffffffffffffffffffffffffffffffff1673ffffffffffffffffffffffffffffffffffffffff1673ffffffffffffffffffffffffffffffffffffffff1681526020019081526020016000205411806155a557506000601360008a8a85818110151561554b57fe5b9050602002013573ffffffffffffffffffffffffffffffffffffffff1673ffffffffffffffffffffffffffffffffffffffff1673ffffffffffffffffffffffffffffffffffffffff16815260200190815260200160002054145b15615623576001601360008a8a8581811015156155be57fe5b9050602002013573ffffffffffffffffffffffffffffffffffffffff1673ffffffffffffffffffffffffffffffffffffffff1673ffffffffffffffffffffffffffffffffffffffff168152602001908152602001600020600082825401925050819055505b6001600e6000828254019250508190555080806001019150506150f1565b50505050505050505050565b60066020528060005260406000206000915054906101000a900460ff1681565b6000809054906101000a900473ffffffffffffffffffffffffffffffffffffffff1673ffffffffffffffffffffffffffffffffffffffff163373ffffffffffffffffffffffffffffffffffffffff161415156156c857600080fd5b600073ffffffffffffffffffffffffffffffffffffffff168173ffffffffffffffffffffffffffffffffffffffff161415151561570457600080fd5b8073ffffffffffffffffffffffffffffffffffffffff166000809054906101000a900473ffffffffffffffffffffffffffffffffffffffff1673ffffffffffffffffffffffffffffffffffffffff167f8be0079c531659141344cd1fd0a4f28419497f9722a3daafe3b4186f6b6457e060405160405180910390a3806000806101000a81548173ffffffffffffffffffffffffffffffffffffffff021916908373ffffffffffffffffffffffffffffffffffffffff16021790555050565b60004267ffffffffffffffff166004600085815260200190815260200160002060000160109054906101000a900467ffffffffffffffff1667ffffffffffffffff161115801561585057504267ffffffffffffffff166004600084815260200190815260200160002060000160109054906101000a900467ffffffffffffffff1667ffffffffffffffff1611155b905092915050565b60008183141561586b5760009050615978565b600083148061587a5750600082145b156158885760009050615978565b6007548310158061589b57506007548210155b156158a95760009050615978565b8373ffffffffffffffffffffffffffffffffffffffff166005600085815260200190815260200160002060009054906101000a900473ffffffffffffffffffffffffffffffffffffffff1673ffffffffffffffffffffffffffffffffffffffff1614801561597557508373ffffffffffffffffffffffffffffffffffffffff166005600084815260200190815260200160002060009054906101000a900473ffffffffffffffffffffffffffffffffffffffff1673ffffffffffffffffffffffffffffffffffffffff16145b90505b9392505050565b60008015156006600084815260200190815260200160002060009054906101000a900460ff161515149050919050565b6000806004600085815260200190815260200160002060000160189054906101000a900467ffffffffffffffff1667ffffffffffffffff16148015615a28575060006004600084815260200190815260200160002060000160189054906101000a900467ffffffffffffffff1667ffffffffffffffff16145b905092915050565b600061012c42019050806004600085815260200190815260200160002060000160106101000a81548167ffffffffffffffff021916908367ffffffffffffffff160217905550806004600084815260200190815260200160002060000160106101000a81548167ffffffffffffffff021916908367ffffffffffffffff160217905550505050565b6000612710600b60009054906101000a90046fffffffffffffffffffffffffffffffff166fffffffffffffffffffffffffffffffff168302811515615af957fe5b049050919050565b60606040519081016040528060006fffffffffffffffffffffffffffffffff168152602001600067ffffffffffffffff168152602001600067ffffffffffffffff1681525090565b60a0604051908101604052806005906020820280388339808201915050905050905600a165627a7a72305820b5ba71c7832730cc6b3c544e1c74ca21a12a36fb429fd8eaf3aa18fc59bacfbc0029",
  "source": "\n\ncontract Manager {\n    address public ceo;\n    address public cfo;\n    address public coo;\n    address public cao;\n\n    event OwnershipTransferred(address indexed previousCeo, address indexed newCeo);\n    event Pause();\n    event Unpause();\n\n\n    \n    function Manager() public {\n        coo = msg.sender; \n        cfo = 0x447870C2f334Fcda68e644aE53Db3471A9f7302D;\n        ceo = 0x6EC9C6fcE15DB982521eA2087474291fA5Ad6d31;\n        cao = 0x391Ef2cB0c81A2C47D659c3e3e6675F550e4b183;\n    }\n\n    \n    modifier onlyCEO() {\n        require(msg.sender == ceo);\n        _;\n    }\n\n    modifier onlyCOO() {\n        require(msg.sender == coo);\n        _;\n    }\n\n    modifier onlyCAO() {\n        require(msg.sender == cao);\n        _;\n    }\n    \n    bool allowTransfer = false;\n    \n    function changeAllowTransferState() public onlyCOO {\n        if (allowTransfer) {\n            allowTransfer = false;\n        } else {\n            allowTransfer = true;\n        }\n    }\n    \n    modifier whenTransferAllowed() {\n        require(allowTransfer);\n        _;\n    }\n\n    \n    function demiseCEO(address newCeo) public onlyCEO {\n        require(newCeo != address(0));\n        OwnershipTransferred(ceo, newCeo);\n        ceo = newCeo;\n    }\n\n    function setCFO(address newCfo) public onlyCEO {\n        require(newCfo != address(0));\n        cfo = newCfo;\n    }\n\n    function setCOO(address newCoo) public onlyCEO {\n        require(newCoo != address(0));\n        coo = newCoo;\n    }\n\n    function setCAO(address newCao) public onlyCEO {\n        require(newCao != address(0));\n        cao = newCao;\n    }\n\n    bool public paused = false;\n\n\n    \n    modifier whenNotPaused() {\n        require(!paused);\n        _;\n    }\n\n    \n    modifier whenPaused() {\n        require(paused);\n        _;\n    }\n\n    \n    function pause() onlyCAO whenNotPaused public {\n        paused = true;\n        Pause();\n    }\n\n    \n    function unpause() onlyCAO whenPaused public {\n        paused = false;\n        Unpause();\n    }\n}\n\n\ncontract SkinBase is Manager {\n\n    struct Skin {\n        uint128 appearance;\n        uint64 cooldownEndTime;\n        uint64 mixingWithId;\n    }\n\n    \n    mapping (uint256 => Skin) skins;\n\n    \n    mapping (uint256 => address) public skinIdToOwner;\n\n    \n    mapping (uint256 => bool) public isOnSale;\n\n    \n    \n    uint256 public nextSkinId = 1;  \n\n    \n    mapping (address => uint256) public numSkinOfAccounts;\n\n    event SkinTransfer(address from, address to, uint256 skinId);\n    \n    \n    \n    \n    \n\n    \n    \n    \n    \n    \n    \n    \n    \n    \n    \n    \n    \n    \n    \n    \n    \n    \n    \n    \n    \n    \n    \n\n    \n    function skinOfAccountById(address account, uint256 id) external view returns (uint256) {\n       uint256 count = 0;\n       uint256 numSkinOfAccount = numSkinOfAccounts[account];\n       require(numSkinOfAccount > 0);\n       require(id < numSkinOfAccount);\n       for (uint256 i = 1; i < nextSkinId; i++) {\n           if (skinIdToOwner[i] == account) {\n               \n               if (count == id) {\n                   \n                    return i;\n               } \n               count++;\n           }\n        }\n        revert();\n    }\n\n    \n    function getSkin(uint256 id) public view returns (uint128, uint64, uint64) {\n        require(id > 0);\n        require(id < nextSkinId);\n        Skin storage skin = skins[id];\n        return (skin.appearance, skin.cooldownEndTime, skin.mixingWithId);\n    }\n\n    function withdrawETH() external onlyCAO {\n        cfo.transfer(this.balance);\n    }\n    \n    function transferP2P(uint256 id, address targetAccount) whenTransferAllowed public {\n        require(skinIdToOwner[id] == msg.sender);\n        require(msg.sender != targetAccount);\n        skinIdToOwner[id] = targetAccount;\n        \n        numSkinOfAccounts[msg.sender] -= 1;\n        numSkinOfAccounts[targetAccount] += 1;\n        \n        \n        SkinTransfer(msg.sender, targetAccount, id);\n    }\n}\n\n\ncontract MixFormulaInterface {\n    function calcNewSkinAppearance(uint128 x, uint128 y) public returns (uint128);\n\n    \n    function randomSkinAppearance(uint256 externalNum) public returns (uint128);\n\n    \n    function bleachAppearance(uint128 appearance, uint128 attributes) public returns (uint128);\n\n    \n    function recycleAppearance(uint128[5] appearances, uint256 preference) public returns (uint128);\n\n    \n    function summon10SkinAppearance(uint256 externalNum) public returns (uint128);\n}\n\ncontract SkinMix is SkinBase {\n\n    \n    MixFormulaInterface public mixFormula;\n\n\n    \n    uint256 public prePaidFee = 150000 * 5000000000; \n\n    \n    event MixStart(address account, uint256 skinAId, uint256 skinBId);\n    event AutoMix(address account, uint256 skinAId, uint256 skinBId, uint64 cooldownEndTime);\n    event MixSuccess(address account, uint256 skinId, uint256 skinAId, uint256 skinBId);\n\n    \n    function setMixFormulaAddress(address mixFormulaAddress) external onlyCOO {\n        mixFormula = MixFormulaInterface(mixFormulaAddress);\n    }\n\n    \n    function setPrePaidFee(uint256 newPrePaidFee) external onlyCOO {\n        prePaidFee = newPrePaidFee;\n    }\n\n    \n    function _isCooldownReady(uint256 skinAId, uint256 skinBId) private view returns (bool) {\n        return (skins[skinAId].cooldownEndTime <= uint64(now)) && (skins[skinBId].cooldownEndTime <= uint64(now));\n    }\n\n    \n    function _isNotMixing(uint256 skinAId, uint256 skinBId) private view returns (bool) {\n        return (skins[skinAId].mixingWithId == 0) && (skins[skinBId].mixingWithId == 0);\n    }\n\n    \n    function _setCooldownEndTime(uint256 skinAId, uint256 skinBId) private {\n        uint256 end = now + 5 minutes;\n        \n        skins[skinAId].cooldownEndTime = uint64(end);\n        skins[skinBId].cooldownEndTime = uint64(end);\n    }\n\n    \n    \n    \n    \n    function _isValidSkin(address account, uint256 skinAId, uint256 skinBId) private view returns (bool) {\n        \n        if (skinAId == skinBId) {\n            return false;\n        }\n        if ((skinAId == 0) || (skinBId == 0)) {\n            return false;\n        }\n        if ((skinAId >= nextSkinId) || (skinBId >= nextSkinId)) {\n            return false;\n        }\n        return (skinIdToOwner[skinAId] == account) && (skinIdToOwner[skinBId] == account);\n    }\n\n    \n    function _isNotOnSale(uint256 skinId) private view returns (bool) {\n        return (isOnSale[skinId] == false);\n    }\n\n    \n    function mix(uint256 skinAId, uint256 skinBId) public whenNotPaused {\n\n        \n        require(_isValidSkin(msg.sender, skinAId, skinBId));\n\n        \n        require(_isNotOnSale(skinAId) && _isNotOnSale(skinBId));\n\n        \n        require(_isCooldownReady(skinAId, skinBId));\n\n        \n        require(_isNotMixing(skinAId, skinBId));\n\n        \n        _setCooldownEndTime(skinAId, skinBId);\n\n        \n        skins[skinAId].mixingWithId = uint64(skinBId);\n        skins[skinBId].mixingWithId = uint64(skinAId);\n\n        \n        MixStart(msg.sender, skinAId, skinBId);\n    }\n\n    \n    function mixAuto(uint256 skinAId, uint256 skinBId) public payable whenNotPaused {\n        require(msg.value >= prePaidFee);\n\n        mix(skinAId, skinBId);\n\n        Skin storage skin = skins[skinAId];\n\n        AutoMix(msg.sender, skinAId, skinBId, skin.cooldownEndTime);\n    }\n\n    \n    function getMixingResult(uint256 skinAId, uint256 skinBId) public whenNotPaused {\n        \n        address account = skinIdToOwner[skinAId];\n        require(account == skinIdToOwner[skinBId]);\n\n        \n        Skin storage skinA = skins[skinAId];\n        Skin storage skinB = skins[skinBId];\n        require(skinA.mixingWithId == uint64(skinBId));\n        require(skinB.mixingWithId == uint64(skinAId));\n\n        \n        require(_isCooldownReady(skinAId, skinBId));\n\n        \n        uint128 newSkinAppearance = mixFormula.calcNewSkinAppearance(skinA.appearance, skinB.appearance);\n        Skin memory newSkin = Skin({appearance: newSkinAppearance, cooldownEndTime: uint64(now), mixingWithId: 0});\n        skins[nextSkinId] = newSkin;\n        skinIdToOwner[nextSkinId] = account;\n        isOnSale[nextSkinId] = false;\n        nextSkinId++;\n\n        \n        skinA.mixingWithId = 0;\n        skinB.mixingWithId = 0;\n\n        \n        \n        \n        delete skinIdToOwner[skinAId];\n        delete skinIdToOwner[skinBId];\n        \n        numSkinOfAccounts[account] -= 1;\n\n        MixSuccess(account, nextSkinId - 1, skinAId, skinBId);\n    }\n}\n\ncontract SkinMarket is SkinMix {\n\n    \n    \n    uint128 public trCut = 400;\n\n    \n    mapping (uint256 => uint256) public desiredPrice;\n\n    \n    event PutOnSale(address account, uint256 skinId);\n    event WithdrawSale(address account, uint256 skinId);\n    event BuyInMarket(address buyer, uint256 skinId);\n\n    \n\n    function setTrCut(uint256 newCut) external onlyCOO {\n        trCut = uint128(newCut);\n    }\n\n    \n    function putOnSale(uint256 skinId, uint256 price) public whenNotPaused {\n        \n        require(skinIdToOwner[skinId] == msg.sender);\n\n        \n        require(skins[skinId].mixingWithId == 0);\n\n        \n        require(isOnSale[skinId] == false);\n\n        require(price > 0); \n\n        \n        desiredPrice[skinId] = price;\n        isOnSale[skinId] = true;\n\n        \n        PutOnSale(msg.sender, skinId);\n    }\n  \n    \n    function withdrawSale(uint256 skinId) external whenNotPaused {\n        \n        require(isOnSale[skinId] == true);\n        \n        \n        require(skinIdToOwner[skinId] == msg.sender);\n\n        \n        isOnSale[skinId] = false;\n        desiredPrice[skinId] = 0;\n\n        \n        WithdrawSale(msg.sender, skinId);\n    }\n \n    \n    function buyInMarket(uint256 skinId) external payable whenNotPaused {\n        \n        require(isOnSale[skinId] == true);\n\n        address seller = skinIdToOwner[skinId];\n\n        \n        require(msg.sender != seller);\n\n        uint256 _price = desiredPrice[skinId];\n        \n        require(msg.value >= _price);\n\n        \n        uint256 sellerProceeds = _price - _computeCut(_price);\n\n        seller.transfer(sellerProceeds);\n\n        \n        numSkinOfAccounts[seller] -= 1;\n        skinIdToOwner[skinId] = msg.sender;\n        numSkinOfAccounts[msg.sender] += 1;\n        isOnSale[skinId] = false;\n        desiredPrice[skinId] = 0;\n\n        \n        BuyInMarket(msg.sender, skinId);\n    }\n\n    \n    function _computeCut(uint256 _price) internal view returns (uint256) {\n        return _price * trCut / 10000;\n    }\n}\n\ncontract SkinMinting is SkinMarket {\n\n    \n    uint256 public skinCreatedLimit = 50000;\n    uint256 public skinCreatedNum;\n\n    \n    mapping (address => uint256) public accountToSummonNum;\n    mapping (address => uint256) public accountToBleachNum;\n\n    \n    mapping (address => uint256) public accountToPayLevel;\n    mapping (address => uint256) public accountLastClearTime;\n\n    \n    mapping (address => uint256) public freeBleachNum;\n    bool isBleachAllowed = true;\n\n    uint256 public levelClearTime = now;\n\n    \n    uint256 public bleachDailyLimit = 3;\n    uint256 public baseSummonPrice = 1 finney;\n    uint256 public bleachPrice = 300 finney;  \n\n    \n    uint256[5] public levelSplits = [10,\n                                     20,\n                                     50,\n                                     100,\n                                     200];\n    \n    uint256[6] public payMultiple = [10,\n                                     12,\n                                     15,\n                                     20,\n                                     30,\n                                     40];\n\n\n    \n    event CreateNewSkin(uint256 skinId, address account);\n    event Bleach(uint256 skinId, uint128 newAppearance);\n\n    \n\n    \n    function setBaseSummonPrice(uint256 newPrice) external onlyCOO {\n        baseSummonPrice = newPrice;\n    }\n\n    function setBleachPrice(uint256 newPrice) external onlyCOO {\n        bleachPrice = newPrice;\n    }\n\n    function setBleachDailyLimit(uint256 limit) external onlyCOO {\n        bleachDailyLimit = limit;\n    }\n\n    function switchBleachAllowed(bool newBleachAllowed) external onlyCOO {\n        isBleachAllowed = newBleachAllowed;\n    }\n\n    \n    function createSkin(uint128 specifiedAppearance, uint256 salePrice) external onlyCOO {\n        require(skinCreatedNum < skinCreatedLimit);\n\n        \n        \n        Skin memory newSkin = Skin({appearance: specifiedAppearance, cooldownEndTime: uint64(now), mixingWithId: 0});\n        skins[nextSkinId] = newSkin;\n        skinIdToOwner[nextSkinId] = coo;\n        isOnSale[nextSkinId] = false;\n\n        \n        CreateNewSkin(nextSkinId, coo);\n\n        \n        putOnSale(nextSkinId, salePrice);\n\n        nextSkinId++;\n        numSkinOfAccounts[coo] += 1;   \n        skinCreatedNum += 1;\n    }\n\n    \n    function donateSkin(uint128 specifiedAppearance, address donee) external whenNotPaused onlyCOO {\n        Skin memory newSkin = Skin({appearance: specifiedAppearance, cooldownEndTime: uint64(now), mixingWithId: 0});\n        skins[nextSkinId] = newSkin;\n        skinIdToOwner[nextSkinId] = donee;\n        isOnSale[nextSkinId] = false;\n\n        \n        CreateNewSkin(nextSkinId, donee);\n\n        nextSkinId++;\n        numSkinOfAccounts[donee] += 1;   \n        skinCreatedNum += 1;\n    }\n\n    \n    function moveData(uint128[] legacyAppearance, address[] legacyOwner, bool[] legacyIsOnSale, uint256[] legacyDesiredPrice) external onlyCOO {\n        Skin memory newSkin = Skin({appearance: 0, cooldownEndTime: 0, mixingWithId: 0});\n        for (uint256 i = 0; i < legacyOwner.length; i++) {\n            newSkin.appearance = legacyAppearance[i];\n            newSkin.cooldownEndTime = uint64(now);\n            newSkin.mixingWithId = 0;\n            \n            skins[nextSkinId] = newSkin;\n            skinIdToOwner[nextSkinId] = legacyOwner[i];\n            isOnSale[nextSkinId] = legacyIsOnSale[i];\n            desiredPrice[nextSkinId] = legacyDesiredPrice[i];\n    \n            \n            CreateNewSkin(nextSkinId, legacyOwner[i]);\n    \n            nextSkinId++;\n            numSkinOfAccounts[legacyOwner[i]] += 1;\n            if (numSkinOfAccounts[legacyOwner[i]] > freeBleachNum[legacyOwner[i]]*10 || freeBleachNum[legacyOwner[i]] == 0) {\n                freeBleachNum[legacyOwner[i]] += 1;\n            }   \n            skinCreatedNum += 1;\n        }\n    }\n\n    \n    function summon() external payable whenNotPaused {\n        \n        if (accountLastClearTime[msg.sender] == uint256(0)) {\n            \n            accountLastClearTime[msg.sender] = now;\n        } else {\n            if (accountLastClearTime[msg.sender] < levelClearTime && now > levelClearTime) {\n                accountToSummonNum[msg.sender] = 0;\n                accountToPayLevel[msg.sender] = 0;\n                accountLastClearTime[msg.sender] = now;\n            }\n        }\n\n        uint256 payLevel = accountToPayLevel[msg.sender];\n        uint256 price = payMultiple[payLevel] * baseSummonPrice;\n        require(msg.value >= price);\n\n        \n        uint128 randomAppearance = mixFormula.randomSkinAppearance(nextSkinId);\n        \n        Skin memory newSkin = Skin({appearance: randomAppearance, cooldownEndTime: uint64(now), mixingWithId: 0});\n        skins[nextSkinId] = newSkin;\n        skinIdToOwner[nextSkinId] = msg.sender;\n        isOnSale[nextSkinId] = false;\n\n        \n        CreateNewSkin(nextSkinId, msg.sender);\n\n        nextSkinId++;\n        numSkinOfAccounts[msg.sender] += 1;\n        \n        accountToSummonNum[msg.sender] += 1;\n        \n        \n        if (payLevel < 5) {\n            if (accountToSummonNum[msg.sender] >= levelSplits[payLevel]) {\n                accountToPayLevel[msg.sender] = payLevel + 1;\n            }\n        }\n    }\n\n    \n    function summon10() external payable whenNotPaused {\n        \n        if (accountLastClearTime[msg.sender] == uint256(0)) {\n            \n            accountLastClearTime[msg.sender] = now;\n        } else {\n            if (accountLastClearTime[msg.sender] < levelClearTime && now > levelClearTime) {\n                accountToSummonNum[msg.sender] = 0;\n                accountToPayLevel[msg.sender] = 0;\n                accountLastClearTime[msg.sender] = now;\n            }\n        }\n\n        uint256 payLevel = accountToPayLevel[msg.sender];\n        uint256 price = payMultiple[payLevel] * baseSummonPrice;\n        require(msg.value >= price*10);\n\n        Skin memory newSkin;\n        uint128 randomAppearance;\n        \n        for (uint256 i = 0; i < 10; i++) {\n            randomAppearance = mixFormula.randomSkinAppearance(nextSkinId);\n            newSkin = Skin({appearance: randomAppearance, cooldownEndTime: uint64(now), mixingWithId: 0});\n            skins[nextSkinId] = newSkin;\n            skinIdToOwner[nextSkinId] = msg.sender;\n            isOnSale[nextSkinId] = false;\n            \n            CreateNewSkin(nextSkinId, msg.sender);\n            nextSkinId++;\n        }  \n\n        \n        randomAppearance = mixFormula.summon10SkinAppearance(nextSkinId);\n        newSkin = Skin({appearance: randomAppearance, cooldownEndTime: uint64(now), mixingWithId: 0});\n        skins[nextSkinId] = newSkin;\n        skinIdToOwner[nextSkinId] = msg.sender;\n        isOnSale[nextSkinId] = false;\n        \n        CreateNewSkin(nextSkinId, msg.sender);\n        nextSkinId++;\n\n        numSkinOfAccounts[msg.sender] += 11;\n        accountToSummonNum[msg.sender] += 10;\n        \n        \n        if (payLevel < 5) {\n            if (accountToSummonNum[msg.sender] >= levelSplits[payLevel]) {\n                accountToPayLevel[msg.sender] = payLevel + 1;\n            }\n        }\n    }\n\n    \n    function recycleSkin(uint256[5] wasteSkins, uint256 preferIndex) external whenNotPaused {\n        for (uint256 i = 0; i < 5; i++) {\n            require(skinIdToOwner[wasteSkins[i]] == msg.sender);\n            skinIdToOwner[wasteSkins[i]] = address(0);\n        }\n\n        uint128[5] memory apps;\n        for (i = 0; i < 5; i++) {\n            apps[i] = skins[wasteSkins[i]].appearance;\n        }\n        \n        uint128 recycleApp = mixFormula.recycleAppearance(apps, preferIndex);\n        Skin memory newSkin = Skin({appearance: recycleApp, cooldownEndTime: uint64(now), mixingWithId: 0});\n        skins[nextSkinId] = newSkin;\n        skinIdToOwner[nextSkinId] = msg.sender;\n        isOnSale[nextSkinId] = false;\n\n        \n        CreateNewSkin(nextSkinId, msg.sender);\n\n        nextSkinId++;\n        numSkinOfAccounts[msg.sender] -= 4;\n    }\n\n    \n    function bleach(uint128 skinId, uint128 attributes) external payable whenNotPaused {\n        require(isBleachAllowed);\n\n        \n        if (accountLastClearTime[msg.sender] == uint256(0)) {\n            \n            accountLastClearTime[msg.sender] = now;\n        } else {\n            if (accountLastClearTime[msg.sender] < levelClearTime && now > levelClearTime) {\n                accountToBleachNum[msg.sender] = 0;\n                accountLastClearTime[msg.sender] = now;\n            }\n        }\n\n        require(accountToBleachNum[msg.sender] < bleachDailyLimit);\n        accountToBleachNum[msg.sender] += 1;\n\n        \n        require(msg.sender == skinIdToOwner[skinId]);\n\n        \n        require(isOnSale[skinId] == false);\n\n        uint256 bleachNum = 0;\n        for (uint256 i = 0; i < 8; i++) {\n            if ((attributes & (uint128(1) << i)) > 0) {\n                if (freeBleachNum[msg.sender] > 0) {\n                    freeBleachNum[msg.sender]--;\n                } else {\n                    bleachNum++;\n                }\n            }\n        }\n        \n        require(msg.value >= bleachNum * bleachPrice);\n\n        Skin storage originSkin = skins[skinId];\n        \n        require(originSkin.mixingWithId == 0);\n        \n        uint128 newAppearance = mixFormula.bleachAppearance(originSkin.appearance, attributes);\n        originSkin.appearance = newAppearance;\n\n        \n        Bleach(skinId, newAppearance);\n    }\n\n    \n    function clearSummonNum() external onlyCOO {\n        uint256 nextDay = levelClearTime + 1 days;\n        if (now > nextDay) {\n            levelClearTime = nextDay;\n        }\n    }\n}",
  "sourcePath": "/home/XXX-1/smartrim-experiment/for-rlf/0x8ff1c8a8799dd59eca03d9cf52b12ae0ccc21762/contracts/0x8ff1c8a8799dd59eca03d9cf52b12ae0ccc21762.sol",
  "compiler": {
    "name": "solc",
    "version": "0.4.25+commit.59dbf8f1.Emscripten.clang"
  },
  "schemaVersion": "3.4.16",
  "updatedAt": "2025-08-14T04:00:39.888Z",
  "networkType": "ethereum",
  "devdoc": {
    "methods": {}
  },
  "userdoc": {
    "methods": {}
  }
}