{
  "contractName": "ibaMultisig",
  "abi": [
    {
      "constant": true,
      "inputs": [
        {
          "name": "",
          "type": "address"
        },
        {
          "name": "",
          "type": "uint256"
        }
      ],
      "name": "wallets",
      "outputs": [
        {
          "name": "name",
          "type": "bytes32"
        },
        {
          "name": "creator",
          "type": "address"
        },
        {
          "name": "id",
          "type": "uint256"
        },
        {
          "name": "allowance",
          "type": "uint256"
        },
        {
          "name": "appovalsreq",
          "type": "uint256"
        }
      ],
      "payable": false,
      "stateMutability": "view",
      "type": "function"
    },
    {
      "inputs": [],
      "payable": false,
      "stateMutability": "nonpayable",
      "type": "constructor"
    },
    {
      "anonymous": false,
      "inputs": [
        {
          "indexed": false,
          "name": "id",
          "type": "uint256"
        }
      ],
      "name": "WalletCreated",
      "type": "event"
    },
    {
      "anonymous": false,
      "inputs": [
        {
          "indexed": false,
          "name": "id",
          "type": "uint256"
        }
      ],
      "name": "TxnSumbitted",
      "type": "event"
    },
    {
      "anonymous": false,
      "inputs": [
        {
          "indexed": false,
          "name": "id",
          "type": "uint256"
        }
      ],
      "name": "TxnConfirmed",
      "type": "event"
    },
    {
      "anonymous": false,
      "inputs": [
        {
          "indexed": false,
          "name": "value",
          "type": "uint256"
        }
      ],
      "name": "topUpBalance",
      "type": "event"
    },
    {
      "constant": true,
      "inputs": [
        {
          "name": "creator",
          "type": "address"
        },
        {
          "name": "name",
          "type": "bytes32"
        }
      ],
      "name": "getWalletId",
      "outputs": [
        {
          "name": "",
          "type": "uint256"
        },
        {
          "name": "",
          "type": "bool"
        }
      ],
      "payable": false,
      "stateMutability": "view",
      "type": "function"
    },
    {
      "constant": true,
      "inputs": [
        {
          "name": "creator",
          "type": "address"
        },
        {
          "name": "id",
          "type": "uint256"
        }
      ],
      "name": "getOwners",
      "outputs": [
        {
          "name": "",
          "type": "address[]"
        }
      ],
      "payable": false,
      "stateMutability": "view",
      "type": "function"
    },
    {
      "constant": true,
      "inputs": [
        {
          "name": "creator",
          "type": "address"
        },
        {
          "name": "id",
          "type": "uint256"
        }
      ],
      "name": "getTxnNum",
      "outputs": [
        {
          "name": "",
          "type": "uint256"
        }
      ],
      "payable": false,
      "stateMutability": "view",
      "type": "function"
    },
    {
      "constant": true,
      "inputs": [
        {
          "name": "creator",
          "type": "address"
        },
        {
          "name": "walletId",
          "type": "uint256"
        },
        {
          "name": "id",
          "type": "uint256"
        }
      ],
      "name": "getTxn",
      "outputs": [
        {
          "name": "",
          "type": "uint256"
        },
        {
          "name": "",
          "type": "address"
        },
        {
          "name": "",
          "type": "uint256"
        },
        {
          "name": "",
          "type": "bytes"
        },
        {
          "name": "",
          "type": "uint8"
        },
        {
          "name": "",
          "type": "address[]"
        },
        {
          "name": "",
          "type": "address"
        }
      ],
      "payable": false,
      "stateMutability": "view",
      "type": "function"
    },
    {
      "constant": true,
      "inputs": [
        {
          "name": "creator",
          "type": "address"
        },
        {
          "name": "id",
          "type": "uint256"
        }
      ],
      "name": "getLogsNum",
      "outputs": [
        {
          "name": "",
          "type": "uint256"
        }
      ],
      "payable": false,
      "stateMutability": "view",
      "type": "function"
    },
    {
      "constant": true,
      "inputs": [
        {
          "name": "creator",
          "type": "address"
        },
        {
          "name": "id",
          "type": "uint256"
        },
        {
          "name": "logId",
          "type": "uint256"
        }
      ],
      "name": "getLog",
      "outputs": [
        {
          "name": "",
          "type": "address"
        },
        {
          "name": "",
          "type": "uint256"
        }
      ],
      "payable": false,
      "stateMutability": "view",
      "type": "function"
    },
    {
      "constant": false,
      "inputs": [
        {
          "name": "approvals",
          "type": "uint256"
        },
        {
          "name": "owners",
          "type": "address[]"
        },
        {
          "name": "name",
          "type": "bytes32"
        }
      ],
      "name": "createWallet",
      "outputs": [],
      "payable": true,
      "stateMutability": "payable",
      "type": "function"
    },
    {
      "constant": false,
      "inputs": [
        {
          "name": "creator",
          "type": "address"
        },
        {
          "name": "id",
          "type": "uint256"
        }
      ],
      "name": "topBalance",
      "outputs": [],
      "payable": true,
      "stateMutability": "payable",
      "type": "function"
    },
    {
      "constant": false,
      "inputs": [
        {
          "name": "creator",
          "type": "address"
        },
        {
          "name": "destination",
          "type": "address"
        },
        {
          "name": "walletId",
          "type": "uint256"
        },
        {
          "name": "value",
          "type": "uint256"
        },
        {
          "name": "data",
          "type": "bytes"
        }
      ],
      "name": "submitTransaction",
      "outputs": [
        {
          "name": "",
          "type": "bool"
        }
      ],
      "payable": false,
      "stateMutability": "nonpayable",
      "type": "function"
    },
    {
      "constant": false,
      "inputs": [
        {
          "name": "creator",
          "type": "address"
        },
        {
          "name": "walletId",
          "type": "uint256"
        },
        {
          "name": "txId",
          "type": "uint256"
        }
      ],
      "name": "confirmTransaction",
      "outputs": [
        {
          "name": "",
          "type": "bool"
        }
      ],
      "payable": false,
      "stateMutability": "nonpayable",
      "type": "function"
    },
    {
      "constant": false,
      "inputs": [
        {
          "name": "creator",
          "type": "address"
        },
        {
          "name": "walletId",
          "type": "uint256"
        },
        {
          "name": "txId",
          "type": "uint256"
        }
      ],
      "name": "executeTxn",
      "outputs": [
        {
          "name": "",
          "type": "bool"
        }
      ],
      "payable": false,
      "stateMutability": "nonpayable",
      "type": "function"
    }
  ],
  "bytecode": "0x608060405234801561001057600080fd5b506125bd806100206000396000f3006080604052600436106100ba576000357c0100000000000000000000000000000000000000000000000000000000900463ffffffff16806311262105146100bf578063202606971461015d578063353e65e9146101a35780633f13d339146102545780636ab71276146102b55780636abf31eb146103575780636b74c3d8146103c65780636dd35c7b146105675780638bcddd5d146105a75780639b28db5014610608578063cf8c9cc814610678578063e5583c591461071f575b600080fd5b3480156100cb57600080fd5b50610114600480360381019080803573ffffffffffffffffffffffffffffffffffffffff169060200190929190803590602001909291908035906020019092919050505061078e565b604051808373ffffffffffffffffffffffffffffffffffffffff1673ffffffffffffffffffffffffffffffffffffffff1681526020018281526020019250505060405180910390f35b6101a16004803603810190808035906020019092919080359060200190820180359060200191909192939192939080356000191690602001909291905050506108b3565b005b3480156101af57600080fd5b506101ee600480360381019080803573ffffffffffffffffffffffffffffffffffffffff16906020019092919080359060200190929190505050610cdd565b6040518086600019166000191681526020018573ffffffffffffffffffffffffffffffffffffffff1673ffffffffffffffffffffffffffffffffffffffff1681526020018481526020018381526020018281526020019550505050505060405180910390f35b34801561026057600080fd5b5061029f600480360381019080803573ffffffffffffffffffffffffffffffffffffffff16906020019092919080359060200190929190505050610d4f565b6040518082815260200191505060405180910390f35b3480156102c157600080fd5b50610300600480360381019080803573ffffffffffffffffffffffffffffffffffffffff16906020019092919080359060200190929190505050610e26565b6040518080602001828103825283818151815260200191508051906020019060200280838360005b83811015610343578082015181840152602081019050610328565b505050509050019250505060405180910390f35b34801561036357600080fd5b506103ac600480360381019080803573ffffffffffffffffffffffffffffffffffffffff1690602001909291908035906020019092919080359060200190929190505050610f11565b604051808215151515815260200191505060405180910390f35b3480156103d257600080fd5b5061041b600480360381019080803573ffffffffffffffffffffffffffffffffffffffff169060200190929190803590602001909291908035906020019092919050505061127a565b604051808881526020018773ffffffffffffffffffffffffffffffffffffffff1673ffffffffffffffffffffffffffffffffffffffff1681526020018681526020018060200185600281111561046d57fe5b60ff168152602001806020018473ffffffffffffffffffffffffffffffffffffffff1673ffffffffffffffffffffffffffffffffffffffff168152602001838103835287818151815260200191508051906020019080838360005b838110156104e35780820151818401526020810190506104c8565b50505050905090810190601f1680156105105780820380516001836020036101000a031916815260200191505b50838103825285818151815260200191508051906020019060200280838360005b8381101561054c578082015181840152602081019050610531565b50505050905001995050505050505050505060405180910390f35b6105a5600480360381019080803573ffffffffffffffffffffffffffffffffffffffff169060200190929190803590602001909291905050506114af565b005b3480156105b357600080fd5b506105f2600480360381019080803573ffffffffffffffffffffffffffffffffffffffff1690602001909291908035906020019092919050505061170d565b6040518082815260200191505060405180910390f35b34801561061457600080fd5b50610657600480360381019080803573ffffffffffffffffffffffffffffffffffffffff1690602001909291908035600019169060200190929190505050611777565b60405180838152602001821515151581526020019250505060405180910390f35b34801561068457600080fd5b50610705600480360381019080803573ffffffffffffffffffffffffffffffffffffffff169060200190929190803573ffffffffffffffffffffffffffffffffffffffff1690602001909291908035906020019092919080359060200190929190803590602001908201803590602001919091929391929390505050611857565b604051808215151515815260200191505060405180910390f35b34801561072b57600080fd5b50610774600480360381019080803573ffffffffffffffffffffffffffffffffffffffff1690602001909291908035906020019092919080359060200190929190505050611d5f565b604051808215151515815260200191505060405180910390f35b6000806000808673ffffffffffffffffffffffffffffffffffffffff1673ffffffffffffffffffffffffffffffffffffffff168152602001908152602001600020848154811015156107dc57fe5b9060005260206000209060080201600501838154811015156107fa57fe5b906000526020600020906002020160010160009054906101000a900473ffffffffffffffffffffffffffffffffffffffff166000808773ffffffffffffffffffffffffffffffffffffffff1673ffffffffffffffffffffffffffffffffffffffff1681526020019081526020016000208581548110151561087757fe5b90600052602060002090600802016005018481548110151561089557fe5b90600052602060002090600202016000015491509150935093915050565b600080600080602060ff16141515156108cb57600080fd5b8585905087111515156108dd57600080fd5b600091505b6000803373ffffffffffffffffffffffffffffffffffffffff1673ffffffffffffffffffffffffffffffffffffffff168152602001908152602001600020805490508210156109a95783600019166000803373ffffffffffffffffffffffffffffffffffffffff1673ffffffffffffffffffffffffffffffffffffffff1681526020019081526020016000208381548110151561097b57fe5b90600052602060002090600802016000015460001916141561099c57600192505b81806001019250506108e2565b600015158315151415156109bc57600080fd5b6000803373ffffffffffffffffffffffffffffffffffffffff1673ffffffffffffffffffffffffffffffffffffffff1681526020019081526020016000208054809190600101610a0c919061212d565b9050836000803373ffffffffffffffffffffffffffffffffffffffff1673ffffffffffffffffffffffffffffffffffffffff16815260200190815260200160002082815481101515610a5a57fe5b90600052602060002090600802016000018160001916905550336000803373ffffffffffffffffffffffffffffffffffffffff1673ffffffffffffffffffffffffffffffffffffffff16815260200190815260200160002082815481101515610abf57fe5b906000526020600020906008020160010160006101000a81548173ffffffffffffffffffffffffffffffffffffffff021916908373ffffffffffffffffffffffffffffffffffffffff160217905550806000803373ffffffffffffffffffffffffffffffffffffffff1673ffffffffffffffffffffffffffffffffffffffff16815260200190815260200160002082815481101515610b5a57fe5b906000526020600020906008020160020181905550346000803373ffffffffffffffffffffffffffffffffffffffff1673ffffffffffffffffffffffffffffffffffffffff16815260200190815260200160002082815481101515610bbb57fe5b90600052602060002090600802016003018190555085856000803373ffffffffffffffffffffffffffffffffffffffff1673ffffffffffffffffffffffffffffffffffffffff16815260200190815260200160002083815481101515610c1d57fe5b90600052602060002090600802016004019190610c3b92919061215f565b50866000803373ffffffffffffffffffffffffffffffffffffffff1673ffffffffffffffffffffffffffffffffffffffff16815260200190815260200160002082815481101515610c8857fe5b9060005260206000209060080201600701819055507f72c24454c15157c84c6db7439c5d2526250fb3c155da76c1eb5e55a9e2a996d3816040518082815260200191505060405180910390a150505050505050565b600060205281600052604060002081815481101515610cf857fe5b9060005260206000209060080201600091509150508060000154908060010160009054906101000a900473ffffffffffffffffffffffffffffffffffffffff16908060020154908060030154908060070154905085565b6000806000808573ffffffffffffffffffffffffffffffffffffffff1673ffffffffffffffffffffffffffffffffffffffff16815260200190815260200160002083815481101515610d9d57fe5b906000526020600020906008020160040180549050111515610dbe57600080fd5b6000808473ffffffffffffffffffffffffffffffffffffffff1673ffffffffffffffffffffffffffffffffffffffff16815260200190815260200160002082815481101515610e0957fe5b906000526020600020906008020160060180549050905092915050565b60606000808473ffffffffffffffffffffffffffffffffffffffff1673ffffffffffffffffffffffffffffffffffffffff16815260200190815260200160002082815481101515610e7357fe5b9060005260206000209060080201600401805480602002602001604051908101604052809291908181526020018280548015610f0457602002820191906000526020600020905b8160009054906101000a900473ffffffffffffffffffffffffffffffffffffffff1673ffffffffffffffffffffffffffffffffffffffff1681526020019060010190808311610eba575b5050505050905092915050565b60008060008060008787600080600090505b6000808573ffffffffffffffffffffffffffffffffffffffff1673ffffffffffffffffffffffffffffffffffffffff16815260200190815260200160002083815481101515610f6e57fe5b906000526020600020906008020160040180549050811015611063573373ffffffffffffffffffffffffffffffffffffffff166000808673ffffffffffffffffffffffffffffffffffffffff1673ffffffffffffffffffffffffffffffffffffffff16815260200190815260200160002084815481101515610fec57fe5b90600052602060002090600802016004018281548110151561100a57fe5b9060005260206000200160009054906101000a900473ffffffffffffffffffffffffffffffffffffffff1673ffffffffffffffffffffffffffffffffffffffff16141561105657600191505b8080600101915050610f23565b811561126b576000808d73ffffffffffffffffffffffffffffffffffffffff1673ffffffffffffffffffffffffffffffffffffffff1681526020019081526020016000208b8154811015156110b457fe5b90600052602060002090600802019750876006018a8154811015156110d557fe5b90600052602060002090600702019650600094505b86600501805490508560ff161015611180573373ffffffffffffffffffffffffffffffffffffffff16876005018660ff1681548110151561112757fe5b9060005260206000200160009054906101000a900473ffffffffffffffffffffffffffffffffffffffff1673ffffffffffffffffffffffffffffffffffffffff16141561117357600195505b84806001019550506110ea565b8515151561118d57600080fd5b866005013390806001815401808255809150509060018203906000526020600020016000909192909190916101000a81548173ffffffffffffffffffffffffffffffffffffffff021916908373ffffffffffffffffffffffffffffffffffffffff1602179055505087600701548760050180549050141561122f5760018760040160006101000a81548160ff0219169083600281111561122957fe5b02179055505b7f58078806f424288600d2b63f8bfb3ec73c0b6aa7c5770b9d6fcd06a4babba2aa8a6040518082815260200191505060405180910390a1600198505b50505050505050509392505050565b60008060006060600060606000806000808c73ffffffffffffffffffffffffffffffffffffffff1673ffffffffffffffffffffffffffffffffffffffff1681526020019081526020016000208a8154811015156112d357fe5b9060005260206000209060080201600601898154811015156112f157fe5b9060005260206000209060070201905080600001548160010160009054906101000a900473ffffffffffffffffffffffffffffffffffffffff168260020154836003018460040160009054906101000a900460ff16856005018660060160009054906101000a900473ffffffffffffffffffffffffffffffffffffffff16838054600181600116156101000203166002900480601f0160208091040260200160405190810160405280929190818152602001828054600181600116156101000203166002900480156114045780601f106113d957610100808354040283529160200191611404565b820191906000526020600020905b8154815290600101906020018083116113e757829003601f168201915b505050505093508180548060200260200160405190810160405280929190818152602001828054801561148c57602002820191906000526020600020905b8160009054906101000a900473ffffffffffffffffffffffffffffffffffffffff1673ffffffffffffffffffffffffffffffffffffffff1681526020019060010190808311611442575b505050505091509750975097509750975097509750509397509397509397909450565b600080341115156114bf57600080fd5b346000808573ffffffffffffffffffffffffffffffffffffffff1673ffffffffffffffffffffffffffffffffffffffff1681526020019081526020016000208381548110151561150b57fe5b9060005260206000209060080201600301600082825401925050819055506000808473ffffffffffffffffffffffffffffffffffffffff1673ffffffffffffffffffffffffffffffffffffffff1681526020019081526020016000208281548110151561157457fe5b9060005260206000209060080201600501805480919060010161159791906121ff565b9050346000808573ffffffffffffffffffffffffffffffffffffffff1673ffffffffffffffffffffffffffffffffffffffff168152602001908152602001600020838154811015156115e557fe5b90600052602060002090600802016005018281548110151561160357fe5b906000526020600020906002020160000181905550336000808573ffffffffffffffffffffffffffffffffffffffff1673ffffffffffffffffffffffffffffffffffffffff1681526020019081526020016000208381548110151561166457fe5b90600052602060002090600802016005018281548110151561168257fe5b906000526020600020906002020160010160006101000a81548173ffffffffffffffffffffffffffffffffffffffff021916908373ffffffffffffffffffffffffffffffffffffffff1602179055507fa635392d394f3beba6cb05dcfce80ce5f108f8e519362413385588689e5a4ced346040518082815260200191505060405180910390a1505050565b60008060008473ffffffffffffffffffffffffffffffffffffffff1673ffffffffffffffffffffffffffffffffffffffff1681526020019081526020016000208281548110151561175a57fe5b906000526020600020906008020160050180549050905092915050565b60008060008090505b6000808673ffffffffffffffffffffffffffffffffffffffff1673ffffffffffffffffffffffffffffffffffffffff1681526020019081526020016000208054905081101561184e5783600019166000808773ffffffffffffffffffffffffffffffffffffffff1673ffffffffffffffffffffffffffffffffffffffff1681526020019081526020016000208281548110151561181957fe5b906000526020600020906008020160000154600019161415611841578060019250925061184f565b8080600101915050611780565b5b509250929050565b6000808786600080600090505b6000808573ffffffffffffffffffffffffffffffffffffffff1673ffffffffffffffffffffffffffffffffffffffff168152602001908152602001600020838154811015156118af57fe5b9060005260206000209060080201600401805490508110156119a4573373ffffffffffffffffffffffffffffffffffffffff166000808673ffffffffffffffffffffffffffffffffffffffff1673ffffffffffffffffffffffffffffffffffffffff1681526020019081526020016000208481548110151561192d57fe5b90600052602060002090600802016004018281548110151561194b57fe5b9060005260206000200160009054906101000a900473ffffffffffffffffffffffffffffffffffffffff1673ffffffffffffffffffffffffffffffffffffffff16141561199757600191505b8080600101915050611864565b8115611d50576000808d73ffffffffffffffffffffffffffffffffffffffff1673ffffffffffffffffffffffffffffffffffffffff1681526020019081526020016000208a8154811015156119f557fe5b90600052602060002090600802016006018054809190600101611a189190612231565b9450846000808e73ffffffffffffffffffffffffffffffffffffffff1673ffffffffffffffffffffffffffffffffffffffff1681526020019081526020016000208b815481101515611a6657fe5b906000526020600020906008020160060186815481101515611a8457fe5b9060005260206000209060070201600001819055508a6000808e73ffffffffffffffffffffffffffffffffffffffff1673ffffffffffffffffffffffffffffffffffffffff1681526020019081526020016000208b815481101515611ae557fe5b906000526020600020906008020160060186815481101515611b0357fe5b906000526020600020906007020160010160006101000a81548173ffffffffffffffffffffffffffffffffffffffff021916908373ffffffffffffffffffffffffffffffffffffffff160217905550886000808e73ffffffffffffffffffffffffffffffffffffffff1673ffffffffffffffffffffffffffffffffffffffff1681526020019081526020016000208b815481101515611b9e57fe5b906000526020600020906008020160060186815481101515611bbc57fe5b90600052602060002090600702016002018190555087876000808f73ffffffffffffffffffffffffffffffffffffffff1673ffffffffffffffffffffffffffffffffffffffff1681526020019081526020016000208c815481101515611c1e57fe5b906000526020600020906008020160060187815481101515611c3c57fe5b90600052602060002090600702016003019190611c5a929190612263565b50336000808e73ffffffffffffffffffffffffffffffffffffffff1673ffffffffffffffffffffffffffffffffffffffff1681526020019081526020016000208b815481101515611ca757fe5b906000526020600020906008020160060186815481101515611cc557fe5b906000526020600020906007020160060160006101000a81548173ffffffffffffffffffffffffffffffffffffffff021916908373ffffffffffffffffffffffffffffffffffffffff1602179055507f4a389442ca1de7e621ab11a315943f6bc7b7a4f6479de148c0847a1908f86561856040518082815260200191505060405180910390a1600195505b50505050509695505050505050565b600080600080600060608888600080600090505b6000808573ffffffffffffffffffffffffffffffffffffffff1673ffffffffffffffffffffffffffffffffffffffff16815260200190815260200160002083815481101515611dbe57fe5b906000526020600020906008020160040180549050811015611eb3573373ffffffffffffffffffffffffffffffffffffffff166000808673ffffffffffffffffffffffffffffffffffffffff1673ffffffffffffffffffffffffffffffffffffffff16815260200190815260200160002084815481101515611e3c57fe5b906000526020600020906008020160040182815481101515611e5a57fe5b9060005260206000200160009054906101000a900473ffffffffffffffffffffffffffffffffffffffff1673ffffffffffffffffffffffffffffffffffffffff161415611ea657600191505b8080600101915050611d73565b811561211d576000808e73ffffffffffffffffffffffffffffffffffffffff1673ffffffffffffffffffffffffffffffffffffffff1681526020019081526020016000208c815481101515611f0457fe5b90600052602060002090600802019850886006018b815481101515611f2557fe5b9060005260206000209060070201975060016002811115611f4257fe5b8860040160009054906101000a900460ff166002811115611f5f57fe5b141515611f6b57600080fd5b8760020154896003015410151515611f8257600080fd5b8760010160009054906101000a900473ffffffffffffffffffffffffffffffffffffffff16965087600201549550876003018054600181600116156101000203166002900480601f0160208091040260200160405190810160405280929190818152602001828054600181600116156101000203166002900480156120485780601f1061201d57610100808354040283529160200191612048565b820191906000526020600020905b81548152906001019060200180831161202b57829003601f168201915b505050505094508673ffffffffffffffffffffffffffffffffffffffff16868660405180828051906020019080838360005b8381101561209557808201518184015260208101905061207a565b50505050905090810190601f1680156120c25780820380516001836020036101000a031916815260200191505b5091505060006040518083038185875af19250505015156120df57fe5b60028860040160006101000a81548160ff0219169083600281111561210057fe5b021790555087600201548960030154038960030181905550600199505b5050505050505050509392505050565b81548183558181111561215a5760080281600802836000526020600020918201910161215991906122e3565b5b505050565b8280548282559060005260206000209081019282156121ee579160200282015b828111156121ed57823573ffffffffffffffffffffffffffffffffffffffff168260006101000a81548173ffffffffffffffffffffffffffffffffffffffff021916908373ffffffffffffffffffffffffffffffffffffffff1602179055509160200191906001019061217f565b5b5090506121fb9190612379565b5090565b81548183558181111561222c5760020281600202836000526020600020918201910161222b91906123bc565b5b505050565b81548183558181111561225e5760070281600702836000526020600020918201910161225d919061240a565b5b505050565b828054600181600116156101000203166002900490600052602060002090601f016020900481019282601f106122a457803560ff19168380011785556122d2565b828001600101855582156122d2579182015b828111156122d15782358255916020019190600101906122b6565b5b5090506122df91906124bb565b5090565b61237691905b80821115612372576000808201600090556001820160006101000a81549073ffffffffffffffffffffffffffffffffffffffff02191690556002820160009055600382016000905560048201600061234191906124e0565b6005820160006123519190612501565b6006820160006123619190612525565b6007820160009055506008016122e9565b5090565b90565b6123b991905b808211156123b557600081816101000a81549073ffffffffffffffffffffffffffffffffffffffff02191690555060010161237f565b5090565b90565b61240791905b80821115612403576000808201600090556001820160006101000a81549073ffffffffffffffffffffffffffffffffffffffff0219169055506002016123c2565b5090565b90565b6124b891905b808211156124b4576000808201600090556001820160006101000a81549073ffffffffffffffffffffffffffffffffffffffff021916905560028201600090556003820160006124609190612549565b6004820160006101000a81549060ff021916905560058201600061248491906124e0565b6006820160006101000a81549073ffffffffffffffffffffffffffffffffffffffff021916905550600701612410565b5090565b90565b6124dd91905b808211156124d95760008160009055506001016124c1565b5090565b90565b50805460008255906000526020600020908101906124fe91906124bb565b50565b508054600082556002029060005260206000209081019061252291906123bc565b50565b5080546000825560070290600052602060002090810190612546919061240a565b50565b50805460018160011615610100020316600290046000825580601f1061256f575061258e565b601f01602090049060005260206000209081019061258d91906124bb565b5b505600a165627a7a72305820e490a93b2d40886b3d0003feb6d2f2926e8481353c6bbf73dc226edf447bc4eb0029",
  "source": "\ncontract ibaMultisig {\n\n    \n    struct Transaction {\n        uint id;\n        address destination;\n        uint value;\n        bytes data;\n        TxnStatus status;\n        address[] confirmed;\n        address creator;\n    }\n\n    struct Wallet {\n        bytes32 name;\n        address creator;\n        uint id;\n        uint allowance;\n        address[] owners;\n        Log[] logs;\n        Transaction[] transactions;\n        uint appovalsreq;\n    }\n    \n    struct Log {\n        uint amount;\n        address sender;\n    }\n    \n    enum TxnStatus { Unconfirmed, Pending, Executed }\n    \n    \n    modifier onlyOwner ( address creator, uint walletId ) {\n        bool found;\n        for (uint i = 0;i<wallets[creator][walletId].owners.length;i++){\n            if (wallets[creator][walletId].owners[i] == msg.sender){\n                found = true;\n            }\n        }\n        if (found){\n            _;\n        }\n    }\n    \n    \n    event WalletCreated(uint id);\n    event TxnSumbitted(uint id);\n    event TxnConfirmed(uint id);\n    event topUpBalance(uint value);\n\n    \n    mapping (address => Wallet[]) public wallets;\n    \n    \n    function ibaMultisig() public{\n\n    }\n\n    \n    function getWalletId(address creator, bytes32 name) external view returns (uint, bool){\n        for (uint i = 0;i<wallets[creator].length;i++){\n            if (wallets[creator][i].name == name){\n                return (i, true);\n            }\n        }\n    }\n\n    function getOwners(address creator, uint id) external view returns (address[]){\n        return wallets[creator][id].owners;\n    }\n    \n    function getTxnNum(address creator, uint id) external view returns (uint){\n        require(wallets[creator][id].owners.length > 0);\n        return wallets[creator][id].transactions.length;\n    }\n    \n    function getTxn(address creator, uint walletId, uint id) external view returns (uint, address, uint, bytes, TxnStatus, address[], address){\n        Transaction storage txn = wallets[creator][walletId].transactions[id];\n        return (txn.id, txn.destination, txn.value, txn.data, txn.status, txn.confirmed, txn.creator);\n    }\n    \n    function getLogsNum(address creator, uint id) external view returns (uint){\n        return wallets[creator][id].logs.length;\n    }\n    \n    function getLog(address creator, uint id, uint logId) external view returns (address, uint){\n        return(wallets[creator][id].logs[logId].sender, wallets[creator][id].logs[logId].amount);\n    }\n    \n    \n    \n    function createWallet(uint approvals, address[] owners, bytes32 name) external payable{\n\n        \n        require(name.length != 0);\n        \n        \n        require(approvals <= owners.length);\n        \n        \n        bool found;\n        for (uint i = 0; i<wallets[msg.sender].length;i++){\n            if (wallets[msg.sender][i].name == name){\n                found = true;\n            }\n        }\n        require (found == false);\n        \n        \n        uint currentLen = wallets[msg.sender].length++;\n        wallets[msg.sender][currentLen].name = name;\n        wallets[msg.sender][currentLen].creator = msg.sender;\n        wallets[msg.sender][currentLen].id = currentLen;\n        wallets[msg.sender][currentLen].allowance = msg.value;\n        wallets[msg.sender][currentLen].owners = owners;\n        wallets[msg.sender][currentLen].appovalsreq = approvals;\n        emit WalletCreated(currentLen);\n    }\n\n    function topBalance(address creator, uint id) external payable {\n        require (msg.value > 0 wei);\n        wallets[creator][id].allowance += msg.value;\n        \n        \n        uint loglen = wallets[creator][id].logs.length++;\n        wallets[creator][id].logs[loglen].amount = msg.value;\n        wallets[creator][id].logs[loglen].sender = msg.sender;\n        emit topUpBalance(msg.value);\n    }\n    \n    function submitTransaction(address creator, address destination, uint walletId, uint value, bytes data) onlyOwner (creator,walletId) external returns (bool) {\n        uint newTxId = wallets[creator][walletId].transactions.length++;\n        wallets[creator][walletId].transactions[newTxId].id = newTxId;\n        wallets[creator][walletId].transactions[newTxId].destination = destination;\n        wallets[creator][walletId].transactions[newTxId].value = value;\n        wallets[creator][walletId].transactions[newTxId].data = data;\n        wallets[creator][walletId].transactions[newTxId].creator = msg.sender;\n        emit TxnSumbitted(newTxId);\n        return true;\n    }\n\n    function confirmTransaction(address creator, uint walletId, uint txId) onlyOwner(creator, walletId) external returns (bool){\n        Wallet storage wallet = wallets[creator][walletId];\n        Transaction storage txn = wallet.transactions[txId];\n\n        \n        bool f;\n        for (uint8 i = 0; i<txn.confirmed.length;i++){\n            if (txn.confirmed[i] == msg.sender){\n                f = true;\n            }\n        }\n        \n        require(!f);\n        txn.confirmed.push(msg.sender);\n        \n        if (txn.confirmed.length == wallet.appovalsreq){\n            txn.status = TxnStatus.Pending;\n        }\n        \n        \n        emit TxnConfirmed(txId);\n        \n        return true;\n    }\n    \n    function executeTxn(address creator, uint walletId, uint txId) onlyOwner(creator, walletId) external returns (bool){\n        Wallet storage wallet = wallets[creator][walletId];\n        \n        Transaction storage txn = wallet.transactions[txId];\n        \n        \n        require(txn.status == TxnStatus.Pending);\n        \n        \n        require(wallet.allowance >= txn.value);\n        \n        \n        address dest = txn.destination;\n        uint val = txn.value;\n        bytes memory dat = txn.data;\n        assert(dest.call.value(val)(dat));\n            \n        \n        txn.status = TxnStatus.Executed;\n\n        \n        wallet.allowance = wallet.allowance - txn.value;\n\n        return true;\n        \n    }\n}",
  "sourcePath": "/home/XXX-1/smartrim-experiment/for-rlf/0x0bb6d7baee15e56663aabd8ef0ba33b50413d46d/contracts/0x0bb6d7baee15e56663aabd8ef0ba33b50413d46d.sol",
  "compiler": {
    "name": "solc",
    "version": "0.4.25+commit.59dbf8f1.Emscripten.clang"
  },
  "schemaVersion": "3.4.16",
  "updatedAt": "2025-08-14T03:45:58.852Z",
  "networkType": "ethereum",
  "devdoc": {
    "methods": {}
  },
  "userdoc": {
    "methods": {}
  }
}