{
  "contractName": "VikkyToken",
  "abi": [
    {
      "constant": true,
      "inputs": [],
      "name": "DATE_PRESALE_START",
      "outputs": [
        {
          "name": "",
          "type": "uint256"
        }
      ],
      "payable": false,
      "stateMutability": "view",
      "type": "function"
    },
    {
      "constant": true,
      "inputs": [],
      "name": "BONUS_PRESALE",
      "outputs": [
        {
          "name": "",
          "type": "uint256"
        }
      ],
      "payable": false,
      "stateMutability": "view",
      "type": "function"
    },
    {
      "constant": true,
      "inputs": [],
      "name": "name",
      "outputs": [
        {
          "name": "",
          "type": "string"
        }
      ],
      "payable": false,
      "stateMutability": "view",
      "type": "function"
    },
    {
      "constant": true,
      "inputs": [],
      "name": "totalSupply",
      "outputs": [
        {
          "name": "",
          "type": "uint256"
        }
      ],
      "payable": false,
      "stateMutability": "view",
      "type": "function"
    },
    {
      "constant": true,
      "inputs": [],
      "name": "decimals",
      "outputs": [
        {
          "name": "",
          "type": "uint256"
        }
      ],
      "payable": false,
      "stateMutability": "view",
      "type": "function"
    },
    {
      "constant": true,
      "inputs": [
        {
          "name": "",
          "type": "address"
        }
      ],
      "name": "icoEtherContributed",
      "outputs": [
        {
          "name": "",
          "type": "uint256"
        }
      ],
      "payable": false,
      "stateMutability": "view",
      "type": "function"
    },
    {
      "constant": true,
      "inputs": [],
      "name": "MIN_FUNDING_GOAL",
      "outputs": [
        {
          "name": "",
          "type": "uint256"
        }
      ],
      "payable": false,
      "stateMutability": "view",
      "type": "function"
    },
    {
      "constant": true,
      "inputs": [],
      "name": "BONUS_ICO_ROUND2",
      "outputs": [
        {
          "name": "",
          "type": "uint256"
        }
      ],
      "payable": false,
      "stateMutability": "view",
      "type": "function"
    },
    {
      "constant": true,
      "inputs": [],
      "name": "MIN_CONTRIBUTION",
      "outputs": [
        {
          "name": "",
          "type": "uint256"
        }
      ],
      "payable": false,
      "stateMutability": "view",
      "type": "function"
    },
    {
      "constant": true,
      "inputs": [],
      "name": "BONUS_ICO_ROUND3",
      "outputs": [
        {
          "name": "",
          "type": "uint256"
        }
      ],
      "payable": false,
      "stateMutability": "view",
      "type": "function"
    },
    {
      "constant": true,
      "inputs": [],
      "name": "DATE_PRESALE_END",
      "outputs": [
        {
          "name": "",
          "type": "uint256"
        }
      ],
      "payable": false,
      "stateMutability": "view",
      "type": "function"
    },
    {
      "constant": true,
      "inputs": [],
      "name": "tokensClaimedAirdrop",
      "outputs": [
        {
          "name": "",
          "type": "uint256"
        }
      ],
      "payable": false,
      "stateMutability": "view",
      "type": "function"
    },
    {
      "constant": true,
      "inputs": [],
      "name": "BONUS_ICO_ROUND1",
      "outputs": [
        {
          "name": "",
          "type": "uint256"
        }
      ],
      "payable": false,
      "stateMutability": "view",
      "type": "function"
    },
    {
      "constant": true,
      "inputs": [],
      "name": "MAX_CONTRIBUTION",
      "outputs": [
        {
          "name": "",
          "type": "uint256"
        }
      ],
      "payable": false,
      "stateMutability": "view",
      "type": "function"
    },
    {
      "constant": true,
      "inputs": [],
      "name": "DATE_ICO_START",
      "outputs": [
        {
          "name": "",
          "type": "uint256"
        }
      ],
      "payable": false,
      "stateMutability": "view",
      "type": "function"
    },
    {
      "constant": true,
      "inputs": [],
      "name": "symbol",
      "outputs": [
        {
          "name": "",
          "type": "string"
        }
      ],
      "payable": false,
      "stateMutability": "view",
      "type": "function"
    },
    {
      "constant": true,
      "inputs": [
        {
          "name": "",
          "type": "address"
        }
      ],
      "name": "refundClaimed",
      "outputs": [
        {
          "name": "",
          "type": "bool"
        }
      ],
      "payable": false,
      "stateMutability": "view",
      "type": "function"
    },
    {
      "constant": true,
      "inputs": [],
      "name": "DATE_ICO_END",
      "outputs": [
        {
          "name": "",
          "type": "uint256"
        }
      ],
      "payable": false,
      "stateMutability": "view",
      "type": "function"
    },
    {
      "constant": true,
      "inputs": [],
      "name": "distributionFinished",
      "outputs": [
        {
          "name": "",
          "type": "bool"
        }
      ],
      "payable": false,
      "stateMutability": "view",
      "type": "function"
    },
    {
      "constant": true,
      "inputs": [],
      "name": "tokensPerEth",
      "outputs": [
        {
          "name": "",
          "type": "uint256"
        }
      ],
      "payable": false,
      "stateMutability": "view",
      "type": "function"
    },
    {
      "constant": true,
      "inputs": [
        {
          "name": "",
          "type": "address"
        }
      ],
      "name": "locked",
      "outputs": [
        {
          "name": "",
          "type": "bool"
        }
      ],
      "payable": false,
      "stateMutability": "view",
      "type": "function"
    },
    {
      "constant": true,
      "inputs": [
        {
          "name": "",
          "type": "address"
        }
      ],
      "name": "icoTokensReceived",
      "outputs": [
        {
          "name": "",
          "type": "uint256"
        }
      ],
      "payable": false,
      "stateMutability": "view",
      "type": "function"
    },
    {
      "constant": true,
      "inputs": [
        {
          "name": "",
          "type": "address"
        }
      ],
      "name": "airdropClaimed",
      "outputs": [
        {
          "name": "",
          "type": "bool"
        }
      ],
      "payable": false,
      "stateMutability": "view",
      "type": "function"
    },
    {
      "constant": true,
      "inputs": [],
      "name": "totalRemaining",
      "outputs": [
        {
          "name": "",
          "type": "uint256"
        }
      ],
      "payable": false,
      "stateMutability": "view",
      "type": "function"
    },
    {
      "constant": true,
      "inputs": [],
      "name": "MIN_CONTRIBUTION_PRESALE",
      "outputs": [
        {
          "name": "",
          "type": "uint256"
        }
      ],
      "payable": false,
      "stateMutability": "view",
      "type": "function"
    },
    {
      "constant": true,
      "inputs": [],
      "name": "totalDistributedAirdrop",
      "outputs": [
        {
          "name": "",
          "type": "uint256"
        }
      ],
      "payable": false,
      "stateMutability": "view",
      "type": "function"
    },
    {
      "constant": true,
      "inputs": [],
      "name": "totalDistributed",
      "outputs": [
        {
          "name": "",
          "type": "uint256"
        }
      ],
      "payable": false,
      "stateMutability": "view",
      "type": "function"
    },
    {
      "constant": true,
      "inputs": [],
      "name": "tokensAirdrop",
      "outputs": [
        {
          "name": "",
          "type": "uint256"
        }
      ],
      "payable": false,
      "stateMutability": "view",
      "type": "function"
    },
    {
      "inputs": [],
      "payable": false,
      "stateMutability": "nonpayable",
      "type": "constructor"
    },
    {
      "payable": true,
      "stateMutability": "payable",
      "type": "fallback"
    },
    {
      "anonymous": false,
      "inputs": [
        {
          "indexed": false,
          "name": "_tokensPerEth",
          "type": "uint256"
        }
      ],
      "name": "TokensPerEthUpdated",
      "type": "event"
    },
    {
      "anonymous": false,
      "inputs": [
        {
          "indexed": true,
          "name": "_from",
          "type": "address"
        },
        {
          "indexed": true,
          "name": "_to",
          "type": "address"
        },
        {
          "indexed": false,
          "name": "_value",
          "type": "uint256"
        }
      ],
      "name": "Transfer",
      "type": "event"
    },
    {
      "anonymous": false,
      "inputs": [
        {
          "indexed": true,
          "name": "_owner",
          "type": "address"
        },
        {
          "indexed": true,
          "name": "_spender",
          "type": "address"
        },
        {
          "indexed": false,
          "name": "_value",
          "type": "uint256"
        }
      ],
      "name": "Approval",
      "type": "event"
    },
    {
      "anonymous": false,
      "inputs": [
        {
          "indexed": true,
          "name": "_owner",
          "type": "address"
        },
        {
          "indexed": false,
          "name": "_amount",
          "type": "uint256"
        },
        {
          "indexed": false,
          "name": "_tokens",
          "type": "uint256"
        }
      ],
      "name": "Refund",
      "type": "event"
    },
    {
      "anonymous": false,
      "inputs": [
        {
          "indexed": true,
          "name": "to",
          "type": "address"
        },
        {
          "indexed": false,
          "name": "amount",
          "type": "uint256"
        }
      ],
      "name": "Distr",
      "type": "event"
    },
    {
      "anonymous": false,
      "inputs": [],
      "name": "DistrFinished",
      "type": "event"
    },
    {
      "anonymous": false,
      "inputs": [
        {
          "indexed": true,
          "name": "_owner",
          "type": "address"
        },
        {
          "indexed": false,
          "name": "_amount",
          "type": "uint256"
        },
        {
          "indexed": false,
          "name": "_balance",
          "type": "uint256"
        }
      ],
      "name": "Airdrop",
      "type": "event"
    },
    {
      "anonymous": false,
      "inputs": [
        {
          "indexed": true,
          "name": "burner",
          "type": "address"
        },
        {
          "indexed": false,
          "name": "value",
          "type": "uint256"
        }
      ],
      "name": "Burn",
      "type": "event"
    },
    {
      "anonymous": false,
      "inputs": [
        {
          "indexed": true,
          "name": "_participant",
          "type": "address"
        }
      ],
      "name": "LockRemoved",
      "type": "event"
    },
    {
      "constant": true,
      "inputs": [],
      "name": "atNow",
      "outputs": [
        {
          "name": "",
          "type": "uint256"
        }
      ],
      "payable": false,
      "stateMutability": "view",
      "type": "function"
    },
    {
      "constant": true,
      "inputs": [],
      "name": "icoThresholdReached",
      "outputs": [
        {
          "name": "thresholdReached",
          "type": "bool"
        }
      ],
      "payable": false,
      "stateMutability": "view",
      "type": "function"
    },
    {
      "constant": false,
      "inputs": [
        {
          "name": "newOwner",
          "type": "address"
        }
      ],
      "name": "transferOwnership",
      "outputs": [],
      "payable": false,
      "stateMutability": "nonpayable",
      "type": "function"
    },
    {
      "constant": false,
      "inputs": [],
      "name": "finishDistribution",
      "outputs": [
        {
          "name": "",
          "type": "bool"
        }
      ],
      "payable": false,
      "stateMutability": "nonpayable",
      "type": "function"
    },
    {
      "constant": false,
      "inputs": [
        {
          "name": "addresses",
          "type": "address[]"
        },
        {
          "name": "amount",
          "type": "uint256"
        }
      ],
      "name": "distribution",
      "outputs": [],
      "payable": false,
      "stateMutability": "nonpayable",
      "type": "function"
    },
    {
      "constant": false,
      "inputs": [
        {
          "name": "addresses",
          "type": "address[]"
        },
        {
          "name": "amounts",
          "type": "uint256[]"
        }
      ],
      "name": "distributeAmounts",
      "outputs": [],
      "payable": false,
      "stateMutability": "nonpayable",
      "type": "function"
    },
    {
      "constant": false,
      "inputs": [
        {
          "name": "_participant",
          "type": "address"
        },
        {
          "name": "airdrop",
          "type": "uint256"
        }
      ],
      "name": "adminClaimAirdrop",
      "outputs": [],
      "payable": false,
      "stateMutability": "nonpayable",
      "type": "function"
    },
    {
      "constant": false,
      "inputs": [
        {
          "name": "_addresses",
          "type": "address[]"
        },
        {
          "name": "airdrop",
          "type": "uint256"
        }
      ],
      "name": "adminClaimAirdropMultiple",
      "outputs": [],
      "payable": false,
      "stateMutability": "nonpayable",
      "type": "function"
    },
    {
      "constant": false,
      "inputs": [
        {
          "name": "_addresses",
          "type": "address[]"
        }
      ],
      "name": "systemClaimAirdropMultiple",
      "outputs": [],
      "payable": false,
      "stateMutability": "nonpayable",
      "type": "function"
    },
    {
      "constant": false,
      "inputs": [
        {
          "name": "_tokensPerEth",
          "type": "uint256"
        }
      ],
      "name": "updateTokensPerEth",
      "outputs": [],
      "payable": false,
      "stateMutability": "nonpayable",
      "type": "function"
    },
    {
      "constant": false,
      "inputs": [],
      "name": "buyTokens",
      "outputs": [],
      "payable": true,
      "stateMutability": "payable",
      "type": "function"
    },
    {
      "constant": true,
      "inputs": [
        {
          "name": "_owner",
          "type": "address"
        }
      ],
      "name": "balanceOf",
      "outputs": [
        {
          "name": "",
          "type": "uint256"
        }
      ],
      "payable": false,
      "stateMutability": "view",
      "type": "function"
    },
    {
      "constant": false,
      "inputs": [
        {
          "name": "_participant",
          "type": "address"
        }
      ],
      "name": "removeLock",
      "outputs": [],
      "payable": false,
      "stateMutability": "nonpayable",
      "type": "function"
    },
    {
      "constant": false,
      "inputs": [
        {
          "name": "_participants",
          "type": "address[]"
        }
      ],
      "name": "removeLockMultiple",
      "outputs": [],
      "payable": false,
      "stateMutability": "nonpayable",
      "type": "function"
    },
    {
      "constant": false,
      "inputs": [
        {
          "name": "_to",
          "type": "address"
        },
        {
          "name": "_amount",
          "type": "uint256"
        }
      ],
      "name": "transfer",
      "outputs": [
        {
          "name": "success",
          "type": "bool"
        }
      ],
      "payable": false,
      "stateMutability": "nonpayable",
      "type": "function"
    },
    {
      "constant": false,
      "inputs": [
        {
          "name": "_from",
          "type": "address"
        },
        {
          "name": "_to",
          "type": "address"
        },
        {
          "name": "_amount",
          "type": "uint256"
        }
      ],
      "name": "transferFrom",
      "outputs": [
        {
          "name": "success",
          "type": "bool"
        }
      ],
      "payable": false,
      "stateMutability": "nonpayable",
      "type": "function"
    },
    {
      "constant": false,
      "inputs": [
        {
          "name": "_spender",
          "type": "address"
        },
        {
          "name": "_value",
          "type": "uint256"
        }
      ],
      "name": "approve",
      "outputs": [
        {
          "name": "success",
          "type": "bool"
        }
      ],
      "payable": false,
      "stateMutability": "nonpayable",
      "type": "function"
    },
    {
      "constant": true,
      "inputs": [
        {
          "name": "_owner",
          "type": "address"
        },
        {
          "name": "_spender",
          "type": "address"
        }
      ],
      "name": "allowance",
      "outputs": [
        {
          "name": "",
          "type": "uint256"
        }
      ],
      "payable": false,
      "stateMutability": "view",
      "type": "function"
    },
    {
      "constant": true,
      "inputs": [
        {
          "name": "tokenAddress",
          "type": "address"
        },
        {
          "name": "who",
          "type": "address"
        }
      ],
      "name": "getTokenBalance",
      "outputs": [
        {
          "name": "",
          "type": "uint256"
        }
      ],
      "payable": false,
      "stateMutability": "view",
      "type": "function"
    },
    {
      "constant": false,
      "inputs": [],
      "name": "withdraw",
      "outputs": [],
      "payable": false,
      "stateMutability": "nonpayable",
      "type": "function"
    },
    {
      "constant": false,
      "inputs": [
        {
          "name": "_value",
          "type": "uint256"
        }
      ],
      "name": "burn",
      "outputs": [],
      "payable": false,
      "stateMutability": "nonpayable",
      "type": "function"
    },
    {
      "constant": false,
      "inputs": [
        {
          "name": "_tokenContract",
          "type": "address"
        }
      ],
      "name": "withdrawForeignTokens",
      "outputs": [
        {
          "name": "",
          "type": "bool"
        }
      ],
      "payable": false,
      "stateMutability": "nonpayable",
      "type": "function"
    },
    {
      "constant": false,
      "inputs": [
        {
          "name": "_participant",
          "type": "address"
        }
      ],
      "name": "reclaimFund",
      "outputs": [],
      "payable": false,
      "stateMutability": "nonpayable",
      "type": "function"
    },
    {
      "constant": false,
      "inputs": [
        {
          "name": "_participants",
          "type": "address[]"
        }
      ],
      "name": "reclaimFundMultiple",
      "outputs": [],
      "payable": false,
      "stateMutability": "nonpayable",
      "type": "function"
    }
  ],
  "bytecode": "0x608060405233600160006101000a81548173ffffffffffffffffffffffffffffffffffffffff021916908373ffffffffffffffffffffffffffffffffffffffff160217905550670de0b6b3a7640000620f42406103e80202600955670de0b6b3a7640000620f424060dc0202600a5562000095600a5460095462000181640100000000026200320a179091906401000000009004565b600b55670de0b6b3a7640000614e2002600c55670de0b6b3a764000061010a02600d556000600e55670de0b6b3a7640000620f424060140202600f556000601060006101000a81548160ff021916908315150217905550348015620000f957600080fd5b5033600160006101000a81548173ffffffffffffffffffffffffffffffffffffffff021916908373ffffffffffffffffffffffffffffffffffffffff1602179055506200017a600160009054906101000a900473ffffffffffffffffffffffffffffffffffffffff16600a546200019b640100000000026401000000009004565b5062000534565b60008282111515156200019057fe5b818303905092915050565b6000601060009054906101000a900460ff16151515620001ba57600080fd5b620001df82600a54620005156401000000000262002e90179091906401000000009004565b600a819055506200020a82600b5462000181640100000000026200320a179091906401000000009004565b600b819055506200027282600260008673ffffffffffffffffffffffffffffffffffffffff1673ffffffffffffffffffffffffffffffffffffffff16815260200190815260200160002054620005156401000000000262002e90179091906401000000009004565b600260008573ffffffffffffffffffffffffffffffffffffffff1673ffffffffffffffffffffffffffffffffffffffff168152602001908152602001600020819055506200031782600860003373ffffffffffffffffffffffffffffffffffffffff1673ffffffffffffffffffffffffffffffffffffffff16815260200190815260200160002054620005156401000000000262002e90179091906401000000009004565b600860003373ffffffffffffffffffffffffffffffffffffffff1673ffffffffffffffffffffffffffffffffffffffff16815260200190815260200160002081905550620003bc34600760003373ffffffffffffffffffffffffffffffffffffffff1673ffffffffffffffffffffffffffffffffffffffff16815260200190815260200160002054620005156401000000000262002e90179091906401000000009004565b600760003373ffffffffffffffffffffffffffffffffffffffff1673ffffffffffffffffffffffffffffffffffffffff168152602001908152602001600020819055506001600660003373ffffffffffffffffffffffffffffffffffffffff1673ffffffffffffffffffffffffffffffffffffffff16815260200190815260200160002060006101000a81548160ff0219169083151502179055508273ffffffffffffffffffffffffffffffffffffffff167f8940c4b8e215f8822c5c8f0056c12652c746cbc57eedbd2a440b175971d47a77836040518082815260200191505060405180910390a28273ffffffffffffffffffffffffffffffffffffffff16600073ffffffffffffffffffffffffffffffffffffffff167fddf252ad1be2c89b69c2b068fc378daa952ba7f163c4a11628f55a4df523b3ef846040518082815260200191505060405180910390a36001905092915050565b60008082840190508381101515156200052a57fe5b8091505092915050565b6134ad80620005446000396000f300608060405260043610610272576000357c0100000000000000000000000000000000000000000000000000000000900463ffffffff168063023bb74d1461027c57806305502a62146102a757806306fdde03146102d2578063095ea7b31461036257806318160ddd146103c757806323b872dd146103f2578063313ce56714610477578063347e26c0146104a257806336d95f56146104f95780633ccfd60b146105245780633d20d9b01461053b5780633e8786a11461056657806340650c91146105a957806342966c68146105d45780634a387bef146106015780634a63464d146106445780635c72de09146106915780635ef79434146106bc578063615ef639146106e757806367220fd7146107125780637024ce7b1461075757806370a082311461078257806379905753146107d957806381aea6681461083f57806394d95f8f1461086a57806395cc2e8b1461089557806395d89b41146108c05780639b1cbccc146109505780639ea407be1461097f578063a8c310d5146109ac578063a9059cbb14610a55578063b3e99b7714610aba578063b557478a14610af5578063c0c133a814610b50578063c108d54214610b7b578063c489744b14610baa578063cbdd69b514610c21578063cbf9fe5f14610c4c578063ce916d8514610ca7578063d0febe4c14610cfe578063d1b6dd3014610d08578063d8a5436014610d63578063dbaaa2dd14610d8e578063dd62ed3e14610db9578063e09413ba14610e30578063e3fe974014610e5b578063e58fc54c14610e8a578063efca2eed14610ee5578063f2fde38b14610f10578063f3e4877c14610f53578063f5ab865a14610fc3578063fcc1cc9b14610fee575b61027a611054565b005b34801561028857600080fd5b506102916112f6565b6040518082815260200191505060405180910390f35b3480156102b357600080fd5b506102bc6112fe565b6040518082815260200191505060405180910390f35b3480156102de57600080fd5b506102e7611303565b6040518080602001828103825283818151815260200191508051906020019080838360005b8381101561032757808201518184015260208101905061030c565b50505050905090810190601f1680156103545780820380516001836020036101000a031916815260200191505b509250505060405180910390f35b34801561036e57600080fd5b506103ad600480360381019080803573ffffffffffffffffffffffffffffffffffffffff1690602001909291908035906020019092919050505061133c565b604051808215151515815260200191505060405180910390f35b3480156103d357600080fd5b506103dc6114ca565b6040518082815260200191505060405180910390f35b3480156103fe57600080fd5b5061045d600480360381019080803573ffffffffffffffffffffffffffffffffffffffff169060200190929190803573ffffffffffffffffffffffffffffffffffffffff169060200190929190803590602001909291905050506114d0565b604051808215151515815260200191505060405180910390f35b34801561048357600080fd5b5061048c611964565b6040518082815260200191505060405180910390f35b3480156104ae57600080fd5b506104e3600480360381019080803573ffffffffffffffffffffffffffffffffffffffff169060200190929190505050611969565b6040518082815260200191505060405180910390f35b34801561050557600080fd5b5061050e611981565b6040518082815260200191505060405180910390f35b34801561053057600080fd5b5061053961198f565b005b34801561054757600080fd5b50610550611a78565b6040518082815260200191505060405180910390f35b34801561057257600080fd5b506105a7600480360381019080803573ffffffffffffffffffffffffffffffffffffffff169060200190929190505050611a7d565b005b3480156105b557600080fd5b506105be611dcf565b6040518082815260200191505060405180910390f35b3480156105e057600080fd5b506105ff60048036038101908080359060200190929190505050611dda565b005b34801561060d57600080fd5b50610642600480360381019080803573ffffffffffffffffffffffffffffffffffffffff169060200190929190505050611fa6565b005b34801561065057600080fd5b5061068f600480360381019080803573ffffffffffffffffffffffffffffffffffffffff16906020019092919080359060200190929190505050612044565b005b34801561069d57600080fd5b506106a6612052565b6040518082815260200191505060405180910390f35b3480156106c857600080fd5b506106d1612057565b6040518082815260200191505060405180910390f35b3480156106f357600080fd5b506106fc61205f565b6040518082815260200191505060405180910390f35b34801561071e57600080fd5b5061075560048036038101908080359060200190820180359060200191909192939192939080359060200190929190505050612065565b005b34801561076357600080fd5b5061076c6120bd565b6040518082815260200191505060405180910390f35b34801561078e57600080fd5b506107c3600480360381019080803573ffffffffffffffffffffffffffffffffffffffff1690602001909291905050506120c2565b6040518082815260200191505060405180910390f35b3480156107e557600080fd5b5061083d6004803603810190808035906020019082018035906020019080806020026020016040519081016040528093929190818152602001838360200280828437820191505050505050919291929050505061210b565b005b34801561084b57600080fd5b5061085461214b565b6040518082815260200191505060405180910390f35b34801561087657600080fd5b5061087f612153565b6040518082815260200191505060405180910390f35b3480156108a157600080fd5b506108aa612160565b6040518082815260200191505060405180910390f35b3480156108cc57600080fd5b506108d5612168565b6040518080602001828103825283818151815260200191508051906020019080838360005b838110156109155780820151818401526020810190506108fa565b50505050905090810190601f1680156109425780820380516001836020036101000a031916815260200191505b509250505060405180910390f35b34801561095c57600080fd5b506109656121a1565b604051808215151515815260200191505060405180910390f35b34801561098b57600080fd5b506109aa60048036038101908080359060200190929190505050612269565b005b3480156109b857600080fd5b50610a53600480360381019080803590602001908201803590602001908080602002602001604051908101604052809392919081815260200183836020028082843782019150505050505091929192908035906020019082018035906020019080806020026020016040519081016040528093929190818152602001838360200280828437820191505050505050919291929050505061231f565b005b348015610a6157600080fd5b50610aa0600480360381019080803573ffffffffffffffffffffffffffffffffffffffff1690602001909291908035906020019092919050505061245f565b604051808215151515815260200191505060405180910390f35b348015610ac657600080fd5b50610af3600480360381019080803590602001908201803590602001919091929391929390505050612758565b005b348015610b0157600080fd5b50610b36600480360381019080803573ffffffffffffffffffffffffffffffffffffffff1690602001909291905050506127b7565b604051808215151515815260200191505060405180910390f35b348015610b5c57600080fd5b50610b656127d7565b6040518082815260200191505060405180910390f35b348015610b8757600080fd5b50610b906127df565b604051808215151515815260200191505060405180910390f35b348015610bb657600080fd5b50610c0b600480360381019080803573ffffffffffffffffffffffffffffffffffffffff169060200190929190803573ffffffffffffffffffffffffffffffffffffffff1690602001909291905050506127f2565b6040518082815260200191505060405180910390f35b348015610c2d57600080fd5b50610c366128dd565b6040518082815260200191505060405180910390f35b348015610c5857600080fd5b50610c8d600480360381019080803573ffffffffffffffffffffffffffffffffffffffff1690602001909291905050506128e3565b604051808215151515815260200191505060405180910390f35b348015610cb357600080fd5b50610ce8600480360381019080803573ffffffffffffffffffffffffffffffffffffffff169060200190929190505050612903565b6040518082815260200191505060405180910390f35b610d06611054565b005b348015610d1457600080fd5b50610d49600480360381019080803573ffffffffffffffffffffffffffffffffffffffff16906020019092919050505061291b565b604051808215151515815260200191505060405180910390f35b348015610d6f57600080fd5b50610d7861293b565b6040518082815260200191505060405180910390f35b348015610d9a57600080fd5b50610da3612941565b6040518082815260200191505060405180910390f35b348015610dc557600080fd5b50610e1a600480360381019080803573ffffffffffffffffffffffffffffffffffffffff169060200190929190803573ffffffffffffffffffffffffffffffffffffffff16906020019092919050505061294d565b6040518082815260200191505060405180910390f35b348015610e3c57600080fd5b50610e456129d4565b6040518082815260200191505060405180910390f35b348015610e6757600080fd5b50610e706129da565b604051808215151515815260200191505060405180910390f35b348015610e9657600080fd5b50610ecb600480360381019080803573ffffffffffffffffffffffffffffffffffffffff169060200190929190505050612a21565b604051808215151515815260200191505060405180910390f35b348015610ef157600080fd5b50610efa612c66565b6040518082815260200191505060405180910390f35b348015610f1c57600080fd5b50610f51600480360381019080803573ffffffffffffffffffffffffffffffffffffffff169060200190929190505050612c6c565b005b348015610f5f57600080fd5b50610fc16004803603810190808035906020019082018035906020019080806020026020016040519081016040528093929190818152602001838360200280828437820191505050505050919291929080359060200190929190505050612d43565b005b348015610fcf57600080fd5b50610fd8612e4a565b6040518082815260200191505060405180910390f35b348015610ffa57600080fd5b5061105260048036038101908080359060200190820180359060200190808060200260200160405190810160405280939291908181526020018383602002808284378201915050505050509192919290505050612e50565b005b6000806000806000601060009054906101000a900460ff1615151561107857600080fd5b61108061214b565b9450600093506000925060009150662386f26fc1000034101515156110a457600080fd5b68056bc75e2d6310000061110034600760003373ffffffffffffffffffffffffffffffffffffffff1673ffffffffffffffffffffffffffffffffffffffff16815260200190815260200160002054612e9090919063ffffffff16565b1115151561110d57600080fd5b635ae961f0851180156111235750635afbd6f085105b1561112d57600193505b635afbd72c851180156111435750635b6008f085105b1561114d57600192505b83806111565750825b151561116157600080fd5b831561117f57670de0b6b3a7640000341015151561117e57600080fd5b5b339050670de0b6b3a76400006111a034600c54612eae90919063ffffffff16565b8115156111a957fe5b04915083156111dc5760646111cb601e60640184612eae90919063ffffffff16565b8115156111d457fe5b04915061128c565b62127500635afbd72c01851015611217576064611206601460640184612eae90919063ffffffff16565b81151561120f57fe5b04915061128b565b6224ea00635afbd72c01851015611252576064611241600a60640184612eae90919063ffffffff16565b81151561124a57fe5b04915061128a565b62375f00635afbd72c0185101561128957606461127c600560640184612eae90919063ffffffff16565b81151561128557fe5b0491505b5b5b5b600b546112a483600a54612e9090919063ffffffff16565b111515156112b157600080fd5b60008211156112c6576112c48183612ee1565b505b600954600a541015156112ef576001601060006101000a81548160ff0219169083151502179055505b5050505050565b635ae961f081565b601e81565b6040805190810160405280600a81526020017f56696b6b79546f6b656e0000000000000000000000000000000000000000000081525081565b60008082141580156113cb57506000600360003373ffffffffffffffffffffffffffffffffffffffff1673ffffffffffffffffffffffffffffffffffffffff16815260200190815260200160002060008573ffffffffffffffffffffffffffffffffffffffff1673ffffffffffffffffffffffffffffffffffffffff1681526020019081526020016000205414155b156113d957600090506114c4565b81600360003373ffffffffffffffffffffffffffffffffffffffff1673ffffffffffffffffffffffffffffffffffffffff16815260200190815260200160002060008573ffffffffffffffffffffffffffffffffffffffff1673ffffffffffffffffffffffffffffffffffffffff168152602001908152602001600020819055508273ffffffffffffffffffffffffffffffffffffffff163373ffffffffffffffffffffffffffffffffffffffff167f8c5be1e5ebec7d5bd14f71427d1e84f3dd0314c0f7b2291e5b200ac8c7c3b925846040518082815260200191505060405180910390a3600190505b92915050565b60095481565b60006060600481016000369050101515156114e757fe5b600073ffffffffffffffffffffffffffffffffffffffff168473ffffffffffffffffffffffffffffffffffffffff161415151561152357600080fd5b600260008673ffffffffffffffffffffffffffffffffffffffff1673ffffffffffffffffffffffffffffffffffffffff16815260200190815260200160002054831115151561157157600080fd5b600360008673ffffffffffffffffffffffffffffffffffffffff1673ffffffffffffffffffffffffffffffffffffffff16815260200190815260200160002060003373ffffffffffffffffffffffffffffffffffffffff1673ffffffffffffffffffffffffffffffffffffffff1681526020019081526020016000205483111515156115fc57600080fd5b60001515600660003373ffffffffffffffffffffffffffffffffffffffff1673ffffffffffffffffffffffffffffffffffffffff16815260200190815260200160002060009054906101000a900460ff16151514151561165b57600080fd5b60001515600660008673ffffffffffffffffffffffffffffffffffffffff1673ffffffffffffffffffffffffffffffffffffffff16815260200190815260200160002060009054906101000a900460ff1615151415156116ba57600080fd5b61170c83600260008873ffffffffffffffffffffffffffffffffffffffff1673ffffffffffffffffffffffffffffffffffffffff1681526020019081526020016000205461320a90919063ffffffff16565b600260008773ffffffffffffffffffffffffffffffffffffffff1673ffffffffffffffffffffffffffffffffffffffff168152602001908152602001600020819055506117de83600360008873ffffffffffffffffffffffffffffffffffffffff1673ffffffffffffffffffffffffffffffffffffffff16815260200190815260200160002060003373ffffffffffffffffffffffffffffffffffffffff1673ffffffffffffffffffffffffffffffffffffffff1681526020019081526020016000205461320a90919063ffffffff16565b600360008773ffffffffffffffffffffffffffffffffffffffff1673ffffffffffffffffffffffffffffffffffffffff16815260200190815260200160002060003373ffffffffffffffffffffffffffffffffffffffff1673ffffffffffffffffffffffffffffffffffffffff168152602001908152602001600020819055506118b083600260008773ffffffffffffffffffffffffffffffffffffffff1673ffffffffffffffffffffffffffffffffffffffff16815260200190815260200160002054612e9090919063ffffffff16565b600260008673ffffffffffffffffffffffffffffffffffffffff1673ffffffffffffffffffffffffffffffffffffffff168152602001908152602001600020819055508373ffffffffffffffffffffffffffffffffffffffff168573ffffffffffffffffffffffffffffffffffffffff167fddf252ad1be2c89b69c2b068fc378daa952ba7f163c4a11628f55a4df523b3ef856040518082815260200191505060405180910390a360019150509392505050565b601281565b60076020528060005260406000206000915090505481565b69010f0cf064dd5920000081565b600080600160009054906101000a900473ffffffffffffffffffffffffffffffffffffffff1673ffffffffffffffffffffffffffffffffffffffff163373ffffffffffffffffffffffffffffffffffffffff161415156119ee57600080fd5b3091508173ffffffffffffffffffffffffffffffffffffffff16319050600160009054906101000a900473ffffffffffffffffffffffffffffffffffffffff1673ffffffffffffffffffffffffffffffffffffffff166108fc829081150290604051600060405180830381858888f19350505050158015611a73573d6000803e3d6000fd5b505050565b600a81565b600080635b6008f0611a8d61214b565b118015611a9f5750611a9d6129da565b155b1515611aaa57600080fd5b600560008473ffffffffffffffffffffffffffffffffffffffff1673ffffffffffffffffffffffffffffffffffffffff16815260200190815260200160002060009054906101000a900460ff16151515611b0357600080fd5b6000600760008573ffffffffffffffffffffffffffffffffffffffff1673ffffffffffffffffffffffffffffffffffffffff16815260200190815260200160002054111515611b5157600080fd5b600860008473ffffffffffffffffffffffffffffffffffffffff1673ffffffffffffffffffffffffffffffffffffffff168152602001908152602001600020549150600760008473ffffffffffffffffffffffffffffffffffffffff1673ffffffffffffffffffffffffffffffffffffffff168152602001908152602001600020549050611c2782600260008673ffffffffffffffffffffffffffffffffffffffff1673ffffffffffffffffffffffffffffffffffffffff1681526020019081526020016000205461320a90919063ffffffff16565b600260008573ffffffffffffffffffffffffffffffffffffffff1673ffffffffffffffffffffffffffffffffffffffff16815260200190815260200160002081905550611c7f82600a5461320a90919063ffffffff16565b600a819055506001600560008573ffffffffffffffffffffffffffffffffffffffff1673ffffffffffffffffffffffffffffffffffffffff16815260200190815260200160002060006101000a81548160ff0219169083151502179055508273ffffffffffffffffffffffffffffffffffffffff166108fc829081150290604051600060405180830381858888f19350505050158015611d23573d6000803e3d6000fd5b5060008373ffffffffffffffffffffffffffffffffffffffff167fddf252ad1be2c89b69c2b068fc378daa952ba7f163c4a11628f55a4df523b3ef846040518082815260200191505060405180910390a38273ffffffffffffffffffffffffffffffffffffffff167f73f04af9dcc582a923ec15d3eea990fe34adabfff2879e28d44572e01a54abb68284604051808381526020018281526020019250505060405180910390a2505050565b662386f26fc1000081565b6000600160009054906101000a900473ffffffffffffffffffffffffffffffffffffffff1673ffffffffffffffffffffffffffffffffffffffff163373ffffffffffffffffffffffffffffffffffffffff16141515611e3857600080fd5b600260003373ffffffffffffffffffffffffffffffffffffffff1673ffffffffffffffffffffffffffffffffffffffff168152602001908152602001600020548211151515611e8657600080fd5b339050611edb82600260008473ffffffffffffffffffffffffffffffffffffffff1673ffffffffffffffffffffffffffffffffffffffff1681526020019081526020016000205461320a90919063ffffffff16565b600260008373ffffffffffffffffffffffffffffffffffffffff1673ffffffffffffffffffffffffffffffffffffffff16815260200190815260200160002081905550611f338260095461320a90919063ffffffff16565b600981905550611f4e82600a5461320a90919063ffffffff16565b600a819055508073ffffffffffffffffffffffffffffffffffffffff167fcc16f5dbb4873280815c1ee09dbd06736cffcc184412cf7a71a0fdb75d397ca5836040518082815260200191505060405180910390a25050565b6000600660008373ffffffffffffffffffffffffffffffffffffffff1673ffffffffffffffffffffffffffffffffffffffff16815260200190815260200160002060006101000a81548160ff0219169083151502179055508073ffffffffffffffffffffffffffffffffffffffff167f064f67e76df103eb3e142dac6110a06fcfc7a01ef2da651312b88eb6f0dd3d2860405160405180910390a250565b61204e8282613223565b5050565b600581565b635afbd6f081565b600e5481565b60008090505b838390508110156120b7576120aa848483818110151561208757fe5b9050602002013573ffffffffffffffffffffffffffffffffffffffff1683613223565b808060010191505061206b565b50505050565b601481565b6000600260008373ffffffffffffffffffffffffffffffffffffffff1673ffffffffffffffffffffffffffffffffffffffff168152602001908152602001600020549050919050565b60008090505b81518110156121475761213a828281518110151561212b57fe5b90602001906020020151611a7d565b8080600101915050612111565b5050565b600042905090565b68056bc75e2d6310000081565b635afbd72c81565b6040805190810160405280600381526020017f56494b000000000000000000000000000000000000000000000000000000000081525081565b6000600160009054906101000a900473ffffffffffffffffffffffffffffffffffffffff1673ffffffffffffffffffffffffffffffffffffffff163373ffffffffffffffffffffffffffffffffffffffff161415156121ff57600080fd5b601060009054906101000a900460ff1615151561221b57600080fd5b6001601060006101000a81548160ff0219169083151502179055507f7f95d919e78bdebe8a285e6e33357c2fcb65ccf66e72d7573f9f8f6caad0c4cc60405160405180910390a16001905090565b600160009054906101000a900473ffffffffffffffffffffffffffffffffffffffff1673ffffffffffffffffffffffffffffffffffffffff163373ffffffffffffffffffffffffffffffffffffffff161415156122c557600080fd5b635ae961f06122d261214b565b1015156122de57600080fd5b80600c819055507ff7729fa834bbef70b6d3257c2317a562aa88b56c81b544814f93dc5963a2c003816040518082815260200191505060405180910390a150565b6000600160009054906101000a900473ffffffffffffffffffffffffffffffffffffffff1673ffffffffffffffffffffffffffffffffffffffff163373ffffffffffffffffffffffffffffffffffffffff1614151561237d57600080fd5b601060009054906101000a900460ff1615151561239957600080fd5b815183511415156123a957600080fd5b600090505b82518160ff16101561245a57600b54828260ff168151811015156123ce57fe5b90602001906020020151111515156123e557600080fd5b612423838260ff168151811015156123f957fe5b90602001906020020151838360ff1681518110151561241457fe5b90602001906020020151612ee1565b50600954600a5410151561244d576001601060006101000a81548160ff0219169083151502179055505b80806001019150506123ae565b505050565b600060406004810160003690501015151561247657fe5b600073ffffffffffffffffffffffffffffffffffffffff168473ffffffffffffffffffffffffffffffffffffffff16141515156124b257600080fd5b600260003373ffffffffffffffffffffffffffffffffffffffff1673ffffffffffffffffffffffffffffffffffffffff16815260200190815260200160002054831115151561250057600080fd5b60001515600660003373ffffffffffffffffffffffffffffffffffffffff1673ffffffffffffffffffffffffffffffffffffffff16815260200190815260200160002060009054906101000a900460ff16151514151561255f57600080fd5b60001515600660008673ffffffffffffffffffffffffffffffffffffffff1673ffffffffffffffffffffffffffffffffffffffff16815260200190815260200160002060009054906101000a900460ff1615151415156125be57600080fd5b61261083600260003373ffffffffffffffffffffffffffffffffffffffff1673ffffffffffffffffffffffffffffffffffffffff1681526020019081526020016000205461320a90919063ffffffff16565b600260003373ffffffffffffffffffffffffffffffffffffffff1673ffffffffffffffffffffffffffffffffffffffff168152602001908152602001600020819055506126a583600260008773ffffffffffffffffffffffffffffffffffffffff1673ffffffffffffffffffffffffffffffffffffffff16815260200190815260200160002054612e9090919063ffffffff16565b600260008673ffffffffffffffffffffffffffffffffffffffff1673ffffffffffffffffffffffffffffffffffffffff168152602001908152602001600020819055508373ffffffffffffffffffffffffffffffffffffffff163373ffffffffffffffffffffffffffffffffffffffff167fddf252ad1be2c89b69c2b068fc378daa952ba7f163c4a11628f55a4df523b3ef856040518082815260200191505060405180910390a3600191505092915050565b600080600d549150600090505b838390508110156127b1576127a4848483818110151561278157fe5b9050602002013573ffffffffffffffffffffffffffffffffffffffff1683613223565b8080600101915050612765565b50505050565b60056020528060005260406000206000915054906101000a900460ff1681565b635b6008f081565b601060009054906101000a900460ff1681565b60008060008491508173ffffffffffffffffffffffffffffffffffffffff166370a08231856040518263ffffffff167c0100000000000000000000000000000000000000000000000000000000028152600401808273ffffffffffffffffffffffffffffffffffffffff1673ffffffffffffffffffffffffffffffffffffffff168152602001915050602060405180830381600087803b15801561289557600080fd5b505af11580156128a9573d6000803e3d6000fd5b505050506040513d60208110156128bf57600080fd5b81019080805190602001909291905050509050809250505092915050565b600c5481565b60066020528060005260406000206000915054906101000a900460ff1681565b60086020528060005260406000206000915090505481565b60046020528060005260406000206000915054906101000a900460ff1681565b600b5481565b670de0b6b3a764000081565b6000600360008473ffffffffffffffffffffffffffffffffffffffff1673ffffffffffffffffffffffffffffffffffffffff16815260200190815260200160002060008373ffffffffffffffffffffffffffffffffffffffff1673ffffffffffffffffffffffffffffffffffffffff16815260200190815260200160002054905092915050565b600f5481565b60008060003091508173ffffffffffffffffffffffffffffffffffffffff1631905069010f0cf064dd59200000811015612a175760009250612a1c565b600192505b505090565b6000806000600160009054906101000a900473ffffffffffffffffffffffffffffffffffffffff1673ffffffffffffffffffffffffffffffffffffffff163373ffffffffffffffffffffffffffffffffffffffff16141515612a8257600080fd5b8391508173ffffffffffffffffffffffffffffffffffffffff166370a08231306040518263ffffffff167c0100000000000000000000000000000000000000000000000000000000028152600401808273ffffffffffffffffffffffffffffffffffffffff1673ffffffffffffffffffffffffffffffffffffffff168152602001915050602060405180830381600087803b158015612b2057600080fd5b505af1158015612b34573d6000803e3d6000fd5b505050506040513d6020811015612b4a57600080fd5b810190808051906020019092919050505090508173ffffffffffffffffffffffffffffffffffffffff1663a9059cbb600160009054906101000a900473ffffffffffffffffffffffffffffffffffffffff16836040518363ffffffff167c0100000000000000000000000000000000000000000000000000000000028152600401808373ffffffffffffffffffffffffffffffffffffffff1673ffffffffffffffffffffffffffffffffffffffff16815260200182815260200192505050602060405180830381600087803b158015612c2257600080fd5b505af1158015612c36573d6000803e3d6000fd5b505050506040513d6020811015612c4c57600080fd5b810190808051906020019092919050505092505050919050565b600a5481565b600160009054906101000a900473ffffffffffffffffffffffffffffffffffffffff1673ffffffffffffffffffffffffffffffffffffffff163373ffffffffffffffffffffffffffffffffffffffff16141515612cc857600080fd5b600073ffffffffffffffffffffffffffffffffffffffff168173ffffffffffffffffffffffffffffffffffffffff16141515612d405780600160006101000a81548173ffffffffffffffffffffffffffffffffffffffff021916908373ffffffffffffffffffffffffffffffffffffffff1602179055505b50565b6000600160009054906101000a900473ffffffffffffffffffffffffffffffffffffffff1673ffffffffffffffffffffffffffffffffffffffff163373ffffffffffffffffffffffffffffffffffffffff16141515612da157600080fd5b601060009054906101000a900460ff16151515612dbd57600080fd5b600b548211151515612dce57600080fd5b600090505b8251811015612e1c57600b548211151515612ded57600080fd5b612e0e8382815181101515612dfe57fe5b9060200190602002015183612ee1565b508080600101915050612dd3565b600954600a54101515612e45576001601060006101000a81548160ff0219169083151502179055505b505050565b600d5481565b60008090505b8151811015612e8c57612e7f8282815181101515612e7057fe5b90602001906020020151611fa6565b8080600101915050612e56565b5050565b6000808284019050838110151515612ea457fe5b8091505092915050565b60008082840290506000841480612ecf5750828482811515612ecc57fe5b04145b1515612ed757fe5b8091505092915050565b6000601060009054906101000a900460ff16151515612eff57600080fd5b612f1482600a54612e9090919063ffffffff16565b600a81905550612f2f82600b5461320a90919063ffffffff16565b600b81905550612f8782600260008673ffffffffffffffffffffffffffffffffffffffff1673ffffffffffffffffffffffffffffffffffffffff16815260200190815260200160002054612e9090919063ffffffff16565b600260008573ffffffffffffffffffffffffffffffffffffffff1673ffffffffffffffffffffffffffffffffffffffff1681526020019081526020016000208190555061301c82600860003373ffffffffffffffffffffffffffffffffffffffff1673ffffffffffffffffffffffffffffffffffffffff16815260200190815260200160002054612e9090919063ffffffff16565b600860003373ffffffffffffffffffffffffffffffffffffffff1673ffffffffffffffffffffffffffffffffffffffff168152602001908152602001600020819055506130b134600760003373ffffffffffffffffffffffffffffffffffffffff1673ffffffffffffffffffffffffffffffffffffffff16815260200190815260200160002054612e9090919063ffffffff16565b600760003373ffffffffffffffffffffffffffffffffffffffff1673ffffffffffffffffffffffffffffffffffffffff168152602001908152602001600020819055506001600660003373ffffffffffffffffffffffffffffffffffffffff1673ffffffffffffffffffffffffffffffffffffffff16815260200190815260200160002060006101000a81548160ff0219169083151502179055508273ffffffffffffffffffffffffffffffffffffffff167f8940c4b8e215f8822c5c8f0056c12652c746cbc57eedbd2a440b175971d47a77836040518082815260200191505060405180910390a28273ffffffffffffffffffffffffffffffffffffffff16600073ffffffffffffffffffffffffffffffffffffffff167fddf252ad1be2c89b69c2b068fc378daa952ba7f163c4a11628f55a4df523b3ef846040518082815260200191505060405180910390a36001905092915050565b600082821115151561321857fe5b818303905092915050565b60008111151561323257600080fd5b600f54600e5410151561324457600080fd5b6001600460008473ffffffffffffffffffffffffffffffffffffffff1673ffffffffffffffffffffffffffffffffffffffff16815260200190815260200160002060006101000a81548160ff0219169083151502179055506132ee81600260008573ffffffffffffffffffffffffffffffffffffffff1673ffffffffffffffffffffffffffffffffffffffff16815260200190815260200160002054612e9090919063ffffffff16565b600260008473ffffffffffffffffffffffffffffffffffffffff1673ffffffffffffffffffffffffffffffffffffffff1681526020019081526020016000208190555061334681600a54612e9090919063ffffffff16565b600a8190555061336181600b5461320a90919063ffffffff16565b600b8190555061337c81600e54612e9090919063ffffffff16565b600e819055508173ffffffffffffffffffffffffffffffffffffffff167fada993ad066837289fe186cd37227aa338d27519a8a1547472ecb9831486d27282600260008673ffffffffffffffffffffffffffffffffffffffff1673ffffffffffffffffffffffffffffffffffffffff16815260200190815260200160002054604051808381526020018281526020019250505060405180910390a28173ffffffffffffffffffffffffffffffffffffffff16600073ffffffffffffffffffffffffffffffffffffffff167fddf252ad1be2c89b69c2b068fc378daa952ba7f163c4a11628f55a4df523b3ef836040518082815260200191505060405180910390a350505600a165627a7a72305820c8674909e27a81f6907b5970b3a9406bc94b5f048fb53d583b454f38ac1070ba0029",
  "source": "\n\n\n\n\n\n\n\n\n\nlibrary SafeMath {\n  function mul(uint256 a, uint256 b) internal pure returns (uint256) {\n    uint256 c = a * b;\n    assert(a == 0 || c / a == b);\n    return c;\n  }\n\n  function div(uint256 a, uint256 b) internal pure returns (uint256) {\n    uint256 c = a / b;\n    return c;\n  }\n\n  function sub(uint256 a, uint256 b) internal pure returns (uint256) {\n    assert(b <= a);\n    return a - b;\n  }\n\n  function add(uint256 a, uint256 b) internal pure returns (uint256) {\n    uint256 c = a + b;\n    assert(c >= a);\n    return c;\n  }\n}\n\ncontract ForeignToken {\n    function balanceOf(address _owner) constant public returns (uint256);\n    function transfer(address _to, uint256 _value) public returns (bool);\n}\n\ncontract ERC20Basic {\n    uint256 public totalSupply;\n    function balanceOf(address who) public constant returns (uint256);\n    function transfer(address to, uint256 value) public returns (bool);\n    event Transfer(address indexed from, address indexed to, uint256 value);\n}\n\ncontract ERC20 is ERC20Basic {\n    function allowance(address owner, address spender) public constant returns (uint256);\n    function transferFrom(address from, address to, uint256 value) public returns (bool);\n    function approve(address spender, uint256 value) public returns (bool);\n    event Approval(address indexed owner, address indexed spender, uint256 value);\n}\n\ninterface Token { \n    function distr(address _to, uint256 _value) external returns (bool);\n    function totalSupply() constant external returns (uint256 supply);\n    function balanceOf(address _owner) constant external returns (uint256 balance);\n}\n\ncontract VikkyToken is ERC20 {\n    \n    using SafeMath for uint256;\n    address owner = msg.sender;\n\n    mapping (address => uint256) balances;\n    mapping (address => mapping (address => uint256)) allowed; \n\n    mapping (address => bool) public airdropClaimed;\n    mapping (address => bool) public refundClaimed;\n    mapping (address => bool) public locked;\n\n    \n  \n    mapping(address => uint) public icoEtherContributed;\n    mapping(address => uint) public icoTokensReceived;\n\n    string public constant name = \"VikkyToken\";\n    string public constant symbol = \"VIK\";\n    uint public constant decimals = 18;\n    \n    uint constant E18 = 10**18;\n    uint constant E6 = 10**6;\n    \n    uint public totalSupply = 1000 * E6 * E18;\n    uint public totalDistributed = 220 * E6 * E18;   \n    uint public totalRemaining = totalSupply.sub(totalDistributed); \n    uint public tokensPerEth = 20000 * E18; \n    \n    uint public tokensAirdrop = 266 * E18;\n    uint public tokensClaimedAirdrop = 0;\n    uint public totalDistributedAirdrop = 20 * E6 * E18;   \n\n    uint public constant MIN_CONTRIBUTION = 1 ether / 100; \n    uint public constant MIN_CONTRIBUTION_PRESALE = 1 ether;\n    uint public constant MAX_CONTRIBUTION = 100 ether;\n    uint public constant MIN_FUNDING_GOAL =  5000 ether; \n    \n\n    uint public constant DATE_PRESALE_START = 1525244400; \n    uint public constant DATE_PRESALE_END   = 1526454000; \n\n    uint public constant DATE_ICO_START = 1526454060; \n    uint public constant DATE_ICO_END   = 1533020400; \n\n    uint public constant BONUS_PRESALE      = 30;\n    uint public constant BONUS_ICO_ROUND1   = 20;\n    uint public constant BONUS_ICO_ROUND2   = 10;\n    uint public constant BONUS_ICO_ROUND3   = 5;\n    \n    event TokensPerEthUpdated(uint _tokensPerEth);    \n    event Transfer(address indexed _from, address indexed _to, uint256 _value);\n    event Approval(address indexed _owner, address indexed _spender, uint256 _value);\n    event Refund(address indexed _owner, uint _amount, uint _tokens);\n    event Distr(address indexed to, uint256 amount);\n    event DistrFinished();\n    event Airdrop(address indexed _owner, uint _amount, uint _balance);\n    event Burn(address indexed burner, uint256 value);\n    event LockRemoved(address indexed _participant);\n\n    bool public distributionFinished = false;\n    \n    modifier canDistr() {\n        require(!distributionFinished);\n        _;\n    }\n    \n    modifier onlyOwner() {\n        require(msg.sender == owner);\n        _;\n    }\n    \n    \n    function VikkyToken () public {\n        owner = msg.sender;\n        distr(owner, totalDistributed); \n    }\n\n    \n  \n    \n  \n    function atNow() public constant returns (uint) {\n        return now;\n    }\n  \n     \n  \n    function icoThresholdReached() public constant returns (bool thresholdReached) {\n        address myAddress = this;\n        uint256 etherBalance = myAddress.balance;\n        if (etherBalance < MIN_FUNDING_GOAL) return false;\n        return true;\n    }  \n    \n    function transferOwnership(address newOwner) onlyOwner public {\n        if (newOwner != address(0)) {\n            owner = newOwner;\n        }\n    }\n\n\n    function finishDistribution() onlyOwner canDistr public returns (bool) {\n        distributionFinished = true;\n        emit DistrFinished();\n        return true;\n    }\n    \n    function distr(address _to, uint256 _amount) canDistr private returns (bool) {\n        totalDistributed = totalDistributed.add(_amount);\n        totalRemaining = totalRemaining.sub(_amount);\n        balances[_to] = balances[_to].add(_amount);\n\n        icoTokensReceived[msg.sender] = icoTokensReceived[msg.sender].add(_amount);\n            \n        \n        icoEtherContributed[msg.sender] = icoEtherContributed[msg.sender].add(msg.value);\n    \n        \n        locked[msg.sender] = true;\n\n        emit Distr(_to, _amount);\n        emit Transfer(address(0), _to, _amount);        \n        \n        return true;     \n    }\n    \n    function distribution(address[] addresses, uint256 amount) onlyOwner canDistr public {\n                \n        require(amount <= totalRemaining);\n        \n        for (uint i = 0; i < addresses.length; i++) {\n            require(amount <= totalRemaining);\n            distr(addresses[i], amount);\n        }\n    \n        if (totalDistributed >= totalSupply) {\n            distributionFinished = true;\n        }\n    }\n    \n    function distributeAmounts(address[] addresses, uint256[] amounts) onlyOwner canDistr public {\n        \n        require(addresses.length == amounts.length);\n        \n        for (uint8 i = 0; i < addresses.length; i++) {\n            require(amounts[i] <= totalRemaining);\n            distr(addresses[i], amounts[i]);\n            \n            if (totalDistributed >= totalSupply) {\n                distributionFinished = true;\n            }\n        }\n    }\n\n    function doAirdrop(address _participant, uint airdrop) internal {\n        \n        require( airdrop > 0 );\n        require(tokensClaimedAirdrop < totalDistributedAirdrop);\n\n        \n        airdropClaimed[_participant] = true;\n        balances[_participant] = balances[_participant].add(airdrop);\n        totalDistributed = totalDistributed.add(airdrop);\n        totalRemaining = totalRemaining.sub(airdrop);\n        tokensClaimedAirdrop   = tokensClaimedAirdrop.add(airdrop);\n    \n        \n        emit Airdrop(_participant, airdrop, balances[_participant]);\n        emit Transfer(address(0), _participant, airdrop);\n    }\n\n    function adminClaimAirdrop(address _participant, uint airdrop) external {        \n        doAirdrop(_participant, airdrop);\n    }\n\n    function adminClaimAirdropMultiple(address[] _addresses, uint airdrop) external {        \n        for (uint i = 0; i < _addresses.length; i++) doAirdrop(_addresses[i], airdrop);\n    }\n\n    function systemClaimAirdropMultiple(address[] _addresses) external {\n        uint airdrop = tokensAirdrop;\n        for (uint i = 0; i < _addresses.length; i++) doAirdrop(_addresses[i], airdrop);\n    }\n\n \n    \n  \n    function updateTokensPerEth(uint _tokensPerEth) public onlyOwner {\n        require( atNow() < DATE_PRESALE_START );\n        tokensPerEth = _tokensPerEth;\n        emit TokensPerEthUpdated(_tokensPerEth);\n    }\n    \n    function () external payable {\n        buyTokens();\n     }\n    \n    function buyTokens() payable canDistr public {\n        uint ts = atNow();\n        bool isPresale = false;\n        bool isIco = false;\n        uint tokens = 0;\n\n        \n        require( msg.value >= MIN_CONTRIBUTION );\n\n        \n        require( icoEtherContributed[msg.sender].add(msg.value) <= MAX_CONTRIBUTION );\n\n        \n        if (ts > DATE_PRESALE_START && ts < DATE_PRESALE_END) isPresale = true;  \n        if (ts > DATE_ICO_START && ts < DATE_ICO_END) isIco = true;\n        require( isPresale || isIco );\n\n        \n        if (isPresale) require( msg.value >= MIN_CONTRIBUTION_PRESALE);\n                \n        address investor = msg.sender;\n        \n        \n        tokens = tokensPerEth.mul(msg.value) / 1 ether;\n\n        \n        if (isPresale) {\n            tokens = tokens.mul(100 + BONUS_PRESALE) / 100;\n        } else if (ts < DATE_ICO_START + 14 days) {\n            \n            tokens = tokens.mul(100 + BONUS_ICO_ROUND1) / 100;\n        } else if (ts < DATE_ICO_START + 28 days) {\n            \n            tokens = tokens.mul(100 + BONUS_ICO_ROUND2) / 100;\n        } else if (ts < DATE_ICO_START + 42 days) {\n            \n            tokens = tokens.mul(100 + BONUS_ICO_ROUND3) / 100;\n        }\n\n        \n        require( totalDistributed.add(tokens) <= totalRemaining );\n        \n        if (tokens > 0) {\n            distr(investor, tokens);\n        }\n        \n\n        if (totalDistributed >= totalSupply) {\n            distributionFinished = true;\n        }                \n    }\n\n    function balanceOf(address _owner) constant public returns (uint256) {\n        return balances[_owner];\n    }\n\n    \n    modifier onlyPayloadSize(uint size) {\n        assert(msg.data.length >= size + 4);\n        _;\n    }\n\n    \n\n    \n\n    function removeLock(address _participant) public {        \n        locked[_participant] = false;\n        emit LockRemoved(_participant);\n    }\n\n    function removeLockMultiple(address[] _participants) public {        \n        for (uint i = 0; i < _participants.length; i++) {\n            removeLock(_participants[i]);\n        }\n    }\n    \n    function transfer(address _to, uint256 _amount) onlyPayloadSize(2 * 32) public returns (bool success) {\n\n        require(_to != address(0));\n        require(_amount <= balances[msg.sender]);\n        require( locked[msg.sender] == false );\n        require( locked[_to] == false );\n        \n        balances[msg.sender] = balances[msg.sender].sub(_amount);\n        balances[_to] = balances[_to].add(_amount);\n        emit Transfer(msg.sender, _to, _amount);\n        return true;\n    }\n    \n    function transferFrom(address _from, address _to, uint256 _amount) onlyPayloadSize(3 * 32) public returns (bool success) {\n\n        require(_to != address(0));\n        require(_amount <= balances[_from]);\n        require(_amount <= allowed[_from][msg.sender]);\n        require( locked[msg.sender] == false );\n        require( locked[_to] == false );\n        \n        balances[_from] = balances[_from].sub(_amount);\n        allowed[_from][msg.sender] = allowed[_from][msg.sender].sub(_amount);\n        balances[_to] = balances[_to].add(_amount);\n        emit Transfer(_from, _to, _amount);\n        return true;\n    }\n    \n    function approve(address _spender, uint256 _value) public returns (bool success) {\n        \n        if (_value != 0 && allowed[msg.sender][_spender] != 0) { return false; }\n        allowed[msg.sender][_spender] = _value;\n        emit Approval(msg.sender, _spender, _value);\n        return true;\n    }\n    \n    function allowance(address _owner, address _spender) constant public returns (uint256) {\n        return allowed[_owner][_spender];\n    }\n    \n    function getTokenBalance(address tokenAddress, address who) constant public returns (uint){\n        ForeignToken t = ForeignToken(tokenAddress);\n        uint bal = t.balanceOf(who);\n        return bal;\n    }\n    \n    function withdraw() onlyOwner public {\n        address myAddress = this;\n        uint256 etherBalance = myAddress.balance;\n        owner.transfer(etherBalance);\n    }\n    \n    function burn(uint256 _value) onlyOwner public {\n        require(_value <= balances[msg.sender]);\n        \n        \n\n        address burner = msg.sender;\n        balances[burner] = balances[burner].sub(_value);\n        totalSupply = totalSupply.sub(_value);\n        totalDistributed = totalDistributed.sub(_value);\n        emit Burn(burner, _value);\n    }\n    \n    function withdrawForeignTokens(address _tokenContract) onlyOwner public returns (bool) {\n        ForeignToken token = ForeignToken(_tokenContract);\n        uint256 amount = token.balanceOf(address(this));\n        return token.transfer(owner, amount);\n    }\n\n    \n\n    \n    \n\n    function reclaimFund(address _participant) public {\n        uint tokens; \n        uint amount; \n\n        \n        require( atNow() > DATE_ICO_END && !icoThresholdReached() );\n\n        \n        require( !refundClaimed[_participant] );\n\n        \n        require( icoEtherContributed[_participant] > 0 );\n\n        \n        tokens = icoTokensReceived[_participant];\n        amount = icoEtherContributed[_participant];\n\n        balances[_participant] = balances[_participant].sub(tokens);\n        totalDistributed    = totalDistributed.sub(tokens);\n    \n        refundClaimed[_participant] = true;\n\n        _participant.transfer(amount);\n\n        \n        emit Transfer(_participant, 0x0, tokens);\n        emit Refund(_participant, amount, tokens);\n    }\n\n    function reclaimFundMultiple(address[] _participants) public {        \n        for (uint i = 0; i < _participants.length; i++) {\n            reclaimFund(_participants[i]);\n        }\n    }\n}",
  "sourcePath": "/home/XXX-1/smartrim-experiment/for-rlf/0x3990240a9ba025c1bdc0116521ed0bfd9b40ec99/contracts/0x3990240a9ba025c1bdc0116521ed0bfd9b40ec99.sol",
  "compiler": {
    "name": "solc",
    "version": "0.4.25+commit.59dbf8f1.Emscripten.clang"
  },
  "schemaVersion": "3.4.16",
  "updatedAt": "2025-08-14T03:52:23.583Z",
  "networkType": "ethereum",
  "devdoc": {
    "methods": {}
  },
  "userdoc": {
    "methods": {}
  }
}