{
  "contractName": "YBKToken_1",
  "abi": [
    {
      "constant": true,
      "inputs": [],
      "name": "name",
      "outputs": [
        {
          "name": "",
          "type": "string"
        }
      ],
      "payable": false,
      "stateMutability": "view",
      "type": "function"
    },
    {
      "constant": false,
      "inputs": [
        {
          "name": "_spender",
          "type": "address"
        },
        {
          "name": "_value",
          "type": "uint256"
        }
      ],
      "name": "approve",
      "outputs": [
        {
          "name": "success",
          "type": "bool"
        }
      ],
      "payable": false,
      "stateMutability": "nonpayable",
      "type": "function"
    },
    {
      "constant": true,
      "inputs": [],
      "name": "totalSupply",
      "outputs": [
        {
          "name": "_totalSupply",
          "type": "uint256"
        }
      ],
      "payable": false,
      "stateMutability": "view",
      "type": "function"
    },
    {
      "constant": false,
      "inputs": [
        {
          "name": "_owner",
          "type": "address"
        },
        {
          "name": "_to",
          "type": "address"
        },
        {
          "name": "_value",
          "type": "uint256"
        }
      ],
      "name": "transferFrom",
      "outputs": [
        {
          "name": "success",
          "type": "bool"
        }
      ],
      "payable": false,
      "stateMutability": "nonpayable",
      "type": "function"
    },
    {
      "constant": true,
      "inputs": [
        {
          "name": "",
          "type": "address"
        }
      ],
      "name": "balances",
      "outputs": [
        {
          "name": "",
          "type": "uint256"
        }
      ],
      "payable": false,
      "stateMutability": "view",
      "type": "function"
    },
    {
      "constant": true,
      "inputs": [],
      "name": "decimals",
      "outputs": [
        {
          "name": "",
          "type": "uint256"
        }
      ],
      "payable": false,
      "stateMutability": "view",
      "type": "function"
    },
    {
      "constant": false,
      "inputs": [],
      "name": "unpause",
      "outputs": [],
      "payable": false,
      "stateMutability": "nonpayable",
      "type": "function"
    },
    {
      "constant": false,
      "inputs": [],
      "name": "kill",
      "outputs": [],
      "payable": false,
      "stateMutability": "nonpayable",
      "type": "function"
    },
    {
      "constant": false,
      "inputs": [
        {
          "name": "value",
          "type": "uint256"
        }
      ],
      "name": "upgrade",
      "outputs": [],
      "payable": false,
      "stateMutability": "nonpayable",
      "type": "function"
    },
    {
      "constant": true,
      "inputs": [],
      "name": "version",
      "outputs": [
        {
          "name": "",
          "type": "string"
        }
      ],
      "payable": false,
      "stateMutability": "view",
      "type": "function"
    },
    {
      "constant": true,
      "inputs": [
        {
          "name": "",
          "type": "address"
        },
        {
          "name": "",
          "type": "address"
        }
      ],
      "name": "allowances",
      "outputs": [
        {
          "name": "",
          "type": "uint256"
        }
      ],
      "payable": false,
      "stateMutability": "view",
      "type": "function"
    },
    {
      "constant": true,
      "inputs": [],
      "name": "paused",
      "outputs": [
        {
          "name": "",
          "type": "bool"
        }
      ],
      "payable": false,
      "stateMutability": "view",
      "type": "function"
    },
    {
      "constant": false,
      "inputs": [
        {
          "name": "_upgradeMaster",
          "type": "address"
        }
      ],
      "name": "UpgradeAgentEnabledToken",
      "outputs": [],
      "payable": false,
      "stateMutability": "nonpayable",
      "type": "function"
    },
    {
      "constant": true,
      "inputs": [],
      "name": "upgradeAgent",
      "outputs": [
        {
          "name": "",
          "type": "address"
        }
      ],
      "payable": false,
      "stateMutability": "view",
      "type": "function"
    },
    {
      "constant": true,
      "inputs": [],
      "name": "upgradeMaster",
      "outputs": [
        {
          "name": "",
          "type": "address"
        }
      ],
      "payable": false,
      "stateMutability": "view",
      "type": "function"
    },
    {
      "constant": true,
      "inputs": [
        {
          "name": "_address",
          "type": "address"
        }
      ],
      "name": "balanceOf",
      "outputs": [
        {
          "name": "balance",
          "type": "uint256"
        }
      ],
      "payable": false,
      "stateMutability": "view",
      "type": "function"
    },
    {
      "constant": true,
      "inputs": [],
      "name": "getUpgradeState",
      "outputs": [
        {
          "name": "",
          "type": "uint8"
        }
      ],
      "payable": false,
      "stateMutability": "view",
      "type": "function"
    },
    {
      "constant": false,
      "inputs": [],
      "name": "pause",
      "outputs": [],
      "payable": false,
      "stateMutability": "nonpayable",
      "type": "function"
    },
    {
      "constant": true,
      "inputs": [],
      "name": "owner",
      "outputs": [
        {
          "name": "",
          "type": "address"
        }
      ],
      "payable": false,
      "stateMutability": "view",
      "type": "function"
    },
    {
      "constant": true,
      "inputs": [],
      "name": "symbol",
      "outputs": [
        {
          "name": "",
          "type": "string"
        }
      ],
      "payable": false,
      "stateMutability": "view",
      "type": "function"
    },
    {
      "constant": true,
      "inputs": [],
      "name": "canUpgrade",
      "outputs": [
        {
          "name": "",
          "type": "bool"
        }
      ],
      "payable": false,
      "stateMutability": "view",
      "type": "function"
    },
    {
      "constant": false,
      "inputs": [
        {
          "name": "_to",
          "type": "address"
        },
        {
          "name": "_value",
          "type": "uint256"
        }
      ],
      "name": "transfer",
      "outputs": [
        {
          "name": "success",
          "type": "bool"
        }
      ],
      "payable": false,
      "stateMutability": "nonpayable",
      "type": "function"
    },
    {
      "constant": true,
      "inputs": [
        {
          "name": "",
          "type": "address"
        }
      ],
      "name": "frozenAccount",
      "outputs": [
        {
          "name": "",
          "type": "bool"
        }
      ],
      "payable": false,
      "stateMutability": "view",
      "type": "function"
    },
    {
      "constant": true,
      "inputs": [],
      "name": "totalUpgraded",
      "outputs": [
        {
          "name": "",
          "type": "uint256"
        }
      ],
      "payable": false,
      "stateMutability": "view",
      "type": "function"
    },
    {
      "constant": false,
      "inputs": [
        {
          "name": "agent",
          "type": "address"
        }
      ],
      "name": "setUpgradeAgent",
      "outputs": [],
      "payable": false,
      "stateMutability": "nonpayable",
      "type": "function"
    },
    {
      "constant": true,
      "inputs": [
        {
          "name": "_owner",
          "type": "address"
        },
        {
          "name": "_spender",
          "type": "address"
        }
      ],
      "name": "allowance",
      "outputs": [
        {
          "name": "remaining",
          "type": "uint256"
        }
      ],
      "payable": false,
      "stateMutability": "view",
      "type": "function"
    },
    {
      "constant": true,
      "inputs": [
        {
          "name": "_address",
          "type": "address"
        }
      ],
      "name": "isFrozen",
      "outputs": [
        {
          "name": "frozen",
          "type": "bool"
        }
      ],
      "payable": false,
      "stateMutability": "view",
      "type": "function"
    },
    {
      "constant": false,
      "inputs": [
        {
          "name": "target",
          "type": "address"
        },
        {
          "name": "freeze",
          "type": "bool"
        }
      ],
      "name": "freezeAccount",
      "outputs": [],
      "payable": false,
      "stateMutability": "nonpayable",
      "type": "function"
    },
    {
      "constant": false,
      "inputs": [
        {
          "name": "newOwner",
          "type": "address"
        }
      ],
      "name": "transferOwnership",
      "outputs": [],
      "payable": false,
      "stateMutability": "nonpayable",
      "type": "function"
    },
    {
      "constant": false,
      "inputs": [
        {
          "name": "master",
          "type": "address"
        }
      ],
      "name": "setUpgradeMaster",
      "outputs": [],
      "payable": false,
      "stateMutability": "nonpayable",
      "type": "function"
    },
    {
      "inputs": [
        {
          "name": "_name",
          "type": "string"
        },
        {
          "name": "_symbol",
          "type": "string"
        },
        {
          "name": "_initialSupply",
          "type": "uint256"
        },
        {
          "name": "_decimals",
          "type": "uint256"
        },
        {
          "name": "_version",
          "type": "string"
        }
      ],
      "payable": false,
      "stateMutability": "nonpayable",
      "type": "constructor"
    },
    {
      "anonymous": false,
      "inputs": [
        {
          "indexed": true,
          "name": "_from",
          "type": "address"
        },
        {
          "indexed": true,
          "name": "_to",
          "type": "address"
        },
        {
          "indexed": false,
          "name": "_value",
          "type": "uint256"
        }
      ],
      "name": "Upgrade",
      "type": "event"
    },
    {
      "anonymous": false,
      "inputs": [
        {
          "indexed": false,
          "name": "agent",
          "type": "address"
        }
      ],
      "name": "UpgradeAgentSet",
      "type": "event"
    },
    {
      "anonymous": false,
      "inputs": [
        {
          "indexed": true,
          "name": "_from",
          "type": "address"
        },
        {
          "indexed": true,
          "name": "_to",
          "type": "address"
        },
        {
          "indexed": false,
          "name": "_value",
          "type": "uint256"
        }
      ],
      "name": "Transfer",
      "type": "event"
    },
    {
      "anonymous": false,
      "inputs": [
        {
          "indexed": true,
          "name": "_owner",
          "type": "address"
        },
        {
          "indexed": true,
          "name": "_spender",
          "type": "address"
        },
        {
          "indexed": false,
          "name": "_value",
          "type": "uint256"
        }
      ],
      "name": "Approval",
      "type": "event"
    },
    {
      "anonymous": false,
      "inputs": [
        {
          "indexed": false,
          "name": "target",
          "type": "address"
        },
        {
          "indexed": false,
          "name": "frozen",
          "type": "bool"
        }
      ],
      "name": "FrozenFunds",
      "type": "event"
    },
    {
      "anonymous": false,
      "inputs": [],
      "name": "Pause",
      "type": "event"
    },
    {
      "anonymous": false,
      "inputs": [],
      "name": "Unpause",
      "type": "event"
    },
    {
      "anonymous": false,
      "inputs": [
        {
          "indexed": true,
          "name": "previousOwner",
          "type": "address"
        },
        {
          "indexed": true,
          "name": "newOwner",
          "type": "address"
        }
      ],
      "name": "OwnershipTransferred",
      "type": "event"
    }
  ],
  "bytecode": "0x608060405260008060146101000a81548160ff0219169083151502179055503480156200002b57600080fd5b5060405162002621380380620026218339810180604052810190808051820192919060200180518201929190602001805190602001909291908051906020019092919080518201929190505050336000806101000a81548173ffffffffffffffffffffffffffffffffffffffff021916908373ffffffffffffffffffffffffffffffffffffffff160217905550336000806101000a81548173ffffffffffffffffffffffffffffffffffffffff021916908373ffffffffffffffffffffffffffffffffffffffff1602179055506000809054906101000a900473ffffffffffffffffffffffffffffffffffffffff16600960006101000a81548173ffffffffffffffffffffffffffffffffffffffff021916908373ffffffffffffffffffffffffffffffffffffffff16021790555084600c90805190602001906200017292919062000204565b5081600e8190555083600d90805190602001906200019292919062000204565b5080600f9080519060200190620001ab92919062000204565b5082600481905550600454600160003373ffffffffffffffffffffffffffffffffffffffff1673ffffffffffffffffffffffffffffffffffffffff168152602001908152602001600020819055505050505050620002b3565b828054600181600116156101000203166002900490600052602060002090601f016020900481019282601f106200024757805160ff191683800117855562000278565b8280016001018555821562000278579182015b82811115620002775782518255916020019190600101906200025a565b5b5090506200028791906200028b565b5090565b620002b091905b80821115620002ac57600081600090555060010162000292565b5090565b90565b61235e80620002c36000396000f300608060405260043610610180576000357c0100000000000000000000000000000000000000000000000000000000900463ffffffff16806306fdde0314610185578063095ea7b31461021557806318160ddd1461027a57806323b872dd146102a557806327e235e31461032a578063313ce567146103815780633f4ba83a146103ac57806341c0e1b5146103c357806345977d03146103da57806354fd4d501461040757806355b6ed5c146104975780635c975abb1461050e5780635d302ba11461053d5780635de4ccb014610580578063600440cb146105d757806370a082311461062e5780638444b391146106855780638456cb59146106be5780638da5cb5b146106d557806395d89b411461072c5780639738968c146107bc578063a9059cbb146107eb578063b414d4b614610850578063c752ff62146108ab578063d7e7088a146108d6578063dd62ed3e14610919578063e583983614610990578063e724529c146109eb578063f2fde38b14610a3a578063ffeb7d7514610a7d575b600080fd5b34801561019157600080fd5b5061019a610ac0565b6040518080602001828103825283818151815260200191508051906020019080838360005b838110156101da5780820151818401526020810190506101bf565b50505050905090810190601f1680156102075780820380516001836020036101000a031916815260200191505b509250505060405180910390f35b34801561022157600080fd5b50610260600480360381019080803573ffffffffffffffffffffffffffffffffffffffff16906020019092919080359060200190929190505050610b5e565b604051808215151515815260200191505060405180910390f35b34801561028657600080fd5b5061028f610c50565b6040518082815260200191505060405180910390f35b3480156102b157600080fd5b50610310600480360381019080803573ffffffffffffffffffffffffffffffffffffffff169060200190929190803573ffffffffffffffffffffffffffffffffffffffff16906020019092919080359060200190929190505050610c5a565b604051808215151515815260200191505060405180910390f35b34801561033657600080fd5b5061036b600480360381019080803573ffffffffffffffffffffffffffffffffffffffff1690602001909291905050506110e5565b6040518082815260200191505060405180910390f35b34801561038d57600080fd5b506103966110fd565b6040518082815260200191505060405180910390f35b3480156103b857600080fd5b506103c1611103565b005b3480156103cf57600080fd5b506103d86111c1565b005b3480156103e657600080fd5b5061040560048036038101908080359060200190929190505050611256565b005b34801561041357600080fd5b5061041c6114e8565b6040518080602001828103825283818151815260200191508051906020019080838360005b8381101561045c578082015181840152602081019050610441565b50505050905090810190601f1680156104895780820380516001836020036101000a031916815260200191505b509250505060405180910390f35b3480156104a357600080fd5b506104f8600480360381019080803573ffffffffffffffffffffffffffffffffffffffff169060200190929190803573ffffffffffffffffffffffffffffffffffffffff169060200190929190505050611586565b6040518082815260200191505060405180910390f35b34801561051a57600080fd5b506105236115ab565b604051808215151515815260200191505060405180910390f35b34801561054957600080fd5b5061057e600480360381019080803573ffffffffffffffffffffffffffffffffffffffff1690602001909291905050506115be565b005b34801561058c57600080fd5b50610595611602565b604051808273ffffffffffffffffffffffffffffffffffffffff1673ffffffffffffffffffffffffffffffffffffffff16815260200191505060405180910390f35b3480156105e357600080fd5b506105ec611628565b604051808273ffffffffffffffffffffffffffffffffffffffff1673ffffffffffffffffffffffffffffffffffffffff16815260200191505060405180910390f35b34801561063a57600080fd5b5061066f600480360381019080803573ffffffffffffffffffffffffffffffffffffffff16906020019092919050505061164e565b6040518082815260200191505060405180910390f35b34801561069157600080fd5b5061069a611697565b604051808260048111156106aa57fe5b60ff16815260200191505060405180910390f35b3480156106ca57600080fd5b506106d3611716565b005b3480156106e157600080fd5b506106ea6117dc565b604051808273ffffffffffffffffffffffffffffffffffffffff1673ffffffffffffffffffffffffffffffffffffffff16815260200191505060405180910390f35b34801561073857600080fd5b50610741611801565b6040518080602001828103825283818151815260200191508051906020019080838360005b83811015610781578082015181840152602081019050610766565b50505050905090810190601f1680156107ae5780820380516001836020036101000a031916815260200191505b509250505060405180910390f35b3480156107c857600080fd5b506107d161189f565b604051808215151515815260200191505060405180910390f35b3480156107f757600080fd5b50610836600480360381019080803573ffffffffffffffffffffffffffffffffffffffff169060200190929190803590602001909291905050506118a8565b604051808215151515815260200191505060405180910390f35b34801561085c57600080fd5b50610891600480360381019080803573ffffffffffffffffffffffffffffffffffffffff169060200190929190505050611b98565b604051808215151515815260200191505060405180910390f35b3480156108b757600080fd5b506108c0611bb8565b6040518082815260200191505060405180910390f35b3480156108e257600080fd5b50610917600480360381019080803573ffffffffffffffffffffffffffffffffffffffff169060200190929190505050611bbe565b005b34801561092557600080fd5b5061097a600480360381019080803573ffffffffffffffffffffffffffffffffffffffff169060200190929190803573ffffffffffffffffffffffffffffffffffffffff169060200190929190505050611ee0565b6040518082815260200191505060405180910390f35b34801561099c57600080fd5b506109d1600480360381019080803573ffffffffffffffffffffffffffffffffffffffff169060200190929190505050611f67565b604051808215151515815260200191505060405180910390f35b3480156109f757600080fd5b50610a38600480360381019080803573ffffffffffffffffffffffffffffffffffffffff169060200190929190803515159060200190929190505050611fbd565b005b348015610a4657600080fd5b50610a7b600480360381019080803573ffffffffffffffffffffffffffffffffffffffff1690602001909291905050506120e2565b005b348015610a8957600080fd5b50610abe600480360381019080803573ffffffffffffffffffffffffffffffffffffffff169060200190929190505050612237565b005b600c8054600181600116156101000203166002900480601f016020809104026020016040519081016040528092919081815260200182805460018160011615610100020316600290048015610b565780601f10610b2b57610100808354040283529160200191610b56565b820191906000526020600020905b815481529060010190602001808311610b3957829003601f168201915b505050505081565b600081600260003373ffffffffffffffffffffffffffffffffffffffff1673ffffffffffffffffffffffffffffffffffffffff16815260200190815260200160002060008573ffffffffffffffffffffffffffffffffffffffff1673ffffffffffffffffffffffffffffffffffffffff168152602001908152602001600020819055508273ffffffffffffffffffffffffffffffffffffffff163373ffffffffffffffffffffffffffffffffffffffff167f8c5be1e5ebec7d5bd14f71427d1e84f3dd0314c0f7b2291e5b200ac8c7c3b925846040518082815260200191505060405180910390a36001905092915050565b6000600454905090565b60008060149054906101000a900460ff161580610cc357506000809054906101000a900473ffffffffffffffffffffffffffffffffffffffff1673ffffffffffffffffffffffffffffffffffffffff163373ffffffffffffffffffffffffffffffffffffffff16145b1515610cce57600080fd5b600073ffffffffffffffffffffffffffffffffffffffff168373ffffffffffffffffffffffffffffffffffffffff1614151515610d0a57600080fd5b600160008573ffffffffffffffffffffffffffffffffffffffff1673ffffffffffffffffffffffffffffffffffffffff168152602001908152602001600020548211151515610d5857600080fd5b600260008573ffffffffffffffffffffffffffffffffffffffff1673ffffffffffffffffffffffffffffffffffffffff16815260200190815260200160002060003373ffffffffffffffffffffffffffffffffffffffff1673ffffffffffffffffffffffffffffffffffffffff168152602001908152602001600020548211151515610de357600080fd5b600360008573ffffffffffffffffffffffffffffffffffffffff1673ffffffffffffffffffffffffffffffffffffffff16815260200190815260200160002060009054906101000a900460ff16151515610e3c57600080fd5b610e8e82600160008773ffffffffffffffffffffffffffffffffffffffff1673ffffffffffffffffffffffffffffffffffffffff168152602001908152602001600020546122fb90919063ffffffff16565b600160008673ffffffffffffffffffffffffffffffffffffffff1673ffffffffffffffffffffffffffffffffffffffff16815260200190815260200160002081905550610f2382600160008673ffffffffffffffffffffffffffffffffffffffff1673ffffffffffffffffffffffffffffffffffffffff1681526020019081526020016000205461231490919063ffffffff16565b600160008573ffffffffffffffffffffffffffffffffffffffff1673ffffffffffffffffffffffffffffffffffffffff16815260200190815260200160002081905550610ff582600260008773ffffffffffffffffffffffffffffffffffffffff1673ffffffffffffffffffffffffffffffffffffffff16815260200190815260200160002060003373ffffffffffffffffffffffffffffffffffffffff1673ffffffffffffffffffffffffffffffffffffffff168152602001908152602001600020546122fb90919063ffffffff16565b600260008673ffffffffffffffffffffffffffffffffffffffff1673ffffffffffffffffffffffffffffffffffffffff16815260200190815260200160002060003373ffffffffffffffffffffffffffffffffffffffff1673ffffffffffffffffffffffffffffffffffffffff168152602001908152602001600020819055508273ffffffffffffffffffffffffffffffffffffffff168473ffffffffffffffffffffffffffffffffffffffff167fddf252ad1be2c89b69c2b068fc378daa952ba7f163c4a11628f55a4df523b3ef846040518082815260200191505060405180910390a3600190509392505050565b60016020528060005260406000206000915090505481565b600e5481565b6000809054906101000a900473ffffffffffffffffffffffffffffffffffffffff1673ffffffffffffffffffffffffffffffffffffffff163373ffffffffffffffffffffffffffffffffffffffff1614151561115e57600080fd5b600060149054906101000a900460ff16151561117957600080fd5b60008060146101000a81548160ff0219169083151502179055507f7805862f689e2f13df9f062ff482ad3ad112aca9e0847911ed832e158c525b3360405160405180910390a1565b6000809054906101000a900473ffffffffffffffffffffffffffffffffffffffff1673ffffffffffffffffffffffffffffffffffffffff163373ffffffffffffffffffffffffffffffffffffffff1614151561121c57600080fd5b6000809054906101000a900473ffffffffffffffffffffffffffffffffffffffff1673ffffffffffffffffffffffffffffffffffffffff16ff5b6000611260611697565b90506003600481111561126f57fe5b81600481111561127b57fe5b148061129c575060048081111561128e57fe5b81600481111561129a57fe5b145b15156112a757600080fd5b60008214156112b557600080fd5b61130782600160003373ffffffffffffffffffffffffffffffffffffffff1673ffffffffffffffffffffffffffffffffffffffff168152602001908152602001600020546122fb90919063ffffffff16565b600160003373ffffffffffffffffffffffffffffffffffffffff1673ffffffffffffffffffffffffffffffffffffffff1681526020019081526020016000208190555061135f826004546122fb90919063ffffffff16565b60048190555061137a82600b5461231490919063ffffffff16565b600b81905550600a60009054906101000a900473ffffffffffffffffffffffffffffffffffffffff1673ffffffffffffffffffffffffffffffffffffffff1663753e88e533846040518363ffffffff167c0100000000000000000000000000000000000000000000000000000000028152600401808373ffffffffffffffffffffffffffffffffffffffff1673ffffffffffffffffffffffffffffffffffffffff16815260200182815260200192505050600060405180830381600087803b15801561144557600080fd5b505af1158015611459573d6000803e3d6000fd5b50505050600a60009054906101000a900473ffffffffffffffffffffffffffffffffffffffff1673ffffffffffffffffffffffffffffffffffffffff163373ffffffffffffffffffffffffffffffffffffffff167f7e5c344a8141a805725cb476f76c6953b842222b967edd1f78ddb6e8b3f397ac846040518082815260200191505060405180910390a35050565b600f8054600181600116156101000203166002900480601f01602080910402602001604051908101604052809291908181526020018280546001816001161561010002031660029004801561157e5780601f106115535761010080835404028352916020019161157e565b820191906000526020600020905b81548152906001019060200180831161156157829003601f168201915b505050505081565b6002602052816000526040600020602052806000526040600020600091509150505481565b600060149054906101000a900460ff1681565b80600960006101000a81548173ffffffffffffffffffffffffffffffffffffffff021916908373ffffffffffffffffffffffffffffffffffffffff16021790555050565b600a60009054906101000a900473ffffffffffffffffffffffffffffffffffffffff1681565b600960009054906101000a900473ffffffffffffffffffffffffffffffffffffffff1681565b6000600160008373ffffffffffffffffffffffffffffffffffffffff1673ffffffffffffffffffffffffffffffffffffffff168152602001908152602001600020549050919050565b60006116a161189f565b15156116b05760019050611713565b6000600a60009054906101000a900473ffffffffffffffffffffffffffffffffffffffff1673ffffffffffffffffffffffffffffffffffffffff1614156116fa5760029050611713565b6000600b54141561170e5760039050611713565b600490505b90565b6000809054906101000a900473ffffffffffffffffffffffffffffffffffffffff1673ffffffffffffffffffffffffffffffffffffffff163373ffffffffffffffffffffffffffffffffffffffff1614151561177157600080fd5b60001515600060149054906101000a900460ff16151514151561179357600080fd5b6001600060146101000a81548160ff0219169083151502179055507f6985a02210a168e66602d3235cb6db0e70f92b3ba4d376a33c0f3d9434bff62560405160405180910390a1565b6000809054906101000a900473ffffffffffffffffffffffffffffffffffffffff1681565b600d8054600181600116156101000203166002900480601f0160208091040260200160405190810160405280929190818152602001828054600181600116156101000203166002900480156118975780601f1061186c57610100808354040283529160200191611897565b820191906000526020600020905b81548152906001019060200180831161187a57829003601f168201915b505050505081565b60006001905090565b60008060149054906101000a900460ff16158061191157506000809054906101000a900473ffffffffffffffffffffffffffffffffffffffff1673ffffffffffffffffffffffffffffffffffffffff163373ffffffffffffffffffffffffffffffffffffffff16145b151561191c57600080fd5b600073ffffffffffffffffffffffffffffffffffffffff168373ffffffffffffffffffffffffffffffffffffffff161415151561195857600080fd5b600160003373ffffffffffffffffffffffffffffffffffffffff1673ffffffffffffffffffffffffffffffffffffffff1681526020019081526020016000205482111515156119a657600080fd5b600360003373ffffffffffffffffffffffffffffffffffffffff1673ffffffffffffffffffffffffffffffffffffffff16815260200190815260200160002060009054906101000a900460ff161515156119ff57600080fd5b611a5182600160003373ffffffffffffffffffffffffffffffffffffffff1673ffffffffffffffffffffffffffffffffffffffff168152602001908152602001600020546122fb90919063ffffffff16565b600160003373ffffffffffffffffffffffffffffffffffffffff1673ffffffffffffffffffffffffffffffffffffffff16815260200190815260200160002081905550611ae682600160008673ffffffffffffffffffffffffffffffffffffffff1673ffffffffffffffffffffffffffffffffffffffff1681526020019081526020016000205461231490919063ffffffff16565b600160008573ffffffffffffffffffffffffffffffffffffffff1673ffffffffffffffffffffffffffffffffffffffff168152602001908152602001600020819055508273ffffffffffffffffffffffffffffffffffffffff163373ffffffffffffffffffffffffffffffffffffffff167fddf252ad1be2c89b69c2b068fc378daa952ba7f163c4a11628f55a4df523b3ef846040518082815260200191505060405180910390a36001905092915050565b60036020528060005260406000206000915054906101000a900460ff1681565b600b5481565b611bc661189f565b1515611bd157600080fd5b60008173ffffffffffffffffffffffffffffffffffffffff161415611bf557600080fd5b600960009054906101000a900473ffffffffffffffffffffffffffffffffffffffff1673ffffffffffffffffffffffffffffffffffffffff163373ffffffffffffffffffffffffffffffffffffffff16141515611c5157600080fd5b600480811115611c5d57fe5b611c65611697565b6004811115611c7057fe5b1415611c7b57600080fd5b80600a60006101000a81548173ffffffffffffffffffffffffffffffffffffffff021916908373ffffffffffffffffffffffffffffffffffffffff160217905550600a60009054906101000a900473ffffffffffffffffffffffffffffffffffffffff1673ffffffffffffffffffffffffffffffffffffffff166361d3d7a66040518163ffffffff167c0100000000000000000000000000000000000000000000000000000000028152600401602060405180830381600087803b158015611d4257600080fd5b505af1158015611d56573d6000803e3d6000fd5b505050506040513d6020811015611d6c57600080fd5b81019080805190602001909291905050501515611d8857600080fd5b600454600a60009054906101000a900473ffffffffffffffffffffffffffffffffffffffff1673ffffffffffffffffffffffffffffffffffffffff16634b2ba0dd6040518163ffffffff167c0100000000000000000000000000000000000000000000000000000000028152600401602060405180830381600087803b158015611e1157600080fd5b505af1158015611e25573d6000803e3d6000fd5b505050506040513d6020811015611e3b57600080fd5b8101908080519060200190929190505050141515611e5857600080fd5b7f7845d5aa74cc410e35571258d954f23b82276e160fe8c188fa80566580f279cc600a60009054906101000a900473ffffffffffffffffffffffffffffffffffffffff16604051808273ffffffffffffffffffffffffffffffffffffffff1673ffffffffffffffffffffffffffffffffffffffff16815260200191505060405180910390a150565b6000600260008473ffffffffffffffffffffffffffffffffffffffff1673ffffffffffffffffffffffffffffffffffffffff16815260200190815260200160002060008373ffffffffffffffffffffffffffffffffffffffff1673ffffffffffffffffffffffffffffffffffffffff16815260200190815260200160002054905092915050565b6000600360008373ffffffffffffffffffffffffffffffffffffffff1673ffffffffffffffffffffffffffffffffffffffff16815260200190815260200160002060009054906101000a900460ff169050919050565b6000809054906101000a900473ffffffffffffffffffffffffffffffffffffffff1673ffffffffffffffffffffffffffffffffffffffff163373ffffffffffffffffffffffffffffffffffffffff1614151561201857600080fd5b80600360008473ffffffffffffffffffffffffffffffffffffffff1673ffffffffffffffffffffffffffffffffffffffff16815260200190815260200160002060006101000a81548160ff0219169083151502179055507f48335238b4855f35377ed80f164e8c6f3c366e54ac00b96a6402d4a9814a03a58282604051808373ffffffffffffffffffffffffffffffffffffffff1673ffffffffffffffffffffffffffffffffffffffff168152602001821515151581526020019250505060405180910390a15050565b6000809054906101000a900473ffffffffffffffffffffffffffffffffffffffff1673ffffffffffffffffffffffffffffffffffffffff163373ffffffffffffffffffffffffffffffffffffffff1614151561213d57600080fd5b600073ffffffffffffffffffffffffffffffffffffffff168173ffffffffffffffffffffffffffffffffffffffff161415151561217957600080fd5b8073ffffffffffffffffffffffffffffffffffffffff166000809054906101000a900473ffffffffffffffffffffffffffffffffffffffff1673ffffffffffffffffffffffffffffffffffffffff167f8be0079c531659141344cd1fd0a4f28419497f9722a3daafe3b4186f6b6457e060405160405180910390a3806000806101000a81548173ffffffffffffffffffffffffffffffffffffffff021916908373ffffffffffffffffffffffffffffffffffffffff16021790555050565b60008173ffffffffffffffffffffffffffffffffffffffff16141561225b57600080fd5b600960009054906101000a900473ffffffffffffffffffffffffffffffffffffffff1673ffffffffffffffffffffffffffffffffffffffff163373ffffffffffffffffffffffffffffffffffffffff161415156122b757600080fd5b80600960006101000a81548173ffffffffffffffffffffffffffffffffffffffff021916908373ffffffffffffffffffffffffffffffffffffffff16021790555050565b600082821115151561230957fe5b818303905092915050565b600080828401905083811015151561232857fe5b80915050929150505600a165627a7a723058209eee6905340dff1d4c843be552054a72ea2921cad8893e23ed880b96b2363ea60029",
  "source": "\n\n\n\nlibrary SafeMath {\n  function mul(uint256 a, uint256 b) internal pure returns (uint256) {\n    if (a == 0) {\n      return 0;\n    }\n    uint256 c = a * b;\n    assert(c / a == b);\n    return c;\n  }\n\n  function div(uint256 a, uint256 b) internal pure returns (uint256) {\n    \n    uint256 c = a / b;\n    \n    return c;\n  }\n\n  function sub(uint256 a, uint256 b) internal pure returns (uint256) {\n    assert(b <= a);\n    return a - b;\n  }\n\n  function add(uint256 a, uint256 b) internal pure returns (uint256) {\n    uint256 c = a + b;\n    assert(c >= a);\n    return c;\n  }\n}\n\ncontract Ownable {\n  address public owner;\n\n  event OwnershipTransferred(address indexed previousOwner, address indexed newOwner);\n\n  function Ownable() public {\n    owner = msg.sender;\n  }\n\n  modifier onlyOwner() {\n    require(msg.sender == owner);\n    _;\n  }\n\n  function transferOwnership(address newOwner) public onlyOwner {\n    require(newOwner != address(0));\n    OwnershipTransferred(owner, newOwner);\n    owner = newOwner;\n  }\n\n}\n\n\ncontract Pausable is Ownable {\n  event Pause();\n  event Unpause();\n\n  bool public paused = false;\n\n  \n  modifier whenNotPaused() {\n    require(!paused || msg.sender == owner);\n    _;\n  }\n\n  modifier whenPaused() {\n    require(paused);\n    _;\n  }\n\n  \n  function pause() onlyOwner public{\n    require(paused == false);\n    paused = true;\n    Pause();\n  }\n\n  \n  function unpause() onlyOwner whenPaused public{\n    paused = false;\n    Unpause();\n  }\n\n}\n\n\n\ncontract Mortal is Ownable {\n    function kill() onlyOwner public {\n        selfdestruct(owner);\n    }\n}\n\n\n\ncontract UpgradeAgent {\n\n  uint public originalSupply;\n\n  \n  function isUpgradeAgent() public constant returns (bool) {\n    return true;\n  }\n\n  function upgradeFrom(address _from, uint256 _value) public;\n\n}\n\n\ncontract BaseToken is Ownable, Pausable, Mortal{\n\n  using SafeMath for uint256;\n\n  \n  mapping (address => uint256) public balances;\n  mapping (address => mapping (address => uint256)) public allowances;\n  mapping (address => bool) public frozenAccount;\n  uint256 public totalSupply;\n\n  \n  string public name;\n  uint8 public decimals;\n  string public symbol;\n  string public version;\n\n  \n  event Transfer(address indexed _from, address indexed _to, uint256 _value);\n  event Approval(address indexed _owner, address indexed _spender, uint256 _value);\n\n  \n  event FrozenFunds(address target, bool frozen);\n\n  \n  function totalSupply() public constant returns (uint _totalSupply) {\n      return totalSupply;\n  }\n\n  function balanceOf(address _address) public view returns (uint256 balance) {\n    return balances[_address];\n  }\n\n  function allowance(address _owner, address _spender) public view returns (uint256 remaining) {\n    return allowances[_owner][_spender];\n  }\n\n  \n  function freezeAccount(address target, bool freeze) onlyOwner public{\n    frozenAccount[target] = freeze;\n    FrozenFunds(target, freeze);\n    }\n\n  \n  function isFrozen(address _address) public view returns (bool frozen) {\n      return frozenAccount[_address];\n  }\n\n  \n  function transfer(address _to, uint256 _value) whenNotPaused public returns (bool success)  {\n    require(_to != address(0));\n    require(_value <= balances[msg.sender]);\n    \n    \n    require(!frozenAccount[msg.sender]);\n    balances[msg.sender] = balances[msg.sender].sub(_value);\n    balances[_to] = balances[_to].add(_value);\n    Transfer(msg.sender, _to, _value);\n    return true;\n  }\n\n  \n  \n  \n  \n  \n  \n  \n  \n  \n\n  function approve(address _spender, uint256 _value) public returns (bool success) {\n    allowances[msg.sender][_spender] = _value;\n    Approval(msg.sender, _spender, _value);\n    return true;\n  }\n\n  function transferFrom(address _owner, address _to, uint256 _value) whenNotPaused public returns (bool success) {\n    require(_to != address(0));\n    require(_value <= balances[_owner]);\n    require(_value <= allowances[_owner][msg.sender]);\n    require(!frozenAccount[_owner]);\n\n    balances[_owner] = balances[_owner].sub(_value);\n    balances[_to] = balances[_to].add(_value);\n    allowances[_owner][msg.sender] = allowances[_owner][msg.sender].sub(_value);\n    Transfer(_owner, _to, _value);\n    return true;\n  }\n\n}\n\n\n\ncontract UpgradeableToken is BaseToken {\n\n  \n  address public upgradeMaster;\n\n  \n  UpgradeAgent public upgradeAgent;\n\n  \n  uint256 public totalUpgraded;\n\n  \n  enum UpgradeState {Unknown, NotAllowed, WaitingForAgent, ReadyToUpgrade, Upgrading}\n\n  \n  event Upgrade(address indexed _from, address indexed _to, uint256 _value);\n\n  \n  event UpgradeAgentSet(address agent);\n\n  \n  function UpgradeAgentEnabledToken(address _upgradeMaster) {\n    upgradeMaster = _upgradeMaster;\n  }\n\n  \n  function upgrade(uint256 value) public {\n\n      UpgradeState state = getUpgradeState();\n      if(!(state == UpgradeState.ReadyToUpgrade || state == UpgradeState.Upgrading)) {\n        \n        revert();\n      }\n\n      \n      if (value == 0) revert();\n\n      balances[msg.sender] = balances[msg.sender].sub(value);\n\n      \n      totalSupply = totalSupply.sub(value);\n      totalUpgraded = totalUpgraded.add(value);\n\n      \n      upgradeAgent.upgradeFrom(msg.sender, value);\n      Upgrade(msg.sender, upgradeAgent, value);\n  }\n\n  \n  function setUpgradeAgent(address agent) external {\n\n      if(!canUpgrade()) {\n        \n        revert();\n      }\n\n      if (agent == 0x0) revert();\n      \n      if (msg.sender != upgradeMaster) revert();\n      \n      if (getUpgradeState() == UpgradeState.Upgrading) revert();\n\n      upgradeAgent = UpgradeAgent(agent);\n\n      \n      if(!upgradeAgent.isUpgradeAgent()) revert();\n      \n      if (upgradeAgent.originalSupply() != totalSupply) revert();\n\n      UpgradeAgentSet(upgradeAgent);\n  }\n\n  \n  function getUpgradeState() public constant returns(UpgradeState) {\n    if(!canUpgrade()) return UpgradeState.NotAllowed;\n    else if(address(upgradeAgent) == 0x00) return UpgradeState.WaitingForAgent;\n    else if(totalUpgraded == 0) return UpgradeState.ReadyToUpgrade;\n    else return UpgradeState.Upgrading;\n  }\n\n  \n  function setUpgradeMaster(address master) public {\n      if (master == 0x0) revert();\n      if (msg.sender != upgradeMaster) revert();\n      upgradeMaster = master;\n  }\n\n  \n  function canUpgrade() public constant returns(bool) {\n     return true;\n  }\n\n}\n\n\n\ncontract YBKToken_1 is UpgradeableToken {\n\n  string public name;\n  string public symbol;\n  uint public decimals;\n  string public version;\n\n  \n   \n   function YBKToken_1(string _name, string _symbol, uint _initialSupply, uint _decimals, string _version) public {\n\n     owner = msg.sender;\n\n     \n     upgradeMaster = owner;\n\n     name = _name;\n     decimals = _decimals;\n     symbol = _symbol;\n     version = _version;\n\n     totalSupply = _initialSupply;\n     balances[msg.sender] = totalSupply;\n\n   }\n\n}\n    \ncontract YBKToken is YBKToken_1 {\n    constructor() YBKToken_1(\"rlf\", \"rlf\", 78, 78, \"rlf\") public { }\n}\n",
  "sourcePath": "/home/XXX-1/smartrim-experiment/for-rlf/0xf56414ae268293dc717878eec223567d960f2f7c/contracts/0xf56414ae268293dc717878eec223567d960f2f7c.sol",
  "compiler": {
    "name": "solc",
    "version": "0.4.25+commit.59dbf8f1.Emscripten.clang"
  },
  "schemaVersion": "3.4.16",
  "updatedAt": "2025-08-14T04:10:33.845Z",
  "devdoc": {
    "methods": {}
  },
  "userdoc": {
    "methods": {}
  }
}