{
  "contractName": "ONOSale_1",
  "abi": [
    {
      "constant": true,
      "inputs": [
        {
          "name": "",
          "type": "uint256"
        },
        {
          "name": "",
          "type": "address"
        }
      ],
      "name": "claimed",
      "outputs": [
        {
          "name": "",
          "type": "bool"
        }
      ],
      "payable": false,
      "stateMutability": "view",
      "type": "function"
    },
    {
      "constant": false,
      "inputs": [
        {
          "name": "owner_",
          "type": "address"
        }
      ],
      "name": "setOwner",
      "outputs": [],
      "payable": false,
      "stateMutability": "nonpayable",
      "type": "function"
    },
    {
      "constant": true,
      "inputs": [],
      "name": "totalSupply",
      "outputs": [
        {
          "name": "",
          "type": "uint128"
        }
      ],
      "payable": false,
      "stateMutability": "view",
      "type": "function"
    },
    {
      "constant": true,
      "inputs": [],
      "name": "foundersAllocation",
      "outputs": [
        {
          "name": "",
          "type": "uint128"
        }
      ],
      "payable": false,
      "stateMutability": "view",
      "type": "function"
    },
    {
      "constant": true,
      "inputs": [],
      "name": "createPerRound",
      "outputs": [
        {
          "name": "",
          "type": "uint256"
        }
      ],
      "payable": false,
      "stateMutability": "view",
      "type": "function"
    },
    {
      "constant": true,
      "inputs": [
        {
          "name": "",
          "type": "uint256"
        }
      ],
      "name": "burned",
      "outputs": [
        {
          "name": "",
          "type": "bool"
        }
      ],
      "payable": false,
      "stateMutability": "view",
      "type": "function"
    },
    {
      "constant": true,
      "inputs": [],
      "name": "ONO",
      "outputs": [
        {
          "name": "",
          "type": "address"
        }
      ],
      "payable": false,
      "stateMutability": "view",
      "type": "function"
    },
    {
      "constant": true,
      "inputs": [],
      "name": "foundersKey",
      "outputs": [
        {
          "name": "",
          "type": "string"
        }
      ],
      "payable": false,
      "stateMutability": "view",
      "type": "function"
    },
    {
      "constant": true,
      "inputs": [
        {
          "name": "",
          "type": "uint256"
        },
        {
          "name": "",
          "type": "address"
        }
      ],
      "name": "userBuys",
      "outputs": [
        {
          "name": "",
          "type": "uint256"
        }
      ],
      "payable": false,
      "stateMutability": "view",
      "type": "function"
    },
    {
      "constant": false,
      "inputs": [
        {
          "name": "addresses",
          "type": "address[]"
        }
      ],
      "name": "removeWhiteList",
      "outputs": [],
      "payable": false,
      "stateMutability": "nonpayable",
      "type": "function"
    },
    {
      "constant": true,
      "inputs": [
        {
          "name": "",
          "type": "uint256"
        },
        {
          "name": "",
          "type": "uint256"
        }
      ],
      "name": "userBuysArray",
      "outputs": [
        {
          "name": "",
          "type": "address"
        }
      ],
      "payable": false,
      "stateMutability": "view",
      "type": "function"
    },
    {
      "constant": true,
      "inputs": [],
      "name": "numberOfRounds",
      "outputs": [
        {
          "name": "",
          "type": "uint256"
        }
      ],
      "payable": false,
      "stateMutability": "view",
      "type": "function"
    },
    {
      "constant": false,
      "inputs": [
        {
          "name": "addresses",
          "type": "address[]"
        }
      ],
      "name": "addAdminList",
      "outputs": [],
      "payable": false,
      "stateMutability": "nonpayable",
      "type": "function"
    },
    {
      "constant": false,
      "inputs": [
        {
          "name": "addresses",
          "type": "address[]"
        }
      ],
      "name": "addWhiteList",
      "outputs": [],
      "payable": false,
      "stateMutability": "nonpayable",
      "type": "function"
    },
    {
      "constant": true,
      "inputs": [
        {
          "name": "",
          "type": "address"
        }
      ],
      "name": "keys",
      "outputs": [
        {
          "name": "",
          "type": "string"
        }
      ],
      "payable": false,
      "stateMutability": "view",
      "type": "function"
    },
    {
      "constant": true,
      "inputs": [],
      "name": "createFirstRound",
      "outputs": [
        {
          "name": "",
          "type": "uint256"
        }
      ],
      "payable": false,
      "stateMutability": "view",
      "type": "function"
    },
    {
      "constant": true,
      "inputs": [],
      "name": "startTime",
      "outputs": [
        {
          "name": "",
          "type": "uint256"
        }
      ],
      "payable": false,
      "stateMutability": "view",
      "type": "function"
    },
    {
      "constant": false,
      "inputs": [
        {
          "name": "authority_",
          "type": "address"
        }
      ],
      "name": "setAuthority",
      "outputs": [],
      "payable": false,
      "stateMutability": "nonpayable",
      "type": "function"
    },
    {
      "constant": true,
      "inputs": [
        {
          "name": "",
          "type": "uint256"
        }
      ],
      "name": "dailyTotals",
      "outputs": [
        {
          "name": "",
          "type": "uint256"
        }
      ],
      "payable": false,
      "stateMutability": "view",
      "type": "function"
    },
    {
      "constant": true,
      "inputs": [
        {
          "name": "",
          "type": "address"
        }
      ],
      "name": "adminlist",
      "outputs": [
        {
          "name": "",
          "type": "bool"
        }
      ],
      "payable": false,
      "stateMutability": "view",
      "type": "function"
    },
    {
      "constant": true,
      "inputs": [],
      "name": "owner",
      "outputs": [
        {
          "name": "",
          "type": "address"
        }
      ],
      "payable": false,
      "stateMutability": "view",
      "type": "function"
    },
    {
      "constant": true,
      "inputs": [
        {
          "name": "",
          "type": "address"
        }
      ],
      "name": "whitelist",
      "outputs": [
        {
          "name": "",
          "type": "bool"
        }
      ],
      "payable": false,
      "stateMutability": "view",
      "type": "function"
    },
    {
      "constant": true,
      "inputs": [],
      "name": "openTime",
      "outputs": [
        {
          "name": "",
          "type": "uint256"
        }
      ],
      "payable": false,
      "stateMutability": "view",
      "type": "function"
    },
    {
      "constant": true,
      "inputs": [],
      "name": "authority",
      "outputs": [
        {
          "name": "",
          "type": "address"
        }
      ],
      "payable": false,
      "stateMutability": "view",
      "type": "function"
    },
    {
      "constant": true,
      "inputs": [],
      "name": "founderAddr",
      "outputs": [
        {
          "name": "",
          "type": "address"
        }
      ],
      "payable": false,
      "stateMutability": "view",
      "type": "function"
    },
    {
      "constant": false,
      "inputs": [
        {
          "name": "addresses",
          "type": "address[]"
        }
      ],
      "name": "removeAdminList",
      "outputs": [],
      "payable": false,
      "stateMutability": "nonpayable",
      "type": "function"
    },
    {
      "constant": true,
      "inputs": [],
      "name": "burnAddr",
      "outputs": [
        {
          "name": "",
          "type": "address"
        }
      ],
      "payable": false,
      "stateMutability": "view",
      "type": "function"
    },
    {
      "inputs": [
        {
          "name": "_numberOfRounds",
          "type": "uint256"
        },
        {
          "name": "_totalSupply",
          "type": "uint128"
        },
        {
          "name": "_firstRoundSupply",
          "type": "uint128"
        },
        {
          "name": "_openTime",
          "type": "uint256"
        },
        {
          "name": "_startTime",
          "type": "uint256"
        },
        {
          "name": "_foundersAllocation",
          "type": "uint128"
        },
        {
          "name": "_foundersKey",
          "type": "string"
        }
      ],
      "payable": false,
      "stateMutability": "nonpayable",
      "type": "constructor"
    },
    {
      "payable": true,
      "stateMutability": "payable",
      "type": "fallback"
    },
    {
      "anonymous": false,
      "inputs": [
        {
          "indexed": false,
          "name": "window",
          "type": "uint256"
        },
        {
          "indexed": false,
          "name": "user",
          "type": "address"
        },
        {
          "indexed": false,
          "name": "amount",
          "type": "uint256"
        }
      ],
      "name": "LogBuy",
      "type": "event"
    },
    {
      "anonymous": false,
      "inputs": [
        {
          "indexed": false,
          "name": "window",
          "type": "uint256"
        },
        {
          "indexed": false,
          "name": "user",
          "type": "address"
        },
        {
          "indexed": false,
          "name": "amount",
          "type": "uint256"
        }
      ],
      "name": "LogClaim",
      "type": "event"
    },
    {
      "anonymous": false,
      "inputs": [
        {
          "indexed": false,
          "name": "user",
          "type": "address"
        },
        {
          "indexed": false,
          "name": "amount",
          "type": "uint256"
        }
      ],
      "name": "LogMint",
      "type": "event"
    },
    {
      "anonymous": false,
      "inputs": [
        {
          "indexed": false,
          "name": "window",
          "type": "uint256"
        },
        {
          "indexed": false,
          "name": "user",
          "type": "address"
        },
        {
          "indexed": false,
          "name": "amount",
          "type": "uint256"
        }
      ],
      "name": "LogBurn",
      "type": "event"
    },
    {
      "anonymous": false,
      "inputs": [
        {
          "indexed": false,
          "name": "user",
          "type": "address"
        },
        {
          "indexed": false,
          "name": "key",
          "type": "string"
        }
      ],
      "name": "LogRegister",
      "type": "event"
    },
    {
      "anonymous": false,
      "inputs": [
        {
          "indexed": false,
          "name": "amount",
          "type": "uint256"
        }
      ],
      "name": "LogCollect",
      "type": "event"
    },
    {
      "anonymous": false,
      "inputs": [
        {
          "indexed": true,
          "name": "authority",
          "type": "address"
        }
      ],
      "name": "LogSetAuthority",
      "type": "event"
    },
    {
      "anonymous": false,
      "inputs": [
        {
          "indexed": true,
          "name": "owner",
          "type": "address"
        }
      ],
      "name": "LogSetOwner",
      "type": "event"
    },
    {
      "constant": false,
      "inputs": [
        {
          "name": "ono",
          "type": "address"
        }
      ],
      "name": "initialize",
      "outputs": [],
      "payable": false,
      "stateMutability": "nonpayable",
      "type": "function"
    },
    {
      "constant": true,
      "inputs": [],
      "name": "time",
      "outputs": [
        {
          "name": "",
          "type": "uint256"
        }
      ],
      "payable": false,
      "stateMutability": "view",
      "type": "function"
    },
    {
      "constant": true,
      "inputs": [],
      "name": "currRound",
      "outputs": [
        {
          "name": "",
          "type": "uint256"
        }
      ],
      "payable": false,
      "stateMutability": "view",
      "type": "function"
    },
    {
      "constant": true,
      "inputs": [
        {
          "name": "timestamp",
          "type": "uint256"
        }
      ],
      "name": "roundFor",
      "outputs": [
        {
          "name": "",
          "type": "uint256"
        }
      ],
      "payable": false,
      "stateMutability": "view",
      "type": "function"
    },
    {
      "constant": true,
      "inputs": [
        {
          "name": "round",
          "type": "uint256"
        }
      ],
      "name": "createOnRound",
      "outputs": [
        {
          "name": "",
          "type": "uint256"
        }
      ],
      "payable": false,
      "stateMutability": "view",
      "type": "function"
    },
    {
      "constant": false,
      "inputs": [
        {
          "name": "round",
          "type": "uint256"
        }
      ],
      "name": "claim",
      "outputs": [],
      "payable": false,
      "stateMutability": "nonpayable",
      "type": "function"
    },
    {
      "constant": false,
      "inputs": [],
      "name": "claimAll",
      "outputs": [],
      "payable": false,
      "stateMutability": "nonpayable",
      "type": "function"
    },
    {
      "constant": false,
      "inputs": [
        {
          "name": "key",
          "type": "string"
        }
      ],
      "name": "register",
      "outputs": [],
      "payable": false,
      "stateMutability": "nonpayable",
      "type": "function"
    },
    {
      "constant": false,
      "inputs": [],
      "name": "buy",
      "outputs": [],
      "payable": true,
      "stateMutability": "payable",
      "type": "function"
    },
    {
      "constant": false,
      "inputs": [
        {
          "name": "addresses",
          "type": "address[]"
        },
        {
          "name": "round",
          "type": "uint256"
        }
      ],
      "name": "claimAddresses",
      "outputs": [],
      "payable": false,
      "stateMutability": "nonpayable",
      "type": "function"
    },
    {
      "constant": false,
      "inputs": [
        {
          "name": "addr",
          "type": "address"
        },
        {
          "name": "round",
          "type": "uint256"
        }
      ],
      "name": "claimAddress",
      "outputs": [],
      "payable": false,
      "stateMutability": "nonpayable",
      "type": "function"
    },
    {
      "constant": false,
      "inputs": [
        {
          "name": "deltaSupply",
          "type": "uint128"
        }
      ],
      "name": "mint",
      "outputs": [],
      "payable": false,
      "stateMutability": "nonpayable",
      "type": "function"
    },
    {
      "constant": false,
      "inputs": [
        {
          "name": "round",
          "type": "uint256"
        }
      ],
      "name": "burn",
      "outputs": [],
      "payable": false,
      "stateMutability": "nonpayable",
      "type": "function"
    },
    {
      "constant": false,
      "inputs": [],
      "name": "collect",
      "outputs": [],
      "payable": false,
      "stateMutability": "nonpayable",
      "type": "function"
    },
    {
      "constant": false,
      "inputs": [],
      "name": "start",
      "outputs": [],
      "payable": false,
      "stateMutability": "nonpayable",
      "type": "function"
    },
    {
      "constant": false,
      "inputs": [],
      "name": "stop",
      "outputs": [],
      "payable": false,
      "stateMutability": "nonpayable",
      "type": "function"
    }
  ],
  "bytecode": "0x608060405273f9baaa91e617df1de6c2386b789b401c422e9ab1600c60006101000a81548173ffffffffffffffffffffffffffffffffffffffff021916908373ffffffffffffffffffffffffffffffffffffffff16021790555073a3ad4efdd5719eaed1b0f2e12c0d7368a6d11037600d60006101000a81548173ffffffffffffffffffffffffffffffffffffffff021916908373ffffffffffffffffffffffffffffffffffffffff160217905550348015620000bb57600080fd5b5060405162003e8638038062003e868339810180604052810190808051906020019092919080519060200190929190805190602001909291908051906020019092919080519060200190929190805190602001909291908051820192919050505033600160006101000a81548173ffffffffffffffffffffffffffffffffffffffff021916908373ffffffffffffffffffffffffffffffffffffffff1602179055503373ffffffffffffffffffffffffffffffffffffffff167fce241d7ca1f669fee44b6fc00b8eba2df3bb514eed0f6f668f8f89096e81ed9460405160405180910390a286600a8190555085600560006101000a8154816fffffffffffffffffffffffffffffffff02191690836fffffffffffffffffffffffffffffffff160217905550836007819055508260098190555081600560106101000a8154816fffffffffffffffffffffffffffffffff02191690836fffffffffffffffffffffffffffffffff16021790555080600690805190602001906200023f929190620003db565b50846fffffffffffffffffffffffffffffffff166008819055506200030c620002f4620002dc600560009054906101000a90046fffffffffffffffffffffffffffffffff166fffffffffffffffffffffffffffffffff16600560109054906101000a90046fffffffffffffffffffffffffffffffff166fffffffffffffffffffffffffffffffff16620003aa640100000000026401000000009004565b600854620003aa640100000000026401000000009004565b600a54620003c4640100000000026401000000009004565b600b819055506000600a541115156200032157fe5b600560109054906101000a90046fffffffffffffffffffffffffffffffff166fffffffffffffffffffffffffffffffff16600560009054906101000a90046fffffffffffffffffffffffffffffffff166fffffffffffffffffffffffffffffffff161115156200038d57fe5b6009546007541015156200039d57fe5b505050505050506200048a565b60008282840391508111151515620003be57fe5b92915050565b60008183811515620003d257fe5b04905092915050565b828054600181600116156101000203166002900490600052602060002090601f016020900481019282601f106200041e57805160ff19168380011785556200044f565b828001600101855582156200044f579182015b828111156200044e57825182559160200191906001019062000431565b5b5090506200045e919062000462565b5090565b6200048791905b808211156200048357600081600090555060010162000469565b5090565b90565b6139ec806200049a6000396000f30060806040526004361061020f576000357c0100000000000000000000000000000000000000000000000000000000900463ffffffff16806307da68f514610219578063120aa8771461023057806313af40351461029557806316ada547146102d857806318160ddd146103035780631db580fa146103525780631effc0d8146103a157806323250cae146103cc5780632c8be60e14610411578063379607f514610468578063389ae4d1146104955780633904e1bf1461052557806339745791146105865780633a7dab5e146105ec5780633bde045f146106635780633f5d80561461068e57806342966c68146106b95780635c9442a1146106e65780635e1045ec1461074c578063670d14b2146107b257806369d3e20e1461086e57806370c8f8ad146108ad57806378e97925146108d85780637a9e5e4b146109035780637d34f5ac146109465780638831597f146109875780638da5cb5b146109e25780639373b8bd14610a39578063940df41414610aa95780639b19251a14610af6578063a6f2ae3a14610b51578063b425688814610b5b578063be9a655514610b86578063bf7e214f14610b9d578063c4d66de814610bf4578063c9b5e55514610c37578063ca0d956414610c8e578063d1058e5914610cf4578063d246d41114610d0b578063e522538114610d62578063f25c130a14610d79578063f2c298be14610dba578063ffe4fe4c14610e23575b610217610e64565b005b34801561022557600080fd5b5061022e6111a5565b005b34801561023c57600080fd5b5061027b60048036038101908080359060200190929190803573ffffffffffffffffffffffffffffffffffffffff16906020019092919050505061127b565b604051808215151515815260200191505060405180910390f35b3480156102a157600080fd5b506102d6600480360381019080803573ffffffffffffffffffffffffffffffffffffffff1690602001909291905050506112aa565b005b3480156102e457600080fd5b506102ed6113c5565b6040518082815260200191505060405180910390f35b34801561030f57600080fd5b506103186113cd565b60405180826fffffffffffffffffffffffffffffffff166fffffffffffffffffffffffffffffffff16815260200191505060405180910390f35b34801561035e57600080fd5b506103676113ef565b60405180826fffffffffffffffffffffffffffffffff166fffffffffffffffffffffffffffffffff16815260200191505060405180910390f35b3480156103ad57600080fd5b506103b6611411565b6040518082815260200191505060405180910390f35b3480156103d857600080fd5b506103f760048036038101908080359060200190929190505050611417565b604051808215151515815260200191505060405180910390f35b34801561041d57600080fd5b50610426611437565b604051808273ffffffffffffffffffffffffffffffffffffffff1673ffffffffffffffffffffffffffffffffffffffff16815260200191505060405180910390f35b34801561047457600080fd5b506104936004803603810190808035906020019092919050505061145d565b005b3480156104a157600080fd5b506104aa61146a565b6040518080602001828103825283818151815260200191508051906020019080838360005b838110156104ea5780820151818401526020810190506104cf565b50505050905090810190601f1680156105175780820380516001836020036101000a031916815260200191505b509250505060405180910390f35b34801561053157600080fd5b5061057060048036038101908080359060200190929190803573ffffffffffffffffffffffffffffffffffffffff169060200190929190505050611508565b6040518082815260200191505060405180910390f35b34801561059257600080fd5b506105ea6004803603810190808035906020019082018035906020019080806020026020016040519081016040528093929190818152602001838360200280828437820191505050505050919291929050505061152d565b005b3480156105f857600080fd5b506106216004803603810190808035906020019092919080359060200190929190505050611619565b604051808273ffffffffffffffffffffffffffffffffffffffff1673ffffffffffffffffffffffffffffffffffffffff16815260200191505060405180910390f35b34801561066f57600080fd5b50610678611666565b6040518082815260200191505060405180910390f35b34801561069a57600080fd5b506106a361166c565b6040518082815260200191505060405180910390f35b3480156106c557600080fd5b506106e460048036038101908080359060200190929190505050611683565b005b3480156106f257600080fd5b5061074a60048036038101908080359060200190820180359060200190808060200260200160405190810160405280939291908181526020018383602002808284378201915050505050509192919290505050611ca4565b005b34801561075857600080fd5b506107b060048036038101908080359060200190820180359060200190808060200260200160405190810160405280939291908181526020018383602002808284378201915050505050509192919290505050611d6a565b005b3480156107be57600080fd5b506107f3600480360381019080803573ffffffffffffffffffffffffffffffffffffffff169060200190929190505050611e56565b6040518080602001828103825283818151815260200191508051906020019080838360005b83811015610833578082015181840152602081019050610818565b50505050905090810190601f1680156108605780820380516001836020036101000a031916815260200191505b509250505060405180910390f35b34801561087a57600080fd5b506108ab60048036038101908080356fffffffffffffffffffffffffffffffff169060200190929190505050611f06565b005b3480156108b957600080fd5b506108c26121f2565b6040518082815260200191505060405180910390f35b3480156108e457600080fd5b506108ed6121f8565b6040518082815260200191505060405180910390f35b34801561090f57600080fd5b50610944600480360381019080803573ffffffffffffffffffffffffffffffffffffffff1690602001909291905050506121fe565b005b34801561095257600080fd5b50610971600480360381019080803590602001909291905050506122db565b6040518082815260200191505060405180910390f35b34801561099357600080fd5b506109c8600480360381019080803573ffffffffffffffffffffffffffffffffffffffff1690602001909291905050506122f3565b604051808215151515815260200191505060405180910390f35b3480156109ee57600080fd5b506109f7612313565b604051808273ffffffffffffffffffffffffffffffffffffffff1673ffffffffffffffffffffffffffffffffffffffff16815260200191505060405180910390f35b348015610a4557600080fd5b50610aa76004803603810190808035906020019082018035906020019080806020026020016040519081016040528093929190818152602001838360200280828437820191505050505050919291929080359060200190929190505050612339565b005b348015610ab557600080fd5b50610af4600480360381019080803573ffffffffffffffffffffffffffffffffffffffff169060200190929190803590602001909291905050506123dd565b005b348015610b0257600080fd5b50610b37600480360381019080803573ffffffffffffffffffffffffffffffffffffffff16906020019092919050505061277b565b604051808215151515815260200191505060405180910390f35b610b59610e64565b005b348015610b6757600080fd5b50610b7061279b565b6040518082815260200191505060405180910390f35b348015610b9257600080fd5b50610b9b6127a1565b005b348015610ba957600080fd5b50610bb2612877565b604051808273ffffffffffffffffffffffffffffffffffffffff1673ffffffffffffffffffffffffffffffffffffffff16815260200191505060405180910390f35b348015610c0057600080fd5b50610c35600480360381019080803573ffffffffffffffffffffffffffffffffffffffff16906020019092919050505061289c565b005b348015610c4357600080fd5b50610c4c612fa8565b604051808273ffffffffffffffffffffffffffffffffffffffff1673ffffffffffffffffffffffffffffffffffffffff16815260200191505060405180910390f35b348015610c9a57600080fd5b50610cf260048036038101908080359060200190820180359060200190808060200260200160405190810160405280939291908181526020018383602002808284378201915050505050509192919290505050612fce565b005b348015610d0057600080fd5b50610d09613094565b005b348015610d1757600080fd5b50610d206130c2565b604051808273ffffffffffffffffffffffffffffffffffffffff1673ffffffffffffffffffffffffffffffffffffffff16815260200191505060405180910390f35b348015610d6e57600080fd5b50610d776130e8565b005b348015610d8557600080fd5b50610da4600480360381019080803590602001909291905050506131a2565b6040518082815260200191505060405180910390f35b348015610dc657600080fd5b50610e21600480360381019080803590602001908201803590602001908080601f01602080910402602001604051908101604052809392919081815260200183838082843782019150505050505091929192905050506131be565b005b348015610e2f57600080fd5b50610e4e6004803603810190808035906020019092919050505061330b565b6040518082815260200191505060405180910390f35b60008060008060011515600260003373ffffffffffffffffffffffffffffffffffffffff1673ffffffffffffffffffffffffffffffffffffffff16815260200190815260200160002060009054906101000a900460ff161515141515610ec657fe5b610ece61166c565b9350600754610edb6113c5565b10158015610eeb5750600a548411155b1515610ef357fe5b67016345785d8a00003410151515610f0757fe5b610f61600f600086815260200190815260200160002060003373ffffffffffffffffffffffffffffffffffffffff1673ffffffffffffffffffffffffffffffffffffffff1681526020019081526020016000205434613342565b600f600086815260200190815260200160002060003373ffffffffffffffffffffffffffffffffffffffff1673ffffffffffffffffffffffffffffffffffffffff16815260200190815260200160002081905550610fd2600e60008681526020019081526020016000205434613342565b600e60008681526020019081526020016000208190555060009250600091505b60126000858152602001908152602001600020805490508210156110a757601260008581526020019081526020016000208281548110151561103057fe5b9060005260206000200160009054906101000a900473ffffffffffffffffffffffffffffffffffffffff1690503373ffffffffffffffffffffffffffffffffffffffff168173ffffffffffffffffffffffffffffffffffffffff16141561109a57600192506110a7565b8180600101925050610ff2565b60001515831515141561112c57601260008581526020019081526020016000203390806001815401808255809150509060018203906000526020600020016000909192909190916101000a81548173ffffffffffffffffffffffffffffffffffffffff021916908373ffffffffffffffffffffffffffffffffffffffff160217905550505b7fe054057d0479c6218d6ec87be73f88230a7e4e1f064cee6e7504e2c4cd9d6150843334604051808481526020018373ffffffffffffffffffffffffffffffffffffffff1673ffffffffffffffffffffffffffffffffffffffff168152602001828152602001935050505060405180910390a150505050565b6111d3336000357fffffffff000000000000000000000000000000000000000000000000000000001661335b565b15156111db57fe5b600460009054906101000a900473ffffffffffffffffffffffffffffffffffffffff1673ffffffffffffffffffffffffffffffffffffffff166307da68f56040518163ffffffff167c0100000000000000000000000000000000000000000000000000000000028152600401600060405180830381600087803b15801561126157600080fd5b505af1158015611275573d6000803e3d6000fd5b50505050565b60106020528160005260406000206020528060005260406000206000915091509054906101000a900460ff1681565b6112d8336000357fffffffff000000000000000000000000000000000000000000000000000000001661335b565b15156112e057fe5b600073ffffffffffffffffffffffffffffffffffffffff168173ffffffffffffffffffffffffffffffffffffffff161415151561131c57600080fd5b80600160006101000a81548173ffffffffffffffffffffffffffffffffffffffff021916908373ffffffffffffffffffffffffffffffffffffffff160217905550600160009054906101000a900473ffffffffffffffffffffffffffffffffffffffff1673ffffffffffffffffffffffffffffffffffffffff167fce241d7ca1f669fee44b6fc00b8eba2df3bb514eed0f6f668f8f89096e81ed9460405160405180910390a250565b600042905090565b600560009054906101000a90046fffffffffffffffffffffffffffffffff1681565b600560109054906101000a90046fffffffffffffffffffffffffffffffff1681565b600b5481565b60136020528060005260406000206000915054906101000a900460ff1681565b600460009054906101000a900473ffffffffffffffffffffffffffffffffffffffff1681565b61146733826123dd565b50565b60068054600181600116156101000203166002900480601f0160208091040260200160405190810160405280929190818152602001828054600181600116156101000203166002900480156115005780601f106114d557610100808354040283529160200191611500565b820191906000526020600020905b8154815290600101906020018083116114e357829003601f168201915b505050505081565b600f602052816000526040600020602052806000526040600020600091509150505481565b600060011515600360003373ffffffffffffffffffffffffffffffffffffffff1673ffffffffffffffffffffffffffffffffffffffff16815260200190815260200160002060009054906101000a900460ff16151514151561158b57fe5b600090505b81518110156116155760006002600084848151811015156115ad57fe5b9060200190602002015173ffffffffffffffffffffffffffffffffffffffff1673ffffffffffffffffffffffffffffffffffffffff16815260200190815260200160002060006101000a81548160ff0219169083151502179055508080600101915050611590565b5050565b60126020528160005260406000208181548110151561163457fe5b906000526020600020016000915091509054906101000a900473ffffffffffffffffffffffffffffffffffffffff1681565b600a5481565b600061167e6116796113c5565b61330b565b905090565b600080600080600060011515600360003373ffffffffffffffffffffffffffffffffffffffff1673ffffffffffffffffffffffffffffffffffffffff16815260200190815260200160002060009054906101000a900460ff1615151415156116e757fe5b6007546116f26113c5565b101580156117025750600a548611155b151561170a57fe5b8561171361166c565b11151561171c57fe5b600015156013600088815260200190815260200160002060009054906101000a900460ff16151514151561174c57fe5b611768600e6000888152602001908152602001600020546135d2565b945061177b611776876131a2565b6135d2565b93506000856fffffffffffffffffffffffffffffffff1614156119b75760016013600088815260200190815260200160002060006101000a81548160ff021916908315150217905550600460009054906101000a900473ffffffffffffffffffffffffffffffffffffffff1673ffffffffffffffffffffffffffffffffffffffff16633452f51d600d60009054906101000a900473ffffffffffffffffffffffffffffffffffffffff16866040518363ffffffff167c0100000000000000000000000000000000000000000000000000000000028152600401808373ffffffffffffffffffffffffffffffffffffffff1673ffffffffffffffffffffffffffffffffffffffff168152602001826fffffffffffffffffffffffffffffffff166fffffffffffffffffffffffffffffffff16815260200192505050602060405180830381600087803b1580156118cf57600080fd5b505af11580156118e3573d6000803e3d6000fd5b505050506040513d60208110156118f957600080fd5b8101908080519060200190929190505050507fc6153bcdea8e01f311c1272fa84ef0c6fb227f082f3bcdf834a6d1749295e59586600d60009054906101000a900473ffffffffffffffffffffffffffffffffffffffff1686604051808481526020018373ffffffffffffffffffffffffffffffffffffffff1673ffffffffffffffffffffffffffffffffffffffff168152602001826fffffffffffffffffffffffffffffffff168152602001935050505060405180910390a1611c9c565b6119c184866135f9565b92506119d1620927c060016135f9565b9150816fffffffffffffffffffffffffffffffff16836fffffffffffffffffffffffffffffffff161115611c6e57819250611a0c8386613697565b9050806fffffffffffffffffffffffffffffffff16846fffffffffffffffffffffffffffffffff16111515611a3d57fe5b60016013600088815260200190815260200160002060006101000a81548160ff021916908315150217905550600460009054906101000a900473ffffffffffffffffffffffffffffffffffffffff1673ffffffffffffffffffffffffffffffffffffffff16633452f51d600d60009054906101000a900473ffffffffffffffffffffffffffffffffffffffff16611ad4878561373d565b6040518363ffffffff167c0100000000000000000000000000000000000000000000000000000000028152600401808373ffffffffffffffffffffffffffffffffffffffff1673ffffffffffffffffffffffffffffffffffffffff168152602001826fffffffffffffffffffffffffffffffff166fffffffffffffffffffffffffffffffff16815260200192505050602060405180830381600087803b158015611b7d57600080fd5b505af1158015611b91573d6000803e3d6000fd5b505050506040513d6020811015611ba757600080fd5b8101908080519060200190929190505050507fc6153bcdea8e01f311c1272fa84ef0c6fb227f082f3bcdf834a6d1749295e59586600d60009054906101000a900473ffffffffffffffffffffffffffffffffffffffff16611c08878561373d565b604051808481526020018373ffffffffffffffffffffffffffffffffffffffff1673ffffffffffffffffffffffffffffffffffffffff168152602001826fffffffffffffffffffffffffffffffff168152602001935050505060405180910390a1611c9b565b60016013600088815260200190815260200160002060006101000a81548160ff0219169083151502179055505b5b505050505050565b6000611cd4336000357fffffffff000000000000000000000000000000000000000000000000000000001661335b565b1515611cdc57fe5b600090505b8151811015611d66576001600360008484815181101515611cfe57fe5b9060200190602002015173ffffffffffffffffffffffffffffffffffffffff1673ffffffffffffffffffffffffffffffffffffffff16815260200190815260200160002060006101000a81548160ff0219169083151502179055508080600101915050611ce1565b5050565b600060011515600360003373ffffffffffffffffffffffffffffffffffffffff1673ffffffffffffffffffffffffffffffffffffffff16815260200190815260200160002060009054906101000a900460ff161515141515611dc857fe5b600090505b8151811015611e52576001600260008484815181101515611dea57fe5b9060200190602002015173ffffffffffffffffffffffffffffffffffffffff1673ffffffffffffffffffffffffffffffffffffffff16815260200190815260200160002060006101000a81548160ff0219169083151502179055508080600101915050611dcd565b5050565b60116020528060005260406000206000915090508054600181600116156101000203166002900480601f016020809104026020016040519081016040528092919081815260200182805460018160011615610100020316600290048015611efe5780601f10611ed357610100808354040283529160200191611efe565b820191906000526020600020905b815481529060010190602001808311611ee157829003601f168201915b505050505081565b611f34336000357fffffffff000000000000000000000000000000000000000000000000000000001661335b565b1515611f3c57fe5b600460009054906101000a900473ffffffffffffffffffffffffffffffffffffffff1673ffffffffffffffffffffffffffffffffffffffff166369d3e20e826040518263ffffffff167c010000000000000000000000000000000000000000000000000000000002815260040180826fffffffffffffffffffffffffffffffff166fffffffffffffffffffffffffffffffff168152602001915050600060405180830381600087803b158015611ff157600080fd5b505af1158015612005573d6000803e3d6000fd5b50505050600460009054906101000a900473ffffffffffffffffffffffffffffffffffffffff1673ffffffffffffffffffffffffffffffffffffffff16633452f51d600c60009054906101000a900473ffffffffffffffffffffffffffffffffffffffff16836040518363ffffffff167c0100000000000000000000000000000000000000000000000000000000028152600401808373ffffffffffffffffffffffffffffffffffffffff1673ffffffffffffffffffffffffffffffffffffffff168152602001826fffffffffffffffffffffffffffffffff166fffffffffffffffffffffffffffffffff16815260200192505050602060405180830381600087803b15801561211457600080fd5b505af1158015612128573d6000803e3d6000fd5b505050506040513d602081101561213e57600080fd5b8101908080519060200190929190505050507f9f494565851dbcb31fb5198ca217cda6833282fadb96ba9431bd19c82afc1dd3600c60009054906101000a900473ffffffffffffffffffffffffffffffffffffffff1682604051808373ffffffffffffffffffffffffffffffffffffffff1673ffffffffffffffffffffffffffffffffffffffff168152602001826fffffffffffffffffffffffffffffffff1681526020019250505060405180910390a150565b60085481565b60095481565b61222c336000357fffffffff000000000000000000000000000000000000000000000000000000001661335b565b151561223457fe5b806000806101000a81548173ffffffffffffffffffffffffffffffffffffffff021916908373ffffffffffffffffffffffffffffffffffffffff1602179055506000809054906101000a900473ffffffffffffffffffffffffffffffffffffffff1673ffffffffffffffffffffffffffffffffffffffff167f1abebea81bfa2637f28358c371278fb15ede7ea8dd28d2e03b112ff6d936ada460405160405180910390a250565b600e6020528060005260406000206000915090505481565b60036020528060005260406000206000915054906101000a900460ff1681565b600160009054906101000a900473ffffffffffffffffffffffffffffffffffffffff1681565b60008060011515600360003373ffffffffffffffffffffffffffffffffffffffff1673ffffffffffffffffffffffffffffffffffffffff16815260200190815260200160002060009054906101000a900460ff16151514151561239857fe5b83519150600090505b818110156123d7576123ca84828151811015156123ba57fe5b90602001906020020151846123dd565b80806001019150506123a1565b50505050565b6000806000806000856123ee61166c565b1115156123f757fe5b6010600087815260200190815260200160002060008873ffffffffffffffffffffffffffffffffffffffff1673ffffffffffffffffffffffffffffffffffffffff16815260200190815260200160002060009054906101000a900460ff168061247357506000600e600088815260200190815260200160002054145b1561247d57612772565b612499600e6000888152602001908152602001600020546135d2565b94506124f4600f600088815260200190815260200160002060008973ffffffffffffffffffffffffffffffffffffffff1673ffffffffffffffffffffffffffffffffffffffff168152602001908152602001600020546135d2565b935061251061250a612505886131a2565b6135d2565b866135f9565b9250612520620927c060016135f9565b9150816fffffffffffffffffffffffffffffffff16836fffffffffffffffffffffffffffffffff161115612552578192505b61255c8385613697565b905060016010600088815260200190815260200160002060008973ffffffffffffffffffffffffffffffffffffffff1673ffffffffffffffffffffffffffffffffffffffff16815260200190815260200160002060006101000a81548160ff021916908315150217905550600460009054906101000a900473ffffffffffffffffffffffffffffffffffffffff1673ffffffffffffffffffffffffffffffffffffffff16633452f51d88836040518363ffffffff167c0100000000000000000000000000000000000000000000000000000000028152600401808373ffffffffffffffffffffffffffffffffffffffff1673ffffffffffffffffffffffffffffffffffffffff168152602001826fffffffffffffffffffffffffffffffff166fffffffffffffffffffffffffffffffff16815260200192505050602060405180830381600087803b1580156126b057600080fd5b505af11580156126c4573d6000803e3d6000fd5b505050506040513d60208110156126da57600080fd5b8101908080519060200190929190505050507f51223fdc0a25891366fb358b4af9fe3c381b1566e287c61a29d01c8a173fe4f4868883604051808481526020018373ffffffffffffffffffffffffffffffffffffffff1673ffffffffffffffffffffffffffffffffffffffff168152602001826fffffffffffffffffffffffffffffffff168152602001935050505060405180910390a15b50505050505050565b60026020528060005260406000206000915054906101000a900460ff1681565b60075481565b6127cf336000357fffffffff000000000000000000000000000000000000000000000000000000001661335b565b15156127d757fe5b600460009054906101000a900473ffffffffffffffffffffffffffffffffffffffff1673ffffffffffffffffffffffffffffffffffffffff1663be9a65556040518163ffffffff167c0100000000000000000000000000000000000000000000000000000000028152600401600060405180830381600087803b15801561285d57600080fd5b505af1158015612871573d6000803e3d6000fd5b50505050565b6000809054906101000a900473ffffffffffffffffffffffffffffffffffffffff1681565b6128ca336000357fffffffff000000000000000000000000000000000000000000000000000000001661335b565b15156128d257fe5b600073ffffffffffffffffffffffffffffffffffffffff16600460009054906101000a900473ffffffffffffffffffffffffffffffffffffffff1673ffffffffffffffffffffffffffffffffffffffff1614151561292c57fe5b3073ffffffffffffffffffffffffffffffffffffffff168173ffffffffffffffffffffffffffffffffffffffff16638da5cb5b6040518163ffffffff167c0100000000000000000000000000000000000000000000000000000000028152600401602060405180830381600087803b1580156129a757600080fd5b505af11580156129bb573d6000803e3d6000fd5b505050506040513d60208110156129d157600080fd5b810190808051906020019092919050505073ffffffffffffffffffffffffffffffffffffffff16141515612a0157fe5b600073ffffffffffffffffffffffffffffffffffffffff168173ffffffffffffffffffffffffffffffffffffffff1663bf7e214f6040518163ffffffff167c0100000000000000000000000000000000000000000000000000000000028152600401602060405180830381600087803b158015612a7d57600080fd5b505af1158015612a91573d6000803e3d6000fd5b505050506040513d6020811015612aa757600080fd5b810190808051906020019092919050505073ffffffffffffffffffffffffffffffffffffffff16141515612ad757fe5b60008173ffffffffffffffffffffffffffffffffffffffff166318160ddd6040518163ffffffff167c0100000000000000000000000000000000000000000000000000000000028152600401602060405180830381600087803b158015612b3d57600080fd5b505af1158015612b51573d6000803e3d6000fd5b505050506040513d6020811015612b6757600080fd5b8101908080519060200190929190505050141515612b8157fe5b80600460006101000a81548173ffffffffffffffffffffffffffffffffffffffff021916908373ffffffffffffffffffffffffffffffffffffffff160217905550600460009054906101000a900473ffffffffffffffffffffffffffffffffffffffff1673ffffffffffffffffffffffffffffffffffffffff166369d3e20e600560009054906101000a90046fffffffffffffffffffffffffffffffff166040518263ffffffff167c010000000000000000000000000000000000000000000000000000000002815260040180826fffffffffffffffffffffffffffffffff166fffffffffffffffffffffffffffffffff168152602001915050600060405180830381600087803b158015612c9557600080fd5b505af1158015612ca9573d6000803e3d6000fd5b50505050600460009054906101000a900473ffffffffffffffffffffffffffffffffffffffff1673ffffffffffffffffffffffffffffffffffffffff16633452f51d600c60009054906101000a900473ffffffffffffffffffffffffffffffffffffffff16600560109054906101000a90046fffffffffffffffffffffffffffffffff166040518363ffffffff167c0100000000000000000000000000000000000000000000000000000000028152600401808373ffffffffffffffffffffffffffffffffffffffff1673ffffffffffffffffffffffffffffffffffffffff168152602001826fffffffffffffffffffffffffffffffff166fffffffffffffffffffffffffffffffff16815260200192505050602060405180830381600087803b158015612dd657600080fd5b505af1158015612dea573d6000803e3d6000fd5b505050506040513d6020811015612e0057600080fd5b810190808051906020019092919050505050600660116000600c60009054906101000a900473ffffffffffffffffffffffffffffffffffffffff1673ffffffffffffffffffffffffffffffffffffffff1673ffffffffffffffffffffffffffffffffffffffff1681526020019081526020016000209080546001816001161561010002031660029004612e94929190613894565b507fd80364ba2cbb1e827ab8adac9651cdfc27fb7b61c0a95663cb80b82d7636ad22600c60009054906101000a900473ffffffffffffffffffffffffffffffffffffffff166006604051808373ffffffffffffffffffffffffffffffffffffffff1673ffffffffffffffffffffffffffffffffffffffff16815260200180602001828103825283818154600181600116156101000203166002900481526020019150805460018160011615610100020316600290048015612f965780601f10612f6b57610100808354040283529160200191612f96565b820191906000526020600020905b815481529060010190602001808311612f7957829003601f168201915b5050935050505060405180910390a150565b600c60009054906101000a900473ffffffffffffffffffffffffffffffffffffffff1681565b6000612ffe336000357fffffffff000000000000000000000000000000000000000000000000000000001661335b565b151561300657fe5b600090505b815181101561309057600060036000848481518110151561302857fe5b9060200190602002015173ffffffffffffffffffffffffffffffffffffffff1673ffffffffffffffffffffffffffffffffffffffff16815260200190815260200160002060006101000a81548160ff021916908315150217905550808060010191505061300b565b5050565b60008090505b6130a261166c565b8110156130bf576130b28161145d565b808060010191505061309a565b50565b600d60009054906101000a900473ffffffffffffffffffffffffffffffffffffffff1681565b613116336000357fffffffff000000000000000000000000000000000000000000000000000000001661335b565b151561311e57fe5b600061312861166c565b11151561313157fe5b613152333073ffffffffffffffffffffffffffffffffffffffff1631613751565b7f4ceba015d961d93f1d6825703b730a8ba05619c005dfd8073aee773dc6725fbb3073ffffffffffffffffffffffffffffffffffffffff16316040518082815260200191505060405180910390a1565b60008082146131b357600b546131b7565b6008545b9050919050565b6001600a54016131cc61166c565b111515156131d657fe5b60408151111515156131e457fe5b80601160003373ffffffffffffffffffffffffffffffffffffffff1673ffffffffffffffffffffffffffffffffffffffff168152602001908152602001600020908051906020019061323792919061391b565b507fd80364ba2cbb1e827ab8adac9651cdfc27fb7b61c0a95663cb80b82d7636ad223382604051808373ffffffffffffffffffffffffffffffffffffffff1673ffffffffffffffffffffffffffffffffffffffff16815260200180602001828103825283818151815260200191508051906020019080838360005b838110156132cd5780820151818401526020810190506132b2565b50505050905090810190601f1680156132fa5780820380516001836020036101000a031916815260200191505b50935050505060405180910390a150565b600060095482106133385760016203e67061332884600954613763565b81151561333157fe5b040161333b565b60005b9050919050565b6000828284019150811015151561335557fe5b92915050565b60003073ffffffffffffffffffffffffffffffffffffffff168373ffffffffffffffffffffffffffffffffffffffff16141561339a57600190506135cc565b600160009054906101000a900473ffffffffffffffffffffffffffffffffffffffff1673ffffffffffffffffffffffffffffffffffffffff168373ffffffffffffffffffffffffffffffffffffffff1614156133f957600190506135cc565b600073ffffffffffffffffffffffffffffffffffffffff166000809054906101000a900473ffffffffffffffffffffffffffffffffffffffff1673ffffffffffffffffffffffffffffffffffffffff16141561345857600090506135cc565b6000809054906101000a900473ffffffffffffffffffffffffffffffffffffffff1673ffffffffffffffffffffffffffffffffffffffff1663b70096138430856040518463ffffffff167c0100000000000000000000000000000000000000000000000000000000028152600401808473ffffffffffffffffffffffffffffffffffffffff1673ffffffffffffffffffffffffffffffffffffffff1681526020018373ffffffffffffffffffffffffffffffffffffffff1673ffffffffffffffffffffffffffffffffffffffff168152602001827bffffffffffffffffffffffffffffffffffffffffffffffffffffffff19167bffffffffffffffffffffffffffffffffffffffffffffffffffffffff191681526020019350505050602060405180830381600087803b15801561358e57600080fd5b505af11580156135a2573d6000803e3d6000fd5b505050506040513d60208110156135b857600080fd5b810190808051906020019092919050505090505b92915050565b600081829150816fffffffffffffffffffffffffffffffff161415156135f457fe5b919050565b600061368f826fffffffffffffffffffffffffffffffff1661368061364a866fffffffffffffffffffffffffffffffff16670de0b6b3a76400006fffffffffffffffffffffffffffffffff1661377c565b6002866fffffffffffffffffffffffffffffffff1681151561366857fe5b046fffffffffffffffffffffffffffffffff16613342565b81151561368957fe5b046135d2565b905092915050565b6000613735670de0b6b3a76400006fffffffffffffffffffffffffffffffff166137266136e8866fffffffffffffffffffffffffffffffff16866fffffffffffffffffffffffffffffffff1661377c565b6002670de0b6b3a76400006fffffffffffffffffffffffffffffffff1681151561370e57fe5b046fffffffffffffffffffffffffffffffff16613342565b81151561372f57fe5b046135d2565b905092915050565b600061374983836137a9565b905092915050565b606061375e8382846137e6565b505050565b6000828284039150811115151561377657fe5b92915050565b60008082148061379b5750828283850292508281151561379857fe5b04145b15156137a357fe5b92915050565b6000826fffffffffffffffffffffffffffffffff168284039150816fffffffffffffffffffffffffffffffff16111515156137e057fe5b92915050565b6137f1838383613801565b15156137fc57600080fd5b505050565b60008373ffffffffffffffffffffffffffffffffffffffff16828460405180828051906020019080838360005b8381101561384957808201518184015260208101905061382e565b50505050905090810190601f1680156138765780820380516001836020036101000a031916815260200191505b5091505060006040518083038185875af19250505090509392505050565b828054600181600116156101000203166002900490600052602060002090601f016020900481019282601f106138cd578054855561390a565b8280016001018555821561390a57600052602060002091601f016020900482015b828111156139095782548255916001019190600101906138ee565b5b509050613917919061399b565b5090565b828054600181600116156101000203166002900490600052602060002090601f016020900481019282601f1061395c57805160ff191683800117855561398a565b8280016001018555821561398a579182015b8281111561398957825182559160200191906001019061396e565b5b509050613997919061399b565b5090565b6139bd91905b808211156139b95760008160009055506001016139a1565b5090565b905600a165627a7a7230582000ed6e208ceb21150e9277a483d92c7fb17f0a50532647545b86092f370b64650029",
  "source": "\ncontract DSNote {\n    event LogNote(\n        bytes4   indexed  sig,\n        address  indexed  guy,\n        bytes32  indexed  foo,\n        bytes32  indexed  bar,\n\t    uint\t \t      wad,\n        bytes             fax\n    ) anonymous;\n\n    modifier note {\n        bytes32 foo;\n        bytes32 bar;\n\n        assembly {\n            foo := calldataload(4)\n            bar := calldataload(36)\n        }\n\n        emit LogNote(msg.sig, msg.sender, foo, bar, msg.value, msg.data);\n\n        _;\n    }\n}\n\ncontract ERC20 {\n    function totalSupply() public view returns (uint supply);\n    function balanceOf( address who ) public view returns (uint value);\n    function allowance( address owner, address spender ) public view returns (uint _allowance);\n\n    function transfer( address to, uint value) public returns (bool ok);\n    function transferFrom( address from, address to, uint value) public returns (bool ok);\n    function approve( address spender, uint value ) public returns (bool ok);\n\n    event Transfer( address indexed from, address indexed to, uint value);\n    event Approval( address indexed owner, address indexed spender, uint value);\n}\n\ncontract DSAuthority {\n    function canCall(\n        address src, address dst, bytes4 sig\n    ) public constant returns (bool);\n}\n\ncontract DSAuthEvents {\n    event LogSetAuthority (address indexed authority);\n    event LogSetOwner     (address indexed owner);\n}\n\ncontract DSAuth is DSAuthEvents {\n    DSAuthority  public  authority;\n    address      public  owner;\n\n    constructor() public{\n        owner = msg.sender;\n        emit LogSetOwner(msg.sender);\n    }\n\n    function setOwner(address owner_) public auth\n    {\n        require(owner_ != address(0));\n        owner = owner_;\n        emit LogSetOwner(owner);\n    }\n\n    function setAuthority(DSAuthority authority_) public auth\n    {\n        authority = authority_;\n        emit LogSetAuthority(authority);\n    }\n\n    modifier auth {\n        assert(isAuthorized(msg.sender, msg.sig));\n        _;\n    }\n\n    modifier authorized(bytes4 sig) {\n        assert(isAuthorized(msg.sender, sig));\n        _;\n    }\n\n    function isAuthorized(address src, bytes4 sig) internal view returns (bool) {\n        if (src == address(this)) {\n            return true;\n        } else if (src == owner) {\n            return true;\n        } else if (authority == DSAuthority(0)) {\n            return false;\n        } else {\n            return authority.canCall(src, this, sig);\n        }\n    }\n    \n}\n\ncontract DSExec {\n    function tryExec( address target, bytes calldata, uint value)\n             internal\n             returns (bool call_ret)\n    {\n        return target.call.value(value)(calldata);\n    }\n    function exec( address target, bytes calldata, uint value)\n             internal\n    {\n        if(!tryExec(target, calldata, value)) {\n            revert();\n        }\n    }\n\n    \n    function exec( address t, bytes c )\n        internal\n    {\n        exec(t, c, 0);\n    }\n    function exec( address t, uint256 v )\n        internal\n    {\n        bytes memory c; exec(t, c, v);\n    }\n    function tryExec( address t, bytes c )\n        internal\n        returns (bool)\n    {\n        return tryExec(t, c, 0);\n    }\n    function tryExec( address t, uint256 v )\n        internal\n        returns (bool)\n    {\n        bytes memory c; return tryExec(t, c, v);\n    }\n}\n\ncontract DSMath {\n    \n    \n\n    function add(uint256 x, uint256 y) pure internal returns (uint256 z) {\n        assert((z = x + y) >= x);\n    }\n\n    function sub(uint256 x, uint256 y) pure internal returns (uint256 z) {\n        assert((z = x - y) <= x);\n    }\n\n    function mul(uint256 x, uint256 y) pure internal returns (uint256 z) {\n        assert(y == 0 || (z = x * y) / y == x);\n    }\n\n    function div(uint256 x, uint256 y) pure internal returns (uint256 z) {\n        z = x / y;\n    }\n\n    function min(uint256 x, uint256 y) pure internal returns (uint256 z) {\n        return x <= y ? x : y;\n    }\n    function max(uint256 x, uint256 y) pure internal returns (uint256 z) {\n        return x >= y ? x : y;\n    }\n\n    \n\n\n    function hadd(uint128 x, uint128 y) pure internal returns (uint128 z) {\n        assert((z = x + y) >= x);\n    }\n\n    function hsub(uint128 x, uint128 y) pure internal returns (uint128 z) {\n        assert((z = x - y) <= x);\n    }\n\n    function hmul(uint128 x, uint128 y) pure internal returns (uint128 z) {\n        assert(y == 0 || (z = x * y) / y == x);\n    }\n\n    function hdiv(uint128 x, uint128 y) pure internal returns (uint128 z) {\n        z = x / y;\n    }\n\n    function hmin(uint128 x, uint128 y) pure internal returns (uint128 z) {\n        return x <= y ? x : y;\n    }\n    function hmax(uint128 x, uint128 y) pure internal returns (uint128 z) {\n        return x >= y ? x : y;\n    }\n\n\n    \n\n    function imin(int256 x, int256 y) pure internal returns (int256 z) {\n        return x <= y ? x : y;\n    }\n    function imax(int256 x, int256 y) pure internal returns (int256 z) {\n        return x >= y ? x : y;\n    }\n\n    \n\n    uint128 constant WAD = 10 ** 18;\n\n    function wadd(uint128 x, uint128 y) pure internal returns (uint128) {\n        return hadd(x, y);\n    }\n\n    function wsub(uint128 x, uint128 y) pure internal returns (uint128) {\n        return hsub(x, y);\n    }\n\n    function wmul(uint128 x, uint128 y) pure internal returns (uint128 z) {\n        z = cast(add(mul(uint256(x), y), WAD/2) / WAD);\n    }\n\n    function wdiv(uint128 x, uint128 y) pure internal returns (uint128 z) {\n        z = cast(add(mul(uint256(x), WAD), y/2) / y);\n    }\n\n    function wmin(uint128 x, uint128 y) pure internal returns (uint128) {\n        return hmin(x, y);\n    }\n    function wmax(uint128 x, uint128 y) pure internal returns (uint128) {\n        return hmax(x, y);\n    }\n\n    \n\n    uint128 constant RAY = 10 ** 27;\n\n    function radd(uint128 x, uint128 y) pure internal returns (uint128) {\n        return hadd(x, y);\n    }\n\n    function rsub(uint128 x, uint128 y) pure internal returns (uint128) {\n        return hsub(x, y);\n    }\n\n    function rmul(uint128 x, uint128 y) pure internal returns (uint128 z) {\n        z = cast(add(mul(uint256(x), y), RAY/2) / RAY);\n    }\n\n    function rdiv(uint128 x, uint128 y) pure internal returns (uint128 z) {\n        z = cast(add(mul(uint256(x), RAY), y/2) / y);\n    }\n\n    function rpow(uint128 x, uint64 n) pure internal returns (uint128 z) {\n        \n        \n        \n        \n        \n        \n        \n        \n        \n        \n        \n        \n        \n        \n\n        z = n % 2 != 0 ? x : RAY;\n\n        for (n /= 2; n != 0; n /= 2) {\n            x = rmul(x, x);\n\n            if (n % 2 != 0) {\n                z = rmul(z, x);\n            }\n        }\n    }\n\n    function rmin(uint128 x, uint128 y) pure internal returns (uint128) {\n        return hmin(x, y);\n    }\n    function rmax(uint128 x, uint128 y) pure internal returns (uint128) {\n        return hmax(x, y);\n    }\n\n    function cast(uint256 x) pure internal returns (uint128 z) {\n        assert((z = uint128(x)) == x);\n    }\n\n}\n\ncontract DSStop is DSAuth, DSNote {\n\n    bool public stopped;\n\n    modifier stoppable {\n        assert (!stopped);\n        _;\n    }\n    function stop() public auth note {\n        stopped = true;\n    }\n    function start() public auth note {\n        stopped = false;\n    }\n\n}\n\ncontract DSTokenBase is ERC20, DSMath {\n    uint256                                            _supply;\n    mapping (address => uint256)                       _balances;\n    mapping (address => mapping (address => uint256))  _approvals;\n    \n    constructor(uint256 supply) public {\n        _balances[msg.sender] = supply;\n        _supply = supply;\n    }\n    \n    function totalSupply() public view returns (uint256) {\n        return _supply;\n    }\n    function balanceOf(address src) public view returns (uint256) {\n        return _balances[src];\n    }\n    function allowance(address src, address guy) public view returns (uint256) {\n        return _approvals[src][guy];\n    }\n    \n    function transfer(address dst, uint wad) public returns (bool) {\n        assert(_balances[msg.sender] >= wad);\n        \n        _balances[msg.sender] = sub(_balances[msg.sender], wad);\n        _balances[dst] = add(_balances[dst], wad);\n        \n        emit Transfer(msg.sender, dst, wad);\n        \n        return true;\n    }\n    \n    function transferFrom(address src, address dst, uint wad) public returns (bool) {\n        assert(_balances[src] >= wad);\n        assert(_approvals[src][msg.sender] >= wad);\n        \n        _approvals[src][msg.sender] = sub(_approvals[src][msg.sender], wad);\n        _balances[src] = sub(_balances[src], wad);\n        _balances[dst] = add(_balances[dst], wad);\n        \n        emit Transfer(src, dst, wad);\n        \n        return true;\n    }\n    \n    function approve(address guy, uint256 wad) public returns (bool) {\n        _approvals[msg.sender][guy] = wad;\n        \n        emit Approval(msg.sender, guy, wad);\n        \n        return true;\n    }\n\n}\n\n\ncontract DSToken is DSTokenBase(0), DSStop {\n    bytes32  public  symbol;\n    bytes32  public  name;\n    uint256  public  decimals = 18; \n    uint256  public  MAX_MINT_NUMBER = 1000*10**26;\n\n    constructor(bytes32 symbol_, bytes32 name_) public {\n        symbol = symbol_;\n        name = name_;\n    }\n\n    function transfer(address dst, uint wad) public stoppable note returns (bool) {\n        return super.transfer(dst, wad);\n    }\n    function transferFrom(\n        address src, address dst, uint wad\n    ) public stoppable note returns (bool) {\n        return super.transferFrom(src, dst, wad);\n    }\n    function approve(address guy, uint wad) public stoppable note returns (bool) {\n        return super.approve(guy, wad);\n    }\n\n    function push(address dst, uint128 wad) public returns (bool) {\n        return transfer(dst, wad);\n    }\n    function pull(address src, uint128 wad) public returns (bool) {\n        return transferFrom(src, msg.sender, wad);\n    }\n\n    function mint(uint128 wad) public auth stoppable note {\n        assert (add(_supply, wad) <= MAX_MINT_NUMBER);\n        _balances[msg.sender] = add(_balances[msg.sender], wad);\n        _supply = add(_supply, wad);\n    }\n    function burn(uint128 wad) public auth stoppable note {\n        _balances[msg.sender] = sub(_balances[msg.sender], wad);\n        _supply = sub(_supply, wad);\n    }\n}\n\ncontract DSAuthList is DSAuth {\n    mapping(address => bool) public whitelist;\n    mapping(address => bool) public adminlist;\n\n    modifier onlyIfWhitelisted\n    {\n        assert(whitelist[msg.sender] == true);\n        _;\n    }\n\n    modifier onlyIfAdmin\n    {\n        assert(adminlist[msg.sender] == true);\n        _;\n    }\n\n    function addAdminList(address[] addresses) public auth\n    {\n        for (uint256 i=0; i < addresses.length; i++)\n        {\n            adminlist[addresses[i]] = true;\n        }\n    }\n\n    function removeAdminList(address[] addresses) public auth\n    {\n        for (uint256 i=0; i < addresses.length; i++)\n        {\n            adminlist[addresses[i]] = false;\n        }\n    }\n\n    function addWhiteList(address[] addresses) public onlyIfAdmin\n    {\n        for (uint256 i=0; i < addresses.length; i++)\n        {\n            whitelist[addresses[i]] = true;\n        }\n    }\n\n    function removeWhiteList(address[] addresses) public onlyIfAdmin\n    {\n        for (uint256 i=0; i < addresses.length; i++)\n        {\n            whitelist[addresses[i]] = false;\n        }\n    }\n}\n\ncontract ONOSale_1 is DSExec, DSMath, DSAuthList {\n    DSToken  public  ONO;                  \n    uint128  public  totalSupply;          \n    uint128  public  foundersAllocation;   \n    string   public  foundersKey;          \n\n    uint     public  openTime;             \n    uint     public  createFirstRound;       \n\n    uint     public  startTime;            \n    uint     public  numberOfRounds;         \n    uint     public  createPerRound;         \n\n    address  public  founderAddr = 0xF9BaaA91e617dF1dE6c2386b789B401c422E9AB1;\n    address  public  burnAddr    = 0xA3Ad4EFDd5719eAed1B0F2e12c0D7368a6D11037;\n\n    mapping (uint => uint)                       public  dailyTotals;\n    mapping (uint => mapping (address => uint))  public  userBuys;\n    mapping (uint => mapping (address => bool))  public  claimed;\n    mapping (address => string)                  public  keys;\n\n    mapping (uint => address[]) public userBuysArray;\n    mapping (uint => bool) public burned; \n\n    event LogBuy      (uint window, address user, uint amount);\n    event LogClaim    (uint window, address user, uint amount);\n    event LogMint     (address user, uint amount);\n    event LogBurn     (uint window, address user, uint amount);\n    event LogRegister (address user, string key);\n    event LogCollect  (uint amount);\n\n    constructor(\n        uint     _numberOfRounds,\n        uint128  _totalSupply,\n        uint128  _firstRoundSupply,\n        uint     _openTime,\n        uint     _startTime,\n        uint128  _foundersAllocation,\n        string   _foundersKey\n    ) public {\n        numberOfRounds     = _numberOfRounds;\n        totalSupply        = _totalSupply;\n        openTime           = _openTime;\n        startTime          = _startTime;\n        foundersAllocation = _foundersAllocation;\n        foundersKey        = _foundersKey;\n\n        createFirstRound = _firstRoundSupply;\n        createPerRound = div(\n            sub(sub(totalSupply, foundersAllocation), createFirstRound),\n            numberOfRounds\n        );\n\n        assert(numberOfRounds > 0);\n        assert(totalSupply > foundersAllocation);\n        assert(openTime < startTime);\n    }\n\n    function initialize(DSToken ono) public auth {\n        assert(address(ONO) == address(0));\n        assert(ono.owner() == address(this));\n        assert(ono.authority() == DSAuthority(0));\n        assert(ono.totalSupply() == 0);\n\n        ONO = ono;\n        ONO.mint(totalSupply);\n\n        ONO.push(founderAddr, foundersAllocation);\n        keys[founderAddr] = foundersKey;\n\n        emit LogRegister(founderAddr, foundersKey);\n    }\n\n    function time() public constant returns (uint) {\n        return block.timestamp;\n    }\n\n    function currRound() public constant returns (uint) {\n        return roundFor(time());\n    }\n\n    function roundFor(uint timestamp) public constant returns (uint) {\n        return timestamp < startTime\n            ? 0\n            : sub(timestamp, startTime) / 71 hours + 1;\n    }\n\n    function createOnRound(uint round) public constant returns (uint) {\n        return round == 0 ? createFirstRound : createPerRound;\n    }\n\n    function () public payable {\n        buy();\n    }\n\n    function claim(uint round) public {\n        claimAddress(msg.sender, round);\n    }\n\n    function claimAll() public {\n        for (uint i = 0; i < currRound(); i++) {\n            claim(i);\n        }\n    }\n\n    \n    \n    \n    function register(string key) public {\n        assert(currRound() <=  numberOfRounds + 1);\n        assert(bytes(key).length <= 64);\n\n        keys[msg.sender] = key;\n\n        emit LogRegister(msg.sender, key);\n    }\n\n    function buy() public payable onlyIfWhitelisted{\n        \n        uint round = currRound();\n        \n        assert(time() >= openTime && round <= numberOfRounds);\n        assert(msg.value >= 0.1 ether);\n\n        userBuys[round][msg.sender] = add(userBuys[round][msg.sender], msg.value);\n        dailyTotals[round] = add(dailyTotals[round], msg.value);\n        \n        bool founded = false;\n        for (uint i = 0; i < userBuysArray[round].length; i++) {\n            address target = userBuysArray[round][i];\n            if (target == msg.sender) {\n                founded = true;\n                break;\n            }\n        }\n\n        if (founded == false) {\n            userBuysArray[round].push(msg.sender);\n        }\n\n        emit LogBuy(round, msg.sender, msg.value);\n    }\n\n    function claimAddresses(address[] addresses, uint round) public onlyIfAdmin {\n        uint arrayLength = addresses.length;\n        for (uint i=0; i < arrayLength; i++) {\n            claimAddress(addresses[i], round);\n        }\n    }\n\n    function claimAddress(address addr, uint round) public {\n        assert(currRound() > round);\n\n        if (claimed[round][addr] || dailyTotals[round] == 0) {\n            return;\n        }\n\n        \n        \n        \n\n        uint128 dailyTotal = cast(dailyTotals[round]);\n        uint128 userTotal  = cast(userBuys[round][addr]);\n        uint128 price      = wdiv(cast(createOnRound(round)), dailyTotal);\n        uint128 minPrice   = wdiv(600000, 1);\n\n        \n        if (price > minPrice) {\n            price = minPrice;\n        }\n        uint128 reward     = wmul(price, userTotal);\n\n        claimed[round][addr] = true;\n        ONO.push(addr, reward);\n\n        emit LogClaim(round, addr, reward);\n    }\n\n    function mint(uint128 deltaSupply) public auth {\n        ONO.mint(deltaSupply);\n        ONO.push(founderAddr, deltaSupply);\n\n        emit LogMint(founderAddr, deltaSupply);\n    }\n\n    function burn(uint round) public onlyIfAdmin {\n        assert(time() >= openTime && round <= numberOfRounds);\n\n        assert (currRound() > round);\n        assert (burned[round] == false);\n        \n        uint128 dailyTotalEth = cast(dailyTotals[round]);\n        uint128 dailyTotalToken = cast(createOnRound(round));\n\n        if (dailyTotalEth == 0) {\n            burned[round] = true;\n            ONO.push(burnAddr, dailyTotalToken);\n\n            emit LogBurn(round, burnAddr, dailyTotalToken);\n        }\n        else {\n            uint128 price      = wdiv(dailyTotalToken, dailyTotalEth);\n            uint128 minPrice   = wdiv(600000, 1);\n\n            if (price > minPrice) {\n                price = minPrice;\n\n                uint128 totalReward = wmul(price, dailyTotalEth);\n                assert(dailyTotalToken > totalReward);\n\n                burned[round] = true;\n                ONO.push(burnAddr, wsub(dailyTotalToken, totalReward));\n                emit LogBurn(round, burnAddr, wsub(dailyTotalToken, totalReward));\n            } else {\n                burned[round] = true;\n            }\n        }\n    }\n\n    \n    function collect() public auth {\n        assert(currRound() > 0); \n        exec(msg.sender, address(this).balance);\n        emit LogCollect(address(this).balance);\n    }\n\n    function start() public auth {\n        ONO.start();\n    }\n\n    function stop() public auth {\n        ONO.stop();\n    }\n}\n    \ncontract ONOSale is ONOSale_1 {\n    constructor() ONOSale_1(78, 78, 78, 78, 78, 78, \"rlf\") public { }\n}\n",
  "sourcePath": "/home/XXX-1/smartrim-experiment/for-rlf/0x6693bc7a3f8875b36c9bbe57c4917a1506e5a327/contracts/0x6693bc7a3f8875b36c9bbe57c4917a1506e5a327.sol",
  "compiler": {
    "name": "solc",
    "version": "0.4.25+commit.59dbf8f1.Emscripten.clang"
  },
  "schemaVersion": "3.4.16",
  "updatedAt": "2025-08-14T03:56:25.925Z",
  "devdoc": {
    "methods": {}
  },
  "userdoc": {
    "methods": {}
  }
}