{
  "contractName": "Vault",
  "abi": [
    {
      "constant": true,
      "inputs": [
        {
          "name": "",
          "type": "address"
        }
      ],
      "name": "deposits",
      "outputs": [
        {
          "name": "",
          "type": "uint256"
        }
      ],
      "payable": false,
      "stateMutability": "view",
      "type": "function"
    },
    {
      "payable": true,
      "stateMutability": "payable",
      "type": "fallback"
    },
    {
      "anonymous": false,
      "inputs": [
        {
          "indexed": true,
          "name": "depositor",
          "type": "address"
        },
        {
          "indexed": false,
          "name": "amount",
          "type": "uint256"
        }
      ],
      "name": "Deposit",
      "type": "event"
    },
    {
      "anonymous": false,
      "inputs": [
        {
          "indexed": true,
          "name": "to",
          "type": "address"
        },
        {
          "indexed": false,
          "name": "amount",
          "type": "uint256"
        }
      ],
      "name": "Withdrawal",
      "type": "event"
    },
    {
      "constant": false,
      "inputs": [],
      "name": "initVault",
      "outputs": [],
      "payable": true,
      "stateMutability": "payable",
      "type": "function"
    },
    {
      "constant": true,
      "inputs": [],
      "name": "MinimumDeposit",
      "outputs": [
        {
          "name": "",
          "type": "uint256"
        }
      ],
      "payable": false,
      "stateMutability": "view",
      "type": "function"
    },
    {
      "constant": true,
      "inputs": [],
      "name": "ReleaseDate",
      "outputs": [
        {
          "name": "",
          "type": "uint256"
        }
      ],
      "payable": false,
      "stateMutability": "view",
      "type": "function"
    },
    {
      "constant": false,
      "inputs": [],
      "name": "deposit",
      "outputs": [],
      "payable": true,
      "stateMutability": "payable",
      "type": "function"
    },
    {
      "constant": false,
      "inputs": [
        {
          "name": "to",
          "type": "address"
        },
        {
          "name": "amount",
          "type": "uint256"
        }
      ],
      "name": "withdraw",
      "outputs": [],
      "payable": false,
      "stateMutability": "nonpayable",
      "type": "function"
    },
    {
      "constant": false,
      "inputs": [
        {
          "name": "NewDate",
          "type": "uint256"
        }
      ],
      "name": "SetReleaseDate",
      "outputs": [],
      "payable": false,
      "stateMutability": "nonpayable",
      "type": "function"
    },
    {
      "constant": false,
      "inputs": [],
      "name": "lock",
      "outputs": [],
      "payable": false,
      "stateMutability": "nonpayable",
      "type": "function"
    }
  ],
  "bytecode": "0x608060405234801561001057600080fd5b50610544806100206000396000f30060806040526004361061008e576000357c0100000000000000000000000000000000000000000000000000000000900463ffffffff1680637c65f503146100985780638cf49cad146100a2578063c635a9f2146100cd578063c67bdb19146100f8578063d0e30db014610125578063f3fef3a31461012f578063f83d08ba1461017c578063fc7e286d14610193575b6100966101ea565b005b6100a0610297565b005b3480156100ae57600080fd5b506100b761031b565b6040518082815260200191505060405180910390f35b3480156100d957600080fd5b506100e2610325565b6040518082815260200191505060405180910390f35b34801561010457600080fd5b506101236004803603810190808035906020019092919050505061032f565b005b61012d6101ea565b005b34801561013b57600080fd5b5061017a600480360381019080803573ffffffffffffffffffffffffffffffffffffffff16906020019092919080359060200190929190505050610339565b005b34801561018857600080fd5b506101916104c9565b005b34801561019f57600080fd5b506101d4600480360381019080803573ffffffffffffffffffffffffffffffffffffffff1690602001909291905050506104e6565b6040518082815260200191505060405180910390f35b6101f2610325565b3410151561024757346000803373ffffffffffffffffffffffffffffffffffffffff1673ffffffffffffffffffffffffffffffffffffffff168152602001908152602001600020600082825401925050819055505b3373ffffffffffffffffffffffffffffffffffffffff167fe1fffcc4923d04b559f4d29a8bfc6cda04eb5b0d3c460751c2402c5c5cc9109c346040518082815260200191505060405180910390a2565b600260009054906101000a900460ff1615156103195733600260016101000a81548173ffffffffffffffffffffffffffffffffffffffff021916908373ffffffffffffffffffffffffffffffffffffffff16021790555067016345785d8a00006001819055506000600260006101000a81548160ff0219169083151502179055505b565b6000600354905090565b6000600154905090565b8060038190555050565b600260019054906101000a900473ffffffffffffffffffffffffffffffffffffffff1673ffffffffffffffffffffffffffffffffffffffff163373ffffffffffffffffffffffffffffffffffffffff1614156104c5576103976104fe565b156104c45760008060003373ffffffffffffffffffffffffffffffffffffffff1673ffffffffffffffffffffffffffffffffffffffff1681526020019081526020016000205411801561042857506000803373ffffffffffffffffffffffffffffffffffffffff1673ffffffffffffffffffffffffffffffffffffffff168152602001908152602001600020548111155b156104c3578173ffffffffffffffffffffffffffffffffffffffff166108fc829081150290604051600060405180830381858888f19350505050158015610473573d6000803e3d6000fd5b508173ffffffffffffffffffffffffffffffffffffffff167f7fcf532c15f0a6db0bd6d0e038bea71d30d808c7d98cb3bf7268a95bf5081b65826040518082815260200191505060405180910390a25b5b5b5050565b6001600260006101000a81548160ff021916908315150217905550565b60006020528060005260406000206000915090505481565b60008060035411801561051357504260035411155b9050905600a165627a7a7230582071216b9ed99ccf88b471a02a437a583dc3c0eea8e33fb6d669f09394c6e8f55d0029",
  "source": "\n\ncontract Vault {\n    \n    event Deposit(address indexed depositor, uint amount);\n    event Withdrawal(address indexed to, uint amount);\n\n    mapping (address => uint) public deposits;\n    uint minDeposit;\n    bool Locked;\n    address Owner;\n    uint Date;\n\n    function initVault() isOpen payable {\n        Owner = msg.sender;\n        minDeposit = 0.1 ether;\n        Locked = false;\n    }\n\n    function() payable { deposit(); }\n\n    function MinimumDeposit() constant returns (uint) { return minDeposit; }\n    function ReleaseDate() constant returns (uint) { return Date; }\n    function WithdrawalEnabled() internal returns (bool) { return Date > 0 && Date <= now; }\n\n    function deposit() payable {\n        if (msg.value >= MinimumDeposit()) {\n            deposits[msg.sender] += msg.value;\n        }\n        Deposit(msg.sender, msg.value);\n    }\n\n    function withdraw(address to, uint amount) onlyOwner {\n        if (WithdrawalEnabled()) {\n            if (deposits[msg.sender] > 0 && amount <= deposits[msg.sender]) {\n                to.transfer(amount);\n                Withdrawal(to, amount);\n            }\n        }\n    }\n    \n    function SetReleaseDate(uint NewDate) { Date = NewDate; }\n    modifier onlyOwner { if (msg.sender == Owner) _; }\n    function lock() { Locked = true; }\n    modifier isOpen { if (!Locked) _; }\n    \n}",
  "sourcePath": "/home/XXX-1/smartrim-experiment/for-rlf/0xea0822a17b62bf1be91fa8c98154ce42a87589ff/contracts/0xea0822a17b62bf1be91fa8c98154ce42a87589ff.sol",
  "compiler": {
    "name": "solc",
    "version": "0.4.25+commit.59dbf8f1.Emscripten.clang"
  },
  "schemaVersion": "3.4.16",
  "updatedAt": "2025-08-14T04:09:38.617Z",
  "networkType": "ethereum",
  "devdoc": {
    "methods": {}
  },
  "userdoc": {
    "methods": {}
  }
}