{
  "contractName": "TestNetworkToken",
  "abi": [
    {
      "constant": true,
      "inputs": [],
      "name": "name",
      "outputs": [
        {
          "name": "",
          "type": "string"
        }
      ],
      "payable": false,
      "stateMutability": "view",
      "type": "function"
    },
    {
      "constant": true,
      "inputs": [],
      "name": "decimals",
      "outputs": [
        {
          "name": "",
          "type": "uint8"
        }
      ],
      "payable": false,
      "stateMutability": "view",
      "type": "function"
    },
    {
      "constant": true,
      "inputs": [],
      "name": "symbol",
      "outputs": [
        {
          "name": "",
          "type": "string"
        }
      ],
      "payable": false,
      "stateMutability": "view",
      "type": "function"
    },
    {
      "constant": true,
      "inputs": [],
      "name": "tokenCreationRate",
      "outputs": [
        {
          "name": "",
          "type": "uint256"
        }
      ],
      "payable": false,
      "stateMutability": "view",
      "type": "function"
    },
    {
      "anonymous": false,
      "inputs": [
        {
          "indexed": true,
          "name": "_from",
          "type": "address"
        },
        {
          "indexed": true,
          "name": "_to",
          "type": "address"
        },
        {
          "indexed": false,
          "name": "_value",
          "type": "uint256"
        }
      ],
      "name": "Transfer",
      "type": "event"
    },
    {
      "anonymous": false,
      "inputs": [
        {
          "indexed": true,
          "name": "_from",
          "type": "address"
        },
        {
          "indexed": false,
          "name": "_value",
          "type": "uint256"
        }
      ],
      "name": "Refund",
      "type": "event"
    },
    {
      "constant": false,
      "inputs": [
        {
          "name": "_to",
          "type": "address"
        },
        {
          "name": "_value",
          "type": "uint256"
        }
      ],
      "name": "transfer",
      "outputs": [
        {
          "name": "",
          "type": "bool"
        }
      ],
      "payable": false,
      "stateMutability": "nonpayable",
      "type": "function"
    },
    {
      "constant": true,
      "inputs": [],
      "name": "totalSupply",
      "outputs": [
        {
          "name": "",
          "type": "uint256"
        }
      ],
      "payable": false,
      "stateMutability": "view",
      "type": "function"
    },
    {
      "constant": true,
      "inputs": [
        {
          "name": "_owner",
          "type": "address"
        }
      ],
      "name": "balanceOf",
      "outputs": [
        {
          "name": "",
          "type": "uint256"
        }
      ],
      "payable": false,
      "stateMutability": "view",
      "type": "function"
    },
    {
      "constant": false,
      "inputs": [],
      "name": "create",
      "outputs": [],
      "payable": true,
      "stateMutability": "payable",
      "type": "function"
    },
    {
      "constant": false,
      "inputs": [],
      "name": "refund",
      "outputs": [],
      "payable": false,
      "stateMutability": "nonpayable",
      "type": "function"
    },
    {
      "constant": false,
      "inputs": [],
      "name": "kill",
      "outputs": [],
      "payable": false,
      "stateMutability": "nonpayable",
      "type": "function"
    }
  ],
  "bytecode": "0x608060405234801561001057600080fd5b506106d0806100206000396000f3006080604052600436106100a4576000357c0100000000000000000000000000000000000000000000000000000000900463ffffffff16806306fdde03146100a957806318160ddd14610139578063313ce5671461016457806341c0e1b514610195578063590e1ae3146101ac57806370a08231146101c357806395d89b411461021a578063a9059cbb146102aa578063cf8d652c1461030f578063efc81a8c1461033a575b600080fd5b3480156100b557600080fd5b506100be610344565b6040518080602001828103825283818151815260200191508051906020019080838360005b838110156100fe5780820151818401526020810190506100e3565b50505050905090810190601f16801561012b5780820380516001836020036101000a031916815260200191505b509250505060405180910390f35b34801561014557600080fd5b5061014e61037d565b6040518082815260200191505060405180910390f35b34801561017057600080fd5b50610179610386565b604051808260ff1660ff16815260200191505060405180910390f35b3480156101a157600080fd5b506101aa61038b565b005b3480156101b857600080fd5b506101c16103b3565b005b3480156101cf57600080fd5b50610204600480360381019080803573ffffffffffffffffffffffffffffffffffffffff16906020019092919050505061054c565b6040518082815260200191505060405180910390f35b34801561022657600080fd5b5061022f610595565b6040518080602001828103825283818151815260200191508051906020019080838360005b8381101561026f578082015181840152602081019050610254565b50505050905090810190601f16801561029c5780820380516001836020036101000a031916815260200191505b509250505060405180910390f35b3480156102b657600080fd5b506102f5600480360381019080803573ffffffffffffffffffffffffffffffffffffffff169060200190929190803590602001909291905050506105ce565b604051808215151515815260200191505060405180910390f35b34801561031b57600080fd5b506103246105d9565b6040518082815260200191505060405180910390f35b6103426105df565b005b6040805190810160405280601281526020017f54657374204e6574776f726b20546f6b656e000000000000000000000000000081525081565b60008054905090565b601281565b60008054111561039a57600080fd5b3373ffffffffffffffffffffffffffffffffffffffff16ff5b600080600160003373ffffffffffffffffffffffffffffffffffffffff1673ffffffffffffffffffffffffffffffffffffffff168152602001908152602001600020549150600082141561040657600080fd5b6000600160003373ffffffffffffffffffffffffffffffffffffffff1673ffffffffffffffffffffffffffffffffffffffff168152602001908152602001600020819055508160008082825403925050819055506103e88281151561046757fe5b0490503373ffffffffffffffffffffffffffffffffffffffff167fbb28353e4598c3b9199101a66e0989549b659a59a54d2c27fbb183f1932c8e6d826040518082815260200191505060405180910390a260003373ffffffffffffffffffffffffffffffffffffffff167fddf252ad1be2c89b69c2b068fc378daa952ba7f163c4a11628f55a4df523b3ef846040518082815260200191505060405180910390a33373ffffffffffffffffffffffffffffffffffffffff166108fc829081150290604051600060405180830381858888f19350505050151561054857600080fd5b5050565b6000600160008373ffffffffffffffffffffffffffffffffffffffff1673ffffffffffffffffffffffffffffffffffffffff168152602001908152602001600020549050919050565b6040805190810160405280600381526020017f544e54000000000000000000000000000000000000000000000000000000000081525081565b600080905092915050565b6103e881565b6000803414156105ee57600080fd5b6103e83402905080600080828254019250508190555080600160003373ffffffffffffffffffffffffffffffffffffffff1673ffffffffffffffffffffffffffffffffffffffff168152602001908152602001600020600082825401925050819055503373ffffffffffffffffffffffffffffffffffffffff1660007fddf252ad1be2c89b69c2b068fc378daa952ba7f163c4a11628f55a4df523b3ef836040518082815260200191505060405180910390a3505600a165627a7a7230582055b212df1824d578bf99a093895685c6406b1265697e48bae29d428ab1ca77e00029",
  "source": "\n\n\ncontract TestNetworkToken {\n\n    \n    string public constant name = \"Test Network Token\";\n    string public constant symbol = \"TNT\";\n    uint8 public constant decimals = 18;  \n\n    uint256 public constant tokenCreationRate = 1000;\n\n    \n    uint256 totalTokens;\n    \n    mapping (address => uint256) balances;\n\n    event Transfer(address indexed _from, address indexed _to, uint256 _value);\n    event Refund(address indexed _from, uint256 _value);\n\n    \n\n    \n    function transfer(address _to, uint256 _value) returns (bool) {\n        return false;\n    }\n\n    function totalSupply() external constant returns (uint256) {\n        return totalTokens;\n    }\n\n    function balanceOf(address _owner) external constant returns (uint256) {\n        return balances[_owner];\n    }\n\n    \n\n    function create() payable external {\n        \n        if (msg.value == 0) throw;\n\n        var numTokens = msg.value * tokenCreationRate;\n\n        totalTokens += numTokens;\n\n        \n        balances[msg.sender] += numTokens;\n\n        \n        Transfer(0x0, msg.sender, numTokens);\n    }\n\n    function refund() external {\n        var tokenValue = balances[msg.sender];\n        if (tokenValue == 0) throw;\n        balances[msg.sender] = 0;\n        totalTokens -= tokenValue;\n\n        var ethValue = tokenValue / tokenCreationRate;\n        Refund(msg.sender, ethValue);\n        Transfer(msg.sender, 0x0, tokenValue);\n\n        if (!msg.sender.send(ethValue)) throw;\n    }\n\n    \n    \n    function kill() {\n        if(totalTokens > 0) throw;\n\n        selfdestruct(msg.sender);\n    }\n}",
  "sourcePath": "/home/XXX-1/smartrim-experiment/for-rlf/0x131288b47c92409d0778d0aa2fbb8367e3399d33/contracts/0x131288b47c92409d0778d0aa2fbb8367e3399d33.sol",
  "compiler": {
    "name": "solc",
    "version": "0.4.25+commit.59dbf8f1.Emscripten.clang"
  },
  "schemaVersion": "3.4.16",
  "updatedAt": "2025-08-14T03:47:40.933Z",
  "networkType": "ethereum",
  "devdoc": {
    "methods": {}
  },
  "userdoc": {
    "methods": {}
  }
}