{
  "contractName": "Configurable",
  "abi": [
    {
      "constant": true,
      "inputs": [],
      "name": "cap",
      "outputs": [
        {
          "name": "",
          "type": "uint256"
        }
      ],
      "payable": false,
      "stateMutability": "view",
      "type": "function"
    },
    {
      "constant": true,
      "inputs": [],
      "name": "tokensSold",
      "outputs": [
        {
          "name": "",
          "type": "uint256"
        }
      ],
      "payable": false,
      "stateMutability": "view",
      "type": "function"
    },
    {
      "constant": true,
      "inputs": [],
      "name": "remainingTokens",
      "outputs": [
        {
          "name": "",
          "type": "uint256"
        }
      ],
      "payable": false,
      "stateMutability": "view",
      "type": "function"
    },
    {
      "constant": true,
      "inputs": [],
      "name": "basePrice",
      "outputs": [
        {
          "name": "",
          "type": "uint256"
        }
      ],
      "payable": false,
      "stateMutability": "view",
      "type": "function"
    },
    {
      "constant": true,
      "inputs": [],
      "name": "tokenReserve",
      "outputs": [
        {
          "name": "",
          "type": "uint256"
        }
      ],
      "payable": false,
      "stateMutability": "view",
      "type": "function"
    }
  ],
  "bytecode": "0x608060405260008055600060015534801561001957600080fd5b506101ad806100296000396000f30060806040526004361061006d576000357c0100000000000000000000000000000000000000000000000000000000900463ffffffff168063355274ea14610072578063518ab2a81461009d578063bf583903146100c8578063c7876ea4146100f3578063cbcb31711461011e575b600080fd5b34801561007e57600080fd5b50610087610149565b6040518082815260200191505060405180910390f35b3480156100a957600080fd5b506100b2610158565b6040518082815260200191505060405180910390f35b3480156100d457600080fd5b506100dd61015e565b6040518082815260200191505060405180910390f35b3480156100ff57600080fd5b50610108610164565b6040518082815260200191505060405180910390f35b34801561012a57600080fd5b50610133610172565b6040518082815260200191505060405180910390f35b6a2a2fab8a32d3571300000081565b60005481565b60015481565b69152d02c7e14af680000081565b6a115eec47f6cf7e35000000815600a165627a7a7230582008ca550ea2884fee4d8d9fc5217ac619688e72ad33e327838f9913bb4ca57c550029",
  "source": "\n\nlibrary SafeMath {\n    \n    function mul(uint256 a, uint256 b) internal pure returns (uint256 c) {\n        if (a == 0) {\n            return 0;\n        }\n        c = a * b;\n        assert(c / a == b);\n        return c;\n    }\n    \n    \n    function div(uint256 a, uint256 b) internal pure returns (uint256) {\n        \n        \n        \n        return a / b;\n    }\n    \n    \n    function sub(uint256 a, uint256 b) internal pure returns (uint256) {\n        assert(b <= a);\n        return a - b;\n    }\n    \n    \n    function add(uint256 a, uint256 b) internal pure returns (uint256 c) {\n        c = a + b;\n        assert(c >= a);\n        return c;\n    }\n}\n\n \ncontract Ownable {\n    address public owner;\n    event OwnershipTransferred(address indexed previousOwner, address indexed newOwner);\n\n   constructor() public {\n      owner = msg.sender;\n    }\n    \n    \n    modifier onlyOwner() {\n      require(msg.sender == owner);\n      _;\n    }\n    \n    \n    function transferOwnership(address newOwner) public  {\n      require(newOwner != address(0));\n      emit OwnershipTransferred(owner, newOwner);\n      owner = newOwner;\n    }\n}\n\ncontract ERC20Basic {\n    function totalSupply() public view returns (uint256);\n    function balanceOf(address who) public view returns (uint256);\n    function transfer(address to, uint256 value) public returns (bool);\n    event Transfer(address indexed from, address indexed to, uint256 value);\n}\n\ncontract ERC20 is ERC20Basic {\n    function allowance(address owner, address spender) public view returns (uint256);\n    function transferFrom(address from, address to, uint256 value) public returns (bool);\n    function approve(address spender, uint256 value) public returns (bool);\n    event Approval(address indexed owner, address indexed spender, uint256 value);\n}\n\ncontract BasicToken is ERC20Basic {\n    using SafeMath for uint256;\n    mapping(address => uint256) balances;\n    uint256 totalSupply_;\n    \n    \n    function totalSupply() public view returns (uint256) {\n        return totalSupply_;\n    }\n    \n    \n    function transfer(address _to, uint256 _value) public returns (bool) {\n        require(_to != address(0));\n        require(_value <= balances[msg.sender]);\n        \n        balances[msg.sender] = balances[msg.sender].sub(_value);\n        balances[_to] = balances[_to].add(_value);\n        emit Transfer(msg.sender, _to, _value);\n        return true;\n    }\n    \n    \n    function balanceOf(address _owner) public view returns (uint256) {\n        return balances[_owner];\n    }\n}\ncontract StandardToken is ERC20, BasicToken {\n    mapping (address => mapping (address => uint256)) internal allowed;\n    \n    function transferFrom(address _from, address _to, uint256 _value) public returns (bool) {\n        require(_to != address(0));\n        require(_value <= balances[_from]);\n        require(_value <= allowed[_from][msg.sender]);\n    \n        balances[_from] = balances[_from].sub(_value);\n        balances[_to] = balances[_to].add(_value);\n        allowed[_from][msg.sender] = allowed[_from][msg.sender].sub(_value);\n        \n        emit Transfer(_from, _to, _value);\n        return true;\n    }\n    \n    \n    function approve(address _spender, uint256 _value) public returns (bool) {\n        allowed[msg.sender][_spender] = _value;\n        emit Approval(msg.sender, _spender, _value);\n        return true;\n    }\n    \n    \n    function allowance(address _owner, address _spender) public view returns (uint256) {\n        return allowed[_owner][_spender];\n    }\n    \n    \n    function increaseApproval(address _spender, uint _addedValue) public returns (bool) {\n        allowed[msg.sender][_spender] = allowed[msg.sender][_spender].add(_addedValue);\n        emit Approval(msg.sender, _spender, allowed[msg.sender][_spender]);\n        return true;\n    }\n    \n    \n    function decreaseApproval(address _spender, uint _subtractedValue) public returns (bool) {\n        uint oldValue = allowed[msg.sender][_spender];\n        if (_subtractedValue > oldValue) {\n            allowed[msg.sender][_spender] = 0;\n        } else {\n            allowed[msg.sender][_spender] = oldValue.sub(_subtractedValue);\n        }\n        emit Approval(msg.sender, _spender, allowed[msg.sender][_spender]);\n        return true;\n    }\n}\n\ncontract Configurable {\n    uint256 public constant cap = 51000000*10**18;\n    uint256 public constant basePrice = 100000*10**18; \n    uint256 public tokensSold = 0;\n    \n    uint256 public constant tokenReserve = 21000000*10**18;\n    uint256 public remainingTokens = 0;\n}\n\ncontract CrowdsaleToken is StandardToken, Configurable, Ownable {\n    \n     enum Stages {\n        none,\n        icoStart, \n        icoEnd\n    }\n    \n    Stages currentStage;\n  \n    \n    constructor() public {\n        currentStage = Stages.none;\n        balances[owner] = balances[owner].add(tokenReserve);\n        totalSupply_ = totalSupply_.add(tokenReserve);\n        remainingTokens = cap;\n        emit Transfer(address(this), owner, tokenReserve);\n    }\n    \n    \n    function () public payable {\n        require(currentStage == Stages.icoStart);\n        require(msg.value > 0);\n        require(remainingTokens > 0);\n        \n        \n        uint256 weiAmount = msg.value; \n        uint256 tokens = weiAmount.mul(basePrice).div(1 ether);\n        uint256 returnWei = 0;\n        \n        if(tokensSold.add(tokens) > cap){\n            uint256 newTokens = cap.sub(tokensSold);\n            uint256 newWei = newTokens.div(basePrice).mul(1 ether);\n            returnWei = weiAmount.sub(newWei);\n            weiAmount = newWei;\n            tokens = newTokens;\n        }\n        \n        tokensSold = tokensSold.add(tokens); \n        remainingTokens = cap.sub(tokensSold);\n        if(returnWei > 0){\n            msg.sender.transfer(returnWei);\n            emit Transfer(address(this), msg.sender, returnWei);\n        }\n        \n        balances[msg.sender] = balances[msg.sender].add(tokens);\n        emit Transfer(address(this), msg.sender, tokens);\n        totalSupply_ = totalSupply_.add(tokens);\n        owner.transfer(weiAmount);\n    }\n\n    function startIco() public onlyOwner {\n        require(currentStage != Stages.icoEnd);\n        currentStage = Stages.icoStart;\n    }\n\n    function endIco() internal {\n        currentStage = Stages.icoEnd;\n        \n        if(remainingTokens > 0)\n            balances[owner] = balances[owner].add(remainingTokens);\n        \n        owner.transfer(address(this).balance); \n    }\n\n    function finalizeIco() public onlyOwner {\n        require(currentStage != Stages.icoEnd);\n        endIco();\n    }\n    \n}\n\ncontract BitherumToken is CrowdsaleToken {\n    string public constant name = \"Bitherum\";\n    string public constant symbol = \"BTH\";\n    uint32 public constant decimals = 18;\n}\n",
  "sourcePath": "/home/XXX-1/smartrim-experiment/for-rlf/0xdcd03c274982b15341b570f39e0f72e730d11f32_3/contracts/0xdcd03c274982b15341b570f39e0f72e730d11f32_3.sol",
  "compiler": {
    "name": "solc",
    "version": "0.4.25+commit.59dbf8f1.Emscripten.clang"
  },
  "schemaVersion": "3.4.16",
  "updatedAt": "2025-08-14T03:38:26.902Z",
  "devdoc": {
    "methods": {}
  },
  "userdoc": {
    "methods": {}
  }
}