{
  "contractName": "Random",
  "abi": [
    {
      "constant": true,
      "inputs": [
        {
          "name": "blockNumber",
          "type": "uint256"
        },
        {
          "name": "max",
          "type": "uint256"
        }
      ],
      "name": "getRandomFromBlockHash",
      "outputs": [
        {
          "name": "",
          "type": "uint256"
        }
      ],
      "payable": false,
      "stateMutability": "view",
      "type": "function"
    }
  ],
  "bytecode": "0x608060405234801561001057600080fd5b50610114806100206000396000f300608060405260043610603f576000357c0100000000000000000000000000000000000000000000000000000000900463ffffffff16806379c0909e146044575b600080fd5b348015604f57600080fd5b5060766004803603810190808035906020019092919080359060200190929190505050608c565b6040518082815260200191505060405180910390f35b600060c382844060405180826000191660001916815260200191505060405180910390206001900481151560bc57fe5b06600160cb565b905092915050565b600080828401905083811015151560de57fe5b80915050929150505600a165627a7a72305820caf620bb552b2a20e9c69cf887e8705cc294b909c379265e171be8f245c0fbc40029",
  "source": "\n\n\n\n\n\n\n\n\n\n\n\n\n\n\n\n\n\n\n\n\n\n\n\n\n\n\n\n\n\n\n\n\n\n\n\n\n\n\n\n\n\ncontract Owned {\n    address public owner;\n    function owned() {\n        owner = msg.sender;\n    }\n    modifier onlyOwner {\n        require(msg.sender == owner);\n        _;\n    }\n    function transferOwnership(address _newOwner) onlyOwner {\n        owner = _newOwner;\n    }\n}\n\n\ncontract Mortal is Owned {\n    function kill() onlyOwner {\n        selfdestruct(owner);\n    }\n}\n\n\ncontract SafeMath {\n  function mul(uint256 a, uint256 b)\n  internal\n  constant\n  returns (uint256) {\n    uint256 c = a * b;\n    assert(a == 0 || c / a == b);\n    return c;\n  }\n\n  function div(uint256 a, uint256 b)\n  internal\n  constant\n  returns (uint256) {\n    \n    uint256 c = a / b;\n    \n    return c;\n  }\n\n  function sub(uint256 a, uint256 b)\n  internal\n  constant\n  returns (uint256) {\n    assert(b <= a);\n    return a - b;\n  }\n\n  function add(uint256 a, uint256 b)\n  internal\n  constant\n  returns (uint256) {\n    uint256 c = a + b;\n    assert(c >= a);\n    return c;\n  }\n}\n\n\ncontract Random is SafeMath {\n    \n    function getRandomFromBlockHash(uint blockNumber, uint max)\n    public\n    constant \n    returns(uint) {\n        \n        \n        \n        \n        \n        return(add(uint(sha3(block.blockhash(blockNumber))) % max, 1));\n    }\n}\n\n\ncontract RandomLedger is Owned {\n    \n    uint256 public cost;\n    \n    uint8 public waitTime;\n    \n    uint256 public max;\n\n    \n    struct PendingNumber {\n        address requestProxy;\n        uint256 renderedNumber;\n        uint256 originBlock;\n        uint256 max;\n        \n        \n        uint8 waitTime;\n    }\n\n    \n    event EventRandomLedgerRequested(address requestor, uint256 max, uint256 originBlock, uint8 waitTime, address indexed requestProxy);\n    event EventRandomLedgerRevealed(address requestor, uint256 originBlock, uint256 renderedNumber, address indexed requestProxy);\n    \n    mapping (address => PendingNumber) pendingNumbers;\n    mapping (address => bool) public whiteList;\n\n    function requestNumber(address _requestor, uint256 _max, uint8 _waitTime) payable public;\n    function revealNumber(address _requestor) payable public;\n}\n\n\ncontract RandomLedgerService is RandomLedger, Mortal, Random {\n    \n    \n    function RandomLedgerService() {\n        owned();\n        cost = 20000000000000000; \n        max = 21; \n        waitTime = 5; \n    }\n\n    \n    \n    function setMax(uint256 _max)\n    onlyOwner\n    public\n    returns (bool) {\n        max = _max;\n        return true;\n    }\n\n    \n    function setWaitTime(uint8 _waitTime)\n    onlyOwner\n    public\n    returns (bool) {\n        waitTime = _waitTime;\n        return true;\n    }\n\n    \n    function setCost(uint256 _cost)\n    onlyOwner\n    public\n    returns (bool) {\n        cost = _cost;\n        return true;\n    }\n\n    \n    \n    \n    function enableProxy(address _proxy)\n    onlyOwner\n    public\n    returns (bool) {\n        whiteList[_proxy] = true;\n        return whiteList[_proxy];\n    }\n\n    function removeProxy(address _proxy)\n    onlyOwner\n    public\n    returns (bool) {\n        delete whiteList[_proxy];\n        return true;\n    }\n\n    \n    function withdraw(address _recipient, uint256 _balance)\n    onlyOwner\n    public\n    returns (bool) {\n        _recipient.transfer(_balance);\n        return true;\n    }\n\n    \n    \n    function () payable public {\n        assert(msg.sender != owner);\n        requestNumber(msg.sender, max, waitTime);\n    }\n    \n    \n    function requestNumber(address _requestor, uint256 _max, uint8 _waitTime)\n    payable \n    public {\n        \n        \n        \n        if (!whiteList[msg.sender]) {\n            require(!(msg.value < cost));\n        }\n\n        \n        \n        assert(!isRequestPending(_requestor));\n        \n        pendingNumbers[_requestor] = PendingNumber({\n            requestProxy: tx.origin, \n            renderedNumber: 0,\n            max: max,\n            originBlock: block.number,\n            waitTime: waitTime\n        });\n        if (_max > 1) {\n            pendingNumbers[_requestor].max = _max;\n        }\n        \n        \n        \n        \n        if (_waitTime > 0 && _waitTime < 250) {\n            pendingNumbers[_requestor].waitTime = _waitTime;\n        }\n        EventRandomLedgerRequested(_requestor, pendingNumbers[_requestor].max, pendingNumbers[_requestor].originBlock, pendingNumbers[_requestor].waitTime, pendingNumbers[_requestor].requestProxy);\n    }\n\n    \n    \n    function revealNumber(address _requestor)\n    public\n    payable {\n        assert(_canReveal(_requestor, msg.sender));\n        \n        _revealNumber(_requestor);\n    }\n\n    \n    function _revealNumber(address _requestor) \n    internal {\n        uint256 luckyBlock = _revealBlock(_requestor);\n        \n        \n        \n        \n        \n        uint256 luckyNumber = getRandomFromBlockHash(luckyBlock, pendingNumbers[_requestor].max);\n\n        \n        pendingNumbers[_requestor].renderedNumber = luckyNumber;\n        \n        EventRandomLedgerRevealed(_requestor, pendingNumbers[_requestor].originBlock, pendingNumbers[_requestor].renderedNumber, pendingNumbers[_requestor].requestProxy);\n        \n        pendingNumbers[_requestor].waitTime = 0;\n    }\n\n    function canReveal(address _requestor)\n    public\n    constant\n    returns (bool, uint, uint, address, address) {\n        return (_canReveal(_requestor, msg.sender), _remainingBlocks(_requestor), _revealBlock(_requestor), _requestor, msg.sender);\n    }\n\n    function _canReveal(address _requestor, address _proxy) \n    internal\n    constant\n    returns (bool) {\n        \n        if (isRequestPending(_requestor)) {\n            \n            \n            if (_remainingBlocks(_requestor) == 0) {\n                \n                if (pendingNumbers[_requestor].requestProxy == _requestor || pendingNumbers[_requestor].requestProxy == _proxy) {\n                    return true;\n                }\n            }\n        }\n        return false;\n    }\n\n    function _remainingBlocks(address _requestor)\n    internal\n    constant\n    returns (uint) {\n        uint256 revealBlock = add(pendingNumbers[_requestor].originBlock, pendingNumbers[_requestor].waitTime);\n        uint256 remainingBlocks = 0;\n        if (revealBlock > block.number) {\n            remainingBlocks = sub(revealBlock, block.number);\n        }\n        return remainingBlocks;\n    }\n\n    function _revealBlock(address _requestor)\n    internal\n    constant\n    returns (uint) {\n        \n        \n        \n        return add(pendingNumbers[_requestor].originBlock, pendingNumbers[_requestor].waitTime);\n    }\n\n\n    function getNumber(address _requestor)\n    public\n    constant\n    returns (uint, uint, uint, address) {\n        return (pendingNumbers[_requestor].renderedNumber, pendingNumbers[_requestor].max, pendingNumbers[_requestor].originBlock, _requestor);\n    }\n\n    \n    function isRequestPending(address _requestor)\n    public\n    constant\n    returns (bool) {\n        if (pendingNumbers[_requestor].renderedNumber == 0 && pendingNumbers[_requestor].waitTime > 0) {\n            return true;\n        }\n        return false;\n    }\n\n}",
  "sourcePath": "/home/XXX-1/smartrim-experiment/for-rlf/0x870ed69ed12430c6a3d4abdb30c7eeb1918c62b1/contracts/0x870ed69ed12430c6a3d4abdb30c7eeb1918c62b1.sol",
  "compiler": {
    "name": "solc",
    "version": "0.4.25+commit.59dbf8f1.Emscripten.clang"
  },
  "schemaVersion": "3.4.16",
  "updatedAt": "2025-08-14T03:59:35.155Z",
  "devdoc": {
    "methods": {}
  },
  "userdoc": {
    "methods": {}
  }
}