{
  "contractName": "URANUS",
  "abi": [
    {
      "constant": true,
      "inputs": [],
      "name": "name",
      "outputs": [
        {
          "name": "",
          "type": "string"
        }
      ],
      "payable": false,
      "stateMutability": "view",
      "type": "function"
    },
    {
      "constant": true,
      "inputs": [],
      "name": "totalSupply",
      "outputs": [
        {
          "name": "",
          "type": "uint256"
        }
      ],
      "payable": false,
      "stateMutability": "view",
      "type": "function"
    },
    {
      "constant": true,
      "inputs": [],
      "name": "decimals",
      "outputs": [
        {
          "name": "",
          "type": "uint256"
        }
      ],
      "payable": false,
      "stateMutability": "view",
      "type": "function"
    },
    {
      "constant": true,
      "inputs": [],
      "name": "value",
      "outputs": [
        {
          "name": "",
          "type": "uint256"
        }
      ],
      "payable": false,
      "stateMutability": "view",
      "type": "function"
    },
    {
      "constant": true,
      "inputs": [],
      "name": "symbol",
      "outputs": [
        {
          "name": "",
          "type": "string"
        }
      ],
      "payable": false,
      "stateMutability": "view",
      "type": "function"
    },
    {
      "constant": true,
      "inputs": [],
      "name": "distributionFinished",
      "outputs": [
        {
          "name": "",
          "type": "bool"
        }
      ],
      "payable": false,
      "stateMutability": "view",
      "type": "function"
    },
    {
      "constant": true,
      "inputs": [],
      "name": "totalRemaining",
      "outputs": [
        {
          "name": "",
          "type": "uint256"
        }
      ],
      "payable": false,
      "stateMutability": "view",
      "type": "function"
    },
    {
      "constant": true,
      "inputs": [],
      "name": "totalDistributed",
      "outputs": [
        {
          "name": "",
          "type": "uint256"
        }
      ],
      "payable": false,
      "stateMutability": "view",
      "type": "function"
    },
    {
      "constant": true,
      "inputs": [
        {
          "name": "",
          "type": "address"
        }
      ],
      "name": "blacklist",
      "outputs": [
        {
          "name": "",
          "type": "bool"
        }
      ],
      "payable": false,
      "stateMutability": "view",
      "type": "function"
    },
    {
      "payable": true,
      "stateMutability": "payable",
      "type": "fallback"
    },
    {
      "anonymous": false,
      "inputs": [
        {
          "indexed": true,
          "name": "_from",
          "type": "address"
        },
        {
          "indexed": true,
          "name": "_to",
          "type": "address"
        },
        {
          "indexed": false,
          "name": "_value",
          "type": "uint256"
        }
      ],
      "name": "Transfer",
      "type": "event"
    },
    {
      "anonymous": false,
      "inputs": [
        {
          "indexed": true,
          "name": "_owner",
          "type": "address"
        },
        {
          "indexed": true,
          "name": "_spender",
          "type": "address"
        },
        {
          "indexed": false,
          "name": "_value",
          "type": "uint256"
        }
      ],
      "name": "Approval",
      "type": "event"
    },
    {
      "anonymous": false,
      "inputs": [
        {
          "indexed": true,
          "name": "to",
          "type": "address"
        },
        {
          "indexed": false,
          "name": "amount",
          "type": "uint256"
        }
      ],
      "name": "Distr",
      "type": "event"
    },
    {
      "anonymous": false,
      "inputs": [],
      "name": "DistrFinished",
      "type": "event"
    },
    {
      "anonymous": false,
      "inputs": [
        {
          "indexed": true,
          "name": "burner",
          "type": "address"
        },
        {
          "indexed": false,
          "name": "value",
          "type": "uint256"
        }
      ],
      "name": "Burn",
      "type": "event"
    },
    {
      "constant": false,
      "inputs": [],
      "name": "SiaCashCoin",
      "outputs": [],
      "payable": false,
      "stateMutability": "nonpayable",
      "type": "function"
    },
    {
      "constant": false,
      "inputs": [
        {
          "name": "newOwner",
          "type": "address"
        }
      ],
      "name": "transferOwnership",
      "outputs": [],
      "payable": false,
      "stateMutability": "nonpayable",
      "type": "function"
    },
    {
      "constant": false,
      "inputs": [],
      "name": "finishDistribution",
      "outputs": [
        {
          "name": "",
          "type": "bool"
        }
      ],
      "payable": false,
      "stateMutability": "nonpayable",
      "type": "function"
    },
    {
      "constant": false,
      "inputs": [],
      "name": "getTokens",
      "outputs": [],
      "payable": true,
      "stateMutability": "payable",
      "type": "function"
    },
    {
      "constant": true,
      "inputs": [
        {
          "name": "_owner",
          "type": "address"
        }
      ],
      "name": "balanceOf",
      "outputs": [
        {
          "name": "",
          "type": "uint256"
        }
      ],
      "payable": false,
      "stateMutability": "view",
      "type": "function"
    },
    {
      "constant": false,
      "inputs": [
        {
          "name": "_to",
          "type": "address"
        },
        {
          "name": "_amount",
          "type": "uint256"
        }
      ],
      "name": "transfer",
      "outputs": [
        {
          "name": "success",
          "type": "bool"
        }
      ],
      "payable": false,
      "stateMutability": "nonpayable",
      "type": "function"
    },
    {
      "constant": false,
      "inputs": [
        {
          "name": "_from",
          "type": "address"
        },
        {
          "name": "_to",
          "type": "address"
        },
        {
          "name": "_amount",
          "type": "uint256"
        }
      ],
      "name": "transferFrom",
      "outputs": [
        {
          "name": "success",
          "type": "bool"
        }
      ],
      "payable": false,
      "stateMutability": "nonpayable",
      "type": "function"
    },
    {
      "constant": false,
      "inputs": [
        {
          "name": "_spender",
          "type": "address"
        },
        {
          "name": "_value",
          "type": "uint256"
        }
      ],
      "name": "approve",
      "outputs": [
        {
          "name": "success",
          "type": "bool"
        }
      ],
      "payable": false,
      "stateMutability": "nonpayable",
      "type": "function"
    },
    {
      "constant": true,
      "inputs": [
        {
          "name": "_owner",
          "type": "address"
        },
        {
          "name": "_spender",
          "type": "address"
        }
      ],
      "name": "allowance",
      "outputs": [
        {
          "name": "",
          "type": "uint256"
        }
      ],
      "payable": false,
      "stateMutability": "view",
      "type": "function"
    },
    {
      "constant": true,
      "inputs": [
        {
          "name": "tokenAddress",
          "type": "address"
        },
        {
          "name": "who",
          "type": "address"
        }
      ],
      "name": "getTokenBalance",
      "outputs": [
        {
          "name": "",
          "type": "uint256"
        }
      ],
      "payable": false,
      "stateMutability": "view",
      "type": "function"
    },
    {
      "constant": false,
      "inputs": [],
      "name": "withdraw",
      "outputs": [],
      "payable": false,
      "stateMutability": "nonpayable",
      "type": "function"
    },
    {
      "constant": false,
      "inputs": [
        {
          "name": "_value",
          "type": "uint256"
        }
      ],
      "name": "burn",
      "outputs": [],
      "payable": false,
      "stateMutability": "nonpayable",
      "type": "function"
    },
    {
      "constant": false,
      "inputs": [
        {
          "name": "_tokenContract",
          "type": "address"
        }
      ],
      "name": "withdrawForeignTokens",
      "outputs": [
        {
          "name": "",
          "type": "bool"
        }
      ],
      "payable": false,
      "stateMutability": "nonpayable",
      "type": "function"
    }
  ],
  "bytecode": "0x608060405233600160006101000a81548173ffffffffffffffffffffffffffffffffffffffff021916908373ffffffffffffffffffffffffffffffffffffffff1602179055506502ba7def300060055565015d3ef7980060065561007d6006546005546100b564010000000002611c45179091906401000000009004565b6007556308f0d1806008556000600960006101000a81548160ff0219169083151502179055503480156100af57600080fd5b506100ce565b60008282111515156100c357fe5b818303905092915050565b611ca8806100dd6000396000f300608060405260043610610128576000357c0100000000000000000000000000000000000000000000000000000000900463ffffffff16806306fdde0314610132578063095ea7b3146101c257806318160ddd1461022757806323b872dd14610252578063313ce567146102d75780633ccfd60b146103025780633fa4f2451461031957806342966c681461034457806370a082311461037157806395d89b41146103c85780639a4b19e4146104585780639b1cbccc1461046f578063a9059cbb1461049e578063aa6ca80814610503578063c108d5421461050d578063c489744b1461053c578063d8a54360146105b3578063dd62ed3e146105de578063e58fc54c14610655578063efca2eed146106b0578063f2fde38b146106db578063f9f92be41461071e575b610130610779565b005b34801561013e57600080fd5b506101476108f5565b6040518080602001828103825283818151815260200191508051906020019080838360005b8381101561018757808201518184015260208101905061016c565b50505050905090810190601f1680156101b45780820380516001836020036101000a031916815260200191505b509250505060405180910390f35b3480156101ce57600080fd5b5061020d600480360381019080803573ffffffffffffffffffffffffffffffffffffffff1690602001909291908035906020019092919050505061092e565b604051808215151515815260200191505060405180910390f35b34801561023357600080fd5b5061023c610abc565b6040518082815260200191505060405180910390f35b34801561025e57600080fd5b506102bd600480360381019080803573ffffffffffffffffffffffffffffffffffffffff169060200190929190803573ffffffffffffffffffffffffffffffffffffffff16906020019092919080359060200190929190505050610ac2565b604051808215151515815260200191505060405180910390f35b3480156102e357600080fd5b506102ec610e98565b6040518082815260200191505060405180910390f35b34801561030e57600080fd5b50610317610e9d565b005b34801561032557600080fd5b5061032e610f81565b6040518082815260200191505060405180910390f35b34801561035057600080fd5b5061036f60048036038101908080359060200190929190505050610f87565b005b34801561037d57600080fd5b506103b2600480360381019080803573ffffffffffffffffffffffffffffffffffffffff169060200190929190505050611153565b6040518082815260200191505060405180910390f35b3480156103d457600080fd5b506103dd61119c565b6040518080602001828103825283818151815260200191508051906020019080838360005b8381101561041d578082015181840152602081019050610402565b50505050905090810190601f16801561044a5780820380516001836020036101000a031916815260200191505b509250505060405180910390f35b34801561046457600080fd5b5061046d6111d5565b005b34801561047b57600080fd5b50610484611280565b604051808215151515815260200191505060405180910390f35b3480156104aa57600080fd5b506104e9600480360381019080803573ffffffffffffffffffffffffffffffffffffffff16906020019092919080359060200190929190505050611348565b604051808215151515815260200191505060405180910390f35b61050b610779565b005b34801561051957600080fd5b50610522611583565b604051808215151515815260200191505060405180910390f35b34801561054857600080fd5b5061059d600480360381019080803573ffffffffffffffffffffffffffffffffffffffff169060200190929190803573ffffffffffffffffffffffffffffffffffffffff169060200190929190505050611596565b6040518082815260200191505060405180910390f35b3480156105bf57600080fd5b506105c8611681565b6040518082815260200191505060405180910390f35b3480156105ea57600080fd5b5061063f600480360381019080803573ffffffffffffffffffffffffffffffffffffffff169060200190929190803573ffffffffffffffffffffffffffffffffffffffff169060200190929190505050611687565b6040518082815260200191505060405180910390f35b34801561066157600080fd5b50610696600480360381019080803573ffffffffffffffffffffffffffffffffffffffff16906020019092919050505061170e565b604051808215151515815260200191505060405180910390f35b3480156106bc57600080fd5b506106c5611953565b6040518082815260200191505060405180910390f35b3480156106e757600080fd5b5061071c600480360381019080803573ffffffffffffffffffffffffffffffffffffffff169060200190929190505050611959565b005b34801561072a57600080fd5b5061075f600480360381019080803573ffffffffffffffffffffffffffffffffffffffff169060200190929190505050611a30565b604051808215151515815260200191505060405180910390f35b600080600960009054906101000a900460ff1615151561079857600080fd5b60001515600460003373ffffffffffffffffffffffffffffffffffffffff1673ffffffffffffffffffffffffffffffffffffffff16815260200190815260200160002060009054906101000a900460ff1615151415156107f757600080fd5b600754600854111561080d576007546008819055505b6007546008541115151561082057600080fd5b33915060085490506108328282611a50565b506000811115610895576001600460008473ffffffffffffffffffffffffffffffffffffffff1673ffffffffffffffffffffffffffffffffffffffff16815260200190815260200160002060006101000a81548160ff0219169083151502179055505b6005546006541015156108be576001600960006101000a81548160ff0219169083151502179055505b6108eb6201869f6108dd620186a0600854611bf790919063ffffffff16565b611c1290919063ffffffff16565b6008819055505050565b6040805190810160405280600681526020017f5552414e5553000000000000000000000000000000000000000000000000000081525081565b60008082141580156109bd57506000600360003373ffffffffffffffffffffffffffffffffffffffff1673ffffffffffffffffffffffffffffffffffffffff16815260200190815260200160002060008573ffffffffffffffffffffffffffffffffffffffff1673ffffffffffffffffffffffffffffffffffffffff1681526020019081526020016000205414155b156109cb5760009050610ab6565b81600360003373ffffffffffffffffffffffffffffffffffffffff1673ffffffffffffffffffffffffffffffffffffffff16815260200190815260200160002060008573ffffffffffffffffffffffffffffffffffffffff1673ffffffffffffffffffffffffffffffffffffffff168152602001908152602001600020819055508273ffffffffffffffffffffffffffffffffffffffff163373ffffffffffffffffffffffffffffffffffffffff167f8c5be1e5ebec7d5bd14f71427d1e84f3dd0314c0f7b2291e5b200ac8c7c3b925846040518082815260200191505060405180910390a3600190505b92915050565b60055481565b6000606060048101600036905010151515610ad957fe5b600073ffffffffffffffffffffffffffffffffffffffff168473ffffffffffffffffffffffffffffffffffffffff1614151515610b1557600080fd5b600260008673ffffffffffffffffffffffffffffffffffffffff1673ffffffffffffffffffffffffffffffffffffffff168152602001908152602001600020548311151515610b6357600080fd5b600360008673ffffffffffffffffffffffffffffffffffffffff1673ffffffffffffffffffffffffffffffffffffffff16815260200190815260200160002060003373ffffffffffffffffffffffffffffffffffffffff1673ffffffffffffffffffffffffffffffffffffffff168152602001908152602001600020548311151515610bee57600080fd5b610c4083600260008873ffffffffffffffffffffffffffffffffffffffff1673ffffffffffffffffffffffffffffffffffffffff16815260200190815260200160002054611c4590919063ffffffff16565b600260008773ffffffffffffffffffffffffffffffffffffffff1673ffffffffffffffffffffffffffffffffffffffff16815260200190815260200160002081905550610d1283600360008873ffffffffffffffffffffffffffffffffffffffff1673ffffffffffffffffffffffffffffffffffffffff16815260200190815260200160002060003373ffffffffffffffffffffffffffffffffffffffff1673ffffffffffffffffffffffffffffffffffffffff16815260200190815260200160002054611c4590919063ffffffff16565b600360008773ffffffffffffffffffffffffffffffffffffffff1673ffffffffffffffffffffffffffffffffffffffff16815260200190815260200160002060003373ffffffffffffffffffffffffffffffffffffffff1673ffffffffffffffffffffffffffffffffffffffff16815260200190815260200160002081905550610de483600260008773ffffffffffffffffffffffffffffffffffffffff1673ffffffffffffffffffffffffffffffffffffffff16815260200190815260200160002054611c5e90919063ffffffff16565b600260008673ffffffffffffffffffffffffffffffffffffffff1673ffffffffffffffffffffffffffffffffffffffff168152602001908152602001600020819055508373ffffffffffffffffffffffffffffffffffffffff168573ffffffffffffffffffffffffffffffffffffffff167fddf252ad1be2c89b69c2b068fc378daa952ba7f163c4a11628f55a4df523b3ef856040518082815260200191505060405180910390a360019150509392505050565b600281565b6000600160009054906101000a900473ffffffffffffffffffffffffffffffffffffffff1673ffffffffffffffffffffffffffffffffffffffff163373ffffffffffffffffffffffffffffffffffffffff16141515610efb57600080fd5b3073ffffffffffffffffffffffffffffffffffffffff16319050600160009054906101000a900473ffffffffffffffffffffffffffffffffffffffff1673ffffffffffffffffffffffffffffffffffffffff166108fc829081150290604051600060405180830381858888f19350505050158015610f7d573d6000803e3d6000fd5b5050565b60085481565b6000600160009054906101000a900473ffffffffffffffffffffffffffffffffffffffff1673ffffffffffffffffffffffffffffffffffffffff163373ffffffffffffffffffffffffffffffffffffffff16141515610fe557600080fd5b600260003373ffffffffffffffffffffffffffffffffffffffff1673ffffffffffffffffffffffffffffffffffffffff16815260200190815260200160002054821115151561103357600080fd5b33905061108882600260008473ffffffffffffffffffffffffffffffffffffffff1673ffffffffffffffffffffffffffffffffffffffff16815260200190815260200160002054611c4590919063ffffffff16565b600260008373ffffffffffffffffffffffffffffffffffffffff1673ffffffffffffffffffffffffffffffffffffffff168152602001908152602001600020819055506110e082600554611c4590919063ffffffff16565b6005819055506110fb82600654611c4590919063ffffffff16565b6006819055508073ffffffffffffffffffffffffffffffffffffffff167fcc16f5dbb4873280815c1ee09dbd06736cffcc184412cf7a71a0fdb75d397ca5836040518082815260200191505060405180910390a25050565b6000600260008373ffffffffffffffffffffffffffffffffffffffff1673ffffffffffffffffffffffffffffffffffffffff168152602001908152602001600020549050919050565b6040805190810160405280600381526020017f555241000000000000000000000000000000000000000000000000000000000081525081565b33600160006101000a81548173ffffffffffffffffffffffffffffffffffffffff021916908373ffffffffffffffffffffffffffffffffffffffff16021790555060065460026000600160009054906101000a900473ffffffffffffffffffffffffffffffffffffffff1673ffffffffffffffffffffffffffffffffffffffff1673ffffffffffffffffffffffffffffffffffffffff16815260200190815260200160002081905550565b6000600160009054906101000a900473ffffffffffffffffffffffffffffffffffffffff1673ffffffffffffffffffffffffffffffffffffffff163373ffffffffffffffffffffffffffffffffffffffff161415156112de57600080fd5b600960009054906101000a900460ff161515156112fa57600080fd5b6001600960006101000a81548160ff0219169083151502179055507f7f95d919e78bdebe8a285e6e33357c2fcb65ccf66e72d7573f9f8f6caad0c4cc60405160405180910390a16001905090565b600060406004810160003690501015151561135f57fe5b600073ffffffffffffffffffffffffffffffffffffffff168473ffffffffffffffffffffffffffffffffffffffff161415151561139b57600080fd5b600260003373ffffffffffffffffffffffffffffffffffffffff1673ffffffffffffffffffffffffffffffffffffffff1681526020019081526020016000205483111515156113e957600080fd5b61143b83600260003373ffffffffffffffffffffffffffffffffffffffff1673ffffffffffffffffffffffffffffffffffffffff16815260200190815260200160002054611c4590919063ffffffff16565b600260003373ffffffffffffffffffffffffffffffffffffffff1673ffffffffffffffffffffffffffffffffffffffff168152602001908152602001600020819055506114d083600260008773ffffffffffffffffffffffffffffffffffffffff1673ffffffffffffffffffffffffffffffffffffffff16815260200190815260200160002054611c5e90919063ffffffff16565b600260008673ffffffffffffffffffffffffffffffffffffffff1673ffffffffffffffffffffffffffffffffffffffff168152602001908152602001600020819055508373ffffffffffffffffffffffffffffffffffffffff163373ffffffffffffffffffffffffffffffffffffffff167fddf252ad1be2c89b69c2b068fc378daa952ba7f163c4a11628f55a4df523b3ef856040518082815260200191505060405180910390a3600191505092915050565b600960009054906101000a900460ff1681565b60008060008491508173ffffffffffffffffffffffffffffffffffffffff166370a08231856040518263ffffffff167c0100000000000000000000000000000000000000000000000000000000028152600401808273ffffffffffffffffffffffffffffffffffffffff1673ffffffffffffffffffffffffffffffffffffffff168152602001915050602060405180830381600087803b15801561163957600080fd5b505af115801561164d573d6000803e3d6000fd5b505050506040513d602081101561166357600080fd5b81019080805190602001909291905050509050809250505092915050565b60075481565b6000600360008473ffffffffffffffffffffffffffffffffffffffff1673ffffffffffffffffffffffffffffffffffffffff16815260200190815260200160002060008373ffffffffffffffffffffffffffffffffffffffff1673ffffffffffffffffffffffffffffffffffffffff16815260200190815260200160002054905092915050565b6000806000600160009054906101000a900473ffffffffffffffffffffffffffffffffffffffff1673ffffffffffffffffffffffffffffffffffffffff163373ffffffffffffffffffffffffffffffffffffffff1614151561176f57600080fd5b8391508173ffffffffffffffffffffffffffffffffffffffff166370a08231306040518263ffffffff167c0100000000000000000000000000000000000000000000000000000000028152600401808273ffffffffffffffffffffffffffffffffffffffff1673ffffffffffffffffffffffffffffffffffffffff168152602001915050602060405180830381600087803b15801561180d57600080fd5b505af1158015611821573d6000803e3d6000fd5b505050506040513d602081101561183757600080fd5b810190808051906020019092919050505090508173ffffffffffffffffffffffffffffffffffffffff1663a9059cbb600160009054906101000a900473ffffffffffffffffffffffffffffffffffffffff16836040518363ffffffff167c0100000000000000000000000000000000000000000000000000000000028152600401808373ffffffffffffffffffffffffffffffffffffffff1673ffffffffffffffffffffffffffffffffffffffff16815260200182815260200192505050602060405180830381600087803b15801561190f57600080fd5b505af1158015611923573d6000803e3d6000fd5b505050506040513d602081101561193957600080fd5b810190808051906020019092919050505092505050919050565b60065481565b600160009054906101000a900473ffffffffffffffffffffffffffffffffffffffff1673ffffffffffffffffffffffffffffffffffffffff163373ffffffffffffffffffffffffffffffffffffffff161415156119b557600080fd5b600073ffffffffffffffffffffffffffffffffffffffff168173ffffffffffffffffffffffffffffffffffffffff16141515611a2d5780600160006101000a81548173ffffffffffffffffffffffffffffffffffffffff021916908373ffffffffffffffffffffffffffffffffffffffff1602179055505b50565b60046020528060005260406000206000915054906101000a900460ff1681565b6000600960009054906101000a900460ff16151515611a6e57600080fd5b611a8382600654611c5e90919063ffffffff16565b600681905550611a9e82600754611c4590919063ffffffff16565b600781905550611af682600260008673ffffffffffffffffffffffffffffffffffffffff1673ffffffffffffffffffffffffffffffffffffffff16815260200190815260200160002054611c5e90919063ffffffff16565b600260008573ffffffffffffffffffffffffffffffffffffffff1673ffffffffffffffffffffffffffffffffffffffff168152602001908152602001600020819055508273ffffffffffffffffffffffffffffffffffffffff167f8940c4b8e215f8822c5c8f0056c12652c746cbc57eedbd2a440b175971d47a77836040518082815260200191505060405180910390a28273ffffffffffffffffffffffffffffffffffffffff16600073ffffffffffffffffffffffffffffffffffffffff167fddf252ad1be2c89b69c2b068fc378daa952ba7f163c4a11628f55a4df523b3ef846040518082815260200191505060405180910390a36001905092915050565b6000808284811515611c0557fe5b0490508091505092915050565b60008082840290506000841480611c335750828482811515611c3057fe5b04145b1515611c3b57fe5b8091505092915050565b6000828211151515611c5357fe5b818303905092915050565b6000808284019050838110151515611c7257fe5b80915050929150505600a165627a7a72305820328c4c9e29521387cefff77178471d8c2fa1d2971117b63738cf881e908211ea0029",
  "source": "\n\nlibrary SafeMath {\n  function mul(uint256 a, uint256 b) internal pure returns (uint256) {\n    uint256 c = a * b;\n    assert(a == 0 || c / a == b);\n    return c;\n  }\n\n  function div(uint256 a, uint256 b) internal pure returns (uint256) {\n    uint256 c = a / b;\n    return c;\n  }\n\n  function sub(uint256 a, uint256 b) internal pure returns (uint256) {\n    assert(b <= a);\n    return a - b;\n  }\n\n  function add(uint256 a, uint256 b) internal pure returns (uint256) {\n    uint256 c = a + b;\n    assert(c >= a);\n    return c;\n  }\n}\n\ncontract ForeignToken {\n    function balanceOf(address _owner) constant public returns (uint256);\n    function transfer(address _to, uint256 _value) public returns (bool);\n}\n\ncontract ERC20Basic {\n    uint256 public totalSupply;\n    function balanceOf(address who) public constant returns (uint256);\n    function transfer(address to, uint256 value) public returns (bool);\n    event Transfer(address indexed from, address indexed to, uint256 value);\n}\n\ncontract ERC20 is ERC20Basic {\n    function allowance(address owner, address spender) public constant returns (uint256);\n    function transferFrom(address from, address to, uint256 value) public returns (bool);\n    function approve(address spender, uint256 value) public returns (bool);\n    event Approval(address indexed owner, address indexed spender, uint256 value);\n}\n\ninterface Token { \n    function distr(address _to, uint256 _value) external returns (bool);\n    function totalSupply() constant external returns (uint256 supply);\n    function balanceOf(address _owner) constant external returns (uint256 balance);\n}\n\ncontract URANUS is ERC20 {\n\n \n    \n    using SafeMath for uint256;\n    address owner = msg.sender;\n\n    mapping (address => uint256) balances;\n    mapping (address => mapping (address => uint256)) allowed;\n    mapping (address => bool) public blacklist;\n\n    string public constant name = \"URANUS\";\n    string public constant symbol = \"URA\";\n    uint public constant decimals  = 2;\n    \nuint256 public totalSupply = 30000000000e2;\n    \nuint256 public totalDistributed = 15000000000e2;\n    \nuint256 public totalRemaining = totalSupply.sub(totalDistributed);\n    \nuint256 public value = 1500000e2;\n\n\n\n    event Transfer(address indexed _from, address indexed _to, uint256 _value);\n    event Approval(address indexed _owner, address indexed _spender, uint256 _value);\n    \n    event Distr(address indexed to, uint256 amount);\n    event DistrFinished();\n    \n    event Burn(address indexed burner, uint256 value);\n\n    bool public distributionFinished = false;\n    \n    modifier canDistr() {\n        require(!distributionFinished);\n        _;\n    }\n    \n    modifier onlyOwner() {\n        require(msg.sender == owner);\n        _;\n    }\n    \n    modifier onlyWhitelist() {\n        require(blacklist[msg.sender] == false);\n        _;\n    }\n    \n    function SiaCashCoin() public {\n        owner = msg.sender;\n        balances[owner] = totalDistributed;\n    }\n    \n    function transferOwnership(address newOwner) onlyOwner public {\n        if (newOwner != address(0)) {\n            owner = newOwner;\n        }\n    }\n    \n    function finishDistribution() onlyOwner canDistr public returns (bool) {\n        distributionFinished = true;\n        emit DistrFinished();\n        return true;\n    }\n    \n    function distr(address _to, uint256 _amount) canDistr private returns (bool) {\n        totalDistributed = totalDistributed.add(_amount);\n        totalRemaining = totalRemaining.sub(_amount);\n        balances[_to] = balances[_to].add(_amount);\n        emit Distr(_to, _amount);\n        emit Transfer(address(0), _to, _amount);\n        return true;\n        \n        if (totalDistributed >= totalSupply) {\n            distributionFinished = true;\n        }\n    }\n    \n    function () external payable {\n        getTokens();\n     }\n    \n    function getTokens() payable canDistr onlyWhitelist public {\n        if (value > totalRemaining) {\n            value = totalRemaining;\n        }\n        \n        require(value <= totalRemaining);\n        \n        address investor = msg.sender;\n        uint256 toGive = value;\n        \n        distr(investor, toGive);\n        \n        if (toGive > 0) {\n            blacklist[investor] = true;\n        }\n\n        if (totalDistributed >= totalSupply) {\n            distributionFinished = true;\n        }\n        \n        value = value.div(100000).mul(99999);\n    }\n\n    function balanceOf(address _owner) constant public returns (uint256) {\n        return balances[_owner];\n    }\n\n    modifier onlyPayloadSize(uint size) {\n        assert(msg.data.length >= size + 4);\n        _;\n    }\n    \n    function transfer(address _to, uint256 _amount) onlyPayloadSize(2 * 32) public returns (bool success) {\n        require(_to != address(0));\n        require(_amount <= balances[msg.sender]);\n        \n        balances[msg.sender] = balances[msg.sender].sub(_amount);\n        balances[_to] = balances[_to].add(_amount);\n        emit Transfer(msg.sender, _to, _amount);\n        return true;\n    }\n    \n    function transferFrom(address _from, address _to, uint256 _amount) onlyPayloadSize(3 * 32) public returns (bool success) {\n        require(_to != address(0));\n        require(_amount <= balances[_from]);\n        require(_amount <= allowed[_from][msg.sender]);\n        \n        balances[_from] = balances[_from].sub(_amount);\n        allowed[_from][msg.sender] = allowed[_from][msg.sender].sub(_amount);\n        balances[_to] = balances[_to].add(_amount);\n        emit Transfer(_from, _to, _amount);\n        return true;\n    }\n    \n    function approve(address _spender, uint256 _value) public returns (bool success) {\n        if (_value != 0 && allowed[msg.sender][_spender] != 0) { return false; }\n        allowed[msg.sender][_spender] = _value;\n        emit Approval(msg.sender, _spender, _value);\n        return true;\n    }\n    \n    function allowance(address _owner, address _spender) constant public returns (uint256) {\n        return allowed[_owner][_spender];\n    }\n    \n    function getTokenBalance(address tokenAddress, address who) constant public returns (uint){\n        ForeignToken t = ForeignToken(tokenAddress);\n        uint bal = t.balanceOf(who);\n        return bal;\n    }\n    \n    function withdraw() onlyOwner public {\n        uint256 etherBalance = address(this).balance;\n        owner.transfer(etherBalance);\n    }\n    \n    function burn(uint256 _value) onlyOwner public {\n        require(_value <= balances[msg.sender]);\n\n        address burner = msg.sender;\n        balances[burner] = balances[burner].sub(_value);\n        totalSupply = totalSupply.sub(_value);\n        totalDistributed = totalDistributed.sub(_value);\n        emit Burn(burner, _value);\n    }\n    \n    function withdrawForeignTokens(address _tokenContract) onlyOwner public returns (bool) {\n        ForeignToken token = ForeignToken(_tokenContract);\n        uint256 amount = token.balanceOf(address(this));\n        return token.transfer(owner, amount);\n    }\n}",
  "sourcePath": "/home/XXX-1/smartrim-experiment/for-rlf/0x9db3fd94a5bb1acdaef28ae483fe6b0d49746678/contracts/0x9db3fd94a5bb1acdaef28ae483fe6b0d49746678.sol",
  "compiler": {
    "name": "solc",
    "version": "0.4.25+commit.59dbf8f1.Emscripten.clang"
  },
  "schemaVersion": "3.4.16",
  "updatedAt": "2025-08-14T03:34:02.138Z",
  "networkType": "ethereum",
  "devdoc": {
    "methods": {}
  },
  "userdoc": {
    "methods": {}
  }
}