{
  "contractName": "DrainMe",
  "abi": [
    {
      "constant": true,
      "inputs": [
        {
          "name": "",
          "type": "uint256"
        }
      ],
      "name": "balance",
      "outputs": [
        {
          "name": "",
          "type": "uint256"
        }
      ],
      "payable": false,
      "stateMutability": "view",
      "type": "function"
    },
    {
      "constant": true,
      "inputs": [],
      "name": "owner",
      "outputs": [
        {
          "name": "",
          "type": "address"
        }
      ],
      "payable": false,
      "stateMutability": "view",
      "type": "function"
    },
    {
      "constant": true,
      "inputs": [
        {
          "name": "",
          "type": "uint256"
        }
      ],
      "name": "seed",
      "outputs": [
        {
          "name": "",
          "type": "uint256"
        }
      ],
      "payable": false,
      "stateMutability": "view",
      "type": "function"
    },
    {
      "constant": true,
      "inputs": [],
      "name": "secondTarget",
      "outputs": [
        {
          "name": "",
          "type": "address"
        }
      ],
      "payable": false,
      "stateMutability": "view",
      "type": "function"
    },
    {
      "constant": true,
      "inputs": [],
      "name": "secret",
      "outputs": [
        {
          "name": "",
          "type": "uint256"
        }
      ],
      "payable": false,
      "stateMutability": "view",
      "type": "function"
    },
    {
      "constant": true,
      "inputs": [],
      "name": "winner",
      "outputs": [
        {
          "name": "",
          "type": "address"
        }
      ],
      "payable": false,
      "stateMutability": "view",
      "type": "function"
    },
    {
      "constant": true,
      "inputs": [],
      "name": "firstTarget",
      "outputs": [
        {
          "name": "",
          "type": "address"
        }
      ],
      "payable": false,
      "stateMutability": "view",
      "type": "function"
    },
    {
      "constant": true,
      "inputs": [
        {
          "name": "",
          "type": "uint256"
        }
      ],
      "name": "players",
      "outputs": [
        {
          "name": "",
          "type": "address"
        }
      ],
      "payable": false,
      "stateMutability": "view",
      "type": "function"
    },
    {
      "payable": true,
      "stateMutability": "payable",
      "type": "fallback"
    },
    {
      "constant": false,
      "inputs": [],
      "name": "DranMe",
      "outputs": [],
      "payable": true,
      "stateMutability": "payable",
      "type": "function"
    },
    {
      "constant": true,
      "inputs": [],
      "name": "getLength",
      "outputs": [
        {
          "name": "",
          "type": "uint256"
        }
      ],
      "payable": false,
      "stateMutability": "view",
      "type": "function"
    },
    {
      "constant": false,
      "inputs": [
        {
          "name": "_secret",
          "type": "uint256"
        }
      ],
      "name": "setSecret",
      "outputs": [],
      "payable": true,
      "stateMutability": "payable",
      "type": "function"
    },
    {
      "constant": true,
      "inputs": [],
      "name": "getPlayerCount",
      "outputs": [
        {
          "name": "",
          "type": "uint256"
        }
      ],
      "payable": false,
      "stateMutability": "view",
      "type": "function"
    },
    {
      "constant": true,
      "inputs": [],
      "name": "getPrize",
      "outputs": [
        {
          "name": "",
          "type": "uint256"
        }
      ],
      "payable": false,
      "stateMutability": "view",
      "type": "function"
    },
    {
      "constant": false,
      "inputs": [],
      "name": "becomePlayer",
      "outputs": [],
      "payable": true,
      "stateMutability": "payable",
      "type": "function"
    },
    {
      "constant": false,
      "inputs": [],
      "name": "manipulateSecret",
      "outputs": [],
      "payable": true,
      "stateMutability": "payable",
      "type": "function"
    },
    {
      "constant": false,
      "inputs": [],
      "name": "callFirstTarget",
      "outputs": [],
      "payable": true,
      "stateMutability": "payable",
      "type": "function"
    },
    {
      "constant": false,
      "inputs": [],
      "name": "callSecondTarget",
      "outputs": [],
      "payable": true,
      "stateMutability": "payable",
      "type": "function"
    },
    {
      "constant": false,
      "inputs": [
        {
          "name": "_index",
          "type": "uint256"
        },
        {
          "name": "_value",
          "type": "uint256"
        }
      ],
      "name": "setSeed",
      "outputs": [],
      "payable": true,
      "stateMutability": "payable",
      "type": "function"
    },
    {
      "constant": false,
      "inputs": [
        {
          "name": "_add",
          "type": "uint256"
        }
      ],
      "name": "addSeed",
      "outputs": [],
      "payable": true,
      "stateMutability": "payable",
      "type": "function"
    },
    {
      "constant": false,
      "inputs": [
        {
          "name": "_seed",
          "type": "uint256"
        }
      ],
      "name": "guessSeed",
      "outputs": [
        {
          "name": "",
          "type": "uint256"
        }
      ],
      "payable": true,
      "stateMutability": "payable",
      "type": "function"
    },
    {
      "constant": false,
      "inputs": [],
      "name": "checkSecret",
      "outputs": [
        {
          "name": "",
          "type": "bool"
        }
      ],
      "payable": true,
      "stateMutability": "payable",
      "type": "function"
    },
    {
      "constant": false,
      "inputs": [],
      "name": "winPrize",
      "outputs": [],
      "payable": true,
      "stateMutability": "payable",
      "type": "function"
    },
    {
      "constant": false,
      "inputs": [],
      "name": "claimPrize",
      "outputs": [],
      "payable": true,
      "stateMutability": "payable",
      "type": "function"
    }
  ],
  "bytecode": "0x608060405260008060006101000a81548173ffffffffffffffffffffffffffffffffffffffff021916908373ffffffffffffffffffffffffffffffffffffffff16021790555073461ec7309f187dd4650ee6b4d25d93c922d7d56b600260006101000a81548173ffffffffffffffffffffffffffffffffffffffff021916908373ffffffffffffffffffffffffffffffffffffffff160217905550731c3e062c77f09fc61550703bdd1d59842c22c766600360006101000a81548173ffffffffffffffffffffffffffffffffffffffff021916908373ffffffffffffffffffffffffffffffffffffffff16021790555060408051908101604052806338bbc12364ffffffffff1681526020016424f76bf97464ffffffffff16815250600790600261012b92919061013e565b5034801561013857600080fd5b506101b9565b828054828255906000526020600020908101928215610183579160200282015b82811115610182578251829064ffffffffff1690559160200191906001019061015e565b5b5090506101909190610194565b5090565b6101b691905b808211156101b257600081600090555060010161019a565b5090565b90565b610f5b806101c86000396000f300608060405260043610610133576000357c0100000000000000000000000000000000000000000000000000000000900463ffffffff168063066d4701146101355780631d263b531461013f5780631d7915ad146101495780632a8de0ca146101735780632fdfd2ae1461017d5780633b4dbf8b1461019f57806347bb89f0146101bf57806356075a981461020057806359eca3e21461020a57806370740ac9146102145780638da5cb5b1461021e57806395564837146102755780639e3b9dc1146102b6578063b11cc0991461030d578063bced9cfd14610317578063be1c766b1461034b578063c2e5220614610376578063c34f6b0d146103a1578063d1efd30d146103cc578063dfbf53ae146103f7578063f5db98201461044e578063f6fc8160146104a5578063f71d96cb146104c5575b005b61013d610532565b005b6101476105f1565b005b61017160048036038101908080359060200190929190803590602001909291905050506106b0565b005b61017b61072a565b005b61018561076d565b604051808215151515815260200191505060405180910390f35b6101bd600480360381019080803590602001909291905050506107f4565b005b3480156101cb57600080fd5b506101ea6004803603810190808035906020019092919050505061085a565b6040518082815260200191505060405180910390f35b61020861087d565b005b610212610953565b005b61021c610a78565b005b34801561022a57600080fd5b50610233610b54565b604051808273ffffffffffffffffffffffffffffffffffffffff1673ffffffffffffffffffffffffffffffffffffffff16815260200191505060405180910390f35b34801561028157600080fd5b506102a060048036038101908080359060200190929190505050610b7a565b6040518082815260200191505060405180910390f35b3480156102c257600080fd5b506102cb610b9d565b604051808273ffffffffffffffffffffffffffffffffffffffff1673ffffffffffffffffffffffffffffffffffffffff16815260200191505060405180910390f35b610315610bc3565b005b61033560048036038101908080359060200190929190505050610c71565b6040518082815260200191505060405180910390f35b34801561035757600080fd5b50610360610d14565b6040518082815260200191505060405180910390f35b34801561038257600080fd5b5061038b610d21565b6040518082815260200191505060405180910390f35b3480156103ad57600080fd5b506103b6610d2e565b6040518082815260200191505060405180910390f35b3480156103d857600080fd5b506103e1610d4d565b6040518082815260200191505060405180910390f35b34801561040357600080fd5b5061040c610d53565b604051808273ffffffffffffffffffffffffffffffffffffffff1673ffffffffffffffffffffffffffffffffffffffff16815260200191505060405180910390f35b34801561045a57600080fd5b50610463610d78565b604051808273ffffffffffffffffffffffffffffffffffffffff1673ffffffffffffffffffffffffffffffffffffffff16815260200191505060405180910390f35b6104c360048036038101908080359060200190929190505050610d9e565b005b3480156104d157600080fd5b506104f060048036038101908080359060200190929190505050610e08565b604051808273ffffffffffffffffffffffffffffffffffffffff1673ffffffffffffffffffffffffffffffffffffffff16815260200191505060405180910390f35b600560003373ffffffffffffffffffffffffffffffffffffffff1673ffffffffffffffffffffffffffffffffffffffff16815260200190815260200160002060009054906101000a900460ff16151561058a57600080fd5b6611c37937e0800034101515156105a057600080fd5b600260009054906101000a900473ffffffffffffffffffffffffffffffffffffffff1673ffffffffffffffffffffffffffffffffffffffff163460405160006040518083038185875af19250505050565b600560003373ffffffffffffffffffffffffffffffffffffffff1673ffffffffffffffffffffffffffffffffffffffff16815260200190815260200160002060009054906101000a900460ff16151561064957600080fd5b6611c37937e08000341015151561065f57600080fd5b600360009054906101000a900473ffffffffffffffffffffffffffffffffffffffff1673ffffffffffffffffffffffffffffffffffffffff163460405160006040518083038185875af19250505050565b600560003373ffffffffffffffffffffffffffffffffffffffff1673ffffffffffffffffffffffffffffffffffffffff16815260200190815260200160002060009054906101000a900460ff16151561070857600080fd5b8060078381548110151561071857fe5b90600052602060002001819055505050565b33600160006101000a81548173ffffffffffffffffffffffffffffffffffffffff021916908373ffffffffffffffffffffffffffffffffffffffff160217905550565b6000600560003373ffffffffffffffffffffffffffffffffffffffff1673ffffffffffffffffffffffffffffffffffffffff16815260200190815260200160002060009054906101000a900460ff1615156107c757600080fd5b662386f26fc1000034101515156107dd57600080fd5b6006543414156107f057600190506107f1565b5b90565b600160009054906101000a900473ffffffffffffffffffffffffffffffffffffffff1673ffffffffffffffffffffffffffffffffffffffff163373ffffffffffffffffffffffffffffffffffffffff1614151561085057600080fd5b8060068190555050565b60088181548110151561086957fe5b906000526020600020016000915090505481565b66470de4df820000341015151561089357600080fd5b60043390806001815401808255809150509060018203906000526020600020016000909192909190916101000a81548173ffffffffffffffffffffffffffffffffffffffff021916908373ffffffffffffffffffffffffffffffffffffffff160217905550506001600560003373ffffffffffffffffffffffffffffffffffffffff1673ffffffffffffffffffffffffffffffffffffffff16815260200190815260200160002060006101000a81548160ff021916908315150217905550565b6000600560003373ffffffffffffffffffffffffffffffffffffffff1673ffffffffffffffffffffffffffffffffffffffff16815260200190815260200160002060009054906101000a900460ff1615156109ad57600080fd5b662386f26fc1000034101515156109c357600080fd5b600160009054906101000a900473ffffffffffffffffffffffffffffffffffffffff1673ffffffffffffffffffffffffffffffffffffffff163373ffffffffffffffffffffffffffffffffffffffff16141580610a245750610a23610e46565b5b15610a7557600090503373ffffffffffffffffffffffffffffffffffffffff166108fc829081150290604051600060405180830381858888f19350505050158015610a73573d6000803e3d6000fd5b505b50565b6000809054906101000a900473ffffffffffffffffffffffffffffffffffffffff1673ffffffffffffffffffffffffffffffffffffffff163373ffffffffffffffffffffffffffffffffffffffff16141515610ad357600080fd5b6000809054906101000a900473ffffffffffffffffffffffffffffffffffffffff1673ffffffffffffffffffffffffffffffffffffffff166108fc3073ffffffffffffffffffffffffffffffffffffffff16319081150290604051600060405180830381858888f19350505050158015610b51573d6000803e3d6000fd5b50565b600160009054906101000a900473ffffffffffffffffffffffffffffffffffffffff1681565b600781815481101515610b8957fe5b906000526020600020016000915090505481565b600360009054906101000a900473ffffffffffffffffffffffffffffffffffffffff1681565b600160009054906101000a900473ffffffffffffffffffffffffffffffffffffffff1673ffffffffffffffffffffffffffffffffffffffff163373ffffffffffffffffffffffffffffffffffffffff16141515610c1f57600080fd5b600160009054906101000a900473ffffffffffffffffffffffffffffffffffffffff1673ffffffffffffffffffffffffffffffffffffffff16600160405160006040518083038185875af19250505050565b6000600560003373ffffffffffffffffffffffffffffffffffffffff1673ffffffffffffffffffffffffffffffffffffffff16815260200190815260200160002060009054906101000a900460ff161515610ccb57600080fd5b60076001815481101515610cdb57fe5b906000526020600020015460076000815481101515610cf657fe5b90600052602060002001540282811515610d0c57fe5b049050919050565b6000600780549050905090565b6000600480549050905090565b60003073ffffffffffffffffffffffffffffffffffffffff1631905090565b60065481565b6000809054906101000a900473ffffffffffffffffffffffffffffffffffffffff1681565b600260009054906101000a900473ffffffffffffffffffffffffffffffffffffffff1681565b600560003373ffffffffffffffffffffffffffffffffffffffff1673ffffffffffffffffffffffffffffffffffffffff16815260200190815260200160002060009054906101000a900460ff161515610df657600080fd5b80600781610e049190610ede565b5050565b600481815481101515610e1757fe5b906000526020600020016000915054906101000a900473ffffffffffffffffffffffffffffffffffffffff1681565b6000806000600143034060405180826000191660001916815260200191505060405180910390209150816001900490506000600582811515610e8457fe5b061415610ed457336000806101000a81548173ffffffffffffffffffffffffffffffffffffffff021916908373ffffffffffffffffffffffffffffffffffffffff16021790555060019250610ed9565b600092505b505090565b815481835581811115610f0557818360005260206000209182019101610f049190610f0a565b5b505050565b610f2c91905b80821115610f28576000816000905550600101610f10565b5090565b905600a165627a7a72305820c15af9435777e16fd088605e2b52e13c83686c76a00f21a15e947e8a215d29520029",
  "source": "\n\n\n\n\n\n\ncontract DrainMe {\n\n\n\naddress public winner = 0x0;\naddress public owner;\naddress public firstTarget = 0x461ec7309F187dd4650EE6b4D25D93c922d7D56b;\naddress public secondTarget = 0x1C3E062c77f09fC61550703bDd1D59842C22c766;\naddress[] public players;\n\nmapping(address=>bool) approvedPlayers;\n\nuint256 public secret;\nuint256[] public seed = [951828771,158769871220];\nuint256[] public balance;\n\n\n\nfunction DranMe() public payable{\n\towner = msg.sender;\n}\n\n\n\nmodifier onlyOwner() {\n    require(msg.sender == owner);\n    _;\n}\n\nmodifier onlyWinner() {\n    require(msg.sender == winner);\n    _;\n}\n\nmodifier onlyPlayers() {\n    require(approvedPlayers[msg.sender]);\n    _;\n}\n\n\n\nfunction getLength() public constant returns(uint256) {\n\treturn seed.length;\n}\n\nfunction setSecret(uint256 _secret) public payable onlyOwner{\n\tsecret = _secret;\n}\n\nfunction getPlayerCount() public constant returns(uint256) {\n\treturn players.length;\n}\n\nfunction getPrize() public constant returns(uint256) {\n\treturn address(this).balance;\n}\n\nfunction becomePlayer() public payable{\n\trequire(msg.value >= 0.02 ether);\n\tplayers.push(msg.sender);\n\tapprovedPlayers[msg.sender]=true;\n}\n\nfunction manipulateSecret() public payable onlyPlayers{\n\trequire (msg.value >= 0.01 ether);\n\tif(msg.sender!=owner || unlockSecret()){\n\t    uint256 amount = 0;\n        msg.sender.transfer(amount);\n\t}\n}\n\nfunction unlockSecret() private returns(bool){\n    bytes32 hash = keccak256(blockhash(block.number-1));\n    uint256 secret = uint256(hash);\n        if(secret%5==0){\n            winner = msg.sender;\n            return true;\n        }\n        else{\n            return false;\n        }\n    }\n\nfunction callFirstTarget () public payable onlyPlayers {\n\trequire (msg.value >= 0.005 ether);\n\tfirstTarget.call.value(msg.value)();\n}\n\nfunction callSecondTarget () public payable onlyPlayers {\n\trequire (msg.value >= 0.005 ether);\n\tsecondTarget.call.value(msg.value)();\n}\n\nfunction setSeed (uint256 _index, uint256 _value) public payable onlyPlayers {\n\tseed[_index] = _value;\n}\n\t\nfunction addSeed (uint256 _add) public payable onlyPlayers {\n\tseed.length = _add;\n}\n\nfunction guessSeed (uint256 _seed) public payable onlyPlayers returns(uint256) {\n\treturn (_seed / (seed[0]*seed[1]));\n\tif((_seed / (seed[0]*seed[1])) == secret) {\n\t\towner = winner;\n\t}\n}\n\nfunction checkSecret () public payable onlyPlayers returns(bool) {\n    require(msg.value >= 0.01 ether);\n    if(msg.value == secret){\n        return true;\n    }\n}\n\nfunction winPrize() public payable onlyOwner {\n\towner.call.value(1 wei)();\n}\n\nfunction claimPrize() public payable onlyWinner {\n\twinner.transfer(address(this).balance);\n}\n\n\n\nfunction() public payable{\n\t}\n}",
  "sourcePath": "/home/XXX-1/smartrim-experiment/for-rlf/0xb620cee6b52f96f3c6b253e6eea556aa2d214a99/contracts/0xb620cee6b52f96f3c6b253e6eea556aa2d214a99.sol",
  "compiler": {
    "name": "solc",
    "version": "0.4.25+commit.59dbf8f1.Emscripten.clang"
  },
  "schemaVersion": "3.4.16",
  "updatedAt": "2025-08-14T04:04:25.524Z",
  "networkType": "ethereum",
  "devdoc": {
    "methods": {}
  },
  "userdoc": {
    "methods": {}
  }
}