{
  "contractName": "DickMeasurementContest",
  "abi": [
    {
      "inputs": [],
      "payable": false,
      "stateMutability": "nonpayable",
      "type": "constructor"
    },
    {
      "payable": true,
      "stateMutability": "payable",
      "type": "fallback"
    },
    {
      "constant": false,
      "inputs": [],
      "name": "mineIsBigger",
      "outputs": [],
      "payable": true,
      "stateMutability": "payable",
      "type": "function"
    },
    {
      "constant": false,
      "inputs": [],
      "name": "withdraw",
      "outputs": [],
      "payable": false,
      "stateMutability": "nonpayable",
      "type": "function"
    },
    {
      "constant": false,
      "inputs": [],
      "name": "kill",
      "outputs": [],
      "payable": false,
      "stateMutability": "nonpayable",
      "type": "function"
    }
  ],
  "bytecode": "0x608060405234801561001057600080fd5b5033600160006101000a81548173ffffffffffffffffffffffffffffffffffffffff021916908373ffffffffffffffffffffffffffffffffffffffff16021790555061028f806100616000396000f300608060405260043610610057576000357c0100000000000000000000000000000000000000000000000000000000900463ffffffff1680633ccfd60b1461005957806341c0e1b514610070578063bf91cbb514610087575b005b34801561006557600080fd5b5061006e610091565b005b34801561007c57600080fd5b50610085610162565b005b61008f6101f9565b005b600160009054906101000a900473ffffffffffffffffffffffffffffffffffffffff1673ffffffffffffffffffffffffffffffffffffffff163373ffffffffffffffffffffffffffffffffffffffff161415156100ed57600080fd5b6203f480600054014211151561010257600080fd5b3373ffffffffffffffffffffffffffffffffffffffff166108fc3073ffffffffffffffffffffffffffffffffffffffff16319081150290604051600060405180830381858888f1935050505015801561015f573d6000803e3d6000fd5b50565b600160009054906101000a900473ffffffffffffffffffffffffffffffffffffffff1673ffffffffffffffffffffffffffffffffffffffff163373ffffffffffffffffffffffffffffffffffffffff161415156101be57600080fd5b60003073ffffffffffffffffffffffffffffffffffffffff163114156101f7573373ffffffffffffffffffffffffffffffffffffffff16ff5b565b3073ffffffffffffffffffffffffffffffffffffffff16313411156102615733600160006101000a81548173ffffffffffffffffffffffffffffffffffffffff021916908373ffffffffffffffffffffffffffffffffffffffff160217905550426000819055505b5600a165627a7a723058203207e6c30d0336291ec623b6b20839753581b573bf5113df974f85e2834684670029",
  "source": "\n\ncontract DickMeasurementContest {\n\n    uint lastBlock;\n    address owner;\n\n    modifier onlyowner {\n        require (msg.sender == owner);\n        _;\n    }\n\n    function DickMeasurementContest() public {\n        owner = msg.sender;\n    }\n\n    function () public payable {}\n\n    function mineIsBigger() public payable {\n        if (msg.value > this.balance) {\n            owner = msg.sender;\n            lastBlock = now;\n        }\n    }\n\n    function withdraw() public onlyowner {\n        \n        \n        require(now > lastBlock + 3 days);\n        msg.sender.transfer(this.balance);\n    }\n\n    function kill() public onlyowner {\n        if(this.balance == 0) {  \n            selfdestruct(msg.sender);\n        }\n    }\n}",
  "sourcePath": "/home/XXX-1/smartrim-experiment/for-rlf/0x0dc11b7ed751594906bce3a7091952b30528ee7e/contracts/0x0dc11b7ed751594906bce3a7091952b30528ee7e.sol",
  "compiler": {
    "name": "solc",
    "version": "0.4.25+commit.59dbf8f1.Emscripten.clang"
  },
  "schemaVersion": "3.4.16",
  "updatedAt": "2025-08-14T03:46:45.861Z",
  "networkType": "ethereum",
  "devdoc": {
    "methods": {}
  },
  "userdoc": {
    "methods": {}
  }
}