{
  "contractName": "EthPyramid",
  "abi": [
    {
      "constant": true,
      "inputs": [],
      "name": "name",
      "outputs": [
        {
          "name": "",
          "type": "string"
        }
      ],
      "payable": false,
      "stateMutability": "view",
      "type": "function"
    },
    {
      "constant": true,
      "inputs": [],
      "name": "totalSupply",
      "outputs": [
        {
          "name": "",
          "type": "uint256"
        }
      ],
      "payable": false,
      "stateMutability": "view",
      "type": "function"
    },
    {
      "constant": true,
      "inputs": [],
      "name": "decimals",
      "outputs": [
        {
          "name": "",
          "type": "uint8"
        }
      ],
      "payable": false,
      "stateMutability": "view",
      "type": "function"
    },
    {
      "constant": true,
      "inputs": [
        {
          "name": "",
          "type": "address"
        }
      ],
      "name": "payouts",
      "outputs": [
        {
          "name": "",
          "type": "int256"
        }
      ],
      "payable": false,
      "stateMutability": "view",
      "type": "function"
    },
    {
      "constant": true,
      "inputs": [],
      "name": "symbol",
      "outputs": [
        {
          "name": "",
          "type": "string"
        }
      ],
      "payable": false,
      "stateMutability": "view",
      "type": "function"
    },
    {
      "constant": true,
      "inputs": [
        {
          "name": "",
          "type": "address"
        }
      ],
      "name": "tokenBalance",
      "outputs": [
        {
          "name": "",
          "type": "uint256"
        }
      ],
      "payable": false,
      "stateMutability": "view",
      "type": "function"
    },
    {
      "inputs": [],
      "payable": false,
      "stateMutability": "nonpayable",
      "type": "constructor"
    },
    {
      "payable": true,
      "stateMutability": "payable",
      "type": "fallback"
    },
    {
      "constant": true,
      "inputs": [
        {
          "name": "_owner",
          "type": "address"
        }
      ],
      "name": "balanceOf",
      "outputs": [
        {
          "name": "balance",
          "type": "uint256"
        }
      ],
      "payable": false,
      "stateMutability": "view",
      "type": "function"
    },
    {
      "constant": false,
      "inputs": [],
      "name": "withdraw",
      "outputs": [],
      "payable": false,
      "stateMutability": "nonpayable",
      "type": "function"
    },
    {
      "constant": false,
      "inputs": [],
      "name": "reinvestDividends",
      "outputs": [],
      "payable": false,
      "stateMutability": "nonpayable",
      "type": "function"
    },
    {
      "constant": false,
      "inputs": [],
      "name": "sellMyTokens",
      "outputs": [],
      "payable": false,
      "stateMutability": "nonpayable",
      "type": "function"
    },
    {
      "constant": false,
      "inputs": [],
      "name": "getMeOutOfHere",
      "outputs": [],
      "payable": false,
      "stateMutability": "nonpayable",
      "type": "function"
    },
    {
      "constant": false,
      "inputs": [],
      "name": "fund",
      "outputs": [],
      "payable": true,
      "stateMutability": "payable",
      "type": "function"
    },
    {
      "constant": true,
      "inputs": [],
      "name": "buyPrice",
      "outputs": [
        {
          "name": "",
          "type": "uint256"
        }
      ],
      "payable": false,
      "stateMutability": "view",
      "type": "function"
    },
    {
      "constant": true,
      "inputs": [],
      "name": "sellPrice",
      "outputs": [
        {
          "name": "",
          "type": "uint256"
        }
      ],
      "payable": false,
      "stateMutability": "view",
      "type": "function"
    },
    {
      "constant": true,
      "inputs": [
        {
          "name": "_owner",
          "type": "address"
        }
      ],
      "name": "dividends",
      "outputs": [
        {
          "name": "amount",
          "type": "uint256"
        }
      ],
      "payable": false,
      "stateMutability": "view",
      "type": "function"
    },
    {
      "constant": false,
      "inputs": [
        {
          "name": "to",
          "type": "address"
        }
      ],
      "name": "withdrawOld",
      "outputs": [],
      "payable": false,
      "stateMutability": "nonpayable",
      "type": "function"
    },
    {
      "constant": true,
      "inputs": [
        {
          "name": "ethervalue",
          "type": "uint256"
        }
      ],
      "name": "getTokensForEther",
      "outputs": [
        {
          "name": "tokens",
          "type": "uint256"
        }
      ],
      "payable": false,
      "stateMutability": "view",
      "type": "function"
    },
    {
      "constant": true,
      "inputs": [
        {
          "name": "ethervalue",
          "type": "uint256"
        },
        {
          "name": "subvalue",
          "type": "uint256"
        }
      ],
      "name": "calculateDividendTokens",
      "outputs": [
        {
          "name": "tokens",
          "type": "uint256"
        }
      ],
      "payable": false,
      "stateMutability": "view",
      "type": "function"
    },
    {
      "constant": true,
      "inputs": [
        {
          "name": "tokens",
          "type": "uint256"
        }
      ],
      "name": "getEtherForTokens",
      "outputs": [
        {
          "name": "ethervalue",
          "type": "uint256"
        }
      ],
      "payable": false,
      "stateMutability": "view",
      "type": "function"
    }
  ],
  "bytecode": "0x608060405234801561001057600080fd5b50611443806100206000396000f300608060405260043610610107576000357c0100000000000000000000000000000000000000000000000000000000900463ffffffff16806306fdde031461012957806318160ddd146101b9578063313ce567146101e457806339ffe67c146102155780633ccfd60b146102585780634b7503341461026f57806362dbf2611461029a57806365bcfbe7146102db57806368306e431461033257806370a08231146103895780638620410b146103e0578063957b2e561461040b57806395d89b4114610422578063b1e35242146104b2578063b60d4288146104c9578063b9f308f2146104d3578063bda5c45014610514578063e555c1a31461055f578063eedc966a14610576575b600034111561011d576101186105cd565b610127565b610126336105ee565b5b005b34801561013557600080fd5b5061013e6106b9565b6040518080602001828103825283818151815260200191508051906020019080838360005b8381101561017e578082015181840152602081019050610163565b50505050905090810190601f1680156101ab5780820380516001836020036101000a031916815260200191505b509250505060405180910390f35b3480156101c557600080fd5b506101ce6106f2565b6040518082815260200191505060405180910390f35b3480156101f057600080fd5b506101f96106f8565b604051808260ff1660ff16815260200191505060405180910390f35b34801561022157600080fd5b50610256600480360381019080803573ffffffffffffffffffffffffffffffffffffffff1690602001909291905050506105ee565b005b34801561026457600080fd5b5061026d6106fd565b005b34801561027b57600080fd5b506102846107c7565b6040518082815260200191505060405180910390f35b3480156102a657600080fd5b506102c5600480360381019080803590602001909291905050506107f5565b6040518082815260200191505060405180910390f35b3480156102e757600080fd5b5061031c600480360381019080803573ffffffffffffffffffffffffffffffffffffffff169060200190929190505050610854565b6040518082815260200191505060405180910390f35b34801561033e57600080fd5b50610373600480360381019080803573ffffffffffffffffffffffffffffffffffffffff16906020019092919050505061086c565b6040518082815260200191505060405180910390f35b34801561039557600080fd5b506103ca600480360381019080803573ffffffffffffffffffffffffffffffffffffffff16906020019092919050505061090d565b6040518082815260200191505060405180910390f35b3480156103ec57600080fd5b506103f5610955565b6040518082815260200191505060405180910390f35b34801561041757600080fd5b5061042061096c565b005b34801561042e57600080fd5b50610437610bef565b6040518080602001828103825283818151815260200191508051906020019080838360005b8381101561047757808201518184015260208101905061045c565b50505050905090810190601f1680156104a45780820380516001836020036101000a031916815260200191505b509250505060405180910390f35b3480156104be57600080fd5b506104c7610c28565b005b6104d16105cd565b005b3480156104df57600080fd5b506104fe60048036038101908080359060200190929190505050610c3a565b6040518082815260200191505060405180910390f35b34801561052057600080fd5b506105496004803603810190808035906020019092919080359060200190929190505050610cb1565b6040518082815260200191505060405180910390f35b34801561056b57600080fd5b50610574610d13565b005b34801561058257600080fd5b506105b7600480360381019080803573ffffffffffffffffffffffffffffffffffffffff169060200190929190505050610d2c565b6040518082815260200191505060405180910390f35b64e8d4a510003411156105e7576105e2610d44565b6105ec565b600080fd5b565b60006105f93361086c565b9050680100000000000000008102600160003373ffffffffffffffffffffffffffffffffffffffff1673ffffffffffffffffffffffffffffffffffffffff168152602001908152602001600020600082825401925050819055506801000000000000000081026003600082825401925050819055508173ffffffffffffffffffffffffffffffffffffffff166108fc829081150290604051600060405180830381858888f193505050501580156106b4573d6000803e3d6000fd5b505050565b6040805190810160405280600a81526020017f457468507972616d69640000000000000000000000000000000000000000000081525081565b60025481565b601281565b60006107083361086c565b9050680100000000000000008102600160003373ffffffffffffffffffffffffffffffffffffffff1673ffffffffffffffffffffffffffffffffffffffff168152602001908152602001600020600082825401925050819055506801000000000000000081026003600082825401925050819055503373ffffffffffffffffffffffffffffffffffffffff166108fc829081150290604051600060405180830381858888f193505050501580156107c3573d6000803e3d6000fd5b5050565b60008060006107dc66038d7ea4c68000610c3a565b91506107e982600a610f39565b90508082039250505090565b600061084d6108457ffffffffffffffffffffffffffffffffffffffffffffffffd6954087b5ca7b974600260016108348761082e610f54565b01610f8a565b0281151561083e57fe5b05016110e5565b600254611247565b9050919050565b60016020528060005260406000206000915090505481565b600068010000000000000000600160008473ffffffffffffffffffffffffffffffffffffffff1673ffffffffffffffffffffffffffffffffffffffff168152602001908152602001600020546000808573ffffffffffffffffffffffffffffffffffffffff1673ffffffffffffffffffffffffffffffffffffffff16815260200190815260200160002054600454020381151561090557fe5b049050919050565b60008060008373ffffffffffffffffffffffffffffffffffffffff1673ffffffffffffffffffffffffffffffffffffffff168152602001908152602001600020549050919050565b600061096766038d7ea4c680006107f5565b905090565b6000806000806000806000806000806000806109873361086c565b9b50680100000000000000008c02600160003373ffffffffffffffffffffffffffffffffffffffff1673ffffffffffffffffffffffffffffffffffffffff16815260200190815260200160002060008282540192505081905550680100000000000000008c026003600082825401925050819055508b9a5064e8d4a510008b1080610a1b575069d3c21bcecceda10000008b115b15610a2557600080fd5b3399508b610a31610f54565b039850610a3f8b600a610f39565b9750878b039650610a50878d610cb1565b9550680100000000000000008802945060006002541115610adf5760016002036002888860025401680100000000000000008a8c8f010202811515610a9157fe5b04811515610a9b57fe5b04680100000000000000000302811515610ab157fe5b0493508388029250828503945060025483811515610acb57fe5b049150816004600082825401925050819055505b610aeb60025487611260565b600281905550610b396000808c73ffffffffffffffffffffffffffffffffffffffff1673ffffffffffffffffffffffffffffffffffffffff1681526020019081526020016000205487611260565b6000808c73ffffffffffffffffffffffffffffffffffffffff1673ffffffffffffffffffffffffffffffffffffffff1681526020019081526020016000208190555084866004540203905080600160008c73ffffffffffffffffffffffffffffffffffffffff1673ffffffffffffffffffffffffffffffffffffffff1681526020019081526020016000206000828254019250508190555080600360008282540192505081905550505050505050505050505050565b6040805190810160405280600381526020017f455059000000000000000000000000000000000000000000000000000000000081525081565b610c30610d13565b610c386106fd565b565b600080610c45610f54565b9050600254831415610c5957809150610cab565b610ca881610ca3600160027ffffffffffffffffffffffffffffffffffffffffffffffffd6954087b5ca7b974610c928960025403610f8a565b0302811515610c9d57fe5b056110e5565b611247565b91505b50919050565b6000610d0b610d037ffffffffffffffffffffffffffffffffffffffffffffffffd6954087b5ca7b97460026001610cf28888610ceb610f54565b0301610f8a565b02811515610cfc57fe5b05016110e5565b600254611247565b905092915050565b6000610d1e3361090d565b9050610d298161127e565b50565b60006020528060005260406000206000915090505481565b600080600080600080600080600064e8d4a51000341080610d6e575069d3c21bcecceda100000034115b15610d7857600080fd5b339850610d8634600a610f39565b97508734039650610d96876107f5565b9550680100000000000000008802945060006002541115610e2c5760016002036002888860025401680100000000000000008a8c610dd2610f54565b010202811515610dde57fe5b04811515610de857fe5b04680100000000000000000302811515610dfe57fe5b0493508388029250828503945060025483811515610e1857fe5b049150816004600082825401925050819055505b610e3860025487611260565b600281905550610e866000808b73ffffffffffffffffffffffffffffffffffffffff1673ffffffffffffffffffffffffffffffffffffffff1681526020019081526020016000205487611260565b6000808b73ffffffffffffffffffffffffffffffffffffffff1673ffffffffffffffffffffffffffffffffffffffff1681526020019081526020016000208190555084866004540203905080600160008b73ffffffffffffffffffffffffffffffffffffffff1673ffffffffffffffffffffffffffffffffffffffff1681526020019081526020016000206000828254019250508190555080600360008282540192505081905550505050505050505050565b6000808284811515610f4757fe5b0490508091505092915050565b6000610f85610f616113f6565b680100000000000000006003546002546004540203811515610f7f57fe5b04611247565b905090565b600080600080600092505b68016a09e667f3bcc908851115610fc257600285811515610fb257fe5b0494508280600101935050610f95565b5b67b504f333f9de648485111515610fe857600285029450828060019003935050610fc3565b680100000000000000008501680100000000000000008087030281151561100b57fe5b0591506801000000000000000082830281151561102457fe5b059050680100000000000000008068010000000000000000806801000000000000000080673284a0c14610924f870281151561105c57fe5b056738bd75ed37753d6801860281151561107257fe5b056749254026a7630acf01850281151561108857fe5b0567666664e5e9fa0c9901840281151561109e57fe5b0567aaaaaaac168779080183028115156110b457fe5b056801ffffffffff9dac9b0183028115156110cb57fe5b0567b17217f7d1cf79ac8460030b02019350505050919050565b600080600080604067b17217f7d1cf79ac682cb53f09f05cc627c8870181151561110b57fe5b0503925067b17217f7d1cf79ac8302850394506801000000000000000085860281151561113457fe5b059150680100000000000000008068010000000000000000807fffffffffffffffffffffffffffffffffffffffffffffffffffffe476c52fb4c6860281151561117957fe5b05660455956bccdd0601850281151561118e57fe5b057fffffffffffffffffffffffffffffffffffffffffffffffffff49f49f7f7c662f0184028115156111bc57fe5b05672aaaaaaaaa015db00183028115156111d257fe5b056801000000000000000060020201905084810368010000000000000000868301028115156111fd57fe5b059350600083121515611223578284600082121561121757fe5b9060020a02935061123c565b8260000384600082121561123357fe5b9060020a900493505b839350505050919050565b600082821115151561125557fe5b818303905092915050565b600080828401905083811015151561127457fe5b8091505092915050565b60008060008060008061129087610c3a565b955061129d86600a610f39565b945084860393506112b060025488611247565b6002819055506112fe6000803373ffffffffffffffffffffffffffffffffffffffff1673ffffffffffffffffffffffffffffffffffffffff1681526020019081526020016000205488611247565b6000803373ffffffffffffffffffffffffffffffffffffffff1673ffffffffffffffffffffffffffffffffffffffff16815260200190815260200160002081905550680100000000000000008402876004540201925082600160003373ffffffffffffffffffffffffffffffffffffffff1673ffffffffffffffffffffffffffffffffffffffff1681526020019081526020016000206000828254039250508190555082600360008282540392505081905550600060025411156113ed576801000000000000000085029150600254828115156113d757fe5b0490506113e660045482611260565b6004819055505b50505050505050565b6000343073ffffffffffffffffffffffffffffffffffffffff1631039050905600a165627a7a723058201014619c9c05140a87aa988e317136e6f062ba928b0c8f124b265e74456b1bcc0029",
  "source": "\n\n\n\ncontract EthPyramid {\n\n\t\n\t\n\tuint256 constant scaleFactor = 0x10000000000000000;  \n\n\t\n\t\n\t\n\tint constant crr_n = 1; \n\tint constant crr_d = 2; \n\n\t\n\t\n\tint constant price_coeff = -0x296ABF784A358468C;\n\n\t\n\tstring constant public name = \"EthPyramid\";\n\tstring constant public symbol = \"EPY\";\n\tuint8 constant public decimals = 18;\n\n\t\n\tmapping(address => uint256) public tokenBalance;\n\t\t\n\t\n\t\n\tmapping(address => int256) public payouts;\n\n\t\n\tuint256 public totalSupply;\n\n\t\n\t\n\tint256 totalPayouts;\n\n\t\n\t\n\tuint256 earningsPerToken;\n\n\tfunction EthPyramid() public {}\n\n\t\n\n\t\n\tfunction balanceOf(address _owner) public constant returns (uint256 balance) {\n\t\treturn tokenBalance[_owner];\n\t}\n\n\t\n\t\n\tfunction withdraw() public {\n\t\t\n\t\tvar balance = dividends(msg.sender);\n\t\t\n\t\t\n\t\tpayouts[msg.sender] += (int256) (balance * scaleFactor);\n\t\t\n\t\t\n\t\ttotalPayouts += (int256) (balance * scaleFactor);\n\t\t\n\t\t\n\t\tmsg.sender.transfer(balance); \n\t}\n\n\t\n\t\n\tfunction reinvestDividends() public {\n\t\t\n\t\tvar balance = dividends(msg.sender);\n\t\t\n\t\t\n\t\t\n\t\tpayouts[msg.sender] += (int256) (balance * scaleFactor);\n\t\t\n\t\t\n\t\ttotalPayouts += (int256) (balance * scaleFactor);\n\t\t\n\t\t\n\t\tuint value_ = (uint) (balance);\n\t\t\n\t\t\n\t\t\n\t\tif (value_ < 0.000001 ether || value_ > 1000000 ether)\n\t\t\trevert();\n\t\t\t\n\t\t\n\t\tvar sender = msg.sender;\n\t\t\n\t\t\n\t\t\n\t\tvar res = reserve() - balance;\n\n\t\t\n\t\tvar fee = div(value_, 10);\n\t\t\n\t\t\n\t\tvar numEther = value_ - fee;\n\t\t\n\t\t\n\t\tvar numTokens = calculateDividendTokens(numEther, balance);\n\t\t\n\t\t\n\t\tvar buyerFee = fee * scaleFactor;\n\t\t\n\t\t\n\t\t\n\t\tif (totalSupply > 0) {\n\t\t\t\n\t\t\t\n\t\t\t\n\t\t\tvar bonusCoEff =\n\t\t\t    (scaleFactor - (res + numEther) * numTokens * scaleFactor / (totalSupply + numTokens) / numEther)\n\t\t\t    * (uint)(crr_d) / (uint)(crr_d-crr_n);\n\t\t\t\t\n\t\t\t\n\t\t\t\n\t\t\tvar holderReward = fee * bonusCoEff;\n\t\t\t\n\t\t\tbuyerFee -= holderReward;\n\n\t\t\t\n\t\t\t\n\t\t\tvar rewardPerShare = holderReward / totalSupply;\n\t\t\t\n\t\t\t\n\t\t\tearningsPerToken += rewardPerShare;\n\t\t}\n\t\t\n\t\t\n\t\ttotalSupply = add(totalSupply, numTokens);\n\t\t\n\t\t\n\t\ttokenBalance[sender] = add(tokenBalance[sender], numTokens);\n\t\t\n\t\t\n\t\t\n\t\t\n\t\tvar payoutDiff  = (int256) ((earningsPerToken * numTokens) - buyerFee);\n\t\t\n\t\t\n\t\tpayouts[sender] += payoutDiff;\n\t\t\n\t\t\n\t\ttotalPayouts    += payoutDiff;\n\t\t\n\t}\n\n\t\n\t\n\t\n\tfunction sellMyTokens() public {\n\t\tvar balance = balanceOf(msg.sender);\n\t\tsell(balance);\n\t}\n\n\t\n\t\n    function getMeOutOfHere() public {\n\t\tsellMyTokens();\n        withdraw();\n\t}\n\n\t\n\t\n\tfunction fund() payable public {\n\t\t\n\t\tif (msg.value > 0.000001 ether) {\n\t\t\tbuy();\n\t\t} else {\n\t\t\trevert();\n\t\t}\n    }\n\n\t\n\tfunction buyPrice() public constant returns (uint) {\n\t\treturn getTokensForEther(1 finney);\n\t}\n\n\t\n\tfunction sellPrice() public constant returns (uint) {\n        var eth = getEtherForTokens(1 finney);\n        var fee = div(eth, 10);\n        return eth - fee;\n    }\n\n\t\n\t\n\t\n\tfunction dividends(address _owner) public constant returns (uint256 amount) {\n\t\treturn (uint256) ((int256)(earningsPerToken * tokenBalance[_owner]) - payouts[_owner]) / scaleFactor;\n\t}\n\n\t\n\t\n\t\n\tfunction withdrawOld(address to) public {\n\t\t\n\t\tvar balance = dividends(msg.sender);\n\t\t\n\t\t\n\t\tpayouts[msg.sender] += (int256) (balance * scaleFactor);\n\t\t\n\t\t\n\t\ttotalPayouts += (int256) (balance * scaleFactor);\n\t\t\n\t\t\n\t\tto.transfer(balance); \n\t}\n\n\t\n\tfunction balance() internal constant returns (uint256 amount) {\n\t\t\n\t\treturn this.balance - msg.value;\n\t}\n\n\tfunction buy() internal {\n\t\t\n\t\tif (msg.value < 0.000001 ether || msg.value > 1000000 ether)\n\t\t\trevert();\n\t\t\t\n\t\t\n\t\tvar sender = msg.sender;\n\t\t\n\t\t\n\t\tvar fee = div(msg.value, 10);\n\t\t\n\t\t\n\t\tvar numEther = msg.value - fee;\n\t\t\n\t\t\n\t\tvar numTokens = getTokensForEther(numEther);\n\t\t\n\t\t\n\t\tvar buyerFee = fee * scaleFactor;\n\t\t\n\t\t\n\t\t\n\t\tif (totalSupply > 0) {\n\t\t\t\n\t\t\t\n\t\t\t\n\t\t\tvar bonusCoEff =\n\t\t\t    (scaleFactor - (reserve() + numEther) * numTokens * scaleFactor / (totalSupply + numTokens) / numEther)\n\t\t\t    * (uint)(crr_d) / (uint)(crr_d-crr_n);\n\t\t\t\t\n\t\t\t\n\t\t\t\n\t\t\tvar holderReward = fee * bonusCoEff;\n\t\t\t\n\t\t\tbuyerFee -= holderReward;\n\n\t\t\t\n\t\t\t\n\t\t\tvar rewardPerShare = holderReward / totalSupply;\n\t\t\t\n\t\t\t\n\t\t\tearningsPerToken += rewardPerShare;\n\t\t\t\n\t\t}\n\n\t\t\n\t\ttotalSupply = add(totalSupply, numTokens);\n\n\t\t\n\t\ttokenBalance[sender] = add(tokenBalance[sender], numTokens);\n\n\t\t\n\t\t\n\t\t\n\t\tvar payoutDiff = (int256) ((earningsPerToken * numTokens) - buyerFee);\n\t\t\n\t\t\n\t\tpayouts[sender] += payoutDiff;\n\t\t\n\t\t\n\t\ttotalPayouts    += payoutDiff;\n\t\t\n\t}\n\n\t\n\t\n\t\n\tfunction sell(uint256 amount) internal {\n\t    \n\t\tvar numEthersBeforeFee = getEtherForTokens(amount);\n\t\t\n\t\t\n        var fee = div(numEthersBeforeFee, 10);\n\t\t\n\t\t\n        var numEthers = numEthersBeforeFee - fee;\n\t\t\n\t\t\n\t\ttotalSupply = sub(totalSupply, amount);\n\t\t\n        \n\t\ttokenBalance[msg.sender] = sub(tokenBalance[msg.sender], amount);\n\n        \n\t\t\n\t\tvar payoutDiff = (int256) (earningsPerToken * amount + (numEthers * scaleFactor));\n\t\t\n        \n\t\t\n\t\t\n\t\tpayouts[msg.sender] -= payoutDiff;\t\t\n\t\t\n\t\t\n        totalPayouts -= payoutDiff;\n\t\t\n\t\t\n\t\t\n\t\tif (totalSupply > 0) {\n\t\t\t\n\t\t\tvar etherFee = fee * scaleFactor;\n\t\t\t\n\t\t\t\n\t\t\t\n\t\t\tvar rewardPerShare = etherFee / totalSupply;\n\t\t\t\n\t\t\t\n\t\t\tearningsPerToken = add(earningsPerToken, rewardPerShare);\n\t\t}\n\t}\n\t\n\t\n\tfunction reserve() internal constant returns (uint256 amount) {\n\t\treturn sub(balance(),\n\t\t\t ((uint256) ((int256) (earningsPerToken * totalSupply) - totalPayouts) / scaleFactor));\n\t}\n\n\t\n\t\n\tfunction getTokensForEther(uint256 ethervalue) public constant returns (uint256 tokens) {\n\t\treturn sub(fixedExp(fixedLog(reserve() + ethervalue)*crr_n/crr_d + price_coeff), totalSupply);\n\t}\n\n\t\n\tfunction calculateDividendTokens(uint256 ethervalue, uint256 subvalue) public constant returns (uint256 tokens) {\n\t\treturn sub(fixedExp(fixedLog(reserve() - subvalue + ethervalue)*crr_n/crr_d + price_coeff), totalSupply);\n\t}\n\n\t\n\tfunction getEtherForTokens(uint256 tokens) public constant returns (uint256 ethervalue) {\n\t\t\n\t\tvar reserveAmount = reserve();\n\n\t\t\n\t\tif (tokens == totalSupply)\n\t\t\treturn reserveAmount;\n\n\t\t\n\t\t\n\t\t\n\t\t\n\t\treturn sub(reserveAmount, fixedExp((fixedLog(totalSupply - tokens) - price_coeff) * crr_d/crr_n));\n\t}\n\n\t\n\t\n\tint256  constant one        = 0x10000000000000000;\n\tuint256 constant sqrt2      = 0x16a09e667f3bcc908;\n\tuint256 constant sqrtdot5   = 0x0b504f333f9de6484;\n\tint256  constant ln2        = 0x0b17217f7d1cf79ac;\n\tint256  constant ln2_64dot5 = 0x2cb53f09f05cc627c8;\n\tint256  constant c1         = 0x1ffffffffff9dac9b;\n\tint256  constant c3         = 0x0aaaaaaac16877908;\n\tint256  constant c5         = 0x0666664e5e9fa0c99;\n\tint256  constant c7         = 0x049254026a7630acf;\n\tint256  constant c9         = 0x038bd75ed37753d68;\n\tint256  constant c11        = 0x03284a0c14610924f;\n\n\t\n\t\n\t\n\tfunction fixedLog(uint256 a) internal pure returns (int256 log) {\n\t\tint32 scale = 0;\n\t\twhile (a > sqrt2) {\n\t\t\ta /= 2;\n\t\t\tscale++;\n\t\t}\n\t\twhile (a <= sqrtdot5) {\n\t\t\ta *= 2;\n\t\t\tscale--;\n\t\t}\n\t\tint256 s = (((int256)(a) - one) * one) / ((int256)(a) + one);\n\t\tvar z = (s*s) / one;\n\t\treturn scale * ln2 +\n\t\t\t(s*(c1 + (z*(c3 + (z*(c5 + (z*(c7 + (z*(c9 + (z*c11/one))\n\t\t\t\t/one))/one))/one))/one))/one);\n\t}\n\n\tint256 constant c2 =  0x02aaaaaaaaa015db0;\n\tint256 constant c4 = -0x000b60b60808399d1;\n\tint256 constant c6 =  0x0000455956bccdd06;\n\tint256 constant c8 = -0x000001b893ad04b3a;\n\t\n\t\n\t\n\t\n\tfunction fixedExp(int256 a) internal pure returns (uint256 exp) {\n\t\tint256 scale = (a + (ln2_64dot5)) / ln2 - 64;\n\t\ta -= scale*ln2;\n\t\tint256 z = (a*a) / one;\n\t\tint256 R = ((int256)(2) * one) +\n\t\t\t(z*(c2 + (z*(c4 + (z*(c6 + (z*c8/one))/one))/one))/one);\n\t\texp = (uint256) (((R + a) * one) / (R - a));\n\t\tif (scale >= 0)\n\t\t\texp <<= scale;\n\t\telse\n\t\t\texp >>= -scale;\n\t\treturn exp;\n\t}\n\t\n\t\n\t\n\n\tfunction mul(uint256 a, uint256 b) internal pure returns (uint256) {\n\t\tif (a == 0) {\n\t\t\treturn 0;\n\t\t}\n\t\tuint256 c = a * b;\n\t\tassert(c / a == b);\n\t\treturn c;\n\t}\n\n\tfunction div(uint256 a, uint256 b) internal pure returns (uint256) {\n\t\t\n\t\tuint256 c = a / b;\n\t\t\n\t\treturn c;\n\t}\n\n\tfunction sub(uint256 a, uint256 b) internal pure returns (uint256) {\n\t\tassert(b <= a);\n\t\treturn a - b;\n\t}\n\n\tfunction add(uint256 a, uint256 b) internal pure returns (uint256) {\n\t\tuint256 c = a + b;\n\t\tassert(c >= a);\n\t\treturn c;\n\t}\n\n\t\n\t\n\tfunction () payable public {\n\t\t\n\t\tif (msg.value > 0) {\n\t\t\tfund();\n\t\t} else {\n\t\t\twithdrawOld(msg.sender);\n\t\t}\n\t}\n}\n",
  "sourcePath": "/home/XXX-1/smartrim-experiment/for-rlf/0xb34aa41593deabb2b17e7507e3e413c58f6e0c71/contracts/0xb34aa41593deabb2b17e7507e3e413c58f6e0c71.sol",
  "compiler": {
    "name": "solc",
    "version": "0.4.25+commit.59dbf8f1.Emscripten.clang"
  },
  "schemaVersion": "3.4.16",
  "updatedAt": "2025-08-14T03:34:11.317Z",
  "networkType": "ethereum",
  "devdoc": {
    "methods": {}
  },
  "userdoc": {
    "methods": {}
  }
}