{
  "contractName": "CollectibleToken",
  "abi": [
    {
      "constant": true,
      "inputs": [],
      "name": "promoCreatedCount",
      "outputs": [
        {
          "name": "",
          "type": "uint256"
        }
      ],
      "payable": false,
      "stateMutability": "view",
      "type": "function"
    },
    {
      "constant": true,
      "inputs": [],
      "name": "ceoAddress",
      "outputs": [
        {
          "name": "",
          "type": "address"
        }
      ],
      "payable": false,
      "stateMutability": "view",
      "type": "function"
    },
    {
      "constant": true,
      "inputs": [],
      "name": "totalSupply",
      "outputs": [
        {
          "name": "",
          "type": "uint256"
        }
      ],
      "payable": false,
      "stateMutability": "view",
      "type": "function"
    },
    {
      "constant": true,
      "inputs": [
        {
          "name": "",
          "type": "uint256"
        }
      ],
      "name": "personIndexToApproved",
      "outputs": [
        {
          "name": "",
          "type": "address"
        }
      ],
      "payable": false,
      "stateMutability": "view",
      "type": "function"
    },
    {
      "constant": true,
      "inputs": [],
      "name": "NAME",
      "outputs": [
        {
          "name": "",
          "type": "string"
        }
      ],
      "payable": false,
      "stateMutability": "view",
      "type": "function"
    },
    {
      "constant": true,
      "inputs": [
        {
          "name": "",
          "type": "uint256"
        }
      ],
      "name": "personIndexToOwner",
      "outputs": [
        {
          "name": "",
          "type": "address"
        }
      ],
      "payable": false,
      "stateMutability": "view",
      "type": "function"
    },
    {
      "constant": true,
      "inputs": [],
      "name": "cooAddress",
      "outputs": [
        {
          "name": "",
          "type": "address"
        }
      ],
      "payable": false,
      "stateMutability": "view",
      "type": "function"
    },
    {
      "constant": true,
      "inputs": [],
      "name": "SYMBOL",
      "outputs": [
        {
          "name": "",
          "type": "string"
        }
      ],
      "payable": false,
      "stateMutability": "view",
      "type": "function"
    },
    {
      "inputs": [],
      "payable": false,
      "stateMutability": "nonpayable",
      "type": "constructor"
    },
    {
      "anonymous": false,
      "inputs": [
        {
          "indexed": false,
          "name": "tokenId",
          "type": "uint256"
        },
        {
          "indexed": false,
          "name": "startPrice",
          "type": "uint256"
        },
        {
          "indexed": false,
          "name": "totalSupply",
          "type": "uint256"
        }
      ],
      "name": "Birth",
      "type": "event"
    },
    {
      "anonymous": false,
      "inputs": [
        {
          "indexed": false,
          "name": "tokenId",
          "type": "uint256"
        },
        {
          "indexed": false,
          "name": "oldPrice",
          "type": "uint256"
        },
        {
          "indexed": false,
          "name": "newPrice",
          "type": "uint256"
        },
        {
          "indexed": false,
          "name": "prevOwner",
          "type": "address"
        },
        {
          "indexed": false,
          "name": "winner",
          "type": "address"
        }
      ],
      "name": "TokenSold",
      "type": "event"
    },
    {
      "anonymous": false,
      "inputs": [
        {
          "indexed": false,
          "name": "from",
          "type": "address"
        },
        {
          "indexed": false,
          "name": "to",
          "type": "address"
        },
        {
          "indexed": false,
          "name": "tokenId",
          "type": "uint256"
        }
      ],
      "name": "Transfer",
      "type": "event"
    },
    {
      "anonymous": false,
      "inputs": [
        {
          "indexed": true,
          "name": "owner",
          "type": "address"
        },
        {
          "indexed": true,
          "name": "approved",
          "type": "address"
        },
        {
          "indexed": false,
          "name": "tokenId",
          "type": "uint256"
        }
      ],
      "name": "Approval",
      "type": "event"
    },
    {
      "constant": false,
      "inputs": [
        {
          "name": "_to",
          "type": "address"
        },
        {
          "name": "_tokenId",
          "type": "uint256"
        }
      ],
      "name": "approve",
      "outputs": [],
      "payable": false,
      "stateMutability": "nonpayable",
      "type": "function"
    },
    {
      "constant": true,
      "inputs": [
        {
          "name": "_owner",
          "type": "address"
        }
      ],
      "name": "balanceOf",
      "outputs": [
        {
          "name": "balance",
          "type": "uint256"
        }
      ],
      "payable": false,
      "stateMutability": "view",
      "type": "function"
    },
    {
      "constant": false,
      "inputs": [
        {
          "name": "tokenId",
          "type": "uint256"
        },
        {
          "name": "_owner",
          "type": "address"
        },
        {
          "name": "_price",
          "type": "uint256"
        }
      ],
      "name": "createPromoPerson",
      "outputs": [],
      "payable": false,
      "stateMutability": "nonpayable",
      "type": "function"
    },
    {
      "constant": true,
      "inputs": [
        {
          "name": "_tokenId",
          "type": "uint256"
        }
      ],
      "name": "getPerson",
      "outputs": [
        {
          "name": "tokenId",
          "type": "uint256"
        },
        {
          "name": "sellingPrice",
          "type": "uint256"
        },
        {
          "name": "owner",
          "type": "address"
        },
        {
          "name": "nextSellingPrice",
          "type": "uint256"
        }
      ],
      "payable": false,
      "stateMutability": "view",
      "type": "function"
    },
    {
      "constant": true,
      "inputs": [],
      "name": "implementsERC721",
      "outputs": [
        {
          "name": "",
          "type": "bool"
        }
      ],
      "payable": false,
      "stateMutability": "pure",
      "type": "function"
    },
    {
      "constant": true,
      "inputs": [],
      "name": "name",
      "outputs": [
        {
          "name": "",
          "type": "string"
        }
      ],
      "payable": false,
      "stateMutability": "pure",
      "type": "function"
    },
    {
      "constant": true,
      "inputs": [
        {
          "name": "_tokenId",
          "type": "uint256"
        }
      ],
      "name": "ownerOf",
      "outputs": [
        {
          "name": "owner",
          "type": "address"
        }
      ],
      "payable": false,
      "stateMutability": "view",
      "type": "function"
    },
    {
      "constant": false,
      "inputs": [
        {
          "name": "_to",
          "type": "address"
        }
      ],
      "name": "payout",
      "outputs": [],
      "payable": false,
      "stateMutability": "nonpayable",
      "type": "function"
    },
    {
      "constant": false,
      "inputs": [
        {
          "name": "_tokenId",
          "type": "uint256"
        }
      ],
      "name": "purchase",
      "outputs": [],
      "payable": true,
      "stateMutability": "payable",
      "type": "function"
    },
    {
      "constant": true,
      "inputs": [
        {
          "name": "_tokenId",
          "type": "uint256"
        }
      ],
      "name": "priceOf",
      "outputs": [
        {
          "name": "price",
          "type": "uint256"
        }
      ],
      "payable": false,
      "stateMutability": "view",
      "type": "function"
    },
    {
      "constant": false,
      "inputs": [
        {
          "name": "_newCEO",
          "type": "address"
        }
      ],
      "name": "setCEO",
      "outputs": [],
      "payable": false,
      "stateMutability": "nonpayable",
      "type": "function"
    },
    {
      "constant": false,
      "inputs": [
        {
          "name": "_newCOO",
          "type": "address"
        }
      ],
      "name": "setCOO",
      "outputs": [],
      "payable": false,
      "stateMutability": "nonpayable",
      "type": "function"
    },
    {
      "constant": true,
      "inputs": [],
      "name": "symbol",
      "outputs": [
        {
          "name": "",
          "type": "string"
        }
      ],
      "payable": false,
      "stateMutability": "pure",
      "type": "function"
    },
    {
      "constant": false,
      "inputs": [
        {
          "name": "_tokenId",
          "type": "uint256"
        }
      ],
      "name": "takeOwnership",
      "outputs": [],
      "payable": false,
      "stateMutability": "nonpayable",
      "type": "function"
    },
    {
      "constant": false,
      "inputs": [
        {
          "name": "_to",
          "type": "address"
        },
        {
          "name": "_tokenId",
          "type": "uint256"
        }
      ],
      "name": "transfer",
      "outputs": [],
      "payable": false,
      "stateMutability": "nonpayable",
      "type": "function"
    },
    {
      "constant": false,
      "inputs": [
        {
          "name": "_from",
          "type": "address"
        },
        {
          "name": "_to",
          "type": "address"
        },
        {
          "name": "_tokenId",
          "type": "uint256"
        }
      ],
      "name": "transferFrom",
      "outputs": [],
      "payable": false,
      "stateMutability": "nonpayable",
      "type": "function"
    }
  ],
  "bytecode": "0x608060405266038d7ea4c6800060015566be78bd4c57d0006002556707d72165f25ed00060035534801561003257600080fd5b5033600860006101000a81548173ffffffffffffffffffffffffffffffffffffffff021916908373ffffffffffffffffffffffffffffffffffffffff16021790555033600960006101000a81548173ffffffffffffffffffffffffffffffffffffffff021916908373ffffffffffffffffffffffffffffffffffffffff160217905550611b25806100c46000396000f30060806040526004361061013e576000357c0100000000000000000000000000000000000000000000000000000000900463ffffffff16806305e455461461014357806306fdde031461016e578063095ea7b3146101fe5780630a0f81681461024b5780630b7e9c44146102a25780631051db34146102e557806318160ddd1461031457806323b872dd1461033f578063246982c4146103ac57806327d7874c1461042e5780632ba73c15146104715780633296a373146104b45780636352211e1461050b57806370a08231146105785780639433a81e146105cf57806395d89b411461063c578063a3f4df7e146106cc578063a9059cbb1461075c578063aa1d98af146107a9578063b047fb5014610816578063b2e6ceeb1461086d578063b9186d7d1461089a578063efef39a1146108db578063f76f8d78146108fb575b600080fd5b34801561014f57600080fd5b5061015861098b565b6040518082815260200191505060405180910390f35b34801561017a57600080fd5b50610183610991565b6040518080602001828103825283818151815260200191508051906020019080838360005b838110156101c35780820151818401526020810190506101a8565b50505050905090810190601f1680156101f05780820380516001836020036101000a031916815260200191505b509250505060405180910390f35b34801561020a57600080fd5b50610249600480360381019080803573ffffffffffffffffffffffffffffffffffffffff169060200190929190803590602001909291905050506109ce565b005b34801561025757600080fd5b50610260610a9e565b604051808273ffffffffffffffffffffffffffffffffffffffff1673ffffffffffffffffffffffffffffffffffffffff16815260200191505060405180910390f35b3480156102ae57600080fd5b506102e3600480360381019080803573ffffffffffffffffffffffffffffffffffffffff169060200190929190505050610ac4565b005b3480156102f157600080fd5b506102fa610b84565b604051808215151515815260200191505060405180910390f35b34801561032057600080fd5b50610329610b8d565b6040518082815260200191505060405180910390f35b34801561034b57600080fd5b506103aa600480360381019080803573ffffffffffffffffffffffffffffffffffffffff169060200190929190803573ffffffffffffffffffffffffffffffffffffffff16906020019092919080359060200190929190505050610b93565b005b3480156103b857600080fd5b506103d760048036038101908080359060200190929190505050610be1565b604051808581526020018481526020018373ffffffffffffffffffffffffffffffffffffffff1673ffffffffffffffffffffffffffffffffffffffff16815260200182815260200194505050505060405180910390f35b34801561043a57600080fd5b5061046f600480360381019080803573ffffffffffffffffffffffffffffffffffffffff169060200190929190505050610cb1565b005b34801561047d57600080fd5b506104b2600480360381019080803573ffffffffffffffffffffffffffffffffffffffff169060200190929190505050610d8d565b005b3480156104c057600080fd5b5061050960048036038101908080359060200190929190803573ffffffffffffffffffffffffffffffffffffffff16906020019092919080359060200190929190505050610e69565b005b34801561051757600080fd5b5061053660048036038101908080359060200190929190505050610fe3565b604051808273ffffffffffffffffffffffffffffffffffffffff1673ffffffffffffffffffffffffffffffffffffffff16815260200191505060405180910390f35b34801561058457600080fd5b506105b9600480360381019080803573ffffffffffffffffffffffffffffffffffffffff16906020019092919050505061105c565b6040518082815260200191505060405180910390f35b3480156105db57600080fd5b506105fa600480360381019080803590602001909291905050506110a5565b604051808273ffffffffffffffffffffffffffffffffffffffff1673ffffffffffffffffffffffffffffffffffffffff16815260200191505060405180910390f35b34801561064857600080fd5b506106516110d8565b6040518080602001828103825283818151815260200191508051906020019080838360005b83811015610691578082015181840152602081019050610676565b50505050905090810190601f1680156106be5780820380516001836020036101000a031916815260200191505b509250505060405180910390f35b3480156106d857600080fd5b506106e1611115565b6040518080602001828103825283818151815260200191508051906020019080838360005b83811015610721578082015181840152602081019050610706565b50505050905090810190601f16801561074e5780820380516001836020036101000a031916815260200191505b509250505060405180910390f35b34801561076857600080fd5b506107a7600480360381019080803573ffffffffffffffffffffffffffffffffffffffff1690602001909291908035906020019092919050505061114e565b005b3480156107b557600080fd5b506107d460048036038101908080359060200190929190505050611186565b604051808273ffffffffffffffffffffffffffffffffffffffff1673ffffffffffffffffffffffffffffffffffffffff16815260200191505060405180910390f35b34801561082257600080fd5b5061082b6111b9565b604051808273ffffffffffffffffffffffffffffffffffffffff1673ffffffffffffffffffffffffffffffffffffffff16815260200191505060405180910390f35b34801561087957600080fd5b50610898600480360381019080803590602001909291905050506111df565b005b3480156108a657600080fd5b506108c560048036038101908080359060200190929190505050611254565b6040518082815260200191505060405180910390f35b6108f960048036038101908080359060200190929190505050611280565b005b34801561090757600080fd5b506109106115ac565b6040518080602001828103825283818151815260200191508051906020019080838360005b83811015610950578082015181840152602081019050610935565b50505050905090810190601f16801561097d5780820380516001836020036101000a031916815260200191505b509250505060405180910390f35b600a5481565b60606040805190810160405280601481526020017f706f726e73746172732d796f75436f6c6c656374000000000000000000000000815250905090565b6109d833826115e5565b15156109e357600080fd5b816006600083815260200190815260200160002060006101000a81548173ffffffffffffffffffffffffffffffffffffffff021916908373ffffffffffffffffffffffffffffffffffffffff1602179055508173ffffffffffffffffffffffffffffffffffffffff163373ffffffffffffffffffffffffffffffffffffffff167f8c5be1e5ebec7d5bd14f71427d1e84f3dd0314c0f7b2291e5b200ac8c7c3b925836040518082815260200191505060405180910390a35050565b600860009054906101000a900473ffffffffffffffffffffffffffffffffffffffff1681565b600860009054906101000a900473ffffffffffffffffffffffffffffffffffffffff1673ffffffffffffffffffffffffffffffffffffffff163373ffffffffffffffffffffffffffffffffffffffff161480610b6d5750600960009054906101000a900473ffffffffffffffffffffffffffffffffffffffff1673ffffffffffffffffffffffffffffffffffffffff163373ffffffffffffffffffffffffffffffffffffffff16145b1515610b7857600080fd5b610b8181611651565b50565b60006001905090565b60005481565b610b9d83826115e5565b1515610ba857600080fd5b610bb2828261176d565b1515610bbd57600080fd5b610bc6826117d9565b1515610bd157600080fd5b610bdc838383611812565b505050565b600080600080849350600760008681526020019081526020016000205492506004600086815260200190815260200160002060009054906101000a900473ffffffffffffffffffffffffffffffffffffffff1691506000831415610c455760015492505b600254831015610c6b57610c64610c5d8460c8611a14565b605e611a4f565b9050610caa565b600354831015610c9157610c8a610c83846078611a14565b605e611a4f565b9050610ca9565b610ca6610c9f846073611a14565b605e611a4f565b90505b5b9193509193565b600860009054906101000a900473ffffffffffffffffffffffffffffffffffffffff1673ffffffffffffffffffffffffffffffffffffffff163373ffffffffffffffffffffffffffffffffffffffff16141515610d0d57600080fd5b600073ffffffffffffffffffffffffffffffffffffffff168173ffffffffffffffffffffffffffffffffffffffff1614151515610d4957600080fd5b80600860006101000a81548173ffffffffffffffffffffffffffffffffffffffff021916908373ffffffffffffffffffffffffffffffffffffffff16021790555050565b600860009054906101000a900473ffffffffffffffffffffffffffffffffffffffff1673ffffffffffffffffffffffffffffffffffffffff163373ffffffffffffffffffffffffffffffffffffffff16141515610de957600080fd5b600073ffffffffffffffffffffffffffffffffffffffff168173ffffffffffffffffffffffffffffffffffffffff1614151515610e2557600080fd5b80600960006101000a81548173ffffffffffffffffffffffffffffffffffffffff021916908373ffffffffffffffffffffffffffffffffffffffff16021790555050565b6000600960009054906101000a900473ffffffffffffffffffffffffffffffffffffffff1673ffffffffffffffffffffffffffffffffffffffff163373ffffffffffffffffffffffffffffffffffffffff16141515610ec757600080fd5b600073ffffffffffffffffffffffffffffffffffffffff166004600086815260200190815260200160002060009054906101000a900473ffffffffffffffffffffffffffffffffffffffff1673ffffffffffffffffffffffffffffffffffffffff16141515610f3557600080fd5b611388600a54101515610f4757600080fd5b829050600073ffffffffffffffffffffffffffffffffffffffff168173ffffffffffffffffffffffffffffffffffffffff161415610fa557600960009054906101000a900473ffffffffffffffffffffffffffffffffffffffff1690505b600082111515610fb55760015491505b600a60008154809291906001019190505550610fd18483611a6a565b610fdd60008286611812565b50505050565b60006004600083815260200190815260200160002060009054906101000a900473ffffffffffffffffffffffffffffffffffffffff169050600073ffffffffffffffffffffffffffffffffffffffff168173ffffffffffffffffffffffffffffffffffffffff161415151561105757600080fd5b919050565b6000600560008373ffffffffffffffffffffffffffffffffffffffff1673ffffffffffffffffffffffffffffffffffffffff168152602001908152602001600020549050919050565b60066020528060005260406000206000915054906101000a900473ffffffffffffffffffffffffffffffffffffffff1681565b60606040805190810160405280600381526020017f5059430000000000000000000000000000000000000000000000000000000000815250905090565b6040805190810160405280601481526020017f706f726e73746172732d796f75436f6c6c65637400000000000000000000000081525081565b61115833826115e5565b151561116357600080fd5b61116c826117d9565b151561117757600080fd5b611182338383611812565b5050565b60046020528060005260406000206000915054906101000a900473ffffffffffffffffffffffffffffffffffffffff1681565b600960009054906101000a900473ffffffffffffffffffffffffffffffffffffffff1681565b6000803391506004600084815260200190815260200160002060009054906101000a900473ffffffffffffffffffffffffffffffffffffffff169050611224826117d9565b151561122f57600080fd5b611239828461176d565b151561124457600080fd5b61124f818385611812565b505050565b600060076000838152602001908152602001600020549050600081141561127b5760015490505b919050565b60008060008060006004600087815260200190815260200160002060009054906101000a900473ffffffffffffffffffffffffffffffffffffffff1694503393506007600087815260200190815260200160002054925060008314156112f05760015492506112ef8684611a6a565b5b6112f9846117d9565b151561130457600080fd5b82341015151561131357600080fd5b61132861132184605e611a14565b6064611a4f565b91506113343484611ae0565b90506002548310156113715761135561134e8460c8611a14565b605e611a4f565b60076000888152602001908152602001600020819055506113da565b6003548310156113ac57611390611389846078611a14565b605e611a4f565b60076000888152602001908152602001600020819055506113d9565b6113c16113ba846073611a14565b605e611a4f565b60076000888152602001908152602001600020819055505b5b6113e5858588611812565b3073ffffffffffffffffffffffffffffffffffffffff168573ffffffffffffffffffffffffffffffffffffffff161415801561144e5750600073ffffffffffffffffffffffffffffffffffffffff168573ffffffffffffffffffffffffffffffffffffffff1614155b1561149b578473ffffffffffffffffffffffffffffffffffffffff166108fc839081150290604051600060405180830381858888f19350505050158015611499573d6000803e3d6000fd5b505b7f366e81d6675b75f581d1b7b428bc717efb1fa8b4bb542c1d26e15a1bc770baad8684600760008a8152602001908152602001600020548888604051808681526020018581526020018481526020018373ffffffffffffffffffffffffffffffffffffffff1673ffffffffffffffffffffffffffffffffffffffff1681526020018273ffffffffffffffffffffffffffffffffffffffff1673ffffffffffffffffffffffffffffffffffffffff1681526020019550505050505060405180910390a13373ffffffffffffffffffffffffffffffffffffffff166108fc829081150290604051600060405180830381858888f193505050501580156115a3573d6000803e3d6000fd5b50505050505050565b6040805190810160405280600381526020017f505943000000000000000000000000000000000000000000000000000000000081525081565b60006004600083815260200190815260200160002060009054906101000a900473ffffffffffffffffffffffffffffffffffffffff1673ffffffffffffffffffffffffffffffffffffffff168373ffffffffffffffffffffffffffffffffffffffff1614905092915050565b600073ffffffffffffffffffffffffffffffffffffffff168173ffffffffffffffffffffffffffffffffffffffff16141561170b57600860009054906101000a900473ffffffffffffffffffffffffffffffffffffffff1673ffffffffffffffffffffffffffffffffffffffff166108fc3073ffffffffffffffffffffffffffffffffffffffff16319081150290604051600060405180830381858888f19350505050158015611705573d6000803e3d6000fd5b5061176a565b8073ffffffffffffffffffffffffffffffffffffffff166108fc3073ffffffffffffffffffffffffffffffffffffffff16319081150290604051600060405180830381858888f19350505050158015611768573d6000803e3d6000fd5b505b50565b60008273ffffffffffffffffffffffffffffffffffffffff166006600084815260200190815260200160002060009054906101000a900473ffffffffffffffffffffffffffffffffffffffff1673ffffffffffffffffffffffffffffffffffffffff1614905092915050565b60008073ffffffffffffffffffffffffffffffffffffffff168273ffffffffffffffffffffffffffffffffffffffff1614159050919050565b600560008373ffffffffffffffffffffffffffffffffffffffff1673ffffffffffffffffffffffffffffffffffffffff16815260200190815260200160002060008154809291906001019190505550816004600083815260200190815260200160002060006101000a81548173ffffffffffffffffffffffffffffffffffffffff021916908373ffffffffffffffffffffffffffffffffffffffff160217905550600073ffffffffffffffffffffffffffffffffffffffff168373ffffffffffffffffffffffffffffffffffffffff1614151561197057600560008473ffffffffffffffffffffffffffffffffffffffff1673ffffffffffffffffffffffffffffffffffffffff16815260200190815260200160002060008154809291906001900391905055506006600082815260200190815260200160002060006101000a81549073ffffffffffffffffffffffffffffffffffffffff02191690555b7fddf252ad1be2c89b69c2b068fc378daa952ba7f163c4a11628f55a4df523b3ef838383604051808473ffffffffffffffffffffffffffffffffffffffff1673ffffffffffffffffffffffffffffffffffffffff1681526020018373ffffffffffffffffffffffffffffffffffffffff1673ffffffffffffffffffffffffffffffffffffffff168152602001828152602001935050505060405180910390a1505050565b6000806000841415611a295760009150611a48565b8284029050828482811515611a3a57fe5b04141515611a4457fe5b8091505b5092915050565b6000808284811515611a5d57fe5b0490508091505092915050565b80600760008481526020019081526020016000208190555060008081548092919060010191905055507fc5c93bdc0a92eb4fbe5d30c377b9286863856753b05e657e464e936afad9e0ef828260005460405180848152602001838152602001828152602001935050505060405180910390a15050565b6000828211151515611aee57fe5b8183039050929150505600a165627a7a7230582041efba8dd39e90b3dc97dc34ec984c4be1992d611d6aad69318d1c069243a8900029",
  "source": " \n\n\n\n\ncontract ERC721 {\n  \n  function approve(address _to, uint256 _tokenId) public;\n  function balanceOf(address _owner) public view returns (uint256 balance);\n  function implementsERC721() public pure returns (bool);\n  function ownerOf(uint256 _tokenId) public view returns (address addr);\n  function takeOwnership(uint256 _tokenId) public;\n  function transferFrom(address _from, address _to, uint256 _tokenId) public;\n  function transfer(address _to, uint256 _tokenId) public;\n  uint256 public totalSupply;\n\n  event Transfer(address indexed from, address indexed to, uint256 tokenId);\n  event Approval(address indexed owner, address indexed approved, uint256 tokenId);\n\n  \n  \n  \n  \n  \n}\n\n\ncontract CollectibleToken is ERC721 {\n\n  \n\n  \n  event Birth(uint256 tokenId, uint256 startPrice, uint256 totalSupply);\n\n  \n  event TokenSold(uint256 tokenId, uint256 oldPrice, uint256 newPrice, address prevOwner, address winner);\n\n  \n  \n  event Transfer(address from, address to, uint256 tokenId);\n\n  \n\n  \n  string public constant NAME = \"pornstars-youCollect\"; \n  string public constant SYMBOL = \"PYC\"; \n  uint256 private startingPrice = 0.001 ether;\n  uint256 private constant PROMO_CREATION_LIMIT = 5000;\n  uint256 private firstStepLimit =  0.053613 ether;\n  uint256 private secondStepLimit = 0.564957 ether;\n\n\n  \n\n  \n  \n  mapping (uint256 => address) public personIndexToOwner;\n\n  \n  \n  mapping (address => uint256) private ownershipTokenCount;\n\n  \n  \n  \n  mapping (uint256 => address) public personIndexToApproved;\n\n  \n  mapping (uint256 => uint256) private personIndexToPrice;\n\n  \n  address public ceoAddress;\n  address public cooAddress;\n\n  uint256 public promoCreatedCount;\n\n  \n  \n  modifier onlyCEO() {\n    require(msg.sender == ceoAddress);\n    _;\n  }\n\n  \n  modifier onlyCOO() {\n    require(msg.sender == cooAddress);\n    _;\n  }\n\n  \n  modifier onlyCLevel() {\n    require(\n      msg.sender == ceoAddress ||\n      msg.sender == cooAddress\n    );\n    _;\n  }\n\n  \n  function CollectibleToken() public {\n    ceoAddress = msg.sender;\n    cooAddress = msg.sender;\n  }\n\n  \n  \n  \n  \n  \n  \n  function approve(\n    address _to,\n    uint256 _tokenId\n  ) public {\n    \n    require(_owns(msg.sender, _tokenId));\n\n    personIndexToApproved[_tokenId] = _to;\n\n    Approval(msg.sender, _to, _tokenId);\n  }\n\n  \n  \n  \n  function balanceOf(address _owner) public view returns (uint256 balance) {\n    return ownershipTokenCount[_owner];\n  }\n\n  \n  function createPromoPerson(uint256 tokenId, address _owner, uint256 _price) public onlyCOO {\n    require(personIndexToOwner[tokenId]==address(0));\n    require(promoCreatedCount < PROMO_CREATION_LIMIT);\n\n    address personOwner = _owner;\n    if (personOwner == address(0)) {\n      personOwner = cooAddress;\n    }\n\n    if (_price <= 0) {\n      _price = startingPrice;\n    }\n\n    promoCreatedCount++;\n    _createPerson(tokenId, _price);\n    \n    \n    _transfer(address(0), personOwner, tokenId);\n\n  }\n\n  \n  \n  function getPerson(uint256 _tokenId) public view returns (uint256 tokenId,\n    uint256 sellingPrice,\n    address owner,\n    uint256 nextSellingPrice\n  ) {\n    tokenId = _tokenId;\n    sellingPrice = personIndexToPrice[_tokenId];\n    owner = personIndexToOwner[_tokenId];\n\n    if (sellingPrice == 0)\n      sellingPrice = startingPrice;\n    if (sellingPrice < firstStepLimit) {\n      nextSellingPrice = SafeMath.div(SafeMath.mul(sellingPrice, 200), 94);\n    } else if (sellingPrice < secondStepLimit) {\n      nextSellingPrice = SafeMath.div(SafeMath.mul(sellingPrice, 120), 94);\n    } else {\n      nextSellingPrice = SafeMath.div(SafeMath.mul(sellingPrice, 115), 94);\n    }\n  }\n\n  function implementsERC721() public pure returns (bool) {\n    return true;\n  }\n\n  \n  function name() public pure returns (string) {\n    return NAME;\n  }\n\n  \n  \n  \n  function ownerOf(uint256 _tokenId)\n    public\n    view\n    returns (address owner)\n  {\n    owner = personIndexToOwner[_tokenId];\n    require(owner != address(0));\n  }\n\n  function payout(address _to) public onlyCLevel {\n    _payout(_to);\n  }\n\n  \n  function purchase(uint256 _tokenId) public payable {\n    address oldOwner = personIndexToOwner[_tokenId];\n    address newOwner = msg.sender;\n\n    uint256 sellingPrice = personIndexToPrice[_tokenId];\n    if (sellingPrice == 0) {\n      sellingPrice = startingPrice;\n      _createPerson(_tokenId, sellingPrice);\n    }\n\n    \n    require(_addressNotNull(newOwner));\n\n    \n    require(msg.value >= sellingPrice);\n\n    uint256 payment = uint256(SafeMath.div(SafeMath.mul(sellingPrice, 94), 100));\n    uint256 purchaseExcess = SafeMath.sub(msg.value, sellingPrice);\n\n    \n    if (sellingPrice < firstStepLimit) {\n      \n      personIndexToPrice[_tokenId] = SafeMath.div(SafeMath.mul(sellingPrice, 200), 94);\n    } else if (sellingPrice < secondStepLimit) {\n      \n      personIndexToPrice[_tokenId] = SafeMath.div(SafeMath.mul(sellingPrice, 120), 94);\n    } else {\n      \n      personIndexToPrice[_tokenId] = SafeMath.div(SafeMath.mul(sellingPrice, 115), 94);\n    }\n\n    _transfer(oldOwner, newOwner, _tokenId);\n\n    \n    if (oldOwner != address(this) && oldOwner != address(0)) {\n      oldOwner.transfer(payment); \n    }\n\n    TokenSold(_tokenId, sellingPrice, personIndexToPrice[_tokenId], oldOwner, newOwner);\n\n    msg.sender.transfer(purchaseExcess);\n  }\n\n  function priceOf(uint256 _tokenId) public view returns (uint256 price) {\n    price = personIndexToPrice[_tokenId];\n    if (price == 0)\n      price = startingPrice;\n  }\n\n  \n  \n  function setCEO(address _newCEO) public onlyCEO {\n    require(_newCEO != address(0));\n\n    ceoAddress = _newCEO;\n  }\n\n  \n  \n  function setCOO(address _newCOO) public onlyCEO {\n    require(_newCOO != address(0));\n\n    cooAddress = _newCOO;\n  }\n\n  \n  function symbol() public pure returns (string) {\n    return SYMBOL;\n  }\n\n  \n  \n  \n  function takeOwnership(uint256 _tokenId) public {\n    address newOwner = msg.sender;\n    address oldOwner = personIndexToOwner[_tokenId];\n\n    \n    require(_addressNotNull(newOwner));\n\n    \n    require(_approved(newOwner, _tokenId));\n\n    _transfer(oldOwner, newOwner, _tokenId);\n  }\n\n  \n  \n  \n  \n  function transfer(\n    address _to,\n    uint256 _tokenId\n  ) public {\n    require(_owns(msg.sender, _tokenId));\n    require(_addressNotNull(_to));\n\n    _transfer(msg.sender, _to, _tokenId);\n  }\n\n  \n  \n  \n  \n  \n  function transferFrom(\n    address _from,\n    address _to,\n    uint256 _tokenId\n  ) public {\n    require(_owns(_from, _tokenId));\n    require(_approved(_to, _tokenId));\n    require(_addressNotNull(_to));\n\n    _transfer(_from, _to, _tokenId);\n  }\n\n  \n  \n  function _addressNotNull(address _to) private pure returns (bool) {\n    return _to != address(0);\n  }\n\n  \n  function _approved(address _to, uint256 _tokenId) private view returns (bool) {\n    return personIndexToApproved[_tokenId] == _to;\n  }\n\n  \n  function _createPerson(uint256 tokenId, uint256 _price) private {\n    personIndexToPrice[tokenId] = _price;\n    totalSupply++;\n    Birth(tokenId, _price, totalSupply);\n  }\n\n  \n  function _owns(address claimant, uint256 _tokenId) private view returns (bool) {\n    return claimant == personIndexToOwner[_tokenId];\n  }\n\n  \n  function _payout(address _to) private {\n    if (_to == address(0)) {\n      ceoAddress.transfer(this.balance);\n    } else {\n      _to.transfer(this.balance);\n    }\n  }\n\n  \n  function _transfer(address _from, address _to, uint256 _tokenId) private {\n    \n    ownershipTokenCount[_to]++;\n    \n    personIndexToOwner[_tokenId] = _to;\n\n    \n    if (_from != address(0)) {\n      ownershipTokenCount[_from]--;\n      \n      delete personIndexToApproved[_tokenId];\n    }\n\n    \n    Transfer(_from, _to, _tokenId);\n  }\n}\nlibrary SafeMath {\n\n  \n  function mul(uint256 a, uint256 b) internal pure returns (uint256) {\n    if (a == 0) {\n      return 0;\n    }\n    uint256 c = a * b;\n    assert(c / a == b);\n    return c;\n  }\n\n  \n  function div(uint256 a, uint256 b) internal pure returns (uint256) {\n    \n    uint256 c = a / b;\n    \n    return c;\n  }\n\n  \n  function sub(uint256 a, uint256 b) internal pure returns (uint256) {\n    assert(b <= a);\n    return a - b;\n  }\n\n  \n  function add(uint256 a, uint256 b) internal pure returns (uint256) {\n    uint256 c = a + b;\n    assert(c >= a);\n    return c;\n  }\n}",
  "sourcePath": "/home/XXX-1/smartrim-experiment/for-rlf/0x73a25642d3cdd443b0d1dd006893b63c7fe8b64c/contracts/0x73a25642d3cdd443b0d1dd006893b63c7fe8b64c.sol",
  "compiler": {
    "name": "solc",
    "version": "0.4.25+commit.59dbf8f1.Emscripten.clang"
  },
  "schemaVersion": "3.4.16",
  "updatedAt": "2025-08-14T03:57:23.221Z",
  "networkType": "ethereum",
  "devdoc": {
    "methods": {}
  },
  "userdoc": {
    "methods": {}
  }
}