{
  "contractName": "FairDice",
  "abi": [
    {
      "constant": true,
      "inputs": [],
      "name": "secretSigner",
      "outputs": [
        {
          "name": "",
          "type": "address"
        }
      ],
      "payable": false,
      "stateMutability": "view",
      "type": "function"
    },
    {
      "constant": true,
      "inputs": [],
      "name": "jackpotSize",
      "outputs": [
        {
          "name": "",
          "type": "uint128"
        }
      ],
      "payable": false,
      "stateMutability": "view",
      "type": "function"
    },
    {
      "constant": true,
      "inputs": [],
      "name": "croupier",
      "outputs": [
        {
          "name": "",
          "type": "address"
        }
      ],
      "payable": false,
      "stateMutability": "view",
      "type": "function"
    },
    {
      "constant": true,
      "inputs": [],
      "name": "owner",
      "outputs": [
        {
          "name": "",
          "type": "address"
        }
      ],
      "payable": false,
      "stateMutability": "view",
      "type": "function"
    },
    {
      "constant": true,
      "inputs": [],
      "name": "maxProfit",
      "outputs": [
        {
          "name": "",
          "type": "uint256"
        }
      ],
      "payable": false,
      "stateMutability": "view",
      "type": "function"
    },
    {
      "constant": true,
      "inputs": [],
      "name": "lockedInBets",
      "outputs": [
        {
          "name": "",
          "type": "uint128"
        }
      ],
      "payable": false,
      "stateMutability": "view",
      "type": "function"
    },
    {
      "inputs": [],
      "payable": false,
      "stateMutability": "nonpayable",
      "type": "constructor"
    },
    {
      "payable": true,
      "stateMutability": "payable",
      "type": "fallback"
    },
    {
      "anonymous": false,
      "inputs": [
        {
          "indexed": true,
          "name": "beneficiary",
          "type": "address"
        },
        {
          "indexed": false,
          "name": "amount",
          "type": "uint256"
        }
      ],
      "name": "FailedPayment",
      "type": "event"
    },
    {
      "anonymous": false,
      "inputs": [
        {
          "indexed": true,
          "name": "beneficiary",
          "type": "address"
        },
        {
          "indexed": false,
          "name": "amount",
          "type": "uint256"
        }
      ],
      "name": "Payment",
      "type": "event"
    },
    {
      "anonymous": false,
      "inputs": [
        {
          "indexed": true,
          "name": "beneficiary",
          "type": "address"
        },
        {
          "indexed": false,
          "name": "amount",
          "type": "uint256"
        }
      ],
      "name": "JackpotPayment",
      "type": "event"
    },
    {
      "anonymous": false,
      "inputs": [
        {
          "indexed": false,
          "name": "commit",
          "type": "uint256"
        }
      ],
      "name": "Commit",
      "type": "event"
    },
    {
      "constant": false,
      "inputs": [
        {
          "name": "_nextOwner",
          "type": "address"
        }
      ],
      "name": "approveNextOwner",
      "outputs": [],
      "payable": false,
      "stateMutability": "nonpayable",
      "type": "function"
    },
    {
      "constant": false,
      "inputs": [],
      "name": "acceptNextOwner",
      "outputs": [],
      "payable": false,
      "stateMutability": "nonpayable",
      "type": "function"
    },
    {
      "constant": false,
      "inputs": [
        {
          "name": "newSecretSigner",
          "type": "address"
        }
      ],
      "name": "setSecretSigner",
      "outputs": [],
      "payable": false,
      "stateMutability": "nonpayable",
      "type": "function"
    },
    {
      "constant": false,
      "inputs": [
        {
          "name": "newCroupier",
          "type": "address"
        }
      ],
      "name": "setCroupier",
      "outputs": [],
      "payable": false,
      "stateMutability": "nonpayable",
      "type": "function"
    },
    {
      "constant": false,
      "inputs": [
        {
          "name": "_maxProfit",
          "type": "uint256"
        }
      ],
      "name": "setMaxProfit",
      "outputs": [],
      "payable": false,
      "stateMutability": "nonpayable",
      "type": "function"
    },
    {
      "constant": false,
      "inputs": [
        {
          "name": "increaseAmount",
          "type": "uint256"
        }
      ],
      "name": "increaseJackpot",
      "outputs": [],
      "payable": false,
      "stateMutability": "nonpayable",
      "type": "function"
    },
    {
      "constant": false,
      "inputs": [
        {
          "name": "beneficiary",
          "type": "address"
        },
        {
          "name": "withdrawAmount",
          "type": "uint256"
        }
      ],
      "name": "withdrawFunds",
      "outputs": [],
      "payable": false,
      "stateMutability": "nonpayable",
      "type": "function"
    },
    {
      "constant": false,
      "inputs": [],
      "name": "kill",
      "outputs": [],
      "payable": false,
      "stateMutability": "nonpayable",
      "type": "function"
    },
    {
      "constant": false,
      "inputs": [
        {
          "name": "betMask",
          "type": "uint256"
        },
        {
          "name": "modulo",
          "type": "uint256"
        },
        {
          "name": "commitLastBlock",
          "type": "uint256"
        },
        {
          "name": "commit",
          "type": "uint256"
        },
        {
          "name": "r",
          "type": "bytes32"
        },
        {
          "name": "s",
          "type": "bytes32"
        }
      ],
      "name": "placeBet",
      "outputs": [],
      "payable": true,
      "stateMutability": "payable",
      "type": "function"
    },
    {
      "constant": false,
      "inputs": [
        {
          "name": "reveal",
          "type": "uint256"
        },
        {
          "name": "blockHash",
          "type": "bytes32"
        }
      ],
      "name": "settleBet",
      "outputs": [],
      "payable": false,
      "stateMutability": "nonpayable",
      "type": "function"
    },
    {
      "constant": false,
      "inputs": [
        {
          "name": "reveal",
          "type": "uint256"
        },
        {
          "name": "canonicalBlockNumber",
          "type": "uint40"
        }
      ],
      "name": "settleBetUncleMerkleProof",
      "outputs": [],
      "payable": false,
      "stateMutability": "nonpayable",
      "type": "function"
    },
    {
      "constant": false,
      "inputs": [
        {
          "name": "commit",
          "type": "uint256"
        }
      ],
      "name": "refundBet",
      "outputs": [],
      "payable": false,
      "stateMutability": "nonpayable",
      "type": "function"
    }
  ],
  "bytecode": "0x608060405234801561001057600080fd5b50336000806101000a81548173ffffffffffffffffffffffffffffffffffffffff021916908373ffffffffffffffffffffffffffffffffffffffff16021790555073eeeeeeeeeeeeeeeeeeeeeeeeeeeeeeeeeeeeeeee600360006101000a81548173ffffffffffffffffffffffffffffffffffffffff021916908373ffffffffffffffffffffffffffffffffffffffff16021790555073eeeeeeeeeeeeeeeeeeeeeeeeeeeeeeeeeeeeeeee600660006101000a81548173ffffffffffffffffffffffffffffffffffffffff021916908373ffffffffffffffffffffffffffffffffffffffff1602179055506135788061010a6000396000f3006080604052600436106100fc576000357c0100000000000000000000000000000000000000000000000000000000900463ffffffff16806341c0e1b5146100fe5780634d61537f1461011557806357246d231461016c5780635e83b463146101bb5780636b5c5f391461021557806374e048d51461026c5780638da5cb5b146102aa578063b539cd5514610301578063c10753291461032c578063ca722cdc14610379578063d06c54fb146103b4578063d579fd44146103cb578063d6d30a511461040e578063d702087f1461043b578063df88126f1461047e578063e1fdb4b4146104cd578063f8bb201c146104fa578063fbd668a91461053d575b005b34801561010a57600080fd5b5061011361056a565b005b34801561012157600080fd5b5061012a610698565b604051808273ffffffffffffffffffffffffffffffffffffffff1673ffffffffffffffffffffffffffffffffffffffff16815260200191505060405180910390f35b34801561017857600080fd5b506101816106be565b60405180826fffffffffffffffffffffffffffffffff166fffffffffffffffffffffffffffffffff16815260200191505060405180910390f35b61021360048036038101908080359060200190929190803590602001909291908035906020019092919080359060200190929190803560001916906020019092919080356000191690602001909291905050506106e0565b005b34801561022157600080fd5b5061022a611049565b604051808273ffffffffffffffffffffffffffffffffffffffff1673ffffffffffffffffffffffffffffffffffffffff16815260200191505060405180910390f35b34801561027857600080fd5b506102a860048036038101908080359060200190929190803564ffffffffff16906020019092919050505061106f565b005b3480156102b657600080fd5b506102bf6112f3565b604051808273ffffffffffffffffffffffffffffffffffffffff1673ffffffffffffffffffffffffffffffffffffffff16815260200191505060405180910390f35b34801561030d57600080fd5b50610316611318565b6040518082815260200191505060405180910390f35b34801561033857600080fd5b50610377600480360381019080803573ffffffffffffffffffffffffffffffffffffffff1690602001909291908035906020019092919050505061131e565b005b34801561038557600080fd5b506103b26004803603810190808035906020019092919080356000191690602001909291905050506114c3565b005b3480156103c057600080fd5b506103c96117d6565b005b3480156103d757600080fd5b5061040c600480360381019080803573ffffffffffffffffffffffffffffffffffffffff169060200190929190505050611925565b005b34801561041a57600080fd5b5061043960048036038101908080359060200190929190505050611b18565b005b34801561044757600080fd5b5061047c600480360381019080803573ffffffffffffffffffffffffffffffffffffffff169060200190929190505050611df5565b005b34801561048a57600080fd5b50610493611f23565b60405180826fffffffffffffffffffffffffffffffff166fffffffffffffffffffffffffffffffff16815260200191505060405180910390f35b3480156104d957600080fd5b506104f860048036038101908080359060200190929190505050611f45565b005b34801561050657600080fd5b5061053b600480360381019080803573ffffffffffffffffffffffffffffffffffffffff1690602001909291905050506121f1565b005b34801561054957600080fd5b506105686004803603810190808035906020019092919050505061231f565b005b6000600460109054906101000a90046fffffffffffffffffffffffffffffffff166fffffffffffffffffffffffffffffffff1614151561065e576040517f08c379a00000000000000000000000000000000000000000000000000000000081526004018080602001828103825260488152602001807f416c6c20626574732073686f756c642062652070726f6365737365642028736581526020017f74746c6564206f7220726566756e64656429206265666f72652073656c662d6481526020017f657374727563742e00000000000000000000000000000000000000000000000081525060600191505060405180910390fd5b6000809054906101000a900473ffffffffffffffffffffffffffffffffffffffff1673ffffffffffffffffffffffffffffffffffffffff16ff5b600360009054906101000a900473ffffffffffffffffffffffffffffffffffffffff1681565b600460009054906101000a90046fffffffffffffffffffffffffffffffff1681565b6000806000806000806000600560008b81526020019081526020016000209650600073ffffffffffffffffffffffffffffffffffffffff1687600101600c9054906101000a900473ffffffffffffffffffffffffffffffffffffffff1673ffffffffffffffffffffffffffffffffffffffff161415156107ee576040517f08c379a00000000000000000000000000000000000000000000000000000000081526004018080602001828103825260218152602001807f4265742073686f756c6420626520696e20612027636c65616e2720737461746581526020017f2e0000000000000000000000000000000000000000000000000000000000000081525060400191505060405180910390fd5b34955060018c118015610802575060648c11155b1515610876576040517f08c379a000000000000000000000000000000000000000000000000000000000815260040180806020018281038252601e8152602001807f4d6f64756c6f2073686f756c642062652077697468696e2072616e67652e000081525060200191505060405180910390fd5b662386f26fc1000086101580156108975750693f870857a3e0e38000008611155b151561090b576040517f08c379a000000000000000000000000000000000000000000000000000000000815260040180806020018281038252601e8152602001807f416d6f756e742073686f756c642062652077697468696e2072616e67652e000081525060200191505060405180910390fd5b60008d11801561091e5750602860020a8d105b1515610992576040517f08c379a000000000000000000000000000000000000000000000000000000000815260040180806020018281038252601c8152602001807f4d61736b2073686f756c642062652077697468696e2072616e67652e0000000081525060200191505060405180910390fd5b8a4311151515610a0a576040517f08c379a00000000000000000000000000000000000000000000000000000000081526004018080602001828103825260138152602001807f436f6d6d69742068617320657870697265642e0000000000000000000000000081525060200191505060405180910390fd5b8a8a604051602001808364ffffffffff1664ffffffffff167b01000000000000000000000000000000000000000000000000000000028152600501828152602001925050506040516020818303038152906040526040518082805190602001908083835b602083101515610a935780518252602082019150602081019050602083039250610a6e565b6001836020036101000a03801982511681845116808217855250505050505090500191505060405180910390209450600185601b8b8b604051600081526020016040526040518085600019166000191681526020018460ff1681526020018360001916600019168152602001826000191660001916815260200194505050505060206040516020810390808403906000865af1158015610b37573d6000803e3d6000fd5b5050506020604051035173ffffffffffffffffffffffffffffffffffffffff16600360009054906101000a900473ffffffffffffffffffffffffffffffffffffffff1673ffffffffffffffffffffffffffffffffffffffff16141515610c05576040517f08c379a000000000000000000000000000000000000000000000000000000000815260040180806020018281038252601d8152602001807f4543445341207369676e6174757265206973206e6f742076616c69642e00000081525060200191505060405180910390fd5b60288c111515610c6357603f7e010410410410410410410410410410410410410410410410410410410410417920000000001000000000080000000004000000000200000000018f0216811515610c5857fe5b0693508c9250610d11565b60008d118015610c7357508b8d11155b1515610d0d576040517f08c379a000000000000000000000000000000000000000000000000000000000815260040180806020018281038252602e8152602001807f48696768206d6f64756c6f2072616e67652c206265744d61736b206c6172676581526020017f72207468616e206d6f64756c6f2e00000000000000000000000000000000000081525060400191505060405180910390fd5b8c93505b610d1c868d866124ba565b809250819350505060025486018211151515610da0576040517f08c379a000000000000000000000000000000000000000000000000000000000815260040180806020018281038252601a8152602001807f6d617850726f666974206c696d69742076696f6c6174696f6e2e00000000000081525060200191505060405180910390fd5b81600460108282829054906101000a90046fffffffffffffffffffffffffffffffff160192506101000a8154816fffffffffffffffffffffffffffffffff02191690836fffffffffffffffffffffffffffffffff16021790555080600460008282829054906101000a90046fffffffffffffffffffffffffffffffff160192506101000a8154816fffffffffffffffffffffffffffffffff02191690836fffffffffffffffffffffffffffffffff1602179055503073ffffffffffffffffffffffffffffffffffffffff1631600460109054906101000a90046fffffffffffffffffffffffffffffffff16600460009054906101000a90046fffffffffffffffffffffffffffffffff16016fffffffffffffffffffffffffffffffff1611151515610f33576040517f08c379a000000000000000000000000000000000000000000000000000000000815260040180806020018281038252601f8152602001807f43616e6e6f74206166666f726420746f206c6f73652074686973206265742e0081525060200191505060405180910390fd5b7f5bdd2fc99022530157777690475b670d3872f32262eb1d47d9ba8000dad58f878a6040518082815260200191505060405180910390a18587600001819055508b8760010160006101000a81548160ff021916908360ff160217905550838760010160016101000a81548160ff021916908360ff160217905550438760010160026101000a81548164ffffffffff021916908364ffffffffff160217905550828760010160076101000a81548164ffffffffff021916908364ffffffffff1602179055503387600101600c6101000a81548173ffffffffffffffffffffffffffffffffffffffff021916908373ffffffffffffffffffffffffffffffffffffffff16021790555050505050505050505050505050565b600660009054906101000a900473ffffffffffffffffffffffffffffffffffffffff1681565b600080600080600660009054906101000a900473ffffffffffffffffffffffffffffffffffffffff1673ffffffffffffffffffffffffffffffffffffffff163373ffffffffffffffffffffffffffffffffffffffff16141515611160576040517f08c379a000000000000000000000000000000000000000000000000000000000815260040180806020018281038252602c8152602001807f4f6e6c7943726f7570696572206d6574686f64732063616c6c6564206279206e81526020017f6f6e2d63726f75706965722e000000000000000000000000000000000000000081525060400191505060405180910390fd5b85604051602001808281526020019150506040516020818303038152906040526040518082805190602001908083835b6020831015156111b55780518252602082019150602081019050602083039250611190565b6001836020036101000a038019825116818451168082178552505050505050905001915050604051809103902060019004935060056000858152602001908152602001600020925060fa8564ffffffffff160143111515156112a5576040517f08c379a00000000000000000000000000000000000000000000000000000000081526004018080602001828103825260228152602001807f426c6f636b686173682063616e2774206265207175657269656420627920455681526020017f4d2e00000000000000000000000000000000000000000000000000000000000081525060400191505060405180910390fd5b6112af604861264e565b6112ba846044612d34565b809250819350505081600019168564ffffffffff1640600019161415156112e057600080fd5b6112eb838783613075565b505050505050565b6000809054906101000a900473ffffffffffffffffffffffffffffffffffffffff1681565b60025481565b3073ffffffffffffffffffffffffffffffffffffffff163181111515156113d3576040517f08c379a00000000000000000000000000000000000000000000000000000000081526004018080602001828103825260248152602001807f496e63726561736520616d6f756e74206c6172676572207468616e2062616c6181526020017f6e63652e0000000000000000000000000000000000000000000000000000000081525060400191505060405180910390fd5b3073ffffffffffffffffffffffffffffffffffffffff163181600460109054906101000a90046fffffffffffffffffffffffffffffffff16600460009054906101000a90046fffffffffffffffffffffffffffffffff16016fffffffffffffffffffffffffffffffff1601111515156114b4576040517f08c379a00000000000000000000000000000000000000000000000000000000081526004018080602001828103825260118152602001807f4e6f7420656e6f7567682066756e64732e00000000000000000000000000000081525060200191505060405180910390fd5b6114bf828283613420565b5050565b6000806000600660009054906101000a900473ffffffffffffffffffffffffffffffffffffffff1673ffffffffffffffffffffffffffffffffffffffff163373ffffffffffffffffffffffffffffffffffffffff161415156115b3576040517f08c379a000000000000000000000000000000000000000000000000000000000815260040180806020018281038252602c8152602001807f4f6e6c7943726f7570696572206d6574686f64732063616c6c6564206279206e81526020017f6f6e2d63726f75706965722e000000000000000000000000000000000000000081525060400191505060405180910390fd5b84604051602001808281526020019150506040516020818303038152906040526040518082805190602001908083835b60208310151561160857805182526020820191506020810190506020830392506115e3565b6001836020036101000a03801982511681845116808217855250505050505090500191505060405180910390206001900492506005600084815260200190815260200160002091508160010160029054906101000a900464ffffffffff1664ffffffffff169050804311151561170c576040517f08c379a00000000000000000000000000000000000000000000000000000000081526004018080602001828103825260338152602001807f736574746c6542657420696e207468652073616d6520626c6f636b206173207081526020017f6c6163654265742c206f72206265666f72652e0000000000000000000000000081525060400191505060405180910390fd5b60fa810143111515156117ad576040517f08c379a00000000000000000000000000000000000000000000000000000000081526004018080602001828103825260228152602001807f426c6f636b686173682063616e2774206265207175657269656420627920455681526020017f4d2e00000000000000000000000000000000000000000000000000000000000081525060400191505060405180910390fd5b83600019168140600019161415156117c457600080fd5b6117cf828686613075565b5050505050565b600160009054906101000a900473ffffffffffffffffffffffffffffffffffffffff1673ffffffffffffffffffffffffffffffffffffffff163373ffffffffffffffffffffffffffffffffffffffff161415156118c1576040517f08c379a00000000000000000000000000000000000000000000000000000000081526004018080602001828103825260268152602001807f43616e206f6e6c792061636365707420707265617070726f766564206e65772081526020017f6f776e65722e000000000000000000000000000000000000000000000000000081525060400191505060405180910390fd5b600160009054906101000a900473ffffffffffffffffffffffffffffffffffffffff166000806101000a81548173ffffffffffffffffffffffffffffffffffffffff021916908373ffffffffffffffffffffffffffffffffffffffff160217905550565b6000809054906101000a900473ffffffffffffffffffffffffffffffffffffffff1673ffffffffffffffffffffffffffffffffffffffff163373ffffffffffffffffffffffffffffffffffffffff16141515611a0f576040517f08c379a00000000000000000000000000000000000000000000000000000000081526004018080602001828103825260268152602001807f4f6e6c794f776e6572206d6574686f64732063616c6c6564206279206e6f6e2d81526020017f6f776e65722e000000000000000000000000000000000000000000000000000081525060400191505060405180910390fd5b6000809054906101000a900473ffffffffffffffffffffffffffffffffffffffff1673ffffffffffffffffffffffffffffffffffffffff168173ffffffffffffffffffffffffffffffffffffffff1614151515611ad4576040517f08c379a000000000000000000000000000000000000000000000000000000000815260040180806020018281038252601d8152602001807f43616e6e6f7420617070726f76652063757272656e74206f776e65722e00000081525060200191505060405180910390fd5b80600160006101000a81548173ffffffffffffffffffffffffffffffffffffffff021916908373ffffffffffffffffffffffffffffffffffffffff16021790555050565b6000809054906101000a900473ffffffffffffffffffffffffffffffffffffffff1673ffffffffffffffffffffffffffffffffffffffff163373ffffffffffffffffffffffffffffffffffffffff16141515611c02576040517f08c379a00000000000000000000000000000000000000000000000000000000081526004018080602001828103825260268152602001807f4f6e6c794f776e6572206d6574686f64732063616c6c6564206279206e6f6e2d81526020017f6f776e65722e000000000000000000000000000000000000000000000000000081525060400191505060405180910390fd5b3073ffffffffffffffffffffffffffffffffffffffff16318111151515611cb7576040517f08c379a00000000000000000000000000000000000000000000000000000000081526004018080602001828103825260248152602001807f496e63726561736520616d6f756e74206c6172676572207468616e2062616c6181526020017f6e63652e0000000000000000000000000000000000000000000000000000000081525060400191505060405180910390fd5b3073ffffffffffffffffffffffffffffffffffffffff163181600460109054906101000a90046fffffffffffffffffffffffffffffffff16600460009054906101000a90046fffffffffffffffffffffffffffffffff16016fffffffffffffffffffffffffffffffff160111151515611d98576040517f08c379a00000000000000000000000000000000000000000000000000000000081526004018080602001828103825260118152602001807f4e6f7420656e6f7567682066756e64732e00000000000000000000000000000081525060200191505060405180910390fd5b80600460008282829054906101000a90046fffffffffffffffffffffffffffffffff160192506101000a8154816fffffffffffffffffffffffffffffffff02191690836fffffffffffffffffffffffffffffffff16021790555050565b6000809054906101000a900473ffffffffffffffffffffffffffffffffffffffff1673ffffffffffffffffffffffffffffffffffffffff163373ffffffffffffffffffffffffffffffffffffffff16141515611edf576040517f08c379a00000000000000000000000000000000000000000000000000000000081526004018080602001828103825260268152602001807f4f6e6c794f776e6572206d6574686f64732063616c6c6564206279206e6f6e2d81526020017f6f776e65722e000000000000000000000000000000000000000000000000000081525060400191505060405180910390fd5b80600360006101000a81548173ffffffffffffffffffffffffffffffffffffffff021916908373ffffffffffffffffffffffffffffffffffffffff16021790555050565b600460109054906101000a90046fffffffffffffffffffffffffffffffff1681565b6000806000806005600086815260200190815260200160002093508360000154925060008314151515612006576040517f08c379a00000000000000000000000000000000000000000000000000000000081526004018080602001828103825260228152602001807f4265742073686f756c6420626520696e20616e2027616374697665272073746181526020017f746500000000000000000000000000000000000000000000000000000000000081525060400191505060405180910390fd5b60fa8460010160029054906101000a900464ffffffffff1664ffffffffff1601431115156120c2576040517f08c379a00000000000000000000000000000000000000000000000000000000081526004018080602001828103825260228152602001807f426c6f636b686173682063616e2774206265207175657269656420627920455681526020017f4d2e00000000000000000000000000000000000000000000000000000000000081525060400191505060405180910390fd5b600084600001819055506120ff838560010160009054906101000a900460ff1660ff168660010160019054906101000a900460ff1660ff166124ba565b809250819350505081600460108282829054906101000a90046fffffffffffffffffffffffffffffffff160392506101000a8154816fffffffffffffffffffffffffffffffff02191690836fffffffffffffffffffffffffffffffff16021790555080600460008282829054906101000a90046fffffffffffffffffffffffffffffffff160392506101000a8154816fffffffffffffffffffffffffffffffff02191690836fffffffffffffffffffffffffffffffff1602179055506121ea84600101600c9054906101000a900473ffffffffffffffffffffffffffffffffffffffff168485613420565b5050505050565b6000809054906101000a900473ffffffffffffffffffffffffffffffffffffffff1673ffffffffffffffffffffffffffffffffffffffff163373ffffffffffffffffffffffffffffffffffffffff161415156122db576040517f08c379a00000000000000000000000000000000000000000000000000000000081526004018080602001828103825260268152602001807f4f6e6c794f776e6572206d6574686f64732063616c6c6564206279206e6f6e2d81526020017f6f776e65722e000000000000000000000000000000000000000000000000000081525060400191505060405180910390fd5b80600660006101000a81548173ffffffffffffffffffffffffffffffffffffffff021916908373ffffffffffffffffffffffffffffffffffffffff16021790555050565b6000809054906101000a900473ffffffffffffffffffffffffffffffffffffffff1673ffffffffffffffffffffffffffffffffffffffff163373ffffffffffffffffffffffffffffffffffffffff16141515612409576040517f08c379a00000000000000000000000000000000000000000000000000000000081526004018080602001828103825260268152602001807f4f6e6c794f776e6572206d6574686f64732063616c6c6564206279206e6f6e2d81526020017f6f776e65722e000000000000000000000000000000000000000000000000000081525060400191505060405180910390fd5b693f870857a3e0e3800000811015156124b0576040517f08c379a00000000000000000000000000000000000000000000000000000000081526004018080602001828103825260228152602001807f6d617850726f6669742073686f756c6420626520612073616e65206e756d626581526020017f722e00000000000000000000000000000000000000000000000000000000000081525060400191505060405180910390fd5b8060028190555050565b60008060008360001080156124cf5750848411155b1515612543576040517f08c379a000000000000000000000000000000000000000000000000000000000815260040180806020018281038252601d8152602001807f57696e2070726f626162696c697479206f7574206f662072616e67652e00000081525060200191505060405180910390fd5b67016345785d8a000086101561255a576000612563565b66038d7ea4c680005b915060646001870281151561257457fe5b049050660110d9316ec00081101561259157660110d9316ec00090505b8582820111151515612631576040517f08c379a00000000000000000000000000000000000000000000000000000000081526004018080602001828103825260228152602001807f42657420646f65736e2774206576656e20636f76657220686f7573652065646781526020017f652e00000000000000000000000000000000000000000000000000000000000081525060400191505060405180910390fd5b838583838903030281151561264257fe5b04925050935093915050565b60008060008060008060008060008060008b3560001a9a5060f78b10151515612705576040517f08c379a00000000000000000000000000000000000000000000000000000000081526004018080602001828103825260228152602001807f52656365697074206c656166206c6f6e676572207468616e203535206279746581526020017f732e00000000000000000000000000000000000000000000000000000000000081525060400191505060405180910390fd5b60f68b038c019b508b3560001a9950607f8a1115156127295760018c019b506127b8565b60808a1015801561273b575060b78a11155b15156127af576040517f08c379a00000000000000000000000000000000000000000000000000000000081526004018080602001828103825260168152602001807f5061746820697320616e20524c5020737472696e672e0000000000000000000081525060200191505060405180910390fd5b607f8a038c019b505b8b3560001a985060b989141515612883576040517f08c379a00000000000000000000000000000000000000000000000000000000081526004018080602001828103825260448152602001807f5265636569707420737472696e6720697320616c77617973206174206c65617381526020017f7420323536206279746573206c6f6e672c20627574206c657373207468616e2081526020017f36346b2e0000000000000000000000000000000000000000000000000000000081525060600191505060405180910390fd5b60038c019b508b3560001a975060f98814151561292e576040517f08c379a000000000000000000000000000000000000000000000000000000000815260040180806020018281038252603d8152602001807f5265636569707420697320616c77617973206174206c6561737420323536206281526020017f79746573206c6f6e672c20627574206c657373207468616e2036346b2e00000081525060400191505060405180910390fd5b60038c019b508b3560001a96506001871415156129b3576040517f08c379a00000000000000000000000000000000000000000000000000000000081526004018080602001828103825260198152602001807f5374617475732073686f756c6420626520737563636573732e0000000000000081525060200191505060405180910390fd5b60018c019b508b3560001a9550607f861115156129d55760018c019b50612a64565b608086101580156129e7575060b78611155b1515612a5b576040517f08c379a00000000000000000000000000000000000000000000000000000000081526004018080602001828103825260208152602001807f43756d756c61746976652067617320697320616e20524c5020737472696e672e81525060200191505060405180910390fd5b607f86038c019b505b8b3560001a945060b985141515612b09576040517f08c379a00000000000000000000000000000000000000000000000000000000081526004018080602001828103825260268152602001807f426c6f6f6d2066696c74657220697320616c776179732032353620627974657381526020017f206c6f6e672e000000000000000000000000000000000000000000000000000081525060400191505060405180910390fd5b6101038c019b508b3560001a935060f884141515612bb5576040517f08c379a00000000000000000000000000000000000000000000000000000000081526004018080602001828103825260268152602001807f4c6f6773206c697374206973206c657373207468616e2032353620627974657381526020017f206c6f6e672e000000000000000000000000000000000000000000000000000081525060400191505060405180910390fd5b60028c019b508b3560001a925060f883141515612c60576040517f08c379a00000000000000000000000000000000000000000000000000000000081526004018080602001828103825260268152602001807f4c6f6720656e747279206973206c657373207468616e2032353620627974657381526020017f206c6f6e672e000000000000000000000000000000000000000000000000000081525060400191505060405180910390fd5b60028c019b508b3560001a9150609482141515612ce5576040517f08c379a00000000000000000000000000000000000000000000000000000000081526004018080602001828103825260198152602001807f41646472657373206973203230206279746573206c6f6e672e0000000000000081525060200191505060405180910390fd5b73ffffffffffffffffffffffffffffffffffffffff600b8d03351690503073ffffffffffffffffffffffffffffffffffffffff1681141515612d2657600080fd5b505050505050505050505050565b60008060008060008060008060008060405197505b61ffff601e8c03351695506000861415612d6257612e87565b61ffff601c8c0335169450856020860111151515612de8576040517f08c379a00000000000000000000000000000000000000000000000000000000081526004018080602001828103825260138152602001807f536869667420626f756e647320636865636b2e0000000000000000000000000081525060200191505060405180910390fd5b60048b019a50848b01359350600084141515612e6c576040517f08c379a00000000000000000000000000000000000000000000000000000000081526004018080602001828103825260148152602001807f4e6f6e2d656d707479206861736820736c6f742e00000000000000000000000081525060200191505060405180910390fd5b858b89378b858901528588209b50859650858b019a50612d49565b8b6001029850868801925061ffff601c8c033516915061ffff601a8c03351690508187820111151515612f22576040517f08c379a00000000000000000000000000000000000000000000000000000000081526004018080602001828103825260138152602001807f536869667420626f756e647320636865636b2e0000000000000000000000000081525060200191505060405180910390fd5b60068b019a50818b8437612f398184018989613501565b8183209b50818b019a5061ffff601e8c033516955061ffff601c8c0335169450856020860111151515612fd4576040517f08c379a00000000000000000000000000000000000000000000000000000000081526004018080602001828103825260138152602001807f536869667420626f756e647320636865636b2e0000000000000000000000000081525060200191505060405180910390fd5b60048b019a50848b01359350600084141515613058576040517f08c379a00000000000000000000000000000000000000000000000000000000081526004018080602001828103825260148152602001807f4e6f6e2d656d707479206861736820736c6f742e00000000000000000000000081525060200191505060405180910390fd5b858b89378b85890152858820995050505050505050509250929050565b60008060008060008060008060008060008d600001549a508d60010160009054906101000a900460ff1660ff1699508d60010160019054906101000a900460ff1660ff1698508d600101600c9054906101000a900473ffffffffffffffffffffffffffffffffffffffff16975060008b14151515613181576040517f08c379a00000000000000000000000000000000000000000000000000000000081526004018080602001828103825260228152602001807f4265742073686f756c6420626520696e20616e2027616374697665272073746181526020017f746500000000000000000000000000000000000000000000000000000000000081525060400191505060405180910390fd5b60008e600001819055508c8c604051602001808381526020018260001916600019168152602001925050506040516020818303038152906040526040518082805190602001908083835b6020831015156131f057805182526020820191506020810190506020830392506131cb565b6001836020036101000a0380198251168184511680821785525050505050509050019150506040518091039020965089876001900481151561322e57fe5b06955061323c8b8b8b6124ba565b8095508196505050600092506000915060288a11151561328a5760008e60010160079054906101000a900464ffffffffff1664ffffffffff168760020a16141515613285578492505b613297565b88861015613296578492505b5b84600460108282829054906101000a90046fffffffffffffffffffffffffffffffff160392506101000a8154816fffffffffffffffffffffffffffffffff02191690836fffffffffffffffffffffffffffffffff16021790555067016345785d8a00008b101515613399576103e88a886001900481151561331457fe5b0481151561331e57fe5b069050600081141561339857600460009054906101000a90046fffffffffffffffffffffffffffffffff166fffffffffffffffffffffffffffffffff1691506000600460006101000a8154816fffffffffffffffffffffffffffffffff02191690836fffffffffffffffffffffffffffffffff1602179055505b5b60008211156133f1578773ffffffffffffffffffffffffffffffffffffffff167fc388db0e8aa560a59633c094a0d0aa21322cd6234836fd5bac00fc5ae63b5783836040518082815260200191505060405180910390a25b613410886000848601146134075783850161340a565b60015b85613420565b5050505050505050505050505050565b8273ffffffffffffffffffffffffffffffffffffffff166108fc839081150290604051600060405180830381858888f19350505050156134ad578273ffffffffffffffffffffffffffffffffffffffff167fd4f43975feb89f48dd30cabbb32011045be187d1e11c8ea9faa43efc35282519826040518082815260200191505060405180910390a26134fc565b8273ffffffffffffffffffffffffffffffffffffffff167fac464fe4d3a86b9121261ac0a01dd981bfe0777c7c9d9c8f4473d31a9c0f9d2d836040518082815260200191505060405180910390a25b505050565b60005b6020821015156135295782518452602084019350602083019250602082039150613504565b6001826020036101000a03905080198351168185511681811786525050505050505600a165627a7a72305820c563fa67e1295b241e6aa8c83bd612eb3236d0dfbb1b0ef84e34eb94425795fb0029",
  "source": "\n\n\n\n\n\n\n\n\n\n\ncontract FairDice {\n    \n\n    \n    \n    \n    uint constant HOUSE_EDGE_PERCENT = 1;\n    uint constant HOUSE_EDGE_MINIMUM_AMOUNT = 0.0003 ether;\n\n    \n    \n    uint constant MIN_JACKPOT_BET = 0.1 ether;\n\n    \n    uint constant JACKPOT_MODULO = 1000;\n    uint constant JACKPOT_FEE = 0.001 ether;\n\n    \n    uint constant MIN_BET = 0.01 ether;\n    uint constant MAX_AMOUNT = 300000 ether;\n\n    \n    \n    \n    \n    \n    \n    \n    \n    \n    uint constant MAX_MODULO = 100;\n\n    \n    \n    \n    \n    \n    \n    \n    \n    \n    \n    uint constant MAX_MASK_MODULO = 40;\n\n    \n    uint constant MAX_BET_MASK = 2 ** MAX_MASK_MODULO;\n\n    \n    \n    \n    \n    \n    \n    uint constant BET_EXPIRATION_BLOCKS = 250;\n\n    \n    \n    address constant DUMMY_ADDRESS = 0xEeeeeEeeeEeEeeEeEeEeeEEEeeeeEeeeeeeeEEeE;\n\n    \n    address public owner;\n    address private nextOwner;\n\n    \n    uint public maxProfit;\n\n    \n    address public secretSigner;\n\n    \n    uint128 public jackpotSize;\n\n    \n    \n    uint128 public lockedInBets;\n\n    \n    struct Bet {\n        \n        uint amount;\n        \n        uint8 modulo;\n        \n        \n        uint8 rollUnder;\n        \n        uint40 placeBlockNumber;\n        \n        uint40 mask;\n        \n        address gambler;\n    }\n\n    \n    mapping (uint => Bet) bets;\n\n    \n    address public croupier;\n\n    \n    event FailedPayment(address indexed beneficiary, uint amount);\n    event Payment(address indexed beneficiary, uint amount);\n    event JackpotPayment(address indexed beneficiary, uint amount);\n\n    \n    event Commit(uint commit);\n\n    \n    constructor () public {\n        owner = msg.sender;\n        secretSigner = DUMMY_ADDRESS;\n        croupier = DUMMY_ADDRESS;\n    }\n\n    \n    modifier onlyOwner {\n        require (msg.sender == owner, \"OnlyOwner methods called by non-owner.\");\n        _;\n    }\n\n    \n    modifier onlyCroupier {\n        require (msg.sender == croupier, \"OnlyCroupier methods called by non-croupier.\");\n        _;\n    }\n\n    \n    function approveNextOwner(address _nextOwner) external onlyOwner {\n        require (_nextOwner != owner, \"Cannot approve current owner.\");\n        nextOwner = _nextOwner;\n    }\n\n    function acceptNextOwner() external {\n        require (msg.sender == nextOwner, \"Can only accept preapproved new owner.\");\n        owner = nextOwner;\n    }\n\n    \n    \n    function () public payable {\n    }\n\n    \n    function setSecretSigner(address newSecretSigner) external onlyOwner {\n        secretSigner = newSecretSigner;\n    }\n\n    \n    function setCroupier(address newCroupier) external onlyOwner {\n        croupier = newCroupier;\n    }\n\n    \n    function setMaxProfit(uint _maxProfit) public onlyOwner {\n        require (_maxProfit < MAX_AMOUNT, \"maxProfit should be a sane number.\");\n        maxProfit = _maxProfit;\n    }\n\n    \n    function increaseJackpot(uint increaseAmount) external onlyOwner {\n        require (increaseAmount <= address(this).balance, \"Increase amount larger than balance.\");\n        require (jackpotSize + lockedInBets + increaseAmount <= address(this).balance, \"Not enough funds.\");\n        jackpotSize += uint128(increaseAmount);\n    }\n\n    \n    function withdrawFunds(address beneficiary, uint withdrawAmount) external  {\n        require (withdrawAmount <= address(this).balance, \"Increase amount larger than balance.\");\n        require (jackpotSize + lockedInBets + withdrawAmount <= address(this).balance, \"Not enough funds.\");\n        sendFunds(beneficiary, withdrawAmount, withdrawAmount);\n    }\n\n    \n    \n    function kill() external  {\n        require (lockedInBets == 0, \"All bets should be processed (settled or refunded) before self-destruct.\");\n        selfdestruct(owner); \n    }\n\n    \n\n    \n    \n    \n    \n    \n    \n    \n\n    \n    \n    \n    \n    \n    \n    \n    \n    \n    \n    \n    \n    \n    \n    \n    \n    \n    \n    \n    function placeBet(uint betMask, uint modulo, uint commitLastBlock, uint commit, bytes32 r, bytes32 s) external payable {\n        \n        Bet storage bet = bets[commit];\n        require (bet.gambler == address(0), \"Bet should be in a 'clean' state.\");\n\n        \n        uint amount = msg.value;\n        require (modulo > 1 && modulo <= MAX_MODULO, \"Modulo should be within range.\");\n        require (amount >= MIN_BET && amount <= MAX_AMOUNT, \"Amount should be within range.\");\n        require (betMask > 0 && betMask < MAX_BET_MASK, \"Mask should be within range.\");\n\n        \n        require (block.number <= commitLastBlock, \"Commit has expired.\");\n        bytes32 signatureHash = keccak256(abi.encodePacked(uint40(commitLastBlock), commit));\n        require (secretSigner == ecrecover(signatureHash, 27, r, s), \"ECDSA signature is not valid.\");\n\n        uint rollUnder;\n        uint mask;\n\n        if (modulo <= MAX_MASK_MODULO) {\n            \n            \n            \n            \n            rollUnder = ((betMask * POPCNT_MULT) & POPCNT_MASK) % POPCNT_MODULO;\n            mask = betMask;\n        } else {\n            \n            \n            require (betMask > 0 && betMask <= modulo, \"High modulo range, betMask larger than modulo.\");\n            rollUnder = betMask;\n        }\n\n        \n        uint possibleWinAmount;\n        uint jackpotFee;\n\n        (possibleWinAmount, jackpotFee) = getDiceWinAmount(amount, modulo, rollUnder);\n\n        \n        require (possibleWinAmount <= amount + maxProfit, \"maxProfit limit violation.\");\n\n        \n        lockedInBets += uint128(possibleWinAmount);\n        jackpotSize += uint128(jackpotFee);\n\n        \n        require (jackpotSize + lockedInBets <= address(this).balance, \"Cannot afford to lose this bet.\");\n\n        \n        emit Commit(commit);\n\n        \n        bet.amount = amount;\n        bet.modulo = uint8(modulo);\n        bet.rollUnder = uint8(rollUnder);\n        bet.placeBlockNumber = uint40(block.number);\n        bet.mask = uint40(mask);\n        bet.gambler = msg.sender;\n    }\n\n    \n    \n    \n    \n    function settleBet(uint reveal, bytes32 blockHash) external onlyCroupier {\n        uint commit = uint(keccak256(abi.encodePacked(reveal)));\n\n        Bet storage bet = bets[commit];\n        uint placeBlockNumber = bet.placeBlockNumber;\n\n        \n        require (block.number > placeBlockNumber, \"settleBet in the same block as placeBet, or before.\");\n        require (block.number <= placeBlockNumber + BET_EXPIRATION_BLOCKS, \"Blockhash can't be queried by EVM.\");\n        require (blockhash(placeBlockNumber) == blockHash);\n\n        \n        settleBetCommon(bet, reveal, blockHash);\n    }\n\n    \n    \n    \n    \n    \n    function settleBetUncleMerkleProof(uint reveal, uint40 canonicalBlockNumber) external onlyCroupier {\n        \n        uint commit = uint(keccak256(abi.encodePacked(reveal)));\n\n        Bet storage bet = bets[commit];\n\n        \n        require (block.number <= canonicalBlockNumber + BET_EXPIRATION_BLOCKS, \"Blockhash can't be queried by EVM.\");\n\n        \n        requireCorrectReceipt(4 + 32 + 32 + 4);\n\n        \n        bytes32 canonicalHash;\n        bytes32 uncleHash;\n        (canonicalHash, uncleHash) = verifyMerkleProof(commit, 4 + 32 + 32);\n        require (blockhash(canonicalBlockNumber) == canonicalHash);\n\n        \n        settleBetCommon(bet, reveal, uncleHash);\n    }\n\n    \n    function settleBetCommon(Bet storage bet, uint reveal, bytes32 entropyBlockHash) private {\n        \n        uint amount = bet.amount;\n        uint modulo = bet.modulo;\n        uint rollUnder = bet.rollUnder;\n        address gambler = bet.gambler;\n\n        \n        require (amount != 0, \"Bet should be in an 'active' state\");\n\n        \n        bet.amount = 0;\n\n        \n        \n        \n        \n        bytes32 entropy = keccak256(abi.encodePacked(reveal, entropyBlockHash));\n\n        \n        uint dice = uint(entropy) % modulo;\n\n        uint diceWinAmount;\n        uint _jackpotFee;\n        (diceWinAmount, _jackpotFee) = getDiceWinAmount(amount, modulo, rollUnder);\n\n        uint diceWin = 0;\n        uint jackpotWin = 0;\n\n        \n        if (modulo <= MAX_MASK_MODULO) {\n            \n            if ((2 ** dice) & bet.mask != 0) {\n                diceWin = diceWinAmount;\n            }\n\n        } else {\n            \n            if (dice < rollUnder) {\n                diceWin = diceWinAmount;\n            }\n\n        }\n\n        \n        lockedInBets -= uint128(diceWinAmount);\n\n        \n        if (amount >= MIN_JACKPOT_BET) {\n            \n            \n            uint jackpotRng = (uint(entropy) / modulo) % JACKPOT_MODULO;\n\n            \n            if (jackpotRng == 0) {\n                jackpotWin = jackpotSize;\n                jackpotSize = 0;\n            }\n        }\n\n        \n        if (jackpotWin > 0) {\n            emit JackpotPayment(gambler, jackpotWin);\n        }\n\n        \n        sendFunds(gambler, diceWin + jackpotWin == 0 ? 1 wei : diceWin + jackpotWin, diceWin);\n    }\n\n    \n    \n    \n    \n    \n    function refundBet(uint commit) external {\n        \n        Bet storage bet = bets[commit];\n        uint amount = bet.amount;\n\n        require (amount != 0, \"Bet should be in an 'active' state\");\n\n        \n        require (block.number > bet.placeBlockNumber + BET_EXPIRATION_BLOCKS, \"Blockhash can't be queried by EVM.\");\n\n        \n        bet.amount = 0;\n\n        uint diceWinAmount;\n        uint jackpotFee;\n        (diceWinAmount, jackpotFee) = getDiceWinAmount(amount, bet.modulo, bet.rollUnder);\n\n        lockedInBets -= uint128(diceWinAmount);\n        jackpotSize -= uint128(jackpotFee);\n\n        \n        sendFunds(bet.gambler, amount, amount);\n    }\n\n    \n    function getDiceWinAmount(uint amount, uint modulo, uint rollUnder) private pure returns (uint winAmount, uint jackpotFee) {\n        require (0 < rollUnder && rollUnder <= modulo, \"Win probability out of range.\");\n\n        jackpotFee = amount >= MIN_JACKPOT_BET ? JACKPOT_FEE : 0;\n\n        uint houseEdge = amount * HOUSE_EDGE_PERCENT / 100;\n\n        if (houseEdge < HOUSE_EDGE_MINIMUM_AMOUNT) {\n            houseEdge = HOUSE_EDGE_MINIMUM_AMOUNT;\n        }\n\n        require (houseEdge + jackpotFee <= amount, \"Bet doesn't even cover house edge.\");\n        winAmount = (amount - houseEdge - jackpotFee) * modulo / rollUnder;\n    }\n\n    \n    function sendFunds(address beneficiary, uint amount, uint successLogAmount) private {\n        if (beneficiary.send(amount)) { \n            emit Payment(beneficiary, successLogAmount);\n        } else {\n            emit FailedPayment(beneficiary, amount);\n        }\n    }\n\n    \n    uint constant POPCNT_MULT = 0x0000000000002000000000100000000008000000000400000000020000000001;\n    uint constant POPCNT_MASK = 0x0001041041041041041041041041041041041041041041041041041041041041;\n    uint constant POPCNT_MODULO = 0x3F;\n\n    \n\n    \n    \n    \n    \n    \n    \n    \n    \n    \n    \n\n    \n    \n    function verifyMerkleProof(uint seedHash, uint offset) pure private returns (bytes32 blockHash, bytes32 uncleHash) {\n        \n        uint scratchBuf1;  assembly { scratchBuf1 := mload(0x40) }\n\n        uint uncleHeaderLength; uint blobLength; uint shift; uint hashSlot;\n\n        \n        \n        \n        \n        for (;; offset += blobLength) {\n            assembly { blobLength := and(calldataload(sub(offset, 30)), 0xffff) }\n            if (blobLength == 0) {\n                \n                break;\n            }\n\n            assembly { shift := and(calldataload(sub(offset, 28)), 0xffff) }\n            require (shift + 32 <= blobLength, \"Shift bounds check.\");\n\n            offset += 4;\n            assembly { hashSlot := calldataload(add(offset, shift)) }\n            require (hashSlot == 0, \"Non-empty hash slot.\");\n\n            assembly {\n                calldatacopy(scratchBuf1, offset, blobLength)\n                mstore(add(scratchBuf1, shift), seedHash)\n                seedHash := sha3(scratchBuf1, blobLength)\n                uncleHeaderLength := blobLength\n            }\n        }\n\n        \n        uncleHash = bytes32(seedHash);\n\n        \n        uint scratchBuf2 = scratchBuf1 + uncleHeaderLength;\n        uint unclesLength; assembly { unclesLength := and(calldataload(sub(offset, 28)), 0xffff) }\n        uint unclesShift;  assembly { unclesShift := and(calldataload(sub(offset, 26)), 0xffff) }\n        require (unclesShift + uncleHeaderLength <= unclesLength, \"Shift bounds check.\");\n\n        offset += 6;\n        assembly { calldatacopy(scratchBuf2, offset, unclesLength) }\n        memcpy(scratchBuf2 + unclesShift, scratchBuf1, uncleHeaderLength);\n\n        assembly { seedHash := sha3(scratchBuf2, unclesLength) }\n\n        offset += unclesLength;\n\n        \n        assembly {\n            blobLength := and(calldataload(sub(offset, 30)), 0xffff)\n            shift := and(calldataload(sub(offset, 28)), 0xffff)\n        }\n        require (shift + 32 <= blobLength, \"Shift bounds check.\");\n\n        offset += 4;\n        assembly { hashSlot := calldataload(add(offset, shift)) }\n        require (hashSlot == 0, \"Non-empty hash slot.\");\n\n        assembly {\n            calldatacopy(scratchBuf1, offset, blobLength)\n            mstore(add(scratchBuf1, shift), seedHash)\n\n            \n            blockHash := sha3(scratchBuf1, blobLength)\n        }\n    }\n\n    \n    \n    function requireCorrectReceipt(uint offset) view private {\n        uint leafHeaderByte; assembly { leafHeaderByte := byte(0, calldataload(offset)) }\n\n        require (leafHeaderByte >= 0xf7, \"Receipt leaf longer than 55 bytes.\");\n        offset += leafHeaderByte - 0xf6;\n\n        uint pathHeaderByte; assembly { pathHeaderByte := byte(0, calldataload(offset)) }\n\n        if (pathHeaderByte <= 0x7f) {\n            offset += 1;\n\n        } else {\n            require (pathHeaderByte >= 0x80 && pathHeaderByte <= 0xb7, \"Path is an RLP string.\");\n            offset += pathHeaderByte - 0x7f;\n        }\n\n        uint receiptStringHeaderByte; assembly { receiptStringHeaderByte := byte(0, calldataload(offset)) }\n        require (receiptStringHeaderByte == 0xb9, \"Receipt string is always at least 256 bytes long, but less than 64k.\");\n        offset += 3;\n\n        uint receiptHeaderByte; assembly { receiptHeaderByte := byte(0, calldataload(offset)) }\n        require (receiptHeaderByte == 0xf9, \"Receipt is always at least 256 bytes long, but less than 64k.\");\n        offset += 3;\n\n        uint statusByte; assembly { statusByte := byte(0, calldataload(offset)) }\n        require (statusByte == 0x1, \"Status should be success.\");\n        offset += 1;\n\n        uint cumGasHeaderByte; assembly { cumGasHeaderByte := byte(0, calldataload(offset)) }\n        if (cumGasHeaderByte <= 0x7f) {\n            offset += 1;\n\n        } else {\n            require (cumGasHeaderByte >= 0x80 && cumGasHeaderByte <= 0xb7, \"Cumulative gas is an RLP string.\");\n            offset += cumGasHeaderByte - 0x7f;\n        }\n\n        uint bloomHeaderByte; assembly { bloomHeaderByte := byte(0, calldataload(offset)) }\n        require (bloomHeaderByte == 0xb9, \"Bloom filter is always 256 bytes long.\");\n        offset += 256 + 3;\n\n        uint logsListHeaderByte; assembly { logsListHeaderByte := byte(0, calldataload(offset)) }\n        require (logsListHeaderByte == 0xf8, \"Logs list is less than 256 bytes long.\");\n        offset += 2;\n\n        uint logEntryHeaderByte; assembly { logEntryHeaderByte := byte(0, calldataload(offset)) }\n        require (logEntryHeaderByte == 0xf8, \"Log entry is less than 256 bytes long.\");\n        offset += 2;\n\n        uint addressHeaderByte; assembly { addressHeaderByte := byte(0, calldataload(offset)) }\n        require (addressHeaderByte == 0x94, \"Address is 20 bytes long.\");\n\n        uint logAddress; assembly { logAddress := and(calldataload(sub(offset, 11)), 0xffffffffffffffffffffffffffffffffffffffff) }\n        require (logAddress == uint(address(this)));\n    }\n\n    \n    function memcpy(uint dest, uint src, uint len) pure private {\n        \n        for(; len >= 32; len -= 32) {\n            assembly { mstore(dest, mload(src)) }\n            dest += 32; src += 32;\n        }\n\n        \n        uint mask = 256 ** (32 - len) - 1;\n        assembly {\n            let srcpart := and(mload(src), not(mask))\n            let destpart := and(mload(dest), mask)\n            mstore(dest, or(destpart, srcpart))\n        }\n    }\n}\n",
  "sourcePath": "/home/XXX-1/smartrim-experiment/for-rlf/0xfbfa60a21b423cb364de616a37464b61c1bc4c88_2/contracts/0xfbfa60a21b423cb364de616a37464b61c1bc4c88_2.sol",
  "compiler": {
    "name": "solc",
    "version": "0.4.25+commit.59dbf8f1.Emscripten.clang"
  },
  "schemaVersion": "3.4.16",
  "updatedAt": "2025-08-14T03:37:49.452Z",
  "networkType": "ethereum",
  "devdoc": {
    "methods": {}
  },
  "userdoc": {
    "methods": {}
  }
}