{
  "contractName": "Wallet",
  "abi": [
    {
      "constant": false,
      "inputs": [],
      "name": "initWallet",
      "outputs": [],
      "payable": false,
      "stateMutability": "nonpayable",
      "type": "function"
    },
    {
      "constant": false,
      "inputs": [],
      "name": "deposit",
      "outputs": [],
      "payable": true,
      "stateMutability": "payable",
      "type": "function"
    },
    {
      "constant": false,
      "inputs": [
        {
          "name": "amount",
          "type": "uint256"
        }
      ],
      "name": "withdraw",
      "outputs": [],
      "payable": false,
      "stateMutability": "nonpayable",
      "type": "function"
    },
    {
      "constant": false,
      "inputs": [
        {
          "name": "to",
          "type": "address"
        }
      ],
      "name": "migrateTo",
      "outputs": [],
      "payable": false,
      "stateMutability": "nonpayable",
      "type": "function"
    }
  ],
  "bytecode": "0x608060405234801561001057600080fd5b506103e1806100206000396000f300608060405260043610610062576000357c0100000000000000000000000000000000000000000000000000000000900463ffffffff1680632e1a7d4d146100675780633e326048146100945780634ddaf8f2146100ab578063d0e30db0146100ee575b600080fd5b34801561007357600080fd5b50610092600480360381019080803590602001909291905050506100f8565b005b3480156100a057600080fd5b506100a96101dd565b005b3480156100b757600080fd5b506100ec600480360381019080803573ffffffffffffffffffffffffffffffffffffffff16906020019092919050505061021f565b005b6100f66102db565b005b600160003373ffffffffffffffffffffffffffffffffffffffff1673ffffffffffffffffffffffffffffffffffffffff16815260200190815260200160002054811115151561014657600080fd5b3373ffffffffffffffffffffffffffffffffffffffff166108fc829081150290604051600060405180830381858888f1935050505015801561018c573d6000803e3d6000fd5b5080600160003373ffffffffffffffffffffffffffffffffffffffff1673ffffffffffffffffffffffffffffffffffffffff1681526020019081526020016000206000828254039250508190555050565b336000806101000a81548173ffffffffffffffffffffffffffffffffffffffff021916908373ffffffffffffffffffffffffffffffffffffffff160217905550565b3373ffffffffffffffffffffffffffffffffffffffff166000809054906101000a900473ffffffffffffffffffffffffffffffffffffffff1673ffffffffffffffffffffffffffffffffffffffff1614151561027a57600080fd5b8073ffffffffffffffffffffffffffffffffffffffff166108fc3073ffffffffffffffffffffffffffffffffffffffff16319081150290604051600060405180830381858888f193505050501580156102d7573d6000803e3d6000fd5b5050565b600160003373ffffffffffffffffffffffffffffffffffffffff1673ffffffffffffffffffffffffffffffffffffffff1681526020019081526020016000205434600160003373ffffffffffffffffffffffffffffffffffffffff1673ffffffffffffffffffffffffffffffffffffffff168152602001908152602001600020540111151561036657fe5b34600160003373ffffffffffffffffffffffffffffffffffffffff1673ffffffffffffffffffffffffffffffffffffffff168152602001908152602001600020600082825401925050819055505600a165627a7a72305820b63df39cc6f56c867f041e263c3abbdc2f7225c7d321c4f6d944ae5cc4e26a2e0029",
  "source": "\n\n \n\n \n\n contract Wallet {\n     address creator;\n\n     mapping(address => uint256) balances;\n     \n     \n     function initWallet() public {\n         creator = msg.sender;\n     }\n\n     function deposit() public payable {\n         assert(balances[msg.sender] + msg.value > balances[msg.sender]);\n         balances[msg.sender] += msg.value;\n     }\n\n     function withdraw(uint256 amount) public {\n         require(amount <= balances[msg.sender]);\n         msg.sender.transfer(amount);\n         balances[msg.sender] -= amount;\n     }\n\n     \n\n     function migrateTo(address to) public {\n         require(creator == msg.sender);\n         to.transfer(this.balance); \n     }\n\n }\n",
  "sourcePath": "/home/XXX-1/smartrim-experiment/for-rlf/wallet_03_wrong_constructor/contracts/wallet_03_wrong_constructor.sol",
  "compiler": {
    "name": "solc",
    "version": "0.4.25+commit.59dbf8f1.Emscripten.clang"
  },
  "schemaVersion": "3.4.16",
  "updatedAt": "2025-08-14T03:32:45.861Z",
  "networkType": "ethereum",
  "devdoc": {
    "methods": {}
  },
  "userdoc": {
    "methods": {}
  }
}