{
  "contractName": "DoubleOrNothingImpl",
  "abi": [
    {
      "constant": true,
      "inputs": [],
      "name": "maxWagerWei",
      "outputs": [
        {
          "name": "",
          "type": "uint256"
        }
      ],
      "payable": false,
      "stateMutability": "view",
      "type": "function"
    },
    {
      "constant": true,
      "inputs": [],
      "name": "waitTimeBlocks",
      "outputs": [
        {
          "name": "",
          "type": "uint256"
        }
      ],
      "payable": false,
      "stateMutability": "view",
      "type": "function"
    },
    {
      "constant": true,
      "inputs": [],
      "name": "owner",
      "outputs": [
        {
          "name": "",
          "type": "address"
        }
      ],
      "payable": false,
      "stateMutability": "view",
      "type": "function"
    },
    {
      "constant": true,
      "inputs": [],
      "name": "payoutOdds",
      "outputs": [
        {
          "name": "",
          "type": "uint256"
        }
      ],
      "payable": false,
      "stateMutability": "view",
      "type": "function"
    },
    {
      "constant": false,
      "inputs": [],
      "name": "owned",
      "outputs": [],
      "payable": false,
      "stateMutability": "nonpayable",
      "type": "function"
    },
    {
      "constant": false,
      "inputs": [
        {
          "name": "newOwner",
          "type": "address"
        }
      ],
      "name": "transferOwnership",
      "outputs": [],
      "payable": false,
      "stateMutability": "nonpayable",
      "type": "function"
    },
    {
      "inputs": [],
      "payable": false,
      "stateMutability": "nonpayable",
      "type": "constructor"
    },
    {
      "payable": true,
      "stateMutability": "payable",
      "type": "fallback"
    },
    {
      "constant": false,
      "inputs": [
        {
          "name": "maxWager",
          "type": "uint256"
        }
      ],
      "name": "setMaxWagerWei",
      "outputs": [],
      "payable": false,
      "stateMutability": "nonpayable",
      "type": "function"
    },
    {
      "constant": false,
      "inputs": [
        {
          "name": "waitTime",
          "type": "uint256"
        }
      ],
      "name": "setWaitTimeBlocks",
      "outputs": [],
      "payable": false,
      "stateMutability": "nonpayable",
      "type": "function"
    },
    {
      "constant": false,
      "inputs": [
        {
          "name": "odds",
          "type": "uint256"
        }
      ],
      "name": "setPayoutOdds",
      "outputs": [],
      "payable": false,
      "stateMutability": "nonpayable",
      "type": "function"
    },
    {
      "constant": false,
      "inputs": [
        {
          "name": "recipient",
          "type": "address"
        },
        {
          "name": "balance",
          "type": "uint256"
        }
      ],
      "name": "withdraw",
      "outputs": [],
      "payable": false,
      "stateMutability": "nonpayable",
      "type": "function"
    },
    {
      "constant": false,
      "inputs": [
        {
          "name": "wager_owner",
          "type": "address"
        }
      ],
      "name": "ownerPayout",
      "outputs": [],
      "payable": false,
      "stateMutability": "nonpayable",
      "type": "function"
    },
    {
      "constant": false,
      "inputs": [],
      "name": "makeWager",
      "outputs": [],
      "payable": true,
      "stateMutability": "payable",
      "type": "function"
    },
    {
      "constant": true,
      "inputs": [],
      "name": "getMyWager",
      "outputs": [
        {
          "name": "wagerWei",
          "type": "uint256"
        },
        {
          "name": "creationBlockNumber",
          "type": "uint256"
        },
        {
          "name": "active",
          "type": "bool"
        }
      ],
      "payable": false,
      "stateMutability": "view",
      "type": "function"
    },
    {
      "constant": true,
      "inputs": [
        {
          "name": "wager_owner",
          "type": "address"
        }
      ],
      "name": "getWager",
      "outputs": [
        {
          "name": "wagerWei",
          "type": "uint256"
        },
        {
          "name": "creationBlockNumber",
          "type": "uint256"
        },
        {
          "name": "active",
          "type": "bool"
        }
      ],
      "payable": false,
      "stateMutability": "view",
      "type": "function"
    },
    {
      "constant": false,
      "inputs": [],
      "name": "payout",
      "outputs": [],
      "payable": false,
      "stateMutability": "nonpayable",
      "type": "function"
    }
  ],
  "bytecode": "0x608060405234801561001057600080fd5b5033600460006101000a81548173ffffffffffffffffffffffffffffffffffffffff021916908373ffffffffffffffffffffffffffffffffffffffff16021790555067016345785d8a00006000819055506002600181905550611356600281905550610d08806100816000396000f3006080604052600436106100db576000357c0100000000000000000000000000000000000000000000000000000000900463ffffffff16806311c52ec01461013d5780631828db821461016a5780631ed01f61146101ad578063347d5bc2146101d857806363bd1d4a14610205578063695741f81461021c5780637e9a8685146102475780638da5cb5b146102b05780638ef483eb14610307578063aefd029914610344578063b9ed93e91461034e578063c44b10d91461037b578063df32754b146103a6578063f2fde38b146103bd578063f3fef3a314610400575b600460009054906101000a900473ffffffffffffffffffffffffffffffffffffffff1673ffffffffffffffffffffffffffffffffffffffff163373ffffffffffffffffffffffffffffffffffffffff1614151561013b5761013a61044d565b5b005b34801561014957600080fd5b50610168600480360381019080803590602001909291905050506105bb565b005b34801561017657600080fd5b506101ab600480360381019080803573ffffffffffffffffffffffffffffffffffffffff169060200190929190505050610621565b005b3480156101b957600080fd5b506101c2610689565b6040518082815260200191505060405180910390f35b3480156101e457600080fd5b506102036004803603810190808035906020019092919050505061068f565b005b34801561021157600080fd5b5061021a6106f5565b005b34801561022857600080fd5b50610231610700565b6040518082815260200191505060405180910390f35b34801561025357600080fd5b50610288600480360381019080803573ffffffffffffffffffffffffffffffffffffffff169060200190929190505050610706565b6040518084815260200183815260200182151515158152602001935050505060405180910390f35b3480156102bc57600080fd5b506102c5610777565b604051808273ffffffffffffffffffffffffffffffffffffffff1673ffffffffffffffffffffffffffffffffffffffff16815260200191505060405180910390f35b34801561031357600080fd5b5061031c61079d565b6040518084815260200183815260200182151515158152602001935050505060405180910390f35b61034c61044d565b005b34801561035a57600080fd5b50610379600480360381019080803590602001909291905050506107b6565b005b34801561038757600080fd5b5061039061081c565b6040518082815260200191505060405180910390f35b3480156103b257600080fd5b506103bb610822565b005b3480156103c957600080fd5b506103fe600480360381019080803573ffffffffffffffffffffffffffffffffffffffff169060200190929190505050610865565b005b34801561040c57600080fd5b5061044b600480360381019080803573ffffffffffffffffffffffffffffffffffffffff16906020019092919080359060200190929190505050610905565b005b600034148061045d575060005434115b1561046757600080fd5b600360003373ffffffffffffffffffffffffffffffffffffffff1673ffffffffffffffffffffffffffffffffffffffff16815260200190815260200160002060030160009054906101000a900460ff16156104c157600080fd5b6080604051908101604052803373ffffffffffffffffffffffffffffffffffffffff16815260200134815260200143815260200160011515815250600360003373ffffffffffffffffffffffffffffffffffffffff1673ffffffffffffffffffffffffffffffffffffffff16815260200190815260200160002060008201518160000160006101000a81548173ffffffffffffffffffffffffffffffffffffffff021916908373ffffffffffffffffffffffffffffffffffffffff160217905550602082015181600101556040820151816002015560608201518160030160006101000a81548160ff021916908315150217905550905050565b600460009054906101000a900473ffffffffffffffffffffffffffffffffffffffff1673ffffffffffffffffffffffffffffffffffffffff163373ffffffffffffffffffffffffffffffffffffffff1614151561061757600080fd5b8060008190555050565b600460009054906101000a900473ffffffffffffffffffffffffffffffffffffffff1673ffffffffffffffffffffffffffffffffffffffff163373ffffffffffffffffffffffffffffffffffffffff1614151561067d57600080fd5b610686816109ac565b50565b60005481565b600460009054906101000a900473ffffffffffffffffffffffffffffffffffffffff1673ffffffffffffffffffffffffffffffffffffffff163373ffffffffffffffffffffffffffffffffffffffff161415156106eb57600080fd5b8060028190555050565b6106fe336109ac565b565b60015481565b600080600080600360008673ffffffffffffffffffffffffffffffffffffffff1673ffffffffffffffffffffffffffffffffffffffff1681526020019081526020016000209050806001015481600201548260030160009054906101000a900460ff16935093509350509193909250565b600460009054906101000a900473ffffffffffffffffffffffffffffffffffffffff1681565b60008060006107ab33610706565b925092509250909192565b600460009054906101000a900473ffffffffffffffffffffffffffffffffffffffff1673ffffffffffffffffffffffffffffffffffffffff163373ffffffffffffffffffffffffffffffffffffffff1614151561081257600080fd5b8060018190555050565b60025481565b33600460006101000a81548173ffffffffffffffffffffffffffffffffffffffff021916908373ffffffffffffffffffffffffffffffffffffffff160217905550565b600460009054906101000a900473ffffffffffffffffffffffffffffffffffffffff1673ffffffffffffffffffffffffffffffffffffffff163373ffffffffffffffffffffffffffffffffffffffff161415156108c157600080fd5b80600460006101000a81548173ffffffffffffffffffffffffffffffffffffffff021916908373ffffffffffffffffffffffffffffffffffffffff16021790555050565b600460009054906101000a900473ffffffffffffffffffffffffffffffffffffffff1673ffffffffffffffffffffffffffffffffffffffff163373ffffffffffffffffffffffffffffffffffffffff1614151561096157600080fd5b8173ffffffffffffffffffffffffffffffffffffffff166108fc829081150290604051600060405180830381858888f193505050501580156109a7573d6000803e3d6000fd5b505050565b600080600080600360008673ffffffffffffffffffffffffffffffffffffffff1673ffffffffffffffffffffffffffffffffffffffff16815260200190815260200160002060030160009054906101000a900460ff161515610a0d57600080fd5b600360008673ffffffffffffffffffffffffffffffffffffffff1673ffffffffffffffffffffffffffffffffffffffff1681526020019081526020016000206002015443039350600154841115610c6a5760018054600360008873ffffffffffffffffffffffffffffffffffffffff1673ffffffffffffffffffffffffffffffffffffffff1681526020019081526020016000206002015401039250610ab583612710610c71565b9150600254821015610c0d57610b0e600360008773ffffffffffffffffffffffffffffffffffffffff1673ffffffffffffffffffffffffffffffffffffffff168152602001908152602001600020600101546002610ca9565b9050600360008673ffffffffffffffffffffffffffffffffffffffff1673ffffffffffffffffffffffffffffffffffffffff16815260200190815260200160002060000160009054906101000a900473ffffffffffffffffffffffffffffffffffffffff1673ffffffffffffffffffffffffffffffffffffffff166108fc829081150290604051600060405180830381858888f1935050505015610c08576000600360008773ffffffffffffffffffffffffffffffffffffffff1673ffffffffffffffffffffffffffffffffffffffff16815260200190815260200160002060030160006101000a81548160ff0219169083151502179055505b610c69565b6000600360008773ffffffffffffffffffffffffffffffffffffffff1673ffffffffffffffffffffffffffffffffffffffff16815260200190815260200160002060030160006101000a81548160ff0219169083151502179055505b5b5050505050565b6000818340604051808260001916600019168152602001915050604051809103902060019004811515610ca057fe5b06905092915050565b60008082840290506000841480610cca5750828482811515610cc757fe5b04145b1515610cd257fe5b80915050929150505600a165627a7a72305820163b1cd4086f1090d1f589a175f3ec95c3a14a26c2273af689796dd2237735940029",
  "source": "\n\n\ncontract SafeMath {\n    function safeAdd(uint256 x, uint256 y) internal returns(uint256) {\n        uint256 z = x + y;\n        assert((z >= x) && (z >= y));\n        return z;\n    }\n\n    function safeSubtract(uint256 x, uint256 y) internal returns(uint256) {\n        assert(x >= y);\n        uint256 z = x - y;\n        return z;\n    }\n\n    function safeMult(uint256 x, uint256 y) internal returns(uint256) {\n        uint256 z = x * y;\n        assert((x == 0)||(z/x == y));\n        return z;\n    }\n}\n\n\ncontract Random {\n    \n    function getRand(uint blockNumber, uint max) constant internal returns(uint) {\n        return(uint(sha3(block.blockhash(blockNumber))) % max);\n    }\n}\n\n\ncontract Owned {\n    address public owner;\n    function owned() {\n        owner = msg.sender;\n    }\n    modifier onlyOwner {\n        if (msg.sender != owner) throw;\n        _;\n    }\n    function transferOwnership(address newOwner) onlyOwner {\n        owner = newOwner;\n    }\n}\n\n\n\n\n\n\ncontract DoubleOrNothing {\n    \n    uint256 public maxWagerWei;\n    \n    \n    uint public waitTimeBlocks;\n    \n    \n    \n    uint public payoutOdds;\n    \n    \n    struct Wager {\n        address sender;\n        uint256 wagerWei;\n        uint256 creationBlockNumber;\n        bool active;\n    }\n    \n    \n    \n    mapping (address => Wager) wagers;\n    \n    function makeWager() payable public;\n    function payout() public;\n}\n\ncontract DoubleOrNothingImpl is DoubleOrNothing, Owned, Random, SafeMath {\n    \n    \n    function DoubleOrNothingImpl() {\n        owner = msg.sender;\n        maxWagerWei = 100000000000000000;\n        waitTimeBlocks = 2;\n        payoutOdds = 4950;\n    }\n    \n    \n    function setMaxWagerWei(uint256 maxWager) public onlyOwner {\n        maxWagerWei = maxWager;\n    }\n    \n    \n    function setWaitTimeBlocks(uint waitTime) public onlyOwner {\n        waitTimeBlocks = waitTime;\n    }\n    \n    \n    function setPayoutOdds(uint odds) public onlyOwner {\n        payoutOdds = odds;\n    }\n    \n    \n    function withdraw(address recipient, uint256 balance) public onlyOwner {\n        recipient.transfer(balance);\n    }\n    \n    \n    function ownerPayout(address wager_owner) public onlyOwner {\n        _payout(wager_owner);\n    }\n    \n    \n    \n    function () payable public {\n        if (msg.sender != owner) {\n            makeWager();\n        }\n    }\n    \n    \n    function makeWager() payable public {\n        if (msg.value == 0 || msg.value > maxWagerWei) throw;\n        if (wagers[msg.sender].active) {\n            \n            throw;\n        }\n        wagers[msg.sender] = Wager({\n            sender: msg.sender,\n            wagerWei: msg.value,\n            creationBlockNumber: block.number,\n            active: true \n        });\n    }\n    \n    \n    function getMyWager() constant public returns (\n        uint256 wagerWei,\n        uint creationBlockNumber,\n        bool active) {\n        return getWager(msg.sender);\n    }\n    \n    \n    function getWager(address wager_owner) constant public returns (\n        uint256 wagerWei,\n        uint creationBlockNumber,\n        bool active) {\n        Wager thisWager = wagers[wager_owner];\n        return (thisWager.wagerWei, thisWager.creationBlockNumber, thisWager.active);\n    }\n    \n    \n    function payout() public {\n        _payout(msg.sender);\n    }\n    \n    \n    function _payout(address wager_owner) internal {\n        if (!wagers[wager_owner].active) {\n            \n            throw;\n        }\n        uint256 blockDepth = block.number - wagers[wager_owner].creationBlockNumber;\n        if (blockDepth > waitTimeBlocks) {\n            \n            uint256 payoutBlock = wagers[wager_owner].creationBlockNumber + waitTimeBlocks - 1;\n            uint randNum = getRand(payoutBlock, 10000);\n            if (randNum < payoutOdds) {\n                \n                uint256 winnings = safeMult(wagers[wager_owner].wagerWei, 2);\n                if (wagers[wager_owner].sender.send(winnings)) {\n                    wagers[wager_owner].active = false;\n                }\n            } else {\n                \n                wagers[wager_owner].active = false;\n            }\n        }\n    }\n}",
  "sourcePath": "/home/XXX-1/smartrim-experiment/for-rlf/0x66d58f0a2a44742688843ceb8c0fa8d8567e3c54/contracts/0x66d58f0a2a44742688843ceb8c0fa8d8567e3c54.sol",
  "compiler": {
    "name": "solc",
    "version": "0.4.25+commit.59dbf8f1.Emscripten.clang"
  },
  "schemaVersion": "3.4.16",
  "updatedAt": "2025-08-14T03:56:33.427Z",
  "networkType": "ethereum",
  "devdoc": {
    "methods": {}
  },
  "userdoc": {
    "methods": {}
  }
}