{
  "contractName": "SafeMath",
  "abi": [
    {
      "constant": true,
      "inputs": [
        {
          "name": "a",
          "type": "uint256"
        },
        {
          "name": "b",
          "type": "uint256"
        }
      ],
      "name": "safeMul",
      "outputs": [
        {
          "name": "",
          "type": "uint256"
        }
      ],
      "payable": false,
      "stateMutability": "pure",
      "type": "function"
    },
    {
      "constant": true,
      "inputs": [
        {
          "name": "a",
          "type": "uint256"
        },
        {
          "name": "b",
          "type": "uint256"
        }
      ],
      "name": "safeDiv",
      "outputs": [
        {
          "name": "",
          "type": "uint256"
        }
      ],
      "payable": false,
      "stateMutability": "pure",
      "type": "function"
    },
    {
      "constant": true,
      "inputs": [
        {
          "name": "a",
          "type": "uint256"
        },
        {
          "name": "b",
          "type": "uint256"
        }
      ],
      "name": "safeSub",
      "outputs": [
        {
          "name": "",
          "type": "uint256"
        }
      ],
      "payable": false,
      "stateMutability": "pure",
      "type": "function"
    },
    {
      "constant": true,
      "inputs": [
        {
          "name": "a",
          "type": "uint256"
        },
        {
          "name": "b",
          "type": "uint256"
        }
      ],
      "name": "safeAdd",
      "outputs": [
        {
          "name": "",
          "type": "uint256"
        }
      ],
      "payable": false,
      "stateMutability": "pure",
      "type": "function"
    },
    {
      "constant": true,
      "inputs": [
        {
          "name": "assertion",
          "type": "bool"
        }
      ],
      "name": "_assert",
      "outputs": [],
      "payable": false,
      "stateMutability": "pure",
      "type": "function"
    }
  ],
  "bytecode": "0x608060405234801561001057600080fd5b506102bd806100206000396000f30060806040526004361061006d576000357c0100000000000000000000000000000000000000000000000000000000900463ffffffff168063a293d1e814610072578063b5931f7c146100bd578063cdeda05514610108578063d05c78da14610137578063e6cb901314610182575b600080fd5b34801561007e57600080fd5b506100a760048036038101908080359060200190929190803590602001909291905050506101cd565b6040518082815260200191505060405180910390f35b3480156100c957600080fd5b506100f260048036038101908080359060200190929190803590602001909291905050506101e6565b6040518082815260200191505060405180910390f35b34801561011457600080fd5b50610135600480360381019080803515159060200190929190505050610227565b005b34801561014357600080fd5b5061016c6004803603810190808035906020019092919080359060200190929190505050610234565b6040518082815260200191505060405180910390f35b34801561018e57600080fd5b506101b76004803603810190808035906020019092919080359060200190929190505050610267565b6040518082815260200191505060405180910390f35b60008282111515156101db57fe5b818303905092915050565b6000806000831115156101f557fe5b828481151561020057fe5b049050828481151561020e57fe5b06818402018414151561021d57fe5b8091505092915050565b8015151561023157fe5b50565b60008082840290506000841480610255575082848281151561025257fe5b04145b151561025d57fe5b8091505092915050565b600080828401905083811015801561027f5750828110155b151561028757fe5b80915050929150505600a165627a7a72305820fb8a6fb626ec8ebdf3bb7e77cf6bdab0bb42277e17814ae9631e365943dd72c90029",
  "source": "\n\ncontract SafeMath {\n  function safeMul(uint256 a, uint256 b) public pure  returns (uint256)  {\n    uint256 c = a * b;\n    assert(a == 0 || c / a == b);\n    return c;\n  }\n\n  function safeDiv(uint256 a, uint256 b)public pure returns (uint256) {\n    assert(b > 0);\n    uint256 c = a / b;\n    assert(a == b * c + a % b);\n    return c;\n  }\n\n  function safeSub(uint256 a, uint256 b)public pure returns (uint256) {\n    assert(b <= a);\n    return a - b;\n  }\n\n  function safeAdd(uint256 a, uint256 b)public pure returns (uint256) {\n    uint256 c = a + b;\n    assert(c>=a && c>=b);\n    return c;\n  }\n\n  function _assert(bool assertion)public pure {\n    assert(!assertion);\n  }\n}\n\n\ncontract ERC20Interface {\n  string public name;\n  string public symbol;\n  uint8 public  decimals;\n  uint public totalSupply;\n  function transfer(address _to, uint256 _value)public returns (bool success);\n  function transferFrom(address _from, address _to, uint256 _value)public returns (bool success);\n  \n  function approve(address _spender, uint256 _value)public returns (bool success);\n  function allowance(address _owner, address _spender)public view returns (uint256 remaining);\n  event Transfer(address indexed _from, address indexed _to, uint256 _value);\n  event Approval(address indexed _owner, address indexed _spender, uint256 _value);\n }\n \ncontract ERC20 is ERC20Interface,SafeMath {\n\n\n    mapping(address => uint256) public balanceOf;\n\n    mapping(address => mapping(address => uint256)) allowed;\n\n    constructor(string _name) public {\n       name = _name;  \n       symbol = \"Only_1\";\n       decimals = 4;\n       totalSupply = 360000000000;\n       balanceOf[msg.sender] = totalSupply;\n    }\n\n  function transfer(address _to, uint256 _value)public returns (bool success) {\n      require(_to != address(0));\n      require(balanceOf[msg.sender] >= _value);\n      require(balanceOf[ _to] + _value >= balanceOf[ _to]);  \n\n      balanceOf[msg.sender] =SafeMath.safeSub(balanceOf[msg.sender],_value) ;\n      balanceOf[_to] =SafeMath.safeAdd(balanceOf[_to] ,_value);\n\n   \n      emit Transfer(msg.sender, _to, _value);\n\n      return true;\n  }\n\n\n  function transferFrom(address _from, address _to, uint256 _value)public returns (bool success) {\n      require(_to != address(0));\n      require(allowed[_from][msg.sender] >= _value);\n      require(balanceOf[_from] >= _value);\n      require(balanceOf[_to] + _value >= balanceOf[_to]);\n\n      balanceOf[_from] =SafeMath.safeSub(balanceOf[_from],_value) ;\n      balanceOf[_to] = SafeMath.safeAdd(balanceOf[_to],_value);\n\n      allowed[_from][msg.sender] =SafeMath.safeSub(allowed[_from][msg.sender], _value);\n\n      emit Transfer(msg.sender, _to, _value);\n      return true;\n  }\n\n  function approve(address _spender, uint256 _value)public returns (bool success) {\n      allowed[msg.sender][_spender] = _value;\n\n      emit Approval(msg.sender, _spender, _value);\n      return true;\n  }\n\n  function allowance(address _owner, address _spender)public view returns (uint256 remaining) {\n      return allowed[_owner][_spender];\n  }\n\n}\n\n\ncontract owned {\n    address public owner;\n\n    constructor () public {\n        owner = msg.sender;\n    }\n\n    modifier onlyOwner {\n        require(msg.sender == owner);\n        _;\n    }\n\n    function transferOwnerShip(address newOwer) public onlyOwner {\n        owner = newOwer;\n    }\n\n}\n\ncontract SelfDesctructionContract is owned {\n   \n   string  public someValue;\n   modifier ownerRestricted {\n      require(owner == msg.sender);\n      _;\n   } \n \n   function SelfDesctruction()public {\n      owner = msg.sender;\n   }\n   \n   function setSomeValue(string value)public{\n      someValue = value;\n   } \n\n   function destroyContract() ownerRestricted public{\n     selfdestruct(owner);\n   }\n}\n\n\n\ncontract Only_1 is ERC20, SelfDesctructionContract{\n\n    mapping (address => bool) public frozenAccount;\n\n    event AddSupply(uint amount);\n    event FrozenFunds(address target, bool frozen);\n    event Burn(address target, uint amount);\n\n    constructor (string _name) ERC20(_name) public {\n\n    }\n\n    function mine(address target, uint amount) public onlyOwner {\n        totalSupply =SafeMath.safeAdd(totalSupply,amount) ;\n        balanceOf[target] = SafeMath.safeAdd(balanceOf[target],amount);\n\n        emit AddSupply(amount);\n        emit Transfer(0, target, amount);\n    }\n\n    function freezeAccount(address target, bool freeze) public onlyOwner {\n        frozenAccount[target] = freeze;\n        emit FrozenFunds(target, freeze);\n    }\n\n\n  function transfer(address _to, uint256 _value) public returns (bool success) {\n        success = _transfer(msg.sender, _to, _value);\n  }\n\n\n  function transferFrom(address _from, address _to, uint256 _value) public returns (bool success) {\n        require(allowed[_from][msg.sender] >= _value);\n        success =  _transfer(_from, _to, _value);\n        allowed[_from][msg.sender] =SafeMath.safeSub(allowed[_from][msg.sender],_value) ;\n  }\n\n  function _transfer(address _from, address _to, uint256 _value) internal returns (bool) {\n      require(_to != address(0));\n      require(!frozenAccount[_from]);\n\n      require(balanceOf[_from] >= _value);\n      require(balanceOf[ _to] + _value >= balanceOf[ _to]);\n\n      balanceOf[_from] =SafeMath.safeSub(balanceOf[_from],_value) ;\n      balanceOf[_to] =SafeMath.safeAdd(balanceOf[_to],_value) ;\n\n      emit Transfer(_from, _to, _value);\n      return true;\n  }\n\n    function burn(uint256 _value) public returns (bool success) {\n        require(owner == msg.sender);\n        require(balanceOf[msg.sender] >= _value);\n\n        totalSupply =SafeMath.safeSub(totalSupply,_value) ;\n        balanceOf[msg.sender] =SafeMath.safeSub(balanceOf[msg.sender],_value) ;\n\n        emit Burn(msg.sender, _value);\n        return true;\n    }\n\n    function burnFrom(address _from, uint256 _value)  public returns (bool success) {\n        require(owner == msg.sender);\n        require(balanceOf[_from] >= _value);\n        require(allowed[_from][msg.sender] >= _value);\n\n        totalSupply =SafeMath.safeSub(totalSupply,_value) ;\n        balanceOf[msg.sender] =SafeMath.safeSub(balanceOf[msg.sender], _value);\n        allowed[_from][msg.sender] =SafeMath.safeSub(allowed[_from][msg.sender],_value);\n\n        emit Burn(msg.sender, _value);\n        return true;\n    }\n}\n    \ncontract Only is Only_1 {\n    constructor() Only_1(\"rlf\") public { }\n}\n",
  "sourcePath": "/home/XXX-1/smartrim-experiment/for-rlf/0x5822e54dbc2a20856a4740def71240c3e6f553ea/contracts/0x5822e54dbc2a20856a4740def71240c3e6f553ea.sol",
  "compiler": {
    "name": "solc",
    "version": "0.4.25+commit.59dbf8f1.Emscripten.clang"
  },
  "schemaVersion": "3.4.16",
  "updatedAt": "2025-08-14T03:54:29.646Z",
  "devdoc": {
    "methods": {}
  },
  "userdoc": {
    "methods": {}
  }
}