{
  "contractName": "Gorgona",
  "abi": [
    {
      "constant": true,
      "inputs": [],
      "name": "payoutDate",
      "outputs": [
        {
          "name": "",
          "type": "uint256"
        }
      ],
      "payable": false,
      "stateMutability": "view",
      "type": "function"
    },
    {
      "constant": true,
      "inputs": [
        {
          "name": "",
          "type": "address"
        }
      ],
      "name": "investors",
      "outputs": [
        {
          "name": "id",
          "type": "uint256"
        },
        {
          "name": "deposit",
          "type": "uint256"
        },
        {
          "name": "deposits",
          "type": "uint256"
        },
        {
          "name": "date",
          "type": "uint256"
        },
        {
          "name": "referrer",
          "type": "address"
        }
      ],
      "payable": false,
      "stateMutability": "view",
      "type": "function"
    },
    {
      "constant": true,
      "inputs": [],
      "name": "owner",
      "outputs": [
        {
          "name": "",
          "type": "address"
        }
      ],
      "payable": false,
      "stateMutability": "view",
      "type": "function"
    },
    {
      "constant": true,
      "inputs": [
        {
          "name": "",
          "type": "uint256"
        }
      ],
      "name": "addresses",
      "outputs": [
        {
          "name": "",
          "type": "address"
        }
      ],
      "payable": false,
      "stateMutability": "view",
      "type": "function"
    },
    {
      "inputs": [],
      "payable": false,
      "stateMutability": "nonpayable",
      "type": "constructor"
    },
    {
      "payable": true,
      "stateMutability": "payable",
      "type": "fallback"
    },
    {
      "anonymous": false,
      "inputs": [
        {
          "indexed": false,
          "name": "addr",
          "type": "address"
        },
        {
          "indexed": false,
          "name": "amount",
          "type": "uint256"
        }
      ],
      "name": "Invest",
      "type": "event"
    },
    {
      "anonymous": false,
      "inputs": [
        {
          "indexed": false,
          "name": "amount",
          "type": "uint256"
        },
        {
          "indexed": false,
          "name": "txs",
          "type": "uint256"
        }
      ],
      "name": "PayoutCumulative",
      "type": "event"
    },
    {
      "anonymous": false,
      "inputs": [
        {
          "indexed": false,
          "name": "addr",
          "type": "address"
        },
        {
          "indexed": false,
          "name": "amount",
          "type": "uint256"
        }
      ],
      "name": "PayoutSelf",
      "type": "event"
    },
    {
      "anonymous": false,
      "inputs": [
        {
          "indexed": false,
          "name": "addr",
          "type": "address"
        },
        {
          "indexed": false,
          "name": "amount",
          "type": "uint256"
        }
      ],
      "name": "RefFee",
      "type": "event"
    },
    {
      "anonymous": false,
      "inputs": [
        {
          "indexed": false,
          "name": "addr",
          "type": "address"
        },
        {
          "indexed": false,
          "name": "amount",
          "type": "uint256"
        }
      ],
      "name": "Cashback",
      "type": "event"
    },
    {
      "constant": false,
      "inputs": [
        {
          "name": "limit",
          "type": "uint256"
        }
      ],
      "name": "payout",
      "outputs": [],
      "payable": false,
      "stateMutability": "nonpayable",
      "type": "function"
    },
    {
      "constant": false,
      "inputs": [
        {
          "name": "addr",
          "type": "address"
        }
      ],
      "name": "payoutSelf",
      "outputs": [],
      "payable": false,
      "stateMutability": "nonpayable",
      "type": "function"
    },
    {
      "constant": true,
      "inputs": [
        {
          "name": "addr",
          "type": "address"
        }
      ],
      "name": "getInvestorDeposit",
      "outputs": [
        {
          "name": "",
          "type": "uint256"
        }
      ],
      "payable": false,
      "stateMutability": "view",
      "type": "function"
    },
    {
      "constant": true,
      "inputs": [],
      "name": "getInvestorCount",
      "outputs": [
        {
          "name": "",
          "type": "uint256"
        }
      ],
      "payable": false,
      "stateMutability": "view",
      "type": "function"
    },
    {
      "constant": true,
      "inputs": [],
      "name": "getDepositAmount",
      "outputs": [
        {
          "name": "",
          "type": "uint256"
        }
      ],
      "payable": false,
      "stateMutability": "view",
      "type": "function"
    },
    {
      "constant": true,
      "inputs": [
        {
          "name": "addr",
          "type": "address"
        }
      ],
      "name": "getInvestorDatePayout",
      "outputs": [
        {
          "name": "",
          "type": "uint256"
        }
      ],
      "payable": false,
      "stateMutability": "view",
      "type": "function"
    },
    {
      "constant": true,
      "inputs": [],
      "name": "getPayoutCumulativeInterval",
      "outputs": [
        {
          "name": "",
          "type": "uint256"
        }
      ],
      "payable": false,
      "stateMutability": "view",
      "type": "function"
    },
    {
      "constant": false,
      "inputs": [
        {
          "name": "addr",
          "type": "address"
        },
        {
          "name": "date",
          "type": "uint256"
        }
      ],
      "name": "setDatePayout",
      "outputs": [],
      "payable": false,
      "stateMutability": "nonpayable",
      "type": "function"
    },
    {
      "constant": false,
      "inputs": [
        {
          "name": "interval",
          "type": "uint256"
        }
      ],
      "name": "setPayoutCumulativeInterval",
      "outputs": [],
      "payable": false,
      "stateMutability": "nonpayable",
      "type": "function"
    },
    {
      "constant": true,
      "inputs": [
        {
          "name": "addr",
          "type": "address"
        }
      ],
      "name": "getInvestorUnPaidAmount",
      "outputs": [
        {
          "name": "",
          "type": "uint256"
        }
      ],
      "payable": false,
      "stateMutability": "view",
      "type": "function"
    }
  ],
  "bytecode": "0x6080604052610258600155662386f26fc1000060025534801561002157600080fd5b50336000806101000a81548173ffffffffffffffffffffffffffffffffffffffff021916908373ffffffffffffffffffffffffffffffffffffffff1602179055506001600681610071919061007e565b50426005819055506100cf565b8154818355818111156100a5578183600052602060002091820191016100a491906100aa565b5b505050565b6100cc91905b808211156100c85760008160009055506001016100b0565b5090565b90565b611516806100de6000396000f3006080604052600436106100d0576000357c0100000000000000000000000000000000000000000000000000000000900463ffffffff168063090f4465146106a45780632d57b6c8146106cf57806339a1ec37146107265780634bbcc1bc1461077d5780635a181478146107c05780636f7bc9be146107ed5780637d96f6931461088c5780638da5cb5b146108b7578063960524e31461090e5780639e4ece80146109395780639ffcc4c314610990578063a55bbff9146109bb578063e115234314610a08578063edf26d9b14610a35575b6000806000803414156100e25761069f565b6002543410151515610182576040517f08c379a00000000000000000000000000000000000000000000000000000000081526004018080602001828103825260258152602001807f546f6f20736d616c6c20616d6f756e742c206d696e696d756d20302e3030312081526020017f657468657200000000000000000000000000000000000000000000000000000081525060400191505060405180910390fd5b600760003373ffffffffffffffffffffffffffffffffffffffff1673ffffffffffffffffffffffffffffffffffffffff168152602001908152602001600020925060008360000154141561037157600680549050836000018190555060063390806001815401808255809150509060018203906000526020600020016000909192909190916101000a81548173ffffffffffffffffffffffffffffffffffffffff021916908373ffffffffffffffffffffffffffffffffffffffff16021790555050600680548091906001016102589190611499565b506004600081548092919060010191905055506102a76000368080601f016020809104026020016040519081016040528093929190818152602001838380828437820191505050505050610aa2565b91506000600760008473ffffffffffffffffffffffffffffffffffffffff1673ffffffffffffffffffffffffffffffffffffffff1681526020019081526020016000206001015411801561032757503373ffffffffffffffffffffffffffffffffffffffff168273ffffffffffffffffffffffffffffffffffffffff1614155b1561037057818360040160006101000a81548173ffffffffffffffffffffffffffffffffffffffff021916908373ffffffffffffffffffffffffffffffffffffffff1602179055505b5b348360010160008282540192505081905550600183600201600082825401925050819055504283600301819055507fd90d253a9de34d2fdd5a75ae49ea17fcb43af32fc8ea08cc6d2341991dd3872e3334604051808373ffffffffffffffffffffffffffffffffffffffff1673ffffffffffffffffffffffffffffffffffffffff1681526020018281526020019250505060405180910390a1346003600082825401925050819055506000809054906101000a900473ffffffffffffffffffffffffffffffffffffffff1673ffffffffffffffffffffffffffffffffffffffff166108fc60053481151561046157fe5b049081150290604051600060405180830381858888f1935050505015801561048d573d6000803e3d6000fd5b5060008360040160009054906101000a900473ffffffffffffffffffffffffffffffffffffffff1673ffffffffffffffffffffffffffffffffffffffff16111561069e5760036064348115156104df57fe5b040290508260040160009054906101000a900473ffffffffffffffffffffffffffffffffffffffff1673ffffffffffffffffffffffffffffffffffffffff166108fc829081150290604051600060405180830381858888f1935050505015801561054d573d6000803e3d6000fd5b507f9ef7b65cf7c254d0170dc1d6749df5514f6e3858a642e17ee871dafdb67dfd138360040160009054906101000a900473ffffffffffffffffffffffffffffffffffffffff1682604051808373ffffffffffffffffffffffffffffffffffffffff1673ffffffffffffffffffffffffffffffffffffffff1681526020018281526020019250505060405180910390a160018360020154141561069d573373ffffffffffffffffffffffffffffffffffffffff166108fc829081150290604051600060405180830381858888f19350505050158015610630573d6000803e3d6000fd5b507fe523757eee9c213543af9b06c96e0629da383d3149173f4a03ab96d8ff5267603382604051808373ffffffffffffffffffffffffffffffffffffffff1673ffffffffffffffffffffffffffffffffffffffff1681526020018281526020019250505060405180910390a15b5b5b505050005b3480156106b057600080fd5b506106b9610ab0565b6040518082815260200191505060405180910390f35b3480156106db57600080fd5b50610710600480360381019080803573ffffffffffffffffffffffffffffffffffffffff169060200190929190505050610ab6565b6040518082815260200191505060405180910390f35b34801561073257600080fd5b50610767600480360381019080803573ffffffffffffffffffffffffffffffffffffffff169060200190929190505050610b02565b6040518082815260200191505060405180910390f35b34801561078957600080fd5b506107be600480360381019080803573ffffffffffffffffffffffffffffffffffffffff169060200190929190505050610b4e565b005b3480156107cc57600080fd5b506107eb60048036038101908080359060200190929190505050610f71565b005b3480156107f957600080fd5b5061082e600480360381019080803573ffffffffffffffffffffffffffffffffffffffff169060200190929190505050610fd1565b604051808681526020018581526020018481526020018381526020018273ffffffffffffffffffffffffffffffffffffffff1673ffffffffffffffffffffffffffffffffffffffff1681526020019550505050505060405180910390f35b34801561089857600080fd5b506108a1611027565b6040518082815260200191505060405180910390f35b3480156108c357600080fd5b506108cc611031565b604051808273ffffffffffffffffffffffffffffffffffffffff1673ffffffffffffffffffffffffffffffffffffffff16815260200191505060405180910390f35b34801561091a57600080fd5b50610923611056565b6040518082815260200191505060405180910390f35b34801561094557600080fd5b5061097a600480360381019080803573ffffffffffffffffffffffffffffffffffffffff169060200190929190505050611060565b6040518082815260200191505060405180910390f35b34801561099c57600080fd5b506109a561111e565b6040518082815260200191505060405180910390f35b3480156109c757600080fd5b50610a06600480360381019080803573ffffffffffffffffffffffffffffffffffffffff16906020019092919080359060200190929190505050611128565b005b348015610a1457600080fd5b50610a33600480360381019080803590602001909291905050506111c9565b005b348015610a4157600080fd5b50610a606004803603810190808035906020019092919050505061145b565b604051808273ffffffffffffffffffffffffffffffffffffffff1673ffffffffffffffffffffffffffffffffffffffff16815260200191505060405180910390f35b600060148201519050919050565b60055481565b6000600760008373ffffffffffffffffffffffffffffffffffffffff1673ffffffffffffffffffffffffffffffffffffffff168152602001908152602001600020600101549050919050565b6000600760008373ffffffffffffffffffffffffffffffffffffffff1673ffffffffffffffffffffffffffffffffffffffff168152602001908152602001600020600301549050919050565b60003373ffffffffffffffffffffffffffffffffffffffff168273ffffffffffffffffffffffffffffffffffffffff16141515610c19576040517f08c379a00000000000000000000000000000000000000000000000000000000081526004018080602001828103825260218152602001807f596f75206e656564207370656369667920796f7572204554482061646472657381526020017f730000000000000000000000000000000000000000000000000000000000000081525060400191505060405180910390fd5b6000600760008473ffffffffffffffffffffffffffffffffffffffff1673ffffffffffffffffffffffffffffffffffffffff16815260200190815260200160002060010154111515610cd3576040517f08c379a00000000000000000000000000000000000000000000000000000000081526004018080602001828103825260118152602001807f6465706f736974206e6f7420666f756e6400000000000000000000000000000081525060200191505060405180910390fd5b610258600760008473ffffffffffffffffffffffffffffffffffffffff1673ffffffffffffffffffffffffffffffffffffffff16815260200190815260200160002060030154014210151515610d91576040517f08c379a00000000000000000000000000000000000000000000000000000000081526004018080602001828103825260198152602001807f746f6f2066617374207061796d656e742072657175697265640000000000000081525060200191505060405180910390fd5b610d9a82611060565b905066038d7ea4c680008110151515610e1b576040517f08c379a00000000000000000000000000000000000000000000000000000000081526004018080602001828103825260178152602001807f746f6f20736d616c6c20756e7061696420616d6f756e7400000000000000000081525060200191505060405180910390fd5b42600760008473ffffffffffffffffffffffffffffffffffffffff1673ffffffffffffffffffffffffffffffffffffffff16815260200190815260200160002060030181905550803073ffffffffffffffffffffffffffffffffffffffff16311015610ebb576000809054906101000a900473ffffffffffffffffffffffffffffffffffffffff1673ffffffffffffffffffffffffffffffffffffffff16ff5b8173ffffffffffffffffffffffffffffffffffffffff166108fc829081150290604051600060405180830381858888f19350505050158015610f01573d6000803e3d6000fd5b507ffd2f2b8ea97d71bc161986cb5d2af11fca3dafc45071344594e0cc8161ef375c8282604051808373ffffffffffffffffffffffffffffffffffffffff1673ffffffffffffffffffffffffffffffffffffffff1681526020018281526020019250505060405180910390a15050565b6000809054906101000a900473ffffffffffffffffffffffffffffffffffffffff1673ffffffffffffffffffffffffffffffffffffffff163373ffffffffffffffffffffffffffffffffffffffff161415610fce57806001819055505b50565b60076020528060005260406000206000915090508060000154908060010154908060020154908060030154908060040160009054906101000a900473ffffffffffffffffffffffffffffffffffffffff16905085565b6000600354905090565b6000809054906101000a900473ffffffffffffffffffffffffffffffffffffffff1681565b6000600454905090565b6000620151806064600760008573ffffffffffffffffffffffffffffffffffffffff1673ffffffffffffffffffffffffffffffffffffffff16815260200190815260200160002060030154420302606460036064600760008873ffffffffffffffffffffffffffffffffffffffff1673ffffffffffffffffffffffffffffffffffffffff1681526020019081526020016000206001015481151561110057fe5b040281151561110b57fe5b040281151561111657fe5b049050919050565b6000600154905090565b6000809054906101000a900473ffffffffffffffffffffffffffffffffffffffff1673ffffffffffffffffffffffffffffffffffffffff163373ffffffffffffffffffffffffffffffffffffffff1614156111c55780600760008473ffffffffffffffffffffffffffffffffffffffff1673ffffffffffffffffffffffffffffffffffffffff168152602001908152602001600020600301819055505b5050565b600080600080600060015460055401421015151561124f576040517f08c379a00000000000000000000000000000000000000000000000000000000081526004018080602001828103825260178152602001807f746f6f2066617374207061796f7574207265717565737400000000000000000081525060200191505060405180910390fd5b60016006805490500391505b6001826001900392508210151561140d5760068281548110151561127b57fe5b9060005260206000200160009054906101000a900473ffffffffffffffffffffffffffffffffffffffff1690504262015180600760008473ffffffffffffffffffffffffffffffffffffffff1673ffffffffffffffffffffffffffffffffffffffff168152602001908152602001600020600301540111156112fc57611408565b61130581611060565b925042600760008373ffffffffffffffffffffffffffffffffffffffff1673ffffffffffffffffffffffffffffffffffffffff16815260200190815260200160002060030181905550823073ffffffffffffffffffffffffffffffffffffffff163110156113a7576000809054906101000a900473ffffffffffffffffffffffffffffffffffffffff1673ffffffffffffffffffffffffffffffffffffffff16ff5b8073ffffffffffffffffffffffffffffffffffffffff166108fc849081150290604051600060405180830381858888f193505050501580156113ed573d6000803e3d6000fd5b50828501945085846001019450841015156114075761140d565b5b61125b565b426005819055507f2495041791cabab13dcf477f0e49b751a103e843b09287746194310bd1dee80c8585604051808381526020018281526020019250505060405180910390a1505050505050565b60068181548110151561146a57fe5b906000526020600020016000915054906101000a900473ffffffffffffffffffffffffffffffffffffffff1681565b8154818355818111156114c0578183600052602060002091820191016114bf91906114c5565b5b505050565b6114e791905b808211156114e35760008160009055506001016114cb565b5090565b905600a165627a7a7230582074f77a1b38bd53ddada51c5f8224df89a2aedabfa2f9bcd8d65a35eacf2acce30029",
  "source": "\n\ncontract Gorgona {\n    address public owner;\n\n    uint constant PAYOUT_PER_INVESTOR_INTERVAL = 10 minutes;\n    uint constant INTEREST = 3;\n    uint private PAYOUT_CUMULATIVE_INTERVAL = 10 minutes;\n    uint private MINIMUM_INVEST = 10000000000000000 wei;\n\n    uint depositAmount;\n    uint investorCount;\n    uint public payoutDate;\n\n    struct investor\n    {\n        uint id;\n        uint deposit;\n        uint deposits;\n        uint date;\n        address referrer;\n    }\n\n    address[] public addresses;\n\n    mapping(address => investor) public investors;\n\n    event Invest(address addr, uint amount);\n    event PayoutCumulative(uint amount, uint txs);\n    event PayoutSelf(address addr, uint amount);\n    event RefFee(address addr, uint amount);\n    event Cashback(address addr, uint amount);\n\n    modifier onlyOwner {if (msg.sender == owner) _;}\n\n    constructor() public {\n        owner = msg.sender;\n        addresses.length = 1;\n        payoutDate = now;\n    }\n\n    function() payable public {\n        if (msg.value == 0) {\n            return;\n        }\n\n        require(msg.value >= MINIMUM_INVEST, \"Too small amount, minimum 0.001 ether\");\n\n        investor storage user = investors[msg.sender];\n\n        if (user.id == 0) {\n            user.id = addresses.length;\n            addresses.push(msg.sender);\n            addresses.length++;\n            investorCount ++;\n\n            \n            address referrer = bytesToAddress(msg.data);\n            if (investors[referrer].deposit > 0 && referrer != msg.sender) {\n                user.referrer = referrer;\n            }\n        }\n\n        \n        user.deposit += msg.value;\n        user.deposits += 1;\n        user.date = now;\n\n        emit Invest(msg.sender, msg.value);\n        depositAmount += msg.value;\n\n        \n        owner.transfer(msg.value / 5);\n\n        \n        if (user.referrer > 0x0) {\n            uint bonusAmount = (msg.value / 100) * INTEREST;\n            user.referrer.transfer(bonusAmount);\n            emit RefFee(user.referrer, bonusAmount);\n\n            \n            if (user.deposits == 1) {\n                msg.sender.transfer(bonusAmount);\n                emit Cashback(msg.sender, bonusAmount);\n            }\n        }\n    }\n\n    function payout(uint limit) public\n    {\n        require(now >= payoutDate + PAYOUT_CUMULATIVE_INTERVAL, \"too fast payout request\");\n\n        uint investorsPayout;\n        uint txs;\n        uint amount;\n\n        for (uint idx = addresses.length - 1; --idx >= 1;)\n        {\n            address addr = addresses[idx];\n            if (investors[addr].date + 24 hours > now) {\n                continue;\n            }\n\n            amount = getInvestorUnPaidAmount(addr);\n            investors[addr].date = now;\n\n            if (address(this).balance < amount) {\n                selfdestruct(owner);\n                return;\n            }\n\n            addr.transfer(amount);\n\n            investorsPayout += amount;\n            if (++txs >= limit) {\n                break;\n            }\n        }\n\n        payoutDate = now;\n        emit PayoutCumulative(investorsPayout, txs);\n    }\n\n    function payoutSelf(address addr) public\n    {\n        require(addr == msg.sender, \"You need specify your ETH address\");\n\n        require(investors[addr].deposit > 0, \"deposit not found\");\n        require(now >= investors[addr].date + PAYOUT_PER_INVESTOR_INTERVAL, \"too fast payment required\");\n\n        uint amount = getInvestorUnPaidAmount(addr);\n        require(amount >= 1 finney, \"too small unpaid amount\");\n\n        investors[addr].date = now;\n        if (address(this).balance < amount) {\n            selfdestruct(owner);\n            return;\n        }\n\n        addr.transfer(amount);\n\n        emit PayoutSelf(addr, amount);\n    }\n\n    function getInvestorDeposit(address addr) public view returns (uint) {\n        return investors[addr].deposit;\n    }\n\n    function getInvestorCount() public view returns (uint) {\n        return investorCount;\n    }\n\n    function getDepositAmount() public view returns (uint) {\n        return depositAmount;\n    }\n\n    function getInvestorDatePayout(address addr) public view returns (uint) {\n        return investors[addr].date;\n    }\n\n    function getPayoutCumulativeInterval() public view returns (uint)\n    {\n        return PAYOUT_CUMULATIVE_INTERVAL;\n    }\n\n    function setDatePayout(address addr, uint date) onlyOwner public\n    {\n        investors[addr].date = date;\n    }\n\n    function setPayoutCumulativeInterval(uint interval) onlyOwner public\n    {\n        PAYOUT_CUMULATIVE_INTERVAL = interval;\n    }\n\n    function getInvestorUnPaidAmount(address addr) public view returns (uint)\n    {\n        return (((investors[addr].deposit / 100) * INTEREST) / 100) * ((now - investors[addr].date) * 100) / 1 days;\n    }\n\n    function bytesToAddress(bytes bys) private pure returns (address addr) {\n        assembly {\n            addr := mload(add(bys, 20))\n        }\n    }\n}",
  "sourcePath": "/home/XXX-1/smartrim-experiment/for-rlf/0x20b3d3f8a3e4f7b23382d844f2ca1d7026d69479/contracts/0x20b3d3f8a3e4f7b23382d844f2ca1d7026d69479.sol",
  "compiler": {
    "name": "solc",
    "version": "0.4.25+commit.59dbf8f1.Emscripten.clang"
  },
  "schemaVersion": "3.4.16",
  "updatedAt": "2025-08-14T03:49:25.869Z",
  "networkType": "ethereum",
  "devdoc": {
    "methods": {}
  },
  "userdoc": {
    "methods": {}
  }
}