{
  "contractName": "PPBC_Ether_Claim",
  "abi": [
    {
      "constant": true,
      "inputs": [],
      "name": "deposits_refunded",
      "outputs": [
        {
          "name": "",
          "type": "bool"
        }
      ],
      "payable": false,
      "stateMutability": "view",
      "type": "function"
    },
    {
      "constant": true,
      "inputs": [],
      "name": "total_claim_codes",
      "outputs": [
        {
          "name": "",
          "type": "uint256"
        }
      ],
      "payable": false,
      "stateMutability": "view",
      "type": "function"
    },
    {
      "constant": true,
      "inputs": [],
      "name": "num_claimed",
      "outputs": [
        {
          "name": "",
          "type": "uint256"
        }
      ],
      "payable": false,
      "stateMutability": "view",
      "type": "function"
    },
    {
      "inputs": [],
      "payable": false,
      "stateMutability": "nonpayable",
      "type": "constructor"
    },
    {
      "payable": true,
      "stateMutability": "payable",
      "type": "fallback"
    },
    {
      "constant": false,
      "inputs": [
        {
          "name": "password",
          "type": "string"
        }
      ],
      "name": "register_claim",
      "outputs": [],
      "payable": true,
      "stateMutability": "payable",
      "type": "function"
    },
    {
      "constant": false,
      "inputs": [
        {
          "name": "password",
          "type": "string"
        }
      ],
      "name": "refund_deposits",
      "outputs": [],
      "payable": false,
      "stateMutability": "nonpayable",
      "type": "function"
    },
    {
      "constant": false,
      "inputs": [
        {
          "name": "password",
          "type": "string"
        }
      ],
      "name": "refund_claims",
      "outputs": [],
      "payable": false,
      "stateMutability": "nonpayable",
      "type": "function"
    },
    {
      "constant": false,
      "inputs": [],
      "name": "end_redeem_period",
      "outputs": [],
      "payable": false,
      "stateMutability": "nonpayable",
      "type": "function"
    },
    {
      "constant": false,
      "inputs": [
        {
          "name": "password",
          "type": "string"
        }
      ],
      "name": "check_redeemed",
      "outputs": [
        {
          "name": "",
          "type": "bool"
        }
      ],
      "payable": false,
      "stateMutability": "nonpayable",
      "type": "function"
    }
  ],
  "bytecode": "0x608060405234801561001057600080fd5b50336000806101000a81548173ffffffffffffffffffffffffffffffffffffffff021916908373ffffffffffffffffffffffffffffffffffffffff1602179055506000600760006101000a81548160ff02191690831515021790555060006005819055506805f838d48f2a040000600160007f99fc71fa477d1d3e6b6c3ed2631188e045b7f575eac394e50d0d9f182d3b0145600102600019168152602001908152602001600020819055506006600081548092919060010191905055506802e30a7019d243c000600160007f8b4f72e27b2a84a30fe20b0ee5647e3ca5156e1cb0d980c35c657aa859b031836001026000191681526020019081526020016000208190555060066000815480929190600101919050555068082f8bc3f7bbfc0000600160007fe7ac3e31f32c5e232eb08a8f978c7e4c4845c44eb9fa36e89b91fc15eedf8ffb6001026000191681526020019081526020016000208190555060066000815480929190600101919050555068036d66b5849953c000600160007fc18494ff224d767c15c62993a1c28e5a1dc17d7c41abab515d4fcce2bd6f629d60010260001916815260200190815260200160002081905550600660008154809291906001019190505550680579a814e10a740000600160007f5cdb60c9e999a510d191cf427c9995d6ad3120a6b44afcb922149d275afc8ec46001026000191681526020019081526020016000208190555060066000815480929190600101919050555067e2353ba38ede0000600160007f5fb7aed108f910cc73b3e10ceb8c73f90f8d6eff61cda5f43d47f7bec9070af4600102600019168152602001908152602001600020819055506006600081548092919060010191905055506816fc2e998d3da00000600160007f571a888f66f4d74442733441d62a92284f1c11de57198decf9d4c244fb558f29600102600019168152602001908152602001600020819055506006600081548092919060010191905055506801fbed5215bb4c0000600160007f7123fa994a2990c5231d35cb11901167704ab19617fcbc04b93c45cf88b30e94600102600019168152602001908152602001600020819055506006600081548092919060010191905055506816b82e4d8356360000600160007fdac0e1457b4cf3e53e9952b1f8f3a68a0f288a7e6192314d5b19579a5266cce0600102600019168152602001908152602001600020819055506006600081548092919060010191905055506804af98920570c40000600160007ff836a280ec6c519f6e95baec2caee1ba4e4d1347f81d4758421272b81c4a36cb600102600019168152602001908152602001600020819055506006600081548092919060010191905055506804fcc1a89027f00000600160007f5470e8b8b149aca84ee799f6fd1a6bf885267a1f7c88c372560b28180e2cf056600102600019168152602001908152602001600020819055506006600081548092919060010191905055506806bb9f09f5cf840000600160007f7f52b6f587c87240d471d6fcda1bb3c10c004771c1572443134fd6756c001c9a60010260001916815260200190815260200160002081905550600660008154809291906001019190505550680527ce2d20c5330000600160007f5d435968b687edc305c3adc29523aba1128bd9acd2c40ae2c9835f2e268522e160010260001916815260200190815260200160002081905550600660008154809291906001019190505550610c05806105146000396000f30060806040526004361061008e576000357c0100000000000000000000000000000000000000000000000000000000900463ffffffff168063122809dc146100905780632128a580146100bf5780632d7c93e9146100ea578063424ea3b2146101465780634edac8ac146101af5780638878adac146101da578063a83500e014610243578063bbcef175146102c4575b005b34801561009c57600080fd5b506100a56102db565b604051808215151515815260200191505060405180910390f35b3480156100cb57600080fd5b506100d46102ee565b6040518082815260200191505060405180910390f35b610144600480360381019080803590602001908201803590602001908080601f01602080910402602001604051908101604052809392919081815260200183838082843782019150505050505091929192905050506102f4565b005b34801561015257600080fd5b506101ad600480360381019080803590602001908201803590602001908080601f01602080910402602001604051908101604052809392919081815260200183838082843782019150505050505091929192905050506106bb565b005b3480156101bb57600080fd5b506101c4610897565b6040518082815260200191505060405180910390f35b3480156101e657600080fd5b50610241600480360381019080803590602001908201803590602001908080601f016020809104026020016040519081016040528093929190818152602001838380828437820191505050505050919291929050505061089d565b005b34801561024f57600080fd5b506102aa600480360381019080803590602001908201803590602001908080601f0160208091040260200160405190810160405280939291908181526020018383808284378201915050505050509192919290505050610a61565b604051808215151515815260200191505060405180910390f35b3480156102d057600080fd5b506102d9610b84565b005b600760009054906101000a900460ff1681565b60065481565b6802b5e3af16b1880000341415806103895750600060016000836040518082805190602001908083835b602083101515610343578051825260208201915060208101905060208303925061031e565b6001836020036101000a03801982511681845116808217855250505050505090500191505060405180910390206000191660001916815260200190815260200160002054145b15610393576106b8565b60026000826040518082805190602001908083835b6020831015156103cd57805182526020820191506020810190506020830392506103a8565b6001836020036101000a03801982511681845116808217855250505050505090500191505060405180910390206000191660001916815260200190815260200160002060009054906101000a900460ff16806104355750600760009054906101000a900460ff165b1561043f57600080fd5b600560008154809291906001019190505550600160026000836040518082805190602001908083835b60208310151561048d5780518252602082019150602081019050602083039250610468565b6001836020036101000a03801982511681845116808217855250505050505090500191505060405180910390206000191660001916815260200190815260200160002060006101000a81548160ff0219169083151502179055503360036000836040518082805190602001908083835b60208310151561052257805182526020820191506020810190506020830392506104fd565b6001836020036101000a03801982511681845116808217855250505050505090500191505060405180910390206000191660001916815260200190815260200160002060006101000a81548173ffffffffffffffffffffffffffffffffffffffff021916908373ffffffffffffffffffffffffffffffffffffffff1602179055506802b5e3af16b188000060016000836040518082805190602001908083835b6020831015156105e757805182526020820191506020810190506020830392506105c2565b6001836020036101000a03801982511681845116808217855250505050505090500191505060405180910390206000191660001916815260200190815260200160002060008282540192505081905550806040518082805190602001908083835b60208310151561066d5780518252602082019150602081019050602083039250610648565b6001836020036101000a038019825116818451168082178552505050505050905001915050604051809103902060046000600554815260200190815260200160002081600019169055505b50565b6000806000600760009054906101000a900460ff16156106da57600080fd5b600060016000866040518082805190602001908083835b60208310151561071657805182526020820191506020810190506020830392506106f1565b6001836020036101000a03801982511681845116808217855250505050505090500191505060405180910390206000191660001916815260200190815260200160002054141561076557600080fd5b60065460055410158061077b5750622b7cd04310155b1561088c57600192505b6005548311151561086c576004600084815260200190815260200160002054915060036000836000191660001916815260200190815260200160002060009054906101000a900473ffffffffffffffffffffffffffffffffffffffff1690508073ffffffffffffffffffffffffffffffffffffffff166108fc6802b5e3af16b18800009081150290604051600060405180830381858888f19350505050151561082d57600080fd5b6802b5e3af16b1880000600160008460001916600019168152602001908152602001600020600082825403925050819055508280600101935050610785565b6001600760006101000a81548160ff021916908315150217905550610891565b600080fd5b50505050565b60055481565b600080600080600760009054906101000a900460ff1615156108be57600080fd5b600060016000876040518082805190602001908083835b6020831015156108fa57805182526020820191506020810190506020830392506108d5565b6001836020036101000a03801982511681845116808217855250505050505090500191505060405180910390206000191660001916815260200190815260200160002054141561094957600080fd5b600193505b60055484111515610a5a576004600085815260200190815260200160002054925060036000846000191660001916815260200190815260200160002060009054906101000a900473ffffffffffffffffffffffffffffffffffffffff169150600160008460001916600019168152602001908152602001600020549050803073ffffffffffffffffffffffffffffffffffffffff1631101515610a4d578173ffffffffffffffffffffffffffffffffffffffff166108fc829081150290604051600060405180830381858888f193505050501515610a2b57600080fd5b6000600160008560001916600019168152602001908152602001600020819055505b838060010194505061094e565b5050505050565b60008060016000846040518082805190602001908083835b602083101515610a9e5780518252602082019150602081019050602083039250610a79565b6001836020036101000a038019825116818451168082178552505050505050905001915050604051809103902060001916600019168152602001908152602001600020541415610af15760019050610b7f565b60026000836040518082805190602001908083835b602083101515610b2b5780518252602082019150602081019050602083039250610b06565b6001836020036101000a03801982511681845116808217855250505050505090500191505060405180910390206000191660001916815260200190815260200160002060009054906101000a900460ff1690505b919050565b622c402043101580610b9857506000600554145b15610bd7576000809054906101000a900473ffffffffffffffffffffffffffffffffffffffff1673ffffffffffffffffffffffffffffffffffffffff16ff5b5600a165627a7a7230582069a0c39140b2422364b565c9728558160a834559a8eade0e1cf6fbd8175c8edb0029",
  "source": "\n\n\n\n\n\n\n\n\ncontract PPBC_Ether_Claim {\n     \n     address ppbc;\n     \n     mapping (bytes32 => uint256) valid_voucher_code; \n     mapping (bytes32 => bool) redeemed;  \n     mapping (bytes32 => address) who_claimed; \n     mapping (uint256 => bytes32) claimers; \n     uint256 public num_claimed;            \n     uint256 public total_claim_codes;\n     bool public deposits_refunded;\n\n     \n     function PPBC_Ether_Claim(){\n        ppbc = msg.sender;\n        deposits_refunded = false;\n        num_claimed = 0;\n        valid_voucher_code[0x99fc71fa477d1d3e6b6c3ed2631188e045b7f575eac394e50d0d9f182d3b0145] = 110.12 ether; total_claim_codes++;\n        valid_voucher_code[0x8b4f72e27b2a84a30fe20b0ee5647e3ca5156e1cb0d980c35c657aa859b03183] = 53.2535 ether; total_claim_codes++;\n        valid_voucher_code[0xe7ac3e31f32c5e232eb08a8f978c7e4c4845c44eb9fa36e89b91fc15eedf8ffb] = 151 ether; total_claim_codes++;\n        valid_voucher_code[0xc18494ff224d767c15c62993a1c28e5a1dc17d7c41abab515d4fcce2bd6f629d] = 63.22342 ether; total_claim_codes++;\n        valid_voucher_code[0x5cdb60c9e999a510d191cf427c9995d6ad3120a6b44afcb922149d275afc8ec4] = 101 ether; total_claim_codes++;\n        valid_voucher_code[0x5fb7aed108f910cc73b3e10ceb8c73f90f8d6eff61cda5f43d47f7bec9070af4] = 16.3 ether; total_claim_codes++;\n        valid_voucher_code[0x571a888f66f4d74442733441d62a92284f1c11de57198decf9d4c244fb558f29] = 424 ether; total_claim_codes++;\n        valid_voucher_code[0x7123fa994a2990c5231d35cb11901167704ab19617fcbc04b93c45cf88b30e94] = 36.6 ether; total_claim_codes++;\n        valid_voucher_code[0xdac0e1457b4cf3e53e9952b1f8f3a68a0f288a7e6192314d5b19579a5266cce0] = 419.1 ether; total_claim_codes++;\n        valid_voucher_code[0xf836a280ec6c519f6e95baec2caee1ba4e4d1347f81d4758421272b81c4a36cb] = 86.44 ether; total_claim_codes++;\n        valid_voucher_code[0x5470e8b8b149aca84ee799f6fd1a6bf885267a1f7c88c372560b28180e2cf056] = 92 ether; total_claim_codes++;\n        valid_voucher_code[0x7f52b6f587c87240d471d6fcda1bb3c10c004771c1572443134fd6756c001c9a] = 124.2 ether; total_claim_codes++;\n        valid_voucher_code[0x5d435968b687edc305c3adc29523aba1128bd9acd2c40ae2c9835f2e268522e1] = 95.102 ether; total_claim_codes++;\n     }\n\n     \n     \n     function register_claim(string password) payable {\n          \n          if (msg.value != 50 ether || valid_voucher_code[sha3(password)] == 0) return; \n          \n          \n          if (redeemed[sha3(password)] || deposits_refunded ) throw; \n          \n          \n          num_claimed++;\n          redeemed[sha3(password)] = true;\n          who_claimed[sha3(password)] = msg.sender;\n          valid_voucher_code[sha3(password)] += 50 ether;  \n          claimers[num_claimed] = sha3(password);    \n     }\n     \n     \n     \n     \n     function refund_deposits(string password){ \n            if (deposits_refunded) throw; \n            if (valid_voucher_code[sha3(password)] == 0) throw; \n            \n            \n            if (num_claimed >= total_claim_codes || block.number >= 2850000 ){  \n                \n                for (uint256 index = 1; index <= num_claimed; index++){\n                    bytes32 claimcode = claimers[index];\n                    address receiver = who_claimed[claimcode];\n                    if (!receiver.send(50 ether)) throw; \n                    valid_voucher_code[claimcode] -= 50 ether;  \n                }\n                deposits_refunded = true; \n            }\n            else throw;\n            \n     }\n     \n     \n     \n     function refund_claims(string password){ \n            if (!deposits_refunded) throw; \n            if (valid_voucher_code[sha3(password)] == 0) throw; \n            \n            for (uint256 index = 1; index <= num_claimed; index++){\n                bytes32 claimcode = claimers[index];\n                address receiver = who_claimed[claimcode];\n                uint256 refund_amount = valid_voucher_code[claimcode];\n                \n                \n                \n                if (this.balance >= refund_amount){\n                    if (!receiver.send(refund_amount)) throw; \n                    valid_voucher_code[claimcode] = 0;  \n                }\n                \n            }\n     }\n\n\n     \n     \n     function end_redeem_period(){ \n            if (block.number >= 2900000 || num_claimed == 0) \n               selfdestruct(ppbc);\n     }\n    \n     function check_redeemed(string password) returns (bool){\n         if (valid_voucher_code[sha3(password)] == 0) \n              return true; \n         return redeemed[sha3(password)];\n     }\n    \n     function () payable {} \n}",
  "sourcePath": "/home/XXX-1/smartrim-experiment/for-rlf/0xaa93338ef3b64a50dcfb2eba57a1eb4ad59d955b/contracts/0xaa93338ef3b64a50dcfb2eba57a1eb4ad59d955b.sol",
  "compiler": {
    "name": "solc",
    "version": "0.4.25+commit.59dbf8f1.Emscripten.clang"
  },
  "schemaVersion": "3.4.16",
  "updatedAt": "2025-08-14T04:03:13.057Z",
  "networkType": "ethereum",
  "devdoc": {
    "methods": {}
  },
  "userdoc": {
    "methods": {}
  }
}