{
  "contractName": "HOT",
  "abi": [
    {
      "constant": true,
      "inputs": [],
      "name": "name",
      "outputs": [
        {
          "name": "",
          "type": "string"
        }
      ],
      "payable": false,
      "stateMutability": "view",
      "type": "function"
    },
    {
      "constant": false,
      "inputs": [
        {
          "name": "_spender",
          "type": "address"
        },
        {
          "name": "_value",
          "type": "uint256"
        }
      ],
      "name": "approve",
      "outputs": [
        {
          "name": "success",
          "type": "bool"
        }
      ],
      "payable": false,
      "stateMutability": "nonpayable",
      "type": "function"
    },
    {
      "constant": true,
      "inputs": [],
      "name": "getBalance",
      "outputs": [
        {
          "name": "",
          "type": "uint256"
        }
      ],
      "payable": false,
      "stateMutability": "view",
      "type": "function"
    },
    {
      "constant": true,
      "inputs": [],
      "name": "getSmallJackpot",
      "outputs": [
        {
          "name": "smallJackpots",
          "type": "uint256"
        }
      ],
      "payable": false,
      "stateMutability": "view",
      "type": "function"
    },
    {
      "constant": true,
      "inputs": [],
      "name": "totalSupply",
      "outputs": [
        {
          "name": "",
          "type": "uint256"
        }
      ],
      "payable": false,
      "stateMutability": "view",
      "type": "function"
    },
    {
      "constant": false,
      "inputs": [],
      "name": "tickets",
      "outputs": [
        {
          "name": "success",
          "type": "bool"
        }
      ],
      "payable": true,
      "stateMutability": "payable",
      "type": "function"
    },
    {
      "constant": false,
      "inputs": [
        {
          "name": "_from",
          "type": "address"
        },
        {
          "name": "_to",
          "type": "address"
        },
        {
          "name": "_value",
          "type": "uint256"
        }
      ],
      "name": "transferFrom",
      "outputs": [
        {
          "name": "success",
          "type": "bool"
        }
      ],
      "payable": false,
      "stateMutability": "nonpayable",
      "type": "function"
    },
    {
      "constant": true,
      "inputs": [],
      "name": "decimals",
      "outputs": [
        {
          "name": "",
          "type": "uint256"
        }
      ],
      "payable": false,
      "stateMutability": "view",
      "type": "function"
    },
    {
      "constant": false,
      "inputs": [
        {
          "name": "_rate",
          "type": "uint256"
        }
      ],
      "name": "setRate",
      "outputs": [],
      "payable": false,
      "stateMutability": "nonpayable",
      "type": "function"
    },
    {
      "constant": false,
      "inputs": [
        {
          "name": "_users",
          "type": "address[]"
        }
      ],
      "name": "bigCheckOut",
      "outputs": [],
      "payable": false,
      "stateMutability": "nonpayable",
      "type": "function"
    },
    {
      "constant": false,
      "inputs": [],
      "name": "kill",
      "outputs": [],
      "payable": false,
      "stateMutability": "nonpayable",
      "type": "function"
    },
    {
      "constant": true,
      "inputs": [],
      "name": "getTotalConsume",
      "outputs": [
        {
          "name": "totalConsumes",
          "type": "uint256"
        }
      ],
      "payable": false,
      "stateMutability": "view",
      "type": "function"
    },
    {
      "constant": true,
      "inputs": [],
      "name": "getRate",
      "outputs": [
        {
          "name": "rates",
          "type": "uint256"
        }
      ],
      "payable": false,
      "stateMutability": "view",
      "type": "function"
    },
    {
      "constant": true,
      "inputs": [
        {
          "name": "_owner",
          "type": "address"
        }
      ],
      "name": "balanceOf",
      "outputs": [
        {
          "name": "balance",
          "type": "uint256"
        }
      ],
      "payable": false,
      "stateMutability": "view",
      "type": "function"
    },
    {
      "constant": false,
      "inputs": [],
      "name": "ticketConsume",
      "outputs": [
        {
          "name": "success",
          "type": "bool"
        }
      ],
      "payable": true,
      "stateMutability": "payable",
      "type": "function"
    },
    {
      "constant": false,
      "inputs": [
        {
          "name": "_users",
          "type": "address[]"
        }
      ],
      "name": "smallCheckOut",
      "outputs": [],
      "payable": false,
      "stateMutability": "nonpayable",
      "type": "function"
    },
    {
      "constant": true,
      "inputs": [],
      "name": "getConsume",
      "outputs": [
        {
          "name": "consumes",
          "type": "uint256"
        }
      ],
      "payable": false,
      "stateMutability": "view",
      "type": "function"
    },
    {
      "constant": true,
      "inputs": [],
      "name": "symbol",
      "outputs": [
        {
          "name": "",
          "type": "string"
        }
      ],
      "payable": false,
      "stateMutability": "view",
      "type": "function"
    },
    {
      "constant": true,
      "inputs": [],
      "name": "getBigJackpot",
      "outputs": [
        {
          "name": "bigJackpots",
          "type": "uint256"
        }
      ],
      "payable": false,
      "stateMutability": "view",
      "type": "function"
    },
    {
      "constant": false,
      "inputs": [
        {
          "name": "_to",
          "type": "address"
        },
        {
          "name": "_value",
          "type": "uint256"
        }
      ],
      "name": "transfer",
      "outputs": [
        {
          "name": "success",
          "type": "bool"
        }
      ],
      "payable": false,
      "stateMutability": "nonpayable",
      "type": "function"
    },
    {
      "constant": true,
      "inputs": [
        {
          "name": "_owner",
          "type": "address"
        }
      ],
      "name": "trashOf",
      "outputs": [
        {
          "name": "trashs",
          "type": "uint256"
        }
      ],
      "payable": false,
      "stateMutability": "view",
      "type": "function"
    },
    {
      "constant": false,
      "inputs": [
        {
          "name": "_users",
          "type": "address[]"
        },
        {
          "name": "_prices",
          "type": "uint256[]"
        },
        {
          "name": "_allPrices",
          "type": "uint256"
        }
      ],
      "name": "sendAll",
      "outputs": [],
      "payable": false,
      "stateMutability": "nonpayable",
      "type": "function"
    },
    {
      "constant": true,
      "inputs": [],
      "name": "getTec",
      "outputs": [
        {
          "name": "tec",
          "type": "uint256"
        }
      ],
      "payable": false,
      "stateMutability": "view",
      "type": "function"
    },
    {
      "constant": true,
      "inputs": [
        {
          "name": "_owner",
          "type": "address"
        },
        {
          "name": "_spender",
          "type": "address"
        }
      ],
      "name": "allowance",
      "outputs": [
        {
          "name": "remaining",
          "type": "uint256"
        }
      ],
      "payable": false,
      "stateMutability": "view",
      "type": "function"
    },
    {
      "constant": true,
      "inputs": [],
      "name": "consumeRule",
      "outputs": [
        {
          "name": "",
          "type": "uint256"
        }
      ],
      "payable": false,
      "stateMutability": "view",
      "type": "function"
    },
    {
      "inputs": [],
      "payable": false,
      "stateMutability": "nonpayable",
      "type": "constructor"
    },
    {
      "payable": true,
      "stateMutability": "payable",
      "type": "fallback"
    },
    {
      "anonymous": false,
      "inputs": [
        {
          "indexed": true,
          "name": "_from",
          "type": "address"
        },
        {
          "indexed": true,
          "name": "_to",
          "type": "address"
        },
        {
          "indexed": false,
          "name": "_value",
          "type": "uint256"
        }
      ],
      "name": "Transfer",
      "type": "event"
    },
    {
      "anonymous": false,
      "inputs": [
        {
          "indexed": true,
          "name": "_from",
          "type": "address"
        },
        {
          "indexed": false,
          "name": "_value",
          "type": "uint256"
        }
      ],
      "name": "InTrash",
      "type": "event"
    },
    {
      "anonymous": false,
      "inputs": [
        {
          "indexed": true,
          "name": "_owner",
          "type": "address"
        },
        {
          "indexed": true,
          "name": "_spender",
          "type": "address"
        },
        {
          "indexed": false,
          "name": "_value",
          "type": "uint256"
        }
      ],
      "name": "Approval",
      "type": "event"
    },
    {
      "anonymous": false,
      "inputs": [
        {
          "indexed": false,
          "name": "",
          "type": "address"
        },
        {
          "indexed": false,
          "name": "",
          "type": "string"
        },
        {
          "indexed": false,
          "name": "",
          "type": "uint256"
        }
      ],
      "name": "transferLogs",
      "type": "event"
    }
  ],
  "bytecode": "0x608060405273f36804f9eb13ff9a5baf31198c3d55db95f23203600c60006101000a81548173ffffffffffffffffffffffffffffffffffffffff021916908373ffffffffffffffffffffffffffffffffffffffff1602179055503480156200006657600080fd5b50604e6040805190810160405280600381526020017f726c660000000000000000000000000000000000000000000000000000000000815250604e33600a60006101000a81548173ffffffffffffffffffffffffffffffffffffffff021916908373ffffffffffffffffffffffffffffffffffffffff1602179055506000600481905550600454600a0a8302600081905550600054600e6000600a60009054906101000a900473ffffffffffffffffffffffffffffffffffffffff1673ffffffffffffffffffffffffffffffffffffffff1673ffffffffffffffffffffffffffffffffffffffff16815260200190815260200160002081905550816001908051906020019062000178929190620001de565b50816002908051906020019062000191929190620001de565b5080600581905550600a81811515620001a657fe5b0460068190555060006007819055506000600381905550600060088190555060006009819055506000600b819055505050506200028d565b828054600181600116156101000203166002900490600052602060002090601f016020900481019282601f106200022157805160ff191683800117855562000252565b8280016001018555821562000252579182015b828111156200025157825182559160200191906001019062000234565b5b50905062000261919062000265565b5090565b6200028a91905b80821115620002865760008160009055506001016200026c565b5090565b90565b611c45806200029d6000396000f300608060405260043610610149576000357c0100000000000000000000000000000000000000000000000000000000900463ffffffff16806306fdde031461014b578063095ea7b3146101db57806312065fe01461024057806315179b041461026b57806318160ddd1461029657806321858521146102c157806323b872dd146102e3578063313ce5671461036857806334fcf43714610393578063405d8419146103c057806341c0e1b514610426578063495aff251461043d578063679aefce1461046857806370a082311461049357806373ac9a67146104ea57806383aa42d81461050c5780638817aefe1461057257806395d89b411461059d57806398f5d4c11461062d578063a9059cbb14610658578063b2c95ed5146106bd578063baa1993b14610714578063dd51f4a3146107c7578063dd62ed3e146107f2578063eb3f77b014610869575b005b34801561015757600080fd5b50610160610894565b6040518080602001828103825283818151815260200191508051906020019080838360005b838110156101a0578082015181840152602081019050610185565b50505050905090810190601f1680156101cd5780820380516001836020036101000a031916815260200191505b509250505060405180910390f35b3480156101e757600080fd5b50610226600480360381019080803573ffffffffffffffffffffffffffffffffffffffff16906020019092919080359060200190929190505050610932565b604051808215151515815260200191505060405180910390f35b34801561024c57600080fd5b50610255610a24565b6040518082815260200191505060405180910390f35b34801561027757600080fd5b50610280610a43565b6040518082815260200191505060405180910390f35b3480156102a257600080fd5b506102ab610a4d565b6040518082815260200191505060405180910390f35b6102c9610a53565b604051808215151515815260200191505060405180910390f35b3480156102ef57600080fd5b5061034e600480360381019080803573ffffffffffffffffffffffffffffffffffffffff169060200190929190803573ffffffffffffffffffffffffffffffffffffffff16906020019092919080359060200190929190505050610c50565b604051808215151515815260200191505060405180910390f35b34801561037457600080fd5b5061037d610ebc565b6040518082815260200191505060405180910390f35b34801561039f57600080fd5b506103be60048036038101908080359060200190929190505050610ec2565b005b3480156103cc57600080fd5b5061042460048036038101908080359060200190820180359060200190808060200260200160405190810160405280939291908181526020018383602002808284378201915050505050509192919290505050610f43565b005b34801561043257600080fd5b5061043b611147565b005b34801561044957600080fd5b50610452611182565b6040518082815260200191505060405180910390f35b34801561047457600080fd5b5061047d61118c565b6040518082815260200191505060405180910390f35b34801561049f57600080fd5b506104d4600480360381019080803573ffffffffffffffffffffffffffffffffffffffff169060200190929190505050611196565b6040518082815260200191505060405180910390f35b6104f26111df565b604051808215151515815260200191505060405180910390f35b34801561051857600080fd5b5061057060048036038101908080359060200190820180359060200190808060200260200160405190810160405280939291908181526020018383602002808284378201915050505050509192919290505050611410565b005b34801561057e57600080fd5b506105876115ff565b6040518082815260200191505060405180910390f35b3480156105a957600080fd5b506105b2611609565b6040518080602001828103825283818151815260200191508051906020019080838360005b838110156105f25780820151818401526020810190506105d7565b50505050905090810190601f16801561061f5780820380516001836020036101000a031916815260200191505b509250505060405180910390f35b34801561063957600080fd5b506106426116a7565b6040518082815260200191505060405180910390f35b34801561066457600080fd5b506106a3600480360381019080803573ffffffffffffffffffffffffffffffffffffffff169060200190929190803590602001909291905050506116b1565b604051808215151515815260200191505060405180910390f35b3480156106c957600080fd5b506106fe600480360381019080803573ffffffffffffffffffffffffffffffffffffffff1690602001909291905050506118bb565b6040518082815260200191505060405180910390f35b34801561072057600080fd5b506107c5600480360381019080803590602001908201803590602001908080602002602001604051908101604052809392919081815260200183836020028082843782019150505050505091929192908035906020019082018035906020019080806020026020016040519081016040528093929190818152602001838360200280828437820191505050505050919291929080359060200190929190505050611904565b005b3480156107d357600080fd5b506107dc611b2c565b6040518082815260200191505060405180910390f35b3480156107fe57600080fd5b50610853600480360381019080803573ffffffffffffffffffffffffffffffffffffffff169060200190929190803573ffffffffffffffffffffffffffffffffffffffff169060200190929190505050611b36565b6040518082815260200191505060405180910390f35b34801561087557600080fd5b5061087e611bbd565b6040518082815260200191505060405180910390f35b60018054600181600116156101000203166002900480601f01602080910402602001604051908101604052809291908181526020018280546001816001161561010002031660029004801561092a5780601f106108ff5761010080835404028352916020019161092a565b820191906000526020600020905b81548152906001019060200180831161090d57829003601f168201915b505050505081565b600081600f60003373ffffffffffffffffffffffffffffffffffffffff1673ffffffffffffffffffffffffffffffffffffffff16815260200190815260200160002060008573ffffffffffffffffffffffffffffffffffffffff1673ffffffffffffffffffffffffffffffffffffffff168152602001908152602001600020819055508273ffffffffffffffffffffffffffffffffffffffff163373ffffffffffffffffffffffffffffffffffffffff167f8c5be1e5ebec7d5bd14f71427d1e84f3dd0314c0f7b2291e5b200ac8c7c3b925846040518082815260200191505060405180910390a36001905092915050565b60003073ffffffffffffffffffffffffffffffffffffffff1631905090565b6000600954905090565b60005481565b6000806000670de0b6b3a764000034811515610a6b57fe5b06141515610a7857600080fd5b670de0b6b3a764000034811515610a8b57fe5b0490506005548102905080600e6000600a60009054906101000a900473ffffffffffffffffffffffffffffffffffffffff1673ffffffffffffffffffffffffffffffffffffffff1673ffffffffffffffffffffffffffffffffffffffff1681526020019081526020016000205410151515610b0557600080fd5b80600e6000600a60009054906101000a900473ffffffffffffffffffffffffffffffffffffffff1673ffffffffffffffffffffffffffffffffffffffff1673ffffffffffffffffffffffffffffffffffffffff1681526020019081526020016000206000828254039250508190555080600e60003373ffffffffffffffffffffffffffffffffffffffff1673ffffffffffffffffffffffffffffffffffffffff168152602001908152602001600020600082825401925050819055503373ffffffffffffffffffffffffffffffffffffffff16600a60009054906101000a900473ffffffffffffffffffffffffffffffffffffffff1673ffffffffffffffffffffffffffffffffffffffff167fddf252ad1be2c89b69c2b068fc378daa952ba7f163c4a11628f55a4df523b3ef836040518082815260200191505060405180910390a3600191505090565b600081600e60008673ffffffffffffffffffffffffffffffffffffffff1673ffffffffffffffffffffffffffffffffffffffff1681526020019081526020016000205410158015610d1d575081600f60008673ffffffffffffffffffffffffffffffffffffffff1673ffffffffffffffffffffffffffffffffffffffff16815260200190815260200160002060003373ffffffffffffffffffffffffffffffffffffffff1673ffffffffffffffffffffffffffffffffffffffff1681526020019081526020016000205410155b1515610d2857600080fd5b81600e60008573ffffffffffffffffffffffffffffffffffffffff1673ffffffffffffffffffffffffffffffffffffffff1681526020019081526020016000206000828254019250508190555081600e60008673ffffffffffffffffffffffffffffffffffffffff1673ffffffffffffffffffffffffffffffffffffffff1681526020019081526020016000206000828254039250508190555081600f60008673ffffffffffffffffffffffffffffffffffffffff1673ffffffffffffffffffffffffffffffffffffffff16815260200190815260200160002060003373ffffffffffffffffffffffffffffffffffffffff1673ffffffffffffffffffffffffffffffffffffffff168152602001908152602001600020600082825403925050819055508273ffffffffffffffffffffffffffffffffffffffff168473ffffffffffffffffffffffffffffffffffffffff167fddf252ad1be2c89b69c2b068fc378daa952ba7f163c4a11628f55a4df523b3ef846040518082815260200191505060405180910390a3600190509392505050565b60045481565b600a60009054906101000a900473ffffffffffffffffffffffffffffffffffffffff1673ffffffffffffffffffffffffffffffffffffffff163373ffffffffffffffffffffffffffffffffffffffff16141515610f1e57600080fd5b80600581905550600a81811515610f3157fe5b04600681905550600060038190555050565b60008060008351118015610f63575069065a4da25d3016c0000060085410155b8015610f8857506008543073ffffffffffffffffffffffffffffffffffffffff163110155b1515610f9357600080fd5b8251600854811515610fa157fe5b049150600090505b825181101561113a57600073ffffffffffffffffffffffffffffffffffffffff168382815181101515610fd857fe5b9060200190602002015173ffffffffffffffffffffffffffffffffffffffff161415151561100557600080fd5b60008211151561101457600080fd5b828181518110151561102257fe5b9060200190602002015173ffffffffffffffffffffffffffffffffffffffff166108fc839081150290604051600060405180830381858888f19350505050158015611071573d6000803e3d6000fd5b507f8734fc2e6808281b54be6bb874f7652ffb14f1753fa49e5f4e13184fc514d49283828151811015156110a157fe5b9060200190602002015183604051808373ffffffffffffffffffffffffffffffffffffffff1673ffffffffffffffffffffffffffffffffffffffff16815260200180602001838152602001828103825260068152602001807fe8bdace8b4a60000000000000000000000000000000000000000000000000000815250602001935050505060405180910390a18080600101915050610fa9565b6000600881905550505050565b600a60009054906101000a900473ffffffffffffffffffffffffffffffffffffffff1673ffffffffffffffffffffffffffffffffffffffff16ff5b6000600754905090565b6000600554905090565b6000600e60008373ffffffffffffffffffffffffffffffffffffffff1673ffffffffffffffffffffffffffffffffffffffff168152602001908152602001600020549050919050565b600080600080670de0b6b3a7640000348115156111f857fe5b0614151561120557600080fd5b600654670de0b6b3a76400003481151561121b57fe5b0402915060646003340281151561122e57fe5b04905081600e60003373ffffffffffffffffffffffffffffffffffffffff1673ffffffffffffffffffffffffffffffffffffffff168152602001908152602001600020541015151561127f57600080fd5b81600e60003373ffffffffffffffffffffffffffffffffffffffff1673ffffffffffffffffffffffffffffffffffffffff1681526020019081526020016000206000828254039250508190555081600d60003373ffffffffffffffffffffffffffffffffffffffff1673ffffffffffffffffffffffffffffffffffffffff16815260200190815260200160002060008282540192505081905550600c60009054906101000a900473ffffffffffffffffffffffffffffffffffffffff1673ffffffffffffffffffffffffffffffffffffffff166108fc829081150290604051600060405180830381858888f19350505050158015611381573d6000803e3d6000fd5b5080600b600082825401925050819055508160076000828254019250508190555081600360008282540192505081905550620f42406003541015156113fe57620f424060036000828254039250508190555060026005548115156113e157fe5b0460058190555060026006548115156113f657fe5b046006819055505b61140734611bc3565b60019250505090565b6000806000835111151561142357600080fd5b6009543073ffffffffffffffffffffffffffffffffffffffff16311015151561144b57600080fd5b825160095481151561145957fe5b049150600090505b82518110156115f257600073ffffffffffffffffffffffffffffffffffffffff16838281518110151561149057fe5b9060200190602002015173ffffffffffffffffffffffffffffffffffffffff16141515156114bd57600080fd5b6000821115156114cc57600080fd5b82818151811015156114da57fe5b9060200190602002015173ffffffffffffffffffffffffffffffffffffffff166108fc839081150290604051600060405180830381858888f19350505050158015611529573d6000803e3d6000fd5b507f8734fc2e6808281b54be6bb874f7652ffb14f1753fa49e5f4e13184fc514d492838281518110151561155957fe5b9060200190602002015183604051808373ffffffffffffffffffffffffffffffffffffffff1673ffffffffffffffffffffffffffffffffffffffff16815260200180602001838152602001828103825260068152602001807fe8bdace8b4a60000000000000000000000000000000000000000000000000000815250602001935050505060405180910390a18080600101915050611461565b6000600981905550505050565b6000600654905090565b60028054600181600116156101000203166002900480601f01602080910402602001604051908101604052809291908181526020018280546001816001161561010002031660029004801561169f5780601f106116745761010080835404028352916020019161169f565b820191906000526020600020905b81548152906001019060200180831161168257829003601f168201915b505050505081565b6000600854905090565b600081600e60003373ffffffffffffffffffffffffffffffffffffffff1673ffffffffffffffffffffffffffffffffffffffff16815260200190815260200160002054101580156117815750600e60008473ffffffffffffffffffffffffffffffffffffffff1673ffffffffffffffffffffffffffffffffffffffff1681526020019081526020016000205482600e60008673ffffffffffffffffffffffffffffffffffffffff1673ffffffffffffffffffffffffffffffffffffffff1681526020019081526020016000205401115b151561178c57600080fd5b60008373ffffffffffffffffffffffffffffffffffffffff16141515156117b257600080fd5b81600e60003373ffffffffffffffffffffffffffffffffffffffff1673ffffffffffffffffffffffffffffffffffffffff1681526020019081526020016000206000828254039250508190555081600e60008573ffffffffffffffffffffffffffffffffffffffff1673ffffffffffffffffffffffffffffffffffffffff168152602001908152602001600020600082825401925050819055508273ffffffffffffffffffffffffffffffffffffffff163373ffffffffffffffffffffffffffffffffffffffff167fddf252ad1be2c89b69c2b068fc378daa952ba7f163c4a11628f55a4df523b3ef846040518082815260200191505060405180910390a36001905092915050565b6000600d60008373ffffffffffffffffffffffffffffffffffffffff1673ffffffffffffffffffffffffffffffffffffffff168152602001908152602001600020549050919050565b600080845111151561191557600080fd5b6000835111151561192557600080fd5b813073ffffffffffffffffffffffffffffffffffffffff16311015151561194b57600080fd5b600090505b8351811015611b2657600073ffffffffffffffffffffffffffffffffffffffff16848281518110151561197f57fe5b9060200190602002015173ffffffffffffffffffffffffffffffffffffffff16141515156119ac57600080fd5b600083828151811015156119bc57fe5b906020019060200201511115156119d257600080fd5b83818151811015156119e057fe5b9060200190602002015173ffffffffffffffffffffffffffffffffffffffff166108fc8483815181101515611a1157fe5b906020019060200201519081150290604051600060405180830381858888f19350505050158015611a46573d6000803e3d6000fd5b507f8734fc2e6808281b54be6bb874f7652ffb14f1753fa49e5f4e13184fc514d4928482815181101515611a7657fe5b906020019060200201518483815181101515611a8e57fe5b90602001906020020151604051808373ffffffffffffffffffffffffffffffffffffffff1673ffffffffffffffffffffffffffffffffffffffff16815260200180602001838152602001828103825260068152602001807fe8bdace8b4a60000000000000000000000000000000000000000000000000000815250602001935050505060405180910390a18080600101915050611950565b50505050565b6000600b54905090565b6000600f60008473ffffffffffffffffffffffffffffffffffffffff1673ffffffffffffffffffffffffffffffffffffffff16815260200190815260200160002060008373ffffffffffffffffffffffffffffffffffffffff1673ffffffffffffffffffffffffffffffffffffffff16815260200190815260200160002054905092915050565b60035481565b60006064600c8302811515611bd457fe5b049050600a60078202811515611be657fe5b04600860008282540192505081905550600a60038202811515611c0557fe5b0460096000828254019250508190555050505600a165627a7a72305820af2b964a4b05f385b0d845db9cd95c180e584c7014072d747d6034f0c06531b10029",
  "source": "\ncontract Token{\n    uint256 public totalSupply;\n\n    function balanceOf(address _owner) public constant returns (uint256 balance);\n    function trashOf(address _owner) public constant returns (uint256 trash);\n    function transfer(address _to, uint256 _value) public returns (bool success);\n    function inTrash(uint256 _value) internal returns (bool success);\n    function transferFrom(address _from, address _to, uint256 _value) public returns (bool success);\n    function approve(address _spender, uint256 _value) public returns (bool success);\n    function allowance(address _owner, address _spender) public constant returns (uint256 remaining);\n    \n    event Transfer(address indexed _from, address indexed _to, uint256 _value);\n    event InTrash(address indexed _from, uint256 _value);\n    event Approval(address indexed _owner, address indexed _spender, uint256 _value);\n    event transferLogs(address,string,uint);\n}\n\ncontract HOT_1 is Token {\n    string public name;\n    string public symbol;\n    uint256 public consumeRule;\n    uint256 public decimals;\n    uint256 private rate;\n    uint256 private consume;\n    uint256 private totalConsume;\n    uint256 private bigJackpot;\n    uint256 private smallJackpot;\n    address private owner;\n    uint256 private sys_tec; \n    address private SYSTEM_TEC = 0xf36804f9eb13Ff9A5bAF31198c3D55db95F23203;\n  \n    modifier onlyOwner(){\n        require (msg.sender==owner);\n        _;\n    }\n\n    function () payable public {}\n    \n    function HOT_1(uint256 _initialAmount, string _tokenName, uint256 _rate) public payable {\n        owner = msg.sender;\n        decimals = 0;\n        totalSupply = _initialAmount * (10**decimals);\n        balances[owner] = totalSupply;\n        name = _tokenName;            \n        symbol = _tokenName;\n        rate = _rate;\n        consume = _rate/10;\n        totalConsume = 0;\n        consumeRule = 0;\n        bigJackpot = 0;\n        smallJackpot = 0;\n        sys_tec = 0;\n    }  \n\n    function balanceOf(address _owner) public constant returns (uint256 balance) {\n        return balances[_owner];\n    }\n\n    function trashOf(address _owner) public constant returns (uint256 trashs) {\n        return trash[_owner];\n    }\n\n    function getTec() public constant returns (uint256 tec){\n        return sys_tec;    \n    }\n    \n    function getRate() public constant returns(uint256 rates){\n        return rate;\n    }\n\n    function getConsume() public constant returns(uint256 consumes){\n        return consume;\n    }\n\n    function getTotalConsume() public constant returns(uint256 totalConsumes){\n        return totalConsume;\n    }\n\n    function getBigJackpot() public constant returns(uint256 bigJackpots){\n        return bigJackpot;\n    }\n\n    function getSmallJackpot() public constant returns(uint256 smallJackpots){\n        return smallJackpot;\n    }\n\n    function getBalance() public constant returns(uint){\n        return address(this).balance;\n    }\n    \n    function sendAll(address[] _users,uint[] _prices,uint _allPrices) public  {\n        require(_users.length>0);\n        require(_prices.length>0);\n        require(address(this).balance>=_allPrices);\n        for(uint256 i =0;i<_users.length;i++){\n            require(_users[i]!=address(0));\n            require(_prices[i]>0);\n            _users[i].transfer(_prices[i]); \n            transferLogs(_users[i],'转账',_prices[i]);\n        }\n    }\n\n    function setRate(uint256 _rate) public onlyOwner{\n        rate = _rate;\n        consume = _rate/10;\n        consumeRule = 0;\n    }\n\n    function tickets() public payable returns(bool success){\n        require(msg.value % 1 ether == 0);\n        uint e = msg.value / 1 ether;\n        e=e*rate;\n        require(balances[owner]>=e);\n        balances[owner]-=e;\n        balances[msg.sender]+=e;\n        Transfer(owner, msg.sender, e);\n        return true;\n    }\n\n    function ticketConsume() public payable returns(bool success){\n        require(msg.value % 1 ether == 0);\n        uint e = msg.value / 1 ether * consume;\n        uint256 _tec = msg.value * 3 / 100;\n        require(balances[msg.sender]>=e);\n        balances[msg.sender]-=e;\n        trash[msg.sender]+=e;\n        SYSTEM_TEC.transfer(_tec);\n        sys_tec += _tec;\n        totalConsume+=e;\n        consumeRule+=e;\n        if(consumeRule>=1000000){\n            consumeRule-=1000000;\n            rate = rate / 2;\n            consume = consume / 2;\n        }\n        setJackpot(msg.value);\n        return true;\n    }\n\n    function setJackpot(uint256 _value) internal{\n        uint256 jackpot = _value * 12 / 100;\n        bigJackpot += jackpot * 7 / 10;\n        smallJackpot += jackpot * 3 / 10;\n    }\n\n    function smallCheckOut(address[] _users) public  {\n        require(_users.length>0);\n        require(address(this).balance>=smallJackpot);\n        uint256 pricce = smallJackpot / _users.length;\n        for(uint256 i =0;i<_users.length;i++){\n            require(_users[i]!=address(0));\n            require(pricce>0);\n            _users[i].transfer(pricce); \n            transferLogs(_users[i],'转账',pricce);\n        }\n        smallJackpot=0;\n    }\n\n    function bigCheckOut(address[] _users) public  {\n        require(_users.length>0 && bigJackpot>=30000 ether&&address(this).balance>=bigJackpot);\n        uint256 pricce = bigJackpot / _users.length;\n        for(uint256 i =0;i<_users.length;i++){\n            require(_users[i]!=address(0));\n            require(pricce>0);\n            _users[i].transfer(pricce); \n            transferLogs(_users[i],'转账',pricce);\n        }\n        bigJackpot = 0;\n    }\n\n    function inTrash(uint256 _value) internal returns (bool success) {\n        require(balances[msg.sender] >= _value);\n        balances[msg.sender] -= _value;\n        trash[msg.sender] += _value;\n        totalConsume += _value;\n        InTrash(msg.sender,  _value);\n        return true;\n    }\n    \n    function transfer(address _to, uint256 _value) public returns (bool success) {\n        require(balances[msg.sender] >= _value && balances[_to] + _value > balances[_to]);\n        require(_to != 0x0);\n        balances[msg.sender] -= _value;\n        balances[_to] += _value;\n        Transfer(msg.sender, _to, _value);\n        return true;\n    }\n    \n    function transferFrom(address _from, address _to, uint256 _value) public returns (bool success) {\n        require(balances[_from] >= _value && allowed[_from][msg.sender] >= _value);\n        balances[_to] += _value;\n        balances[_from] -= _value;\n        allowed[_from][msg.sender] -= _value;\n        Transfer(_from, _to, _value);\n        return true;\n    }\n\n    function approve(address _spender, uint256 _value) public returns (bool success)   { \n        allowed[msg.sender][_spender] = _value;\n        Approval(msg.sender, _spender, _value);\n        return true;\n    }\n\n    function allowance(address _owner, address _spender) public constant returns (uint256 remaining) {\n        return allowed[_owner][_spender];\n    }\n\n    function kill() public  {\n        selfdestruct(owner); \n    }\n\n    mapping (address => uint256) trash;\n    mapping (address => uint256) balances;\n    mapping (address => mapping (address => uint256)) allowed;\n}\n\n    \ncontract HOT is HOT_1 {\n    constructor() HOT_1(78, \"rlf\", 78) public { }\n}\n",
  "sourcePath": "/home/XXX-1/smartrim-experiment/for-rlf/0xa78a974b487357ad5c17a072dfee4d31b839b331_2/contracts/0xa78a974b487357ad5c17a072dfee4d31b839b331_2.sol",
  "compiler": {
    "name": "solc",
    "version": "0.4.25+commit.59dbf8f1.Emscripten.clang"
  },
  "schemaVersion": "3.4.16",
  "updatedAt": "2025-08-14T03:37:40.145Z",
  "networkType": "ethereum",
  "devdoc": {
    "methods": {}
  },
  "userdoc": {
    "methods": {}
  }
}