{
  "contractName": "Freezable",
  "abi": [
    {
      "constant": true,
      "inputs": [],
      "name": "owner",
      "outputs": [
        {
          "name": "",
          "type": "address"
        }
      ],
      "payable": false,
      "stateMutability": "view",
      "type": "function"
    },
    {
      "constant": true,
      "inputs": [
        {
          "name": "",
          "type": "address"
        }
      ],
      "name": "frozen",
      "outputs": [
        {
          "name": "",
          "type": "bool"
        }
      ],
      "payable": false,
      "stateMutability": "view",
      "type": "function"
    },
    {
      "constant": false,
      "inputs": [
        {
          "name": "_newOwner",
          "type": "address"
        }
      ],
      "name": "transferOwnership",
      "outputs": [],
      "payable": false,
      "stateMutability": "nonpayable",
      "type": "function"
    },
    {
      "constant": true,
      "inputs": [],
      "name": "emergencyFreeze",
      "outputs": [
        {
          "name": "",
          "type": "bool"
        }
      ],
      "payable": false,
      "stateMutability": "view",
      "type": "function"
    },
    {
      "anonymous": false,
      "inputs": [
        {
          "indexed": true,
          "name": "target",
          "type": "address"
        },
        {
          "indexed": true,
          "name": "freezeStatus",
          "type": "bool"
        }
      ],
      "name": "LogFreezed",
      "type": "event"
    },
    {
      "anonymous": false,
      "inputs": [
        {
          "indexed": false,
          "name": "emergencyFreezeStatus",
          "type": "bool"
        }
      ],
      "name": "LogEmergencyFreezed",
      "type": "event"
    },
    {
      "anonymous": false,
      "inputs": [
        {
          "indexed": true,
          "name": "oldOwner",
          "type": "address"
        },
        {
          "indexed": true,
          "name": "newOwner",
          "type": "address"
        }
      ],
      "name": "LogOwnershipTransferred",
      "type": "event"
    },
    {
      "constant": false,
      "inputs": [
        {
          "name": "_target",
          "type": "address"
        },
        {
          "name": "_freeze",
          "type": "bool"
        }
      ],
      "name": "freezeAccount",
      "outputs": [],
      "payable": false,
      "stateMutability": "nonpayable",
      "type": "function"
    },
    {
      "constant": false,
      "inputs": [
        {
          "name": "_freeze",
          "type": "bool"
        }
      ],
      "name": "emergencyFreezeAllAccounts",
      "outputs": [],
      "payable": false,
      "stateMutability": "nonpayable",
      "type": "function"
    }
  ],
  "bytecode": "0x6080604052336000806101000a81548173ffffffffffffffffffffffffffffffffffffffff021916908373ffffffffffffffffffffffffffffffffffffffff1602179055506107f6806100536000396000f300608060405260043610610078576000357c0100000000000000000000000000000000000000000000000000000000900463ffffffff1680637898278f1461007d5780638da5cb5b146100ac578063d051665014610103578063e724529c1461015e578063f2fde38b146101ad578063f3d4b942146101f0575b600080fd5b34801561008957600080fd5b506100aa60048036038101908080351515906020019092919050505061021f565b005b3480156100b857600080fd5b506100c161033b565b604051808273ffffffffffffffffffffffffffffffffffffffff1673ffffffffffffffffffffffffffffffffffffffff16815260200191505060405180910390f35b34801561010f57600080fd5b50610144600480360381019080803573ffffffffffffffffffffffffffffffffffffffff169060200190929190505050610360565b604051808215151515815260200191505060405180910390f35b34801561016a57600080fd5b506101ab600480360381019080803573ffffffffffffffffffffffffffffffffffffffff169060200190929190803515159060200190929190505050610380565b005b3480156101b957600080fd5b506101ee600480360381019080803573ffffffffffffffffffffffffffffffffffffffff16906020019092919050505061058a565b005b3480156101fc57600080fd5b506102056107b7565b604051808215151515815260200191505060405180910390f35b6000809054906101000a900473ffffffffffffffffffffffffffffffffffffffff1673ffffffffffffffffffffffffffffffffffffffff163373ffffffffffffffffffffffffffffffffffffffff161415156102e3576040517f08c379a00000000000000000000000000000000000000000000000000000000081526004018080602001828103825260158152602001807f4f6e6c79206f776e657220697320616c6c6f776564000000000000000000000081525060200191505060405180910390fd5b80600060146101000a81548160ff0219169083151502179055507f580548506bb4255fa3aac48e0b760d26bf3b05333e738393bbca5dfb440054c881604051808215151515815260200191505060405180910390a150565b6000809054906101000a900473ffffffffffffffffffffffffffffffffffffffff1681565b60016020528060005260406000206000915054906101000a900460ff1681565b6000809054906101000a900473ffffffffffffffffffffffffffffffffffffffff1673ffffffffffffffffffffffffffffffffffffffff163373ffffffffffffffffffffffffffffffffffffffff16141515610444576040517f08c379a00000000000000000000000000000000000000000000000000000000081526004018080602001828103825260158152602001807f4f6e6c79206f776e657220697320616c6c6f776564000000000000000000000081525060200191505060405180910390fd5b600073ffffffffffffffffffffffffffffffffffffffff168273ffffffffffffffffffffffffffffffffffffffff16141515156104e9576040517f08c379a00000000000000000000000000000000000000000000000000000000081526004018080602001828103825260188152602001807f5a65726f2061646472657373206e6f7420616c6c6f776564000000000000000081525060200191505060405180910390fd5b80600160008473ffffffffffffffffffffffffffffffffffffffff1673ffffffffffffffffffffffffffffffffffffffff16815260200190815260200160002060006101000a81548160ff0219169083151502179055508015158273ffffffffffffffffffffffffffffffffffffffff167fdad2539b39cdbb96eb5dac852bf880a471c22b0e9d698aa1d48eae8d014ea8f460405160405180910390a35050565b60008060009054906101000a900473ffffffffffffffffffffffffffffffffffffffff1673ffffffffffffffffffffffffffffffffffffffff163373ffffffffffffffffffffffffffffffffffffffff16141515610650576040517f08c379a00000000000000000000000000000000000000000000000000000000081526004018080602001828103825260158152602001807f4f6e6c79206f776e657220697320616c6c6f776564000000000000000000000081525060200191505060405180910390fd5b600073ffffffffffffffffffffffffffffffffffffffff168273ffffffffffffffffffffffffffffffffffffffff16141515156106f5576040517f08c379a00000000000000000000000000000000000000000000000000000000081526004018080602001828103825260188152602001807f5a65726f2061646472657373206e6f7420616c6c6f776564000000000000000081525060200191505060405180910390fd5b6000809054906101000a900473ffffffffffffffffffffffffffffffffffffffff169050816000806101000a81548173ffffffffffffffffffffffffffffffffffffffff021916908373ffffffffffffffffffffffffffffffffffffffff1602179055508173ffffffffffffffffffffffffffffffffffffffff168173ffffffffffffffffffffffffffffffffffffffff167fdb6d05f3295cede580affa301a1eb5297528f3b3f6a56b075887ce6f61c45f2160405160405180910390a35050565b600060149054906101000a900460ff16815600a165627a7a72305820165f49d8fb25294a8f5d0d8c87433fa1583dae461c7de547f68da40f0141670f0029",
  "source": "\n\n\nlibrary SafeMath {\n\n    function mul(uint256 a, uint256 b) internal pure returns (uint256) {\n        if (a == 0) {\n            return 0;\n        }\n        uint256 c = a * b;\n        assert(c / a == b);\n        return c;\n    }\n\n    function div(uint256 a, uint256 b) internal pure returns (uint256) {\n        \n        uint256 c = a / b;\n        \n        return c;\n    }\n\n    function sub(uint256 a, uint256 b) internal pure returns (uint256) {\n        assert(b <= a);\n        return a - b;\n    }\n    \n    function add(uint256 a, uint256 b) internal pure returns (uint256) {\n\n        uint256 c = a + b;\n        assert(c >= a);\n        return c;\n    }\n}\n\n\ncontract ERC223Interface {\n    uint public totalSupply;\n    function balanceOf(address who) public view returns (uint);\n    function transfer(address to, uint value) public;\n    function transfer(address to, uint value, bytes memory data) public;\n    event Transfer(address indexed from, address indexed to, uint value, bytes data);\n}\n\n\n\ninterface ERC223ReceivingContract {\n    \n    function tokenFallback( address from, uint value, bytes  data ) external;\n}\n\n\n\ncontract Ownership {\n\n    address public owner;\n    event LogOwnershipTransferred(address indexed oldOwner, address indexed newOwner);\n\n\n    constructor() public {\n        owner = msg.sender;\n    }\n\n    modifier onlyOwner {\n        require(msg.sender == owner, \"Only owner is allowed\");\n        _;\n    }\n\n    \n    function transferOwnership(address _newOwner)\n        public\n        onlyOwner\n    {\n        require(_newOwner != address(0), \"Zero address not allowed\");\n        address oldOwner = owner;\n        owner = _newOwner;\n        emit LogOwnershipTransferred(oldOwner, _newOwner);\n    }\n\n}\n\n\ncontract Freezable is Ownership {\n\n    bool public emergencyFreeze;\n    mapping (address => bool) public frozen;\n\n    event LogFreezed(address indexed target, bool indexed freezeStatus);\n    event LogEmergencyFreezed(bool emergencyFreezeStatus);\n\n    modifier unfreezed(address _account) {\n        require(!frozen[_account], \"Account is unfreezed\");\n        _;\n    }\n\n    modifier noEmergencyFreeze() {\n        require(!emergencyFreeze, \"Account is freezed\");\n        _;\n    }\n\n    \n    function freezeAccount (address _target, bool _freeze)\n        public\n        onlyOwner\n    {\n        require(_target != address(0), \"Zero address not allowed\");\n        frozen[_target] = _freeze;\n        emit LogFreezed(_target, _freeze);\n    }\n\n   \n    function emergencyFreezeAllAccounts (bool _freeze)\n        public\n        onlyOwner\n    {\n        emergencyFreeze = _freeze;\n        emit LogEmergencyFreezed(_freeze);\n    }\n}\n\n\n\ncontract StandardToken is ERC223Interface, Freezable {\n\n    using SafeMath for uint;\n\n    string public name;\n    string public symbol;\n    uint public decimals;\n    uint public totalSupply;\n    uint public currentSupply;\n\n    mapping (address => uint) internal balances;\n    mapping (address => mapping (address => uint) ) private  allowed;\n\n    event Approval(address indexed tokenOwner, address indexed spender, uint tokens);\n\n    constructor () public {\n        name = 'CNEXCHANGE';\n        symbol = 'CNEX';\n        decimals = 8;\n        totalSupply = 400000000 * ( 10 ** decimals ); \n    }\n\n    \n    function transfer(address _to, uint _value)\n        public\n        unfreezed(_to)\n        unfreezed(msg.sender)\n        noEmergencyFreeze()\n    {\n        bytes memory _data;\n        _transfer223(msg.sender, _to, _value, _data);\n    }\n\n    \n    function transfer(address _to, uint _value, bytes memory _data)\n        public\n        unfreezed(_to)\n        unfreezed(msg.sender)\n        noEmergencyFreeze()\n    {\n        _transfer223(msg.sender, _to, _value, _data);\n    }\n\n    \n    function isContract( address _addr )\n        private\n        view\n        returns (bool)\n    {\n        uint length;\n        assembly { length := extcodesize(_addr) }\n        return (length > 0);\n    }\n\n    \n    function approve(address _spender, uint _value)\n        public\n        unfreezed(_spender)\n        unfreezed(msg.sender)\n        noEmergencyFreeze()\n        returns (bool success)\n    {\n        require((_value == 0) || (allowed[msg.sender][_spender] == 0), \"Approval needs to be 0 first\");\n        require(_spender != msg.sender, \"Can not approve to self\");\n        allowed[msg.sender][_spender] = _value;\n        emit Approval(msg.sender, _spender, _value);\n        return true;\n    }\n\n    \n    function increaseApproval(address _spender, uint _addedValue)\n        public\n        unfreezed(_spender)\n        unfreezed(msg.sender)\n        noEmergencyFreeze()\n        returns (bool success)\n    {\n        require(_spender != msg.sender, \"Can not approve to self\");\n        allowed[msg.sender][_spender] = allowed[msg.sender][_spender].add(_addedValue);\n        emit Approval(msg.sender, _spender, allowed[msg.sender][_spender]);\n        return true;\n    }\n\n    \n    function decreaseApproval(address _spender, uint _subtractedValue)\n        public\n        unfreezed(_spender)\n        unfreezed(msg.sender)\n        noEmergencyFreeze()\n        returns (bool success)\n    {\n        require(_spender != msg.sender, \"Can not approve to self\");\n        uint oldAllowance = allowed[msg.sender][_spender];\n        if (_subtractedValue > oldAllowance) {\n            allowed[msg.sender][_spender] = 0;\n        } else {\n            allowed[msg.sender][_spender] = oldAllowance.sub(_subtractedValue);\n        }\n        emit Approval(msg.sender, _spender, allowed[msg.sender][_spender]);\n        return true;\n    }\n\n    \n    function transferFrom(address _from, address _to, uint _value)\n        public\n        unfreezed(_to)\n        unfreezed(msg.sender)\n        noEmergencyFreeze()\n        returns (bool success)\n    {\n        require(_value <= allowed[_from][msg.sender], \"Insufficient allowance\");\n        allowed[_from][msg.sender] = allowed[_from][msg.sender].sub(_value);\n        bytes memory _data;\n        _transfer223(_from, _to, _value, _data);\n        return true;\n    }\n\n    \n    function transferFrom(address _from, address _to, uint _value, bytes memory _data)\n        public\n        unfreezed(_to)\n        unfreezed(msg.sender)\n        noEmergencyFreeze()\n        returns (bool success)\n    {\n        require(_value <= allowed[_from][msg.sender], \"Insufficient allowance\");\n        allowed[_from][msg.sender] = allowed[_from][msg.sender].sub(_value);\n        _transfer223(_from, _to, _value, _data);\n        return true;\n    }\n\n\n    \n    function burn(uint256 _value)\n        public\n        unfreezed(msg.sender)\n        noEmergencyFreeze()\n        onlyOwner\n        returns (bool success)\n    {\n        require(balances[msg.sender] >= _value, \"Insufficient balance\");\n        balances[msg.sender] = balances[msg.sender].sub(_value);\n        totalSupply = totalSupply.sub(_value);\n        currentSupply = currentSupply.sub(_value);\n        bytes memory _data;\n        emit Transfer(msg.sender, address(0), _value, _data);\n        return true;\n    }\n\n  \n    \n    function balanceOf(address _tokenOwner) public view returns (uint) {\n        return balances[_tokenOwner];\n    }\n\n    \n    function allowance(address _tokenOwner, address _spender) public view returns (uint) {\n        return allowed[_tokenOwner][_spender];\n    }\n\n    \n    function transferAnyERC20Token(address _tokenAddress, uint _value)\n        public\n        onlyOwner\n    {\n        ERC223Interface(_tokenAddress).transfer(owner, _value);\n    }\n\n    \n    function _transfer223(address _from, address _to, uint _value, bytes memory _data)\n        private\n    {\n        require(_to != address(0), \"Zero address not allowed\");\n        require(balances[_from] >= _value, \"Insufficient balance\");\n        uint balBeforeTransfer = balances[_from].add(balances[_to]);\n        balances[_from] = balances[_from].sub(_value);\n        balances[_to] = balances[_to].add(_value);\n        if (isContract(_to)) {\n            ERC223ReceivingContract receiver = ERC223ReceivingContract(_to);\n            receiver.tokenFallback(msg.sender, _value, _data);\n        }\n        uint balAfterTransfer = balances[_from].add(balances[_to]);\n        assert(balBeforeTransfer == balAfterTransfer);\n        emit Transfer(_from, _to, _value, _data); \n    }\n\n}\n\n\ncontract CNEXToken is StandardToken {\n\n    uint public icoFunds;\n    uint public consumerProtectionFund;\n    uint public ecoSystemDevelopmentAndOperationFund;\n    uint public teamAndFounderFund;\n\n    bool public consumerProtectionFundAllocated = false;\n    bool public ecoSystemDevelopmentAndOperationFundAllocated = false;\n    bool public teamAndFounderFundAllocated = false;\n\n    uint public tokenDeploymentTime;\n\n    constructor() public StandardToken(){\n        owner = msg.sender;\n        icoFunds = 200000000 * (10 ** decimals); \n        consumerProtectionFund = 60000000 * (10 ** decimals); \n        ecoSystemDevelopmentAndOperationFund = 100000000 * (10 ** decimals); \n        teamAndFounderFund = 40000000 * (10 ** decimals); \n        tokenDeploymentTime = now;\n        _mint(msg.sender, icoFunds);\n    }\n    \n    \n    function allocateConsumerProtectionFund()\n        public\n        onlyOwner\n    {\n        require(!consumerProtectionFundAllocated, \"Already allocated\");\n        consumerProtectionFundAllocated = true;\n        _mint(owner, consumerProtectionFund);\n    }\n\n    \n    function allocateEcoSystemDevelopmentAndOperationFund()\n        public\n        onlyOwner\n    {\n        require(!ecoSystemDevelopmentAndOperationFundAllocated, \"Already allocated\");\n        ecoSystemDevelopmentAndOperationFundAllocated = true;\n        _mint(owner, ecoSystemDevelopmentAndOperationFund);\n    }\n    \n    \n    function allocateTeamAndFounderFund()\n        public\n        onlyOwner\n    {\n        require(!teamAndFounderFundAllocated, \"Already allocated\");\n        require(now > tokenDeploymentTime + 365 days, \"Vesting period not over yet\");\n        teamAndFounderFundAllocated = true;\n        _mint(owner, teamAndFounderFund);\n    }\n\n    \n    function kill(uint _code)\n        public\n        \n    {\n        require(_code == 1234567890, \"Invalid code\");\n        selfdestruct(address(uint160(owner))); \n    }\n\n    \n    function _mint(address _to, uint _value)\n        private\n        onlyOwner\n    {\n        require(currentSupply.add(_value) <= totalSupply, \"Exceeds total supply\");\n        balances[_to] = balances[_to].add(_value);\n        currentSupply = currentSupply.add(_value);\n        bytes memory _data;\n        emit Transfer(address(0), _to, _value, _data);\n    }\n    \n}\n",
  "sourcePath": "/home/XXX-1/smartrim-experiment/for-rlf/0x95195adfb67f28acfc07ce09eb496188527c0303_2/contracts/0x95195adfb67f28acfc07ce09eb496188527c0303_2.sol",
  "compiler": {
    "name": "solc",
    "version": "0.4.25+commit.59dbf8f1.Emscripten.clang"
  },
  "schemaVersion": "3.4.16",
  "updatedAt": "2025-08-14T03:37:56.817Z",
  "devdoc": {
    "methods": {}
  },
  "userdoc": {
    "methods": {}
  }
}