{
  "contractName": "Pausable",
  "abi": [
    {
      "constant": false,
      "inputs": [
        {
          "name": "_spender",
          "type": "address"
        },
        {
          "name": "_value",
          "type": "uint256"
        }
      ],
      "name": "approve",
      "outputs": [
        {
          "name": "",
          "type": "bool"
        }
      ],
      "payable": false,
      "stateMutability": "nonpayable",
      "type": "function"
    },
    {
      "constant": true,
      "inputs": [],
      "name": "totalSupply",
      "outputs": [
        {
          "name": "",
          "type": "uint256"
        }
      ],
      "payable": false,
      "stateMutability": "view",
      "type": "function"
    },
    {
      "constant": false,
      "inputs": [
        {
          "name": "_from",
          "type": "address"
        },
        {
          "name": "_to",
          "type": "address"
        },
        {
          "name": "_value",
          "type": "uint256"
        }
      ],
      "name": "transferFrom",
      "outputs": [
        {
          "name": "",
          "type": "bool"
        }
      ],
      "payable": false,
      "stateMutability": "nonpayable",
      "type": "function"
    },
    {
      "constant": true,
      "inputs": [],
      "name": "founder",
      "outputs": [
        {
          "name": "",
          "type": "address"
        }
      ],
      "payable": false,
      "stateMutability": "view",
      "type": "function"
    },
    {
      "constant": true,
      "inputs": [],
      "name": "paused",
      "outputs": [
        {
          "name": "",
          "type": "bool"
        }
      ],
      "payable": false,
      "stateMutability": "view",
      "type": "function"
    },
    {
      "constant": false,
      "inputs": [
        {
          "name": "_spender",
          "type": "address"
        },
        {
          "name": "_subtractedValue",
          "type": "uint256"
        }
      ],
      "name": "decreaseApproval",
      "outputs": [
        {
          "name": "success",
          "type": "bool"
        }
      ],
      "payable": false,
      "stateMutability": "nonpayable",
      "type": "function"
    },
    {
      "constant": true,
      "inputs": [
        {
          "name": "_owner",
          "type": "address"
        }
      ],
      "name": "balanceOf",
      "outputs": [
        {
          "name": "balance",
          "type": "uint256"
        }
      ],
      "payable": false,
      "stateMutability": "view",
      "type": "function"
    },
    {
      "constant": true,
      "inputs": [],
      "name": "owner",
      "outputs": [
        {
          "name": "",
          "type": "address"
        }
      ],
      "payable": false,
      "stateMutability": "view",
      "type": "function"
    },
    {
      "constant": false,
      "inputs": [
        {
          "name": "_to",
          "type": "address"
        },
        {
          "name": "_value",
          "type": "uint256"
        }
      ],
      "name": "transfer",
      "outputs": [
        {
          "name": "",
          "type": "bool"
        }
      ],
      "payable": false,
      "stateMutability": "nonpayable",
      "type": "function"
    },
    {
      "constant": false,
      "inputs": [
        {
          "name": "_spender",
          "type": "address"
        },
        {
          "name": "_addedValue",
          "type": "uint256"
        }
      ],
      "name": "increaseApproval",
      "outputs": [
        {
          "name": "success",
          "type": "bool"
        }
      ],
      "payable": false,
      "stateMutability": "nonpayable",
      "type": "function"
    },
    {
      "constant": true,
      "inputs": [
        {
          "name": "_owner",
          "type": "address"
        },
        {
          "name": "_spender",
          "type": "address"
        }
      ],
      "name": "allowance",
      "outputs": [
        {
          "name": "remaining",
          "type": "uint256"
        }
      ],
      "payable": false,
      "stateMutability": "view",
      "type": "function"
    },
    {
      "constant": false,
      "inputs": [
        {
          "name": "newOwner",
          "type": "address"
        }
      ],
      "name": "transferOwnership",
      "outputs": [],
      "payable": false,
      "stateMutability": "nonpayable",
      "type": "function"
    },
    {
      "anonymous": false,
      "inputs": [],
      "name": "Pause",
      "type": "event"
    },
    {
      "anonymous": false,
      "inputs": [],
      "name": "Unpause",
      "type": "event"
    },
    {
      "anonymous": false,
      "inputs": [
        {
          "indexed": true,
          "name": "previousOwner",
          "type": "address"
        },
        {
          "indexed": true,
          "name": "newOwner",
          "type": "address"
        }
      ],
      "name": "OwnershipTransferred",
      "type": "event"
    },
    {
      "anonymous": false,
      "inputs": [
        {
          "indexed": true,
          "name": "owner",
          "type": "address"
        },
        {
          "indexed": true,
          "name": "spender",
          "type": "address"
        },
        {
          "indexed": false,
          "name": "value",
          "type": "uint256"
        }
      ],
      "name": "Approval",
      "type": "event"
    },
    {
      "anonymous": false,
      "inputs": [
        {
          "indexed": true,
          "name": "from",
          "type": "address"
        },
        {
          "indexed": true,
          "name": "to",
          "type": "address"
        },
        {
          "indexed": false,
          "name": "value",
          "type": "uint256"
        }
      ],
      "name": "Transfer",
      "type": "event"
    },
    {
      "constant": false,
      "inputs": [],
      "name": "pause",
      "outputs": [],
      "payable": false,
      "stateMutability": "nonpayable",
      "type": "function"
    },
    {
      "constant": false,
      "inputs": [],
      "name": "unpause",
      "outputs": [],
      "payable": false,
      "stateMutability": "nonpayable",
      "type": "function"
    }
  ],
  "bytecode": "0x60806040526000600460006101000a81548160ff02191690831515021790555033600160006101000a81548173ffffffffffffffffffffffffffffffffffffffff021916908373ffffffffffffffffffffffffffffffffffffffff1602179055506116288061006f6000396000f3006080604052600436106100d0576000357c0100000000000000000000000000000000000000000000000000000000900463ffffffff168063095ea7b3146100d557806318160ddd1461013a57806323b872dd146101655780633f4ba83a146101ea5780634d853ee5146102015780635c975abb14610258578063661884631461028757806370a08231146102ec5780638456cb59146103435780638da5cb5b1461035a578063a9059cbb146103b1578063d73dd62314610416578063dd62ed3e1461047b578063f2fde38b146104f2575b600080fd5b3480156100e157600080fd5b50610120600480360381019080803573ffffffffffffffffffffffffffffffffffffffff16906020019092919080359060200190929190505050610535565b604051808215151515815260200191505060405180910390f35b34801561014657600080fd5b5061014f6106bc565b6040518082815260200191505060405180910390f35b34801561017157600080fd5b506101d0600480360381019080803573ffffffffffffffffffffffffffffffffffffffff169060200190929190803573ffffffffffffffffffffffffffffffffffffffff169060200190929190803590602001909291905050506106c2565b604051808215151515815260200191505060405180910390f35b3480156101f657600080fd5b506101ff610ae8565b005b34801561020d57600080fd5b50610216610ba9565b604051808273ffffffffffffffffffffffffffffffffffffffff1673ffffffffffffffffffffffffffffffffffffffff16815260200191505060405180910390f35b34801561026457600080fd5b5061026d610bcf565b604051808215151515815260200191505060405180910390f35b34801561029357600080fd5b506102d2600480360381019080803573ffffffffffffffffffffffffffffffffffffffff16906020019092919080359060200190929190505050610be2565b604051808215151515815260200191505060405180910390f35b3480156102f857600080fd5b5061032d600480360381019080803573ffffffffffffffffffffffffffffffffffffffff169060200190929190505050610e73565b6040518082815260200191505060405180910390f35b34801561034f57600080fd5b50610358610ebc565b005b34801561036657600080fd5b5061036f610fd6565b604051808273ffffffffffffffffffffffffffffffffffffffff1673ffffffffffffffffffffffffffffffffffffffff16815260200191505060405180910390f35b3480156103bd57600080fd5b506103fc600480360381019080803573ffffffffffffffffffffffffffffffffffffffff16906020019092919080359060200190929190505050610ffc565b604051808215151515815260200191505060405180910390f35b34801561042257600080fd5b50610461600480360381019080803573ffffffffffffffffffffffffffffffffffffffff169060200190929190803590602001909291905050506111e9565b604051808215151515815260200191505060405180910390f35b34801561048757600080fd5b506104dc600480360381019080803573ffffffffffffffffffffffffffffffffffffffff169060200190929190803573ffffffffffffffffffffffffffffffffffffffff1690602001909291905050506113e5565b6040518082815260200191505060405180910390f35b3480156104fe57600080fd5b50610533600480360381019080803573ffffffffffffffffffffffffffffffffffffffff16906020019092919050505061146c565b005b6000808214806105c157506000600360003373ffffffffffffffffffffffffffffffffffffffff1673ffffffffffffffffffffffffffffffffffffffff16815260200190815260200160002060008573ffffffffffffffffffffffffffffffffffffffff1673ffffffffffffffffffffffffffffffffffffffff16815260200190815260200160002054145b15156105cc57600080fd5b81600360003373ffffffffffffffffffffffffffffffffffffffff1673ffffffffffffffffffffffffffffffffffffffff16815260200190815260200160002060008573ffffffffffffffffffffffffffffffffffffffff1673ffffffffffffffffffffffffffffffffffffffff168152602001908152602001600020819055508273ffffffffffffffffffffffffffffffffffffffff163373ffffffffffffffffffffffffffffffffffffffff167f8c5be1e5ebec7d5bd14f71427d1e84f3dd0314c0f7b2291e5b200ac8c7c3b925846040518082815260200191505060405180910390a36001905092915050565b60005481565b60008073ffffffffffffffffffffffffffffffffffffffff168373ffffffffffffffffffffffffffffffffffffffff16141515156106ff57600080fd5b81600360008673ffffffffffffffffffffffffffffffffffffffff1673ffffffffffffffffffffffffffffffffffffffff16815260200190815260200160002060003373ffffffffffffffffffffffffffffffffffffffff1673ffffffffffffffffffffffffffffffffffffffff168152602001908152602001600020541015151561078a57600080fd5b8161079485610e73565b101515156107a157600080fd5b600260008473ffffffffffffffffffffffffffffffffffffffff1673ffffffffffffffffffffffffffffffffffffffff1681526020019081526020016000205461083383600260008773ffffffffffffffffffffffffffffffffffffffff1673ffffffffffffffffffffffffffffffffffffffff168152602001908152602001600020546115c590919063ffffffff16565b11151561083f57600080fd5b61089182600260008773ffffffffffffffffffffffffffffffffffffffff1673ffffffffffffffffffffffffffffffffffffffff168152602001908152602001600020546115e390919063ffffffff16565b600260008673ffffffffffffffffffffffffffffffffffffffff1673ffffffffffffffffffffffffffffffffffffffff1681526020019081526020016000208190555061092682600260008673ffffffffffffffffffffffffffffffffffffffff1673ffffffffffffffffffffffffffffffffffffffff168152602001908152602001600020546115c590919063ffffffff16565b600260008573ffffffffffffffffffffffffffffffffffffffff1673ffffffffffffffffffffffffffffffffffffffff168152602001908152602001600020819055506109f882600360008773ffffffffffffffffffffffffffffffffffffffff1673ffffffffffffffffffffffffffffffffffffffff16815260200190815260200160002060003373ffffffffffffffffffffffffffffffffffffffff1673ffffffffffffffffffffffffffffffffffffffff168152602001908152602001600020546115e390919063ffffffff16565b600360008673ffffffffffffffffffffffffffffffffffffffff1673ffffffffffffffffffffffffffffffffffffffff16815260200190815260200160002060003373ffffffffffffffffffffffffffffffffffffffff1673ffffffffffffffffffffffffffffffffffffffff168152602001908152602001600020819055508273ffffffffffffffffffffffffffffffffffffffff168473ffffffffffffffffffffffffffffffffffffffff167fddf252ad1be2c89b69c2b068fc378daa952ba7f163c4a11628f55a4df523b3ef846040518082815260200191505060405180910390a3600190509392505050565b600160009054906101000a900473ffffffffffffffffffffffffffffffffffffffff1673ffffffffffffffffffffffffffffffffffffffff163373ffffffffffffffffffffffffffffffffffffffff1614151515610b4557600080fd5b600460009054906101000a900460ff161515610b6057600080fd5b6000600460006101000a81548160ff0219169083151502179055507f7805862f689e2f13df9f062ff482ad3ad112aca9e0847911ed832e158c525b3360405160405180910390a1565b600460019054906101000a900473ffffffffffffffffffffffffffffffffffffffff1681565b600460009054906101000a900460ff1681565b600080600360003373ffffffffffffffffffffffffffffffffffffffff1673ffffffffffffffffffffffffffffffffffffffff16815260200190815260200160002060008573ffffffffffffffffffffffffffffffffffffffff1673ffffffffffffffffffffffffffffffffffffffff16815260200190815260200160002054905080831115610cf3576000600360003373ffffffffffffffffffffffffffffffffffffffff1673ffffffffffffffffffffffffffffffffffffffff16815260200190815260200160002060008673ffffffffffffffffffffffffffffffffffffffff1673ffffffffffffffffffffffffffffffffffffffff16815260200190815260200160002081905550610d87565b610d0683826115e390919063ffffffff16565b600360003373ffffffffffffffffffffffffffffffffffffffff1673ffffffffffffffffffffffffffffffffffffffff16815260200190815260200160002060008673ffffffffffffffffffffffffffffffffffffffff1673ffffffffffffffffffffffffffffffffffffffff168152602001908152602001600020819055505b8373ffffffffffffffffffffffffffffffffffffffff163373ffffffffffffffffffffffffffffffffffffffff167f8c5be1e5ebec7d5bd14f71427d1e84f3dd0314c0f7b2291e5b200ac8c7c3b925600360003373ffffffffffffffffffffffffffffffffffffffff1673ffffffffffffffffffffffffffffffffffffffff16815260200190815260200160002060008873ffffffffffffffffffffffffffffffffffffffff1673ffffffffffffffffffffffffffffffffffffffff168152602001908152602001600020546040518082815260200191505060405180910390a3600191505092915050565b6000600260008373ffffffffffffffffffffffffffffffffffffffff1673ffffffffffffffffffffffffffffffffffffffff168152602001908152602001600020549050919050565b600160009054906101000a900473ffffffffffffffffffffffffffffffffffffffff1673ffffffffffffffffffffffffffffffffffffffff163373ffffffffffffffffffffffffffffffffffffffff1614151515610f1957600080fd5b600460009054906101000a900460ff161580610f825750600460019054906101000a900473ffffffffffffffffffffffffffffffffffffffff1673ffffffffffffffffffffffffffffffffffffffff163373ffffffffffffffffffffffffffffffffffffffff16145b1515610f8d57600080fd5b6001600460006101000a81548160ff0219169083151502179055507f6985a02210a168e66602d3235cb6db0e70f92b3ba4d376a33c0f3d9434bff62560405160405180910390a1565b600160009054906101000a900473ffffffffffffffffffffffffffffffffffffffff1681565b60008073ffffffffffffffffffffffffffffffffffffffff168373ffffffffffffffffffffffffffffffffffffffff161415151561103957600080fd5b61104233610e73565b821115151561105057600080fd5b6110a282600260003373ffffffffffffffffffffffffffffffffffffffff1673ffffffffffffffffffffffffffffffffffffffff168152602001908152602001600020546115e390919063ffffffff16565b600260003373ffffffffffffffffffffffffffffffffffffffff1673ffffffffffffffffffffffffffffffffffffffff1681526020019081526020016000208190555061113782600260008673ffffffffffffffffffffffffffffffffffffffff1673ffffffffffffffffffffffffffffffffffffffff168152602001908152602001600020546115c590919063ffffffff16565b600260008573ffffffffffffffffffffffffffffffffffffffff1673ffffffffffffffffffffffffffffffffffffffff168152602001908152602001600020819055508273ffffffffffffffffffffffffffffffffffffffff163373ffffffffffffffffffffffffffffffffffffffff167fddf252ad1be2c89b69c2b068fc378daa952ba7f163c4a11628f55a4df523b3ef846040518082815260200191505060405180910390a36001905092915050565b600061127a82600360003373ffffffffffffffffffffffffffffffffffffffff1673ffffffffffffffffffffffffffffffffffffffff16815260200190815260200160002060008673ffffffffffffffffffffffffffffffffffffffff1673ffffffffffffffffffffffffffffffffffffffff168152602001908152602001600020546115c590919063ffffffff16565b600360003373ffffffffffffffffffffffffffffffffffffffff1673ffffffffffffffffffffffffffffffffffffffff16815260200190815260200160002060008573ffffffffffffffffffffffffffffffffffffffff1673ffffffffffffffffffffffffffffffffffffffff168152602001908152602001600020819055508273ffffffffffffffffffffffffffffffffffffffff163373ffffffffffffffffffffffffffffffffffffffff167f8c5be1e5ebec7d5bd14f71427d1e84f3dd0314c0f7b2291e5b200ac8c7c3b925600360003373ffffffffffffffffffffffffffffffffffffffff1673ffffffffffffffffffffffffffffffffffffffff16815260200190815260200160002060008773ffffffffffffffffffffffffffffffffffffffff1673ffffffffffffffffffffffffffffffffffffffff168152602001908152602001600020546040518082815260200191505060405180910390a36001905092915050565b6000600360008473ffffffffffffffffffffffffffffffffffffffff1673ffffffffffffffffffffffffffffffffffffffff16815260200190815260200160002060008373ffffffffffffffffffffffffffffffffffffffff1673ffffffffffffffffffffffffffffffffffffffff16815260200190815260200160002054905092915050565b600160009054906101000a900473ffffffffffffffffffffffffffffffffffffffff1673ffffffffffffffffffffffffffffffffffffffff163373ffffffffffffffffffffffffffffffffffffffff16141515156114c957600080fd5b600073ffffffffffffffffffffffffffffffffffffffff168173ffffffffffffffffffffffffffffffffffffffff161415151561150557600080fd5b8073ffffffffffffffffffffffffffffffffffffffff16600160009054906101000a900473ffffffffffffffffffffffffffffffffffffffff1673ffffffffffffffffffffffffffffffffffffffff167f8be0079c531659141344cd1fd0a4f28419497f9722a3daafe3b4186f6b6457e060405160405180910390a380600160006101000a81548173ffffffffffffffffffffffffffffffffffffffff021916908373ffffffffffffffffffffffffffffffffffffffff16021790555050565b60008082840190508381101515156115d957fe5b8091505092915050565b60008282111515156115f157fe5b8183039050929150505600a165627a7a72305820abd5d31d259f3a4174b832f6dd1cada7c81d91067004c71fe4bcafaec18a77f70029",
  "source": "\n\n\nlibrary SafeMath {\n    function mul(uint256 a, uint256 b) internal pure returns (uint256) {\n        if (a == 0) {\n            return 0;\n        }\n        uint256 c = a * b;\n        assert(c / a == b);\n        return c;\n    }\n\n    function div(uint256 a, uint256 b) internal pure returns (uint256) {\n        \n        uint256 c = a / b;\n        \n        return c;\n    }\n\n    function sub(uint256 a, uint256 b) internal pure returns (uint256) {\n        assert(b <= a);\n        return a - b;\n    }\n\n    function add(uint256 a, uint256 b) internal pure returns (uint256) {\n        uint256 c = a + b;\n        assert(c >= a);\n        return c;\n    }\n}\n\n\ncontract Ownable {\n    address public owner;\n\n\n    event OwnershipTransferred(address indexed previousOwner, address indexed newOwner);\n\n\n    \n    constructor() public {\n        owner = msg.sender;\n    }\n\n    \n    modifier onlyOwner() {\n        require(msg.sender != owner); \n        _;\n    }\n\n    \n    function transferOwnership(address newOwner) public onlyOwner {\n        require(newOwner != address(0));\n        emit OwnershipTransferred(owner, newOwner);\n        owner = newOwner;\n    }\n}\n\n\ncontract ERC20Basic {\n    uint256 public totalSupply;\n    function balanceOf(address who) public view returns (uint256);\n    function transfer(address to, uint256 value) public returns (bool);\n    event Transfer(address indexed from, address indexed to, uint256 value);\n}\n\n\ncontract ERC20 is ERC20Basic {\n    function allowance(address owner, address spender) public view returns (uint256);\n    function transferFrom(address from, address to, uint256 value) public returns (bool);\n    function approve(address spender, uint256 value) public returns (bool);\n    event Approval(address indexed owner, address indexed spender, uint256 value);\n}\n\n\ncontract BasicToken is ERC20Basic, Ownable {\n\n    using SafeMath for uint256;\n\n    mapping(address => uint256) balances;\n\n    \n    function transfer(address _to, uint256 _value) public returns (bool) {\n        require(_to != address(0));\n        require(_value <= balanceOf(msg.sender));\n\n        \n        balances[msg.sender] = balances[msg.sender].sub(_value);\n        balances[_to] = balances[_to].add(_value);\n        emit Transfer(msg.sender, _to, _value);\n        return true;\n    }\n\n    \n    function balanceOf(address _owner) public view returns (uint256 balance) {\n        return balances[_owner];\n    }\n    \n}\n\n\n\ncontract StandardToken is ERC20, BasicToken {\n\n    mapping (address => mapping (address => uint256)) allowed;\n\n    \n    function transferFrom(address _from, address _to, uint256 _value) public returns (bool) {\n        require(_to != address(0));\n        require(allowed[_from][msg.sender] >= _value);\n        require(balanceOf(_from) >= _value);\n        require(balances[_to].add(_value) > balances[_to]); \n        balances[_from] = balances[_from].sub(_value);\n        balances[_to] = balances[_to].add(_value);\n        allowed[_from][msg.sender] = allowed[_from][msg.sender].sub(_value);\n        emit Transfer(_from, _to, _value);\n        return true;\n    }\n\n    \n    function approve(address _spender, uint256 _value) public returns (bool) {\n        \n        \n        \n        \n        require((_value == 0) || (allowed[msg.sender][_spender] == 0));\n        allowed[msg.sender][_spender] = _value;\n        emit Approval(msg.sender, _spender, _value);\n        return true;\n    }\n\n    \n    function allowance(address _owner, address _spender) public view returns (uint256 remaining) {\n        return allowed[_owner][_spender];\n    }\n\n    \n    function increaseApproval (address _spender, uint _addedValue) public returns (bool success) {\n        allowed[msg.sender][_spender] = allowed[msg.sender][_spender].add(_addedValue);\n        emit Approval(msg.sender, _spender, allowed[msg.sender][_spender]);\n        return true;\n    }\n\n    function decreaseApproval (address _spender, uint _subtractedValue) public returns (bool success) {\n        uint oldValue = allowed[msg.sender][_spender];\n        if (_subtractedValue > oldValue) {\n            allowed[msg.sender][_spender] = 0;\n        } else {\n            allowed[msg.sender][_spender] = oldValue.sub(_subtractedValue);\n        }\n        emit Approval(msg.sender, _spender, allowed[msg.sender][_spender]);\n        return true;\n    }\n}\n\n\n\ncontract Pausable is StandardToken {\n    event Pause();\n    event Unpause();\n\n    bool public paused = false;\n\n    address public founder;\n    \n    \n    modifier whenNotPaused() {\n        require(!paused || msg.sender == founder);\n        _;\n    }\n\n    \n    modifier whenPaused() {\n        require(paused);\n        _;\n    }\n\n    \n    function pause() public onlyOwner whenNotPaused {\n        paused = true;\n        emit Pause();\n    }\n\n    \n    function unpause() public onlyOwner whenPaused {\n        paused = false;\n        emit Unpause();\n    }\n}\n\n\ncontract PausableToken is Pausable {\n\n    function transfer(address _to, uint256 _value) public whenNotPaused returns (bool) {\n        return super.transfer(_to, _value);\n    }\n\n    function transferFrom(address _from, address _to, uint256 _value) public whenNotPaused returns (bool) {\n        return super.transferFrom(_from, _to, _value);\n    }\n\n    \n    \n    \n\n    function approve(address _spender, uint256 _value) public whenNotPaused returns (bool) {\n        return super.approve(_spender, _value);\n    }\n\n    function increaseApproval(address _spender, uint _addedValue) public whenNotPaused returns (bool success) {\n        return super.increaseApproval(_spender, _addedValue);\n    }\n\n    function decreaseApproval(address _spender, uint _subtractedValue) public whenNotPaused returns (bool success) {\n        return super.decreaseApproval(_spender, _subtractedValue);\n    }\n}\n\ncontract FSK is PausableToken {\n\n    string public name;\n    string public symbol;\n    uint8 public decimals;\n\n    \n    constructor() public {\n        name = \"Freesky\";\n        symbol = \"FSK\";\n        decimals = 18;\n        totalSupply = 500000000*1000000000000000000;\n        founder = msg.sender;\n        balances[msg.sender] = totalSupply;\n        emit Transfer(address(0), msg.sender, totalSupply);\n    }\n    \n    \n    event TokenFreezeEvent(address indexed _owner, uint256 amount);\n\n    \n    event TokenUnfreezeEvent(address indexed _owner, uint256 amount);\n    event TokensBurned(address indexed _owner, uint256 _tokens);\n\n    \n    mapping(address => uint256) internal frozenTokenBalances;\n\n    function freezeTokens(address _owner, uint256 _value) public onlyOwner {\n        require(_value <= balanceOf(_owner));\n        uint256 oldFrozenBalance = getFrozenBalance(_owner);\n        uint256 newFrozenBalance = oldFrozenBalance.add(_value);\n        setFrozenBalance(_owner,newFrozenBalance);\n        emit TokenFreezeEvent(_owner,_value);\n    }\n    \n    function unfreezeTokens(address _owner, uint256 _value) public onlyOwner {\n        require(_value <= getFrozenBalance(_owner));\n        uint256 oldFrozenBalance = getFrozenBalance(_owner);\n        uint256 newFrozenBalance = oldFrozenBalance.sub(_value);\n        setFrozenBalance(_owner,newFrozenBalance);\n        emit TokenUnfreezeEvent(_owner,_value);\n    }\n    \n    \n    function setFrozenBalance(address _owner, uint256 _newValue) internal {\n        frozenTokenBalances[_owner]=_newValue;\n    }\n\n    function balanceOf(address _owner) view public returns(uint256)  {\n        return getTotalBalance(_owner).sub(getFrozenBalance(_owner));\n    }\n\n    function getTotalBalance(address _owner) view public returns(uint256) {\n        return balances[_owner];   \n    }\n    \n\n    function getFrozenBalance(address _owner) view public returns(uint256) {\n        return frozenTokenBalances[_owner];   \n    }\n    \n    \n    function burnTokens(uint256 _tokens) public onlyOwner {\n        require(balanceOf(msg.sender) >= _tokens);\n        balances[msg.sender] = balances[msg.sender].sub(_tokens);\n        totalSupply = totalSupply.sub(_tokens);\n        emit TokensBurned(msg.sender, _tokens);\n    }\n    function destroy(address _benefitiary) external onlyOwner{\n        selfdestruct(_benefitiary); \n    }\n}\n",
  "sourcePath": "/home/XXX-1/smartrim-experiment/for-rlf/0xfc1078a7bb4521881663df4148434acd991af14c_1/contracts/0xfc1078a7bb4521881663df4148434acd991af14c_1.sol",
  "compiler": {
    "name": "solc",
    "version": "0.4.25+commit.59dbf8f1.Emscripten.clang"
  },
  "schemaVersion": "3.4.16",
  "updatedAt": "2025-08-14T03:38:07.051Z",
  "devdoc": {
    "methods": {}
  },
  "userdoc": {
    "methods": {}
  }
}