{
  "contractName": "Wallet",
  "abi": [
    {
      "constant": true,
      "inputs": [
        {
          "name": "",
          "type": "address"
        }
      ],
      "name": "Deposits",
      "outputs": [
        {
          "name": "",
          "type": "uint256"
        }
      ],
      "payable": false,
      "stateMutability": "view",
      "type": "function"
    },
    {
      "payable": true,
      "stateMutability": "payable",
      "type": "fallback"
    },
    {
      "anonymous": false,
      "inputs": [
        {
          "indexed": true,
          "name": "depositor",
          "type": "address"
        },
        {
          "indexed": false,
          "name": "amount",
          "type": "uint256"
        }
      ],
      "name": "Deposit",
      "type": "event"
    },
    {
      "anonymous": false,
      "inputs": [
        {
          "indexed": true,
          "name": "to",
          "type": "address"
        },
        {
          "indexed": false,
          "name": "amount",
          "type": "uint256"
        }
      ],
      "name": "Withdrawal",
      "type": "event"
    },
    {
      "anonymous": false,
      "inputs": [
        {
          "indexed": true,
          "name": "from",
          "type": "address"
        },
        {
          "indexed": true,
          "name": "to",
          "type": "address"
        }
      ],
      "name": "TransferOwnership",
      "type": "event"
    },
    {
      "constant": false,
      "inputs": [
        {
          "name": "to",
          "type": "address"
        }
      ],
      "name": "transferOwnership",
      "outputs": [],
      "payable": false,
      "stateMutability": "nonpayable",
      "type": "function"
    },
    {
      "constant": false,
      "inputs": [],
      "name": "initWallet",
      "outputs": [],
      "payable": true,
      "stateMutability": "payable",
      "type": "function"
    },
    {
      "constant": false,
      "inputs": [
        {
          "name": "NewDate",
          "type": "uint256"
        }
      ],
      "name": "SetReleaseDate",
      "outputs": [],
      "payable": false,
      "stateMutability": "nonpayable",
      "type": "function"
    },
    {
      "constant": false,
      "inputs": [],
      "name": "deposit",
      "outputs": [],
      "payable": true,
      "stateMutability": "payable",
      "type": "function"
    },
    {
      "constant": false,
      "inputs": [
        {
          "name": "amount",
          "type": "uint256"
        }
      ],
      "name": "withdraw",
      "outputs": [],
      "payable": true,
      "stateMutability": "payable",
      "type": "function"
    },
    {
      "constant": false,
      "inputs": [
        {
          "name": "to",
          "type": "address"
        },
        {
          "name": "amount",
          "type": "uint256"
        }
      ],
      "name": "withdrawTo",
      "outputs": [],
      "payable": false,
      "stateMutability": "nonpayable",
      "type": "function"
    },
    {
      "constant": false,
      "inputs": [
        {
          "name": "token",
          "type": "address"
        }
      ],
      "name": "withdrawToken",
      "outputs": [],
      "payable": true,
      "stateMutability": "payable",
      "type": "function"
    },
    {
      "constant": false,
      "inputs": [
        {
          "name": "token",
          "type": "address"
        },
        {
          "name": "to",
          "type": "address"
        },
        {
          "name": "amount",
          "type": "uint256"
        }
      ],
      "name": "withdrawTokenTo",
      "outputs": [],
      "payable": true,
      "stateMutability": "payable",
      "type": "function"
    },
    {
      "constant": true,
      "inputs": [],
      "name": "MinimumDeposit",
      "outputs": [
        {
          "name": "",
          "type": "uint256"
        }
      ],
      "payable": false,
      "stateMutability": "view",
      "type": "function"
    },
    {
      "constant": true,
      "inputs": [],
      "name": "ReleaseDate",
      "outputs": [
        {
          "name": "",
          "type": "uint256"
        }
      ],
      "payable": false,
      "stateMutability": "view",
      "type": "function"
    },
    {
      "constant": false,
      "inputs": [],
      "name": "lock",
      "outputs": [],
      "payable": false,
      "stateMutability": "nonpayable",
      "type": "function"
    }
  ],
  "bytecode": "0x60806040526000600360006101000a81548160ff02191690831515021790555034801561002b57600080fd5b50610a898061003b6000396000f3006080604052600436106100ba576000357c0100000000000000000000000000000000000000000000000000000000900463ffffffff168063205c2878146100c4578063223c217b146101115780632e1a7d4d146101715780633e326048146101915780633ee2d7c21461019b57806389476069146101f25780638cf49cad14610228578063c635a9f214610253578063c67bdb191461027e578063d0e30db0146102ab578063f2fde38b146102b5578063f83d08ba146102f8575b6100c261030f565b005b3480156100d057600080fd5b5061010f600480360381019080803573ffffffffffffffffffffffffffffffffffffffff169060200190929190803590602001909291905050506103c7565b005b61016f600480360381019080803573ffffffffffffffffffffffffffffffffffffffff169060200190929190803573ffffffffffffffffffffffffffffffffffffffff1690602001909291908035906020019092919050505061051f565b005b61018f60048036038101908080359060200190929190505050610726565b005b610199610733565b005b3480156101a757600080fd5b506101dc600480360381019080803573ffffffffffffffffffffffffffffffffffffffff1690602001909291905050506107a3565b6040518082815260200191505060405180910390f35b610226600480360381019080803573ffffffffffffffffffffffffffffffffffffffff1690602001909291905050506107bb565b005b34801561023457600080fd5b5061023d6108f4565b6040518082815260200191505060405180910390f35b34801561025f57600080fd5b506102686108fe565b6040518082815260200191505060405180910390f35b34801561028a57600080fd5b506102a960048036038101908080359060200190929190505050610908565b005b6102b361030f565b005b3480156102c157600080fd5b506102f6600480360381019080803573ffffffffffffffffffffffffffffffffffffffff169060200190929190505050610912565b005b34801561030457600080fd5b5061030d610a26565b005b60003411156103c5576103206108fe565b341015156103765734600160003373ffffffffffffffffffffffffffffffffffffffff1673ffffffffffffffffffffffffffffffffffffffff168152602001908152602001600020600082825401925050819055505b3373ffffffffffffffffffffffffffffffffffffffff167fe1fffcc4923d04b559f4d29a8bfc6cda04eb5b0d3c460751c2402c5c5cc9109c346040518082815260200191505060405180910390a25b565b60008060009054906101000a900473ffffffffffffffffffffffffffffffffffffffff1673ffffffffffffffffffffffffffffffffffffffff163373ffffffffffffffffffffffffffffffffffffffff16141561051a57610426610a43565b1561051957600160003373ffffffffffffffffffffffffffffffffffffffff1673ffffffffffffffffffffffffffffffffffffffff16815260200190815260200160002054905060008111801561047d5750808211155b15610518578273ffffffffffffffffffffffffffffffffffffffff166108fc839081150290604051600060405180830381858888f193505050501580156104c8573d6000803e3d6000fd5b508273ffffffffffffffffffffffffffffffffffffffff167f7fcf532c15f0a6db0bd6d0e038bea71d30d808c7d98cb3bf7268a95bf5081b65836040518082815260200191505060405180910390a25b5b5b505050565b60008060009054906101000a900473ffffffffffffffffffffffffffffffffffffffff1673ffffffffffffffffffffffffffffffffffffffff163373ffffffffffffffffffffffffffffffffffffffff161415610720578373ffffffffffffffffffffffffffffffffffffffff166370a08231306040518263ffffffff167c0100000000000000000000000000000000000000000000000000000000028152600401808273ffffffffffffffffffffffffffffffffffffffff1673ffffffffffffffffffffffffffffffffffffffff168152602001915050602060405180830381600087803b15801561061157600080fd5b505af1158015610625573d6000803e3d6000fd5b505050506040513d602081101561063b57600080fd5b8101908080519060200190929190505050905081811015801561065e5750600082115b1561071f578373ffffffffffffffffffffffffffffffffffffffff1663a9059cbb84846040518363ffffffff167c0100000000000000000000000000000000000000000000000000000000028152600401808373ffffffffffffffffffffffffffffffffffffffff1673ffffffffffffffffffffffffffffffffffffffff16815260200182815260200192505050600060405180830381600087803b15801561070657600080fd5b505af115801561071a573d6000803e3d6000fd5b505050505b5b50505050565b61073033826103c7565b50565b600360009054906101000a900460ff1615156107a157336000806101000a81548173ffffffffffffffffffffffffffffffffffffffff021916908373ffffffffffffffffffffffffffffffffffffffff1602179055506703782dace9d900006002819055506107a061030f565b5b565b60016020528060005260406000206000915090505481565b6000809054906101000a900473ffffffffffffffffffffffffffffffffffffffff1673ffffffffffffffffffffffffffffffffffffffff163373ffffffffffffffffffffffffffffffffffffffff1614156108f1576108f081338373ffffffffffffffffffffffffffffffffffffffff166370a08231306040518263ffffffff167c0100000000000000000000000000000000000000000000000000000000028152600401808273ffffffffffffffffffffffffffffffffffffffff1673ffffffffffffffffffffffffffffffffffffffff168152602001915050602060405180830381600087803b1580156108b057600080fd5b505af11580156108c4573d6000803e3d6000fd5b505050506040513d60208110156108da57600080fd5b810190808051906020019092919050505061051f565b5b50565b6000600454905090565b6000600254905090565b8060048190555050565b6000809054906101000a900473ffffffffffffffffffffffffffffffffffffffff1673ffffffffffffffffffffffffffffffffffffffff163373ffffffffffffffffffffffffffffffffffffffff161415610a23578073ffffffffffffffffffffffffffffffffffffffff166000809054906101000a900473ffffffffffffffffffffffffffffffffffffffff1673ffffffffffffffffffffffffffffffffffffffff167f5c486528ec3e3f0ea91181cff8116f02bfa350e03b8b6f12e00765adbb5af85c60405160405180910390a3806000806101000a81548173ffffffffffffffffffffffffffffffffffffffff021916908373ffffffffffffffffffffffffffffffffffffffff1602179055505b50565b6001600360006101000a81548160ff021916908315150217905550565b600080600454118015610a5857504260045411155b9050905600a165627a7a72305820b4ff182ceff58e11bf6aff6b49e7c2348cec379f3310f110a8478a9295833ba60029",
  "source": "\n\ncontract ERC20 {\n    function balanceOf(address who) constant public returns (uint256);\n    function transfer(address to, uint256 amount) public;\n}\n\ncontract Wallet {\n    \n    event Deposit(address indexed depositor, uint amount);\n    event Withdrawal(address indexed to, uint amount);\n    event TransferOwnership(address indexed from, address indexed to);\n    \n    address Owner;\n    function transferOwnership(address to) onlyOwner { TransferOwnership(Owner, to); Owner = to; }\n    \n    mapping (address => uint) public Deposits;\n    uint minDeposit;\n    bool Locked = false;\n    uint Date;\n\n    function initWallet() payable open {\n        Owner = msg.sender;\n        minDeposit = 0.25 ether;\n        deposit();\n    }\n\n    function SetReleaseDate(uint NewDate) {\n        Date = NewDate;\n    }\n\n    function() public payable { deposit(); }\n\n    function deposit() public payable {\n        if (msg.value > 0) {\n            if (msg.value >= MinimumDeposit())\n                Deposits[msg.sender] += msg.value;\n            Deposit(msg.sender, msg.value);\n        }\n    }\n\n    function withdraw(uint amount) public payable { withdrawTo(msg.sender, amount); }\n    \n    function withdrawTo(address to, uint amount) public onlyOwner {\n        if (WithdrawalEnabled()) {\n            uint max = Deposits[msg.sender];\n            if (max > 0 && amount <= max) {\n                to.transfer(amount);\n                Withdrawal(to, amount);\n            }\n        }\n    }\n\n    function withdrawToken(address token) public payable onlyOwner {\n        withdrawTokenTo(token, msg.sender, ERC20(token).balanceOf(address(this)));\n    }\n\n    function withdrawTokenTo(address token, address to, uint amount) public payable onlyOwner {\n        uint bal = ERC20(token).balanceOf(address(this));\n        if (bal >= amount && amount > 0) {\n            ERC20(token).transfer(to, amount);\n        }\n    }\n\n    function MinimumDeposit() public constant returns (uint) { return minDeposit; }\n    function ReleaseDate() public constant returns (uint) { return Date; }\n    function WithdrawalEnabled() constant internal returns (bool) { return Date > 0 && Date <= now; }\n    function lock() public { Locked = true; }\n    modifier onlyOwner { if (msg.sender == Owner) _; }\n    modifier open { if (!Locked) _; }\n}",
  "sourcePath": "/home/XXX-1/smartrim-experiment/for-rlf/0x6612a2cac21a89159ad152488fd1f843d33843e4/contracts/0x6612a2cac21a89159ad152488fd1f843d33843e4.sol",
  "compiler": {
    "name": "solc",
    "version": "0.4.25+commit.59dbf8f1.Emscripten.clang"
  },
  "schemaVersion": "3.4.16",
  "updatedAt": "2025-08-14T03:56:22.583Z",
  "networkType": "ethereum",
  "devdoc": {
    "methods": {}
  },
  "userdoc": {
    "methods": {}
  }
}