{
  "contractName": "Ownable",
  "abi": [
    {
      "constant": true,
      "inputs": [],
      "name": "coOwner",
      "outputs": [
        {
          "name": "",
          "type": "address"
        }
      ],
      "payable": false,
      "stateMutability": "view",
      "type": "function"
    },
    {
      "inputs": [],
      "payable": false,
      "stateMutability": "nonpayable",
      "type": "constructor"
    },
    {
      "anonymous": false,
      "inputs": [
        {
          "indexed": true,
          "name": "previousOwner",
          "type": "address"
        },
        {
          "indexed": true,
          "name": "newOwner",
          "type": "address"
        }
      ],
      "name": "CoOwnershipTransferred",
      "type": "event"
    },
    {
      "constant": false,
      "inputs": [
        {
          "name": "_newOwner",
          "type": "address"
        }
      ],
      "name": "transferCoOwnership",
      "outputs": [],
      "payable": false,
      "stateMutability": "nonpayable",
      "type": "function"
    },
    {
      "constant": false,
      "inputs": [],
      "name": "CoWithdraw",
      "outputs": [],
      "payable": false,
      "stateMutability": "nonpayable",
      "type": "function"
    }
  ],
  "bytecode": "0x608060405234801561001057600080fd5b50336000806101000a81548173ffffffffffffffffffffffffffffffffffffffff021916908373ffffffffffffffffffffffffffffffffffffffff16021790555061038f806100606000396000f300608060405260043610610057576000357c0100000000000000000000000000000000000000000000000000000000900463ffffffff1680636f8543a61461005c578063d6d34c7c14610073578063e213beb7146100ca575b600080fd5b34801561006857600080fd5b5061007161010d565b005b34801561007f57600080fd5b506100886101e9565b604051808273ffffffffffffffffffffffffffffffffffffffff1673ffffffffffffffffffffffffffffffffffffffff16815260200191505060405180910390f35b3480156100d657600080fd5b5061010b600480360381019080803573ffffffffffffffffffffffffffffffffffffffff16906020019092919050505061020e565b005b6000809054906101000a900473ffffffffffffffffffffffffffffffffffffffff1673ffffffffffffffffffffffffffffffffffffffff163373ffffffffffffffffffffffffffffffffffffffff1614151561016857600080fd5b6000809054906101000a900473ffffffffffffffffffffffffffffffffffffffff1673ffffffffffffffffffffffffffffffffffffffff166108fc3073ffffffffffffffffffffffffffffffffffffffff16319081150290604051600060405180830381858888f193505050501580156101e6573d6000803e3d6000fd5b50565b6000809054906101000a900473ffffffffffffffffffffffffffffffffffffffff1681565b6000809054906101000a900473ffffffffffffffffffffffffffffffffffffffff1673ffffffffffffffffffffffffffffffffffffffff163373ffffffffffffffffffffffffffffffffffffffff1614151561026957600080fd5b600073ffffffffffffffffffffffffffffffffffffffff168173ffffffffffffffffffffffffffffffffffffffff16141515156102a557600080fd5b806000806101000a81548173ffffffffffffffffffffffffffffffffffffffff021916908373ffffffffffffffffffffffffffffffffffffffff1602179055508073ffffffffffffffffffffffffffffffffffffffff166000809054906101000a900473ffffffffffffffffffffffffffffffffffffffff1673ffffffffffffffffffffffffffffffffffffffff167fdec08171538bdec8ced897eb119f3e7e116c57c5e6bdc549899ea8730d3c3bc160405160405180910390a3505600a165627a7a723058203c14fd285b99eb0a8a1e6424f93f56fd99f2bb5f0b862c6cad5390ef3f3d985b0029",
  "source": "\n\nlibrary SafeMath {\n\n  function mul(uint256 a, uint256 b) internal pure returns (uint256) {\n    if (a == 0) {\n      return 0;\n    }\n    uint256 c = a * b;\n    assert(c / a == b);\n    return c;\n  }\n\n  function div(uint256 a, uint256 b) internal pure returns (uint256) {\n    \n    uint256 c = a / b;\n    \n    return c;\n  }\n\n  function sub(uint256 a, uint256 b) internal pure returns (uint256) {\n    assert(b <= a);\n    return a - b;\n  }\n\n  function add(uint256 a, uint256 b) internal pure returns (uint256) {\n    uint256 c = a + b;\n    assert(c >= a);\n    return c;\n  }\n}\n\ncontract Ownable {\n\n  address public coOwner;\n\n  function Ownable() public {\n    coOwner = msg.sender;\n  }\n\n  modifier onlyCoOwner() {\n    require(msg.sender == coOwner);\n    _;\n  }\n\n  function transferCoOwnership(address _newOwner) public onlyCoOwner {\n    require(_newOwner != address(0));\n\n    coOwner = _newOwner;\n\n    CoOwnershipTransferred(coOwner, _newOwner);\n  }\n  \n  function CoWithdraw() public onlyCoOwner {\n      coOwner.transfer(this.balance);\n  }  \n  \n  event CoOwnershipTransferred(address indexed previousOwner, address indexed newOwner);\n}\n\n\n\ncontract ERC721 {\n  \n  function approve(address _to, uint256 _tokenId) public;\n  function balanceOf(address _owner) public view returns (uint256 balance);\n  function implementsERC721() public pure returns (bool);\n  function ownerOf(uint256 _tokenId) public view returns (address addr);\n  function takeOwnership(uint256 _tokenId) public;\n  function totalSupply() public view returns (uint256 total);\n  function transferFrom(address _from, address _to, uint256 _tokenId) public;\n  function transfer(address _to, uint256 _tokenId) public;\n\n  event Transfer(address indexed from, address indexed to, uint256 tokenId);\n  event Approval(address indexed owner, address indexed approved, uint256 tokenId);\n\n  \n  \n  \n  \n  \n}\n\ncontract CryptoCarsRent is ERC721, Ownable {\n\n  event CarCreated(uint256 tokenId, string name, address owner);\n  event TokenSold(uint256 tokenId, uint256 oldPrice, uint256 newPrice, address prevOwner, address winner, string name);\n  event Transfer(address from, address to, uint256 tokenId);\n\n  string public constant NAME = \"CryptoCars\";\n  string public constant SYMBOL = \"CarsToken\";\n\n  uint256 private startingSellPrice = 0.012 ether;\n\n  mapping (uint256 => address) public carIdToOwner;\n\n  mapping (uint256 => address) public carIdToRenter;\n  mapping (uint256 => uint256) public carIdRentStartTime;\n\n  mapping (address => uint256) private ownershipTokenCount;\n\n  mapping (uint256 => address) public carIdToApproved;\n\n  mapping (uint256 => uint256) private carIdToPrice;\n  mapping (uint256 => uint256) private carIdToProfit;\n\n  \n  struct Car {\n    string name;\n  }\n\n  Car[] private cars;\n\n  function approve(address _to, uint256 _tokenId) public { \n    \n    require(_owns(msg.sender, _tokenId));\n    carIdToApproved[_tokenId] = _to;\n    Approval(msg.sender, _to, _tokenId);\n  }\n\n  function balanceOf(address _owner) public view returns (uint256 balance) { \n    return ownershipTokenCount[_owner];\n  }\n\n  function createCarToken(string _name) public onlyCoOwner {\n    _createCar(_name, address(this), startingSellPrice);\n  }\n\n  function createCarsTokens() public onlyCoOwner {\n\n\tfor (uint8 car=0; car<21; car++) {\n\t   _createCar(\"Crypto Car\", address(this), startingSellPrice);\n\t }\n\n  }\n  \n  function getCar(uint256 _tokenId) public view returns (string carName, uint256 sellingPrice, address owner) {\n    Car storage car = cars[_tokenId];\n    carName = car.name;\n    sellingPrice = carIdToPrice[_tokenId];\n    owner = carIdToOwner[_tokenId];\n  }\n\n  function implementsERC721() public pure returns (bool) {\n    return true;\n  }\n\n  function name() public pure returns (string) { \n    return NAME;\n  }\n\n  function ownerOf(uint256 _tokenId) public view returns (address owner) { \n    owner = carIdToOwner[_tokenId];\n    require(owner != address(0));\n  }\n\n  \n  function purchase(uint256 _tokenId) public payable {\n    address oldOwner = carIdToOwner[_tokenId];\n    address newOwner = msg.sender;\n\tuint256 renter_payment;\n\tuint256 payment;\n\t\n\tif (now - carIdRentStartTime[_tokenId] > 7200) \n\t\tcarIdToRenter[_tokenId] = address(0);\n\t\t\n\taddress renter = carIdToRenter[_tokenId];\n\n    uint256 sellingPrice = carIdToPrice[_tokenId];\n\tuint256 profit = carIdToProfit[_tokenId];\n\n    require(oldOwner != newOwner);\n    require(_addressNotNull(newOwner));\n    require(msg.value >= sellingPrice);\n\t\n\t\n\n    if (renter != address(0)) {\n\t\trenter_payment = uint256(SafeMath.div(SafeMath.mul(profit, 45), 100)); \n\t\tpayment = uint256(SafeMath.sub(SafeMath.div(SafeMath.mul(sellingPrice, 97), 100), renter_payment)); \n\t} else {\n\t\trenter_payment = 0;\n\t\tpayment = uint256(SafeMath.div(SafeMath.mul(sellingPrice, 94), 100)); \n\t}\n\n\t\n    \n\tif (sellingPrice < 500 finney) {\n\t\tcarIdToPrice[_tokenId] = SafeMath.mul(sellingPrice, 2); \n\t}\n\telse {\n\t\tcarIdToPrice[_tokenId] = uint256(SafeMath.div(SafeMath.mul(sellingPrice, 15), 10)); \n\t}\n\t\n    \n  \tcarIdToProfit[_tokenId] = uint256(SafeMath.sub(carIdToPrice[_tokenId], sellingPrice));\n    carIdToRenter[_tokenId] = address(0);\n\tcarIdRentStartTime[_tokenId] =  0;\n\t\n    _transfer(oldOwner, newOwner, _tokenId);\n\n    \n    if (oldOwner != address(this)) {\n      oldOwner.transfer(payment); \n    }\n\n    \n    if (renter != address(0)) {\n      renter.transfer(renter_payment); \n    }\n\n    TokenSold(_tokenId, sellingPrice, carIdToPrice[_tokenId], oldOwner, newOwner, cars[_tokenId].name);\n\t\n    if (msg.value > sellingPrice) { \n\t    uint256 purchaseExcess = SafeMath.sub(msg.value, sellingPrice);\n\t\tmsg.sender.transfer(purchaseExcess);\n\t}\n  }\n\n  function rent(uint256 _tokenId) public payable {\n\trequire(now - carIdRentStartTime[_tokenId] > 7200); \n\trequire(msg.sender != carIdToOwner[_tokenId]);\n\t\n\tuint256 profit = carIdToProfit[_tokenId]; \n\tuint256 rentPrice = uint256(SafeMath.div(SafeMath.mul(profit, 10), 100)); \n     \n    require(_addressNotNull(msg.sender));\n    require(msg.value >= rentPrice);\t \n\t\n\tcarIdRentStartTime[_tokenId] = now;\n\tcarIdToRenter[_tokenId] = msg.sender;\n\t\n\taddress carOwner = carIdToOwner[_tokenId];\n\trequire(carOwner != address(this));\n\t\n\t\n    if (carOwner != address(this)) {\n      carOwner.transfer(rentPrice); \n    }\n\t\n    if (msg.value > rentPrice) { \n\t    uint256 purchaseExcess = SafeMath.sub(msg.value, rentPrice);\n\t\tmsg.sender.transfer(purchaseExcess);\n\t}\t\n  }\n  \n  \n  function symbol() public pure returns (string) { \n    return SYMBOL;\n  }\n\n\n  function takeOwnership(uint256 _tokenId) public { \n    address newOwner = msg.sender;\n    address oldOwner = carIdToOwner[_tokenId];\n\n    require(_addressNotNull(newOwner));\n    require(_approved(newOwner, _tokenId));\n\n    _transfer(oldOwner, newOwner, _tokenId);\n  }\n  \n  function allCarsInfo() public view returns (address[] owners, address[] renters, uint256[] prices, uint256[] profits) { \n\t\n\tuint256 totalResultCars = totalSupply();\n\t\n    if (totalResultCars == 0) {\n        \n      return (new address[](0),new address[](0),new uint256[](0),new uint256[](0));\n    }\n\t\n\taddress[] memory owners_res = new address[](totalResultCars);\n\taddress[] memory renters_res = new address[](totalResultCars);\n\tuint256[] memory prices_res = new uint256[](totalResultCars);\n\tuint256[] memory profits_res = new uint256[](totalResultCars);\n\t\n\tfor (uint256 carId = 0; carId < totalResultCars; carId++) {\n\t  owners_res[carId] = carIdToOwner[carId];\n\t  if (now - carIdRentStartTime[carId] <= 7200) \n\t\trenters_res[carId] = carIdToRenter[carId];\n\t  else \n\t\trenters_res[carId] = address(0);\n\t\t\n\t  prices_res[carId] = carIdToPrice[carId];\n\t  profits_res[carId] = carIdToProfit[carId];\n\t}\n\t\n\treturn (owners_res, renters_res, prices_res, profits_res);\n  }  \n\n  function priceOf(uint256 _tokenId) public view returns (uint256 price) { \n    return carIdToPrice[_tokenId];\n  }\n  \n  function tokensOfOwner(address _owner) public view returns(uint256[] ownerTokens) { \n    uint256 tokenCount = balanceOf(_owner);\n    if (tokenCount == 0) {\n        \n      return new uint256[](0);\n    } else {\n      uint256[] memory result = new uint256[](tokenCount);\n      uint256 totalCars = totalSupply();\n      uint256 resultIndex = 0;\n\n      uint256 carId;\n      for (carId = 0; carId <= totalCars; carId++) {\n        if (carIdToOwner[carId] == _owner) {\n          result[resultIndex] = carId;\n          resultIndex++;\n        }\n      }\n      return result;\n    }\n  }\n\n  function totalSupply() public view returns (uint256 total) { \n    return cars.length;\n  }\n\n  function transfer(address _to, uint256 _tokenId) public { \n    require(_owns(msg.sender, _tokenId));\n    require(_addressNotNull(_to));\n\n\t_transfer(msg.sender, _to, _tokenId);\n  }\n\n  function transferFrom(address _from, address _to, uint256 _tokenId) public { \n    require(_owns(_from, _tokenId));\n    require(_approved(_to, _tokenId));\n    require(_addressNotNull(_to));\n\n    _transfer(_from, _to, _tokenId);\n  }\n\n\n  \n  function _addressNotNull(address _to) private pure returns (bool) {\n    return _to != address(0);\n  }\n\n  function _approved(address _to, uint256 _tokenId) private view returns (bool) {\n    return carIdToApproved[_tokenId] == _to;\n  }\n\n  function _createCar(string _name, address _owner, uint256 _price) private {\n    Car memory _car = Car({\n      name: _name\n    });\n    uint256 newCarId = cars.push(_car) - 1;\n\n    require(newCarId == uint256(uint32(newCarId))); \n\n    CarCreated(newCarId, _name, _owner);\n\n    carIdToPrice[newCarId] = _price;\n\n    _transfer(address(0), _owner, newCarId);\n  }\n\n  function _owns(address _checkedAddr, uint256 _tokenId) private view returns (bool) {\n    return _checkedAddr == carIdToOwner[_tokenId];\n  }\n\nfunction _transfer(address _from, address _to, uint256 _tokenId) private {\n    ownershipTokenCount[_to]++;\n    carIdToOwner[_tokenId] = _to;\n\n    \n    if (_from != address(0)) {\n      ownershipTokenCount[_from]--;\n      \n      delete carIdToApproved[_tokenId];\n    }\n\n    \n    Transfer(_from, _to, _tokenId);\n  }\n}",
  "sourcePath": "/home/XXX-1/smartrim-experiment/for-rlf/0x07222fc4cdacedfbcfc03cbed6e72fb329e8d0b6/contracts/0x07222fc4cdacedfbcfc03cbed6e72fb329e8d0b6.sol",
  "compiler": {
    "name": "solc",
    "version": "0.4.25+commit.59dbf8f1.Emscripten.clang"
  },
  "schemaVersion": "3.4.16",
  "updatedAt": "2025-08-14T03:45:15.282Z",
  "devdoc": {
    "methods": {}
  },
  "userdoc": {
    "methods": {}
  }
}