{
  "contractName": "Ethraffle_v1b",
  "abi": [
    {
      "constant": true,
      "inputs": [],
      "name": "paused",
      "outputs": [
        {
          "name": "",
          "type": "bool"
        }
      ],
      "payable": false,
      "stateMutability": "view",
      "type": "function"
    },
    {
      "constant": true,
      "inputs": [],
      "name": "raffleId",
      "outputs": [
        {
          "name": "",
          "type": "uint256"
        }
      ],
      "payable": false,
      "stateMutability": "view",
      "type": "function"
    },
    {
      "constant": true,
      "inputs": [],
      "name": "totalTickets",
      "outputs": [
        {
          "name": "",
          "type": "uint256"
        }
      ],
      "payable": false,
      "stateMutability": "view",
      "type": "function"
    },
    {
      "constant": true,
      "inputs": [],
      "name": "fee",
      "outputs": [
        {
          "name": "",
          "type": "uint256"
        }
      ],
      "payable": false,
      "stateMutability": "view",
      "type": "function"
    },
    {
      "constant": true,
      "inputs": [],
      "name": "prize",
      "outputs": [
        {
          "name": "",
          "type": "uint256"
        }
      ],
      "payable": false,
      "stateMutability": "view",
      "type": "function"
    },
    {
      "constant": true,
      "inputs": [],
      "name": "pricePerTicket",
      "outputs": [
        {
          "name": "",
          "type": "uint256"
        }
      ],
      "payable": false,
      "stateMutability": "view",
      "type": "function"
    },
    {
      "payable": true,
      "stateMutability": "payable",
      "type": "fallback"
    },
    {
      "anonymous": false,
      "inputs": [
        {
          "indexed": true,
          "name": "raffleId",
          "type": "uint256"
        },
        {
          "indexed": false,
          "name": "winningNumber",
          "type": "uint256"
        },
        {
          "indexed": false,
          "name": "winningAddress",
          "type": "address"
        },
        {
          "indexed": false,
          "name": "seed1",
          "type": "address"
        },
        {
          "indexed": false,
          "name": "seed2",
          "type": "address"
        },
        {
          "indexed": false,
          "name": "seed3",
          "type": "uint256"
        },
        {
          "indexed": false,
          "name": "randHash",
          "type": "bytes32"
        }
      ],
      "name": "RaffleResult",
      "type": "event"
    },
    {
      "anonymous": false,
      "inputs": [
        {
          "indexed": true,
          "name": "raffleId",
          "type": "uint256"
        },
        {
          "indexed": false,
          "name": "contestant",
          "type": "address"
        },
        {
          "indexed": false,
          "name": "number",
          "type": "uint256"
        }
      ],
      "name": "TicketPurchase",
      "type": "event"
    },
    {
      "anonymous": false,
      "inputs": [
        {
          "indexed": true,
          "name": "raffleId",
          "type": "uint256"
        },
        {
          "indexed": false,
          "name": "contestant",
          "type": "address"
        },
        {
          "indexed": false,
          "name": "number",
          "type": "uint256"
        }
      ],
      "name": "TicketRefund",
      "type": "event"
    },
    {
      "constant": false,
      "inputs": [],
      "name": "Ethraffle",
      "outputs": [],
      "payable": false,
      "stateMutability": "nonpayable",
      "type": "function"
    },
    {
      "constant": false,
      "inputs": [],
      "name": "buyTickets",
      "outputs": [],
      "payable": true,
      "stateMutability": "payable",
      "type": "function"
    },
    {
      "constant": false,
      "inputs": [],
      "name": "getRefund",
      "outputs": [],
      "payable": false,
      "stateMutability": "nonpayable",
      "type": "function"
    },
    {
      "constant": false,
      "inputs": [],
      "name": "endRaffle",
      "outputs": [],
      "payable": false,
      "stateMutability": "nonpayable",
      "type": "function"
    },
    {
      "constant": false,
      "inputs": [],
      "name": "togglePause",
      "outputs": [],
      "payable": false,
      "stateMutability": "nonpayable",
      "type": "function"
    },
    {
      "constant": false,
      "inputs": [],
      "name": "kill",
      "outputs": [],
      "payable": false,
      "stateMutability": "nonpayable",
      "type": "function"
    }
  ],
  "bytecode": "0x608060405260008060146101000a81548160ff02191690831515021790555060018055600060025534801561003357600080fd5b50610fdd806100436000396000f3006080604052600436106100ba576000357c0100000000000000000000000000000000000000000000000000000000900463ffffffff16806341c0e1b5146100c45780635c975abb146100db5780636a3684861461010a578063b2d5ae4414610121578063b375603c14610138578063c4ae316814610163578063c81998261461017a578063dd11247e14610184578063ddca3f43146101af578063e3ac5d26146101da578063e987410614610205578063ee095c0e14610230575b6100c2610247565b005b3480156100d057600080fd5b506100d96104db565b005b3480156100e757600080fd5b506100f061056c565b604051808215151515815260200191505060405180910390f35b34801561011657600080fd5b5061011f61057f565b005b34801561012d57600080fd5b506101366105c1565b005b34801561014457600080fd5b5061014d610816565b6040518082815260200191505060405180910390f35b34801561016f57600080fd5b5061017861081c565b005b610182610247565b005b34801561019057600080fd5b5061019961089e565b6040518082815260200191505060405180910390f35b3480156101bb57600080fd5b506101c46108a3565b6040518082815260200191505060405180910390f35b3480156101e657600080fd5b506101ef6108ae565b6040518082815260200191505060405180910390f35b34801561021157600080fd5b5061021a6108ba565b6040518082815260200191505060405180910390f35b34801561023c57600080fd5b506102456108db565b005b600080600060149054906101000a900460ff16156102ab573373ffffffffffffffffffffffffffffffffffffffff166108fc349081150290604051600060405180830381858888f193505050501580156102a5573d6000803e3d6000fd5b506104d7565b3491505b6032666a94d74f4300006722b1c8c1227a0000018115156102cc57fe5b0482101580156102de57506032600254105b1561047157600090506000600480549050111561033457600460016004805490500381548110151561030c57fe5b90600052602060002001549050600480548091906001900361032e9190610f60565b50610348565b600260008154809291906001019190505590505b60408051908101604052803373ffffffffffffffffffffffffffffffffffffffff1681526020016001548152506003600083815260200190815260200160002060008201518160000160006101000a81548173ffffffffffffffffffffffffffffffffffffffff021916908373ffffffffffffffffffffffffffffffffffffffff160217905550602082015181600101559050506001547f24c553806a0c0d72a519acfdd0ddf0a5f14a54389e411baf3055eded1126f1e63383604051808373ffffffffffffffffffffffffffffffffffffffff1673ffffffffffffffffffffffffffffffffffffffff1681526020018281526020019250505060405180910390a26032666a94d74f4300006722b1c8c1227a00000181151561046757fe5b04820391506102af565b6032600254141561048557610484610be6565b5b60008211156104d6573373ffffffffffffffffffffffffffffffffffffffff166108fc839081150290604051600060405180830381858888f193505050501580156104d4573d6000803e3d6000fd5b505b5b5050565b6000809054906101000a900473ffffffffffffffffffffffffffffffffffffffff1673ffffffffffffffffffffffffffffffffffffffff163373ffffffffffffffffffffffffffffffffffffffff16141561056a576000809054906101000a900473ffffffffffffffffffffffffffffffffffffffff1673ffffffffffffffffffffffffffffffffffffffff16ff5b565b600060149054906101000a900460ff1681565b336000806101000a81548173ffffffffffffffffffffffffffffffffffffffff021916908373ffffffffffffffffffffffffffffffffffffffff160217905550565b60008060009150600090505b60328110156107c1576003600082815260200190815260200160002060000160009054906101000a900473ffffffffffffffffffffffffffffffffffffffff1673ffffffffffffffffffffffffffffffffffffffff163373ffffffffffffffffffffffffffffffffffffffff1614801561065e57506003600082815260200190815260200160002060010154600154145b156107b4576032666a94d74f4300006722b1c8c1227a00000181151561068057fe5b04820191506040805190810160405280600073ffffffffffffffffffffffffffffffffffffffff16815260200160008152506003600083815260200190815260200160002060008201518160000160006101000a81548173ffffffffffffffffffffffffffffffffffffffff021916908373ffffffffffffffffffffffffffffffffffffffff1602179055506020820151816001015590505060048190806001815401808255809150509060018203906000526020600020016000909192909190915055506001547fb56b591803cc7bbb211b8af54a52c3a403e25fb272b9b853e59f42cef9e41d983383604051808373ffffffffffffffffffffffffffffffffffffffff1673ffffffffffffffffffffffffffffffffffffffff1681526020018281526020019250505060405180910390a25b80806001019150506105cd565b6000821115610812573373ffffffffffffffffffffffffffffffffffffffff166108fc839081150290604051600060405180830381858888f19350505050158015610810573d6000803e3d6000fd5b505b5050565b60015481565b6000809054906101000a900473ffffffffffffffffffffffffffffffffffffffff1673ffffffffffffffffffffffffffffffffffffffff163373ffffffffffffffffffffffffffffffffffffffff16141561089c57600060149054906101000a900460ff1615600060146101000a81548160ff0219169083151502179055505b565b603281565b666a94d74f43000081565b6722b1c8c1227a000081565b6032666a94d74f4300006722b1c8c1227a0000018115156108d757fe5b0481565b60008060009054906101000a900473ffffffffffffffffffffffffffffffffffffffff1673ffffffffffffffffffffffffffffffffffffffff163373ffffffffffffffffffffffffffffffffffffffff161415610be3576001600060146101000a81548160ff021916908315150217905550600090505b6032811015610ac75760036000828152602001908152602001600020600101546001541415610aba576001547fb56b591803cc7bbb211b8af54a52c3a403e25fb272b9b853e59f42cef9e41d986003600084815260200190815260200160002060000160009054906101000a900473ffffffffffffffffffffffffffffffffffffffff1683604051808373ffffffffffffffffffffffffffffffffffffffff1673ffffffffffffffffffffffffffffffffffffffff1681526020018281526020019250505060405180910390a26003600082815260200190815260200160002060000160009054906101000a900473ffffffffffffffffffffffffffffffffffffffff1673ffffffffffffffffffffffffffffffffffffffff166108fc6032666a94d74f4300006722b1c8c1227a000001811515610a8c57fe5b049081150290604051600060405180830381858888f19350505050158015610ab8573d6000803e3d6000fd5b505b8080600101915050610952565b6001547f91fed1c01d0e27fae621ae930b8bf1b8853907a9bc637f404f3292d8da8d627a60326000806000806000604051808781526020018673ffffffffffffffffffffffffffffffffffffffff1673ffffffffffffffffffffffffffffffffffffffff1681526020018573ffffffffffffffffffffffffffffffffffffffff1673ffffffffffffffffffffffffffffffffffffffff1681526020018473ffffffffffffffffffffffffffffffffffffffff1673ffffffffffffffffffffffffffffffffffffffff16815260200183815260200182600102600019168152602001965050505050505060405180910390a260016000815480929190600101919050555060006002819055506000600481610be19190610f60565b505b50565b6000806000806000806003600060324173ffffffffffffffffffffffffffffffffffffffff16811515610c1557fe5b06815260200190815260200160002060000160009054906101000a900473ffffffffffffffffffffffffffffffffffffffff1695506003600060323373ffffffffffffffffffffffffffffffffffffffff16811515610c7057fe5b06815260200190815260200160002060000160009054906101000a900473ffffffffffffffffffffffffffffffffffffffff169450449350858585604051808473ffffffffffffffffffffffffffffffffffffffff1673ffffffffffffffffffffffffffffffffffffffff166c010000000000000000000000000281526014018373ffffffffffffffffffffffffffffffffffffffff1673ffffffffffffffffffffffffffffffffffffffff166c0100000000000000000000000002815260140182815260200193505050506040518091039020925060328360019004811515610d5657fe5b0691506003600083815260200190815260200160002060000160009054906101000a900473ffffffffffffffffffffffffffffffffffffffff1690506001547f91fed1c01d0e27fae621ae930b8bf1b8853907a9bc637f404f3292d8da8d627a838389898989604051808781526020018673ffffffffffffffffffffffffffffffffffffffff1673ffffffffffffffffffffffffffffffffffffffff1681526020018573ffffffffffffffffffffffffffffffffffffffff1673ffffffffffffffffffffffffffffffffffffffff1681526020018473ffffffffffffffffffffffffffffffffffffffff1673ffffffffffffffffffffffffffffffffffffffff1681526020018381526020018260001916600019168152602001965050505050505060405180910390a260016000815480929190600101919050555060006002819055508073ffffffffffffffffffffffffffffffffffffffff166108fc6722b1c8c1227a00009081150290604051600060405180830381858888f19350505050158015610ee8573d6000803e3d6000fd5b506000809054906101000a900473ffffffffffffffffffffffffffffffffffffffff1673ffffffffffffffffffffffffffffffffffffffff166108fc666a94d74f4300009081150290604051600060405180830381858888f19350505050158015610f57573d6000803e3d6000fd5b50505050505050565b815481835581811115610f8757818360005260206000209182019101610f869190610f8c565b5b505050565b610fae91905b80821115610faa576000816000905550600101610f92565b5090565b905600a165627a7a72305820ac56490c0856a35d78411e61014a80c4e251ea461550b65332f4b308e84b25070029",
  "source": "\n\ncontract Ethraffle_v1b {\n    struct Contestant {\n        address addr;\n        uint raffleId;\n    }\n\n    event RaffleResult(\n        uint indexed raffleId,\n        uint winningNumber,\n        address winningAddress,\n        address seed1,\n        address seed2,\n        uint seed3,\n        bytes32 randHash\n    );\n\n    event TicketPurchase(\n        uint indexed raffleId,\n        address contestant,\n        uint number\n    );\n\n    event TicketRefund(\n        uint indexed raffleId,\n        address contestant,\n        uint number\n    );\n\n    \n    uint public constant prize = 2.5 ether;\n    uint public constant fee = 0.03 ether;\n    uint public constant totalTickets = 50;\n    uint public constant pricePerTicket = (prize + fee) / totalTickets; \n    address feeAddress;\n\n    \n    bool public paused = false;\n    uint public raffleId = 1;\n    uint nextTicket = 0;\n    mapping (uint => Contestant) contestants;\n    uint[] gaps;\n\n    \n    function Ethraffle() public {\n        feeAddress = msg.sender;\n    }\n\n    \n    function () payable public {\n        buyTickets();\n    }\n\n    function buyTickets() payable public {\n        if (paused) {\n            msg.sender.transfer(msg.value);\n            return;\n        }\n\n        uint moneySent = msg.value;\n\n        while (moneySent >= pricePerTicket && nextTicket < totalTickets) {\n            uint currTicket = 0;\n            if (gaps.length > 0) {\n                currTicket = gaps[gaps.length-1];\n                gaps.length--;\n            } else {\n                currTicket = nextTicket++;\n            }\n\n            contestants[currTicket] = Contestant(msg.sender, raffleId);\n            TicketPurchase(raffleId, msg.sender, currTicket);\n            moneySent -= pricePerTicket;\n        }\n\n        \n        if (nextTicket == totalTickets) {\n            chooseWinner();\n        }\n\n        \n        if (moneySent > 0) {\n            msg.sender.transfer(moneySent);\n        }\n    }\n\n    function chooseWinner() private {\n        address seed1 = contestants[uint(block.coinbase) % totalTickets].addr;\n        address seed2 = contestants[uint(msg.sender) % totalTickets].addr;\n        uint seed3 = block.difficulty;\n        bytes32 randHash = keccak256(seed1, seed2, seed3);\n\n        uint winningNumber = uint(randHash) % totalTickets;\n        address winningAddress = contestants[winningNumber].addr;\n        RaffleResult(raffleId, winningNumber, winningAddress, seed1, seed2, seed3, randHash);\n\n        \n        raffleId++;\n        nextTicket = 0;\n\n        \n        \n        \n\n        \n        winningAddress.transfer(prize);\n        feeAddress.transfer(fee);\n    }\n\n    \n    function getRefund() public {\n        uint refund = 0;\n        for (uint i = 0; i < totalTickets; i++) {\n            if (msg.sender == contestants[i].addr && raffleId == contestants[i].raffleId) {\n                refund += pricePerTicket;\n                contestants[i] = Contestant(address(0), 0);\n                gaps.push(i);\n                TicketRefund(raffleId, msg.sender, i);\n            }\n        }\n\n        if (refund > 0) {\n            msg.sender.transfer(refund);\n        }\n    }\n\n    \n    function endRaffle() public {\n        if (msg.sender == feeAddress) {\n            paused = true;\n\n            for (uint i = 0; i < totalTickets; i++) {\n                if (raffleId == contestants[i].raffleId) {\n                    TicketRefund(raffleId, contestants[i].addr, i);\n                    contestants[i].addr.transfer(pricePerTicket);\n                }\n            }\n\n            RaffleResult(raffleId, totalTickets, address(0), address(0), address(0), 0, 0);\n            raffleId++;\n            nextTicket = 0;\n            gaps.length = 0;\n        }\n    }\n\n    function togglePause() public {\n        if (msg.sender == feeAddress) {\n            paused = !paused;\n        }\n    }\n\n    function kill() public {\n        if (msg.sender == feeAddress) {\n            selfdestruct(feeAddress);\n        }\n    }\n}",
  "sourcePath": "/home/XXX-1/smartrim-experiment/for-rlf/0xaafd4fc990ffa78ced015d77f04cc65842a3e78a/contracts/0xaafd4fc990ffa78ced015d77f04cc65842a3e78a.sol",
  "compiler": {
    "name": "solc",
    "version": "0.4.25+commit.59dbf8f1.Emscripten.clang"
  },
  "schemaVersion": "3.4.16",
  "updatedAt": "2025-08-14T04:03:17.553Z",
  "networkType": "ethereum",
  "devdoc": {
    "methods": {}
  },
  "userdoc": {
    "methods": {}
  }
}