{
  "contractName": "AchimPowh",
  "abi": [
    {
      "constant": true,
      "inputs": [
        {
          "name": "",
          "type": "address"
        }
      ],
      "name": "investment",
      "outputs": [
        {
          "name": "",
          "type": "uint256"
        }
      ],
      "payable": false,
      "stateMutability": "view",
      "type": "function"
    },
    {
      "constant": true,
      "inputs": [
        {
          "name": "",
          "type": "address"
        }
      ],
      "name": "stake",
      "outputs": [
        {
          "name": "",
          "type": "uint256"
        }
      ],
      "payable": false,
      "stateMutability": "view",
      "type": "function"
    },
    {
      "constant": true,
      "inputs": [],
      "name": "totalStake",
      "outputs": [
        {
          "name": "",
          "type": "uint256"
        }
      ],
      "payable": false,
      "stateMutability": "view",
      "type": "function"
    },
    {
      "anonymous": false,
      "inputs": [
        {
          "indexed": false,
          "name": "user",
          "type": "address"
        },
        {
          "indexed": false,
          "name": "amount",
          "type": "uint256"
        }
      ],
      "name": "Deposit",
      "type": "event"
    },
    {
      "anonymous": false,
      "inputs": [
        {
          "indexed": false,
          "name": "user",
          "type": "address"
        },
        {
          "indexed": false,
          "name": "amount",
          "type": "uint256"
        }
      ],
      "name": "Withdraw",
      "type": "event"
    },
    {
      "anonymous": false,
      "inputs": [
        {
          "indexed": false,
          "name": "user",
          "type": "address"
        },
        {
          "indexed": false,
          "name": "dividends",
          "type": "uint256"
        }
      ],
      "name": "Claim",
      "type": "event"
    },
    {
      "anonymous": false,
      "inputs": [
        {
          "indexed": false,
          "name": "user",
          "type": "address"
        },
        {
          "indexed": false,
          "name": "dividends",
          "type": "uint256"
        }
      ],
      "name": "Reinvest",
      "type": "event"
    },
    {
      "constant": false,
      "inputs": [],
      "name": "ProofOfStableCoin",
      "outputs": [],
      "payable": false,
      "stateMutability": "nonpayable",
      "type": "function"
    },
    {
      "constant": false,
      "inputs": [
        {
          "name": "_user",
          "type": "address"
        }
      ],
      "name": "preauthorize",
      "outputs": [],
      "payable": false,
      "stateMutability": "nonpayable",
      "type": "function"
    },
    {
      "constant": false,
      "inputs": [],
      "name": "startGame",
      "outputs": [],
      "payable": false,
      "stateMutability": "nonpayable",
      "type": "function"
    },
    {
      "constant": false,
      "inputs": [],
      "name": "deposit",
      "outputs": [],
      "payable": true,
      "stateMutability": "payable",
      "type": "function"
    },
    {
      "constant": false,
      "inputs": [
        {
          "name": "_amount",
          "type": "uint256"
        }
      ],
      "name": "withdraw",
      "outputs": [],
      "payable": false,
      "stateMutability": "nonpayable",
      "type": "function"
    },
    {
      "constant": false,
      "inputs": [],
      "name": "claim",
      "outputs": [],
      "payable": false,
      "stateMutability": "nonpayable",
      "type": "function"
    },
    {
      "constant": false,
      "inputs": [],
      "name": "reinvest",
      "outputs": [],
      "payable": false,
      "stateMutability": "nonpayable",
      "type": "function"
    },
    {
      "constant": true,
      "inputs": [
        {
          "name": "_user",
          "type": "address"
        }
      ],
      "name": "dividendsForUser",
      "outputs": [
        {
          "name": "",
          "type": "uint256"
        }
      ],
      "payable": false,
      "stateMutability": "view",
      "type": "function"
    }
  ],
  "bytecode": "0x608060405234801561001057600080fd5b5061131d806100206000396000f3006080604052600436106100af576000357c0100000000000000000000000000000000000000000000000000000000900463ffffffff1680630bd18d7a146100b4578063264762041461010b5780632e1a7d4d146101625780634e71d92d1461018f57806355e2305e146101a657806386be3981146101e95780638b0e9f3f14610240578063d0e30db01461026b578063d65ab5f214610275578063f9892c281461028c578063fdb5a03e146102a3575b600080fd5b3480156100c057600080fd5b506100f5600480360381019080803573ffffffffffffffffffffffffffffffffffffffff1690602001909291905050506102ba565b6040518082815260200191505060405180910390f35b34801561011757600080fd5b5061014c600480360381019080803573ffffffffffffffffffffffffffffffffffffffff1690602001909291905050506102d2565b6040518082815260200191505060405180910390f35b34801561016e57600080fd5b5061018d600480360381019080803590602001909291905050506102ea565b005b34801561019b57600080fd5b506101a46108b8565b005b3480156101b257600080fd5b506101e7600480360381019080803573ffffffffffffffffffffffffffffffffffffffff169060200190929190505050610979565b005b3480156101f557600080fd5b5061022a600480360381019080803573ffffffffffffffffffffffffffffffffffffffff169060200190929190505050610a2e565b6040518082815260200191505060405180910390f35b34801561024c57600080fd5b50610255610b2d565b6040518082815260200191505060405180910390f35b610273610b33565b005b34801561028157600080fd5b5061028a610c18565b005b34801561029857600080fd5b506102a1610c90565b005b3480156102af57600080fd5b506102b8610d4a565b005b60036020528060005260406000206000915090505481565b60046020528060005260406000206000915090505481565b6000806000806000808611151561030057600080fd5b600360003373ffffffffffffffffffffffffffffffffffffffff1673ffffffffffffffffffffffffffffffffffffffff16815260200190815260200160002054861115151561034e57600080fd5b610362600387610dcd90919063ffffffff16565b94506103778587610de390919063ffffffff16565b935061041c600360003373ffffffffffffffffffffffffffffffffffffffff1673ffffffffffffffffffffffffffffffffffffffff1681526020019081526020016000205461040e88600460003373ffffffffffffffffffffffffffffffffffffffff1673ffffffffffffffffffffffffffffffffffffffff16815260200190815260200160002054610dfc90919063ffffffff16565b610dcd90919063ffffffff16565b925061043360065484610dfc90919063ffffffff16565b915061048786600360003373ffffffffffffffffffffffffffffffffffffffff1673ffffffffffffffffffffffffffffffffffffffff16815260200190815260200160002054610de390919063ffffffff16565b600360003373ffffffffffffffffffffffffffffffffffffffff1673ffffffffffffffffffffffffffffffffffffffff1681526020019081526020016000208190555061051c83600460003373ffffffffffffffffffffffffffffffffffffffff1673ffffffffffffffffffffffffffffffffffffffff16815260200190815260200160002054610de390919063ffffffff16565b600460003373ffffffffffffffffffffffffffffffffffffffff1673ffffffffffffffffffffffffffffffffffffffff1681526020019081526020016000208190555061057483600554610de390919063ffffffff16565b600581905550600060055411156105b5576105ae61059d60055487610dcd90919063ffffffff16565b600654610e3790919063ffffffff16565b6006819055505b61060782600760003373ffffffffffffffffffffffffffffffffffffffff1673ffffffffffffffffffffffffffffffffffffffff16815260200190815260200160002054610e3790919063ffffffff16565b600760003373ffffffffffffffffffffffffffffffffffffffff1673ffffffffffffffffffffffffffffffffffffffff168152602001908152602001600020819055506106d2600760003373ffffffffffffffffffffffffffffffffffffffff1673ffffffffffffffffffffffffffffffffffffffff16815260200190815260200160002054600860003373ffffffffffffffffffffffffffffffffffffffff1673ffffffffffffffffffffffffffffffffffffffff16815260200190815260200160002054610e55565b905061072681600760003373ffffffffffffffffffffffffffffffffffffffff1673ffffffffffffffffffffffffffffffffffffffff16815260200190815260200160002054610de390919063ffffffff16565b600760003373ffffffffffffffffffffffffffffffffffffffff1673ffffffffffffffffffffffffffffffffffffffff168152602001908152602001600020819055506107bb81600860003373ffffffffffffffffffffffffffffffffffffffff1673ffffffffffffffffffffffffffffffffffffffff16815260200190815260200160002054610de390919063ffffffff16565b600860003373ffffffffffffffffffffffffffffffffffffffff1673ffffffffffffffffffffffffffffffffffffffff168152602001908152602001600020819055503373ffffffffffffffffffffffffffffffffffffffff166108fc859081150290604051600060405180830381858888f19350505050158015610844573d6000803e3d6000fd5b507f884edad9ce6fa2440d8a54cc123490eb96d2768479d49ff9c7366125a94243643387604051808373ffffffffffffffffffffffffffffffffffffffff1673ffffffffffffffffffffffffffffffffffffffff1681526020018281526020019250505060405180910390a1505050505050565b60006108c2610e6f565b90503373ffffffffffffffffffffffffffffffffffffffff166108fc829081150290604051600060405180830381858888f1935050505015801561090a573d6000803e3d6000fd5b507f47cee97cb7acd717b3c0aa1435d004cd5b3c8c57d70dbceb4e4458bbd60e39d43382604051808373ffffffffffffffffffffffffffffffffffffffff1673ffffffffffffffffffffffffffffffffffffffff1681526020018281526020019250505060405180910390a150565b6000809054906101000a900473ffffffffffffffffffffffffffffffffffffffff1673ffffffffffffffffffffffffffffffffffffffff163373ffffffffffffffffffffffffffffffffffffffff161415156109d457600080fd5b60018060008373ffffffffffffffffffffffffffffffffffffffff1673ffffffffffffffffffffffffffffffffffffffff16815260200190815260200160002060006101000a81548160ff02191690831515021790555050565b6000610b26600860008473ffffffffffffffffffffffffffffffffffffffff1673ffffffffffffffffffffffffffffffffffffffff16815260200190815260200160002054610b18600760008673ffffffffffffffffffffffffffffffffffffffff1673ffffffffffffffffffffffffffffffffffffffff16815260200190815260200160002054610b0a600654600460008973ffffffffffffffffffffffffffffffffffffffff1673ffffffffffffffffffffffffffffffffffffffff16815260200190815260200160002054610dfc90919063ffffffff16565b610e3790919063ffffffff16565b610de390919063ffffffff16565b9050919050565b60055481565b600160003373ffffffffffffffffffffffffffffffffffffffff1673ffffffffffffffffffffffffffffffffffffffff16815260200190815260200160002060009054906101000a900460ff1680610b975750600260009054906101000a900460ff165b1515610ba257600080fd5b610bab34611000565b7fe1fffcc4923d04b559f4d29a8bfc6cda04eb5b0d3c460751c2402c5c5cc9109c3334604051808373ffffffffffffffffffffffffffffffffffffffff1673ffffffffffffffffffffffffffffffffffffffff1681526020018281526020019250505060405180910390a1565b6000809054906101000a900473ffffffffffffffffffffffffffffffffffffffff1673ffffffffffffffffffffffffffffffffffffffff163373ffffffffffffffffffffffffffffffffffffffff16141515610c7357600080fd5b6001600260006101000a81548160ff021916908315150217905550565b336000806101000a81548173ffffffffffffffffffffffffffffffffffffffff021916908373ffffffffffffffffffffffffffffffffffffffff16021790555060018060008060009054906101000a900473ffffffffffffffffffffffffffffffffffffffff1673ffffffffffffffffffffffffffffffffffffffff1673ffffffffffffffffffffffffffffffffffffffff16815260200190815260200160002060006101000a81548160ff021916908315150217905550565b6000610d54610e6f565b9050610d5f81611000565b7fbd654390d0d973e8c8376ed6053be8658870df892687852cc5c914d700291b873382604051808373ffffffffffffffffffffffffffffffffffffffff1673ffffffffffffffffffffffffffffffffffffffff1681526020018281526020019250505060405180910390a150565b60008183811515610dda57fe5b04905092915050565b6000828211151515610df157fe5b818303905092915050565b6000806000841415610e115760009150610e30565b8284029050828482811515610e2257fe5b04141515610e2c57fe5b8091505b5092915050565b6000808284019050838110151515610e4b57fe5b8091505092915050565b600081831115610e655781610e67565b825b905092915050565b6000806000610ec8600654600460003373ffffffffffffffffffffffffffffffffffffffff1673ffffffffffffffffffffffffffffffffffffffff16815260200190815260200160002054610dfc90919063ffffffff16565b9150610f6d600860003373ffffffffffffffffffffffffffffffffffffffff1673ffffffffffffffffffffffffffffffffffffffff16815260200190815260200160002054610f5f600760003373ffffffffffffffffffffffffffffffffffffffff1673ffffffffffffffffffffffffffffffffffffffff1681526020019081526020016000205485610e3790919063ffffffff16565b610de390919063ffffffff16565b90506000600760003373ffffffffffffffffffffffffffffffffffffffff1673ffffffffffffffffffffffffffffffffffffffff1681526020019081526020016000208190555081600860003373ffffffffffffffffffffffffffffffffffffffff1673ffffffffffffffffffffffffffffffffffffffff16815260200190815260200160002081905550809250505090565b6000806000611019600385610dcd90919063ffffffff16565b925061102e8385610de390919063ffffffff16565b91506000600554111561106b5761106461105360055485610dcd90919063ffffffff16565b600654610e3790919063ffffffff16565b6006819055505b6110b06005546110a261109d8561108f600554600554610dfc90919063ffffffff16565b610e3790919063ffffffff16565b6112a6565b610de390919063ffffffff16565b905061110482600360003373ffffffffffffffffffffffffffffffffffffffff1673ffffffffffffffffffffffffffffffffffffffff16815260200190815260200160002054610e3790919063ffffffff16565b600360003373ffffffffffffffffffffffffffffffffffffffff1673ffffffffffffffffffffffffffffffffffffffff1681526020019081526020016000208190555061119981600460003373ffffffffffffffffffffffffffffffffffffffff1673ffffffffffffffffffffffffffffffffffffffff16815260200190815260200160002054610e3790919063ffffffff16565b600460003373ffffffffffffffffffffffffffffffffffffffff1673ffffffffffffffffffffffffffffffffffffffff168152602001908152602001600020819055506111f181600554610e3790919063ffffffff16565b60058190555061125d61120f60065483610dfc90919063ffffffff16565b600860003373ffffffffffffffffffffffffffffffffffffffff1673ffffffffffffffffffffffffffffffffffffffff16815260200190815260200160002054610e3790919063ffffffff16565b600860003373ffffffffffffffffffffffffffffffffffffffff1673ffffffffffffffffffffffffffffffffffffffff1681526020019081526020016000208190555050505050565b6000806002600184018115156112b857fe5b0490508291505b818110156112eb5780915060028182858115156112d857fe5b04018115156112e357fe5b0490506112bf565b509190505600a165627a7a723058201beb6fe07c55239c01f0a779f45b1a073ee0d4c57adc831c147bb1721ab383dc0029",
  "source": "\n\ncontract AchimPowh {\n    using SafeMath for uint256;\n\n    event Deposit(address user, uint amount);\n    event Withdraw(address user, uint amount);\n    event Claim(address user, uint dividends);\n    event Reinvest(address user, uint dividends);\n\n    address owner;\n    mapping(address => bool) preauthorized;\n    bool gameStarted;\n\n    uint constant depositTaxDivisor = 3;\n    uint constant withdrawalTaxDivisor = 3;\n\n    mapping(address => uint) public investment;\n\n    mapping(address => uint) public stake;\n    uint public totalStake;\n    uint stakeValue;\n\n    mapping(address => uint) dividendCredit;\n    mapping(address => uint) dividendDebit;\n\n    function ProofOfStableCoin() public {\n        owner = msg.sender;\n        preauthorized[owner] = true;\n    }\n\n    function preauthorize(address _user) public {\n        require(msg.sender == owner);\n        preauthorized[_user] = true;\n    }\n\n    function startGame() public {\n        require(msg.sender == owner);\n        gameStarted = true;\n    }\n\n    function depositHelper(uint _amount) private {\n        uint _tax = _amount.div(depositTaxDivisor);\n        uint _amountAfterTax = _amount.sub(_tax);\n        if (totalStake > 0)\n            stakeValue = stakeValue.add(_tax.div(totalStake));\n        uint _stakeIncrement = sqrt(totalStake.mul(totalStake).add(_amountAfterTax)).sub(totalStake);\n        investment[msg.sender] = investment[msg.sender].add(_amountAfterTax);\n        stake[msg.sender] = stake[msg.sender].add(_stakeIncrement);\n        totalStake = totalStake.add(_stakeIncrement);\n        dividendDebit[msg.sender] = dividendDebit[msg.sender].add(_stakeIncrement.mul(stakeValue));\n    }\n\n    function deposit() public payable {\n        require(preauthorized[msg.sender] || gameStarted);\n        depositHelper(msg.value);\n        emit Deposit(msg.sender, msg.value);\n    }\n\n    function withdraw(uint _amount) public {\n        require(_amount > 0);\n        require(_amount <= investment[msg.sender]);\n        uint _tax = _amount.div(withdrawalTaxDivisor);\n        uint _amountAfterTax = _amount.sub(_tax);\n        uint _stakeDecrement = stake[msg.sender].mul(_amount).div(investment[msg.sender]);\n        uint _dividendCredit = _stakeDecrement.mul(stakeValue);\n        investment[msg.sender] = investment[msg.sender].sub(_amount);\n        stake[msg.sender] = stake[msg.sender].sub(_stakeDecrement);\n        totalStake = totalStake.sub(_stakeDecrement);\n        if (totalStake > 0)\n            stakeValue = stakeValue.add(_tax.div(totalStake));\n        dividendCredit[msg.sender] = dividendCredit[msg.sender].add(_dividendCredit);\n        uint _creditDebitCancellation = min(dividendCredit[msg.sender], dividendDebit[msg.sender]);\n        dividendCredit[msg.sender] = dividendCredit[msg.sender].sub(_creditDebitCancellation);\n        dividendDebit[msg.sender] = dividendDebit[msg.sender].sub(_creditDebitCancellation);\n        msg.sender.transfer(_amountAfterTax);\n        emit Withdraw(msg.sender, _amount);\n    }\n\n    function claimHelper() private returns(uint) {\n        uint _dividendsForStake = stake[msg.sender].mul(stakeValue);\n        uint _dividends = _dividendsForStake.add(dividendCredit[msg.sender]).sub(dividendDebit[msg.sender]);\n        dividendCredit[msg.sender] = 0;\n        dividendDebit[msg.sender] = _dividendsForStake;\n        return _dividends;\n    }\n\n    function claim() public {\n        uint _dividends = claimHelper();\n        msg.sender.transfer(_dividends);\n        emit Claim(msg.sender, _dividends);\n    }\n\n    function reinvest() public {\n        uint _dividends = claimHelper();\n        depositHelper(_dividends);\n        emit Reinvest(msg.sender, _dividends);\n    }\n\n    function dividendsForUser(address _user) public view returns (uint) {\n        return stake[_user].mul(stakeValue).add(dividendCredit[_user]).sub(dividendDebit[_user]);\n    }\n\n    function min(uint x, uint y) private pure returns (uint) {\n        return x <= y ? x : y;\n    }\n\n    function sqrt(uint x) private pure returns (uint y) {\n        uint z = (x + 1) / 2;\n        y = x;\n        while (z < y) {\n            y = z;\n            z = (x / z + z) / 2;\n        }\n    }\n}\n\n\nlibrary SafeMath {\n\n    \n    function mul(uint256 a, uint256 b) internal pure returns (uint256) {\n        if (a == 0) {\n            return 0;                                                                                                                                                                                       \n        }\n        uint256 c = a * b;                                                                                                                                                                                  \n        assert(c / a == b);                                                                                                                                                                                 \n        return c;                                                                                                                                                                                           \n    }\n\n    \n    function div(uint256 a, uint256 b) internal pure returns (uint256) {\n        \n        \n        \n        return a / b;                                                                                                                                                                                       \n    }\n\n    \n    function sub(uint256 a, uint256 b) internal pure returns (uint256) {\n        assert(b <= a);                                                                                                                                                                                     \n        return a - b;                                                                                                                                                                                       \n    }\n\n    \n    function add(uint256 a, uint256 b) internal pure returns (uint256) {\n        uint256 c = a + b;                                                                                                                                                                                  \n        assert(c >= a);                                                                                                                                                                                     \n        return c;                                                                                                                                                                                           \n    }\n}",
  "sourcePath": "/home/XXX-1/smartrim-experiment/for-rlf/0x3cb8c8026557623bde4b3923c6ee0c398b85ce47/contracts/0x3cb8c8026557623bde4b3923c6ee0c398b85ce47.sol",
  "compiler": {
    "name": "solc",
    "version": "0.4.25+commit.59dbf8f1.Emscripten.clang"
  },
  "schemaVersion": "3.4.16",
  "updatedAt": "2025-08-14T03:52:40.860Z",
  "networkType": "ethereum",
  "devdoc": {
    "methods": {}
  },
  "userdoc": {
    "methods": {}
  }
}