{
  "contractName": "Nobody",
  "abi": [
    {
      "constant": false,
      "inputs": [],
      "name": "die",
      "outputs": [],
      "payable": false,
      "stateMutability": "nonpayable",
      "type": "function"
    }
  ],
  "bytecode": "0x6080604052348015600f57600080fd5b50609d8061001e6000396000f300608060405260043610603f576000357c0100000000000000000000000000000000000000000000000000000000900463ffffffff16806335f46994146044575b600080fd5b348015604f57600080fd5b5060566058565b005b3373ffffffffffffffffffffffffffffffffffffffff16ff00a165627a7a72305820f53cbc79316907d47b03a659a69f25bf345550ddff22485b04efcd494404a7e60029",
  "source": "\ncontract Nobody {\n    function die() public {\n        selfdestruct(msg.sender);\n    }\n}",
  "sourcePath": "/home/XXX-1/smartrim-experiment/for-rlf/0xdf861993edbe95bafbfa7760838f8ebbd5afda9f/contracts/0xdf861993edbe95bafbfa7760838f8ebbd5afda9f.sol",
  "compiler": {
    "name": "solc",
    "version": "0.4.25+commit.59dbf8f1.Emscripten.clang"
  },
  "schemaVersion": "3.4.16",
  "updatedAt": "2025-08-14T04:08:51.072Z",
  "networkType": "ethereum",
  "devdoc": {
    "methods": {}
  },
  "userdoc": {
    "methods": {}
  }
}