{
  "contractName": "CryptocarToken",
  "abi": [
    {
      "constant": true,
      "inputs": [],
      "name": "promoCreatedCount",
      "outputs": [
        {
          "name": "",
          "type": "uint256"
        }
      ],
      "payable": false,
      "stateMutability": "view",
      "type": "function"
    },
    {
      "constant": true,
      "inputs": [],
      "name": "ceoAddress",
      "outputs": [
        {
          "name": "",
          "type": "address"
        }
      ],
      "payable": false,
      "stateMutability": "view",
      "type": "function"
    },
    {
      "constant": true,
      "inputs": [
        {
          "name": "",
          "type": "uint256"
        }
      ],
      "name": "carIndexToApproved",
      "outputs": [
        {
          "name": "",
          "type": "address"
        }
      ],
      "payable": false,
      "stateMutability": "view",
      "type": "function"
    },
    {
      "constant": true,
      "inputs": [],
      "name": "NAME",
      "outputs": [
        {
          "name": "",
          "type": "string"
        }
      ],
      "payable": false,
      "stateMutability": "view",
      "type": "function"
    },
    {
      "constant": true,
      "inputs": [],
      "name": "cooAddress",
      "outputs": [
        {
          "name": "",
          "type": "address"
        }
      ],
      "payable": false,
      "stateMutability": "view",
      "type": "function"
    },
    {
      "constant": true,
      "inputs": [
        {
          "name": "",
          "type": "uint256"
        }
      ],
      "name": "carIndexToOwner",
      "outputs": [
        {
          "name": "",
          "type": "address"
        }
      ],
      "payable": false,
      "stateMutability": "view",
      "type": "function"
    },
    {
      "constant": true,
      "inputs": [],
      "name": "SYMBOL",
      "outputs": [
        {
          "name": "",
          "type": "string"
        }
      ],
      "payable": false,
      "stateMutability": "view",
      "type": "function"
    },
    {
      "inputs": [],
      "payable": false,
      "stateMutability": "nonpayable",
      "type": "constructor"
    },
    {
      "anonymous": false,
      "inputs": [
        {
          "indexed": false,
          "name": "tokenId",
          "type": "uint256"
        },
        {
          "indexed": false,
          "name": "name",
          "type": "string"
        },
        {
          "indexed": false,
          "name": "owner",
          "type": "address"
        }
      ],
      "name": "Birth",
      "type": "event"
    },
    {
      "anonymous": false,
      "inputs": [
        {
          "indexed": false,
          "name": "tokenId",
          "type": "uint256"
        },
        {
          "indexed": false,
          "name": "oldPrice",
          "type": "uint256"
        },
        {
          "indexed": false,
          "name": "newPrice",
          "type": "uint256"
        },
        {
          "indexed": false,
          "name": "prevOwner",
          "type": "address"
        },
        {
          "indexed": false,
          "name": "winner",
          "type": "address"
        },
        {
          "indexed": false,
          "name": "name",
          "type": "string"
        }
      ],
      "name": "TokenSold",
      "type": "event"
    },
    {
      "anonymous": false,
      "inputs": [
        {
          "indexed": false,
          "name": "from",
          "type": "address"
        },
        {
          "indexed": false,
          "name": "to",
          "type": "address"
        },
        {
          "indexed": false,
          "name": "tokenId",
          "type": "uint256"
        }
      ],
      "name": "Transfer",
      "type": "event"
    },
    {
      "anonymous": false,
      "inputs": [
        {
          "indexed": true,
          "name": "owner",
          "type": "address"
        },
        {
          "indexed": true,
          "name": "approved",
          "type": "address"
        },
        {
          "indexed": false,
          "name": "tokenId",
          "type": "uint256"
        }
      ],
      "name": "Approval",
      "type": "event"
    },
    {
      "constant": false,
      "inputs": [
        {
          "name": "_to",
          "type": "address"
        },
        {
          "name": "_tokenId",
          "type": "uint256"
        }
      ],
      "name": "approve",
      "outputs": [],
      "payable": false,
      "stateMutability": "nonpayable",
      "type": "function"
    },
    {
      "constant": true,
      "inputs": [
        {
          "name": "_owner",
          "type": "address"
        }
      ],
      "name": "balanceOf",
      "outputs": [
        {
          "name": "balance",
          "type": "uint256"
        }
      ],
      "payable": false,
      "stateMutability": "view",
      "type": "function"
    },
    {
      "constant": false,
      "inputs": [
        {
          "name": "_owner",
          "type": "address"
        },
        {
          "name": "_name",
          "type": "string"
        },
        {
          "name": "_price",
          "type": "uint256"
        }
      ],
      "name": "createPromoCar",
      "outputs": [],
      "payable": false,
      "stateMutability": "nonpayable",
      "type": "function"
    },
    {
      "constant": false,
      "inputs": [
        {
          "name": "_name",
          "type": "string"
        }
      ],
      "name": "createContractCar",
      "outputs": [],
      "payable": false,
      "stateMutability": "nonpayable",
      "type": "function"
    },
    {
      "constant": true,
      "inputs": [
        {
          "name": "_tokenId",
          "type": "uint256"
        }
      ],
      "name": "getCar",
      "outputs": [
        {
          "name": "carName",
          "type": "string"
        },
        {
          "name": "sellingPrice",
          "type": "uint256"
        },
        {
          "name": "owner",
          "type": "address"
        }
      ],
      "payable": false,
      "stateMutability": "view",
      "type": "function"
    },
    {
      "constant": true,
      "inputs": [],
      "name": "implementsERC721",
      "outputs": [
        {
          "name": "",
          "type": "bool"
        }
      ],
      "payable": false,
      "stateMutability": "pure",
      "type": "function"
    },
    {
      "constant": true,
      "inputs": [],
      "name": "name",
      "outputs": [
        {
          "name": "",
          "type": "string"
        }
      ],
      "payable": false,
      "stateMutability": "pure",
      "type": "function"
    },
    {
      "constant": true,
      "inputs": [
        {
          "name": "_tokenId",
          "type": "uint256"
        }
      ],
      "name": "ownerOf",
      "outputs": [
        {
          "name": "owner",
          "type": "address"
        }
      ],
      "payable": false,
      "stateMutability": "view",
      "type": "function"
    },
    {
      "constant": false,
      "inputs": [
        {
          "name": "_to",
          "type": "address"
        }
      ],
      "name": "payout",
      "outputs": [],
      "payable": false,
      "stateMutability": "nonpayable",
      "type": "function"
    },
    {
      "constant": false,
      "inputs": [
        {
          "name": "_tokenId",
          "type": "uint256"
        }
      ],
      "name": "purchase",
      "outputs": [],
      "payable": true,
      "stateMutability": "payable",
      "type": "function"
    },
    {
      "constant": true,
      "inputs": [
        {
          "name": "_tokenId",
          "type": "uint256"
        }
      ],
      "name": "priceOf",
      "outputs": [
        {
          "name": "price",
          "type": "uint256"
        }
      ],
      "payable": false,
      "stateMutability": "view",
      "type": "function"
    },
    {
      "constant": false,
      "inputs": [
        {
          "name": "_newCEO",
          "type": "address"
        }
      ],
      "name": "setCEO",
      "outputs": [],
      "payable": false,
      "stateMutability": "nonpayable",
      "type": "function"
    },
    {
      "constant": false,
      "inputs": [
        {
          "name": "_newCOO",
          "type": "address"
        }
      ],
      "name": "setCOO",
      "outputs": [],
      "payable": false,
      "stateMutability": "nonpayable",
      "type": "function"
    },
    {
      "constant": true,
      "inputs": [],
      "name": "symbol",
      "outputs": [
        {
          "name": "",
          "type": "string"
        }
      ],
      "payable": false,
      "stateMutability": "pure",
      "type": "function"
    },
    {
      "constant": false,
      "inputs": [
        {
          "name": "_tokenId",
          "type": "uint256"
        }
      ],
      "name": "takeOwnership",
      "outputs": [],
      "payable": false,
      "stateMutability": "nonpayable",
      "type": "function"
    },
    {
      "constant": true,
      "inputs": [
        {
          "name": "_owner",
          "type": "address"
        }
      ],
      "name": "tokensOfOwner",
      "outputs": [
        {
          "name": "ownerTokens",
          "type": "uint256[]"
        }
      ],
      "payable": false,
      "stateMutability": "view",
      "type": "function"
    },
    {
      "constant": true,
      "inputs": [],
      "name": "totalSupply",
      "outputs": [
        {
          "name": "total",
          "type": "uint256"
        }
      ],
      "payable": false,
      "stateMutability": "view",
      "type": "function"
    },
    {
      "constant": false,
      "inputs": [
        {
          "name": "_to",
          "type": "address"
        },
        {
          "name": "_tokenId",
          "type": "uint256"
        }
      ],
      "name": "transfer",
      "outputs": [],
      "payable": false,
      "stateMutability": "nonpayable",
      "type": "function"
    },
    {
      "constant": false,
      "inputs": [
        {
          "name": "_from",
          "type": "address"
        },
        {
          "name": "_to",
          "type": "address"
        },
        {
          "name": "_tokenId",
          "type": "uint256"
        }
      ],
      "name": "transferFrom",
      "outputs": [],
      "payable": false,
      "stateMutability": "nonpayable",
      "type": "function"
    }
  ],
  "bytecode": "0x6080604052662386f26fc10000600055670de0b68516763000600155670de0b69c5eed180060025534801561003357600080fd5b5033600760006101000a81548173ffffffffffffffffffffffffffffffffffffffff021916908373ffffffffffffffffffffffffffffffffffffffff16021790555033600860006101000a81548173ffffffffffffffffffffffffffffffffffffffff021916908373ffffffffffffffffffffffffffffffffffffffff1602179055506120a7806100c56000396000f300608060405260043610610154576000357c0100000000000000000000000000000000000000000000000000000000900463ffffffff16806305e455461461015957806306fdde0314610184578063095ea7b3146102145780630a0f8168146102615780630b7e9c44146102b85780631051db34146102fb57806318160ddd1461032a57806323b872dd1461035557806327d7874c146103c25780632a2879d3146104055780632ba73c15146104985780632ef60477146104db5780635e8be190146105485780636352211e1461062857806370a08231146106955780638462151c146106ec578063900d33d91461078457806395d89b41146107ed578063a3f4df7e1461087d578063a9059cbb1461090d578063b047fb501461095a578063b2e6ceeb146109b1578063b5c5cd13146109de578063b9186d7d14610a4b578063efef39a114610a8c578063f76f8d7814610aac575b600080fd5b34801561016557600080fd5b5061016e610b3c565b6040518082815260200191505060405180910390f35b34801561019057600080fd5b50610199610b42565b6040518080602001828103825283818151815260200191508051906020019080838360005b838110156101d95780820151818401526020810190506101be565b50505050905090810190601f1680156102065780820380516001836020036101000a031916815260200191505b509250505060405180910390f35b34801561022057600080fd5b5061025f600480360381019080803573ffffffffffffffffffffffffffffffffffffffff16906020019092919080359060200190929190505050610b7f565b005b34801561026d57600080fd5b50610276610c4f565b604051808273ffffffffffffffffffffffffffffffffffffffff1673ffffffffffffffffffffffffffffffffffffffff16815260200191505060405180910390f35b3480156102c457600080fd5b506102f9600480360381019080803573ffffffffffffffffffffffffffffffffffffffff169060200190929190505050610c75565b005b34801561030757600080fd5b50610310610d35565b604051808215151515815260200191505060405180910390f35b34801561033657600080fd5b5061033f610d3e565b6040518082815260200191505060405180910390f35b34801561036157600080fd5b506103c0600480360381019080803573ffffffffffffffffffffffffffffffffffffffff169060200190929190803573ffffffffffffffffffffffffffffffffffffffff16906020019092919080359060200190929190505050610d4b565b005b3480156103ce57600080fd5b50610403600480360381019080803573ffffffffffffffffffffffffffffffffffffffff169060200190929190505050610d99565b005b34801561041157600080fd5b50610496600480360381019080803573ffffffffffffffffffffffffffffffffffffffff169060200190929190803590602001908201803590602001908080601f016020809104026020016040519081016040528093929190818152602001838380828437820191505050505050919291929080359060200190929190505050610e75565b005b3480156104a457600080fd5b506104d9600480360381019080803573ffffffffffffffffffffffffffffffffffffffff169060200190929190505050610f76565b005b3480156104e757600080fd5b5061050660048036038101908080359060200190929190505050611052565b604051808273ffffffffffffffffffffffffffffffffffffffff1673ffffffffffffffffffffffffffffffffffffffff16815260200191505060405180910390f35b34801561055457600080fd5b5061057360048036038101908080359060200190929190505050611085565b60405180806020018481526020018373ffffffffffffffffffffffffffffffffffffffff1673ffffffffffffffffffffffffffffffffffffffff168152602001828103825285818151815260200191508051906020019080838360005b838110156105eb5780820151818401526020810190506105d0565b50505050905090810190601f1680156106185780820380516001836020036101000a031916815260200191505b5094505050505060405180910390f35b34801561063457600080fd5b506106536004803603810190808035906020019092919050505061119a565b604051808273ffffffffffffffffffffffffffffffffffffffff1673ffffffffffffffffffffffffffffffffffffffff16815260200191505060405180910390f35b3480156106a157600080fd5b506106d6600480360381019080803573ffffffffffffffffffffffffffffffffffffffff169060200190929190505050611216565b6040518082815260200191505060405180910390f35b3480156106f857600080fd5b5061072d600480360381019080803573ffffffffffffffffffffffffffffffffffffffff16906020019092919050505061125f565b6040518080602001828103825283818151815260200191508051906020019060200280838360005b83811015610770578082015181840152602081019050610755565b505050509050019250505060405180910390f35b34801561079057600080fd5b506107eb600480360381019080803590602001908201803590602001908080601f01602080910402602001604051908101604052809392919081815260200183838082843782019150505050505091929192905050506113ac565b005b3480156107f957600080fd5b50610802611418565b6040518080602001828103825283818151815260200191508051906020019080838360005b83811015610842578082015181840152602081019050610827565b50505050905090810190601f16801561086f5780820380516001836020036101000a031916815260200191505b509250505060405180910390f35b34801561088957600080fd5b50610892611455565b6040518080602001828103825283818151815260200191508051906020019080838360005b838110156108d25780820151818401526020810190506108b7565b50505050905090810190601f1680156108ff5780820380516001836020036101000a031916815260200191505b509250505060405180910390f35b34801561091957600080fd5b50610958600480360381019080803573ffffffffffffffffffffffffffffffffffffffff1690602001909291908035906020019092919050505061148e565b005b34801561096657600080fd5b5061096f6114c6565b604051808273ffffffffffffffffffffffffffffffffffffffff1673ffffffffffffffffffffffffffffffffffffffff16815260200191505060405180910390f35b3480156109bd57600080fd5b506109dc600480360381019080803590602001909291905050506114ec565b005b3480156109ea57600080fd5b50610a0960048036038101908080359060200190929190505050611561565b604051808273ffffffffffffffffffffffffffffffffffffffff1673ffffffffffffffffffffffffffffffffffffffff16815260200191505060405180910390f35b348015610a5757600080fd5b50610a7660048036038101908080359060200190929190505050611594565b6040518082815260200191505060405180910390f35b610aaa600480360381019080803590602001909291905050506115b1565b005b348015610ab857600080fd5b50610ac161196a565b6040518080602001828103825283818151815260200191508051906020019080838360005b83811015610b01578082015181840152602081019050610ae6565b50505050905090810190601f168015610b2e5780820380516001836020036101000a031916815260200191505b509250505060405180910390f35b60095481565b60606040805190810160405280600a81526020017f43727970746f4361727300000000000000000000000000000000000000000000815250905090565b610b8933826119a3565b1515610b9457600080fd5b816005600083815260200190815260200160002060006101000a81548173ffffffffffffffffffffffffffffffffffffffff021916908373ffffffffffffffffffffffffffffffffffffffff1602179055508173ffffffffffffffffffffffffffffffffffffffff163373ffffffffffffffffffffffffffffffffffffffff167f8c5be1e5ebec7d5bd14f71427d1e84f3dd0314c0f7b2291e5b200ac8c7c3b925836040518082815260200191505060405180910390a35050565b600760009054906101000a900473ffffffffffffffffffffffffffffffffffffffff1681565b600760009054906101000a900473ffffffffffffffffffffffffffffffffffffffff1673ffffffffffffffffffffffffffffffffffffffff163373ffffffffffffffffffffffffffffffffffffffff161480610d1e5750600860009054906101000a900473ffffffffffffffffffffffffffffffffffffffff1673ffffffffffffffffffffffffffffffffffffffff163373ffffffffffffffffffffffffffffffffffffffff16145b1515610d2957600080fd5b610d3281611a0f565b50565b60006001905090565b6000600a80549050905090565b610d5583826119a3565b1515610d6057600080fd5b610d6a8282611b2b565b1515610d7557600080fd5b610d7e82611b97565b1515610d8957600080fd5b610d94838383611bd0565b505050565b600760009054906101000a900473ffffffffffffffffffffffffffffffffffffffff1673ffffffffffffffffffffffffffffffffffffffff163373ffffffffffffffffffffffffffffffffffffffff16141515610df557600080fd5b600073ffffffffffffffffffffffffffffffffffffffff168173ffffffffffffffffffffffffffffffffffffffff1614151515610e3157600080fd5b80600760006101000a81548173ffffffffffffffffffffffffffffffffffffffff021916908373ffffffffffffffffffffffffffffffffffffffff16021790555050565b6000600860009054906101000a900473ffffffffffffffffffffffffffffffffffffffff1673ffffffffffffffffffffffffffffffffffffffff163373ffffffffffffffffffffffffffffffffffffffff16141515610ed357600080fd5b611388600954101515610ee557600080fd5b839050600073ffffffffffffffffffffffffffffffffffffffff168173ffffffffffffffffffffffffffffffffffffffff161415610f4357600860009054906101000a900473ffffffffffffffffffffffffffffffffffffffff1690505b600082111515610f535760005491505b600960008154809291906001019190505550610f70838284611dd2565b50505050565b600760009054906101000a900473ffffffffffffffffffffffffffffffffffffffff1673ffffffffffffffffffffffffffffffffffffffff163373ffffffffffffffffffffffffffffffffffffffff16141515610fd257600080fd5b600073ffffffffffffffffffffffffffffffffffffffff168173ffffffffffffffffffffffffffffffffffffffff161415151561100e57600080fd5b80600860006101000a81548173ffffffffffffffffffffffffffffffffffffffff021916908373ffffffffffffffffffffffffffffffffffffffff16021790555050565b60056020528060005260406000206000915054906101000a900473ffffffffffffffffffffffffffffffffffffffff1681565b60606000806000600a8581548110151561109b57fe5b906000526020600020019050806000018054600181600116156101000203166002900480601f01602080910402602001604051908101604052809291908181526020018280546001816001161561010002031660029004801561113f5780601f106111145761010080835404028352916020019161113f565b820191906000526020600020905b81548152906001019060200180831161112257829003601f168201915b50505050509350600660008681526020019081526020016000205492506003600086815260200190815260200160002060009054906101000a900473ffffffffffffffffffffffffffffffffffffffff169150509193909250565b60006003600083815260200190815260200160002060009054906101000a900473ffffffffffffffffffffffffffffffffffffffff169050600073ffffffffffffffffffffffffffffffffffffffff168173ffffffffffffffffffffffffffffffffffffffff161415151561120e57600080fd5b809050919050565b6000600460008373ffffffffffffffffffffffffffffffffffffffff1673ffffffffffffffffffffffffffffffffffffffff168152602001908152602001600020549050919050565b606060006060600080600061127387611216565b945060008514156112b65760006040519080825280602002602001820160405280156112ae5781602001602082028038833980820191505090505b5095506113a2565b846040519080825280602002602001820160405280156112e55781602001602082028038833980820191505090505b5093506112f0610d3e565b925060009150600090505b828111151561139e578673ffffffffffffffffffffffffffffffffffffffff166003600083815260200190815260200160002060009054906101000a900473ffffffffffffffffffffffffffffffffffffffff1673ffffffffffffffffffffffffffffffffffffffff1614156113915780848381518110151561137a57fe5b906020019060200201818152505081806001019250505b80806001019150506112fb565b8395505b5050505050919050565b600860009054906101000a900473ffffffffffffffffffffffffffffffffffffffff1673ffffffffffffffffffffffffffffffffffffffff163373ffffffffffffffffffffffffffffffffffffffff1614151561140857600080fd5b6114158130600054611dd2565b50565b60606040805190810160405280600e81526020017f43727970746f636172546f6b656e000000000000000000000000000000000000815250905090565b6040805190810160405280600a81526020017f43727970746f436172730000000000000000000000000000000000000000000081525081565b61149833826119a3565b15156114a357600080fd5b6114ac82611b97565b15156114b757600080fd5b6114c2338383611bd0565b5050565b600860009054906101000a900473ffffffffffffffffffffffffffffffffffffffff1681565b6000803391506003600084815260200190815260200160002060009054906101000a900473ffffffffffffffffffffffffffffffffffffffff16905061153182611b97565b151561153c57600080fd5b6115468284611b2b565b151561155157600080fd5b61155c818385611bd0565b505050565b60036020528060005260406000206000915054906101000a900473ffffffffffffffffffffffffffffffffffffffff1681565b600060066000838152602001908152602001600020549050919050565b60008060008060006003600087815260200190815260200160002060009054906101000a900473ffffffffffffffffffffffffffffffffffffffff169450339350600660008781526020019081526020016000205492508373ffffffffffffffffffffffffffffffffffffffff168573ffffffffffffffffffffffffffffffffffffffff161415151561164357600080fd5b61164c84611b97565b151561165757600080fd5b82341015151561166657600080fd5b61167b61167484605d611f53565b6064611f8e565b91506116873484611fa9565b90506001548310156116c4576116a86116a18460c8611f53565b605d611f8e565b600660008881526020019081526020016000208190555061172d565b6002548310156116ff576116e36116dc846076611f53565b605d611f8e565b600660008881526020019081526020016000208190555061172c565b61171461170d846076611f53565b605d611f8e565b60066000888152602001908152602001600020819055505b5b611738858588611bd0565b3073ffffffffffffffffffffffffffffffffffffffff168573ffffffffffffffffffffffffffffffffffffffff161415156117b5578473ffffffffffffffffffffffffffffffffffffffff166108fc839081150290604051600060405180830381858888f193505050501580156117b3573d6000803e3d6000fd5b505b7e8201e7bcbf010c2c07de59d6e97cb7e3cf67a46125c49cbc89b9d2cde1f48f8684600660008a8152602001908152602001600020548888600a8c8154811015156117fc57fe5b90600052602060002001600001604051808781526020018681526020018581526020018473ffffffffffffffffffffffffffffffffffffffff1673ffffffffffffffffffffffffffffffffffffffff1681526020018373ffffffffffffffffffffffffffffffffffffffff1673ffffffffffffffffffffffffffffffffffffffff168152602001806020018281038252838181546001816001161561010002031660029004815260200191508054600181600116156101000203166002900480156119085780601f106118dd57610100808354040283529160200191611908565b820191906000526020600020905b8154815290600101906020018083116118eb57829003601f168201915b505097505050505050505060405180910390a13373ffffffffffffffffffffffffffffffffffffffff166108fc829081150290604051600060405180830381858888f19350505050158015611961573d6000803e3d6000fd5b50505050505050565b6040805190810160405280600e81526020017f43727970746f636172546f6b656e00000000000000000000000000000000000081525081565b60006003600083815260200190815260200160002060009054906101000a900473ffffffffffffffffffffffffffffffffffffffff1673ffffffffffffffffffffffffffffffffffffffff168373ffffffffffffffffffffffffffffffffffffffff1614905092915050565b600073ffffffffffffffffffffffffffffffffffffffff168173ffffffffffffffffffffffffffffffffffffffff161415611ac957600760009054906101000a900473ffffffffffffffffffffffffffffffffffffffff1673ffffffffffffffffffffffffffffffffffffffff166108fc3073ffffffffffffffffffffffffffffffffffffffff16319081150290604051600060405180830381858888f19350505050158015611ac3573d6000803e3d6000fd5b50611b28565b8073ffffffffffffffffffffffffffffffffffffffff166108fc3073ffffffffffffffffffffffffffffffffffffffff16319081150290604051600060405180830381858888f19350505050158015611b26573d6000803e3d6000fd5b505b50565b60008273ffffffffffffffffffffffffffffffffffffffff166005600084815260200190815260200160002060009054906101000a900473ffffffffffffffffffffffffffffffffffffffff1673ffffffffffffffffffffffffffffffffffffffff1614905092915050565b60008073ffffffffffffffffffffffffffffffffffffffff168273ffffffffffffffffffffffffffffffffffffffff1614159050919050565b600460008373ffffffffffffffffffffffffffffffffffffffff1673ffffffffffffffffffffffffffffffffffffffff16815260200190815260200160002060008154809291906001019190505550816003600083815260200190815260200160002060006101000a81548173ffffffffffffffffffffffffffffffffffffffff021916908373ffffffffffffffffffffffffffffffffffffffff160217905550600073ffffffffffffffffffffffffffffffffffffffff168373ffffffffffffffffffffffffffffffffffffffff16141515611d2e57600460008473ffffffffffffffffffffffffffffffffffffffff1673ffffffffffffffffffffffffffffffffffffffff16815260200190815260200160002060008154809291906001900391905055506005600082815260200190815260200160002060006101000a81549073ffffffffffffffffffffffffffffffffffffffff02191690555b7fddf252ad1be2c89b69c2b068fc378daa952ba7f163c4a11628f55a4df523b3ef838383604051808473ffffffffffffffffffffffffffffffffffffffff1673ffffffffffffffffffffffffffffffffffffffff1681526020018373ffffffffffffffffffffffffffffffffffffffff1673ffffffffffffffffffffffffffffffffffffffff168152602001828152602001935050505060405180910390a1505050565b611dda611fc2565b60006020604051908101604052808681525091506001600a839080600181540180825580915050906001820390600052602060002001600090919290919091506000820151816000019080519060200190611e36929190611fd6565b5050500390508063ffffffff1681141515611e5057600080fd5b7fb3b0cf861f168bcdb275c69da97b2543631552ba562628aa3c7317d4a6089ef281868660405180848152602001806020018373ffffffffffffffffffffffffffffffffffffffff1673ffffffffffffffffffffffffffffffffffffffff168152602001828103825284818151815260200191508051906020019080838360005b83811015611eec578082015181840152602081019050611ed1565b50505050905090810190601f168015611f195780820380516001836020036101000a031916815260200191505b5094505050505060405180910390a1826006600083815260200190815260200160002081905550611f4c60008583611bd0565b5050505050565b6000806000841415611f685760009150611f87565b8284029050828482811515611f7957fe5b04141515611f8357fe5b8091505b5092915050565b6000808284811515611f9c57fe5b0490508091505092915050565b6000828211151515611fb757fe5b818303905092915050565b602060405190810160405280606081525090565b828054600181600116156101000203166002900490600052602060002090601f016020900481019282601f1061201757805160ff1916838001178555612045565b82800160010185558215612045579182015b82811115612044578251825591602001919060010190612029565b5b5090506120529190612056565b5090565b61207891905b8082111561207457600081600090555060010161205c565b5090565b905600a165627a7a72305820cf99146cbfc45c7afab96d42e45426473593d23af63282ca6fdb83fd8e69e71e0029",
  "source": " \n\n\n\n\n\ncontract ERC721 {\n  \n  function approve(address _to, uint256 _tokenId) public;\n  function balanceOf(address _owner) public view returns (uint256 balance);\n  function implementsERC721() public pure returns (bool);\n  function ownerOf(uint256 _tokenId) public view returns (address addr);\n  function takeOwnership(uint256 _tokenId) public;\n  function totalSupply() public view returns (uint256 total);\n  function transferFrom(address _from, address _to, uint256 _tokenId) public;\n  function transfer(address _to, uint256 _tokenId) public;\n\n  event Transfer(address indexed from, address indexed to, uint256 tokenId);\n  event Approval(address indexed owner, address indexed approved, uint256 tokenId);\n\n  \n  \n  \n  \n  \n}\n\n\ncontract CryptocarToken is ERC721 {\n\n  \n\n  \n  event Birth(uint256 tokenId, string name, address owner);\n\n  \n  event TokenSold(uint256 tokenId, uint256 oldPrice, uint256 newPrice, address prevOwner, address winner, string name);\n\n  \n  \n  event Transfer(address from, address to, uint256 tokenId);\n\n  \n\n  \n  string public constant NAME = \"CryptoCars\"; \n  string public constant SYMBOL = \"CryptocarToken\"; \n\n  uint256 private startingPrice = 0.01 ether;\n  uint256 private constant PROMO_CREATION_LIMIT = 5000;\n  uint256 private firstStepLimit =  0.9999998 ether;\n  uint256 private secondStepLimit = 0.9999999 ether;\n\n  \n\n  \n  \n  mapping (uint256 => address) public carIndexToOwner;\n\n  \n  \n  mapping (address => uint256) private ownershipTokenCount;\n\n  \n  \n  \n  mapping (uint256 => address) public carIndexToApproved;\n\n  \n  mapping (uint256 => uint256) private carIndexToPrice;\n\n  \n  address public ceoAddress;\n  address public cooAddress;\n\n  uint256 public promoCreatedCount;\n\n  \n  struct Car {\n    string name;\n  }\n\n  Car[] private cars;\n\n  \n  \n  modifier onlyCEO() {\n    require(msg.sender == ceoAddress);\n    _;\n  }\n\n  \n  modifier onlyCOO() {\n    require(msg.sender == cooAddress);\n    _;\n  }\n\n  \n  modifier onlyCLevel() {\n    require(\n      msg.sender == ceoAddress ||\n      msg.sender == cooAddress\n    );\n    _;\n  }\n\n  \n  function CryptocarToken() public {\n    ceoAddress = msg.sender;\n    cooAddress = msg.sender;\n  }\n\n  \n  \n  \n  \n  \n  \n  function approve(\n    address _to,\n    uint256 _tokenId\n  ) public {\n    \n    require(_owns(msg.sender, _tokenId));\n\n    carIndexToApproved[_tokenId] = _to;\n\n    Approval(msg.sender, _to, _tokenId);\n  }\n\n  \n  \n  \n  function balanceOf(address _owner) public view returns (uint256 balance) {\n    return ownershipTokenCount[_owner];\n  }\n\n  \n  function createPromoCar(address _owner, string _name, uint256 _price) public onlyCOO {\n    require(promoCreatedCount < PROMO_CREATION_LIMIT);\n\n    address carOwner = _owner;\n    if (carOwner == address(0)) {\n      carOwner = cooAddress;\n    }\n\n    if (_price <= 0) {\n      _price = startingPrice;\n    }\n\n    promoCreatedCount++;\n    _createCar(_name, carOwner, _price);\n  }\n\n  \n  function createContractCar(string _name) public onlyCOO {\n    _createCar(_name, address(this), startingPrice);\n  }\n\n  \n  \n  function getCar(uint256 _tokenId) public view returns (\n    string carName,\n    uint256 sellingPrice,\n    address owner\n  ) {\n    Car storage car = cars[_tokenId];\n    carName = car.name;\n    sellingPrice = carIndexToPrice[_tokenId];\n    owner = carIndexToOwner[_tokenId];\n  }\n\n  function implementsERC721() public pure returns (bool) {\n    return true;\n  }\n\n  \n  function name() public pure returns (string) {\n    return NAME;\n  }\n\n  \n  \n  \n  function ownerOf(uint256 _tokenId)\n    public\n    view\n    returns (address owner)\n  {\n    owner = carIndexToOwner[_tokenId];\n    require(owner != address(0));\n    return owner;\n  }\n\n  function payout(address _to) public onlyCLevel {\n    _payout(_to);\n  }\n\n  \n  function purchase(uint256 _tokenId) public payable {\n    address oldOwner = carIndexToOwner[_tokenId];\n    address newOwner = msg.sender;\n\n    uint256 sellingPrice = carIndexToPrice[_tokenId];\n\n    \n    require(oldOwner != newOwner);\n\n    \n    require(_addressNotNull(newOwner));\n\n    \n    require(msg.value >= sellingPrice);\n\n    uint256 payment = uint256(SafeMath.div(SafeMath.mul(sellingPrice, 93), 100));\n    uint256 purchaseExcess = SafeMath.sub(msg.value, sellingPrice);\n\n    \n    if (sellingPrice < firstStepLimit) {\n      \n      carIndexToPrice[_tokenId] = SafeMath.div(SafeMath.mul(sellingPrice, 200), 93);\n    } else if (sellingPrice < secondStepLimit) {\n      \n      carIndexToPrice[_tokenId] = SafeMath.div(SafeMath.mul(sellingPrice, 118), 93);\n    } else {\n      \n      carIndexToPrice[_tokenId] = SafeMath.div(SafeMath.mul(sellingPrice, 118), 93);\n    }\n\n    _transfer(oldOwner, newOwner, _tokenId);\n\n    \n    if (oldOwner != address(this)) {\n      oldOwner.transfer(payment); \n    }\n\n    TokenSold(_tokenId, sellingPrice, carIndexToPrice[_tokenId], oldOwner, newOwner, cars[_tokenId].name);\n\n    msg.sender.transfer(purchaseExcess);\n  }\n\n  function priceOf(uint256 _tokenId) public view returns (uint256 price) {\n    return carIndexToPrice[_tokenId];\n  }\n\n  \n  \n  function setCEO(address _newCEO) public onlyCEO {\n    require(_newCEO != address(0));\n\n    ceoAddress = _newCEO;\n  }\n\n  \n  \n  function setCOO(address _newCOO) public onlyCEO {\n    require(_newCOO != address(0));\n\n    cooAddress = _newCOO;\n  }\n\n  \n  function symbol() public pure returns (string) {\n    return SYMBOL;\n  }\n\n  \n  \n  \n  function takeOwnership(uint256 _tokenId) public {\n    address newOwner = msg.sender;\n    address oldOwner = carIndexToOwner[_tokenId];\n\n    \n    require(_addressNotNull(newOwner));\n\n    \n    require(_approved(newOwner, _tokenId));\n\n    _transfer(oldOwner, newOwner, _tokenId);\n  }\n\n  \n  \n  \n  \n  \n  function tokensOfOwner(address _owner) public view returns(uint256[] ownerTokens) {\n    uint256 tokenCount = balanceOf(_owner);\n    if (tokenCount == 0) {\n        \n      return new uint256[](0);\n    } else {\n      uint256[] memory result = new uint256[](tokenCount);\n      uint256 totalCars = totalSupply();\n      uint256 resultIndex = 0;\n\n      uint256 carId;\n      for (carId = 0; carId <= totalCars; carId++) {\n        if (carIndexToOwner[carId] == _owner) {\n          result[resultIndex] = carId;\n          resultIndex++;\n        }\n      }\n      return result;\n    }\n  }\n\n  \n  \n  function totalSupply() public view returns (uint256 total) {\n    return cars.length;\n  }\n\n  \n  \n  \n  \n  function transfer(\n    address _to,\n    uint256 _tokenId\n  ) public {\n    require(_owns(msg.sender, _tokenId));\n    require(_addressNotNull(_to));\n\n    _transfer(msg.sender, _to, _tokenId);\n  }\n\n  \n  \n  \n  \n  \n  function transferFrom(\n    address _from,\n    address _to,\n    uint256 _tokenId\n  ) public {\n    require(_owns(_from, _tokenId));\n    require(_approved(_to, _tokenId));\n    require(_addressNotNull(_to));\n\n    _transfer(_from, _to, _tokenId);\n  }\n\n  \n  \n  function _addressNotNull(address _to) private pure returns (bool) {\n    return _to != address(0);\n  }\n\n  \n  function _approved(address _to, uint256 _tokenId) private view returns (bool) {\n    return carIndexToApproved[_tokenId] == _to;\n  }\n\n  \n  function _createCar(string _name, address _owner, uint256 _price) private {\n    Car memory _car = Car({\n      name: _name\n    });\n    uint256 newCarId = cars.push(_car) - 1;\n\n    \n    \n    require(newCarId == uint256(uint32(newCarId)));\n\n    Birth(newCarId, _name, _owner);\n\n    carIndexToPrice[newCarId] = _price;\n\n    \n    \n    _transfer(address(0), _owner, newCarId);\n  }\n\n  \n  function _owns(address claimant, uint256 _tokenId) private view returns (bool) {\n    return claimant == carIndexToOwner[_tokenId];\n  }\n\n  \n  function _payout(address _to) private {\n    if (_to == address(0)) {\n      ceoAddress.transfer(this.balance);\n    } else {\n      _to.transfer(this.balance);\n    }\n  }\n\n  \n  function _transfer(address _from, address _to, uint256 _tokenId) private {\n    \n    ownershipTokenCount[_to]++;\n    \n    carIndexToOwner[_tokenId] = _to;\n\n    \n    if (_from != address(0)) {\n      ownershipTokenCount[_from]--;\n      \n      delete carIndexToApproved[_tokenId];\n    }\n\n    \n    Transfer(_from, _to, _tokenId);\n  }\n}\nlibrary SafeMath {\n\n  \n  function mul(uint256 a, uint256 b) internal pure returns (uint256) {\n    if (a == 0) {\n      return 0;\n    }\n    uint256 c = a * b;\n    assert(c / a == b);\n    return c;\n  }\n\n  \n  function div(uint256 a, uint256 b) internal pure returns (uint256) {\n    \n    uint256 c = a / b;\n    \n    return c;\n  }\n\n  \n  function sub(uint256 a, uint256 b) internal pure returns (uint256) {\n    assert(b <= a);\n    return a - b;\n  }\n\n  \n  function add(uint256 a, uint256 b) internal pure returns (uint256) {\n    uint256 c = a + b;\n    assert(c >= a);\n    return c;\n  }\n}",
  "sourcePath": "/home/XXX-1/smartrim-experiment/for-rlf/0x8200341ffa058a4b2fa5bef16c8cca0330d529ed/contracts/0x8200341ffa058a4b2fa5bef16c8cca0330d529ed.sol",
  "compiler": {
    "name": "solc",
    "version": "0.4.25+commit.59dbf8f1.Emscripten.clang"
  },
  "schemaVersion": "3.4.16",
  "updatedAt": "2025-08-14T03:59:04.132Z",
  "networkType": "ethereum",
  "devdoc": {
    "methods": {}
  },
  "userdoc": {
    "methods": {}
  }
}