{
  "contractName": "Vault",
  "abi": [
    {
      "constant": true,
      "inputs": [
        {
          "name": "",
          "type": "address"
        }
      ],
      "name": "deposits",
      "outputs": [
        {
          "name": "",
          "type": "uint256"
        }
      ],
      "payable": false,
      "stateMutability": "view",
      "type": "function"
    },
    {
      "payable": true,
      "stateMutability": "payable",
      "type": "fallback"
    },
    {
      "anonymous": false,
      "inputs": [
        {
          "indexed": true,
          "name": "depositor",
          "type": "address"
        },
        {
          "indexed": false,
          "name": "amount",
          "type": "uint256"
        }
      ],
      "name": "Deposit",
      "type": "event"
    },
    {
      "anonymous": false,
      "inputs": [
        {
          "indexed": true,
          "name": "to",
          "type": "address"
        },
        {
          "indexed": false,
          "name": "amount",
          "type": "uint256"
        }
      ],
      "name": "Withdrawal",
      "type": "event"
    },
    {
      "constant": false,
      "inputs": [
        {
          "name": "minDeposit",
          "type": "uint256"
        }
      ],
      "name": "initVault",
      "outputs": [],
      "payable": true,
      "stateMutability": "payable",
      "type": "function"
    },
    {
      "constant": false,
      "inputs": [
        {
          "name": "NewDate",
          "type": "uint256"
        }
      ],
      "name": "SetLockDate",
      "outputs": [],
      "payable": false,
      "stateMutability": "nonpayable",
      "type": "function"
    },
    {
      "constant": true,
      "inputs": [],
      "name": "WithdrawalEnabled",
      "outputs": [
        {
          "name": "",
          "type": "bool"
        }
      ],
      "payable": false,
      "stateMutability": "view",
      "type": "function"
    },
    {
      "constant": false,
      "inputs": [],
      "name": "deposit",
      "outputs": [],
      "payable": true,
      "stateMutability": "payable",
      "type": "function"
    },
    {
      "constant": false,
      "inputs": [
        {
          "name": "to",
          "type": "address"
        },
        {
          "name": "amount",
          "type": "uint256"
        }
      ],
      "name": "withdraw",
      "outputs": [],
      "payable": false,
      "stateMutability": "nonpayable",
      "type": "function"
    },
    {
      "constant": false,
      "inputs": [],
      "name": "lock",
      "outputs": [],
      "payable": false,
      "stateMutability": "nonpayable",
      "type": "function"
    }
  ],
  "bytecode": "0x60806040526000600460006101000a81548160ff02191690831515021790555034801561002b57600080fd5b506105218061003b6000396000f300608060405260043610610083576000357c0100000000000000000000000000000000000000000000000000000000900463ffffffff16806366f7d7301461008d5780637c0e2a5a146100bc57806388b9a469146100e9578063d0e30db014610109578063f3fef3a314610113578063f83d08ba14610160578063fc7e286d14610177575b61008b6101ce565b005b34801561009957600080fd5b506100a2610305565b604051808215151515815260200191505060405180910390f35b3480156100c857600080fd5b506100e76004803603810190808035906020019092919050505061031f565b005b6101076004803603810190808035906020019092919050505061037f565b005b6101116101ce565b005b34801561011f57600080fd5b5061015e600480360381019080803573ffffffffffffffffffffffffffffffffffffffff169060200190929190803590602001909291905050506103f0565b005b34801561016c57600080fd5b506101756104c0565b005b34801561018357600080fd5b506101b8600480360381019080803573ffffffffffffffffffffffffffffffffffffffff1690602001909291905050506104dd565b6040518082815260200191505060405180910390f35b600354341015156102b457600160003373ffffffffffffffffffffffffffffffffffffffff1673ffffffffffffffffffffffffffffffffffffffff1681526020019081526020016000205434600160003373ffffffffffffffffffffffffffffffffffffffff1673ffffffffffffffffffffffffffffffffffffffff1681526020019081526020016000205401101561026657610303565b34600160003373ffffffffffffffffffffffffffffffffffffffff1673ffffffffffffffffffffffffffffffffffffffff168152602001908152602001600020600082825401925050819055505b3373ffffffffffffffffffffffffffffffffffffffff167fe1fffcc4923d04b559f4d29a8bfc6cda04eb5b0d3c460751c2402c5c5cc9109c346040518082815260200191505060405180910390a25b565b60008060025411801561031a57504260025411155b905090565b6000809054906101000a900473ffffffffffffffffffffffffffffffffffffffff1673ffffffffffffffffffffffffffffffffffffffff163373ffffffffffffffffffffffffffffffffffffffff16141561037c57806002819055505b50565b600460009054906101000a900460ff1615156103ed57336000806101000a81548173ffffffffffffffffffffffffffffffffffffffff021916908373ffffffffffffffffffffffffffffffffffffffff1602179055506000600281905550806003819055506103ec6101ce565b5b50565b6000809054906101000a900473ffffffffffffffffffffffffffffffffffffffff1673ffffffffffffffffffffffffffffffffffffffff163373ffffffffffffffffffffffffffffffffffffffff1614156104bc5761044d610305565b156104bb573073ffffffffffffffffffffffffffffffffffffffff1631811115156104ba578173ffffffffffffffffffffffffffffffffffffffff166108fc829081150290604051600060405180830381858888f193505050501580156104b8573d6000803e3d6000fd5b505b5b5b5050565b6001600460006101000a81548160ff021916908315150217905550565b600160205280600052604060002060009150905054815600a165627a7a723058206a8b7082f56dc11cc02b55665a10071937338daae8f3a2b52c90febd7ce2587f0029",
  "source": "\n\ncontract Vault {\n    \n    event Deposit(address indexed depositor, uint amount);\n    event Withdrawal(address indexed to, uint amount);\n    \n    address Owner;\n    \n    mapping (address => uint) public deposits;\n    uint Date;\n    uint MinimumDeposit;\n    bool Locked = false;\n    \n    function initVault(uint minDeposit) isOpen payable {\n        Owner = msg.sender;\n        Date = 0;\n        MinimumDeposit = minDeposit;\n        deposit();\n    }\n\n    function() payable { deposit(); }\n\n    function SetLockDate(uint NewDate) onlyOwner {\n        Date = NewDate;\n    }\n\n    function WithdrawalEnabled() constant returns (bool) { return Date > 0 && Date <= now; }\n\n    function deposit() payable {\n        if (msg.value >= MinimumDeposit) {\n            if ((deposits[msg.sender] + msg.value) < deposits[msg.sender]) {\n                return;\n            }\n            deposits[msg.sender] += msg.value;\n        }\n        Deposit(msg.sender, msg.value);\n    }\n\n    function withdraw(address to, uint amount) onlyOwner {\n        if (WithdrawalEnabled()) {\n            if (amount <= this.balance) {\n                to.transfer(amount);\n            }\n        }\n    }\n\n    modifier onlyOwner { if (msg.sender == Owner) _; }\n    modifier isOpen { if (!Locked) _; }\n    function lock() { Locked = true; }\n}",
  "sourcePath": "/home/XXX-1/smartrim-experiment/for-rlf/0x954a36b1c1e5e42f884c4f7aa9522e6fd21b11c3/contracts/0x954a36b1c1e5e42f884c4f7aa9522e6fd21b11c3.sol",
  "compiler": {
    "name": "solc",
    "version": "0.4.25+commit.59dbf8f1.Emscripten.clang"
  },
  "schemaVersion": "3.4.16",
  "updatedAt": "2025-08-14T04:01:07.848Z",
  "networkType": "ethereum",
  "devdoc": {
    "methods": {}
  },
  "userdoc": {
    "methods": {}
  }
}