{
  "contractName": "CryptoColors",
  "abi": [
    {
      "constant": true,
      "inputs": [],
      "name": "ceoAddress",
      "outputs": [
        {
          "name": "",
          "type": "address"
        }
      ],
      "payable": false,
      "stateMutability": "view",
      "type": "function"
    },
    {
      "constant": true,
      "inputs": [
        {
          "name": "",
          "type": "uint256"
        }
      ],
      "name": "tokenIndexToOwner",
      "outputs": [
        {
          "name": "",
          "type": "address"
        }
      ],
      "payable": false,
      "stateMutability": "view",
      "type": "function"
    },
    {
      "constant": true,
      "inputs": [],
      "name": "NAME",
      "outputs": [
        {
          "name": "",
          "type": "string"
        }
      ],
      "payable": false,
      "stateMutability": "view",
      "type": "function"
    },
    {
      "constant": true,
      "inputs": [
        {
          "name": "",
          "type": "uint256"
        }
      ],
      "name": "tokenIndexToApproved",
      "outputs": [
        {
          "name": "",
          "type": "address"
        }
      ],
      "payable": false,
      "stateMutability": "view",
      "type": "function"
    },
    {
      "constant": true,
      "inputs": [],
      "name": "cooAddress",
      "outputs": [
        {
          "name": "",
          "type": "address"
        }
      ],
      "payable": false,
      "stateMutability": "view",
      "type": "function"
    },
    {
      "constant": true,
      "inputs": [],
      "name": "SYMBOL",
      "outputs": [
        {
          "name": "",
          "type": "string"
        }
      ],
      "payable": false,
      "stateMutability": "view",
      "type": "function"
    },
    {
      "inputs": [],
      "payable": false,
      "stateMutability": "nonpayable",
      "type": "constructor"
    },
    {
      "anonymous": false,
      "inputs": [
        {
          "indexed": false,
          "name": "tokenId",
          "type": "uint256"
        },
        {
          "indexed": false,
          "name": "name",
          "type": "string"
        },
        {
          "indexed": false,
          "name": "owner",
          "type": "address"
        }
      ],
      "name": "Birth",
      "type": "event"
    },
    {
      "anonymous": false,
      "inputs": [
        {
          "indexed": false,
          "name": "tokenId",
          "type": "uint256"
        },
        {
          "indexed": false,
          "name": "oldPrice",
          "type": "uint256"
        },
        {
          "indexed": false,
          "name": "newPrice",
          "type": "uint256"
        },
        {
          "indexed": false,
          "name": "prevOwner",
          "type": "address"
        },
        {
          "indexed": false,
          "name": "winner",
          "type": "address"
        },
        {
          "indexed": false,
          "name": "name",
          "type": "string"
        }
      ],
      "name": "TokenSold",
      "type": "event"
    },
    {
      "anonymous": false,
      "inputs": [
        {
          "indexed": false,
          "name": "referrer",
          "type": "address"
        },
        {
          "indexed": false,
          "name": "balance",
          "type": "uint256"
        }
      ],
      "name": "Payout",
      "type": "event"
    },
    {
      "anonymous": false,
      "inputs": [
        {
          "indexed": false,
          "name": "referrer",
          "type": "address"
        },
        {
          "indexed": false,
          "name": "referral",
          "type": "address"
        }
      ],
      "name": "ReferrerRegistered",
      "type": "event"
    },
    {
      "anonymous": false,
      "inputs": [
        {
          "indexed": false,
          "name": "from",
          "type": "address"
        },
        {
          "indexed": false,
          "name": "to",
          "type": "address"
        },
        {
          "indexed": false,
          "name": "tokenId",
          "type": "uint256"
        }
      ],
      "name": "Transfer",
      "type": "event"
    },
    {
      "anonymous": false,
      "inputs": [
        {
          "indexed": true,
          "name": "owner",
          "type": "address"
        },
        {
          "indexed": true,
          "name": "approved",
          "type": "address"
        },
        {
          "indexed": false,
          "name": "tokenId",
          "type": "uint256"
        }
      ],
      "name": "Approval",
      "type": "event"
    },
    {
      "constant": false,
      "inputs": [
        {
          "name": "_to",
          "type": "address"
        },
        {
          "name": "_tokenId",
          "type": "uint256"
        }
      ],
      "name": "approve",
      "outputs": [],
      "payable": false,
      "stateMutability": "nonpayable",
      "type": "function"
    },
    {
      "constant": true,
      "inputs": [
        {
          "name": "_owner",
          "type": "address"
        }
      ],
      "name": "balanceOf",
      "outputs": [
        {
          "name": "balance",
          "type": "uint256"
        }
      ],
      "payable": false,
      "stateMutability": "view",
      "type": "function"
    },
    {
      "constant": false,
      "inputs": [
        {
          "name": "_name",
          "type": "string"
        }
      ],
      "name": "createContractToken",
      "outputs": [],
      "payable": false,
      "stateMutability": "nonpayable",
      "type": "function"
    },
    {
      "constant": true,
      "inputs": [
        {
          "name": "_tokenId",
          "type": "uint256"
        }
      ],
      "name": "getToken",
      "outputs": [
        {
          "name": "tokenName",
          "type": "string"
        },
        {
          "name": "sellingPrice",
          "type": "uint256"
        },
        {
          "name": "owner",
          "type": "address"
        }
      ],
      "payable": false,
      "stateMutability": "view",
      "type": "function"
    },
    {
      "constant": true,
      "inputs": [
        {
          "name": "_address",
          "type": "address"
        }
      ],
      "name": "getReferrer",
      "outputs": [
        {
          "name": "referrerAddress",
          "type": "address"
        }
      ],
      "payable": false,
      "stateMutability": "view",
      "type": "function"
    },
    {
      "constant": true,
      "inputs": [
        {
          "name": "_address",
          "type": "address"
        }
      ],
      "name": "getReferrerBalance",
      "outputs": [
        {
          "name": "totalAmount",
          "type": "uint256"
        }
      ],
      "payable": false,
      "stateMutability": "view",
      "type": "function"
    },
    {
      "constant": true,
      "inputs": [],
      "name": "implementsERC721",
      "outputs": [
        {
          "name": "",
          "type": "bool"
        }
      ],
      "payable": false,
      "stateMutability": "pure",
      "type": "function"
    },
    {
      "constant": true,
      "inputs": [],
      "name": "name",
      "outputs": [
        {
          "name": "",
          "type": "string"
        }
      ],
      "payable": false,
      "stateMutability": "pure",
      "type": "function"
    },
    {
      "constant": true,
      "inputs": [
        {
          "name": "_tokenId",
          "type": "uint256"
        }
      ],
      "name": "ownerOf",
      "outputs": [
        {
          "name": "owner",
          "type": "address"
        }
      ],
      "payable": false,
      "stateMutability": "view",
      "type": "function"
    },
    {
      "constant": false,
      "inputs": [
        {
          "name": "_to",
          "type": "address"
        }
      ],
      "name": "payout",
      "outputs": [],
      "payable": false,
      "stateMutability": "nonpayable",
      "type": "function"
    },
    {
      "constant": false,
      "inputs": [],
      "name": "payoutToReferrer",
      "outputs": [],
      "payable": true,
      "stateMutability": "payable",
      "type": "function"
    },
    {
      "constant": true,
      "inputs": [
        {
          "name": "_tokenId",
          "type": "uint256"
        }
      ],
      "name": "priceOf",
      "outputs": [
        {
          "name": "price",
          "type": "uint256"
        }
      ],
      "payable": false,
      "stateMutability": "view",
      "type": "function"
    },
    {
      "constant": false,
      "inputs": [
        {
          "name": "_tokenId",
          "type": "uint256"
        },
        {
          "name": "_referrer",
          "type": "address"
        }
      ],
      "name": "purchase",
      "outputs": [],
      "payable": true,
      "stateMutability": "payable",
      "type": "function"
    },
    {
      "constant": false,
      "inputs": [
        {
          "name": "_newCEO",
          "type": "address"
        }
      ],
      "name": "setCEO",
      "outputs": [],
      "payable": false,
      "stateMutability": "nonpayable",
      "type": "function"
    },
    {
      "constant": false,
      "inputs": [
        {
          "name": "_newCOO",
          "type": "address"
        }
      ],
      "name": "setCOO",
      "outputs": [],
      "payable": false,
      "stateMutability": "nonpayable",
      "type": "function"
    },
    {
      "constant": true,
      "inputs": [],
      "name": "symbol",
      "outputs": [
        {
          "name": "",
          "type": "string"
        }
      ],
      "payable": false,
      "stateMutability": "pure",
      "type": "function"
    },
    {
      "constant": false,
      "inputs": [
        {
          "name": "_tokenId",
          "type": "uint256"
        }
      ],
      "name": "takeOwnership",
      "outputs": [],
      "payable": false,
      "stateMutability": "nonpayable",
      "type": "function"
    },
    {
      "constant": true,
      "inputs": [
        {
          "name": "_owner",
          "type": "address"
        }
      ],
      "name": "tokensOfOwner",
      "outputs": [
        {
          "name": "ownerTokens",
          "type": "uint256[]"
        }
      ],
      "payable": false,
      "stateMutability": "view",
      "type": "function"
    },
    {
      "constant": true,
      "inputs": [],
      "name": "totalSupply",
      "outputs": [
        {
          "name": "total",
          "type": "uint256"
        }
      ],
      "payable": false,
      "stateMutability": "view",
      "type": "function"
    },
    {
      "constant": false,
      "inputs": [
        {
          "name": "_to",
          "type": "address"
        },
        {
          "name": "_tokenId",
          "type": "uint256"
        }
      ],
      "name": "transfer",
      "outputs": [],
      "payable": false,
      "stateMutability": "nonpayable",
      "type": "function"
    },
    {
      "constant": false,
      "inputs": [
        {
          "name": "_from",
          "type": "address"
        },
        {
          "name": "_to",
          "type": "address"
        },
        {
          "name": "_tokenId",
          "type": "uint256"
        }
      ],
      "name": "transferFrom",
      "outputs": [],
      "payable": false,
      "stateMutability": "nonpayable",
      "type": "function"
    }
  ],
  "bytecode": "0x608060405266038d7ea4c6800060005566470de4df8200006001556706f05b59d3b20000600255671bc16d674ec80000600355674563918244f4000060045534801561004a57600080fd5b5033600b60006101000a81548173ffffffffffffffffffffffffffffffffffffffff021916908373ffffffffffffffffffffffffffffffffffffffff16021790555033600c60006101000a81548173ffffffffffffffffffffffffffffffffffffffff021916908373ffffffffffffffffffffffffffffffffffffffff160217905550612515806100dc6000396000f30060806040526004361061015f576000357c0100000000000000000000000000000000000000000000000000000000900463ffffffff16806306fdde0314610164578063095ea7b3146101f45780630a0f8168146102415780630b7e9c44146102985780631051db34146102db57806318160ddd1461030a5780631d36e06c1461033557806323b872dd146103a257806327d7874c1461040f5780632ba73c15146104525780634a9fefc7146104955780636352211e1461051857806370a0823114610585578063819384a2146105dc5780638462151c146105e657806395d89b411461067e578063a3f4df7e1461070e578063a8bd9c321461079e578063a9059cbb1461080b578063abc3bc9214610858578063ae77c237146108af578063b047fb50146108ef578063b2e6ceeb14610946578063b9186d7d14610973578063e160e146146109b4578063e4b50cb814610a1d578063f76f8d7814610afd575b600080fd5b34801561017057600080fd5b50610179610b8d565b6040518080602001828103825283818151815260200191508051906020019080838360005b838110156101b957808201518184015260208101905061019e565b50505050905090810190601f1680156101e65780820380516001836020036101000a031916815260200191505b509250505060405180910390f35b34801561020057600080fd5b5061023f600480360381019080803573ffffffffffffffffffffffffffffffffffffffff16906020019092919080359060200190929190505050610bca565b005b34801561024d57600080fd5b50610256610c9a565b604051808273ffffffffffffffffffffffffffffffffffffffff1673ffffffffffffffffffffffffffffffffffffffff16815260200191505060405180910390f35b3480156102a457600080fd5b506102d9600480360381019080803573ffffffffffffffffffffffffffffffffffffffff169060200190929190505050610cc0565b005b3480156102e757600080fd5b506102f0610d80565b604051808215151515815260200191505060405180910390f35b34801561031657600080fd5b5061031f610d89565b6040518082815260200191505060405180910390f35b34801561034157600080fd5b5061036060048036038101908080359060200190929190505050610d96565b604051808273ffffffffffffffffffffffffffffffffffffffff1673ffffffffffffffffffffffffffffffffffffffff16815260200191505060405180910390f35b3480156103ae57600080fd5b5061040d600480360381019080803573ffffffffffffffffffffffffffffffffffffffff169060200190929190803573ffffffffffffffffffffffffffffffffffffffff16906020019092919080359060200190929190505050610dc9565b005b34801561041b57600080fd5b50610450600480360381019080803573ffffffffffffffffffffffffffffffffffffffff169060200190929190505050610e17565b005b34801561045e57600080fd5b50610493600480360381019080803573ffffffffffffffffffffffffffffffffffffffff169060200190929190505050610ef3565b005b3480156104a157600080fd5b506104d6600480360381019080803573ffffffffffffffffffffffffffffffffffffffff169060200190929190505050610fcf565b604051808273ffffffffffffffffffffffffffffffffffffffff1673ffffffffffffffffffffffffffffffffffffffff16815260200191505060405180910390f35b34801561052457600080fd5b5061054360048036038101908080359060200190929190505050611038565b604051808273ffffffffffffffffffffffffffffffffffffffff1673ffffffffffffffffffffffffffffffffffffffff16815260200191505060405180910390f35b34801561059157600080fd5b506105c6600480360381019080803573ffffffffffffffffffffffffffffffffffffffff1690602001909291905050506110b1565b6040518082815260200191505060405180910390f35b6105e46110fa565b005b3480156105f257600080fd5b50610627600480360381019080803573ffffffffffffffffffffffffffffffffffffffff169060200190929190505050611247565b6040518080602001828103825283818151815260200191508051906020019060200280838360005b8381101561066a57808201518184015260208101905061064f565b505050509050019250505060405180910390f35b34801561068a57600080fd5b50610693611394565b6040518080602001828103825283818151815260200191508051906020019080838360005b838110156106d35780820151818401526020810190506106b8565b50505050905090810190601f1680156107005780820380516001836020036101000a031916815260200191505b509250505060405180910390f35b34801561071a57600080fd5b506107236113d1565b6040518080602001828103825283818151815260200191508051906020019080838360005b83811015610763578082015181840152602081019050610748565b50505050905090810190601f1680156107905780820380516001836020036101000a031916815260200191505b509250505060405180910390f35b3480156107aa57600080fd5b506107c96004803603810190808035906020019092919050505061140a565b604051808273ffffffffffffffffffffffffffffffffffffffff1673ffffffffffffffffffffffffffffffffffffffff16815260200191505060405180910390f35b34801561081757600080fd5b50610856600480360381019080803573ffffffffffffffffffffffffffffffffffffffff1690602001909291908035906020019092919050505061143d565b005b34801561086457600080fd5b50610899600480360381019080803573ffffffffffffffffffffffffffffffffffffffff169060200190929190505050611475565b6040518082815260200191505060405180910390f35b6108ed60048036038101908080359060200190929190803573ffffffffffffffffffffffffffffffffffffffff1690602001909291905050506114be565b005b3480156108fb57600080fd5b50610904611a36565b604051808273ffffffffffffffffffffffffffffffffffffffff1673ffffffffffffffffffffffffffffffffffffffff16815260200191505060405180910390f35b34801561095257600080fd5b5061097160048036038101908080359060200190929190505050611a5c565b005b34801561097f57600080fd5b5061099e60048036038101908080359060200190929190505050611ad1565b6040518082815260200191505060405180910390f35b3480156109c057600080fd5b50610a1b600480360381019080803590602001908201803590602001908080601f0160208091040260200160405190810160405280939291908181526020018383808284378201915050505050509192919290505050611aee565b005b348015610a2957600080fd5b50610a4860048036038101908080359060200190929190505050611bb2565b60405180806020018481526020018373ffffffffffffffffffffffffffffffffffffffff1673ffffffffffffffffffffffffffffffffffffffff168152602001828103825285818151815260200191508051906020019080838360005b83811015610ac0578082015181840152602081019050610aa5565b50505050905090810190601f168015610aed5780820380516001836020036101000a031916815260200191505b5094505050505060405180910390f35b348015610b0957600080fd5b50610b12611cc7565b6040518080602001828103825283818151815260200191508051906020019080838360005b83811015610b52578082015181840152602081019050610b37565b50505050905090810190601f168015610b7f5780820380516001836020036101000a031916815260200191505b509250505060405180910390f35b60606040805190810160405280600c81526020017f43727970746f436f6c6f72730000000000000000000000000000000000000000815250905090565b610bd43382611d00565b1515610bdf57600080fd5b816007600083815260200190815260200160002060006101000a81548173ffffffffffffffffffffffffffffffffffffffff021916908373ffffffffffffffffffffffffffffffffffffffff1602179055508173ffffffffffffffffffffffffffffffffffffffff163373ffffffffffffffffffffffffffffffffffffffff167f8c5be1e5ebec7d5bd14f71427d1e84f3dd0314c0f7b2291e5b200ac8c7c3b925836040518082815260200191505060405180910390a35050565b600b60009054906101000a900473ffffffffffffffffffffffffffffffffffffffff1681565b600b60009054906101000a900473ffffffffffffffffffffffffffffffffffffffff1673ffffffffffffffffffffffffffffffffffffffff163373ffffffffffffffffffffffffffffffffffffffff161480610d695750600c60009054906101000a900473ffffffffffffffffffffffffffffffffffffffff1673ffffffffffffffffffffffffffffffffffffffff163373ffffffffffffffffffffffffffffffffffffffff16145b1515610d7457600080fd5b610d7d81611d6c565b50565b60006001905090565b6000600d80549050905090565b60056020528060005260406000206000915054906101000a900473ffffffffffffffffffffffffffffffffffffffff1681565b610dd38382611d00565b1515610dde57600080fd5b610de88282611e88565b1515610df357600080fd5b610dfc82611ef4565b1515610e0757600080fd5b610e12838383611f2d565b505050565b600b60009054906101000a900473ffffffffffffffffffffffffffffffffffffffff1673ffffffffffffffffffffffffffffffffffffffff163373ffffffffffffffffffffffffffffffffffffffff16141515610e7357600080fd5b600073ffffffffffffffffffffffffffffffffffffffff168173ffffffffffffffffffffffffffffffffffffffff1614151515610eaf57600080fd5b80600b60006101000a81548173ffffffffffffffffffffffffffffffffffffffff021916908373ffffffffffffffffffffffffffffffffffffffff16021790555050565b600b60009054906101000a900473ffffffffffffffffffffffffffffffffffffffff1673ffffffffffffffffffffffffffffffffffffffff163373ffffffffffffffffffffffffffffffffffffffff16141515610f4f57600080fd5b600073ffffffffffffffffffffffffffffffffffffffff168173ffffffffffffffffffffffffffffffffffffffff1614151515610f8b57600080fd5b80600c60006101000a81548173ffffffffffffffffffffffffffffffffffffffff021916908373ffffffffffffffffffffffffffffffffffffffff16021790555050565b6000600a60008373ffffffffffffffffffffffffffffffffffffffff1673ffffffffffffffffffffffffffffffffffffffff16815260200190815260200160002060009054906101000a900473ffffffffffffffffffffffffffffffffffffffff169050919050565b60006005600083815260200190815260200160002060009054906101000a900473ffffffffffffffffffffffffffffffffffffffff169050600073ffffffffffffffffffffffffffffffffffffffff168173ffffffffffffffffffffffffffffffffffffffff16141515156110ac57600080fd5b919050565b6000600660008373ffffffffffffffffffffffffffffffffffffffff1673ffffffffffffffffffffffffffffffffffffffff168152602001908152602001600020549050919050565b600080339150600960008373ffffffffffffffffffffffffffffffffffffffff1673ffffffffffffffffffffffffffffffffffffffff1681526020019081526020016000205490506000811115611243573373ffffffffffffffffffffffffffffffffffffffff166108fc829081150290604051600060405180830381858888f19350505050158015611191573d6000803e3d6000fd5b506000600960008473ffffffffffffffffffffffffffffffffffffffff1673ffffffffffffffffffffffffffffffffffffffff168152602001908152602001600020819055507f5afeca38b2064c23a692c4cf353015d80ab3ecc417b4f893f372690c11fbd9a68282604051808373ffffffffffffffffffffffffffffffffffffffff1673ffffffffffffffffffffffffffffffffffffffff1681526020018281526020019250505060405180910390a15b5050565b606060006060600080600061125b876110b1565b9450600085141561129e5760006040519080825280602002602001820160405280156112965781602001602082028038833980820191505090505b50955061138a565b846040519080825280602002602001820160405280156112cd5781602001602082028038833980820191505090505b5093506112d8610d89565b925060009150600090505b8281111515611386578673ffffffffffffffffffffffffffffffffffffffff166005600083815260200190815260200160002060009054906101000a900473ffffffffffffffffffffffffffffffffffffffff1673ffffffffffffffffffffffffffffffffffffffff1614156113795780848381518110151561136257fe5b906020019060200201818152505081806001019250505b80806001019150506112e3565b8395505b5050505050919050565b60606040805190810160405280600481526020017f434c525300000000000000000000000000000000000000000000000000000000815250905090565b6040805190810160405280600c81526020017f43727970746f436f6c6f7273000000000000000000000000000000000000000081525081565b60076020528060005260406000206000915054906101000a900473ffffffffffffffffffffffffffffffffffffffff1681565b6114473382611d00565b151561145257600080fd5b61145b82611ef4565b151561146657600080fd5b611471338383611f2d565b5050565b6000600960008373ffffffffffffffffffffffffffffffffffffffff1673ffffffffffffffffffffffffffffffffffffffff168152602001908152602001600020549050919050565b6000806000806000806000339650600560008a815260200190815260200160002060009054906101000a900473ffffffffffffffffffffffffffffffffffffffff169550600860008a81526020019081526020016000205494508673ffffffffffffffffffffffffffffffffffffffff168673ffffffffffffffffffffffffffffffffffffffff161415151561155357600080fd5b61155c87611ef4565b151561156757600080fd5b84341015151561157657600080fd5b61159d606461158f605f8861212f90919063ffffffff16565b61216a90919063ffffffff16565b93506115b2853461218590919063ffffffff16565b92506115ed60646115df600f6115d1888a61218590919063ffffffff16565b61212f90919063ffffffff16565b61216a90919063ffffffff16565b91506115f887610fcf565b905061160381611ef4565b1561165a5781600960008373ffffffffffffffffffffffffffffffffffffffff1673ffffffffffffffffffffffffffffffffffffffff168152602001908152602001600020600082825401925050819055506117cc565b61166388611ef4565b156117cb5787600a60008973ffffffffffffffffffffffffffffffffffffffff1673ffffffffffffffffffffffffffffffffffffffff16815260200190815260200160002060006101000a81548173ffffffffffffffffffffffffffffffffffffffff021916908373ffffffffffffffffffffffffffffffffffffffff1602179055507f0e67f4bbcd5c51b7365ca2dd861dc8094e393ca60de2ceae9d831761a839e92a8888604051808373ffffffffffffffffffffffffffffffffffffffff1673ffffffffffffffffffffffffffffffffffffffff1681526020018273ffffffffffffffffffffffffffffffffffffffff1673ffffffffffffffffffffffffffffffffffffffff1681526020019250505060405180910390a181600960008a73ffffffffffffffffffffffffffffffffffffffff1673ffffffffffffffffffffffffffffffffffffffff168152602001908152602001600020600082825401925050819055505b5b6117d58561219e565b600860008b8152602001908152602001600020819055506117f786888b611f2d565b3073ffffffffffffffffffffffffffffffffffffffff168673ffffffffffffffffffffffffffffffffffffffff16141515611874578573ffffffffffffffffffffffffffffffffffffffff166108fc859081150290604051600060405180830381858888f19350505050158015611872573d6000803e3d6000fd5b505b7e8201e7bcbf010c2c07de59d6e97cb7e3cf67a46125c49cbc89b9d2cde1f48f8986600860008d815260200190815260200160002054898b600d8f8154811015156118bb57fe5b90600052602060002001600001604051808781526020018681526020018581526020018473ffffffffffffffffffffffffffffffffffffffff1673ffffffffffffffffffffffffffffffffffffffff1681526020018373ffffffffffffffffffffffffffffffffffffffff1673ffffffffffffffffffffffffffffffffffffffff168152602001806020018281038252838181546001816001161561010002031660029004815260200191508054600181600116156101000203166002900480156119c75780601f1061199c576101008083540402835291602001916119c7565b820191906000526020600020905b8154815290600101906020018083116119aa57829003601f168201915b505097505050505050505060405180910390a16000831115611a2b573373ffffffffffffffffffffffffffffffffffffffff166108fc849081150290604051600060405180830381858888f19350505050158015611a29573d6000803e3d6000fd5b505b505050505050505050565b600c60009054906101000a900473ffffffffffffffffffffffffffffffffffffffff1681565b6000803391506005600084815260200190815260200160002060009054906101000a900473ffffffffffffffffffffffffffffffffffffffff169050611aa182611ef4565b1515611aac57600080fd5b611ab68284611e88565b1515611ac157600080fd5b611acc818385611f2d565b505050565b600060086000838152602001908152602001600020549050919050565b600b60009054906101000a900473ffffffffffffffffffffffffffffffffffffffff1673ffffffffffffffffffffffffffffffffffffffff163373ffffffffffffffffffffffffffffffffffffffff161480611b975750600c60009054906101000a900473ffffffffffffffffffffffffffffffffffffffff1673ffffffffffffffffffffffffffffffffffffffff163373ffffffffffffffffffffffffffffffffffffffff16145b1515611ba257600080fd5b611baf81306000546122af565b50565b60606000806000600d85815481101515611bc857fe5b906000526020600020019050806000018054600181600116156101000203166002900480601f016020809104026020016040519081016040528092919081815260200182805460018160011615610100020316600290048015611c6c5780601f10611c4157610100808354040283529160200191611c6c565b820191906000526020600020905b815481529060010190602001808311611c4f57829003601f168201915b50505050509350600860008681526020019081526020016000205492506005600086815260200190815260200160002060009054906101000a900473ffffffffffffffffffffffffffffffffffffffff169150509193909250565b6040805190810160405280600481526020017f434c52530000000000000000000000000000000000000000000000000000000081525081565b60006005600083815260200190815260200160002060009054906101000a900473ffffffffffffffffffffffffffffffffffffffff1673ffffffffffffffffffffffffffffffffffffffff168373ffffffffffffffffffffffffffffffffffffffff1614905092915050565b600073ffffffffffffffffffffffffffffffffffffffff168173ffffffffffffffffffffffffffffffffffffffff161415611e2657600b60009054906101000a900473ffffffffffffffffffffffffffffffffffffffff1673ffffffffffffffffffffffffffffffffffffffff166108fc3073ffffffffffffffffffffffffffffffffffffffff16319081150290604051600060405180830381858888f19350505050158015611e20573d6000803e3d6000fd5b50611e85565b8073ffffffffffffffffffffffffffffffffffffffff166108fc3073ffffffffffffffffffffffffffffffffffffffff16319081150290604051600060405180830381858888f19350505050158015611e83573d6000803e3d6000fd5b505b50565b60008273ffffffffffffffffffffffffffffffffffffffff166007600084815260200190815260200160002060009054906101000a900473ffffffffffffffffffffffffffffffffffffffff1673ffffffffffffffffffffffffffffffffffffffff1614905092915050565b60008073ffffffffffffffffffffffffffffffffffffffff168273ffffffffffffffffffffffffffffffffffffffff1614159050919050565b600660008373ffffffffffffffffffffffffffffffffffffffff1673ffffffffffffffffffffffffffffffffffffffff16815260200190815260200160002060008154809291906001019190505550816005600083815260200190815260200160002060006101000a81548173ffffffffffffffffffffffffffffffffffffffff021916908373ffffffffffffffffffffffffffffffffffffffff160217905550600073ffffffffffffffffffffffffffffffffffffffff168373ffffffffffffffffffffffffffffffffffffffff1614151561208b57600660008473ffffffffffffffffffffffffffffffffffffffff1673ffffffffffffffffffffffffffffffffffffffff16815260200190815260200160002060008154809291906001900391905055506007600082815260200190815260200160002060006101000a81549073ffffffffffffffffffffffffffffffffffffffff02191690555b7fddf252ad1be2c89b69c2b068fc378daa952ba7f163c4a11628f55a4df523b3ef838383604051808473ffffffffffffffffffffffffffffffffffffffff1673ffffffffffffffffffffffffffffffffffffffff1681526020018373ffffffffffffffffffffffffffffffffffffffff1673ffffffffffffffffffffffffffffffffffffffff168152602001828152602001935050505060405180910390a1505050565b60008060008414156121445760009150612163565b828402905082848281151561215557fe5b0414151561215f57fe5b8091505b5092915050565b600080828481151561217857fe5b0490508091505092915050565b600082821115151561219357fe5b818303905092915050565b60006001548210156121d8576121d160646121c360c88561212f90919063ffffffff16565b61216a90919063ffffffff16565b90506122aa565b6002548210156122105761220960646121fb60878561212f90919063ffffffff16565b61216a90919063ffffffff16565b90506122aa565b600354821015612248576122416064612233607d8561212f90919063ffffffff16565b61216a90919063ffffffff16565b90506122aa565b60045482101561228057612279606461226b60788561212f90919063ffffffff16565b61216a90919063ffffffff16565b90506122aa565b6122a7606461229960738561212f90919063ffffffff16565b61216a90919063ffffffff16565b90505b919050565b6122b7612430565b60006020604051908101604052808681525091506001600d839080600181540180825580915050906001820390600052602060002001600090919290919091506000820151816000019080519060200190612313929190612444565b5050500390508063ffffffff168114151561232d57600080fd5b7fb3b0cf861f168bcdb275c69da97b2543631552ba562628aa3c7317d4a6089ef281868660405180848152602001806020018373ffffffffffffffffffffffffffffffffffffffff1673ffffffffffffffffffffffffffffffffffffffff168152602001828103825284818151815260200191508051906020019080838360005b838110156123c95780820151818401526020810190506123ae565b50505050905090810190601f1680156123f65780820380516001836020036101000a031916815260200191505b5094505050505060405180910390a182600860008381526020019081526020016000208190555061242960008583611f2d565b5050505050565b602060405190810160405280606081525090565b828054600181600116156101000203166002900490600052602060002090601f016020900481019282601f1061248557805160ff19168380011785556124b3565b828001600101855582156124b3579182015b828111156124b2578251825591602001919060010190612497565b5b5090506124c091906124c4565b5090565b6124e691905b808211156124e25760008160009055506001016124ca565b5090565b905600a165627a7a72305820935783190ecb0455aa68b6cde404642004fa98ce962cb518af3eb54ee2215ffe0029",
  "source": " \n\nlibrary SafeMath {\n\n  \n  function mul(uint256 a, uint256 b) internal pure returns (uint256) {\n    if (a == 0) {\n      return 0;\n    }\n    uint256 c = a * b;\n    assert(c / a == b);\n    return c;\n  }\n\n  \n  function div(uint256 a, uint256 b) internal pure returns (uint256) {\n    \n    uint256 c = a / b;\n    \n    return c;\n  }\n\n  \n  function sub(uint256 a, uint256 b) internal pure returns (uint256) {\n    assert(b <= a);\n    return a - b;\n  }\n\n  \n  function add(uint256 a, uint256 b) internal pure returns (uint256) {\n    uint256 c = a + b;\n    assert(c >= a);\n    return c;\n  }\n}\n\ncontract CryptoColors {\n  using SafeMath for uint256;\n\n  \n\n  \n  event Birth(uint256 tokenId, string name, address owner);\n\n  \n  event TokenSold(uint256 tokenId, uint256 oldPrice, uint256 newPrice, address prevOwner, address winner, string name);\n\n  \n  event Payout(address referrer, uint256 balance);\n\n  \n  event ReferrerRegistered(address referrer, address referral);\n\n  \n  \n  event Transfer(address from, address to, uint256 tokenId);\n\n  event Approval(address indexed owner, address indexed approved, uint256 tokenId);\n\n  \n\n  \n  string public constant NAME = \"CryptoColors\"; \n  string public constant SYMBOL = \"CLRS\"; \n\n  uint256 private startingPrice = 0.001 ether;\n  uint256 private firstStepLimit =  0.02 ether;\n  uint256 private secondStepLimit = 0.5 ether;\n  uint256 private thirdStepLimit = 2 ether;\n  uint256 private forthStepLimit = 5 ether;\n\n  \n\n  \n  \n  mapping (uint256 => address) public tokenIndexToOwner;\n\n  \n  \n  mapping (address => uint256) private ownershipTokenCount;\n\n  \n  \n  \n  mapping (uint256 => address) public tokenIndexToApproved;\n\n  \n  mapping (uint256 => uint256) private tokenIndexToPrice;\n\n  \n  mapping (address => uint256) private referrerBalance;\n\n  \n  mapping (address => address) private referralToRefferer;\n\n  \n  address public ceoAddress;\n  address public cooAddress;\n\n  \n  struct Token {\n    string name;\n  }\n\n  Token[] private tokens;\n\n  \n  \n  modifier onlyCEO() {\n    require(msg.sender == ceoAddress);\n    _;\n  }\n\n  \n  modifier onlyCOO() {\n    require(msg.sender == cooAddress);\n    _;\n  }\n\n  \n  modifier onlyCLevel() {\n    require(\n      msg.sender == ceoAddress ||\n      msg.sender == cooAddress\n    );\n    _;\n  }\n\n  \n  function CryptoColors() public {\n    ceoAddress = msg.sender;\n    cooAddress = msg.sender;\n  }\n\n  \n  \n  \n  \n  \n  \n  function approve(\n    address _to,\n    uint256 _tokenId\n  )\n  public\n  {\n    \n    require(_owns(msg.sender, _tokenId));\n\n    tokenIndexToApproved[_tokenId] = _to;\n\n    Approval(msg.sender, _to, _tokenId);\n  }\n\n  \n  \n  \n  function balanceOf(address _owner) public view returns (uint256 balance) {\n    return ownershipTokenCount[_owner];\n  }\n\n  \n  function _calculateNextPrice(uint256 _sellingPrice) private view returns (uint256 price) {\n    if (_sellingPrice < firstStepLimit) {\n      \n      return _sellingPrice.mul(200).div(100);\n    } else if (_sellingPrice < secondStepLimit) {\n      \n     return _sellingPrice.mul(135).div(100);\n    } else if (_sellingPrice < thirdStepLimit) {\n      \n      return _sellingPrice.mul(125).div(100);\n    } else if (_sellingPrice < forthStepLimit) {\n      \n      return _sellingPrice.mul(120).div(100);\n    } else {\n      \n      return _sellingPrice.mul(115).div(100);\n    }\n  }\n\n  \n  function createContractToken(string _name) public onlyCLevel {\n    _createToken(_name, address(this), startingPrice);\n  }\n\n  \n  \n  function getToken(uint256 _tokenId) public view returns (\n    string tokenName,\n    uint256 sellingPrice,\n    address owner\n  ) {\n    Token storage token = tokens[_tokenId];\n    tokenName = token.name;\n    sellingPrice = tokenIndexToPrice[_tokenId];\n    owner = tokenIndexToOwner[_tokenId];\n  }\n\n  \n  function getReferrer(address _address) public view returns (address referrerAddress) {\n    return referralToRefferer[_address];\n  }\n\n  \n  function getReferrerBalance(address _address) public view returns (uint256 totalAmount) {\n    return referrerBalance[_address];\n  }\n  \n\n  function implementsERC721() public pure returns (bool) {\n    return true;\n  }\n\n  \n  function name() public pure returns (string) {\n    return NAME;\n  }\n\n  \n  \n  \n  function ownerOf(uint256 _tokenId)\n    public\n    view\n    returns (address owner)\n  {\n    owner = tokenIndexToOwner[_tokenId];\n    require(owner != address(0));\n  }\n\n  function payout(address _to) public onlyCLevel {\n    _payout(_to);\n  }\n\n  function payoutToReferrer() public payable {\n    address referrer = msg.sender;\n    uint256 totalAmount = referrerBalance[referrer];\n    if (totalAmount > 0) {\n      msg.sender.transfer(totalAmount);\n      referrerBalance[referrer] = 0;\n      Payout(referrer, totalAmount);\n    }\n  }\n\n  function priceOf(uint256 _tokenId) public view returns (uint256 price) {\n    return tokenIndexToPrice[_tokenId];\n  }\n\n    \n  function purchase(uint256 _tokenId, address _referrer) public payable {\n    address newOwner = msg.sender;\n    address oldOwner = tokenIndexToOwner[_tokenId];\n    uint256 sellingPrice = tokenIndexToPrice[_tokenId];\n\n    \n    require(oldOwner != newOwner);\n    \n    require(_addressNotNull(newOwner));\n    \n    require(msg.value >= sellingPrice);\n\n    uint256 payment = sellingPrice.mul(95).div(100);\n    uint256 purchaseExcess = msg.value.sub(sellingPrice);\n    \n    uint256 referrerPayout = sellingPrice.sub(payment).mul(15).div(100);   \n    address storedReferrer = getReferrer(newOwner);\n\n    \n    if (_addressNotNull(storedReferrer)) {\n      \n      referrerBalance[storedReferrer] += referrerPayout;\n    } else if (_addressNotNull(_referrer)) {\n      \n      referralToRefferer[newOwner] = _referrer;\n      \n      ReferrerRegistered(_referrer, newOwner);\n      referrerBalance[_referrer] += referrerPayout;      \n    } \n\n    \n    tokenIndexToPrice[_tokenId] = _calculateNextPrice(sellingPrice);\n\n    _transfer(oldOwner, newOwner, _tokenId);\n\n    \n    if (oldOwner != address(this)) {\n      oldOwner.transfer(payment);\n    }\n\n    TokenSold(_tokenId, sellingPrice, tokenIndexToPrice[_tokenId], oldOwner, newOwner, tokens[_tokenId].name);\n\n    \n    if (purchaseExcess > 0) {\n      msg.sender.transfer(purchaseExcess);\n    }\n  }\n\n  \n  \n  function setCEO(address _newCEO) public onlyCEO {\n    require(_newCEO != address(0));\n\n    ceoAddress = _newCEO;\n  }\n\n  \n  \n  function setCOO(address _newCOO) public onlyCEO {\n    require(_newCOO != address(0));\n\n    cooAddress = _newCOO;\n  }\n\n  \n  function symbol() public pure returns (string) {\n    return SYMBOL;\n  }\n\n  \n  \n  \n  function takeOwnership(uint256 _tokenId) public {\n    address newOwner = msg.sender;\n    address oldOwner = tokenIndexToOwner[_tokenId];\n\n    \n    require(_addressNotNull(newOwner));\n\n    \n    require(_approved(newOwner, _tokenId));\n\n    _transfer(oldOwner, newOwner, _tokenId);\n  }\n\n  \n  \n  \n  \n  \n  function tokensOfOwner(address _owner) public view returns(uint256[] ownerTokens) {\n    uint256 tokenCount = balanceOf(_owner);\n    if (tokenCount == 0) {\n        \n      return new uint256[](0);\n    } else {\n      uint256[] memory result = new uint256[](tokenCount);\n      uint256 totalTokens = totalSupply();\n      uint256 resultIndex = 0;\n\n      uint256 tokenId;\n      for (tokenId = 0; tokenId <= totalTokens; tokenId++) {\n        if (tokenIndexToOwner[tokenId] == _owner) {\n          result[resultIndex] = tokenId;\n          resultIndex++;\n        }\n      }\n      return result;\n    }\n  }\n\n  \n  \n  function totalSupply() public view returns (uint256 total) {\n    return tokens.length;\n  }\n\n  \n  \n  \n  \n  function transfer(\n    address _to,\n    uint256 _tokenId\n  )\n  public\n  {\n    require(_owns(msg.sender, _tokenId));\n    require(_addressNotNull(_to));\n\n    _transfer(msg.sender, _to, _tokenId);\n  }\n\n  \n  \n  \n  \n  \n  function transferFrom(\n    address _from,\n    address _to,\n    uint256 _tokenId\n  )\n  public\n  {\n    require(_owns(_from, _tokenId));\n    require(_approved(_to, _tokenId));\n    require(_addressNotNull(_to));\n\n    _transfer(_from, _to, _tokenId);\n  }\n\n  \n  \n  function _addressNotNull(address _to) private pure returns (bool) {\n    return _to != address(0);\n  }\n\n  \n  function _approved(address _to, uint256 _tokenId) private view returns (bool) {\n    return tokenIndexToApproved[_tokenId] == _to;\n  }\n\n  \n  function _createToken(string _name, address _owner, uint256 _price) private {\n    Token memory _token = Token({\n      name: _name\n    });\n    uint256 newTokenId = tokens.push(_token) - 1;\n\n    \n    \n    require(newTokenId == uint256(uint32(newTokenId)));\n\n    Birth(newTokenId, _name, _owner);\n\n    tokenIndexToPrice[newTokenId] = _price;\n\n    \n    \n    _transfer(address(0), _owner, newTokenId);\n  }\n\n  \n  function _owns(address claimant, uint256 _tokenId) private view returns (bool) {\n    return claimant == tokenIndexToOwner[_tokenId];\n  }\n\n  \n  function _payout(address _to) private {\n    if (_to == address(0)) {\n      ceoAddress.transfer(this.balance);\n    } else {\n      _to.transfer(this.balance);\n    }\n  }\n\n  \n  function _transfer(address _from, address _to, uint256 _tokenId) private {\n    \n    ownershipTokenCount[_to]++;\n    \n    tokenIndexToOwner[_tokenId] = _to;\n\n    \n    if (_from != address(0)) {\n      ownershipTokenCount[_from]--;\n      \n      delete tokenIndexToApproved[_tokenId];\n    }\n\n    \n    Transfer(_from, _to, _tokenId);\n  }\n}",
  "sourcePath": "/home/XXX-1/smartrim-experiment/for-rlf/0x94cac9b8a8e597e5a934b91c0e5a06fe863bde13/contracts/0x94cac9b8a8e597e5a934b91c0e5a06fe863bde13.sol",
  "compiler": {
    "name": "solc",
    "version": "0.4.25+commit.59dbf8f1.Emscripten.clang"
  },
  "schemaVersion": "3.4.16",
  "updatedAt": "2025-08-14T04:01:03.451Z",
  "networkType": "ethereum",
  "devdoc": {
    "methods": {}
  },
  "userdoc": {
    "methods": {}
  }
}