{
  "contractName": "Disperse",
  "abi": [
    {
      "constant": false,
      "inputs": [
        {
          "name": "recipients",
          "type": "address[]"
        },
        {
          "name": "values",
          "type": "uint256[]"
        }
      ],
      "name": "disperseEther",
      "outputs": [],
      "payable": true,
      "stateMutability": "payable",
      "type": "function"
    },
    {
      "constant": false,
      "inputs": [
        {
          "name": "token",
          "type": "address"
        },
        {
          "name": "recipients",
          "type": "address[]"
        },
        {
          "name": "values",
          "type": "uint256[]"
        }
      ],
      "name": "disperseToken",
      "outputs": [],
      "payable": false,
      "stateMutability": "nonpayable",
      "type": "function"
    },
    {
      "constant": false,
      "inputs": [
        {
          "name": "token",
          "type": "address"
        },
        {
          "name": "recipients",
          "type": "address[]"
        },
        {
          "name": "values",
          "type": "uint256[]"
        }
      ],
      "name": "disperseTokenSimple",
      "outputs": [],
      "payable": false,
      "stateMutability": "nonpayable",
      "type": "function"
    }
  ],
  "bytecode": "0x608060405234801561001057600080fd5b506106f4806100206000396000f300608060405260043610610057576000357c0100000000000000000000000000000000000000000000000000000000900463ffffffff16806351ba162c1461005c578063c73a2d60146100cf578063e63d38ed14610142575b600080fd5b34801561006857600080fd5b506100cd600480360381019080803573ffffffffffffffffffffffffffffffffffffffff169060200190929190803590602001908201803590602001919091929391929390803590602001908201803590602001919091929391929390505050610188565b005b3480156100db57600080fd5b50610140600480360381019080803573ffffffffffffffffffffffffffffffffffffffff169060200190929190803590602001908201803590602001919091929391929390803590602001908201803590602001919091929391929390505050610309565b005b6101866004803603810190808035906020019082018035906020019190919293919293908035906020019082018035906020019190919293919293905050506105b0565b005b60008090505b84849050811015610301578573ffffffffffffffffffffffffffffffffffffffff166323b872dd3387878581811015156101c457fe5b9050602002013573ffffffffffffffffffffffffffffffffffffffff1686868681811015156101ef57fe5b905060200201356040518463ffffffff167c0100000000000000000000000000000000000000000000000000000000028152600401808473ffffffffffffffffffffffffffffffffffffffff1673ffffffffffffffffffffffffffffffffffffffff1681526020018373ffffffffffffffffffffffffffffffffffffffff1673ffffffffffffffffffffffffffffffffffffffff1681526020018281526020019350505050602060405180830381600087803b1580156102ae57600080fd5b505af11580156102c2573d6000803e3d6000fd5b505050506040513d60208110156102d857600080fd5b810190808051906020019092919050505015156102f457600080fd5b808060010191505061018e565b505050505050565b60008060009150600090505b8585905081101561034657838382818110151561032e57fe5b90506020020135820191508080600101915050610315565b8673ffffffffffffffffffffffffffffffffffffffff166323b872dd3330856040518463ffffffff167c0100000000000000000000000000000000000000000000000000000000028152600401808473ffffffffffffffffffffffffffffffffffffffff1673ffffffffffffffffffffffffffffffffffffffff1681526020018373ffffffffffffffffffffffffffffffffffffffff1673ffffffffffffffffffffffffffffffffffffffff1681526020018281526020019350505050602060405180830381600087803b15801561041d57600080fd5b505af1158015610431573d6000803e3d6000fd5b505050506040513d602081101561044757600080fd5b8101908080519060200190929190505050151561046357600080fd5b600090505b858590508110156105a7578673ffffffffffffffffffffffffffffffffffffffff1663a9059cbb878784818110151561049d57fe5b9050602002013573ffffffffffffffffffffffffffffffffffffffff1686868581811015156104c857fe5b905060200201356040518363ffffffff167c0100000000000000000000000000000000000000000000000000000000028152600401808373ffffffffffffffffffffffffffffffffffffffff1673ffffffffffffffffffffffffffffffffffffffff16815260200182815260200192505050602060405180830381600087803b15801561055457600080fd5b505af1158015610568573d6000803e3d6000fd5b505050506040513d602081101561057e57600080fd5b8101908080519060200190929190505050151561059a57600080fd5b8080600101915050610468565b50505050505050565b600080600091505b858590508210156106555785858381811015156105d157fe5b9050602002013573ffffffffffffffffffffffffffffffffffffffff1673ffffffffffffffffffffffffffffffffffffffff166108fc858585818110151561061557fe5b905060200201359081150290604051600060405180830381858888f19350505050158015610647573d6000803e3d6000fd5b5081806001019250506105b8565b3073ffffffffffffffffffffffffffffffffffffffff1631905060008111156106c0573373ffffffffffffffffffffffffffffffffffffffff166108fc829081150290604051600060405180830381858888f193505050501580156106be573d6000803e3d6000fd5b505b5050505050505600a165627a7a723058202b21060a7ca62407b2fd7d47487aa79d0884c205228a7b4b46f4ac87bf44ac670029",
  "source": "\n\n\ninterface IERC20 {\n    function transfer(address to, uint256 value) external returns (bool);\n    function transferFrom(address from, address to, uint256 value) external returns (bool);\n}\n\n\ncontract Disperse {\n    function disperseEther(address[] recipients, uint256[] values) external payable {\n        for (uint256 i = 0; i < recipients.length; i++)\n            recipients[i].transfer(values[i]); \n        uint256 balance = address(this).balance;\n        if (balance > 0)\n            msg.sender.transfer(balance); \n    }\n\n    function disperseToken(IERC20 token, address[] recipients, uint256[] values) external {\n        uint256 total = 0;\n        for (uint256 i = 0; i < recipients.length; i++)\n            total += values[i];\n        require(token.transferFrom(msg.sender, address(this), total));\n        for (i = 0; i < recipients.length; i++)\n            require(token.transfer(recipients[i], values[i]));\n    }\n\n    function disperseTokenSimple(IERC20 token, address[] recipients, uint256[] values) external {\n        for (uint256 i = 0; i < recipients.length; i++)\n            require(token.transferFrom(msg.sender, recipients[i], values[i]));\n    }\n}\n",
  "sourcePath": "/home/XXX-1/smartrim-experiment/for-rlf/0xd152f549545093347a162dce210e7293f1452150/contracts/0xd152f549545093347a162dce210e7293f1452150.sol",
  "compiler": {
    "name": "solc",
    "version": "0.4.25+commit.59dbf8f1.Emscripten.clang"
  },
  "schemaVersion": "3.4.16",
  "updatedAt": "2025-08-14T03:34:29.592Z",
  "networkType": "ethereum",
  "devdoc": {
    "methods": {}
  },
  "userdoc": {
    "methods": {}
  }
}