{
  "contractName": "App",
  "abi": [
    {
      "constant": false,
      "inputs": [],
      "name": "renounceOwnership",
      "outputs": [],
      "payable": false,
      "stateMutability": "nonpayable",
      "type": "function"
    },
    {
      "constant": true,
      "inputs": [],
      "name": "owner",
      "outputs": [
        {
          "name": "",
          "type": "address"
        }
      ],
      "payable": false,
      "stateMutability": "view",
      "type": "function"
    },
    {
      "constant": false,
      "inputs": [
        {
          "name": "_newOwner",
          "type": "address"
        }
      ],
      "name": "transferOwnership",
      "outputs": [],
      "payable": false,
      "stateMutability": "nonpayable",
      "type": "function"
    },
    {
      "inputs": [],
      "payable": false,
      "stateMutability": "nonpayable",
      "type": "constructor"
    },
    {
      "anonymous": false,
      "inputs": [
        {
          "indexed": false,
          "name": "proxy",
          "type": "address"
        }
      ],
      "name": "ProxyCreated",
      "type": "event"
    },
    {
      "anonymous": false,
      "inputs": [
        {
          "indexed": false,
          "name": "providerName",
          "type": "string"
        },
        {
          "indexed": false,
          "name": "package",
          "type": "address"
        },
        {
          "indexed": false,
          "name": "version",
          "type": "uint64[3]"
        }
      ],
      "name": "PackageChanged",
      "type": "event"
    },
    {
      "anonymous": false,
      "inputs": [
        {
          "indexed": true,
          "name": "previousOwner",
          "type": "address"
        }
      ],
      "name": "OwnershipRenounced",
      "type": "event"
    },
    {
      "anonymous": false,
      "inputs": [
        {
          "indexed": true,
          "name": "previousOwner",
          "type": "address"
        },
        {
          "indexed": true,
          "name": "newOwner",
          "type": "address"
        }
      ],
      "name": "OwnershipTransferred",
      "type": "event"
    },
    {
      "constant": true,
      "inputs": [
        {
          "name": "packageName",
          "type": "string"
        }
      ],
      "name": "getProvider",
      "outputs": [
        {
          "name": "provider",
          "type": "address"
        }
      ],
      "payable": false,
      "stateMutability": "view",
      "type": "function"
    },
    {
      "constant": true,
      "inputs": [
        {
          "name": "packageName",
          "type": "string"
        }
      ],
      "name": "getPackage",
      "outputs": [
        {
          "name": "",
          "type": "address"
        },
        {
          "name": "",
          "type": "uint64[3]"
        }
      ],
      "payable": false,
      "stateMutability": "view",
      "type": "function"
    },
    {
      "constant": false,
      "inputs": [
        {
          "name": "packageName",
          "type": "string"
        },
        {
          "name": "package",
          "type": "address"
        },
        {
          "name": "version",
          "type": "uint64[3]"
        }
      ],
      "name": "setPackage",
      "outputs": [],
      "payable": false,
      "stateMutability": "nonpayable",
      "type": "function"
    },
    {
      "constant": false,
      "inputs": [
        {
          "name": "packageName",
          "type": "string"
        }
      ],
      "name": "unsetPackage",
      "outputs": [],
      "payable": false,
      "stateMutability": "nonpayable",
      "type": "function"
    },
    {
      "constant": true,
      "inputs": [
        {
          "name": "packageName",
          "type": "string"
        },
        {
          "name": "contractName",
          "type": "string"
        }
      ],
      "name": "getImplementation",
      "outputs": [
        {
          "name": "",
          "type": "address"
        }
      ],
      "payable": false,
      "stateMutability": "view",
      "type": "function"
    },
    {
      "constant": false,
      "inputs": [
        {
          "name": "packageName",
          "type": "string"
        },
        {
          "name": "contractName",
          "type": "string"
        },
        {
          "name": "admin",
          "type": "address"
        },
        {
          "name": "data",
          "type": "bytes"
        }
      ],
      "name": "create",
      "outputs": [
        {
          "name": "",
          "type": "address"
        }
      ],
      "payable": true,
      "stateMutability": "payable",
      "type": "function"
    }
  ],
  "bytecode": "0x608060405234801561001057600080fd5b50336000806101000a81548173ffffffffffffffffffffffffffffffffffffffff021916908373ffffffffffffffffffffffffffffffffffffffff160217905550612373806100606000396000f300608060405260043610620000a3576000357c0100000000000000000000000000000000000000000000000000000000900463ffffffff16806327a0d66914620000a857806350cadc85146200019a578063715018a6146200024657806371eb64cc146200026057806387c60483146200031b5780638da5cb5b14620003f8578063ad358d991462000452578063cd3e318a14620004be578063f2fde38b1462000608575b600080fd5b348015620000b557600080fd5b5062000158600480360381019080803590602001908201803590602001908080601f0160208091040260200160405190810160405280939291908181526020018383808284378201915050505050509192919290803590602001908201803590602001908080601f01602080910402602001604051908101604052809392919081815260200183838082843782019150505050505091929192905050506200064e565b604051808273ffffffffffffffffffffffffffffffffffffffff1673ffffffffffffffffffffffffffffffffffffffff16815260200191505060405180910390f35b348015620001a757600080fd5b5062000204600480360381019080803590602001908201803590602001908080601f0160208091040260200160405190810160405280939291908181526020018383808284378201915050505050509192919290505050620007bd565b604051808273ffffffffffffffffffffffffffffffffffffffff1673ffffffffffffffffffffffffffffffffffffffff16815260200191505060405180910390f35b3480156200025357600080fd5b506200025e620009c6565b005b3480156200026d57600080fd5b5062000319600480360381019080803590602001908201803590602001908080601f0160208091040260200160405190810160405280939291908181526020018383808284378201915050505050509192919290803573ffffffffffffffffffffffffffffffffffffffff169060200190929190806060019060038060200260405190810160405280929190826003602002808284378201915050505050919291929050505062000ac9565b005b3480156200032857600080fd5b5062000385600480360381019080803590602001908201803590602001908080601f016020809104026020016040519081016040528093929190818152602001838380828437820191505050505050919291929050505062000e9d565b604051808373ffffffffffffffffffffffffffffffffffffffff1673ffffffffffffffffffffffffffffffffffffffff16815260200182600360200280838360005b83811015620003e4578082015181840152602081019050620003c7565b505050509050019250505060405180910390f35b3480156200040557600080fd5b506200041062000fc2565b604051808273ffffffffffffffffffffffffffffffffffffffff1673ffffffffffffffffffffffffffffffffffffffff16815260200191505060405180910390f35b3480156200045f57600080fd5b50620004bc600480360381019080803590602001908201803590602001908080601f016020809104026020016040519081016040528093929190818152602001838380828437820191505050505050919291929050505062000fe7565b005b620005c6600480360381019080803590602001908201803590602001908080601f0160208091040260200160405190810160405280939291908181526020018383808284378201915050505050509192919290803590602001908201803590602001908080601f0160208091040260200160405190810160405280939291908181526020018383808284378201915050505050509192919290803573ffffffffffffffffffffffffffffffffffffffff169060200190929190803590602001908201803590602001908080601f016020809104026020016040519081016040528093929190818152602001838380828437820191505050505050919291929050505062001385565b604051808273ffffffffffffffffffffffffffffffffffffffff1673ffffffffffffffffffffffffffffffffffffffff16815260200191505060405180910390f35b3480156200061557600080fd5b506200064c600480360381019080803573ffffffffffffffffffffffffffffffffffffffff1690602001909291905050506200150e565b005b6000806200065c84620007bd565b9050600073ffffffffffffffffffffffffffffffffffffffff168173ffffffffffffffffffffffffffffffffffffffff1614156200069e5760009150620007b6565b8073ffffffffffffffffffffffffffffffffffffffff16636b683896846040518263ffffffff167c01000000000000000000000000000000000000000000000000000000000281526004018080602001828103825283818151815260200191508051906020019080838360005b83811015620007285780820151818401526020810190506200070b565b50505050905090810190601f168015620007565780820380516001836020036101000a031916815260200191505b5092505050602060405180830381600087803b1580156200077657600080fd5b505af11580156200078b573d6000803e3d6000fd5b505050506040513d6020811015620007a257600080fd5b810190808051906020019092919050505091505b5092915050565b6000806001836040518082805190602001908083835b602083101515620007fa5780518252602082019150602081019050602083039250620007d3565b6001836020036101000a03801982511681845116808217855250505050505090500191505090815260200160405180910390209050600073ffffffffffffffffffffffffffffffffffffffff168160000160009054906101000a900473ffffffffffffffffffffffffffffffffffffffff1673ffffffffffffffffffffffffffffffffffffffff161415620008935760009150620009c0565b8060000160009054906101000a900473ffffffffffffffffffffffffffffffffffffffff1673ffffffffffffffffffffffffffffffffffffffff16631df40eaa826001016040518263ffffffff167c010000000000000000000000000000000000000000000000000000000002815260040180826003801562000960576020028201916000905b82829054906101000a900467ffffffffffffffff1667ffffffffffffffff16815260200190600801906020826007010492830192600103820291508084116200091a5790505b5050915050602060405180830381600087803b1580156200098057600080fd5b505af115801562000995573d6000803e3d6000fd5b505050506040513d6020811015620009ac57600080fd5b810190808051906020019092919050505091505b50919050565b6000809054906101000a900473ffffffffffffffffffffffffffffffffffffffff1673ffffffffffffffffffffffffffffffffffffffff163373ffffffffffffffffffffffffffffffffffffffff1614151562000a2257600080fd5b6000809054906101000a900473ffffffffffffffffffffffffffffffffffffffff1673ffffffffffffffffffffffffffffffffffffffff167ff8df31144d9c2f0f6b59d69b8b98abd5459d07f2742c4df920b25aae33c6482060405160405180910390a260008060006101000a81548173ffffffffffffffffffffffffffffffffffffffff021916908373ffffffffffffffffffffffffffffffffffffffff160217905550565b6000809054906101000a900473ffffffffffffffffffffffffffffffffffffffff1673ffffffffffffffffffffffffffffffffffffffff163373ffffffffffffffffffffffffffffffffffffffff1614151562000b2557600080fd5b8173ffffffffffffffffffffffffffffffffffffffff166335ce4016826040518263ffffffff167c01000000000000000000000000000000000000000000000000000000000281526004018082600360200280838360005b8381101562000b9a57808201518184015260208101905062000b7d565b50505050905001915050602060405180830381600087803b15801562000bbf57600080fd5b505af115801562000bd4573d6000803e3d6000fd5b505050506040513d602081101562000beb57600080fd5b8101908080519060200190929190505050151562000c97576040517f08c379a000000000000000000000000000000000000000000000000000000000815260040180806020018281038252603d8152602001807f546865207265717565737465642076657273696f6e206d75737420626520726581526020017f676973746572656420696e2074686520676976656e207061636b61676500000081525060400191505060405180910390fd5b60408051908101604052808373ffffffffffffffffffffffffffffffffffffffff168152602001828152506001846040518082805190602001908083835b60208310151562000cfc578051825260208201915060208101905060208303925062000cd5565b6001836020036101000a038019825116818451168082178552505050505050905001915050908152602001604051809103902060008201518160000160006101000a81548173ffffffffffffffffffffffffffffffffffffffff021916908373ffffffffffffffffffffffffffffffffffffffff16021790555060208201518160010190600362000d8f92919062001673565b509050507f4ca1964bc3cd347906bc558f77fdd636486951cf12238150178be72a4fbb6fab83838360405180806020018473ffffffffffffffffffffffffffffffffffffffff1673ffffffffffffffffffffffffffffffffffffffff16815260200183600360200280838360005b8381101562000e1a57808201518184015260208101905062000dfd565b50505050905001828103825285818151815260200191508051906020019080838360005b8381101562000e5b57808201518184015260208101905062000e3e565b50505050905090810190601f16801562000e895780820380516001836020036101000a031916815260200191505b5094505050505060405180910390a1505050565b600062000ea962001728565b60006001846040518082805190602001908083835b60208310151562000ee5578051825260208201915060208101905060208303925062000ebe565b6001836020036101000a038019825116818451168082178552505050505050905001915050908152602001604051809103902090508060000160009054906101000a900473ffffffffffffffffffffffffffffffffffffffff16816001018060038060200260405190810160405280929190826003801562000fb1576020028201916000905b82829054906101000a900467ffffffffffffffff1667ffffffffffffffff168152602001906008019060208260070104928301926001038202915080841162000f6b5790505b505050505090509250925050915091565b6000809054906101000a900473ffffffffffffffffffffffffffffffffffffffff1681565b6000809054906101000a900473ffffffffffffffffffffffffffffffffffffffff1673ffffffffffffffffffffffffffffffffffffffff163373ffffffffffffffffffffffffffffffffffffffff161415156200104357600080fd5b600073ffffffffffffffffffffffffffffffffffffffff166001826040518082805190602001908083835b6020831015156200109557805182526020820191506020810190506020830392506200106e565b6001836020036101000a038019825116818451168082178552505050505050905001915050908152602001604051809103902060000160009054906101000a900473ffffffffffffffffffffffffffffffffffffffff1673ffffffffffffffffffffffffffffffffffffffff161415151562001179576040517f08c379a000000000000000000000000000000000000000000000000000000000815260040180806020018281038252601a8152602001807f5061636b61676520746f20756e736574206e6f7420666f756e6400000000000081525060200191505060405180910390fd5b6001816040518082805190602001908083835b602083101515620011b357805182526020820191506020810190506020830392506200118c565b6001836020036101000a0380198251168184511680821785525050505050509050019150509081526020016040518091039020600080820160006101000a81549073ffffffffffffffffffffffffffffffffffffffff02191690556001820160006200122091906200174b565b50507f4ca1964bc3cd347906bc558f77fdd636486951cf12238150178be72a4fbb6fab816000606060405190810160405280600067ffffffffffffffff1667ffffffffffffffff168152602001600067ffffffffffffffff1667ffffffffffffffff168152602001600067ffffffffffffffff1667ffffffffffffffff1681525060405180806020018473ffffffffffffffffffffffffffffffffffffffff1673ffffffffffffffffffffffffffffffffffffffff16815260200183600360200280838360005b8381101562001304578082015181840152602081019050620012e7565b50505050905001828103825285818151815260200191508051906020019080838360005b838110156200134557808201518184015260208101905062001328565b50505050905090810190601f168015620013735780820380516001836020036101000a031916815260200191505b5094505050505060405180910390a150565b60008060006200139687876200064e565b915034828686620013a662001752565b808473ffffffffffffffffffffffffffffffffffffffff1673ffffffffffffffffffffffffffffffffffffffff1681526020018373ffffffffffffffffffffffffffffffffffffffff1673ffffffffffffffffffffffffffffffffffffffff16815260200180602001828103825283818151815260200191508051906020019080838360005b83811015620014495780820151818401526020810190506200142c565b50505050905090810190601f168015620014775780820380516001836020036101000a031916815260200191505b509450505050506040518091039082f0801580156200149a573d6000803e3d6000fd5b50905090507efffc2da0b561cae30d9826d37709e9421c4725faebc226cbbb7ef5fc5e734981604051808273ffffffffffffffffffffffffffffffffffffffff1673ffffffffffffffffffffffffffffffffffffffff16815260200191505060405180910390a18092505050949350505050565b6000809054906101000a900473ffffffffffffffffffffffffffffffffffffffff1673ffffffffffffffffffffffffffffffffffffffff163373ffffffffffffffffffffffffffffffffffffffff161415156200156a57600080fd5b620015758162001578565b50565b600073ffffffffffffffffffffffffffffffffffffffff168173ffffffffffffffffffffffffffffffffffffffff1614151515620015b557600080fd5b8073ffffffffffffffffffffffffffffffffffffffff166000809054906101000a900473ffffffffffffffffffffffffffffffffffffffff1673ffffffffffffffffffffffffffffffffffffffff167f8be0079c531659141344cd1fd0a4f28419497f9722a3daafe3b4186f6b6457e060405160405180910390a3806000806101000a81548173ffffffffffffffffffffffffffffffffffffffff021916908373ffffffffffffffffffffffffffffffffffffffff16021790555050565b8260038001600490048101928215620017155791602002820160005b83821115620016dd57835183826101000a81548167ffffffffffffffff021916908367ffffffffffffffff16021790555092602001926008016020816007010492830192600103026200168f565b8015620017135782816101000a81549067ffffffffffffffff0219169055600801602081600701049283019260010302620016dd565b505b50905062001724919062001763565b5090565b606060405190810160405280600390602082028038833980820191505090505090565b5060009055565b604051610baa806200179e83390190565b6200179a91905b808211156200179657600081816101000a81549067ffffffffffffffff0219169055506001016200176a565b5090565b9056006080604052604051610baa380380610baa833981018060405281019080805190602001909291908051906020019092919080518201929190505050828160405180807f6f72672e7a657070656c696e6f732e70726f78792e696d706c656d656e74617481526020017f696f6e000000000000000000000000000000000000000000000000000000000081525060230190506040518091039020600019167f7050c9e0f4ca769c69bd3a8ef740bc37934f8e2c036e5a723fd8ee048ed3f8c3600102600019161415156100cd57fe5b6100e58261020d640100000000026401000000009004565b600081511115610180578173ffffffffffffffffffffffffffffffffffffffff168160405180828051906020019080838360005b83811015610134578082015181840152602081019050610119565b50505050905090810190601f1680156101615780820380516001836020036101000a031916815260200191505b50915050600060405180830381855af4915050151561017f57600080fd5b5b505060405180807f6f72672e7a657070656c696e6f732e70726f78792e61646d696e000000000000815250601a0190506040518091039020600019167f10d6a54a4754c8869d6886b5f5d7fbfa5b4522237ea5c60d11bc4e7a1ff9390b600102600019161415156101ed57fe5b610205826102f2640100000000026401000000009004565b505050610334565b600061022b8261032164010000000002610828176401000000009004565b15156102c5576040517f08c379a000000000000000000000000000000000000000000000000000000000815260040180806020018281038252603b8152602001807f43616e6e6f742073657420612070726f787920696d706c656d656e746174696f81526020017f6e20746f2061206e6f6e2d636f6e74726163742061646472657373000000000081525060400191505060405180910390fd5b7f7050c9e0f4ca769c69bd3a8ef740bc37934f8e2c036e5a723fd8ee048ed3f8c360010290508181555050565b60007f10d6a54a4754c8869d6886b5f5d7fbfa5b4522237ea5c60d11bc4e7a1ff9390b60010290508181555050565b600080823b905060008111915050919050565b610867806103436000396000f30060806040526004361061006d576000357c0100000000000000000000000000000000000000000000000000000000900463ffffffff1680633659cfe6146100775780634f1ef286146100ba5780635c60da1b146101085780638f2839701461015f578063f851a440146101a2575b6100756101f9565b005b34801561008357600080fd5b506100b8600480360381019080803573ffffffffffffffffffffffffffffffffffffffff169060200190929190505050610213565b005b610106600480360381019080803573ffffffffffffffffffffffffffffffffffffffff169060200190929190803590602001908201803590602001919091929391929390505050610268565b005b34801561011457600080fd5b5061011d610305565b604051808273ffffffffffffffffffffffffffffffffffffffff1673ffffffffffffffffffffffffffffffffffffffff16815260200191505060405180910390f35b34801561016b57600080fd5b506101a0600480360381019080803573ffffffffffffffffffffffffffffffffffffffff16906020019092919050505061035d565b005b3480156101ae57600080fd5b506101b761051b565b604051808273ffffffffffffffffffffffffffffffffffffffff1673ffffffffffffffffffffffffffffffffffffffff16815260200191505060405180910390f35b610201610573565b61021161020c61064e565b61067f565b565b61021b6106a5565b73ffffffffffffffffffffffffffffffffffffffff163373ffffffffffffffffffffffffffffffffffffffff16141561025c57610257816106d6565b610265565b6102646101f9565b5b50565b6102706106a5565b73ffffffffffffffffffffffffffffffffffffffff163373ffffffffffffffffffffffffffffffffffffffff1614156102f7576102ac836106d6565b8273ffffffffffffffffffffffffffffffffffffffff16828260405180838380828437820191505092505050600060405180830381855af491505015156102f257600080fd5b610300565b6102ff6101f9565b5b505050565b600061030f6106a5565b73ffffffffffffffffffffffffffffffffffffffff163373ffffffffffffffffffffffffffffffffffffffff1614156103515761034a61064e565b905061035a565b6103596101f9565b5b90565b6103656106a5565b73ffffffffffffffffffffffffffffffffffffffff163373ffffffffffffffffffffffffffffffffffffffff16141561050f57600073ffffffffffffffffffffffffffffffffffffffff168173ffffffffffffffffffffffffffffffffffffffff1614151515610463576040517f08c379a00000000000000000000000000000000000000000000000000000000081526004018080602001828103825260368152602001807f43616e6e6f74206368616e6765207468652061646d696e206f6620612070726f81526020017f787920746f20746865207a65726f20616464726573730000000000000000000081525060400191505060405180910390fd5b7f7e644d79422f17c01e4894b5f4f588d331ebfa28653d42ae832dc59e38c9798f61048c6106a5565b82604051808373ffffffffffffffffffffffffffffffffffffffff1673ffffffffffffffffffffffffffffffffffffffff1681526020018273ffffffffffffffffffffffffffffffffffffffff1673ffffffffffffffffffffffffffffffffffffffff1681526020019250505060405180910390a161050a81610725565b610518565b6105176101f9565b5b50565b60006105256106a5565b73ffffffffffffffffffffffffffffffffffffffff163373ffffffffffffffffffffffffffffffffffffffff161415610567576105606106a5565b9050610570565b61056f6101f9565b5b90565b61057b6106a5565b73ffffffffffffffffffffffffffffffffffffffff163373ffffffffffffffffffffffffffffffffffffffff1614151515610644576040517f08c379a00000000000000000000000000000000000000000000000000000000081526004018080602001828103825260328152602001807f43616e6e6f742063616c6c2066616c6c6261636b2066756e6374696f6e20667281526020017f6f6d207468652070726f78792061646d696e000000000000000000000000000081525060400191505060405180910390fd5b61064c610754565b565b6000807f7050c9e0f4ca769c69bd3a8ef740bc37934f8e2c036e5a723fd8ee048ed3f8c36001029050805491505090565b3660008037600080366000845af43d6000803e80600081146106a0573d6000f35b3d6000fd5b6000807f10d6a54a4754c8869d6886b5f5d7fbfa5b4522237ea5c60d11bc4e7a1ff9390b6001029050805491505090565b6106df81610756565b8073ffffffffffffffffffffffffffffffffffffffff167fbc7cd75a20ee27fd9adebab32041f755214dbc6bffa90cc0225b39da2e5c2d3b60405160405180910390a250565b60007f10d6a54a4754c8869d6886b5f5d7fbfa5b4522237ea5c60d11bc4e7a1ff9390b60010290508181555050565b565b600061076182610828565b15156107fb576040517f08c379a000000000000000000000000000000000000000000000000000000000815260040180806020018281038252603b8152602001807f43616e6e6f742073657420612070726f787920696d706c656d656e746174696f81526020017f6e20746f2061206e6f6e2d636f6e74726163742061646472657373000000000081525060400191505060405180910390fd5b7f7050c9e0f4ca769c69bd3a8ef740bc37934f8e2c036e5a723fd8ee048ed3f8c360010290508181555050565b600080823b9050600081119150509190505600a165627a7a72305820dfe53c8bc9c0d8bf7ba69eff675743d45520c5364520a0d4bd1440544a640c750029a165627a7a723058208f5236c65532110af9ef3d98eea69ec80595252194fd72001b1d6d374075be100029",
  "source": "\n\n\n\n\ninterface ImplementationProvider {\n  \n  function getImplementation(string contractName) public view returns (address);\n}\n\n\n\n\n\n\n\ncontract Ownable {\n  address public owner;\n\n\n  event OwnershipRenounced(address indexed previousOwner);\n  event OwnershipTransferred(\n    address indexed previousOwner,\n    address indexed newOwner\n  );\n\n\n  \n  constructor() public {\n    owner = msg.sender;\n  }\n\n  \n  modifier onlyOwner() {\n    require(msg.sender == owner);\n    _;\n  }\n\n  \n  function renounceOwnership() public onlyOwner {\n    emit OwnershipRenounced(owner);\n    owner = address(0);\n  }\n\n  \n  function transferOwnership(address _newOwner) public onlyOwner {\n    _transferOwnership(_newOwner);\n  }\n\n  \n  function _transferOwnership(address _newOwner) internal {\n    require(_newOwner != address(0));\n    emit OwnershipTransferred(owner, _newOwner);\n    owner = _newOwner;\n  }\n}\n\n\n\n\n\n\n\ncontract Package is Ownable {\n  \n  event VersionAdded(uint64[3] semanticVersion, address contractAddress, bytes contentURI);\n\n  struct Version {\n    uint64[3] semanticVersion;\n    address contractAddress;\n    bytes contentURI; \n  }\n\n  mapping (bytes32 => Version) internal versions;\n  mapping (uint64 => bytes32) internal majorToLatestVersion;\n  uint64 internal latestMajor;\n\n  \n  function getVersion(uint64[3] semanticVersion) public view returns (address contractAddress, bytes contentURI) {\n    Version storage version = versions[semanticVersionHash(semanticVersion)];\n    return (version.contractAddress, version.contentURI); \n  }\n\n  \n  function getContract(uint64[3] semanticVersion) public view returns (address contractAddress) {\n    Version storage version = versions[semanticVersionHash(semanticVersion)];\n    return version.contractAddress;\n  }\n\n  \n  function addVersion(uint64[3] semanticVersion, address contractAddress, bytes contentURI) public onlyOwner {\n    require(contractAddress != address(0), \"Contract address is required\");\n    require(!hasVersion(semanticVersion), \"Given version is already registered in package\");\n    require(!semanticVersionIsZero(semanticVersion), \"Version must be non zero\");\n\n    \n    bytes32 versionId = semanticVersionHash(semanticVersion);\n    versions[versionId] = Version(semanticVersion, contractAddress, contentURI);\n    \n    \n    uint64 major = semanticVersion[0];\n    if (major > latestMajor) {\n      latestMajor = semanticVersion[0];\n    }\n\n    \n    uint64 minor = semanticVersion[1];\n    uint64 patch = semanticVersion[2];\n    uint64[3] latestVersionForMajor = versions[majorToLatestVersion[major]].semanticVersion;\n    if (semanticVersionIsZero(latestVersionForMajor) \n       || (minor > latestVersionForMajor[1]) \n       || (minor == latestVersionForMajor[1] && patch > latestVersionForMajor[2]) \n       ) { \n      majorToLatestVersion[major] = versionId;\n    }\n\n    emit VersionAdded(semanticVersion, contractAddress, contentURI);\n  }\n\n  \n  function hasVersion(uint64[3] semanticVersion) public view returns (bool) {\n    Version storage version = versions[semanticVersionHash(semanticVersion)];\n    return address(version.contractAddress) != address(0);\n  }\n\n  \n  function getLatest() public view returns (uint64[3] semanticVersion, address contractAddress, bytes contentURI) {\n    return getLatestByMajor(latestMajor);\n  }\n\n  \n  function getLatestByMajor(uint64 major) public view returns (uint64[3] semanticVersion, address contractAddress, bytes contentURI) {\n    Version storage version = versions[majorToLatestVersion[major]];\n    return (version.semanticVersion, version.contractAddress, version.contentURI); \n  }\n\n  function semanticVersionHash(uint64[3] version) internal pure returns (bytes32) {\n    return keccak256(abi.encodePacked(version[0], version[1], version[2]));\n  }\n\n  function semanticVersionIsZero(uint64[3] version) internal pure returns (bool) {\n    return version[0] == 0 && version[1] == 0 && version[2] == 0;\n  }\n}\n\n\n\n\n\n\ncontract Proxy {\n  \n  function () payable external {\n    _fallback();\n  }\n\n  \n  function _implementation() internal view returns (address);\n\n  \n  function _delegate(address implementation) internal {\n    assembly {\n      \n      \n      \n      calldatacopy(0, 0, calldatasize)\n\n      \n      \n      let result := delegatecall(gas, implementation, 0, calldatasize, 0, 0)\n\n      \n      returndatacopy(0, 0, returndatasize)\n\n      switch result\n      \n      case 0 { revert(0, returndatasize) }\n      default { return(0, returndatasize) }\n    }\n  }\n\n  \n  function _willFallback() internal {\n  }\n\n  \n  function _fallback() internal {\n    _willFallback();\n    _delegate(_implementation());\n  }\n}\n\n\n\n\n\n\n\nlibrary AddressUtils {\n\n  \n  function isContract(address addr) internal view returns (bool) {\n    uint256 size;\n    \n    \n    \n    \n    \n    \n    \n    assembly { size := extcodesize(addr) }\n    return size > 0;\n  }\n\n}\n\n\n\n\n\n\n\n\ncontract UpgradeabilityProxy is Proxy {\n  \n  event Upgraded(address indexed implementation);\n\n  \n  bytes32 private constant IMPLEMENTATION_SLOT = 0x7050c9e0f4ca769c69bd3a8ef740bc37934f8e2c036e5a723fd8ee048ed3f8c3;\n\n  \n  constructor(address _implementation, bytes _data) public payable {\n    assert(IMPLEMENTATION_SLOT == keccak256(\"org.zeppelinos.proxy.implementation\"));\n    _setImplementation(_implementation);\n    if(_data.length > 0) {\n      require(_implementation.delegatecall(_data));\n    }\n  }\n\n  \n  function _implementation() internal view returns (address impl) {\n    bytes32 slot = IMPLEMENTATION_SLOT;\n    assembly {\n      impl := sload(slot)\n    }\n  }\n\n  \n  function _upgradeTo(address newImplementation) internal {\n    _setImplementation(newImplementation);\n    emit Upgraded(newImplementation);\n  }\n\n  \n  function _setImplementation(address newImplementation) private {\n    require(AddressUtils.isContract(newImplementation), \"Cannot set a proxy implementation to a non-contract address\");\n\n    bytes32 slot = IMPLEMENTATION_SLOT;\n\n    assembly {\n      sstore(slot, newImplementation)\n    }\n  }\n}\n\n\n\n\n\n\n\ncontract AdminUpgradeabilityProxy is UpgradeabilityProxy {\n  \n  event AdminChanged(address previousAdmin, address newAdmin);\n\n  \n  bytes32 private constant ADMIN_SLOT = 0x10d6a54a4754c8869d6886b5f5d7fbfa5b4522237ea5c60d11bc4e7a1ff9390b;\n\n  \n  modifier ifAdmin() {\n    if (msg.sender == _admin()) {\n      _;\n    } else {\n      _fallback();\n    }\n  }\n\n  \n  constructor(address _implementation, address _admin, bytes _data) UpgradeabilityProxy(_implementation, _data) public payable {\n    assert(ADMIN_SLOT == keccak256(\"org.zeppelinos.proxy.admin\"));\n\n    _setAdmin(_admin);\n  }\n\n  \n  function admin() external view ifAdmin returns (address) {\n    return _admin();\n  }\n\n  \n  function implementation() external view ifAdmin returns (address) {\n    return _implementation();\n  }\n\n  \n  function changeAdmin(address newAdmin) external ifAdmin {\n    require(newAdmin != address(0), \"Cannot change the admin of a proxy to the zero address\");\n    emit AdminChanged(_admin(), newAdmin);\n    _setAdmin(newAdmin);\n  }\n\n  \n  function upgradeTo(address newImplementation) external ifAdmin {\n    _upgradeTo(newImplementation);\n  }\n\n  \n  function upgradeToAndCall(address newImplementation, bytes data) payable external ifAdmin {\n    _upgradeTo(newImplementation);\n    require(newImplementation.delegatecall(data));\n  }\n\n  \n  function _admin() internal view returns (address adm) {\n    bytes32 slot = ADMIN_SLOT;\n    assembly {\n      adm := sload(slot)\n    }\n  }\n\n  \n  function _setAdmin(address newAdmin) internal {\n    bytes32 slot = ADMIN_SLOT;\n\n    assembly {\n      sstore(slot, newAdmin)\n    }\n  }\n\n  \n  function _willFallback() internal {\n    require(msg.sender != _admin(), \"Cannot call fallback function from the proxy admin\");\n    super._willFallback();\n  }\n}\n\n\n\n\n\n\n\n\n\n\ncontract App is Ownable {\n  \n  event ProxyCreated(address proxy);\n\n  \n  event PackageChanged(string providerName, address package, uint64[3] version);\n\n  \n  struct ProviderInfo {\n    Package package;\n    uint64[3] version;\n  }\n\n  \n  mapping(string => ProviderInfo) internal providers;\n\n  \n  constructor() public { }\n\n  \n  function getProvider(string packageName) public view returns (ImplementationProvider provider) {\n    ProviderInfo storage info = providers[packageName];\n    if (address(info.package) == address(0)) return ImplementationProvider(0);\n    return ImplementationProvider(info.package.getContract(info.version));\n  }\n\n  \n  function getPackage(string packageName) public view returns (Package, uint64[3]) {\n    ProviderInfo storage info = providers[packageName];\n    return (info.package, info.version);\n  }\n\n  \n  function setPackage(string packageName, Package package, uint64[3] version) public onlyOwner {\n    require(package.hasVersion(version), \"The requested version must be registered in the given package\");\n    providers[packageName] = ProviderInfo(package, version);\n    emit PackageChanged(packageName, package, version);\n  }\n\n  \n  function unsetPackage(string packageName) public onlyOwner {\n    require(address(providers[packageName].package) != address(0), \"Package to unset not found\");\n    delete providers[packageName];\n    emit PackageChanged(packageName, address(0), [uint64(0), uint64(0), uint64(0)]);\n  }\n\n  \n  function getImplementation(string packageName, string contractName) public view returns (address) {\n    ImplementationProvider provider = getProvider(packageName);\n    if (address(provider) == address(0)) return address(0);\n    return provider.getImplementation(contractName);\n  }\n\n  \n   function create(string packageName, string contractName, address admin, bytes data) payable public returns (AdminUpgradeabilityProxy) {\n     address implementation = getImplementation(packageName, contractName);\n     AdminUpgradeabilityProxy proxy = (new AdminUpgradeabilityProxy).value(msg.value)(implementation, admin, data);\n     emit ProxyCreated(proxy);\n     return proxy;\n  }\n}",
  "sourcePath": "/home/XXX-1/smartrim-experiment/for-rlf/0x9fdca91d5f35f79b14f0a25649d2694b7896dc84/contracts/0x9fdca91d5f35f79b14f0a25649d2694b7896dc84.sol",
  "compiler": {
    "name": "solc",
    "version": "0.4.25+commit.59dbf8f1.Emscripten.clang"
  },
  "schemaVersion": "3.4.16",
  "updatedAt": "2025-08-14T04:02:04.950Z",
  "networkType": "ethereum",
  "devdoc": {
    "methods": {}
  },
  "userdoc": {
    "methods": {}
  }
}