{
  "contractName": "PiggyBank",
  "abi": [
    {
      "constant": true,
      "inputs": [],
      "name": "name",
      "outputs": [
        {
          "name": "",
          "type": "string"
        }
      ],
      "payable": false,
      "stateMutability": "view",
      "type": "function"
    },
    {
      "constant": true,
      "inputs": [],
      "name": "decimals",
      "outputs": [
        {
          "name": "",
          "type": "uint8"
        }
      ],
      "payable": false,
      "stateMutability": "view",
      "type": "function"
    },
    {
      "constant": true,
      "inputs": [],
      "name": "balanceOf",
      "outputs": [
        {
          "name": "",
          "type": "uint256"
        }
      ],
      "payable": false,
      "stateMutability": "view",
      "type": "function"
    },
    {
      "constant": false,
      "inputs": [],
      "name": "debugDestruct",
      "outputs": [],
      "payable": false,
      "stateMutability": "nonpayable",
      "type": "function"
    },
    {
      "constant": true,
      "inputs": [],
      "name": "symbol",
      "outputs": [
        {
          "name": "",
          "type": "string"
        }
      ],
      "payable": false,
      "stateMutability": "view",
      "type": "function"
    },
    {
      "inputs": [],
      "payable": false,
      "stateMutability": "nonpayable",
      "type": "constructor"
    },
    {
      "payable": true,
      "stateMutability": "payable",
      "type": "fallback"
    },
    {
      "anonymous": false,
      "inputs": [
        {
          "indexed": true,
          "name": "from",
          "type": "address"
        },
        {
          "indexed": true,
          "name": "to",
          "type": "address"
        },
        {
          "indexed": false,
          "name": "value",
          "type": "uint256"
        }
      ],
      "name": "Transfer",
      "type": "event"
    }
  ],
  "bytecode": "0x60806040526040805190810160405280600181526020017f25000000000000000000000000000000000000000000000000000000000000008152506001908051906020019061004f9291906100fb565b5034801561005c57600080fd5b506040805190810160405280600381526020017f726c660000000000000000000000000000000000000000000000000000000000815250604e81600090805190602001906100ab9291906100fb565b508060028190555033600360006101000a81548173ffffffffffffffffffffffffffffffffffffffff021916908373ffffffffffffffffffffffffffffffffffffffff16021790555050506101a0565b828054600181600116156101000203166002900490600052602060002090601f016020900481019282601f1061013c57805160ff191683800117855561016a565b8280016001018555821561016a579182015b8281111561016957825182559160200191906001019061014e565b5b509050610177919061017b565b5090565b61019d91905b80821115610199576000816000905550600101610181565b5090565b90565b610425806101af6000396000f30060806040526004361061006d576000357c0100000000000000000000000000000000000000000000000000000000900463ffffffff16806306fdde03146100bb578063313ce5671461014b578063722713f71461017c5780637f9ecd5f146101a757806395d89b41146101be575b606461007761024e565b1015156100b957600360009054906101000a900473ffffffffffffffffffffffffffffffffffffffff1673ffffffffffffffffffffffffffffffffffffffff16ff5b005b3480156100c757600080fd5b506100d061027d565b6040518080602001828103825283818151815260200191508051906020019080838360005b838110156101105780820151818401526020810190506100f5565b50505050905090810190601f16801561013d5780820380516001836020036101000a031916815260200191505b509250505060405180910390f35b34801561015757600080fd5b5061016061031b565b604051808260ff1660ff16815260200191505060405180910390f35b34801561018857600080fd5b5061019161024e565b6040518082815260200191505060405180910390f35b3480156101b357600080fd5b506101bc610320565b005b3480156101ca57600080fd5b506101d361035b565b6040518080602001828103825283818151815260200191508051906020019080838360005b838110156102135780820151818401526020810190506101f8565b50505050905090810190601f1680156102405780820380516001836020036101000a031916815260200191505b509250505060405180910390f35b60006002543073ffffffffffffffffffffffffffffffffffffffff163160640281151561027757fe5b04905090565b60008054600181600116156101000203166002900480601f0160208091040260200160405190810160405280929190818152602001828054600181600116156101000203166002900480156103135780601f106102e857610100808354040283529160200191610313565b820191906000526020600020905b8154815290600101906020018083116102f657829003601f168201915b505050505081565b601281565b600360009054906101000a900473ffffffffffffffffffffffffffffffffffffffff1673ffffffffffffffffffffffffffffffffffffffff16ff5b60018054600181600116156101000203166002900480601f0160208091040260200160405190810160405280929190818152602001828054600181600116156101000203166002900480156103f15780601f106103c6576101008083540402835291602001916103f1565b820191906000526020600020905b8154815290600101906020018083116103d457829003601f168201915b5050505050815600a165627a7a723058202670622e694a32a6ca4eb9a970d93424305c54fdf42656a547ee3af9837520040029",
  "source": "\n\ncontract PiggyBank_1  {\n  string public name;\n  string public symbol = '%';\n  uint8 constant public decimals = 18;\n  uint256 constant internal denominator = 10 ** uint256(decimals);\n  uint256 internal targetAmount;\n\n  address internal targetAddress;\n\n  constructor(\n    string goalName,\n    uint256 goalAmount\n  ) public\n  {\n    name = goalName;\n    targetAmount = goalAmount;\n    targetAddress = msg.sender;\n  }\n\n  function balanceOf() view public returns(uint256)\n  {\n    return 100 * address(this).balance / targetAmount;\n  }\n\n  event Transfer(address indexed from, address indexed to, uint256 value);\n\n  function () public payable {\n    if (balanceOf() >= 100) {\n      selfdestruct(targetAddress);\n    }\n  }\n\n  function debugDestruct() public {\n    selfdestruct(targetAddress);\n  }\n\n\n}\n    \ncontract PiggyBank is PiggyBank_1 {\n    constructor() PiggyBank_1(\"rlf\", 78) public { }\n}\n",
  "sourcePath": "/home/XXX-1/smartrim-experiment/for-rlf/0x126ae85a1ebf49dc946224f5268c6bd8338d49ae/contracts/0x126ae85a1ebf49dc946224f5268c6bd8338d49ae.sol",
  "compiler": {
    "name": "solc",
    "version": "0.4.25+commit.59dbf8f1.Emscripten.clang"
  },
  "schemaVersion": "3.4.16",
  "updatedAt": "2025-08-14T03:39:21.938Z",
  "networkType": "ethereum",
  "devdoc": {
    "methods": {}
  },
  "userdoc": {
    "methods": {}
  }
}