{
  "contractName": "one_eight",
  "abi": [
    {
      "constant": true,
      "inputs": [
        {
          "name": "",
          "type": "address"
        }
      ],
      "name": "affiliateCommision",
      "outputs": [
        {
          "name": "",
          "type": "uint256"
        }
      ],
      "payable": false,
      "stateMutability": "view",
      "type": "function"
    },
    {
      "constant": true,
      "inputs": [
        {
          "name": "",
          "type": "address"
        }
      ],
      "name": "lastInvest",
      "outputs": [
        {
          "name": "",
          "type": "uint256"
        }
      ],
      "payable": false,
      "stateMutability": "view",
      "type": "function"
    },
    {
      "constant": true,
      "inputs": [
        {
          "name": "",
          "type": "address"
        }
      ],
      "name": "investedETH",
      "outputs": [
        {
          "name": "",
          "type": "uint256"
        }
      ],
      "payable": false,
      "stateMutability": "view",
      "type": "function"
    },
    {
      "constant": false,
      "inputs": [
        {
          "name": "referral",
          "type": "address"
        }
      ],
      "name": "investETH",
      "outputs": [],
      "payable": true,
      "stateMutability": "payable",
      "type": "function"
    },
    {
      "constant": false,
      "inputs": [],
      "name": "withdraw",
      "outputs": [],
      "payable": false,
      "stateMutability": "nonpayable",
      "type": "function"
    },
    {
      "constant": false,
      "inputs": [],
      "name": "admin",
      "outputs": [],
      "payable": false,
      "stateMutability": "nonpayable",
      "type": "function"
    },
    {
      "constant": true,
      "inputs": [],
      "name": "getProfitFromSender",
      "outputs": [
        {
          "name": "",
          "type": "uint256"
        }
      ],
      "payable": false,
      "stateMutability": "view",
      "type": "function"
    },
    {
      "constant": true,
      "inputs": [
        {
          "name": "customer",
          "type": "address"
        }
      ],
      "name": "getProfit",
      "outputs": [
        {
          "name": "",
          "type": "uint256"
        }
      ],
      "payable": false,
      "stateMutability": "view",
      "type": "function"
    },
    {
      "constant": false,
      "inputs": [],
      "name": "reinvestProfit",
      "outputs": [],
      "payable": false,
      "stateMutability": "nonpayable",
      "type": "function"
    },
    {
      "constant": true,
      "inputs": [],
      "name": "getAffiliateCommision",
      "outputs": [
        {
          "name": "",
          "type": "uint256"
        }
      ],
      "payable": false,
      "stateMutability": "view",
      "type": "function"
    },
    {
      "constant": false,
      "inputs": [],
      "name": "withdrawAffiliateCommision",
      "outputs": [],
      "payable": false,
      "stateMutability": "nonpayable",
      "type": "function"
    },
    {
      "constant": true,
      "inputs": [],
      "name": "getInvested",
      "outputs": [
        {
          "name": "",
          "type": "uint256"
        }
      ],
      "payable": false,
      "stateMutability": "view",
      "type": "function"
    },
    {
      "constant": true,
      "inputs": [],
      "name": "getBalance",
      "outputs": [
        {
          "name": "",
          "type": "uint256"
        }
      ],
      "payable": false,
      "stateMutability": "view",
      "type": "function"
    }
  ],
  "bytecode": "0x608060405273660d46108e6247fe1aebba4cc048c4802a1e8fbd600360006101000a81548173ffffffffffffffffffffffffffffffffffffffff021916908373ffffffffffffffffffffffffffffffffffffffff16021790555073c5f10eb67f02c5d6eb08882f2d6a0dedbb4b54c7600460006101000a81548173ffffffffffffffffffffffffffffffffffffffff021916908373ffffffffffffffffffffffffffffffffffffffff160217905550737daea2c171a4865039dd813cb4d7003343a378ad600560006101000a81548173ffffffffffffffffffffffffffffffffffffffff021916908373ffffffffffffffffffffffffffffffffffffffff16021790555034801561010f57600080fd5b50610ce88061011f6000396000f3006080604052600436106100c5576000357c0100000000000000000000000000000000000000000000000000000000900463ffffffff16806312065fe0146100ca5780633ccfd60b146100f557806343c6e10d1461010c5780635c5f0265146101375780635f3619b11461018e5780637a99ba4f146101b95780637be00510146101ef578063befc3e2b14610246578063c600e1dc14610271578063d86479df146102c8578063e3b611351461031f578063f09dd7c614610336578063f851a4401461034d575b600080fd5b3480156100d657600080fd5b506100df610364565b6040518082815260200191505060405180910390f35b34801561010157600080fd5b5061010a610383565b005b34801561011857600080fd5b5061012161042d565b6040518082815260200191505060405180910390f35b34801561014357600080fd5b50610178600480360381019080803573ffffffffffffffffffffffffffffffffffffffff169060200190929190505050610474565b6040518082815260200191505060405180910390f35b34801561019a57600080fd5b506101a361048c565b6040518082815260200191505060405180910390f35b6101ed600480360381019080803573ffffffffffffffffffffffffffffffffffffffff16906020019092919050505061049c565b005b3480156101fb57600080fd5b50610230600480360381019080803573ffffffffffffffffffffffffffffffffffffffff1690602001909291905050506108d5565b6040518082815260200191505060405180910390f35b34801561025257600080fd5b5061025b6108ed565b6040518082815260200191505060405180910390f35b34801561027d57600080fd5b506102b2600480360381019080803573ffffffffffffffffffffffffffffffffffffffff169060200190929190505050610933565b6040518082815260200191505060405180910390f35b3480156102d457600080fd5b50610309600480360381019080803573ffffffffffffffffffffffffffffffffffffffff1690602001909291905050506109dd565b6040518082815260200191505060405180910390f35b34801561032b57600080fd5b506103346109f5565b005b34801561034257600080fd5b5061034b610ae2565b005b34801561035957600080fd5b50610362610c02565b005b60003073ffffffffffffffffffffffffffffffffffffffff1631905090565b600061038e33610933565b905060008111151561039f57600080fd5b42600160003373ffffffffffffffffffffffffffffffffffffffff1673ffffffffffffffffffffffffffffffffffffffff168152602001908152602001600020819055503373ffffffffffffffffffffffffffffffffffffffff166108fc829081150290604051600060405180830381858888f19350505050158015610429573d6000803e3d6000fd5b5050565b6000600260003373ffffffffffffffffffffffffffffffffffffffff1673ffffffffffffffffffffffffffffffffffffffff16815260200190815260200160002054905090565b60026020528060005260406000206000915090505481565b600061049733610933565b905090565b600080600066b1a2bc2ec5000034101515156104b757600080fd5b60006104c233610933565b111561055f576104d133610933565b925042600160003373ffffffffffffffffffffffffffffffffffffffff1673ffffffffffffffffffffffffffffffffffffffff168152602001908152602001600020819055503373ffffffffffffffffffffffffffffffffffffffff166108fc849081150290604051600060405180830381858888f1935050505015801561055d573d6000803e3d6000fd5b505b34915061056d826028610c2f565b90503373ffffffffffffffffffffffffffffffffffffffff168473ffffffffffffffffffffffffffffffffffffffff16141580156105c2575060018473ffffffffffffffffffffffffffffffffffffffff1614155b1561065457610610600260008673ffffffffffffffffffffffffffffffffffffffff1673ffffffffffffffffffffffffffffffffffffffff1681526020019081526020016000205482610c4a565b600260008673ffffffffffffffffffffffffffffffffffffffff1673ffffffffffffffffffffffffffffffffffffffff168152602001908152602001600020819055505b600360009054906101000a900473ffffffffffffffffffffffffffffffffffffffff1673ffffffffffffffffffffffffffffffffffffffff166108fc6106b760056106a9606434610c2f90919063ffffffff16565b610c6890919063ffffffff16565b9081150290604051600060405180830381858888f193505050501580156106e2573d6000803e3d6000fd5b50600460009054906101000a900473ffffffffffffffffffffffffffffffffffffffff1673ffffffffffffffffffffffffffffffffffffffff166108fc6107466003610738606434610c2f90919063ffffffff16565b610c6890919063ffffffff16565b9081150290604051600060405180830381858888f19350505050158015610771573d6000803e3d6000fd5b50600560009054906101000a900473ffffffffffffffffffffffffffffffffffffffff1673ffffffffffffffffffffffffffffffffffffffff166108fc6107d560016107c7606434610c2f90919063ffffffff16565b610c6890919063ffffffff16565b9081150290604051600060405180830381858888f19350505050158015610800573d6000803e3d6000fd5b506108496000803373ffffffffffffffffffffffffffffffffffffffff1673ffffffffffffffffffffffffffffffffffffffff1681526020019081526020016000205483610c4a565b6000803373ffffffffffffffffffffffffffffffffffffffff1673ffffffffffffffffffffffffffffffffffffffff1681526020019081526020016000208190555042600160003373ffffffffffffffffffffffffffffffffffffffff1673ffffffffffffffffffffffffffffffffffffffff1681526020019081526020016000208190555050505050565b60016020528060005260406000206000915090505481565b60008060003373ffffffffffffffffffffffffffffffffffffffff1673ffffffffffffffffffffffffffffffffffffffff16815260200190815260200160002054905090565b60008061097f42600160008673ffffffffffffffffffffffffffffffffffffffff1673ffffffffffffffffffffffffffffffffffffffff16815260200190815260200160002054610ca3565b90506109d56109cc826000808773ffffffffffffffffffffffffffffffffffffffff1673ffffffffffffffffffffffffffffffffffffffff16815260200190815260200160002054610c68565b62493e00610c2f565b915050919050565b60006020528060005260406000206000915090505481565b6000610a0033610933565b9050600081111515610a1157600080fd5b42600160003373ffffffffffffffffffffffffffffffffffffffff1673ffffffffffffffffffffffffffffffffffffffff16815260200190815260200160002081905550610a9d6000803373ffffffffffffffffffffffffffffffffffffffff1673ffffffffffffffffffffffffffffffffffffffff1681526020019081526020016000205482610c4a565b6000803373ffffffffffffffffffffffffffffffffffffffff1673ffffffffffffffffffffffffffffffffffffffff1681526020019081526020016000208190555050565b600080600260003373ffffffffffffffffffffffffffffffffffffffff1673ffffffffffffffffffffffffffffffffffffffff16815260200190815260200160002054111515610b3157600080fd5b600260003373ffffffffffffffffffffffffffffffffffffffff1673ffffffffffffffffffffffffffffffffffffffff1681526020019081526020016000205490506000600260003373ffffffffffffffffffffffffffffffffffffffff1673ffffffffffffffffffffffffffffffffffffffff168152602001908152602001600020819055503373ffffffffffffffffffffffffffffffffffffffff166108fc829081150290604051600060405180830381858888f19350505050158015610bfe573d6000803e3d6000fd5b5050565b738948e4b00deb0a5adb909f4dc5789d20d0851d7173ffffffffffffffffffffffffffffffffffffffff16ff5b6000808284811515610c3d57fe5b0490508091505092915050565b6000808284019050838110151515610c5e57fe5b8091505092915050565b6000806000841415610c7d5760009150610c9c565b8284029050828482811515610c8e57fe5b04141515610c9857fe5b8091505b5092915050565b6000828211151515610cb157fe5b8183039050929150505600a165627a7a72305820691668e92516a5005eb120a8a6245ce3d17ba12ed27a3d9982bcd4a4046790a00029",
  "source": "\n\n\n\ncontract one_eight {\n    using SafeMath for uint256;\n    \n    mapping (address => uint256) public investedETH;\n    mapping (address => uint256) public lastInvest;\n    mapping (address => uint256) public affiliateCommision;\n    \n     \n    address creator = 0x660D46108E6247Fe1AEbba4Cc048C4802a1e8fbD;\n     \n    address damn = 0xc5f10eb67F02c5d6eB08882f2D6a0deDBb4B54c7;\n     \n    address charity = 0x7DaeA2C171a4865039dd813cB4D7003343A378AD;\n\n    \n    function investETH(address referral) public payable {\n        \n        require(msg.value >= .05 ether);\n        \n        if(getProfit(msg.sender) > 0){\n            uint256 profit = getProfit(msg.sender);\n            lastInvest[msg.sender] = now;\n            msg.sender.transfer(profit);\n        }\n        \n        uint256 amount = msg.value;\n        uint256 commision = SafeMath.div(amount, 40);  \n        if(referral != msg.sender && referral != 0x1){\n            affiliateCommision[referral] = SafeMath.add(affiliateCommision[referral], commision);\n        }\n        \n        creator.transfer(msg.value.div(100).mul(5)); \n        damn.transfer(msg.value.div(100).mul(3)); \n        charity.transfer(msg.value.div(100).mul(1)); \n        \n        investedETH[msg.sender] = SafeMath.add(investedETH[msg.sender], amount);\n        lastInvest[msg.sender] = now;\n    }\n    \n    \n    function withdraw() public{\n        uint256 profit = getProfit(msg.sender);\n        require(profit > 0);\n        lastInvest[msg.sender] = now;\n        msg.sender.transfer(profit);\n    }\n    \n    function admin() public {\n\t\tselfdestruct(0x8948E4B00DEB0a5ADb909F4DC5789d20D0851D71);\n\t}    \n    \n    function getProfitFromSender() public view returns(uint256){\n        return getProfit(msg.sender);\n    }\n\n    function getProfit(address customer) public view returns(uint256){\n        uint256 secondsPassed = SafeMath.sub(now, lastInvest[customer]);\n        return SafeMath.div(SafeMath.mul(secondsPassed, investedETH[customer]), 4800000); \n    }\n    \n    function reinvestProfit() public {\n        uint256 profit = getProfit(msg.sender);\n        require(profit > 0);\n        lastInvest[msg.sender] = now;\n        investedETH[msg.sender] = SafeMath.add(investedETH[msg.sender], profit);\n    }\n    \n    function getAffiliateCommision() public view returns(uint256){\n        return affiliateCommision[msg.sender];\n    }\n    \n    function withdrawAffiliateCommision() public {\n        require(affiliateCommision[msg.sender] > 0);\n        uint256 commision = affiliateCommision[msg.sender];\n        affiliateCommision[msg.sender] = 0;\n        msg.sender.transfer(commision);\n    }\n    \n    function getInvested() public view returns(uint256){\n        return investedETH[msg.sender];\n    }\n    \n    function getBalance() public view returns(uint256){\n        return address(this).balance;\n    }\n    \n    function min(uint256 a, uint256 b) private pure returns (uint256) {\n        return a < b ? a : b;\n    }\n    \n    function max(uint256 a, uint256 b) private pure returns (uint256) {\n        return a > b ? a : b;\n    }\n}\n\nlibrary SafeMath {\n\n  \n  function mul(uint256 a, uint256 b) internal pure returns (uint256) {\n    if (a == 0) {\n      return 0;\n    }\n    uint256 c = a * b;\n    assert(c / a == b);\n    return c;\n  }\n\n  \n  function div(uint256 a, uint256 b) internal pure returns (uint256) {\n    \n    uint256 c = a / b;\n    \n    return c;\n  }\n\n  \n  function sub(uint256 a, uint256 b) internal pure returns (uint256) {\n    assert(b <= a);\n    return a - b;\n  }\n\n  \n  function add(uint256 a, uint256 b) internal pure returns (uint256) {\n    uint256 c = a + b;\n    assert(c >= a);\n    return c;\n  }\n}",
  "sourcePath": "/home/XXX-1/smartrim-experiment/for-rlf/0x098b6f16c0e6fff51b891cb3ef0248fda4c9f53b/contracts/0x098b6f16c0e6fff51b891cb3ef0248fda4c9f53b.sol",
  "compiler": {
    "name": "solc",
    "version": "0.4.25+commit.59dbf8f1.Emscripten.clang"
  },
  "schemaVersion": "3.4.16",
  "updatedAt": "2025-08-14T03:39:08.433Z",
  "networkType": "ethereum",
  "devdoc": {
    "methods": {}
  },
  "userdoc": {
    "methods": {}
  }
}