{
  "contractName": "WalletLibrary",
  "abi": [
    {
      "constant": true,
      "inputs": [],
      "name": "m_numOwners",
      "outputs": [
        {
          "name": "",
          "type": "uint256"
        }
      ],
      "payable": false,
      "stateMutability": "view",
      "type": "function"
    },
    {
      "constant": true,
      "inputs": [],
      "name": "m_lastDay",
      "outputs": [
        {
          "name": "",
          "type": "uint256"
        }
      ],
      "payable": false,
      "stateMutability": "view",
      "type": "function"
    },
    {
      "constant": true,
      "inputs": [],
      "name": "m_spentToday",
      "outputs": [
        {
          "name": "",
          "type": "uint256"
        }
      ],
      "payable": false,
      "stateMutability": "view",
      "type": "function"
    },
    {
      "constant": true,
      "inputs": [],
      "name": "m_required",
      "outputs": [
        {
          "name": "",
          "type": "uint256"
        }
      ],
      "payable": false,
      "stateMutability": "view",
      "type": "function"
    },
    {
      "constant": true,
      "inputs": [],
      "name": "m_dailyLimit",
      "outputs": [
        {
          "name": "",
          "type": "uint256"
        }
      ],
      "payable": false,
      "stateMutability": "view",
      "type": "function"
    },
    {
      "payable": true,
      "stateMutability": "payable",
      "type": "fallback"
    },
    {
      "anonymous": false,
      "inputs": [
        {
          "indexed": false,
          "name": "owner",
          "type": "address"
        },
        {
          "indexed": false,
          "name": "operation",
          "type": "bytes32"
        }
      ],
      "name": "Confirmation",
      "type": "event"
    },
    {
      "anonymous": false,
      "inputs": [
        {
          "indexed": false,
          "name": "owner",
          "type": "address"
        },
        {
          "indexed": false,
          "name": "operation",
          "type": "bytes32"
        }
      ],
      "name": "Revoke",
      "type": "event"
    },
    {
      "anonymous": false,
      "inputs": [
        {
          "indexed": false,
          "name": "oldOwner",
          "type": "address"
        },
        {
          "indexed": false,
          "name": "newOwner",
          "type": "address"
        }
      ],
      "name": "OwnerChanged",
      "type": "event"
    },
    {
      "anonymous": false,
      "inputs": [
        {
          "indexed": false,
          "name": "newOwner",
          "type": "address"
        }
      ],
      "name": "OwnerAdded",
      "type": "event"
    },
    {
      "anonymous": false,
      "inputs": [
        {
          "indexed": false,
          "name": "oldOwner",
          "type": "address"
        }
      ],
      "name": "OwnerRemoved",
      "type": "event"
    },
    {
      "anonymous": false,
      "inputs": [
        {
          "indexed": false,
          "name": "newRequirement",
          "type": "uint256"
        }
      ],
      "name": "RequirementChanged",
      "type": "event"
    },
    {
      "anonymous": false,
      "inputs": [
        {
          "indexed": false,
          "name": "_from",
          "type": "address"
        },
        {
          "indexed": false,
          "name": "value",
          "type": "uint256"
        }
      ],
      "name": "Deposit",
      "type": "event"
    },
    {
      "anonymous": false,
      "inputs": [
        {
          "indexed": false,
          "name": "owner",
          "type": "address"
        },
        {
          "indexed": false,
          "name": "value",
          "type": "uint256"
        },
        {
          "indexed": false,
          "name": "to",
          "type": "address"
        },
        {
          "indexed": false,
          "name": "data",
          "type": "bytes"
        },
        {
          "indexed": false,
          "name": "created",
          "type": "address"
        }
      ],
      "name": "SingleTransact",
      "type": "event"
    },
    {
      "anonymous": false,
      "inputs": [
        {
          "indexed": false,
          "name": "owner",
          "type": "address"
        },
        {
          "indexed": false,
          "name": "operation",
          "type": "bytes32"
        },
        {
          "indexed": false,
          "name": "value",
          "type": "uint256"
        },
        {
          "indexed": false,
          "name": "to",
          "type": "address"
        },
        {
          "indexed": false,
          "name": "data",
          "type": "bytes"
        },
        {
          "indexed": false,
          "name": "created",
          "type": "address"
        }
      ],
      "name": "MultiTransact",
      "type": "event"
    },
    {
      "anonymous": false,
      "inputs": [
        {
          "indexed": false,
          "name": "operation",
          "type": "bytes32"
        },
        {
          "indexed": false,
          "name": "initiator",
          "type": "address"
        },
        {
          "indexed": false,
          "name": "value",
          "type": "uint256"
        },
        {
          "indexed": false,
          "name": "to",
          "type": "address"
        },
        {
          "indexed": false,
          "name": "data",
          "type": "bytes"
        }
      ],
      "name": "ConfirmationNeeded",
      "type": "event"
    },
    {
      "constant": false,
      "inputs": [
        {
          "name": "_owners",
          "type": "address[]"
        },
        {
          "name": "_required",
          "type": "uint256"
        }
      ],
      "name": "initMultiowned",
      "outputs": [],
      "payable": false,
      "stateMutability": "nonpayable",
      "type": "function"
    },
    {
      "constant": false,
      "inputs": [
        {
          "name": "_operation",
          "type": "bytes32"
        }
      ],
      "name": "revoke",
      "outputs": [],
      "payable": false,
      "stateMutability": "nonpayable",
      "type": "function"
    },
    {
      "constant": false,
      "inputs": [
        {
          "name": "_from",
          "type": "address"
        },
        {
          "name": "_to",
          "type": "address"
        }
      ],
      "name": "changeOwner",
      "outputs": [],
      "payable": false,
      "stateMutability": "nonpayable",
      "type": "function"
    },
    {
      "constant": false,
      "inputs": [
        {
          "name": "_owner",
          "type": "address"
        }
      ],
      "name": "addOwner",
      "outputs": [],
      "payable": false,
      "stateMutability": "nonpayable",
      "type": "function"
    },
    {
      "constant": false,
      "inputs": [
        {
          "name": "_owner",
          "type": "address"
        }
      ],
      "name": "removeOwner",
      "outputs": [],
      "payable": false,
      "stateMutability": "nonpayable",
      "type": "function"
    },
    {
      "constant": false,
      "inputs": [
        {
          "name": "_newRequired",
          "type": "uint256"
        }
      ],
      "name": "changeRequirement",
      "outputs": [],
      "payable": false,
      "stateMutability": "nonpayable",
      "type": "function"
    },
    {
      "constant": true,
      "inputs": [
        {
          "name": "ownerIndex",
          "type": "uint256"
        }
      ],
      "name": "getOwner",
      "outputs": [
        {
          "name": "",
          "type": "address"
        }
      ],
      "payable": false,
      "stateMutability": "view",
      "type": "function"
    },
    {
      "constant": true,
      "inputs": [
        {
          "name": "_addr",
          "type": "address"
        }
      ],
      "name": "isOwner",
      "outputs": [
        {
          "name": "",
          "type": "bool"
        }
      ],
      "payable": false,
      "stateMutability": "view",
      "type": "function"
    },
    {
      "constant": true,
      "inputs": [
        {
          "name": "_operation",
          "type": "bytes32"
        },
        {
          "name": "_owner",
          "type": "address"
        }
      ],
      "name": "hasConfirmed",
      "outputs": [
        {
          "name": "",
          "type": "bool"
        }
      ],
      "payable": false,
      "stateMutability": "view",
      "type": "function"
    },
    {
      "constant": false,
      "inputs": [
        {
          "name": "_limit",
          "type": "uint256"
        }
      ],
      "name": "initDaylimit",
      "outputs": [],
      "payable": false,
      "stateMutability": "nonpayable",
      "type": "function"
    },
    {
      "constant": false,
      "inputs": [
        {
          "name": "_newLimit",
          "type": "uint256"
        }
      ],
      "name": "setDailyLimit",
      "outputs": [],
      "payable": false,
      "stateMutability": "nonpayable",
      "type": "function"
    },
    {
      "constant": false,
      "inputs": [],
      "name": "resetSpentToday",
      "outputs": [],
      "payable": false,
      "stateMutability": "nonpayable",
      "type": "function"
    },
    {
      "constant": false,
      "inputs": [
        {
          "name": "_owners",
          "type": "address[]"
        },
        {
          "name": "_required",
          "type": "uint256"
        },
        {
          "name": "_daylimit",
          "type": "uint256"
        }
      ],
      "name": "initWallet",
      "outputs": [],
      "payable": false,
      "stateMutability": "nonpayable",
      "type": "function"
    },
    {
      "constant": false,
      "inputs": [
        {
          "name": "_to",
          "type": "address"
        }
      ],
      "name": "kill",
      "outputs": [],
      "payable": false,
      "stateMutability": "nonpayable",
      "type": "function"
    },
    {
      "constant": false,
      "inputs": [
        {
          "name": "_to",
          "type": "address"
        },
        {
          "name": "_value",
          "type": "uint256"
        },
        {
          "name": "_data",
          "type": "bytes"
        }
      ],
      "name": "execute",
      "outputs": [
        {
          "name": "o_hash",
          "type": "bytes32"
        }
      ],
      "payable": false,
      "stateMutability": "nonpayable",
      "type": "function"
    },
    {
      "constant": false,
      "inputs": [
        {
          "name": "_h",
          "type": "bytes32"
        }
      ],
      "name": "confirm",
      "outputs": [
        {
          "name": "o_success",
          "type": "bool"
        }
      ],
      "payable": false,
      "stateMutability": "nonpayable",
      "type": "function"
    }
  ],
  "bytecode": "0x608060405234801561001057600080fd5b506120e3806100206000396000f30060806040526004361061011d576000357c0100000000000000000000000000000000000000000000000000000000900463ffffffff168063173825d9146101945780632f54bf6e146101d75780634123cb6b14610232578063523750931461025d5780635c52c2f514610288578063659010e71461029f5780637065cb48146102ca578063746c91711461030d578063797af627146103385780639da5e0eb14610381578063b20d30a9146103ae578063b61d27f6146103db578063b75c7dc61461045c578063ba51a6df1461048d578063c2cf7326146104ba578063c41a360a14610523578063c57c5f6014610590578063cbf0b0c014610600578063e46dcfeb14610643578063f00d4b5d146106bd578063f1736d8614610720575b6000341115610192577fe1fffcc4923d04b559f4d29a8bfc6cda04eb5b0d3c460751c2402c5c5cc9109c3334604051808373ffffffffffffffffffffffffffffffffffffffff1673ffffffffffffffffffffffffffffffffffffffff1681526020018281526020019250505060405180910390a15b005b3480156101a057600080fd5b506101d5600480360381019080803573ffffffffffffffffffffffffffffffffffffffff16906020019092919050505061074b565b005b3480156101e357600080fd5b50610218600480360381019080803573ffffffffffffffffffffffffffffffffffffffff169060200190929190505050610887565b604051808215151515815260200191505060405180910390f35b34801561023e57600080fd5b506102476108bd565b6040518082815260200191505060405180910390f35b34801561026957600080fd5b506102726108c3565b6040518082815260200191505060405180910390f35b34801561029457600080fd5b5061029d6108c9565b005b3480156102ab57600080fd5b506102b4610901565b6040518082815260200191505060405180910390f35b3480156102d657600080fd5b5061030b600480360381019080803573ffffffffffffffffffffffffffffffffffffffff169060200190929190505050610907565b005b34801561031957600080fd5b50610322610a4e565b6040518082815260200191505060405180910390f35b34801561034457600080fd5b506103676004803603810190808035600019169060200190929190505050610a54565b604051808215151515815260200191505060405180910390f35b34801561038d57600080fd5b506103ac60048036038101908080359060200190929190505050610fe9565b005b3480156103ba57600080fd5b506103d960048036038101908080359060200190929190505050611011565b005b3480156103e757600080fd5b5061043e600480360381019080803573ffffffffffffffffffffffffffffffffffffffff16906020019092919080359060200190929190803590602001908201803590602001919091929391929390505050611049565b60405180826000191660001916815260200191505060405180910390f35b34801561046857600080fd5b5061048b60048036038101908080356000191690602001909291905050506114b8565b005b34801561049957600080fd5b506104b8600480360381019080803590602001909291905050506115cc565b005b3480156104c657600080fd5b506105096004803603810190808035600019169060200190929190803573ffffffffffffffffffffffffffffffffffffffff169060200190929190505050611653565b604051808215151515815260200191505060405180910390f35b34801561052f57600080fd5b5061054e600480360381019080803590602001909291905050506116d3565b604051808273ffffffffffffffffffffffffffffffffffffffff1673ffffffffffffffffffffffffffffffffffffffff16815260200191505060405180910390f35b34801561059c57600080fd5b506105fe60048036038101908080359060200190820180359060200190808060200260200160405190810160405280939291908181526020018383602002808284378201915050505050509192919290803590602001909291905050506116f1565b005b34801561060c57600080fd5b50610641600480360381019080803573ffffffffffffffffffffffffffffffffffffffff16906020019092919050505061181e565b005b34801561064f57600080fd5b506106bb600480360381019080803590602001908201803590602001908080602002602001604051908101604052809392919081815260200183836020028082843782019150505050505091929192908035906020019092919080359060200190929190505050611867565b005b3480156106c957600080fd5b5061071e600480360381019080803573ffffffffffffffffffffffffffffffffffffffff169060200190929190803573ffffffffffffffffffffffffffffffffffffffff16906020019092919050505061188f565b005b34801561072c57600080fd5b50610735611a3c565b6040518082815260200191505060405180910390f35b6000803660405180838380828437820191505092505050604051809103902061077381611a42565b156108825761010560008473ffffffffffffffffffffffffffffffffffffffff16815260200190815260200160002054915060008214156107b357610881565b600180540360005411156107c657610881565b6000600583610100811015156107d857fe5b0181905550600061010560008573ffffffffffffffffffffffffffffffffffffffff16815260200190815260200160002081905550610815611c4c565b61081d611d78565b7f58619076adf5bb0943d100ef88d52d7c3fd691b19d3a9071b555b651fbf418da83604051808273ffffffffffffffffffffffffffffffffffffffff1673ffffffffffffffffffffffffffffffffffffffff16815260200191505060405180910390a15b5b505050565b60008061010560008473ffffffffffffffffffffffffffffffffffffffff16815260200190815260200160002054119050919050565b60015481565b60045481565b6000366040518083838082843782019150509250505060405180910390206108f081611a42565b156108fe5760006003819055505b50565b60035481565b60003660405180838380828437820191505092505050604051809103902061092e81611a42565b15610a4a5761093c82610887565b1561094657610a49565b61094e611c4c565b60fa60015410151561096357610962611d78565b5b60fa60015410151561097457610a49565b6001600081548092919060010191905055508173ffffffffffffffffffffffffffffffffffffffff166005600154610100811015156109af57fe5b018190555060015461010560008473ffffffffffffffffffffffffffffffffffffffff168152602001908152602001600020819055507f994a936646fe87ffe4f1e469d3d6aa417d6b855598397f323de5b449f765f0c382604051808273ffffffffffffffffffffffffffffffffffffffff1673ffffffffffffffffffffffffffffffffffffffff16815260200191505060405180910390a15b5b5050565b60005481565b60008082610a6181611a42565b15610fe25760006101086000866000191660001916815260200190815260200160002060000160009054906101000a900473ffffffffffffffffffffffffffffffffffffffff1673ffffffffffffffffffffffffffffffffffffffff16141580610aeb57506000610108600086600019166000191681526020019081526020016000206001015414155b80610b2a575060006101086000866000191660001916815260200190815260200160002060020180546001816001161561010002031660029004905014155b15610fe05760006101086000866000191660001916815260200190815260200160002060000160009054906101000a900473ffffffffffffffffffffffffffffffffffffffff1673ffffffffffffffffffffffffffffffffffffffff161415610c7457610c6d6101086000866000191660001916815260200190815260200160002060010154610108600087600019166000191681526020019081526020016000206002018054600181600116156101000203166002900480601f016020809104026020016040519081016040528092919081815260200182805460018160011615610100020316600290048015610c635780601f10610c3857610100808354040283529160200191610c63565b820191906000526020600020905b815481529060010190602001808311610c4657829003601f168201915b5050505050611ebd565b9150610d90565b6101086000856000191660001916815260200190815260200160002060000160009054906101000a900473ffffffffffffffffffffffffffffffffffffffff1673ffffffffffffffffffffffffffffffffffffffff166101086000866000191660001916815260200190815260200160002060010154610108600087600019166000191681526020019081526020016000206002016040518082805460018160011615610100020316600290048015610d6e5780601f10610d4357610100808354040283529160200191610d6e565b820191906000526020600020905b815481529060010190602001808311610d5157829003601f168201915b505091505060006040518083038185875af1925050501515610d8f57600080fd5b5b7fe3a3a4111a84df27d76b68dc721e65c7711605ea5eee4afd3a9c58195217365c338561010860008860001916600019168152602001908152602001600020600101546101086000896000191660001916815260200190815260200160002060000160009054906101000a900473ffffffffffffffffffffffffffffffffffffffff1661010860008a6000191660001916815260200190815260200160002060020187604051808773ffffffffffffffffffffffffffffffffffffffff1673ffffffffffffffffffffffffffffffffffffffff16815260200186600019166000191681526020018581526020018473ffffffffffffffffffffffffffffffffffffffff1673ffffffffffffffffffffffffffffffffffffffff168152602001806020018373ffffffffffffffffffffffffffffffffffffffff1673ffffffffffffffffffffffffffffffffffffffff168152602001828103825284818154600181600116156101000203166002900481526020019150805460018160011615610100020316600290048015610f665780601f10610f3b57610100808354040283529160200191610f66565b820191906000526020600020905b815481529060010190602001808311610f4957829003601f168201915b505097505050505050505060405180910390a161010860008560001916600019168152602001908152602001600020600080820160006101000a81549073ffffffffffffffffffffffffffffffffffffffff02191690556001820160009055600282016000610fd59190611f58565b505060019250610fe1565b5b5b5050919050565b60006001541115610ff957600080fd5b80600281905550611008611ec5565b60048190555050565b60003660405180838380828437820191505092505050604051809103902061103881611a42565b1561104557816002819055505b5050565b60008061105533610887565b156114af57600084849050148015611072575061107185611edb565b5b8061107f57506001600054145b1561122a5760008673ffffffffffffffffffffffffffffffffffffffff1614156110e6576110df8585858080601f016020809104026020016040519081016040528093929190818152602001838380828437820191505050505050611ebd565b9050611130565b8573ffffffffffffffffffffffffffffffffffffffff168585856040518083838082843782019150509250505060006040518083038185875af192505050151561112f57600080fd5b5b7f9738cd1a8777c86b011f7b01d87d484217dc6ab5154a9d41eda5d14af8caf292338688878786604051808773ffffffffffffffffffffffffffffffffffffffff1673ffffffffffffffffffffffffffffffffffffffff1681526020018681526020018573ffffffffffffffffffffffffffffffffffffffff1673ffffffffffffffffffffffffffffffffffffffff168152602001806020018373ffffffffffffffffffffffffffffffffffffffff1673ffffffffffffffffffffffffffffffffffffffff1681526020018281038252858582818152602001925080828437820191505097505050505050505060405180910390a16114ae565b6000364360405180848480828437820191505082815260200193505050506040518091039020915060006101086000846000191660001916815260200190815260200160002060000160009054906101000a900473ffffffffffffffffffffffffffffffffffffffff1673ffffffffffffffffffffffffffffffffffffffff161480156112d6575060006101086000846000191660001916815260200190815260200160002060010154145b80156113155750600061010860008460001916600019168152602001908152602001600020600201805460018160011615610100020316600290049050145b156113cc57856101086000846000191660001916815260200190815260200160002060000160006101000a81548173ffffffffffffffffffffffffffffffffffffffff021916908373ffffffffffffffffffffffffffffffffffffffff16021790555084610108600084600019166000191681526020019081526020016000206001018190555083836101086000856000191660001916815260200190815260200160002060020191906113ca929190611fa0565b505b6113d582610a54565b15156114ad577f1733cbb53659d713b79580f79f3f9ff215f78a7c7aa45890f3b89fc5cddfbf328233878988886040518087600019166000191681526020018673ffffffffffffffffffffffffffffffffffffffff1673ffffffffffffffffffffffffffffffffffffffff1681526020018581526020018473ffffffffffffffffffffffffffffffffffffffff1673ffffffffffffffffffffffffffffffffffffffff168152602001806020018281038252848482818152602001925080828437820191505097505050505050505060405180910390a15b5b5b50949350505050565b600080600061010560003373ffffffffffffffffffffffffffffffffffffffff16815260200190815260200160002054925060008314156114f8576115c6565b8260020a915061010660008560001916600019168152602001908152602001600020905060008282600101541611156115c55780600001600081548092919060010191905055508181600101600082825403925050819055507fc7fb647e59b18047309aa15aad418e5d7ca96d173ad704f1031a2c3d7591734b3385604051808373ffffffffffffffffffffffffffffffffffffffff1673ffffffffffffffffffffffffffffffffffffffff16815260200182600019166000191681526020019250505060405180910390a15b5b50505050565b6000366040518083838082843782019150509250505060405180910390206115f381611a42565b1561164f576001548211156116075761164e565b81600081905550611616611c4c565b7facbdb084c721332ac59f9b8e392196c9eb0e4932862da8eb9beaf0dad4f550da826040518082815260200191505060405180910390a15b5b5050565b60008060008061010660008760001916600019168152602001908152602001600020925061010560008673ffffffffffffffffffffffffffffffffffffffff16815260200190815260200160002054915060008214156116b657600093506116ca565b8160020a9050600081846001015416141593505b50505092915050565b6000600560018301610100811015156116e857fe5b01549050919050565b600080600154111561170257600080fd5b60018351016001819055503373ffffffffffffffffffffffffffffffffffffffff16600560016101008110151561173557fe5b0181905550600161010560003373ffffffffffffffffffffffffffffffffffffffff16815260200190815260200160002081905550600090505b825181101561181257828181518110151561178657fe5b9060200190602002015173ffffffffffffffffffffffffffffffffffffffff16600582600201610100811015156117b957fe5b018190555080600201610105600085848151811015156117d557fe5b9060200190602002015173ffffffffffffffffffffffffffffffffffffffff1681526020019081526020016000208190555080600101905061176f565b81600081905550505050565b60003660405180838380828437820191505092505050604051809103902061184581611a42565b15611863578173ffffffffffffffffffffffffffffffffffffffff16ff5b5050565b6000600154111561187757600080fd5b61188081610fe9565b61188a83836116f1565b505050565b600080366040518083838082843782019150509250505060405180910390206118b781611a42565b15611a36576118c583610887565b156118cf57611a35565b61010560008573ffffffffffffffffffffffffffffffffffffffff168152602001908152602001600020549150600082141561190a57611a35565b611912611c4c565b8273ffffffffffffffffffffffffffffffffffffffff166005836101008110151561193957fe5b0181905550600061010560008673ffffffffffffffffffffffffffffffffffffffff168152602001908152602001600020819055508161010560008573ffffffffffffffffffffffffffffffffffffffff168152602001908152602001600020819055507fb532073b38c83145e3e5135377a08bf9aab55bc0fd7c1179cd4fb995d2a5159c8484604051808373ffffffffffffffffffffffffffffffffffffffff1673ffffffffffffffffffffffffffffffffffffffff1681526020018273ffffffffffffffffffffffffffffffffffffffff1673ffffffffffffffffffffffffffffffffffffffff1681526020019250505060405180910390a15b5b50505050565b60025481565b60008060008061010560003373ffffffffffffffffffffffffffffffffffffffff1681526020019081526020016000205492506000831415611a8357611c44565b610106600086600019166000191681526020019081526020016000209150600082600001541415611b08576000548260000181905550600082600101819055506101078054809190600101611ad89190612020565b8260020181905550846101078360020154815481101515611af557fe5b9060005260206000200181600019169055505b8260020a90506000818360010154161415611c43577fe1c52dc63b719ade82e8bea94cc41a0d5d28e4aaf536adb5e9cccc9ff8c1aeda3386604051808373ffffffffffffffffffffffffffffffffffffffff1673ffffffffffffffffffffffffffffffffffffffff16815260200182600019166000191681526020019250505060405180910390a160018260000154111515611c1b576101076101066000876000191660001916815260200190815260200160002060020154815481101515611bcd57fe5b90600052602060002001600090556101066000866000191660001916815260200190815260200160002060008082016000905560018201600090556002820160009055505060019350611c44565b8160000160008154809291906001900391905055508082600101600082825417925050819055505b5b505050919050565b600080610107805490509150600090505b81811015611d6557610108600061010783815481101515611c7a57fe5b906000526020600020015460001916600019168152602001908152602001600020600080820160006101000a81549073ffffffffffffffffffffffffffffffffffffffff02191690556001820160009055600282016000611cdb9190611f58565b5050600060010261010782815481101515611cf257fe5b906000526020600020015460001916141515611d5a57610106600061010783815481101515611d1d57fe5b9060005260206000200154600019166000191681526020019081526020016000206000808201600090556001820160009055600282016000905550505b806001019050611c5d565b6101076000611d74919061204c565b5050565b6000600190505b600154811015611eba575b60015481108015611dad5750600060058261010081101515611da857fe5b015414155b15611dbf578080600101915050611d8a565b5b60018054118015611de457506000600560015461010081101515611de057fe5b0154145b15611e015760016000815480929190600190039190505550611dc0565b60015481108015611e2657506000600560015461010081101515611e2157fe5b015414155b8015611e435750600060058261010081101515611e3f57fe5b0154145b15611eb557600560015461010081101515611e5a57fe5b015460058261010081101515611e6c57fe5b018190555080610105600060058461010081101515611e8757fe5b01548152602001908152602001600020819055506000600560015461010081101515611eaf57fe5b01819055505b611d7f565b50565b600092915050565b60006201518042811515611ed557fe5b04905090565b6000611ee633610887565b15611f5357600454611ef6611ec5565b1115611f13576000600381905550611f0c611ec5565b6004819055505b600354826003540110158015611f2f5750600254826003540111155b15611f4d578160036000828254019250508190555060019050611f52565b600090505b5b919050565b50805460018160011615610100020316600290046000825580601f10611f7e5750611f9d565b601f016020900490600052602060002090810190611f9c919061206d565b5b50565b828054600181600116156101000203166002900490600052602060002090601f016020900481019282601f10611fe157803560ff191683800117855561200f565b8280016001018555821561200f579182015b8281111561200e578235825591602001919060010190611ff3565b5b50905061201c919061206d565b5090565b815481835581811115612047578183600052602060002091820191016120469190612092565b5b505050565b508054600082559060005260206000209081019061206a9190612092565b50565b61208f91905b8082111561208b576000816000905550600101612073565b5090565b90565b6120b491905b808211156120b0576000816000905550600101612098565b5090565b905600a165627a7a72305820d6953a8c13b2533871e1e9cf3547998eef7b300d78bd17b9fb81427f1ff2be6d0029",
  "source": "\n\n\n\n\n\n\n\n\n\n\n\n\n\n\ncontract WalletEvents {\n  \n\n  \n  \n  event Confirmation(address owner, bytes32 operation);\n  event Revoke(address owner, bytes32 operation);\n\n  \n  event OwnerChanged(address oldOwner, address newOwner);\n  event OwnerAdded(address newOwner);\n  event OwnerRemoved(address oldOwner);\n\n  \n  event RequirementChanged(uint newRequirement);\n\n  \n  event Deposit(address _from, uint value);\n  \n  event SingleTransact(address owner, uint value, address to, bytes data, address created);\n  \n  event MultiTransact(address owner, bytes32 operation, uint value, address to, bytes data, address created);\n  \n  event ConfirmationNeeded(bytes32 operation, address initiator, uint value, address to, bytes data);\n}\n\ncontract WalletAbi {\n  \n  function revoke(bytes32 _operation) external;\n\n  \n  function changeOwner(address _from, address _to) external;\n\n  function addOwner(address _owner) external;\n\n  function removeOwner(address _owner) external;\n\n  function changeRequirement(uint _newRequired) external;\n\n  function isOwner(address _addr) constant returns (bool);\n\n  function hasConfirmed(bytes32 _operation, address _owner) external constant returns (bool);\n\n  \n  function setDailyLimit(uint _newLimit) external;\n\n  function execute(address _to, uint _value, bytes _data) external returns (bytes32 o_hash);\n  function confirm(bytes32 _h) returns (bool o_success);\n}\n\ncontract WalletLibrary is WalletEvents {\n  \n\n  \n  struct PendingState {\n    uint yetNeeded;\n    uint ownersDone;\n    uint index;\n  }\n\n  \n  struct Transaction {\n    address to;\n    uint value;\n    bytes data;\n  }\n\n  \n\n  \n  modifier onlyowner {\n    if (isOwner(msg.sender))\n      _;\n  }\n  \n  \n  \n  modifier onlymanyowners(bytes32 _operation) {\n    if (confirmAndCheck(_operation))\n      _;\n  }\n\n  \n\n  \n  function() payable {\n    \n    if (msg.value > 0)\n      Deposit(msg.sender, msg.value);\n  }\n\n  \n  \n  function initMultiowned(address[] _owners, uint _required) only_uninitialized {\n    m_numOwners = _owners.length + 1;\n    m_owners[1] = uint(msg.sender);\n    m_ownerIndex[uint(msg.sender)] = 1;\n    for (uint i = 0; i < _owners.length; ++i)\n    {\n      m_owners[2 + i] = uint(_owners[i]);\n      m_ownerIndex[uint(_owners[i])] = 2 + i;\n    }\n    m_required = _required;\n  }\n\n  \n  function revoke(bytes32 _operation) external {\n    uint ownerIndex = m_ownerIndex[uint(msg.sender)];\n    \n    if (ownerIndex == 0) return;\n    uint ownerIndexBit = 2**ownerIndex;\n    var pending = m_pending[_operation];\n    if (pending.ownersDone & ownerIndexBit > 0) {\n      pending.yetNeeded++;\n      pending.ownersDone -= ownerIndexBit;\n      Revoke(msg.sender, _operation);\n    }\n  }\n\n  \n  function changeOwner(address _from, address _to) onlymanyowners(sha3(msg.data)) external {\n    if (isOwner(_to)) return;\n    uint ownerIndex = m_ownerIndex[uint(_from)];\n    if (ownerIndex == 0) return;\n\n    clearPending();\n    m_owners[ownerIndex] = uint(_to);\n    m_ownerIndex[uint(_from)] = 0;\n    m_ownerIndex[uint(_to)] = ownerIndex;\n    OwnerChanged(_from, _to);\n  }\n\n  function addOwner(address _owner) onlymanyowners(sha3(msg.data)) external {\n    if (isOwner(_owner)) return;\n\n    clearPending();\n    if (m_numOwners >= c_maxOwners)\n      reorganizeOwners();\n    if (m_numOwners >= c_maxOwners)\n      return;\n    m_numOwners++;\n    m_owners[m_numOwners] = uint(_owner);\n    m_ownerIndex[uint(_owner)] = m_numOwners;\n    OwnerAdded(_owner);\n  }\n\n  function removeOwner(address _owner) onlymanyowners(sha3(msg.data)) external {\n    uint ownerIndex = m_ownerIndex[uint(_owner)];\n    if (ownerIndex == 0) return;\n    if (m_required > m_numOwners - 1) return;\n\n    m_owners[ownerIndex] = 0;\n    m_ownerIndex[uint(_owner)] = 0;\n    clearPending();\n    reorganizeOwners(); \n    OwnerRemoved(_owner);\n  }\n\n  function changeRequirement(uint _newRequired) onlymanyowners(sha3(msg.data)) external {\n    if (_newRequired > m_numOwners) return;\n    m_required = _newRequired;\n    clearPending();\n    RequirementChanged(_newRequired);\n  }\n\n  \n  function getOwner(uint ownerIndex) external constant returns (address) {\n    return address(m_owners[ownerIndex + 1]);\n  }\n\n  function isOwner(address _addr) constant returns (bool) {\n    return m_ownerIndex[uint(_addr)] > 0;\n  }\n\n  function hasConfirmed(bytes32 _operation, address _owner) external constant returns (bool) {\n    var pending = m_pending[_operation];\n    uint ownerIndex = m_ownerIndex[uint(_owner)];\n\n    \n    if (ownerIndex == 0) return false;\n\n    \n    uint ownerIndexBit = 2**ownerIndex;\n    return !(pending.ownersDone & ownerIndexBit == 0);\n  }\n\n  \n  function initDaylimit(uint _limit) only_uninitialized {\n    m_dailyLimit = _limit;\n    m_lastDay = today();\n  }\n  \n  function setDailyLimit(uint _newLimit) onlymanyowners(sha3(msg.data)) external {\n    m_dailyLimit = _newLimit;\n  }\n  \n  function resetSpentToday() onlymanyowners(sha3(msg.data)) external {\n    m_spentToday = 0;\n  }\n\n  \n  modifier only_uninitialized { if (m_numOwners > 0) throw; _; }\n\n  \n  \n  \n  function initWallet(address[] _owners, uint _required, uint _daylimit) only_uninitialized {\n    initDaylimit(_daylimit);\n    initMultiowned(_owners, _required);\n  }\n\n  \n  \n  function kill(address _to) onlymanyowners(sha3(msg.data)) external {\n    suicide(_to); \n  }\n\n  \n  \n  \n  \n  function execute(address _to, uint _value, bytes _data) external onlyowner returns (bytes32 o_hash) {\n    \n    if ((_data.length == 0 && underLimit(_value)) || m_required == 1) {\n      \n      address created;\n      if (_to == 0) {\n        created = create(_value, _data);\n      } else {\n        if (!_to.call.value(_value)(_data))\n          throw;\n      }\n      SingleTransact(msg.sender, _value, _to, _data, created);\n    } else {\n      \n      o_hash = sha3(msg.data, block.number);\n      \n      if (m_txs[o_hash].to == 0 && m_txs[o_hash].value == 0 && m_txs[o_hash].data.length == 0) {\n        m_txs[o_hash].to = _to;\n        m_txs[o_hash].value = _value;\n        m_txs[o_hash].data = _data;\n      }\n      if (!confirm(o_hash)) {\n        ConfirmationNeeded(o_hash, msg.sender, _value, _to, _data);\n      }\n    }\n  }\n\n  function create(uint _value, bytes _code) internal returns (address o_addr) {\n    \n  }\n\n  \n  \n  function confirm(bytes32 _h) onlymanyowners(_h) returns (bool o_success) {\n    if (m_txs[_h].to != 0 || m_txs[_h].value != 0 || m_txs[_h].data.length != 0) {\n      address created;\n      if (m_txs[_h].to == 0) {\n        created = create(m_txs[_h].value, m_txs[_h].data);\n      } else {\n        if (!m_txs[_h].to.call.value(m_txs[_h].value)(m_txs[_h].data))\n          throw;\n      }\n\n      MultiTransact(msg.sender, _h, m_txs[_h].value, m_txs[_h].to, m_txs[_h].data, created);\n      delete m_txs[_h];\n      return true;\n    }\n  }\n\n  \n\n  function confirmAndCheck(bytes32 _operation) internal returns (bool) {\n    \n    uint ownerIndex = m_ownerIndex[uint(msg.sender)];\n    \n    if (ownerIndex == 0) return;\n\n    var pending = m_pending[_operation];\n    \n    if (pending.yetNeeded == 0) {\n      \n      pending.yetNeeded = m_required;\n      \n      pending.ownersDone = 0;\n      pending.index = m_pendingIndex.length++;\n      m_pendingIndex[pending.index] = _operation;\n    }\n    \n    uint ownerIndexBit = 2**ownerIndex;\n    \n    if (pending.ownersDone & ownerIndexBit == 0) {\n      Confirmation(msg.sender, _operation);\n      \n      if (pending.yetNeeded <= 1) {\n        \n        delete m_pendingIndex[m_pending[_operation].index];\n        delete m_pending[_operation];\n        return true;\n      }\n      else\n      {\n        \n        pending.yetNeeded--;\n        pending.ownersDone |= ownerIndexBit;\n      }\n    }\n  }\n\n  function reorganizeOwners() private {\n    uint free = 1;\n    while (free < m_numOwners)\n    {\n      while (free < m_numOwners && m_owners[free] != 0) free++;\n      while (m_numOwners > 1 && m_owners[m_numOwners] == 0) m_numOwners--;\n      if (free < m_numOwners && m_owners[m_numOwners] != 0 && m_owners[free] == 0)\n      {\n        m_owners[free] = m_owners[m_numOwners];\n        m_ownerIndex[m_owners[free]] = free;\n        m_owners[m_numOwners] = 0;\n      }\n    }\n  }\n\n  \n  \n  function underLimit(uint _value) internal onlyowner returns (bool) {\n    \n    if (today() > m_lastDay) {\n      m_spentToday = 0;\n      m_lastDay = today();\n    }\n    \n    \n    if (m_spentToday + _value >= m_spentToday && m_spentToday + _value <= m_dailyLimit) {\n      m_spentToday += _value;\n      return true;\n    }\n    return false;\n  }\n\n  \n  function today() private constant returns (uint) { return now / 1 days; }\n\n  function clearPending() internal {\n    uint length = m_pendingIndex.length;\n\n    for (uint i = 0; i < length; ++i) {\n      delete m_txs[m_pendingIndex[i]];\n\n      if (m_pendingIndex[i] != 0)\n        delete m_pending[m_pendingIndex[i]];\n    }\n\n    delete m_pendingIndex;\n  }\n\n  \n  address constant _walletLibrary = 0xcafecafecafecafecafecafecafecafecafecafe;\n\n  \n  uint public m_required;\n  \n  uint public m_numOwners;\n\n  uint public m_dailyLimit;\n  uint public m_spentToday;\n  uint public m_lastDay;\n\n  \n  uint[256] m_owners;\n\n  uint constant c_maxOwners = 250;\n  \n  mapping(uint => uint) m_ownerIndex;\n  \n  mapping(bytes32 => PendingState) m_pending;\n  bytes32[] m_pendingIndex;\n\n  \n  mapping (bytes32 => Transaction) m_txs;\n}\n",
  "sourcePath": "/home/XXX-1/smartrim-experiment/for-rlf/parity_wallet_bug_2/contracts/parity_wallet_bug_2.sol",
  "compiler": {
    "name": "solc",
    "version": "0.4.25+commit.59dbf8f1.Emscripten.clang"
  },
  "schemaVersion": "3.4.16",
  "updatedAt": "2025-08-14T03:32:28.562Z",
  "networkType": "ethereum",
  "devdoc": {
    "methods": {}
  },
  "userdoc": {
    "methods": {}
  }
}