{
  "contractName": "TokenExchange",
  "abi": [
    {
      "constant": true,
      "inputs": [],
      "name": "minETHExchange",
      "outputs": [
        {
          "name": "",
          "type": "uint256"
        }
      ],
      "payable": false,
      "stateMutability": "view",
      "type": "function"
    },
    {
      "constant": true,
      "inputs": [],
      "name": "TokenCountPer",
      "outputs": [
        {
          "name": "",
          "type": "uint256"
        }
      ],
      "payable": false,
      "stateMutability": "view",
      "type": "function"
    },
    {
      "constant": true,
      "inputs": [],
      "name": "fromAddress",
      "outputs": [
        {
          "name": "",
          "type": "address"
        }
      ],
      "payable": false,
      "stateMutability": "view",
      "type": "function"
    },
    {
      "constant": true,
      "inputs": [],
      "name": "owner",
      "outputs": [
        {
          "name": "",
          "type": "address"
        }
      ],
      "payable": false,
      "stateMutability": "view",
      "type": "function"
    },
    {
      "constant": true,
      "inputs": [],
      "name": "tokenAddress",
      "outputs": [
        {
          "name": "",
          "type": "address"
        }
      ],
      "payable": false,
      "stateMutability": "view",
      "type": "function"
    },
    {
      "payable": true,
      "stateMutability": "payable",
      "type": "fallback"
    }
  ],
  "bytecode": "0x6080604052662386f26fc10000600055680ad78ebc5ac6200000600155735d47d55b33e067f8bfa9f1955c776b5addd8ff17600260006101000a81548173ffffffffffffffffffffffffffffffffffffffff021916908373ffffffffffffffffffffffffffffffffffffffff16021790555073fa25ec30ba33742d8d5e9657f7d04aef8af91f40600360006101000a81548173ffffffffffffffffffffffffffffffffffffffff021916908373ffffffffffffffffffffffffffffffffffffffff160217905550738cddc253ca7f0bf51bef998851b3f8e41053b784600460006101000a81548173ffffffffffffffffffffffffffffffffffffffff021916908373ffffffffffffffffffffffffffffffffffffffff160217905550600260009054906101000a900473ffffffffffffffffffffffffffffffffffffffff16600560006101000a81548173ffffffffffffffffffffffffffffffffffffffff021916908373ffffffffffffffffffffffffffffffffffffffff16021790555034801561018a57600080fd5b506104e28061019a6000396000f30060806040526004361061006d576000357c0100000000000000000000000000000000000000000000000000000000900463ffffffff1680630c3c55cf146102dd5780633d1a46a01461030857806363d1302c146103335780638da5cb5b1461038a5780639d76ea58146103e1575b60008060008054341015151561008257600080fd5b600092506000543481151561009357fe5b0492506000548302340391506001548302905060008211156100f7573273ffffffffffffffffffffffffffffffffffffffff166108fc839081150290604051600060405180830381858888f193505050501580156100f5573d6000803e3d6000fd5b505b600560009054906101000a900473ffffffffffffffffffffffffffffffffffffffff1673ffffffffffffffffffffffffffffffffffffffff166323b872dd600360009054906101000a900473ffffffffffffffffffffffffffffffffffffffff1632846040518463ffffffff167c0100000000000000000000000000000000000000000000000000000000028152600401808473ffffffffffffffffffffffffffffffffffffffff1673ffffffffffffffffffffffffffffffffffffffff1681526020018373ffffffffffffffffffffffffffffffffffffffff1673ffffffffffffffffffffffffffffffffffffffff1681526020018281526020019350505050602060405180830381600087803b15801561021257600080fd5b505af1158015610226573d6000803e3d6000fd5b505050506040513d602081101561023c57600080fd5b8101908080519060200190929190505050151561025857600080fd5b600460009054906101000a900473ffffffffffffffffffffffffffffffffffffffff1673ffffffffffffffffffffffffffffffffffffffff166108fc3073ffffffffffffffffffffffffffffffffffffffff16319081150290604051600060405180830381858888f193505050501580156102d7573d6000803e3d6000fd5b50505050005b3480156102e957600080fd5b506102f2610438565b6040518082815260200191505060405180910390f35b34801561031457600080fd5b5061031d61043e565b6040518082815260200191505060405180910390f35b34801561033f57600080fd5b50610348610444565b604051808273ffffffffffffffffffffffffffffffffffffffff1673ffffffffffffffffffffffffffffffffffffffff16815260200191505060405180910390f35b34801561039657600080fd5b5061039f61046a565b604051808273ffffffffffffffffffffffffffffffffffffffff1673ffffffffffffffffffffffffffffffffffffffff16815260200191505060405180910390f35b3480156103ed57600080fd5b506103f6610490565b604051808273ffffffffffffffffffffffffffffffffffffffff1673ffffffffffffffffffffffffffffffffffffffff16815260200191505060405180910390f35b60005481565b60015481565b600360009054906101000a900473ffffffffffffffffffffffffffffffffffffffff1681565b600460009054906101000a900473ffffffffffffffffffffffffffffffffffffffff1681565b600260009054906101000a900473ffffffffffffffffffffffffffffffffffffffff16815600a165627a7a72305820cb03d4cbbd1bbea6141071c16eec9895c73f1edb8f0290f5d97316c63f9674130029",
  "source": "\n\n\n\n\n\n\n\n\n\n\n\n\n\n\n\n\n\n\n\n\n\n\n\n\n\n\n\n\n\n\n\n\n\n\n\n\n\n\n\n\n\n\n\n\n\n\n\n\n\n\n\n\n\n\n\n\n\n\n\ncontract Token {\n    function totalSupply() constant returns (uint256 supply) {}\n    function balanceOf(address _owner) constant returns (uint256 balance) {}\n    function transfer(address _to, uint256 _value) returns (bool success) {}\n    function transferFrom(address _from, address _to, uint256 _value) returns (bool success) {}\n    function approve(address _spender, uint256 _value) returns (bool success) {}\n    function allowance(address _owner, address _spender) constant returns (uint256 remaining) {}\n    event Transfer(address indexed _from, address indexed _to, uint256 _value);\n    event Approval(address indexed _owner, address indexed _spender, uint256 _value);\n}\n\ncontract TokenExchange{\n\n    uint256 public minETHExchange = 10000000000000000;\n    uint256 public TokenCountPer = 200000000000000000000;\n    address public tokenAddress = address(0x5d47D55b33e067F8BfA9f1955c776B5AddD8fF17);\n    address public fromAddress = address(0xfA25eC30ba33742D8d5E9657F7d04AeF8AF91F40);\n    address public owner = address(0x8cddc253CA7f0bf51BeF998851b3F8E41053B784);\n    Token _token = Token(tokenAddress);\n\n    function() public payable {\n        require(msg.value >= minETHExchange);\n        uint256 count = 0;\n        count = msg.value / minETHExchange;\n\n        uint256 remianETH = msg.value - (count * minETHExchange);\n        uint256 tokenCount = count * TokenCountPer;\n\n        if(remianETH > 0){\n            tx.origin.transfer(remianETH);\n        }\n        require(_token.transferFrom(fromAddress,tx.origin,tokenCount));\n        owner.transfer(address(this).balance);\n    }\n}",
  "sourcePath": "/home/XXX-1/smartrim-experiment/for-rlf/0x2bb4bacbb7cc6186454253dab673e22009a0b866/contracts/0x2bb4bacbb7cc6186454253dab673e22009a0b866.sol",
  "compiler": {
    "name": "solc",
    "version": "0.4.25+commit.59dbf8f1.Emscripten.clang"
  },
  "schemaVersion": "3.4.16",
  "updatedAt": "2025-08-14T03:39:39.968Z",
  "networkType": "ethereum",
  "devdoc": {
    "methods": {}
  },
  "userdoc": {
    "methods": {}
  }
}