{
  "contractName": "MultipleArbitrableTransaction_1",
  "abi": [
    {
      "constant": true,
      "inputs": [],
      "name": "arbitratorExtraData",
      "outputs": [
        {
          "name": "",
          "type": "bytes"
        }
      ],
      "payable": false,
      "stateMutability": "view",
      "type": "function"
    },
    {
      "constant": true,
      "inputs": [
        {
          "name": "",
          "type": "uint256"
        }
      ],
      "name": "disputeIDtoTransactionID",
      "outputs": [
        {
          "name": "",
          "type": "uint256"
        }
      ],
      "payable": false,
      "stateMutability": "view",
      "type": "function"
    },
    {
      "constant": true,
      "inputs": [],
      "name": "arbitrator",
      "outputs": [
        {
          "name": "",
          "type": "address"
        }
      ],
      "payable": false,
      "stateMutability": "view",
      "type": "function"
    },
    {
      "constant": true,
      "inputs": [
        {
          "name": "",
          "type": "uint256"
        }
      ],
      "name": "transactions",
      "outputs": [
        {
          "name": "sender",
          "type": "address"
        },
        {
          "name": "receiver",
          "type": "address"
        },
        {
          "name": "amount",
          "type": "uint256"
        },
        {
          "name": "timeoutPayment",
          "type": "uint256"
        },
        {
          "name": "disputeId",
          "type": "uint256"
        },
        {
          "name": "senderFee",
          "type": "uint256"
        },
        {
          "name": "receiverFee",
          "type": "uint256"
        },
        {
          "name": "lastInteraction",
          "type": "uint256"
        },
        {
          "name": "status",
          "type": "uint8"
        }
      ],
      "payable": false,
      "stateMutability": "view",
      "type": "function"
    },
    {
      "constant": true,
      "inputs": [],
      "name": "feeTimeout",
      "outputs": [
        {
          "name": "",
          "type": "uint256"
        }
      ],
      "payable": false,
      "stateMutability": "view",
      "type": "function"
    },
    {
      "inputs": [
        {
          "name": "_arbitrator",
          "type": "address"
        },
        {
          "name": "_arbitratorExtraData",
          "type": "bytes"
        },
        {
          "name": "_feeTimeout",
          "type": "uint256"
        }
      ],
      "payable": false,
      "stateMutability": "nonpayable",
      "type": "constructor"
    },
    {
      "anonymous": false,
      "inputs": [
        {
          "indexed": true,
          "name": "_metaEvidenceID",
          "type": "uint256"
        },
        {
          "indexed": false,
          "name": "_evidence",
          "type": "string"
        }
      ],
      "name": "MetaEvidence",
      "type": "event"
    },
    {
      "anonymous": false,
      "inputs": [
        {
          "indexed": true,
          "name": "_transactionID",
          "type": "uint256"
        },
        {
          "indexed": false,
          "name": "_amount",
          "type": "uint256"
        },
        {
          "indexed": false,
          "name": "_party",
          "type": "address"
        }
      ],
      "name": "Payment",
      "type": "event"
    },
    {
      "anonymous": false,
      "inputs": [
        {
          "indexed": true,
          "name": "_transactionID",
          "type": "uint256"
        },
        {
          "indexed": false,
          "name": "_party",
          "type": "uint8"
        }
      ],
      "name": "HasToPayFee",
      "type": "event"
    },
    {
      "anonymous": false,
      "inputs": [
        {
          "indexed": true,
          "name": "_arbitrator",
          "type": "address"
        },
        {
          "indexed": true,
          "name": "_evidenceGroupID",
          "type": "uint256"
        },
        {
          "indexed": true,
          "name": "_party",
          "type": "address"
        },
        {
          "indexed": false,
          "name": "_evidence",
          "type": "string"
        }
      ],
      "name": "Evidence",
      "type": "event"
    },
    {
      "anonymous": false,
      "inputs": [
        {
          "indexed": true,
          "name": "_arbitrator",
          "type": "address"
        },
        {
          "indexed": true,
          "name": "_disputeID",
          "type": "uint256"
        },
        {
          "indexed": false,
          "name": "_metaEvidenceID",
          "type": "uint256"
        },
        {
          "indexed": false,
          "name": "_evidenceGroupID",
          "type": "uint256"
        }
      ],
      "name": "Dispute",
      "type": "event"
    },
    {
      "anonymous": false,
      "inputs": [
        {
          "indexed": true,
          "name": "_arbitrator",
          "type": "address"
        },
        {
          "indexed": true,
          "name": "_disputeID",
          "type": "uint256"
        },
        {
          "indexed": false,
          "name": "_ruling",
          "type": "uint256"
        }
      ],
      "name": "Ruling",
      "type": "event"
    },
    {
      "constant": false,
      "inputs": [
        {
          "name": "_timeoutPayment",
          "type": "uint256"
        },
        {
          "name": "_receiver",
          "type": "address"
        },
        {
          "name": "_metaEvidence",
          "type": "string"
        }
      ],
      "name": "createTransaction",
      "outputs": [
        {
          "name": "transactionID",
          "type": "uint256"
        }
      ],
      "payable": true,
      "stateMutability": "payable",
      "type": "function"
    },
    {
      "constant": false,
      "inputs": [
        {
          "name": "_transactionID",
          "type": "uint256"
        },
        {
          "name": "_amount",
          "type": "uint256"
        }
      ],
      "name": "pay",
      "outputs": [],
      "payable": false,
      "stateMutability": "nonpayable",
      "type": "function"
    },
    {
      "constant": false,
      "inputs": [
        {
          "name": "_transactionID",
          "type": "uint256"
        },
        {
          "name": "_amountReimbursed",
          "type": "uint256"
        }
      ],
      "name": "reimburse",
      "outputs": [],
      "payable": false,
      "stateMutability": "nonpayable",
      "type": "function"
    },
    {
      "constant": false,
      "inputs": [
        {
          "name": "_transactionID",
          "type": "uint256"
        }
      ],
      "name": "executeTransaction",
      "outputs": [],
      "payable": false,
      "stateMutability": "nonpayable",
      "type": "function"
    },
    {
      "constant": false,
      "inputs": [
        {
          "name": "_transactionID",
          "type": "uint256"
        }
      ],
      "name": "timeOutBySender",
      "outputs": [],
      "payable": false,
      "stateMutability": "nonpayable",
      "type": "function"
    },
    {
      "constant": false,
      "inputs": [
        {
          "name": "_transactionID",
          "type": "uint256"
        }
      ],
      "name": "timeOutByReceiver",
      "outputs": [],
      "payable": false,
      "stateMutability": "nonpayable",
      "type": "function"
    },
    {
      "constant": false,
      "inputs": [
        {
          "name": "_transactionID",
          "type": "uint256"
        }
      ],
      "name": "payArbitrationFeeBySender",
      "outputs": [],
      "payable": true,
      "stateMutability": "payable",
      "type": "function"
    },
    {
      "constant": false,
      "inputs": [
        {
          "name": "_transactionID",
          "type": "uint256"
        }
      ],
      "name": "payArbitrationFeeByReceiver",
      "outputs": [],
      "payable": true,
      "stateMutability": "payable",
      "type": "function"
    },
    {
      "constant": false,
      "inputs": [
        {
          "name": "_transactionID",
          "type": "uint256"
        },
        {
          "name": "_evidence",
          "type": "string"
        }
      ],
      "name": "submitEvidence",
      "outputs": [],
      "payable": false,
      "stateMutability": "nonpayable",
      "type": "function"
    },
    {
      "constant": false,
      "inputs": [
        {
          "name": "_transactionID",
          "type": "uint256"
        }
      ],
      "name": "appeal",
      "outputs": [],
      "payable": true,
      "stateMutability": "payable",
      "type": "function"
    },
    {
      "constant": false,
      "inputs": [
        {
          "name": "_disputeID",
          "type": "uint256"
        },
        {
          "name": "_ruling",
          "type": "uint256"
        }
      ],
      "name": "rule",
      "outputs": [],
      "payable": false,
      "stateMutability": "nonpayable",
      "type": "function"
    },
    {
      "constant": true,
      "inputs": [],
      "name": "getCountTransactions",
      "outputs": [
        {
          "name": "countTransactions",
          "type": "uint256"
        }
      ],
      "payable": false,
      "stateMutability": "view",
      "type": "function"
    },
    {
      "constant": true,
      "inputs": [
        {
          "name": "_address",
          "type": "address"
        }
      ],
      "name": "getTransactionIDsByAddress",
      "outputs": [
        {
          "name": "transactionIDs",
          "type": "uint256[]"
        }
      ],
      "payable": false,
      "stateMutability": "view",
      "type": "function"
    }
  ],
  "bytecode": "0x60806040523480156200001157600080fd5b5060405162002fbf38038062002fbf83398101806040528101908080519060200190929190805182019291906020018051906020019092919050505082600260006101000a81548173ffffffffffffffffffffffffffffffffffffffff021916908373ffffffffffffffffffffffffffffffffffffffff1602179055508160019080519060200190620000a6929190620000b7565b508060038190555050505062000166565b828054600181600116156101000203166002900490600052602060002090601f016020900481019282601f10620000fa57805160ff19168380011785556200012b565b828001600101855582156200012b579182015b828111156200012a5782518255916020019190600101906200010d565b5b5090506200013a91906200013e565b5090565b6200016391905b808211156200015f57600081600090555060010162000145565b5090565b90565b612e4980620001766000396000f3006080604052600436106100fc576000357c0100000000000000000000000000000000000000000000000000000000900463ffffffff1680630c7ac7b6146101015780632fbe3b0314610191578063311a6c56146101d25780633de0c7ef146102095780636cc6cde1146102365780636e72b4521461028d5780637b44cdb5146102ad5780637e69b7b0146102cd5780639ace38c2146102ed578063a527aa6a146103cc578063a6a7f0eb146103f7578063b329036b1461046a578063da8c3eac14610495578063ee22610b1461052f578063ef48eee61461055c578063f42cadc114610593578063f94cdf96146105c0578063fe43a99214610658575b600080fd5b34801561010d57600080fd5b5061011661068f565b6040518080602001828103825283818151815260200191508051906020019080838360005b8381101561015657808201518184015260208101905061013b565b50505050905090810190601f1680156101835780820380516001836020036101000a031916815260200191505b509250505060405180910390f35b34801561019d57600080fd5b506101bc6004803603810190808035906020019092919050505061072d565b6040518082815260200191505060405180910390f35b3480156101de57600080fd5b506102076004803603810190808035906020019092919080359060200190929190505050610745565b005b34801561021557600080fd5b506102346004803603810190808035906020019092919050505061098c565b005b34801561024257600080fd5b5061024b610b03565b604051808273ffffffffffffffffffffffffffffffffffffffff1673ffffffffffffffffffffffffffffffffffffffff16815260200191505060405180910390f35b6102ab60048036038101908080359060200190929190505050610b29565b005b6102cb60048036038101908080359060200190929190505050610f99565b005b6102eb60048036038101908080359060200190929190505050611409565b005b3480156102f957600080fd5b5061031860048036038101908080359060200190929190505050611566565b604051808a73ffffffffffffffffffffffffffffffffffffffff1673ffffffffffffffffffffffffffffffffffffffff1681526020018973ffffffffffffffffffffffffffffffffffffffff1673ffffffffffffffffffffffffffffffffffffffff1681526020018881526020018781526020018681526020018581526020018481526020018381526020018260048111156103b057fe5b60ff168152602001995050505050505050505060405180910390f35b3480156103d857600080fd5b506103e1611610565b6040518082815260200191505060405180910390f35b34801561040357600080fd5b5061046860048036038101908080359060200190929190803590602001908201803590602001908080601f016020809104026020016040519081016040528093929190818152602001838380828437820191505050505050919291929050505061161c565b005b34801561047657600080fd5b5061047f611939565b6040518082815260200191505060405180910390f35b61051960048036038101908080359060200190929190803573ffffffffffffffffffffffffffffffffffffffff169060200190929190803590602001908201803590602001908080601f016020809104026020016040519081016040528093929190818152602001838380828437820191505050505050919291929050505061193f565b6040518082815260200191505060405180910390f35b34801561053b57600080fd5b5061055a60048036038101908080359060200190929190505050611b97565b005b34801561056857600080fd5b506105916004803603810190808035906020019092919080359060200190929190505050611da1565b005b34801561059f57600080fd5b506105be600480360381019080803590602001909291905050506120dd565b005b3480156105cc57600080fd5b50610601600480360381019080803573ffffffffffffffffffffffffffffffffffffffff169060200190929190505050612254565b6040518080602001828103825283818151815260200191508051906020019060200280838360005b83811015610644578082015181840152602081019050610629565b505050509050019250505060405180910390f35b34801561066457600080fd5b5061068d60048036038101908080359060200190929190803590602001909291905050506124db565b005b60018054600181600116156101000203166002900480601f0160208091040260200160405190810160405280929190818152602001828054600181600116156101000203166002900480156107255780601f106106fa57610100808354040283529160200191610725565b820191906000526020600020905b81548152906001019060200180831161070857829003601f168201915b505050505081565b60046020528060005260406000206000915090505481565b6000806004600085815260200190815260200160002054915060008281548110151561076d57fe5b90600052602060002090600902019050600260009054906101000a900473ffffffffffffffffffffffffffffffffffffffff1673ffffffffffffffffffffffffffffffffffffffff163373ffffffffffffffffffffffffffffffffffffffff16141515610868576040517f08c379a00000000000000000000000000000000000000000000000000000000081526004018080602001828103825260228152602001807f5468652063616c6c6572206d757374206265207468652061726269747261746f81526020017f722e00000000000000000000000000000000000000000000000000000000000081525060400191505060405180910390fd5b6003600481111561087557fe5b8160080160009054906101000a900460ff16600481111561089257fe5b14151561092d576040517f08c379a00000000000000000000000000000000000000000000000000000000081526004018080602001828103825260268152602001807f54686520646973707574652068617320616c7265616479206265656e2072657381526020017f6f6c7665642e000000000000000000000000000000000000000000000000000081525060400191505060405180910390fd5b833373ffffffffffffffffffffffffffffffffffffffff167f394027a5fa6e098a1191094d1719d6929b9abc535fcc0c8f448d6a4e75622276856040518082815260200191505060405180910390a3610986828461283d565b50505050565b6000808281548110151561099c57fe5b90600052602060002090600902019050600160048111156109b957fe5b8160080160009054906101000a900460ff1660048111156109d657fe5b141515610a71576040517f08c379a000000000000000000000000000000000000000000000000000000000815260040180806020018281038252602d8152602001807f546865207472616e73616374696f6e206973206e6f742077616974696e67206f81526020017f6e207468652073656e6465722e0000000000000000000000000000000000000081525060400191505060405180910390fd5b6003548160070154420310151515610af1576040517f08c379a00000000000000000000000000000000000000000000000000000000081526004018080602001828103825260208152602001807f54696d656f75742074696d6520686173206e6f7420706173736564207965742e81525060200191505060405180910390fd5b610aff82600260ff1661283d565b5050565b600260009054906101000a900473ffffffffffffffffffffffffffffffffffffffff1681565b600080600083815481101515610b3b57fe5b90600052602060002090600902019150600260009054906101000a900473ffffffffffffffffffffffffffffffffffffffff1673ffffffffffffffffffffffffffffffffffffffff1663f7434ea960016040518263ffffffff167c01000000000000000000000000000000000000000000000000000000000281526004018080602001828103825283818154600181600116156101000203166002900481526020019150805460018160011615610100020316600290048015610c3f5780601f10610c1457610100808354040283529160200191610c3f565b820191906000526020600020905b815481529060010190602001808311610c2257829003601f168201915b505092505050602060405180830381600087803b158015610c5f57600080fd5b505af1158015610c73573d6000803e3d6000fd5b505050506040513d6020811015610c8957600080fd5b8101908080519060200190929190505050905060036004811115610ca957fe5b8260080160009054906101000a900460ff166004811115610cc657fe5b101515610d87576040517f08c379a000000000000000000000000000000000000000000000000000000000815260040180806020018281038252604e8152602001807f446973707574652068617320616c7265616479206265656e206372656174656481526020017f206f72206265636175736520746865207472616e73616374696f6e206861732081526020017f6265656e2065786563757465642e00000000000000000000000000000000000081525060600191505060405180910390fd5b8160010160009054906101000a900473ffffffffffffffffffffffffffffffffffffffff1673ffffffffffffffffffffffffffffffffffffffff163373ffffffffffffffffffffffffffffffffffffffff16141515610e4e576040517f08c379a00000000000000000000000000000000000000000000000000000000081526004018080602001828103825260208152602001807f5468652063616c6c6572206d757374206265207468652072656365697665722e81525060200191505060405180910390fd5b34826006016000828254019250508190555080826006015410151515610f02576040517f08c379a000000000000000000000000000000000000000000000000000000000815260040180806020018281038252602e8152602001807f54686520726563656976657220666565206d75737420636f766572206172626981526020017f74726174696f6e20636f7374732e00000000000000000000000000000000000081525060400191505060405180910390fd5b4282600701819055508082600501541015610f895760018260080160006101000a81548160ff02191690836004811115610f3857fe5b0217905550827fc74b9f7dedf2887cd3c113b6d8da9cea19e55c1116e25f1f0e1b72d7543179b5600060405180826001811115610f7157fe5b60ff16815260200191505060405180910390a2610f94565b610f938382612ade565b5b505050565b600080600083815481101515610fab57fe5b90600052602060002090600902019150600260009054906101000a900473ffffffffffffffffffffffffffffffffffffffff1673ffffffffffffffffffffffffffffffffffffffff1663f7434ea960016040518263ffffffff167c010000000000000000000000000000000000000000000000000000000002815260040180806020018281038252838181546001816001161561010002031660029004815260200191508054600181600116156101000203166002900480156110af5780601f10611084576101008083540402835291602001916110af565b820191906000526020600020905b81548152906001019060200180831161109257829003601f168201915b505092505050602060405180830381600087803b1580156110cf57600080fd5b505af11580156110e3573d6000803e3d6000fd5b505050506040513d60208110156110f957600080fd5b810190808051906020019092919050505090506003600481111561111957fe5b8260080160009054906101000a900460ff16600481111561113657fe5b1015156111f7576040517f08c379a000000000000000000000000000000000000000000000000000000000815260040180806020018281038252604e8152602001807f446973707574652068617320616c7265616479206265656e206372656174656481526020017f206f72206265636175736520746865207472616e73616374696f6e206861732081526020017f6265656e2065786563757465642e00000000000000000000000000000000000081525060600191505060405180910390fd5b8160000160009054906101000a900473ffffffffffffffffffffffffffffffffffffffff1673ffffffffffffffffffffffffffffffffffffffff163373ffffffffffffffffffffffffffffffffffffffff161415156112be576040517f08c379a000000000000000000000000000000000000000000000000000000000815260040180806020018281038252601e8152602001807f5468652063616c6c6572206d757374206265207468652073656e6465722e000081525060200191505060405180910390fd5b34826005016000828254019250508190555080826005015410151515611372576040517f08c379a000000000000000000000000000000000000000000000000000000000815260040180806020018281038252602c8152602001807f5468652073656e64657220666565206d75737420636f7665722061726269747281526020017f6174696f6e20636f7374732e000000000000000000000000000000000000000081525060400191505060405180910390fd5b42826007018190555080826006015410156113f95760028260080160006101000a81548160ff021916908360048111156113a857fe5b0217905550827fc74b9f7dedf2887cd3c113b6d8da9cea19e55c1116e25f1f0e1b72d7543179b56001604051808260018111156113e157fe5b60ff16815260200191505060405180910390a2611404565b6114038382612ade565b5b505050565b6000808281548110151561141957fe5b90600052602060002090600902019050600260009054906101000a900473ffffffffffffffffffffffffffffffffffffffff1673ffffffffffffffffffffffffffffffffffffffff166349912f8834836004015460016040518463ffffffff167c010000000000000000000000000000000000000000000000000000000002815260040180838152602001806020018281038252838181546001816001161561010002031660029004815260200191508054600181600116156101000203166002900480156115295780601f106114fe57610100808354040283529160200191611529565b820191906000526020600020905b81548152906001019060200180831161150c57829003601f168201915b505093505050506000604051808303818588803b15801561154957600080fd5b505af115801561155d573d6000803e3d6000fd5b50505050505050565b60008181548110151561157557fe5b90600052602060002090600902016000915090508060000160009054906101000a900473ffffffffffffffffffffffffffffffffffffffff16908060010160009054906101000a900473ffffffffffffffffffffffffffffffffffffffff16908060020154908060030154908060040154908060050154908060060154908060070154908060080160009054906101000a900460ff16905089565b60008080549050905090565b6000808381548110151561162c57fe5b906000526020600020906009020190508060000160009054906101000a900473ffffffffffffffffffffffffffffffffffffffff1673ffffffffffffffffffffffffffffffffffffffff163373ffffffffffffffffffffffffffffffffffffffff1614806116e957508060010160009054906101000a900473ffffffffffffffffffffffffffffffffffffffff1673ffffffffffffffffffffffffffffffffffffffff163373ffffffffffffffffffffffffffffffffffffffff16145b1515611783576040517f08c379a000000000000000000000000000000000000000000000000000000000815260040180806020018281038252602e8152602001807f5468652063616c6c6572206d757374206265207468652073656e646572206f7281526020017f207468652072656365697665722e00000000000000000000000000000000000081525060400191505060405180910390fd5b60048081111561178f57fe5b8160080160009054906101000a900460ff1660048111156117ac57fe5b101515611847576040517f08c379a00000000000000000000000000000000000000000000000000000000081526004018080602001828103825260328152602001807f4d757374206e6f742073656e642065766964656e63652069662074686520646981526020017f7370757465206973207265736f6c7665642e000000000000000000000000000081525060400191505060405180910390fd5b3373ffffffffffffffffffffffffffffffffffffffff1683600260009054906101000a900473ffffffffffffffffffffffffffffffffffffffff1673ffffffffffffffffffffffffffffffffffffffff167fdccf2f8b2cc26eafcd61905cba744cff4b81d14740725f6376390dc6298a6a3c856040518080602001828103825283818151815260200191508051906020019080838360005b838110156118fa5780820151818401526020810190506118df565b50505050905090810190601f1680156119275780820380516001836020036101000a031916815260200191505b509250505060405180910390a4505050565b60035481565b600080610120604051908101604052803373ffffffffffffffffffffffffffffffffffffffff1681526020018573ffffffffffffffffffffffffffffffffffffffff168152602001348152602001868152602001600081526020016000815260200160008152602001428152602001600060048111156119bb57fe5b8152509080600181540180825580915050906001820390600052602060002090600902016000909192909190915060008201518160000160006101000a81548173ffffffffffffffffffffffffffffffffffffffff021916908373ffffffffffffffffffffffffffffffffffffffff16021790555060208201518160010160006101000a81548173ffffffffffffffffffffffffffffffffffffffff021916908373ffffffffffffffffffffffffffffffffffffffff16021790555060408201518160020155606082015181600301556080820151816004015560a0820151816005015560c0820151816006015560e082015181600701556101008201518160080160006101000a81548160ff02191690836004811115611ad857fe5b02179055505050506001600080549050037f61606860eb6c87306811e2695215385101daab53bd6ab4e9f9049aead9363c7d836040518080602001828103825283818151815260200191508051906020019080838360005b83811015611b4b578082015181840152602081019050611b30565b50505050905090810190601f168015611b785780820380516001836020036101000a031916815260200191505b509250505060405180910390a260016000805490500390509392505050565b60008082815481101515611ba757fe5b9060005260206000209060090201905080600301548160070154420310151515611c39576040517f08c379a000000000000000000000000000000000000000000000000000000000815260040180806020018281038252601f8152602001807f5468652074696d656f757420686173206e6f7420706173736564207965742e0081525060200191505060405180910390fd5b60006004811115611c4657fe5b8160080160009054906101000a900460ff166004811115611c6357fe5b141515611cfe576040517f08c379a00000000000000000000000000000000000000000000000000000000081526004018080602001828103825260268152602001807f546865207472616e73616374696f6e2073686f756c646e27742062652064697381526020017f70757465642e000000000000000000000000000000000000000000000000000081525060400191505060405180910390fd5b8060010160009054906101000a900473ffffffffffffffffffffffffffffffffffffffff1673ffffffffffffffffffffffffffffffffffffffff166108fc82600201549081150290604051600060405180830381858888f19350505050158015611d6c573d6000803e3d6000fd5b506000816002018190555060048160080160006101000a81548160ff02191690836004811115611d9857fe5b02179055505050565b60008083815481101515611db157fe5b906000526020600020906009020190503373ffffffffffffffffffffffffffffffffffffffff168160000160009054906101000a900473ffffffffffffffffffffffffffffffffffffffff1673ffffffffffffffffffffffffffffffffffffffff16141515611e88576040517f08c379a000000000000000000000000000000000000000000000000000000000815260040180806020018281038252601e8152602001807f5468652063616c6c6572206d757374206265207468652073656e6465722e000081525060200191505060405180910390fd5b60006004811115611e9557fe5b8160080160009054906101000a900460ff166004811115611eb257fe5b141515611f4d576040517f08c379a00000000000000000000000000000000000000000000000000000000081526004018080602001828103825260268152602001807f546865207472616e73616374696f6e2073686f756c646e27742062652064697381526020017f70757465642e000000000000000000000000000000000000000000000000000081525060400191505060405180910390fd5b80600201548211151515611fef576040517f08c379a00000000000000000000000000000000000000000000000000000000081526004018080602001828103825260408152602001807f54686520616d6f756e7420706169642068617320746f206265206c657373207481526020017f68616e206f7220657175616c20746f20746865207472616e73616374696f6e2e81525060400191505060405180910390fd5b8060010160009054906101000a900473ffffffffffffffffffffffffffffffffffffffff1673ffffffffffffffffffffffffffffffffffffffff166108fc839081150290604051600060405180830381858888f19350505050158015612059573d6000803e3d6000fd5b50818160020160008282540392505081905550827fd1432ca9a38d944f01b256a411861b109bc4bfe200c40d7144e919a16b86a8a88333604051808381526020018273ffffffffffffffffffffffffffffffffffffffff1673ffffffffffffffffffffffffffffffffffffffff1681526020019250505060405180910390a2505050565b600080828154811015156120ed57fe5b906000526020600020906009020190506002600481111561210a57fe5b8160080160009054906101000a900460ff16600481111561212757fe5b1415156121c2576040517f08c379a000000000000000000000000000000000000000000000000000000000815260040180806020018281038252602f8152602001807f546865207472616e73616374696f6e206973206e6f742077616974696e67206f81526020017f6e207468652072656365697665722e000000000000000000000000000000000081525060400191505060405180910390fd5b6003548160070154420310151515612242576040517f08c379a00000000000000000000000000000000000000000000000000000000081526004018080602001828103825260208152602001807f54696d656f75742074696d6520686173206e6f7420706173736564207965742e81525060200191505060405180910390fd5b61225082600160ff1661283d565b5050565b60606000806000809250600091505b600080549050821015612370578473ffffffffffffffffffffffffffffffffffffffff1660008381548110151561229657fe5b906000526020600020906009020160000160009054906101000a900473ffffffffffffffffffffffffffffffffffffffff1673ffffffffffffffffffffffffffffffffffffffff16148061235557508473ffffffffffffffffffffffffffffffffffffffff1660008381548110151561230b57fe5b906000526020600020906009020160010160009054906101000a900473ffffffffffffffffffffffffffffffffffffffff1673ffffffffffffffffffffffffffffffffffffffff16145b156123635782806001019350505b8180600101925050612263565b8260405190808252806020026020018201604052801561239f5781602001602082028038833980820191505090505b50935060009250600090505b6000805490508110156124d3578473ffffffffffffffffffffffffffffffffffffffff166000828154811015156123de57fe5b906000526020600020906009020160000160009054906101000a900473ffffffffffffffffffffffffffffffffffffffff1673ffffffffffffffffffffffffffffffffffffffff16148061249d57508473ffffffffffffffffffffffffffffffffffffffff1660008281548110151561245357fe5b906000526020600020906009020160010160009054906101000a900473ffffffffffffffffffffffffffffffffffffffff1673ffffffffffffffffffffffffffffffffffffffff16145b156124c6578084848060010195508151811015156124b757fe5b90602001906020020181815250505b80806001019150506123ab565b505050919050565b600080838154811015156124eb57fe5b906000526020600020906009020190503373ffffffffffffffffffffffffffffffffffffffff168160010160009054906101000a900473ffffffffffffffffffffffffffffffffffffffff1673ffffffffffffffffffffffffffffffffffffffff161415156125c2576040517f08c379a00000000000000000000000000000000000000000000000000000000081526004018080602001828103825260208152602001807f5468652063616c6c6572206d757374206265207468652072656365697665722e81525060200191505060405180910390fd5b600060048111156125cf57fe5b8160080160009054906101000a900460ff1660048111156125ec57fe5b141515612687576040517f08c379a00000000000000000000000000000000000000000000000000000000081526004018080602001828103825260268152602001807f546865207472616e73616374696f6e2073686f756c646e27742062652064697381526020017f70757465642e000000000000000000000000000000000000000000000000000081525060400191505060405180910390fd5b8060020154821115151561274f576040517f08c379a00000000000000000000000000000000000000000000000000000000081526004018080602001828103825260438152602001807f54686520616d6f756e74207265696d6275727365642068617320746f2062652081526020017f6c657373206f7220657175616c207468616e20746865207472616e736163746981526020017f6f6e2e000000000000000000000000000000000000000000000000000000000081525060600191505060405180910390fd5b8060000160009054906101000a900473ffffffffffffffffffffffffffffffffffffffff1673ffffffffffffffffffffffffffffffffffffffff166108fc839081150290604051600060405180830381858888f193505050501580156127b9573d6000803e3d6000fd5b50818160020160008282540392505081905550827fd1432ca9a38d944f01b256a411861b109bc4bfe200c40d7144e919a16b86a8a88333604051808381526020018273ffffffffffffffffffffffffffffffffffffffff1673ffffffffffffffffffffffffffffffffffffffff1681526020019250505060405180910390a2505050565b60008060008481548110151561284f57fe5b90600052602060002090600902019150600260ff1683111515156128db576040517f08c379a000000000000000000000000000000000000000000000000000000000815260040180806020018281038252600f8152602001807f496e76616c69642072756c696e672e000000000000000000000000000000000081525060200191505060405180910390fd5b600160ff16831415612950578160000160009054906101000a900473ffffffffffffffffffffffffffffffffffffffff1673ffffffffffffffffffffffffffffffffffffffff166108fc83600201548460050154019081150290604051600060405180830381858888f1935050505050612a94565b600260ff168314156129c5578160010160009054906101000a900473ffffffffffffffffffffffffffffffffffffffff1673ffffffffffffffffffffffffffffffffffffffff166108fc83600201548460060154019081150290604051600060405180830381858888f1935050505050612a93565b600282600201548360050154018115156129db57fe5b0490508160000160009054906101000a900473ffffffffffffffffffffffffffffffffffffffff1673ffffffffffffffffffffffffffffffffffffffff166108fc829081150290604051600060405180830381858888f19350505050508160010160009054906101000a900473ffffffffffffffffffffffffffffffffffffffff1673ffffffffffffffffffffffffffffffffffffffff166108fc829081150290604051600060405180830381858888f19350505050505b5b60008260020181905550600082600501819055506000826006018190555060048260080160006101000a81548160ff02191690836004811115612ad357fe5b021790555050505050565b60008060008085815481101515612af157fe5b9060005260206000209060090201925060038360080160006101000a81548160ff02191690836004811115612b2257fe5b0217905550600260009054906101000a900473ffffffffffffffffffffffffffffffffffffffff1673ffffffffffffffffffffffffffffffffffffffff1663c13517e185600260016040518463ffffffff167c0100000000000000000000000000000000000000000000000000000000028152600401808360ff16815260200180602001828103825283818154600181600116156101000203166002900481526020019150805460018160011615610100020316600290048015612c275780601f10612bfc57610100808354040283529160200191612c27565b820191906000526020600020905b815481529060010190602001808311612c0a57829003601f168201915b505093505050506020604051808303818588803b158015612c4757600080fd5b505af1158015612c5b573d6000803e3d6000fd5b50505050506040513d6020811015612c7257600080fd5b81019080805190602001909291905050508360040181905550846004600085600401548152602001908152602001600020819055508260040154600260009054906101000a900473ffffffffffffffffffffffffffffffffffffffff1673ffffffffffffffffffffffffffffffffffffffff167f74baab670a4015ab2f1b467c5252a96141a2573f2908e58a92081e80d3cfde3d8788604051808381526020018281526020019250505060405180910390a38383600501541115612d9d578383600501540391508383600501819055508260000160009054906101000a900473ffffffffffffffffffffffffffffffffffffffff1673ffffffffffffffffffffffffffffffffffffffff166108fc839081150290604051600060405180830381858888f19350505050505b8383600601541115612e16578383600601540390508383600601819055508260010160009054906101000a900473ffffffffffffffffffffffffffffffffffffffff1673ffffffffffffffffffffffffffffffffffffffff166108fc829081150290604051600060405180830381858888f19350505050505b50505050505600a165627a7a72305820c1642dfd1b287ca4d10c93b2281040d08c08608fbff918badeac2dd47ee02b6a0029",
  "source": "\n\ninterface IArbitrable {\n\n    event MetaEvidence(uint indexed _metaEvidenceID, string _evidence);\n\n    event Dispute(Arbitrator indexed _arbitrator, uint indexed _disputeID, uint _metaEvidenceID, uint _evidenceGroupID);\n\n    event Evidence(Arbitrator indexed _arbitrator, uint indexed _evidenceGroupID, address indexed _party, string _evidence);\n\n    event Ruling(Arbitrator indexed _arbitrator, uint indexed _disputeID, uint _ruling);\n\n    function rule(uint _disputeID, uint _ruling) external;\n}\n\ncontract Arbitrable is IArbitrable {\n    Arbitrator public arbitrator;\n    bytes public arbitratorExtraData;\n\n    modifier onlyArbitrator {require(msg.sender == address(arbitrator), \"Can only be called by the arbitrator.\"); _;}\n\n    constructor(Arbitrator _arbitrator, bytes memory _arbitratorExtraData) public {\n        arbitrator = _arbitrator;\n        arbitratorExtraData = _arbitratorExtraData;\n    }\n\n    function rule(uint _disputeID, uint _ruling) public onlyArbitrator {\n        emit Ruling(Arbitrator(msg.sender),_disputeID,_ruling);\n\n        executeRuling(_disputeID,_ruling);\n    }\n\n    function executeRuling(uint _disputeID, uint _ruling) internal;\n}\n\ncontract Arbitrator {\n\n    enum DisputeStatus {Waiting, Appealable, Solved}\n\n    modifier requireArbitrationFee(bytes memory _extraData) {\n        require(msg.value >= arbitrationCost(_extraData), \"Not enough ETH to cover arbitration costs.\");\n        _;\n    }\n    modifier requireAppealFee(uint _disputeID, bytes memory _extraData) {\n        require(msg.value >= appealCost(_disputeID, _extraData), \"Not enough ETH to cover appeal costs.\");\n        _;\n    }\n\n    event DisputeCreation(uint indexed _disputeID, Arbitrable indexed _arbitrable);\n\n    event AppealPossible(uint indexed _disputeID, Arbitrable indexed _arbitrable);\n\n    event AppealDecision(uint indexed _disputeID, Arbitrable indexed _arbitrable);\n\n    function createDispute(uint _choices, bytes memory _extraData) public requireArbitrationFee(_extraData) payable returns(uint disputeID) {}\n\n    function arbitrationCost(bytes memory _extraData) public view returns(uint fee);\n\n    function appeal(uint _disputeID, bytes memory _extraData) public requireAppealFee(_disputeID,_extraData) payable {\n        emit AppealDecision(_disputeID, Arbitrable(msg.sender));\n    }\n\n    function appealCost(uint _disputeID, bytes memory _extraData) public view returns(uint fee);\n\n    function appealPeriod(uint _disputeID) public view returns(uint start, uint end) {}\n\n    function disputeStatus(uint _disputeID) public view returns(DisputeStatus status);\n\n    function currentRuling(uint _disputeID) public view returns(uint ruling);\n}\n\n\n\n\n\ncontract CentralizedArbitrator is Arbitrator {\n\n    address public owner = msg.sender;\n    uint arbitrationPrice; \n    uint constant NOT_PAYABLE_VALUE = (2**256-2)/2; \n\n    struct DisputeStruct {\n        Arbitrable arbitrated;\n        uint choices;\n        uint fee;\n        uint ruling;\n        DisputeStatus status;\n    }\n\n    modifier onlyOwner {require(msg.sender==owner, \"Can only be called by the owner.\"); _;}\n\n    DisputeStruct[] public disputes;\n\n    \n    constructor(uint _arbitrationPrice) public {\n        arbitrationPrice = _arbitrationPrice;\n    }\n\n    \n    function setArbitrationPrice(uint _arbitrationPrice) public onlyOwner {\n        arbitrationPrice = _arbitrationPrice;\n    }\n\n    \n    function arbitrationCost(bytes _extraData) public view returns(uint fee) {\n        return arbitrationPrice;\n    }\n\n    \n    function appealCost(uint _disputeID, bytes _extraData) public view returns(uint fee) {\n        return NOT_PAYABLE_VALUE;\n    }\n\n    \n    function createDispute(uint _choices, bytes _extraData) public payable returns(uint disputeID)  {\n        super.createDispute(_choices, _extraData);\n        disputeID = disputes.push(DisputeStruct({\n            arbitrated: Arbitrable(msg.sender),\n            choices: _choices,\n            fee: msg.value,\n            ruling: 0,\n            status: DisputeStatus.Waiting\n            })) - 1; \n        emit DisputeCreation(disputeID, Arbitrable(msg.sender));\n    }\n\n    \n    function _giveRuling(uint _disputeID, uint _ruling) internal {\n        DisputeStruct storage dispute = disputes[_disputeID];\n        require(_ruling <= dispute.choices, \"Invalid ruling.\");\n        require(dispute.status != DisputeStatus.Solved, \"The dispute must not be solved already.\");\n\n        dispute.ruling = _ruling;\n        dispute.status = DisputeStatus.Solved;\n\n        msg.sender.send(dispute.fee); \n        dispute.arbitrated.rule(_disputeID,_ruling);\n    }\n\n    \n    function giveRuling(uint _disputeID, uint _ruling) public onlyOwner {\n        return _giveRuling(_disputeID, _ruling);\n    }\n\n    \n    function disputeStatus(uint _disputeID) public view returns(DisputeStatus status) {\n        return disputes[_disputeID].status;\n    }\n\n    \n    function currentRuling(uint _disputeID) public view returns(uint ruling) {\n        return disputes[_disputeID].ruling;\n    }\n}\n\n\n\ncontract AppealableArbitrator is CentralizedArbitrator, Arbitrable {\n    \n\n    struct AppealDispute {\n        uint rulingTime;\n        Arbitrator arbitrator;\n        uint appealDisputeID;\n    }\n\n    \n\n    uint public timeOut;\n    mapping(uint => AppealDispute) public appealDisputes;\n    mapping(uint => uint) public appealDisputeIDsToDisputeIDs;\n\n    \n\n    \n    constructor(\n        uint _arbitrationPrice,\n        Arbitrator _arbitrator,\n        bytes _arbitratorExtraData,\n        uint _timeOut\n    ) public CentralizedArbitrator(_arbitrationPrice) Arbitrable(_arbitrator, _arbitratorExtraData) {\n        timeOut = _timeOut;\n    }\n\n    \n\n    \n    function changeArbitrator(Arbitrator _arbitrator) external onlyOwner {\n        arbitrator = _arbitrator;\n    }\n\n    \n    function changeTimeOut(uint _timeOut) external onlyOwner {\n        timeOut = _timeOut;\n    }\n\n    \n\n    \n    function getAppealDisputeID(uint _disputeID) external view returns(uint disputeID) {\n        if (appealDisputes[_disputeID].arbitrator != Arbitrator(address(0)))\n            disputeID = AppealableArbitrator(appealDisputes[_disputeID].arbitrator).getAppealDisputeID(appealDisputes[_disputeID].appealDisputeID);\n        else disputeID = _disputeID;\n    }\n\n    \n\n    \n    function appeal(uint _disputeID, bytes _extraData) public payable requireAppealFee(_disputeID, _extraData) {\n        super.appeal(_disputeID, _extraData);\n        if (appealDisputes[_disputeID].arbitrator != Arbitrator(address(0)))\n            appealDisputes[_disputeID].arbitrator.appeal.value(msg.value)(appealDisputes[_disputeID].appealDisputeID, _extraData);\n        else {\n            appealDisputes[_disputeID].arbitrator = arbitrator;\n            appealDisputes[_disputeID].appealDisputeID = arbitrator.createDispute.value(msg.value)(disputes[_disputeID].choices, _extraData);\n            appealDisputeIDsToDisputeIDs[appealDisputes[_disputeID].appealDisputeID] = _disputeID;\n        }\n    }\n\n    \n    function giveRuling(uint _disputeID, uint _ruling) public {\n        require(disputes[_disputeID].status != DisputeStatus.Solved, \"The specified dispute is already resolved.\");\n        if (appealDisputes[_disputeID].arbitrator != Arbitrator(address(0))) {\n            require(Arbitrator(msg.sender) == appealDisputes[_disputeID].arbitrator, \"Appealed disputes must be ruled by their back up arbitrator.\");\n            super._giveRuling(_disputeID, _ruling);\n        } else {\n            require(msg.sender == owner, \"Not appealed disputes must be ruled by the owner.\");\n            if (disputes[_disputeID].status == DisputeStatus.Appealable) {\n                if (now - appealDisputes[_disputeID].rulingTime > timeOut)\n                    super._giveRuling(_disputeID, disputes[_disputeID].ruling);\n                else revert(\"Time out time has not passed yet.\");\n            } else {\n                disputes[_disputeID].ruling = _ruling;\n                disputes[_disputeID].status = DisputeStatus.Appealable;\n                appealDisputes[_disputeID].rulingTime = now;\n                emit AppealPossible(_disputeID, disputes[_disputeID].arbitrated);\n            }\n        }\n    }\n\n    \n\n    \n    function appealCost(uint _disputeID, bytes _extraData) public view returns(uint cost) {\n        if (appealDisputes[_disputeID].arbitrator != Arbitrator(address(0)))\n            cost = appealDisputes[_disputeID].arbitrator.appealCost(appealDisputes[_disputeID].appealDisputeID, _extraData);\n        else if (disputes[_disputeID].status == DisputeStatus.Appealable) cost = arbitrator.arbitrationCost(_extraData);\n        else cost = NOT_PAYABLE_VALUE;\n    }\n\n    \n    function disputeStatus(uint _disputeID) public view returns(DisputeStatus status) {\n        if (appealDisputes[_disputeID].arbitrator != Arbitrator(address(0)))\n            status = appealDisputes[_disputeID].arbitrator.disputeStatus(appealDisputes[_disputeID].appealDisputeID);\n        else status = disputes[_disputeID].status;\n    }\n\n    \n\n    \n    function executeRuling(uint _disputeID, uint _ruling) internal {\n        require(\n            appealDisputes[appealDisputeIDsToDisputeIDs[_disputeID]].arbitrator != Arbitrator(address(0)),\n            \"The dispute must have been appealed.\"\n        );\n        giveRuling(appealDisputeIDsToDisputeIDs[_disputeID], _ruling);\n    }\n}\n\n\ncontract MultipleArbitrableTransaction_1 is IArbitrable {\n\n    \n    \n    \n\n    uint8 constant AMOUNT_OF_CHOICES = 2;\n    uint8 constant SENDER_WINS = 1;\n    uint8 constant RECEIVER_WINS = 2;\n\n    enum Party {Sender, Receiver}\n    enum Status {NoDispute, WaitingSender, WaitingReceiver, DisputeCreated, Resolved}\n\n    struct Transaction {\n        address sender;\n        address receiver;\n        uint amount;\n        uint timeoutPayment; \n        uint disputeId; \n        uint senderFee; \n        uint receiverFee; \n        uint lastInteraction; \n        Status status;\n    }\n\n    Transaction[] public transactions;\n    bytes public arbitratorExtraData; \n    Arbitrator public arbitrator; \n    uint public feeTimeout; \n\n\n    mapping (uint => uint) public disputeIDtoTransactionID; \n\n    \n    \n    \n\n    \n    event MetaEvidence(uint indexed _metaEvidenceID, string _evidence);\n\n    \n    event Payment(uint indexed _transactionID, uint _amount, address _party);\n\n    \n    event HasToPayFee(uint indexed _transactionID, Party _party);\n\n    \n    event Evidence(Arbitrator indexed _arbitrator, uint indexed _evidenceGroupID, address indexed _party, string _evidence);\n\n    \n    event Dispute(Arbitrator indexed _arbitrator, uint indexed _disputeID, uint _metaEvidenceID, uint _evidenceGroupID);\n\n    \n    event Ruling(Arbitrator indexed _arbitrator, uint indexed _disputeID, uint _ruling);\n\n    \n    \n    \n    \n\n    \n    constructor (\n        Arbitrator _arbitrator,\n        bytes _arbitratorExtraData,\n        uint _feeTimeout\n    ) public {\n        arbitrator = _arbitrator;\n        arbitratorExtraData = _arbitratorExtraData;\n        feeTimeout = _feeTimeout;\n    }\n\n    \n    function createTransaction(\n        uint _timeoutPayment,\n        address _receiver,\n        string _metaEvidence\n    ) public payable returns (uint transactionID) {\n        transactions.push(Transaction({\n            sender: msg.sender,\n            receiver: _receiver,\n            amount: msg.value,\n            timeoutPayment: _timeoutPayment,\n            disputeId: 0,\n            senderFee: 0,\n            receiverFee: 0,\n            lastInteraction: now,\n            status: Status.NoDispute\n        }));\n        emit MetaEvidence(transactions.length - 1, _metaEvidence);\n\n        return transactions.length - 1;\n    }\n\n    \n    function pay(uint _transactionID, uint _amount) public {\n        Transaction storage transaction = transactions[_transactionID];\n        require(transaction.sender == msg.sender, \"The caller must be the sender.\");\n        require(transaction.status == Status.NoDispute, \"The transaction shouldn't be disputed.\");\n        require(_amount <= transaction.amount, \"The amount paid has to be less than or equal to the transaction.\");\n\n        transaction.receiver.transfer(_amount);\n        transaction.amount -= _amount;\n        emit Payment(_transactionID, _amount, msg.sender);\n    }\n\n    \n    function reimburse(uint _transactionID, uint _amountReimbursed) public {\n        Transaction storage transaction = transactions[_transactionID];\n        require(transaction.receiver == msg.sender, \"The caller must be the receiver.\");\n        require(transaction.status == Status.NoDispute, \"The transaction shouldn't be disputed.\");\n        require(_amountReimbursed <= transaction.amount, \"The amount reimbursed has to be less or equal than the transaction.\");\n\n        transaction.sender.transfer(_amountReimbursed);\n        transaction.amount -= _amountReimbursed;\n        emit Payment(_transactionID, _amountReimbursed, msg.sender);\n    }\n\n    \n    function executeTransaction(uint _transactionID) public {\n        Transaction storage transaction = transactions[_transactionID];\n        require(now - transaction.lastInteraction >= transaction.timeoutPayment, \"The timeout has not passed yet.\");\n        require(transaction.status == Status.NoDispute, \"The transaction shouldn't be disputed.\");\n\n        transaction.receiver.transfer(transaction.amount);\n        transaction.amount = 0;\n\n        transaction.status = Status.Resolved;\n    }\n\n    \n    function timeOutBySender(uint _transactionID) public {\n        Transaction storage transaction = transactions[_transactionID];\n\n        require(transaction.status == Status.WaitingReceiver, \"The transaction is not waiting on the receiver.\");\n        require(now - transaction.lastInteraction >= feeTimeout, \"Timeout time has not passed yet.\");\n\n        executeRuling(_transactionID, SENDER_WINS);\n    }\n\n    \n    function timeOutByReceiver(uint _transactionID) public {\n        Transaction storage transaction = transactions[_transactionID];\n\n        require(transaction.status == Status.WaitingSender, \"The transaction is not waiting on the sender.\");\n        require(now - transaction.lastInteraction >= feeTimeout, \"Timeout time has not passed yet.\");\n\n        executeRuling(_transactionID, RECEIVER_WINS);\n    }\n\n    \n    function payArbitrationFeeBySender(uint _transactionID) public payable {\n        Transaction storage transaction = transactions[_transactionID];\n        uint arbitrationCost = arbitrator.arbitrationCost(arbitratorExtraData);\n\n        require(transaction.status < Status.DisputeCreated, \"Dispute has already been created or because the transaction has been executed.\");\n        require(msg.sender == transaction.sender, \"The caller must be the sender.\");\n\n        transaction.senderFee += msg.value;\n        \n        require(transaction.senderFee >= arbitrationCost, \"The sender fee must cover arbitration costs.\");\n\n        transaction.lastInteraction = now;\n\n        \n        if (transaction.receiverFee < arbitrationCost) {\n            transaction.status = Status.WaitingReceiver;\n            emit HasToPayFee(_transactionID, Party.Receiver);\n        } else { \n            raiseDispute(_transactionID, arbitrationCost);\n        }\n    }\n\n    \n    function payArbitrationFeeByReceiver(uint _transactionID) public payable {\n        Transaction storage transaction = transactions[_transactionID];\n        uint arbitrationCost = arbitrator.arbitrationCost(arbitratorExtraData);\n\n        require(transaction.status < Status.DisputeCreated, \"Dispute has already been created or because the transaction has been executed.\");\n        require(msg.sender == transaction.receiver, \"The caller must be the receiver.\");\n\n        transaction.receiverFee += msg.value;\n        \n        require(transaction.receiverFee >= arbitrationCost, \"The receiver fee must cover arbitration costs.\");\n\n        transaction.lastInteraction = now;\n        \n        if (transaction.senderFee < arbitrationCost) {\n            transaction.status = Status.WaitingSender;\n            emit HasToPayFee(_transactionID, Party.Sender);\n        } else { \n            raiseDispute(_transactionID, arbitrationCost);\n        }\n    }\n\n    \n    function raiseDispute(uint _transactionID, uint _arbitrationCost) internal {\n        Transaction storage transaction = transactions[_transactionID];\n        transaction.status = Status.DisputeCreated;\n        transaction.disputeId = arbitrator.createDispute.value(_arbitrationCost)(AMOUNT_OF_CHOICES, arbitratorExtraData);\n        disputeIDtoTransactionID[transaction.disputeId] = _transactionID;\n        emit Dispute(arbitrator, transaction.disputeId, _transactionID, _transactionID);\n\n        \n        if (transaction.senderFee > _arbitrationCost) {\n            uint extraFeeSender = transaction.senderFee - _arbitrationCost;\n            transaction.senderFee = _arbitrationCost;\n            transaction.sender.send(extraFeeSender);\n        }\n\n        \n        if (transaction.receiverFee > _arbitrationCost) {\n            uint extraFeeReceiver = transaction.receiverFee - _arbitrationCost;\n            transaction.receiverFee = _arbitrationCost;\n            transaction.receiver.send(extraFeeReceiver);\n        }\n    }\n\n    \n    function submitEvidence(uint _transactionID, string _evidence) public {\n        Transaction storage transaction = transactions[_transactionID];\n        require(\n            msg.sender == transaction.sender || msg.sender == transaction.receiver,\n            \"The caller must be the sender or the receiver.\"\n        );\n        require(\n            transaction.status < Status.Resolved,\n            \"Must not send evidence if the dispute is resolved.\"\n        );\n\n        emit Evidence(arbitrator, _transactionID, msg.sender, _evidence);\n    }\n\n    \n    function appeal(uint _transactionID) public payable {\n        Transaction storage transaction = transactions[_transactionID];\n\n        arbitrator.appeal.value(msg.value)(transaction.disputeId, arbitratorExtraData);\n    }\n\n    \n    function rule(uint _disputeID, uint _ruling) public {\n        uint transactionID = disputeIDtoTransactionID[_disputeID];\n        Transaction storage transaction = transactions[transactionID];\n        require(msg.sender == address(arbitrator), \"The caller must be the arbitrator.\");\n        require(transaction.status == Status.DisputeCreated, \"The dispute has already been resolved.\");\n\n        emit Ruling(Arbitrator(msg.sender), _disputeID, _ruling);\n\n        executeRuling(transactionID, _ruling);\n    }\n\n    \n    function executeRuling(uint _transactionID, uint _ruling) internal {\n        Transaction storage transaction = transactions[_transactionID];\n        require(_ruling <= AMOUNT_OF_CHOICES, \"Invalid ruling.\");\n\n        \n        \n        if (_ruling == SENDER_WINS) {\n            transaction.sender.send(transaction.senderFee + transaction.amount);\n        } else if (_ruling == RECEIVER_WINS) {\n            transaction.receiver.send(transaction.receiverFee + transaction.amount);\n        } else {\n            uint split_amount = (transaction.senderFee + transaction.amount) / 2;\n            transaction.sender.send(split_amount);\n            transaction.receiver.send(split_amount);\n        }\n\n        transaction.amount = 0;\n        transaction.senderFee = 0;\n        transaction.receiverFee = 0;\n        transaction.status = Status.Resolved;\n    }\n\n    \n    \n    \n\n    \n    function getCountTransactions() public view returns (uint countTransactions) {\n        return transactions.length;\n    }\n\n    \n    function getTransactionIDsByAddress(address _address) public view returns (uint[] transactionIDs) {\n        uint count = 0;\n        for (uint i = 0; i < transactions.length; i++) {\n            if (transactions[i].sender == _address || transactions[i].receiver == _address)\n                count++;\n        }\n\n        transactionIDs = new uint[](count);\n\n        count = 0;\n\n        for (uint j = 0; j < transactions.length; j++) {\n            if (transactions[j].sender == _address || transactions[j].receiver == _address)\n                transactionIDs[count++] = j;\n        }\n    }\n}\n    \ncontract MultipleArbitrableTransaction is MultipleArbitrableTransaction_1 {\n    constructor(Arbitrator _arbitrator,        bytes _arbitratorExtraData,        uint _feeTimeout) MultipleArbitrableTransaction_1(_arbitrator, _arbitratorExtraData, _feeTimeout) public { }\n}\n",
  "sourcePath": "/home/XXX-1/smartrim-experiment/for-rlf/0xe2dd8cce2c33a04215074adb4b5820b765d8ed9d/contracts/0xe2dd8cce2c33a04215074adb4b5820b765d8ed9d.sol",
  "compiler": {
    "name": "solc",
    "version": "0.4.25+commit.59dbf8f1.Emscripten.clang"
  },
  "schemaVersion": "3.4.16",
  "updatedAt": "2025-08-14T04:09:03.051Z",
  "devdoc": {
    "methods": {}
  },
  "userdoc": {
    "methods": {}
  }
}