{
  "contractName": "WeenusToken",
  "abi": [
    {
      "constant": true,
      "inputs": [],
      "name": "name",
      "outputs": [
        {
          "name": "",
          "type": "string"
        }
      ],
      "payable": false,
      "stateMutability": "view",
      "type": "function"
    },
    {
      "constant": true,
      "inputs": [],
      "name": "decimals",
      "outputs": [
        {
          "name": "",
          "type": "uint8"
        }
      ],
      "payable": false,
      "stateMutability": "view",
      "type": "function"
    },
    {
      "constant": false,
      "inputs": [],
      "name": "acceptOwnership",
      "outputs": [],
      "payable": false,
      "stateMutability": "nonpayable",
      "type": "function"
    },
    {
      "constant": true,
      "inputs": [],
      "name": "owner",
      "outputs": [
        {
          "name": "",
          "type": "address"
        }
      ],
      "payable": false,
      "stateMutability": "view",
      "type": "function"
    },
    {
      "constant": true,
      "inputs": [],
      "name": "symbol",
      "outputs": [
        {
          "name": "",
          "type": "string"
        }
      ],
      "payable": false,
      "stateMutability": "view",
      "type": "function"
    },
    {
      "constant": true,
      "inputs": [],
      "name": "newOwner",
      "outputs": [
        {
          "name": "",
          "type": "address"
        }
      ],
      "payable": false,
      "stateMutability": "view",
      "type": "function"
    },
    {
      "constant": false,
      "inputs": [
        {
          "name": "_newOwner",
          "type": "address"
        }
      ],
      "name": "transferOwnership",
      "outputs": [],
      "payable": false,
      "stateMutability": "nonpayable",
      "type": "function"
    },
    {
      "inputs": [],
      "payable": false,
      "stateMutability": "nonpayable",
      "type": "constructor"
    },
    {
      "payable": true,
      "stateMutability": "payable",
      "type": "fallback"
    },
    {
      "anonymous": false,
      "inputs": [
        {
          "indexed": true,
          "name": "_from",
          "type": "address"
        },
        {
          "indexed": true,
          "name": "_to",
          "type": "address"
        }
      ],
      "name": "OwnershipTransferred",
      "type": "event"
    },
    {
      "anonymous": false,
      "inputs": [
        {
          "indexed": true,
          "name": "from",
          "type": "address"
        },
        {
          "indexed": true,
          "name": "to",
          "type": "address"
        },
        {
          "indexed": false,
          "name": "tokens",
          "type": "uint256"
        }
      ],
      "name": "Transfer",
      "type": "event"
    },
    {
      "anonymous": false,
      "inputs": [
        {
          "indexed": true,
          "name": "tokenOwner",
          "type": "address"
        },
        {
          "indexed": true,
          "name": "spender",
          "type": "address"
        },
        {
          "indexed": false,
          "name": "tokens",
          "type": "uint256"
        }
      ],
      "name": "Approval",
      "type": "event"
    },
    {
      "constant": true,
      "inputs": [],
      "name": "totalSupply",
      "outputs": [
        {
          "name": "",
          "type": "uint256"
        }
      ],
      "payable": false,
      "stateMutability": "view",
      "type": "function"
    },
    {
      "constant": true,
      "inputs": [
        {
          "name": "tokenOwner",
          "type": "address"
        }
      ],
      "name": "balanceOf",
      "outputs": [
        {
          "name": "balance",
          "type": "uint256"
        }
      ],
      "payable": false,
      "stateMutability": "view",
      "type": "function"
    },
    {
      "constant": false,
      "inputs": [
        {
          "name": "to",
          "type": "address"
        },
        {
          "name": "tokens",
          "type": "uint256"
        }
      ],
      "name": "transfer",
      "outputs": [
        {
          "name": "success",
          "type": "bool"
        }
      ],
      "payable": false,
      "stateMutability": "nonpayable",
      "type": "function"
    },
    {
      "constant": false,
      "inputs": [
        {
          "name": "spender",
          "type": "address"
        },
        {
          "name": "tokens",
          "type": "uint256"
        }
      ],
      "name": "approve",
      "outputs": [
        {
          "name": "success",
          "type": "bool"
        }
      ],
      "payable": false,
      "stateMutability": "nonpayable",
      "type": "function"
    },
    {
      "constant": false,
      "inputs": [
        {
          "name": "from",
          "type": "address"
        },
        {
          "name": "to",
          "type": "address"
        },
        {
          "name": "tokens",
          "type": "uint256"
        }
      ],
      "name": "transferFrom",
      "outputs": [
        {
          "name": "success",
          "type": "bool"
        }
      ],
      "payable": false,
      "stateMutability": "nonpayable",
      "type": "function"
    },
    {
      "constant": true,
      "inputs": [
        {
          "name": "tokenOwner",
          "type": "address"
        },
        {
          "name": "spender",
          "type": "address"
        }
      ],
      "name": "allowance",
      "outputs": [
        {
          "name": "remaining",
          "type": "uint256"
        }
      ],
      "payable": false,
      "stateMutability": "view",
      "type": "function"
    },
    {
      "constant": false,
      "inputs": [
        {
          "name": "spender",
          "type": "address"
        },
        {
          "name": "tokens",
          "type": "uint256"
        },
        {
          "name": "data",
          "type": "bytes"
        }
      ],
      "name": "approveAndCall",
      "outputs": [
        {
          "name": "success",
          "type": "bool"
        }
      ],
      "payable": false,
      "stateMutability": "nonpayable",
      "type": "function"
    },
    {
      "constant": false,
      "inputs": [],
      "name": "drip",
      "outputs": [],
      "payable": false,
      "stateMutability": "nonpayable",
      "type": "function"
    },
    {
      "constant": false,
      "inputs": [
        {
          "name": "tokenAddress",
          "type": "address"
        },
        {
          "name": "tokens",
          "type": "uint256"
        }
      ],
      "name": "transferAnyERC20Token",
      "outputs": [
        {
          "name": "success",
          "type": "bool"
        }
      ],
      "payable": false,
      "stateMutability": "nonpayable",
      "type": "function"
    }
  ],
  "bytecode": "0x60806040523480156200001157600080fd5b50336000806101000a81548173ffffffffffffffffffffffffffffffffffffffff021916908373ffffffffffffffffffffffffffffffffffffffff1602179055506040805190810160405280600681526020017f5745454e55530000000000000000000000000000000000000000000000000000815250600290805190602001906200009f92919062000241565b506040805190810160405280600881526020017f5765656e7573203f00000000000000000000000000000000000000000000000081525060039080519060200190620000ed92919062000241565b506012600460006101000a81548160ff021916908360ff160217905550600460009054906101000a900460ff1660ff16600a0a620f424002600581905550600460009054906101000a900460ff1660ff16600a0a6103e802600681905550600554600760008060009054906101000a900473ffffffffffffffffffffffffffffffffffffffff1673ffffffffffffffffffffffffffffffffffffffff1673ffffffffffffffffffffffffffffffffffffffff168152602001908152602001600020819055506000809054906101000a900473ffffffffffffffffffffffffffffffffffffffff1673ffffffffffffffffffffffffffffffffffffffff16600073ffffffffffffffffffffffffffffffffffffffff167fddf252ad1be2c89b69c2b068fc378daa952ba7f163c4a11628f55a4df523b3ef6005546040518082815260200191505060405180910390a3620002f0565b828054600181600116156101000203166002900490600052602060002090601f016020900481019282601f106200028457805160ff1916838001178555620002b5565b82800160010185558215620002b5579182015b82811115620002b457825182559160200191906001019062000297565b5b509050620002c49190620002c8565b5090565b620002ed91905b80821115620002e9576000816000905550600101620002cf565b5090565b90565b61169180620003006000396000f3006080604052600436106100e6576000357c0100000000000000000000000000000000000000000000000000000000900463ffffffff16806306fdde0314610146578063095ea7b3146101d657806318160ddd1461023b57806323b872dd14610266578063313ce567146102eb57806370a082311461031c57806379ba5097146103735780638da5cb5b1461038a57806395d89b41146103e15780639f678cca14610471578063a9059cbb14610488578063cae9ca51146104ed578063d4ee1d9014610598578063dc39d06d146105ef578063dd62ed3e14610654578063f2fde38b146106cb575b6100f23360065461070e565b506000341115610144573373ffffffffffffffffffffffffffffffffffffffff166108fc349081150290604051600060405180830381858888f19350505050158015610142573d6000803e3d6000fd5b505b005b34801561015257600080fd5b5061015b610830565b6040518080602001828103825283818151815260200191508051906020019080838360005b8381101561019b578082015181840152602081019050610180565b50505050905090810190601f1680156101c85780820380516001836020036101000a031916815260200191505b509250505060405180910390f35b3480156101e257600080fd5b50610221600480360381019080803573ffffffffffffffffffffffffffffffffffffffff169060200190929190803590602001909291905050506108ce565b604051808215151515815260200191505060405180910390f35b34801561024757600080fd5b506102506109c0565b6040518082815260200191505060405180910390f35b34801561027257600080fd5b506102d1600480360381019080803573ffffffffffffffffffffffffffffffffffffffff169060200190929190803573ffffffffffffffffffffffffffffffffffffffff16906020019092919080359060200190929190505050610a1b565b604051808215151515815260200191505060405180910390f35b3480156102f757600080fd5b50610300610cc6565b604051808260ff1660ff16815260200191505060405180910390f35b34801561032857600080fd5b5061035d600480360381019080803573ffffffffffffffffffffffffffffffffffffffff169060200190929190505050610cd9565b6040518082815260200191505060405180910390f35b34801561037f57600080fd5b50610388610d22565b005b34801561039657600080fd5b5061039f610ec1565b604051808273ffffffffffffffffffffffffffffffffffffffff1673ffffffffffffffffffffffffffffffffffffffff16815260200191505060405180910390f35b3480156103ed57600080fd5b506103f6610ee6565b6040518080602001828103825283818151815260200191508051906020019080838360005b8381101561043657808201518184015260208101905061041b565b50505050905090810190601f1680156104635780820380516001836020036101000a031916815260200191505b509250505060405180910390f35b34801561047d57600080fd5b50610486610f84565b005b34801561049457600080fd5b506104d3600480360381019080803573ffffffffffffffffffffffffffffffffffffffff16906020019092919080359060200190929190505050610f93565b604051808215151515815260200191505060405180910390f35b3480156104f957600080fd5b5061057e600480360381019080803573ffffffffffffffffffffffffffffffffffffffff16906020019092919080359060200190929190803590602001908201803590602001908080601f016020809104026020016040519081016040528093929190818152602001838380828437820191505050505050919291929050505061112e565b604051808215151515815260200191505060405180910390f35b3480156105a457600080fd5b506105ad61137d565b604051808273ffffffffffffffffffffffffffffffffffffffff1673ffffffffffffffffffffffffffffffffffffffff16815260200191505060405180910390f35b3480156105fb57600080fd5b5061063a600480360381019080803573ffffffffffffffffffffffffffffffffffffffff169060200190929190803590602001909291905050506113a3565b604051808215151515815260200191505060405180910390f35b34801561066057600080fd5b506106b5600480360381019080803573ffffffffffffffffffffffffffffffffffffffff169060200190929190803573ffffffffffffffffffffffffffffffffffffffff169060200190929190505050611507565b6040518082815260200191505060405180910390f35b3480156106d757600080fd5b5061070c600480360381019080803573ffffffffffffffffffffffffffffffffffffffff16906020019092919050505061158e565b005b600061076282600760008673ffffffffffffffffffffffffffffffffffffffff1673ffffffffffffffffffffffffffffffffffffffff1681526020019081526020016000205461162d90919063ffffffff16565b600760008573ffffffffffffffffffffffffffffffffffffffff1673ffffffffffffffffffffffffffffffffffffffff168152602001908152602001600020819055506107ba8260055461162d90919063ffffffff16565b6005819055508273ffffffffffffffffffffffffffffffffffffffff16600073ffffffffffffffffffffffffffffffffffffffff167fddf252ad1be2c89b69c2b068fc378daa952ba7f163c4a11628f55a4df523b3ef846040518082815260200191505060405180910390a36001905092915050565b60038054600181600116156101000203166002900480601f0160208091040260200160405190810160405280929190818152602001828054600181600116156101000203166002900480156108c65780601f1061089b576101008083540402835291602001916108c6565b820191906000526020600020905b8154815290600101906020018083116108a957829003601f168201915b505050505081565b600081600860003373ffffffffffffffffffffffffffffffffffffffff1673ffffffffffffffffffffffffffffffffffffffff16815260200190815260200160002060008573ffffffffffffffffffffffffffffffffffffffff1673ffffffffffffffffffffffffffffffffffffffff168152602001908152602001600020819055508273ffffffffffffffffffffffffffffffffffffffff163373ffffffffffffffffffffffffffffffffffffffff167f8c5be1e5ebec7d5bd14f71427d1e84f3dd0314c0f7b2291e5b200ac8c7c3b925846040518082815260200191505060405180910390a36001905092915050565b6000610a16600760008073ffffffffffffffffffffffffffffffffffffffff1673ffffffffffffffffffffffffffffffffffffffff1681526020019081526020016000205460055461164990919063ffffffff16565b905090565b6000610a6f82600760008773ffffffffffffffffffffffffffffffffffffffff1673ffffffffffffffffffffffffffffffffffffffff1681526020019081526020016000205461164990919063ffffffff16565b600760008673ffffffffffffffffffffffffffffffffffffffff1673ffffffffffffffffffffffffffffffffffffffff16815260200190815260200160002081905550610b4182600860008773ffffffffffffffffffffffffffffffffffffffff1673ffffffffffffffffffffffffffffffffffffffff16815260200190815260200160002060003373ffffffffffffffffffffffffffffffffffffffff1673ffffffffffffffffffffffffffffffffffffffff1681526020019081526020016000205461164990919063ffffffff16565b600860008673ffffffffffffffffffffffffffffffffffffffff1673ffffffffffffffffffffffffffffffffffffffff16815260200190815260200160002060003373ffffffffffffffffffffffffffffffffffffffff1673ffffffffffffffffffffffffffffffffffffffff16815260200190815260200160002081905550610c1382600760008673ffffffffffffffffffffffffffffffffffffffff1673ffffffffffffffffffffffffffffffffffffffff1681526020019081526020016000205461162d90919063ffffffff16565b600760008573ffffffffffffffffffffffffffffffffffffffff1673ffffffffffffffffffffffffffffffffffffffff168152602001908152602001600020819055508273ffffffffffffffffffffffffffffffffffffffff168473ffffffffffffffffffffffffffffffffffffffff167fddf252ad1be2c89b69c2b068fc378daa952ba7f163c4a11628f55a4df523b3ef846040518082815260200191505060405180910390a3600190509392505050565b600460009054906101000a900460ff1681565b6000600760008373ffffffffffffffffffffffffffffffffffffffff1673ffffffffffffffffffffffffffffffffffffffff168152602001908152602001600020549050919050565b600160009054906101000a900473ffffffffffffffffffffffffffffffffffffffff1673ffffffffffffffffffffffffffffffffffffffff163373ffffffffffffffffffffffffffffffffffffffff16141515610d7e57600080fd5b600160009054906101000a900473ffffffffffffffffffffffffffffffffffffffff1673ffffffffffffffffffffffffffffffffffffffff166000809054906101000a900473ffffffffffffffffffffffffffffffffffffffff1673ffffffffffffffffffffffffffffffffffffffff167f8be0079c531659141344cd1fd0a4f28419497f9722a3daafe3b4186f6b6457e060405160405180910390a3600160009054906101000a900473ffffffffffffffffffffffffffffffffffffffff166000806101000a81548173ffffffffffffffffffffffffffffffffffffffff021916908373ffffffffffffffffffffffffffffffffffffffff1602179055506000600160006101000a81548173ffffffffffffffffffffffffffffffffffffffff021916908373ffffffffffffffffffffffffffffffffffffffff160217905550565b6000809054906101000a900473ffffffffffffffffffffffffffffffffffffffff1681565b60028054600181600116156101000203166002900480601f016020809104026020016040519081016040528092919081815260200182805460018160011615610100020316600290048015610f7c5780601f10610f5157610100808354040283529160200191610f7c565b820191906000526020600020905b815481529060010190602001808311610f5f57829003601f168201915b505050505081565b610f903360065461070e565b50565b6000610fe782600760003373ffffffffffffffffffffffffffffffffffffffff1673ffffffffffffffffffffffffffffffffffffffff1681526020019081526020016000205461164990919063ffffffff16565b600760003373ffffffffffffffffffffffffffffffffffffffff1673ffffffffffffffffffffffffffffffffffffffff1681526020019081526020016000208190555061107c82600760008673ffffffffffffffffffffffffffffffffffffffff1673ffffffffffffffffffffffffffffffffffffffff1681526020019081526020016000205461162d90919063ffffffff16565b600760008573ffffffffffffffffffffffffffffffffffffffff1673ffffffffffffffffffffffffffffffffffffffff168152602001908152602001600020819055508273ffffffffffffffffffffffffffffffffffffffff163373ffffffffffffffffffffffffffffffffffffffff167fddf252ad1be2c89b69c2b068fc378daa952ba7f163c4a11628f55a4df523b3ef846040518082815260200191505060405180910390a36001905092915050565b600082600860003373ffffffffffffffffffffffffffffffffffffffff1673ffffffffffffffffffffffffffffffffffffffff16815260200190815260200160002060008673ffffffffffffffffffffffffffffffffffffffff1673ffffffffffffffffffffffffffffffffffffffff168152602001908152602001600020819055508373ffffffffffffffffffffffffffffffffffffffff163373ffffffffffffffffffffffffffffffffffffffff167f8c5be1e5ebec7d5bd14f71427d1e84f3dd0314c0f7b2291e5b200ac8c7c3b925856040518082815260200191505060405180910390a38373ffffffffffffffffffffffffffffffffffffffff16638f4ffcb1338530866040518563ffffffff167c0100000000000000000000000000000000000000000000000000000000028152600401808573ffffffffffffffffffffffffffffffffffffffff1673ffffffffffffffffffffffffffffffffffffffff1681526020018481526020018373ffffffffffffffffffffffffffffffffffffffff1673ffffffffffffffffffffffffffffffffffffffff16815260200180602001828103825283818151815260200191508051906020019080838360005b8381101561130b5780820151818401526020810190506112f0565b50505050905090810190601f1680156113385780820380516001836020036101000a031916815260200191505b5095505050505050600060405180830381600087803b15801561135a57600080fd5b505af115801561136e573d6000803e3d6000fd5b50505050600190509392505050565b600160009054906101000a900473ffffffffffffffffffffffffffffffffffffffff1681565b60008060009054906101000a900473ffffffffffffffffffffffffffffffffffffffff1673ffffffffffffffffffffffffffffffffffffffff163373ffffffffffffffffffffffffffffffffffffffff1614151561140057600080fd5b8273ffffffffffffffffffffffffffffffffffffffff1663a9059cbb6000809054906101000a900473ffffffffffffffffffffffffffffffffffffffff16846040518363ffffffff167c0100000000000000000000000000000000000000000000000000000000028152600401808373ffffffffffffffffffffffffffffffffffffffff1673ffffffffffffffffffffffffffffffffffffffff16815260200182815260200192505050602060405180830381600087803b1580156114c457600080fd5b505af11580156114d8573d6000803e3d6000fd5b505050506040513d60208110156114ee57600080fd5b8101908080519060200190929190505050905092915050565b6000600860008473ffffffffffffffffffffffffffffffffffffffff1673ffffffffffffffffffffffffffffffffffffffff16815260200190815260200160002060008373ffffffffffffffffffffffffffffffffffffffff1673ffffffffffffffffffffffffffffffffffffffff16815260200190815260200160002054905092915050565b6000809054906101000a900473ffffffffffffffffffffffffffffffffffffffff1673ffffffffffffffffffffffffffffffffffffffff163373ffffffffffffffffffffffffffffffffffffffff161415156115e957600080fd5b80600160006101000a81548173ffffffffffffffffffffffffffffffffffffffff021916908373ffffffffffffffffffffffffffffffffffffffff16021790555050565b6000818301905082811015151561164357600080fd5b92915050565b600082821115151561165a57600080fd5b8183039050929150505600a165627a7a72305820fdf7459d41b64b7c01dca9157d6a0c5f262a0a8513ce5499c6ac4dea47ea17780029",
  "source": "\n\n\n\n\n\n\n\n\n\n\n\n\n\n\n\n\n\n\n\n\n\n\nlibrary SafeMath {\n    function add(uint a, uint b) internal pure returns (uint c) {\n        c = a + b;\n        require(c >= a);\n    }\n    function sub(uint a, uint b) internal pure returns (uint c) {\n        require(b <= a);\n        c = a - b;\n    }\n    function mul(uint a, uint b) internal pure returns (uint c) {\n        c = a * b;\n        require(a == 0 || c / a == b);\n    }\n    function div(uint a, uint b) internal pure returns (uint c) {\n        require(b > 0);\n        c = a / b;\n    }\n}\n\n\n\n\n\n\ncontract ERC20Interface {\n    function totalSupply() public view returns (uint);\n    function balanceOf(address tokenOwner) public view returns (uint balance);\n    function allowance(address tokenOwner, address spender) public view returns (uint remaining);\n    function transfer(address to, uint tokens) public returns (bool success);\n    function approve(address spender, uint tokens) public returns (bool success);\n    function transferFrom(address from, address to, uint tokens) public returns (bool success);\n\n    event Transfer(address indexed from, address indexed to, uint tokens);\n    event Approval(address indexed tokenOwner, address indexed spender, uint tokens);\n}\n\n\n\n\n\ncontract ApproveAndCallFallBack {\n    function receiveApproval(address from, uint256 tokens, address token, bytes memory data) public;\n}\n\n\n\n\n\ncontract Owned {\n    address public owner;\n    address public newOwner;\n\n    event OwnershipTransferred(address indexed _from, address indexed _to);\n\n    constructor() public {\n        owner = msg.sender;\n    }\n\n    modifier onlyOwner {\n        require(msg.sender == owner);\n        _;\n    }\n\n    function transferOwnership(address _newOwner) public onlyOwner {\n        newOwner = _newOwner;\n    }\n    function acceptOwnership() public {\n        require(msg.sender == newOwner);\n        emit OwnershipTransferred(owner, newOwner);\n        owner = newOwner;\n        newOwner = address(0);\n    }\n}\n\n\n\n\n\n\ncontract WeenusToken is ERC20Interface, Owned {\n    using SafeMath for uint;\n\n    string public symbol;\n    string public  name;\n    uint8 public decimals;\n    uint _totalSupply;\n    uint _drop;\n\n    mapping(address => uint) balances;\n    mapping(address => mapping(address => uint)) allowed;\n\n    constructor() public {\n        symbol = \"WEENUS\";\n        name = \"Weenus ?\";\n        decimals = 18;\n        _totalSupply = 1000000 * 10**uint(decimals);\n        _drop = 1000 * 10**uint(decimals);\n        balances[owner] = _totalSupply;\n        emit Transfer(address(0), owner, _totalSupply);\n    }\n    function totalSupply() public view returns (uint) {\n        return _totalSupply.sub(balances[address(0)]);\n    }\n    function balanceOf(address tokenOwner) public view returns (uint balance) {\n        return balances[tokenOwner];\n    }\n    function transfer(address to, uint tokens) public returns (bool success) {\n        balances[msg.sender] = balances[msg.sender].sub(tokens);\n        balances[to] = balances[to].add(tokens);\n        emit Transfer(msg.sender, to, tokens);\n        return true;\n    }\n    function approve(address spender, uint tokens) public returns (bool success) {\n        allowed[msg.sender][spender] = tokens;\n        emit Approval(msg.sender, spender, tokens);\n        return true;\n    }\n    function transferFrom(address from, address to, uint tokens) public returns (bool success) {\n        balances[from] = balances[from].sub(tokens);\n        allowed[from][msg.sender] = allowed[from][msg.sender].sub(tokens);\n        balances[to] = balances[to].add(tokens);\n        emit Transfer(from, to, tokens);\n        return true;\n    }\n    function allowance(address tokenOwner, address spender) public view returns (uint remaining) {\n        return allowed[tokenOwner][spender];\n    }\n    function approveAndCall(address spender, uint tokens, bytes memory data) public returns (bool success) {\n        allowed[msg.sender][spender] = tokens;\n        emit Approval(msg.sender, spender, tokens);\n        ApproveAndCallFallBack(spender).receiveApproval(msg.sender, tokens, address(this), data);\n        return true;\n    }\n    function mint(address tokenOwner, uint tokens) internal returns (bool success) {\n        balances[tokenOwner] = balances[tokenOwner].add(tokens);\n        _totalSupply = _totalSupply.add(tokens);\n        emit Transfer(address(0), tokenOwner, tokens);\n        return true;\n    }\n    function drip() public {\n        mint(msg.sender, _drop);\n    }\n\n    function () external payable {\n        mint(msg.sender, _drop);\n        if (msg.value > 0) {\n            msg.sender.transfer(msg.value);\n        }\n    }\n    function transferAnyERC20Token(address tokenAddress, uint tokens) public onlyOwner returns (bool success) {\n        return ERC20Interface(tokenAddress).transfer(owner, tokens);\n    }\n}",
  "sourcePath": "/home/XXX-1/smartrim-experiment/for-rlf/0x2823589ae095d99bd64deea80b4690313e2fb519/contracts/0x2823589ae095d99bd64deea80b4690313e2fb519.sol",
  "compiler": {
    "name": "solc",
    "version": "0.4.25+commit.59dbf8f1.Emscripten.clang"
  },
  "schemaVersion": "3.4.16",
  "updatedAt": "2025-08-14T03:39:35.587Z",
  "networkType": "ethereum",
  "devdoc": {
    "methods": {}
  },
  "userdoc": {
    "methods": {}
  }
}