{
  "contractName": "METADOLLAR",
  "abi": [
    {
      "constant": true,
      "inputs": [],
      "name": "countHolders",
      "outputs": [
        {
          "name": "",
          "type": "uint256"
        }
      ],
      "payable": false,
      "stateMutability": "view",
      "type": "function"
    },
    {
      "constant": true,
      "inputs": [],
      "name": "name",
      "outputs": [
        {
          "name": "",
          "type": "string"
        }
      ],
      "payable": false,
      "stateMutability": "view",
      "type": "function"
    },
    {
      "constant": true,
      "inputs": [],
      "name": "preIcoLimit",
      "outputs": [
        {
          "name": "",
          "type": "uint256"
        }
      ],
      "payable": false,
      "stateMutability": "view",
      "type": "function"
    },
    {
      "constant": true,
      "inputs": [],
      "name": "amountOfInvestments",
      "outputs": [
        {
          "name": "",
          "type": "uint256"
        }
      ],
      "payable": false,
      "stateMutability": "view",
      "type": "function"
    },
    {
      "constant": true,
      "inputs": [],
      "name": "minimalGoalReached",
      "outputs": [
        {
          "name": "",
          "type": "bool"
        }
      ],
      "payable": false,
      "stateMutability": "view",
      "type": "function"
    },
    {
      "constant": true,
      "inputs": [],
      "name": "decimals",
      "outputs": [
        {
          "name": "",
          "type": "uint256"
        }
      ],
      "payable": false,
      "stateMutability": "view",
      "type": "function"
    },
    {
      "constant": true,
      "inputs": [],
      "name": "_totalSupply",
      "outputs": [
        {
          "name": "",
          "type": "uint256"
        }
      ],
      "payable": false,
      "stateMutability": "view",
      "type": "function"
    },
    {
      "constant": true,
      "inputs": [],
      "name": "icoMin",
      "outputs": [
        {
          "name": "",
          "type": "uint256"
        }
      ],
      "payable": false,
      "stateMutability": "view",
      "type": "function"
    },
    {
      "constant": true,
      "inputs": [],
      "name": "sellPrice",
      "outputs": [
        {
          "name": "",
          "type": "uint256"
        }
      ],
      "payable": false,
      "stateMutability": "view",
      "type": "function"
    },
    {
      "constant": true,
      "inputs": [],
      "name": "icoIsClosed",
      "outputs": [
        {
          "name": "",
          "type": "bool"
        }
      ],
      "payable": false,
      "stateMutability": "view",
      "type": "function"
    },
    {
      "constant": true,
      "inputs": [],
      "name": "currentTokenPrice",
      "outputs": [
        {
          "name": "",
          "type": "uint256"
        }
      ],
      "payable": false,
      "stateMutability": "view",
      "type": "function"
    },
    {
      "constant": true,
      "inputs": [],
      "name": "preICOprice",
      "outputs": [
        {
          "name": "",
          "type": "uint256"
        }
      ],
      "payable": false,
      "stateMutability": "view",
      "type": "function"
    },
    {
      "constant": true,
      "inputs": [],
      "name": "owner",
      "outputs": [
        {
          "name": "",
          "type": "address"
        }
      ],
      "payable": false,
      "stateMutability": "view",
      "type": "function"
    },
    {
      "constant": true,
      "inputs": [],
      "name": "symbol",
      "outputs": [
        {
          "name": "",
          "type": "string"
        }
      ],
      "payable": false,
      "stateMutability": "view",
      "type": "function"
    },
    {
      "constant": true,
      "inputs": [],
      "name": "ICOprice",
      "outputs": [
        {
          "name": "",
          "type": "uint256"
        }
      ],
      "payable": false,
      "stateMutability": "view",
      "type": "function"
    },
    {
      "constant": false,
      "inputs": [],
      "name": "owned",
      "outputs": [],
      "payable": false,
      "stateMutability": "nonpayable",
      "type": "function"
    },
    {
      "constant": true,
      "inputs": [],
      "name": "commission",
      "outputs": [
        {
          "name": "",
          "type": "uint256"
        }
      ],
      "payable": false,
      "stateMutability": "view",
      "type": "function"
    },
    {
      "constant": true,
      "inputs": [
        {
          "name": "",
          "type": "address"
        }
      ],
      "name": "tokenBalanceOf",
      "outputs": [
        {
          "name": "",
          "type": "uint256"
        }
      ],
      "payable": false,
      "stateMutability": "view",
      "type": "function"
    },
    {
      "constant": true,
      "inputs": [],
      "name": "preIcoIsRunning",
      "outputs": [
        {
          "name": "",
          "type": "bool"
        }
      ],
      "payable": false,
      "stateMutability": "view",
      "type": "function"
    },
    {
      "payable": true,
      "stateMutability": "payable",
      "type": "fallback"
    },
    {
      "anonymous": false,
      "inputs": [
        {
          "indexed": false,
          "name": "initiator",
          "type": "address"
        },
        {
          "indexed": false,
          "name": "account",
          "type": "address"
        },
        {
          "indexed": false,
          "name": "status",
          "type": "string"
        }
      ],
      "name": "FrozenFunds",
      "type": "event"
    },
    {
      "anonymous": false,
      "inputs": [
        {
          "indexed": false,
          "name": "bonusOld",
          "type": "uint8"
        },
        {
          "indexed": false,
          "name": "bonusNew",
          "type": "uint8"
        }
      ],
      "name": "BonusChanged",
      "type": "event"
    },
    {
      "anonymous": false,
      "inputs": [
        {
          "indexed": false,
          "name": "minIcoAmount",
          "type": "uint256"
        },
        {
          "indexed": false,
          "name": "notice",
          "type": "string"
        }
      ],
      "name": "minGoalReached",
      "type": "event"
    },
    {
      "anonymous": false,
      "inputs": [
        {
          "indexed": false,
          "name": "preIcoAmount",
          "type": "uint256"
        },
        {
          "indexed": false,
          "name": "notice",
          "type": "string"
        }
      ],
      "name": "preIcoEnded",
      "type": "event"
    },
    {
      "anonymous": false,
      "inputs": [
        {
          "indexed": false,
          "name": "oldPrice",
          "type": "uint256"
        },
        {
          "indexed": false,
          "name": "newPrice",
          "type": "uint256"
        },
        {
          "indexed": false,
          "name": "notice",
          "type": "string"
        }
      ],
      "name": "priceUpdated",
      "type": "event"
    },
    {
      "anonymous": false,
      "inputs": [
        {
          "indexed": false,
          "name": "_to",
          "type": "address"
        },
        {
          "indexed": false,
          "name": "summe",
          "type": "uint256"
        },
        {
          "indexed": false,
          "name": "notice",
          "type": "string"
        }
      ],
      "name": "withdrawed",
      "type": "event"
    },
    {
      "anonymous": false,
      "inputs": [
        {
          "indexed": false,
          "name": "_from",
          "type": "address"
        },
        {
          "indexed": false,
          "name": "summe",
          "type": "uint256"
        },
        {
          "indexed": false,
          "name": "notice",
          "type": "string"
        }
      ],
      "name": "deposited",
      "type": "event"
    },
    {
      "anonymous": false,
      "inputs": [
        {
          "indexed": false,
          "name": "initiator",
          "type": "address"
        },
        {
          "indexed": false,
          "name": "_from",
          "type": "address"
        },
        {
          "indexed": false,
          "name": "_to",
          "type": "address"
        },
        {
          "indexed": false,
          "name": "summe",
          "type": "uint256"
        },
        {
          "indexed": false,
          "name": "notice",
          "type": "string"
        }
      ],
      "name": "orderToTransfer",
      "type": "event"
    },
    {
      "anonymous": false,
      "inputs": [
        {
          "indexed": false,
          "name": "_creator",
          "type": "address"
        },
        {
          "indexed": false,
          "name": "summe",
          "type": "uint256"
        },
        {
          "indexed": false,
          "name": "notice",
          "type": "string"
        }
      ],
      "name": "tokenCreated",
      "type": "event"
    },
    {
      "anonymous": false,
      "inputs": [
        {
          "indexed": false,
          "name": "_destroyer",
          "type": "address"
        },
        {
          "indexed": false,
          "name": "summe",
          "type": "uint256"
        },
        {
          "indexed": false,
          "name": "notice",
          "type": "string"
        }
      ],
      "name": "tokenDestroyed",
      "type": "event"
    },
    {
      "anonymous": false,
      "inputs": [
        {
          "indexed": false,
          "name": "_initiator",
          "type": "address"
        },
        {
          "indexed": false,
          "name": "status",
          "type": "string"
        }
      ],
      "name": "icoStatusUpdated",
      "type": "event"
    },
    {
      "anonymous": false,
      "inputs": [
        {
          "indexed": false,
          "name": "whoTransferredOwnership",
          "type": "address"
        },
        {
          "indexed": false,
          "name": "formerOwner",
          "type": "address"
        },
        {
          "indexed": false,
          "name": "newOwner",
          "type": "address"
        }
      ],
      "name": "ownerChanged",
      "type": "event"
    },
    {
      "anonymous": false,
      "inputs": [
        {
          "indexed": true,
          "name": "from",
          "type": "address"
        },
        {
          "indexed": true,
          "name": "to",
          "type": "address"
        },
        {
          "indexed": false,
          "name": "tokens",
          "type": "uint256"
        }
      ],
      "name": "Transfer",
      "type": "event"
    },
    {
      "anonymous": false,
      "inputs": [
        {
          "indexed": true,
          "name": "tokenOwner",
          "type": "address"
        },
        {
          "indexed": true,
          "name": "spender",
          "type": "address"
        },
        {
          "indexed": false,
          "name": "tokens",
          "type": "uint256"
        }
      ],
      "name": "Approval",
      "type": "event"
    },
    {
      "constant": false,
      "inputs": [],
      "name": "STARTMETADOLLAR",
      "outputs": [],
      "payable": false,
      "stateMutability": "nonpayable",
      "type": "function"
    },
    {
      "constant": true,
      "inputs": [],
      "name": "totalSupply",
      "outputs": [
        {
          "name": "totalAmount",
          "type": "uint256"
        }
      ],
      "payable": false,
      "stateMutability": "view",
      "type": "function"
    },
    {
      "constant": true,
      "inputs": [
        {
          "name": "_owner",
          "type": "address"
        }
      ],
      "name": "balanceOf",
      "outputs": [
        {
          "name": "balance",
          "type": "uint256"
        }
      ],
      "payable": false,
      "stateMutability": "view",
      "type": "function"
    },
    {
      "constant": true,
      "inputs": [
        {
          "name": "_owner",
          "type": "address"
        },
        {
          "name": "_spender",
          "type": "address"
        }
      ],
      "name": "allowance",
      "outputs": [
        {
          "name": "remaining",
          "type": "uint256"
        }
      ],
      "payable": false,
      "stateMutability": "view",
      "type": "function"
    },
    {
      "constant": true,
      "inputs": [
        {
          "name": "howManyTokenToBuy",
          "type": "uint256"
        }
      ],
      "name": "calculateTheEndPrice",
      "outputs": [
        {
          "name": "summarizedPriceInWeis",
          "type": "uint256"
        }
      ],
      "payable": false,
      "stateMutability": "view",
      "type": "function"
    },
    {
      "constant": true,
      "inputs": [
        {
          "name": "account",
          "type": "address"
        }
      ],
      "name": "checkFrozenAccounts",
      "outputs": [
        {
          "name": "accountIsFrozen",
          "type": "bool"
        }
      ],
      "payable": false,
      "stateMutability": "view",
      "type": "function"
    },
    {
      "constant": false,
      "inputs": [],
      "name": "buy",
      "outputs": [],
      "payable": true,
      "stateMutability": "payable",
      "type": "function"
    },
    {
      "constant": false,
      "inputs": [
        {
          "name": "amount",
          "type": "uint256"
        }
      ],
      "name": "sell",
      "outputs": [],
      "payable": false,
      "stateMutability": "nonpayable",
      "type": "function"
    },
    {
      "constant": false,
      "inputs": [
        {
          "name": "_tokenAddress",
          "type": "address"
        }
      ],
      "name": "sell2",
      "outputs": [],
      "payable": true,
      "stateMutability": "payable",
      "type": "function"
    },
    {
      "constant": false,
      "inputs": [
        {
          "name": "_to",
          "type": "address"
        },
        {
          "name": "_value",
          "type": "uint256"
        }
      ],
      "name": "transfer",
      "outputs": [
        {
          "name": "success",
          "type": "bool"
        }
      ],
      "payable": false,
      "stateMutability": "nonpayable",
      "type": "function"
    },
    {
      "constant": false,
      "inputs": [
        {
          "name": "_from",
          "type": "address"
        },
        {
          "name": "_to",
          "type": "address"
        },
        {
          "name": "_value",
          "type": "uint256"
        }
      ],
      "name": "transferFrom",
      "outputs": [
        {
          "name": "success",
          "type": "bool"
        }
      ],
      "payable": false,
      "stateMutability": "nonpayable",
      "type": "function"
    },
    {
      "constant": false,
      "inputs": [
        {
          "name": "_spender",
          "type": "address"
        },
        {
          "name": "_value",
          "type": "uint256"
        }
      ],
      "name": "approve",
      "outputs": [
        {
          "name": "success",
          "type": "bool"
        }
      ],
      "payable": false,
      "stateMutability": "nonpayable",
      "type": "function"
    },
    {
      "constant": false,
      "inputs": [
        {
          "name": "priceForPreIcoInWei",
          "type": "uint256"
        }
      ],
      "name": "setPreICOPrice",
      "outputs": [],
      "payable": false,
      "stateMutability": "nonpayable",
      "type": "function"
    },
    {
      "constant": false,
      "inputs": [
        {
          "name": "priceForIcoInWei",
          "type": "uint256"
        }
      ],
      "name": "setICOPrice",
      "outputs": [],
      "payable": false,
      "stateMutability": "nonpayable",
      "type": "function"
    },
    {
      "constant": false,
      "inputs": [
        {
          "name": "priceForPreIcoInWei",
          "type": "uint256"
        },
        {
          "name": "priceForIcoInWei",
          "type": "uint256"
        }
      ],
      "name": "setPrices",
      "outputs": [],
      "payable": false,
      "stateMutability": "nonpayable",
      "type": "function"
    },
    {
      "constant": false,
      "inputs": [
        {
          "name": "priceInWei",
          "type": "uint256"
        }
      ],
      "name": "setSellPrice",
      "outputs": [],
      "payable": false,
      "stateMutability": "nonpayable",
      "type": "function"
    },
    {
      "constant": false,
      "inputs": [
        {
          "name": "commissionRateInWei",
          "type": "uint256"
        }
      ],
      "name": "setCommissionRate",
      "outputs": [],
      "payable": false,
      "stateMutability": "nonpayable",
      "type": "function"
    },
    {
      "constant": false,
      "inputs": [
        {
          "name": "account",
          "type": "address"
        },
        {
          "name": "freeze",
          "type": "bool"
        }
      ],
      "name": "freezeAccount",
      "outputs": [],
      "payable": false,
      "stateMutability": "nonpayable",
      "type": "function"
    },
    {
      "constant": false,
      "inputs": [
        {
          "name": "amount",
          "type": "uint256"
        }
      ],
      "name": "mintToken",
      "outputs": [],
      "payable": false,
      "stateMutability": "nonpayable",
      "type": "function"
    },
    {
      "constant": false,
      "inputs": [
        {
          "name": "amount",
          "type": "uint256"
        }
      ],
      "name": "destroyToken",
      "outputs": [],
      "payable": false,
      "stateMutability": "nonpayable",
      "type": "function"
    },
    {
      "constant": false,
      "inputs": [
        {
          "name": "newOwner",
          "type": "address"
        }
      ],
      "name": "transferOwnership",
      "outputs": [],
      "payable": false,
      "stateMutability": "nonpayable",
      "type": "function"
    },
    {
      "constant": false,
      "inputs": [],
      "name": "collect",
      "outputs": [],
      "payable": false,
      "stateMutability": "nonpayable",
      "type": "function"
    },
    {
      "constant": false,
      "inputs": [
        {
          "name": "summeInWei",
          "type": "uint256"
        }
      ],
      "name": "withdraw",
      "outputs": [],
      "payable": false,
      "stateMutability": "nonpayable",
      "type": "function"
    },
    {
      "constant": false,
      "inputs": [],
      "name": "deposit",
      "outputs": [],
      "payable": true,
      "stateMutability": "payable",
      "type": "function"
    },
    {
      "constant": false,
      "inputs": [
        {
          "name": "icoIsStopped",
          "type": "bool"
        }
      ],
      "name": "stopThisIco",
      "outputs": [],
      "payable": false,
      "stateMutability": "nonpayable",
      "type": "function"
    }
  ],
  "bytecode": "0x60806040526c0c9f2c9cd04674edea4000000060015566038d7ea4c68000600255670de0b6b3a7640000600355600060045560006005556103e86008556103e8600955610384600a55610384600b5534801561005a57600080fd5b506141b28061006a6000396000f30060806040526004361061021a576000357c0100000000000000000000000000000000000000000000000000000000900463ffffffff168063033c6ee6146102dd57806305fefda71461030857806306fdde031461033f578063095ea7b3146103cf5780630a2d967b1461043457806318160ddd1461046357806319fac8fd1461048e57806323b872dd146104bb57806324f2cc021461054057806325b5160c1461056b5780632be2d95e146105985780632e1a7d4d146105c35780632fa05208146105f05780632fd463e11461061f578063313ce567146106365780633eaaf86b1461066157806340f3633e1461068c5780634b750334146106b75780634c7d3e3f146106e257806358e462751461071157806370a082311461075257806371b3659e146107a95780637c905c9f146107d45780638408cb9d146107ff5780638a7d124b1461082c5780638da5cb5b1461085957806395d89b41146108b057806399444e3014610940578063a6f2ae3a1461096b578063a9059cbb14610975578063b1057e9c146109da578063c5c0116914610a10578063c634d03214610a6b578063d0e30db014610a98578063dd62ed3e14610aa2578063df32754b14610b19578063e148919114610b30578063e42c08f214610b5b578063e4849b3214610bb2578063e522538114610bdf578063e724529c14610bf6578063f2fde38b14610c45578063f4aa956c14610c88578063fc6634b914610cb7575b601260003373ffffffffffffffffffffffffffffffffffffffff1673ffffffffffffffffffffffffffffffffffffffff16815260200190815260200160002060009054906101000a900460ff1615151561027357600080fd5b6000341180156102cd5750601260003373ffffffffffffffffffffffffffffffffffffffff1673ffffffffffffffffffffffffffffffffffffffff16815260200190815260200160002060009054906101000a900460ff16155b156102db576102da610ce4565b5b005b3480156102e957600080fd5b506102f2610e63565b6040518082815260200191505060405180910390f35b34801561031457600080fd5b5061033d6004803603810190808035906020019092919080359060200190929190505050610e69565b005b34801561034b57600080fd5b50610354610f43565b6040518080602001828103825283818151815260200191508051906020019080838360005b83811015610394578082015181840152602081019050610379565b50505050905090810190601f1680156103c15780820380516001836020036101000a031916815260200191505b509250505060405180910390f35b3480156103db57600080fd5b5061041a600480360381019080803573ffffffffffffffffffffffffffffffffffffffff16906020019092919080359060200190929190505050610f7c565b604051808215151515815260200191505060405180910390f35b34801561044057600080fd5b506104616004803603810190808035151590602001909291905050506110ab565b005b34801561046f57600080fd5b506104786112d0565b6040518082815260200191505060405180910390f35b34801561049a57600080fd5b506104b9600480360381019080803590602001909291905050506112da565b005b3480156104c757600080fd5b50610526600480360381019080803573ffffffffffffffffffffffffffffffffffffffff169060200190929190803573ffffffffffffffffffffffffffffffffffffffff16906020019092919080359060200190929190505050611396565b604051808215151515815260200191505060405180910390f35b34801561054c57600080fd5b50610555611923565b6040518082815260200191505060405180910390f35b34801561057757600080fd5b5061059660048036038101908080359060200190929190505050611929565b005b3480156105a457600080fd5b506105ad6119fd565b6040518082815260200191505060405180910390f35b3480156105cf57600080fd5b506105ee60048036038101908080359060200190929190505050611a03565b005b3480156105fc57600080fd5b50610605611bc4565b604051808215151515815260200191505060405180910390f35b34801561062b57600080fd5b50610634611bd7565b005b34801561064257600080fd5b5061064b611de5565b6040518082815260200191505060405180910390f35b34801561066d57600080fd5b50610676611dea565b6040518082815260200191505060405180910390f35b34801561069857600080fd5b506106a1611df0565b6040518082815260200191505060405180910390f35b3480156106c357600080fd5b506106cc611df6565b6040518082815260200191505060405180910390f35b3480156106ee57600080fd5b506106f7611dfc565b604051808215151515815260200191505060405180910390f35b34801561071d57600080fd5b5061073c60048036038101908080359060200190929190505050611e0f565b6040518082815260200191505060405180910390f35b34801561075e57600080fd5b50610793600480360381019080803573ffffffffffffffffffffffffffffffffffffffff169060200190929190505050611e2f565b6040518082815260200191505060405180910390f35b3480156107b557600080fd5b506107be611e78565b6040518082815260200191505060405180910390f35b3480156107e057600080fd5b506107e9611e7e565b6040518082815260200191505060405180910390f35b34801561080b57600080fd5b5061082a60048036038101908080359060200190929190505050611e84565b005b34801561083857600080fd5b5061085760048036038101908080359060200190929190505050611f58565b005b34801561086557600080fd5b5061086e612386565b604051808273ffffffffffffffffffffffffffffffffffffffff1673ffffffffffffffffffffffffffffffffffffffff16815260200191505060405180910390f35b3480156108bc57600080fd5b506108c56123ab565b6040518080602001828103825283818151815260200191508051906020019080838360005b838110156109055780820151818401526020810190506108ea565b50505050905090810190601f1680156109325780820380516001836020036101000a031916815260200191505b509250505060405180910390f35b34801561094c57600080fd5b506109556123e4565b6040518082815260200191505060405180910390f35b6109736123ea565b005b34801561098157600080fd5b506109c0600480360381019080803573ffffffffffffffffffffffffffffffffffffffff1690602001909291908035906020019092919050505061245c565b604051808215151515815260200191505060405180910390f35b610a0e600480360381019080803573ffffffffffffffffffffffffffffffffffffffff16906020019092919050505061270f565b005b348015610a1c57600080fd5b50610a51600480360381019080803573ffffffffffffffffffffffffffffffffffffffff16906020019092919050505061293a565b604051808215151515815260200191505060405180910390f35b348015610a7757600080fd5b50610a9660048036038101908080359060200190929190505050612990565b005b610aa0612dec565b005b348015610aae57600080fd5b50610b03600480360381019080803573ffffffffffffffffffffffffffffffffffffffff169060200190929190803573ffffffffffffffffffffffffffffffffffffffff169060200190929190505050612f69565b6040518082815260200191505060405180910390f35b348015610b2557600080fd5b50610b2e612ff0565b005b348015610b3c57600080fd5b50610b45613032565b6040518082815260200191505060405180910390f35b348015610b6757600080fd5b50610b9c600480360381019080803573ffffffffffffffffffffffffffffffffffffffff169060200190929190505050613038565b6040518082815260200191505060405180910390f35b348015610bbe57600080fd5b50610bdd60048036038101908080359060200190929190505050613050565b005b348015610beb57600080fd5b50610bf46131f2565b005b348015610c0257600080fd5b50610c43600480360381019080803573ffffffffffffffffffffffffffffffffffffffff1690602001909291908035151590602001909291905050506132dc565b005b348015610c5157600080fd5b50610c86600480360381019080803573ffffffffffffffffffffffffffffffffffffffff169060200190929190505050613630565b005b348015610c9457600080fd5b50610c9d613982565b604051808215151515815260200191505060405180910390f35b348015610cc357600080fd5b50610ce260048036038101908080359060200190929190505050613995565b005b600080600080349350339250600f60029054906101000a900460ff16151515610d0c57600080fd5b601260008473ffffffffffffffffffffffffffffffffffffffff1673ffffffffffffffffffffffffffffffffffffffff16815260200190815260200160002060009054906101000a900460ff16151515610d6557600080fd5b600084111515610d7457600080fd5b6000600d54111515610d8557600080fd5b600d5484811515610d9257fe5b049150600c5482028403905081601060003073ffffffffffffffffffffffffffffffffffffffff1673ffffffffffffffffffffffffffffffffffffffff1681526020019081526020016000205410151515610dec57600080fd5b80840360055401600581905550610e01613a51565b610e0c308484613b2c565b6000811115610e5d578273ffffffffffffffffffffffffffffffffffffffff166108fc829081150290604051600060405180830381858888f19350505050158015610e5b573d6000803e3d6000fd5b505b50505050565b60045481565b6000809054906101000a900473ffffffffffffffffffffffffffffffffffffffff1673ffffffffffffffffffffffffffffffffffffffff163373ffffffffffffffffffffffffffffffffffffffff161480610f03575073318b0f768f5c6c567227aa50b51b5b3078902f8c73ffffffffffffffffffffffffffffffffffffffff163373ffffffffffffffffffffffffffffffffffffffff16145b1515610f0b57fe5b600082111515610f1a57600080fd5b600081111515610f2957600080fd5b8160068190555080600781905550610f3f613a51565b5050565b6040805190810160405280600a81526020017f4d455441444f4c4c41520000000000000000000000000000000000000000000081525081565b6000601260003373ffffffffffffffffffffffffffffffffffffffff1673ffffffffffffffffffffffffffffffffffffffff16815260200190815260200160002060009054906101000a900460ff16151515610fd757600080fd5b600073ffffffffffffffffffffffffffffffffffffffff168373ffffffffffffffffffffffffffffffffffffffff161415151561101057fe5b6000821015151561102057600080fd5b81601160003373ffffffffffffffffffffffffffffffffffffffff1673ffffffffffffffffffffffffffffffffffffffff16815260200190815260200160002060008573ffffffffffffffffffffffffffffffffffffffff1673ffffffffffffffffffffffffffffffffffffffff168152602001908152602001600020819055506001905092915050565b6000809054906101000a900473ffffffffffffffffffffffffffffffffffffffff1673ffffffffffffffffffffffffffffffffffffffff163373ffffffffffffffffffffffffffffffffffffffff161480611145575073318b0f768f5c6c567227aa50b51b5b3078902f8c73ffffffffffffffffffffffffffffffffffffffff163373ffffffffffffffffffffffffffffffffffffffff16145b151561114d57fe5b801515600f60029054906101000a900460ff1615151415151561116f57600080fd5b80600f60026101000a81548160ff0219169083151502179055508015611230577fb6230a7436f9b91951884989b5b0fdf39d67358e9608949dc78963f2b83af8a933604051808273ffffffffffffffffffffffffffffffffffffffff1673ffffffffffffffffffffffffffffffffffffffff168152602001806020018281038252601a8152602001807f436f696e206f66666572696e67207761732073746f70706564210000000000008152506020019250505060405180910390a16112cd565b7fb6230a7436f9b91951884989b5b0fdf39d67358e9608949dc78963f2b83af8a933604051808273ffffffffffffffffffffffffffffffffffffffff1673ffffffffffffffffffffffffffffffffffffffff16815260200180602001828103825260198152602001807f436f696e206f66666572696e672069732072756e6e696e6721000000000000008152506020019250505060405180910390a15b50565b6000600154905090565b6000809054906101000a900473ffffffffffffffffffffffffffffffffffffffff1673ffffffffffffffffffffffffffffffffffffffff163373ffffffffffffffffffffffffffffffffffffffff161480611374575073318b0f768f5c6c567227aa50b51b5b3078902f8c73ffffffffffffffffffffffffffffffffffffffff163373ffffffffffffffffffffffffffffffffffffffff16145b151561137c57fe5b6000811015151561138c57600080fd5b80600b8190555050565b60008073ffffffffffffffffffffffffffffffffffffffff163373ffffffffffffffffffffffffffffffffffffffff16141515156113d057fe5b600073ffffffffffffffffffffffffffffffffffffffff168473ffffffffffffffffffffffffffffffffffffffff161415151561140957fe5b600073ffffffffffffffffffffffffffffffffffffffff168373ffffffffffffffffffffffffffffffffffffffff161415151561144257fe5b601260003373ffffffffffffffffffffffffffffffffffffffff1673ffffffffffffffffffffffffffffffffffffffff16815260200190815260200160002060009054906101000a900460ff1615151561149b57600080fd5b601260008573ffffffffffffffffffffffffffffffffffffffff1673ffffffffffffffffffffffffffffffffffffffff16815260200190815260200160002060009054906101000a900460ff161515156114f457600080fd5b601260008473ffffffffffffffffffffffffffffffffffffffff1673ffffffffffffffffffffffffffffffffffffffff16815260200190815260200160002060009054906101000a900460ff1615151561154d57600080fd5b81601060008673ffffffffffffffffffffffffffffffffffffffff1673ffffffffffffffffffffffffffffffffffffffff168152602001908152602001600020541015151561159b57600080fd5b81601160008673ffffffffffffffffffffffffffffffffffffffff1673ffffffffffffffffffffffffffffffffffffffff16815260200190815260200160002060003373ffffffffffffffffffffffffffffffffffffffff1673ffffffffffffffffffffffffffffffffffffffff168152602001908152602001600020541015151561162657600080fd5b601060008573ffffffffffffffffffffffffffffffffffffffff1673ffffffffffffffffffffffffffffffffffffffff1681526020019081526020016000205482601060008773ffffffffffffffffffffffffffffffffffffffff1673ffffffffffffffffffffffffffffffffffffffff16815260200190815260200160002054031015156116b457600080fd5b601060008473ffffffffffffffffffffffffffffffffffffffff1673ffffffffffffffffffffffffffffffffffffffff1681526020019081526020016000205482601060008673ffffffffffffffffffffffffffffffffffffffff1673ffffffffffffffffffffffffffffffffffffffff168152602001908152602001600020540111151561174257600080fd5b60008211151561175157600080fd5b7f887cfc3e80e54d957ad2436a4a554881dfb72d55acb82afe8ca89efec085ec2033858585604051808573ffffffffffffffffffffffffffffffffffffffff1673ffffffffffffffffffffffffffffffffffffffff1681526020018473ffffffffffffffffffffffffffffffffffffffff1673ffffffffffffffffffffffffffffffffffffffff1681526020018373ffffffffffffffffffffffffffffffffffffffff1673ffffffffffffffffffffffffffffffffffffffff168152602001828152602001806020018281038252602d8152602001807f4f7264657220746f207472616e7366657220746f6b656e732066726f6d20616c81526020017f6c6f776564206163636f756e74000000000000000000000000000000000000008152506040019550505050505060405180910390a161188e848484613b2c565b81601160008673ffffffffffffffffffffffffffffffffffffffff1673ffffffffffffffffffffffffffffffffffffffff16815260200190815260200160002060003373ffffffffffffffffffffffffffffffffffffffff1673ffffffffffffffffffffffffffffffffffffffff16815260200190815260200160002060008282540392505081905550600190509392505050565b60035481565b6000809054906101000a900473ffffffffffffffffffffffffffffffffffffffff1673ffffffffffffffffffffffffffffffffffffffff163373ffffffffffffffffffffffffffffffffffffffff1614806119c3575073318b0f768f5c6c567227aa50b51b5b3078902f8c73ffffffffffffffffffffffffffffffffffffffff163373ffffffffffffffffffffffffffffffffffffffff16145b15156119cb57fe5b6000811115156119da57600080fd5b80600754141515156119eb57600080fd5b806007819055506119fa613a51565b50565b60055481565b6000806000809054906101000a900473ffffffffffffffffffffffffffffffffffffffff1673ffffffffffffffffffffffffffffffffffffffff163373ffffffffffffffffffffffffffffffffffffffff161480611aa0575073318b0f768f5c6c567227aa50b51b5b3078902f8c73ffffffffffffffffffffffffffffffffffffffff163373ffffffffffffffffffffffffffffffffffffffff16145b1515611aa857fe5b3073ffffffffffffffffffffffffffffffffffffffff16319150339050828210151515611ad457600080fd5b7fbddefc067f3281540ef23e268f5c5d31c3bb7b11cffd03eb962ba6b983873d528184604051808373ffffffffffffffffffffffffffffffffffffffff1673ffffffffffffffffffffffffffffffffffffffff168152602001828152602001806020018281038252600e8152602001807f7765692077697468647261776564000000000000000000000000000000000000815250602001935050505060405180910390a18073ffffffffffffffffffffffffffffffffffffffff166108fc849081150290604051600060405180830381858888f19350505050158015611bbe573d6000803e3d6000fd5b50505050565b600f60019054906101000a900460ff1681565b6001600f60006101000a81548160ff0219169083151502179055506000600f60016101000a81548160ff0219169083151502179055506000600f60026101000a81548160ff021916908315150217905550600154601060003073ffffffffffffffffffffffffffffffffffffffff1673ffffffffffffffffffffffffffffffffffffffff16815260200190815260200160002060008282540192505081905550600154601160003073ffffffffffffffffffffffffffffffffffffffff1673ffffffffffffffffffffffffffffffffffffffff16815260200190815260200160002060008060009054906101000a900473ffffffffffffffffffffffffffffffffffffffff1673ffffffffffffffffffffffffffffffffffffffff1673ffffffffffffffffffffffffffffffffffffffff16815260200190815260200160002081905550600154601160003073ffffffffffffffffffffffffffffffffffffffff1673ffffffffffffffffffffffffffffffffffffffff168152602001908152602001600020600073318b0f768f5c6c567227aa50b51b5b3078902f8c73ffffffffffffffffffffffffffffffffffffffff1673ffffffffffffffffffffffffffffffffffffffff168152602001908152602001600020819055506001600d8190555060085434026006819055506009543402600781905550600a543402600c81905550611de3613a51565b565b601281565b60015481565b60025481565b600c5481565b600f60029054906101000a900460ff1681565b600080821115611e2557600d5482029050611e2a565b600090505b919050565b6000601060008373ffffffffffffffffffffffffffffffffffffffff1673ffffffffffffffffffffffffffffffffffffffff168152602001908152602001600020549050919050565b600d5481565b60065481565b6000809054906101000a900473ffffffffffffffffffffffffffffffffffffffff1673ffffffffffffffffffffffffffffffffffffffff163373ffffffffffffffffffffffffffffffffffffffff161480611f1e575073318b0f768f5c6c567227aa50b51b5b3078902f8c73ffffffffffffffffffffffffffffffffffffffff163373ffffffffffffffffffffffffffffffffffffffff16145b1515611f2657fe5b600081111515611f3557600080fd5b8060065414151515611f4657600080fd5b80600681905550611f55613a51565b50565b6000809054906101000a900473ffffffffffffffffffffffffffffffffffffffff1673ffffffffffffffffffffffffffffffffffffffff163373ffffffffffffffffffffffffffffffffffffffff161480611ff2575073318b0f768f5c6c567227aa50b51b5b3078902f8c73ffffffffffffffffffffffffffffffffffffffff163373ffffffffffffffffffffffffffffffffffffffff16145b1515611ffa57fe5b60008111151561200957600080fd5b80601060003073ffffffffffffffffffffffffffffffffffffffff1673ffffffffffffffffffffffffffffffffffffffff168152602001908152602001600020541015151561205757600080fd5b806001541015151561206857600080fd5b600081601060003073ffffffffffffffffffffffffffffffffffffffff1673ffffffffffffffffffffffffffffffffffffffff1681526020019081526020016000205403101515156120b957600080fd5b60008160015403101515156120cd57600080fd5b80601060003073ffffffffffffffffffffffffffffffffffffffff1673ffffffffffffffffffffffffffffffffffffffff1681526020019081526020016000206000828254039250508190555080600160008282540392505081905550601060003073ffffffffffffffffffffffffffffffffffffffff1673ffffffffffffffffffffffffffffffffffffffff16815260200190815260200160002054601160003073ffffffffffffffffffffffffffffffffffffffff1673ffffffffffffffffffffffffffffffffffffffff16815260200190815260200160002060008060009054906101000a900473ffffffffffffffffffffffffffffffffffffffff1673ffffffffffffffffffffffffffffffffffffffff1673ffffffffffffffffffffffffffffffffffffffff16815260200190815260200160002081905550601060003073ffffffffffffffffffffffffffffffffffffffff1673ffffffffffffffffffffffffffffffffffffffff16815260200190815260200160002054601160003073ffffffffffffffffffffffffffffffffffffffff1673ffffffffffffffffffffffffffffffffffffffff168152602001908152602001600020600073318b0f768f5c6c567227aa50b51b5b3078902f8c73ffffffffffffffffffffffffffffffffffffffff1673ffffffffffffffffffffffffffffffffffffffff168152602001908152602001600020819055507fd712d06d9fc6b99645c547cde4297ac899f20160a078563b5888aeaa2bb9fd4c3382604051808373ffffffffffffffffffffffffffffffffffffffff1673ffffffffffffffffffffffffffffffffffffffff168152602001828152602001806020018281038252601e8152602001807f416e20616d6f756e74206f6620746f6b656e732064657374726f796564210000815250602001935050505060405180910390a150565b6000809054906101000a900473ffffffffffffffffffffffffffffffffffffffff1681565b6040805190810160405280600381526020017f444f4c000000000000000000000000000000000000000000000000000000000081525081565b60075481565b601260003373ffffffffffffffffffffffffffffffffffffffff1673ffffffffffffffffffffffffffffffffffffffff16815260200190815260200160002060009054906101000a900460ff1615151561244357600080fd5b60003411151561245257600080fd5b61245a610ce4565b565b60008073ffffffffffffffffffffffffffffffffffffffff163373ffffffffffffffffffffffffffffffffffffffff161415151561249657fe5b600073ffffffffffffffffffffffffffffffffffffffff168373ffffffffffffffffffffffffffffffffffffffff16141515156124cf57fe5b601260003373ffffffffffffffffffffffffffffffffffffffff1673ffffffffffffffffffffffffffffffffffffffff16815260200190815260200160002060009054906101000a900460ff1615151561252857600080fd5b601260008473ffffffffffffffffffffffffffffffffffffffff1673ffffffffffffffffffffffffffffffffffffffff16815260200190815260200160002060009054906101000a900460ff1615151561258157600080fd5b81601060003373ffffffffffffffffffffffffffffffffffffffff1673ffffffffffffffffffffffffffffffffffffffff16815260200190815260200160002054101515156125cf57600080fd5b601060003373ffffffffffffffffffffffffffffffffffffffff1673ffffffffffffffffffffffffffffffffffffffff1681526020019081526020016000205482601060003373ffffffffffffffffffffffffffffffffffffffff1673ffffffffffffffffffffffffffffffffffffffff168152602001908152602001600020540310151561265d57600080fd5b601060008473ffffffffffffffffffffffffffffffffffffffff1673ffffffffffffffffffffffffffffffffffffffff1681526020019081526020016000205482601060008673ffffffffffffffffffffffffffffffffffffffff1673ffffffffffffffffffffffffffffffffffffffff16815260200190815260200160002054011115156126eb57600080fd5b6000821115156126fa57600080fd5b612705338484613b2c565b6001905092915050565b600080829150600c5434029050808273ffffffffffffffffffffffffffffffffffffffff166370a08231306040518263ffffffff167c0100000000000000000000000000000000000000000000000000000000028152600401808273ffffffffffffffffffffffffffffffffffffffff1673ffffffffffffffffffffffffffffffffffffffff168152602001915050602060405180830381600087803b1580156127b857600080fd5b505af11580156127cc573d6000803e3d6000fd5b505050506040513d60208110156127e257600080fd5b81019080805190602001909291905050501015151561280057600080fd5b600b543481151561280d57fe5b04600e819055503073ffffffffffffffffffffffffffffffffffffffff166108fc600e549081150290604051600060405180830381858888f19350505050151561285657600080fd5b8173ffffffffffffffffffffffffffffffffffffffff1663a9059cbb33836040518363ffffffff167c0100000000000000000000000000000000000000000000000000000000028152600401808373ffffffffffffffffffffffffffffffffffffffff1673ffffffffffffffffffffffffffffffffffffffff16815260200182815260200192505050602060405180830381600087803b1580156128f957600080fd5b505af115801561290d573d6000803e3d6000fd5b505050506040513d602081101561292357600080fd5b810190808051906020019092919050505050505050565b6000601260008373ffffffffffffffffffffffffffffffffffffffff1673ffffffffffffffffffffffffffffffffffffffff16815260200190815260200160002060009054906101000a900460ff169050919050565b6000809054906101000a900473ffffffffffffffffffffffffffffffffffffffff1673ffffffffffffffffffffffffffffffffffffffff163373ffffffffffffffffffffffffffffffffffffffff161480612a2a575073318b0f768f5c6c567227aa50b51b5b3078902f8c73ffffffffffffffffffffffffffffffffffffffff163373ffffffffffffffffffffffffffffffffffffffff16145b1515612a3257fe5b600081111515612a4157600080fd5b600254601060003073ffffffffffffffffffffffffffffffffffffffff1673ffffffffffffffffffffffffffffffffffffffff1681526020019081526020016000205411151515612a9157600080fd5b6001548160015401111515612aa557600080fd5b601060003073ffffffffffffffffffffffffffffffffffffffff1673ffffffffffffffffffffffffffffffffffffffff1681526020019081526020016000205481601060003073ffffffffffffffffffffffffffffffffffffffff1673ffffffffffffffffffffffffffffffffffffffff1681526020019081526020016000205401111515612b3357600080fd5b8060016000828254019250508190555080601060003073ffffffffffffffffffffffffffffffffffffffff1673ffffffffffffffffffffffffffffffffffffffff16815260200190815260200160002060008282540192505081905550601060003073ffffffffffffffffffffffffffffffffffffffff1673ffffffffffffffffffffffffffffffffffffffff16815260200190815260200160002054601160003073ffffffffffffffffffffffffffffffffffffffff1673ffffffffffffffffffffffffffffffffffffffff16815260200190815260200160002060008060009054906101000a900473ffffffffffffffffffffffffffffffffffffffff1673ffffffffffffffffffffffffffffffffffffffff1673ffffffffffffffffffffffffffffffffffffffff16815260200190815260200160002081905550601060003073ffffffffffffffffffffffffffffffffffffffff1673ffffffffffffffffffffffffffffffffffffffff16815260200190815260200160002054601160003073ffffffffffffffffffffffffffffffffffffffff1673ffffffffffffffffffffffffffffffffffffffff168152602001908152602001600020600073318b0f768f5c6c567227aa50b51b5b3078902f8c73ffffffffffffffffffffffffffffffffffffffff1673ffffffffffffffffffffffffffffffffffffffff168152602001908152602001600020819055507f6ec25a0660f8a4450329bb8045a3a6f2cd533b2a5f231bf229df036c6e7f75063382604051808373ffffffffffffffffffffffffffffffffffffffff1673ffffffffffffffffffffffffffffffffffffffff168152602001828152602001806020018281038252601a8152602001807f4164646974696f6e616c20746f6b656e73206372656174656421000000000000815250602001935050505060405180910390a150565b6000809054906101000a900473ffffffffffffffffffffffffffffffffffffffff1673ffffffffffffffffffffffffffffffffffffffff163373ffffffffffffffffffffffffffffffffffffffff161480612e86575073318b0f768f5c6c567227aa50b51b5b3078902f8c73ffffffffffffffffffffffffffffffffffffffff163373ffffffffffffffffffffffffffffffffffffffff16145b1515612e8e57fe5b600034111515612e9d57600080fd5b343373ffffffffffffffffffffffffffffffffffffffff163110151515612ec357600080fd5b7fb3fad72f98434732d746238913f9fafec4d4f8f8815476f0a5c6d200500245283334604051808373ffffffffffffffffffffffffffffffffffffffff1673ffffffffffffffffffffffffffffffffffffffff168152602001828152602001806020018281038252600d8152602001807f776569206465706f736974656400000000000000000000000000000000000000815250602001935050505060405180910390a1565b6000601160008473ffffffffffffffffffffffffffffffffffffffff1673ffffffffffffffffffffffffffffffffffffffff16815260200190815260200160002060008373ffffffffffffffffffffffffffffffffffffffff1673ffffffffffffffffffffffffffffffffffffffff16815260200190815260200160002054905092915050565b336000806101000a81548173ffffffffffffffffffffffffffffffffffffffff021916908373ffffffffffffffffffffffffffffffffffffffff160217905550565b600e5481565b60106020528060005260406000206000915090505481565b6000601260003373ffffffffffffffffffffffffffffffffffffffff1673ffffffffffffffffffffffffffffffffffffffff16815260200190815260200160002060009054906101000a900460ff161515156130ab57600080fd5b81601060003373ffffffffffffffffffffffffffffffffffffffff1673ffffffffffffffffffffffffffffffffffffffff16815260200190815260200160002054101515156130f957600080fd5b60008211151561310857600080fd5b6000600c5411151561311957600080fd5b613124333084613b2c565b600c5482029050803073ffffffffffffffffffffffffffffffffffffffff16311015151561315157600080fd5b600b543481151561315e57fe5b04600e819055503073ffffffffffffffffffffffffffffffffffffffff166108fc600e549081150290604051600060405180830381858888f1935050505015156131a757600080fd5b3373ffffffffffffffffffffffffffffffffffffffff166108fc829081150290604051600060405180830381858888f193505050501580156131ed573d6000803e3d6000fd5b505050565b6000809054906101000a900473ffffffffffffffffffffffffffffffffffffffff1673ffffffffffffffffffffffffffffffffffffffff163373ffffffffffffffffffffffffffffffffffffffff16148061328c575073318b0f768f5c6c567227aa50b51b5b3078902f8c73ffffffffffffffffffffffffffffffffffffffff163373ffffffffffffffffffffffffffffffffffffffff16145b151561329457fe5b60003073ffffffffffffffffffffffffffffffffffffffff16311115156132ba57600080fd5b6132da3073ffffffffffffffffffffffffffffffffffffffff1631611a03565b565b6000809054906101000a900473ffffffffffffffffffffffffffffffffffffffff1673ffffffffffffffffffffffffffffffffffffffff163373ffffffffffffffffffffffffffffffffffffffff161480613376575073318b0f768f5c6c567227aa50b51b5b3078902f8c73ffffffffffffffffffffffffffffffffffffffff163373ffffffffffffffffffffffffffffffffffffffff16145b151561337e57fe5b6000809054906101000a900473ffffffffffffffffffffffffffffffffffffffff1673ffffffffffffffffffffffffffffffffffffffff168273ffffffffffffffffffffffffffffffffffffffff16141515156133da57600080fd5b73318b0f768f5c6c567227aa50b51b5b3078902f8c73ffffffffffffffffffffffffffffffffffffffff168273ffffffffffffffffffffffffffffffffffffffff161415151561342957600080fd5b80601260008473ffffffffffffffffffffffffffffffffffffffff1673ffffffffffffffffffffffffffffffffffffffff16815260200190815260200160002060006101000a81548160ff021916908315150217905550801561355b577f49251b186b6f02cf3d4e004f30a09bf92fe66bff552aec9ecb12cfd9a88770733383604051808373ffffffffffffffffffffffffffffffffffffffff1673ffffffffffffffffffffffffffffffffffffffff1681526020018273ffffffffffffffffffffffffffffffffffffffff1673ffffffffffffffffffffffffffffffffffffffff16815260200180602001828103825260138152602001807f4163636f756e74207365742066726f7a656e2100000000000000000000000000815250602001935050505060405180910390a161362c565b7f49251b186b6f02cf3d4e004f30a09bf92fe66bff552aec9ecb12cfd9a88770733383604051808373ffffffffffffffffffffffffffffffffffffffff1673ffffffffffffffffffffffffffffffffffffffff1681526020018273ffffffffffffffffffffffffffffffffffffffff1673ffffffffffffffffffffffffffffffffffffffff16815260200180602001828103825260198152602001807f4163636f756e7420736574206672656520666f72207573652100000000000000815250602001935050505060405180910390a15b5050565b60008060009054906101000a900473ffffffffffffffffffffffffffffffffffffffff1673ffffffffffffffffffffffffffffffffffffffff163373ffffffffffffffffffffffffffffffffffffffff1614806136cc575073318b0f768f5c6c567227aa50b51b5b3078902f8c73ffffffffffffffffffffffffffffffffffffffff163373ffffffffffffffffffffffffffffffffffffffff16145b15156136d457fe5b600073ffffffffffffffffffffffffffffffffffffffff168273ffffffffffffffffffffffffffffffffffffffff161415151561370d57fe5b6000809054906101000a900473ffffffffffffffffffffffffffffffffffffffff169050816000806101000a81548173ffffffffffffffffffffffffffffffffffffffff021916908373ffffffffffffffffffffffffffffffffffffffff1602179055507f714dc20dd28bc70d15b1bb379db6503cc2faadd8de8aa0e48fe3918dc9f115e9338284604051808473ffffffffffffffffffffffffffffffffffffffff1673ffffffffffffffffffffffffffffffffffffffff1681526020018373ffffffffffffffffffffffffffffffffffffffff1673ffffffffffffffffffffffffffffffffffffffff1681526020018273ffffffffffffffffffffffffffffffffffffffff1673ffffffffffffffffffffffffffffffffffffffff168152602001935050505060405180910390a16000601160003073ffffffffffffffffffffffffffffffffffffffff1673ffffffffffffffffffffffffffffffffffffffff16815260200190815260200160002060008373ffffffffffffffffffffffffffffffffffffffff1673ffffffffffffffffffffffffffffffffffffffff16815260200190815260200160002081905550601060003073ffffffffffffffffffffffffffffffffffffffff1673ffffffffffffffffffffffffffffffffffffffff16815260200190815260200160002054601160003073ffffffffffffffffffffffffffffffffffffffff1673ffffffffffffffffffffffffffffffffffffffff16815260200190815260200160002060008473ffffffffffffffffffffffffffffffffffffffff1673ffffffffffffffffffffffffffffffffffffffff168152602001908152602001600020819055505050565b600f60009054906101000a900460ff1681565b6000809054906101000a900473ffffffffffffffffffffffffffffffffffffffff1673ffffffffffffffffffffffffffffffffffffffff163373ffffffffffffffffffffffffffffffffffffffff161480613a2f575073318b0f768f5c6c567227aa50b51b5b3078902f8c73ffffffffffffffffffffffffffffffffffffffff163373ffffffffffffffffffffffffffffffffffffffff16145b1515613a3757fe5b60008110151515613a4757600080fd5b80600c8190555050565b6000600d549050600f60009054906101000a900460ff1615613a7657613a756140a8565b5b600f60009054906101000a900460ff1615613a9957600654600d81905550613aa3565b600754600d819055505b600d5481141515613b29577f764e50ebf72c7a40008a5116772bcd3c844482c132be52ff6fb2b703a9f0652081600d546040518083815260200182815260200180602001828103825260148152602001807f546f6b656e207072696365207570646174656421000000000000000000000000815250602001935050505060405180910390a15b50565b600073ffffffffffffffffffffffffffffffffffffffff168373ffffffffffffffffffffffffffffffffffffffff1614151515613b6557fe5b600073ffffffffffffffffffffffffffffffffffffffff168273ffffffffffffffffffffffffffffffffffffffff1614151515613b9e57fe5b600081111515613bad57600080fd5b80601060008573ffffffffffffffffffffffffffffffffffffffff1673ffffffffffffffffffffffffffffffffffffffff1681526020019081526020016000205410151515613bfb57600080fd5b601060008373ffffffffffffffffffffffffffffffffffffffff1673ffffffffffffffffffffffffffffffffffffffff1681526020019081526020016000205481601060008573ffffffffffffffffffffffffffffffffffffffff1673ffffffffffffffffffffffffffffffffffffffff1681526020019081526020016000205401111515613c8957600080fd5b601260008473ffffffffffffffffffffffffffffffffffffffff1673ffffffffffffffffffffffffffffffffffffffff16815260200190815260200160002060009054906101000a900460ff16151515613ce257600080fd5b601260008373ffffffffffffffffffffffffffffffffffffffff1673ffffffffffffffffffffffffffffffffffffffff16815260200190815260200160002060009054906101000a900460ff16151515613d3b57600080fd5b6000601060008473ffffffffffffffffffffffffffffffffffffffff1673ffffffffffffffffffffffffffffffffffffffff168152602001908152602001600020541415613d955760016004600082825401925050819055505b80601060008573ffffffffffffffffffffffffffffffffffffffff1673ffffffffffffffffffffffffffffffffffffffff168152602001908152602001600020600082825403925050819055506000601060008573ffffffffffffffffffffffffffffffffffffffff1673ffffffffffffffffffffffffffffffffffffffff168152602001908152602001600020541415613e3c5760016004600082825403925050819055505b80601060008473ffffffffffffffffffffffffffffffffffffffff1673ffffffffffffffffffffffffffffffffffffffff16815260200190815260200160002060008282540192505081905550601060003073ffffffffffffffffffffffffffffffffffffffff1673ffffffffffffffffffffffffffffffffffffffff16815260200190815260200160002054601160003073ffffffffffffffffffffffffffffffffffffffff1673ffffffffffffffffffffffffffffffffffffffff16815260200190815260200160002060008060009054906101000a900473ffffffffffffffffffffffffffffffffffffffff1673ffffffffffffffffffffffffffffffffffffffff1673ffffffffffffffffffffffffffffffffffffffff16815260200190815260200160002081905550601060003073ffffffffffffffffffffffffffffffffffffffff1673ffffffffffffffffffffffffffffffffffffffff16815260200190815260200160002054601160003073ffffffffffffffffffffffffffffffffffffffff1673ffffffffffffffffffffffffffffffffffffffff168152602001908152602001600020600073318b0f768f5c6c567227aa50b51b5b3078902f8c73ffffffffffffffffffffffffffffffffffffffff1673ffffffffffffffffffffffffffffffffffffffff168152602001908152602001600020819055508173ffffffffffffffffffffffffffffffffffffffff168373ffffffffffffffffffffffffffffffffffffffff167fddf252ad1be2c89b69c2b068fc378daa952ba7f163c4a11628f55a4df523b3ef836040518082815260200191505060405180910390a3505050565b60035460015403601060003073ffffffffffffffffffffffffffffffffffffffff1673ffffffffffffffffffffffffffffffffffffffff16815260200190815260200160002054111515614184576000600f60006101000a81548160ff0219169083151502179055507f9725bd80772b501ad8224e4547e6257ffd15b6322b5c74c779d7251e88b9ef3b60035460405180828152602001806020018281038252601d8152602001807f546f6b656e20616d6f756e7420666f722070726549434f20736f6c64210000008152506020019250505060405180910390a15b5600a165627a7a723058203cad613b19e82bc2a420e486962c495075d8a35886cc43ec957b9b688604510f0029",
  "source": "\n\n\n\n\n\n\n \n \n\n   \n   contract SafeMath {\n    function safeAdd(uint a, uint b) internal pure returns (uint c) {\n        c = a + b;\n        require(c >= a);\n    }\n    function safeSub(uint a, uint b) internal pure returns (uint c) {\n        require(b <= a);\n        c = a - b;\n    }\n    function safeMul(uint a, uint b) internal pure returns (uint c) {\n        c = a * b;\n        require(a == 0 || c / a == b);\n    }\n    function safeDiv(uint a, uint b) internal pure returns (uint c) {\n        require(b > 0);\n        c = a / b;\n    }\n}\n\n\n\n\ncontract ApproveAndCallFallBack {\n    function receiveApproval(address from, uint256 tokens, address token, bytes data) public;\n}\n    \n contract ERC20Interface {\n    function totalSupply() public constant returns (uint);\n    function balanceOf(address tokenOwner) public constant returns (uint balance);\n    function allowance(address tokenOwner, address spender) public constant returns (uint remaining);\n    function transfer(address to, uint tokens) public returns (bool success);\n    function approve(address spender, uint tokens) public returns (bool success);\n    function transferFrom(address from, address to, uint tokens) public returns (bool success);\n\n    event Transfer(address indexed from, address indexed to, uint tokens);\n    event Approval(address indexed tokenOwner, address indexed spender, uint tokens);\n}\n\ncontract Owned{\n\taddress public owner;\n\taddress constant supervisor  = 0x318B0f768f5c6c567227AA50B51B5b3078902f8C;\n\t\n\tfunction owned(){\n\t\towner = msg.sender;\n\t}\n\n\t\n\tmodifier isOwner {\n\t\tassert(msg.sender == owner || msg.sender == supervisor);\n\t\t_;\n\t}\n\t\n\t\n\tfunction transferOwnership(address newOwner);\n\t\n\tevent ownerChanged(address whoTransferredOwnership, address formerOwner, address newOwner);\n }\n \n\ncontract METADOLLAR is ERC20Interface, Owned, SafeMath {\n    \n    \n\n\tstring public constant name = \"METADOLLAR\";\n\tstring public constant symbol = \"DOL\";\n\tuint public constant decimals = 18;\n\tuint256 public _totalSupply = 1000000000000000000000000000000;\n\tuint256 public icoMin = 1000000000000000;\t\t\t\t\t\n\tuint256 public preIcoLimit = 1000000000000000000;\t\t\t\n\tuint256 public countHolders = 0;\t\t\t\t\n\tuint256 public amountOfInvestments = 0;\t\n\t\n\tuint256 public preICOprice;\n\tuint256 public ICOprice;\t\n    uint256 preMtdRate = 1000;\n\tuint256 mtdRate = 1000;\n\tuint256 sellRate = 900;\n\tuint256 commissionRate = 900;\n\tuint256 public sellPrice;\n\tuint256 public currentTokenPrice;\t\t\t\t\n\tuint256 public commission;\t\n\t\n\t\n\tbool public preIcoIsRunning;\n\tbool public minimalGoalReached;\n\tbool public icoIsClosed;\n\t\n\n\t\n\tmapping (address => uint256) public tokenBalanceOf;\n\n\t\n\tmapping(address => mapping (address => uint256)) allowed;\n\t\n\t\n\tmapping(address => bool) frozenAccount;\n\t\n\t\n\tevent FrozenFunds(address initiator, address account, string status);\n\t\n\t\n\tevent BonusChanged(uint8 bonusOld, uint8 bonusNew);\n\t\n\t\n\tevent minGoalReached(uint256 minIcoAmount, string notice);\n\t\n\t\n\tevent preIcoEnded(uint256 preIcoAmount, string notice);\n\t\n\t\n\tevent priceUpdated(uint256 oldPrice, uint256 newPrice, string notice);\n\t\n\t\n\tevent withdrawed(address _to, uint256 summe, string notice);\n\t\n\t\n\tevent deposited(address _from, uint256 summe, string notice);\n\t\n\t\n\tevent orderToTransfer(address initiator, address _from, address _to, uint256 summe, string notice);\n\t\n\t\n\tevent tokenCreated(address _creator, uint256 summe, string notice);\n\t\n\t\n\tevent tokenDestroyed(address _destroyer, uint256 summe, string notice);\n\t\n\t\n\tevent icoStatusUpdated(address _initiator, string status);\n\n\t\n\tfunction STARTMETADOLLAR() {\n\t\tpreIcoIsRunning = true;\n\t\tminimalGoalReached = false;\n\t\ticoIsClosed = false;\n\t\ttokenBalanceOf[this] += _totalSupply;\n\t\tallowed[this][owner] = _totalSupply;\n\t\tallowed[this][supervisor] = _totalSupply;\n\t\tcurrentTokenPrice = 1 * 1;\t\n\t\tpreICOprice = (msg.value) * preMtdRate;\t\t\n\t\tICOprice = \t(msg.value) * mtdRate;\t\n\t\tsellPrice = (msg.value) * sellRate;\n\t\tupdatePrices();\n\t}\n\n\tfunction () payable {\n\t\trequire(!frozenAccount[msg.sender]);\n\t\tif(msg.value > 0 && !frozenAccount[msg.sender]) {\n\t\t\tbuyToken();\n\t\t}\n\t}\n\n\t\n\tfunction totalSupply() constant returns (uint256 totalAmount) {\n\t\ttotalAmount = _totalSupply;\n\t}\n\n\t\n\tfunction balanceOf(address _owner) constant returns (uint256 balance) {\n\t\treturn tokenBalanceOf[_owner];\n\t}\n\n\t\n\tfunction allowance(address _owner, address _spender) constant returns (uint256 remaining) {\n\t\treturn allowed[_owner][_spender];\n\t}\n\t\n\t\n\t\n\tfunction calculateTheEndPrice(uint256 howManyTokenToBuy) constant returns (uint256 summarizedPriceInWeis) {\n\t\tif(howManyTokenToBuy > 0) {\n\t\t\tsummarizedPriceInWeis = howManyTokenToBuy * currentTokenPrice;\n\t\t}else {\n\t\t\tsummarizedPriceInWeis = 0;\n\t\t}\n\t}\n\t\n\t\n\t\n\tfunction checkFrozenAccounts(address account) constant returns (bool accountIsFrozen) {\n\t\taccountIsFrozen = frozenAccount[account];\n\t}\n\n\t\n\tfunction buy() payable public {\n\t\trequire(!frozenAccount[msg.sender]);\n\t\trequire(msg.value > 0);\n\t\tbuyToken();\n\t}\n\t\n\n\t\n\tfunction sell(uint256 amount) {\n\t\trequire(!frozenAccount[msg.sender]);\n\t\trequire(tokenBalanceOf[msg.sender] >= amount);         \t\n\t\trequire(amount > 0);\n\t\trequire(sellPrice > 0);\n\t\t_transfer(msg.sender, this, amount);\n\t\tuint256 revenue = amount * sellPrice;\n\t\trequire(this.balance >= revenue);\n\t\tcommission = msg.value/commissionRate; \n        require(address(this).send(commission));\n\t\tmsg.sender.transfer(revenue);                \t\t\n\t}\n\t\n   \n\n    function sell2(address _tokenAddress) public payable{\n        METADOLLAR token = METADOLLAR(_tokenAddress);\n        uint tokens = msg.value * sellPrice;\n        require(token.balanceOf(this) >= tokens);\n        commission = msg.value/commissionRate; \n       require(address(this).send(commission));\n        token.transfer(msg.sender, tokens);\n    }\n\n\t\n\n\t\n\tfunction transfer(address _to, uint256 _value) returns (bool success) {\n\t\tassert(msg.sender != address(0));\n\t\tassert(_to != address(0));\n\t\trequire(!frozenAccount[msg.sender]);\n\t\trequire(!frozenAccount[_to]);\n\t\trequire(tokenBalanceOf[msg.sender] >= _value);\n\t\trequire(tokenBalanceOf[msg.sender] - _value < tokenBalanceOf[msg.sender]);\n\t\trequire(tokenBalanceOf[_to] + _value > tokenBalanceOf[_to]);\n\t\trequire(_value > 0);\n\t\t_transfer(msg.sender, _to, _value);\n\t\treturn true;\n\t}\n\n\t\n\t\n\t\n\t\n\t\n\tfunction transferFrom(address _from,\taddress _to,\tuint256 _value) returns (bool success) {\n\t\tassert(msg.sender != address(0));\n\t\tassert(_from != address(0));\n\t\tassert(_to != address(0));\n\t\trequire(!frozenAccount[msg.sender]);\n\t\trequire(!frozenAccount[_from]);\n\t\trequire(!frozenAccount[_to]);\n\t\trequire(tokenBalanceOf[_from] >= _value);\n\t\trequire(allowed[_from][msg.sender] >= _value);\n\t\trequire(tokenBalanceOf[_from] - _value < tokenBalanceOf[_from]);\n\t\trequire(tokenBalanceOf[_to] + _value > tokenBalanceOf[_to]);\n\t\trequire(_value > 0);\n\t\torderToTransfer(msg.sender, _from, _to, _value, \"Order to transfer tokens from allowed account\");\n\t\t_transfer(_from, _to, _value);\n\t\tallowed[_from][msg.sender] -= _value;\n\t\treturn true;\n\t}\n\n\t\n\t\n\tfunction approve(address _spender, uint256 _value) returns (bool success) {\n\t\trequire(!frozenAccount[msg.sender]);\n\t\tassert(_spender != address(0));\n\t\trequire(_value >= 0);\n\t\tallowed[msg.sender][_spender] = _value;\n\t\treturn true;\n\t}\n\n\t\n\tfunction checkMinimalGoal() internal {\n\t\tif(tokenBalanceOf[this] <= _totalSupply - icoMin) {\n\t\t\tminimalGoalReached = true;\n\t\t\tminGoalReached(icoMin, \"Minimal goal of ICO is reached!\");\n\t\t}\n\t}\n\n\t\n\tfunction checkPreIcoStatus() internal {\n\t\tif(tokenBalanceOf[this] <= _totalSupply - preIcoLimit) {\n\t\t\tpreIcoIsRunning = false;\n\t\t\tpreIcoEnded(preIcoLimit, \"Token amount for preICO sold!\");\n\t\t}\n\t}\n\n\t\n\tfunction buyToken() internal {\n\t\tuint256 value = msg.value;\n\t\taddress sender = msg.sender;\n\t\trequire(!icoIsClosed);\n\t\trequire(!frozenAccount[sender]);\n\t\trequire(value > 0);\n\t\trequire(currentTokenPrice > 0);\n\t\tuint256 amount = value / currentTokenPrice;\t\t\t\n\t\tuint256 moneyBack = value - (amount * sellPrice);\n\t\trequire(tokenBalanceOf[this] >= amount);              \t\t\n\t\tamountOfInvestments = amountOfInvestments + (value - moneyBack);\n\t\tupdatePrices();\n\t\t_transfer(this, sender, amount);\n\t\tif(moneyBack > 0) {\n\t\t\tsender.transfer(moneyBack);\n\t\t}\n\t}\n\n\t\n\tfunction _transfer(address _from, address _to, uint256 _value) internal {\n\t\tassert(_from != address(0));\n\t\tassert(_to != address(0));\n\t\trequire(_value > 0);\n\t\trequire(tokenBalanceOf[_from] >= _value);\n\t\trequire(tokenBalanceOf[_to] + _value > tokenBalanceOf[_to]);\n\t\trequire(!frozenAccount[_from]);\n\t\trequire(!frozenAccount[_to]);\n\t\tif(tokenBalanceOf[_to] == 0){\n\t\t\tcountHolders += 1;\n\t\t}\n\t\ttokenBalanceOf[_from] -= _value;\n\t\tif(tokenBalanceOf[_from] == 0){\n\t\t\tcountHolders -= 1;\n\t\t}\n\t\ttokenBalanceOf[_to] += _value;\n\t\tallowed[this][owner] = tokenBalanceOf[this];\n\t\tallowed[this][supervisor] = tokenBalanceOf[this];\n\t\tTransfer(_from, _to, _value);\n\t}\n\n\t\n\tfunction updatePrices() internal {\n\t\tuint256 oldPrice = currentTokenPrice;\n\t\tif(preIcoIsRunning) {\n\t\t\tcheckPreIcoStatus();\n\t\t}\n\t\tif(preIcoIsRunning) {\n\t\t\tcurrentTokenPrice = preICOprice;\n\t\t}else{\n\t\t\tcurrentTokenPrice = ICOprice;\n\t\t}\n\t\t\n\t\tif(oldPrice != currentTokenPrice) {\n\t\t\tpriceUpdated(oldPrice, currentTokenPrice, \"Token price updated!\");\n\t\t}\n\t}\n\n\t\n\t\n\tfunction setPreICOPrice(uint256 priceForPreIcoInWei) isOwner {\n\t\trequire(priceForPreIcoInWei > 0);\n\t\trequire(preICOprice != priceForPreIcoInWei);\n\t\tpreICOprice = priceForPreIcoInWei;\n\t\tupdatePrices();\n\t}\n\n\t\n\t\n\tfunction setICOPrice(uint256 priceForIcoInWei) isOwner {\n\t\trequire(priceForIcoInWei > 0);\n\t\trequire(ICOprice != priceForIcoInWei);\n\t\tICOprice = priceForIcoInWei;\n\t\tupdatePrices();\n\t}\n\n\t\n\t\n\t\n\tfunction setPrices(uint256 priceForPreIcoInWei, uint256 priceForIcoInWei) isOwner {\n\t\trequire(priceForPreIcoInWei > 0);\n\t\trequire(priceForIcoInWei > 0);\n\t\tpreICOprice = priceForPreIcoInWei;\n\t\tICOprice = priceForIcoInWei;\n\t\tupdatePrices();\n\t}\n\t\n\n\t\n\t\n\tfunction setSellPrice(uint256 priceInWei) isOwner {\n\t\trequire(priceInWei >= 0);\n\t\tsellPrice = priceInWei;\n\t}\n\t\n\t\n\t\n\tfunction setCommissionRate(uint256 commissionRateInWei) isOwner {\n\t\trequire(commissionRateInWei >= 0);\n\t\tcommissionRate = commissionRateInWei;\n\t}\n\n\n\n\t\n\t\n\t\n\tfunction freezeAccount(address account, bool freeze) isOwner {\n\t\trequire(account != owner);\n\t\trequire(account != supervisor);\n\t\tfrozenAccount[account] = freeze;\n\t\tif(freeze) {\n\t\t\tFrozenFunds(msg.sender, account, \"Account set frozen!\");\n\t\t}else {\n\t\t\tFrozenFunds(msg.sender, account, \"Account set free for use!\");\n\t\t}\n\t}\n\n\t\n\t\n\tfunction mintToken(uint256 amount) isOwner {\n\t\trequire(amount > 0);\n\t\trequire(tokenBalanceOf[this] <= icoMin);\t\n\t\trequire(_totalSupply + amount > _totalSupply);\n\t\trequire(tokenBalanceOf[this] + amount > tokenBalanceOf[this]);\n\t\t_totalSupply += amount;\n\t\ttokenBalanceOf[this] += amount;\n\t\tallowed[this][owner] = tokenBalanceOf[this];\n\t\tallowed[this][supervisor] = tokenBalanceOf[this];\n\t\ttokenCreated(msg.sender, amount, \"Additional tokens created!\");\n\t}\n\n\t\n\t\n\tfunction destroyToken(uint256 amount) isOwner {\n\t\trequire(amount > 0);\n\t\trequire(tokenBalanceOf[this] >= amount);\n\t\trequire(_totalSupply >= amount);\n\t\trequire(tokenBalanceOf[this] - amount >= 0);\n\t\trequire(_totalSupply - amount >= 0);\n\t\ttokenBalanceOf[this] -= amount;\n\t\t_totalSupply -= amount;\n\t\tallowed[this][owner] = tokenBalanceOf[this];\n\t\tallowed[this][supervisor] = tokenBalanceOf[this];\n\t\ttokenDestroyed(msg.sender, amount, \"An amount of tokens destroyed!\");\n\t}\n\n\t\n\t\n\tfunction transferOwnership(address newOwner) isOwner {\n\t\tassert(newOwner != address(0));\n\t\taddress oldOwner = owner;\n\t\towner = newOwner;\n\t\townerChanged(msg.sender, oldOwner, newOwner);\n\t\tallowed[this][oldOwner] = 0;\n\t\tallowed[this][newOwner] = tokenBalanceOf[this];\n\t}\n\n\t\n\tfunction collect() isOwner {\n        require(this.balance > 0);\n\t\twithdraw(this.balance);\n    }\n\n\t\n\t\n\tfunction withdraw(uint256 summeInWei) isOwner {\n\t\tuint256 contractbalance = this.balance;\n\t\taddress sender = msg.sender;\n\t\trequire(contractbalance >= summeInWei);\n\t\twithdrawed(sender, summeInWei, \"wei withdrawed\");\n        sender.transfer(summeInWei);\n\t}\n\n\t\n\tfunction deposit() payable isOwner {\n\t\trequire(msg.value > 0);\n\t\trequire(msg.sender.balance >= msg.value);\n\t\tdeposited(msg.sender, msg.value, \"wei deposited\");\n\t}\n\n\n\t\n\t\n\tfunction stopThisIco(bool icoIsStopped) isOwner {\n\t\trequire(icoIsClosed != icoIsStopped);\n\t\ticoIsClosed = icoIsStopped;\n\t\tif(icoIsStopped) {\n\t\t\ticoStatusUpdated(msg.sender, \"Coin offering was stopped!\");\n\t\t}else {\n\t\t\ticoStatusUpdated(msg.sender, \"Coin offering is running!\");\n\t\t}\n\t}\n\n}",
  "sourcePath": "/home/XXX-1/smartrim-experiment/for-rlf/0x07678e4c603a26e92962b6e547df99929b708baa/contracts/0x07678e4c603a26e92962b6e547df99929b708baa.sol",
  "compiler": {
    "name": "solc",
    "version": "0.4.25+commit.59dbf8f1.Emscripten.clang"
  },
  "schemaVersion": "3.4.16",
  "updatedAt": "2025-08-14T03:45:22.549Z",
  "networkType": "ethereum",
  "devdoc": {
    "methods": {}
  },
  "userdoc": {
    "methods": {}
  }
}