{
  "contractName": "EDUToken",
  "abi": [
    {
      "constant": true,
      "inputs": [],
      "name": "preSaleStartTime",
      "outputs": [
        {
          "name": "",
          "type": "uint256"
        }
      ],
      "payable": false,
      "stateMutability": "view",
      "type": "function"
    },
    {
      "constant": true,
      "inputs": [],
      "name": "name",
      "outputs": [
        {
          "name": "",
          "type": "string"
        }
      ],
      "payable": false,
      "stateMutability": "view",
      "type": "function"
    },
    {
      "constant": false,
      "inputs": [
        {
          "name": "_spender",
          "type": "address"
        },
        {
          "name": "_amount",
          "type": "uint256"
        }
      ],
      "name": "approve",
      "outputs": [
        {
          "name": "success",
          "type": "bool"
        }
      ],
      "payable": false,
      "stateMutability": "nonpayable",
      "type": "function"
    },
    {
      "constant": true,
      "inputs": [],
      "name": "sigBountyProgramEDUSupply",
      "outputs": [
        {
          "name": "",
          "type": "uint256"
        }
      ],
      "payable": false,
      "stateMutability": "view",
      "type": "function"
    },
    {
      "constant": true,
      "inputs": [],
      "name": "EDU_PER_ETH_SALE",
      "outputs": [
        {
          "name": "",
          "type": "uint256"
        }
      ],
      "payable": false,
      "stateMutability": "view",
      "type": "function"
    },
    {
      "constant": true,
      "inputs": [],
      "name": "certifier",
      "outputs": [
        {
          "name": "",
          "type": "address"
        }
      ],
      "payable": false,
      "stateMutability": "view",
      "type": "function"
    },
    {
      "constant": true,
      "inputs": [],
      "name": "presaleAddress",
      "outputs": [
        {
          "name": "",
          "type": "address"
        }
      ],
      "payable": false,
      "stateMutability": "view",
      "type": "function"
    },
    {
      "constant": true,
      "inputs": [],
      "name": "totalSupply",
      "outputs": [
        {
          "name": "",
          "type": "uint256"
        }
      ],
      "payable": false,
      "stateMutability": "view",
      "type": "function"
    },
    {
      "constant": true,
      "inputs": [],
      "name": "PresaleEDUSupply",
      "outputs": [
        {
          "name": "",
          "type": "uint256"
        }
      ],
      "payable": false,
      "stateMutability": "view",
      "type": "function"
    },
    {
      "constant": true,
      "inputs": [],
      "name": "maxPresaleEDUSupply",
      "outputs": [
        {
          "name": "",
          "type": "uint256"
        }
      ],
      "payable": false,
      "stateMutability": "view",
      "type": "function"
    },
    {
      "constant": true,
      "inputs": [],
      "name": "saleStartTime",
      "outputs": [
        {
          "name": "",
          "type": "uint256"
        }
      ],
      "payable": false,
      "stateMutability": "view",
      "type": "function"
    },
    {
      "constant": true,
      "inputs": [],
      "name": "EDU_PER_ETH_PRE_SALE",
      "outputs": [
        {
          "name": "",
          "type": "uint256"
        }
      ],
      "payable": false,
      "stateMutability": "view",
      "type": "function"
    },
    {
      "constant": true,
      "inputs": [],
      "name": "EDU_PER_ETH_EARLY_PRE_SALE",
      "outputs": [
        {
          "name": "",
          "type": "uint256"
        }
      ],
      "payable": false,
      "stateMutability": "view",
      "type": "function"
    },
    {
      "constant": false,
      "inputs": [
        {
          "name": "_from",
          "type": "address"
        },
        {
          "name": "_to",
          "type": "address"
        },
        {
          "name": "_amount",
          "type": "uint256"
        }
      ],
      "name": "transferFrom",
      "outputs": [
        {
          "name": "success",
          "type": "bool"
        }
      ],
      "payable": false,
      "stateMutability": "nonpayable",
      "type": "function"
    },
    {
      "constant": true,
      "inputs": [],
      "name": "earlyPresaleEDUSupply",
      "outputs": [
        {
          "name": "",
          "type": "uint256"
        }
      ],
      "payable": false,
      "stateMutability": "view",
      "type": "function"
    },
    {
      "constant": true,
      "inputs": [],
      "name": "LockEDUTeam",
      "outputs": [
        {
          "name": "",
          "type": "uint256"
        }
      ],
      "payable": false,
      "stateMutability": "view",
      "type": "function"
    },
    {
      "constant": true,
      "inputs": [
        {
          "name": "",
          "type": "address"
        }
      ],
      "name": "WEIContributed",
      "outputs": [
        {
          "name": "",
          "type": "uint256"
        }
      ],
      "payable": false,
      "stateMutability": "view",
      "type": "function"
    },
    {
      "constant": true,
      "inputs": [],
      "name": "decimals",
      "outputs": [
        {
          "name": "",
          "type": "uint256"
        }
      ],
      "payable": false,
      "stateMutability": "view",
      "type": "function"
    },
    {
      "constant": true,
      "inputs": [],
      "name": "sigTeamAndAdvisersEDUSupply",
      "outputs": [
        {
          "name": "",
          "type": "uint256"
        }
      ],
      "payable": false,
      "stateMutability": "view",
      "type": "function"
    },
    {
      "constant": true,
      "inputs": [],
      "name": "sigTeamAndAdvisersAddress",
      "outputs": [
        {
          "name": "",
          "type": "address"
        }
      ],
      "payable": false,
      "stateMutability": "view",
      "type": "function"
    },
    {
      "constant": true,
      "inputs": [],
      "name": "totalEDUSAllocated",
      "outputs": [
        {
          "name": "",
          "type": "uint256"
        }
      ],
      "payable": false,
      "stateMutability": "view",
      "type": "function"
    },
    {
      "constant": true,
      "inputs": [],
      "name": "version",
      "outputs": [
        {
          "name": "",
          "type": "string"
        }
      ],
      "payable": false,
      "stateMutability": "view",
      "type": "function"
    },
    {
      "constant": true,
      "inputs": [],
      "name": "contributionsAddress",
      "outputs": [
        {
          "name": "",
          "type": "address"
        }
      ],
      "payable": false,
      "stateMutability": "view",
      "type": "function"
    },
    {
      "constant": false,
      "inputs": [
        {
          "name": "_preSaleStartTime",
          "type": "uint256"
        },
        {
          "name": "_preSaleEndTime",
          "type": "uint256"
        }
      ],
      "name": "setPresaleTime",
      "outputs": [
        {
          "name": "success",
          "type": "bool"
        }
      ],
      "payable": false,
      "stateMutability": "nonpayable",
      "type": "function"
    },
    {
      "constant": false,
      "inputs": [
        {
          "name": "_address",
          "type": "address"
        }
      ],
      "name": "updateCertifier",
      "outputs": [
        {
          "name": "success",
          "type": "bool"
        }
      ],
      "payable": false,
      "stateMutability": "nonpayable",
      "type": "function"
    },
    {
      "constant": false,
      "inputs": [
        {
          "name": "_spender",
          "type": "address"
        },
        {
          "name": "_subtractedValue",
          "type": "uint256"
        }
      ],
      "name": "decreaseApproval",
      "outputs": [
        {
          "name": "success",
          "type": "bool"
        }
      ],
      "payable": false,
      "stateMutability": "nonpayable",
      "type": "function"
    },
    {
      "constant": true,
      "inputs": [
        {
          "name": "_owner",
          "type": "address"
        }
      ],
      "name": "balanceOf",
      "outputs": [
        {
          "name": "balance",
          "type": "uint256"
        }
      ],
      "payable": false,
      "stateMutability": "view",
      "type": "function"
    },
    {
      "constant": true,
      "inputs": [],
      "name": "maxEarlyPresaleEDUSupply",
      "outputs": [
        {
          "name": "",
          "type": "uint256"
        }
      ],
      "payable": false,
      "stateMutability": "view",
      "type": "function"
    },
    {
      "constant": true,
      "inputs": [],
      "name": "SaleEDUSupply",
      "outputs": [
        {
          "name": "",
          "type": "uint256"
        }
      ],
      "payable": false,
      "stateMutability": "view",
      "type": "function"
    },
    {
      "constant": true,
      "inputs": [],
      "name": "ownerAddress",
      "outputs": [
        {
          "name": "",
          "type": "address"
        }
      ],
      "payable": false,
      "stateMutability": "view",
      "type": "function"
    },
    {
      "constant": true,
      "inputs": [],
      "name": "symbol",
      "outputs": [
        {
          "name": "",
          "type": "string"
        }
      ],
      "payable": false,
      "stateMutability": "view",
      "type": "function"
    },
    {
      "constant": true,
      "inputs": [],
      "name": "totalEDUSLeft",
      "outputs": [
        {
          "name": "",
          "type": "uint256"
        }
      ],
      "payable": false,
      "stateMutability": "view",
      "type": "function"
    },
    {
      "constant": false,
      "inputs": [
        {
          "name": "_saleStartTime",
          "type": "uint256"
        },
        {
          "name": "_saleEndTime",
          "type": "uint256"
        }
      ],
      "name": "setSaleTimes",
      "outputs": [
        {
          "name": "success",
          "type": "bool"
        }
      ],
      "payable": false,
      "stateMutability": "nonpayable",
      "type": "function"
    },
    {
      "constant": false,
      "inputs": [
        {
          "name": "_to",
          "type": "address"
        },
        {
          "name": "_amount",
          "type": "uint256"
        }
      ],
      "name": "transfer",
      "outputs": [
        {
          "name": "success",
          "type": "bool"
        }
      ],
      "payable": false,
      "stateMutability": "nonpayable",
      "type": "function"
    },
    {
      "constant": false,
      "inputs": [
        {
          "name": "_valEarlyPresale",
          "type": "uint256"
        },
        {
          "name": "_valPresale",
          "type": "uint256"
        },
        {
          "name": "_valSale",
          "type": "uint256"
        }
      ],
      "name": "setEDUPrice",
      "outputs": [
        {
          "name": "success",
          "type": "bool"
        }
      ],
      "payable": false,
      "stateMutability": "nonpayable",
      "type": "function"
    },
    {
      "constant": true,
      "inputs": [],
      "name": "allowContribution",
      "outputs": [
        {
          "name": "",
          "type": "bool"
        }
      ],
      "payable": false,
      "stateMutability": "view",
      "type": "function"
    },
    {
      "constant": true,
      "inputs": [],
      "name": "totalWEIInvested",
      "outputs": [
        {
          "name": "",
          "type": "uint256"
        }
      ],
      "payable": false,
      "stateMutability": "view",
      "type": "function"
    },
    {
      "constant": true,
      "inputs": [],
      "name": "TotalEDUSupply",
      "outputs": [
        {
          "name": "",
          "type": "uint256"
        }
      ],
      "payable": false,
      "stateMutability": "view",
      "type": "function"
    },
    {
      "constant": true,
      "inputs": [],
      "name": "preSaleEndTime",
      "outputs": [
        {
          "name": "",
          "type": "uint256"
        }
      ],
      "payable": false,
      "stateMutability": "view",
      "type": "function"
    },
    {
      "constant": false,
      "inputs": [
        {
          "name": "_spender",
          "type": "address"
        },
        {
          "name": "_addedValue",
          "type": "uint256"
        }
      ],
      "name": "increaseApproval",
      "outputs": [
        {
          "name": "success",
          "type": "bool"
        }
      ],
      "payable": false,
      "stateMutability": "nonpayable",
      "type": "function"
    },
    {
      "constant": true,
      "inputs": [
        {
          "name": "_owner",
          "type": "address"
        },
        {
          "name": "_spender",
          "type": "address"
        }
      ],
      "name": "allowance",
      "outputs": [
        {
          "name": "remaining",
          "type": "uint256"
        }
      ],
      "payable": false,
      "stateMutability": "view",
      "type": "function"
    },
    {
      "constant": true,
      "inputs": [],
      "name": "EDU_KYC_BONUS",
      "outputs": [
        {
          "name": "",
          "type": "uint256"
        }
      ],
      "payable": false,
      "stateMutability": "view",
      "type": "function"
    },
    {
      "constant": false,
      "inputs": [
        {
          "name": "_allowContribution",
          "type": "bool"
        }
      ],
      "name": "setAllowContributionFlag",
      "outputs": [
        {
          "name": "success",
          "type": "bool"
        }
      ],
      "payable": false,
      "stateMutability": "nonpayable",
      "type": "function"
    },
    {
      "constant": true,
      "inputs": [],
      "name": "saleEndTime",
      "outputs": [
        {
          "name": "",
          "type": "uint256"
        }
      ],
      "payable": false,
      "stateMutability": "view",
      "type": "function"
    },
    {
      "constant": true,
      "inputs": [],
      "name": "sigBountyProgramAddress",
      "outputs": [
        {
          "name": "",
          "type": "address"
        }
      ],
      "payable": false,
      "stateMutability": "view",
      "type": "function"
    },
    {
      "constant": true,
      "inputs": [],
      "name": "OSUniEDUSupply",
      "outputs": [
        {
          "name": "",
          "type": "uint256"
        }
      ],
      "payable": false,
      "stateMutability": "view",
      "type": "function"
    },
    {
      "constant": true,
      "inputs": [],
      "name": "saleAddress",
      "outputs": [
        {
          "name": "",
          "type": "address"
        }
      ],
      "payable": false,
      "stateMutability": "view",
      "type": "function"
    },
    {
      "inputs": [],
      "payable": false,
      "stateMutability": "nonpayable",
      "type": "constructor"
    },
    {
      "payable": true,
      "stateMutability": "payable",
      "type": "fallback"
    },
    {
      "anonymous": false,
      "inputs": [
        {
          "indexed": true,
          "name": "_creator",
          "type": "address"
        },
        {
          "indexed": false,
          "name": "_amountOfEDU",
          "type": "uint256"
        }
      ],
      "name": "CreatedEDU",
      "type": "event"
    },
    {
      "anonymous": false,
      "inputs": [
        {
          "indexed": true,
          "name": "_from",
          "type": "address"
        },
        {
          "indexed": true,
          "name": "_to",
          "type": "address"
        },
        {
          "indexed": false,
          "name": "_value",
          "type": "uint256"
        }
      ],
      "name": "Transfer",
      "type": "event"
    },
    {
      "anonymous": false,
      "inputs": [
        {
          "indexed": true,
          "name": "_owner",
          "type": "address"
        },
        {
          "indexed": true,
          "name": "_spender",
          "type": "address"
        },
        {
          "indexed": false,
          "name": "_value",
          "type": "uint256"
        }
      ],
      "name": "Approval",
      "type": "event"
    }
  ],
  "bytecode": "0x60806040526040805190810160405280600381526020017f312e300000000000000000000000000000000000000000000000000000000000815250600490805190602001906200005192919062000592565b506207a120600b55610546600d556104b0600e556001601560146101000a81548160ff0219169083151502179055506000601655600060175560006018553480156200009c57600080fd5b506101238061012380610123731e2f058c43ac8965938f6e9ca286685a3e63f24e600360006101000a81548173ffffffffffffffffffffffffffffffffffffffff021916908373ffffffffffffffffffffffffffffffffffffffff16021790555033601060006101000a81548173ffffffffffffffffffffffffffffffffffffffff021916908373ffffffffffffffffffffffffffffffffffffffff16021790555084601160006101000a81548173ffffffffffffffffffffffffffffffffffffffff021916908373ffffffffffffffffffffffffffffffffffffffff16021790555083601260006101000a81548173ffffffffffffffffffffffffffffffffffffffff021916908373ffffffffffffffffffffffffffffffffffffffff16021790555082601360006101000a81548173ffffffffffffffffffffffffffffffffffffffff021916908373ffffffffffffffffffffffffffffffffffffffff16021790555081601460006101000a81548173ffffffffffffffffffffffffffffffffffffffff021916908373ffffffffffffffffffffffffffffffffffffffff16021790555080601560006101000a81548173ffffffffffffffffffffffffffffffffffffffff021916908373ffffffffffffffffffffffffffffffffffffffff160217905550635a12c3c0600581905550635a4979ff6006819055506301e1338060065401600c8190555064060eaca80060098190555064051e593800600a8190555064138eca480060016000601560009054906101000a900473ffffffffffffffffffffffffffffffffffffffff1673ffffffffffffffffffffffffffffffffffffffff1673ffffffffffffffffffffffffffffffffffffffff168152602001908152602001600020819055506200035564051e59380064060eaca8006200055964010000000002620016fb176401000000009004565b60016000601160009054906101000a900473ffffffffffffffffffffffffffffffffffffffff1673ffffffffffffffffffffffffffffffffffffffff1673ffffffffffffffffffffffffffffffffffffffff168152602001908152602001600020819055506445d964b80060016000601260009054906101000a900473ffffffffffffffffffffffffffffffffffffffff1673ffffffffffffffffffffffffffffffffffffffff1673ffffffffffffffffffffffffffffffffffffffff168152602001908152602001600020819055506408f0d1800060016000601360009054906101000a900473ffffffffffffffffffffffffffffffffffffffff1673ffffffffffffffffffffffffffffffffffffffff1673ffffffffffffffffffffffffffffffffffffffff1681526020019081526020016000208190555064023c34600060016000601460009054906101000a900473ffffffffffffffffffffffffffffffffffffffff1673ffffffffffffffffffffffffffffffffffffffff1673ffffffffffffffffffffffffffffffffffffffff1681526020019081526020016000208190555064023c3460006408f0d1800064138eca480001016018819055506200053c646fc23ac0006018546200057864010000000002620016e2176401000000009004565b601781905550646fc23ac000600081905550505050505062000641565b60008082840190508381101515156200056e57fe5b8091505092915050565b60008282111515156200058757fe5b818303905092915050565b828054600181600116156101000203166002900490600052602060002090601f016020900481019282601f10620005d557805160ff191683800117855562000606565b8280016001018555821562000606579182015b8281111562000605578251825591602001919060010190620005e8565b5b50905062000615919062000619565b5090565b6200063e91905b808211156200063a57600081600090555060010162000620565b5090565b90565b6135c080620006516000396000f30060806040526004361061023b576000357c0100000000000000000000000000000000000000000000000000000000900463ffffffff16806306d65af3146107d557806306fdde0314610800578063095ea7b3146108905780630d543862146108f5578063100f759f14610920578063120c7efd1461094b578063122fe685146109a257806318160ddd146109f957806318e75a1c14610a245780631c54504914610a4f5780631cbaee2d14610a7a5780631f97ea5d14610aa557806323169fca14610ad057806323b872dd14610afb5780632bb03ab914610b805780632c64b05f14610bab5780632f1ad44914610bd6578063313ce56714610c2d5780633811861414610c5857806340a7236314610c835780634c136ea814610cda57806354fd4d5014610d055780635c10b2e814610d955780635c40329e14610dec5780635f5df71014610e3b5780636618846314610e9657806370a0823114610efb5780637583a52314610f525780638224ca2b14610f7d5780638f84aa0914610fa857806395d89b4114610fff5780639af8f5de1461108f578063a7f3e70f146110ba578063a9059cbb14611109578063b11a2a971461116e578063c319e412146111c7578063c3a1e7cc146111f6578063c5105bb514611221578063cce29ea71461124c578063d73dd62314611277578063dd62ed3e146112dc578063e1fd632f14611353578063e4dec8251461137e578063ed338ff1146113c5578063fd619dce146113f0578063ffbd73d014611447578063fffe088d14611472575b6000806000346706f05b59d3b200001115151561025757600080fd5b601560149054906101000a900460ff16151561027257600080fd5b600360009054906101000a900473ffffffffffffffffffffffffffffffffffffffff1673ffffffffffffffffffffffffffffffffffffffff1663cc1d4c02336040518263ffffffff167c0100000000000000000000000000000000000000000000000000000000028152600401808273ffffffffffffffffffffffffffffffffffffffff1673ffffffffffffffffffffffffffffffffffffffff168152602001915050602060405180830381600087803b15801561032f57600080fd5b505af1158015610343573d6000803e3d6000fd5b505050506040513d602081101561035957600080fd5b8101908080519060200190929190505050151561037557600080fd5b349250600091506005544211801561038e575060065442105b156105b3576103c0655af3107a40006103b2600d54866114c990919063ffffffff16565b6114fc90919063ffffffff16565b91506000601960003373ffffffffffffffffffffffffffffffffffffffff1673ffffffffffffffffffffffffffffffffffffffff1681526020019081526020016000205411151561041357600b54820191505b600060095411801561042757508160095410155b1561048357610458601160009054906101000a900473ffffffffffffffffffffffffffffffffffffffff1683611517565b151561046357600080fd5b610478826009546116e290919063ffffffff16565b6009819055506105ae565b6000600a5411156105a85760006009541415156104c0576104b1600954600a546116fb90919063ffffffff16565b600a8190555060006009819055505b6104ed655af3107a40006104df600e54866114c990919063ffffffff16565b6114fc90919063ffffffff16565b91506000601960003373ffffffffffffffffffffffffffffffffffffffff1673ffffffffffffffffffffffffffffffffffffffff1681526020019081526020016000205411151561054057600b54820191505b81600a541015151561055157600080fd5b61057d601160009054906101000a900473ffffffffffffffffffffffffffffffffffffffff1683611517565b151561058857600080fd5b61059d82600a546116e290919063ffffffff16565b600a819055506105ad565b600080fd5b5b61064c565b600754421180156105c5575060085442105b15610646576105f7655af3107a40006105e9600f54866114c990919063ffffffff16565b6114fc90919063ffffffff16565b9150816017541015151561060a57600080fd5b610636601260009054906101000a900473ffffffffffffffffffffffffffffffffffffffff1683611517565b151561064157600080fd5b61064b565b600080fd5b5b610661836016546116fb90919063ffffffff16565b601681905550600060165411151561067557fe5b6106c783601960003373ffffffffffffffffffffffffffffffffffffffff1673ffffffffffffffffffffffffffffffffffffffff168152602001908152602001600020546116fb90919063ffffffff16565b90506000811115156106d557fe5b80601960003373ffffffffffffffffffffffffffffffffffffffff1673ffffffffffffffffffffffffffffffffffffffff16815260200190815260200160002081905550601560009054906101000a900473ffffffffffffffffffffffffffffffffffffffff1673ffffffffffffffffffffffffffffffffffffffff166108fc849081150290604051600060405180830381858888f19350505050158015610781573d6000803e3d6000fd5b503373ffffffffffffffffffffffffffffffffffffffff167f4728d3aec5d990e3b00473c5fd75130f4bba5d33deaab88e8b4314f4faa34186836040518082815260200191505060405180910390a2505050005b3480156107e157600080fd5b506107ea611719565b6040518082815260200191505060405180910390f35b34801561080c57600080fd5b5061081561171f565b6040518080602001828103825283818151815260200191508051906020019080838360005b8381101561085557808201518184015260208101905061083a565b50505050905090810190601f1680156108825780820380516001836020036101000a031916815260200191505b509250505060405180910390f35b34801561089c57600080fd5b506108db600480360381019080803573ffffffffffffffffffffffffffffffffffffffff16906020019092919080359060200190929190505050611758565b604051808215151515815260200191505060405180910390f35b34801561090157600080fd5b5061090a611bf5565b6040518082815260200191505060405180910390f35b34801561092c57600080fd5b50610935611bfe565b6040518082815260200191505060405180910390f35b34801561095757600080fd5b50610960611c04565b604051808273ffffffffffffffffffffffffffffffffffffffff1673ffffffffffffffffffffffffffffffffffffffff16815260200191505060405180910390f35b3480156109ae57600080fd5b506109b7611c2a565b604051808273ffffffffffffffffffffffffffffffffffffffff1673ffffffffffffffffffffffffffffffffffffffff16815260200191505060405180910390f35b348015610a0557600080fd5b50610a0e611c50565b6040518082815260200191505060405180910390f35b348015610a3057600080fd5b50610a39611c56565b6040518082815260200191505060405180910390f35b348015610a5b57600080fd5b50610a64611c5c565b6040518082815260200191505060405180910390f35b348015610a8657600080fd5b50610a8f611c65565b6040518082815260200191505060405180910390f35b348015610ab157600080fd5b50610aba611c6b565b6040518082815260200191505060405180910390f35b348015610adc57600080fd5b50610ae5611c71565b6040518082815260200191505060405180910390f35b348015610b0757600080fd5b50610b66600480360381019080803573ffffffffffffffffffffffffffffffffffffffff169060200190929190803573ffffffffffffffffffffffffffffffffffffffff16906020019092919080359060200190929190505050611c77565b604051808215151515815260200191505060405180910390f35b348015610b8c57600080fd5b50610b9561253d565b6040518082815260200191505060405180910390f35b348015610bb757600080fd5b50610bc0612543565b6040518082815260200191505060405180910390f35b348015610be257600080fd5b50610c17600480360381019080803573ffffffffffffffffffffffffffffffffffffffff169060200190929190505050612549565b6040518082815260200191505060405180910390f35b348015610c3957600080fd5b50610c42612561565b6040518082815260200191505060405180910390f35b348015610c6457600080fd5b50610c6d612566565b6040518082815260200191505060405180910390f35b348015610c8f57600080fd5b50610c9861256f565b604051808273ffffffffffffffffffffffffffffffffffffffff1673ffffffffffffffffffffffffffffffffffffffff16815260200191505060405180910390f35b348015610ce657600080fd5b50610cef612595565b6040518082815260200191505060405180910390f35b348015610d1157600080fd5b50610d1a61259b565b6040518080602001828103825283818151815260200191508051906020019080838360005b83811015610d5a578082015181840152602081019050610d3f565b50505050905090810190601f168015610d875780820380516001836020036101000a031916815260200191505b509250505060405180910390f35b348015610da157600080fd5b50610daa612639565b604051808273ffffffffffffffffffffffffffffffffffffffff1673ffffffffffffffffffffffffffffffffffffffff16815260200191505060405180910390f35b348015610df857600080fd5b50610e21600480360381019080803590602001909291908035906020019092919050505061265f565b604051808215151515815260200191505060405180910390f35b348015610e4757600080fd5b50610e7c600480360381019080803573ffffffffffffffffffffffffffffffffffffffff1690602001909291905050506126d5565b604051808215151515815260200191505060405180910390f35b348015610ea257600080fd5b50610ee1600480360381019080803573ffffffffffffffffffffffffffffffffffffffff16906020019092919080359060200190929190505050612721565b604051808215151515815260200191505060405180910390f35b348015610f0757600080fd5b50610f3c600480360381019080803573ffffffffffffffffffffffffffffffffffffffff1690602001909291905050506129b2565b6040518082815260200191505060405180910390f35b348015610f5e57600080fd5b50610f676129fb565b6040518082815260200191505060405180910390f35b348015610f8957600080fd5b50610f92612a04565b6040518082815260200191505060405180910390f35b348015610fb457600080fd5b50610fbd612a0d565b604051808273ffffffffffffffffffffffffffffffffffffffff1673ffffffffffffffffffffffffffffffffffffffff16815260200191505060405180910390f35b34801561100b57600080fd5b50611014612a33565b6040518080602001828103825283818151815260200191508051906020019080838360005b83811015611054578082015181840152602081019050611039565b50505050905090810190601f1680156110815780820380516001836020036101000a031916815260200191505b509250505060405180910390f35b34801561109b57600080fd5b506110a4612a6c565b6040518082815260200191505060405180910390f35b3480156110c657600080fd5b506110ef6004803603810190808035906020019092919080359060200190929190505050612a72565b604051808215151515815260200191505060405180910390f35b34801561111557600080fd5b50611154600480360381019080803573ffffffffffffffffffffffffffffffffffffffff16906020019092919080359060200190929190505050612ae8565b604051808215151515815260200191505060405180910390f35b34801561117a57600080fd5b506111ad600480360381019080803590602001909291908035906020019092919080359060200190929190505050613189565b604051808215151515815260200191505060405180910390f35b3480156111d357600080fd5b506111dc613207565b604051808215151515815260200191505060405180910390f35b34801561120257600080fd5b5061120b61321a565b6040518082815260200191505060405180910390f35b34801561122d57600080fd5b50611236613220565b6040518082815260200191505060405180910390f35b34801561125857600080fd5b50611261613229565b6040518082815260200191505060405180910390f35b34801561128357600080fd5b506112c2600480360381019080803573ffffffffffffffffffffffffffffffffffffffff1690602001909291908035906020019092919050505061322f565b604051808215151515815260200191505060405180910390f35b3480156112e857600080fd5b5061133d600480360381019080803573ffffffffffffffffffffffffffffffffffffffff169060200190929190803573ffffffffffffffffffffffffffffffffffffffff16906020019092919050505061342b565b6040518082815260200191505060405180910390f35b34801561135f57600080fd5b506113686134b2565b6040518082815260200191505060405180910390f35b34801561138a57600080fd5b506113ab6004803603810190808035151590602001909291905050506134b8565b604051808215151515815260200191505060405180910390f35b3480156113d157600080fd5b506113da613539565b6040518082815260200191505060405180910390f35b3480156113fc57600080fd5b5061140561353f565b604051808273ffffffffffffffffffffffffffffffffffffffff1673ffffffffffffffffffffffffffffffffffffffff16815260200191505060405180910390f35b34801561145357600080fd5b5061145c613565565b6040518082815260200191505060405180910390f35b34801561147e57600080fd5b5061148761356e565b604051808273ffffffffffffffffffffffffffffffffffffffff1673ffffffffffffffffffffffffffffffffffffffff16815260200191505060405180910390f35b600080828402905060008414806114ea57508284828115156114e757fe5b04145b15156114f257fe5b8091505092915050565b600080828481151561150a57fe5b0490508091505092915050565b6000806000611531846017546116e290919063ffffffff16565b60178190555083601860008282540192505081905550646fc23ac0006018541115801561156057506000601854115b156116aa576115b784600160003373ffffffffffffffffffffffffffffffffffffffff1673ffffffffffffffffffffffffffffffffffffffff168152602001908152602001600020546116fb90919063ffffffff16565b91506000821115156115c557fe5b81600160003373ffffffffffffffffffffffffffffffffffffffff1673ffffffffffffffffffffffffffffffffffffffff1681526020019081526020016000208190555061165b84600160008873ffffffffffffffffffffffffffffffffffffffff1673ffffffffffffffffffffffffffffffffffffffff168152602001908152602001600020546116e290919063ffffffff16565b905080600160008773ffffffffffffffffffffffffffffffffffffffff1673ffffffffffffffffffffffffffffffffffffffff16815260200190815260200160002081905550600192506116da565b6116bf846017546116fb90919063ffffffff16565b60178190555083601860008282540392505081905550600092505b505092915050565b60008282111515156116f057fe5b818303905092915050565b600080828401905083811015151561170f57fe5b8091505092915050565b60055481565b6040805190810160405280600981526020017f45445520546f6b656e000000000000000000000000000000000000000000000081525081565b6000601060009054906101000a900473ffffffffffffffffffffffffffffffffffffffff1673ffffffffffffffffffffffffffffffffffffffff163373ffffffffffffffffffffffffffffffffffffffff1614806118035750601560009054906101000a900473ffffffffffffffffffffffffffffffffffffffff1673ffffffffffffffffffffffffffffffffffffffff163373ffffffffffffffffffffffffffffffffffffffff16145b8061185b5750601160009054906101000a900473ffffffffffffffffffffffffffffffffffffffff1673ffffffffffffffffffffffffffffffffffffffff163373ffffffffffffffffffffffffffffffffffffffff16145b806118b35750601260009054906101000a900473ffffffffffffffffffffffffffffffffffffffff1673ffffffffffffffffffffffffffffffffffffffff163373ffffffffffffffffffffffffffffffffffffffff16145b8061190b5750601460009054906101000a900473ffffffffffffffffffffffffffffffffffffffff1673ffffffffffffffffffffffffffffffffffffffff163373ffffffffffffffffffffffffffffffffffffffff16145b15611a675733601360009054906101000a900473ffffffffffffffffffffffffffffffffffffffff1673ffffffffffffffffffffffffffffffffffffffff168173ffffffffffffffffffffffffffffffffffffffff1614156119775742600c54111561197657600080fd5b5b82601a60003373ffffffffffffffffffffffffffffffffffffffff1673ffffffffffffffffffffffffffffffffffffffff16815260200190815260200160002060008673ffffffffffffffffffffffffffffffffffffffff1673ffffffffffffffffffffffffffffffffffffffff168152602001908152602001600020819055508373ffffffffffffffffffffffffffffffffffffffff163373ffffffffffffffffffffffffffffffffffffffff167f8c5be1e5ebec7d5bd14f71427d1e84f3dd0314c0f7b2291e5b200ac8c7c3b925856040518082815260200191505060405180910390a36001915050611bef565b60055442118015611a79575060065442105b80611a92575060075442118015611a91575060085442105b5b15611a9c57600080fd5b33601360009054906101000a900473ffffffffffffffffffffffffffffffffffffffff1673ffffffffffffffffffffffffffffffffffffffff168173ffffffffffffffffffffffffffffffffffffffff161415611b035742600c541115611b0257600080fd5b5b82601a60003373ffffffffffffffffffffffffffffffffffffffff1673ffffffffffffffffffffffffffffffffffffffff16815260200190815260200160002060008673ffffffffffffffffffffffffffffffffffffffff1673ffffffffffffffffffffffffffffffffffffffff168152602001908152602001600020819055508373ffffffffffffffffffffffffffffffffffffffff163373ffffffffffffffffffffffffffffffffffffffff167f8c5be1e5ebec7d5bd14f71427d1e84f3dd0314c0f7b2291e5b200ac8c7c3b925856040518082815260200191505060405180910390a360019150505b92915050565b64023c34600081565b600f5481565b600360009054906101000a900473ffffffffffffffffffffffffffffffffffffffff1681565b601160009054906101000a900473ffffffffffffffffffffffffffffffffffffffff1681565b60005481565b600a5481565b64051e59380081565b60075481565b600e5481565b600d5481565b6000601060009054906101000a900473ffffffffffffffffffffffffffffffffffffffff1673ffffffffffffffffffffffffffffffffffffffff163373ffffffffffffffffffffffffffffffffffffffff161480611d225750601560009054906101000a900473ffffffffffffffffffffffffffffffffffffffff1673ffffffffffffffffffffffffffffffffffffffff163373ffffffffffffffffffffffffffffffffffffffff16145b80611d7a5750601160009054906101000a900473ffffffffffffffffffffffffffffffffffffffff1673ffffffffffffffffffffffffffffffffffffffff163373ffffffffffffffffffffffffffffffffffffffff16145b80611dd25750601260009054906101000a900473ffffffffffffffffffffffffffffffffffffffff1673ffffffffffffffffffffffffffffffffffffffff163373ffffffffffffffffffffffffffffffffffffffff16145b80611e2a5750601460009054906101000a900473ffffffffffffffffffffffffffffffffffffffff1673ffffffffffffffffffffffffffffffffffffffff163373ffffffffffffffffffffffffffffffffffffffff16145b1561219a5783601360009054906101000a900473ffffffffffffffffffffffffffffffffffffffff1673ffffffffffffffffffffffffffffffffffffffff168173ffffffffffffffffffffffffffffffffffffffff161415611e965742600c541115611e9557600080fd5b5b82600160008773ffffffffffffffffffffffffffffffffffffffff1673ffffffffffffffffffffffffffffffffffffffff1681526020019081526020016000205410158015611f61575082601a60008773ffffffffffffffffffffffffffffffffffffffff1673ffffffffffffffffffffffffffffffffffffffff16815260200190815260200160002060003373ffffffffffffffffffffffffffffffffffffffff1673ffffffffffffffffffffffffffffffffffffffff1681526020019081526020016000205410155b8015611f6d5750600083115b8015611ff85750600160008573ffffffffffffffffffffffffffffffffffffffff1673ffffffffffffffffffffffffffffffffffffffff1681526020019081526020016000205483600160008773ffffffffffffffffffffffffffffffffffffffff1673ffffffffffffffffffffffffffffffffffffffff1681526020019081526020016000205401115b1561218f5782600160008773ffffffffffffffffffffffffffffffffffffffff1673ffffffffffffffffffffffffffffffffffffffff1681526020019081526020016000206000828254039250508190555082601a60008773ffffffffffffffffffffffffffffffffffffffff1673ffffffffffffffffffffffffffffffffffffffff16815260200190815260200160002060003373ffffffffffffffffffffffffffffffffffffffff1673ffffffffffffffffffffffffffffffffffffffff1681526020019081526020016000206000828254039250508190555082600160008673ffffffffffffffffffffffffffffffffffffffff1673ffffffffffffffffffffffffffffffffffffffff168152602001908152602001600020600082825401925050819055508373ffffffffffffffffffffffffffffffffffffffff168573ffffffffffffffffffffffffffffffffffffffff167fddf252ad1be2c89b69c2b068fc378daa952ba7f163c4a11628f55a4df523b3ef856040518082815260200191505060405180910390a360019150612194565b600091505b50612536565b600554421180156121ac575060065442105b806121c55750600754421180156121c4575060085442105b5b156121cf57600080fd5b83601360009054906101000a900473ffffffffffffffffffffffffffffffffffffffff1673ffffffffffffffffffffffffffffffffffffffff168173ffffffffffffffffffffffffffffffffffffffff1614156122365742600c54111561223557600080fd5b5b82600160008773ffffffffffffffffffffffffffffffffffffffff1673ffffffffffffffffffffffffffffffffffffffff1681526020019081526020016000205410158015612301575082601a60008773ffffffffffffffffffffffffffffffffffffffff1673ffffffffffffffffffffffffffffffffffffffff16815260200190815260200160002060003373ffffffffffffffffffffffffffffffffffffffff1673ffffffffffffffffffffffffffffffffffffffff1681526020019081526020016000205410155b801561230d5750600083115b80156123985750600160008573ffffffffffffffffffffffffffffffffffffffff1673ffffffffffffffffffffffffffffffffffffffff1681526020019081526020016000205483600160008773ffffffffffffffffffffffffffffffffffffffff1673ffffffffffffffffffffffffffffffffffffffff1681526020019081526020016000205401115b1561252f5782600160008773ffffffffffffffffffffffffffffffffffffffff1673ffffffffffffffffffffffffffffffffffffffff1681526020019081526020016000206000828254039250508190555082601a60008773ffffffffffffffffffffffffffffffffffffffff1673ffffffffffffffffffffffffffffffffffffffff16815260200190815260200160002060003373ffffffffffffffffffffffffffffffffffffffff1673ffffffffffffffffffffffffffffffffffffffff1681526020019081526020016000206000828254039250508190555082600160008673ffffffffffffffffffffffffffffffffffffffff1673ffffffffffffffffffffffffffffffffffffffff168152602001908152602001600020600082825401925050819055508373ffffffffffffffffffffffffffffffffffffffff168573ffffffffffffffffffffffffffffffffffffffff167fddf252ad1be2c89b69c2b068fc378daa952ba7f163c4a11628f55a4df523b3ef856040518082815260200191505060405180910390a360019150612534565b600091505b505b9392505050565b60095481565b600c5481565b60196020528060005260406000206000915090505481565b600481565b6408f0d1800081565b601360009054906101000a900473ffffffffffffffffffffffffffffffffffffffff1681565b60185481565b60048054600181600116156101000203166002900480601f0160208091040260200160405190810160405280929190818152602001828054600181600116156101000203166002900480156126315780601f1061260657610100808354040283529160200191612631565b820191906000526020600020905b81548152906001019060200180831161261457829003601f168201915b505050505081565b601560009054906101000a900473ffffffffffffffffffffffffffffffffffffffff1681565b6000601060009054906101000a900473ffffffffffffffffffffffffffffffffffffffff1673ffffffffffffffffffffffffffffffffffffffff163373ffffffffffffffffffffffffffffffffffffffff161415156126bd57600080fd5b82600581905550816006819055506001905092915050565b600081600360006101000a81548173ffffffffffffffffffffffffffffffffffffffff021916908373ffffffffffffffffffffffffffffffffffffffff16021790555060019050919050565b600080600260003373ffffffffffffffffffffffffffffffffffffffff1673ffffffffffffffffffffffffffffffffffffffff16815260200190815260200160002060008573ffffffffffffffffffffffffffffffffffffffff1673ffffffffffffffffffffffffffffffffffffffff16815260200190815260200160002054905080831115612832576000600260003373ffffffffffffffffffffffffffffffffffffffff1673ffffffffffffffffffffffffffffffffffffffff16815260200190815260200160002060008673ffffffffffffffffffffffffffffffffffffffff1673ffffffffffffffffffffffffffffffffffffffff168152602001908152602001600020819055506128c6565b61284583826116e290919063ffffffff16565b600260003373ffffffffffffffffffffffffffffffffffffffff1673ffffffffffffffffffffffffffffffffffffffff16815260200190815260200160002060008673ffffffffffffffffffffffffffffffffffffffff1673ffffffffffffffffffffffffffffffffffffffff168152602001908152602001600020819055505b8373ffffffffffffffffffffffffffffffffffffffff163373ffffffffffffffffffffffffffffffffffffffff167f8c5be1e5ebec7d5bd14f71427d1e84f3dd0314c0f7b2291e5b200ac8c7c3b925600260003373ffffffffffffffffffffffffffffffffffffffff1673ffffffffffffffffffffffffffffffffffffffff16815260200190815260200160002060008873ffffffffffffffffffffffffffffffffffffffff1673ffffffffffffffffffffffffffffffffffffffff168152602001908152602001600020546040518082815260200191505060405180910390a3600191505092915050565b6000600160008373ffffffffffffffffffffffffffffffffffffffff1673ffffffffffffffffffffffffffffffffffffffff168152602001908152602001600020549050919050565b64060eaca80081565b6445d964b80081565b601060009054906101000a900473ffffffffffffffffffffffffffffffffffffffff1681565b6040805190810160405280600381526020017f454455000000000000000000000000000000000000000000000000000000000081525081565b60175481565b6000601060009054906101000a900473ffffffffffffffffffffffffffffffffffffffff1673ffffffffffffffffffffffffffffffffffffffff163373ffffffffffffffffffffffffffffffffffffffff16141515612ad057600080fd5b82600781905550816008819055506001905092915050565b6000601060009054906101000a900473ffffffffffffffffffffffffffffffffffffffff1673ffffffffffffffffffffffffffffffffffffffff163373ffffffffffffffffffffffffffffffffffffffff161480612b935750601560009054906101000a900473ffffffffffffffffffffffffffffffffffffffff1673ffffffffffffffffffffffffffffffffffffffff163373ffffffffffffffffffffffffffffffffffffffff16145b80612beb5750601160009054906101000a900473ffffffffffffffffffffffffffffffffffffffff1673ffffffffffffffffffffffffffffffffffffffff163373ffffffffffffffffffffffffffffffffffffffff16145b80612c435750601260009054906101000a900473ffffffffffffffffffffffffffffffffffffffff1673ffffffffffffffffffffffffffffffffffffffff163373ffffffffffffffffffffffffffffffffffffffff16145b80612c9b5750601460009054906101000a900473ffffffffffffffffffffffffffffffffffffffff1673ffffffffffffffffffffffffffffffffffffffff163373ffffffffffffffffffffffffffffffffffffffff16145b15612ef95733601360009054906101000a900473ffffffffffffffffffffffffffffffffffffffff1673ffffffffffffffffffffffffffffffffffffffff168173ffffffffffffffffffffffffffffffffffffffff161415612d075742600c541115612d0657600080fd5b5b82600160003373ffffffffffffffffffffffffffffffffffffffff1673ffffffffffffffffffffffffffffffffffffffff1681526020019081526020016000205410158015612d565750600083115b8015612de15750600160008573ffffffffffffffffffffffffffffffffffffffff1673ffffffffffffffffffffffffffffffffffffffff1681526020019081526020016000205483600160008773ffffffffffffffffffffffffffffffffffffffff1673ffffffffffffffffffffffffffffffffffffffff1681526020019081526020016000205401115b15612eee5782600160003373ffffffffffffffffffffffffffffffffffffffff1673ffffffffffffffffffffffffffffffffffffffff1681526020019081526020016000206000828254039250508190555082600160008673ffffffffffffffffffffffffffffffffffffffff1673ffffffffffffffffffffffffffffffffffffffff168152602001908152602001600020600082825401925050819055508373ffffffffffffffffffffffffffffffffffffffff163373ffffffffffffffffffffffffffffffffffffffff167fddf252ad1be2c89b69c2b068fc378daa952ba7f163c4a11628f55a4df523b3ef856040518082815260200191505060405180910390a360019150612ef3565b600091505b50613183565b60055442118015612f0b575060065442105b80612f24575060075442118015612f23575060085442105b5b15612f2e57600080fd5b33601360009054906101000a900473ffffffffffffffffffffffffffffffffffffffff1673ffffffffffffffffffffffffffffffffffffffff168173ffffffffffffffffffffffffffffffffffffffff161415612f955742600c541115612f9457600080fd5b5b82600160003373ffffffffffffffffffffffffffffffffffffffff1673ffffffffffffffffffffffffffffffffffffffff1681526020019081526020016000205410158015612fe45750600083115b801561306f5750600160008573ffffffffffffffffffffffffffffffffffffffff1673ffffffffffffffffffffffffffffffffffffffff1681526020019081526020016000205483600160008773ffffffffffffffffffffffffffffffffffffffff1673ffffffffffffffffffffffffffffffffffffffff1681526020019081526020016000205401115b1561317c5782600160003373ffffffffffffffffffffffffffffffffffffffff1673ffffffffffffffffffffffffffffffffffffffff1681526020019081526020016000206000828254039250508190555082600160008673ffffffffffffffffffffffffffffffffffffffff1673ffffffffffffffffffffffffffffffffffffffff168152602001908152602001600020600082825401925050819055508373ffffffffffffffffffffffffffffffffffffffff163373ffffffffffffffffffffffffffffffffffffffff167fddf252ad1be2c89b69c2b068fc378daa952ba7f163c4a11628f55a4df523b3ef856040518082815260200191505060405180910390a360019150613181565b600091505b505b92915050565b6000601060009054906101000a900473ffffffffffffffffffffffffffffffffffffffff1673ffffffffffffffffffffffffffffffffffffffff163373ffffffffffffffffffffffffffffffffffffffff161415156131e757600080fd5b83600d8190555082600e8190555081600f81905550600190509392505050565b601560149054906101000a900460ff1681565b60165481565b646fc23ac00081565b60065481565b60006132c082600260003373ffffffffffffffffffffffffffffffffffffffff1673ffffffffffffffffffffffffffffffffffffffff16815260200190815260200160002060008673ffffffffffffffffffffffffffffffffffffffff1673ffffffffffffffffffffffffffffffffffffffff168152602001908152602001600020546116fb90919063ffffffff16565b600260003373ffffffffffffffffffffffffffffffffffffffff1673ffffffffffffffffffffffffffffffffffffffff16815260200190815260200160002060008573ffffffffffffffffffffffffffffffffffffffff1673ffffffffffffffffffffffffffffffffffffffff168152602001908152602001600020819055508273ffffffffffffffffffffffffffffffffffffffff163373ffffffffffffffffffffffffffffffffffffffff167f8c5be1e5ebec7d5bd14f71427d1e84f3dd0314c0f7b2291e5b200ac8c7c3b925600260003373ffffffffffffffffffffffffffffffffffffffff1673ffffffffffffffffffffffffffffffffffffffff16815260200190815260200160002060008773ffffffffffffffffffffffffffffffffffffffff1673ffffffffffffffffffffffffffffffffffffffff168152602001908152602001600020546040518082815260200191505060405180910390a36001905092915050565b6000601a60008473ffffffffffffffffffffffffffffffffffffffff1673ffffffffffffffffffffffffffffffffffffffff16815260200190815260200160002060008373ffffffffffffffffffffffffffffffffffffffff1673ffffffffffffffffffffffffffffffffffffffff16815260200190815260200160002054905092915050565b600b5481565b6000601060009054906101000a900473ffffffffffffffffffffffffffffffffffffffff1673ffffffffffffffffffffffffffffffffffffffff163373ffffffffffffffffffffffffffffffffffffffff1614151561351657600080fd5b81601560146101000a81548160ff02191690831515021790555060019050919050565b60085481565b601460009054906101000a900473ffffffffffffffffffffffffffffffffffffffff1681565b64138eca480081565b601260009054906101000a900473ffffffffffffffffffffffffffffffffffffffff16815600a165627a7a72305820b0d58042a21c0107abed5faa04235a96fcf81d4e855ae6351cd8f194b49952320029",
  "source": "library SafeMath {\n  function mul(uint256 a, uint256 b) internal constant returns (uint256) {\n    uint256 c = a * b;\n    assert(a == 0 || c / a == b);\n    return c;\n  }\n\n  function div(uint256 a, uint256 b) internal constant returns (uint256) {\n    \n    uint256 c = a / b;\n    \n    return c;\n  }\n\n  function sub(uint256 a, uint256 b) internal constant returns (uint256) {\n    assert(b <= a);\n    return a - b;\n  }\n\n  function add(uint256 a, uint256 b) internal constant returns (uint256) {\n    uint256 c = a + b;\n    assert(c >= a);\n    return c;\n  }\n}\n\n\ncontract ERC20Basic {\n  uint256 public totalSupply;\n  function balanceOf(address who) public constant returns (uint256);\n  function transfer(address to, uint256 value) public returns (bool);\n  event Transfer(address indexed from, address indexed to, uint256 value);\n}\n\n\ncontract ERC20 is ERC20Basic {\n  function allowance(address owner, address spender) public constant returns (uint256);\n  function transferFrom(address from, address to, uint256 value) public returns (bool);\n  function approve(address spender, uint256 value) public returns (bool);\n  event Approval(address indexed owner, address indexed spender, uint256 value);\n}\n\n\ncontract BasicToken is ERC20Basic {\n  using SafeMath for uint256;\n\n  mapping(address => uint256) balances;\n\n  function transfer(address _to, uint256 _value) public returns (bool) {\n    require(_to != address(0));\n\n    balances[msg.sender] = balances[msg.sender].sub(_value);\n    balances[_to] = balances[_to].add(_value);\n    Transfer(msg.sender, _to, _value);\n    return true;\n  }\n\n  function balanceOf(address _owner) public constant returns (uint256 balance) {\n    return balances[_owner];\n  }\n}\n\n\ncontract StandardToken is ERC20, BasicToken {\n\n  mapping (address => mapping (address => uint256)) allowed;\n\n  function transferFrom(address _from, address _to, uint256 _value) public returns (bool) {\n    require(_to != address(0));\n\n    uint256 _allowance = allowed[_from][msg.sender];\n\n    balances[_from] = balances[_from].sub(_value);\n    balances[_to] = balances[_to].add(_value);\n    allowed[_from][msg.sender] = _allowance.sub(_value);\n    Transfer(_from, _to, _value);\n    return true;\n  }\n\n  function approve(address _spender, uint256 _value) public returns (bool) {\n    allowed[msg.sender][_spender] = _value;\n    Approval(msg.sender, _spender, _value);\n    return true;\n  }\n\n  function allowance(address _owner, address _spender) public constant returns (uint256 remaining) {\n    return allowed[_owner][_spender];\n  }\n\n  function increaseApproval (address _spender, uint _addedValue)\n    returns (bool success) {\n    allowed[msg.sender][_spender] = allowed[msg.sender][_spender].add(_addedValue);\n    Approval(msg.sender, _spender, allowed[msg.sender][_spender]);\n    return true;\n  }\n\n  function decreaseApproval (address _spender, uint _subtractedValue)\n    returns (bool success) {\n    uint oldValue = allowed[msg.sender][_spender];\n    if (_subtractedValue > oldValue) {\n      allowed[msg.sender][_spender] = 0;\n    } else {\n      allowed[msg.sender][_spender] = oldValue.sub(_subtractedValue);\n    }\n    Approval(msg.sender, _spender, allowed[msg.sender][_spender]);\n    return true;\n  }\n\n}\n\ncontract Certifier {\n    event Confirmed(address indexed who);\n    event Revoked(address indexed who);\n    function certified(address) public constant returns (bool);\n    function get(address, string) public constant returns (bytes32);\n    function getAddress(address, string) public constant returns (address);\n    function getUint(address, string) public constant returns (uint);\n}\n\ncontract EDUToken_1 is StandardToken {\n\n    using SafeMath for uint256;\n\n    Certifier public certifier;\n\n    \n    event CreatedEDU(address indexed _creator, uint256 _amountOfEDU);\n    event Transfer(address indexed _from, address indexed _to, uint _value);\n    event Approval(address indexed _owner, address indexed _spender, uint _value);\n\n    \n    string public constant name = \"EDU Token\";\n    string public constant symbol = \"EDU\";\n    uint256 public constant decimals = 4;\n    string public version = \"1.0\";\n\n    \n    \n    uint256 public constant TotalEDUSupply = 48000000*10000;                    \n    uint256 public constant maxEarlyPresaleEDUSupply = 2601600*10000;           \n    uint256 public constant maxPresaleEDUSupply = 2198400*10000;                \n    uint256 public constant OSUniEDUSupply = 8400000*10000;                     \n    uint256 public constant SaleEDUSupply = 30000000*10000;                     \n    uint256 public constant sigTeamAndAdvisersEDUSupply = 3840000*10000;        \n    uint256 public constant sigBountyProgramEDUSupply = 960000*10000;           \n\n    \n    \n    uint256 public preSaleStartTime;                                            \n    uint256 public preSaleEndTime;                                              \n    uint256 public saleStartTime;                                               \n    uint256 public saleEndTime;                                                 \n\n    \n    uint256 public earlyPresaleEDUSupply;\n    uint256 public PresaleEDUSupply;\n\n    \n    uint256 public EDU_KYC_BONUS = 50*10000;                                    \n\n    \n    uint256 public LockEDUTeam;                                                 \n\n    \n    uint256 public EDU_PER_ETH_EARLY_PRE_SALE = 1350;                           \n    uint256 public EDU_PER_ETH_PRE_SALE = 1200;                                 \n\n    \n    uint256 public EDU_PER_ETH_SALE;                                            \n\n    \n    address public ownerAddress;                                                \n    address public presaleAddress;                                              \n    address public saleAddress;                                                 \n    address public sigTeamAndAdvisersAddress;                                   \n    address public sigBountyProgramAddress;                                     \n    address public contributionsAddress;                                        \n\n    \n    bool public allowContribution = true;                                       \n\n    \n    uint256 public totalWEIInvested = 0;                                        \n    uint256 public totalEDUSLeft = 0;                                           \n    uint256 public totalEDUSAllocated = 0;                                      \n    mapping (address => uint256) public WEIContributed;                         \n\n    \n    mapping(address => mapping (address => uint256)) allowed;\n\n    \n    modifier onlyOwner() {\n        if (msg.sender != ownerAddress) {\n            revert();\n        }\n        _;\n    }\n\n    \n    modifier minimalContribution() {\n        require(500000000000000000 <= msg.value);\n        _;\n    }\n\n    \n    modifier freezeDuringEDUtokenSale() {\n        if ( (msg.sender == ownerAddress) ||\n             (msg.sender == contributionsAddress) ||\n             (msg.sender == presaleAddress) ||\n             (msg.sender == saleAddress) ||\n             (msg.sender == sigBountyProgramAddress) ) {\n            _;\n        } else {\n            if((block.timestamp > preSaleStartTime && block.timestamp < preSaleEndTime) || (block.timestamp > saleStartTime && block.timestamp < saleEndTime)) {\n                revert();\n            } else {\n                _;\n            }\n        }\n    }\n\n    \n    modifier freezeTeamAndAdvisersEDUToken_1s(address _address) {\n        if (_address == sigTeamAndAdvisersAddress) {\n            if (LockEDUTeam > block.timestamp) { revert(); }\n        }\n        _;\n    }\n\n    \n    function EDUToken_1(\n        address _presaleAddress,\n        address _saleAddress,\n        address _sigTeamAndAdvisersAddress,\n        address _sigBountyProgramAddress,\n        address _contributionsAddress\n    ) {\n        certifier = Certifier(0x1e2F058C43ac8965938F6e9CA286685A3E63F24E);\n        ownerAddress = msg.sender;                                                               \n        presaleAddress = _presaleAddress;                                                        \n        saleAddress = _saleAddress;\n        sigTeamAndAdvisersAddress = _sigTeamAndAdvisersAddress;                                  \n        sigBountyProgramAddress = _sigBountyProgramAddress;\n        contributionsAddress = _contributionsAddress;\n\n        preSaleStartTime = 1511179200;                                                           \n        preSaleEndTime = 1514764799;                                                             \n        LockEDUTeam = preSaleEndTime + 1 years;                                                  \n\n        earlyPresaleEDUSupply = maxEarlyPresaleEDUSupply;                                        \n        PresaleEDUSupply = maxPresaleEDUSupply;                                                  \n\n        balances[contributionsAddress] = OSUniEDUSupply;                                         \n        balances[presaleAddress] = SafeMath.add(maxPresaleEDUSupply, maxEarlyPresaleEDUSupply);  \n        balances[saleAddress] = SaleEDUSupply;                                                   \n        balances[sigTeamAndAdvisersAddress] = sigTeamAndAdvisersEDUSupply;                       \n        balances[sigBountyProgramAddress] = sigBountyProgramEDUSupply;                           \n\n\n        totalEDUSAllocated = OSUniEDUSupply + sigTeamAndAdvisersEDUSupply + sigBountyProgramEDUSupply;\n        totalEDUSLeft = SafeMath.sub(TotalEDUSupply, totalEDUSAllocated);                        \n\n        totalSupply = TotalEDUSupply;                                                            \n    }\n\n    \n    function()\n        payable\n        minimalContribution\n    {\n        require(allowContribution);\n\n        \n        if (!certifier.certified(msg.sender)) {\n            revert();\n        }\n\n        \n        uint256 amountInWei = msg.value;\n\n        \n        uint256 amountOfEDU = 0;\n\n        if (block.timestamp > preSaleStartTime && block.timestamp < preSaleEndTime) {\n            amountOfEDU = amountInWei.mul(EDU_PER_ETH_EARLY_PRE_SALE).div(100000000000000);\n            if(!(WEIContributed[msg.sender] > 0)) {\n                amountOfEDU += EDU_KYC_BONUS;  \n            }\n            if (earlyPresaleEDUSupply > 0 && earlyPresaleEDUSupply >= amountOfEDU) {\n                require(updateEDUBalanceFunc(presaleAddress, amountOfEDU));\n                earlyPresaleEDUSupply = earlyPresaleEDUSupply.sub(amountOfEDU);\n            } else if (PresaleEDUSupply > 0) {\n                if (earlyPresaleEDUSupply != 0) {\n                    PresaleEDUSupply = PresaleEDUSupply.add(earlyPresaleEDUSupply);\n                    earlyPresaleEDUSupply = 0;\n                }\n                amountOfEDU = amountInWei.mul(EDU_PER_ETH_PRE_SALE).div(100000000000000);\n                if(!(WEIContributed[msg.sender] > 0)) {\n                    amountOfEDU += EDU_KYC_BONUS;\n                }\n                require(PresaleEDUSupply >= amountOfEDU);\n                require(updateEDUBalanceFunc(presaleAddress, amountOfEDU));\n                PresaleEDUSupply = PresaleEDUSupply.sub(amountOfEDU);\n            } else {\n                revert();\n            }\n        } else if (block.timestamp > saleStartTime && block.timestamp < saleEndTime) {\n            \n            amountOfEDU = amountInWei.mul(EDU_PER_ETH_SALE).div(100000000000000);\n            require(totalEDUSLeft >= amountOfEDU);\n            require(updateEDUBalanceFunc(saleAddress, amountOfEDU));\n        } else {\n            \n            revert();\n        }\n\n        \n        totalWEIInvested = totalWEIInvested.add(amountInWei);\n        assert(totalWEIInvested > 0);\n        \n        uint256 contributedSafe = WEIContributed[msg.sender].add(amountInWei);\n        assert(contributedSafe > 0);\n        WEIContributed[msg.sender] = contributedSafe;\n\n        \n        contributionsAddress.transfer(amountInWei);\n\n        \n        CreatedEDU(msg.sender, amountOfEDU);\n    }\n\n    \n    function updateEDUBalanceFunc(address _from, uint256 _amountOfEDU) internal returns (bool) {\n        \n        totalEDUSLeft = totalEDUSLeft.sub(_amountOfEDU);\n        totalEDUSAllocated += _amountOfEDU;\n\n        \n        if (totalEDUSAllocated <= TotalEDUSupply && totalEDUSAllocated > 0) {\n            \n            uint256 balanceSafe = balances[msg.sender].add(_amountOfEDU);\n            assert(balanceSafe > 0);\n            balances[msg.sender] = balanceSafe;\n            uint256 balanceDiv = balances[_from].sub(_amountOfEDU);\n            balances[_from] = balanceDiv;\n            return true;\n        } else {\n            totalEDUSLeft = totalEDUSLeft.add(_amountOfEDU);\n            totalEDUSAllocated -= _amountOfEDU;\n            return false;\n        }\n    }\n\n    \n    function setAllowContributionFlag(bool _allowContribution) public returns (bool success) {\n        require(msg.sender == ownerAddress);\n        allowContribution = _allowContribution;\n        return true;\n    }\n\n    \n    function setSaleTimes(uint256 _saleStartTime, uint256 _saleEndTime) public returns (bool success) {\n        require(msg.sender == ownerAddress);\n        saleStartTime = _saleStartTime;\n        saleEndTime = _saleEndTime;\n        return true;\n    }\n\n    \n    function setPresaleTime(uint256 _preSaleStartTime, uint256 _preSaleEndTime) public returns (bool success) {\n        require(msg.sender == ownerAddress);\n        preSaleStartTime = _preSaleStartTime;\n        preSaleEndTime = _preSaleEndTime;\n        return true;\n    }\n\n    function setEDUPrice(\n        uint256 _valEarlyPresale,\n        uint256 _valPresale,\n        uint256 _valSale\n    ) public returns (bool success) {\n        require(msg.sender == ownerAddress);\n        EDU_PER_ETH_EARLY_PRE_SALE = _valEarlyPresale;\n        EDU_PER_ETH_PRE_SALE = _valPresale;\n        EDU_PER_ETH_SALE = _valSale;\n        return true;\n    }\n\n    function updateCertifier(address _address) public returns (bool success) {\n        certifier = Certifier(_address);\n        return true;\n    }\n\n    \n    function balanceOf(address _owner) constant returns (uint256 balance) {\n        return balances[_owner];\n    }\n\n    \n    function transfer(address _to, uint256 _amount) freezeDuringEDUtokenSale freezeTeamAndAdvisersEDUToken_1s(msg.sender) returns (bool success) {\n        if (balances[msg.sender] >= _amount && _amount > 0 && balances[_to] + _amount > balances[_to]) {\n            balances[msg.sender] -= _amount;\n            balances[_to] += _amount;\n            Transfer(msg.sender, _to, _amount);\n            return true;\n        } else {\n            return false;\n        }\n    }\n\n    \n    \n    \n    \n    \n    \n    function transferFrom(address _from, address _to, uint256 _amount) freezeDuringEDUtokenSale freezeTeamAndAdvisersEDUToken_1s(_from) returns (bool success) {\n        if (balances[_from] >= _amount\n             && allowed[_from][msg.sender] >= _amount\n             && _amount > 0\n             && balances[_to] + _amount > balances[_to]) {\n            balances[_from] -= _amount;\n            allowed[_from][msg.sender] -= _amount;\n            balances[_to] += _amount;\n            Transfer(_from, _to, _amount);\n            return true;\n        } else {\n            return false;\n        }\n    }\n\n    \n    \n    function approve(address _spender, uint256 _amount) freezeDuringEDUtokenSale freezeTeamAndAdvisersEDUToken_1s(msg.sender) returns (bool success) {\n        allowed[msg.sender][_spender] = _amount;\n        Approval(msg.sender, _spender, _amount);\n        return true;\n    }\n\n    function allowance(address _owner, address _spender) constant returns (uint256 remaining) {\n        return allowed[_owner][_spender];\n    }\n\n}\n    \ncontract EDUToken is EDUToken_1 {\n    constructor() EDUToken_1(address(0x123), address(0x123), address(0x123), address(0x123), address(0x123)) public { }\n}\n",
  "sourcePath": "/home/XXX-1/smartrim-experiment/for-rlf/0x849c2ea2a8f0ed0fe6d28b17fa0f779d6a45dff1/contracts/0x849c2ea2a8f0ed0fe6d28b17fa0f779d6a45dff1.sol",
  "compiler": {
    "name": "solc",
    "version": "0.4.25+commit.59dbf8f1.Emscripten.clang"
  },
  "schemaVersion": "3.4.16",
  "updatedAt": "2025-08-14T03:41:49.516Z",
  "networkType": "ethereum",
  "devdoc": {
    "methods": {}
  },
  "userdoc": {
    "methods": {}
  }
}