{
  "contractName": "Countdown",
  "abi": [
    {
      "constant": true,
      "inputs": [],
      "name": "deadline",
      "outputs": [
        {
          "name": "",
          "type": "uint256"
        }
      ],
      "payable": false,
      "stateMutability": "view",
      "type": "function"
    },
    {
      "constant": true,
      "inputs": [],
      "name": "winner",
      "outputs": [
        {
          "name": "",
          "type": "address"
        }
      ],
      "payable": false,
      "stateMutability": "view",
      "type": "function"
    },
    {
      "payable": true,
      "stateMutability": "payable",
      "type": "fallback"
    },
    {
      "constant": false,
      "inputs": [],
      "name": "click",
      "outputs": [],
      "payable": true,
      "stateMutability": "payable",
      "type": "function"
    },
    {
      "constant": false,
      "inputs": [],
      "name": "withdraw",
      "outputs": [],
      "payable": false,
      "stateMutability": "nonpayable",
      "type": "function"
    }
  ],
  "bytecode": "0x60806040524260005533600160006101000a81548173ffffffffffffffffffffffffffffffffffffffff021916908373ffffffffffffffffffffffffffffffffffffffff16021790555034801561005557600080fd5b506103c6806100656000396000f300608060405260043610610062576000357c0100000000000000000000000000000000000000000000000000000000900463ffffffff16806329dcb0cf146100645780633ccfd60b1461008f5780637d55923d146100a6578063dfbf53ae146100b0575b005b34801561007057600080fd5b50610079610107565b6040518082815260200191505060405180910390f35b34801561009b57600080fd5b506100a461010d565b005b6100ae610311565b005b3480156100bc57600080fd5b506100c5610374565b604051808273ffffffffffffffffffffffffffffffffffffffff1673ffffffffffffffffffffffffffffffffffffffff16815260200191505060405180910390f35b60005481565b6000544211151561011d57600080fd5b600260009054906101000a900473ffffffffffffffffffffffffffffffffffffffff1673ffffffffffffffffffffffffffffffffffffffff163373ffffffffffffffffffffffffffffffffffffffff1614151561017957600080fd5b61a8c042016000819055506601c6bf526340003073ffffffffffffffffffffffffffffffffffffffff1631101561020d573373ffffffffffffffffffffffffffffffffffffffff166108fc3073ffffffffffffffffffffffffffffffffffffffff16319081150290604051600060405180830381858888f19350505050158015610207573d6000803e3d6000fd5b50610278565b3373ffffffffffffffffffffffffffffffffffffffff166108fc600a3073ffffffffffffffffffffffffffffffffffffffff163181151561024a57fe5b049081150290604051600060405180830381858888f19350505050158015610276573d6000803e3d6000fd5b505b6601c6bf526340003073ffffffffffffffffffffffffffffffffffffffff1631111561030f57600160009054906101000a900473ffffffffffffffffffffffffffffffffffffffff1673ffffffffffffffffffffffffffffffffffffffff166108fc6601c6bf526340009081150290604051600060405180830381858888f1935050505015801561030d573d6000803e3d6000fd5b505b565b655af3107a4000341015151561032657600080fd5b61a8c0420160008190555033600260006101000a81548173ffffffffffffffffffffffffffffffffffffffff021916908373ffffffffffffffffffffffffffffffffffffffff160217905550565b600260009054906101000a900473ffffffffffffffffffffffffffffffffffffffff16815600a165627a7a72305820e3ea54d84aa0b0203203dff721e97361f4017a9fd5eb41b8957d6d03551b4bbc0029",
  "source": "\n\n\n\n\n\n\n\n\n\n\n\ncontract Countdown {\n    uint public deadline = now;\n    uint private constant waittime = 12 hours;\n    \n    address private owner = msg.sender;\n    address public winner;\n    \n    function () public payable {\n        \n    }\n    \n    function click() public payable {\n        require(msg.value >= 0.0001 ether);\n        deadline = now + waittime;\n        winner = msg.sender;\n    }\n    \n    function withdraw() public {\n        require(now > deadline);\n        require(msg.sender == winner);\n        \n        deadline = now + waittime;\n\n        \n        \n        if(this.balance < 0.0005 ether)\n            msg.sender.transfer(this.balance);\n        else\n            msg.sender.transfer(this.balance /  10);\n\n        \n        if(this.balance > 0.0005 ether)\n            owner.transfer(0.0005 ether);\n    }\n}",
  "sourcePath": "/home/XXX-1/smartrim-experiment/for-rlf/0x3db9f293b2e992f8c339a543561a615559c375dd/contracts/0x3db9f293b2e992f8c339a543561a615559c375dd.sol",
  "compiler": {
    "name": "solc",
    "version": "0.4.25+commit.59dbf8f1.Emscripten.clang"
  },
  "schemaVersion": "3.4.16",
  "updatedAt": "2025-08-14T03:52:45.195Z",
  "networkType": "ethereum",
  "devdoc": {
    "methods": {}
  },
  "userdoc": {
    "methods": {}
  }
}