{
  "contractName": "EtherGame",
  "abi": [
    {
      "constant": false,
      "inputs": [
        {
          "name": "a",
          "type": "uint256"
        }
      ],
      "name": "Test1",
      "outputs": [
        {
          "name": "",
          "type": "address"
        }
      ],
      "payable": false,
      "stateMutability": "nonpayable",
      "type": "function"
    },
    {
      "constant": false,
      "inputs": [
        {
          "name": "a",
          "type": "uint256"
        }
      ],
      "name": "Test2",
      "outputs": [
        {
          "name": "",
          "type": "address"
        }
      ],
      "payable": false,
      "stateMutability": "nonpayable",
      "type": "function"
    },
    {
      "constant": false,
      "inputs": [
        {
          "name": "b",
          "type": "uint256"
        }
      ],
      "name": "Test3",
      "outputs": [
        {
          "name": "",
          "type": "uint256"
        }
      ],
      "payable": false,
      "stateMutability": "nonpayable",
      "type": "function"
    },
    {
      "constant": false,
      "inputs": [
        {
          "name": "b",
          "type": "uint256"
        }
      ],
      "name": "Test4",
      "outputs": [
        {
          "name": "",
          "type": "uint256"
        }
      ],
      "payable": false,
      "stateMutability": "nonpayable",
      "type": "function"
    },
    {
      "constant": false,
      "inputs": [
        {
          "name": "a",
          "type": "uint256"
        }
      ],
      "name": "Kill",
      "outputs": [],
      "payable": false,
      "stateMutability": "nonpayable",
      "type": "function"
    }
  ],
  "bytecode": "0x608060405234801561001057600080fd5b50610270806100206000396000f30060806040526004361061006d576000357c0100000000000000000000000000000000000000000000000000000000900463ffffffff16806343789b3014610072578063cad93688146100df578063cb2d90071461014c578063d6d1f3691461018d578063f61ed985146101ce575b600080fd5b34801561007e57600080fd5b5061009d600480360381019080803590602001909291905050506101fb565b604051808273ffffffffffffffffffffffffffffffffffffffff1673ffffffffffffffffffffffffffffffffffffffff16815260200191505060405180910390f35b3480156100eb57600080fd5b5061010a60048036038101908080359060200190929190505050610205565b604051808273ffffffffffffffffffffffffffffffffffffffff1673ffffffffffffffffffffffffffffffffffffffff16815260200191505060405180910390f35b34801561015857600080fd5b506101776004803603810190808035906020019092919050505061020f565b6040518082815260200191505060405180910390f35b34801561019957600080fd5b506101b86004803603810190808035906020019092919050505061021d565b6040518082815260200191505060405180910390f35b3480156101da57600080fd5b506101f96004803603810190808035906020019092919050505061022b565b005b6000339050919050565b6000339050919050565b600080805490509050919050565b600080805490509050919050565b3373ffffffffffffffffffffffffffffffffffffffff16ff00a165627a7a723058205c0d1b6f30548cb3196cb735ad6e6844185efb40a6bbc545a8a77d39301f06ce0029",
  "source": "\n\ncontract EtherGame \n{\n    uint[] a;\n    function Test1(uint a) public returns(address)\n    {\n        return msg.sender;\n    }\n    function Test2(uint a) returns(address)\n    {\n        return msg.sender;\n    }\n    function Test3(uint b) public returns(uint)\n    {\n        return a.length;\n    }\n    function Test4(uint b) returns(uint)\n    {\n        return a.length;\n    }\n    function Kill(uint a)\n    {\n        selfdestruct(msg.sender);\n    }\n}",
  "sourcePath": "/home/XXX-1/smartrim-experiment/for-rlf/0x49d2374241a0a4b407a71d359a753fc630c5d8d4/contracts/0x49d2374241a0a4b407a71d359a753fc630c5d8d4.sol",
  "compiler": {
    "name": "solc",
    "version": "0.4.25+commit.59dbf8f1.Emscripten.clang"
  },
  "schemaVersion": "3.4.16",
  "updatedAt": "2025-08-14T03:53:14.222Z",
  "networkType": "ethereum",
  "devdoc": {
    "methods": {}
  },
  "userdoc": {
    "methods": {}
  }
}