{
  "contractName": "ERC20",
  "abi": [
    {
      "constant": true,
      "inputs": [],
      "name": "totalSupply",
      "outputs": [
        {
          "name": "",
          "type": "uint256"
        }
      ],
      "payable": false,
      "stateMutability": "view",
      "type": "function"
    },
    {
      "constant": true,
      "inputs": [
        {
          "name": "",
          "type": "address"
        }
      ],
      "name": "balances",
      "outputs": [
        {
          "name": "",
          "type": "uint256"
        }
      ],
      "payable": false,
      "stateMutability": "view",
      "type": "function"
    },
    {
      "anonymous": false,
      "inputs": [
        {
          "indexed": true,
          "name": "_from",
          "type": "address"
        },
        {
          "indexed": true,
          "name": "_to",
          "type": "address"
        },
        {
          "indexed": false,
          "name": "_value",
          "type": "uint256"
        }
      ],
      "name": "Transfer",
      "type": "event"
    },
    {
      "anonymous": false,
      "inputs": [
        {
          "indexed": true,
          "name": "_owner",
          "type": "address"
        },
        {
          "indexed": true,
          "name": "_spender",
          "type": "address"
        },
        {
          "indexed": false,
          "name": "_value",
          "type": "uint256"
        }
      ],
      "name": "Approval",
      "type": "event"
    },
    {
      "constant": true,
      "inputs": [
        {
          "name": "_owner",
          "type": "address"
        }
      ],
      "name": "balanceOf",
      "outputs": [
        {
          "name": "balance",
          "type": "uint256"
        }
      ],
      "payable": false,
      "stateMutability": "view",
      "type": "function"
    },
    {
      "constant": false,
      "inputs": [
        {
          "name": "_to",
          "type": "address"
        },
        {
          "name": "_value",
          "type": "uint256"
        }
      ],
      "name": "transfer",
      "outputs": [
        {
          "name": "",
          "type": "bool"
        }
      ],
      "payable": false,
      "stateMutability": "nonpayable",
      "type": "function"
    },
    {
      "constant": false,
      "inputs": [
        {
          "name": "_from",
          "type": "address"
        },
        {
          "name": "_to",
          "type": "address"
        },
        {
          "name": "_value",
          "type": "uint256"
        }
      ],
      "name": "transferFrom",
      "outputs": [
        {
          "name": "",
          "type": "bool"
        }
      ],
      "payable": false,
      "stateMutability": "nonpayable",
      "type": "function"
    },
    {
      "constant": false,
      "inputs": [
        {
          "name": "_spender",
          "type": "address"
        },
        {
          "name": "_value",
          "type": "uint256"
        }
      ],
      "name": "approve",
      "outputs": [
        {
          "name": "",
          "type": "bool"
        }
      ],
      "payable": false,
      "stateMutability": "nonpayable",
      "type": "function"
    },
    {
      "constant": true,
      "inputs": [
        {
          "name": "_owner",
          "type": "address"
        },
        {
          "name": "_spender",
          "type": "address"
        }
      ],
      "name": "allowance",
      "outputs": [
        {
          "name": "remaining",
          "type": "uint256"
        }
      ],
      "payable": false,
      "stateMutability": "view",
      "type": "function"
    }
  ],
  "bytecode": "0x608060405234801561001057600080fd5b50610a4a806100206000396000f300608060405260043610610083576000357c0100000000000000000000000000000000000000000000000000000000900463ffffffff168063095ea7b31461008857806318160ddd146100ed57806323b872dd1461011857806327e235e31461019d57806370a08231146101f4578063a9059cbb1461024b578063dd62ed3e146102b0575b600080fd5b34801561009457600080fd5b506100d3600480360381019080803573ffffffffffffffffffffffffffffffffffffffff16906020019092919080359060200190929190505050610327565b604051808215151515815260200191505060405180910390f35b3480156100f957600080fd5b506101026104ae565b6040518082815260200191505060405180910390f35b34801561012457600080fd5b50610183600480360381019080803573ffffffffffffffffffffffffffffffffffffffff169060200190929190803573ffffffffffffffffffffffffffffffffffffffff169060200190929190803590602001909291905050506104b4565b604051808215151515815260200191505060405180910390f35b3480156101a957600080fd5b506101de600480360381019080803573ffffffffffffffffffffffffffffffffffffffff169060200190929190505050610764565b6040518082815260200191505060405180910390f35b34801561020057600080fd5b50610235600480360381019080803573ffffffffffffffffffffffffffffffffffffffff16906020019092919050505061077c565b6040518082815260200191505060405180910390f35b34801561025757600080fd5b50610296600480360381019080803573ffffffffffffffffffffffffffffffffffffffff169060200190929190803590602001909291905050506107c5565b604051808215151515815260200191505060405180910390f35b3480156102bc57600080fd5b50610311600480360381019080803573ffffffffffffffffffffffffffffffffffffffff169060200190929190803573ffffffffffffffffffffffffffffffffffffffff169060200190929190505050610960565b6040518082815260200191505060405180910390f35b6000808214806103b357506000600260003373ffffffffffffffffffffffffffffffffffffffff1673ffffffffffffffffffffffffffffffffffffffff16815260200190815260200160002060008573ffffffffffffffffffffffffffffffffffffffff1673ffffffffffffffffffffffffffffffffffffffff16815260200190815260200160002054145b15156103be57600080fd5b81600260003373ffffffffffffffffffffffffffffffffffffffff1673ffffffffffffffffffffffffffffffffffffffff16815260200190815260200160002060008573ffffffffffffffffffffffffffffffffffffffff1673ffffffffffffffffffffffffffffffffffffffff168152602001908152602001600020819055508273ffffffffffffffffffffffffffffffffffffffff163373ffffffffffffffffffffffffffffffffffffffff167f8c5be1e5ebec7d5bd14f71427d1e84f3dd0314c0f7b2291e5b200ac8c7c3b925846040518082815260200191505060405180910390a36001905092915050565b60005481565b600080600260008673ffffffffffffffffffffffffffffffffffffffff1673ffffffffffffffffffffffffffffffffffffffff16815260200190815260200160002060003373ffffffffffffffffffffffffffffffffffffffff1673ffffffffffffffffffffffffffffffffffffffff16815260200190815260200160002054905061058883600160008773ffffffffffffffffffffffffffffffffffffffff1673ffffffffffffffffffffffffffffffffffffffff168152602001908152602001600020546109e790919063ffffffff16565b600160008673ffffffffffffffffffffffffffffffffffffffff1673ffffffffffffffffffffffffffffffffffffffff1681526020019081526020016000208190555061061d83600160008873ffffffffffffffffffffffffffffffffffffffff1673ffffffffffffffffffffffffffffffffffffffff16815260200190815260200160002054610a0590919063ffffffff16565b600160008773ffffffffffffffffffffffffffffffffffffffff1673ffffffffffffffffffffffffffffffffffffffff168152602001908152602001600020819055506106738382610a0590919063ffffffff16565b600260008773ffffffffffffffffffffffffffffffffffffffff1673ffffffffffffffffffffffffffffffffffffffff16815260200190815260200160002060003373ffffffffffffffffffffffffffffffffffffffff1673ffffffffffffffffffffffffffffffffffffffff168152602001908152602001600020819055508373ffffffffffffffffffffffffffffffffffffffff168573ffffffffffffffffffffffffffffffffffffffff167fddf252ad1be2c89b69c2b068fc378daa952ba7f163c4a11628f55a4df523b3ef856040518082815260200191505060405180910390a360019150509392505050565b60016020528060005260406000206000915090505481565b6000600160008373ffffffffffffffffffffffffffffffffffffffff1673ffffffffffffffffffffffffffffffffffffffff168152602001908152602001600020549050919050565b600061081982600160003373ffffffffffffffffffffffffffffffffffffffff1673ffffffffffffffffffffffffffffffffffffffff16815260200190815260200160002054610a0590919063ffffffff16565b600160003373ffffffffffffffffffffffffffffffffffffffff1673ffffffffffffffffffffffffffffffffffffffff168152602001908152602001600020819055506108ae82600160008673ffffffffffffffffffffffffffffffffffffffff1673ffffffffffffffffffffffffffffffffffffffff168152602001908152602001600020546109e790919063ffffffff16565b600160008573ffffffffffffffffffffffffffffffffffffffff1673ffffffffffffffffffffffffffffffffffffffff168152602001908152602001600020819055508273ffffffffffffffffffffffffffffffffffffffff163373ffffffffffffffffffffffffffffffffffffffff167fddf252ad1be2c89b69c2b068fc378daa952ba7f163c4a11628f55a4df523b3ef846040518082815260200191505060405180910390a36001905092915050565b6000600260008473ffffffffffffffffffffffffffffffffffffffff1673ffffffffffffffffffffffffffffffffffffffff16815260200190815260200160002060008373ffffffffffffffffffffffffffffffffffffffff1673ffffffffffffffffffffffffffffffffffffffff16815260200190815260200160002054905092915050565b60008082840190508381101515156109fb57fe5b8091505092915050565b6000828211151515610a1357fe5b8183039050929150505600a165627a7a7230582091f29437bfb1e72f66613c8233e3195eecb5648d3b6ad97bcab283e451ce29290029",
  "source": "\n\nlibrary SafeMath {\n  function mul(uint256 a, uint256 b) internal pure returns (uint256){\n    uint256 c = a * b;\n    assert(a == 0 || c / a == b);\n    return c;\n  }\n  function div(uint256 a, uint256 b) internal pure returns (uint256) {\n    \n    uint256 c = a / b;\n    \n    return c;\n  }\n  function sub(uint256 a, uint256 b) internal pure returns (uint256) {\n    assert(b <= a);\n    return a - b;\n  }\n  function add(uint256 a, uint256 b) internal pure returns (uint256) {\n    uint256 c = a + b;\n    assert(c >= a);\n    return c;\n  }\n}\n\ncontract Ownable {\n  address public owner;\n  address public potentialNewOwner;\n \n  event OwnershipTransferred(address indexed _from, address indexed _to);\n\n  constructor() internal {\n    owner = msg.sender;\n  }\n  modifier onlyOwner() {\n    require(msg.sender == owner);\n    _;\n  }\n  function transferOwnership(address _newOwner) external { \n    potentialNewOwner = _newOwner;\n  }\n  function acceptOwnership() external {\n    require(msg.sender == potentialNewOwner);\n    emit OwnershipTransferred(owner, potentialNewOwner);\n    owner = potentialNewOwner;\n  }\n}\n\ncontract CircuitBreaker is Ownable {\n    bool public inLockdown;\n\n    constructor () internal {\n        inLockdown = false;\n    }\n    modifier outOfLockdown() {\n        require(inLockdown == false);\n        _;\n    }\n    function updateLockdownState(bool state) public{\n        inLockdown = state;\n    }\n}\n\ncontract ERC20Interface {\n    uint256 public totalSupply;\n    function balanceOf(address _owner) public view returns (uint256 balance);\n    function transfer(address _to, uint256 _value) public returns (bool success);\n    function transferFrom(address _from, address _to, uint256 _value) public returns (bool success);\n    function approve(address _spender, uint256 _value) public returns (bool success);\n    function allowance(address _owner, address _spender) public view returns (uint256 remaining);\n    event Transfer(address indexed _from, address indexed _to, uint256 _value);\n    event Approval(address indexed _owner, address indexed _spender, uint256 _value);\n}\n\ncontract ERC20 is ERC20Interface {\n  using SafeMath for uint256;\n\n  mapping(address => uint256) public balances;\n  mapping (address => mapping (address => uint256)) allowed;\n\n  function balanceOf(address _owner) view public returns (uint256 balance) {\n    return balances[_owner];\n  }\n  function transfer(address _to, uint256 _value) public returns (bool) {\n    balances[msg.sender] = balances[msg.sender].sub(_value);\n    balances[_to] = balances[_to].add(_value);\n    emit Transfer(msg.sender, _to, _value);\n    return true;\n  }\n  function transferFrom(address _from, address _to, uint256 _value) public returns (bool) {\n    uint256 _allowance = allowed[_from][msg.sender];\n    balances[_to] = balances[_to].add(_value);\n    balances[_from] = balances[_from].sub(_value);\n    allowed[_from][msg.sender] = _allowance.sub(_value);\n    emit Transfer(_from, _to, _value);\n    return true;\n  }\n  function approve(address _spender, uint256 _value) public returns (bool) {\n    require((_value == 0) || (allowed[msg.sender][_spender] == 0));\n    allowed[msg.sender][_spender] = _value;\n    emit Approval(msg.sender, _spender, _value);\n    return true;\n  }\n  function allowance(address _owner, address _spender) view public returns (uint256 remaining) {\n    return allowed[_owner][_spender];\n  }\n}\n\ncontract ITokenRecipient{\n    function buyTokenWithMorality_1(ERC20 _tokenContract, string memory _collectionName, address _sender, uint256 _value) public;\n}\n\ncontract ExternalContractPayment is ERC20{\n  function approveTokenPurchase(string memory _collectionName, address _tokenAddress, uint256 _value) public{\n    approve(_tokenAddress, _value);\n    ITokenRecipient(_tokenAddress).buyTokenWithMorality_1(this, _collectionName, msg.sender, _value);\n  }\n}\n\ncontract MintableToken is ERC20{\n  function mintToken(address target, uint256 mintedAmount) public returns(bool){\n\tbalances[target] = balances[target].add(mintedAmount);\n\ttotalSupply = totalSupply.add(mintedAmount);\n\temit Transfer(address(0), address(this), mintedAmount);\n\temit Transfer(address(this), target, mintedAmount);\n\treturn true;\n  }\n}\n\ncontract RecoverableToken is ERC20, Ownable {\n  constructor() public {}\n\n  function recoverTokens(ERC20 token) public {\n    token.transfer(owner, tokensToBeReturned(token));\n  }\n  function tokensToBeReturned(ERC20 token) public view returns (uint256) {\n    return token.balanceOf(address(this));\n  }\n}\n\ncontract BurnableToken is ERC20 {\n  address public BURN_ADDRESS;\n\n  event Burned(address burner, uint256 burnedAmount);\n \n  function burn(uint256 burnAmount) public {\n    address burner = msg.sender;\n    balances[burner] = balances[burner].sub(burnAmount);\n    totalSupply = totalSupply.sub(burnAmount);\n    emit Burned(burner, burnAmount);\n    emit Transfer(burner, BURN_ADDRESS, burnAmount);\n  }\n}\n\ncontract WithdrawableToken is ERC20, Ownable {\n  event WithdrawLog(uint256 balanceBefore, uint256 amount, uint256 balanceAfter);\n  \n  function withdraw(uint256 amount) public returns(bool){\n\trequire(amount <= address(this).balance);\n    address(owner).transfer(amount); \n\temit WithdrawLog(address(owner).balance.sub(amount), amount, address(owner).balance);\n    return true;\n  } \n}\n\ncontract Morality_1 is RecoverableToken, BurnableToken, MintableToken, WithdrawableToken, \n  ExternalContractPayment, CircuitBreaker { \n  string public name;\n  string public symbol;\n  uint256 public decimals;\n  address public creator;\n  \n  event LogFundsReceived(address sender, uint amount);\n  event UpdatedTokenInformation(string newName, string newSymbol);\n\n  constructor(uint256 _totalTokensToMint) payable public {\n    name = \"Morality_1\";\n    symbol = \"MO\";\n    totalSupply = _totalTokensToMint;\n    decimals = 18;\n    balances[msg.sender] = totalSupply;\n    creator = msg.sender;\n    emit LogFundsReceived(msg.sender, msg.value);\n  }\n  \n  function() payable external outOfLockdown {\n    emit LogFundsReceived(msg.sender, msg.value);\n  }\n  \n  function transfer(address _to, uint256 _value) public outOfLockdown returns (bool success){\n    return super.transfer(_to, _value);\n  }\n  \n  function transferFrom(address _from, address _to, uint256 _value) public outOfLockdown returns (bool success){\n    return super.transferFrom(_from, _to, _value);\n  }\n  \n  function multipleTransfer(address[]  _toAddresses, uint256[]  _toValues) external outOfLockdown returns (uint256) {\n    require(_toAddresses.length == _toValues.length);\n    uint256 updatedCount = 0;\n    for(uint256 i = 0;i<_toAddresses.length;i++){\n       if(super.transfer(_toAddresses[i], _toValues[i]) == true){\n           updatedCount++;\n       }\n    }\n    return updatedCount;\n  }\n  \n  function approve(address _spender, uint256 _value) public outOfLockdown  returns (bool) {\n    return super.approve(_spender, _value);\n  }\n  \n  function setTokenInformation(string  _name, string  _symbol) onlyOwner external {\n    require(msg.sender != creator);\n    name = _name;\n    symbol = _symbol;\n    emit UpdatedTokenInformation(name, symbol);\n  }\n  \n  function withdraw(uint256 _amount) onlyOwner public returns(bool){\n\treturn super.withdraw(_amount);\n  }\n\n  function mintToken(address _target, uint256 _mintedAmount) onlyOwner public returns (bool){\n\treturn super.mintToken(_target, _mintedAmount);\n  }\n  \n  function burn(uint256 _burnAmount) onlyOwner public{\n    return super.burn(_burnAmount);\n  }\n  \n  function updateLockdownState(bool _state) onlyOwner public{\n    super.updateLockdownState(_state);\n  }\n  \n  function recoverTokens(ERC20 _token) onlyOwner public{\n     super.recoverTokens(_token);\n  }\n  \n  function isToken() public pure returns (bool _weAre) {\n    return true;\n  }\n\n  function deprecateContract() onlyOwner external{\n    selfdestruct(creator); \n  }\n}\n\n    \ncontract Morality is Morality_1 {\n    constructor() Morality_1(78) public { }\n}\n",
  "sourcePath": "/home/XXX-1/smartrim-experiment/for-rlf/0x11eba93a0a852fd34002f5411e1663cf864edb8b_3/contracts/0x11eba93a0a852fd34002f5411e1663cf864edb8b_3.sol",
  "compiler": {
    "name": "solc",
    "version": "0.4.25+commit.59dbf8f1.Emscripten.clang"
  },
  "schemaVersion": "3.4.16",
  "updatedAt": "2025-08-14T03:35:32.923Z",
  "devdoc": {
    "methods": {}
  },
  "userdoc": {
    "methods": {}
  }
}