{
  "contractName": "Mortal",
  "abi": [
    {
      "constant": true,
      "inputs": [],
      "name": "owner",
      "outputs": [
        {
          "name": "",
          "type": "address"
        }
      ],
      "payable": false,
      "stateMutability": "view",
      "type": "function"
    },
    {
      "constant": false,
      "inputs": [],
      "name": "owned",
      "outputs": [],
      "payable": false,
      "stateMutability": "nonpayable",
      "type": "function"
    },
    {
      "constant": false,
      "inputs": [
        {
          "name": "_newOwner",
          "type": "address"
        }
      ],
      "name": "transferOwnership",
      "outputs": [],
      "payable": false,
      "stateMutability": "nonpayable",
      "type": "function"
    },
    {
      "constant": false,
      "inputs": [],
      "name": "kill",
      "outputs": [],
      "payable": false,
      "stateMutability": "nonpayable",
      "type": "function"
    }
  ],
  "bytecode": "0x608060405234801561001057600080fd5b506102f5806100206000396000f300608060405260043610610062576000357c0100000000000000000000000000000000000000000000000000000000900463ffffffff16806341c0e1b5146100675780638da5cb5b1461007e578063df32754b146100d5578063f2fde38b146100ec575b600080fd5b34801561007357600080fd5b5061007c61012f565b005b34801561008a57600080fd5b506100936101c4565b604051808273ffffffffffffffffffffffffffffffffffffffff1673ffffffffffffffffffffffffffffffffffffffff16815260200191505060405180910390f35b3480156100e157600080fd5b506100ea6101e9565b005b3480156100f857600080fd5b5061012d600480360381019080803573ffffffffffffffffffffffffffffffffffffffff16906020019092919050505061022b565b005b6000809054906101000a900473ffffffffffffffffffffffffffffffffffffffff1673ffffffffffffffffffffffffffffffffffffffff163373ffffffffffffffffffffffffffffffffffffffff1614151561018a57600080fd5b6000809054906101000a900473ffffffffffffffffffffffffffffffffffffffff1673ffffffffffffffffffffffffffffffffffffffff16ff5b6000809054906101000a900473ffffffffffffffffffffffffffffffffffffffff1681565b336000806101000a81548173ffffffffffffffffffffffffffffffffffffffff021916908373ffffffffffffffffffffffffffffffffffffffff160217905550565b6000809054906101000a900473ffffffffffffffffffffffffffffffffffffffff1673ffffffffffffffffffffffffffffffffffffffff163373ffffffffffffffffffffffffffffffffffffffff1614151561028657600080fd5b806000806101000a81548173ffffffffffffffffffffffffffffffffffffffff021916908373ffffffffffffffffffffffffffffffffffffffff160217905550505600a165627a7a723058202060e7cba70cfa52cbe32e185f285feca49fcf8f32d8e9770e0313e2c38402350029",
  "source": "\n\n\n\n\n\n\n\n\n\n\n\n\n\n\n\n\n\n\n\n\n\n\n\n\n\n\n\n\n\n\n\n\n\n\n\n\n\n\n\n\n\ncontract Owned {\n    address public owner;\n    function owned() {\n        owner = msg.sender;\n    }\n    modifier onlyOwner {\n        require(msg.sender == owner);\n        _;\n    }\n    function transferOwnership(address _newOwner) onlyOwner {\n        owner = _newOwner;\n    }\n}\n\n\ncontract Mortal is Owned {\n    function kill() onlyOwner {\n        selfdestruct(owner);\n    }\n}\n\n\ncontract SafeMath {\n  function mul(uint256 a, uint256 b)\n  internal\n  constant\n  returns (uint256) {\n    uint256 c = a * b;\n    assert(a == 0 || c / a == b);\n    return c;\n  }\n\n  function div(uint256 a, uint256 b)\n  internal\n  constant\n  returns (uint256) {\n    \n    uint256 c = a / b;\n    \n    return c;\n  }\n\n  function sub(uint256 a, uint256 b)\n  internal\n  constant\n  returns (uint256) {\n    assert(b <= a);\n    return a - b;\n  }\n\n  function add(uint256 a, uint256 b)\n  internal\n  constant\n  returns (uint256) {\n    uint256 c = a + b;\n    assert(c >= a);\n    return c;\n  }\n}\n\n\ncontract Random is SafeMath {\n    \n    function getRandomFromBlockHash(uint blockNumber, uint max)\n    public\n    constant \n    returns(uint) {\n        \n        \n        \n        \n        \n        return(add(uint(sha3(block.blockhash(blockNumber))) % max, 1));\n    }\n}\n\n\ncontract LuckyNumber is Owned {\n    \n    uint256 public cost;\n    \n    uint8 public waitTime;\n    \n    uint256 public max;\n\n    \n    struct PendingNumber {\n        address requestProxy;\n        uint256 renderedNumber;\n        uint256 originBlock;\n        uint256 max;\n        \n        \n        \n        uint8 waitTime;\n    }\n\n    \n    event EventLuckyNumberRequested(address indexed requestor, uint256 max, uint256 originBlock, uint8 waitTime, address indexed requestProxy);\n    event EventLuckyNumberRevealed(address indexed requestor, uint256 originBlock, uint256 renderedNumber, address indexed requestProxy);\n    \n    mapping (address => PendingNumber) public pendingNumbers;\n    mapping (address => bool) public whiteList;\n\n    function requestNumber(address _requestor, uint256 _max, uint8 _waitTime) payable public;\n    function revealNumber(address _requestor) payable public;\n}\n\n\ncontract LuckyNumberService is LuckyNumber, Mortal, Random {\n    \n    \n    function LuckyNumberService() {\n        owned();\n        \n        cost = 20000000000000000; \n        max = 15; \n        waitTime = 3; \n    }\n\n    \n    \n    function setMax(uint256 _max)\n    onlyOwner\n    public\n    returns (bool) {\n        max = _max;\n        return true;\n    }\n\n    \n    function setWaitTime(uint8 _waitTime)\n    onlyOwner\n    public\n    returns (bool) {\n        waitTime = _waitTime;\n        return true;\n    }\n\n    \n    function setCost(uint256 _cost)\n    onlyOwner\n    public\n    returns (bool) {\n        cost = _cost;\n        return true;\n    }\n\n    \n    \n    \n    function enableProxy(address _proxy)\n    onlyOwner\n    public\n    returns (bool) {\n        whiteList[_proxy] = true;\n        return whiteList[_proxy];\n    }\n\n    function removeProxy(address _proxy)\n    onlyOwner\n    public\n    returns (bool) {\n        delete whiteList[_proxy];\n        return true;\n    }\n\n    \n    function withdraw(address _recipient, uint256 _balance)\n    onlyOwner\n    public\n    returns (bool) {\n        _recipient.transfer(_balance);\n        return true;\n    }\n\n    \n    \n    function () payable public {\n        assert(msg.sender != owner);\n        requestNumber(msg.sender, max, waitTime);\n    }\n    \n    \n    function requestNumber(address _requestor, uint256 _max, uint8 _waitTime)\n    payable \n    public {\n        \n        \n        \n        if (!whiteList[msg.sender]) {\n            require(!(msg.value < cost));\n        }\n\n        \n        \n        assert(!checkNumber(_requestor));\n        \n        pendingNumbers[_requestor] = PendingNumber({\n            requestProxy: tx.origin, \n            renderedNumber: 0,\n            max: max,\n            originBlock: block.number,\n            waitTime: waitTime\n        });\n        if (_max > 1) {\n            pendingNumbers[_requestor].max = _max;\n        }\n        \n        \n        \n        \n        if (_waitTime > 0 && _waitTime < 250) {\n            pendingNumbers[_requestor].waitTime = _waitTime;\n        }\n        EventLuckyNumberRequested(_requestor, pendingNumbers[_requestor].max, pendingNumbers[_requestor].originBlock, pendingNumbers[_requestor].waitTime, pendingNumbers[_requestor].requestProxy);\n    }\n\n    \n    \n    function revealNumber(address _requestor)\n    public\n    payable {\n        assert(_canReveal(_requestor, msg.sender));\n        \n        _revealNumber(_requestor);\n    }\n\n    \n    function _revealNumber(address _requestor) \n    internal {\n        uint256 luckyBlock = _revealBlock(_requestor);\n        \n        \n        \n        \n        \n        uint256 luckyNumber = getRandomFromBlockHash(luckyBlock, pendingNumbers[_requestor].max);\n\n        \n        pendingNumbers[_requestor].renderedNumber = luckyNumber;\n        \n        EventLuckyNumberRevealed(_requestor, pendingNumbers[_requestor].originBlock, pendingNumbers[_requestor].renderedNumber, pendingNumbers[_requestor].requestProxy);\n        \n        pendingNumbers[_requestor].waitTime = 0;\n    }\n\n    function canReveal(address _requestor)\n    public\n    constant\n    returns (bool, uint, uint, address, address) {\n        return (_canReveal(_requestor, msg.sender), _remainingBlocks(_requestor), _revealBlock(_requestor), _requestor, msg.sender);\n    }\n\n    function _canReveal(address _requestor, address _proxy) \n    internal\n    constant\n    returns (bool) {\n        \n        if (checkNumber(_requestor)) {\n            \n            \n            if (_remainingBlocks(_requestor) == 0) {\n                \n                if (pendingNumbers[_requestor].requestProxy == _requestor || pendingNumbers[_requestor].requestProxy == _proxy) {\n                    return true;\n                }\n            }\n        }\n        return false;\n    }\n\n    function _remainingBlocks(address _requestor)\n    internal\n    constant\n    returns (uint) {\n        uint256 revealBlock = add(pendingNumbers[_requestor].originBlock, pendingNumbers[_requestor].waitTime);\n        uint256 remainingBlocks = 0;\n        if (revealBlock > block.number) {\n            remainingBlocks = sub(revealBlock, block.number);\n        }\n        return remainingBlocks;\n    }\n\n    function _revealBlock(address _requestor)\n    internal\n    constant\n    returns (uint) {\n        \n        \n        \n        return add(pendingNumbers[_requestor].originBlock, pendingNumbers[_requestor].waitTime);\n    }\n\n\n    function getNumber(address _requestor)\n    public\n    constant\n    returns (uint, uint, uint, address) {\n        return (pendingNumbers[_requestor].renderedNumber, pendingNumbers[_requestor].max, pendingNumbers[_requestor].originBlock, _requestor);\n    }\n\n    \n    function checkNumber(address _requestor)\n    public\n    constant\n    returns (bool) {\n        if (pendingNumbers[_requestor].renderedNumber == 0 && pendingNumbers[_requestor].waitTime > 0) {\n            return true;\n        }\n        return false;\n    }\n\n}",
  "sourcePath": "/home/XXX-1/smartrim-experiment/for-rlf/0x2cbc88071f7c0eff084332b8acaa01f1f33eba50/contracts/0x2cbc88071f7c0eff084332b8acaa01f1f33eba50.sol",
  "compiler": {
    "name": "solc",
    "version": "0.4.25+commit.59dbf8f1.Emscripten.clang"
  },
  "schemaVersion": "3.4.16",
  "updatedAt": "2025-08-14T03:50:51.737Z",
  "devdoc": {
    "methods": {}
  },
  "userdoc": {
    "methods": {}
  }
}