{
  "contractName": "AcuteAngleCoin",
  "abi": [
    {
      "constant": true,
      "inputs": [],
      "name": "name",
      "outputs": [
        {
          "name": "",
          "type": "string"
        }
      ],
      "payable": false,
      "stateMutability": "view",
      "type": "function"
    },
    {
      "constant": true,
      "inputs": [],
      "name": "decimals",
      "outputs": [
        {
          "name": "",
          "type": "uint256"
        }
      ],
      "payable": false,
      "stateMutability": "view",
      "type": "function"
    },
    {
      "constant": true,
      "inputs": [],
      "name": "_totalSupply",
      "outputs": [
        {
          "name": "",
          "type": "uint256"
        }
      ],
      "payable": false,
      "stateMutability": "view",
      "type": "function"
    },
    {
      "constant": true,
      "inputs": [],
      "name": "tradable",
      "outputs": [
        {
          "name": "",
          "type": "bool"
        }
      ],
      "payable": false,
      "stateMutability": "view",
      "type": "function"
    },
    {
      "constant": true,
      "inputs": [],
      "name": "_originalBuyPrice",
      "outputs": [
        {
          "name": "",
          "type": "uint256"
        }
      ],
      "payable": false,
      "stateMutability": "view",
      "type": "function"
    },
    {
      "constant": true,
      "inputs": [],
      "name": "owner",
      "outputs": [
        {
          "name": "",
          "type": "address"
        }
      ],
      "payable": false,
      "stateMutability": "view",
      "type": "function"
    },
    {
      "constant": true,
      "inputs": [],
      "name": "symbol",
      "outputs": [
        {
          "name": "",
          "type": "string"
        }
      ],
      "payable": false,
      "stateMutability": "view",
      "type": "function"
    },
    {
      "constant": true,
      "inputs": [],
      "name": "totalTokenSold",
      "outputs": [
        {
          "name": "",
          "type": "uint256"
        }
      ],
      "payable": false,
      "stateMutability": "view",
      "type": "function"
    },
    {
      "constant": true,
      "inputs": [],
      "name": "_selling",
      "outputs": [
        {
          "name": "",
          "type": "bool"
        }
      ],
      "payable": false,
      "stateMutability": "view",
      "type": "function"
    },
    {
      "payable": true,
      "stateMutability": "payable",
      "type": "fallback"
    },
    {
      "anonymous": false,
      "inputs": [
        {
          "indexed": true,
          "name": "_from",
          "type": "address"
        },
        {
          "indexed": true,
          "name": "_to",
          "type": "address"
        },
        {
          "indexed": false,
          "name": "_value",
          "type": "uint256"
        }
      ],
      "name": "Transfer",
      "type": "event"
    },
    {
      "anonymous": false,
      "inputs": [
        {
          "indexed": true,
          "name": "_owner",
          "type": "address"
        },
        {
          "indexed": true,
          "name": "_spender",
          "type": "address"
        },
        {
          "indexed": false,
          "name": "_value",
          "type": "uint256"
        }
      ],
      "name": "Approval",
      "type": "event"
    },
    {
      "constant": false,
      "inputs": [],
      "name": "buyAAC",
      "outputs": [],
      "payable": true,
      "stateMutability": "payable",
      "type": "function"
    },
    {
      "constant": false,
      "inputs": [],
      "name": "AAC",
      "outputs": [],
      "payable": false,
      "stateMutability": "nonpayable",
      "type": "function"
    },
    {
      "constant": true,
      "inputs": [],
      "name": "totalSupply",
      "outputs": [
        {
          "name": "",
          "type": "uint256"
        }
      ],
      "payable": false,
      "stateMutability": "view",
      "type": "function"
    },
    {
      "constant": false,
      "inputs": [],
      "name": "turnOnSale",
      "outputs": [],
      "payable": false,
      "stateMutability": "nonpayable",
      "type": "function"
    },
    {
      "constant": false,
      "inputs": [],
      "name": "turnOffSale",
      "outputs": [],
      "payable": false,
      "stateMutability": "nonpayable",
      "type": "function"
    },
    {
      "constant": false,
      "inputs": [],
      "name": "turnOnTradable",
      "outputs": [],
      "payable": false,
      "stateMutability": "nonpayable",
      "type": "function"
    },
    {
      "constant": true,
      "inputs": [
        {
          "name": "_addr",
          "type": "address"
        }
      ],
      "name": "balanceOf",
      "outputs": [
        {
          "name": "",
          "type": "uint256"
        }
      ],
      "payable": false,
      "stateMutability": "view",
      "type": "function"
    },
    {
      "constant": true,
      "inputs": [
        {
          "name": "_addr",
          "type": "address"
        }
      ],
      "name": "isApprovedInvestor",
      "outputs": [
        {
          "name": "",
          "type": "bool"
        }
      ],
      "payable": false,
      "stateMutability": "view",
      "type": "function"
    },
    {
      "constant": true,
      "inputs": [
        {
          "name": "_addr",
          "type": "address"
        }
      ],
      "name": "getDeposit",
      "outputs": [
        {
          "name": "",
          "type": "uint256"
        }
      ],
      "payable": false,
      "stateMutability": "view",
      "type": "function"
    },
    {
      "constant": false,
      "inputs": [
        {
          "name": "newInvestorList",
          "type": "address[]"
        }
      ],
      "name": "addInvestorList",
      "outputs": [],
      "payable": false,
      "stateMutability": "nonpayable",
      "type": "function"
    },
    {
      "constant": false,
      "inputs": [
        {
          "name": "investorList",
          "type": "address[]"
        }
      ],
      "name": "removeInvestorList",
      "outputs": [],
      "payable": false,
      "stateMutability": "nonpayable",
      "type": "function"
    },
    {
      "constant": false,
      "inputs": [
        {
          "name": "_to",
          "type": "address"
        },
        {
          "name": "_amount",
          "type": "uint256"
        }
      ],
      "name": "transfer",
      "outputs": [
        {
          "name": "",
          "type": "bool"
        }
      ],
      "payable": false,
      "stateMutability": "nonpayable",
      "type": "function"
    },
    {
      "constant": false,
      "inputs": [
        {
          "name": "_from",
          "type": "address"
        },
        {
          "name": "_to",
          "type": "address"
        },
        {
          "name": "_amount",
          "type": "uint256"
        }
      ],
      "name": "transferFrom",
      "outputs": [
        {
          "name": "success",
          "type": "bool"
        }
      ],
      "payable": false,
      "stateMutability": "nonpayable",
      "type": "function"
    },
    {
      "constant": false,
      "inputs": [
        {
          "name": "_spender",
          "type": "address"
        },
        {
          "name": "_amount",
          "type": "uint256"
        }
      ],
      "name": "approve",
      "outputs": [
        {
          "name": "success",
          "type": "bool"
        }
      ],
      "payable": false,
      "stateMutability": "nonpayable",
      "type": "function"
    },
    {
      "constant": true,
      "inputs": [
        {
          "name": "_owner",
          "type": "address"
        },
        {
          "name": "_spender",
          "type": "address"
        }
      ],
      "name": "allowance",
      "outputs": [
        {
          "name": "remaining",
          "type": "uint256"
        }
      ],
      "payable": false,
      "stateMutability": "view",
      "type": "function"
    },
    {
      "constant": false,
      "inputs": [],
      "name": "withdraw",
      "outputs": [
        {
          "name": "",
          "type": "bool"
        }
      ],
      "payable": false,
      "stateMutability": "nonpayable",
      "type": "function"
    }
  ],
  "bytecode": "0x608060405260016000806101000a81548160ff021916908315150217905550655af3107a400060015563173eed8060025560006008556000600960006101000a81548160ff02191690831515021790555034801561005c57600080fd5b50611a3f8061006c6000396000f300608060405260043610610149576000357c0100000000000000000000000000000000000000000000000000000000900463ffffffff16806306fdde0314610153578063095ea7b3146101e357806318160ddd1461024857806323526a341461027357806323b872dd1461028a5780632fb1746d1461030f578063313ce567146103265780633ccfd60b146103515780633eaaf86b1461038057806354840c6e146103ab57806370a08231146103da57806378f2144b146104315780638da5cb5b1461045c57806395d89b41146104b35780639b1fe0d4146105435780639fc395491461059e578063a9059cbb14610604578063b5f7f63614610669578063bfb9f08814610694578063c18b4136146106fa578063d270cbaf14610711578063dd62ed3e1461071b578063e1254fba14610792578063e98cf987146107e9578063f9323a3214610800575b61015161082f565b005b34801561015f57600080fd5b50610168610b39565b6040518080602001828103825283818151815260200191508051906020019080838360005b838110156101a857808201518184015260208101905061018d565b50505050905090810190601f1680156101d55780820380516001836020036101000a031916815260200191505b509250505060405180910390f35b3480156101ef57600080fd5b5061022e600480360381019080803573ffffffffffffffffffffffffffffffffffffffff16906020019092919080359060200190929190505050610b72565b604051808215151515815260200191505060405180910390f35b34801561025457600080fd5b5061025d610cde565b6040518082815260200191505060405180910390f35b34801561027f57600080fd5b50610288610ce8565b005b34801561029657600080fd5b506102f5600480360381019080803573ffffffffffffffffffffffffffffffffffffffff169060200190929190803573ffffffffffffffffffffffffffffffffffffffff16906020019092919080359060200190929190505050610d60565b604051808215151515815260200191505060405180910390f35b34801561031b57600080fd5b506103246110e1565b005b34801561033257600080fd5b5061033b61115a565b6040518082815260200191505060405180910390f35b34801561035d57600080fd5b5061036661115f565b604051808215151515815260200191505060405180910390f35b34801561038c57600080fd5b50610395611230565b6040518082815260200191505060405180910390f35b3480156103b757600080fd5b506103c0611236565b604051808215151515815260200191505060405180910390f35b3480156103e657600080fd5b5061041b600480360381019080803573ffffffffffffffffffffffffffffffffffffffff169060200190929190505050611249565b6040518082815260200191505060405180910390f35b34801561043d57600080fd5b50610446611292565b6040518082815260200191505060405180910390f35b34801561046857600080fd5b50610471611298565b604051808273ffffffffffffffffffffffffffffffffffffffff1673ffffffffffffffffffffffffffffffffffffffff16815260200191505060405180910390f35b3480156104bf57600080fd5b506104c86112be565b6040518080602001828103825283818151815260200191508051906020019080838360005b838110156105085780820151818401526020810190506104ed565b50505050905090810190601f1680156105355780820380516001836020036101000a031916815260200191505b509250505060405180910390f35b34801561054f57600080fd5b50610584600480360381019080803573ffffffffffffffffffffffffffffffffffffffff1690602001909291905050506112f7565b604051808215151515815260200191505060405180910390f35b3480156105aa57600080fd5b506106026004803603810190808035906020019082018035906020019080806020026020016040519081016040528093929190818152602001838360200280828437820191505050505050919291929050505061134d565b005b34801561061057600080fd5b5061064f600480360381019080803573ffffffffffffffffffffffffffffffffffffffff16906020019092919080359060200190929190505050611439565b604051808215151515815260200191505060405180910390f35b34801561067557600080fd5b5061067e6116a8565b6040518082815260200191505060405180910390f35b3480156106a057600080fd5b506106f8600480360381019080803590602001908201803590602001908080602002602001604051908101604052809392919081815260200183836020028082843782019150505050505091929192905050506116ae565b005b34801561070657600080fd5b5061070f61179a565b005b61071961082f565b005b34801561072757600080fd5b5061077c600480360381019080803573ffffffffffffffffffffffffffffffffffffffff169060200190929190803573ffffffffffffffffffffffffffffffffffffffff1690602001909291905050506118b9565b6040518082815260200191505060405180910390f35b34801561079e57600080fd5b506107d3600480360381019080803573ffffffffffffffffffffffffffffffffffffffff169060200190929190505050611940565b6040518082815260200191505060405180910390f35b3480156107f557600080fd5b506107fe611989565b005b34801561080c57600080fd5b50610815611a01565b604051808215151515815260200191505060405180910390f35b60008060009054906101000a900460ff16151561084b57600080fd5b600660003373ffffffffffffffffffffffffffffffffffffffff1673ffffffffffffffffffffffffffffffffffffffff16815260200190815260200160002060009054906101000a900460ff1615156108a357600080fd5b670de0b6b3a764000060025434028115156108ba57fe5b0490508060046000600360009054906101000a900473ffffffffffffffffffffffffffffffffffffffff1673ffffffffffffffffffffffffffffffffffffffff1673ffffffffffffffffffffffffffffffffffffffff168152602001908152602001600020541015151561092d57600080fd5b8060046000600360009054906101000a900473ffffffffffffffffffffffffffffffffffffffff1673ffffffffffffffffffffffffffffffffffffffff1673ffffffffffffffffffffffffffffffffffffffff1681526020019081526020016000206000828254039250508190555080600460003373ffffffffffffffffffffffffffffffffffffffff1673ffffffffffffffffffffffffffffffffffffffff1681526020019081526020016000206000828254019250508190555034600760003373ffffffffffffffffffffffffffffffffffffffff1673ffffffffffffffffffffffffffffffffffffffff16815260200190815260200160002060008282540192505081905550806008600082825401925050819055503373ffffffffffffffffffffffffffffffffffffffff16600360009054906101000a900473ffffffffffffffffffffffffffffffffffffffff1673ffffffffffffffffffffffffffffffffffffffff167fddf252ad1be2c89b69c2b068fc378daa952ba7f163c4a11628f55a4df523b3ef836040518082815260200191505060405180910390a3600360009054906101000a900473ffffffffffffffffffffffffffffffffffffffff1673ffffffffffffffffffffffffffffffffffffffff166108fc349081150290604051600060405180830381858888f19350505050158015610b35573d6000803e3d6000fd5b5050565b6040805190810160405280600e81526020017f4163757465416e676c65436f696e00000000000000000000000000000000000081525081565b600060011515600960009054906101000a900460ff1615151480610be35750600360009054906101000a900473ffffffffffffffffffffffffffffffffffffffff1673ffffffffffffffffffffffffffffffffffffffff163373ffffffffffffffffffffffffffffffffffffffff16145b1515610bee57600080fd5b81600560003373ffffffffffffffffffffffffffffffffffffffff1673ffffffffffffffffffffffffffffffffffffffff16815260200190815260200160002060008573ffffffffffffffffffffffffffffffffffffffff1673ffffffffffffffffffffffffffffffffffffffff168152602001908152602001600020819055508273ffffffffffffffffffffffffffffffffffffffff163373ffffffffffffffffffffffffffffffffffffffff167f8c5be1e5ebec7d5bd14f71427d1e84f3dd0314c0f7b2291e5b200ac8c7c3b925846040518082815260200191505060405180910390a36001905092915050565b6000600154905090565b600360009054906101000a900473ffffffffffffffffffffffffffffffffffffffff1673ffffffffffffffffffffffffffffffffffffffff163373ffffffffffffffffffffffffffffffffffffffff16141515610d4457600080fd5b60008060006101000a81548160ff021916908315150217905550565b600060011515600960009054906101000a900460ff1615151480610dd15750600360009054906101000a900473ffffffffffffffffffffffffffffffffffffffff1673ffffffffffffffffffffffffffffffffffffffff163373ffffffffffffffffffffffffffffffffffffffff16145b1515610ddc57600080fd5b81600460008673ffffffffffffffffffffffffffffffffffffffff1673ffffffffffffffffffffffffffffffffffffffff1681526020019081526020016000205410158015610ea7575081600560008673ffffffffffffffffffffffffffffffffffffffff1673ffffffffffffffffffffffffffffffffffffffff16815260200190815260200160002060003373ffffffffffffffffffffffffffffffffffffffff1673ffffffffffffffffffffffffffffffffffffffff1681526020019081526020016000205410155b8015610eb35750600082115b8015610f3e5750600460008473ffffffffffffffffffffffffffffffffffffffff1673ffffffffffffffffffffffffffffffffffffffff1681526020019081526020016000205482600460008673ffffffffffffffffffffffffffffffffffffffff1673ffffffffffffffffffffffffffffffffffffffff1681526020019081526020016000205401115b156110d55781600460008673ffffffffffffffffffffffffffffffffffffffff1673ffffffffffffffffffffffffffffffffffffffff1681526020019081526020016000206000828254039250508190555081600560008673ffffffffffffffffffffffffffffffffffffffff1673ffffffffffffffffffffffffffffffffffffffff16815260200190815260200160002060003373ffffffffffffffffffffffffffffffffffffffff1673ffffffffffffffffffffffffffffffffffffffff1681526020019081526020016000206000828254039250508190555081600460008573ffffffffffffffffffffffffffffffffffffffff1673ffffffffffffffffffffffffffffffffffffffff168152602001908152602001600020600082825401925050819055508273ffffffffffffffffffffffffffffffffffffffff168473ffffffffffffffffffffffffffffffffffffffff167fddf252ad1be2c89b69c2b068fc378daa952ba7f163c4a11628f55a4df523b3ef846040518082815260200191505060405180910390a3600190506110da565b600090505b9392505050565b600360009054906101000a900473ffffffffffffffffffffffffffffffffffffffff1673ffffffffffffffffffffffffffffffffffffffff163373ffffffffffffffffffffffffffffffffffffffff1614151561113d57600080fd5b6001600960006101000a81548160ff021916908315150217905550565b600581565b6000600360009054906101000a900473ffffffffffffffffffffffffffffffffffffffff1673ffffffffffffffffffffffffffffffffffffffff163373ffffffffffffffffffffffffffffffffffffffff161415156111bd57600080fd5b600360009054906101000a900473ffffffffffffffffffffffffffffffffffffffff1673ffffffffffffffffffffffffffffffffffffffff166108fc3073ffffffffffffffffffffffffffffffffffffffff16319081150290604051600060405180830381858888f19350505050905090565b60015481565b600960009054906101000a900460ff1681565b6000600460008373ffffffffffffffffffffffffffffffffffffffff1673ffffffffffffffffffffffffffffffffffffffff168152602001908152602001600020549050919050565b60025481565b600360009054906101000a900473ffffffffffffffffffffffffffffffffffffffff1681565b6040805190810160405280600381526020017f414143000000000000000000000000000000000000000000000000000000000081525081565b6000600660008373ffffffffffffffffffffffffffffffffffffffff1673ffffffffffffffffffffffffffffffffffffffff16815260200190815260200160002060009054906101000a900460ff169050919050565b6000600360009054906101000a900473ffffffffffffffffffffffffffffffffffffffff1673ffffffffffffffffffffffffffffffffffffffff163373ffffffffffffffffffffffffffffffffffffffff161415156113ab57600080fd5b600090505b81518110156114355760006006600084848151811015156113cd57fe5b9060200190602002015173ffffffffffffffffffffffffffffffffffffffff1673ffffffffffffffffffffffffffffffffffffffff16815260200190815260200160002060006101000a81548160ff02191690831515021790555080806001019150506113b0565b5050565b600060011515600960009054906101000a900460ff16151514806114aa5750600360009054906101000a900473ffffffffffffffffffffffffffffffffffffffff1673ffffffffffffffffffffffffffffffffffffffff163373ffffffffffffffffffffffffffffffffffffffff16145b15156114b557600080fd5b81600460003373ffffffffffffffffffffffffffffffffffffffff1673ffffffffffffffffffffffffffffffffffffffff1681526020019081526020016000205410158015611505575060008210155b80156115905750600460008473ffffffffffffffffffffffffffffffffffffffff1673ffffffffffffffffffffffffffffffffffffffff1681526020019081526020016000205482600460008673ffffffffffffffffffffffffffffffffffffffff1673ffffffffffffffffffffffffffffffffffffffff1681526020019081526020016000205401115b1561169d5781600460003373ffffffffffffffffffffffffffffffffffffffff1673ffffffffffffffffffffffffffffffffffffffff1681526020019081526020016000206000828254039250508190555081600460008573ffffffffffffffffffffffffffffffffffffffff1673ffffffffffffffffffffffffffffffffffffffff168152602001908152602001600020600082825401925050819055508273ffffffffffffffffffffffffffffffffffffffff163373ffffffffffffffffffffffffffffffffffffffff167fddf252ad1be2c89b69c2b068fc378daa952ba7f163c4a11628f55a4df523b3ef846040518082815260200191505060405180910390a3600190506116a2565b600090505b92915050565b60085481565b6000600360009054906101000a900473ffffffffffffffffffffffffffffffffffffffff1673ffffffffffffffffffffffffffffffffffffffff163373ffffffffffffffffffffffffffffffffffffffff1614151561170c57600080fd5b600090505b815181101561179657600160066000848481518110151561172e57fe5b9060200190602002015173ffffffffffffffffffffffffffffffffffffffff1673ffffffffffffffffffffffffffffffffffffffff16815260200190815260200160002060006101000a81548160ff0219169083151502179055508080600101915050611711565b5050565b33600360006101000a81548173ffffffffffffffffffffffffffffffffffffffff021916908373ffffffffffffffffffffffffffffffffffffffff16021790555060015460046000600360009054906101000a900473ffffffffffffffffffffffffffffffffffffffff1673ffffffffffffffffffffffffffffffffffffffff1673ffffffffffffffffffffffffffffffffffffffff16815260200190815260200160002081905550600360009054906101000a900473ffffffffffffffffffffffffffffffffffffffff1673ffffffffffffffffffffffffffffffffffffffff1660007fddf252ad1be2c89b69c2b068fc378daa952ba7f163c4a11628f55a4df523b3ef6001546040518082815260200191505060405180910390a3565b6000600560008473ffffffffffffffffffffffffffffffffffffffff1673ffffffffffffffffffffffffffffffffffffffff16815260200190815260200160002060008373ffffffffffffffffffffffffffffffffffffffff1673ffffffffffffffffffffffffffffffffffffffff16815260200190815260200160002054905092915050565b6000600760008373ffffffffffffffffffffffffffffffffffffffff1673ffffffffffffffffffffffffffffffffffffffff168152602001908152602001600020549050919050565b600360009054906101000a900473ffffffffffffffffffffffffffffffffffffffff1673ffffffffffffffffffffffffffffffffffffffff163373ffffffffffffffffffffffffffffffffffffffff161415156119e557600080fd5b60016000806101000a81548160ff021916908315150217905550565b6000809054906101000a900460ff16815600a165627a7a72305820bcbe11e42fb5be6517b440e462ce71d5e76a4e1967f719ac9ecb21bacbaabc910029",
  "source": "\n\n\n\n\n\n\n\ncontract ERC20Interface {\n    function totalSupply() public constant returns (uint256 _totalSupply);\n    function balanceOf(address _owner) public constant returns (uint256 balance);\n    function transfer(address _to, uint256 _value) public returns (bool success);\n    function transferFrom(address _from, address _to, uint256 _value) public returns (bool success);\n    function approve(address _spender, uint256 _value) public returns (bool success);\n    function allowance(address _owner, address _spender) public constant returns (uint256 remaining);\n    event Transfer(address indexed _from, address indexed _to, uint256 _value);\n    event Approval(address indexed _owner, address indexed _spender, uint256 _value);\n}\n \ncontract AcuteAngleCoin is ERC20Interface {\n    uint256 public constant decimals = 5;\n\n    string public constant symbol = \"AAC\";\n    string public constant name = \"AcuteAngleCoin\";\n\n    bool public _selling = true;\n    uint256 public _totalSupply = 10 ** 14; \n    uint256 public _originalBuyPrice = 39 * 10**7; \n\n    \n    address public owner;\n \n    \n    mapping(address => uint256) private balances;\n    \n    \n    mapping(address => mapping (address => uint256)) private allowed;\n\n    \n    mapping(address => bool) private approvedInvestorList;\n    \n    \n    mapping(address => uint256) private deposit;\n       \n\n    \n    uint256 public totalTokenSold = 0;\n    \n    \n    bool public tradable = false;\n    \n    \n    modifier onlyOwner() {\n        require(msg.sender == owner);\n        _;\n    }\n\n    \n    modifier onSale() {\n        require(_selling);\n        _;\n    }\n    \n    \n    modifier validInvestor() {\n        require(approvedInvestorList[msg.sender]);\n        _;\n    }\n    \n\n    \n    \n    modifier isTradable(){\n        require(tradable == true || msg.sender == owner);\n        _;\n    }\n\n    \n    function()\n        public\n        payable {\n        buyAAC();\n    }\n    \n    \n    function buyAAC()\n        public\n        payable\n        onSale\n        validInvestor {\n        uint256 requestedUnits = (msg.value * _originalBuyPrice) / 10**18;\n        require(balances[owner] >= requestedUnits);\n        \n        balances[owner] -= requestedUnits;\n        balances[msg.sender] += requestedUnits;\n        \n        \n        deposit[msg.sender] += msg.value;\n        \n        \n        totalTokenSold += requestedUnits;\n        \n        \n        Transfer(owner, msg.sender, requestedUnits);\n        owner.transfer(msg.value);\n    }\n\n    \n    function AAC() \n        public {\n        owner = msg.sender;\n        balances[owner] = _totalSupply;\n        Transfer(0x0, owner, _totalSupply);\n    }\n    \n    \n    \n    function totalSupply()\n        public \n        constant \n        returns (uint256) {\n        return _totalSupply;\n    }\n    \n    \n    function turnOnSale() onlyOwner \n        public {\n        _selling = true;\n    }\n\n    \n    function turnOffSale() onlyOwner \n        public {\n        _selling = false;\n    }\n    \n    function turnOnTradable() \n        public\n        onlyOwner{\n        tradable = true;\n    }\n        \n    \n    \n    \n    function balanceOf(address _addr) \n        public\n        constant \n        returns (uint256) {\n        return balances[_addr];\n    }\n    \n    \n    \n    function isApprovedInvestor(address _addr)\n        public\n        constant\n        returns (bool) {\n        return approvedInvestorList[_addr];\n    }\n    \n    \n    \n    \n    function getDeposit(address _addr)\n        public\n        constant\n        returns(uint256){\n        return deposit[_addr];\n}\n    \n    \n    \n    function addInvestorList(address[] newInvestorList)\n        onlyOwner\n        public {\n        for (uint256 i = 0; i < newInvestorList.length; i++){\n            approvedInvestorList[newInvestorList[i]] = true;\n        }\n    }\n\n    \n    \n    function removeInvestorList(address[] investorList)\n        onlyOwner\n        public {\n        for (uint256 i = 0; i < investorList.length; i++){\n            approvedInvestorList[investorList[i]] = false;\n        }\n    }\n \n    \n    \n    \n    \n    function transfer(address _to, uint256 _amount)\n        public \n        isTradable\n        returns (bool) {\n        \n        \n        \n        if ( (balances[msg.sender] >= _amount) &&\n             (_amount >= 0) && \n             (balances[_to] + _amount > balances[_to]) ) {  \n\n            balances[msg.sender] -= _amount;\n            balances[_to] += _amount;\n            Transfer(msg.sender, _to, _amount);\n            return true;\n        } else {\n            return false;\n        }\n    }\n     \n    \n    \n    \n    \n    \n    \n    function transferFrom(\n        address _from,\n        address _to,\n        uint256 _amount\n    )\n    public\n    isTradable\n    returns (bool success) {\n        if (balances[_from] >= _amount\n            && allowed[_from][msg.sender] >= _amount\n            && _amount > 0\n            && balances[_to] + _amount > balances[_to]) {\n            balances[_from] -= _amount;\n            allowed[_from][msg.sender] -= _amount;\n            balances[_to] += _amount;\n            Transfer(_from, _to, _amount);\n            return true;\n        } else {\n            return false;\n        }\n    }\n    \n    \n    \n    function approve(address _spender, uint256 _amount) \n        public\n        isTradable\n        returns (bool success) {\n        allowed[msg.sender][_spender] = _amount;\n        Approval(msg.sender, _spender, _amount);\n        return true;\n    }\n    \n    \n    function allowance(address _owner, address _spender) \n        public\n        constant \n        returns (uint256 remaining) {\n        return allowed[_owner][_spender];\n    }\n    \n    \n    \n    function withdraw() onlyOwner \n        public \n        returns (bool) {\n        return owner.send(this.balance);\n    }\n}",
  "sourcePath": "/home/XXX-1/smartrim-experiment/for-rlf/0x5162a13e4b2adf708878c71f2cad69525770601f/contracts/0x5162a13e4b2adf708878c71f2cad69525770601f.sol",
  "compiler": {
    "name": "solc",
    "version": "0.4.25+commit.59dbf8f1.Emscripten.clang"
  },
  "schemaVersion": "3.4.16",
  "updatedAt": "2025-08-14T03:53:54.805Z",
  "networkType": "ethereum",
  "devdoc": {
    "methods": {}
  },
  "userdoc": {
    "methods": {}
  }
}