{
  "contractName": "safeMath",
  "abi": [
    {
      "constant": false,
      "inputs": [
        {
          "name": "a",
          "type": "uint256"
        },
        {
          "name": "b",
          "type": "uint256"
        }
      ],
      "name": "add",
      "outputs": [
        {
          "name": "",
          "type": "uint256"
        }
      ],
      "payable": false,
      "stateMutability": "nonpayable",
      "type": "function"
    },
    {
      "constant": false,
      "inputs": [
        {
          "name": "a",
          "type": "uint256"
        },
        {
          "name": "b",
          "type": "uint256"
        }
      ],
      "name": "sub",
      "outputs": [
        {
          "name": "",
          "type": "uint256"
        }
      ],
      "payable": false,
      "stateMutability": "nonpayable",
      "type": "function"
    }
  ],
  "bytecode": "0x608060405234801561001057600080fd5b50610155806100206000396000f30060806040526004361061004c576000357c0100000000000000000000000000000000000000000000000000000000900463ffffffff168063771602f714610051578063b67d77c51461009c575b600080fd5b34801561005d57600080fd5b5061008660048036038101908080359060200190929190803590602001909291905050506100e7565b6040518082815260200191505060405180910390f35b3480156100a857600080fd5b506100d16004803603810190808035906020019092919080359060200190929190505050610110565b6040518082815260200191505060405180910390f35b600080828401905083811015806100fe5750828110155b151561010657fe5b8091505092915050565b600082821115151561011e57fe5b8183039050929150505600a165627a7a723058203f8275220882a8eee44df3848ac35aab00b7d50e1a78725e9eb669b182d7c36e0029",
  "source": "\n\ncontract Owned {\n    address public owner;\n    modifier onlyOwner() {\n        require(msg.sender == owner);\n        _;\n    }\n    \n    function Owned() {\n        owner = msg.sender;\n    }\n    \n    function changeOwner(address _newOwner) onlyOwner {\n        owner = _newOwner;\n    }\n}\n\ncontract safeMath {\n    function add(uint a, uint b) returns (uint) {\n        uint c = a + b;\n        assert(c >= a || c >= b);\n        return c;\n    }\n    \n    function sub(uint a, uint b) returns (uint) {\n        assert( b <= a);\n        return a - b;\n    }\n}\n\ncontract tokenRecipient { \n  function receiveApproval(address _from, uint256 _value, address _token, bytes _extraData);\n} \n\ncontract ERC20Token {\n    \n    \n    uint256 public totalSupply;\n\n    \n    \n    function balanceOf(address _owner) constant returns (uint256 balance);\n\n    \n    \n    \n    \n    function transfer(address _to, uint256 _value) returns (bool success);\n\n    \n    \n    \n    \n    \n    function transferFrom(address _from, address _to, uint256 _value) returns (bool success);\n\n    \n    \n    \n    \n    function approve(address _spender, uint256 _value) returns (bool success);\n\n    \n    \n    \n    function allowance(address _owner, address _spender) constant returns (uint256 remaining);\n\n    event Transfer(address indexed _from, address indexed _to, uint256 _value);\n    event Approval(address indexed _owner, address indexed _spender, uint256 _value);\n}\n\ncontract MCTContractToken is ERC20Token, Owned{\n\n    \n    string  public standard = \"Mammoth Casino Contract Token\";\n    string  public name = \"Mammoth Casino Token\";\n    string  public symbol = \"MCT\";\n    uint8   public decimals = 0;\n    address public icoContractAddress;\n    uint256 public tokenFrozenUntilTime;\n    uint256 public blackListFreezeTime;\n    struct frozen {\n        bool accountFreeze;\n        uint256 freezeUntilTime;\n    }\n    \n    \n    uint256 public totalSupply;\n    uint256 public totalRemainSupply;\n    uint256 public foundingTeamSupply;\n    uint256 public gameDeveloperSupply;\n    uint256 public communitySupply;\n    mapping (address => uint256) balances;\n    mapping (address => mapping (address => uint256)) allowances;\n    mapping (address => frozen) blackListFreezeTokenAccounts;\n    \n    event mintToken(address indexed _to, uint256 _value);\n    event burnToken(address indexed _from, uint256 _value);\n    event frozenToken(uint256 _frozenUntilBlock, string _reason);\n    \n    \n    function MCTContractToken(uint256 _totalSupply, address _icoAddress) {\n        owner = msg.sender;\n        totalSupply = _totalSupply;\n        totalRemainSupply = totalSupply;\n        foundingTeamSupply = totalSupply * 2 / 10;\n        gameDeveloperSupply = totalSupply * 1 / 10;\n        communitySupply = totalSupply * 1 / 10;\n        icoContractAddress = _icoAddress;\n        blackListFreezeTime = 12 hours;\n    }\n\n    \n    function mctTotalSupply() returns (uint256) {   \n        return totalSupply - totalRemainSupply;\n    }\n\n    \n    function balanceOf(address _owner) constant returns (uint256 balance) {\n        return balances[_owner];\n    }\n\n    \n    function transfer(address _to, uint256 _value) returns (bool success) {\n        require (now > tokenFrozenUntilTime);    \n        require (now > blackListFreezeTokenAccounts[msg.sender].freezeUntilTime);             \n        require (now > blackListFreezeTokenAccounts[_to].freezeUntilTime);                    \n        require (balances[msg.sender] > _value);           \n        require (balances[_to] + _value > balances[_to]);  \n        balances[msg.sender] -= _value;                     \n        balances[_to] += _value;                            \n        Transfer(msg.sender, _to, _value);                  \n        return true;\n    }\n\n    \n    function approve(address _spender, uint256 _value) returns (bool success) {\n        require (now > tokenFrozenUntilTime);               \n        allowances[msg.sender][_spender] = _value;          \n        Approval(msg.sender, _spender, _value);             \n        return true;\n    }\n\n     \n    function approveAndCall(address _spender, uint256 _value, bytes _extraData) returns (bool success) {            \n        tokenRecipient spender = tokenRecipient(_spender);              \n        approve(_spender, _value);                                      \n        spender.receiveApproval(msg.sender, _value, this, _extraData);  \n        return true;     \n    }     \n\n    \n    function transferFrom(address _from, address _to, uint256 _value) returns (bool success) {      \n        require (now > tokenFrozenUntilTime);    \n        require (now > blackListFreezeTokenAccounts[_to].freezeUntilTime);                    \n        require (balances[_from] > _value);                \n        require (balances[_to] + _value > balances[_to]);  \n        require (_value > allowances[_from][msg.sender]);  \n        balances[_from] -= _value;                          \n        balances[_to] += _value;                            \n        allowances[_from][msg.sender] -= _value;            \n        Transfer(_from, _to, _value);                       \n        return true;     \n    }         \n\n         \n    function allowance(address _owner, address _spender) constant returns (uint256 remaining) {         \n        return allowances[_owner][_spender];\n    }         \n\n         \n    function mintTokens(address _to, uint256 _amount) {         \n        require (msg.sender == icoContractAddress);             \n        require (now > blackListFreezeTokenAccounts[_to].freezeUntilTime);                        \n        require (balances[_to] + _amount > balances[_to]);      \n        require (totalRemainSupply > _amount);\n        totalRemainSupply -= _amount;                           \n        balances[_to] += _amount;                               \n        mintToken(_to, _amount);                                \n        Transfer(0x0, _to, _amount);                            \n    }     \n  \n    \n    function burnTokens(address _addr, uint256 _amount) onlyOwner {\n        require (balances[msg.sender] < _amount);               \n        totalRemainSupply += _amount;                           \n        balances[_addr] -= _amount;                             \n        burnToken(_addr, _amount);                              \n        Transfer(_addr, 0x0, _amount);                          \n    }\n    \n    \n    function burnLeftTokens() onlyOwner {\n        require (totalRemainSupply > 0);\n        totalRemainSupply = 0;\n    }\n    \n    \n    function freezeTransfersUntil(uint256 _frozenUntilTime, string _freezeReason) onlyOwner {      \n        tokenFrozenUntilTime = _frozenUntilTime;\n        frozenToken(_frozenUntilTime, _freezeReason);\n    }\n    \n    \n    function freezeAccounts(address _freezeAddress, bool _freeze) onlyOwner {\n        blackListFreezeTokenAccounts[_freezeAddress].accountFreeze = _freeze;\n        blackListFreezeTokenAccounts[_freezeAddress].freezeUntilTime = now + blackListFreezeTime;\n    }\n    \n    \n    function mintUnICOLeftToken(address _foundingTeamAddr, address _gameDeveloperAddr, address _communityAddr) onlyOwner {\n        balances[_foundingTeamAddr] += foundingTeamSupply;           \n        balances[_gameDeveloperAddr] += gameDeveloperSupply;         \n        balances[_communityAddr] += communitySupply;                 \n        totalRemainSupply -= (foundingTeamSupply + gameDeveloperSupply + communitySupply);\n        mintToken(_foundingTeamAddr, foundingTeamSupply);            \n        mintToken(_gameDeveloperAddr, gameDeveloperSupply);          \n        mintToken(_communityAddr, communitySupply);                  \n    }\n    \n}\n\ncontract MCTContract {\n  function mintTokens(address _to, uint256 _amount);\n}\n\ncontract MCTCrowdsale_1 is Owned, safeMath {\n    uint256 public tokenSupportLimit = 30000 ether;              \n    uint256 public tokenSupportSoftLimit = 20000 ether;          \n    uint256 constant etherChange = 10**18;                       \n    uint256 public crowdsaleTokenSupply;                         \n    uint256 public crowdsaleTokenMint;                                      \n    uint256 public crowdsaleStartDate;\n    uint256 public crowdsaleStopDate;\n    address public MCTTokenAddress;\n    address public multisigAddress;\n    uint256 private totalCrowdsaleEther;\n    uint256 public nextParticipantIndex;\n    bool    public crowdsaleContinue;\n    bool    public crowdsaleSuccess;\n    struct infoUsersBuy{\n        uint256 value;\n        uint256 token;\n    }\n    mapping (address => infoUsersBuy) public tokenUsersSave;\n    mapping (uint256 => address) public participantIndex;\n    MCTContract mctTokenContract;\n    \n    \n    function () payable crowdsaleOpen {\n        \n        require (msg.value != 0);\n        \n        if (tokenUsersSave[msg.sender].token == 0){          \n            \n            participantIndex[nextParticipantIndex] = msg.sender;             \n            nextParticipantIndex += 1;\n        }\n        uint256 priceAtNow = 0;\n        uint256 priceAtNowLimit = 0;\n        (priceAtNow, priceAtNowLimit) = priceAt(now);\n        require(msg.value >= priceAtNowLimit);\n        buyMCTTokenProxy(msg.sender, msg.value, priceAtNow);\n\n    }\n    \n    \n    modifier crowdsaleOpen() {\n        require(crowdsaleContinue == true);\n        require(now >= crowdsaleStartDate);\n        require(now <= crowdsaleStopDate);\n        _;\n    }\n    \n    \n    function MCTCrowdsale_1(uint256 _crowdsaleStartDate,\n        uint256 _crowdsaleStopDate,\n        uint256 _totalTokenSupply\n        ) {\n            owner = msg.sender;\n            crowdsaleStartDate = _crowdsaleStartDate;\n            crowdsaleStopDate = _crowdsaleStopDate;\n            require(_totalTokenSupply != 0);\n            crowdsaleTokenSupply = _totalTokenSupply;\n            crowdsaleContinue=true;\n    }\n    \n    \n    function priceAt(uint256 _atTime) internal returns(uint256, uint256) {\n        if(_atTime < crowdsaleStartDate) {\n            return (0, 0);\n        }\n        else if(_atTime < (crowdsaleStartDate + 7 days)) {\n            return (30000, 20*10**18);\n        }\n        else if(_atTime < (crowdsaleStartDate + 16 days)) {\n            return (24000, 1*10**17);\n        }\n        else if(_atTime < (crowdsaleStartDate + 31 days)) {\n            return (20000, 1*10**17);\n        }\n        else {\n            return (0, 0);\n        }\n   }\n   \n            \n    function buyMCTTokenProxy(address _msgSender, uint256 _msgValue, \n        uint256 _priceAtNow)  internal crowdsaleOpen returns (bool) {\n        require(_msgSender != 0x0);\n        require(crowdsaleTokenMint <= crowdsaleTokenSupply);                    \n        uint256 tokenBuy = _msgValue * _priceAtNow / etherChange;               \n        if(tokenBuy > (crowdsaleTokenSupply - crowdsaleTokenMint)){             \n            uint256 needRetreat = (tokenBuy - crowdsaleTokenSupply + crowdsaleTokenMint) * etherChange / _priceAtNow;\n            _msgSender.transfer(needRetreat);\n            _msgValue -= needRetreat;\n            tokenBuy = _msgValue * _priceAtNow / etherChange;\n        }\n        if(buyMCT(_msgSender, tokenBuy)) {                                      \n            totalCrowdsaleEther += _msgValue;\n            tokenUsersSave[_msgSender].value += _msgValue;                      \n            return true;\n        }\n        return false;\n    }\n    \n    \n    function buyMCT(address _sender, uint256 _tokenBuy) internal returns (bool) {\n        tokenUsersSave[_sender].token += _tokenBuy;\n        mctTokenContract.mintTokens(_sender, _tokenBuy);\n        crowdsaleTokenMint += _tokenBuy;\n        return true;\n    }\n    \n    \n    function setFinalICOPeriod() onlyOwner {\n        require(now > crowdsaleStopDate);\n        crowdsaleContinue = false;\n        if(this.balance >= tokenSupportSoftLimit * 4 / 10){                     \n            crowdsaleSuccess = true;\n        }\n    }\n    \n      \n    function setTokenContract(address _MCTContractAddress) onlyOwner {     \n        mctTokenContract = MCTContract(_MCTContractAddress);\n        MCTTokenAddress  = _MCTContractAddress;\n    }\n    \n    \n    function withdraw(address _multisigAddress, uint256 _balance) onlyOwner {    \n        require(_multisigAddress != 0x0);\n        multisigAddress = _multisigAddress;\n        multisigAddress.transfer(_balance);\n    }  \n    \n    function crowdsaleEther() returns(uint256) {\n        return totalCrowdsaleEther;\n    }\n}\n    \ncontract MCTCrowdsale is MCTCrowdsale_1 {\n    constructor() MCTCrowdsale_1(78, 78, 78) public { }\n}\n",
  "sourcePath": "/home/XXX-1/smartrim-experiment/for-rlf/0xbe66ccd76e2007a2af8ae7134ad5ab4b08cc0102/contracts/0xbe66ccd76e2007a2af8ae7134ad5ab4b08cc0102.sol",
  "compiler": {
    "name": "solc",
    "version": "0.4.25+commit.59dbf8f1.Emscripten.clang"
  },
  "schemaVersion": "3.4.16",
  "updatedAt": "2025-08-14T04:05:48.907Z",
  "devdoc": {
    "methods": {}
  },
  "userdoc": {
    "methods": {}
  }
}