{
  "contractName": "EtherCartel",
  "abi": [
    {
      "constant": true,
      "inputs": [],
      "name": "ceoAddress",
      "outputs": [
        {
          "name": "",
          "type": "address"
        }
      ],
      "payable": false,
      "stateMutability": "view",
      "type": "function"
    },
    {
      "constant": true,
      "inputs": [],
      "name": "initialized",
      "outputs": [
        {
          "name": "",
          "type": "bool"
        }
      ],
      "payable": false,
      "stateMutability": "view",
      "type": "function"
    },
    {
      "constant": true,
      "inputs": [],
      "name": "STARTING_KILOS",
      "outputs": [
        {
          "name": "",
          "type": "uint256"
        }
      ],
      "payable": false,
      "stateMutability": "view",
      "type": "function"
    },
    {
      "constant": true,
      "inputs": [],
      "name": "DRUGS_TO_PRODUCE_1KILO",
      "outputs": [
        {
          "name": "",
          "type": "uint256"
        }
      ],
      "payable": false,
      "stateMutability": "view",
      "type": "function"
    },
    {
      "constant": true,
      "inputs": [
        {
          "name": "",
          "type": "address"
        }
      ],
      "name": "claimedDrugs",
      "outputs": [
        {
          "name": "",
          "type": "uint256"
        }
      ],
      "payable": false,
      "stateMutability": "view",
      "type": "function"
    },
    {
      "constant": true,
      "inputs": [],
      "name": "marketDrugs",
      "outputs": [
        {
          "name": "",
          "type": "uint256"
        }
      ],
      "payable": false,
      "stateMutability": "view",
      "type": "function"
    },
    {
      "constant": true,
      "inputs": [
        {
          "name": "",
          "type": "address"
        }
      ],
      "name": "lastCollect",
      "outputs": [
        {
          "name": "",
          "type": "uint256"
        }
      ],
      "payable": false,
      "stateMutability": "view",
      "type": "function"
    },
    {
      "constant": true,
      "inputs": [
        {
          "name": "",
          "type": "address"
        }
      ],
      "name": "referrals",
      "outputs": [
        {
          "name": "",
          "type": "address"
        }
      ],
      "payable": false,
      "stateMutability": "view",
      "type": "function"
    },
    {
      "constant": true,
      "inputs": [
        {
          "name": "",
          "type": "address"
        }
      ],
      "name": "Kilos",
      "outputs": [
        {
          "name": "",
          "type": "uint256"
        }
      ],
      "payable": false,
      "stateMutability": "view",
      "type": "function"
    },
    {
      "constant": false,
      "inputs": [],
      "name": "DrugDealer",
      "outputs": [],
      "payable": false,
      "stateMutability": "nonpayable",
      "type": "function"
    },
    {
      "constant": false,
      "inputs": [
        {
          "name": "ref",
          "type": "address"
        }
      ],
      "name": "collectDrugs",
      "outputs": [],
      "payable": false,
      "stateMutability": "nonpayable",
      "type": "function"
    },
    {
      "constant": false,
      "inputs": [],
      "name": "sellDrugs",
      "outputs": [],
      "payable": false,
      "stateMutability": "nonpayable",
      "type": "function"
    },
    {
      "constant": false,
      "inputs": [],
      "name": "buyDrugs",
      "outputs": [],
      "payable": true,
      "stateMutability": "payable",
      "type": "function"
    },
    {
      "constant": true,
      "inputs": [
        {
          "name": "rt",
          "type": "uint256"
        },
        {
          "name": "rs",
          "type": "uint256"
        },
        {
          "name": "bs",
          "type": "uint256"
        }
      ],
      "name": "calculateTrade",
      "outputs": [
        {
          "name": "",
          "type": "uint256"
        }
      ],
      "payable": false,
      "stateMutability": "view",
      "type": "function"
    },
    {
      "constant": true,
      "inputs": [
        {
          "name": "drugs",
          "type": "uint256"
        }
      ],
      "name": "calculateDrugSell",
      "outputs": [
        {
          "name": "",
          "type": "uint256"
        }
      ],
      "payable": false,
      "stateMutability": "view",
      "type": "function"
    },
    {
      "constant": true,
      "inputs": [
        {
          "name": "eth",
          "type": "uint256"
        },
        {
          "name": "contractBalance",
          "type": "uint256"
        }
      ],
      "name": "calculateDrugBuy",
      "outputs": [
        {
          "name": "",
          "type": "uint256"
        }
      ],
      "payable": false,
      "stateMutability": "view",
      "type": "function"
    },
    {
      "constant": true,
      "inputs": [
        {
          "name": "eth",
          "type": "uint256"
        }
      ],
      "name": "calculateDrugBuySimple",
      "outputs": [
        {
          "name": "",
          "type": "uint256"
        }
      ],
      "payable": false,
      "stateMutability": "view",
      "type": "function"
    },
    {
      "constant": true,
      "inputs": [
        {
          "name": "amount",
          "type": "uint256"
        }
      ],
      "name": "devFee",
      "outputs": [
        {
          "name": "",
          "type": "uint256"
        }
      ],
      "payable": false,
      "stateMutability": "view",
      "type": "function"
    },
    {
      "constant": false,
      "inputs": [
        {
          "name": "drugs",
          "type": "uint256"
        }
      ],
      "name": "seedMarket",
      "outputs": [],
      "payable": true,
      "stateMutability": "payable",
      "type": "function"
    },
    {
      "constant": false,
      "inputs": [],
      "name": "getFreeKilo",
      "outputs": [],
      "payable": false,
      "stateMutability": "nonpayable",
      "type": "function"
    },
    {
      "constant": true,
      "inputs": [],
      "name": "getBalance",
      "outputs": [
        {
          "name": "",
          "type": "uint256"
        }
      ],
      "payable": false,
      "stateMutability": "view",
      "type": "function"
    },
    {
      "constant": true,
      "inputs": [],
      "name": "getMyKilo",
      "outputs": [
        {
          "name": "",
          "type": "uint256"
        }
      ],
      "payable": false,
      "stateMutability": "view",
      "type": "function"
    },
    {
      "constant": true,
      "inputs": [],
      "name": "getMyDrugs",
      "outputs": [
        {
          "name": "",
          "type": "uint256"
        }
      ],
      "payable": false,
      "stateMutability": "view",
      "type": "function"
    },
    {
      "constant": true,
      "inputs": [
        {
          "name": "adr",
          "type": "address"
        }
      ],
      "name": "getDrugsSinceLastCollect",
      "outputs": [
        {
          "name": "",
          "type": "uint256"
        }
      ],
      "payable": false,
      "stateMutability": "view",
      "type": "function"
    }
  ],
  "bytecode": "0x60806040526201518060005561012c6001556127106002556113886003556000600460006101000a81548160ff0219169083151502179055507385abe8e3bed0d4891ba201af1e212fe50bb65a26600460016101000a81548173ffffffffffffffffffffffffffffffffffffffff021916908373ffffffffffffffffffffffffffffffffffffffff16021790555034801561009957600080fd5b50611356806100a96000396000f30060806040526004361061013e576000357c0100000000000000000000000000000000000000000000000000000000900463ffffffff1680630a0f81681461014357806312065fe01461019a578063158ef93e146101c55780631ecd9f21146101f45780631f194b9f1461023f578063229824c41461025657806325579702146102ab5780632bb22480146102ec5780633b6537551461032d5780633bc0461a1461034d5780633e4454461461038e5780634374356b146103b95780634e9077a4146103e457806350dede351461043b57806365a707bf1461046657806388f707a51461047d5780638d8f95d1146104d45780639ca423b3146105175780639fa0f7631461059a578063a44b1756146105a4578063a5987c9e146105cf578063aaff9806146105fa578063e1e2ccd214610651578063ebc16c5c14610668575b600080fd5b34801561014f57600080fd5b506101586106bf565b604051808273ffffffffffffffffffffffffffffffffffffffff1673ffffffffffffffffffffffffffffffffffffffff16815260200191505060405180910390f35b3480156101a657600080fd5b506101af6106e5565b6040518082815260200191505060405180910390f35b3480156101d157600080fd5b506101da610704565b604051808215151515815260200191505060405180910390f35b34801561020057600080fd5b506102296004803603810190808035906020019092919080359060200190929190505050610717565b6040518082815260200191505060405180910390f35b34801561024b57600080fd5b5061025461072e565b005b34801561026257600080fd5b50610295600480360381019080803590602001909291908035906020019092919080359060200190929190505050610823565b6040518082815260200191505060405180910390f35b3480156102b757600080fd5b506102d660048036038101908080359060200190929190505050610876565b6040518082815260200191505060405180910390f35b3480156102f857600080fd5b50610317600480360381019080803590602001909291905050506108a0565b6040518082815260200191505060405180910390f35b61034b600480360381019080803590602001909291905050506108cd565b005b34801561035957600080fd5b5061037860048036038101908080359060200190929190505050610903565b6040518082815260200191505060405180910390f35b34801561039a57600080fd5b506103a3610921565b6040518082815260200191505060405180910390f35b3480156103c557600080fd5b506103ce610927565b6040518082815260200191505060405180910390f35b3480156103f057600080fd5b50610425600480360381019080803573ffffffffffffffffffffffffffffffffffffffff16906020019092919050505061092d565b6040518082815260200191505060405180910390f35b34801561044757600080fd5b50610450610945565b6040518082815260200191505060405180910390f35b34801561047257600080fd5b5061047b61094b565b005b34801561048957600080fd5b506104be600480360381019080803573ffffffffffffffffffffffffffffffffffffffff16906020019092919050505061098e565b6040518082815260200191505060405180910390f35b3480156104e057600080fd5b50610515600480360381019080803573ffffffffffffffffffffffffffffffffffffffff1690602001909291905050506109a6565b005b34801561052357600080fd5b50610558600480360381019080803573ffffffffffffffffffffffffffffffffffffffff169060200190929190505050610dfa565b604051808273ffffffffffffffffffffffffffffffffffffffff1673ffffffffffffffffffffffffffffffffffffffff16815260200191505060405180910390f35b6105a2610e2d565b005b3480156105b057600080fd5b506105b9610f8a565b6040518082815260200191505060405180910390f35b3480156105db57600080fd5b506105e4610fe2565b6040518082815260200191505060405180910390f35b34801561060657600080fd5b5061063b600480360381019080803573ffffffffffffffffffffffffffffffffffffffff169060200190929190505050611029565b6040518082815260200191505060405180910390f35b34801561065d57600080fd5b50610666611041565b005b34801561067457600080fd5b506106a9600480360381019080803573ffffffffffffffffffffffffffffffffffffffff1690602001909291905050506111da565b6040518082815260200191505060405180910390f35b600460019054906101000a900473ffffffffffffffffffffffffffffffffffffffff1681565b60003073ffffffffffffffffffffffffffffffffffffffff1631905090565b600460009054906101000a900460ff1681565b60006107268383600954610823565b905092915050565b600460009054906101000a900460ff16151561074957600080fd5b6000600560003373ffffffffffffffffffffffffffffffffffffffff1673ffffffffffffffffffffffffffffffffffffffff1681526020019081526020016000205414151561079757600080fd5b42600760003373ffffffffffffffffffffffffffffffffffffffff1673ffffffffffffffffffffffffffffffffffffffff16815260200190815260200160002081905550600154600560003373ffffffffffffffffffffffffffffffffffffffff1673ffffffffffffffffffffffffffffffffffffffff16815260200190815260200160002081905550565b600061086d61083460025484611284565b61086860035461086361085d61084c6002548a611284565b6108586003548c611284565b6112bf565b896112dd565b6112bf565b6112dd565b90509392505050565b6000610899823073ffffffffffffffffffffffffffffffffffffffff1631610717565b9050919050565b60006108c6826009543073ffffffffffffffffffffffffffffffffffffffff1631610823565b9050919050565b60006009541415156108de57600080fd5b6001600460006101000a81548160ff0219169083151502179055508060098190555050565b600061091a610913836004611284565b60646112dd565b9050919050565b60015481565b60005481565b60066020528060005260406000206000915090505481565b60095481565b33600460016101000a81548173ffffffffffffffffffffffffffffffffffffffff021916908373ffffffffffffffffffffffffffffffffffffffff160217905550565b60076020528060005260406000206000915090505481565b600080600460009054906101000a900460ff1615156109c457600080fd5b6000600860003373ffffffffffffffffffffffffffffffffffffffff1673ffffffffffffffffffffffffffffffffffffffff16815260200190815260200160002060009054906101000a900473ffffffffffffffffffffffffffffffffffffffff1673ffffffffffffffffffffffffffffffffffffffff16148015610ad457503373ffffffffffffffffffffffffffffffffffffffff16600860003373ffffffffffffffffffffffffffffffffffffffff1673ffffffffffffffffffffffffffffffffffffffff16815260200190815260200160002060009054906101000a900473ffffffffffffffffffffffffffffffffffffffff1673ffffffffffffffffffffffffffffffffffffffff1614155b15610b585782600860003373ffffffffffffffffffffffffffffffffffffffff1673ffffffffffffffffffffffffffffffffffffffff16815260200190815260200160002060006101000a81548173ffffffffffffffffffffffffffffffffffffffff021916908373ffffffffffffffffffffffffffffffffffffffff1602179055505b610b60610f8a565b9150610b6e826000546112dd565b9050610bb9600560003373ffffffffffffffffffffffffffffffffffffffff1673ffffffffffffffffffffffffffffffffffffffff16815260200190815260200160002054826112bf565b600560003373ffffffffffffffffffffffffffffffffffffffff1673ffffffffffffffffffffffffffffffffffffffff168152602001908152602001600020819055506000600660003373ffffffffffffffffffffffffffffffffffffffff1673ffffffffffffffffffffffffffffffffffffffff1681526020019081526020016000208190555042600760003373ffffffffffffffffffffffffffffffffffffffff1673ffffffffffffffffffffffffffffffffffffffff16815260200190815260200160002081905550610d3760066000600860003373ffffffffffffffffffffffffffffffffffffffff1673ffffffffffffffffffffffffffffffffffffffff16815260200190815260200160002060009054906101000a900473ffffffffffffffffffffffffffffffffffffffff1673ffffffffffffffffffffffffffffffffffffffff1673ffffffffffffffffffffffffffffffffffffffff16815260200190815260200160002054610d328460056112dd565b6112bf565b60066000600860003373ffffffffffffffffffffffffffffffffffffffff1673ffffffffffffffffffffffffffffffffffffffff16815260200190815260200160002060009054906101000a900473ffffffffffffffffffffffffffffffffffffffff1673ffffffffffffffffffffffffffffffffffffffff1673ffffffffffffffffffffffffffffffffffffffff16815260200190815260200160002081905550610def600954610dea84600a6112dd565b6112bf565b600981905550505050565b60086020528060005260406000206000915054906101000a900473ffffffffffffffffffffffffffffffffffffffff1681565b6000600460009054906101000a900460ff161515610e4a57600080fd5b610e7434610e6f3073ffffffffffffffffffffffffffffffffffffffff1631346112f8565b610717565b9050610e8881610e8383610903565b6112f8565b9050600460019054906101000a900473ffffffffffffffffffffffffffffffffffffffff1673ffffffffffffffffffffffffffffffffffffffff166108fc610ecf34610903565b9081150290604051600060405180830381858888f19350505050158015610efa573d6000803e3d6000fd5b50610f44600660003373ffffffffffffffffffffffffffffffffffffffff1673ffffffffffffffffffffffffffffffffffffffff16815260200190815260200160002054826112bf565b600660003373ffffffffffffffffffffffffffffffffffffffff1673ffffffffffffffffffffffffffffffffffffffff1681526020019081526020016000208190555050565b6000610fdd600660003373ffffffffffffffffffffffffffffffffffffffff1673ffffffffffffffffffffffffffffffffffffffff16815260200190815260200160002054610fd8336111da565b6112bf565b905090565b6000600560003373ffffffffffffffffffffffffffffffffffffffff1673ffffffffffffffffffffffffffffffffffffffff16815260200190815260200160002054905090565b60056020528060005260406000206000915090505481565b6000806000600460009054906101000a900460ff16151561106157600080fd5b611069610f8a565b9250611074836108a0565b915061107f82610903565b90506000600660003373ffffffffffffffffffffffffffffffffffffffff1673ffffffffffffffffffffffffffffffffffffffff1681526020019081526020016000208190555042600760003373ffffffffffffffffffffffffffffffffffffffff1673ffffffffffffffffffffffffffffffffffffffff16815260200190815260200160002081905550611116600954846112bf565b600981905550600460019054906101000a900473ffffffffffffffffffffffffffffffffffffffff1673ffffffffffffffffffffffffffffffffffffffff166108fc829081150290604051600060405180830381858888f19350505050158015611184573d6000803e3d6000fd5b503373ffffffffffffffffffffffffffffffffffffffff166108fc6111a984846112f8565b9081150290604051600060405180830381858888f193505050501580156111d4573d6000803e3d6000fd5b50505050565b60008061123160005461122c42600760008873ffffffffffffffffffffffffffffffffffffffff1673ffffffffffffffffffffffffffffffffffffffff168152602001908152602001600020546112f8565b611311565b905061127c81600560008673ffffffffffffffffffffffffffffffffffffffff1673ffffffffffffffffffffffffffffffffffffffff16815260200190815260200160002054611284565b915050919050565b600080600084141561129957600091506112b8565b82840290508284828115156112aa57fe5b041415156112b457fe5b8091505b5092915050565b60008082840190508381101515156112d357fe5b8091505092915050565b60008082848115156112eb57fe5b0490508091505092915050565b600082821115151561130657fe5b818303905092915050565b60008183106113205781611322565b825b9050929150505600a165627a7a72305820fd1453b65c2a515c19ba537e9b9b0e1e77601a46c7b6c65bb161ba00870a8a3a0029",
  "source": " \n\n\n\ncontract EtherCartel{\n    \n    uint256 public DRUGS_TO_PRODUCE_1KILO=86400;\n    uint256 public STARTING_KILOS=300;\n    uint256 PSN=10000;\n    uint256 PSNH=5000;\n    bool public initialized=false;\n    address public ceoAddress=0x85abE8E3bed0d4891ba201Af1e212FE50bb65a26;\n    mapping (address => uint256) public Kilos;\n    mapping (address => uint256) public claimedDrugs;\n    mapping (address => uint256) public lastCollect;\n    mapping (address => address) public referrals;\n    uint256 public marketDrugs;\n    function DrugDealer() public{\n        ceoAddress=msg.sender;\n    }\n    function collectDrugs(address ref) public{\n        require(initialized);\n        if(referrals[msg.sender]==0 && referrals[msg.sender]!=msg.sender){\n            referrals[msg.sender]=ref;\n        }\n        uint256 drugsUsed=getMyDrugs();\n        uint256 newKilo=SafeMath.div(drugsUsed,DRUGS_TO_PRODUCE_1KILO);\n        Kilos[msg.sender]=SafeMath.add(Kilos[msg.sender],newKilo);\n        claimedDrugs[msg.sender]=0;\n        lastCollect[msg.sender]=now;\n        \n        \n        claimedDrugs[referrals[msg.sender]]=SafeMath.add(claimedDrugs[referrals[msg.sender]],SafeMath.div(drugsUsed,5));\n        \n        \n        marketDrugs=SafeMath.add(marketDrugs,SafeMath.div(drugsUsed,10));\n    }\n    function sellDrugs() public{\n        require(initialized);\n        uint256 hasDrugs=getMyDrugs();\n        uint256 drugValue=calculateDrugSell(hasDrugs);\n        uint256 fee=devFee(drugValue);\n        claimedDrugs[msg.sender]=0;\n        lastCollect[msg.sender]=now;\n        marketDrugs=SafeMath.add(marketDrugs,hasDrugs);\n        ceoAddress.transfer(fee);\n        msg.sender.transfer(SafeMath.sub(drugValue,fee));\n    }\n    function buyDrugs() public payable{\n        require(initialized);\n        uint256 drugsBought=calculateDrugBuy(msg.value,SafeMath.sub(this.balance,msg.value));\n        drugsBought=SafeMath.sub(drugsBought,devFee(drugsBought));\n        ceoAddress.transfer(devFee(msg.value));\n        claimedDrugs[msg.sender]=SafeMath.add(claimedDrugs[msg.sender],drugsBought);\n    }\n    \n    function calculateTrade(uint256 rt,uint256 rs, uint256 bs) public view returns(uint256){\n        \n        return SafeMath.div(SafeMath.mul(PSN,bs),SafeMath.add(PSNH,SafeMath.div(SafeMath.add(SafeMath.mul(PSN,rs),SafeMath.mul(PSNH,rt)),rt)));\n    }\n    function calculateDrugSell(uint256 drugs) public view returns(uint256){\n        return calculateTrade(drugs,marketDrugs,this.balance);\n    }\n    function calculateDrugBuy(uint256 eth,uint256 contractBalance) public view returns(uint256){\n        return calculateTrade(eth,contractBalance,marketDrugs);\n    }\n    function calculateDrugBuySimple(uint256 eth) public view returns(uint256){\n        return calculateDrugBuy(eth,this.balance);\n    }\n    function devFee(uint256 amount) public view returns(uint256){\n        return SafeMath.div(SafeMath.mul(amount,4),100);\n    }\n    function seedMarket(uint256 drugs) public payable{\n        require(marketDrugs==0);\n        initialized=true;\n        marketDrugs=drugs;\n    }\n    function getFreeKilo() public{\n        require(initialized);\n        require(Kilos[msg.sender]==0);\n        lastCollect[msg.sender]=now;\n        Kilos[msg.sender]=STARTING_KILOS;\n    }\n    function getBalance() public view returns(uint256){\n        return this.balance;\n    }\n    function getMyKilo() public view returns(uint256){\n        return Kilos[msg.sender];\n    }\n    function getMyDrugs() public view returns(uint256){\n        return SafeMath.add(claimedDrugs[msg.sender],getDrugsSinceLastCollect(msg.sender));\n    }\n    function getDrugsSinceLastCollect(address adr) public view returns(uint256){\n        uint256 secondsPassed=min(DRUGS_TO_PRODUCE_1KILO,SafeMath.sub(now,lastCollect[adr]));\n        return SafeMath.mul(secondsPassed,Kilos[adr]);\n    }\n    function min(uint256 a, uint256 b) private pure returns (uint256) {\n        return a < b ? a : b;\n    }\n}\n\nlibrary SafeMath {\n\n  \n  function mul(uint256 a, uint256 b) internal pure returns (uint256) {\n    if (a == 0) {\n      return 0;\n    }\n    uint256 c = a * b;\n    assert(c / a == b);\n    return c;\n  }\n\n  \n  function div(uint256 a, uint256 b) internal pure returns (uint256) {\n    \n    uint256 c = a / b;\n    \n    return c;\n  }\n\n  \n  function sub(uint256 a, uint256 b) internal pure returns (uint256) {\n    assert(b <= a);\n    return a - b;\n  }\n\n  \n  function add(uint256 a, uint256 b) internal pure returns (uint256) {\n    uint256 c = a + b;\n    assert(c >= a);\n    return c;\n  }\n}",
  "sourcePath": "/home/XXX-1/smartrim-experiment/for-rlf/0x5088b94cf8a1143eb228b6d3f008350ca742ddc2/contracts/0x5088b94cf8a1143eb228b6d3f008350ca742ddc2.sol",
  "compiler": {
    "name": "solc",
    "version": "0.4.25+commit.59dbf8f1.Emscripten.clang"
  },
  "schemaVersion": "3.4.16",
  "updatedAt": "2025-08-14T03:40:49.213Z",
  "networkType": "ethereum",
  "devdoc": {
    "methods": {}
  },
  "userdoc": {
    "methods": {}
  }
}