{
  "contractName": "Pausable",
  "abi": [
    {
      "constant": true,
      "inputs": [],
      "name": "owner",
      "outputs": [
        {
          "name": "",
          "type": "address"
        }
      ],
      "payable": false,
      "stateMutability": "view",
      "type": "function"
    },
    {
      "constant": false,
      "inputs": [
        {
          "name": "newOwner",
          "type": "address"
        }
      ],
      "name": "transferOwnership",
      "outputs": [],
      "payable": false,
      "stateMutability": "nonpayable",
      "type": "function"
    },
    {
      "anonymous": false,
      "inputs": [],
      "name": "Paused",
      "type": "event"
    },
    {
      "anonymous": false,
      "inputs": [],
      "name": "Unpaused",
      "type": "event"
    },
    {
      "anonymous": false,
      "inputs": [
        {
          "indexed": true,
          "name": "previousOwner",
          "type": "address"
        },
        {
          "indexed": true,
          "name": "newOwner",
          "type": "address"
        }
      ],
      "name": "OwnershipTransferred",
      "type": "event"
    },
    {
      "constant": false,
      "inputs": [],
      "name": "pause",
      "outputs": [],
      "payable": false,
      "stateMutability": "nonpayable",
      "type": "function"
    },
    {
      "constant": false,
      "inputs": [],
      "name": "unpause",
      "outputs": [],
      "payable": false,
      "stateMutability": "nonpayable",
      "type": "function"
    }
  ],
  "bytecode": "0x608060405260008060146101000a81548160ff021916908315150217905550336000806101000a81548173ffffffffffffffffffffffffffffffffffffffff021916908373ffffffffffffffffffffffffffffffffffffffff1602179055506103f88061006d6000396000f300608060405260043610610062576000357c0100000000000000000000000000000000000000000000000000000000900463ffffffff1680633f4ba83a146100675780638456cb591461007e5780638da5cb5b14610095578063f2fde38b146100ec575b600080fd5b34801561007357600080fd5b5061007c61012f565b005b34801561008a57600080fd5b506100936101ed565b005b3480156100a157600080fd5b506100aa6102ad565b604051808273ffffffffffffffffffffffffffffffffffffffff1673ffffffffffffffffffffffffffffffffffffffff16815260200191505060405180910390f35b3480156100f857600080fd5b5061012d600480360381019080803573ffffffffffffffffffffffffffffffffffffffff1690602001909291905050506102d2565b005b6000809054906101000a900473ffffffffffffffffffffffffffffffffffffffff1673ffffffffffffffffffffffffffffffffffffffff163373ffffffffffffffffffffffffffffffffffffffff1614151561018a57600080fd5b600060149054906101000a900460ff1615156101a557600080fd5b60008060146101000a81548160ff0219169083151502179055507fa45f47fdea8a1efdd9029a5691c7f759c32b7c698632b563573e155625d1693360405160405180910390a1565b6000809054906101000a900473ffffffffffffffffffffffffffffffffffffffff1673ffffffffffffffffffffffffffffffffffffffff163373ffffffffffffffffffffffffffffffffffffffff1614151561024857600080fd5b600060149054906101000a900460ff1615151561026457600080fd5b6001600060146101000a81548160ff0219169083151502179055507f9e87fac88ff661f02d44f95383c817fece4bce600a3dab7a54406878b965e75260405160405180910390a1565b6000809054906101000a900473ffffffffffffffffffffffffffffffffffffffff1681565b600073ffffffffffffffffffffffffffffffffffffffff168173ffffffffffffffffffffffffffffffffffffffff161415151561030e57600080fd5b8073ffffffffffffffffffffffffffffffffffffffff166000809054906101000a900473ffffffffffffffffffffffffffffffffffffffff1673ffffffffffffffffffffffffffffffffffffffff167f8be0079c531659141344cd1fd0a4f28419497f9722a3daafe3b4186f6b6457e060405160405180910390a3806000806101000a81548173ffffffffffffffffffffffffffffffffffffffff021916908373ffffffffffffffffffffffffffffffffffffffff160217905550505600a165627a7a72305820463c03cf8277e909187fe9cbfc2ee2349c5ff098e0e7e60061ffd1822960bf800029",
  "source": "\n\nlibrary SafeMath {\n    function mul(uint256 a, uint256 b) internal constant returns (uint256) {\n        uint256 c = a * b;\n        assert(a == 0 || c / a == b);\n        return c;\n    }\n\n    function div(uint256 a, uint256 b) internal constant returns (uint256) {\n        uint256 c = a / b;\n        return c;\n    }\n\n    function sub(uint256 a, uint256 b) internal constant returns (uint256) {\n        assert(b <= a);\n        return a - b;\n    }\n\n    function add(uint256 a, uint256 b) internal constant returns (uint256) {\n        uint256 c = a + b;\n        assert(c >= a);\n        return c;\n    }\n}\n\ncontract Ownable {\n    address public owner;\n    event OwnershipTransferred(address indexed previousOwner, address indexed newOwner);\n\n    function Ownable() public {\n        owner = msg.sender;\n    }\n\n    modifier onlyOwner() {\n        require(msg.sender == owner);\n        _;\n    }\n\n    function transferOwnership(address newOwner)  public {\n        require(newOwner != address(0));\n        OwnershipTransferred(owner, newOwner);\n        owner = newOwner;\n    }\n}\n\ncontract ERC20 {\n    uint256 public totalSupply;\n    function balanceOf(address who) public view returns (uint256);\n    function transfer(address to, uint256 value) public returns (bool);\n    event Transfer(address indexed from, address indexed to, uint256 value);\n\n    function allowance(address owner, address spender) public view returns (uint256);\n    function transferFrom(address from, address to, uint256 value) public returns (bool);\n    function approve(address spender, uint256 value) public returns (bool);\n    event Approval(address indexed owner, address indexed spender, uint256 value);\n}\n\ncontract Pausable is Ownable {\n    event Paused();\n    event Unpaused();\n\n    bool public pause = false;\n\n    modifier whenNotPaused() {\n        require(!pause);\n        _;\n    }\n\n    modifier whenPaused() {\n        require(pause);\n        _;\n    }\n\n    function pause() onlyOwner whenNotPaused public {\n        pause = true;\n        Paused();\n    }\n\n    function unpause() onlyOwner whenPaused public {\n        pause = false;\n        Unpaused();\n    }\n}\n\ncontract Freezable is Ownable {\n    mapping (address => bool) public frozenAccount;\n\n    event Frozen(address indexed account, bool freeze);\n\n    function freeze(address _acct) onlyOwner public {\n        frozenAccount[_acct] = true;\n        Frozen(_acct, true);\n    }\n\n    function unfreeze(address _acct) onlyOwner public {\n        frozenAccount[_acct] = false;\n        Frozen(_acct, false);\n    }\n}\n\ncontract StandardToken is ERC20, Pausable, Freezable {\n    using SafeMath for uint256;\n\n    mapping (address => uint256) balances;\n    mapping (address => mapping (address => uint256)) allowed;\n\n    function transfer(address _to, uint256 _value) whenNotPaused public returns (bool) {\n        require(_to != address(0));\n        require(_value > 0);\n        require(!frozenAccount[msg.sender]);\n\n        balances[msg.sender] = balances[msg.sender].sub(_value);\n        balances[_to] = balances[_to].add(_value);\n        Transfer(msg.sender, _to, _value);\n        return true;\n    }\n\n    function transferFrom(address _from, address _to, uint256 _value) whenNotPaused public returns (bool) {\n        require(_from != address(0));\n        require(_to != address(0));\n        require(!frozenAccount[_from]);\n\n        uint256 _allowance = allowed[_from][msg.sender];\n\n        balances[_from] = balances[_from].sub(_value);\n        balances[_to] = balances[_to].add(_value);\n        allowed[_from][msg.sender] = _allowance.sub(_value);\n        Transfer(_from, _to, _value);\n        return true;\n    }\n\n    function balanceOf(address _owner) public constant returns (uint256 balance) {\n        return balances[_owner];\n    }\n\n    function approve(address _spender, uint256 _value) public returns (bool) {\n        allowed[msg.sender][_spender] = _value;\n        Approval(msg.sender, _spender, _value);\n        return true;\n    }\n\n    function allowance(address _owner, address _spender) public constant returns (uint256 remaining) {\n        return allowed[_owner][_spender];\n    }\n}\n\ncontract GAWToken is StandardToken {\n\n    string public name = \"Galaxy World Coin\";\n    string public symbol = \"GAW\";\n    uint public decimals = 18;\n\n    uint public constant TOTAL_SUPPLY    = 6000000000e18;\n    address public constant WALLET_GAW   = 0x0A97a0aC50386283288518908eC547e0471f8308; \n\n    mapping(address => uint256) public addressLocked;\n    mapping(address => uint256) public addressLockupDate;\n\n    event UpdatedLockingState(address indexed to, uint256 value, uint256 date);\n\n    modifier canTransfer(address _sender, uint256 _value) {\n        require(_sender != address(0));\n\n        uint256 remaining = balances[_sender].sub(_value);\n        uint256 totalLockAmt = 0;\n\n        if (addressLocked[_sender] > 0) {\n            totalLockAmt = totalLockAmt.add(getLockedAmount(_sender));\n        }\n\n        require(remaining >= totalLockAmt);\n\n        _;\n    }\n\n    function GAWToken() public {\n        balances[msg.sender] = TOTAL_SUPPLY;\n        totalSupply = TOTAL_SUPPLY;\n\n        transfer(WALLET_GAW, TOTAL_SUPPLY);\n    }\n\n    function getLockedAmount(address _address)\n        public\n\t\tview\n\t\treturns (uint256)\n\t{\n        uint256 lockupDate = addressLockupDate[_address];\n        uint256 lockedAmt = addressLocked[_address];\n\n\n        uint256 diff = (now - lockupDate) / 2592000; \n        uint256 partition = 10;\n\n        if (diff >= partition) \n            return 0;\n        else\n            return lockedAmt.mul(partition-diff).div(partition);\n\t\n        return 0;\n    }\n\n    function setLockup(address _address, uint256 _value, uint256 _lockupDate)\n        public\n        onlyOwner\n    {\n        require(_address != address(0));\n\n        addressLocked[_address] = _value;\n        addressLockupDate[_address] = _lockupDate;\n        UpdatedLockingState(_address, _value, _lockupDate);\n    }\n\n    function transfer(address _to, uint _value)\n        public\n        canTransfer(msg.sender, _value)\n\t\treturns (bool success)\n\t{\n        return super.transfer(_to, _value);\n    }\n\n    function transferFrom(address _from, address _to, uint _value)\n        public\n        canTransfer(_from, _value)\n\t\treturns (bool success)\n\t{\n        return super.transferFrom(_from, _to, _value);\n    }\n\n    function() payable public { }\n\n    function withdrawEther() public {\n        if (address(this).balance > 0)\n\t\t    owner.send(address(this).balance); \n\t}\n\n    function withdrawSelfToken() public {\n        if(balanceOf(this) > 0)\n            this.transfer(owner, balanceOf(this));\n    }\n\n    function close() public onlyOwner {\n        selfdestruct(owner); \n    }\n}\n",
  "sourcePath": "/home/XXX-1/smartrim-experiment/for-rlf/0x42e98f6ed27fc8f76118efb7d4fe9a254bf3bcc9_3/contracts/0x42e98f6ed27fc8f76118efb7d4fe9a254bf3bcc9_3.sol",
  "compiler": {
    "name": "solc",
    "version": "0.4.25+commit.59dbf8f1.Emscripten.clang"
  },
  "schemaVersion": "3.4.16",
  "updatedAt": "2025-08-14T03:37:01.085Z",
  "devdoc": {
    "methods": {}
  },
  "userdoc": {
    "methods": {}
  }
}