{
  "contractName": "SHA3_512",
  "abi": [
    {
      "constant": true,
      "inputs": [
        {
          "name": "",
          "type": "uint64[8]"
        }
      ],
      "name": "hash",
      "outputs": [
        {
          "name": "",
          "type": "uint32[16]"
        }
      ],
      "payable": false,
      "stateMutability": "pure",
      "type": "function"
    }
  ],
  "bytecode": "0x608060405234801561001057600080fd5b50610129806100206000396000f300608060405260043610603f576000357c0100000000000000000000000000000000000000000000000000000000900463ffffffff1680637ab91b3a146044575b600080fd5b348015604f57600080fd5b50609260048036038101908080610100019060088060200260405190810160405280929190826008602002808284378201915050505050919291929050505060ce565b6040518082601060200280838360005b8381101560bb57808201518184015260208101905060a2565b5050505090500191505060405180910390f35b60d460d9565b919050565b610200604051908101604052806010906020820280388339808201915050905050905600a165627a7a7230582077a8d1312976a6f1d0a01104cfd3d7d4b9870b0cf5c910c70cb80db65017b2a20029",
  "source": "contract SHA3_512 {\n   function hash(uint64[8]) pure public returns(uint32[16]) {}\n}\n\ncontract TeikhosBounty {\n\n    SHA3_512 public sha3_512 = SHA3_512(0xbD6361cC42fD113ED9A9fdbEDF7eea27b325a222); \n                                                                                     \n\n    struct Commit {\n        uint timestamp;\n        bytes signature;\n    }    \n\n    mapping(address => Commit) public commitment;\n\n    struct Solution {\n        uint timestamp;\n        bytes publicKey; \n        bytes32 msgHash;\n    }    \n\n    Solution public isSolved;\n    \n    struct Winner {\n        uint timestamp;\n        address winner;\n    }\n\n    Winner public winner;\n\n    enum State { Commit, Reveal, Payout }\n    \n    modifier inState(State _state)\n    {\n        if(_state == State.Commit) { require(isSolved.timestamp == 0); }\n        if(_state == State.Reveal) { require(isSolved.timestamp != 0 && now < isSolved.timestamp + 7 days); }\n        if(_state == State.Payout) { require(isSolved.timestamp != 0 && now > isSolved.timestamp + 7 days); }\n        _;\n    }\n\n    \n\n    struct PoPk {\n      bytes32 half1;\n      bytes32 half2;\n    }\n\n    PoPk public proof_of_public_key;\n    \n    function TeikhosBounty() public { \n        proof_of_public_key.half1 = hex\"ad683919450048215e7c10c3dc3ffca5939ec8f48c057cfe385c7c6f8b754aa7\";\n        proof_of_public_key.half2 = hex\"4ce337445bdc24ee86d6c2460073e5b307ae54cdef4b196c660d5ee03f878e81\";\n    }\n\n    function commit(bytes _signature) public inState(State.Commit) {\n        require(commitment[msg.sender].timestamp == 0);\n        commitment[msg.sender].signature = _signature;\n        commitment[msg.sender].timestamp = now;\n    }\n\n    function reveal() public inState(State.Reveal) returns (bool success) {\n        bytes memory signature = commitment[msg.sender].signature;\n        require(signature.length != 0);\n\n        bytes32 r;\n        bytes32 s;\n        uint8 v;\n\n        assembly {\n        r := mload(add(signature,0x20))\n        s := mload(add(signature,0x40))\n        v := byte(0, mload(add(signature, 96)))\n        }\n\n        if (v < 27) v += 27;\n\n        if(ecrecover(isSolved.msgHash, v, r, s) == msg.sender) {\n\n            success = true; \n\n            if(winner.timestamp == 0 || commitment[msg.sender].timestamp < winner.timestamp) {\n                winner.winner = msg.sender;\n                winner.timestamp = commitment[msg.sender].timestamp;\n            }\n        }\n        delete commitment[msg.sender];\n\n        return success;\n    }\n\n    function reward() public inState(State.Payout) {\n        selfdestruct(winner.winner);\n    }\n\n    function authenticate(bytes _publicKey) public inState(State.Commit) {\n                \n        bytes memory keyHash = getHash(_publicKey);\n         \n        \n\n        bytes32 hash1;\n        bytes32 hash2;\n\n        assembly {\n        hash1 := mload(add(keyHash,0x20))\n        hash2 := mload(add(keyHash,0x40))\n        }\n\n        \n        bytes32 r = proof_of_public_key.half1 ^ hash1;\n        bytes32 s = proof_of_public_key.half2 ^ hash2;\n\n        \n        bytes32 msgHash = keccak256(\"\\x19Ethereum Signed Message:\\n64\", _publicKey);\n\n        \n        address signer = address(keccak256(_publicKey));\n\n        \n        if(ecrecover(msgHash, 27, r, s) == signer || ecrecover(msgHash, 28, r, s) == signer ) {\n            isSolved.timestamp = now;\n            isSolved.publicKey = _publicKey; \n            isSolved.msgHash = msgHash;\n\n            require(reveal() == true); \n                                       \n        }\n    }\n\n   \n   \n\n   function getHash(bytes _message) view internal returns (bytes messageHash) {\n\n        \n\n        uint64[8] memory input;\n\n        \n\n        bytes memory reversed = new bytes(64);\n\n        for(uint i = 0; i < 64; i++) {\n            reversed[i] = _message[63 - i];\n        }\n\n        for(i = 0; i < 8; i++) {\n            bytes8 oneEigth;\n            \n            assembly {\n                oneEigth := mload(add(reversed, add(32, mul(i, 8)))) \n            }\n            input[7 - i] = uint64(oneEigth);\n        }\n\n        uint32[16] memory output = sha3_512.hash(input);\n        \n        bytes memory toBytes = new bytes(64);\n        \n        for(i = 0; i < 16; i++) {\n            bytes4 oneSixteenth = bytes4(output[15 - i]);\n            \n            assembly { mstore(add(toBytes, add(32, mul(i, 4))), oneSixteenth) }\n        }\n\n        messageHash = new bytes(64);\n\n        for(i = 0; i < 64; i++) {\n            messageHash[i] = toBytes[63 - i];\n        }   \n   }\n   \n   \n   \n    function() public payable {}\n\n}",
  "sourcePath": "/home/XXX-1/smartrim-experiment/for-rlf/0x735ba26f91e1275fa4b504649b19ef74739fe7e7/contracts/0x735ba26f91e1275fa4b504649b19ef74739fe7e7.sol",
  "compiler": {
    "name": "solc",
    "version": "0.4.25+commit.59dbf8f1.Emscripten.clang"
  },
  "schemaVersion": "3.4.16",
  "updatedAt": "2025-08-14T03:57:16.450Z",
  "devdoc": {
    "methods": {}
  },
  "userdoc": {
    "methods": {}
  }
}