{
  "contractName": "SmartolutionInterface",
  "abi": [
    {
      "constant": true,
      "inputs": [
        {
          "name": "",
          "type": "address"
        }
      ],
      "name": "users",
      "outputs": [
        {
          "name": "value",
          "type": "uint256"
        },
        {
          "name": "index",
          "type": "uint256"
        },
        {
          "name": "atBlock",
          "type": "uint256"
        }
      ],
      "payable": false,
      "stateMutability": "view",
      "type": "function"
    }
  ],
  "bytecode": "0x608060405234801561001057600080fd5b5060fc8061001f6000396000f300608060405260043610603f576000357c0100000000000000000000000000000000000000000000000000000000900463ffffffff168063a87430ba146044575b600080fd5b348015604f57600080fd5b506082600480360381019080803573ffffffffffffffffffffffffffffffffffffffff16906020019092919050505060a6565b60405180848152602001838152602001828152602001935050505060405180910390f35b600060205280600052604060002060009150905080600001549080600101549080600201549050835600a165627a7a72305820f37f14c27767a37ba230c8eb7945c4c355e8976516bfd59b3e62430b37d1ec4b0029",
  "source": "\n\n\ncontract EasySmartolution_1 {\n    address constant smartolution = 0xe0ae35fe7Df8b86eF08557b535B89bB6cb036C23;\n    \n    event ParticipantAdded(address _sender);\n    event ParticipantRemoved(address _sender);\n    event ReferrerAdded(address _contract, address _sender);\n\n    mapping (address => address) public participants; \n    mapping (address => bool) public referrers;\n    \n    address private processing;\n \n    constructor(address _processing) public {\n        processing = _processing;\n    }\n    \n    function () external payable {\n        if (participants[msg.sender] == address(0)) {\n            addParticipant(msg.sender, address(0));\n        } else {\n            if (msg.value == 0) {\n                processPayment(msg.sender);\n            } else if (msg.value == 0.00001111 ether) {\n                getOut();\n            } else {\n                revert();\n            }\n        }\n    }\n    \n    function addParticipant(address _address, address _referrer) payable public {\n        require(participants[_address] == address(0), \"This participant is already registered\");\n        require(msg.value >= 0.45 ether && msg.value <= 225 ether, \"Deposit should be between 0.45 ether and 225 ether (45 days)\");\n        \n        participants[_address] = address(new Participant(_address, msg.value / 45));\n        processPayment(_address);\n        \n        processing.send(msg.value / 33);\n        if (_referrer != address(0) && referrers[_referrer]) {\n            _referrer.send(msg.value / 20);\n        }\n  \n        emit ParticipantAdded(_address);\n    }\n    \n    function addReferrer(address _address) public {\n        require(!referrers[_address], \"This address is already a referrer\");\n        \n        referrers[_address] = true;\n        EasySmartolution_1Ref refContract = new EasySmartolution_1Ref();\n        refContract.setReferrer(_address);\n        refContract.setSmartolution(address(this));\n        \n        emit ReferrerAdded(address(refContract), _address);\n    }\n\n    function processPayment(address _address) public {\n        Participant participant = Participant(participants[_address]);\n\n        bool done = participant.processPayment.value(participant.daily())();\n        \n        if (done) {\n            participants[_address] = address(0);\n            emit ParticipantRemoved(_address);\n        }\n    }\n    \n    function getOut() public {\n        require(participants[msg.sender] != address(0), \"You are not a participant\");\n        Participant participant = Participant(participants[msg.sender]);\n        uint index;\n        uint value;\n        (value, index, ) = SmartolutionInterface(smartolution).users(address(participant));\n        uint paymentsLeft = (45 - index) * value;\n        if (paymentsLeft > address(this).balance) {\n            paymentsLeft = address(this).balance;\n        }\n        \n        participants[msg.sender] = address(0);\n        emit ParticipantRemoved(msg.sender);\n        \n        msg.sender.transfer(paymentsLeft);\n    }\n}\n\ncontract EasySmartolution_1Ref {\n    address public referrer;\n    address public smartolution;\n    \n    constructor () public {\n    }\n\n    function setReferrer(address _referrer) external {\n        require(referrer == address(0), \"referrer can only be set once\");\n        referrer = _referrer;\n    }\n\n    function setSmartolution(address _smartolution) external {\n        require(smartolution == address(0), \"smartolution can only be set once\");\n        smartolution = _smartolution;\n    }\n\n    function () external payable {\n        if (msg.value > 0) {\n            EasySmartolution_1(smartolution).addParticipant.value(msg.value)(msg.sender, referrer);\n        } else {\n            EasySmartolution_1(smartolution).processPayment(msg.sender);\n        }\n    }\n}\n\ncontract Participant {\n    address constant smartolution = 0xe0ae35fe7Df8b86eF08557b535B89bB6cb036C23;\n\n    address public owner;\n    uint public daily;\n    \n    constructor(address _owner, uint _daily) public {\n        owner = _owner;\n        daily = _daily;\n    }\n    \n    function () external payable {}\n    \n    function processPayment() external payable returns (bool) {\n        require(msg.value == daily, \"Invalid value\");\n        \n        uint indexBefore;\n        uint index;\n        (,indexBefore,) = SmartolutionInterface(smartolution).users(address(this));\n        smartolution.call.value(msg.value)();\n        (,index,) = SmartolutionInterface(smartolution).users(address(this));\n\n        require(index != indexBefore, \"Smartolution rejected that payment, too soon or not enough ether\");\n    \n        owner.send(address(this).balance);\n\n        return index == 45;\n    }\n}\n\ncontract SmartolutionInterface {\n    struct User {\n        uint value;\n        uint index;\n        uint atBlock;\n    }\n\n    mapping (address => User) public users; \n}\n    \ncontract EasySmartolution is EasySmartolution_1 {\n    constructor() EasySmartolution_1(address(0x123)) public { }\n}\n",
  "sourcePath": "/home/XXX-1/smartrim-experiment/for-rlf/0xb2d5468cf99176da50f91e46b2c06b7bdb9d2656/contracts/0xb2d5468cf99176da50f91e46b2c06b7bdb9d2656.sol",
  "compiler": {
    "name": "solc",
    "version": "0.4.25+commit.59dbf8f1.Emscripten.clang"
  },
  "schemaVersion": "3.4.16",
  "updatedAt": "2025-08-14T04:04:07.551Z",
  "devdoc": {
    "methods": {}
  },
  "userdoc": {
    "methods": {}
  }
}