{
  "contractName": "Ownable",
  "abi": [
    {
      "constant": true,
      "inputs": [],
      "name": "owner",
      "outputs": [
        {
          "name": "",
          "type": "address"
        }
      ],
      "payable": false,
      "stateMutability": "view",
      "type": "function"
    },
    {
      "anonymous": false,
      "inputs": [
        {
          "indexed": true,
          "name": "previousOwner",
          "type": "address"
        },
        {
          "indexed": true,
          "name": "newOwner",
          "type": "address"
        }
      ],
      "name": "OwnershipTransferred",
      "type": "event"
    },
    {
      "constant": false,
      "inputs": [],
      "name": "isOwner",
      "outputs": [],
      "payable": false,
      "stateMutability": "nonpayable",
      "type": "function"
    },
    {
      "constant": false,
      "inputs": [
        {
          "name": "newOwner",
          "type": "address"
        }
      ],
      "name": "transferOwnership",
      "outputs": [],
      "payable": false,
      "stateMutability": "nonpayable",
      "type": "function"
    }
  ],
  "bytecode": "0x608060405234801561001057600080fd5b506102f5806100206000396000f300608060405260043610610057576000357c0100000000000000000000000000000000000000000000000000000000900463ffffffff1680638da5cb5b1461005c5780638f32d59b146100b3578063f2fde38b146100ca575b600080fd5b34801561006857600080fd5b5061007161010d565b604051808273ffffffffffffffffffffffffffffffffffffffff1673ffffffffffffffffffffffffffffffffffffffff16815260200191505060405180910390f35b3480156100bf57600080fd5b506100c8610132565b005b3480156100d657600080fd5b5061010b600480360381019080803573ffffffffffffffffffffffffffffffffffffffff169060200190929190505050610174565b005b6000809054906101000a900473ffffffffffffffffffffffffffffffffffffffff1681565b336000806101000a81548173ffffffffffffffffffffffffffffffffffffffff021916908373ffffffffffffffffffffffffffffffffffffffff160217905550565b6000809054906101000a900473ffffffffffffffffffffffffffffffffffffffff1673ffffffffffffffffffffffffffffffffffffffff163373ffffffffffffffffffffffffffffffffffffffff161415156101cf57600080fd5b600073ffffffffffffffffffffffffffffffffffffffff168173ffffffffffffffffffffffffffffffffffffffff161415151561020b57600080fd5b8073ffffffffffffffffffffffffffffffffffffffff166000809054906101000a900473ffffffffffffffffffffffffffffffffffffffff1673ffffffffffffffffffffffffffffffffffffffff167f8be0079c531659141344cd1fd0a4f28419497f9722a3daafe3b4186f6b6457e060405160405180910390a3806000806101000a81548173ffffffffffffffffffffffffffffffffffffffff021916908373ffffffffffffffffffffffffffffffffffffffff160217905550505600a165627a7a72305820098b36faa33a82970d260a622c6feb5b5bbd01fa6c9da846ec18cf64d6782d240029",
  "source": "\n\n\n\ncontract Ownable {\n  address public owner;\n\n  event OwnershipTransferred(address indexed previousOwner, address indexed newOwner);\n\n  \n  function isOwner() public {\n    owner = msg.sender;\n  }\n\n\n  \n  modifier onlyOwner() {\n    require(msg.sender == owner);\n    _;\n  }\n\n\n  \n  function transferOwnership(address newOwner) public onlyOwner {\n    require(newOwner != address(0));\n    emit OwnershipTransferred(owner, newOwner);\n    owner = newOwner;\n  }\n\n}\n\n\n\ncontract EtherCup is Ownable {\n\n  \n\n  using SafeMath for uint256;\n\n  \n  event NewPlayer(uint tokenId, string name);\n  event TokenSold(uint256 tokenId, uint256 oldPrice, address prevOwner, address winner, string name);\n  event Transfer(address indexed _from, address indexed _to, uint256 _tokenId);\n  event Approval(address indexed _owner, address indexed _approved, uint256 _tokenId);\n\n\n  \n  uint256 private price = 0.01 ether;\n  uint256 private priceLimitOne = 0.05 ether;\n  uint256 private priceLimitTwo = 0.5 ether;\n  uint256 private priceLimitThree = 2 ether;\n  uint256 private priceLimitFour = 5 ether;\n\n\n  \n  mapping (uint => address) public playerToOwner;\n  mapping (address => uint) ownerPlayerCount;\n  mapping (uint256 => uint256) public playerToPrice;\n  mapping (uint => address) playerApprovals;\n\n  \n  address public ceoAddress;\n\n  \n  struct Player {\n    string name;\n  }\n\n  Player[] public players;\n\n\n  \n  \n  modifier onlyCEO() {\n    require(msg.sender == ceoAddress);\n    _;\n  }\n\n  modifier onlyOwnerOf(uint _tokenId) {\n    require(msg.sender == playerToOwner[_tokenId]);\n    _;\n  }\n\n  \n  \n  constructor() public {\n    ceoAddress = msg.sender;\n\n  }\n\n  \n  \n  \n  function setCEO(address _newCEO) public onlyCEO {\n    require(_newCEO != address(0));\n    ceoAddress = _newCEO;\n  }\n\n\n  \n  function createNewPlayer(string _name) public onlyCEO {\n    _createPlayer(_name, price);\n  }\n\n  function _createPlayer(string _name, uint256 _price) internal {\n    uint id = players.push(Player(_name)) - 1;\n    playerToOwner[id] = msg.sender;\n    ownerPlayerCount[msg.sender] = ownerPlayerCount[msg.sender].add(1);\n    emit NewPlayer(id, _name);\n\n    playerToPrice[id] = _price;\n  }\n\n\n  \n  function calculateNextPrice (uint256 _price) public view returns (uint256 _nextPrice) {\n    if (_price < priceLimitOne) {\n      return _price.mul(200).div(95); \n    } else if (_price < priceLimitTwo) {\n      return _price.mul(175).div(95); \n    } else if (_price < priceLimitThree) {\n      return _price.mul(150).div(95); \n    } else if (_price < priceLimitFour) {\n      return _price.mul(125).div(95); \n    } else {\n      return _price.mul(115).div(95); \n    }\n  }\n\n  function calculateDevCut (uint256 _price) public pure returns (uint256 _devCut) {\n    return _price.mul(5).div(100);\n\n  }\n\n  function purchase(uint256 _tokenId) public payable {\n\n    address oldOwner = playerToOwner[_tokenId];\n    address newOwner = msg.sender;\n\n    uint256 sellingPrice = playerToPrice[_tokenId];\n    uint256 purchaseExcess = msg.value.sub(sellingPrice);\n\n    \n    require(oldOwner != newOwner);\n\n    \n    require(msg.value >= sellingPrice);\n\n    _transfer(oldOwner, newOwner, _tokenId);\n    playerToPrice[_tokenId] = nextPriceOf(_tokenId);\n\n    \n    \n    uint256 devCut = calculateDevCut(sellingPrice);\n\n    uint256 payment = sellingPrice.sub(devCut);\n\n    \n    if (oldOwner != address(this)) {\n      oldOwner.transfer(payment);\n    }\n\n    if (purchaseExcess > 0){\n        newOwner.transfer(purchaseExcess);\n    }\n\n\n    emit TokenSold(_tokenId, sellingPrice, oldOwner, newOwner, players[_tokenId].name);\n  }\n\n  \n  \n  function withdrawAll () onlyCEO() public {\n    ceoAddress.transfer(address(this).balance);\n  }\n\n  function withdrawAmount (uint256 _amount) onlyCEO() public {\n    ceoAddress.transfer(_amount);\n  }\n\n  function showDevCut () onlyCEO() public view returns (uint256) {\n    return address(this).balance;\n  }\n\n\n  \n  function priceOf(uint256 _tokenId) public view returns (uint256 _price) {\n    return playerToPrice[_tokenId];\n  }\n\n  function priceOfMultiple(uint256[] _tokenIds) public view returns (uint256[]) {\n    uint[] memory values = new uint[](_tokenIds.length);\n\n    for (uint256 i = 0; i < _tokenIds.length; i++) {\n      values[i] = priceOf(_tokenIds[i]);\n    }\n    return values;\n  }\n\n  function nextPriceOf(uint256 _tokenId) public view returns (uint256 _nextPrice) {\n    return calculateNextPrice(priceOf(_tokenId));\n  }\n\n  \n  function totalSupply() public view returns (uint256 total) {\n    return players.length;\n  }\n\n  function balanceOf(address _owner) public view returns (uint256 _balance) {\n    return ownerPlayerCount[_owner];\n  }\n\n  function ownerOf(uint256 _tokenId) public view returns (address _owner) {\n    return playerToOwner[_tokenId];\n  }\n\n  function approve(address _to, uint256 _tokenId) public onlyOwnerOf(_tokenId) {\n    playerApprovals[_tokenId] = _to;\n    emit Approval(msg.sender, _to, _tokenId);\n  }\n\n  function transfer(address _to, uint256 _tokenId) public onlyOwnerOf(_tokenId) {\n    _transfer(msg.sender, _to, _tokenId);\n  }\n\n  function _transfer(address _from, address _to, uint256 _tokenId) private {\n\n    ownerPlayerCount[_to] = ownerPlayerCount[_to].add(1);\n    ownerPlayerCount[_from] = ownerPlayerCount[_from].sub(1);\n    playerToOwner[_tokenId] = _to;\n    emit Transfer(_from, _to, _tokenId);\n  }\n\n  \n  \n  \n  \n  function tokensOfOwner(address _owner) public view returns(uint256[] ownerTokens) {\n    uint256 tokenCount = balanceOf(_owner);\n    if (tokenCount == 0) {\n        \n      return new uint256[](0);\n    } else {\n      uint256[] memory result = new uint256[](tokenCount);\n      uint256 totalPlayers = totalSupply();\n      uint256 resultIndex = 0;\n\n      uint256 playerId;\n      for (playerId = 0; playerId <= totalPlayers; playerId++) {\n        if (playerToOwner[playerId] == _owner) {\n          result[resultIndex] = playerId;\n          resultIndex++;\n        }\n      }\n      return result;\n    }\n  }\n\n}\n\n\nlibrary SafeMath {\n\n\nfunction mul(uint256 a, uint256 b) internal pure returns (uint256) {\n if (a == 0) {\n   return 0;\n }\n uint256 c = a * b;\n assert(c / a == b);\n return c;\n}\n\n\nfunction div(uint256 a, uint256 b) internal pure returns (uint256) {\n \n uint256 c = a / b;\n \n return c;\n}\n\n\nfunction sub(uint256 a, uint256 b) internal pure returns (uint256) {\n assert(b <= a);\n return a - b;\n}\n\n\nfunction add(uint256 a, uint256 b) internal pure returns (uint256) {\n uint256 c = a + b;\n assert(c >= a);\n return c;\n}\n}",
  "sourcePath": "/home/XXX-1/smartrim-experiment/for-rlf/0xc55e5e72911fab07ef912c58e6dc168d73348820/contracts/0xc55e5e72911fab07ef912c58e6dc168d73348820.sol",
  "compiler": {
    "name": "solc",
    "version": "0.4.25+commit.59dbf8f1.Emscripten.clang"
  },
  "schemaVersion": "3.4.16",
  "updatedAt": "2025-08-14T04:06:10.999Z",
  "devdoc": {
    "methods": {}
  },
  "userdoc": {
    "methods": {}
  }
}