{
  "contractName": "ETHMap",
  "abi": [
    {
      "inputs": [],
      "payable": false,
      "stateMutability": "nonpayable",
      "type": "constructor"
    },
    {
      "constant": false,
      "inputs": [
        {
          "name": "zoneId",
          "type": "uint256"
        }
      ],
      "name": "buyZone",
      "outputs": [
        {
          "name": "success",
          "type": "bool"
        }
      ],
      "payable": true,
      "stateMutability": "payable",
      "type": "function"
    },
    {
      "constant": false,
      "inputs": [
        {
          "name": "zoneId",
          "type": "uint256"
        },
        {
          "name": "amount",
          "type": "uint256"
        }
      ],
      "name": "sellZone",
      "outputs": [
        {
          "name": "success",
          "type": "bool"
        }
      ],
      "payable": false,
      "stateMutability": "nonpayable",
      "type": "function"
    },
    {
      "constant": false,
      "inputs": [
        {
          "name": "zoneId",
          "type": "uint256"
        },
        {
          "name": "recipient",
          "type": "address"
        }
      ],
      "name": "transferZone",
      "outputs": [
        {
          "name": "success",
          "type": "bool"
        }
      ],
      "payable": false,
      "stateMutability": "nonpayable",
      "type": "function"
    },
    {
      "constant": true,
      "inputs": [
        {
          "name": "zoneId",
          "type": "uint256"
        }
      ],
      "name": "computeInitialPrice",
      "outputs": [
        {
          "name": "price",
          "type": "uint256"
        }
      ],
      "payable": false,
      "stateMutability": "view",
      "type": "function"
    },
    {
      "constant": true,
      "inputs": [
        {
          "name": "zoneId",
          "type": "uint256"
        }
      ],
      "name": "getZone",
      "outputs": [
        {
          "name": "id",
          "type": "uint256"
        },
        {
          "name": "owner",
          "type": "address"
        },
        {
          "name": "sellPrice",
          "type": "uint256"
        }
      ],
      "payable": false,
      "stateMutability": "view",
      "type": "function"
    },
    {
      "constant": true,
      "inputs": [],
      "name": "getBalance",
      "outputs": [
        {
          "name": "amount",
          "type": "uint256"
        }
      ],
      "payable": false,
      "stateMutability": "view",
      "type": "function"
    },
    {
      "constant": false,
      "inputs": [],
      "name": "withdraw",
      "outputs": [
        {
          "name": "success",
          "type": "bool"
        }
      ],
      "payable": false,
      "stateMutability": "nonpayable",
      "type": "function"
    },
    {
      "constant": false,
      "inputs": [
        {
          "name": "newOwner",
          "type": "address"
        }
      ],
      "name": "transferContractOwnership",
      "outputs": [
        {
          "name": "success",
          "type": "bool"
        }
      ],
      "payable": false,
      "stateMutability": "nonpayable",
      "type": "function"
    }
  ],
  "bytecode": "0x608060405266038d7ea4c6800060005534801561001b57600080fd5b5033600160006101000a81548173ffffffffffffffffffffffffffffffffffffffff021916908373ffffffffffffffffffffffffffffffffffffffff160217905550610b458061006c6000396000f30060806040526004361061008e576000357c0100000000000000000000000000000000000000000000000000000000900463ffffffff16806311ee0ec51461009357806312065fe01461010e578063159d3c24146101395780633ccfd60b1461018857806388806b37146101b7578063a843c51f1461021c578063bee712da14610277578063cd066fd6146102af575b600080fd5b34801561009f57600080fd5b506100be600480360381019080803590602001909291905050506102f0565b604051808481526020018373ffffffffffffffffffffffffffffffffffffffff1673ffffffffffffffffffffffffffffffffffffffff168152602001828152602001935050505060405180910390f35b34801561011a57600080fd5b50610123610386565b6040518082815260200191505060405180910390f35b34801561014557600080fd5b5061016e60048036038101908080359060200190929190803590602001909291905050506103cd565b604051808215151515815260200191505060405180910390f35b34801561019457600080fd5b5061019d610485565b604051808215151515815260200191505060405180910390f35b3480156101c357600080fd5b5061020260048036038101908080359060200190929190803573ffffffffffffffffffffffffffffffffffffffff16906020019092919050505061055e565b604051808215151515815260200191505060405180910390f35b34801561022857600080fd5b5061025d600480360381019080803573ffffffffffffffffffffffffffffffffffffffff169060200190929190505050610650565b604051808215151515815260200191505060405180910390f35b610295600480360381019080803590602001909291905050506106f8565b604051808215151515815260200191505060405180910390f35b3480156102bb57600080fd5b506102da60048036038101908080359060200190929190505050610ad9565b6040518082815260200191505060405180910390f35b60008060008360018110158015610308575060b28111155b151561031357600080fd5b60036000868152602001908152602001600020600001546003600087815260200190815260200160002060010160009054906101000a900473ffffffffffffffffffffffffffffffffffffffff166003600088815260200190815260200160002060020154935093509350509193909250565b6000600260003373ffffffffffffffffffffffffffffffffffffffff1673ffffffffffffffffffffffffffffffffffffffff16815260200190815260200160002054905090565b600082600181101580156103e2575060b28111155b15156103ed57600080fd5b836003600082815260200190815260200160002060010160009054906101000a900473ffffffffffffffffffffffffffffffffffffffff1673ffffffffffffffffffffffffffffffffffffffff163373ffffffffffffffffffffffffffffffffffffffff1614151561045e57600080fd5b83600360008781526020019081526020016000206002018190555060019250505092915050565b600080600260003373ffffffffffffffffffffffffffffffffffffffff1673ffffffffffffffffffffffffffffffffffffffff1681526020019081526020016000205490506000600260003373ffffffffffffffffffffffffffffffffffffffff1673ffffffffffffffffffffffffffffffffffffffff168152602001908152602001600020819055503373ffffffffffffffffffffffffffffffffffffffff166108fc829081150290604051600060405180830381858888f19350505050158015610555573d6000803e3d6000fd5b50600191505090565b60008260018110158015610573575060b28111155b151561057e57600080fd5b836003600082815260200190815260200160002060010160009054906101000a900473ffffffffffffffffffffffffffffffffffffffff1673ffffffffffffffffffffffffffffffffffffffff163373ffffffffffffffffffffffffffffffffffffffff161415156105ef57600080fd5b836003600087815260200190815260200160002060010160006101000a81548173ffffffffffffffffffffffffffffffffffffffff021916908373ffffffffffffffffffffffffffffffffffffffff16021790555060019250505092915050565b6000600160009054906101000a900473ffffffffffffffffffffffffffffffffffffffff1673ffffffffffffffffffffffffffffffffffffffff163373ffffffffffffffffffffffffffffffffffffffff161415156106ae57600080fd5b81600160006101000a81548173ffffffffffffffffffffffffffffffffffffffff021916908373ffffffffffffffffffffffffffffffffffffffff16021790555060019050919050565b60008060008060008560018110158015610713575060b28111155b151561071e57600080fd5b600073ffffffffffffffffffffffffffffffffffffffff166003600089815260200190815260200160002060010160009054906101000a900473ffffffffffffffffffffffffffffffffffffffff1673ffffffffffffffffffffffffffffffffffffffff161415156107b15760006003600089815260200190815260200160002060020154141515156107b057600080fd5b5b600073ffffffffffffffffffffffffffffffffffffffff166003600089815260200190815260200160002060010160009054906101000a900473ffffffffffffffffffffffffffffffffffffffff1673ffffffffffffffffffffffffffffffffffffffff1614610837576003600088815260200190815260200160002060020154610841565b61084087610ad9565b5b945084341015151561085257600080fd5b600073ffffffffffffffffffffffffffffffffffffffff166003600089815260200190815260200160002060010160009054906101000a900473ffffffffffffffffffffffffffffffffffffffff1673ffffffffffffffffffffffffffffffffffffffff16141561094c573460026000600160009054906101000a900473ffffffffffffffffffffffffffffffffffffffff1673ffffffffffffffffffffffffffffffffffffffff1673ffffffffffffffffffffffffffffffffffffffff16815260200190815260200160002060008282540192505081905550866003600089815260200190815260200160002060000181905550610a5a565b61271060c8340281151561095c57fe5b04935083340392508360026000600160009054906101000a900473ffffffffffffffffffffffffffffffffffffffff1673ffffffffffffffffffffffffffffffffffffffff1673ffffffffffffffffffffffffffffffffffffffff168152602001908152602001600020600082825401925050819055506003600088815260200190815260200160002060010160009054906101000a900473ffffffffffffffffffffffffffffffffffffffff16915082600260008473ffffffffffffffffffffffffffffffffffffffff1673ffffffffffffffffffffffffffffffffffffffff168152602001908152602001600020600082825401925050819055505b336003600089815260200190815260200160002060010160006101000a81548173ffffffffffffffffffffffffffffffffffffffff021916908373ffffffffffffffffffffffffffffffffffffffff16021790555060006003600089815260200190815260200160002060020181905550600195505050505050919050565b60008160018110158015610aee575060b28111155b1515610af957600080fd5b6002600054811515610b0757fe5b046001840302600054019150509190505600a165627a7a723058202e54ad08ce2ce6ee539d790a7b2f1413ab3edb3622cb02d032278f29fa0860010029",
  "source": "\n\ncontract ETHMap {\n\n    \n    \n    uint initialZonePrice = 1000000000000000 wei;\n\n    \n    address contractOwner;\n\n    \n    mapping(address => uint) pendingWithdrawals;\n\n    \n    mapping(uint => Zone) zoneStructs;\n    uint[] zoneList;\n\n    struct Zone {\n        uint id;\n        address owner;\n        uint sellPrice;\n    }\n\n    \n    function ETHMap() public {\n      contractOwner = msg.sender;\n    }\n\n    modifier onlyContractOwner()\n    {\n       \n        require(msg.sender == contractOwner);\n        _;\n    }\n\n    modifier onlyValidZone(uint zoneId)\n    {\n       \n        require(zoneId >= 1 && zoneId <= 178);\n        _;\n    }\n\n    modifier onlyZoneOwner(uint zoneId)\n    {\n       \n        require(msg.sender == zoneStructs[zoneId].owner);\n        _;\n    }\n\n    function buyZone(uint zoneId) public\n      onlyValidZone(zoneId)\n      payable\n    returns (bool success)\n    {\n        \n        if (zoneStructs[zoneId].owner != address(0)) {\n          require(zoneStructs[zoneId].sellPrice != 0);\n        }\n        \n        uint minPrice = (zoneStructs[zoneId].owner == address(0)) ? computeInitialPrice(zoneId) : zoneStructs[zoneId].sellPrice;\n        require(msg.value >= minPrice);\n        \n        if (zoneStructs[zoneId].owner == address(0)) {\n            \n            pendingWithdrawals[contractOwner] += msg.value;\n            \n            zoneStructs[zoneId].id = zoneId;\n        } else {\n          \n          uint256 contractOwnerCut = (msg.value * 200) / 10000;\n          uint256 ownersShare = msg.value - contractOwnerCut;\n          \n          pendingWithdrawals[contractOwner] += contractOwnerCut;\n          \n          address ownerAddress = zoneStructs[zoneId].owner;\n          pendingWithdrawals[ownerAddress] += ownersShare;\n        }\n\n        zoneStructs[zoneId].owner = msg.sender;\n        zoneStructs[zoneId].sellPrice = 0;\n        return true;\n    }\n\n    \n    function sellZone(uint zoneId, uint amount) public\n        onlyValidZone(zoneId)\n        onlyZoneOwner(zoneId)\n        returns (bool success) \n    {\n        zoneStructs[zoneId].sellPrice = amount;\n        return true;\n    }\n\n    \n    function transferZone(uint zoneId, address recipient) public\n        onlyValidZone(zoneId)\n        onlyZoneOwner(zoneId)\n        returns (bool success) \n    {\n        zoneStructs[zoneId].owner = recipient;\n        return true;\n    }\n\n    \n    function computeInitialPrice(uint zoneId) public view\n        onlyValidZone(zoneId)\n        returns (uint price)\n    {\n        return initialZonePrice + ((zoneId - 1) * (initialZonePrice / 2));\n    }\n\n    \n    function getZone(uint zoneId) public constant\n        onlyValidZone(zoneId)\n        returns(uint id, address owner, uint sellPrice)\n    {\n        return (\n          zoneStructs[zoneId].id,\n          zoneStructs[zoneId].owner,\n          zoneStructs[zoneId].sellPrice\n        );\n    }\n\n    \n    function getBalance() public view\n      returns (uint amount)\n    {\n        return pendingWithdrawals[msg.sender];\n    }\n\n    \n    function withdraw() public\n        returns (bool success) \n    {\n        uint amount = pendingWithdrawals[msg.sender];\n        pendingWithdrawals[msg.sender] = 0;\n        msg.sender.transfer(amount);\n        return true;\n    }\n\n    \n    function transferContractOwnership(address newOwner) public\n        onlyContractOwner()\n        returns (bool success) \n    {\n        contractOwner = newOwner;\n        return true;\n    }\n\n}",
  "sourcePath": "/home/XXX-1/smartrim-experiment/for-rlf/0xb6bbf89c3dbba20cb4d5cabaa4a386acbbab455e/contracts/0xb6bbf89c3dbba20cb4d5cabaa4a386acbbab455e.sol",
  "compiler": {
    "name": "solc",
    "version": "0.4.25+commit.59dbf8f1.Emscripten.clang"
  },
  "schemaVersion": "3.4.16",
  "updatedAt": "2025-08-14T04:04:39.949Z",
  "networkType": "ethereum",
  "devdoc": {
    "methods": {}
  },
  "userdoc": {
    "methods": {}
  }
}