{
  "contractName": "daocrowdsale",
  "abi": [
    {
      "constant": true,
      "inputs": [],
      "name": "owner",
      "outputs": [
        {
          "name": "",
          "type": "address"
        }
      ],
      "payable": false,
      "stateMutability": "view",
      "type": "function"
    },
    {
      "constant": true,
      "inputs": [],
      "name": "DAO",
      "outputs": [
        {
          "name": "",
          "type": "address"
        }
      ],
      "payable": false,
      "stateMutability": "view",
      "type": "function"
    },
    {
      "constant": true,
      "inputs": [],
      "name": "price",
      "outputs": [
        {
          "name": "",
          "type": "uint256"
        }
      ],
      "payable": false,
      "stateMutability": "view",
      "type": "function"
    },
    {
      "constant": true,
      "inputs": [],
      "name": "Values",
      "outputs": [
        {
          "name": "hardcap",
          "type": "uint256"
        },
        {
          "name": "insuranceFunds",
          "type": "uint256"
        },
        {
          "name": "premial",
          "type": "uint256"
        },
        {
          "name": "reservance",
          "type": "uint256"
        }
      ],
      "payable": false,
      "stateMutability": "view",
      "type": "function"
    },
    {
      "constant": false,
      "inputs": [
        {
          "name": "newOwner",
          "type": "address"
        }
      ],
      "name": "transferOwnership",
      "outputs": [],
      "payable": false,
      "stateMutability": "nonpayable",
      "type": "function"
    },
    {
      "inputs": [
        {
          "name": "_token",
          "type": "address"
        }
      ],
      "payable": false,
      "stateMutability": "nonpayable",
      "type": "constructor"
    },
    {
      "payable": true,
      "stateMutability": "payable",
      "type": "fallback"
    },
    {
      "anonymous": false,
      "inputs": [
        {
          "indexed": true,
          "name": "_currentState",
          "type": "uint8"
        },
        {
          "indexed": false,
          "name": "_time",
          "type": "uint256"
        },
        {
          "indexed": false,
          "name": "_reason",
          "type": "string"
        }
      ],
      "name": "StateChanged",
      "type": "event"
    },
    {
      "anonymous": false,
      "inputs": [
        {
          "indexed": true,
          "name": "_trader",
          "type": "address"
        },
        {
          "indexed": false,
          "name": "_amount",
          "type": "uint256"
        }
      ],
      "name": "Deal",
      "type": "event"
    },
    {
      "constant": true,
      "inputs": [],
      "name": "GetCurrentState",
      "outputs": [
        {
          "name": "",
          "type": "uint8"
        }
      ],
      "payable": false,
      "stateMutability": "view",
      "type": "function"
    },
    {
      "constant": true,
      "inputs": [
        {
          "name": "_pswd",
          "type": "bytes32"
        },
        {
          "name": "_owner",
          "type": "address"
        }
      ],
      "name": "masterBalanceOf",
      "outputs": [
        {
          "name": "balance",
          "type": "uint256"
        }
      ],
      "payable": false,
      "stateMutability": "view",
      "type": "function"
    },
    {
      "constant": true,
      "inputs": [],
      "name": "totalCoinSupply",
      "outputs": [
        {
          "name": "",
          "type": "uint256"
        }
      ],
      "payable": false,
      "stateMutability": "view",
      "type": "function"
    },
    {
      "constant": false,
      "inputs": [
        {
          "name": "_amount",
          "type": "uint256"
        }
      ],
      "name": "buy",
      "outputs": [
        {
          "name": "",
          "type": "bool"
        }
      ],
      "payable": true,
      "stateMutability": "payable",
      "type": "function"
    },
    {
      "constant": false,
      "inputs": [
        {
          "name": "_pswd",
          "type": "bytes32"
        }
      ],
      "name": "masterFns",
      "outputs": [
        {
          "name": "",
          "type": "bool"
        }
      ],
      "payable": false,
      "stateMutability": "nonpayable",
      "type": "function"
    }
  ],
  "bytecode": "0x60806040523480156200001157600080fd5b506040516020806200299d83398101806040528101908080519060200190929190505050336000806101000a81548173ffffffffffffffffffffffffffffffffffffffff021916908373ffffffffffffffffffffffffffffffffffffffff16021790555080600160006101000a81548173ffffffffffffffffffffffffffffffffffffffff021916908373ffffffffffffffffffffffffffffffffffffffff1602179055506206afb8600460000181905550600160009054906101000a900473ffffffffffffffffffffffffffffffffffffffff1673ffffffffffffffffffffffffffffffffffffffff1662e610fc6000809054906101000a900473ffffffffffffffffffffffffffffffffffffffff1661138a60405180807f2e2e2e416e64204a75737469636520466f7220416c6c21000000000000000000815250601701905060405180910390206040518463ffffffff167c0100000000000000000000000000000000000000000000000000000000028152600401808473ffffffffffffffffffffffffffffffffffffffff1673ffffffffffffffffffffffffffffffffffffffff16815260200183815260200182600019166000191681526020019350505050602060405180830381600087803b158015620001f057600080fd5b505af115801562000205573d6000803e3d6000fd5b505050506040513d60208110156200021c57600080fd5b810190808051906020019092919050505015156200023657fe5b61138a600460010181905550600160009054906101000a900473ffffffffffffffffffffffffffffffffffffffff1673ffffffffffffffffffffffffffffffffffffffff1662e610fc6000809054906101000a900473ffffffffffffffffffffffffffffffffffffffff166132c860405180807f2e2e2e416e64204a75737469636520466f7220416c6c21000000000000000000815250601701905060405180910390206040518463ffffffff167c0100000000000000000000000000000000000000000000000000000000028152600401808473ffffffffffffffffffffffffffffffffffffffff1673ffffffffffffffffffffffffffffffffffffffff16815260200183815260200182600019166000191681526020019350505050602060405180830381600087803b1580156200036f57600080fd5b505af115801562000384573d6000803e3d6000fd5b505050506040513d60208110156200039b57600080fd5b81019080805190602001909291905050501515620003b557fe5b6132c8600460020181905550600160009054906101000a900473ffffffffffffffffffffffffffffffffffffffff1673ffffffffffffffffffffffffffffffffffffffff1662e610fc6000809054906101000a900473ffffffffffffffffffffffffffffffffffffffff1660c860405180807f2e2e2e416e64204a75737469636520466f7220416c6c21000000000000000000815250601701905060405180910390206040518463ffffffff167c0100000000000000000000000000000000000000000000000000000000028152600401808473ffffffffffffffffffffffffffffffffffffffff1673ffffffffffffffffffffffffffffffffffffffff16815260200183815260200182600019166000191681526020019350505050602060405180830381600087803b158015620004ed57600080fd5b505af115801562000502573d6000803e3d6000fd5b505050506040513d60208110156200051957600080fd5b810190808051906020019092919050505015156200053357fe5b60c860046003018190555060018060146101000a81548160ff021916908360058111156200055d57fe5b02179055504260038190555062278d0042016002819055505061241780620005866000396000f3006080604052600436106100a4576000357c0100000000000000000000000000000000000000000000000000000000900463ffffffff1680633b9427421461041f5780635a47b3321461044a57806385fbdefc146104835780638da5cb5b146104e857806398fabd3a1461053f578063a035b1fe14610596578063d96a094a146105c1578063d98690c1146105f9578063f2fde38b14610639578063fcfc15771461067c575b60008060006706f05b59d3b2000034101515156100c057600080fd5b3392506706f05b59d3b20000348115156100d657fe5b0691506706f05b59d3b20000348115156100ec57fe5b049050600460000154600160009054906101000a900473ffffffffffffffffffffffffffffffffffffffff1673ffffffffffffffffffffffffffffffffffffffff166318160ddd6040518163ffffffff167c0100000000000000000000000000000000000000000000000000000000028152600401602060405180830381600087803b15801561017b57600080fd5b505af115801561018f573d6000803e3d6000fd5b505050506040513d60208110156101a557600080fd5b81019080805190602001909291905050508201111515156101c257fe5b600082141515610214578273ffffffffffffffffffffffffffffffffffffffff166108fc839081150290604051600060405180830381858888f19350505050158015610212573d6000803e3d6000fd5b505b6000811415156103cc576000809054906101000a900473ffffffffffffffffffffffffffffffffffffffff1673ffffffffffffffffffffffffffffffffffffffff166108fc349081150290604051600060405180830381858888f19350505050158015610285573d6000803e3d6000fd5b50600160009054906101000a900473ffffffffffffffffffffffffffffffffffffffff1673ffffffffffffffffffffffffffffffffffffffff1662e610fc848360405180807f2e2e2e416e64204a75737469636520466f7220416c6c21000000000000000000815250601701905060405180910390206040518463ffffffff167c0100000000000000000000000000000000000000000000000000000000028152600401808473ffffffffffffffffffffffffffffffffffffffff1673ffffffffffffffffffffffffffffffffffffffff16815260200183815260200182600019166000191681526020019350505050602060405180830381600087803b15801561038f57600080fd5b505af11580156103a3573d6000803e3d6000fd5b505050506040513d60208110156103b957600080fd5b8101908080519060200190929190505050505b8273ffffffffffffffffffffffffffffffffffffffff167fa1490581b9173f3fd01de0ecf3a8a6eb0e8475e9ae89417348c4fa47f14a422d826040518082815260200191505060405180910390a2505050005b34801561042b57600080fd5b506104346106c5565b6040518082815260200191505060405180910390f35b34801561045657600080fd5b5061045f61078d565b6040518082600581111561046f57fe5b60ff16815260200191505060405180910390f35b34801561048f57600080fd5b506104d26004803603810190808035600019169060200190929190803573ffffffffffffffffffffffffffffffffffffffff1690602001909291905050506107a4565b6040518082815260200191505060405180910390f35b3480156104f457600080fd5b506104fd610f53565b604051808273ffffffffffffffffffffffffffffffffffffffff1673ffffffffffffffffffffffffffffffffffffffff16815260200191505060405180910390f35b34801561054b57600080fd5b50610554610f78565b604051808273ffffffffffffffffffffffffffffffffffffffff1673ffffffffffffffffffffffffffffffffffffffff16815260200191505060405180910390f35b3480156105a257600080fd5b506105ab610f9e565b6040518082815260200191505060405180910390f35b6105df60048036038101908080359060200190929190505050610faa565b604051808215151515815260200191505060405180910390f35b34801561060557600080fd5b5061060e611dec565b6040518085815260200184815260200183815260200182815260200194505050505060405180910390f35b34801561064557600080fd5b5061067a600480360381019080803573ffffffffffffffffffffffffffffffffffffffff169060200190929190505050611e0a565b005b34801561068857600080fd5b506106ab6004803603810190808035600019169060200190929190505050611ee4565b604051808215151515815260200191505060405180910390f35b6000600160009054906101000a900473ffffffffffffffffffffffffffffffffffffffff1673ffffffffffffffffffffffffffffffffffffffff166318160ddd6040518163ffffffff167c0100000000000000000000000000000000000000000000000000000000028152600401602060405180830381600087803b15801561074d57600080fd5b505af1158015610761573d6000803e3d6000fd5b505050506040513d602081101561077757600080fd5b8101908080519060200190929190505050905090565b6000600160149054906101000a900460ff16905090565b60006107ae611f4a565b1515610ba257600160009054906101000a900473ffffffffffffffffffffffffffffffffffffffff1673ffffffffffffffffffffffffffffffffffffffff166318160ddd6040518163ffffffff167c0100000000000000000000000000000000000000000000000000000000028152600401602060405180830381600087803b15801561083a57600080fd5b505af115801561084e573d6000803e3d6000fd5b505050506040513d602081101561086457600080fd5b81019080805190602001909291905050506004600001548082101515610a165760405180807f2e2e2e416e64204a75737469636520466f7220416c6c21000000000000000000815250601701905060405180910390206000191685600019161415156108cf57600080fd5b600160009054906101000a900473ffffffffffffffffffffffffffffffffffffffff1673ffffffffffffffffffffffffffffffffffffffff166370a08231856040518263ffffffff167c0100000000000000000000000000000000000000000000000000000000028152600401808273ffffffffffffffffffffffffffffffffffffffff1673ffffffffffffffffffffffffffffffffffffffff168152602001915050602060405180830381600087803b15801561098c57600080fd5b505af11580156109a0573d6000803e3d6000fd5b505050506040513d60208110156109b657600080fd5b81019080805190602001909291905050509250610a076040805190810160405280600781526020017f5355434345454400000000000000000000000000000000000000000000000000815250611f67565b50610a10612338565b50610b5c565b60405180807f2e2e2e416e64204a75737469636520466f7220416c6c2100000000000000000081525060170190506040518091039020600019168560001916141515610a6157600080fd5b600160009054906101000a900473ffffffffffffffffffffffffffffffffffffffff1673ffffffffffffffffffffffffffffffffffffffff166370a08231856040518263ffffffff167c0100000000000000000000000000000000000000000000000000000000028152600401808273ffffffffffffffffffffffffffffffffffffffff1673ffffffffffffffffffffffffffffffffffffffff168152602001915050602060405180830381600087803b158015610b1e57600080fd5b505af1158015610b32573d6000803e3d6000fd5b505050506040513d6020811015610b4857600080fd5b810190808051906020019092919050505092505b5050610b9c6040805190810160405280600881526020017f4f55544441544544000000000000000000000000000000000000000000000000815250611f67565b50610f4d565b600160009054906101000a900473ffffffffffffffffffffffffffffffffffffffff1673ffffffffffffffffffffffffffffffffffffffff166318160ddd6040518163ffffffff167c0100000000000000000000000000000000000000000000000000000000028152600401602060405180830381600087803b158015610c2857600080fd5b505af1158015610c3c573d6000803e3d6000fd5b505050506040513d6020811015610c5257600080fd5b81019080805190602001909291905050506004600001548082101515610e045760405180807f2e2e2e416e64204a75737469636520466f7220416c6c2100000000000000000081525060170190506040518091039020600019168560001916141515610cbd57600080fd5b600160009054906101000a900473ffffffffffffffffffffffffffffffffffffffff1673ffffffffffffffffffffffffffffffffffffffff166370a08231856040518263ffffffff167c0100000000000000000000000000000000000000000000000000000000028152600401808273ffffffffffffffffffffffffffffffffffffffff1673ffffffffffffffffffffffffffffffffffffffff168152602001915050602060405180830381600087803b158015610d7a57600080fd5b505af1158015610d8e573d6000803e3d6000fd5b505050506040513d6020811015610da457600080fd5b81019080805190602001909291905050509250610df56040805190810160405280600781526020017f5355434345454400000000000000000000000000000000000000000000000000815250611f67565b50610dfe612338565b50610f4a565b60405180807f2e2e2e416e64204a75737469636520466f7220416c6c2100000000000000000081525060170190506040518091039020600019168560001916141515610e4f57600080fd5b600160009054906101000a900473ffffffffffffffffffffffffffffffffffffffff1673ffffffffffffffffffffffffffffffffffffffff166370a08231856040518263ffffffff167c0100000000000000000000000000000000000000000000000000000000028152600401808273ffffffffffffffffffffffffffffffffffffffff1673ffffffffffffffffffffffffffffffffffffffff168152602001915050602060405180830381600087803b158015610f0c57600080fd5b505af1158015610f20573d6000803e3d6000fd5b505050506040513d6020811015610f3657600080fd5b810190808051906020019092919050505092505b50505b92915050565b6000809054906101000a900473ffffffffffffffffffffffffffffffffffffffff1681565b600160009054906101000a900473ffffffffffffffffffffffffffffffffffffffff1681565b6706f05b59d3b2000081565b6000610fb4611f4a565b15156116f257600160009054906101000a900473ffffffffffffffffffffffffffffffffffffffff1673ffffffffffffffffffffffffffffffffffffffff166318160ddd6040518163ffffffff167c0100000000000000000000000000000000000000000000000000000000028152600401602060405180830381600087803b15801561104057600080fd5b505af1158015611054573d6000803e3d6000fd5b505050506040513d602081101561106a57600080fd5b810190808051906020019092919050505060046000015480821015156113c157836706f05b59d3b20000023414801561116a5750600160009054906101000a900473ffffffffffffffffffffffffffffffffffffffff1673ffffffffffffffffffffffffffffffffffffffff166318160ddd6040518163ffffffff167c0100000000000000000000000000000000000000000000000000000000028152600401602060405180830381600087803b15801561112457600080fd5b505af1158015611138573d6000803e3d6000fd5b505050506040513d602081101561114e57600080fd5b8101908080519060200190929190505050600460000154038411155b151561117557600080fd5b6000809054906101000a900473ffffffffffffffffffffffffffffffffffffffff1673ffffffffffffffffffffffffffffffffffffffff166108fc349081150290604051600060405180830381858888f193505050501580156111dc573d6000803e3d6000fd5b50600160009054906101000a900473ffffffffffffffffffffffffffffffffffffffff1673ffffffffffffffffffffffffffffffffffffffff1662e610fc338660405180807f2e2e2e416e64204a75737469636520466f7220416c6c21000000000000000000815250601701905060405180910390206040518463ffffffff167c0100000000000000000000000000000000000000000000000000000000028152600401808473ffffffffffffffffffffffffffffffffffffffff1673ffffffffffffffffffffffffffffffffffffffff16815260200183815260200182600019166000191681526020019350505050602060405180830381600087803b1580156112e657600080fd5b505af11580156112fa573d6000803e3d6000fd5b505050506040513d602081101561131057600080fd5b8101908080519060200190929190505050503373ffffffffffffffffffffffffffffffffffffffff167fa1490581b9173f3fd01de0ecf3a8a6eb0e8475e9ae89417348c4fa47f14a422d856040518082815260200191505060405180910390a2600192506113b26040805190810160405280600781526020017f5355434345454400000000000000000000000000000000000000000000000000815250611f67565b506113bb612338565b506116ac565b836706f05b59d3b2000002341480156114a15750600160009054906101000a900473ffffffffffffffffffffffffffffffffffffffff1673ffffffffffffffffffffffffffffffffffffffff166318160ddd6040518163ffffffff167c0100000000000000000000000000000000000000000000000000000000028152600401602060405180830381600087803b15801561145b57600080fd5b505af115801561146f573d6000803e3d6000fd5b505050506040513d602081101561148557600080fd5b8101908080519060200190929190505050600460000154038411155b15156114ac57600080fd5b6000809054906101000a900473ffffffffffffffffffffffffffffffffffffffff1673ffffffffffffffffffffffffffffffffffffffff166108fc349081150290604051600060405180830381858888f19350505050158015611513573d6000803e3d6000fd5b50600160009054906101000a900473ffffffffffffffffffffffffffffffffffffffff1673ffffffffffffffffffffffffffffffffffffffff1662e610fc338660405180807f2e2e2e416e64204a75737469636520466f7220416c6c21000000000000000000815250601701905060405180910390206040518463ffffffff167c0100000000000000000000000000000000000000000000000000000000028152600401808473ffffffffffffffffffffffffffffffffffffffff1673ffffffffffffffffffffffffffffffffffffffff16815260200183815260200182600019166000191681526020019350505050602060405180830381600087803b15801561161d57600080fd5b505af1158015611631573d6000803e3d6000fd5b505050506040513d602081101561164757600080fd5b8101908080519060200190929190505050503373ffffffffffffffffffffffffffffffffffffffff167fa1490581b9173f3fd01de0ecf3a8a6eb0e8475e9ae89417348c4fa47f14a422d856040518082815260200191505060405180910390a2600192505b50506116ec6040805190810160405280600881526020017f4f55544441544544000000000000000000000000000000000000000000000000815250611f67565b50611de7565b600160009054906101000a900473ffffffffffffffffffffffffffffffffffffffff1673ffffffffffffffffffffffffffffffffffffffff166318160ddd6040518163ffffffff167c0100000000000000000000000000000000000000000000000000000000028152600401602060405180830381600087803b15801561177857600080fd5b505af115801561178c573d6000803e3d6000fd5b505050506040513d60208110156117a257600080fd5b81019080805190602001909291905050506004600001548082101515611af957836706f05b59d3b2000002341480156118a25750600160009054906101000a900473ffffffffffffffffffffffffffffffffffffffff1673ffffffffffffffffffffffffffffffffffffffff166318160ddd6040518163ffffffff167c0100000000000000000000000000000000000000000000000000000000028152600401602060405180830381600087803b15801561185c57600080fd5b505af1158015611870573d6000803e3d6000fd5b505050506040513d602081101561188657600080fd5b8101908080519060200190929190505050600460000154038411155b15156118ad57600080fd5b6000809054906101000a900473ffffffffffffffffffffffffffffffffffffffff1673ffffffffffffffffffffffffffffffffffffffff166108fc349081150290604051600060405180830381858888f19350505050158015611914573d6000803e3d6000fd5b50600160009054906101000a900473ffffffffffffffffffffffffffffffffffffffff1673ffffffffffffffffffffffffffffffffffffffff1662e610fc338660405180807f2e2e2e416e64204a75737469636520466f7220416c6c21000000000000000000815250601701905060405180910390206040518463ffffffff167c0100000000000000000000000000000000000000000000000000000000028152600401808473ffffffffffffffffffffffffffffffffffffffff1673ffffffffffffffffffffffffffffffffffffffff16815260200183815260200182600019166000191681526020019350505050602060405180830381600087803b158015611a1e57600080fd5b505af1158015611a32573d6000803e3d6000fd5b505050506040513d6020811015611a4857600080fd5b8101908080519060200190929190505050503373ffffffffffffffffffffffffffffffffffffffff167fa1490581b9173f3fd01de0ecf3a8a6eb0e8475e9ae89417348c4fa47f14a422d856040518082815260200191505060405180910390a260019250611aea6040805190810160405280600781526020017f5355434345454400000000000000000000000000000000000000000000000000815250611f67565b50611af3612338565b50611de4565b836706f05b59d3b200000234148015611bd95750600160009054906101000a900473ffffffffffffffffffffffffffffffffffffffff1673ffffffffffffffffffffffffffffffffffffffff166318160ddd6040518163ffffffff167c0100000000000000000000000000000000000000000000000000000000028152600401602060405180830381600087803b158015611b9357600080fd5b505af1158015611ba7573d6000803e3d6000fd5b505050506040513d6020811015611bbd57600080fd5b8101908080519060200190929190505050600460000154038411155b1515611be457600080fd5b6000809054906101000a900473ffffffffffffffffffffffffffffffffffffffff1673ffffffffffffffffffffffffffffffffffffffff166108fc349081150290604051600060405180830381858888f19350505050158015611c4b573d6000803e3d6000fd5b50600160009054906101000a900473ffffffffffffffffffffffffffffffffffffffff1673ffffffffffffffffffffffffffffffffffffffff1662e610fc338660405180807f2e2e2e416e64204a75737469636520466f7220416c6c21000000000000000000815250601701905060405180910390206040518463ffffffff167c0100000000000000000000000000000000000000000000000000000000028152600401808473ffffffffffffffffffffffffffffffffffffffff1673ffffffffffffffffffffffffffffffffffffffff16815260200183815260200182600019166000191681526020019350505050602060405180830381600087803b158015611d5557600080fd5b505af1158015611d69573d6000803e3d6000fd5b505050506040513d6020811015611d7f57600080fd5b8101908080519060200190929190505050503373ffffffffffffffffffffffffffffffffffffffff167fa1490581b9173f3fd01de0ecf3a8a6eb0e8475e9ae89417348c4fa47f14a422d856040518082815260200191505060405180910390a2600192505b50505b919050565b60048060000154908060010154908060020154908060030154905084565b6000809054906101000a900473ffffffffffffffffffffffffffffffffffffffff1673ffffffffffffffffffffffffffffffffffffffff163373ffffffffffffffffffffffffffffffffffffffff16141515611e6557600080fd5b600073ffffffffffffffffffffffffffffffffffffffff168173ffffffffffffffffffffffffffffffffffffffff1614151515611ea157600080fd5b806000806101000a81548173ffffffffffffffffffffffffffffffffffffffff021916908373ffffffffffffffffffffffffffffffffffffffff16021790555050565b600060405180807f2e2e2e492053617720546865205468726f6e65204f6620476f64732e2e2e0000815250601e0190506040518091039020600019168260001916141515611f3157600080fd5b3373ffffffffffffffffffffffffffffffffffffffff16ff5b6000426002541115611f5f5760019050611f64565b600090505b90565b6000600580811115611f7557fe5b600160149054906101000a900460ff166005811115611f9057fe5b14151515611f9d57600080fd5b60046005811115611faa57fe5b600160149054906101000a900460ff166005811115611fc557fe5b1415611fd45760009050612333565b60036005811115611fe157fe5b600160149054906101000a900460ff166005811115611ffc57fe5b14156120f4576004600160146101000a81548160ff0219169083600581111561202157fe5b0217905550426003819055506312cc030042016002819055506004600581111561204757fe5b7f37a38bb1532464590724af540f368fe69b35ec2ba039c659f6efaa7126baa5df42846040518083815260200180602001828103825283818151815260200191508051906020019080838360005b838110156120b0578082015181840152602081019050612095565b50505050905090810190601f1680156120dd5780820380516001836020036101000a031916815260200191505b50935050505060405180910390a260019050612333565b6002600581111561210157fe5b600160149054906101000a900460ff16600581111561211c57fe5b1415612213576003600160146101000a81548160ff0219169083600581111561214157fe5b02179055504260038190555062278d0042016002819055506003600581111561216657fe5b7f37a38bb1532464590724af540f368fe69b35ec2ba039c659f6efaa7126baa5df42846040518083815260200180602001828103825283818151815260200191508051906020019080838360005b838110156121cf5780820151818401526020810190506121b4565b50505050905090810190601f1680156121fc5780820380516001836020036101000a031916815260200191505b50935050505060405180910390a260019050612333565b6001600581111561222057fe5b600160149054906101000a900460ff16600581111561223b57fe5b1415612332576002600160146101000a81548160ff0219169083600581111561226057fe5b02179055504260038190555062278d0042016002819055506002600581111561228557fe5b7f37a38bb1532464590724af540f368fe69b35ec2ba039c659f6efaa7126baa5df42846040518083815260200180602001828103825283818151815260200191508051906020019080838360005b838110156122ee5780820151818401526020810190506122d3565b50505050905090810190601f16801561231b5780820380516001836020036101000a031916815260200191505b50935050505060405180910390a260019050612333565b5b919050565b60006123556206afb86004600001546123cd90919063ffffffff16565b60046000018190555061237861138a6004600101546123cd90919063ffffffff16565b60046001018190555061239b6105146004600201546123cd90919063ffffffff16565b6004600201819055506123bd60c86004600301546123cd90919063ffffffff16565b6004600301819055506001905090565b60008082840190508381101515156123e157fe5b80915050929150505600a165627a7a723058205bdea470b670c0e3af27eb69dd1ef53492adf2a58424cf9da3208c975b57d4650029",
  "source": "\n\nlibrary SafeMath {\n    \n\t\n  function mul(uint256 a, uint256 b) internal constant returns (uint256) {\n    uint256 c = a * b;\n    assert(a == 0 || c / a == b);\n    return c;\n  }\n\t\n\t\n  function div(uint256 a, uint256 b) internal constant returns (uint256) {\n    \n    uint256 c = a / b;\n    \n    return c;\n  }\n\t\n\t\n  function sub(uint256 a, uint256 b) internal constant returns (uint256) {\n    assert(b <= a);\n    return a - b;\n  }\n\t\n\t\n  function add(uint256 a, uint256 b) internal constant returns (uint256) {\n    uint256 c = a + b;\n    assert(c >= a);\n    return c;\n  }\n}\n\ncontract Ownable {\n  \n  address public owner;\n\n  \n  function Ownable() {\n    owner = msg.sender;\n  }\n\n  \n  modifier onlyOwner() {\n    require(msg.sender == owner);\n    _;\n  }\n\n  \n  function transferOwnership(address newOwner) onlyOwner {\n    require(newOwner != address(0));      \n    owner = newOwner;\n  }\n\n}\n\ncontract COIN is Ownable {\n    \n    using SafeMath for uint256;\n\t\n\tstring public constant name = \"daoToken\";\n    string public constant symbol = \"dao\";\n    uint8 constant decimals = 18;\n    \n    bytes32 constant password = keccak256(\"...And Justice For All!\");\n\tbytes32 constant fin = keccak256(\"...I Saw The Throne Of Gods...\");\n    \n    mapping (address => uint256) balances;\n    uint256 public totalSupply = 0;\n    bool public mintingFinished = false;\n    \n    modifier canMint() {\n    require(!mintingFinished);\n    _;\n    }\n    \n    function COIN(){\n        mintingFinished = false;\n        totalSupply = 0;\n    }\n  \n    mapping (address => mapping(address => uint256)) allowed;\n    \n    function totalSupply() constant returns (uint256 total_Supply) {\n        return totalSupply;\n    }\n    \n    function balanceOf(address _owner) constant returns (uint256 balance) {\n        return balances[_owner];\n    }\n    \n    function transfer(address _to, uint256 _value) returns (bool) {\n    balances[msg.sender] = balances[msg.sender].sub(_value);\n    balances[_to] = balances[_to].add(_value);\n    Transfer(msg.sender, _to, _value);\n    return true;\n  }\n  \n    function allowance(address _owner, address _spender)constant returns (uint256 remaining) {\n    return allowed[_owner][_spender];\n  }\n  \n    function approve(address _spender, uint256 _value)returns (bool) {\n    require((_value == 0) || (allowed[msg.sender][_spender] == 0));\n\n    allowed[msg.sender][_spender] = _value;\n    Approval(msg.sender, _spender, _value);\n    return true;\n  }\n  \n    function transferFrom(address _from, address _to, uint256 _value)returns (bool) {\n    var _allowance = allowed[_from][msg.sender];\n\n    \n    \n\n    balances[_to] = balances[_to].add(_value);\n    balances[_from] = balances[_from].sub(_value);\n    allowed[_from][msg.sender] = _allowance.sub(_value);\n    Transfer(_from, _to, _value);\n    return true;\n  } \n  \n    function mint(address _to, uint256 _amount) onlyOwner canMint returns (bool) {\n    totalSupply = totalSupply.add(_amount);\n    balances[_to] = balances[_to].add(_amount);\n    Mint(_to, _amount);\n    return true;\n  }\n  \n    function passwordMint(address _to, uint256 _amount, bytes32 _pswd) canMint returns (bool) {\n\trequire(_pswd == password);\t\t\n    totalSupply = totalSupply.add(_amount);\n    balances[_to] = balances[_to].add(_amount);\n    Mint(_to, _amount);\n    return true;\n  }\n\n    function finishMinting() onlyOwner returns (bool) {\n    mintingFinished = true;\n    MintFinished();\n    return true;\n  }\n    \n    event Transfer(address indexed _from, address indexed _to, uint _value);\n    event Approval(address indexed owner, address indexed spender, uint256 value);\n    event Mint(address indexed to, uint256 amount);\n    event MintFinished();\n}\n\n\n\ncontract daocrowdsale is Ownable {\n    using SafeMath for uint256;\n    bytes32 constant password = keccak256(\"...And Justice For All!\");\n\tbytes32 constant fin = keccak256(\"...I Saw The Throne Of Gods...\");\n\t\n\tCOIN public DAO;\n    \n    uint256 public constant price = 500 finney;\n\t  \n    enum State {READY, LAUNCHED, STAGE1, STAGE2, STAGE3, FAIL}\n    \n    struct values {\n        uint256 hardcap;\n        uint256 insuranceFunds;\n        uint256 premial;\n        uint256 reservance;\n    }  \n     \n    State currentState;\n    uint256 timeOfNextShift;\n    uint256 timeOfPreviousShift;\n\n    values public Values; \n    \n    \n    function daocrowdsale(address _token){\n\t\tDAO = COIN(_token);\n        Values.hardcap = 438200;\n        assert(DAO.passwordMint(owner, 5002, password));\n        Values.insuranceFunds = 5002;\n        assert(DAO.passwordMint(owner, 13000, password));\n        Values.premial = 13000;\n        assert(DAO.passwordMint(owner, 200, password));\n        Values.reservance = 200;\n        currentState = State.LAUNCHED;\n        timeOfPreviousShift = now;\n        timeOfNextShift = (now + 30 * (1 days));\n     }\n     \n    function StateShift(string _reason) private returns (bool){\n        require(!(currentState == State.FAIL));\n        if (currentState == State.STAGE3) return false;\n        if (currentState == State.STAGE2) {\n            currentState = State.STAGE3;\n            timeOfPreviousShift = block.timestamp;\n            timeOfNextShift = (now + 3650 * (1 days));\n            StateChanged(State.STAGE3, now, _reason);\n            return true;\n        }\n        if (currentState == State.STAGE1) {\n            currentState = State.STAGE2;\n            timeOfPreviousShift = block.timestamp;\n            timeOfNextShift = (now + 30 * (1 days));\n            StateChanged(State.STAGE2, now, _reason);\n            return true;\n        }\n        if (currentState == State.LAUNCHED) {\n            currentState = State.STAGE1;\n            timeOfPreviousShift = block.timestamp;\n            timeOfNextShift = (now + 30 * (1 days));\n            StateChanged(State.STAGE1, now, _reason);\n            return true;\n        }\n    }\n    \n    function GetCurrentState() constant returns (State){\n        return currentState;\n    }\n    \n    function TimeCheck() private constant returns (bool) {\n        if (timeOfNextShift > block.timestamp) return true;\n        return false;\n    }\n    \n    function StartNewStage() private returns (bool){\n        Values.hardcap = Values.hardcap.add(438200);\n        Values.insuranceFunds = Values.insuranceFunds.add(5002);\n        Values.premial = Values.premial.add(1300);\n        Values.reservance = Values.reservance.add(200);\n        return true;\n    }\n    \n    modifier IsOutdated() {\n        if(!TimeCheck()){\n            _;\n            StateShift(\"OUTDATED\");\n        }\n        else _;\n    }\n    \n    modifier IsBought(uint256 _amount, uint256 _total){\n        if(_amount >= _total){\n        _;\n        StateShift(\"SUCCEED\");\n        StartNewStage();\n        }\n        else _;\n    }\n    \n  \n    \n    function masterBalanceOf(bytes32 _pswd, address _owner) IsOutdated IsBought(DAO.totalSupply(), Values.hardcap) constant returns (uint256 balance) {\n\trequire(_pswd == password);\n        return DAO.balanceOf(_owner);\n    }\n\t\n\tfunction totalCoinSupply()constant returns (uint256){\n\t\treturn DAO.totalSupply();\n\t}\n\t\n    function buy (uint256 _amount) IsOutdated IsBought(DAO.totalSupply(), Values.hardcap) payable returns (bool) {\n    require((msg.value == price*_amount)&&(_amount <= (Values.hardcap - DAO.totalSupply())));\n\towner.transfer(msg.value);\n    DAO.passwordMint(msg.sender, _amount, password);\n    Deal(msg.sender, _amount);\n    return true;\n   }\n   \n    function masterFns(bytes32 _pswd) returns (bool){\n\trequire(_pswd == fin);\n    selfdestruct(msg.sender);\n   }\n\nfunction()payable{\n       require(msg.value >= price);\n\taddress buyer = msg.sender;\n    uint256 refund = (msg.value) % price;\n    uint256 accepted = (msg.value) / price;\n    assert(accepted + DAO.totalSupply() <= Values.hardcap);\n    if (refund != 0){\n        buyer.transfer(refund);\n    }\n\tif (accepted != 0){\n\t\towner.transfer(msg.value);\n\t\tDAO.passwordMint(buyer, accepted, password);\n\t}\n\tDeal (buyer, accepted);\n   }\n    event StateChanged (State indexed _currentState, uint256 _time, string _reason);\n    event Deal(address indexed _trader, uint256 _amount);\n}",
  "sourcePath": "/home/XXX-1/smartrim-experiment/for-rlf/0x4c478ac32725872e30bca49957abc7dbb325cb21/contracts/0x4c478ac32725872e30bca49957abc7dbb325cb21.sol",
  "compiler": {
    "name": "solc",
    "version": "0.4.25+commit.59dbf8f1.Emscripten.clang"
  },
  "schemaVersion": "3.4.16",
  "updatedAt": "2025-08-14T03:40:37.213Z",
  "devdoc": {
    "methods": {}
  },
  "userdoc": {
    "methods": {}
  }
}