{
  "contractName": "PumpAndDump",
  "abi": [
    {
      "inputs": [],
      "payable": false,
      "stateMutability": "nonpayable",
      "type": "constructor"
    },
    {
      "payable": true,
      "stateMutability": "payable",
      "type": "fallback"
    },
    {
      "constant": false,
      "inputs": [],
      "name": "kill",
      "outputs": [],
      "payable": false,
      "stateMutability": "nonpayable",
      "type": "function"
    },
    {
      "constant": true,
      "inputs": [],
      "name": "getNewCoinFee",
      "outputs": [
        {
          "name": "",
          "type": "uint256"
        }
      ],
      "payable": false,
      "stateMutability": "view",
      "type": "function"
    },
    {
      "constant": false,
      "inputs": [
        {
          "name": "id",
          "type": "uint16"
        },
        {
          "name": "name",
          "type": "string"
        }
      ],
      "name": "createCoin",
      "outputs": [],
      "payable": true,
      "stateMutability": "payable",
      "type": "function"
    },
    {
      "constant": true,
      "inputs": [],
      "name": "getCoinIds",
      "outputs": [
        {
          "name": "",
          "type": "uint16[]"
        }
      ],
      "payable": false,
      "stateMutability": "view",
      "type": "function"
    },
    {
      "constant": true,
      "inputs": [
        {
          "name": "coinId",
          "type": "uint16"
        }
      ],
      "name": "getCoinInfoFromId",
      "outputs": [
        {
          "name": "",
          "type": "string"
        },
        {
          "name": "",
          "type": "uint256"
        },
        {
          "name": "",
          "type": "uint256"
        },
        {
          "name": "",
          "type": "address[]"
        }
      ],
      "payable": false,
      "stateMutability": "view",
      "type": "function"
    },
    {
      "constant": false,
      "inputs": [
        {
          "name": "coinId",
          "type": "uint16"
        }
      ],
      "name": "buyCoin",
      "outputs": [],
      "payable": true,
      "stateMutability": "payable",
      "type": "function"
    },
    {
      "constant": false,
      "inputs": [
        {
          "name": "coinId",
          "type": "uint16"
        }
      ],
      "name": "sellCoin",
      "outputs": [],
      "payable": false,
      "stateMutability": "nonpayable",
      "type": "function"
    },
    {
      "constant": true,
      "inputs": [],
      "name": "getDevFees",
      "outputs": [
        {
          "name": "",
          "type": "uint256"
        }
      ],
      "payable": false,
      "stateMutability": "view",
      "type": "function"
    },
    {
      "constant": false,
      "inputs": [],
      "name": "collectDevFees",
      "outputs": [],
      "payable": false,
      "stateMutability": "nonpayable",
      "type": "function"
    }
  ],
  "bytecode": "0x60806040526611c37937e0800060015566038d7ea4c6800060025566038d7ea4c68000600355655af3107a4000600455600060055534801561004057600080fd5b50336000806101000a81548173ffffffffffffffffffffffffffffffffffffffff021916908373ffffffffffffffffffffffffffffffffffffffff16021790555061120a806100906000396000f300608060405260043610610099576000357c0100000000000000000000000000000000000000000000000000000000900463ffffffff168063168b62311461009b57806341c0e1b5146101075780634c2db6d81461011e5780635054e8bf146101425780639017006e14610159578063ad9657f414610184578063d4d2af8d146101ee578063e079e3341461021f578063e9922f121461024a575b005b3480156100a757600080fd5b506100b061034a565b6040518080602001828103825283818151815260200191508051906020019060200280838360005b838110156100f35780820151818401526020810190506100d8565b505050509050019250505060405180910390f35b34801561011357600080fd5b5061011c6103ca565b005b610140600480360381019080803561ffff16906020019092919050505061045f565b005b34801561014e57600080fd5b50610157610681565b005b34801561016557600080fd5b5061016e610750565b6040518082815260200191505060405180910390f35b6101ec600480360381019080803561ffff169060200190929190803590602001908201803590602001908080601f01602080910402602001604051908101604052809392919081815260200183838082843782019150505050505091929192905050506107b5565b005b3480156101fa57600080fd5b5061021d600480360381019080803561ffff1690602001909291905050506109ab565b005b34801561022b57600080fd5b50610234610ada565b6040518082815260200191505060405180910390f35b34801561025657600080fd5b50610279600480360381019080803561ffff169060200190929190505050610ae4565b604051808060200185815260200184815260200180602001838103835287818151815260200191508051906020019080838360005b838110156102c95780820151818401526020810190506102ae565b50505050905090810190601f1680156102f65780820380516001836020036101000a031916815260200191505b50838103825284818151815260200191508051906020019060200280838360005b83811015610332578082015181840152602081019050610317565b50505050905001965050505050505060405180910390f35b606060068054806020026020016040519081016040528092919081815260200182805480156103c057602002820191906000526020600020906000905b82829054906101000a900461ffff1661ffff16815260200190600201906020826001010492830192600103820291508084116103875790505b5050505050905090565b6000809054906101000a900473ffffffffffffffffffffffffffffffffffffffff1673ffffffffffffffffffffffffffffffffffffffff163373ffffffffffffffffffffffffffffffffffffffff1614151561042557600080fd5b6000809054906101000a900473ffffffffffffffffffffffffffffffffffffffff1673ffffffffffffffffffffffffffffffffffffffff16ff5b6000600760008361ffff1661ffff16815260200190815260200160002060020154341015151561048e57600080fd5b600760008361ffff1661ffff16815260200190815260200160002060000160009054906101000a900460ff1615156104c557600080fd5b61057133600760008561ffff1661ffff16815260200190815260200160002060040180548060200260200160405190810160405280929190818152602001828054801561056757602002820191906000526020600020905b8160009054906101000a900473ffffffffffffffffffffffffffffffffffffffff1673ffffffffffffffffffffffffffffffffffffffff168152602001906001019080831161051d575b5050505050610c98565b15151561057d57600080fd5b600760008361ffff1661ffff1681526020019081526020016000206004013390806001815401808255809150509060018203906000526020600020016000909192909190916101000a81548173ffffffffffffffffffffffffffffffffffffffff021916908373ffffffffffffffffffffffffffffffffffffffff1602179055505060646063340281151561060e57fe5b04905080340360056000828254019250508190555080600760008461ffff1661ffff16815260200190815260200160002060030160008282540192505081905550600454600760008461ffff1661ffff168152602001908152602001600020600201600082825401925050819055505050565b6000809054906101000a900473ffffffffffffffffffffffffffffffffffffffff1673ffffffffffffffffffffffffffffffffffffffff163373ffffffffffffffffffffffffffffffffffffffff161415156106dc57600080fd5b6000809054906101000a900473ffffffffffffffffffffffffffffffffffffffff1673ffffffffffffffffffffffffffffffffffffffff166108fc6005549081150290604051600060405180830381858888f19350505050158015610745573d6000803e3d6000fd5b506000600581905550565b60008060009054906101000a900473ffffffffffffffffffffffffffffffffffffffff1673ffffffffffffffffffffffffffffffffffffffff163373ffffffffffffffffffffffffffffffffffffffff161415156107ad57600080fd5b600554905090565b60015434101515156107c657600080fd5b6144a88261ffff161015156107da57600080fd5b600081511115156107ea57600080fd5b6107f382610d16565b15156107fe57600080fd5b60035434036005600082825401925050819055506001600760008461ffff1661ffff16815260200190815260200160002060000160006101000a81548160ff02191690831515021790555080600760008461ffff1661ffff168152602001908152602001600020600101908051906020019061087b92919061110d565b50600354600760008461ffff1661ffff16815260200190815260200160002060020181905550600354600760008461ffff1661ffff16815260200190815260200160002060030181905550600760008361ffff1661ffff1681526020019081526020016000206004013390806001815401808255809150509060018203906000526020600020016000909192909190916101000a81548173ffffffffffffffffffffffffffffffffffffffff021916908373ffffffffffffffffffffffffffffffffffffffff16021790555050600682908060018154018082558091505090600182039060005260206000209060109182820401919006600202909192909190916101000a81548161ffff021916908361ffff160217905550506002546001600082825401925050819055505050565b600080600080925060009150600760008561ffff1661ffff16815260200190815260200160002060000160009054906101000a900460ff1615156109ee57600080fd5b600090505b600760008561ffff1661ffff16815260200190815260200160002060040180549050811015610abe573373ffffffffffffffffffffffffffffffffffffffff16600760008661ffff1661ffff16815260200190815260200160002060040182815481101515610a5e57fe5b9060005260206000200160009054906101000a900473ffffffffffffffffffffffffffffffffffffffff1673ffffffffffffffffffffffffffffffffffffffff161415610ab15760019250809150610abe565b80806001019150506109f3565b821515610aca57600080fd5b610ad48483610d8e565b50505050565b6000600154905090565b60606000806060600760008661ffff1661ffff168152602001908152602001600020600101600760008761ffff1661ffff16815260200190815260200160002060020154600760008861ffff1661ffff16815260200190815260200160002060030154600760008961ffff1661ffff168152602001908152602001600020600401838054600181600116156101000203166002900480601f016020809104026020016040519081016040528092919081815260200182805460018160011615610100020316600290048015610bfa5780601f10610bcf57610100808354040283529160200191610bfa565b820191906000526020600020905b815481529060010190602001808311610bdd57829003601f168201915b5050505050935080805480602002602001604051908101604052809291908181526020018280548015610c8257602002820191906000526020600020905b8160009054906101000a900473ffffffffffffffffffffffffffffffffffffffff1673ffffffffffffffffffffffffffffffffffffffff1681526020019060010190808311610c38575b5050505050905093509350935093509193509193565b600080600090505b8251811015610d0a578373ffffffffffffffffffffffffffffffffffffffff168382815181101515610cce57fe5b9060200190602002015173ffffffffffffffffffffffffffffffffffffffff161415610cfd5760019150610d0f565b8080600101915050610ca0565b600091505b5092915050565b600080600090505b600680549050811015610d83578261ffff16600682815481101515610d3f57fe5b90600052602060002090601091828204019190066002029054906101000a900461ffff1661ffff161415610d765760009150610d88565b8080600101915050610d1e565b600191505b50919050565b6000806000610d9d8585611066565b9250600760008661ffff1661ffff16815260200190815260200160002060040184815481101515610dca57fe5b9060005260206000200160009054906101000a900473ffffffffffffffffffffffffffffffffffffffff1673ffffffffffffffffffffffffffffffffffffffff166108fc849081150290604051600060405180830381858888f19350505050158015610e3a573d6000803e3d6000fd5b50600454600760008761ffff1661ffff1681526020019081526020016000206002016000828254039250508190555082600760008761ffff1661ffff168152602001908152602001600020600301600082825403925050819055506001600760008761ffff1661ffff168152602001908152602001600020600401805490501415610f1d57600760008661ffff1661ffff1681526020019081526020016000206004016000815481101515610eeb57fe5b9060005260206000200160006101000a81549073ffffffffffffffffffffffffffffffffffffffff021916905561102a565b6001600760008761ffff1661ffff168152602001908152602001600020600401805490500391508390505b8181101561102957600760008661ffff1661ffff16815260200190815260200160002060040160018203815481101515610f7e57fe5b9060005260206000200160009054906101000a900473ffffffffffffffffffffffffffffffffffffffff16600760008761ffff1661ffff16815260200190815260200160002060040182815481101515610fd457fe5b9060005260206000200160006101000a81548173ffffffffffffffffffffffffffffffffffffffff021916908373ffffffffffffffffffffffffffffffffffffffff1602179055508080600101915050610f48565b5b6001600760008761ffff1661ffff1681526020019081526020016000206004018181805490500391508161105e919061118d565b505050505050565b6000806000600760008661ffff1661ffff168152602001908152602001600020600401805490509150600184018214156110c057600760008661ffff1661ffff168152602001908152602001600020600201549250611105565b60026001830183028115156110d157fe5b04905080600760008761ffff1661ffff168152602001908152602001600020600301548584030281151561110157fe5b0492505b505092915050565b828054600181600116156101000203166002900490600052602060002090601f016020900481019282601f1061114e57805160ff191683800117855561117c565b8280016001018555821561117c579182015b8281111561117b578251825591602001919060010190611160565b5b50905061118991906111b9565b5090565b8154818355818111156111b4578183600052602060002091820191016111b391906111b9565b5b505050565b6111db91905b808211156111d75760008160009055506001016111bf565b5090565b905600a165627a7a72305820cda6fd238bba9b712b0230d03db93b64d2de6e64c54edea002395ea00a8a99470029",
  "source": "\n\ncontract PumpAndDump {\n\n  address owner;\n  uint newCoinFee = 0.005 ether;\n  uint newCoinFeeIncrease = 0.001 ether;\n  uint defaultCoinPrice = 0.001 ether;\n  uint coinPriceIncrease = 0.0001 ether;\n  uint devFees = 0;\n  uint16[] coinIds;\n\n  struct Coin {\n    bool exists;\n    string name;\n    uint price;\n    uint marketValue;\n    address[] investors;\n  }\n\n  mapping (uint16 => Coin) coins;\n\n  constructor() public {\n    owner = msg.sender;\n  }\n\n  function kill() external {\n    require(msg.sender == owner);\n    selfdestruct(owner);\n  }\n\n  function getNewCoinFee() public constant returns (uint) {\n    return newCoinFee;\n  }\n\n  function isCoinIdUnique(uint16 newId) private constant returns (bool) {\n    for (uint i = 0; i < coinIds.length; i++) {\n      if (coinIds[i] == newId) {\n        return false;\n      }\n    }\n    return true;\n  }\n\n\n  function createCoin(uint16 id, string name) public payable {\n    require(msg.value >= newCoinFee);\n    require(id < 17576); \n    require(bytes(name).length > 0);\n    require(isCoinIdUnique(id));\n    devFees += msg.value - defaultCoinPrice;\n    coins[id].exists = true;\n    coins[id].name = name;\n    coins[id].price = defaultCoinPrice;\n    coins[id].marketValue = defaultCoinPrice;\n    coins[id].investors.push(msg.sender);\n    coinIds.push(id);\n    newCoinFee += newCoinFeeIncrease;\n  }\n\n  function getCoinIds() public view returns (uint16[]) {\n    return coinIds;\n  }\n\n  function getCoinInfoFromId(uint16 coinId) public view returns (string, uint, uint, address[]) {\n    return (\n      coins[coinId].name,\n      coins[coinId].price,\n      coins[coinId].marketValue,\n      coins[coinId].investors\n    );\n  }\n\n  function getUserCoinMarketValue(uint16 coinId, uint userIndex) private view returns (uint) {\n      uint numInvestors = coins[coinId].investors.length;\n      \n      if (numInvestors == userIndex + 1) {\n        return coins[coinId].price;\n      } else {\n        uint numShares = (numInvestors * (numInvestors + 1)) / 2;\n        return ((numInvestors - userIndex) * coins[coinId].marketValue) / numShares;\n      }\n  }\n\n  function isSenderInvestor(address sender, address[] investors) private pure returns (bool) {\n    for (uint i = 0; i < investors.length; i++) {\n      if (investors[i] == sender) {\n        return true;\n      }\n    }\n    return false;\n  }\n\n  function buyCoin(uint16 coinId) public payable {\n    require(msg.value >= coins[coinId].price);\n    require(coins[coinId].exists);\n    require(!isSenderInvestor(msg.sender, coins[coinId].investors));\n    coins[coinId].investors.push(msg.sender);\n    uint amount = (msg.value * 99) / 100;\n    devFees += msg.value - amount;\n    coins[coinId].marketValue += amount;\n    coins[coinId].price += coinPriceIncrease;\n  }\n\n  function payAndRemoveInvestor(uint16 coinId, uint investorIndex) private {\n    uint value = getUserCoinMarketValue(coinId, investorIndex);\n    coins[coinId].investors[investorIndex].transfer(value);\n    coins[coinId].price -= coinPriceIncrease;\n    coins[coinId].marketValue -= value;\n    if (coins[coinId].investors.length == 1) {\n      delete coins[coinId].investors[0];\n    } else {\n      uint secondLastIndex = coins[coinId].investors.length - 1;\n      for (uint j = investorIndex; j < secondLastIndex; j++) {\n        coins[coinId].investors[j] = coins[coinId].investors[j - 1];\n      }\n    }\n    coins[coinId].investors.length -= 1;\n  }\n\n  function sellCoin(uint16 coinId) public {\n    bool senderIsInvestor = false;\n    uint investorIndex = 0;\n    require(coins[coinId].exists);\n    for (uint i = 0; i < coins[coinId].investors.length; i++) {\n      if (coins[coinId].investors[i] == msg.sender) {\n        senderIsInvestor = true;\n        investorIndex = i;\n        break;\n      }\n    }\n    require(senderIsInvestor);\n    payAndRemoveInvestor(coinId, investorIndex);\n  }\n\n  function getDevFees() public view returns (uint) {\n    require(msg.sender == owner);\n    return devFees;\n  }\n\n  function collectDevFees() public {\n    require(msg.sender == owner);\n    owner.transfer(devFees);\n    devFees = 0;\n  }\n\n  function() public payable {}\n\n}",
  "sourcePath": "/home/XXX-1/smartrim-experiment/for-rlf/0x59670e7f172eafea08f44a308158c65e314a0df9/contracts/0x59670e7f172eafea08f44a308158c65e314a0df9.sol",
  "compiler": {
    "name": "solc",
    "version": "0.4.25+commit.59dbf8f1.Emscripten.clang"
  },
  "schemaVersion": "3.4.16",
  "updatedAt": "2025-08-14T03:54:40.804Z",
  "networkType": "ethereum",
  "devdoc": {
    "methods": {}
  },
  "userdoc": {
    "methods": {}
  }
}