{
  "contractName": "PetBase",
  "abi": [
    {
      "constant": true,
      "inputs": [],
      "name": "cfoAddress",
      "outputs": [
        {
          "name": "",
          "type": "address"
        }
      ],
      "payable": false,
      "stateMutability": "view",
      "type": "function"
    },
    {
      "constant": true,
      "inputs": [],
      "name": "breedTimeout",
      "outputs": [
        {
          "name": "",
          "type": "uint32"
        }
      ],
      "payable": false,
      "stateMutability": "view",
      "type": "function"
    },
    {
      "constant": false,
      "inputs": [],
      "name": "unpause",
      "outputs": [],
      "payable": false,
      "stateMutability": "nonpayable",
      "type": "function"
    },
    {
      "constant": false,
      "inputs": [
        {
          "name": "newCFO",
          "type": "address"
        }
      ],
      "name": "setCFO",
      "outputs": [],
      "payable": false,
      "stateMutability": "nonpayable",
      "type": "function"
    },
    {
      "constant": true,
      "inputs": [],
      "name": "paused",
      "outputs": [
        {
          "name": "",
          "type": "bool"
        }
      ],
      "payable": false,
      "stateMutability": "view",
      "type": "function"
    },
    {
      "constant": false,
      "inputs": [],
      "name": "pause",
      "outputs": [],
      "payable": false,
      "stateMutability": "nonpayable",
      "type": "function"
    },
    {
      "constant": true,
      "inputs": [],
      "name": "owner",
      "outputs": [
        {
          "name": "",
          "type": "address"
        }
      ],
      "payable": false,
      "stateMutability": "view",
      "type": "function"
    },
    {
      "constant": false,
      "inputs": [
        {
          "name": "timeout",
          "type": "uint32"
        }
      ],
      "name": "setBreedTimeout",
      "outputs": [],
      "payable": false,
      "stateMutability": "nonpayable",
      "type": "function"
    },
    {
      "constant": true,
      "inputs": [
        {
          "name": "",
          "type": "address"
        }
      ],
      "name": "ownershipTokenCount",
      "outputs": [
        {
          "name": "",
          "type": "uint256"
        }
      ],
      "payable": false,
      "stateMutability": "view",
      "type": "function"
    },
    {
      "constant": false,
      "inputs": [
        {
          "name": "newOwner",
          "type": "address"
        }
      ],
      "name": "transferOwnership",
      "outputs": [],
      "payable": false,
      "stateMutability": "nonpayable",
      "type": "function"
    },
    {
      "anonymous": false,
      "inputs": [
        {
          "indexed": false,
          "name": "owner",
          "type": "address"
        },
        {
          "indexed": false,
          "name": "petId",
          "type": "uint64"
        },
        {
          "indexed": false,
          "name": "quality",
          "type": "uint16"
        },
        {
          "indexed": false,
          "name": "genes",
          "type": "uint256"
        }
      ],
      "name": "Birth",
      "type": "event"
    },
    {
      "anonymous": false,
      "inputs": [
        {
          "indexed": false,
          "name": "petId",
          "type": "uint64"
        }
      ],
      "name": "Death",
      "type": "event"
    },
    {
      "anonymous": false,
      "inputs": [
        {
          "indexed": false,
          "name": "from",
          "type": "address"
        },
        {
          "indexed": false,
          "name": "to",
          "type": "address"
        },
        {
          "indexed": false,
          "name": "tokenId",
          "type": "uint256"
        }
      ],
      "name": "Transfer",
      "type": "event"
    },
    {
      "anonymous": false,
      "inputs": [],
      "name": "Pause",
      "type": "event"
    },
    {
      "anonymous": false,
      "inputs": [],
      "name": "Unpause",
      "type": "event"
    },
    {
      "constant": true,
      "inputs": [
        {
          "name": "quality",
          "type": "uint16"
        }
      ],
      "name": "recommendedPrice",
      "outputs": [
        {
          "name": "price",
          "type": "uint256"
        }
      ],
      "payable": false,
      "stateMutability": "pure",
      "type": "function"
    },
    {
      "constant": true,
      "inputs": [
        {
          "name": "quality",
          "type": "uint16"
        }
      ],
      "name": "getGradeByQuailty",
      "outputs": [
        {
          "name": "grade",
          "type": "uint8"
        }
      ],
      "payable": false,
      "stateMutability": "pure",
      "type": "function"
    }
  ],
  "bytecode": "0x60806040526000600160146101000a81548160ff02191690831515021790555061a8c0600160156101000a81548163ffffffff021916908363ffffffff16021790555062eaab00600160196101000a81548163ffffffff021916908363ffffffff160217905550336000806101000a81548173ffffffffffffffffffffffffffffffffffffffff021916908373ffffffffffffffffffffffffffffffffffffffff16021790555033600160006101000a81548173ffffffffffffffffffffffffffffffffffffffff021916908373ffffffffffffffffffffffffffffffffffffffff1602179055506109f1806100f66000396000f3006080604052600436106100ba576000357c0100000000000000000000000000000000000000000000000000000000900463ffffffff1680630519ce79146100bf5780632d6c25fa14610116578063349d3dc51461015b5780633f4ba83a146101925780634e0a3379146101a95780635c975abb146101ec5780638456cb591461021b5780638da5cb5b1461023257806390ca9dbf14610289578063be782f58146102d4578063cec21acb14610307578063f2fde38b1461035e575b600080fd5b3480156100cb57600080fd5b506100d46103a1565b604051808273ffffffffffffffffffffffffffffffffffffffff1673ffffffffffffffffffffffffffffffffffffffff16815260200191505060405180910390f35b34801561012257600080fd5b50610145600480360381019080803561ffff1690602001909291905050506103c7565b6040518082815260200191505060405180910390f35b34801561016757600080fd5b50610170610511565b604051808263ffffffff1663ffffffff16815260200191505060405180910390f35b34801561019e57600080fd5b506101a7610527565b005b3480156101b557600080fd5b506101ea600480360381019080803573ffffffffffffffffffffffffffffffffffffffff1690602001909291905050506105e6565b005b3480156101f857600080fd5b506102016106c1565b604051808215151515815260200191505060405180910390f35b34801561022757600080fd5b506102306106d4565b005b34801561023e57600080fd5b50610247610793565b604051808273ffffffffffffffffffffffffffffffffffffffff1673ffffffffffffffffffffffffffffffffffffffff16815260200191505060405180910390f35b34801561029557600080fd5b506102b8600480360381019080803561ffff1690602001909291905050506107b8565b604051808260ff1660ff16815260200191505060405180910390f35b3480156102e057600080fd5b50610305600480360381019080803563ffffffff16906020019092919050505061082c565b005b34801561031357600080fd5b50610348600480360381019080803573ffffffffffffffffffffffffffffffffffffffff1690602001909291905050506108d8565b6040518082815260200191505060405180910390f35b34801561036a57600080fd5b5061039f600480360381019080803573ffffffffffffffffffffffffffffffffffffffff1690602001909291905050506108f0565b005b600160009054906101000a900473ffffffffffffffffffffffffffffffffffffffff1681565b600080600080600080600080600080600061f00061ffff168c61ffff16111515156103f157600080fd5b61100061ffff168c61ffff161015151561040a57600080fd5b6103e89950899a508b61f0000361ffff16985061200061ffff16975060048881151561043257fe5b049650878981151561044057fe5b04955086888a81151561044f57fe5b0681151561045957fe5b0494508685028887028a0303935085602c0a8b029a5085600a0a8b81151561047d57fe5b049a506000851415156104a9578462dcfed20a8b029a5084600702600a0a8b8115156104a557fe5b049a505b6000841415156104f7576298968062dcfed28c028115156104c657fe5b04925086620f424085028115156104d957fe5b049150620f4240828c8503028115156104ee57fe5b049050808b019a505b652d79883d20008b029a5050505050505050505050919050565b600160159054906101000a900463ffffffff1681565b6000809054906101000a900473ffffffffffffffffffffffffffffffffffffffff1673ffffffffffffffffffffffffffffffffffffffff163373ffffffffffffffffffffffffffffffffffffffff1614151561058257600080fd5b600160149054906101000a900460ff16151561059d57600080fd5b6000600160146101000a81548160ff0219169083151502179055507f7805862f689e2f13df9f062ff482ad3ad112aca9e0847911ed832e158c525b3360405160405180910390a1565b6000809054906101000a900473ffffffffffffffffffffffffffffffffffffffff1673ffffffffffffffffffffffffffffffffffffffff163373ffffffffffffffffffffffffffffffffffffffff1614151561064157600080fd5b600073ffffffffffffffffffffffffffffffffffffffff168173ffffffffffffffffffffffffffffffffffffffff161415151561067d57600080fd5b80600160006101000a81548173ffffffffffffffffffffffffffffffffffffffff021916908373ffffffffffffffffffffffffffffffffffffffff16021790555050565b600160149054906101000a900460ff1681565b6000809054906101000a900473ffffffffffffffffffffffffffffffffffffffff1673ffffffffffffffffffffffffffffffffffffffff163373ffffffffffffffffffffffffffffffffffffffff1614151561072f57600080fd5b600160149054906101000a900460ff1615151561074b57600080fd5b60018060146101000a81548160ff0219169083151502179055507f6985a02210a168e66602d3235cb6db0e70f92b3ba4d376a33c0f3d9434bff62560405160405180910390a1565b6000809054906101000a900473ffffffffffffffffffffffffffffffffffffffff1681565b600061f00061ffff168261ffff16111515156107d357600080fd5b61100061ffff168261ffff16101515156107ec57600080fd5b61f00061ffff168261ffff1614156108075760079050610827565b6110008201915061200061ffff168261ffff1681151561082357fe5b0490505b919050565b6000809054906101000a900473ffffffffffffffffffffffffffffffffffffffff1673ffffffffffffffffffffffffffffffffffffffff163373ffffffffffffffffffffffffffffffffffffffff1614151561088757600080fd5b600160199054906101000a900463ffffffff1663ffffffff168163ffffffff16111515156108b457600080fd5b80600160156101000a81548163ffffffff021916908363ffffffff16021790555050565b60046020528060005260406000206000915090505481565b6000809054906101000a900473ffffffffffffffffffffffffffffffffffffffff1673ffffffffffffffffffffffffffffffffffffffff163373ffffffffffffffffffffffffffffffffffffffff1614151561094b57600080fd5b600073ffffffffffffffffffffffffffffffffffffffff168173ffffffffffffffffffffffffffffffffffffffff161415156109c257806000806101000a81548173ffffffffffffffffffffffffffffffffffffffff021916908373ffffffffffffffffffffffffffffffffffffffff1602179055505b505600a165627a7a72305820f4a90788f390448a67b31090069c7022605a135299ecb1c04c4c3029c47076560029",
  "source": "\n\n\n\n\ncontract Ownable {\n    address public owner;\n    address public cfoAddress;\n\n    constructor() public{\n        owner = msg.sender;\n        cfoAddress = msg.sender;\n    }\n\n    modifier onlyOwner() {\n        require(msg.sender == owner);\n        _;\n    }\n    \n    modifier onlyCFO() {\n        require(msg.sender == cfoAddress);\n        _;\n    }\n\n    function transferOwnership(address newOwner) external onlyOwner {\n        if (newOwner != address(0)) {\n            owner = newOwner;\n        }\n    }\n    \n    function setCFO(address newCFO) external onlyOwner {\n        require(newCFO != address(0));\n\n        cfoAddress = newCFO;\n    }\n}\n\n\ncontract Pausable is Ownable {\n    event Pause();\n    event Unpause();\n\n    bool public paused = false;\n\n    \n    modifier whenNotPaused() {\n        require(!paused);\n        _;\n    }\n\n    \n    modifier whenPaused() {\n        require(paused);\n        _;\n    }\n\n\n    \n    function pause() onlyOwner whenNotPaused public {\n        paused = true;\n        emit Pause();\n    }\n\n    \n    function unpause() onlyOwner whenPaused public {\n        paused = false;\n        emit Unpause();\n    }\n}\n\n\ncontract MixGenInterface {\n    function openEgg(uint64 userNumber, uint16 eggQuality) public returns (uint256 genes, uint16 quality);\n    function uniquePet(uint64 newPetId) public returns (uint256 genes, uint16 quality);\n}\n\n\ncontract ExternalContracts is Ownable {\n    MixGenInterface public geneScience;\n    \n    address public marketAddress;\n    \n    function setMixGenAddress(address _address) external onlyOwner {\n        MixGenInterface candidateContract = MixGenInterface(_address);\n        \n        geneScience = candidateContract;\n    }\n    \n    function setMarketAddress(address _address) external onlyOwner {\n        marketAddress = _address;\n    }\n}\n\n\ncontract PopulationControl is Pausable {\n    \n    \n    uint32 public breedTimeout = 12 hours;\n    uint32 maxTimeout = 178 days;\n    \n    function setBreedTimeout(uint32 timeout) external onlyOwner {\n        require(timeout <= maxTimeout);\n        \n        breedTimeout = timeout;\n    }\n}\n\n\n\n\ncontract PetBase is PopulationControl{\n    \n    \n    event Birth(address owner, uint64 petId, uint16 quality, uint256 genes);\n    event Death(uint64 petId);\n    \n    event Transfer(address from, address to, uint256 tokenId);\n    \n    \n    struct Pet {\n        uint256 genes;\n        uint64 birthTime;\n        uint16 quality;\n    }\n    \n    mapping (uint64 => Pet) pets;\n    mapping (uint64 => address) petIndexToOwner;\n    mapping (address => uint256) public ownershipTokenCount;\n    mapping (uint64 => uint64) breedTimeouts;\n \n    uint64 tokensCount;\n    uint64 lastTokenId;\n\n    \n    function createPet(\n        uint256 _genes,\n        uint16 _quality,\n        address _owner\n    )\n        internal\n        returns (uint64)\n    {\n        Pet memory _pet = Pet({\n            genes: _genes,\n            birthTime: uint64(now),\n            quality: _quality\n        });\n               \n        lastTokenId++;\n        tokensCount++;\n\t\t\n        uint64 newPetId = lastTokenId;\n                \n        pets[newPetId] = _pet;\n        \n        _transfer(0, _owner, newPetId);\n        \n        breedTimeouts[newPetId] = uint64( now + (breedTimeout / 2) );\n        emit Birth(_owner, newPetId, _quality, _genes);\n\n        return newPetId;\n    }\n    \n    \n    function _transfer(address _from, address _to, uint256 _tokenId) internal {\n        uint64 _tokenId64bit = uint64(_tokenId);\n        \n        ownershipTokenCount[_to]++;\n        petIndexToOwner[_tokenId64bit] = _to;\n        if (_from != address(0)) {\n            ownershipTokenCount[_from]--;\n        }\n        \n         emit Transfer(_from, _to, _tokenId);\n    }\n    \n\t\n    function recommendedPrice(uint16 quality) public pure returns(uint256 price) {\n        \n        require(quality <= uint16(0xF000));\n        require(quality >= uint16(0x1000));\n        \n        uint256 startPrice = 1000;\n        \n        price = startPrice;\n        \n        uint256 revertQuality = uint16(0xF000) - quality;\n        uint256 oneLevel = uint16(0x2000);\n        uint256 oneQuart = oneLevel/4;\n        \n        uint256 fullLevels = revertQuality/oneLevel;\n        uint256 fullQuarts =  (revertQuality % oneLevel) / oneQuart ;\n        \n        uint256 surplus = revertQuality - (fullLevels*oneLevel) - (fullQuarts*oneQuart);\n        \n        \n        \n        price = price * 44**fullLevels;\n        price = price / 10**fullLevels;\n        \n        \n        if(fullQuarts != 0)\n        {\n            price = price * 14483154**fullQuarts;\n            price = price / 10**(7 * fullQuarts);\n        }\n\n        \n        if(surplus != 0)\n        {\n            uint256 nextQuartPrice = (price * 14483154) / 10**7;\n            uint256 surPlusCoefficient = surplus * 10**6  /oneQuart;\n            uint256 surPlusPrice = ((nextQuartPrice - price) * surPlusCoefficient) / 10**6;\n            \n            price+= surPlusPrice;\n        }\n        \n        price*= 50 szabo;\n    }\n    \n\t\n    function getGradeByQuailty(uint16 quality) public pure returns (uint8 grade) {\n        \n        require(quality <= uint16(0xF000));\n        require(quality >= uint16(0x1000));\n        \n        if(quality == uint16(0xF000))\n            return 7;\n        \n        quality+= uint16(0x1000);\n        \n        return uint8 ( quality / uint16(0x2000) );\n    }\n}\n\n\ncontract PetOwnership is PetBase {\n\n    \n    function transfer(\n        address _to,\n        uint256 _tokenId\n    )\n        external\n        whenNotPaused\n    {\n        require(_to != address(0));\n        require(_to != address(this));\n        require(_owns(msg.sender, uint64(_tokenId)));\n\n        _transfer(msg.sender, _to, _tokenId);\n    }\n \n\t\n    function _owns(address _claimant, uint64 _tokenId) internal view returns (bool) {\n        return petIndexToOwner[_tokenId] == _claimant;\n    }\n    \n\t\n    function ownerOf(uint256 _tokenId) external view returns (address owner) {\n        uint64 _tokenId64bit = uint64(_tokenId);\n        owner = petIndexToOwner[_tokenId64bit];\n        \n        require(owner != address(0));\n    }   \n}\n\n\ncontract EggMinting is PetOwnership{\n    \n    uint8 public uniquePetsCount = 100;\n    \n    uint16 public globalPresaleLimit = 2500;\n\n    mapping (uint16 => uint16) public eggLimits;\n    mapping (uint16 => uint16) public purchesedEggs;\n    \n    constructor() public {\n        eggLimits[55375] = 200;\n        eggLimits[48770] = 1100;\n        eggLimits[39904] = 200;\n        eggLimits[32223] = 25;\n    }\n    \n    function totalSupply() public view returns (uint) {\n        return tokensCount;\n    }\n    \n    function setEggLimit(uint16 quality, uint16 limit) external onlyOwner {\n        eggLimits[quality] = limit;\n    }\n\n    function eggAvailable(uint16 quality) constant public returns(bool) {\n        \n        if( quality < 48000 && tokensCount < ( 100 + uniquePetsCount ) )\n           return false;\n        \n        return (eggLimits[quality] > purchesedEggs[quality]);\n    }\n}\n\n\ncontract EggPurchase is EggMinting, ExternalContracts {\n    \n    uint16[4] discountThresholds =    [20, 100, 500, 1000];\n    uint8[4]  discountPercents   =    [75, 50,  30,  20  ];\n    \n\t\n    function purchaseEgg(uint64 userNumber, uint16 quality) external payable whenNotPaused {\n\n        require(tokensCount >= uniquePetsCount);\n\t\t\n        \n        require(eggAvailable(quality));\n        \n        \n        require(tokensCount <= globalPresaleLimit);\n\n        \n        uint256 eggPrice = ( recommendedPrice(quality) * (100 - getCurrentDiscountPercent()) ) / 100;\n\n        \n        require(msg.value >= eggPrice);\n        \n        \n        purchesedEggs[quality]++;\n        \n        \n        uint256 childGenes;\n        uint16 childQuality;\n\n        \n        (childGenes, childQuality) = geneScience.openEgg(userNumber, quality);\n         \n        \n        createPet(\n            childGenes,      \n            childQuality,    \n            msg.sender       \n        );\n    }\n    \n    function getCurrentDiscountPercent() constant public returns (uint8 discount) {\n        \n        for(uint8 i = 0; i <= 3; i++)\n        {\n            if(tokensCount < (discountThresholds[i] + uniquePetsCount ))\n                return discountPercents[i];\n        }\n        \n        return 10;\n    }\n}\n\n\ncontract PreSale is EggPurchase {\n    \n    constructor() public {\n        paused = true;\n    }\n        \n    function generateUniquePets(uint8 count) external onlyOwner whenNotPaused {\n        \n        require(marketAddress != address(0));\n        require(address(geneScience) != address(0));\n        \n        uint256 childGenes;\n        uint16 childQuality;\n        uint64 newPetId;\n\n        for(uint8 i = 0; i< count; i++)\n        {\n            if(tokensCount >= uniquePetsCount)\n                continue;\n            \n            newPetId = tokensCount+1;\n\n            (childGenes, childQuality) = geneScience.uniquePet(newPetId);\n            createPet(childGenes, childQuality, marketAddress);\n        }\n    }\n    \n    function getPet(uint256 _id) external view returns (\n        uint64 birthTime,\n        uint256 genes,\n        uint64 breedTimeout,\n        uint16 quality,\n        address owner\n    ) {\n        uint64 _tokenId64bit = uint64(_id);\n        \n        Pet storage pet = pets[_tokenId64bit];\n        \n        birthTime = pet.birthTime;\n        genes = pet.genes;\n        breedTimeout = uint64(breedTimeouts[_tokenId64bit]);\n        quality = pet.quality;\n        owner = petIndexToOwner[_tokenId64bit];\n    }\n    \n    function unpause() public onlyOwner whenPaused {\n        require(address(geneScience) != address(0));\n\n        super.unpause();\n    }\n    \n    function withdrawBalance(uint256 summ) external onlyCFO {\n        cfoAddress.transfer(summ);\n    }\n}",
  "sourcePath": "/home/XXX-1/smartrim-experiment/for-rlf/0x876c6fbec71a498155cfa811f9d10fd3bb67e4c5/contracts/0x876c6fbec71a498155cfa811f9d10fd3bb67e4c5.sol",
  "compiler": {
    "name": "solc",
    "version": "0.4.25+commit.59dbf8f1.Emscripten.clang"
  },
  "schemaVersion": "3.4.16",
  "updatedAt": "2025-08-14T03:59:40.102Z",
  "devdoc": {
    "methods": {}
  },
  "userdoc": {
    "methods": {}
  }
}