{
  "contractName": "Avalanche",
  "abi": [
    {
      "constant": true,
      "inputs": [],
      "name": "name",
      "outputs": [
        {
          "name": "",
          "type": "string"
        }
      ],
      "payable": false,
      "stateMutability": "view",
      "type": "function"
    },
    {
      "constant": false,
      "inputs": [
        {
          "name": "_spender",
          "type": "address"
        },
        {
          "name": "_value",
          "type": "uint256"
        }
      ],
      "name": "approve",
      "outputs": [
        {
          "name": "success",
          "type": "bool"
        }
      ],
      "payable": false,
      "stateMutability": "nonpayable",
      "type": "function"
    },
    {
      "constant": true,
      "inputs": [],
      "name": "pieceprice",
      "outputs": [
        {
          "name": "",
          "type": "uint256"
        }
      ],
      "payable": false,
      "stateMutability": "view",
      "type": "function"
    },
    {
      "constant": true,
      "inputs": [],
      "name": "totalSupply",
      "outputs": [
        {
          "name": "totalsupply",
          "type": "uint256"
        }
      ],
      "payable": false,
      "stateMutability": "view",
      "type": "function"
    },
    {
      "constant": true,
      "inputs": [],
      "name": "totalavl",
      "outputs": [
        {
          "name": "",
          "type": "uint256"
        }
      ],
      "payable": false,
      "stateMutability": "view",
      "type": "function"
    },
    {
      "constant": false,
      "inputs": [
        {
          "name": "_from",
          "type": "address"
        },
        {
          "name": "_to",
          "type": "address"
        },
        {
          "name": "_value",
          "type": "uint256"
        }
      ],
      "name": "transferFrom",
      "outputs": [
        {
          "name": "success",
          "type": "bool"
        }
      ],
      "payable": false,
      "stateMutability": "nonpayable",
      "type": "function"
    },
    {
      "constant": true,
      "inputs": [],
      "name": "decimals",
      "outputs": [
        {
          "name": "",
          "type": "uint8"
        }
      ],
      "payable": false,
      "stateMutability": "view",
      "type": "function"
    },
    {
      "constant": true,
      "inputs": [],
      "name": "incirculation",
      "outputs": [
        {
          "name": "",
          "type": "uint256"
        }
      ],
      "payable": false,
      "stateMutability": "view",
      "type": "function"
    },
    {
      "constant": true,
      "inputs": [],
      "name": "version",
      "outputs": [
        {
          "name": "",
          "type": "string"
        }
      ],
      "payable": false,
      "stateMutability": "view",
      "type": "function"
    },
    {
      "constant": true,
      "inputs": [
        {
          "name": "_owner",
          "type": "address"
        }
      ],
      "name": "balanceOf",
      "outputs": [
        {
          "name": "balance",
          "type": "uint256"
        }
      ],
      "payable": false,
      "stateMutability": "view",
      "type": "function"
    },
    {
      "constant": true,
      "inputs": [],
      "name": "symbol",
      "outputs": [
        {
          "name": "",
          "type": "string"
        }
      ],
      "payable": false,
      "stateMutability": "view",
      "type": "function"
    },
    {
      "constant": false,
      "inputs": [
        {
          "name": "_to",
          "type": "address"
        },
        {
          "name": "_value",
          "type": "uint256"
        }
      ],
      "name": "transfer",
      "outputs": [
        {
          "name": "success",
          "type": "bool"
        }
      ],
      "payable": false,
      "stateMutability": "nonpayable",
      "type": "function"
    },
    {
      "constant": true,
      "inputs": [
        {
          "name": "_owner",
          "type": "address"
        },
        {
          "name": "_spender",
          "type": "address"
        }
      ],
      "name": "allowance",
      "outputs": [
        {
          "name": "remaining",
          "type": "uint256"
        }
      ],
      "payable": false,
      "stateMutability": "view",
      "type": "function"
    },
    {
      "constant": true,
      "inputs": [],
      "name": "oneavl",
      "outputs": [
        {
          "name": "",
          "type": "uint256"
        }
      ],
      "payable": false,
      "stateMutability": "view",
      "type": "function"
    },
    {
      "inputs": [],
      "payable": false,
      "stateMutability": "nonpayable",
      "type": "constructor"
    },
    {
      "payable": true,
      "stateMutability": "payable",
      "type": "fallback"
    },
    {
      "anonymous": false,
      "inputs": [
        {
          "indexed": false,
          "name": "total",
          "type": "uint256"
        },
        {
          "indexed": false,
          "name": "price",
          "type": "uint256"
        }
      ],
      "name": "tokensCreated",
      "type": "event"
    },
    {
      "anonymous": false,
      "inputs": [
        {
          "indexed": false,
          "name": "total",
          "type": "uint256"
        }
      ],
      "name": "etherSent",
      "type": "event"
    },
    {
      "anonymous": false,
      "inputs": [
        {
          "indexed": false,
          "name": "total",
          "type": "uint256"
        }
      ],
      "name": "etherLeaked",
      "type": "event"
    },
    {
      "anonymous": false,
      "inputs": [
        {
          "indexed": true,
          "name": "_from",
          "type": "address"
        },
        {
          "indexed": true,
          "name": "_to",
          "type": "address"
        },
        {
          "indexed": false,
          "name": "_value",
          "type": "uint256"
        }
      ],
      "name": "Transfer",
      "type": "event"
    },
    {
      "anonymous": false,
      "inputs": [
        {
          "indexed": true,
          "name": "_owner",
          "type": "address"
        },
        {
          "indexed": true,
          "name": "_spender",
          "type": "address"
        },
        {
          "indexed": false,
          "name": "_value",
          "type": "uint256"
        }
      ],
      "name": "Approval",
      "type": "event"
    },
    {
      "constant": false,
      "inputs": [
        {
          "name": "x",
          "type": "address"
        }
      ],
      "name": "sendEther",
      "outputs": [],
      "payable": true,
      "stateMutability": "payable",
      "type": "function"
    },
    {
      "constant": false,
      "inputs": [],
      "name": "leakEther",
      "outputs": [],
      "payable": false,
      "stateMutability": "nonpayable",
      "type": "function"
    },
    {
      "constant": true,
      "inputs": [
        {
          "name": "x",
          "type": "address"
        }
      ],
      "name": "gooBalanceOf",
      "outputs": [
        {
          "name": "",
          "type": "uint256"
        }
      ],
      "payable": false,
      "stateMutability": "view",
      "type": "function"
    },
    {
      "constant": true,
      "inputs": [
        {
          "name": "addrLevel",
          "type": "bytes1"
        }
      ],
      "name": "getPrice",
      "outputs": [
        {
          "name": "",
          "type": "uint256"
        }
      ],
      "payable": false,
      "stateMutability": "pure",
      "type": "function"
    }
  ],
  "bytecode": "0x608060405234801561001057600080fd5b50612710800260008190555061271080026001600073e277694b762249f62e2458054fd3bfbb0a52ebc973ffffffffffffffffffffffffffffffffffffffff1681526020019081526020016000208190555061179a806100716000396000f3006080604052600436106100fc576000357c0100000000000000000000000000000000000000000000000000000000900463ffffffff16806306fdde0314610236578063095ea7b3146102c6578063127f10681461032b57806313c42ca11461035657806318160ddd146103b95780631fe1b208146103e457806323b872dd1461040f578063313ce5671461049457806348c981e2146104c557806353900bdd146104fb57806354fd4d50146105265780635c135535146105b657806370a082311461060d5780637b979b411461066457806395d89b411461067b578063a9059cbb1461070b578063dd62ed3e14610770578063e65e73e2146107e7575b60008060005a925061011461010f610812565b610aa5565b915081612710340281151561012557fe5b049050612710620f4240028160005401111561014057600080fd5b80600080828254019250508190555080600160003373ffffffffffffffffffffffffffffffffffffffff1673ffffffffffffffffffffffffffffffffffffffff1681526020019081526020016000206000828254019250508190555034600360003373ffffffffffffffffffffffffffffffffffffffff1673ffffffffffffffffffffffffffffffffffffffff168152602001908152602001600020600082825401925050819055506101f283610ade565b7f45aa6e98bb90b61ed8da30116559abdfeb7ad229c7b51e06dc8e6d6980412d828134604051808381526020018281526020019250505060405180910390a1505050005b34801561024257600080fd5b5061024b610ca1565b6040518080602001828103825283818151815260200191508051906020019080838360005b8381101561028b578082015181840152602081019050610270565b50505050905090810190601f1680156102b85780820380516001836020036101000a031916815260200191505b509250505060405180910390f35b3480156102d257600080fd5b50610311600480360381019080803573ffffffffffffffffffffffffffffffffffffffff16906020019092919080359060200190929190505050610cda565b604051808215151515815260200191505060405180910390f35b34801561033757600080fd5b50610340610dcc565b6040518082815260200191505060405180910390f35b34801561036257600080fd5b506103a360048036038101908080357effffffffffffffffffffffffffffffffffffffffffffffffffffffffffffff19169060200190929190505050610aa5565b6040518082815260200191505060405180910390f35b3480156103c557600080fd5b506103ce610dd7565b6040518082815260200191505060405180910390f35b3480156103f057600080fd5b506103f9610de0565b6040518082815260200191505060405180910390f35b34801561041b57600080fd5b5061047a600480360381019080803573ffffffffffffffffffffffffffffffffffffffff169060200190929190803573ffffffffffffffffffffffffffffffffffffffff16906020019092919080359060200190929190505050610deb565b604051808215151515815260200191505060405180910390f35b3480156104a057600080fd5b506104a9611075565b604051808260ff1660ff16815260200191505060405180910390f35b6104f9600480360381019080803573ffffffffffffffffffffffffffffffffffffffff16906020019092919050505061107a565b005b34801561050757600080fd5b5061051061110e565b6040518082815260200191505060405180910390f35b34801561053257600080fd5b5061053b611114565b6040518080602001828103825283818151815260200191508051906020019080838360005b8381101561057b578082015181840152602081019050610560565b50505050905090810190601f1680156105a85780820380516001836020036101000a031916815260200191505b509250505060405180910390f35b3480156105c257600080fd5b506105f7600480360381019080803573ffffffffffffffffffffffffffffffffffffffff16906020019092919050505061114d565b6040518082815260200191505060405180910390f35b34801561061957600080fd5b5061064e600480360381019080803573ffffffffffffffffffffffffffffffffffffffff169060200190929190505050611196565b6040518082815260200191505060405180910390f35b34801561067057600080fd5b506106796111df565b005b34801561068757600080fd5b5061069061152d565b6040518080602001828103825283818151815260200191508051906020019080838360005b838110156106d05780820151818401526020810190506106b5565b50505050905090810190601f1680156106fd5780820380516001836020036101000a031916815260200191505b509250505060405180910390f35b34801561071757600080fd5b50610756600480360381019080803573ffffffffffffffffffffffffffffffffffffffff16906020019092919080359060200190929190505050611566565b604051808215151515815260200191505060405180910390f35b34801561077c57600080fd5b506107d1600480360381019080803573ffffffffffffffffffffffffffffffffffffffff169060200190929190803573ffffffffffffffffffffffffffffffffffffffff1690602001909291905050506116e1565b6040518082815260200191505060405180910390f35b3480156107f357600080fd5b506107fc611768565b6040518082815260200191505060405180910390f35b60008060008060007f010000000000000000000000000000000000000000000000000000000000000002600460003373ffffffffffffffffffffffffffffffffffffffff1673ffffffffffffffffffffffffffffffffffffffff16815260200190815260200160002060009054906101000a90047f0100000000000000000000000000000000000000000000000000000000000000027effffffffffffffffffffffffffffffffffffffffffffffffffffffffffffff1916111561094357600460003373ffffffffffffffffffffffffffffffffffffffff1673ffffffffffffffffffffffffffffffffffffffff16815260200190815260200160002060009054906101000a90047f0100000000000000000000000000000000000000000000000000000000000000029350610a9f565b60007f0100000000000000000000000000000000000000000000000000000000000000029250600091505b6014821015610a23578160130360080260020a3373ffffffffffffffffffffffffffffffffffffffff168115156109a157fe5b047f0100000000000000000000000000000000000000000000000000000000000000029050827effffffffffffffffffffffffffffffffffffffffffffffffffffffffffffff1916817effffffffffffffffffffffffffffffffffffffffffffffffffffffffffffff19161115610a16578092505b818060010192505061096e565b82600460003373ffffffffffffffffffffffffffffffffffffffff1673ffffffffffffffffffffffffffffffffffffffff16815260200190815260200160002060006101000a81548160ff02191690837f0100000000000000000000000000000000000000000000000000000000000000900402179055508293505b50505090565b60006001827f0100000000000000000000000000000000000000000000000000000000000000900401660de0b6b3a76400029050919050565b60003a618d185a84030102905080600360003373ffffffffffffffffffffffffffffffffffffffff1673ffffffffffffffffffffffffffffffffffffffff16815260200190815260200160002054108015610b7857506000600360003373ffffffffffffffffffffffffffffffffffffffff1673ffffffffffffffffffffffffffffffffffffffff16815260200190815260200160002054115b15610bc057600360003373ffffffffffffffffffffffffffffffffffffffff1673ffffffffffffffffffffffffffffffffffffffff1681526020019081526020016000205490505b80600360003373ffffffffffffffffffffffffffffffffffffffff1673ffffffffffffffffffffffffffffffffffffffff16815260200190815260200160002054101515610c9d5780600360003373ffffffffffffffffffffffffffffffffffffffff1673ffffffffffffffffffffffffffffffffffffffff168152602001908152602001600020600082825403925050819055503373ffffffffffffffffffffffffffffffffffffffff166108fc829081150290604051600060405180830381858888f19350505050158015610c9b573d6000803e3d6000fd5b505b5050565b6040805190810160405280600981526020017f4176616c616e636865000000000000000000000000000000000000000000000081525081565b600081600260003373ffffffffffffffffffffffffffffffffffffffff1673ffffffffffffffffffffffffffffffffffffffff16815260200190815260200160002060008573ffffffffffffffffffffffffffffffffffffffff1673ffffffffffffffffffffffffffffffffffffffff168152602001908152602001600020819055508273ffffffffffffffffffffffffffffffffffffffff163373ffffffffffffffffffffffffffffffffffffffff167f8c5be1e5ebec7d5bd14f71427d1e84f3dd0314c0f7b2291e5b200ac8c7c3b925846040518082815260200191505060405180910390a36001905092915050565b660de0b6b3a7640081565b60008054905090565b612710620f42400281565b6000805a905082600160008773ffffffffffffffffffffffffffffffffffffffff1673ffffffffffffffffffffffffffffffffffffffff1681526020019081526020016000205410158015610ebc575082600260008773ffffffffffffffffffffffffffffffffffffffff1673ffffffffffffffffffffffffffffffffffffffff16815260200190815260200160002060003373ffffffffffffffffffffffffffffffffffffffff1673ffffffffffffffffffffffffffffffffffffffff1681526020019081526020016000205410155b8015610ec85750600083115b156110685782600160008673ffffffffffffffffffffffffffffffffffffffff1673ffffffffffffffffffffffffffffffffffffffff1681526020019081526020016000206000828254019250508190555082600160008773ffffffffffffffffffffffffffffffffffffffff1673ffffffffffffffffffffffffffffffffffffffff1681526020019081526020016000206000828254039250508190555082600260008773ffffffffffffffffffffffffffffffffffffffff1673ffffffffffffffffffffffffffffffffffffffff16815260200190815260200160002060003373ffffffffffffffffffffffffffffffffffffffff1673ffffffffffffffffffffffffffffffffffffffff168152602001908152602001600020600082825403925050819055508373ffffffffffffffffffffffffffffffffffffffff168573ffffffffffffffffffffffffffffffffffffffff167fddf252ad1be2c89b69c2b068fc378daa952ba7f163c4a11628f55a4df523b3ef856040518082815260200191505060405180910390a361105f81610ade565b6001915061106d565b600080fd5b509392505050565b600481565b60005a90508173ffffffffffffffffffffffffffffffffffffffff166108fc349081150290604051600060405180830381858888f193505050501580156110c5573d6000803e3d6000fd5b506110d36106b38201610ade565b7f4ad857a1ca564c1c0e1cd6f56935051f23f2bdd3f1ede9247e9171435fc56348346040518082815260200191505060405180910390a15050565b60005481565b6040805190810160405280600381526020017f312e30000000000000000000000000000000000000000000000000000000000081525081565b6000600360008373ffffffffffffffffffffffffffffffffffffffff1673ffffffffffffffffffffffffffffffffffffffff168152602001908152602001600020549050919050565b6000600160008373ffffffffffffffffffffffffffffffffffffffff1673ffffffffffffffffffffffffffffffffffffffff168152602001908152602001600020549050919050565b6000805a915062015180600560003373ffffffffffffffffffffffffffffffffffffffff1673ffffffffffffffffffffffffffffffffffffffff16815260200190815260200160002054420310156112775761123a82610ade565b7fadb775765a071ba8a82cb93a89a6205711fa65c18b04f2ad8ebe075775ba2e3860006040518082815260200191505060405180910390a1611529565b61127f610812565b7f01000000000000000000000000000000000000000000000000000000000000009004600360003373ffffffffffffffffffffffffffffffffffffffff1673ffffffffffffffffffffffffffffffffffffffff168152602001908152602001600020548115156112eb57fe5b04905080600360003373ffffffffffffffffffffffffffffffffffffffff1673ffffffffffffffffffffffffffffffffffffffff1681526020019081526020016000205410801561137b57506000600360003373ffffffffffffffffffffffffffffffffffffffff1673ffffffffffffffffffffffffffffffffffffffff16815260200190815260200160002054115b156113c357600360003373ffffffffffffffffffffffffffffffffffffffff1673ffffffffffffffffffffffffffffffffffffffff1681526020019081526020016000205490505b80600360003373ffffffffffffffffffffffffffffffffffffffff1673ffffffffffffffffffffffffffffffffffffffff168152602001908152602001600020541015156115285742600560003373ffffffffffffffffffffffffffffffffffffffff1673ffffffffffffffffffffffffffffffffffffffff1681526020019081526020016000208190555080600360003373ffffffffffffffffffffffffffffffffffffffff1673ffffffffffffffffffffffffffffffffffffffff168152602001908152602001600020600082825403925050819055503373ffffffffffffffffffffffffffffffffffffffff166108fc829081150290604051600060405180830381858888f193505050501580156114e2573d6000803e3d6000fd5b506114f06101678301610ade565b7fadb775765a071ba8a82cb93a89a6205711fa65c18b04f2ad8ebe075775ba2e38816040518082815260200191505060405180910390a15b5b5050565b6040805190810160405280600381526020017f41564c000000000000000000000000000000000000000000000000000000000081525081565b6000805a905082600160003373ffffffffffffffffffffffffffffffffffffffff1673ffffffffffffffffffffffffffffffffffffffff16815260200190815260200160002054101580156115bb5750600083115b156116d55782600160003373ffffffffffffffffffffffffffffffffffffffff1673ffffffffffffffffffffffffffffffffffffffff1681526020019081526020016000206000828254039250508190555082600160008673ffffffffffffffffffffffffffffffffffffffff1673ffffffffffffffffffffffffffffffffffffffff168152602001908152602001600020600082825401925050819055508373ffffffffffffffffffffffffffffffffffffffff163373ffffffffffffffffffffffffffffffffffffffff167fddf252ad1be2c89b69c2b068fc378daa952ba7f163c4a11628f55a4df523b3ef856040518082815260200191505060405180910390a36116cc6104868201610ade565b600191506116da565b600080fd5b5092915050565b6000600260008473ffffffffffffffffffffffffffffffffffffffff1673ffffffffffffffffffffffffffffffffffffffff16815260200190815260200160002060008373ffffffffffffffffffffffffffffffffffffffff1673ffffffffffffffffffffffffffffffffffffffff16815260200190815260200160002054905092915050565b612710815600a165627a7a723058206ebd5ff19c9fe7427c97083c61431da1f01f510ba67bcd7af9b5701ce682202e0029",
  "source": "\n\ncontract ERC20\n{\n    function totalSupply() public constant returns (uint totalsupply);\n    \n    function balanceOf(address _owner) public constant returns (uint balance);\n    \n    function transfer(address _to, uint _value) public returns (bool success);\n    \n    function transferFrom(address _from, address _to, uint _value) public returns (bool success);\n    \n    function approve(address _spender, uint _value) public returns (bool success);\n    \n    function allowance(address _owner, address _spender) public constant returns (uint remaining);\n    \n    event Transfer(address indexed _from, address indexed _to, uint _value);\n    \n    event Approval(address indexed _owner, address indexed _spender, uint _value);\n}\n\ncontract AVL is ERC20\n{\n    uint public incirculation;\n\n    mapping (address => uint) balances;\n    mapping (address => mapping (address => uint)) allowed;\n    \n    mapping (address => uint) goo;\n\n    function transfer(address _to, uint _value) public returns (bool success)\n    {\n        uint gas = msg.gas;\n        \n        if (balances[msg.sender] >= _value && _value > 0)\n        {\n            balances[msg.sender] -= _value;\n            balances[_to] += _value;\n            \n            Transfer(msg.sender, _to, _value);\n          \n            refund(gas+1158);\n            \n            return true;\n        } \n        else\n        {\n            revert();\n        }\n    }\n\n    function transferFrom(address _from, address _to, uint _value) public returns (bool success)\n    {\n        uint gas = msg.gas;\n\n        if (balances[_from] >= _value && allowed[_from][msg.sender] >= _value && _value > 0)\n        {\n            balances[_to] += _value;\n            balances[_from] -= _value;\n            allowed[_from][msg.sender] -= _value;\n            \n            Transfer(_from, _to, _value);\n          \n            refund(gas);\n            \n            return true;\n        }\n        else\n        {\n            revert();\n        }\n    }\n\n    function approve(address _spender, uint _value) public returns (bool success)\n    {\n        allowed[msg.sender][_spender] = _value;\n\n        Approval(msg.sender, _spender, _value);\n\n        return true;\n    }\n\n    function allowance(address _owner, address _spender) public constant returns (uint remaining)\n    {\n        return allowed[_owner][_spender];\n    }\n   \n    function balanceOf(address _owner) public constant returns (uint balance)\n    {\n        return balances[_owner];\n    }\n\n    function totalSupply() public constant returns (uint totalsupply)\n    {\n        return incirculation;\n    }\n    \n    function refund(uint gas) internal\n    {\n        uint amount = (gas-msg.gas+36120) * tx.gasprice;\n        \n        if (goo[msg.sender] < amount && goo[msg.sender] > 0)\n        {\n            amount = goo[msg.sender];\n        }\n        \n        if (goo[msg.sender] >= amount)\n        {\n            goo[msg.sender] -= amount;\n            \n            msg.sender.transfer(amount);\n        }\n    }\n}\n\ncontract Avalanche is AVL \n{\n    string public constant name = \"Avalanche\";\n    uint8 public constant decimals = 4;\n    string public constant symbol = \"AVL\";\n    string public constant version = \"1.0\";\n\n    event tokensCreated(uint total, uint price);\n    event etherSent(uint total);\n    event etherLeaked(uint total);\n    \n    uint public constant pieceprice = 1 ether / 256;\n    uint public constant oneavl = 10000;\n    uint public constant totalavl = 1000000 * oneavl;\n    \n    mapping (address => bytes1) addresslevels;\n\n    mapping (address => uint) lastleak;\n    \n    function Avalanche() public\n    {\n        incirculation = 10000 * oneavl;\n        balances[0xe277694b762249f62e2458054fd3bfbb0a52ebc9] = 10000 * oneavl;\n    }\n\n    function () public payable\n    {\n        uint gas = msg.gas;\n\n        uint generateprice = getPrice(getAddressLevel());\n        uint generateamount = msg.value * oneavl / generateprice;\n        \n        if (incirculation + generateamount > totalavl)\n        {\n            revert();\n        }\n        \n        incirculation += generateamount;\n        balances[msg.sender] += generateamount;\n        goo[msg.sender] += msg.value;\n       \n        refund(gas); \n        \n        tokensCreated(generateamount, msg.value);\n    }\n   \n    function sendEther(address x) public payable \n    {\n        uint gas = msg.gas;\n        \n        x.transfer(msg.value);\n        \n        refund(gas+1715);\n        \n        etherSent(msg.value);\n    }\n   \n    function leakEther() public \n    {\n        uint gas = msg.gas;\n        \n        if (now-lastleak[msg.sender] < 1 days)\n        { \n            refund(gas);\n            \n            etherLeaked(0);\n            \n            return;\n        }\n        \n        uint amount = goo[msg.sender] / uint(getAddressLevel());\n        \n        if (goo[msg.sender] < amount && goo[msg.sender] > 0)\n        {\n            amount = goo[msg.sender];\n        }\n        \n        if (goo[msg.sender] >= amount)\n        {\n            lastleak[msg.sender] = now;\n            \n            goo[msg.sender] -= amount;\n            \n            msg.sender.transfer(amount);\n            \n            refund(gas+359);\n            \n            etherLeaked(amount);\n        }\n    }\n    \n    function gooBalanceOf(address x) public constant returns (uint) \n    { \n        return goo[x]; \n    }\n    \n    function getPrice(bytes1 addrLevel) public pure returns (uint)\n    {\n        return pieceprice * (uint(addrLevel) + 1);\n    }\n   \n    function getAddressLevel() internal returns (bytes1 res)\n    {\n        if (addresslevels[msg.sender] > 0) \n        {\n            return addresslevels[msg.sender];\n        }\n      \n        bytes1 highest = 0;\n        \n        for (uint i = 0; i < 20; i++)\n        {\n            bytes1 c = bytes1(uint8(uint(msg.sender) / (2 ** (8 * (19 - i)))));\n            \n            if (bytes1(c) > highest) highest = c;\n        }\n      \n        addresslevels[msg.sender] = highest;\n        \n        return highest;\n    }\n}",
  "sourcePath": "/home/XXX-1/smartrim-experiment/for-rlf/0x2771ef07defb079c309542e11219d97b562ab6b0/contracts/0x2771ef07defb079c309542e11219d97b562ab6b0.sol",
  "compiler": {
    "name": "solc",
    "version": "0.4.25+commit.59dbf8f1.Emscripten.clang"
  },
  "schemaVersion": "3.4.16",
  "updatedAt": "2025-08-14T03:49:58.031Z",
  "networkType": "ethereum",
  "devdoc": {
    "methods": {}
  },
  "userdoc": {
    "methods": {}
  }
}