{
  "contractName": "RailzTokenSale",
  "abi": [
    {
      "constant": true,
      "inputs": [],
      "name": "presaleendTime",
      "outputs": [
        {
          "name": "",
          "type": "uint256"
        }
      ],
      "payable": false,
      "stateMutability": "view",
      "type": "function"
    },
    {
      "constant": false,
      "inputs": [
        {
          "name": "wallets",
          "type": "address[]"
        }
      ],
      "name": "batchTransferToken",
      "outputs": [],
      "payable": false,
      "stateMutability": "nonpayable",
      "type": "function"
    },
    {
      "constant": true,
      "inputs": [],
      "name": "publicsalesendTime",
      "outputs": [
        {
          "name": "",
          "type": "uint256"
        }
      ],
      "payable": false,
      "stateMutability": "view",
      "type": "function"
    },
    {
      "constant": true,
      "inputs": [],
      "name": "maxGasPrice",
      "outputs": [
        {
          "name": "",
          "type": "uint256"
        }
      ],
      "payable": false,
      "stateMutability": "view",
      "type": "function"
    },
    {
      "constant": true,
      "inputs": [],
      "name": "weiRaised",
      "outputs": [
        {
          "name": "",
          "type": "uint256"
        }
      ],
      "payable": false,
      "stateMutability": "view",
      "type": "function"
    },
    {
      "constant": true,
      "inputs": [],
      "name": "presalesCap",
      "outputs": [
        {
          "name": "",
          "type": "uint256"
        }
      ],
      "payable": false,
      "stateMutability": "view",
      "type": "function"
    },
    {
      "constant": true,
      "inputs": [],
      "name": "publicsalesTokenPriceInWei",
      "outputs": [
        {
          "name": "",
          "type": "uint256"
        }
      ],
      "payable": false,
      "stateMutability": "view",
      "type": "function"
    },
    {
      "constant": true,
      "inputs": [],
      "name": "numberOfTokensAllocated",
      "outputs": [
        {
          "name": "",
          "type": "uint256"
        }
      ],
      "payable": false,
      "stateMutability": "view",
      "type": "function"
    },
    {
      "constant": false,
      "inputs": [
        {
          "name": "amount",
          "type": "uint256[]"
        },
        {
          "name": "wallets",
          "type": "address[]"
        }
      ],
      "name": "manualBatchTransferToken",
      "outputs": [],
      "payable": false,
      "stateMutability": "nonpayable",
      "type": "function"
    },
    {
      "constant": true,
      "inputs": [],
      "name": "presalesTokenPriceInWei",
      "outputs": [
        {
          "name": "",
          "type": "uint256"
        }
      ],
      "payable": false,
      "stateMutability": "view",
      "type": "function"
    },
    {
      "constant": true,
      "inputs": [],
      "name": "publicsalestartTime",
      "outputs": [
        {
          "name": "",
          "type": "uint256"
        }
      ],
      "payable": false,
      "stateMutability": "view",
      "type": "function"
    },
    {
      "constant": true,
      "inputs": [],
      "name": "owner",
      "outputs": [
        {
          "name": "",
          "type": "address"
        }
      ],
      "payable": false,
      "stateMutability": "view",
      "type": "function"
    },
    {
      "constant": true,
      "inputs": [],
      "name": "presalestartTime",
      "outputs": [
        {
          "name": "",
          "type": "uint256"
        }
      ],
      "payable": false,
      "stateMutability": "view",
      "type": "function"
    },
    {
      "constant": true,
      "inputs": [
        {
          "name": "",
          "type": "address"
        }
      ],
      "name": "tokensAllocated",
      "outputs": [
        {
          "name": "",
          "type": "uint256"
        }
      ],
      "payable": false,
      "stateMutability": "view",
      "type": "function"
    },
    {
      "constant": false,
      "inputs": [
        {
          "name": "_contributor",
          "type": "address"
        },
        {
          "name": "_weiAmount",
          "type": "uint256"
        }
      ],
      "name": "refundContribution",
      "outputs": [
        {
          "name": "",
          "type": "bool"
        }
      ],
      "payable": false,
      "stateMutability": "nonpayable",
      "type": "function"
    },
    {
      "constant": true,
      "inputs": [],
      "name": "publicsalesCap",
      "outputs": [
        {
          "name": "",
          "type": "uint256"
        }
      ],
      "payable": false,
      "stateMutability": "view",
      "type": "function"
    },
    {
      "constant": false,
      "inputs": [
        {
          "name": "_gasPrice",
          "type": "uint256"
        }
      ],
      "name": "setGasPrice",
      "outputs": [],
      "payable": false,
      "stateMutability": "nonpayable",
      "type": "function"
    },
    {
      "constant": false,
      "inputs": [
        {
          "name": "_contributor",
          "type": "address"
        }
      ],
      "name": "transferToken",
      "outputs": [],
      "payable": false,
      "stateMutability": "nonpayable",
      "type": "function"
    },
    {
      "constant": false,
      "inputs": [],
      "name": "owned",
      "outputs": [],
      "payable": false,
      "stateMutability": "nonpayable",
      "type": "function"
    },
    {
      "constant": true,
      "inputs": [],
      "name": "isContributionAllowed",
      "outputs": [
        {
          "name": "",
          "type": "bool"
        }
      ],
      "payable": false,
      "stateMutability": "view",
      "type": "function"
    },
    {
      "constant": false,
      "inputs": [
        {
          "name": "_newOwner",
          "type": "address"
        }
      ],
      "name": "transferOwnership",
      "outputs": [],
      "payable": false,
      "stateMutability": "nonpayable",
      "type": "function"
    },
    {
      "constant": true,
      "inputs": [],
      "name": "token",
      "outputs": [
        {
          "name": "",
          "type": "address"
        }
      ],
      "payable": false,
      "stateMutability": "view",
      "type": "function"
    },
    {
      "inputs": [
        {
          "name": "_addressOfRewardToken",
          "type": "address"
        },
        {
          "name": "_wallet",
          "type": "address"
        }
      ],
      "payable": false,
      "stateMutability": "nonpayable",
      "type": "constructor"
    },
    {
      "payable": true,
      "stateMutability": "payable",
      "type": "fallback"
    },
    {
      "anonymous": false,
      "inputs": [
        {
          "indexed": true,
          "name": "contributor",
          "type": "address"
        },
        {
          "indexed": false,
          "name": "value",
          "type": "uint256"
        },
        {
          "indexed": false,
          "name": "numberOfTokens",
          "type": "uint256"
        }
      ],
      "name": "ContributionReceived",
      "type": "event"
    },
    {
      "anonymous": false,
      "inputs": [
        {
          "indexed": true,
          "name": "contributor",
          "type": "address"
        },
        {
          "indexed": false,
          "name": "numberOfTokensTransferred",
          "type": "uint256"
        }
      ],
      "name": "TokensTransferred",
      "type": "event"
    },
    {
      "anonymous": false,
      "inputs": [
        {
          "indexed": true,
          "name": "contributor",
          "type": "address"
        },
        {
          "indexed": false,
          "name": "numberOfTokensTransferred",
          "type": "uint256"
        }
      ],
      "name": "ManualTokensTransferred",
      "type": "event"
    },
    {
      "anonymous": false,
      "inputs": [
        {
          "indexed": true,
          "name": "contributor",
          "type": "address"
        }
      ],
      "name": "PreTokenSalesCapReached",
      "type": "event"
    },
    {
      "anonymous": false,
      "inputs": [
        {
          "indexed": true,
          "name": "contributor",
          "type": "address"
        }
      ],
      "name": "TokenSalesCapReached",
      "type": "event"
    }
  ],
  "bytecode": "0x6080604052635b14f180600355635b396aff600455635b39db80600555635b5e54ff6006556a6342fd08f00f63780000006007556b0121836204bc2ce21e0000006008556548c27395000060095565b242ce604000600a556000600c556000600d55640df8475800600e556000600f60146101000a81548160ff0219169083151502179055506000600f60156101000a81548160ff0219169083151502179055503480156100ac57600080fd5b506040516040806118598339810180604052810190808051906020019092919080519060200190929190505050818142600354101515156100ec57600080fd5b600073ffffffffffffffffffffffffffffffffffffffff168173ffffffffffffffffffffffffffffffffffffffff161415151561012857600080fd5b81600f60006101000a81548173ffffffffffffffffffffffffffffffffffffffff021916908373ffffffffffffffffffffffffffffffffffffffff16021790555080600b60006101000a81548173ffffffffffffffffffffffffffffffffffffffff021916908373ffffffffffffffffffffffffffffffffffffffff160217905550336000806101000a81548173ffffffffffffffffffffffffffffffffffffffff021916908373ffffffffffffffffffffffffffffffffffffffff1602179055505050505061165c806101fd6000396000f300608060405260043610610128576000357c0100000000000000000000000000000000000000000000000000000000900463ffffffff168063164745c514610512578063230614fb1461053d578063364e1c59146105a35780633de39c11146105ce5780634042b66f146105f957806349e9449a14610624578063581d10151461064f5780635ad35ac01461067a5780635b6accb2146106a55780635e5714401461074e5780637159271d146107795780638da5cb5b146107a45780639c24654c146107fb578063ae1133de14610826578063b25ba6a71461087d578063ba2e84f9146108e2578063bf1fe4201461090d578063deebeac91461093a578063df32754b1461097d578063eb94eecb14610994578063f2fde38b146109c3578063fc0c546a14610a06575b6000600e543a1115151561013857fe5b600073ffffffffffffffffffffffffffffffffffffffff163373ffffffffffffffffffffffffffffffffffffffff161415151561017457600080fd5b6000341415151561018457600080fd5b67016345785d8a0000341015151561019b57600080fd5b6101a3610a5d565b15156101ae57600080fd5b61020034600160003373ffffffffffffffffffffffffffffffffffffffff1673ffffffffffffffffffffffffffffffffffffffff16815260200190815260200160002054610ab190919063ffffffff16565b600160003373ffffffffffffffffffffffffffffffffffffffff1673ffffffffffffffffffffffffffffffffffffffff1681526020019081526020016000208190555061025834600c54610ab190919063ffffffff16565b600c819055506000905061026a610acf565b156103b4576009543481151561027c57fe5b049050670de0b6b3a764000081029050600754600d548201111515156102a157600080fd5b6102f381600260003373ffffffffffffffffffffffffffffffffffffffff1673ffffffffffffffffffffffffffffffffffffffff16815260200190815260200160002054610ab190919063ffffffff16565b600260003373ffffffffffffffffffffffffffffffffffffffff1673ffffffffffffffffffffffffffffffffffffffff1681526020019081526020016000208190555061034b81600d54610ab190919063ffffffff16565b600d81905550610359610aea565b3373ffffffffffffffffffffffffffffffffffffffff167fd2dff949d20e874cc6ba1dcefb840fb8cf6000a4197bfb69accfea5a32443ff53483604051808381526020018281526020019250505060405180910390a2610507565b6103bc610b55565b1561050657600a54348115156103ce57fe5b049050670de0b6b3a76400008102905060085460075401600d548201111515156103f757600080fd5b61044981600260003373ffffffffffffffffffffffffffffffffffffffff1673ffffffffffffffffffffffffffffffffffffffff16815260200190815260200160002054610ab190919063ffffffff16565b600260003373ffffffffffffffffffffffffffffffffffffffff1673ffffffffffffffffffffffffffffffffffffffff168152602001908152602001600020819055506104a181600d54610ab190919063ffffffff16565b600d819055506104af610aea565b3373ffffffffffffffffffffffffffffffffffffffff167fd2dff949d20e874cc6ba1dcefb840fb8cf6000a4197bfb69accfea5a32443ff53483604051808381526020018281526020019250505060405180910390a25b5b61050f610b70565b50005b34801561051e57600080fd5b50610527610beb565b6040518082815260200191505060405180910390f35b34801561054957600080fd5b506105a160048036038101908080359060200190820180359060200190808060200260200160405190810160405280939291908181526020018383602002808284378201915050505050509192919290505050610bf1565b005b3480156105af57600080fd5b506105b8610eb0565b6040518082815260200191505060405180910390f35b3480156105da57600080fd5b506105e3610eb6565b6040518082815260200191505060405180910390f35b34801561060557600080fd5b5061060e610ebc565b6040518082815260200191505060405180910390f35b34801561063057600080fd5b50610639610ec2565b6040518082815260200191505060405180910390f35b34801561065b57600080fd5b50610664610ec8565b6040518082815260200191505060405180910390f35b34801561068657600080fd5b5061068f610ece565b6040518082815260200191505060405180910390f35b3480156106b157600080fd5b5061074c6004803603810190808035906020019082018035906020019080806020026020016040519081016040528093929190818152602001838360200280828437820191505050505050919291929080359060200190820180359060200190808060200260200160405190810160405280939291908181526020018383602002808284378201915050505050509192919290505050610ed4565b005b34801561075a57600080fd5b506107636110fc565b6040518082815260200191505060405180910390f35b34801561078557600080fd5b5061078e611102565b6040518082815260200191505060405180910390f35b3480156107b057600080fd5b506107b9611108565b604051808273ffffffffffffffffffffffffffffffffffffffff1673ffffffffffffffffffffffffffffffffffffffff16815260200191505060405180910390f35b34801561080757600080fd5b5061081061112d565b6040518082815260200191505060405180910390f35b34801561083257600080fd5b50610867600480360381019080803573ffffffffffffffffffffffffffffffffffffffff169060200190929190505050611133565b6040518082815260200191505060405180910390f35b34801561088957600080fd5b506108c8600480360381019080803573ffffffffffffffffffffffffffffffffffffffff1690602001909291908035906020019092919050505061114b565b604051808215151515815260200191505060405180910390f35b3480156108ee57600080fd5b506108f7611262565b6040518082815260200191505060405180910390f35b34801561091957600080fd5b5061093860048036038101908080359060200190929190505050611268565b005b34801561094657600080fd5b5061097b600480360381019080803573ffffffffffffffffffffffffffffffffffffffff1690602001909291905050506112cd565b005b34801561098957600080fd5b5061099261152a565b005b3480156109a057600080fd5b506109a9610a5d565b604051808215151515815260200191505060405180910390f35b3480156109cf57600080fd5b50610a04600480360381019080803573ffffffffffffffffffffffffffffffffffffffff16906020019092919050505061156c565b005b348015610a1257600080fd5b50610a1b61160a565b604051808273ffffffffffffffffffffffffffffffffffffffff1673ffffffffffffffffffffffffffffffffffffffff16815260200191505060405180910390f35b6000610a67610acf565b15610a8457600f60149054906101000a900460ff16159050610aae565b610a8c610b55565b15610aa957600f60159054906101000a900460ff16159050610aae565b600090505b90565b6000808284019050838110151515610ac557fe5b8091505092915050565b60006003544210158015610ae557506004544211155b905090565b600b60009054906101000a900473ffffffffffffffffffffffffffffffffffffffff1673ffffffffffffffffffffffffffffffffffffffff166108fc349081150290604051600060405180830381858888f19350505050158015610b52573d6000803e3d6000fd5b50565b60006005544210158015610b6b57506006544211155b905090565b610b78610acf565b8015610b875750600754600d54115b15610bac576001600f60146101000a81548160ff021916908315150217905550610be9565b610bb4610b55565b8015610bc7575060085460075401600d54115b15610be8576001600f60156101000a81548160ff0219169083151502179055505b5b565b60045481565b6000806000809054906101000a900473ffffffffffffffffffffffffffffffffffffffff1673ffffffffffffffffffffffffffffffffffffffff163373ffffffffffffffffffffffffffffffffffffffff16141515610c4f57600080fd5b600091505b8251821015610eab57600260008484815181101515610c6f57fe5b9060200190602002015173ffffffffffffffffffffffffffffffffffffffff1673ffffffffffffffffffffffffffffffffffffffff168152602001908152602001600020549050600081111515610cc557600080fd5b6000600260008585815181101515610cd957fe5b9060200190602002015173ffffffffffffffffffffffffffffffffffffffff1673ffffffffffffffffffffffffffffffffffffffff16815260200190815260200160002081905550600f60009054906101000a900473ffffffffffffffffffffffffffffffffffffffff1673ffffffffffffffffffffffffffffffffffffffff1663a9059cbb8484815181101515610d6d57fe5b90602001906020020151836040518363ffffffff167c0100000000000000000000000000000000000000000000000000000000028152600401808373ffffffffffffffffffffffffffffffffffffffff1673ffffffffffffffffffffffffffffffffffffffff16815260200182815260200192505050602060405180830381600087803b158015610dfd57600080fd5b505af1158015610e11573d6000803e3d6000fd5b505050506040513d6020811015610e2757600080fd5b8101908080519060200190929190505050508282815181101515610e4757fe5b9060200190602002015173ffffffffffffffffffffffffffffffffffffffff167f12f4533b5cbd2c9f8a0752a2d0b16379af992dbb2a0844a5007a19d983b3a934826040518082815260200191505060405180910390a28180600101925050610c54565b505050565b60065481565b600e5481565b600c5481565b60075481565b600a5481565b600d5481565b60008060009054906101000a900473ffffffffffffffffffffffffffffffffffffffff1673ffffffffffffffffffffffffffffffffffffffff163373ffffffffffffffffffffffffffffffffffffffff16141515610f3157600080fd5b600090505b81518110156110f757600f60009054906101000a900473ffffffffffffffffffffffffffffffffffffffff1673ffffffffffffffffffffffffffffffffffffffff1663a9059cbb8383815181101515610f8b57fe5b906020019060200201518584815181101515610fa357fe5b906020019060200201516040518363ffffffff167c0100000000000000000000000000000000000000000000000000000000028152600401808373ffffffffffffffffffffffffffffffffffffffff1673ffffffffffffffffffffffffffffffffffffffff16815260200182815260200192505050602060405180830381600087803b15801561103257600080fd5b505af1158015611046573d6000803e3d6000fd5b505050506040513d602081101561105c57600080fd5b810190808051906020019092919050505050818181518110151561107c57fe5b9060200190602002015173ffffffffffffffffffffffffffffffffffffffff167f12f4533b5cbd2c9f8a0752a2d0b16379af992dbb2a0844a5007a19d983b3a93484838151811015156110cb57fe5b906020019060200201516040518082815260200191505060405180910390a28080600101915050610f36565b505050565b60095481565b60055481565b6000809054906101000a900473ffffffffffffffffffffffffffffffffffffffff1681565b60035481565b60026020528060005260406000206000915090505481565b60008060009054906101000a900473ffffffffffffffffffffffffffffffffffffffff1673ffffffffffffffffffffffffffffffffffffffff163373ffffffffffffffffffffffffffffffffffffffff161415156111a857600080fd5b60008373ffffffffffffffffffffffffffffffffffffffff16141515156111ce57600080fd5b8273ffffffffffffffffffffffffffffffffffffffff166108fc839081150290604051600060405180830381858888f193505050501515611212576000905061125c565b6000600160008573ffffffffffffffffffffffffffffffffffffffff1673ffffffffffffffffffffffffffffffffffffffff16815260200190815260200160002081905550600190505b92915050565b60085481565b6000809054906101000a900473ffffffffffffffffffffffffffffffffffffffff1673ffffffffffffffffffffffffffffffffffffffff163373ffffffffffffffffffffffffffffffffffffffff161415156112c357600080fd5b80600e8190555050565b60008060009054906101000a900473ffffffffffffffffffffffffffffffffffffffff1673ffffffffffffffffffffffffffffffffffffffff163373ffffffffffffffffffffffffffffffffffffffff1614151561132a57600080fd5b60008273ffffffffffffffffffffffffffffffffffffffff161415151561135057600080fd5b600260008373ffffffffffffffffffffffffffffffffffffffff1673ffffffffffffffffffffffffffffffffffffffff1681526020019081526020016000205490506000600260008473ffffffffffffffffffffffffffffffffffffffff1673ffffffffffffffffffffffffffffffffffffffff16815260200190815260200160002081905550600f60009054906101000a900473ffffffffffffffffffffffffffffffffffffffff1673ffffffffffffffffffffffffffffffffffffffff1663a9059cbb83836040518363ffffffff167c0100000000000000000000000000000000000000000000000000000000028152600401808373ffffffffffffffffffffffffffffffffffffffff1673ffffffffffffffffffffffffffffffffffffffff16815260200182815260200192505050602060405180830381600087803b15801561149c57600080fd5b505af11580156114b0573d6000803e3d6000fd5b505050506040513d60208110156114c657600080fd5b8101908080519060200190929190505050508173ffffffffffffffffffffffffffffffffffffffff167f12f4533b5cbd2c9f8a0752a2d0b16379af992dbb2a0844a5007a19d983b3a934826040518082815260200191505060405180910390a25050565b336000806101000a81548173ffffffffffffffffffffffffffffffffffffffff021916908373ffffffffffffffffffffffffffffffffffffffff160217905550565b6000809054906101000a900473ffffffffffffffffffffffffffffffffffffffff1673ffffffffffffffffffffffffffffffffffffffff163373ffffffffffffffffffffffffffffffffffffffff161415156115c757600080fd5b806000806101000a81548173ffffffffffffffffffffffffffffffffffffffff021916908373ffffffffffffffffffffffffffffffffffffffff16021790555050565b600f60009054906101000a900473ffffffffffffffffffffffffffffffffffffffff16815600a165627a7a723058207e074dec0671a30d2e720b0f4d505910a1ac38e3afc065626f44f86bad5349eb0029",
  "source": "\n\n\n\n    contract Owned {\n        address public owner;\n\n        function owned() public {\n            owner = msg.sender;\n        }\n\n        modifier onlyOwner {\n            require(msg.sender == owner);\n            _;\n        }\n        \n        \n\n        function transferOwnership(address _newOwner) onlyOwner public {\n            owner = _newOwner;\n        }          \n    }\n\n\nlibrary SafeMath {\n  function mul(uint256 a, uint256 b) internal pure returns (uint256) {\n    if (a == 0) {\n      return 0;\n    }\n    uint256 c = a * b;\n    assert(c / a == b);\n    return c;\n  }\n\n  function div(uint256 a, uint256 b) internal pure returns (uint256) {\n    \n    uint256 c = a / b;\n    \n    return c;\n  }\n\n  function sub(uint256 a, uint256 b) internal pure returns (uint256) {\n    assert(b <= a);\n    return a - b;\n  }\n\n  function add(uint256 a, uint256 b) internal pure returns (uint256) {\n    uint256 c = a + b;\n    assert(c >= a);\n    return c;\n  }\n}\n\n\n\ninterface RailzToken {\n    function transfer(address _to, uint256 _value) public returns (bool);\n}\n\n\n\ncontract RailzTokenSale_1 is Owned {\n\tusing SafeMath for uint256;\n\n\tmapping (address=> uint256) contributors;\n\tmapping (address=> uint256) public tokensAllocated;\n    \n\t\n\tuint256 public presalestartTime =1528099200 ;     \n\tuint256 public presaleendTime = 1530489599;       \n\tuint256 public publicsalestartTime = 1530518400;  \n\tuint256 public publicsalesendTime = 1532908799;   \n\n\n\t\n\tuint256 public presalesCap = 120000000 * (1e18);\n\tuint256 public publicsalesCap = 350000000 * (1e18);\n\n\t\n\tuint256 public presalesTokenPriceInWei =  80000000000000 ; \n\tuint256 public publicsalesTokenPriceInWei = 196000000000000 ;\n\n\t\n\taddress wallet;\n\n\t\n\tuint256 public weiRaised=0;\n\n\t\n\tuint256 public numberOfTokensAllocated=0;\n\n\t\n\tuint256 public maxGasPrice = 60000000000  wei;  \n\n\t\n\tRailzToken public token;\n\n\tbool hasPreTokenSalesCapReached = false;\n\tbool hasTokenSalesCapReached = false;\n\n\t\n\tevent ContributionReceived(address indexed contributor, uint256 value, uint256 numberOfTokens);\n\tevent TokensTransferred(address indexed contributor, uint256 numberOfTokensTransferred);\n\tevent ManualTokensTransferred(address indexed contributor, uint256 numberOfTokensTransferred);\n\tevent PreTokenSalesCapReached(address indexed contributor);\n\tevent TokenSalesCapReached(address indexed contributor);\n\n\tfunction RailzTokenSale_1(RailzToken _addressOfRewardToken, address _wallet) public {        \n  \t\trequire(presalestartTime >= now); \n  \t\trequire(_wallet != address(0));   \n        \n  \t\ttoken = RailzToken (_addressOfRewardToken);\n  \t\twallet = _wallet;\n\t\towner = msg.sender;\n\t}\n\n\t\n\tmodifier validGasPrice() {\n\t\tassert(tx.gasprice <= maxGasPrice);\n\t\t_;\n\t}\n\n\t\n\tfunction ()  payable public validGasPrice {  \n\t\trequire(msg.sender != address(0));                      \n\t\trequire(msg.value != 0);                                \n        require(msg.value>=0.1 ether);                          \n\t\trequire(isContributionAllowed());                       \n\t\n\t\t\n\t\tcontributors[msg.sender] = contributors[msg.sender].add(msg.value);\n\t\tweiRaised = weiRaised.add(msg.value);\n\t\tuint256 numberOfTokens = 0;\n\n\t\t\n\t\tif (isPreTokenSaleActive()) {\n\t\t\tnumberOfTokens = msg.value/presalesTokenPriceInWei;\n            numberOfTokens = numberOfTokens * (1e18);\n\t\t\trequire((numberOfTokens + numberOfTokensAllocated) <= presalesCap);\t\t\t\n\n\t\t\ttokensAllocated[msg.sender] = tokensAllocated[msg.sender].add(numberOfTokens);\n\t\t\tnumberOfTokensAllocated = numberOfTokensAllocated.add(numberOfTokens);\n\t\t\t\n\t\t\t\n\t\t    forwardFunds(); \n\n\t\t\t\n\t\t\temit ContributionReceived(msg.sender, msg.value, numberOfTokens);\n\n\t\t} else if (isTokenSaleActive()) {\n\t\t\tnumberOfTokens = msg.value/publicsalesTokenPriceInWei;\n\t\t\tnumberOfTokens = numberOfTokens * (1e18);\n\t\t\trequire((numberOfTokens + numberOfTokensAllocated) <= (presalesCap + publicsalesCap));\t\n\n\t\t\ttokensAllocated[msg.sender] = tokensAllocated[msg.sender].add(numberOfTokens);\n\t\t\tnumberOfTokensAllocated = numberOfTokensAllocated.add(numberOfTokens);\n\n            \n\t\t    forwardFunds();\n\n\t\t\t\n\t\t    emit ContributionReceived(msg.sender, msg.value, numberOfTokens);\n\t\t}        \n\n\t\t\n\t\tcheckifCapHasReached();\n\t}\n\n\t\n\tfunction isContributionAllowed() public view returns (bool) {    \n\t\tif (isPreTokenSaleActive())\n\t\t\treturn  (!hasPreTokenSalesCapReached);\n\t\telse if (isTokenSaleActive())\n\t\t\treturn (!hasTokenSalesCapReached);\n\t\telse\n\t\t\treturn false;\n\t}\n\n\t\n\tfunction forwardFunds() internal {\n\t\twallet.transfer(msg.value);\n\t}\n\n\t\n\tfunction isPreTokenSaleActive() internal view returns (bool) {\n\t\treturn ((now >= presalestartTime) && (now <= presaleendTime));  \n\t}\n\n\t\n\tfunction isTokenSaleActive() internal view returns (bool) {\n\t\treturn (now >= (publicsalestartTime) && (now <= publicsalesendTime));  \n\t}\n\n\t\n\tfunction preTokenSalesCapReached() internal {\n\t\thasPreTokenSalesCapReached = true;\n\t\temit PreTokenSalesCapReached(msg.sender);\n\t}\n\n\t\n\tfunction tokenSalesCapReached() internal {\n\t\thasTokenSalesCapReached = true;\n\t\temit TokenSalesCapReached(msg.sender);\n\t}\n\n\t\n\tfunction transferToken(address _contributor) public onlyOwner {\n\t\trequire(_contributor != 0);\n        uint256 numberOfTokens = tokensAllocated[_contributor];\n        tokensAllocated[_contributor] = 0;    \n\t\ttoken.transfer(_contributor, numberOfTokens);\n\t\temit TokensTransferred(_contributor, numberOfTokens);\n\t}\n\n\n\t\n\t function manualBatchTransferToken(uint256[] amount, address[] wallets) public onlyOwner {\n        for (uint256 i = 0; i < wallets.length; i++) {\n            token.transfer(wallets[i], amount[i]);\n\t\t\temit TokensTransferred(wallets[i], amount[i]);\n        }\n    }\n\n\t\n\t function batchTransferToken(address[] wallets) public onlyOwner {\n        for (uint256 i = 0; i < wallets.length; i++) {\n\t\t\tuint256 amountOfTokens = tokensAllocated[wallets[i]];\n\t\t\trequire(amountOfTokens > 0);\n\t\t\ttokensAllocated[wallets[i]]=0;\n            token.transfer(wallets[i], amountOfTokens);\n\t\t\temit TokensTransferred(wallets[i], amountOfTokens);\n        }\n    }\n\t\n\t\n\tfunction refundContribution(address _contributor, uint256 _weiAmount) public onlyOwner returns (bool) {\n\t\trequire(_contributor != 0);                                                                                                                                     \n\t\tif (!_contributor.send(_weiAmount)) {\n\t\t\treturn false;\n\t\t} else {\n\t\t\tcontributors[_contributor] = 0;\n\t\t\treturn true;\n\t\t}\n\t}\n\n\t\n    function checkifCapHasReached() internal {\n    \tif (isPreTokenSaleActive() && (numberOfTokensAllocated > presalesCap))  \n        \thasPreTokenSalesCapReached = true;\n     \telse if (isTokenSaleActive() && (numberOfTokensAllocated > (presalesCap + publicsalesCap)))     \n        \thasTokenSalesCapReached = true;     \t\n    }\n\n  \t\n    function setGasPrice(uint256 _gasPrice) public onlyOwner {\n    \tmaxGasPrice = _gasPrice;\n    }\n}\n    \ncontract RailzTokenSale is RailzTokenSale_1 {\n    constructor(RailzToken _addressOfRewardToken, address _wallet) RailzTokenSale_1(_addressOfRewardToken, _wallet) public { }\n}\n",
  "sourcePath": "/home/XXX-1/smartrim-experiment/for-rlf/0xa01a4dea8a096aa8cd8f9853495c09ed737315b2/contracts/0xa01a4dea8a096aa8cd8f9853495c09ed737315b2.sol",
  "compiler": {
    "name": "solc",
    "version": "0.4.25+commit.59dbf8f1.Emscripten.clang"
  },
  "schemaVersion": "3.4.16",
  "updatedAt": "2025-08-14T04:02:07.444Z",
  "devdoc": {
    "methods": {}
  },
  "userdoc": {
    "methods": {}
  }
}