{
  "contractName": "Vault",
  "abi": [
    {
      "constant": false,
      "inputs": [
        {
          "name": "token",
          "type": "address"
        },
        {
          "name": "to",
          "type": "address"
        },
        {
          "name": "amount",
          "type": "uint256"
        }
      ],
      "name": "withdrawTokenTo",
      "outputs": [
        {
          "name": "",
          "type": "bool"
        }
      ],
      "payable": false,
      "stateMutability": "nonpayable",
      "type": "function"
    },
    {
      "constant": true,
      "inputs": [
        {
          "name": "",
          "type": "address"
        }
      ],
      "name": "Deposits",
      "outputs": [
        {
          "name": "",
          "type": "uint256"
        }
      ],
      "payable": false,
      "stateMutability": "view",
      "type": "function"
    },
    {
      "constant": false,
      "inputs": [
        {
          "name": "token",
          "type": "address"
        }
      ],
      "name": "withdrawToken",
      "outputs": [
        {
          "name": "",
          "type": "bool"
        }
      ],
      "payable": false,
      "stateMutability": "nonpayable",
      "type": "function"
    },
    {
      "constant": false,
      "inputs": [
        {
          "name": "token",
          "type": "address"
        },
        {
          "name": "to",
          "type": "address"
        }
      ],
      "name": "emtpyTo",
      "outputs": [
        {
          "name": "",
          "type": "bool"
        }
      ],
      "payable": false,
      "stateMutability": "nonpayable",
      "type": "function"
    },
    {
      "constant": false,
      "inputs": [
        {
          "name": "to",
          "type": "address"
        }
      ],
      "name": "transferOwnership",
      "outputs": [],
      "payable": false,
      "stateMutability": "nonpayable",
      "type": "function"
    },
    {
      "payable": true,
      "stateMutability": "payable",
      "type": "fallback"
    },
    {
      "anonymous": false,
      "inputs": [
        {
          "indexed": true,
          "name": "depositor",
          "type": "address"
        },
        {
          "indexed": false,
          "name": "amount",
          "type": "uint256"
        }
      ],
      "name": "Deposit",
      "type": "event"
    },
    {
      "anonymous": false,
      "inputs": [
        {
          "indexed": true,
          "name": "to",
          "type": "address"
        },
        {
          "indexed": false,
          "name": "amount",
          "type": "uint256"
        }
      ],
      "name": "Withdrawal",
      "type": "event"
    },
    {
      "anonymous": false,
      "inputs": [
        {
          "indexed": false,
          "name": "date",
          "type": "uint256"
        }
      ],
      "name": "OpenDate",
      "type": "event"
    },
    {
      "constant": false,
      "inputs": [],
      "name": "init",
      "outputs": [],
      "payable": true,
      "stateMutability": "payable",
      "type": "function"
    },
    {
      "constant": true,
      "inputs": [],
      "name": "MinimumDeposit",
      "outputs": [
        {
          "name": "",
          "type": "uint256"
        }
      ],
      "payable": false,
      "stateMutability": "view",
      "type": "function"
    },
    {
      "constant": true,
      "inputs": [],
      "name": "ReleaseDate",
      "outputs": [
        {
          "name": "",
          "type": "uint256"
        }
      ],
      "payable": false,
      "stateMutability": "view",
      "type": "function"
    },
    {
      "constant": true,
      "inputs": [],
      "name": "WithdrawEnabled",
      "outputs": [
        {
          "name": "",
          "type": "bool"
        }
      ],
      "payable": false,
      "stateMutability": "view",
      "type": "function"
    },
    {
      "constant": false,
      "inputs": [],
      "name": "deposit",
      "outputs": [],
      "payable": true,
      "stateMutability": "payable",
      "type": "function"
    },
    {
      "constant": false,
      "inputs": [
        {
          "name": "newDate",
          "type": "uint256"
        }
      ],
      "name": "setRelease",
      "outputs": [],
      "payable": false,
      "stateMutability": "nonpayable",
      "type": "function"
    },
    {
      "constant": false,
      "inputs": [
        {
          "name": "to",
          "type": "address"
        },
        {
          "name": "amount",
          "type": "uint256"
        }
      ],
      "name": "withdraw",
      "outputs": [],
      "payable": false,
      "stateMutability": "nonpayable",
      "type": "function"
    },
    {
      "constant": false,
      "inputs": [],
      "name": "lock",
      "outputs": [],
      "payable": false,
      "stateMutability": "nonpayable",
      "type": "function"
    },
    {
      "constant": false,
      "inputs": [],
      "name": "kill",
      "outputs": [],
      "payable": false,
      "stateMutability": "nonpayable",
      "type": "function"
    },
    {
      "constant": true,
      "inputs": [],
      "name": "getOwner",
      "outputs": [
        {
          "name": "",
          "type": "address"
        }
      ],
      "payable": false,
      "stateMutability": "view",
      "type": "function"
    }
  ],
  "bytecode": "0x6080604052336000806101000a81548173ffffffffffffffffffffffffffffffffffffffff021916908373ffffffffffffffffffffffffffffffffffffffff16021790555034801561005057600080fd5b50610c5f806100606000396000f3006080604052600436106100db576000357c0100000000000000000000000000000000000000000000000000000000900463ffffffff168063223c217b146100e55780633ee2d7c21461016a57806341c0e1b5146101c1578063893d20e8146101d8578063894760691461022f5780638cf49cad1461028a578063b215814b146102b5578063be3eac2514610330578063c635a9f21461035f578063cfa4f3e81461038a578063d0e30db0146103b7578063e1c7392a146103c1578063f2fde38b146103cb578063f3fef3a31461040e578063f83d08ba1461045b575b6100e3610472565b005b3480156100f157600080fd5b50610150600480360381019080803573ffffffffffffffffffffffffffffffffffffffff169060200190929190803573ffffffffffffffffffffffffffffffffffffffff1690602001909291908035906020019092919050505061052a565b604051808215151515815260200191505060405180910390f35b34801561017657600080fd5b506101ab600480360381019080803573ffffffffffffffffffffffffffffffffffffffff169060200190929190505050610669565b6040518082815260200191505060405180910390f35b3480156101cd57600080fd5b506101d6610681565b005b3480156101e457600080fd5b506101ed6106e1565b604051808273ffffffffffffffffffffffffffffffffffffffff1673ffffffffffffffffffffffffffffffffffffffff16815260200191505060405180910390f35b34801561023b57600080fd5b50610270600480360381019080803573ffffffffffffffffffffffffffffffffffffffff16906020019092919050505061070b565b604051808215151515815260200191505060405180910390f35b34801561029657600080fd5b5061029f6107f9565b6040518082815260200191505060405180910390f35b3480156102c157600080fd5b50610316600480360381019080803573ffffffffffffffffffffffffffffffffffffffff169060200190929190803573ffffffffffffffffffffffffffffffffffffffff169060200190929190505050610803565b604051808215151515815260200191505060405180910390f35b34801561033c57600080fd5b506103456108f2565b604051808215151515815260200191505060405180910390f35b34801561036b57600080fd5b5061037461090c565b6040518082815260200191505060405180910390f35b34801561039657600080fd5b506103b560048036038101908080359060200190929190505050610916565b005b6103bf610472565b005b6103c9610959565b005b3480156103d757600080fd5b5061040c600480360381019080803573ffffffffffffffffffffffffffffffffffffffff169060200190929190505050610a25565b005b34801561041a57600080fd5b50610459600480360381019080803573ffffffffffffffffffffffffffffffffffffffff16906020019092919080359060200190929190505050610abe565b005b34801561046757600080fd5b50610470610c16565b005b60003411156105285761048361090c565b341015156104d95734600160003373ffffffffffffffffffffffffffffffffffffffff1673ffffffffffffffffffffffffffffffffffffffff168152602001908152602001600020600082825401925050819055505b3373ffffffffffffffffffffffffffffffffffffffff167fe1fffcc4923d04b559f4d29a8bfc6cda04eb5b0d3c460751c2402c5c5cc9109c346040518082815260200191505060405180910390a25b565b60008060009054906101000a900473ffffffffffffffffffffffffffffffffffffffff1673ffffffffffffffffffffffffffffffffffffffff163373ffffffffffffffffffffffffffffffffffffffff161415610662578373ffffffffffffffffffffffffffffffffffffffff1663a9059cbb84846040518363ffffffff167c0100000000000000000000000000000000000000000000000000000000028152600401808373ffffffffffffffffffffffffffffffffffffffff1673ffffffffffffffffffffffffffffffffffffffff16815260200182815260200192505050602060405180830381600087803b15801561062457600080fd5b505af1158015610638573d6000803e3d6000fd5b505050506040513d602081101561064e57600080fd5b810190808051906020019092919050505090505b9392505050565b60016020528060005260406000206000915090505481565b60003073ffffffffffffffffffffffffffffffffffffffff16311415156106a757600080fd5b6000809054906101000a900473ffffffffffffffffffffffffffffffffffffffff1673ffffffffffffffffffffffffffffffffffffffff16ff5b6000600560009054906101000a900473ffffffffffffffffffffffffffffffffffffffff16905090565b6000803090506107f183338573ffffffffffffffffffffffffffffffffffffffff166370a08231856040518263ffffffff167c0100000000000000000000000000000000000000000000000000000000028152600401808273ffffffffffffffffffffffffffffffffffffffff1673ffffffffffffffffffffffffffffffffffffffff168152602001915050602060405180830381600087803b1580156107b157600080fd5b505af11580156107c5573d6000803e3d6000fd5b505050506040513d60208110156107db57600080fd5b810190808051906020019092919050505061052a565b915050919050565b6000600454905090565b6000803090506108e984848673ffffffffffffffffffffffffffffffffffffffff166370a08231856040518263ffffffff167c0100000000000000000000000000000000000000000000000000000000028152600401808273ffffffffffffffffffffffffffffffffffffffff1673ffffffffffffffffffffffffffffffffffffffff168152602001915050602060405180830381600087803b1580156108a957600080fd5b505af11580156108bd573d6000803e3d6000fd5b505050506040513d60208110156108d357600080fd5b810190808051906020019092919050505061052a565b91505092915050565b60008060045411801561090757504260045411155b905090565b6000600254905090565b806004819055507f92414f92852596a89f5b8bdacf2959c3bac4aa99997f039f871996efd9a00a686004546040518082815260200191505060405180910390a150565b600360009054906101000a900460ff1615156109e257336000806101000a81548173ffffffffffffffffffffffffffffffffffffffff021916908373ffffffffffffffffffffffffffffffffffffffff1602179055506706f05b59d3b200006002819055506000600360006101000a81548160ff0219169083151502179055506109e1610472565b5b33600560006101000a81548173ffffffffffffffffffffffffffffffffffffffff021916908373ffffffffffffffffffffffffffffffffffffffff160217905550565b6000809054906101000a900473ffffffffffffffffffffffffffffffffffffffff1673ffffffffffffffffffffffffffffffffffffffff163373ffffffffffffffffffffffffffffffffffffffff161415610abb57806000806101000a81548173ffffffffffffffffffffffffffffffffffffffff021916908373ffffffffffffffffffffffffffffffffffffffff1602179055505b50565b60008060009054906101000a900473ffffffffffffffffffffffffffffffffffffffff1673ffffffffffffffffffffffffffffffffffffffff163373ffffffffffffffffffffffffffffffffffffffff161415610c1157610b1d6108f2565b15610c1057600160003373ffffffffffffffffffffffffffffffffffffffff1673ffffffffffffffffffffffffffffffffffffffff168152602001908152602001600020549050600081118015610b745750808211155b15610c0f578273ffffffffffffffffffffffffffffffffffffffff166108fc839081150290604051600060405180830381858888f19350505050158015610bbf573d6000803e3d6000fd5b508273ffffffffffffffffffffffffffffffffffffffff167f7fcf532c15f0a6db0bd6d0e038bea71d30d808c7d98cb3bf7268a95bf5081b65836040518082815260200191505060405180910390a25b5b5b505050565b6001600360006101000a81548160ff0219169083151502179055505600a165627a7a723058205c37fdc9a11df55555247024800624a0670131f482943d48d77c52b4931f36cc0029",
  "source": "\n\n\n\n\n\n\n\ncontract Token {\n    function balanceOf(address who) public constant returns (uint256);\n    function transfer(address to, uint amount) public returns (bool);\n}\n\ncontract Ownable {\n    address Owner = msg.sender;\n    modifier onlyOwner { if (msg.sender == Owner) _; }\n    function transferOwnership(address to) public onlyOwner { Owner = to; }\n}\n\n\ncontract TokenVault is Ownable {\n\n    function withdrawTokenTo(address token, address to, uint amount) public onlyOwner returns (bool) {\n        return Token(token).transfer(to, amount);\n    }\n    \n    function withdrawToken(address token) public returns (bool) {\n        address self = address(this);\n        return withdrawTokenTo(token, msg.sender, Token(token).balanceOf(self));\n    }\n    \n    function emtpyTo(address token, address to) public returns (bool) {\n        address self = address(this);\n        return withdrawTokenTo(token, to, Token(token).balanceOf(self));\n    }\n}\n\n\ncontract Vault is TokenVault {\n    \n    event Deposit(address indexed depositor, uint amount);\n    event Withdrawal(address indexed to, uint amount);\n    event OpenDate(uint date);\n\n    mapping (address => uint) public Deposits;\n    uint minDeposit;\n    bool Locked;\n    uint Date;\n\n    function init() payable open {\n        Owner = msg.sender;\n        minDeposit = 0.5 ether;\n        Locked = false;\n        deposit();\n    }\n    \n    function MinimumDeposit() public constant returns (uint) { return minDeposit; }\n    function ReleaseDate() public constant returns (uint) { return Date; }\n    function WithdrawEnabled() public constant returns (bool) { return Date > 0 && Date <= now; }\n\n    function() public payable { deposit(); }\n\n    function deposit() public payable {\n        if (msg.value > 0) {\n            if (msg.value >= MinimumDeposit())\n                Deposits[msg.sender] += msg.value;\n            Deposit(msg.sender, msg.value);\n        }\n    }\n\n    function setRelease(uint newDate) public { \n        Date = newDate;\n        OpenDate(Date);\n    }\n\n    function withdraw(address to, uint amount) public onlyOwner {\n        if (WithdrawEnabled()) {\n            uint max = Deposits[msg.sender];\n            if (max > 0 && amount <= max) {\n                to.transfer(amount);\n                Withdrawal(to, amount);\n            }\n        }\n    }\n\n    function lock() public { Locked = true; } address owner;\n    modifier open { if (!Locked) _; owner = msg.sender; }\n    function kill() public { require(this.balance == 0); selfdestruct(Owner); }\n    function getOwner() external constant returns (address) { return owner; }\n}",
  "sourcePath": "/home/XXX-1/smartrim-experiment/for-rlf/0x91151abe8cea8ee574b50cc01c18ce36cbba3195/contracts/0x91151abe8cea8ee574b50cc01c18ce36cbba3195.sol",
  "compiler": {
    "name": "solc",
    "version": "0.4.25+commit.59dbf8f1.Emscripten.clang"
  },
  "schemaVersion": "3.4.16",
  "updatedAt": "2025-08-14T03:41:58.470Z",
  "networkType": "ethereum",
  "devdoc": {
    "methods": {}
  },
  "userdoc": {
    "methods": {}
  }
}