{
  "contractName": "TheRichestMan_1",
  "abi": [
    {
      "constant": true,
      "inputs": [],
      "name": "withdrawDate",
      "outputs": [
        {
          "name": "",
          "type": "uint256"
        }
      ],
      "payable": false,
      "stateMutability": "view",
      "type": "function"
    },
    {
      "constant": true,
      "inputs": [],
      "name": "theRichest",
      "outputs": [
        {
          "name": "",
          "type": "address"
        }
      ],
      "payable": false,
      "stateMutability": "view",
      "type": "function"
    },
    {
      "constant": true,
      "inputs": [],
      "name": "treasure",
      "outputs": [
        {
          "name": "",
          "type": "uint256"
        }
      ],
      "payable": false,
      "stateMutability": "view",
      "type": "function"
    },
    {
      "inputs": [
        {
          "name": "_owner",
          "type": "address"
        }
      ],
      "payable": false,
      "stateMutability": "nonpayable",
      "type": "constructor"
    },
    {
      "payable": true,
      "stateMutability": "payable",
      "type": "fallback"
    },
    {
      "constant": false,
      "inputs": [],
      "name": "withdraw",
      "outputs": [],
      "payable": false,
      "stateMutability": "nonpayable",
      "type": "function"
    },
    {
      "constant": false,
      "inputs": [],
      "name": "kill",
      "outputs": [],
      "payable": false,
      "stateMutability": "nonpayable",
      "type": "function"
    }
  ],
  "bytecode": "0x60806040526000600255600060035534801561001a57600080fd5b5060405160208061056d83398101806040528101908080519060200190929190505050806000806101000a81548173ffffffffffffffffffffffffffffffffffffffff021916908373ffffffffffffffffffffffffffffffffffffffff160217905550506104e08061008d6000396000f30060806040526004361061006d576000357c0100000000000000000000000000000000000000000000000000000000900463ffffffff1680633ccfd60b146100d357806341c0e1b5146100ea57806359c3909414610101578063d660c8971461012c578063e520fc7e14610183575b3460025410151561007d57600080fd5b346002819055506202a300420160038190555033600160006101000a81548173ffffffffffffffffffffffffffffffffffffffff021916908373ffffffffffffffffffffffffffffffffffffffff160217905550005b3480156100df57600080fd5b506100e86101ae565b005b3480156100f657600080fd5b506100ff610350565b005b34801561010d57600080fd5b50610116610482565b6040518082815260200191505060405180910390f35b34801561013857600080fd5b50610141610488565b604051808273ffffffffffffffffffffffffffffffffffffffff1673ffffffffffffffffffffffffffffffffffffffff16815260200191505060405180910390f35b34801561018f57600080fd5b506101986104ae565b6040518082815260200191505060405180910390f35b60035442101515156101bf57600080fd5b600160009054906101000a900473ffffffffffffffffffffffffffffffffffffffff1673ffffffffffffffffffffffffffffffffffffffff163373ffffffffffffffffffffffffffffffffffffffff1614151561021b57600080fd5b6000600160006101000a81548173ffffffffffffffffffffffffffffffffffffffff021916908373ffffffffffffffffffffffffffffffffffffffff16021790555060006002819055506000809054906101000a900473ffffffffffffffffffffffffffffffffffffffff1673ffffffffffffffffffffffffffffffffffffffff166108fc60643073ffffffffffffffffffffffffffffffffffffffff16318115156102c357fe5b049081150290604051600060405180830381858888f193505050501580156102ef573d6000803e3d6000fd5b503373ffffffffffffffffffffffffffffffffffffffff166108fc3073ffffffffffffffffffffffffffffffffffffffff16319081150290604051600060405180830381858888f1935050505015801561034d573d6000803e3d6000fd5b50565b6000809054906101000a900473ffffffffffffffffffffffffffffffffffffffff1673ffffffffffffffffffffffffffffffffffffffff163373ffffffffffffffffffffffffffffffffffffffff161415156103ab57600080fd5b60035442101515156103bc57600080fd5b6000809054906101000a900473ffffffffffffffffffffffffffffffffffffffff1673ffffffffffffffffffffffffffffffffffffffff166108fc60643073ffffffffffffffffffffffffffffffffffffffff163181151561041a57fe5b049081150290604051600060405180830381858888f19350505050158015610446573d6000803e3d6000fd5b50600160009054906101000a900473ffffffffffffffffffffffffffffffffffffffff1673ffffffffffffffffffffffffffffffffffffffff16ff5b60035481565b600160009054906101000a900473ffffffffffffffffffffffffffffffffffffffff1681565b600254815600a165627a7a72305820fbda4a7107221e521ae73ee1048eee311ed47e9287b71c80ea274f922ce669b60029",
  "source": "contract TheRichestMan_1 {\n    address owner;\n\n    address public theRichest;\n    uint public treasure=0;\n    uint public withdrawDate=0;\n\n    function TheRichestMan_1(address _owner)\n    {\n        owner=_owner;\n    }\n\n    function () public payable{\n        require(treasure < msg.value);\n        treasure = msg.value;\n        withdrawDate = now + 2 days;\n        theRichest = msg.sender;\n    }\n\n    function withdraw() public{\n        require(now >= withdrawDate);\n        require(msg.sender == theRichest);\n\n        \n        theRichest = 0;\n        treasure = 0;\n\n        \n        owner.transfer(this.balance/100);\n        \n        \n        msg.sender.transfer(this.balance);\n    }\n\n\t\n\tfunction kill() public\n\t{\n\t\trequire(msg.sender==owner);\n\t        require(now >= withdrawDate);\n\t\towner.transfer(this.balance/100);\n\t\tsuicide(theRichest);\n\t}\n}\n    \ncontract TheRichestMan is TheRichestMan_1 {\n    constructor() TheRichestMan_1(address(0x123)) public { }\n}\n",
  "sourcePath": "/home/XXX-1/smartrim-experiment/for-rlf/0xe54420ef4ecda25e08b82a71f72e043f83d7d808/contracts/0xe54420ef4ecda25e08b82a71f72e043f83d7d808.sol",
  "compiler": {
    "name": "solc",
    "version": "0.4.25+commit.59dbf8f1.Emscripten.clang"
  },
  "schemaVersion": "3.4.16",
  "updatedAt": "2025-08-14T04:09:07.822Z",
  "devdoc": {
    "methods": {}
  },
  "userdoc": {
    "methods": {}
  }
}