{
  "contractName": "Factory",
  "abi": [
    {
      "constant": true,
      "inputs": [],
      "name": "duration",
      "outputs": [
        {
          "name": "",
          "type": "uint256"
        }
      ],
      "payable": false,
      "stateMutability": "view",
      "type": "function"
    },
    {
      "constant": true,
      "inputs": [],
      "name": "multiplier",
      "outputs": [
        {
          "name": "",
          "type": "uint256"
        }
      ],
      "payable": false,
      "stateMutability": "view",
      "type": "function"
    },
    {
      "constant": true,
      "inputs": [
        {
          "name": "",
          "type": "uint256"
        }
      ],
      "name": "short_tokens",
      "outputs": [
        {
          "name": "",
          "type": "address"
        }
      ],
      "payable": false,
      "stateMutability": "view",
      "type": "function"
    },
    {
      "constant": true,
      "inputs": [
        {
          "name": "",
          "type": "uint256"
        }
      ],
      "name": "contracts",
      "outputs": [
        {
          "name": "",
          "type": "address"
        }
      ],
      "payable": false,
      "stateMutability": "view",
      "type": "function"
    },
    {
      "constant": true,
      "inputs": [
        {
          "name": "",
          "type": "address"
        }
      ],
      "name": "created_contracts",
      "outputs": [
        {
          "name": "",
          "type": "uint256"
        }
      ],
      "payable": false,
      "stateMutability": "view",
      "type": "function"
    },
    {
      "constant": true,
      "inputs": [
        {
          "name": "",
          "type": "address"
        }
      ],
      "name": "token_type",
      "outputs": [
        {
          "name": "",
          "type": "uint256"
        }
      ],
      "payable": false,
      "stateMutability": "view",
      "type": "function"
    },
    {
      "constant": true,
      "inputs": [],
      "name": "swapFee",
      "outputs": [
        {
          "name": "",
          "type": "uint256"
        }
      ],
      "payable": false,
      "stateMutability": "view",
      "type": "function"
    },
    {
      "constant": true,
      "inputs": [],
      "name": "token_ratio",
      "outputs": [
        {
          "name": "",
          "type": "uint256"
        }
      ],
      "payable": false,
      "stateMutability": "view",
      "type": "function"
    },
    {
      "constant": true,
      "inputs": [],
      "name": "oracle_address",
      "outputs": [
        {
          "name": "",
          "type": "address"
        }
      ],
      "payable": false,
      "stateMutability": "view",
      "type": "function"
    },
    {
      "constant": true,
      "inputs": [],
      "name": "owner",
      "outputs": [
        {
          "name": "",
          "type": "address"
        }
      ],
      "payable": false,
      "stateMutability": "view",
      "type": "function"
    },
    {
      "constant": true,
      "inputs": [
        {
          "name": "",
          "type": "uint256"
        }
      ],
      "name": "startDates",
      "outputs": [
        {
          "name": "",
          "type": "uint256"
        }
      ],
      "payable": false,
      "stateMutability": "view",
      "type": "function"
    },
    {
      "constant": true,
      "inputs": [],
      "name": "memberContract",
      "outputs": [
        {
          "name": "",
          "type": "address"
        }
      ],
      "payable": false,
      "stateMutability": "view",
      "type": "function"
    },
    {
      "constant": true,
      "inputs": [
        {
          "name": "",
          "type": "address"
        }
      ],
      "name": "token_dates",
      "outputs": [
        {
          "name": "",
          "type": "uint256"
        }
      ],
      "payable": false,
      "stateMutability": "view",
      "type": "function"
    },
    {
      "constant": true,
      "inputs": [],
      "name": "user_contract",
      "outputs": [
        {
          "name": "",
          "type": "address"
        }
      ],
      "payable": false,
      "stateMutability": "view",
      "type": "function"
    },
    {
      "constant": true,
      "inputs": [
        {
          "name": "",
          "type": "uint256"
        }
      ],
      "name": "long_tokens",
      "outputs": [
        {
          "name": "",
          "type": "address"
        }
      ],
      "payable": false,
      "stateMutability": "view",
      "type": "function"
    },
    {
      "constant": true,
      "inputs": [],
      "name": "fee",
      "outputs": [
        {
          "name": "",
          "type": "uint256"
        }
      ],
      "payable": false,
      "stateMutability": "view",
      "type": "function"
    },
    {
      "constant": true,
      "inputs": [],
      "name": "token",
      "outputs": [
        {
          "name": "",
          "type": "address"
        }
      ],
      "payable": false,
      "stateMutability": "view",
      "type": "function"
    },
    {
      "inputs": [],
      "payable": false,
      "stateMutability": "nonpayable",
      "type": "constructor"
    },
    {
      "payable": true,
      "stateMutability": "payable",
      "type": "fallback"
    },
    {
      "anonymous": false,
      "inputs": [
        {
          "indexed": false,
          "name": "_sender",
          "type": "address"
        },
        {
          "indexed": false,
          "name": "_created",
          "type": "address"
        }
      ],
      "name": "ContractCreation",
      "type": "event"
    },
    {
      "constant": false,
      "inputs": [
        {
          "name": "_owner",
          "type": "address"
        }
      ],
      "name": "init",
      "outputs": [],
      "payable": false,
      "stateMutability": "nonpayable",
      "type": "function"
    },
    {
      "constant": false,
      "inputs": [
        {
          "name": "_memberContract",
          "type": "address"
        }
      ],
      "name": "setMemberContract",
      "outputs": [],
      "payable": false,
      "stateMutability": "nonpayable",
      "type": "function"
    },
    {
      "constant": false,
      "inputs": [
        {
          "name": "_memberTypes",
          "type": "uint256[]"
        }
      ],
      "name": "setWhitelistedMemberTypes",
      "outputs": [],
      "payable": false,
      "stateMutability": "nonpayable",
      "type": "function"
    },
    {
      "constant": true,
      "inputs": [
        {
          "name": "_member",
          "type": "address"
        }
      ],
      "name": "isWhitelisted",
      "outputs": [
        {
          "name": "",
          "type": "bool"
        }
      ],
      "payable": false,
      "stateMutability": "view",
      "type": "function"
    },
    {
      "constant": true,
      "inputs": [
        {
          "name": "_date",
          "type": "uint256"
        }
      ],
      "name": "getTokens",
      "outputs": [
        {
          "name": "",
          "type": "address"
        },
        {
          "name": "",
          "type": "address"
        }
      ],
      "payable": false,
      "stateMutability": "view",
      "type": "function"
    },
    {
      "constant": true,
      "inputs": [
        {
          "name": "_token",
          "type": "address"
        }
      ],
      "name": "getTokenType",
      "outputs": [
        {
          "name": "",
          "type": "uint256"
        }
      ],
      "payable": false,
      "stateMutability": "view",
      "type": "function"
    },
    {
      "constant": false,
      "inputs": [
        {
          "name": "_fee",
          "type": "uint256"
        }
      ],
      "name": "setFee",
      "outputs": [],
      "payable": false,
      "stateMutability": "nonpayable",
      "type": "function"
    },
    {
      "constant": false,
      "inputs": [
        {
          "name": "_swapFee",
          "type": "uint256"
        }
      ],
      "name": "setSwapFee",
      "outputs": [],
      "payable": false,
      "stateMutability": "nonpayable",
      "type": "function"
    },
    {
      "constant": false,
      "inputs": [
        {
          "name": "_deployer",
          "type": "address"
        }
      ],
      "name": "setDeployer",
      "outputs": [],
      "payable": false,
      "stateMutability": "nonpayable",
      "type": "function"
    },
    {
      "constant": false,
      "inputs": [
        {
          "name": "_userContract",
          "type": "address"
        }
      ],
      "name": "setUserContract",
      "outputs": [],
      "payable": false,
      "stateMutability": "nonpayable",
      "type": "function"
    },
    {
      "constant": false,
      "inputs": [
        {
          "name": "_token_ratio",
          "type": "uint256"
        },
        {
          "name": "_duration",
          "type": "uint256"
        },
        {
          "name": "_multiplier",
          "type": "uint256"
        },
        {
          "name": "_swapFee",
          "type": "uint256"
        }
      ],
      "name": "setVariables",
      "outputs": [],
      "payable": false,
      "stateMutability": "nonpayable",
      "type": "function"
    },
    {
      "constant": false,
      "inputs": [
        {
          "name": "_token",
          "type": "address"
        }
      ],
      "name": "setBaseToken",
      "outputs": [],
      "payable": false,
      "stateMutability": "nonpayable",
      "type": "function"
    },
    {
      "constant": false,
      "inputs": [
        {
          "name": "_start_date",
          "type": "uint256"
        }
      ],
      "name": "deployContract",
      "outputs": [
        {
          "name": "",
          "type": "address"
        }
      ],
      "payable": true,
      "stateMutability": "payable",
      "type": "function"
    },
    {
      "constant": false,
      "inputs": [
        {
          "name": "_start_date",
          "type": "uint256"
        }
      ],
      "name": "deployTokenContract",
      "outputs": [],
      "payable": false,
      "stateMutability": "nonpayable",
      "type": "function"
    },
    {
      "constant": false,
      "inputs": [
        {
          "name": "_supply",
          "type": "uint256"
        },
        {
          "name": "_party",
          "type": "address"
        },
        {
          "name": "_start_date",
          "type": "uint256"
        }
      ],
      "name": "createToken",
      "outputs": [
        {
          "name": "",
          "type": "address"
        },
        {
          "name": "",
          "type": "address"
        },
        {
          "name": "",
          "type": "uint256"
        }
      ],
      "payable": false,
      "stateMutability": "nonpayable",
      "type": "function"
    },
    {
      "constant": false,
      "inputs": [
        {
          "name": "_new_oracle_address",
          "type": "address"
        }
      ],
      "name": "setOracleAddress",
      "outputs": [],
      "payable": false,
      "stateMutability": "nonpayable",
      "type": "function"
    },
    {
      "constant": false,
      "inputs": [
        {
          "name": "_new_owner",
          "type": "address"
        }
      ],
      "name": "setOwner",
      "outputs": [],
      "payable": false,
      "stateMutability": "nonpayable",
      "type": "function"
    },
    {
      "constant": false,
      "inputs": [],
      "name": "withdrawFees",
      "outputs": [],
      "payable": false,
      "stateMutability": "nonpayable",
      "type": "function"
    },
    {
      "constant": true,
      "inputs": [],
      "name": "getVariables",
      "outputs": [
        {
          "name": "",
          "type": "address"
        },
        {
          "name": "",
          "type": "uint256"
        },
        {
          "name": "",
          "type": "uint256"
        },
        {
          "name": "",
          "type": "address"
        },
        {
          "name": "",
          "type": "uint256"
        }
      ],
      "payable": false,
      "stateMutability": "view",
      "type": "function"
    },
    {
      "constant": false,
      "inputs": [
        {
          "name": "_party",
          "type": "address"
        },
        {
          "name": "_token_add",
          "type": "address"
        }
      ],
      "name": "payToken",
      "outputs": [],
      "payable": false,
      "stateMutability": "nonpayable",
      "type": "function"
    },
    {
      "constant": true,
      "inputs": [],
      "name": "getCount",
      "outputs": [
        {
          "name": "",
          "type": "uint256"
        }
      ],
      "payable": false,
      "stateMutability": "view",
      "type": "function"
    },
    {
      "constant": true,
      "inputs": [],
      "name": "getDateCount",
      "outputs": [
        {
          "name": "",
          "type": "uint256"
        }
      ],
      "payable": false,
      "stateMutability": "view",
      "type": "function"
    }
  ],
  "bytecode": "0x608060405234801561001057600080fd5b50336000806101000a81548173ffffffffffffffffffffffffffffffffffffffff021916908373ffffffffffffffffffffffffffffffffffffffff160217905550613907806100606000396000f3006080604052600436106101e3576000357c0100000000000000000000000000000000000000000000000000000000900463ffffffff1680630e2b75cc146101e55780630f90b83a1461024b5780630fb5a6b41461027857806313af4035146102a357806316bb6c13146102e657806319ab453c146103295780631b3ed7221461036c5780631cf41a81146103975780632a7292d0146103f7578063316b13b4146104c857806331fa76db1461050b57806334e19907146105785780633af32abf146105a5578063474da79a14610600578063476343ee1461066d5780634c69c00f146106845780634efb04ff146106c757806351abf0de1461071e57806354cf2aeb146107755780635c5991d4146107a057806369fe0e2d146107cb5780637e0c1792146107f85780638da5cb5b1461084f57806393272baf146108a657806394aef022146108fd578063962147351461099c578063a1206d4e146109df578063a55e937014610a22578063a87d942c14610a4d578063b266c66114610a78578063c40cf4eb14610ab9578063c88b721914610b10578063d3749a1514610b67578063d3c9cc2614610bbe578063dc54d91914610c5e578063ddca3f4314610ccb578063ecb1451914610cf6578063f497463a14610d59578063fc0c546a14610da4575b005b3480156101f157600080fd5b5061024960048036038101908080359060200190820180359060200190808060200260200160405190810160405280939291908181526020018383602002808284378201915050505050509192919290505050610dfb565b005b34801561025757600080fd5b5061027660048036038101908080359060200190929190505050610ee6565b005b34801561028457600080fd5b5061028d611211565b6040518082815260200191505060405180910390f35b3480156102af57600080fd5b506102e4600480360381019080803573ffffffffffffffffffffffffffffffffffffffff169060200190929190505050611217565b005b3480156102f257600080fd5b50610327600480360381019080803573ffffffffffffffffffffffffffffffffffffffff1690602001909291905050506112b5565b005b34801561033557600080fd5b5061036a600480360381019080803573ffffffffffffffffffffffffffffffffffffffff169060200190929190505050611354565b005b34801561037857600080fd5b506103816113f3565b6040518082815260200191505060405180910390f35b6103b5600480360381019080803590602001909291905050506113f9565b604051808273ffffffffffffffffffffffffffffffffffffffff1673ffffffffffffffffffffffffffffffffffffffff16815260200191505060405180910390f35b34801561040357600080fd5b5061044c60048036038101908080359060200190929190803573ffffffffffffffffffffffffffffffffffffffff169060200190929190803590602001909291905050506116dd565b604051808473ffffffffffffffffffffffffffffffffffffffff1673ffffffffffffffffffffffffffffffffffffffff1681526020018373ffffffffffffffffffffffffffffffffffffffff1673ffffffffffffffffffffffffffffffffffffffff168152602001828152602001935050505060405180910390f35b3480156104d457600080fd5b50610509600480360381019080803573ffffffffffffffffffffffffffffffffffffffff169060200190929190505050611a37565b005b34801561051757600080fd5b5061053660048036038101908080359060200190929190505050611ad6565b604051808273ffffffffffffffffffffffffffffffffffffffff1673ffffffffffffffffffffffffffffffffffffffff16815260200191505060405180910390f35b34801561058457600080fd5b506105a360048036038101908080359060200190929190505050611b09565b005b3480156105b157600080fd5b506105e6600480360381019080803573ffffffffffffffffffffffffffffffffffffffff169060200190929190505050611b6e565b604051808215151515815260200191505060405180910390f35b34801561060c57600080fd5b5061062b60048036038101908080359060200190929190505050611c94565b604051808273ffffffffffffffffffffffffffffffffffffffff1673ffffffffffffffffffffffffffffffffffffffff16815260200191505060405180910390f35b34801561067957600080fd5b50610682611cd2565b005b34801561069057600080fd5b506106c5600480360381019080803573ffffffffffffffffffffffffffffffffffffffff169060200190929190505050611f41565b005b3480156106d357600080fd5b50610708600480360381019080803573ffffffffffffffffffffffffffffffffffffffff169060200190929190505050611fe0565b6040518082815260200191505060405180910390f35b34801561072a57600080fd5b5061075f600480360381019080803573ffffffffffffffffffffffffffffffffffffffff169060200190929190505050611ff8565b6040518082815260200191505060405180910390f35b34801561078157600080fd5b5061078a612010565b6040518082815260200191505060405180910390f35b3480156107ac57600080fd5b506107b5612016565b6040518082815260200191505060405180910390f35b3480156107d757600080fd5b506107f66004803603810190808035906020019092919050505061201c565b005b34801561080457600080fd5b5061080d612081565b604051808273ffffffffffffffffffffffffffffffffffffffff1673ffffffffffffffffffffffffffffffffffffffff16815260200191505060405180910390f35b34801561085b57600080fd5b506108646120a7565b604051808273ffffffffffffffffffffffffffffffffffffffff1673ffffffffffffffffffffffffffffffffffffffff16815260200191505060405180910390f35b3480156108b257600080fd5b506108e7600480360381019080803573ffffffffffffffffffffffffffffffffffffffff1690602001909291905050506120cc565b6040518082815260200191505060405180910390f35b34801561090957600080fd5b50610912612115565b604051808673ffffffffffffffffffffffffffffffffffffffff1673ffffffffffffffffffffffffffffffffffffffff1681526020018581526020018481526020018373ffffffffffffffffffffffffffffffffffffffff1673ffffffffffffffffffffffffffffffffffffffff1681526020018281526020019550505050505060405180910390f35b3480156109a857600080fd5b506109dd600480360381019080803573ffffffffffffffffffffffffffffffffffffffff16906020019092919050505061217d565b005b3480156109eb57600080fd5b50610a20600480360381019080803573ffffffffffffffffffffffffffffffffffffffff16906020019092919050505061225d565b005b348015610a2e57600080fd5b50610a376122fc565b6040518082815260200191505060405180910390f35b348015610a5957600080fd5b50610a62612309565b6040518082815260200191505060405180910390f35b348015610a8457600080fd5b50610aa360048036038101908080359060200190929190505050612316565b6040518082815260200191505060405180910390f35b348015610ac557600080fd5b50610ace612339565b604051808273ffffffffffffffffffffffffffffffffffffffff1673ffffffffffffffffffffffffffffffffffffffff16815260200191505060405180910390f35b348015610b1c57600080fd5b50610b51600480360381019080803573ffffffffffffffffffffffffffffffffffffffff16906020019092919050505061235f565b6040518082815260200191505060405180910390f35b348015610b7357600080fd5b50610b7c612377565b604051808273ffffffffffffffffffffffffffffffffffffffff1673ffffffffffffffffffffffffffffffffffffffff16815260200191505060405180910390f35b348015610bca57600080fd5b50610be96004803603810190808035906020019092919050505061239d565b604051808373ffffffffffffffffffffffffffffffffffffffff1673ffffffffffffffffffffffffffffffffffffffff1681526020018273ffffffffffffffffffffffffffffffffffffffff1673ffffffffffffffffffffffffffffffffffffffff1681526020019250505060405180910390f35b348015610c6a57600080fd5b50610c8960048036038101908080359060200190929190505050612411565b604051808273ffffffffffffffffffffffffffffffffffffffff1673ffffffffffffffffffffffffffffffffffffffff16815260200191505060405180910390f35b348015610cd757600080fd5b50610ce0612444565b6040518082815260200191505060405180910390f35b348015610d0257600080fd5b50610d57600480360381019080803573ffffffffffffffffffffffffffffffffffffffff169060200190929190803573ffffffffffffffffffffffffffffffffffffffff16906020019092919050505061244a565b005b348015610d6557600080fd5b50610da260048036038101908080359060200190929190803590602001909291908035906020019092919080359060200190929190505050612588565b005b348015610db057600080fd5b50610db9612615565b604051808273ffffffffffffffffffffffffffffffffffffffff1673ffffffffffffffffffffffffffffffffffffffff16815260200191505060405180910390f35b60008060009054906101000a900473ffffffffffffffffffffffffffffffffffffffff1673ffffffffffffffffffffffffffffffffffffffff163373ffffffffffffffffffffffffffffffffffffffff16141515610e5857600080fd5b6000600e600080815260200190815260200160002060006101000a81548160ff021916908315150217905550600090505b8151811015610ee2576001600e60008484815181101515610ea657fe5b90602001906020020151815260200190815260200160002060006101000a81548160ff0219169083151502179055508080600101915050610e89565b5050565b6000806201518083811515610ef757fe5b06141515610f0457600080fd5b600073ffffffffffffffffffffffffffffffffffffffff166011600084815260200190815260200160002060009054906101000a900473ffffffffffffffffffffffffffffffffffffffff1673ffffffffffffffffffffffffffffffffffffffff16148015610fd25750600073ffffffffffffffffffffffffffffffffffffffff166012600084815260200190815260200160002060009054906101000a900473ffffffffffffffffffffffffffffffffffffffff1673ffffffffffffffffffffffffffffffffffffffff16145b1515610fdd57600080fd5b610fe5612656565b604051809103906000f080158015611001573d6000803e3d6000fd5b50905081601060008373ffffffffffffffffffffffffffffffffffffffff1673ffffffffffffffffffffffffffffffffffffffff16815260200190815260200160002081905550806011600084815260200190815260200160002060006101000a81548173ffffffffffffffffffffffffffffffffffffffff021916908373ffffffffffffffffffffffffffffffffffffffff1602179055506002601360008373ffffffffffffffffffffffffffffffffffffffff1673ffffffffffffffffffffffffffffffffffffffff168152602001908152602001600020819055506110e7612656565b604051809103906000f080158015611103573d6000803e3d6000fd5b5090506001601360008373ffffffffffffffffffffffffffffffffffffffff1673ffffffffffffffffffffffffffffffffffffffff16815260200190815260200160002081905550806012600084815260200190815260200160002060006101000a81548173ffffffffffffffffffffffffffffffffffffffff021916908373ffffffffffffffffffffffffffffffffffffffff16021790555081601060008373ffffffffffffffffffffffffffffffffffffffff1673ffffffffffffffffffffffffffffffffffffffff16815260200190815260200160002081905550600c8290806001815401808255809150509060018203906000526020600020016000909192909190915055505050565b60085481565b6000809054906101000a900473ffffffffffffffffffffffffffffffffffffffff1673ffffffffffffffffffffffffffffffffffffffff163373ffffffffffffffffffffffffffffffffffffffff1614151561127257600080fd5b806000806101000a81548173ffffffffffffffffffffffffffffffffffffffff021916908373ffffffffffffffffffffffffffffffffffffffff16021790555050565b6000809054906101000a900473ffffffffffffffffffffffffffffffffffffffff1673ffffffffffffffffffffffffffffffffffffffff163373ffffffffffffffffffffffffffffffffffffffff1614151561131057600080fd5b80600560006101000a81548173ffffffffffffffffffffffffffffffffffffffff021916908373ffffffffffffffffffffffffffffffffffffffff16021790555050565b600073ffffffffffffffffffffffffffffffffffffffff166000809054906101000a900473ffffffffffffffffffffffffffffffffffffffff1673ffffffffffffffffffffffffffffffffffffffff161415156113b057600080fd5b806000806101000a81548173ffffffffffffffffffffffffffffffffffffffff021916908373ffffffffffffffffffffffffffffffffffffffff16021790555050565b60095481565b6000806006543410158015611413575061141233611b6e565b5b151561141e57600080fd5b6000620151808481151561142e57fe5b0614151561143b57600080fd5b600460009054906101000a900473ffffffffffffffffffffffffffffffffffffffff1673ffffffffffffffffffffffffffffffffffffffff1663548dd51e33600260009054906101000a900473ffffffffffffffffffffffffffffffffffffffff16866040518463ffffffff167c0100000000000000000000000000000000000000000000000000000000028152600401808473ffffffffffffffffffffffffffffffffffffffff1673ffffffffffffffffffffffffffffffffffffffff1681526020018373ffffffffffffffffffffffffffffffffffffffff1673ffffffffffffffffffffffffffffffffffffffff1681526020018281526020019350505050602060405180830381600087803b15801561155657600080fd5b505af115801561156a573d6000803e3d6000fd5b505050506040513d602081101561158057600080fd5b81019080805190602001909291905050509050600b8190806001815401808255809150509060018203906000526020600020016000909192909190916101000a81548173ffffffffffffffffffffffffffffffffffffffff021916908373ffffffffffffffffffffffffffffffffffffffff1602179055505082600f60008373ffffffffffffffffffffffffffffffffffffffff1673ffffffffffffffffffffffffffffffffffffffff168152602001908152602001600020819055507fb6c9f70724e4ce6b9bca2eace320dd3164063f0a0b229f8c4705ef05be829c253382604051808373ffffffffffffffffffffffffffffffffffffffff1673ffffffffffffffffffffffffffffffffffffffff1681526020018273ffffffffffffffffffffffffffffffffffffffff1673ffffffffffffffffffffffffffffffffffffffff1681526020019250505060405180910390a180915050919050565b60008060008060008086600f60003373ffffffffffffffffffffffffffffffffffffffff1673ffffffffffffffffffffffffffffffffffffffff1681526020019081526020016000205414151561173357600080fd5b6011600088815260200190815260200160002060009054906101000a900473ffffffffffffffffffffffffffffffffffffffff1692506012600088815260200190815260200160002060009054906101000a900473ffffffffffffffffffffffffffffffffffffffff169150600073ffffffffffffffffffffffffffffffffffffffff168373ffffffffffffffffffffffffffffffffffffffff16141580156118095750600073ffffffffffffffffffffffffffffffffffffffff168273ffffffffffffffffffffffffffffffffffffffff1614155b151561181457600080fd5b8290508073ffffffffffffffffffffffffffffffffffffffff1663e6ed51b7611848600a548c61263b90919063ffffffff16565b8a336040518463ffffffff167c0100000000000000000000000000000000000000000000000000000000028152600401808481526020018373ffffffffffffffffffffffffffffffffffffffff1673ffffffffffffffffffffffffffffffffffffffff1681526020018273ffffffffffffffffffffffffffffffffffffffff1673ffffffffffffffffffffffffffffffffffffffff1681526020019350505050600060405180830381600087803b15801561190257600080fd5b505af1158015611916573d6000803e3d6000fd5b505050508190508073ffffffffffffffffffffffffffffffffffffffff1663e6ed51b761194e600a548c61263b90919063ffffffff16565b8a336040518463ffffffff167c0100000000000000000000000000000000000000000000000000000000028152600401808481526020018373ffffffffffffffffffffffffffffffffffffffff1673ffffffffffffffffffffffffffffffffffffffff1681526020018273ffffffffffffffffffffffffffffffffffffffff1673ffffffffffffffffffffffffffffffffffffffff1681526020019350505050600060405180830381600087803b158015611a0857600080fd5b505af1158015611a1c573d6000803e3d6000fd5b505050508282600a5495509550955050505093509350939050565b6000809054906101000a900473ffffffffffffffffffffffffffffffffffffffff1673ffffffffffffffffffffffffffffffffffffffff163373ffffffffffffffffffffffffffffffffffffffff16141515611a9257600080fd5b80600d60006101000a81548173ffffffffffffffffffffffffffffffffffffffff021916908373ffffffffffffffffffffffffffffffffffffffff16021790555050565b60126020528060005260406000206000915054906101000a900473ffffffffffffffffffffffffffffffffffffffff1681565b6000809054906101000a900473ffffffffffffffffffffffffffffffffffffffff1673ffffffffffffffffffffffffffffffffffffffff163373ffffffffffffffffffffffffffffffffffffffff16141515611b6457600080fd5b8060078190555050565b600080600d60009054906101000a900473ffffffffffffffffffffffffffffffffffffffff169050600e60008273ffffffffffffffffffffffffffffffffffffffff1663b5b7916b866040518263ffffffff167c0100000000000000000000000000000000000000000000000000000000028152600401808273ffffffffffffffffffffffffffffffffffffffff1673ffffffffffffffffffffffffffffffffffffffff168152602001915050602060405180830381600087803b158015611c3557600080fd5b505af1158015611c49573d6000803e3d6000fd5b505050506040513d6020811015611c5f57600080fd5b8101908080519060200190929190505050815260200190815260200160002060009054906101000a900460ff16915050919050565b600b81815481101515611ca357fe5b906000526020600020016000915054906101000a900473ffffffffffffffffffffffffffffffffffffffff1681565b6000806000809054906101000a900473ffffffffffffffffffffffffffffffffffffffff1673ffffffffffffffffffffffffffffffffffffffff163373ffffffffffffffffffffffffffffffffffffffff16141515611d3057600080fd5b600560009054906101000a900473ffffffffffffffffffffffffffffffffffffffff1691508173ffffffffffffffffffffffffffffffffffffffff166370a08231306040518263ffffffff167c0100000000000000000000000000000000000000000000000000000000028152600401808273ffffffffffffffffffffffffffffffffffffffff1673ffffffffffffffffffffffffffffffffffffffff168152602001915050602060405180830381600087803b158015611df057600080fd5b505af1158015611e04573d6000803e3d6000fd5b505050506040513d6020811015611e1a57600080fd5b810190808051906020019092919050505090506000811115611ebe578173ffffffffffffffffffffffffffffffffffffffff16632e1a7d4d826040518263ffffffff167c010000000000000000000000000000000000000000000000000000000002815260040180828152602001915050600060405180830381600087803b158015611ea557600080fd5b505af1158015611eb9573d6000803e3d6000fd5b505050505b6000809054906101000a900473ffffffffffffffffffffffffffffffffffffffff1673ffffffffffffffffffffffffffffffffffffffff166108fc3073ffffffffffffffffffffffffffffffffffffffff16319081150290604051600060405180830381858888f19350505050158015611f3c573d6000803e3d6000fd5b505050565b6000809054906101000a900473ffffffffffffffffffffffffffffffffffffffff1673ffffffffffffffffffffffffffffffffffffffff163373ffffffffffffffffffffffffffffffffffffffff16141515611f9c57600080fd5b80600160006101000a81548173ffffffffffffffffffffffffffffffffffffffff021916908373ffffffffffffffffffffffffffffffffffffffff16021790555050565b600f6020528060005260406000206000915090505481565b60136020528060005260406000206000915090505481565b60075481565b600a5481565b6000809054906101000a900473ffffffffffffffffffffffffffffffffffffffff1673ffffffffffffffffffffffffffffffffffffffff163373ffffffffffffffffffffffffffffffffffffffff1614151561207757600080fd5b8060068190555050565b600160009054906101000a900473ffffffffffffffffffffffffffffffffffffffff1681565b6000809054906101000a900473ffffffffffffffffffffffffffffffffffffffff1681565b6000601360008373ffffffffffffffffffffffffffffffffffffffff1673ffffffffffffffffffffffffffffffffffffffff168152602001908152602001600020549050919050565b6000806000806000600160009054906101000a900473ffffffffffffffffffffffffffffffffffffffff16600854600954600560009054906101000a900473ffffffffffffffffffffffffffffffffffffffff16600754945094509450945094509091929394565b6000809054906101000a900473ffffffffffffffffffffffffffffffffffffffff1673ffffffffffffffffffffffffffffffffffffffff163373ffffffffffffffffffffffffffffffffffffffff161415156121d857600080fd5b80600360006101000a81548173ffffffffffffffffffffffffffffffffffffffff021916908373ffffffffffffffffffffffffffffffffffffffff16021790555080600460006101000a81548173ffffffffffffffffffffffffffffffffffffffff021916908373ffffffffffffffffffffffffffffffffffffffff16021790555050565b6000809054906101000a900473ffffffffffffffffffffffffffffffffffffffff1673ffffffffffffffffffffffffffffffffffffffff163373ffffffffffffffffffffffffffffffffffffffff161415156122b857600080fd5b80600260006101000a81548173ffffffffffffffffffffffffffffffffffffffff021916908373ffffffffffffffffffffffffffffffffffffffff16021790555050565b6000600c80549050905090565b6000600b80549050905090565b600c8181548110151561232557fe5b906000526020600020016000915090505481565b600d60009054906101000a900473ffffffffffffffffffffffffffffffffffffffff1681565b60106020528060005260406000206000915090505481565b600260009054906101000a900473ffffffffffffffffffffffffffffffffffffffff1681565b6000806011600084815260200190815260200160002060009054906101000a900473ffffffffffffffffffffffffffffffffffffffff166012600085815260200190815260200160002060009054906101000a900473ffffffffffffffffffffffffffffffffffffffff1691509150915091565b60116020528060005260406000206000915054906101000a900473ffffffffffffffffffffffffffffffffffffffff1681565b60065481565b600080600f60003373ffffffffffffffffffffffffffffffffffffffff1673ffffffffffffffffffffffffffffffffffffffff1681526020019081526020016000205411151561249957600080fd5b8190508073ffffffffffffffffffffffffffffffffffffffff1663bd0af85d84336040518363ffffffff167c0100000000000000000000000000000000000000000000000000000000028152600401808373ffffffffffffffffffffffffffffffffffffffff1673ffffffffffffffffffffffffffffffffffffffff1681526020018273ffffffffffffffffffffffffffffffffffffffff1673ffffffffffffffffffffffffffffffffffffffff16815260200192505050600060405180830381600087803b15801561256b57600080fd5b505af115801561257f573d6000803e3d6000fd5b50505050505050565b6000809054906101000a900473ffffffffffffffffffffffffffffffffffffffff1673ffffffffffffffffffffffffffffffffffffffff163373ffffffffffffffffffffffffffffffffffffffff161415156125e357600080fd5b612710811015156125f357600080fd5b83600a8190555082600881905550816009819055508060078190555050505050565b600560009054906101000a900473ffffffffffffffffffffffffffffffffffffffff1681565b600080828481151561264957fe5b0490508091505092915050565b60405161127580612667833901905600608060405234801561001057600080fd5b50600073__DRCTLibrary___________________________63ad4848d29091336040518363ffffffff167c0100000000000000000000000000000000000000000000000000000000028152600401808381526020018273ffffffffffffffffffffffffffffffffffffffff1673ffffffffffffffffffffffffffffffffffffffff1681526020019250505060006040518083038186803b1580156100b357600080fd5b505af41580156100c7573d6000803e3d6000fd5b5050505061119b806100da6000396000f3006080604052600436106100c5576000357c0100000000000000000000000000000000000000000000000000000000900463ffffffff168063095ea7b3146100ca578063174dcea81461012f57806318160ddd146101c357806323b872dd146101ee57806370a08231146102735780638811a0ae146102ca5780638dfda5ae14610321578063a7c3230a14610398578063a9059cbb146103f6578063a9c2e36c1461045b578063bd0af85d146104b2578063dd62ed3e14610515578063e6ed51b71461058c575b600080fd5b3480156100d657600080fd5b50610115600480360381019080803573ffffffffffffffffffffffffffffffffffffffff169060200190929190803590602001909291905050506105f9565b604051808215151515815260200191505060405180910390f35b34801561013b57600080fd5b5061017a60048036038101908080359060200190929190803573ffffffffffffffffffffffffffffffffffffffff1690602001909291905050506106e7565b604051808381526020018273ffffffffffffffffffffffffffffffffffffffff1673ffffffffffffffffffffffffffffffffffffffff1681526020019250505060405180910390f35b3480156101cf57600080fd5b506101d86107e3565b6040518082815260200191505060405180910390f35b3480156101fa57600080fd5b50610259600480360381019080803573ffffffffffffffffffffffffffffffffffffffff169060200190929190803573ffffffffffffffffffffffffffffffffffffffff16906020019092919080359060200190929190505050610892565b604051808215151515815260200191505060405180910390f35b34801561027f57600080fd5b506102b4600480360381019080803573ffffffffffffffffffffffffffffffffffffffff1690602001909291905050506109b5565b6040518082815260200191505060405180910390f35b3480156102d657600080fd5b5061030b600480360381019080803573ffffffffffffffffffffffffffffffffffffffff169060200190929190505050610a9a565b6040518082815260200191505060405180910390f35b34801561032d57600080fd5b50610382600480360381019080803573ffffffffffffffffffffffffffffffffffffffff169060200190929190803573ffffffffffffffffffffffffffffffffffffffff169060200190929190505050610b7f565b6040518082815260200191505060405180910390f35b3480156103a457600080fd5b506103ad610c99565b604051808373ffffffffffffffffffffffffffffffffffffffff1673ffffffffffffffffffffffffffffffffffffffff1681526020018281526020019250505060405180910390f35b34801561040257600080fd5b50610441600480360381019080803573ffffffffffffffffffffffffffffffffffffffff16906020019092919080359060200190929190505050610ccb565b604051808215151515815260200191505060405180910390f35b34801561046757600080fd5b50610470610db9565b604051808273ffffffffffffffffffffffffffffffffffffffff1673ffffffffffffffffffffffffffffffffffffffff16815260200191505060405180910390f35b3480156104be57600080fd5b50610513600480360381019080803573ffffffffffffffffffffffffffffffffffffffff169060200190929190803573ffffffffffffffffffffffffffffffffffffffff169060200190929190505050610e68565b005b34801561052157600080fd5b50610576600480360381019080803573ffffffffffffffffffffffffffffffffffffffff169060200190929190803573ffffffffffffffffffffffffffffffffffffffff169060200190929190505050610f5a565b6040518082815260200191505060405180910390f35b34801561059857600080fd5b506105f760048036038101908080359060200190929190803573ffffffffffffffffffffffffffffffffffffffff169060200190929190803573ffffffffffffffffffffffffffffffffffffffff169060200190929190505050611074565b005b60008073__DRCTLibrary___________________________634538d2c6909185856040518463ffffffff167c0100000000000000000000000000000000000000000000000000000000028152600401808481526020018373ffffffffffffffffffffffffffffffffffffffff1673ffffffffffffffffffffffffffffffffffffffff168152602001828152602001935050505060206040518083038186803b1580156106a457600080fd5b505af41580156106b8573d6000803e3d6000fd5b505050506040513d60208110156106ce57600080fd5b8101908080519060200190929190505050905092915050565b600080600073__DRCTLibrary___________________________6334aeb164909186866040518463ffffffff167c0100000000000000000000000000000000000000000000000000000000028152600401808481526020018381526020018273ffffffffffffffffffffffffffffffffffffffff1673ffffffffffffffffffffffffffffffffffffffff1681526020019350505050604080518083038186803b15801561079357600080fd5b505af41580156107a7573d6000803e3d6000fd5b505050506040513d60408110156107bd57600080fd5b810190808051906020019092919080519060200190929190505050915091509250929050565b60008073__DRCTLibrary___________________________63d973df8690916040518263ffffffff167c01000000000000000000000000000000000000000000000000000000000281526004018082815260200191505060206040518083038186803b15801561085257600080fd5b505af4158015610866573d6000803e3d6000fd5b505050506040513d602081101561087c57600080fd5b8101908080519060200190929190505050905090565b60008073__DRCTLibrary___________________________632eff549c90918686866040518563ffffffff167c0100000000000000000000000000000000000000000000000000000000028152600401808581526020018473ffffffffffffffffffffffffffffffffffffffff1673ffffffffffffffffffffffffffffffffffffffff1681526020018373ffffffffffffffffffffffffffffffffffffffff1673ffffffffffffffffffffffffffffffffffffffff16815260200182815260200194505050505060206040518083038186803b15801561097157600080fd5b505af4158015610985573d6000803e3d6000fd5b505050506040513d602081101561099b57600080fd5b810190808051906020019092919050505090509392505050565b60008073__DRCTLibrary___________________________63e2d643469091846040518363ffffffff167c0100000000000000000000000000000000000000000000000000000000028152600401808381526020018273ffffffffffffffffffffffffffffffffffffffff1673ffffffffffffffffffffffffffffffffffffffff1681526020019250505060206040518083038186803b158015610a5857600080fd5b505af4158015610a6c573d6000803e3d6000fd5b505050506040513d6020811015610a8257600080fd5b81019080805190602001909291905050509050919050565b60008073__DRCTLibrary___________________________632b545c689091846040518363ffffffff167c0100000000000000000000000000000000000000000000000000000000028152600401808381526020018273ffffffffffffffffffffffffffffffffffffffff1673ffffffffffffffffffffffffffffffffffffffff1681526020019250505060206040518083038186803b158015610b3d57600080fd5b505af4158015610b51573d6000803e3d6000fd5b505050506040513d6020811015610b6757600080fd5b81019080805190602001909291905050509050919050565b60008073__DRCTLibrary___________________________63bf435c37909185856040518463ffffffff167c0100000000000000000000000000000000000000000000000000000000028152600401808481526020018373ffffffffffffffffffffffffffffffffffffffff1673ffffffffffffffffffffffffffffffffffffffff1681526020018273ffffffffffffffffffffffffffffffffffffffff1673ffffffffffffffffffffffffffffffffffffffff168152602001935050505060206040518083038186803b158015610c5657600080fd5b505af4158015610c6a573d6000803e3d6000fd5b505050506040513d6020811015610c8057600080fd5b8101908080519060200190929190505050905092915050565b60008060000160009054906101000a900473ffffffffffffffffffffffffffffffffffffffff16908060010154905082565b60008073__DRCTLibrary___________________________63f2b156db909185856040518463ffffffff167c0100000000000000000000000000000000000000000000000000000000028152600401808481526020018373ffffffffffffffffffffffffffffffffffffffff1673ffffffffffffffffffffffffffffffffffffffff168152602001828152602001935050505060206040518083038186803b158015610d7657600080fd5b505af4158015610d8a573d6000803e3d6000fd5b505050506040513d6020811015610da057600080fd5b8101908080519060200190929190505050905092915050565b60008073__DRCTLibrary___________________________63a431b53890916040518263ffffffff167c01000000000000000000000000000000000000000000000000000000000281526004018082815260200191505060206040518083038186803b158015610e2857600080fd5b505af4158015610e3c573d6000803e3d6000fd5b505050506040513d6020811015610e5257600080fd5b8101908080519060200190929190505050905090565b600073__DRCTLibrary___________________________63486e5569909184846040518463ffffffff167c0100000000000000000000000000000000000000000000000000000000028152600401808481526020018373ffffffffffffffffffffffffffffffffffffffff1673ffffffffffffffffffffffffffffffffffffffff1681526020018273ffffffffffffffffffffffffffffffffffffffff1673ffffffffffffffffffffffffffffffffffffffff168152602001935050505060006040518083038186803b158015610f3e57600080fd5b505af4158015610f52573d6000803e3d6000fd5b505050505050565b60008073__DRCTLibrary___________________________63b1020f37909185856040518463ffffffff167c0100000000000000000000000000000000000000000000000000000000028152600401808481526020018373ffffffffffffffffffffffffffffffffffffffff1673ffffffffffffffffffffffffffffffffffffffff1681526020018273ffffffffffffffffffffffffffffffffffffffff1673ffffffffffffffffffffffffffffffffffffffff168152602001935050505060206040518083038186803b15801561103157600080fd5b505af4158015611045573d6000803e3d6000fd5b505050506040513d602081101561105b57600080fd5b8101908080519060200190929190505050905092915050565b600073__DRCTLibrary___________________________6326f0385d90918585856040518563ffffffff167c0100000000000000000000000000000000000000000000000000000000028152600401808581526020018481526020018373ffffffffffffffffffffffffffffffffffffffff1673ffffffffffffffffffffffffffffffffffffffff1681526020018273ffffffffffffffffffffffffffffffffffffffff1673ffffffffffffffffffffffffffffffffffffffff16815260200194505050505060006040518083038186803b15801561115257600080fd5b505af4158015611166573d6000803e3d6000fd5b505050505050505600a165627a7a72305820e0ad93982afe356961f11ec89cf239bddd4ae9dcaf6904f034089782249f971f0029a165627a7a7230582009aeac0059e913882a5648216630ffefe5b0946c456fa5082935006506e47d320029",
  "source": "\n\n\n\ninterface TokenToTokenSwap_Interface {\n  function createSwap(uint _amount, address _senderAdd) external;\n}\n\n\ninterface Deployer_Interface {\n  function newContract(address _party, address user_contract, uint _start_date) external payable returns (address);\n}\n\n\n\ninterface Factory_Interface {\n  function createToken(uint _supply, address _party, uint _start_date) external returns (address,address, uint);\n  function payToken(address _party, address _token_add) external;\n  function deployContract(uint _start_date) external payable returns (address);\n   function getBase() external view returns(address);\n  function getVariables() external view returns (address, uint, uint, address,uint);\n  function isWhitelisted(address _member) external view returns (bool);\n}\n\n\n\nlibrary DRCTLibrary{\n\n    using SafeMath for uint256;\n\n    \n    \n    struct Balance {\n        address owner;\n        uint amount;\n        }\n\n    struct TokenStorage{\n        \n        address factory_contract;\n        \n        uint total_supply;\n        \n        mapping(address => Balance[]) swap_balances;\n        \n        mapping(address => mapping(address => uint)) swap_balances_index;\n        \n        mapping(address => address[]) user_swaps;\n        \n        mapping(address => mapping(address => uint)) user_swaps_index;\n        \n        mapping(address => uint) user_total_balances;\n        \n        mapping(address => mapping(address => uint)) allowed;\n    }   \n\n    \n    \n    event Transfer(address indexed _from, address indexed _to, uint _value);\n    event Approval(address indexed _owner, address indexed _spender, uint _value);\n    event CreateToken(address _from, uint _value);\n    \n    \n    \n    function startToken(TokenStorage storage self,address _factory) public {\n        self.factory_contract = _factory;\n    }\n\n    \n    function isWhitelisted(TokenStorage storage self,address _member) internal view returns(bool){\n        Factory_Interface _factory = Factory_Interface(self.factory_contract);\n        return _factory.isWhitelisted(_member);\n    }\n\n    \n    function getFactoryAddress(TokenStorage storage self) external view returns(address){\n        return self.factory_contract;\n    }\n\n    \n    function createToken(TokenStorage storage self,uint _supply, address _owner, address _swap) public{\n        require(msg.sender == self.factory_contract);\n        \n        self.total_supply = self.total_supply.add(_supply);\n        \n        self.user_total_balances[_owner] = self.user_total_balances[_owner].add(_supply);\n        \n        if (self.user_swaps[_owner].length == 0)\n            self.user_swaps[_owner].push(address(0x0));\n        \n        self.user_swaps_index[_owner][_swap] = self.user_swaps[_owner].length;\n        \n        self.user_swaps[_owner].push(_swap);\n        \n        self.swap_balances[_swap].push(Balance({\n            owner: 0,\n            amount: 0\n        }));\n        \n        self.swap_balances_index[_swap][_owner] = 1;\n        \n        self.swap_balances[_swap].push(Balance({\n            owner: _owner,\n            amount: _supply\n        }));\n        emit CreateToken(_owner,_supply);\n    }\n\n    \n    function pay(TokenStorage storage self,address _party, address _swap) public{\n        require(msg.sender == self.factory_contract);\n        uint party_balance_index = self.swap_balances_index[_swap][_party];\n        require(party_balance_index > 0);\n        uint party_swap_balance = self.swap_balances[_swap][party_balance_index].amount;\n        \n        self.user_total_balances[_party] = self.user_total_balances[_party].sub(party_swap_balance);\n        \n        self.total_supply = self.total_supply.sub(party_swap_balance);\n        \n        self.swap_balances[_swap][party_balance_index].amount = 0;\n    }\n\n    \n    function balanceOf(TokenStorage storage self,address _owner) public constant returns (uint balance) {\n       return self.user_total_balances[_owner]; \n     }\n\n    \n    function totalSupply(TokenStorage storage self) public constant returns (uint _total_supply) {\n       return self.total_supply;\n    }\n\n    \n    function removeFromSwapBalances(TokenStorage storage self,address _remove, address _swap) internal {\n        uint last_address_index = self.swap_balances[_swap].length.sub(1);\n        address last_address = self.swap_balances[_swap][last_address_index].owner;\n        \n        if (last_address != _remove) {\n            uint remove_index = self.swap_balances_index[_swap][_remove];\n            \n            self.swap_balances_index[_swap][last_address] = remove_index;\n            \n            self.swap_balances[_swap][remove_index] = self.swap_balances[_swap][last_address_index];\n        }\n        \n        delete self.swap_balances_index[_swap][_remove];\n        \n        self.swap_balances[_swap].length = self.swap_balances[_swap].length.sub(1);\n    }\n\n    \n    function transferHelper(TokenStorage storage self,address _from, address _to, uint _amount) internal {\n        \n        address[] memory from_swaps = self.user_swaps[_from];\n        \n        for (uint i = from_swaps.length.sub(1); i > 0; i--) {\n            \n            uint from_swap_user_index = self.swap_balances_index[from_swaps[i]][_from];\n            Balance memory from_user_bal = self.swap_balances[from_swaps[i]][from_swap_user_index];\n            \n            if (_amount >= from_user_bal.amount) {\n                _amount -= from_user_bal.amount;\n                \n                self.user_swaps[_from].length = self.user_swaps[_from].length.sub(1);\n                \n                delete self.user_swaps_index[_from][from_swaps[i]];\n                \n                if (self.user_swaps_index[_to][from_swaps[i]] != 0) {\n                    \n                    uint to_balance_index = self.swap_balances_index[from_swaps[i]][_to];\n                    assert(to_balance_index != 0);\n                    \n                    self.swap_balances[from_swaps[i]][to_balance_index].amount = self.swap_balances[from_swaps[i]][to_balance_index].amount.add(from_user_bal.amount);\n                    \n                    removeFromSwapBalances(self,_from, from_swaps[i]);\n                } else {\n                    \n                    if (self.user_swaps[_to].length == 0){\n                        self.user_swaps[_to].push(address(0x0));\n                    }\n                self.user_swaps_index[_to][from_swaps[i]] = self.user_swaps[_to].length;\n                \n                self.user_swaps[_to].push(from_swaps[i]);\n                \n                self.swap_balances[from_swaps[i]][from_swap_user_index].owner = _to;\n                \n                self.swap_balances_index[from_swaps[i]][_to] = self.swap_balances_index[from_swaps[i]][_from];\n                \n                delete self.swap_balances_index[from_swaps[i]][_from];\n            }\n            \n            if (_amount == 0)\n                break;\n            } else {\n                \n                uint to_swap_balance_index = self.swap_balances_index[from_swaps[i]][_to];\n                \n                if (self.user_swaps_index[_to][from_swaps[i]] != 0) {\n                    \n                    self.swap_balances[from_swaps[i]][to_swap_balance_index].amount = self.swap_balances[from_swaps[i]][to_swap_balance_index].amount.add(_amount);\n                } else {\n                    \n                    if (self.user_swaps[_to].length == 0){\n                        self.user_swaps[_to].push(address(0x0));\n                    }\n                    self.user_swaps_index[_to][from_swaps[i]] = self.user_swaps[_to].length;\n                    \n                    self.user_swaps[_to].push(from_swaps[i]);\n                    \n                    self.swap_balances_index[from_swaps[i]][_to] = self.swap_balances[from_swaps[i]].length;\n                    \n                    self.swap_balances[from_swaps[i]].push(Balance({\n                        owner: _to,\n                        amount: _amount\n                    }));\n                }\n                \n                self.swap_balances[from_swaps[i]][from_swap_user_index].amount = self.swap_balances[from_swaps[i]][from_swap_user_index].amount.sub(_amount);\n                \n                break;\n            }\n        }\n    }\n\n    \n    function transfer(TokenStorage storage self, address _to, uint _amount) public returns (bool) {\n        require(isWhitelisted(self,_to));\n        uint balance_owner = self.user_total_balances[msg.sender];\n        if (\n            _to == msg.sender ||\n            _to == address(0) ||\n            _amount == 0 ||\n            balance_owner < _amount\n        ) return false;\n        transferHelper(self,msg.sender, _to, _amount);\n        self.user_total_balances[msg.sender] = self.user_total_balances[msg.sender].sub(_amount);\n        self.user_total_balances[_to] = self.user_total_balances[_to].add(_amount);\n        emit Transfer(msg.sender, _to, _amount);\n        return true;\n    }\n    \n    function transferFrom(TokenStorage storage self, address _from, address _to, uint _amount) public returns (bool) {\n        require(isWhitelisted(self,_to));\n        uint balance_owner = self.user_total_balances[_from];\n        uint sender_allowed = self.allowed[_from][msg.sender];\n        if (\n            _to == _from ||\n            _to == address(0) ||\n            _amount == 0 ||\n            balance_owner < _amount ||\n            sender_allowed < _amount\n        ) return false;\n        transferHelper(self,_from, _to, _amount);\n        self.user_total_balances[_from] = self.user_total_balances[_from].sub(_amount);\n        self.user_total_balances[_to] = self.user_total_balances[_to].add(_amount);\n        self.allowed[_from][msg.sender] = self.allowed[_from][msg.sender].sub(_amount);\n        emit Transfer(_from, _to, _amount);\n        return true;\n    }\n\n    \n    function approve(TokenStorage storage self, address _spender, uint _amount) public returns (bool) {\n        self.allowed[msg.sender][_spender] = _amount;\n        emit Approval(msg.sender, _spender, _amount);\n        return true;\n    }\n\n    \n    function addressCount(TokenStorage storage self, address _swap) public constant returns (uint) { \n        return self.swap_balances[_swap].length; \n    }\n\n    \n    function getBalanceAndHolderByIndex(TokenStorage storage self, uint _ind, address _swap) public constant returns (uint, address) {\n        return (self.swap_balances[_swap][_ind].amount, self.swap_balances[_swap][_ind].owner);\n    }\n\n    \n    function getIndexByAddress(TokenStorage storage self, address _owner, address _swap) public constant returns (uint) {\n        return self.swap_balances_index[_swap][_owner]; \n    }\n\n    \n    function allowance(TokenStorage storage self, address _owner, address _spender) public constant returns (uint) {\n        return self.allowed[_owner][_spender]; \n    }\n}\n\n\ncontract DRCT_Token {\n\n    using DRCTLibrary for DRCTLibrary.TokenStorage;\n\n    \n    DRCTLibrary.TokenStorage public drct;\n\n    \n    \n    constructor() public {\n        drct.startToken(msg.sender);\n    }\n\n    \n    function createToken(uint _supply, address _owner, address _swap) public{\n        drct.createToken(_supply,_owner,_swap);\n    }\n\n    \n    function getFactoryAddress() external view returns(address){\n        return drct.getFactoryAddress();\n    }\n\n    \n    function pay(address _party, address _swap) public{\n        drct.pay(_party,_swap);\n    }\n\n    \n    function balanceOf(address _owner) public constant returns (uint balance) {\n       return drct.balanceOf(_owner);\n     }\n\n    \n    function totalSupply() public constant returns (uint _total_supply) {\n       return drct.totalSupply();\n    }\n\n    \n    function transfer(address _to, uint _amount) public returns (bool) {\n        return drct.transfer(_to,_amount);\n    }\n\n    \n    function transferFrom(address _from, address _to, uint _amount) public returns (bool) {\n        return drct.transferFrom(_from,_to,_amount);\n    }\n\n    \n    function approve(address _spender, uint _amount) public returns (bool) {\n        return drct.approve(_spender,_amount);\n    }\n\n    \n    function addressCount(address _swap) public constant returns (uint) { \n        return drct.addressCount(_swap); \n    }\n\n    \n    function getBalanceAndHolderByIndex(uint _ind, address _swap) public constant returns (uint, address) {\n        return drct.getBalanceAndHolderByIndex(_ind,_swap);\n    }\n\n    \n    function getIndexByAddress(address _owner, address _swap) public constant returns (uint) {\n        return drct.getIndexByAddress(_owner,_swap); \n    }\n\n    \n    function allowance(address _owner, address _spender) public constant returns (uint) {\n        return drct.allowance(_owner,_spender); \n    }\n}\n\n\n\n\n\n\n\ninterface Wrapped_Ether_Interface {\n  function totalSupply() external constant returns (uint);\n  function balanceOf(address _owner) external constant returns (uint);\n  function transfer(address _to, uint _amount) external returns (bool);\n  function transferFrom(address _from, address _to, uint _amount) external returns (bool);\n  function approve(address _spender, uint _amount) external returns (bool);\n  function allowance(address _owner, address _spender) external constant returns (uint);\n  function withdraw(uint _value) external;\n  function createToken() external;\n\n}\n\ninterface Membership_Interface {\n    function getMembershipType(address _member) external constant returns(uint);\n}\n\n\n\n\ncontract Factory {\n    using SafeMath for uint256;\n    \n    \n    \n    \n    address public owner;\n    address public oracle_address;\n    \n    address public user_contract;\n    \n    address internal deployer_address;\n    Deployer_Interface internal deployer;\n    address public token;\n    \n    uint public fee;\n    \n    uint public swapFee;\n    \n    uint public duration;\n    \n    uint public multiplier;\n    \n    uint public token_ratio;\n    \n    address[] public contracts;\n    uint[] public startDates;\n    address public memberContract;\n    mapping(uint => bool) whitelistedTypes;\n    mapping(address => uint) public created_contracts;\n    mapping(address => uint) public token_dates;\n    mapping(uint => address) public long_tokens;\n    mapping(uint => address) public short_tokens;\n    mapping(address => uint) public token_type; \n\n    \n    \n    event ContractCreation(address _sender, address _created);\n\n    \n    modifier onlyOwner() {\n        require(msg.sender == owner);\n        _;\n    }\n\n    \n    \n     constructor() public {\n        owner = msg.sender;\n    }\n\n    \n    function init(address _owner) public{\n        require(owner == address(0));\n        owner = _owner;\n    }\n\n    \n    function setMemberContract(address _memberContract) public onlyOwner() {\n        memberContract = _memberContract;\n    }\n\n    \n    function setWhitelistedMemberTypes(uint[] _memberTypes) public onlyOwner(){\n        whitelistedTypes[0] = false;\n        for(uint i = 0; i<_memberTypes.length;i++){\n            whitelistedTypes[_memberTypes[i]] = true;\n        }\n    }\n\n    \n    function isWhitelisted(address _member) public view returns (bool){\n        Membership_Interface Member = Membership_Interface(memberContract);\n        return whitelistedTypes[Member.getMembershipType(_member)];\n    }\n \n    \n    function getTokens(uint _date) public view returns(address, address){\n        return(long_tokens[_date],short_tokens[_date]);\n    }\n\n    \n    function getTokenType(address _token) public view returns(uint){\n        return(token_type[_token]);\n    }\n\n    \n    function setFee(uint _fee) public onlyOwner() {\n        fee = _fee;\n    }\n\n    \n    function setSwapFee(uint _swapFee) public onlyOwner() {\n        swapFee = _swapFee;\n    }   \n\n    \n    function setDeployer(address _deployer) public onlyOwner() {\n        deployer_address = _deployer;\n        deployer = Deployer_Interface(_deployer);\n    }\n\n    \n    function setUserContract(address _userContract) public onlyOwner() {\n        user_contract = _userContract;\n    }\n\n    \n    function setVariables(uint _token_ratio, uint _duration, uint _multiplier, uint _swapFee) public onlyOwner() {\n        require(_swapFee < 10000);\n        token_ratio = _token_ratio;\n        duration = _duration;\n        multiplier = _multiplier;\n        swapFee = _swapFee;\n    }\n\n    \n    function setBaseToken(address _token) public onlyOwner() {\n        token = _token;\n    }\n\n    \n    function deployContract(uint _start_date) public payable returns (address) {\n        require(msg.value >= fee && isWhitelisted(msg.sender));\n        require(_start_date % 86400 == 0);\n        address new_contract = deployer.newContract(msg.sender, user_contract, _start_date);\n        contracts.push(new_contract);\n        created_contracts[new_contract] = _start_date;\n        emit ContractCreation(msg.sender,new_contract);\n        return new_contract;\n    }\n\n    \n    function deployTokenContract(uint _start_date) public{\n        address _token;\n        require(_start_date % 86400 == 0);\n        require(long_tokens[_start_date] == address(0) && short_tokens[_start_date] == address(0));\n        _token = new DRCT_Token();\n        token_dates[_token] = _start_date;\n        long_tokens[_start_date] = _token;\n        token_type[_token]=2;\n        _token = new DRCT_Token();\n        token_type[_token]=1;\n        short_tokens[_start_date] = _token;\n        token_dates[_token] = _start_date;\n        startDates.push(_start_date);\n\n    }\n\n    \n    function createToken(uint _supply, address _party, uint _start_date) public returns (address, address, uint) {\n        require(created_contracts[msg.sender] == _start_date);\n        address ltoken = long_tokens[_start_date];\n        address stoken = short_tokens[_start_date];\n        require(ltoken != address(0) && stoken != address(0));\n            DRCT_Token drct_interface = DRCT_Token(ltoken);\n            drct_interface.createToken(_supply.div(token_ratio), _party,msg.sender);\n            drct_interface = DRCT_Token(stoken);\n            drct_interface.createToken(_supply.div(token_ratio), _party,msg.sender);\n        return (ltoken, stoken, token_ratio);\n    }\n  \n    \n    function setOracleAddress(address _new_oracle_address) public onlyOwner() {\n        oracle_address = _new_oracle_address; \n    }\n\n    \n    function setOwner(address _new_owner) public onlyOwner() { \n        owner = _new_owner; \n    }\n\n    \n    function withdrawFees() public onlyOwner(){\n        Wrapped_Ether_Interface token_interface = Wrapped_Ether_Interface(token);\n        uint _val = token_interface.balanceOf(address(this));\n        if(_val > 0){\n            token_interface.withdraw(_val);\n        }\n        owner.transfer(address(this).balance);\n     }\n\n     \n    function() public payable {\n    }\n\n    \n    function getVariables() public view returns (address, uint, uint, address,uint){\n        return (oracle_address,duration, multiplier, token,swapFee);\n    }\n\n    \n    function payToken(address _party, address _token_add) public {\n        require(created_contracts[msg.sender] > 0);\n        DRCT_Token drct_interface = DRCT_Token(_token_add);\n        drct_interface.pay(_party, msg.sender);\n    }\n\n    \n    function getCount() public constant returns(uint) {\n        return contracts.length;\n    }\n\n    \n    function getDateCount() public constant returns(uint) {\n        return startDates.length;\n    }\n}\n\n\n\ncontract Wrapped_Ether {\n\n    using SafeMath for uint256;\n\n    \n\n    \n    string public name = \"Wrapped Ether\";\n    uint public total_supply;\n    mapping(address => uint) internal balances;\n    mapping(address => mapping (address => uint)) internal allowed;\n\n    \n    event Transfer(address indexed _from, address indexed _to, uint _value);\n    event Approval(address indexed _owner, address indexed _spender, uint _value);\n    event StateChanged(bool _success, string _message);\n\n    \n    \n    function createToken() public payable {\n        require(msg.value > 0);\n        balances[msg.sender] = balances[msg.sender].add(msg.value);\n        total_supply = total_supply.add(msg.value);\n    }\n\n    \n    function withdraw(uint _value) public {\n        balances[msg.sender] = balances[msg.sender].sub(_value);\n        total_supply = total_supply.sub(_value);\n        msg.sender.transfer(_value);\n    }\n\n    \n    function balanceOf(address _owner) public constant returns (uint bal) { \n        return balances[_owner]; \n    }\n\n    \n    function transfer(address _to, uint _amount) public returns (bool) {\n        if (balances[msg.sender] >= _amount\n        && _amount > 0\n        && balances[_to] + _amount > balances[_to]) {\n            balances[msg.sender] = balances[msg.sender] - _amount;\n            balances[_to] = balances[_to] + _amount;\n            emit Transfer(msg.sender, _to, _amount);\n            return true;\n        } else {\n            return false;\n        }\n    }\n\n    \n    function transferFrom(address _from, address _to, uint _amount) public returns (bool) {\n        if (balances[_from] >= _amount\n        && allowed[_from][msg.sender] >= _amount\n        && _amount > 0\n        && balances[_to] + _amount > balances[_to]) {\n            balances[_from] = balances[_from] - _amount;\n            allowed[_from][msg.sender] = allowed[_from][msg.sender] - _amount;\n            balances[_to] = balances[_to] + _amount;\n            emit Transfer(_from, _to, _amount);\n            return true;\n        } else {\n            return false;\n        }\n    }\n\n    \n    function approve(address _spender, uint _amount) public returns (bool) {\n        allowed[msg.sender][_spender] = _amount;\n        emit Approval(msg.sender, _spender, _amount);\n        return true;\n    }\n\n    \n    function allowance(address _owner, address _spender) public view returns (uint) {\n       return allowed[_owner][_spender]; }\n\n    \n    function totalSupply() public constant returns (uint) {\n       return total_supply;\n    }\n}\n\n\n\nlibrary SafeMath {\n  function mul(uint256 a, uint256 b) internal pure returns (uint256) {\n    uint256 c = a * b;\n    assert(a == 0 || c / a == b);\n    return c;\n  }\n\n  function div(uint256 a, uint256 b) internal pure returns (uint256) {\n    \n    uint256 c = a / b;\n    \n    return c;\n  }\n\n  function sub(uint256 a, uint256 b) internal pure returns (uint256) {\n    assert(b <= a);\n    return a - b;\n  }\n\n  function add(uint256 a, uint256 b) internal pure returns (uint256) {\n    uint256 c = a + b;\n    assert(c >= a);\n    return c;\n  }\n\n  function min(uint a, uint b) internal pure returns (uint256) {\n    return a < b ? a : b;\n  }\n}\n\n\ncontract UserContract{\n\n    using SafeMath for uint256;\n\n    \n    TokenToTokenSwap_Interface internal swap;\n    Wrapped_Ether internal baseToken;\n    Factory internal factory; \n    address public factory_address;\n    address internal owner;\n\n    \n    constructor() public {\n        owner = msg.sender;\n    }\n\n    \n    function Initiate(address _swapadd, uint _amount) payable public{\n        require(msg.value == _amount.mul(2));\n        swap = TokenToTokenSwap_Interface(_swapadd);\n        address token_address = factory.token();\n        baseToken = Wrapped_Ether(token_address);\n        baseToken.createToken.value(_amount.mul(2))();\n        baseToken.transfer(_swapadd,_amount.mul(2));\n        swap.createSwap(_amount, msg.sender);\n    }\n\n    \n    function setFactory(address _factory_address) public {\n        require (msg.sender == owner);\n        factory_address = _factory_address;\n        factory = Factory(factory_address);\n    }\n}",
  "sourcePath": "/home/XXX-1/smartrim-experiment/for-rlf/0x9482a18ed523b1a2f097b480d38852dfff83e0b9/contracts/0x9482a18ed523b1a2f097b480d38852dfff83e0b9.sol",
  "compiler": {
    "name": "solc",
    "version": "0.4.25+commit.59dbf8f1.Emscripten.clang"
  },
  "schemaVersion": "3.4.16",
  "updatedAt": "2025-08-14T04:00:55.747Z",
  "devdoc": {
    "methods": {}
  },
  "userdoc": {
    "methods": {}
  }
}