{
  "contractName": "Trading",
  "abi": [
    {
      "constant": true,
      "inputs": [],
      "name": "getBalance",
      "outputs": [
        {
          "name": "",
          "type": "uint256"
        }
      ],
      "payable": false,
      "stateMutability": "view",
      "type": "function"
    },
    {
      "constant": true,
      "inputs": [
        {
          "name": "",
          "type": "uint8"
        },
        {
          "name": "",
          "type": "address"
        }
      ],
      "name": "ResourcesOwner",
      "outputs": [
        {
          "name": "",
          "type": "uint256"
        }
      ],
      "payable": false,
      "stateMutability": "view",
      "type": "function"
    },
    {
      "constant": false,
      "inputs": [],
      "name": "withdrawPayments",
      "outputs": [],
      "payable": false,
      "stateMutability": "nonpayable",
      "type": "function"
    },
    {
      "constant": false,
      "inputs": [
        {
          "name": "_MineId",
          "type": "uint256"
        }
      ],
      "name": "UpMineLVL",
      "outputs": [],
      "payable": false,
      "stateMutability": "nonpayable",
      "type": "function"
    },
    {
      "constant": true,
      "inputs": [
        {
          "name": "",
          "type": "uint256"
        }
      ],
      "name": "TradeList",
      "outputs": [
        {
          "name": "Seller",
          "type": "address"
        },
        {
          "name": "ResourceId",
          "type": "uint8"
        },
        {
          "name": "ResourceAmount",
          "type": "uint256"
        },
        {
          "name": "MineId",
          "type": "uint256"
        },
        {
          "name": "Price",
          "type": "uint128"
        }
      ],
      "payable": false,
      "stateMutability": "view",
      "type": "function"
    },
    {
      "constant": true,
      "inputs": [],
      "name": "owner",
      "outputs": [
        {
          "name": "",
          "type": "address"
        }
      ],
      "payable": false,
      "stateMutability": "view",
      "type": "function"
    },
    {
      "constant": true,
      "inputs": [
        {
          "name": "",
          "type": "uint256"
        }
      ],
      "name": "MinesOnTrade",
      "outputs": [
        {
          "name": "",
          "type": "uint256"
        }
      ],
      "payable": false,
      "stateMutability": "view",
      "type": "function"
    },
    {
      "constant": true,
      "inputs": [],
      "name": "nextMineId",
      "outputs": [
        {
          "name": "",
          "type": "uint256"
        }
      ],
      "payable": false,
      "stateMutability": "view",
      "type": "function"
    },
    {
      "constant": true,
      "inputs": [],
      "name": "nextTradeEvent",
      "outputs": [
        {
          "name": "",
          "type": "uint256"
        }
      ],
      "payable": false,
      "stateMutability": "view",
      "type": "function"
    },
    {
      "constant": true,
      "inputs": [],
      "name": "TradeId",
      "outputs": [
        {
          "name": "",
          "type": "uint256"
        }
      ],
      "payable": false,
      "stateMutability": "view",
      "type": "function"
    },
    {
      "constant": true,
      "inputs": [
        {
          "name": "",
          "type": "uint256"
        }
      ],
      "name": "minesPrice",
      "outputs": [
        {
          "name": "",
          "type": "uint128"
        }
      ],
      "payable": false,
      "stateMutability": "view",
      "type": "function"
    },
    {
      "constant": true,
      "inputs": [
        {
          "name": "",
          "type": "address"
        }
      ],
      "name": "payments",
      "outputs": [
        {
          "name": "",
          "type": "uint256"
        }
      ],
      "payable": false,
      "stateMutability": "view",
      "type": "function"
    },
    {
      "constant": true,
      "inputs": [],
      "name": "nextMineEvent",
      "outputs": [
        {
          "name": "",
          "type": "uint256"
        }
      ],
      "payable": false,
      "stateMutability": "view",
      "type": "function"
    },
    {
      "constant": false,
      "inputs": [
        {
          "name": "newOwner",
          "type": "address"
        }
      ],
      "name": "transferOwnership",
      "outputs": [],
      "payable": false,
      "stateMutability": "nonpayable",
      "type": "function"
    },
    {
      "constant": false,
      "inputs": [
        {
          "name": "_MineIds",
          "type": "uint256[]"
        }
      ],
      "name": "StartMiningByIdArray",
      "outputs": [],
      "payable": false,
      "stateMutability": "nonpayable",
      "type": "function"
    },
    {
      "anonymous": false,
      "inputs": [
        {
          "indexed": true,
          "name": "AffectId",
          "type": "uint256"
        },
        {
          "indexed": false,
          "name": "TradeId",
          "type": "uint256"
        }
      ],
      "name": "TradeAffected",
      "type": "event"
    },
    {
      "anonymous": false,
      "inputs": [
        {
          "indexed": true,
          "name": "previousOwner",
          "type": "address"
        },
        {
          "indexed": true,
          "name": "newOwner",
          "type": "address"
        }
      ],
      "name": "OwnershipTransferred",
      "type": "event"
    },
    {
      "anonymous": false,
      "inputs": [
        {
          "indexed": true,
          "name": "AffectId",
          "type": "uint256"
        },
        {
          "indexed": false,
          "name": "MineId",
          "type": "uint256"
        }
      ],
      "name": "MineAffected",
      "type": "event"
    },
    {
      "constant": false,
      "inputs": [
        {
          "name": "_MineLVL",
          "type": "uint8"
        }
      ],
      "name": "buyMine",
      "outputs": [],
      "payable": true,
      "stateMutability": "payable",
      "type": "function"
    },
    {
      "constant": false,
      "inputs": [
        {
          "name": "_sellResourceId",
          "type": "uint8"
        },
        {
          "name": "_ResourcesAmount",
          "type": "uint256"
        },
        {
          "name": "_sellMineId",
          "type": "uint256"
        },
        {
          "name": "_sellPrice",
          "type": "uint128"
        }
      ],
      "name": "startSelling",
      "outputs": [],
      "payable": false,
      "stateMutability": "nonpayable",
      "type": "function"
    },
    {
      "constant": false,
      "inputs": [
        {
          "name": "_TradeId",
          "type": "uint256"
        }
      ],
      "name": "stopSelling",
      "outputs": [],
      "payable": false,
      "stateMutability": "nonpayable",
      "type": "function"
    },
    {
      "constant": false,
      "inputs": [
        {
          "name": "_TradeId",
          "type": "uint256"
        },
        {
          "name": "_newPrice",
          "type": "uint128"
        }
      ],
      "name": "changeSellingPrice",
      "outputs": [],
      "payable": false,
      "stateMutability": "nonpayable",
      "type": "function"
    },
    {
      "constant": false,
      "inputs": [
        {
          "name": "_TradeId",
          "type": "uint256"
        }
      ],
      "name": "startBuying",
      "outputs": [],
      "payable": true,
      "stateMutability": "payable",
      "type": "function"
    }
  ],
  "bytecode": "0x6080604052600f60045560016005556001601155600160125533600660006101000a81548173ffffffffffffffffffffffffffffffffffffffff021916908373ffffffffffffffffffffffffffffffffffffffff160217905550611cb0806100686000396000f300608060405260043610610112576000357c0100000000000000000000000000000000000000000000000000000000900463ffffffff16806312065fe0146101175780633e592d50146101425780636103d70b146101a657806365b70e45146101bd5780636f479f57146101ea5780637b5a08c5146102335780638da5cb5b146102e65780638e08b2ec1461033d578063924dd50a1461037e5780639b550e55146103de578063a504bd0d14610409578063a5f128fb14610434578063c144d7dc14610461578063c712f3b314610484578063df133cf9146104af578063e2982c2114610514578063f27e2ef61461056b578063f2fde38b14610596578063f5c89f83146105d9578063ffa727071461063f575b600080fd5b34801561012357600080fd5b5061012c61065f565b6040518082815260200191505060405180910390f35b34801561014e57600080fd5b50610190600480360381019080803560ff169060200190929190803573ffffffffffffffffffffffffffffffffffffffff169060200190929190505050610702565b6040518082815260200191505060405180910390f35b3480156101b257600080fd5b506101bb610727565b005b3480156101c957600080fd5b506101e860048036038101908080359060200190929190505050610887565b005b3480156101f657600080fd5b506102316004803603810190808035906020019092919080356fffffffffffffffffffffffffffffffff169060200190929190505050610b12565b005b34801561023f57600080fd5b5061025e60048036038101908080359060200190929190505050610c7d565b604051808673ffffffffffffffffffffffffffffffffffffffff1673ffffffffffffffffffffffffffffffffffffffff1681526020018560ff1660ff168152602001848152602001838152602001826fffffffffffffffffffffffffffffffff166fffffffffffffffffffffffffffffffff1681526020019550505050505060405180910390f35b3480156102f257600080fd5b506102fb610cfc565b604051808273ffffffffffffffffffffffffffffffffffffffff1673ffffffffffffffffffffffffffffffffffffffff16815260200191505060405180910390f35b34801561034957600080fd5b5061036860048036038101908080359060200190929190505050610d22565b6040518082815260200191505060405180910390f35b34801561038a57600080fd5b506103dc600480360381019080803560ff169060200190929190803590602001909291908035906020019092919080356fffffffffffffffffffffffffffffffff169060200190929190505050610d3a565b005b3480156103ea57600080fd5b506103f36111a7565b6040518082815260200191505060405180910390f35b34801561041557600080fd5b5061041e6111ad565b6040518082815260200191505060405180910390f35b34801561044057600080fd5b5061045f600480360381019080803590602001909291905050506111b3565b005b610482600480360381019080803560ff1690602001909291905050506113d7565b005b34801561049057600080fd5b506104996114cd565b6040518082815260200191505060405180910390f35b3480156104bb57600080fd5b506104da600480360381019080803590602001909291905050506114d3565b60405180826fffffffffffffffffffffffffffffffff166fffffffffffffffffffffffffffffffff16815260200191505060405180910390f35b34801561052057600080fd5b50610555600480360381019080803573ffffffffffffffffffffffffffffffffffffffff16906020019092919050505061150e565b6040518082815260200191505060405180910390f35b34801561057757600080fd5b50610580611526565b6040518082815260200191505060405180910390f35b3480156105a257600080fd5b506105d7600480360381019080803573ffffffffffffffffffffffffffffffffffffffff16906020019092919050505061152c565b005b3480156105e557600080fd5b5061063d60048036038101908080359060200190820180359060200190808060200260200160405190810160405280939291908181526020018383602002808284378201915050505050509192919290505050611684565b005b61065d60048036038101908080359060200190929190505050611758565b005b6000600660009054906101000a900473ffffffffffffffffffffffffffffffffffffffff1673ffffffffffffffffffffffffffffffffffffffff163373ffffffffffffffffffffffffffffffffffffffff161415156106bd57600080fd5b600760003373ffffffffffffffffffffffffffffffffffffffff1673ffffffffffffffffffffffffffffffffffffffff16815260200190815260200160002054905090565b6000602052816000526040600020602052806000526040600020600091509150505481565b600080600660009054906101000a900473ffffffffffffffffffffffffffffffffffffffff1673ffffffffffffffffffffffffffffffffffffffff163373ffffffffffffffffffffffffffffffffffffffff1614151561078657600080fd5b339150600760008373ffffffffffffffffffffffffffffffffffffffff1673ffffffffffffffffffffffffffffffffffffffff168152602001908152602001600020549050600081141515156107db57600080fd5b803073ffffffffffffffffffffffffffffffffffffffff16311015151561080157600080fd5b6000600760008473ffffffffffffffffffffffffffffffffffffffff1673ffffffffffffffffffffffffffffffffffffffff168152602001908152602001600020819055508173ffffffffffffffffffffffffffffffffffffffff166108fc829081150290604051600060405180830381858888f19350505050151561088357fe5b5050565b6000806002600084815260200190815260200160002060009054906101000a900460ff16915060008260ff161180156108c45750600d8260ff1611155b801561092e57503373ffffffffffffffffffffffffffffffffffffffff166001600085815260200190815260200160002060009054906101000a900473ffffffffffffffffffffffffffffffffffffffff1673ffffffffffffffffffffffffffffffffffffffff16145b151561093957600080fd5b600190505b8160ff168160ff161115156109c957600f6002828403010260ff166000808360ff1660ff16815260200190815260200160002060003373ffffffffffffffffffffffffffffffffffffffff1673ffffffffffffffffffffffffffffffffffffffff16815260200190815260200160002054101515156109bc57600080fd5b808060010191505061093e565b600190505b8160ff168160ff16111515610a7e57600f6002828403010260ff166000808360ff1660ff16815260200190815260200160002060003373ffffffffffffffffffffffffffffffffffffffff1673ffffffffffffffffffffffffffffffffffffffff16815260200190815260200160002060008282540392505081905550600d8260ff16148015610a625750600c8160ff1611155b15610a7157610a7081611a1e565b5b80806001019150506109ce565b60026000848152602001908152602001600020600081819054906101000a900460ff168092919060010191906101000a81548160ff021916908360ff160217905550506005547fb770391bf57d1c62680303f1fa046277b0992ae97aa4bd1d919d6b68cea4d797846040518082815260200191505060405180910390a2600560008154809291906001019190505550505050565b60008083118015610b3557506000826fffffffffffffffffffffffffffffffff16115b1515610b4057600080fd5b6008600084815260200190815260200160002090503373ffffffffffffffffffffffffffffffffffffffff168160000160009054906101000a900473ffffffffffffffffffffffffffffffffffffffff1673ffffffffffffffffffffffffffffffffffffffff16148015610be6575060008160030160009054906101000a90046fffffffffffffffffffffffffffffffff166fffffffffffffffffffffffffffffffff16115b1515610bf157600080fd5b818160030160006101000a8154816fffffffffffffffffffffffffffffffff02191690836fffffffffffffffffffffffffffffffff1602179055506012547fa9fd1bd3ea5c6ffe5f109bcf05370a1b1439a16f5cbccc7b1e49487f59efdf8c846040518082815260200191505060405180910390a2601260008154809291906001019190505550505050565b60086020528060005260406000206000915090508060000160009054906101000a900473ffffffffffffffffffffffffffffffffffffffff16908060000160149054906101000a900460ff16908060010154908060020154908060030160009054906101000a90046fffffffffffffffffffffffffffffffff16905085565b600660009054906101000a900473ffffffffffffffffffffffffffffffffffffffff1681565b60096020528060005260406000206000915090505481565b60008460ff161480610d4c5750600082145b8015610d66575060008460ff161180610d655750600082115b5b8015610d8457506000816fffffffffffffffffffffffffffffffff16115b1515610d8f57600080fd5b6103e8816fffffffffffffffffffffffffffffffff16811515610dae57fe5b068103905060008460ff161115610fb957600083118015610e245750826000808660ff1660ff16815260200190815260200160002060003373ffffffffffffffffffffffffffffffffffffffff1673ffffffffffffffffffffffffffffffffffffffff1681526020019081526020016000205410155b1515610e2f57600080fd5b826000808660ff1660ff16815260200190815260200160002060003373ffffffffffffffffffffffffffffffffffffffff1673ffffffffffffffffffffffffffffffffffffffff1681526020019081526020016000206000828254039250508190555060a0604051908101604052803373ffffffffffffffffffffffffffffffffffffffff1681526020018560ff168152602001848152602001838152602001826fffffffffffffffffffffffffffffffff1681525060086000601154815260200190815260200160002060008201518160000160006101000a81548173ffffffffffffffffffffffffffffffffffffffff021916908373ffffffffffffffffffffffffffffffffffffffff16021790555060208201518160000160146101000a81548160ff021916908360ff160217905550604082015181600101556060820151816002015560808201518160030160006101000a8154816fffffffffffffffffffffffffffffffff02191690836fffffffffffffffffffffffffffffffff1602179055509050505b600082111561118f573373ffffffffffffffffffffffffffffffffffffffff166001600084815260200190815260200160002060009054906101000a900473ffffffffffffffffffffffffffffffffffffffff1673ffffffffffffffffffffffffffffffffffffffff16148015611043575060006009600084815260200190815260200160002054145b151561104e57600080fd5b60a0604051908101604052803373ffffffffffffffffffffffffffffffffffffffff1681526020018560ff168152602001848152602001838152602001826fffffffffffffffffffffffffffffffff1681525060086000601154815260200190815260200160002060008201518160000160006101000a81548173ffffffffffffffffffffffffffffffffffffffff021916908373ffffffffffffffffffffffffffffffffffffffff16021790555060208201518160000160146101000a81548160ff021916908360ff160217905550604082015181600101556060820151816002015560808201518160030160006101000a8154816fffffffffffffffffffffffffffffffff02191690836fffffffffffffffffffffffffffffffff16021790555090505060115460096000848152602001908152602001600020819055505b60116000815480929190600101919050555050505050565b60045481565b60125481565b600080821115156111c357600080fd5b6008600083815260200190815260200160002090503373ffffffffffffffffffffffffffffffffffffffff168160000160009054906101000a900473ffffffffffffffffffffffffffffffffffffffff1673ffffffffffffffffffffffffffffffffffffffff16148015611269575060008160030160009054906101000a90046fffffffffffffffffffffffffffffffff166fffffffffffffffffffffffffffffffff16115b151561127457600080fd5b60008160000160149054906101000a900460ff1660ff16111561132e5780600101546000808360000160149054906101000a900460ff1660ff1660ff16815260200190815260200160002060008360000160009054906101000a900473ffffffffffffffffffffffffffffffffffffffff1673ffffffffffffffffffffffffffffffffffffffff1673ffffffffffffffffffffffffffffffffffffffff168152602001908152602001600020600082825401925050819055505b600060096000836002015481526020019081526020016000208190555060008160030160006101000a8154816fffffffffffffffffffffffffffffffff02191690836fffffffffffffffffffffffffffffffff1602179055506012547fa9fd1bd3ea5c6ffe5f109bcf05370a1b1439a16f5cbccc7b1e49487f59efdf8c836040518082815260200191505060405180910390a26012600081548092919060010191905055505050565b60008160ff161180156113ee5750600d8160ff1611155b80156114475750600a6001820360ff16600d8110151561140a57fe5b600291828204019190066010029054906101000a90046fffffffffffffffffffffffffffffffff166fffffffffffffffffffffffffffffffff1634145b151561145257600080fd5b61145b81611a1e565b3460076000600660009054906101000a900473ffffffffffffffffffffffffffffffffffffffff1673ffffffffffffffffffffffffffffffffffffffff1673ffffffffffffffffffffffffffffffffffffffff1681526020019081526020016000206000828254019250508190555050565b60115481565b600a81600d811015156114e257fe5b60029182820401919006601002915054906101000a90046fffffffffffffffffffffffffffffffff1681565b60076020528060005260406000206000915090505481565b60055481565b600660009054906101000a900473ffffffffffffffffffffffffffffffffffffffff1673ffffffffffffffffffffffffffffffffffffffff163373ffffffffffffffffffffffffffffffffffffffff1614151561158857600080fd5b600073ffffffffffffffffffffffffffffffffffffffff168173ffffffffffffffffffffffffffffffffffffffff16141515156115c457600080fd5b8073ffffffffffffffffffffffffffffffffffffffff16600660009054906101000a900473ffffffffffffffffffffffffffffffffffffffff1673ffffffffffffffffffffffffffffffffffffffff167f8be0079c531659141344cd1fd0a4f28419497f9722a3daafe3b4186f6b6457e060405160405180910390a380600660006101000a81548173ffffffffffffffffffffffffffffffffffffffff021916908373ffffffffffffffffffffffffffffffffffffffff16021790555050565b6000808251915060008211151561169a57600080fd5b600090505b81811015611753573373ffffffffffffffffffffffffffffffffffffffff166001600085848151811015156116d057fe5b90602001906020020151815260200190815260200160002060009054906101000a900473ffffffffffffffffffffffffffffffffffffffff1673ffffffffffffffffffffffffffffffffffffffff16141561174657611745838281518110151561173657fe5b90602001906020020151611acf565b5b808060010191505061169f565b505050565b600080600860008481526020019081526020016000209150348260030160009054906101000a90046fffffffffffffffffffffffffffffffff166fffffffffffffffffffffffffffffffff161480156117b15750600034115b15156117bc57600080fd5b60008260000160149054906101000a900460ff1660ff1611156118525781600101546000808460000160149054906101000a900460ff1660ff1660ff16815260200190815260200160002060003373ffffffffffffffffffffffffffffffffffffffff1673ffffffffffffffffffffffffffffffffffffffff168152602001908152602001600020600082825401925050819055505b6000826002015411156119235733600160008460020154815260200190815260200160002060006101000a81548173ffffffffffffffffffffffffffffffffffffffff021916908373ffffffffffffffffffffffffffffffffffffffff16021790555060006009600084600201548152602001908152602001600020819055506005547fb770391bf57d1c62680303f1fa046277b0992ae97aa4bd1d919d6b68cea4d79783600201546040518082815260200191505060405180910390a26005600081548092919060010191905055505b8160000160009054906101000a900473ffffffffffffffffffffffffffffffffffffffff1690508073ffffffffffffffffffffffffffffffffffffffff166108fc349081150290604051600060405180830381858888f19350505050158015611990573d6000803e3d6000fd5b5060008260030160006101000a8154816fffffffffffffffffffffffffffffffff02191690836fffffffffffffffffffffffffffffffff1602179055506012547fa9fd1bd3ea5c6ffe5f109bcf05370a1b1439a16f5cbccc7b1e49487f59efdf8c846040518082815260200191505060405180910390a2601260008154809291906001019190505550505050565b3360016000600454815260200190815260200160002060006101000a81548173ffffffffffffffffffffffffffffffffffffffff021916908373ffffffffffffffffffffffffffffffffffffffff1602179055508060026000600454815260200190815260200160002060006101000a81548160ff021916908360ff160217905550426003600060045481526020019081526020016000208190555060046000815480929190600101919050555050565b6000806000806002600086815260200190815260200160002060009054906101000a900460ff16935060008460ff16118015611b6957503373ffffffffffffffffffffffffffffffffffffffff166001600087815260200190815260200160002060009054906101000a900473ffffffffffffffffffffffffffffffffffffffff1673ffffffffffffffffffffffffffffffffffffffff16145b1515611b7157fe5b6201518060036000878152602001908152602001600020544203811515611b9457fe5b049250600083111515611ba357fe5b6201518083026003600087815260200190815260200160002054019150600e8460ff161415611bd757600d93506002830292505b600190505b8360ff168160ff16111515611c65578260018286030160ff16026000808360ff1660ff16815260200190815260200160002060003373ffffffffffffffffffffffffffffffffffffffff1673ffffffffffffffffffffffffffffffffffffffff168152602001908152602001600020600082825401925050819055508080600101915050611bdc565b81600360008781526020019081526020016000208190555050505050505600a165627a7a723058203ee1ce9d8b135e799f6126901df8b9c4fbd6d8dcdc8b1f498698a329b806fe1d0029",
  "source": "\t\n\t\n\t\n\ncontract Ownable {\n\n  address public owner;\n\n  event OwnershipTransferred(address indexed previousOwner, address indexed newOwner);\n\n  function Ownable() public {\n    owner = msg.sender;\n  }\n\n  modifier onlyOwner() {\n    require(msg.sender == owner);\n    _;\n  }\n\n  function transferOwnership(address newOwner) public onlyOwner {\n    require(newOwner != address(0));\n    OwnershipTransferred(owner, newOwner);\n    owner = newOwner;\n  }\n\n}\n\ncontract Payments is Ownable {\n  mapping(address => uint256) public payments; \n  \n  function getBalance() public constant onlyOwner returns(uint256) {\n\t return payments[msg.sender];\n  }    \n  \n\n  function withdrawPayments() public onlyOwner {\n\taddress payee = msg.sender;\n\tuint256 payment = payments[payee];\n\n\trequire(payment != 0);\n\trequire(this.balance >= payment);\n\n\tpayments[payee] = 0;\n\n\tassert(payee.send(payment));\n  }  \n    \n}\n\ncontract Resources {\n    \n\tmapping(uint8 => mapping(address => uint256) ) public ResourcesOwner; \n}\n\ncontract CryptoMines is Resources {\n\tmapping(uint256 => address) internal MineOwner; \n\tmapping(uint256 => uint8) internal MineLevel; \n\tmapping(uint256 => uint256) internal MineCooldown; \n\tuint256 public nextMineId = 15;\n\tuint256 public nextMineEvent = 1;\n\t\n\tevent MineAffected(uint256 indexed AffectId, uint256 MineId);\n\n\tfunction createNewMine(uint8 _MineLVL) internal {\n        MineOwner[nextMineId] = msg.sender;\n        MineLevel[nextMineId] = _MineLVL;\n        MineCooldown[nextMineId] = now;\n\t\t\n\t\tnextMineId++;\n\t}\n\t\n\tfunction StartMiningByIdArray(uint256[] _MineIds) public {\n\t    uint256 MinesCount = _MineIds.length;\n\t\t\n\t\trequire(MinesCount>0);\n\t\t\n\t\tfor (uint256 key=0; key < MinesCount; key++) {\n\t\t\tif (MineOwner[_MineIds[key]]==msg.sender)\n\t\t\t\tStartMiningById(_MineIds[key]); \n\t\t}\n\t}\n\t\n\tfunction StartMiningById(uint256 _MineId) internal {\n\t    \n\t\tuint8 MineLVL=MineLevel[_MineId];\n\t\t\n\t\tassert (MineLVL>0 && MineOwner[_MineId]==msg.sender);\t\n\t\t\n\t    uint256 MiningDays = (now - MineCooldown[_MineId])/86400;\n\t\t\n\t\tassert (MiningDays>0);\n\n\t\tuint256 newCooldown = MineCooldown[_MineId] + MiningDays*86400;\n\t\t\n\t\tif (MineLVL==14) {\n\t\t\t\n\t\t\tMineLVL = 13;\n\t\t\tMiningDays = MiningDays*2;\n\t\t}\n\t\t\n\t\tfor (uint8 lvl=1; lvl<=MineLVL; lvl++) {\n\t\t\tResourcesOwner[lvl][msg.sender] +=  (MineLVL-lvl+1)*MiningDays;\n\t\t}\n\t\n\t\tMineCooldown[_MineId] = newCooldown;\n\t}\t\n\t\n\tfunction UpMineLVL(uint256 _MineId) public {\t\n\t\tuint8 MineLVL=MineLevel[_MineId];\n\t\t\n\t\trequire (MineLVL>0 && MineLVL<=13 && MineOwner[_MineId]==msg.sender);\t\n\t\t\n\t\tfor (uint8 lvl=1; lvl<=MineLVL; lvl++) {\n\t\t    require (ResourcesOwner[lvl][msg.sender] >= (MineLVL-lvl+2)*15);\n\t\t}\n\n\t\tfor (lvl=1; lvl<=MineLVL; lvl++) {\n\t\t    ResourcesOwner[lvl][msg.sender] -= (MineLVL-lvl+2)*15;\n\t\t\t\n\t\t\tif (MineLVL==13 && lvl<=12) \n\t\t\t    createNewMine(lvl);\n\t\t}\n\t\t\n\t\tMineLevel[_MineId]++;\n\t\t\n\t\tMineAffected(nextMineEvent,_MineId);\n\t\tnextMineEvent++;\t\t\n\t}\n}\n\ncontract Trading is CryptoMines, Payments {\n\n    struct tradeStruct {\n        address Seller;\n        uint8 ResourceId;\n        uint256 ResourceAmount;\n        uint256 MineId;\n        uint128 Price;\n    }\n    \n    mapping(uint256 => tradeStruct) public TradeList; \n\tmapping(uint256 => uint256) public MinesOnTrade; \n\tuint128[13] public minesPrice;\n\tuint256 public TradeId = 1;\n\tuint256 public nextTradeEvent = 1;\n\t\n\tevent TradeAffected(uint256 indexed AffectId, uint256 TradeId);\n\t\n  \tfunction buyMine(uint8 _MineLVL) public payable {\n\t    \n\t\trequire(_MineLVL>0 && _MineLVL<=13 && msg.value==minesPrice[_MineLVL-1]);\n\t    \n        createNewMine(_MineLVL);\n\t\tpayments[owner]+=msg.value;\n\t\t\n\t} \n\t\n    function startSelling(uint8 _sellResourceId, uint256 _ResourcesAmount, uint256 _sellMineId, uint128 _sellPrice) public {\n\t\trequire ( (_sellResourceId==0 || _sellMineId==0) && (_sellResourceId>0 || _sellMineId>0) && _sellPrice>0 );\n\t\t_sellPrice = _sellPrice - _sellPrice%1000; \n\t\tif (_sellResourceId>0) {\n\t\t\trequire (_ResourcesAmount>0 && ResourcesOwner[_sellResourceId][msg.sender]>=_ResourcesAmount);\n\t\t\tResourcesOwner[_sellResourceId][msg.sender] -= _ResourcesAmount;\n\t\t\tTradeList[TradeId]=tradeStruct({Seller: msg.sender, ResourceId: _sellResourceId, ResourceAmount: _ResourcesAmount, MineId: _sellMineId, Price: _sellPrice});\n\t\t}\n\t\t\n\t\tif (_sellMineId>0) {\t\t\n\t\t    require (MineOwner[_sellMineId]==msg.sender && MinesOnTrade[_sellMineId]==0);\n\t\t\tTradeList[TradeId]=tradeStruct({Seller: msg.sender, ResourceId: _sellResourceId, ResourceAmount: _ResourcesAmount, MineId: _sellMineId, Price: _sellPrice});\n\t\t\tMinesOnTrade[_sellMineId]=TradeId;\n\t\t}\n        \n\t\tTradeId++;\n\t}\n\t\n    function stopSelling(uint256 _TradeId) public {\t\n\t\trequire (_TradeId>0);\n\t\ttradeStruct TradeLot = TradeList[_TradeId];\t\n        require (TradeLot.Seller==msg.sender && TradeLot.Price>0);\n\t\tif (TradeLot.ResourceId>0) {\n\t\t\tResourcesOwner[TradeLot.ResourceId][TradeLot.Seller] += TradeLot.ResourceAmount;\n\t\t}\n\t\t\n\t\tMinesOnTrade[TradeLot.MineId]=0;\n\t\tTradeLot.Price=0;\n\t\tTradeAffected(nextTradeEvent,_TradeId);\t\t\n\t\tnextTradeEvent++;\n\t}\n\t\n    function changeSellingPrice(uint256 _TradeId, uint128 _newPrice) public {\t\n\t\trequire (_TradeId>0 && _newPrice>0);\n\t\ttradeStruct TradeLot = TradeList[_TradeId];\t\n        require (TradeLot.Seller==msg.sender && TradeLot.Price>0);\n\t\tTradeLot.Price=_newPrice;\n\t\t\n\t\tTradeAffected(nextTradeEvent,_TradeId);\t\t\n\t\tnextTradeEvent++;\n\t}\n\t\n    \n\tfunction startBuying(uint256 _TradeId) public payable {\n\t\ttradeStruct TradeLot = TradeList[_TradeId];\n\t\trequire (TradeLot.Price==msg.value && msg.value>0);\n\t\t \n\t\tif (TradeLot.ResourceId>0) {\n\t\t\tResourcesOwner[TradeLot.ResourceId][msg.sender] += TradeLot.ResourceAmount;\n\t\t}\n\t\t \n\t\tif (TradeLot.MineId>0) {\n\t\t\tMineOwner[TradeLot.MineId]=msg.sender;\n\t\t\tMinesOnTrade[TradeLot.MineId]=0;\n\t\t\tMineAffected(nextMineEvent,TradeLot.MineId);\n\t\t\tnextMineEvent++;\t\t\t\t\t\n\t\t}\n\t\t \n\t\taddress payee = TradeLot.Seller;\n\t\tpayee.transfer(msg.value);\n\n\t\t\n\t\tTradeLot.Price=0;\n\t\t\n\t\tTradeAffected(nextTradeEvent,_TradeId);\t\t\n\t\tnextTradeEvent++;\n\t\t\n\t}\n\t\n}\n\ncontract FiatContract {\n  function ETH(uint _id) constant returns (uint256);\n  function USD(uint _id) constant returns (uint256);\n  function EUR(uint _id) constant returns (uint256);\n  function GBP(uint _id) constant returns (uint256);\n  function updatedAt(uint _id) constant returns (uint);\n}\n\n\ncontract MinesFactory is Trading {\n\n\tfunction setMinesPrice () public {\n\t\t\n\t   uint128 lvl1MinePrice = getUSD()*10; \n\t\t\n\t    for (uint8 lvl=0; lvl<13; lvl++) {\n\t\t\tif (lvl<=2)\n\t\t\t\tminesPrice[lvl] = (lvl+1)*lvl1MinePrice;\n\t\t\telse\n\t\t\t    minesPrice[lvl] = minesPrice[lvl-1]+minesPrice[lvl-2];\n\t\t}\n\t}\n\t\n\tfunction getMinesInfo(uint256[] _MineIds) public constant returns(address[32], uint8[32], uint256[32]) {\n\t    address[32] memory MinesOwners_;\n\t    uint8[32] memory MinesLevels_;\n\t    uint256[32] memory MinesCooldowns_;\n\n\t\tuint256 MinesCount=_MineIds.length;\n\t\trequire (MinesCount>0 && MinesCount<=32);\n\t\t\n\t\tfor (uint256 key=0; key < MinesCount; key++) {\n\t\t\tMinesOwners_[key]=MineOwner[_MineIds[key]];\n\t\t\tMinesLevels_[key]=MineLevel[_MineIds[key]];\n\t\t\tMinesCooldowns_[key]=MineCooldown[_MineIds[key]];\n\t\t}\n\t\treturn (MinesOwners_, MinesLevels_, MinesCooldowns_);\n\t}\n\n\tfunction getResourcesInfo(address _resourcesOwner) public constant returns(uint256[13]) {\n\t    uint256[13] memory ResourcesAmount_;\n\t\tfor (uint8 key=0; key <= 12; key++) {\n\t\t\tResourcesAmount_[key]=ResourcesOwner[key+1][_resourcesOwner];\n\t\t}\n\t\treturn ResourcesAmount_;\n\t}\t\n\t\n\tfunction getMineCooldown(uint256 _MineId) public constant returns(uint256) {\n\t    return now - MineCooldown[_MineId];\n\t}\n\t\n    function getUSD() constant returns (uint128) {\n\t\t\n\t\t\n\t\t\n\t\t\n\t\tFiatContract price;\n\t\t\n\t\tprice = FiatContract(0x8055d0504666e2B6942BeB8D6014c964658Ca591); \n\t\trequire (price.USD(0) > 10000000000);\n\t\tuint128 USDtoWEIrounded = uint128((price.USD(0) - price.USD(0) % 10000000000) * 100);\n\t\t\n\t\t\n\t\treturn USDtoWEIrounded;\n    }\t\n\t\n}",
  "sourcePath": "/home/XXX-1/smartrim-experiment/for-rlf/0xe683c31d91d73ae12770cc7082511846ea66f8d6/contracts/0xe683c31d91d73ae12770cc7082511846ea66f8d6.sol",
  "compiler": {
    "name": "solc",
    "version": "0.4.25+commit.59dbf8f1.Emscripten.clang"
  },
  "schemaVersion": "3.4.16",
  "updatedAt": "2025-08-14T04:09:12.565Z",
  "devdoc": {
    "methods": {}
  },
  "userdoc": {
    "methods": {}
  }
}