{
  "contractName": "CardSale",
  "abi": [
    {
      "constant": true,
      "inputs": [],
      "name": "endTime",
      "outputs": [
        {
          "name": "",
          "type": "uint256"
        }
      ],
      "payable": false,
      "stateMutability": "view",
      "type": "function"
    },
    {
      "constant": true,
      "inputs": [
        {
          "name": "",
          "type": "address"
        }
      ],
      "name": "rc",
      "outputs": [
        {
          "name": "",
          "type": "bool"
        }
      ],
      "payable": false,
      "stateMutability": "view",
      "type": "function"
    },
    {
      "constant": true,
      "inputs": [],
      "name": "soldTokens",
      "outputs": [
        {
          "name": "",
          "type": "uint256"
        }
      ],
      "payable": false,
      "stateMutability": "view",
      "type": "function"
    },
    {
      "constant": true,
      "inputs": [],
      "name": "startTime",
      "outputs": [
        {
          "name": "",
          "type": "uint256"
        }
      ],
      "payable": false,
      "stateMutability": "view",
      "type": "function"
    },
    {
      "constant": true,
      "inputs": [],
      "name": "remainingTokens",
      "outputs": [
        {
          "name": "",
          "type": "uint256"
        }
      ],
      "payable": false,
      "stateMutability": "view",
      "type": "function"
    },
    {
      "inputs": [
        {
          "name": "_tokenSaleContract",
          "type": "address"
        },
        {
          "name": "_remainingTokens",
          "type": "uint256"
        },
        {
          "name": "_startTime",
          "type": "uint256"
        },
        {
          "name": "_endTime",
          "type": "uint256"
        }
      ],
      "payable": false,
      "stateMutability": "nonpayable",
      "type": "constructor"
    },
    {
      "payable": true,
      "stateMutability": "payable",
      "type": "fallback"
    },
    {
      "anonymous": false,
      "inputs": [
        {
          "indexed": false,
          "name": "contr",
          "type": "address"
        }
      ],
      "name": "NewRC_1",
      "type": "event"
    },
    {
      "constant": true,
      "inputs": [],
      "name": "owner",
      "outputs": [
        {
          "name": "",
          "type": "address"
        }
      ],
      "payable": false,
      "stateMutability": "view",
      "type": "function"
    },
    {
      "constant": false,
      "inputs": [
        {
          "name": "_newStart",
          "type": "uint256"
        },
        {
          "name": "_newEnd",
          "type": "uint256"
        }
      ],
      "name": "setTime",
      "outputs": [],
      "payable": false,
      "stateMutability": "nonpayable",
      "type": "function"
    },
    {
      "constant": false,
      "inputs": [],
      "name": "addMeByRC_1",
      "outputs": [],
      "payable": false,
      "stateMutability": "nonpayable",
      "type": "function"
    },
    {
      "constant": false,
      "inputs": [
        {
          "name": "_oneTokenInUsdWei",
          "type": "uint256"
        }
      ],
      "name": "newCard",
      "outputs": [],
      "payable": false,
      "stateMutability": "nonpayable",
      "type": "function"
    },
    {
      "constant": false,
      "inputs": [
        {
          "name": "_buyer",
          "type": "address"
        },
        {
          "name": "_rcTokenValue",
          "type": "uint256"
        },
        {
          "name": "",
          "type": "uint256"
        }
      ],
      "name": "buyFromRC_1",
      "outputs": [
        {
          "name": "",
          "type": "uint256"
        }
      ],
      "payable": true,
      "stateMutability": "payable",
      "type": "function"
    }
  ],
  "bytecode": "0x608060405234801561001057600080fd5b506040516080806114438339810180604052810190808051906020019092919080519060200190929190805190602001909291908051906020019092919050505060008473ffffffffffffffffffffffffffffffffffffffff161415151561007757600080fd5b6000831415151561008757600080fd5b836000806101000a81548173ffffffffffffffffffffffffffffffffffffffff021916908373ffffffffffffffffffffffffffffffffffffffff1602179055506000809054906101000a900473ffffffffffffffffffffffffffffffffffffffff1673ffffffffffffffffffffffffffffffffffffffff1663217efd636040518163ffffffff167c0100000000000000000000000000000000000000000000000000000000028152600401600060405180830381600087803b15801561014c57600080fd5b505af1158015610160573d6000803e3d6000fd5b5050505060006003819055508260048190555061018c8282610195640100000000026401000000009004565b50505050610351565b6000821415610269576000809054906101000a900473ffffffffffffffffffffffffffffffffffffffff1673ffffffffffffffffffffffffffffffffffffffff166378e979256040518163ffffffff167c0100000000000000000000000000000000000000000000000000000000028152600401602060405180830381600087803b15801561022357600080fd5b505af1158015610237573d6000803e3d6000fd5b505050506040513d602081101561024d57600080fd5b8101908080519060200190929190505050600181905550610271565b816001819055505b6000811415610345576000809054906101000a900473ffffffffffffffffffffffffffffffffffffffff1673ffffffffffffffffffffffffffffffffffffffff16633197cbb66040518163ffffffff167c0100000000000000000000000000000000000000000000000000000000028152600401602060405180830381600087803b1580156102ff57600080fd5b505af1158015610313573d6000803e3d6000fd5b505050506040513d602081101561032957600080fd5b810190808051906020019092919050505060028190555061034d565b806002819055505b5050565b6110e3806103606000396000f3006080604052600436106100a4576000357c0100000000000000000000000000000000000000000000000000000000900463ffffffff168063217efd63146100a95780633197cbb6146100c057806334fc1cb0146100eb5780635d4dcf12146101185780635ed9ebfc1461017357806378e979251461019e5780638da5cb5b146101c9578063a0355eca14610220578063bf58390314610257578063fa6f521814610282575b600080fd5b3480156100b557600080fd5b506100be6102e0565b005b3480156100cc57600080fd5b506100d56103de565b6040518082815260200191505060405180910390f35b3480156100f757600080fd5b50610116600480360381019080803590602001909291905050506103e4565b005b34801561012457600080fd5b50610159600480360381019080803573ffffffffffffffffffffffffffffffffffffffff1690602001909291905050506104a8565b604051808215151515815260200191505060405180910390f35b34801561017f57600080fd5b506101886104c8565b6040518082815260200191505060405180910390f35b3480156101aa57600080fd5b506101b36104ce565b6040518082815260200191505060405180910390f35b3480156101d557600080fd5b506101de6104d4565b604051808273ffffffffffffffffffffffffffffffffffffffff1673ffffffffffffffffffffffffffffffffffffffff16815260200191505060405180910390f35b34801561022c57600080fd5b50610255600480360381019080803590602001909291908035906020019092919050505061059b565b005b34801561026357600080fd5b5061026c610604565b6040518082815260200191505060405180910390f35b6102ca600480360381019080803573ffffffffffffffffffffffffffffffffffffffff169060200190929190803590602001909291908035906020019092919050505061060a565b6040518082815260200191505060405180910390f35b6102e86104d4565b73ffffffffffffffffffffffffffffffffffffffff163273ffffffffffffffffffffffffffffffffffffffff1614151561032157600080fd5b6001600560003373ffffffffffffffffffffffffffffffffffffffff1673ffffffffffffffffffffffffffffffffffffffff16815260200190815260200160002060006101000a81548160ff0219169083151502179055507f1d2241221363f35109a94cd7c60e53acc7ca0dfaf218a3690fa108030b0997b233604051808273ffffffffffffffffffffffffffffffffffffffff1673ffffffffffffffffffffffffffffffffffffffff16815260200191505060405180910390a1565b60025481565b6103ec6104d4565b73ffffffffffffffffffffffffffffffffffffffff163373ffffffffffffffffffffffffffffffffffffffff1614151561042557600080fd5b30816004546000806104356107e9565b808673ffffffffffffffffffffffffffffffffffffffff1673ffffffffffffffffffffffffffffffffffffffff16815260200185815260200184815260200183815260200182815260200195505050505050604051809103906000f0801580156104a3573d6000803e3d6000fd5b505050565b60056020528060005260406000206000915054906101000a900460ff1681565b60035481565b60015481565b60008060009054906101000a900473ffffffffffffffffffffffffffffffffffffffff1673ffffffffffffffffffffffffffffffffffffffff16638da5cb5b6040518163ffffffff167c0100000000000000000000000000000000000000000000000000000000028152600401602060405180830381600087803b15801561055b57600080fd5b505af115801561056f573d6000803e3d6000fd5b505050506040513d602081101561058557600080fd5b8101908080519060200190929190505050905090565b6105a36104d4565b73ffffffffffffffffffffffffffffffffffffffff163373ffffffffffffffffffffffffffffffffffffffff161415156105dc57600080fd5b6000821415156105ee57816001819055505b60008114151561060057806002819055505b5050565b60045481565b600080600560003373ffffffffffffffffffffffffffffffffffffffff1673ffffffffffffffffffffffffffffffffffffffff16815260200190815260200160002060009054906101000a900460ff16151561066557600080fd5b6000809054906101000a900473ffffffffffffffffffffffffffffffffffffffff1673ffffffffffffffffffffffffffffffffffffffff1663fa6f52183487876004546040518563ffffffff167c0100000000000000000000000000000000000000000000000000000000028152600401808473ffffffffffffffffffffffffffffffffffffffff1673ffffffffffffffffffffffffffffffffffffffff16815260200183815260200182815260200193505050506020604051808303818588803b15801561073357600080fd5b505af1158015610747573d6000803e3d6000fd5b50505050506040513d602081101561075e57600080fd5b81019080805190602001909291905050509050610786816004546107b290919063ffffffff16565b6004819055506107a1816003546107cb90919063ffffffff16565b600381905550809150509392505050565b60008282111515156107c057fe5b818303905092915050565b60008082840190508381101515156107df57fe5b8091505092915050565b6040516108be806107fa833901905600608060405234801561001057600080fd5b5060405160a0806108be833981018060405281019080805190602001909291908051906020019092919080519060200190929190805190602001909291908051906020019092919050505060008573ffffffffffffffffffffffffffffffffffffffff161415151561008157600080fd5b6000841415151561009157600080fd5b600083141515156100a157600080fd5b846000806101000a81548173ffffffffffffffffffffffffffffffffffffffff021916908373ffffffffffffffffffffffffffffffffffffffff1602179055506000809054906101000a900473ffffffffffffffffffffffffffffffffffffffff1673ffffffffffffffffffffffffffffffffffffffff1663217efd636040518163ffffffff167c0100000000000000000000000000000000000000000000000000000000028152600401600060405180830381600087803b15801561016657600080fd5b505af115801561017a573d6000803e3d6000fd5b50505050600060038190555082600481905550836005819055506101ad82826101b7640100000000026401000000009004565b5050505050610373565b600082141561028b576000809054906101000a900473ffffffffffffffffffffffffffffffffffffffff1673ffffffffffffffffffffffffffffffffffffffff166378e979256040518163ffffffff167c0100000000000000000000000000000000000000000000000000000000028152600401602060405180830381600087803b15801561024557600080fd5b505af1158015610259573d6000803e3d6000fd5b505050506040513d602081101561026f57600080fd5b8101908080519060200190929190505050600181905550610293565b816001819055505b6000811415610367576000809054906101000a900473ffffffffffffffffffffffffffffffffffffffff1673ffffffffffffffffffffffffffffffffffffffff16633197cbb66040518163ffffffff167c0100000000000000000000000000000000000000000000000000000000028152600401602060405180830381600087803b15801561032157600080fd5b505af1158015610335573d6000803e3d6000fd5b505050506040513d602081101561034b57600080fd5b810190808051906020019092919050505060028190555061036f565b806002819055505b5050565b61053c806103826000396000f300608060405260043610610078576000357c0100000000000000000000000000000000000000000000000000000000900463ffffffff1680633197cbb61461028c5780635ed9ebfc146102b757806378e97925146102e2578063a0355eca1461030d578063bf58390314610344578063c0a99a831461036f575b60006001544211151561008a57600080fd5b6002544210151561009a57600080fd5b670de0b6b3a764000034101515156100b157600080fd5b60006004541115156100c257600080fd5b6000809054906101000a900473ffffffffffffffffffffffffffffffffffffffff1673ffffffffffffffffffffffffffffffffffffffff1663fa6f521834336005546004546040518563ffffffff167c0100000000000000000000000000000000000000000000000000000000028152600401808473ffffffffffffffffffffffffffffffffffffffff1673ffffffffffffffffffffffffffffffffffffffff16815260200183815260200182815260200193505050506020604051808303818588803b15801561019257600080fd5b505af11580156101a6573d6000803e3d6000fd5b50505050506040513d60208110156101bd57600080fd5b810190808051906020019092919050505090506101e58160045461039a90919063ffffffff16565b600481905550610200816003546103b390919063ffffffff16565b6003819055503373ffffffffffffffffffffffffffffffffffffffff167f8ef07865d6d416d99cc3a32a973190a856784f92358160bf8a4c48b4624a62066000363485600554604051808060200185815260200184815260200183815260200182810382528787828181526020019250808284378201915050965050505050505060405180910390a250005b34801561029857600080fd5b506102a16103d1565b6040518082815260200191505060405180910390f35b3480156102c357600080fd5b506102cc6103d7565b6040518082815260200191505060405180910390f35b3480156102ee57600080fd5b506102f76103dd565b6040518082815260200191505060405180910390f35b34801561031957600080fd5b5061034260048036038101908080359060200190929190803590602001909291905050506103e3565b005b34801561035057600080fd5b50610359610504565b6040518082815260200191505060405180910390f35b34801561037b57600080fd5b5061038461050a565b6040518082815260200191505060405180910390f35b60008282111515156103a857fe5b818303905092915050565b60008082840190508381101515156103c757fe5b8091505092915050565b60025481565b60035481565b60015481565b6000809054906101000a900473ffffffffffffffffffffffffffffffffffffffff1673ffffffffffffffffffffffffffffffffffffffff16638da5cb5b6040518163ffffffff167c0100000000000000000000000000000000000000000000000000000000028152600401602060405180830381600087803b15801561046857600080fd5b505af115801561047c573d6000803e3d6000fd5b505050506040513d602081101561049257600080fd5b810190808051906020019092919050505073ffffffffffffffffffffffffffffffffffffffff163373ffffffffffffffffffffffffffffffffffffffff161415156104dc57600080fd5b6000821415156104ee57816001819055505b60008114151561050057806002819055505b5050565b60045481565b600554815600a165627a7a72305820dabc2015481cfd55918c0d98b561a9847a6f28f488c7ff432d73dae48690e0340029a165627a7a72305820f8b2557fe976d52910e6257a7f7894e8802a3b013e529fc38394228398cd01380029",
  "source": "\n\n\nlibrary SafeMath {\n  function mul(uint256 a, uint256 b) internal pure returns (uint256) {\n    uint256 c = a * b;\n    assert(a == 0 || c / a == b);\n    return c;\n  }\n\n  function div(uint256 a, uint256 b) internal pure returns (uint256) {\n    \n    uint256 c = a / b;\n    \n    return c;\n  }\n\n  function sub(uint256 a, uint256 b) internal pure returns (uint256) {\n    assert(b <= a);\n    return a - b;\n  }\n\n  function add(uint256 a, uint256 b) internal pure returns (uint256) {\n    uint256 c = a + b;\n    assert(c >= a);\n    return c;\n  }\n}\n\n\n\ncontract Ownable {\n  address public owner;\n  \n  event OwnershipTransferred(address indexed previousOwner, address indexed newOwner);\n\n  \n  function Ownable() internal {\n    owner = msg.sender;\n  }\n\n  \n  modifier onlyOwner() {\n    require(msg.sender == owner);\n    _;\n  }\n\n  \n  function transferOwnership(address newOwner) onlyOwner public {\n    require(newOwner != address(0));\n    OwnershipTransferred(owner, newOwner);\n    owner = newOwner;\n  }\n}\n\ncontract tokenInterface {\n\tfunction balanceOf(address _owner) public constant returns (uint256 balance);\n\tfunction transfer(address _to, uint256 _value) public returns (bool);\n}\n\ncontract rateInterface {\n    function readRate(string _currency) public view returns (uint256 oneEtherValue);\n}\n\ncontract RC_1 {\n    using SafeMath for uint256;\n    TokenSale tokenSaleContract;\n    uint256 public startTime;\n    uint256 public endTime;\n    \n    uint256 public soldTokens;\n    uint256 public remainingTokens;\n    \n    uint256 public oneTokenInUsdWei;\n\n    function RC_1(address _tokenSaleContract, uint256 _oneTokenInUsdWei, uint256 _remainingTokens,  uint256 _startTime , uint256 _endTime ) public {\n        require ( _tokenSaleContract != 0 );\n        require ( _oneTokenInUsdWei != 0 );\n        require( _remainingTokens != 0 );\n        \n        tokenSaleContract = TokenSale(_tokenSaleContract);\n        \n        tokenSaleContract.addMeByRC_1();\n        \n        soldTokens = 0;\n        remainingTokens = _remainingTokens;\n        oneTokenInUsdWei = _oneTokenInUsdWei;\n        \n        setTimeRC_1( _startTime, _endTime );\n    }\n    \n    function setTimeRC_1(uint256 _startTime, uint256 _endTime ) internal {\n        if( _startTime == 0 ) {\n            startTime = tokenSaleContract.startTime();\n        } else {\n            startTime = _startTime;\n        }\n        if( _endTime == 0 ) {\n            endTime = tokenSaleContract.endTime();\n        } else {\n            endTime = _endTime;\n        }\n    }\n    \n    modifier onlyTokenSaleOwner() {\n        require(msg.sender == tokenSaleContract.owner() );\n        _;\n    }\n    \n    function setTime(uint256 _newStart, uint256 _newEnd) public onlyTokenSaleOwner {\n        if ( _newStart != 0 ) startTime = _newStart;\n        if ( _newEnd != 0 ) endTime = _newEnd;\n    }\n    \n    event BuyRC_1(address indexed buyer, bytes trackID, uint256 value, uint256 soldToken, uint256 valueTokenInUsdWei );\n    \n    function () public payable {\n        require( now > startTime );\n        require( now < endTime );\n        require( msg.value >= 1*10**18); \n        require( remainingTokens > 0 );\n        \n        uint256 tokenAmount = tokenSaleContract.buyFromRC_1.value(msg.value)(msg.sender, oneTokenInUsdWei, remainingTokens);\n        \n        remainingTokens = remainingTokens.sub(tokenAmount);\n        soldTokens = soldTokens.add(tokenAmount);\n        \n        BuyRC_1( msg.sender, msg.data, msg.value, tokenAmount, oneTokenInUsdWei );\n    }\n}\n\ncontract CardSale {\n    using SafeMath for uint256;\n    TokenSale tokenSaleContract;\n    \n    uint256 public startTime;\n    uint256 public endTime;\n    \n    uint256 public soldTokens;\n    uint256 public remainingTokens;    \n    \n    mapping(address => bool) public rc;\n    \n    function CardSale(address _tokenSaleContract, uint256 _remainingTokens,  uint256 _startTime , uint256 _endTime ) public {\n        require ( _tokenSaleContract != 0 );\n        require( _remainingTokens != 0 );\n        \n        tokenSaleContract = TokenSale(_tokenSaleContract);\n        \n        tokenSaleContract.addMeByRC_1();\n        \n        soldTokens = 0;\n        remainingTokens = _remainingTokens;\n        \n        setTimeRC_1( _startTime, _endTime );\n    }\n    \n    function setTimeRC_1(uint256 _startTime, uint256 _endTime ) internal {\n        if( _startTime == 0 ) {\n            startTime = tokenSaleContract.startTime();\n        } else {\n            startTime = _startTime;\n        }\n        if( _endTime == 0 ) {\n            endTime = tokenSaleContract.endTime();\n        } else {\n            endTime = _endTime;\n        }\n    }\n\n    function owner() view public returns (address) {\n        return tokenSaleContract.owner();\n    }\n    \n    modifier onlyTokenSaleOwner() {\n        require(msg.sender == owner() );\n        _;\n    }\n    \n    function setTime(uint256 _newStart, uint256 _newEnd) public onlyTokenSaleOwner {\n        if ( _newStart != 0 ) startTime = _newStart;\n        if ( _newEnd != 0 ) endTime = _newEnd;\n    }\n    \n    event NewRC_1(address contr);\n    \n    function addMeByRC_1() public {\n        require(tx.origin == owner() );\n        \n        rc[ msg.sender ]  = true;\n        \n        NewRC_1(msg.sender);\n    }\n    \n    function newCard(uint256 _oneTokenInUsdWei) onlyTokenSaleOwner public {\n        new RC_1(this, _oneTokenInUsdWei, remainingTokens, 0, 0 );\n    }\n    \n    function () public payable {\n        revert();\n    }\n    \n    modifier onlyRC_1() {\n        require( rc[msg.sender] ); \n        _;\n    }\n    \n    function buyFromRC_1(address _buyer, uint256 _rcTokenValue, uint256 ) onlyRC_1 public payable returns(uint256) {\n        uint256 tokenAmount = tokenSaleContract.buyFromRC_1.value(msg.value)(_buyer, _rcTokenValue, remainingTokens);\n        remainingTokens = remainingTokens.sub(tokenAmount);\n        soldTokens = soldTokens.add(tokenAmount);\n        return tokenAmount;\n    }\n}\n\ncontract TokenSale is Ownable {\n    using SafeMath for uint256;\n    tokenInterface public tokenContract;\n    rateInterface public rateContract;\n    \n    address public wallet;\n    address public advisor;\n    uint256 public advisorFee; \n    \n\tuint256 public constant decimals = 18;\n    \n    uint256 public endTime;  \n    uint256 public startTime;  \n\n    mapping(address => bool) public rc;\n\n\n    function TokenSale(address _tokenAddress, address _rateAddress, uint256 _startTime, uint256 _endTime) public {\n        tokenContract = tokenInterface(_tokenAddress);\n        rateContract = rateInterface(_rateAddress);\n        setTime(_startTime, _endTime); \n        wallet = msg.sender;\n        advisor = msg.sender;\n        advisorFee = 0 * 10**3;\n    }\n    \n    function tokenValueInEther(uint256 _oneTokenInUsdWei) public view returns(uint256 tknValue) {\n        uint256 oneEtherInUsd = rateContract.readRate(\"usd\");\n        tknValue = _oneTokenInUsdWei.mul(10 ** uint256(decimals)).div(oneEtherInUsd);\n        return tknValue;\n    } \n    \n    modifier isBuyable() {\n        require( now > startTime ); \n        require( now < endTime ); \n        require( msg.value > 0 );\n\t\t\n\t\tuint256 remainingTokens = tokenContract.balanceOf(this);\n        require( remainingTokens > 0 ); \n        _;\n    }\n    \n    event Buy(address buyer, uint256 value, address indexed ambassador);\n    \n    modifier onlyRC_1() {\n        require( rc[msg.sender] ); \n        _;\n    }\n    \n    function buyFromRC_1(address _buyer, uint256 _rcTokenValue, uint256 _remainingTokens) onlyRC_1 isBuyable public payable returns(uint256) {\n        uint256 oneToken = 10 ** uint256(decimals);\n        uint256 tokenValue = tokenValueInEther(_rcTokenValue);\n        uint256 tokenAmount = msg.value.mul(oneToken).div(tokenValue);\n        address _ambassador = msg.sender;\n        \n        \n        uint256 remainingTokens = tokenContract.balanceOf(this);\n        if ( _remainingTokens < remainingTokens ) {\n            remainingTokens = _remainingTokens;\n        }\n        \n        if ( remainingTokens < tokenAmount ) {\n            uint256 refund = (tokenAmount - remainingTokens).mul(tokenValue).div(oneToken);\n            tokenAmount = remainingTokens;\n            forward(msg.value-refund);\n\t\t\tremainingTokens = 0; \n             _buyer.transfer(refund);\n        } else {\n\t\t\tremainingTokens = remainingTokens.sub(tokenAmount); \n            forward(msg.value);\n        }\n        \n        tokenContract.transfer(_buyer, tokenAmount);\n        Buy(_buyer, tokenAmount, _ambassador);\n\t\t\n        return tokenAmount; \n    }\n    \n    function forward(uint256 _amount) internal {\n        uint256 advisorAmount = _amount.mul(advisorFee).div(10**3);\n        uint256 walletAmount = _amount - advisorAmount;\n        advisor.transfer(advisorAmount);\n        wallet.transfer(walletAmount);\n    }\n\n    event NewRC_1(address contr);\n    \n    function addMeByRC_1() public {\n        require(tx.origin == owner);\n        \n        rc[ msg.sender ]  = true;\n        \n        NewRC_1(msg.sender);\n    }\n    \n    function setTime(uint256 _newStart, uint256 _newEnd) public onlyOwner {\n        if ( _newStart != 0 ) startTime = _newStart;\n        if ( _newEnd != 0 ) endTime = _newEnd;\n    }\n\n    function withdraw(address to, uint256 value) public onlyOwner {\n        to.transfer(value);\n    }\n    \n    function withdrawTokens(address to, uint256 value) public onlyOwner returns (bool) {\n        return tokenContract.transfer(to, value);\n    }\n    \n    function setTokenContract(address _tokenContract) public onlyOwner {\n        tokenContract = tokenInterface(_tokenContract);\n    }\n\n    function setWalletAddress(address _wallet) public onlyOwner {\n        wallet = _wallet;\n    }\n    \n    function setAdvisorAddress(address _advisor) public onlyOwner {\n            advisor = _advisor;\n    }\n    \n    function setAdvisorFee(uint256 _advisorFee) public onlyOwner {\n            advisorFee = _advisorFee;\n    }\n    \n    function setRateContract(address _rateAddress) public onlyOwner {\n        rateContract = rateInterface(_rateAddress);\n    }\n\n    function () public payable {\n        revert();\n    }\n    \n    function newRC_1(uint256 _oneTokenInUsdWei, uint256 _remainingTokens) onlyOwner public {\n        new RC_1(this, _oneTokenInUsdWei, _remainingTokens, 0, 0 );\n    }\n}\n    \ncontract RC is RC_1 {\n    constructor() RC_1(address(0x123), 78, 78, 78, 78) public { }\n}\n",
  "sourcePath": "/home/XXX-1/smartrim-experiment/for-rlf/0xf62afd17037be692a00b181e959e3c9931076138/contracts/0xf62afd17037be692a00b181e959e3c9931076138.sol",
  "compiler": {
    "name": "solc",
    "version": "0.4.25+commit.59dbf8f1.Emscripten.clang"
  },
  "schemaVersion": "3.4.16",
  "updatedAt": "2025-08-14T04:10:38.742Z",
  "devdoc": {
    "methods": {}
  },
  "userdoc": {
    "methods": {}
  }
}