{
  "contractName": "MyEthDice",
  "abi": [
    {
      "constant": true,
      "inputs": [],
      "name": "MIN_BET",
      "outputs": [
        {
          "name": "",
          "type": "uint256"
        }
      ],
      "payable": false,
      "stateMutability": "view",
      "type": "function"
    },
    {
      "constant": true,
      "inputs": [],
      "name": "owner",
      "outputs": [
        {
          "name": "",
          "type": "address"
        }
      ],
      "payable": false,
      "stateMutability": "view",
      "type": "function"
    },
    {
      "constant": true,
      "inputs": [],
      "name": "settler",
      "outputs": [
        {
          "name": "",
          "type": "address"
        }
      ],
      "payable": false,
      "stateMutability": "view",
      "type": "function"
    },
    {
      "constant": true,
      "inputs": [],
      "name": "maxProfit",
      "outputs": [
        {
          "name": "",
          "type": "uint256"
        }
      ],
      "payable": false,
      "stateMutability": "view",
      "type": "function"
    },
    {
      "inputs": [],
      "payable": false,
      "stateMutability": "nonpayable",
      "type": "constructor"
    },
    {
      "payable": true,
      "stateMutability": "payable",
      "type": "fallback"
    },
    {
      "anonymous": false,
      "inputs": [
        {
          "indexed": true,
          "name": "player",
          "type": "address"
        },
        {
          "indexed": false,
          "name": "winAmount",
          "type": "uint256"
        },
        {
          "indexed": false,
          "name": "playerSeed",
          "type": "bytes32"
        },
        {
          "indexed": false,
          "name": "seedHash",
          "type": "bytes32"
        },
        {
          "indexed": false,
          "name": "target",
          "type": "uint256"
        },
        {
          "indexed": false,
          "name": "randomSeed",
          "type": "string"
        },
        {
          "indexed": false,
          "name": "roll",
          "type": "uint256"
        }
      ],
      "name": "BetResult",
      "type": "event"
    },
    {
      "anonymous": false,
      "inputs": [
        {
          "indexed": false,
          "name": "hash",
          "type": "bytes32"
        }
      ],
      "name": "BetPlaced",
      "type": "event"
    },
    {
      "anonymous": false,
      "inputs": [
        {
          "indexed": true,
          "name": "player",
          "type": "address"
        },
        {
          "indexed": false,
          "name": "amount",
          "type": "uint256"
        },
        {
          "indexed": false,
          "name": "seedHash",
          "type": "bytes32"
        }
      ],
      "name": "FailedPayment",
      "type": "event"
    },
    {
      "constant": false,
      "inputs": [
        {
          "name": "newSettler",
          "type": "address"
        }
      ],
      "name": "setSettler",
      "outputs": [],
      "payable": false,
      "stateMutability": "nonpayable",
      "type": "function"
    },
    {
      "constant": false,
      "inputs": [
        {
          "name": "_leverage",
          "type": "uint256"
        }
      ],
      "name": "setLeverage",
      "outputs": [],
      "payable": false,
      "stateMutability": "nonpayable",
      "type": "function"
    },
    {
      "constant": false,
      "inputs": [
        {
          "name": "receiver",
          "type": "address"
        },
        {
          "name": "withdrawAmount",
          "type": "uint256"
        }
      ],
      "name": "withdrawFunds",
      "outputs": [],
      "payable": false,
      "stateMutability": "nonpayable",
      "type": "function"
    },
    {
      "constant": false,
      "inputs": [],
      "name": "kill",
      "outputs": [],
      "payable": false,
      "stateMutability": "nonpayable",
      "type": "function"
    },
    {
      "constant": false,
      "inputs": [
        {
          "name": "playerSeed",
          "type": "bytes32"
        },
        {
          "name": "seedHash",
          "type": "bytes32"
        },
        {
          "name": "target",
          "type": "uint256"
        }
      ],
      "name": "placeBet",
      "outputs": [],
      "payable": true,
      "stateMutability": "payable",
      "type": "function"
    },
    {
      "constant": false,
      "inputs": [
        {
          "name": "randomSeed",
          "type": "string"
        }
      ],
      "name": "settleBet",
      "outputs": [],
      "payable": false,
      "stateMutability": "nonpayable",
      "type": "function"
    }
  ],
  "bytecode": "0x6080604052600360055534801561001557600080fd5b50336000806101000a81548173ffffffffffffffffffffffffffffffffffffffff021916908373ffffffffffffffffffffffffffffffffffffffff16021790555033600160006101000a81548173ffffffffffffffffffffffffffffffffffffffff021916908373ffffffffffffffffffffffffffffffffffffffff16021790555061136a806100a66000396000f3006080604052600436106100a4576000357c0100000000000000000000000000000000000000000000000000000000900463ffffffff16806307f19eba146100ae57806332b19c65146100f157806341c0e1b51461012c5780634ae701fe146101435780636540742f1461017f57806379575b23146101aa5780638da5cb5b146101d7578063ab221a761461022e578063b539cd5514610285578063c1075329146102b0575b6100ac6102fd565b005b3480156100ba57600080fd5b506100ef600480360381019080803573ffffffffffffffffffffffffffffffffffffffff16906020019092919050505061035f565b005b3480156100fd57600080fd5b5061012a60048036038101908080359060200190820180359060200191909192939192939050505061048d565b005b34801561013857600080fd5b50610141610b53565b005b61017d6004803603810190808035600019169060200190929190803560001916906020019092919080359060200190929190505050610c14565b005b34801561018b57600080fd5b50610194611070565b6040518082815260200191505060405180910390f35b3480156101b657600080fd5b506101d56004803603810190808035906020019092919050505061107b565b005b3480156101e357600080fd5b506101ec611177565b604051808273ffffffffffffffffffffffffffffffffffffffff1673ffffffffffffffffffffffffffffffffffffffff16815260200191505060405180910390f35b34801561023a57600080fd5b5061024361119c565b604051808273ffffffffffffffffffffffffffffffffffffffff1673ffffffffffffffffffffffffffffffffffffffff16815260200191505060405180910390f35b34801561029157600080fd5b5061029a6111c2565b6040518082815260200191505060405180910390f35b3480156102bc57600080fd5b506102fb600480360381019080803573ffffffffffffffffffffffffffffffffffffffff169060200190929190803590602001909291905050506111c8565b005b6005546064600460009054906101000a90046fffffffffffffffffffffffffffffffff166fffffffffffffffffffffffffffffffff163073ffffffffffffffffffffffffffffffffffffffff16310381151561035557fe5b0402600381905550565b6000809054906101000a900473ffffffffffffffffffffffffffffffffffffffff1673ffffffffffffffffffffffffffffffffffffffff163373ffffffffffffffffffffffffffffffffffffffff16141515610449576040517f08c379a00000000000000000000000000000000000000000000000000000000081526004018080602001828103825260248152602001807f4f6e6c7920746865206f776e65722063616e2063616c6c2074686973206d657481526020017f686f642e0000000000000000000000000000000000000000000000000000000081525060400191505060405180910390fd5b80600160006101000a81548173ffffffffffffffffffffffffffffffffffffffff021916908373ffffffffffffffffffffffffffffffffffffffff16021790555050565b600080600080600080600160009054906101000a900473ffffffffffffffffffffffffffffffffffffffff1673ffffffffffffffffffffffffffffffffffffffff163373ffffffffffffffffffffffffffffffffffffffff16141515610581576040517f08c379a00000000000000000000000000000000000000000000000000000000081526004018080602001828103825260288152602001807f4d7573742062652074686520736574746c657220746f2063616c6c207468697381526020017f206d6574686f642e00000000000000000000000000000000000000000000000081525060400191505060405180910390fd5b8787604051602001808383808284378201915050925050506040516020818303038152906040526040518082805190602001908083835b6020831015156105dd57805182526020820191506020810190506020830392506105b8565b6001836020036101000a038019825116818451168082178552505050505050905001915050604051809103902095506002600087600190048152602001908152602001600020945085600019168560010154600019161415156106a8576040517f08c379a000000000000000000000000000000000000000000000000000000000815260040180806020018281038252601d8152602001807f4e6f2062657420666f756e64207769746820736572766572207365656400000081525060200191505060405180910390fd5b600015158560060160149054906101000a900460ff161515141515610735576040517f08c379a00000000000000000000000000000000000000000000000000000000081526004018080602001828103825260138152602001807f42657420616c726561647920736574746c65640000000000000000000000000081525060200191505060405180910390fd5b8460000154935084600501549250826064808681151561075157fe5b0486030281151561075e57fe5b04915087878660030154604051602001808484808284378201915050826000191660001916815260200193505050506040516020818303038152906040526040518082805190602001908083835b6020831015156107d157805182526020820191506020810190506020830392506107ac565b6001836020036101000a038019825116818451168082178552505050505050905001915050604051809103902090506064816001900481151561081057fe5b0685600401819055508460050154856004015410156109e4578460060160009054906101000a900473ffffffffffffffffffffffffffffffffffffffff1673ffffffffffffffffffffffffffffffffffffffff166108fc839081150290604051600060405180830381858888f19350505050151561090f578460060160009054906101000a900473ffffffffffffffffffffffffffffffffffffffff1673ffffffffffffffffffffffffffffffffffffffff167f9e94024b6b6b8b1a36d10ac5b9a483ce8d35ed09336923b2e327088cc686339c8387600101546040518083815260200182600019166000191681526020019250505060405180910390a25b8460060160009054906101000a900473ffffffffffffffffffffffffffffffffffffffff1673ffffffffffffffffffffffffffffffffffffffff167fb54d93ea17a06b55ac7f0b9e3b311a4c55a84f34d617d195747f20ef4f779d558387600301548860010154878d8d8c60040154604051808881526020018760001916600019168152602001866000191660001916815260200185815260200180602001838152602001828103825285858281815260200192508082843782019150509850505050505050505060405180910390a2610ab6565b8460060160009054906101000a900473ffffffffffffffffffffffffffffffffffffffff1673ffffffffffffffffffffffffffffffffffffffff167fb54d93ea17a06b55ac7f0b9e3b311a4c55a84f34d617d195747f20ef4f779d55600087600301548860010154878d8d8c60040154604051808881526020018760001916600019168152602001866000191660001916815260200185815260200180602001838152602001828103825285858281815260200192508082843782019150509850505050505050505060405180910390a25b81600460008282829054906101000a90046fffffffffffffffffffffffffffffffff160392506101000a8154816fffffffffffffffffffffffffffffffff02191690836fffffffffffffffffffffffffffffffff16021790555060018560060160146101000a81548160ff0219169083151502179055508787866002019190610b40929190611299565b50610b496102fd565b5050505050505050565b6000600460009054906101000a90046fffffffffffffffffffffffffffffffff166fffffffffffffffffffffffffffffffff16141515610bfb576040517f08c379a00000000000000000000000000000000000000000000000000000000081526004018080602001828103825260158152602001807f5374696c6c2062657473206c6f636b65642075702e000000000000000000000081525060200191505060405180910390fd5b3373ffffffffffffffffffffffffffffffffffffffff16ff5b60008060008084118015610c29575060648411155b1515610c9d576040517f08c379a00000000000000000000000000000000000000000000000000000000081526004018080602001828103825260138152602001807f746172676574206f7574206f662072616e67650000000000000000000000000081525060200191505060405180910390fd5b349250662386f26fc100008310151515610d1f576040517f08c379a00000000000000000000000000000000000000000000000000000000081526004018080602001828103825260138152602001807f626574416d6f756e7420746f6f20736d616c6c0000000000000000000000000081525060200191505060405180910390fd5b8360648085811515610d2d57fe5b04850302811515610d3a57fe5b04915060035483018211151515610ddf576040517f08c379a00000000000000000000000000000000000000000000000000000000081526004018080602001828103825260278152602001807f5061796f7574206973206d6f7265207468616e206d617820616c6c6f7765642081526020017f70726f6669742e0000000000000000000000000000000000000000000000000081525060400191505060405180910390fd5b81600460008282829054906101000a90046fffffffffffffffffffffffffffffffff160192506101000a8154816fffffffffffffffffffffffffffffffff02191690836fffffffffffffffffffffffffffffffff1602179055503073ffffffffffffffffffffffffffffffffffffffff1631600460009054906101000a90046fffffffffffffffffffffffffffffffff166fffffffffffffffffffffffffffffffff1611151515610ef8576040517f08c379a00000000000000000000000000000000000000000000000000000000081526004018080602001828103825260108152602001807f43616e6e6f742074616b65206265742e0000000000000000000000000000000081525060200191505060405180910390fd5b60026000866001900481526020019081526020016000209050846000191681600101546000191614151515610f95576040517f08c379a000000000000000000000000000000000000000000000000000000000815260040180806020018281038252601c8152602001807f4265742077697468206861736820616c7265616479206578697374730000000081525060200191505060405180910390fd5b84816001018160001916905550828160000181905550338160060160006101000a81548173ffffffffffffffffffffffffffffffffffffffff021916908373ffffffffffffffffffffffffffffffffffffffff1602179055508581600301816000191690555083816005018190555060008160060160146101000a81548160ff0219169083151502179055506110296102fd565b7fb32a0e1e1d062923ebc6b90f637060c0546ec7c27e73e4378b7ec446f1f67c458560405180826000191660001916815260200191505060405180910390a1505050505050565b662386f26fc1000081565b6000809054906101000a900473ffffffffffffffffffffffffffffffffffffffff1673ffffffffffffffffffffffffffffffffffffffff163373ffffffffffffffffffffffffffffffffffffffff16141515611165576040517f08c379a00000000000000000000000000000000000000000000000000000000081526004018080602001828103825260248152602001807f4f6e6c7920746865206f776e65722063616e2063616c6c2074686973206d657481526020017f686f642e0000000000000000000000000000000000000000000000000000000081525060400191505060405180910390fd5b806005819055506111746102fd565b50565b6000809054906101000a900473ffffffffffffffffffffffffffffffffffffffff1681565b600160009054906101000a900473ffffffffffffffffffffffffffffffffffffffff1681565b60035481565b3073ffffffffffffffffffffffffffffffffffffffff16318111151515611257576040517f08c379a000000000000000000000000000000000000000000000000000000000815260040180806020018281038252601b8152602001807f616d6f756e74206c6172676572207468616e2062616c616e63652e000000000081525060200191505060405180910390fd5b8173ffffffffffffffffffffffffffffffffffffffff166108fc829081150290604051600060405180830381858888f19350505050506112956102fd565b5050565b828054600181600116156101000203166002900490600052602060002090601f016020900481019282601f106112da57803560ff1916838001178555611308565b82800160010185558215611308579182015b828111156113075782358255916020019190600101906112ec565b5b5090506113159190611319565b5090565b61133b91905b8082111561133757600081600090555060010161131f565b5090565b905600a165627a7a723058206d92fbfbd9731d23dd71347161a3f3f0a3393421873dda13d0c20c7d848dbd6f0029",
  "source": "\n\ncontract MyEthDice {\n    struct Bet {\n        uint amount; \n        bytes32 seedHash; \n        string randomSeed;\n        bytes32 playerSeed; \n        uint roll;  \n        uint target; \n        address player; \n        bool settled; \n    }\n    \n    uint constant public MIN_BET = 0.01 ether;\n    \n    address public owner;\n    address public settler;\n    \n    mapping (uint => Bet) bets;\n    \n    uint public maxProfit;\n    uint128 private lockedFunds;\n    uint private leverage = 3;\n    \n    event BetResult(address indexed player, uint winAmount, bytes32 playerSeed, bytes32 seedHash, uint target, string randomSeed, uint roll);\n    event BetPlaced(bytes32 hash);\n    event FailedPayment(address indexed player, uint amount, bytes32 seedHash);\n    \n    constructor () public {\n      owner = msg.sender;\n      settler = msg.sender;\n    }\n    \n    function () external payable {\n        updateMaxProfit(); \n    }\n    \n    modifier onlyOwner {\n        require (msg.sender == owner, \"Only the owner can call this method.\");\n        _;\n    }\n    \n    modifier onlySettler {\n        require (msg.sender == settler, \"Must be the settler to call this method.\");\n        _;\n    }\n\n    function setSettler(address newSettler) external onlyOwner {\n        settler = newSettler;\n    }\n\n    function updateMaxProfit() private {\n      maxProfit = ((address(this).balance - lockedFunds) / 100) * leverage;\n    }\n    \n    function setLeverage(uint _leverage) public onlyOwner {\n        leverage = _leverage;\n        updateMaxProfit();\n    }\n\n    function withdrawFunds(address receiver, uint withdrawAmount) external  {\n        require (withdrawAmount <= address(this).balance, \"amount larger than balance.\");\n        receiver.send(withdrawAmount); \n        updateMaxProfit();\n    }\n\n    function kill() public  {\n        require (lockedFunds == 0, \"Still bets locked up.\");\n        selfdestruct(msg.sender); \n    }\n    \n    function placeBet(bytes32 playerSeed, bytes32 seedHash, uint target) external payable {\n        require(target > 0 && target <= 100, \"target out of range\"); \n      \n        uint betAmount = msg.value;\n        require(betAmount >= MIN_BET, \"betAmount too small\");\n\n        uint payout = (betAmount - (betAmount / 100)) * 100 / target;  \n        require (payout <= betAmount + maxProfit, \"Payout is more than max allowed profit.\");\n\n        lockedFunds += uint128(payout);\n        require (lockedFunds <= address(this).balance, \"Cannot take bet.\");\n      \n        Bet storage bet = bets[uint(seedHash)];\n        \n        \n        require(bet.seedHash != seedHash, \"Bet with hash already exists\");\n    \n        bet.seedHash = seedHash;\n        bet.amount = betAmount;\n        bet.player = msg.sender;\n        bet.playerSeed = playerSeed;\n        bet.target = target;\n        bet.settled = false;\n        \n        updateMaxProfit();\n        emit BetPlaced(seedHash);\n    }\n    \n    function settleBet(string  randomSeed) external onlySettler {\n         bytes32 seedHash = keccak256(abi.encodePacked(randomSeed));\n         Bet storage bet = bets[uint(seedHash)];\n\n         require(bet.seedHash == seedHash, \"No bet found with server seed\");\n         require(bet.settled == false, \"Bet already settled\");\n         \n         uint amount = bet.amount;\n         uint target = bet.target;\n         uint payout = (amount - (amount / 100)) * 100 / target;\n         \n         bytes32 combinedHash = keccak256(abi.encodePacked(randomSeed, bet.playerSeed));\n         bet.roll = uint(combinedHash) % 100;\n         \n         if(bet.roll < bet.target) {\n          if (!bet.player.send(payout)) {\n            emit FailedPayment(bet.player, payout, bet.seedHash);\n          }\n          emit BetResult(bet.player, payout, bet.playerSeed, bet.seedHash, target, randomSeed, bet.roll);\n        } else {\n            emit BetResult(bet.player, 0, bet.playerSeed, bet.seedHash, target, randomSeed, bet.roll);\n        }\n\n         lockedFunds -= uint128(payout);\n         bet.settled = true;\n         bet.randomSeed = randomSeed;\n\n         updateMaxProfit();\n    }\n}\n",
  "sourcePath": "/home/XXX-1/smartrim-experiment/for-rlf/0x0d0edbcf2c0da25ac9a79c9466989e46a8f96221_2/contracts/0x0d0edbcf2c0da25ac9a79c9466989e46a8f96221_2.sol",
  "compiler": {
    "name": "solc",
    "version": "0.4.25+commit.59dbf8f1.Emscripten.clang"
  },
  "schemaVersion": "3.4.16",
  "updatedAt": "2025-08-14T03:35:44.293Z",
  "networkType": "ethereum",
  "devdoc": {
    "methods": {}
  },
  "userdoc": {
    "methods": {}
  }
}