{
  "contractName": "FirstContract",
  "abi": [
    {
      "inputs": [],
      "payable": true,
      "stateMutability": "payable",
      "type": "constructor"
    },
    {
      "constant": false,
      "inputs": [],
      "name": "freeze",
      "outputs": [],
      "payable": false,
      "stateMutability": "nonpayable",
      "type": "function"
    },
    {
      "constant": false,
      "inputs": [],
      "name": "releaseFunds",
      "outputs": [],
      "payable": false,
      "stateMutability": "nonpayable",
      "type": "function"
    },
    {
      "constant": false,
      "inputs": [],
      "name": "claimBonus",
      "outputs": [],
      "payable": true,
      "stateMutability": "payable",
      "type": "function"
    }
  ],
  "bytecode": "0x608060405260008060006101000a81548160ff02191690831515021790555033600060016101000a81548173ffffffffffffffffffffffffffffffffffffffff021916908373ffffffffffffffffffffffffffffffffffffffff1602179055506101fd8061006e6000396000f300608060405260043610610057576000357c0100000000000000000000000000000000000000000000000000000000900463ffffffff168063506353941461005c57806362a5af3b1461006657806369d895751461007d575b600080fd5b610064610094565b005b34801561007257600080fd5b5061007b610133565b005b34801561008957600080fd5b5061009261014f565b005b3073ffffffffffffffffffffffffffffffffffffffff163134101580156100cd5750600015156000809054906101000a900460ff161515145b15610131573373ffffffffffffffffffffffffffffffffffffffff166108fc3073ffffffffffffffffffffffffffffffffffffffff16319081150290604051600060405180830381858888f1935050505015801561012f573d6000803e3d6000fd5b505b565b60016000806101000a81548160ff021916908315150217905550565b600060019054906101000a900473ffffffffffffffffffffffffffffffffffffffff1673ffffffffffffffffffffffffffffffffffffffff166108fc3073ffffffffffffffffffffffffffffffffffffffff16319081150290604051600060405180830381858888f193505050501580156101ce573d6000803e3d6000fd5b505600a165627a7a7230582076c5bd5003a05d003afd8914884dfff794d1f93dee5a0cbfaac65f0d763e43730029",
  "source": "\n\ncontract FirstContract {\n\n  bool frozen = false;\n  address owner;\n\n  function FirstContract() payable {\n    owner = msg.sender;\n  }\n\n  function freeze() {\n    frozen = true;\n  }\n\n  \n  function releaseFunds() {\n    owner.transfer(this.balance);\n  }\n\n  \n  function claimBonus() payable {\n    if ((msg.value >= this.balance) && (frozen == false)) {\n      msg.sender.transfer(this.balance);\n    }\n  }\n\n}",
  "sourcePath": "/home/XXX-1/smartrim-experiment/for-rlf/0xa96e6dbf0f21cfcc9934ad52dec8229e3321254e/contracts/0xa96e6dbf0f21cfcc9934ad52dec8229e3321254e.sol",
  "compiler": {
    "name": "solc",
    "version": "0.4.25+commit.59dbf8f1.Emscripten.clang"
  },
  "schemaVersion": "3.4.16",
  "updatedAt": "2025-08-14T03:42:41.585Z",
  "networkType": "ethereum",
  "devdoc": {
    "methods": {}
  },
  "userdoc": {
    "methods": {}
  }
}