{
  "contractName": "ERBIUMCOIN",
  "abi": [
    {
      "constant": true,
      "inputs": [],
      "name": "name",
      "outputs": [
        {
          "name": "",
          "type": "string"
        }
      ],
      "payable": false,
      "stateMutability": "view",
      "type": "function"
    },
    {
      "constant": true,
      "inputs": [],
      "name": "supply_increased",
      "outputs": [
        {
          "name": "",
          "type": "uint256"
        }
      ],
      "payable": false,
      "stateMutability": "view",
      "type": "function"
    },
    {
      "constant": true,
      "inputs": [],
      "name": "decimals",
      "outputs": [
        {
          "name": "",
          "type": "uint8"
        }
      ],
      "payable": false,
      "stateMutability": "view",
      "type": "function"
    },
    {
      "constant": true,
      "inputs": [],
      "name": "_totalSupply",
      "outputs": [
        {
          "name": "",
          "type": "uint256"
        }
      ],
      "payable": false,
      "stateMutability": "view",
      "type": "function"
    },
    {
      "constant": true,
      "inputs": [],
      "name": "owner",
      "outputs": [
        {
          "name": "",
          "type": "address"
        }
      ],
      "payable": false,
      "stateMutability": "view",
      "type": "function"
    },
    {
      "constant": true,
      "inputs": [],
      "name": "symbol",
      "outputs": [
        {
          "name": "",
          "type": "string"
        }
      ],
      "payable": false,
      "stateMutability": "view",
      "type": "function"
    },
    {
      "inputs": [],
      "payable": false,
      "stateMutability": "nonpayable",
      "type": "constructor"
    },
    {
      "payable": true,
      "stateMutability": "payable",
      "type": "fallback"
    },
    {
      "anonymous": false,
      "inputs": [
        {
          "indexed": true,
          "name": "_from",
          "type": "address"
        },
        {
          "indexed": true,
          "name": "_to",
          "type": "address"
        },
        {
          "indexed": false,
          "name": "_value",
          "type": "uint256"
        }
      ],
      "name": "Transfer",
      "type": "event"
    },
    {
      "anonymous": false,
      "inputs": [
        {
          "indexed": true,
          "name": "_owner",
          "type": "address"
        },
        {
          "indexed": true,
          "name": "_spender",
          "type": "address"
        },
        {
          "indexed": false,
          "name": "_value",
          "type": "uint256"
        }
      ],
      "name": "Approval",
      "type": "event"
    },
    {
      "anonymous": false,
      "inputs": [
        {
          "indexed": false,
          "name": "e",
          "type": "string"
        },
        {
          "indexed": false,
          "name": "value",
          "type": "uint256"
        }
      ],
      "name": "LOG",
      "type": "event"
    },
    {
      "constant": false,
      "inputs": [
        {
          "name": "supply_to_increase",
          "type": "uint256"
        }
      ],
      "name": "mineToken",
      "outputs": [],
      "payable": false,
      "stateMutability": "nonpayable",
      "type": "function"
    },
    {
      "constant": true,
      "inputs": [],
      "name": "totalSupply",
      "outputs": [
        {
          "name": "total_Supply",
          "type": "uint256"
        }
      ],
      "payable": false,
      "stateMutability": "view",
      "type": "function"
    },
    {
      "constant": true,
      "inputs": [
        {
          "name": "_owner",
          "type": "address"
        }
      ],
      "name": "balanceOf",
      "outputs": [
        {
          "name": "balance",
          "type": "uint256"
        }
      ],
      "payable": false,
      "stateMutability": "view",
      "type": "function"
    },
    {
      "constant": false,
      "inputs": [
        {
          "name": "_to",
          "type": "address"
        },
        {
          "name": "_amount",
          "type": "uint256"
        }
      ],
      "name": "transfer",
      "outputs": [
        {
          "name": "success",
          "type": "bool"
        }
      ],
      "payable": false,
      "stateMutability": "nonpayable",
      "type": "function"
    },
    {
      "constant": false,
      "inputs": [
        {
          "name": "_from",
          "type": "address"
        },
        {
          "name": "_to",
          "type": "address"
        },
        {
          "name": "_amount",
          "type": "uint256"
        }
      ],
      "name": "transferFrom",
      "outputs": [
        {
          "name": "success",
          "type": "bool"
        }
      ],
      "payable": false,
      "stateMutability": "nonpayable",
      "type": "function"
    },
    {
      "constant": false,
      "inputs": [
        {
          "name": "_spender",
          "type": "address"
        },
        {
          "name": "_amount",
          "type": "uint256"
        }
      ],
      "name": "approve",
      "outputs": [
        {
          "name": "success",
          "type": "bool"
        }
      ],
      "payable": false,
      "stateMutability": "nonpayable",
      "type": "function"
    },
    {
      "constant": true,
      "inputs": [
        {
          "name": "_owner",
          "type": "address"
        },
        {
          "name": "_spender",
          "type": "address"
        }
      ],
      "name": "allowance",
      "outputs": [
        {
          "name": "remaining",
          "type": "uint256"
        }
      ],
      "payable": false,
      "stateMutability": "view",
      "type": "function"
    },
    {
      "constant": false,
      "inputs": [
        {
          "name": "newOwner",
          "type": "address"
        }
      ],
      "name": "transferOwnership",
      "outputs": [],
      "payable": false,
      "stateMutability": "nonpayable",
      "type": "function"
    },
    {
      "constant": false,
      "inputs": [],
      "name": "drain",
      "outputs": [],
      "payable": false,
      "stateMutability": "nonpayable",
      "type": "function"
    },
    {
      "constant": false,
      "inputs": [],
      "name": "kill",
      "outputs": [],
      "payable": false,
      "stateMutability": "nonpayable",
      "type": "function"
    }
  ],
  "bytecode": "0x608060405267016345785d8a000060005534801561001c57600080fd5b5033600260006101000a81548173ffffffffffffffffffffffffffffffffffffffff021916908373ffffffffffffffffffffffffffffffffffffffff16021790555066470de4df82000060016000600260009054906101000a900473ffffffffffffffffffffffffffffffffffffffff1673ffffffffffffffffffffffffffffffffffffffff1673ffffffffffffffffffffffffffffffffffffffff1681526020019081526020016000208190555060016000600260009054906101000a900473ffffffffffffffffffffffffffffffffffffffff1673ffffffffffffffffffffffffffffffffffffffff1673ffffffffffffffffffffffffffffffffffffffff1681526020019081526020016000205460046000828254019250508190555061142a8061014b6000396000f3006080604052600436106100e6576000357c0100000000000000000000000000000000000000000000000000000000900463ffffffff16806306fdde03146100e8578063095ea7b31461017857806318160ddd146101dd5780631b7949e21461020857806323b872dd14610233578063313ce567146102b8578063339a7670146102e95780633eaaf86b1461031657806341c0e1b51461034157806370a08231146103585780638da5cb5b146103af57806395d89b41146104065780639890220b14610496578063a9059cbb146104ad578063dd62ed3e14610512578063f2fde38b14610589575b005b3480156100f457600080fd5b506100fd6105cc565b6040518080602001828103825283818151815260200191508051906020019080838360005b8381101561013d578082015181840152602081019050610122565b50505050905090810190601f16801561016a5780820380516001836020036101000a031916815260200191505b509250505060405180910390f35b34801561018457600080fd5b506101c3600480360381019080803573ffffffffffffffffffffffffffffffffffffffff16906020019092919080359060200190929190505050610605565b604051808215151515815260200191505060405180910390f35b3480156101e957600080fd5b506101f26106f7565b6040518082815260200191505060405180910390f35b34801561021457600080fd5b5061021d610700565b6040518082815260200191505060405180910390f35b34801561023f57600080fd5b5061029e600480360381019080803573ffffffffffffffffffffffffffffffffffffffff169060200190929190803573ffffffffffffffffffffffffffffffffffffffff16906020019092919080359060200190929190505050610706565b604051808215151515815260200191505060405180910390f35b3480156102c457600080fd5b506102cd610b45565b604051808260ff1660ff16815260200191505060405180910390f35b3480156102f557600080fd5b5061031460048036038101908080359060200190929190505050610b4a565b005b34801561032257600080fd5b5061032b610caf565b6040518082815260200191505060405180910390f35b34801561034d57600080fd5b50610356610cb5565b005b34801561036457600080fd5b50610399600480360381019080803573ffffffffffffffffffffffffffffffffffffffff169060200190929190505050610cf0565b6040518082815260200191505060405180910390f35b3480156103bb57600080fd5b506103c4610d39565b604051808273ffffffffffffffffffffffffffffffffffffffff1673ffffffffffffffffffffffffffffffffffffffff16815260200191505060405180910390f35b34801561041257600080fd5b5061041b610d5f565b6040518080602001828103825283818151815260200191508051906020019080838360005b8381101561045b578082015181840152602081019050610440565b50505050905090810190601f1680156104885780820380516001836020036101000a031916815260200191505b509250505060405180910390f35b3480156104a257600080fd5b506104ab610d98565b005b3480156104b957600080fd5b506104f8600480360381019080803573ffffffffffffffffffffffffffffffffffffffff16906020019092919080359060200190929190505050610e76565b604051808215151515815260200191505060405180910390f35b34801561051e57600080fd5b50610573600480360381019080803573ffffffffffffffffffffffffffffffffffffffff169060200190929190803573ffffffffffffffffffffffffffffffffffffffff16906020019092919050505061111d565b6040518082815260200191505060405180910390f35b34801561059557600080fd5b506105ca600480360381019080803573ffffffffffffffffffffffffffffffffffffffff1690602001909291905050506111a4565b005b6040805190810160405280600a81526020017f45726269756d436f696e0000000000000000000000000000000000000000000081525081565b600081600360003373ffffffffffffffffffffffffffffffffffffffff1673ffffffffffffffffffffffffffffffffffffffff16815260200190815260200160002060008573ffffffffffffffffffffffffffffffffffffffff1673ffffffffffffffffffffffffffffffffffffffff168152602001908152602001600020819055508273ffffffffffffffffffffffffffffffffffffffff163373ffffffffffffffffffffffffffffffffffffffff167f8c5be1e5ebec7d5bd14f71427d1e84f3dd0314c0f7b2291e5b200ac8c7c3b925846040518082815260200191505060405180910390a36001905092915050565b60008054905090565b60045481565b6000808373ffffffffffffffffffffffffffffffffffffffff161415151561072d57600080fd5b81600160008673ffffffffffffffffffffffffffffffffffffffff1673ffffffffffffffffffffffffffffffffffffffff16815260200190815260200160002054101580156107f8575081600360008673ffffffffffffffffffffffffffffffffffffffff1673ffffffffffffffffffffffffffffffffffffffff16815260200190815260200160002060003373ffffffffffffffffffffffffffffffffffffffff1673ffffffffffffffffffffffffffffffffffffffff1681526020019081526020016000205410155b8015610805575060008210155b80156108915750600160008473ffffffffffffffffffffffffffffffffffffffff1673ffffffffffffffffffffffffffffffffffffffff1681526020019081526020016000205482600160008673ffffffffffffffffffffffffffffffffffffffff1673ffffffffffffffffffffffffffffffffffffffff168152602001908152602001600020540110155b151561089c57600080fd5b6108ee82600160008773ffffffffffffffffffffffffffffffffffffffff1673ffffffffffffffffffffffffffffffffffffffff168152602001908152602001600020546113c790919063ffffffff16565b600160008673ffffffffffffffffffffffffffffffffffffffff1673ffffffffffffffffffffffffffffffffffffffff168152602001908152602001600020819055506109c082600360008773ffffffffffffffffffffffffffffffffffffffff1673ffffffffffffffffffffffffffffffffffffffff16815260200190815260200160002060003373ffffffffffffffffffffffffffffffffffffffff1673ffffffffffffffffffffffffffffffffffffffff168152602001908152602001600020546113c790919063ffffffff16565b600360008673ffffffffffffffffffffffffffffffffffffffff1673ffffffffffffffffffffffffffffffffffffffff16815260200190815260200160002060003373ffffffffffffffffffffffffffffffffffffffff1673ffffffffffffffffffffffffffffffffffffffff16815260200190815260200160002081905550610a9282600160008673ffffffffffffffffffffffffffffffffffffffff1673ffffffffffffffffffffffffffffffffffffffff168152602001908152602001600020546113e090919063ffffffff16565b600160008573ffffffffffffffffffffffffffffffffffffffff1673ffffffffffffffffffffffffffffffffffffffff168152602001908152602001600020819055508273ffffffffffffffffffffffffffffffffffffffff168473ffffffffffffffffffffffffffffffffffffffff167fddf252ad1be2c89b69c2b068fc378daa952ba7f163c4a11628f55a4df523b3ef846040518082815260200191505060405180910390a3600190509392505050565b600a81565b600260009054906101000a900473ffffffffffffffffffffffffffffffffffffffff1673ffffffffffffffffffffffffffffffffffffffff163373ffffffffffffffffffffffffffffffffffffffff16141515610ba657600080fd5b600054816004540111151515610bbb57600080fd5b806004600082825401925050819055508060016000600260009054906101000a900473ffffffffffffffffffffffffffffffffffffffff1673ffffffffffffffffffffffffffffffffffffffff1673ffffffffffffffffffffffffffffffffffffffff16815260200190815260200160002060008282540192505081905550600260009054906101000a900473ffffffffffffffffffffffffffffffffffffffff1673ffffffffffffffffffffffffffffffffffffffff1660007fddf252ad1be2c89b69c2b068fc378daa952ba7f163c4a11628f55a4df523b3ef836040518082815260200191505060405180910390a350565b60005481565b600260009054906101000a900473ffffffffffffffffffffffffffffffffffffffff1673ffffffffffffffffffffffffffffffffffffffff16ff5b6000600160008373ffffffffffffffffffffffffffffffffffffffff1673ffffffffffffffffffffffffffffffffffffffff168152602001908152602001600020549050919050565b600260009054906101000a900473ffffffffffffffffffffffffffffffffffffffff1681565b6040805190810160405280600381526020017f455242000000000000000000000000000000000000000000000000000000000081525081565b600260009054906101000a900473ffffffffffffffffffffffffffffffffffffffff1673ffffffffffffffffffffffffffffffffffffffff163373ffffffffffffffffffffffffffffffffffffffff16141515610df457600080fd5b600260009054906101000a900473ffffffffffffffffffffffffffffffffffffffff1673ffffffffffffffffffffffffffffffffffffffff166108fc3073ffffffffffffffffffffffffffffffffffffffff16319081150290604051600060405180830381858888f19350505050158015610e73573d6000803e3d6000fd5b50565b6000808373ffffffffffffffffffffffffffffffffffffffff1614151515610e9d57600080fd5b81600160003373ffffffffffffffffffffffffffffffffffffffff1673ffffffffffffffffffffffffffffffffffffffff1681526020019081526020016000205410158015610eed575060008210155b8015610f795750600160008473ffffffffffffffffffffffffffffffffffffffff1673ffffffffffffffffffffffffffffffffffffffff1681526020019081526020016000205482600160008673ffffffffffffffffffffffffffffffffffffffff1673ffffffffffffffffffffffffffffffffffffffff168152602001908152602001600020540110155b1515610f8457600080fd5b610fd682600160003373ffffffffffffffffffffffffffffffffffffffff1673ffffffffffffffffffffffffffffffffffffffff168152602001908152602001600020546113c790919063ffffffff16565b600160003373ffffffffffffffffffffffffffffffffffffffff1673ffffffffffffffffffffffffffffffffffffffff1681526020019081526020016000208190555061106b82600160008673ffffffffffffffffffffffffffffffffffffffff1673ffffffffffffffffffffffffffffffffffffffff168152602001908152602001600020546113e090919063ffffffff16565b600160008573ffffffffffffffffffffffffffffffffffffffff1673ffffffffffffffffffffffffffffffffffffffff168152602001908152602001600020819055508273ffffffffffffffffffffffffffffffffffffffff163373ffffffffffffffffffffffffffffffffffffffff167fddf252ad1be2c89b69c2b068fc378daa952ba7f163c4a11628f55a4df523b3ef846040518082815260200191505060405180910390a36001905092915050565b6000600360008473ffffffffffffffffffffffffffffffffffffffff1673ffffffffffffffffffffffffffffffffffffffff16815260200190815260200160002060008373ffffffffffffffffffffffffffffffffffffffff1673ffffffffffffffffffffffffffffffffffffffff16815260200190815260200160002054905092915050565b600260009054906101000a900473ffffffffffffffffffffffffffffffffffffffff1673ffffffffffffffffffffffffffffffffffffffff163373ffffffffffffffffffffffffffffffffffffffff1614151561120057600080fd5b60008173ffffffffffffffffffffffffffffffffffffffff161415151561122657600080fd5b6112d960016000600260009054906101000a900473ffffffffffffffffffffffffffffffffffffffff1673ffffffffffffffffffffffffffffffffffffffff1673ffffffffffffffffffffffffffffffffffffffff16815260200190815260200160002054600160008473ffffffffffffffffffffffffffffffffffffffff1673ffffffffffffffffffffffffffffffffffffffff168152602001908152602001600020546113e090919063ffffffff16565b600160008373ffffffffffffffffffffffffffffffffffffffff1673ffffffffffffffffffffffffffffffffffffffff16815260200190815260200160002081905550600060016000600260009054906101000a900473ffffffffffffffffffffffffffffffffffffffff1673ffffffffffffffffffffffffffffffffffffffff1673ffffffffffffffffffffffffffffffffffffffff1681526020019081526020016000208190555080600260006101000a81548173ffffffffffffffffffffffffffffffffffffffff021916908373ffffffffffffffffffffffffffffffffffffffff16021790555050565b60008282111515156113d557fe5b818303905092915050565b60008082840190508381101515156113f457fe5b80915050929150505600a165627a7a72305820ce766ea01e78766dfdef8c6b81f899622990514bcc33ddb292b242ea8d5f89f00029",
  "source": "\n\n\n\n\n\nlibrary SafeMath {\n  function mul(uint256 a, uint256 b) internal pure returns (uint256) {\n    if (a == 0) {\n      return 0;\n    }\n    uint256 c = a * b;\n    assert(c / a == b);\n    return c;\n  }\n\n  function div(uint256 a, uint256 b) internal pure returns (uint256) {\n    \n    uint256 c = a / b;\n    \n    return c;\n  }\n\n  function sub(uint256 a, uint256 b) internal pure returns (uint256) {\n    assert(b <= a);\n    return a - b;\n  }\n\n  function add(uint256 a, uint256 b) internal pure returns (uint256) {\n    uint256 c = a + b;\n    assert(c >= a);\n    return c;\n  }\n}\n\n  contract ERC20 {\n  function totalSupply()public view returns (uint total_Supply);\n  function balanceOf(address _owner)public view returns (uint256 balance);\n  function allowance(address _owner, address _spender)public view returns (uint remaining);\n  function transferFrom(address _from, address _to, uint _amount)public returns (bool ok);\n  function approve(address _spender, uint _amount)public returns (bool ok);\n  function transfer(address _to, uint _amount)public returns (bool ok);\n  event Transfer(address indexed _from, address indexed _to, uint _amount);\n  event Approval(address indexed _owner, address indexed _spender, uint _amount);\n}\n\ncontract ERBIUMCOIN is ERC20\n{\n    using SafeMath for uint256;\n    string public constant symbol = \"ERB\";\n    string public constant name = \"ErbiumCoin\";\n    uint8 public constant decimals = 10;\n    \n    uint256 public _totalSupply = 10000000 * 10 **10;     \n    \n    mapping(address => uint256) balances;   \n    \n    address public owner;\n    \n    mapping (address => mapping (address => uint)) allowed;\n    \n    uint256 public supply_increased;\n    \n    event Transfer(address indexed _from, address indexed _to, uint _value);\n    event Approval(address indexed _owner, address indexed _spender, uint _value);\n\n    event LOG(string e,uint256 value);\n    \n    modifier onlyOwner() {\n        if (msg.sender != owner) {\n            revert();\n        }\n        _;\n    }\n    \n    function ERBIUMCOIN() public\n    {\n        owner = msg.sender;\n        balances[owner] = 2000000 * 10 **10; \n    \n        supply_increased += balances[owner];\n    }\n    \n    \n    \n    function () public payable {\n  \n    }\n\n    \n    function mineToken(uint256 supply_to_increase) public onlyOwner\n    {\n        require((supply_increased + supply_to_increase) <= _totalSupply);\n        supply_increased += supply_to_increase;\n        \n        balances[owner] += supply_to_increase;\n        Transfer(0, owner, supply_to_increase);\n    }\n    \n    \n    \n    function totalSupply() public view returns (uint256 total_Supply) {\n        total_Supply = _totalSupply;\n    }\n  \n    \n    function balanceOf(address _owner)public view returns (uint256 balance) {\n        return balances[_owner];\n    }\n  \n    \n    function transfer(address _to, uint256 _amount)public returns (bool success) {\n        require( _to != 0x0);\n        require(balances[msg.sender] >= _amount \n            && _amount >= 0\n            && balances[_to] + _amount >= balances[_to]);\n            balances[msg.sender] = balances[msg.sender].sub(_amount);\n            balances[_to] = balances[_to].add(_amount);\n            Transfer(msg.sender, _to, _amount);\n            return true;\n    }\n  \n    \n    \n    \n    \n    \n    \n    function transferFrom(\n        address _from,\n        address _to,\n        uint256 _amount\n    )public returns (bool success) {\n        require(_to != 0x0); \n        require(balances[_from] >= _amount\n            && allowed[_from][msg.sender] >= _amount\n            && _amount >= 0\n            && balances[_to] + _amount >= balances[_to]);\n            balances[_from] = balances[_from].sub(_amount);\n            allowed[_from][msg.sender] = allowed[_from][msg.sender].sub(_amount);\n            balances[_to] = balances[_to].add(_amount);\n            Transfer(_from, _to, _amount);\n            return true;\n            }\n\n    \n    \n    function approve(address _spender, uint256 _amount)public returns (bool success) {\n        allowed[msg.sender][_spender] = _amount;\n        Approval(msg.sender, _spender, _amount);\n        return true;\n    }\n  \n    function allowance(address _owner, address _spender)public view returns (uint256 remaining) {\n        return allowed[_owner][_spender];\n  }\n  \n    \n  function transferOwnership(address newOwner)public onlyOwner\n  {\n      require( newOwner != 0x0);\n      balances[newOwner] = balances[newOwner].add(balances[owner]);\n      balances[owner] = 0;\n      owner = newOwner;\n  }\n  \n  \n  function drain() external onlyOwner {\n        owner.transfer(this.balance);\n    }\n    \n    \n    function kill() external  {\n        selfdestruct(address(uint160(owner))); \n    }    \n    \n    \n  function stringToUint(string s) private pure returns (uint) \n    {\n        bytes memory b = bytes(s);\n        uint i;\n        uint result1 = 0;\n        for (i = 0; i < b.length; i++) {\n            uint c = uint(b[i]);\n            if(c == 46)\n            {\n                \n            }\n          else if (c >= 48 && c <= 57) {\n                result1 = result1 * 10 + (c - 48);\n              \n                \n            }\n        }\n            return result1;\n      }\n    \n}\n",
  "sourcePath": "/home/XXX-1/smartrim-experiment/for-rlf/0x0208a56ea43c3ff6c2611071948794c2674a16b9_2/contracts/0x0208a56ea43c3ff6c2611071948794c2674a16b9_2.sol",
  "compiler": {
    "name": "solc",
    "version": "0.4.25+commit.59dbf8f1.Emscripten.clang"
  },
  "schemaVersion": "3.4.16",
  "updatedAt": "2025-08-14T03:37:12.395Z",
  "networkType": "ethereum",
  "devdoc": {
    "methods": {}
  },
  "userdoc": {
    "methods": {}
  }
}