{
  "contractName": "Ownable",
  "abi": [
    {
      "constant": true,
      "inputs": [],
      "name": "contractOwner",
      "outputs": [
        {
          "name": "",
          "type": "address"
        }
      ],
      "payable": false,
      "stateMutability": "view",
      "type": "function"
    },
    {
      "inputs": [],
      "payable": false,
      "stateMutability": "nonpayable",
      "type": "constructor"
    },
    {
      "anonymous": false,
      "inputs": [
        {
          "indexed": true,
          "name": "previousOwner",
          "type": "address"
        },
        {
          "indexed": true,
          "name": "newOwner",
          "type": "address"
        }
      ],
      "name": "ContractOwnershipTransferred",
      "type": "event"
    },
    {
      "constant": false,
      "inputs": [
        {
          "name": "_newOwner",
          "type": "address"
        }
      ],
      "name": "transferContractOwnership",
      "outputs": [],
      "payable": false,
      "stateMutability": "nonpayable",
      "type": "function"
    },
    {
      "constant": false,
      "inputs": [],
      "name": "payoutFromContract",
      "outputs": [],
      "payable": false,
      "stateMutability": "nonpayable",
      "type": "function"
    }
  ],
  "bytecode": "0x608060405234801561001057600080fd5b50336000806101000a81548173ffffffffffffffffffffffffffffffffffffffff021916908373ffffffffffffffffffffffffffffffffffffffff16021790555061038f806100606000396000f300608060405260043610610057576000357c0100000000000000000000000000000000000000000000000000000000900463ffffffff1680639eec4bac1461005c578063a843c51f14610073578063ce606ee0146100b6575b600080fd5b34801561006857600080fd5b5061007161010d565b005b34801561007f57600080fd5b506100b4600480360381019080803573ffffffffffffffffffffffffffffffffffffffff1690602001909291905050506101e9565b005b3480156100c257600080fd5b506100cb61033e565b604051808273ffffffffffffffffffffffffffffffffffffffff1673ffffffffffffffffffffffffffffffffffffffff16815260200191505060405180910390f35b6000809054906101000a900473ffffffffffffffffffffffffffffffffffffffff1673ffffffffffffffffffffffffffffffffffffffff163373ffffffffffffffffffffffffffffffffffffffff1614151561016857600080fd5b6000809054906101000a900473ffffffffffffffffffffffffffffffffffffffff1673ffffffffffffffffffffffffffffffffffffffff166108fc3073ffffffffffffffffffffffffffffffffffffffff16319081150290604051600060405180830381858888f193505050501580156101e6573d6000803e3d6000fd5b50565b6000809054906101000a900473ffffffffffffffffffffffffffffffffffffffff1673ffffffffffffffffffffffffffffffffffffffff163373ffffffffffffffffffffffffffffffffffffffff1614151561024457600080fd5b600073ffffffffffffffffffffffffffffffffffffffff168173ffffffffffffffffffffffffffffffffffffffff161415151561028057600080fd5b8073ffffffffffffffffffffffffffffffffffffffff166000809054906101000a900473ffffffffffffffffffffffffffffffffffffffff1673ffffffffffffffffffffffffffffffffffffffff167f2260a4d0c00902d7996e8f7d669d22564414d41be4d278a40387ddf58179d39260405160405180910390a3806000806101000a81548173ffffffffffffffffffffffffffffffffffffffff021916908373ffffffffffffffffffffffffffffffffffffffff16021790555050565b6000809054906101000a900473ffffffffffffffffffffffffffffffffffffffff16815600a165627a7a72305820edf9eec873d9f941834cb4b5026855bfa97ce55d01529e6132e22057ec2217dc0029",
  "source": "\n\nlibrary SafeMath {\n\n  \n  function mul(uint256 a, uint256 b) internal pure returns (uint256) {\n    if (a == 0) {\n      return 0;\n    }\n    uint256 c = a * b;\n    assert(c / a == b);\n    return c;\n  }\n\n  \n  function div(uint256 a, uint256 b) internal pure returns (uint256) {\n    \n    uint256 c = a / b;\n    \n    return c;\n  }\n\n  \n  function sub(uint256 a, uint256 b) internal pure returns (uint256) {\n    assert(b <= a);\n    return a - b;\n  }\n\n  \n  function add(uint256 a, uint256 b) internal pure returns (uint256) {\n    uint256 c = a + b;\n    assert(c >= a);\n    return c;\n  }\n}\n\ncontract Ownable {\n\n  address public contractOwner;\n\n  event ContractOwnershipTransferred(address indexed previousOwner, address indexed newOwner);\n\n  function Ownable() public {\n    contractOwner = msg.sender;\n  }\n\n  modifier onlyContractOwner() {\n    require(msg.sender == contractOwner);\n    _;\n  }\n\n  function transferContractOwnership(address _newOwner) public onlyContractOwner {\n    require(_newOwner != address(0));\n    ContractOwnershipTransferred(contractOwner, _newOwner);\n    contractOwner = _newOwner;\n  }\n  \n  function payoutFromContract() public onlyContractOwner {\n      contractOwner.transfer(this.balance);\n  }  \n\n}\n\n\n\ncontract ERC721 {\n  \n  function approve(address _to, uint256 _tokenId) public;\n  function balanceOf(address _owner) public view returns (uint256 balance);\n  function implementsERC721() public pure returns (bool);\n  function ownerOf(uint256 _tokenId) public view returns (address addr);\n  function takeOwnership(uint256 _tokenId) public;\n  function totalSupply() public view returns (uint256 total);\n  function transferFrom(address _from, address _to, uint256 _tokenId) public;\n  function transfer(address _to, uint256 _tokenId) public;\n\n  event Transfer(address indexed from, address indexed to, uint256 tokenId);\n  event Approval(address indexed owner, address indexed approved, uint256 tokenId);\n\n  \n  \n  \n  \n  \n  \n}\n\ncontract KittyEthPics is ERC721, Ownable {\n\n  event KittyCreated(uint256 tokenId, string name, address owner);\n  event TokenSold(uint256 tokenId, uint256 oldPrice, uint256 newPrice, address prevOwner, address winner, string name);\n  event Transfer(address from, address to, uint256 tokenId);\n\n  string public constant NAME = \"KittyEthPics\";\n  string public constant SYMBOL = \"KittyPicsToken\";\n\n  uint256 private startingPrice = 0.01 ether;\n\n  mapping (uint256 => address) public kittyIdToOwner;\n\n  mapping (uint256 => address) public kittyIdToDivs;\n\n  mapping (address => uint256) private ownershipTokenCount;\n\n  mapping (uint256 => address) public kittyIdToApproved;\n\n  mapping (uint256 => uint256) private kittyIdToPrice;\n\n  \n  struct Kitty {\n    string name;\n  }\n\n  Kitty[] private kitties;\n\n  function approve(address _to, uint256 _tokenId) public { \n    \n    require(_owns(msg.sender, _tokenId));\n    kittyIdToApproved[_tokenId] = _to;\n    Approval(msg.sender, _to, _tokenId);\n  }\n\n  function balanceOf(address _owner) public view returns (uint256 balance) { \n    return ownershipTokenCount[_owner];\n  }\n\n  function createKittyToken(string _name, uint256 _price) private {\n    _createKitty(_name, msg.sender, _price);\n  }\n\n  function create21KittiesTokens() public onlyContractOwner {\n     uint256 totalKitties = totalSupply();\n\t \n\t require (totalKitties<1); \n\t \n\t for (uint8 i=1; i<=21; i++)\n\t\t_createKitty(\"EthKitty\", address(this), startingPrice);\n\t\n  }\n  \n  function getKitty(uint256 _tokenId) public view returns (string kittyName, uint256 sellingPrice, address owner) {\n    Kitty storage kitty = kitties[_tokenId];\n    kittyName = kitty.name;\n    sellingPrice = kittyIdToPrice[_tokenId];\n    owner = kittyIdToOwner[_tokenId];\n  }\n\n  function implementsERC721() public pure returns (bool) {\n    return true;\n  }\n\n  function name() public pure returns (string) { \n    return NAME;\n  }\n\n  function ownerOf(uint256 _tokenId) public view returns (address owner) { \n    owner = kittyIdToOwner[_tokenId];\n    require(owner != address(0));\n  }\n\n  \n  function purchase(uint256 _tokenId) public payable {\n    address oldOwner = kittyIdToOwner[_tokenId];\n    address newOwner = msg.sender;\n\n    uint256 sellingPrice = kittyIdToPrice[_tokenId];\n\n    require(oldOwner != newOwner);\n    require(_addressNotNull(newOwner));\n    require(msg.value >= sellingPrice);\n\n    uint256 payment = uint256(SafeMath.div(SafeMath.mul(sellingPrice, 8), 10)); \n    uint256 divs_payment = uint256(SafeMath.div(SafeMath.mul(sellingPrice, 1), 10)); \n    \n\taddress divs_address = kittyIdToDivs[_tokenId];\n\t\n    \n    kittyIdToPrice[_tokenId] = uint256(SafeMath.mul(sellingPrice, 3));\n\n    _transfer(oldOwner, newOwner, _tokenId);\n\n    \n    if (oldOwner != address(this)) {\n      oldOwner.transfer(payment); \n    }\n\n    \n    if (divs_address != address(this)) {\n      divs_address.transfer(divs_payment); \n    }\n\n    TokenSold(_tokenId, sellingPrice, kittyIdToPrice[_tokenId], oldOwner, newOwner, kitties[_tokenId].name);\n\t\n    if (msg.value > sellingPrice) { \n\t    uint256 purchaseExcess = SafeMath.sub(msg.value, sellingPrice);\n\t\tmsg.sender.transfer(purchaseExcess);\n\t}\n  }\n  \n  function changeKitty(uint256 _tokenId) public payable { \n\n    require(kittyIdToOwner[_tokenId] == msg.sender && msg.value == 20 finney); \n\t\n\tuint256 newPrice =  SafeMath.div(kittyIdToPrice[_tokenId], 2);\n    \n    \n\tcreateKittyToken(\"EthKitty\", newPrice);\n\tcreateKittyToken(\"EthKitty\", newPrice);\n\t\n\tkittyIdToOwner[_tokenId] = address(this); \n\tkittyIdToPrice[_tokenId] = 10 finney;\n\t \n  }\n\n\n  function symbol() public pure returns (string) { \n    return SYMBOL;\n  }\n\n\n  function takeOwnership(uint256 _tokenId) public { \n    address newOwner = msg.sender;\n    address oldOwner = kittyIdToOwner[_tokenId];\n\n    require(_addressNotNull(newOwner));\n    require(_approved(newOwner, _tokenId));\n\n    _transfer(oldOwner, newOwner, _tokenId);\n  }\n\n  function priceOf(uint256 _tokenId) public view returns (uint256 price) { \n    return kittyIdToPrice[_tokenId];\n  }\n\n  function ALLownersANDprices(uint256 _startKittyId) public view returns (address[] owners, address[] divs, uint256[] prices) { \n\t\n\tuint256 totalKitties = totalSupply();\n\t\n    if (totalKitties == 0 || _startKittyId >= totalKitties) {\n        \n      return (new address[](0),new address[](0),new uint256[](0));\n    }\n\t\n\tuint256 indexTo;\n\tif (totalKitties > _startKittyId+1000)\n\t\tindexTo = _startKittyId + 1000;\n\telse \t\n\t\tindexTo = totalKitties;\n\t\t\n    uint256 totalResultKitties = indexTo - _startKittyId;\t\t\n\t\t\n\taddress[] memory owners_res = new address[](totalResultKitties);\n\taddress[] memory divs_res = new address[](totalResultKitties);\n\tuint256[] memory prices_res = new uint256[](totalResultKitties);\n\t\n\tfor (uint256 kittyId = _startKittyId; kittyId < indexTo; kittyId++) {\n\t  owners_res[kittyId - _startKittyId] = kittyIdToOwner[kittyId];\n\t  divs_res[kittyId - _startKittyId] = kittyIdToDivs[kittyId];\n\t  prices_res[kittyId - _startKittyId] = kittyIdToPrice[kittyId];\n\t}\n\t\n\treturn (owners_res, divs_res, prices_res);\n  }\n  \n  function tokensOfOwner(address _owner) public view returns(uint256[] ownerToken) { \n    uint256 tokenCount = balanceOf(_owner);\n    if (tokenCount == 0) {\n        \n      return new uint256[](0);\n    } else {\n      uint256[] memory result = new uint256[](tokenCount);\n      uint256 totalKitties = totalSupply();\n      uint256 resultIndex = 0;\n\n      uint256 kittyId;\n      for (kittyId = 0; kittyId <= totalKitties; kittyId++) {\n        if (kittyIdToOwner[kittyId] == _owner) {\n          result[resultIndex] = kittyId;\n          resultIndex++;\n        }\n      }\n      return result;\n    }\n  }\n\n  function totalSupply() public view returns (uint256 total) { \n    return kitties.length;\n  }\n\n  function transfer(address _to, uint256 _tokenId) public { \n    require(_owns(msg.sender, _tokenId));\n    require(_addressNotNull(_to));\n\n\t_transfer(msg.sender, _to, _tokenId);\n  }\n\n  function transferFrom(address _from, address _to, uint256 _tokenId) public { \n    require(_owns(_from, _tokenId));\n    require(_approved(_to, _tokenId));\n    require(_addressNotNull(_to));\n\n    _transfer(_from, _to, _tokenId);\n  }\n\n\n  \n  function _addressNotNull(address _to) private pure returns (bool) {\n    return _to != address(0);\n  }\n\n  function _approved(address _to, uint256 _tokenId) private view returns (bool) {\n    return kittyIdToApproved[_tokenId] == _to;\n  }\n\n  function _createKitty(string _name, address _owner, uint256 _price) private {\n    Kitty memory _kitty = Kitty({\n      name: _name\n    });\n    uint256 newKittyId = kitties.push(_kitty) - 1;\n\n    require(newKittyId == uint256(uint32(newKittyId))); \n\n    KittyCreated(newKittyId, _name, _owner);\n\n    kittyIdToPrice[newKittyId] = _price;\n\tkittyIdToDivs[newKittyId] = _owner; \n\n    _transfer(address(0), _owner, newKittyId);\n  }\n\n  function _owns(address _checkedAddr, uint256 _tokenId) private view returns (bool) {\n    return _checkedAddr == kittyIdToOwner[_tokenId];\n  }\n\nfunction _transfer(address _from, address _to, uint256 _tokenId) private {\n    ownershipTokenCount[_to]++;\n    kittyIdToOwner[_tokenId] = _to;\n\n    \n    if (_from != address(0)) {\n      ownershipTokenCount[_from]--;\n      \n      delete kittyIdToApproved[_tokenId];\n    }\n\n    \n    Transfer(_from, _to, _tokenId);\n  }\n}",
  "sourcePath": "/home/XXX-1/smartrim-experiment/for-rlf/0xcb3123f81b2f3e7fbe0c1d9455a158ad1c217a8b/contracts/0xcb3123f81b2f3e7fbe0c1d9455a158ad1c217a8b.sol",
  "compiler": {
    "name": "solc",
    "version": "0.4.25+commit.59dbf8f1.Emscripten.clang"
  },
  "schemaVersion": "3.4.16",
  "updatedAt": "2025-08-14T04:06:38.746Z",
  "devdoc": {
    "methods": {}
  },
  "userdoc": {
    "methods": {}
  }
}