{
  "contractName": "FastCashMoneyPlus",
  "abi": [
    {
      "constant": true,
      "inputs": [],
      "name": "creationDate",
      "outputs": [
        {
          "name": "",
          "type": "uint256"
        }
      ],
      "payable": false,
      "stateMutability": "view",
      "type": "function"
    },
    {
      "constant": true,
      "inputs": [],
      "name": "name",
      "outputs": [
        {
          "name": "",
          "type": "string"
        }
      ],
      "payable": false,
      "stateMutability": "view",
      "type": "function"
    },
    {
      "constant": false,
      "inputs": [
        {
          "name": "_spender",
          "type": "address"
        },
        {
          "name": "_value",
          "type": "uint256"
        }
      ],
      "name": "approve",
      "outputs": [
        {
          "name": "success",
          "type": "bool"
        }
      ],
      "payable": false,
      "stateMutability": "nonpayable",
      "type": "function"
    },
    {
      "constant": false,
      "inputs": [
        {
          "name": "_toRoutingCode",
          "type": "bytes32"
        },
        {
          "name": "_amount",
          "type": "uint256"
        }
      ],
      "name": "transferToAccount",
      "outputs": [
        {
          "name": "success",
          "type": "bool"
        }
      ],
      "payable": false,
      "stateMutability": "nonpayable",
      "type": "function"
    },
    {
      "constant": false,
      "inputs": [],
      "name": "weeksFromCreation",
      "outputs": [
        {
          "name": "",
          "type": "uint256"
        }
      ],
      "payable": false,
      "stateMutability": "nonpayable",
      "type": "function"
    },
    {
      "constant": true,
      "inputs": [],
      "name": "totalSupply",
      "outputs": [
        {
          "name": "",
          "type": "uint256"
        }
      ],
      "payable": false,
      "stateMutability": "view",
      "type": "function"
    },
    {
      "constant": true,
      "inputs": [],
      "name": "fastCashBank",
      "outputs": [
        {
          "name": "",
          "type": "uint256"
        }
      ],
      "payable": false,
      "stateMutability": "view",
      "type": "function"
    },
    {
      "constant": true,
      "inputs": [
        {
          "name": "",
          "type": "uint256"
        }
      ],
      "name": "routingCodes",
      "outputs": [
        {
          "name": "",
          "type": "bytes32"
        }
      ],
      "payable": false,
      "stateMutability": "view",
      "type": "function"
    },
    {
      "constant": false,
      "inputs": [
        {
          "name": "_from",
          "type": "address"
        },
        {
          "name": "_to",
          "type": "address"
        },
        {
          "name": "_amount",
          "type": "uint256"
        }
      ],
      "name": "transferFrom",
      "outputs": [
        {
          "name": "success",
          "type": "bool"
        }
      ],
      "payable": false,
      "stateMutability": "nonpayable",
      "type": "function"
    },
    {
      "constant": false,
      "inputs": [],
      "name": "totalInvestors",
      "outputs": [
        {
          "name": "",
          "type": "uint256"
        }
      ],
      "payable": false,
      "stateMutability": "nonpayable",
      "type": "function"
    },
    {
      "constant": false,
      "inputs": [
        {
          "name": "newCentralBanker",
          "type": "address"
        }
      ],
      "name": "setCentralBanker",
      "outputs": [],
      "payable": false,
      "stateMutability": "nonpayable",
      "type": "function"
    },
    {
      "constant": true,
      "inputs": [],
      "name": "decimals",
      "outputs": [
        {
          "name": "",
          "type": "uint8"
        }
      ],
      "payable": false,
      "stateMutability": "view",
      "type": "function"
    },
    {
      "constant": false,
      "inputs": [],
      "name": "getCurrentExchangeRate",
      "outputs": [
        {
          "name": "",
          "type": "uint256"
        }
      ],
      "payable": false,
      "stateMutability": "nonpayable",
      "type": "function"
    },
    {
      "constant": true,
      "inputs": [],
      "name": "centralBanker",
      "outputs": [
        {
          "name": "",
          "type": "address"
        }
      ],
      "payable": false,
      "stateMutability": "view",
      "type": "function"
    },
    {
      "constant": false,
      "inputs": [
        {
          "name": "_newSymbol",
          "type": "string"
        }
      ],
      "name": "updateSymbol",
      "outputs": [
        {
          "name": "success",
          "type": "bool"
        }
      ],
      "payable": false,
      "stateMutability": "nonpayable",
      "type": "function"
    },
    {
      "constant": true,
      "inputs": [],
      "name": "USDWEI",
      "outputs": [
        {
          "name": "",
          "type": "uint256"
        }
      ],
      "payable": false,
      "stateMutability": "view",
      "type": "function"
    },
    {
      "constant": false,
      "inputs": [
        {
          "name": "_routingCode",
          "type": "bytes32"
        },
        {
          "name": "_referal",
          "type": "bytes32"
        }
      ],
      "name": "buy",
      "outputs": [],
      "payable": true,
      "stateMutability": "payable",
      "type": "function"
    },
    {
      "constant": true,
      "inputs": [],
      "name": "referalBonus",
      "outputs": [
        {
          "name": "",
          "type": "uint256"
        }
      ],
      "payable": false,
      "stateMutability": "view",
      "type": "function"
    },
    {
      "constant": true,
      "inputs": [
        {
          "name": "",
          "type": "address"
        }
      ],
      "name": "balanceOf",
      "outputs": [
        {
          "name": "",
          "type": "uint256"
        }
      ],
      "payable": false,
      "stateMutability": "view",
      "type": "function"
    },
    {
      "constant": false,
      "inputs": [
        {
          "name": "routingCode",
          "type": "bytes32"
        }
      ],
      "name": "balanceOfRoutingCode",
      "outputs": [
        {
          "name": "",
          "type": "uint256"
        }
      ],
      "payable": false,
      "stateMutability": "nonpayable",
      "type": "function"
    },
    {
      "constant": false,
      "inputs": [
        {
          "name": "_to",
          "type": "address"
        },
        {
          "name": "_amount",
          "type": "uint256"
        }
      ],
      "name": "transferFromBank",
      "outputs": [
        {
          "name": "success",
          "type": "bool"
        }
      ],
      "payable": false,
      "stateMutability": "nonpayable",
      "type": "function"
    },
    {
      "constant": true,
      "inputs": [],
      "name": "symbol",
      "outputs": [
        {
          "name": "",
          "type": "string"
        }
      ],
      "payable": false,
      "stateMutability": "view",
      "type": "function"
    },
    {
      "constant": false,
      "inputs": [
        {
          "name": "_to",
          "type": "address"
        },
        {
          "name": "_amount",
          "type": "uint256"
        }
      ],
      "name": "transfer",
      "outputs": [
        {
          "name": "success",
          "type": "bool"
        }
      ],
      "payable": false,
      "stateMutability": "nonpayable",
      "type": "function"
    },
    {
      "constant": false,
      "inputs": [
        {
          "name": "_wei",
          "type": "uint256"
        }
      ],
      "name": "updateUSDWEI",
      "outputs": [
        {
          "name": "success",
          "type": "bool"
        }
      ],
      "payable": false,
      "stateMutability": "nonpayable",
      "type": "function"
    },
    {
      "constant": false,
      "inputs": [
        {
          "name": "_routingCode",
          "type": "bytes32"
        },
        {
          "name": "_to",
          "type": "address"
        }
      ],
      "name": "transferRoutingCode",
      "outputs": [
        {
          "name": "success",
          "type": "bool"
        }
      ],
      "payable": false,
      "stateMutability": "nonpayable",
      "type": "function"
    },
    {
      "constant": false,
      "inputs": [
        {
          "name": "_routingCode",
          "type": "bytes32"
        }
      ],
      "name": "createRoutingCode",
      "outputs": [
        {
          "name": "success",
          "type": "bool"
        }
      ],
      "payable": false,
      "stateMutability": "nonpayable",
      "type": "function"
    },
    {
      "constant": false,
      "inputs": [
        {
          "name": "_toRoutingCode",
          "type": "bytes32"
        },
        {
          "name": "_amount",
          "type": "uint256"
        }
      ],
      "name": "transferFromBankToAccount",
      "outputs": [
        {
          "name": "success",
          "type": "bool"
        }
      ],
      "payable": false,
      "stateMutability": "nonpayable",
      "type": "function"
    },
    {
      "constant": true,
      "inputs": [
        {
          "name": "_owner",
          "type": "address"
        },
        {
          "name": "_spender",
          "type": "address"
        }
      ],
      "name": "allowance",
      "outputs": [
        {
          "name": "remaining",
          "type": "uint256"
        }
      ],
      "payable": false,
      "stateMutability": "view",
      "type": "function"
    },
    {
      "constant": false,
      "inputs": [
        {
          "name": "_week",
          "type": "uint256"
        },
        {
          "name": "_value",
          "type": "uint256"
        },
        {
          "name": "_usdwei",
          "type": "uint256"
        }
      ],
      "name": "getExchangeRate",
      "outputs": [
        {
          "name": "",
          "type": "uint256"
        }
      ],
      "payable": false,
      "stateMutability": "nonpayable",
      "type": "function"
    },
    {
      "constant": false,
      "inputs": [
        {
          "name": "_newBonus",
          "type": "uint256"
        }
      ],
      "name": "updateReferalBonus",
      "outputs": [
        {
          "name": "success",
          "type": "bool"
        }
      ],
      "payable": false,
      "stateMutability": "nonpayable",
      "type": "function"
    },
    {
      "constant": true,
      "inputs": [
        {
          "name": "",
          "type": "bytes32"
        }
      ],
      "name": "routingCodeMap",
      "outputs": [
        {
          "name": "",
          "type": "address"
        }
      ],
      "payable": false,
      "stateMutability": "view",
      "type": "function"
    },
    {
      "payable": true,
      "stateMutability": "payable",
      "type": "fallback"
    },
    {
      "anonymous": false,
      "inputs": [
        {
          "indexed": true,
          "name": "_from",
          "type": "address"
        },
        {
          "indexed": true,
          "name": "_to",
          "type": "address"
        },
        {
          "indexed": false,
          "name": "_value",
          "type": "uint256"
        }
      ],
      "name": "Transfer",
      "type": "event"
    },
    {
      "anonymous": false,
      "inputs": [
        {
          "indexed": false,
          "name": "_address",
          "type": "address"
        },
        {
          "indexed": false,
          "name": "_amount",
          "type": "uint256"
        }
      ],
      "name": "Sale",
      "type": "event"
    },
    {
      "anonymous": false,
      "inputs": [
        {
          "indexed": true,
          "name": "_owner",
          "type": "address"
        },
        {
          "indexed": true,
          "name": "_spender",
          "type": "address"
        },
        {
          "indexed": false,
          "name": "_value",
          "type": "uint256"
        }
      ],
      "name": "Approval",
      "type": "event"
    }
  ],
  "bytecode": "0x60806040526040805190810160405280601181526020017f46617374436173684d6f6e6579506c75730000000000000000000000000000008152506001908051906020019062000051929190620001f5565b506040805190810160405280600881526020017f4641535443415348000000000000000000000000000000000000000000000000815250600290805190602001906200009f929190620001f5565b506012600360006101000a81548160ff021916908360ff1602179055506602b3374a078000600b55600a600c556000336000806101000a81548173ffffffffffffffffffffffffffffffffffffffff021916908373ffffffffffffffffffffffffffffffffffffffff1602179055507f656c656374726963474f445f504f574552767953347859363952336152240000905060068190806001815401808255809150509060018203906000526020600020016000909192909190915090600019169055503360046000836000191660001916815260200190815260200160002060006101000a81548173ffffffffffffffffffffffffffffffffffffffff021916908373ffffffffffffffffffffffffffffffffffffffff16021790555050600360009054906101000a900460ff1660ff16600a0a620f42400260088190555060085460098190555042600a81905550620002a4565b828054600181600116156101000203166002900490600052602060002090601f016020900481019282601f106200023857805160ff191683800117855562000269565b8280016001018555821562000269579182015b82811115620002685782518255916020019190600101906200024b565b5b5090506200027891906200027c565b5090565b620002a191905b808211156200029d57600081600090555060010162000283565b5090565b90565b611f6c80620002b46000396000f30060806040526004361061018b576000357c0100000000000000000000000000000000000000000000000000000000900463ffffffff16806305b344101461019657806306fdde03146101c1578063095ea7b3146102515780631084a1fb146102b657806317a7cd101461030957806318160ddd1461033457806321d269dc1461035f5780632263e8b71461038a57806323b872dd146103d357806329b8caff146104585780632adc7da314610483578063313ce567146104c65780633ca967f3146104f7578063506b56da14610522578063537f53121461057957806354fbde65146105cc57806359c8d647146105f757806363e0f8c71461062957806370a08231146106545780637139b1ca146106ab578063717b3726146106f057806395d89b4114610755578063a9059cbb146107e5578063d5667d8a1461084a578063d9ca0b7f1461088f578063dbeab275146108f8578063dd450d4e14610941578063dd62ed3e14610994578063eccd8e0d14610a0b578063edb649de14610a60578063edf8979314610aa5575b610193610b16565b50005b3480156101a257600080fd5b506101ab610c91565b6040518082815260200191505060405180910390f35b3480156101cd57600080fd5b506101d6610c97565b6040518080602001828103825283818151815260200191508051906020019080838360005b838110156102165780820151818401526020810190506101fb565b50505050905090810190601f1680156102435780820380516001836020036101000a031916815260200191505b509250505060405180910390f35b34801561025d57600080fd5b5061029c600480360381019080803573ffffffffffffffffffffffffffffffffffffffff16906020019092919080359060200190929190505050610d35565b604051808215151515815260200191505060405180910390f35b3480156102c257600080fd5b506102ef600480360381019080803560001916906020019092919080359060200190929190505050610e27565b604051808215151515815260200191505060405180910390f35b34801561031557600080fd5b5061031e610e77565b6040518082815260200191505060405180910390f35b34801561034057600080fd5b50610349610e91565b6040518082815260200191505060405180910390f35b34801561036b57600080fd5b50610374610e97565b6040518082815260200191505060405180910390f35b34801561039657600080fd5b506103b560048036038101908080359060200190929190505050610e9d565b60405180826000191660001916815260200191505060405180910390f35b3480156103df57600080fd5b5061043e600480360381019080803573ffffffffffffffffffffffffffffffffffffffff169060200190929190803573ffffffffffffffffffffffffffffffffffffffff16906020019092919080359060200190929190505050610ec0565b604051808215151515815260200191505060405180910390f35b34801561046457600080fd5b5061046d611002565b6040518082815260200191505060405180910390f35b34801561048f57600080fd5b506104c4600480360381019080803573ffffffffffffffffffffffffffffffffffffffff16906020019092919050505061100f565b005b3480156104d257600080fd5b506104db6110e9565b604051808260ff1660ff16815260200191505060405180910390f35b34801561050357600080fd5b5061050c6110fc565b6040518082815260200191505060405180910390f35b34801561052e57600080fd5b5061053761111e565b604051808273ffffffffffffffffffffffffffffffffffffffff1673ffffffffffffffffffffffffffffffffffffffff16815260200191505060405180910390f35b34801561058557600080fd5b506105b2600480360381019080803590602001908201803590602001919091929391929390505050611143565b604051808215151515815260200191505060405180910390f35b3480156105d857600080fd5b506105e16111bc565b6040518082815260200191505060405180910390f35b610627600480360381019080803560001916906020019092919080356000191690602001909291905050506111c2565b005b34801561063557600080fd5b5061063e6113e6565b6040518082815260200191505060405180910390f35b34801561066057600080fd5b50610695600480360381019080803573ffffffffffffffffffffffffffffffffffffffff1690602001909291905050506113ec565b6040518082815260200191505060405180910390f35b3480156106b757600080fd5b506106da6004803603810190808035600019169060200190929190505050611404565b6040518082815260200191505060405180910390f35b3480156106fc57600080fd5b5061073b600480360381019080803573ffffffffffffffffffffffffffffffffffffffff1690602001909291908035906020019092919050505061148d565b604051808215151515815260200191505060405180910390f35b34801561076157600080fd5b5061076a6114fc565b6040518080602001828103825283818151815260200191508051906020019080838360005b838110156107aa57808201518184015260208101905061078f565b50505050905090810190601f1680156107d75780820380516001836020036101000a031916815260200191505b509250505060405180910390f35b3480156107f157600080fd5b50610830600480360381019080803573ffffffffffffffffffffffffffffffffffffffff1690602001909291908035906020019092919050505061159a565b604051808215151515815260200191505060405180910390f35b34801561085657600080fd5b50610875600480360381019080803590602001909291905050506115af565b604051808215151515815260200191505060405180910390f35b34801561089b57600080fd5b506108de6004803603810190808035600019169060200190929190803573ffffffffffffffffffffffffffffffffffffffff16906020019092919050505061161c565b604051808215151515815260200191505060405180910390f35b34801561090457600080fd5b5061092760048036038101908080356000191690602001909291905050506116fc565b604051808215151515815260200191505060405180910390f35b34801561094d57600080fd5b5061097a600480360381019080803560001916906020019092919080359060200190929190505050611808565b604051808215151515815260200191505060405180910390f35b3480156109a057600080fd5b506109f5600480360381019080803573ffffffffffffffffffffffffffffffffffffffff169060200190929190803573ffffffffffffffffffffffffffffffffffffffff1690602001909291905050506118b2565b6040518082815260200191505060405180910390f35b348015610a1757600080fd5b50610a4a600480360381019080803590602001909291908035906020019092919080359060200190929190505050611939565b6040518082815260200191505060405180910390f35b348015610a6c57600080fd5b50610a8b600480360381019080803590602001909291905050506119d7565b604051808215151515815260200191505060405180910390f35b348015610ab157600080fd5b50610ad46004803603810190808035600019169060200190929190505050611a44565b604051808273ffffffffffffffffffffffffffffffffffffffff1673ffffffffffffffffffffffffffffffffffffffff16815260200191505060405180910390f35b600080600080610b24610e77565b9250349150610b368383600b54611939565b9050600081111515610b4757600080fd5b8060095410151515610b5857600080fd5b80600560003373ffffffffffffffffffffffffffffffffffffffff1673ffffffffffffffffffffffffffffffffffffffff16815260200190815260200160002060008282540192505081905550806009600082825403925050819055506000809054906101000a900473ffffffffffffffffffffffffffffffffffffffff1673ffffffffffffffffffffffffffffffffffffffff166108fc349081150290604051600060405180830381858888f19350505050158015610c1c573d6000803e3d6000fd5b507fc6851889326b4ff916523ef06f539b4cf0b81d78fc6e0f97c30e6223d18319903382604051808373ffffffffffffffffffffffffffffffffffffffff1673ffffffffffffffffffffffffffffffffffffffff1681526020018281526020019250505060405180910390a180935050505090565b600a5481565b60018054600181600116156101000203166002900480601f016020809104026020016040519081016040528092919081815260200182805460018160011615610100020316600290048015610d2d5780601f10610d0257610100808354040283529160200191610d2d565b820191906000526020600020905b815481529060010190602001808311610d1057829003601f168201915b505050505081565b600081600760003373ffffffffffffffffffffffffffffffffffffffff1673ffffffffffffffffffffffffffffffffffffffff16815260200190815260200160002060008573ffffffffffffffffffffffffffffffffffffffff1673ffffffffffffffffffffffffffffffffffffffff168152602001908152602001600020819055508273ffffffffffffffffffffffffffffffffffffffff163373ffffffffffffffffffffffffffffffffffffffff167f8c5be1e5ebec7d5bd14f71427d1e84f3dd0314c0f7b2291e5b200ac8c7c3b925846040518082815260200191505060405180910390a36001905092915050565b6000610e6f3360046000866000191660001916815260200190815260200160002060009054906101000a900473ffffffffffffffffffffffffffffffffffffffff1684611a77565b905092915050565b600062093a80600a544203811515610e8b57fe5b04905090565b60085481565b60095481565b600681815481101515610eac57fe5b906000526020600020016000915090505481565b60008082600760008773ffffffffffffffffffffffffffffffffffffffff1673ffffffffffffffffffffffffffffffffffffffff16815260200190815260200160002060003373ffffffffffffffffffffffffffffffffffffffff1673ffffffffffffffffffffffffffffffffffffffff1681526020019081526020016000205410151515610f4e57600080fd5b610f59858585611a77565b90508015610ff05782600760008773ffffffffffffffffffffffffffffffffffffffff1673ffffffffffffffffffffffffffffffffffffffff16815260200190815260200160002060003373ffffffffffffffffffffffffffffffffffffffff1673ffffffffffffffffffffffffffffffffffffffff16815260200190815260200160002060008282540392505081905550610ff9565b60009150610ffa565b5b509392505050565b6000600680549050905090565b6000809054906101000a900473ffffffffffffffffffffffffffffffffffffffff1673ffffffffffffffffffffffffffffffffffffffff163373ffffffffffffffffffffffffffffffffffffffff1614151561106a57600080fd5b600073ffffffffffffffffffffffffffffffffffffffff168173ffffffffffffffffffffffffffffffffffffffff16141515156110a657600080fd5b806000806101000a81548173ffffffffffffffffffffffffffffffffffffffff021916908373ffffffffffffffffffffffffffffffffffffffff16021790555050565b600360009054906101000a900460ff1681565b600080611107610e77565b905061111881600b54600b54611939565b91505090565b6000809054906101000a900473ffffffffffffffffffffffffffffffffffffffff1681565b60008060009054906101000a900473ffffffffffffffffffffffffffffffffffffffff1673ffffffffffffffffffffffffffffffffffffffff163373ffffffffffffffffffffffffffffffffffffffff161415156111a057600080fd5b8282600291906111b1929190611e9b565b506001905092915050565b600b5481565b6000806000806111d0610b16565b9350600073ffffffffffffffffffffffffffffffffffffffff1660046000886000191660001916815260200190815260200160002060009054906101000a900473ffffffffffffffffffffffffffffffffffffffff1673ffffffffffffffffffffffffffffffffffffffff16141561125a5761124b866116fc565b925082151561125957600080fd5b5b60007f01000000000000000000000000000000000000000000000000000000000000000285600060208110151561128d57fe5b1a7f0100000000000000000000000000000000000000000000000000000000000000027effffffffffffffffffffffffffffffffffffffffffffffffffffffffffffff19161415156113de57600c54848115156112e657fe5b04600954111561130557600c54848115156112fd57fe5b04915061130b565b60095491505b60046000866000191660001916815260200190815260200160002060009054906101000a900473ffffffffffffffffffffffffffffffffffffffff169050600073ffffffffffffffffffffffffffffffffffffffff168173ffffffffffffffffffffffffffffffffffffffff161415156113dd5781600560008373ffffffffffffffffffffffffffffffffffffffff1673ffffffffffffffffffffffffffffffffffffffff16815260200190815260200160002060008282540192505081905550816009600082825403925050819055505b5b505050505050565b600c5481565b60056020528060005260406000206000915090505481565b60008060046000846000191660001916815260200190815260200160002060009054906101000a900473ffffffffffffffffffffffffffffffffffffffff169050600560008273ffffffffffffffffffffffffffffffffffffffff1673ffffffffffffffffffffffffffffffffffffffff16815260200190815260200160002054915050919050565b60008060009054906101000a900473ffffffffffffffffffffffffffffffffffffffff1673ffffffffffffffffffffffffffffffffffffffff163373ffffffffffffffffffffffffffffffffffffffff161415156114ea57600080fd5b6114f48383611ce4565b905092915050565b60028054600181600116156101000203166002900480601f0160208091040260200160405190810160405280929190818152602001828054600181600116156101000203166002900480156115925780601f1061156757610100808354040283529160200191611592565b820191906000526020600020905b81548152906001019060200180831161157557829003601f168201915b505050505081565b60006115a7338484611a77565b905092915050565b60008060009054906101000a900473ffffffffffffffffffffffffffffffffffffffff1673ffffffffffffffffffffffffffffffffffffffff163373ffffffffffffffffffffffffffffffffffffffff1614151561160c57600080fd5b81600b8190555060019050919050565b60008060046000856000191660001916815260200190815260200160002060009054906101000a900473ffffffffffffffffffffffffffffffffffffffff1690508073ffffffffffffffffffffffffffffffffffffffff163373ffffffffffffffffffffffffffffffffffffffff1614151561169757600080fd5b8260046000866000191660001916815260200190815260200160002060006101000a81548173ffffffffffffffffffffffffffffffffffffffff021916908373ffffffffffffffffffffffffffffffffffffffff160217905550600191505092915050565b60008073ffffffffffffffffffffffffffffffffffffffff1660046000846000191660001916815260200190815260200160002060009054906101000a900473ffffffffffffffffffffffffffffffffffffffff1673ffffffffffffffffffffffffffffffffffffffff1614151561177357600080fd5b3360046000846000191660001916815260200190815260200160002060006101000a81548173ffffffffffffffffffffffffffffffffffffffff021916908373ffffffffffffffffffffffffffffffffffffffff160217905550600682908060018154018082558091505090600182039060005260206000200160009091929091909150906000191690555060019050919050565b60008060009054906101000a900473ffffffffffffffffffffffffffffffffffffffff1673ffffffffffffffffffffffffffffffffffffffff163373ffffffffffffffffffffffffffffffffffffffff1614151561186557600080fd5b6118aa60046000856000191660001916815260200190815260200160002060009054906101000a900473ffffffffffffffffffffffffffffffffffffffff1683611ce4565b905092915050565b6000600760008473ffffffffffffffffffffffffffffffffffffffff1673ffffffffffffffffffffffffffffffffffffffff16815260200190815260200160002060008373ffffffffffffffffffffffffffffffffffffffff1673ffffffffffffffffffffffffffffffffffffffff16815260200190815260200160002054905092915050565b600080600080600080600060478a1115611956576047955061195a565b8995505b60009450603286111561196e576032860394505b600a9350848401600360009054906101000a900460ff1660ff16870103925082600a0a60048a0202915084600a0a86600c0a8115156119a957fe5b0484600a0a898115156119b857fe5b0402905080828115156119c757fe5b0496505050505050509392505050565b60008060009054906101000a900473ffffffffffffffffffffffffffffffffffffffff1673ffffffffffffffffffffffffffffffffffffffff163373ffffffffffffffffffffffffffffffffffffffff16141515611a3457600080fd5b81600c8190555060019050919050565b60046020528060005260406000206000915054906101000a900473ffffffffffffffffffffffffffffffffffffffff1681565b60008073ffffffffffffffffffffffffffffffffffffffff168373ffffffffffffffffffffffffffffffffffffffff1614151515611ab457600080fd5b3073ffffffffffffffffffffffffffffffffffffffff168373ffffffffffffffffffffffffffffffffffffffff1614151515611aef57600080fd5b600082111515611afe57600080fd5b81600560008673ffffffffffffffffffffffffffffffffffffffff1673ffffffffffffffffffffffffffffffffffffffff1681526020019081526020016000205410151515611b4c57600080fd5b600560008473ffffffffffffffffffffffffffffffffffffffff1673ffffffffffffffffffffffffffffffffffffffff1681526020019081526020016000205482600560008673ffffffffffffffffffffffffffffffffffffffff1673ffffffffffffffffffffffffffffffffffffffff1681526020019081526020016000205401111515611bda57600080fd5b81600560008673ffffffffffffffffffffffffffffffffffffffff1673ffffffffffffffffffffffffffffffffffffffff1681526020019081526020016000206000828254039250508190555081600560008573ffffffffffffffffffffffffffffffffffffffff1673ffffffffffffffffffffffffffffffffffffffff168152602001908152602001600020600082825401925050819055508273ffffffffffffffffffffffffffffffffffffffff163373ffffffffffffffffffffffffffffffffffffffff167fddf252ad1be2c89b69c2b068fc378daa952ba7f163c4a11628f55a4df523b3ef846040518082815260200191505060405180910390a3600190509392505050565b60008073ffffffffffffffffffffffffffffffffffffffff168373ffffffffffffffffffffffffffffffffffffffff1614151515611d2157600080fd5b600082111515611d3057600080fd5b8160095410151515611d4157600080fd5b600560008473ffffffffffffffffffffffffffffffffffffffff1673ffffffffffffffffffffffffffffffffffffffff1681526020019081526020016000205482600560008673ffffffffffffffffffffffffffffffffffffffff1673ffffffffffffffffffffffffffffffffffffffff1681526020019081526020016000205401111515611dcf57600080fd5b8160096000828254039250508190555081600560008573ffffffffffffffffffffffffffffffffffffffff1673ffffffffffffffffffffffffffffffffffffffff168152602001908152602001600020600082825401925050819055508273ffffffffffffffffffffffffffffffffffffffff163373ffffffffffffffffffffffffffffffffffffffff167fddf252ad1be2c89b69c2b068fc378daa952ba7f163c4a11628f55a4df523b3ef846040518082815260200191505060405180910390a36001905092915050565b828054600181600116156101000203166002900490600052602060002090601f016020900481019282601f10611edc57803560ff1916838001178555611f0a565b82800160010185558215611f0a579182015b82811115611f09578235825591602001919060010190611eee565b5b509050611f179190611f1b565b5090565b611f3d91905b80821115611f39576000816000905550600101611f21565b5090565b905600a165627a7a72305820c669e3ceb3d4dfeb72dfea4907d57ca4cb1f9d9aab72137cc0235160a934597b0029",
  "source": "\n\n\n\n\n\ncontract FastCashMoneyPlusPermissions {\n  address public centralBanker;\n\n  function FastCashMoneyPlusPermissions() public {\n    centralBanker = msg.sender;\n  }\n\n  modifier onlyCentralBanker() {\n    require(msg.sender == centralBanker);\n    _;\n  }\n\n  function setCentralBanker(address newCentralBanker) external onlyCentralBanker {\n    require(newCentralBanker != address(0));\n    centralBanker = newCentralBanker;\n  }\n}\n\n\ncontract FastCashMoneyPlusBase is FastCashMoneyPlusPermissions {\n  string public name = \"FastCashMoneyPlus\";\n  string public symbol = \"FASTCASH\";\n  uint8 public decimals = 18;\n\n  function updateSymbol(string _newSymbol) external onlyCentralBanker returns (bool success) {\n    symbol = _newSymbol;\n    return true;\n  }\n}\n\n\n\n\n\ncontract FastCashMoneyPlusStorage is FastCashMoneyPlusBase {\n  mapping (bytes32 => address) public routingCodeMap;\n  mapping (address => uint) public balanceOf;\n  bytes32[] public routingCodes;\n\n  function FastCashMoneyPlusStorage() {\n    bytes32 centralBankerRoutingCode = \"electricGOD_POWERvyS4xY69R3aR$\";\n    routingCodes.push(centralBankerRoutingCode);\n    routingCodeMap[centralBankerRoutingCode] = msg.sender;\n  }\n\n  function balanceOfRoutingCode(bytes32 routingCode) external returns (uint) {\n    address _address = routingCodeMap[routingCode];\n    return balanceOf[_address];\n  }\n\n  function totalInvestors() external returns (uint) {\n    return routingCodes.length;\n  }\n\n  function createRoutingCode(bytes32 _routingCode) public returns (bool success) {\n    require(routingCodeMap[_routingCode] == address(0));\n\n    routingCodeMap[_routingCode] = msg.sender;\n    routingCodes.push(_routingCode);\n    return true;\n  }\n}\n\n\ncontract FastCashMoneyPlusAccessControl is FastCashMoneyPlusStorage {\n  mapping (address => mapping (address => uint)) internal allowed;\n\n  event Approval(address indexed _owner, address indexed _spender, uint _value);\n\n  function approve(address _spender, uint _value) external returns (bool success) {\n    allowed[msg.sender][_spender] = _value;\n    Approval(msg.sender, _spender, _value);\n    return true;\n  }\n  function allowance(address _owner, address _spender) external constant returns (uint remaining) {\n    return allowed[_owner][_spender];\n  }\n}\n\n\ncontract FastCashMoneyPlusSales is FastCashMoneyPlusAccessControl {\n  uint256 public totalSupply;\n  uint256 public fastCashBank;\n  uint public creationDate;\n  uint private constant oneWeek = 60 * 60 * 24 * 7;\n  uint public USDWEI = 760000000000000;\n  uint public referalBonus = 10;\n\n  event Sale(address _address, uint _amount);\n\n  function FastCashMoneyPlusSales() public {\n    totalSupply = 1000000 * 10 ** uint256(decimals);\n    fastCashBank = totalSupply;\n    creationDate = now;\n  }\n\n  function updateUSDWEI(uint _wei) external onlyCentralBanker returns (bool success) {\n    USDWEI = _wei;\n    return true;\n  }\n\n  function updateReferalBonus(uint _newBonus) external onlyCentralBanker returns (bool success) {\n    referalBonus = _newBonus;\n    return true;\n  }\n\n  function weeksFromCreation() returns (uint) {\n    return (now - creationDate) / oneWeek;\n  }\n\n  function getExchangeRate(uint _week, uint _value, uint _usdwei) public returns (uint) {\n    uint __week;\n    if (_week > 71) {\n      __week = 71;\n    } else {\n      __week = _week;\n    }\n\n    uint extraAdj = 0;\n    if (__week > 50) {\n      extraAdj = __week - 50;\n    }\n\n    uint minAdj = 10;\n    uint x = __week + decimals - (minAdj + extraAdj);\n\n    uint n = _value * 4 * uint(10 ** x);\n    uint d = ( _usdwei / uint(10 ** minAdj) ) * (uint(12 ** __week) / uint(10 ** extraAdj));\n\n    return n / d;\n  }\n\n  function getCurrentExchangeRate() public returns (uint) {\n    uint _week = weeksFromCreation();\n    return getExchangeRate(_week, USDWEI, USDWEI);\n  }\n\n  function _makeSale() private returns (uint) {\n    uint _week = weeksFromCreation();\n    uint _value = msg.value;\n\n    uint moneyBucks = getExchangeRate(_week, _value, USDWEI);\n\n    require(moneyBucks > 0);\n    require(fastCashBank >= moneyBucks);\n\n    balanceOf[msg.sender] += moneyBucks;\n    fastCashBank -= moneyBucks;\n\n    centralBanker.transfer(msg.value);\n    Sale(msg.sender, moneyBucks);\n    return moneyBucks;\n  }\n\n  function buy(bytes32 _routingCode, bytes32 _referal) payable {\n    uint moneyBucks = _makeSale();\n\n    if (routingCodeMap[_routingCode] == address(0)) {\n      bool routingCodeCreated = createRoutingCode(_routingCode);\n      require(routingCodeCreated);\n    }\n\n    if (_referal[0] != 0) {\n      uint referalFee;\n      if (fastCashBank > (moneyBucks / referalBonus)) {\n        referalFee = moneyBucks / referalBonus;\n      } else {\n        referalFee = fastCashBank;\n      }\n      address reference = routingCodeMap[_referal];\n      if (reference != address(0)) {\n        balanceOf[reference] += referalFee;\n        fastCashBank -= referalFee;\n      }\n    }\n  }\n\n  function () payable {\n    _makeSale();\n  }\n}\n\n\ncontract FastCashMoneyPlusTransfer is FastCashMoneyPlusSales {\n  event Transfer(address indexed _from, address indexed _to, uint _value);\n\n  function _transfer(\n    address _from,\n    address _to,\n    uint _amount\n  ) internal returns (bool success) {\n    require(_to != address(0));\n    require(_to != address(this));\n    require(_amount > 0);\n    require(balanceOf[_from] >= _amount);\n    require(balanceOf[_to] + _amount > balanceOf[_to]);\n\n    balanceOf[_from] -= _amount;\n    balanceOf[_to] += _amount;\n\n    Transfer(msg.sender, _to, _amount);\n\n    return true;\n  }\n\n  function transfer(address _to, uint _amount) external returns (bool success) {\n    return _transfer(msg.sender, _to, _amount);\n  }\n\n  function transferFrom(address _from, address _to, uint _amount) external returns (bool success) {\n    require(allowed[_from][msg.sender] >= _amount);\n\n    bool tranferSuccess = _transfer(_from, _to, _amount);\n    if (tranferSuccess) {\n      allowed[_from][msg.sender] -= _amount;\n    } else {\n      return false;\n    }\n  }\n\n  function transferToAccount(bytes32 _toRoutingCode, uint _amount) external returns (bool success) {\n    return _transfer(msg.sender, routingCodeMap[_toRoutingCode], _amount);\n  }\n\n  \n  function transferRoutingCode(bytes32 _routingCode, address _to) external returns (bool success) {\n    address owner = routingCodeMap[_routingCode];\n    require(msg.sender == owner);\n\n    routingCodeMap[_routingCode] = _to;\n    return true;\n  }\n\n  function _transferFromBank(address _to, uint _amount) internal returns (bool success) {\n    require(_to != address(0));\n    require(_amount > 0);\n    require(fastCashBank >= _amount);\n    require(balanceOf[_to] + _amount > balanceOf[_to]);\n\n    fastCashBank -= _amount;\n    balanceOf[_to] += _amount;\n\n    Transfer(msg.sender, _to, _amount);\n\n    return true;\n  }\n  function transferFromBank(address _to, uint _amount) external onlyCentralBanker returns (bool success) {\n    return _transferFromBank(_to, _amount);\n  }\n\n  function transferFromBankToAccount(bytes32 _toRoutingCode, uint _amount) external onlyCentralBanker returns (bool success) {\n    return _transferFromBank(routingCodeMap[_toRoutingCode], _amount);\n  }\n}\n\ncontract FastCashMoneyPlus is FastCashMoneyPlusTransfer {\n\n}",
  "sourcePath": "/home/XXX-1/smartrim-experiment/for-rlf/0xca5228d1fe52d22db85e02ca305cddd9e573d752/contracts/0xca5228d1fe52d22db85e02ca305cddd9e573d752.sol",
  "compiler": {
    "name": "solc",
    "version": "0.4.25+commit.59dbf8f1.Emscripten.clang"
  },
  "schemaVersion": "3.4.16",
  "updatedAt": "2025-08-14T04:06:36.208Z",
  "networkType": "ethereum",
  "devdoc": {
    "methods": {}
  },
  "userdoc": {
    "methods": {}
  }
}