{
  "contractName": "Ethraffle",
  "abi": [
    {
      "constant": true,
      "inputs": [],
      "name": "rake",
      "outputs": [
        {
          "name": "",
          "type": "uint256"
        }
      ],
      "payable": false,
      "stateMutability": "view",
      "type": "function"
    },
    {
      "constant": true,
      "inputs": [],
      "name": "lastWinningNumber",
      "outputs": [
        {
          "name": "",
          "type": "uint256"
        }
      ],
      "payable": false,
      "stateMutability": "view",
      "type": "function"
    },
    {
      "constant": true,
      "inputs": [],
      "name": "raffleId",
      "outputs": [
        {
          "name": "",
          "type": "uint256"
        }
      ],
      "payable": false,
      "stateMutability": "view",
      "type": "function"
    },
    {
      "constant": true,
      "inputs": [
        {
          "name": "",
          "type": "uint256"
        }
      ],
      "name": "gaps",
      "outputs": [
        {
          "name": "",
          "type": "uint256"
        }
      ],
      "payable": false,
      "stateMutability": "view",
      "type": "function"
    },
    {
      "constant": true,
      "inputs": [],
      "name": "rakeAddress",
      "outputs": [
        {
          "name": "",
          "type": "address"
        }
      ],
      "payable": false,
      "stateMutability": "view",
      "type": "function"
    },
    {
      "constant": true,
      "inputs": [],
      "name": "nextTicket",
      "outputs": [
        {
          "name": "",
          "type": "uint256"
        }
      ],
      "payable": false,
      "stateMutability": "view",
      "type": "function"
    },
    {
      "constant": true,
      "inputs": [],
      "name": "totalTickets",
      "outputs": [
        {
          "name": "",
          "type": "uint256"
        }
      ],
      "payable": false,
      "stateMutability": "view",
      "type": "function"
    },
    {
      "constant": true,
      "inputs": [
        {
          "name": "",
          "type": "uint256"
        }
      ],
      "name": "contestants",
      "outputs": [
        {
          "name": "addr",
          "type": "address"
        },
        {
          "name": "raffleId",
          "type": "uint256"
        }
      ],
      "payable": false,
      "stateMutability": "view",
      "type": "function"
    },
    {
      "constant": true,
      "inputs": [],
      "name": "prize",
      "outputs": [
        {
          "name": "",
          "type": "uint256"
        }
      ],
      "payable": false,
      "stateMutability": "view",
      "type": "function"
    },
    {
      "constant": true,
      "inputs": [],
      "name": "creatorAddress",
      "outputs": [
        {
          "name": "",
          "type": "address"
        }
      ],
      "payable": false,
      "stateMutability": "view",
      "type": "function"
    },
    {
      "constant": true,
      "inputs": [],
      "name": "pricePerTicket",
      "outputs": [
        {
          "name": "",
          "type": "uint256"
        }
      ],
      "payable": false,
      "stateMutability": "view",
      "type": "function"
    },
    {
      "inputs": [],
      "payable": false,
      "stateMutability": "nonpayable",
      "type": "constructor"
    },
    {
      "payable": true,
      "stateMutability": "payable",
      "type": "fallback"
    },
    {
      "constant": false,
      "inputs": [],
      "name": "buyTickets",
      "outputs": [],
      "payable": true,
      "stateMutability": "payable",
      "type": "function"
    },
    {
      "constant": false,
      "inputs": [],
      "name": "getRefund",
      "outputs": [],
      "payable": false,
      "stateMutability": "nonpayable",
      "type": "function"
    },
    {
      "constant": false,
      "inputs": [],
      "name": "kill",
      "outputs": [],
      "payable": false,
      "stateMutability": "nonpayable",
      "type": "function"
    }
  ],
  "bytecode": "0x608060405260006001556000600255600060035534801561001f57600080fd5b50336000806101000a81548173ffffffffffffffffffffffffffffffffffffffff021916908373ffffffffffffffffffffffffffffffffffffffff16021790555061007761007c640100000000026401000000009004565b610098565b6001600081548092919060010191905055506001600281905550565b610ae3806100a76000396000f3006080604052600436106100d0576000357c0100000000000000000000000000000000000000000000000000000000900463ffffffff16806322a7ac34146100da57806341c0e1b5146101055780637ff931bd1461011c578063b2d5ae4414610147578063b375603c1461015e578063b4894b1d14610189578063c33b76c6146101ca578063c7dbbc4714610221578063c81998261461024c578063dd11247e14610256578063dfd50f5214610281578063e3ac5d26146102f5578063e927fc5c14610320578063e987410614610377575b6100d86103a2565b005b3480156100e657600080fd5b506100ef610567565b6040518082815260200191505060405180910390f35b34801561011157600080fd5b5061011a610572565b005b34801561012857600080fd5b50610131610603565b6040518082815260200191505060405180910390f35b34801561015357600080fd5b5061015c610609565b005b34801561016a57600080fd5b506101736107f6565b6040518082815260200191505060405180910390f35b34801561019557600080fd5b506101b4600480360381019080803590602001909291905050506107fc565b6040518082815260200191505060405180910390f35b3480156101d657600080fd5b506101df61081f565b604051808273ffffffffffffffffffffffffffffffffffffffff1673ffffffffffffffffffffffffffffffffffffffff16815260200191505060405180910390f35b34801561022d57600080fd5b50610236610837565b6040518082815260200191505060405180910390f35b6102546103a2565b005b34801561026257600080fd5b5061026b61083d565b6040518082815260200191505060405180910390f35b34801561028d57600080fd5b506102ac60048036038101908080359060200190929190505050610842565b604051808373ffffffffffffffffffffffffffffffffffffffff1673ffffffffffffffffffffffffffffffffffffffff1681526020018281526020019250505060405180910390f35b34801561030157600080fd5b5061030a610886565b6040518082815260200191505060405180910390f35b34801561032c57600080fd5b50610335610892565b604051808273ffffffffffffffffffffffffffffffffffffffff1673ffffffffffffffffffffffffffffffffffffffff16815260200191505060405180910390f35b34801561038357600080fd5b5061038c6108b7565b6040518082815260200191505060405180910390f35b6000803491505b600666470de4df82000067016345785d8a0000018115156103c657fe5b0482101580156103d95750600660025411155b156104fe57600090506000600580549050111561042f57600560016005805490500381548110151561040757fe5b9060005260206000200154905060058054809190600190036104299190610a66565b50610443565b600260008154809291906001019190505590505b60408051908101604052803373ffffffffffffffffffffffffffffffffffffffff1681526020016001548152506004600083815260200190815260200160002060008201518160000160006101000a81548173ffffffffffffffffffffffffffffffffffffffff021916908373ffffffffffffffffffffffffffffffffffffffff16021790555060208201518160010155905050600666470de4df82000067016345785d8a0000018115156104f457fe5b04820391506103a9565b60066002541115610512576105116108d8565b5b6000821115610563573373ffffffffffffffffffffffffffffffffffffffff166108fc839081150290604051600060405180830381858888f19350505050158015610561573d6000803e3d6000fd5b505b5050565b66470de4df82000081565b6000809054906101000a900473ffffffffffffffffffffffffffffffffffffffff1673ffffffffffffffffffffffffffffffffffffffff163373ffffffffffffffffffffffffffffffffffffffff161415610601576000809054906101000a900473ffffffffffffffffffffffffffffffffffffffff1673ffffffffffffffffffffffffffffffffffffffff16ff5b565b60035481565b60008060009150600190505b600681111515610782576004600082815260200190815260200160002060000160009054906101000a900473ffffffffffffffffffffffffffffffffffffffff1673ffffffffffffffffffffffffffffffffffffffff163373ffffffffffffffffffffffffffffffffffffffff161480156106a757506004600082815260200190815260200160002060010154600154145b156107755781806001019250506040805190810160405280600073ffffffffffffffffffffffffffffffffffffffff16815260200160008152506004600083815260200190815260200160002060008201518160000160006101000a81548173ffffffffffffffffffffffffffffffffffffffff021916908373ffffffffffffffffffffffffffffffffffffffff1602179055506020820151816001015590505060058190806001815401808255809150509060018203906000526020600020016000909192909190915055505b8080600101915050610615565b60008211156107f2573373ffffffffffffffffffffffffffffffffffffffff166108fc600666470de4df82000067016345785d8a0000018115156107c257fe5b0484029081150290604051600060405180830381858888f193505050501580156107f0573d6000803e3d6000fd5b505b5050565b60015481565b60058181548110151561080b57fe5b906000526020600020016000915090505481565b7315887100f3b3ca0b645f007c6aa11348665c69e581565b60025481565b600681565b60046020528060005260406000206000915090508060000160009054906101000a900473ffffffffffffffffffffffffffffffffffffffff16908060010154905082565b67016345785d8a000081565b6000809054906101000a900473ffffffffffffffffffffffffffffffffffffffff1681565b600666470de4df82000067016345785d8a0000018115156108d457fe5b0481565b6000806108e36109e2565b9150816003819055506004600083815260200190815260200160002060000160009054906101000a900473ffffffffffffffffffffffffffffffffffffffff16905061092d610a4a565b8073ffffffffffffffffffffffffffffffffffffffff166108fc67016345785d8a00009081150290604051600060405180830381858888f1935050505015801561097b573d6000803e3d6000fd5b507315887100f3b3ca0b645f007c6aa11348665c69e573ffffffffffffffffffffffffffffffffffffffff166108fc66470de4df8200009081150290604051600060405180830381858888f193505050501580156109dd573d6000803e3d6000fd5b505050565b6000600160064173ffffffffffffffffffffffffffffffffffffffff163373ffffffffffffffffffffffffffffffffffffffff165a4445434201010101010160405180828152602001915050604051809103902060019004811515610a4357fe5b0601905090565b6001600081548092919060010191905055506001600281905550565b815481835581811115610a8d57818360005260206000209182019101610a8c9190610a92565b5b505050565b610ab491905b80821115610ab0576000816000905550600101610a98565b5090565b905600a165627a7a723058201e39f06b2b483d1727de44a8bf71c9a307c4fdf2841d95b1a49f103904d4bbdd0029",
  "source": "\n\ncontract Ethraffle {\n    \n    struct Contestant {\n        address addr;\n        uint raffleId;\n    }\n\n    \n    address public creatorAddress;\n    address constant public rakeAddress = 0x15887100f3b3cA0b645F007c6AA11348665c69e5;\n    uint constant public prize = 0.1 ether;\n    uint constant public rake = 0.02 ether;\n    uint constant public totalTickets = 6;\n    uint constant public pricePerTicket = (prize + rake) / totalTickets;\n\n    \n    uint public raffleId = 0;\n    uint public nextTicket = 0;\n    uint public lastWinningNumber = 0;\n    mapping (uint => Contestant) public contestants;\n    uint[] public gaps;\n\n    \n    function Ethraffle() public {\n        creatorAddress = msg.sender;\n        resetRaffle();\n    }\n\n    function resetRaffle() private {\n        raffleId++;\n        nextTicket = 1;\n    }\n\n    \n    function () payable public {\n        buyTickets();\n    }\n\n    function buyTickets() payable public {\n        uint moneySent = msg.value;\n\n        while (moneySent >= pricePerTicket && nextTicket <= totalTickets) {\n            uint currTicket = 0;\n            if (gaps.length > 0) {\n                currTicket = gaps[gaps.length-1];\n                gaps.length--;\n            } else {\n                currTicket = nextTicket++;\n            }\n\n            contestants[currTicket] = Contestant(msg.sender, raffleId);\n            moneySent -= pricePerTicket;\n        }\n\n        \n        if (nextTicket > totalTickets) {\n            chooseWinner();\n        }\n\n        \n        if (moneySent > 0) {\n            msg.sender.transfer(moneySent);\n        }\n    }\n\n    function chooseWinner() private {\n        uint winningTicket = getRandom();\n        lastWinningNumber = winningTicket;\n        address winningAddress = contestants[winningTicket].addr;\n        resetRaffle();\n        winningAddress.transfer(prize);\n        rakeAddress.transfer(rake);\n    }\n\n    \n    function getRandom() private returns (uint) {\n        return (uint(sha3(\n          block.timestamp +\n          block.number +\n          block.gaslimit +\n          block.difficulty +\n          msg.gas +\n          uint(msg.sender) +\n          uint(block.coinbase)\n        )) % totalTickets) + 1;\n    }\n\n    function getRefund() public {\n        uint refunds = 0;\n        for (uint i = 1; i <= totalTickets; i++) {\n            if (msg.sender == contestants[i].addr && raffleId == contestants[i].raffleId) {\n                refunds++;\n                contestants[i] = Contestant(address(0), 0);\n                gaps.push(i);\n            }\n        }\n\n        if (refunds > 0) {\n            msg.sender.transfer(refunds * pricePerTicket);\n        }\n    }\n\n    function kill() public {\n        if (msg.sender == creatorAddress) {\n            selfdestruct(creatorAddress);\n        }\n    }\n}",
  "sourcePath": "/home/XXX-1/smartrim-experiment/for-rlf/0x04ebe325519223119ab6bde2b84e23a6ecd05d65/contracts/0x04ebe325519223119ab6bde2b84e23a6ecd05d65.sol",
  "compiler": {
    "name": "solc",
    "version": "0.4.25+commit.59dbf8f1.Emscripten.clang"
  },
  "schemaVersion": "3.4.16",
  "updatedAt": "2025-08-14T03:44:59.748Z",
  "networkType": "ethereum",
  "devdoc": {
    "methods": {}
  },
  "userdoc": {
    "methods": {}
  }
}