{
  "contractName": "XEther",
  "abi": [
    {
      "constant": true,
      "inputs": [],
      "name": "aOwner",
      "outputs": [
        {
          "name": "",
          "type": "address"
        }
      ],
      "payable": false,
      "stateMutability": "view",
      "type": "function"
    },
    {
      "constant": true,
      "inputs": [
        {
          "name": "",
          "type": "uint256"
        }
      ],
      "name": "investorsEarned",
      "outputs": [
        {
          "name": "",
          "type": "uint256"
        }
      ],
      "payable": false,
      "stateMutability": "view",
      "type": "function"
    },
    {
      "constant": true,
      "inputs": [],
      "name": "jackpotBalance",
      "outputs": [
        {
          "name": "",
          "type": "uint256"
        }
      ],
      "payable": false,
      "stateMutability": "view",
      "type": "function"
    },
    {
      "constant": true,
      "inputs": [],
      "name": "curIteration",
      "outputs": [
        {
          "name": "",
          "type": "uint256"
        }
      ],
      "payable": false,
      "stateMutability": "view",
      "type": "function"
    },
    {
      "constant": true,
      "inputs": [],
      "name": "investorsCount",
      "outputs": [
        {
          "name": "",
          "type": "uint256"
        }
      ],
      "payable": false,
      "stateMutability": "view",
      "type": "function"
    },
    {
      "constant": true,
      "inputs": [],
      "name": "toGwei",
      "outputs": [
        {
          "name": "",
          "type": "uint256"
        }
      ],
      "payable": false,
      "stateMutability": "view",
      "type": "function"
    },
    {
      "constant": true,
      "inputs": [],
      "name": "depositsCount",
      "outputs": [
        {
          "name": "",
          "type": "uint256"
        }
      ],
      "payable": false,
      "stateMutability": "view",
      "type": "function"
    },
    {
      "constant": true,
      "inputs": [],
      "name": "minInvestmentAmount",
      "outputs": [
        {
          "name": "",
          "type": "uint256"
        }
      ],
      "payable": false,
      "stateMutability": "view",
      "type": "function"
    },
    {
      "constant": true,
      "inputs": [
        {
          "name": "",
          "type": "uint256"
        }
      ],
      "name": "depContractidToLottery",
      "outputs": [
        {
          "name": "",
          "type": "bool"
        }
      ],
      "payable": false,
      "stateMutability": "view",
      "type": "function"
    },
    {
      "constant": true,
      "inputs": [],
      "name": "investorsCountLimit",
      "outputs": [
        {
          "name": "",
          "type": "uint256"
        }
      ],
      "payable": false,
      "stateMutability": "view",
      "type": "function"
    },
    {
      "constant": true,
      "inputs": [],
      "name": "minDepositAmount",
      "outputs": [
        {
          "name": "",
          "type": "uint256"
        }
      ],
      "payable": false,
      "stateMutability": "view",
      "type": "function"
    },
    {
      "constant": true,
      "inputs": [],
      "name": "ownerFeePercent",
      "outputs": [
        {
          "name": "",
          "type": "uint256"
        }
      ],
      "payable": false,
      "stateMutability": "view",
      "type": "function"
    },
    {
      "constant": true,
      "inputs": [],
      "name": "feeAmount",
      "outputs": [
        {
          "name": "",
          "type": "uint256"
        }
      ],
      "payable": false,
      "stateMutability": "view",
      "type": "function"
    },
    {
      "constant": true,
      "inputs": [
        {
          "name": "",
          "type": "uint256"
        }
      ],
      "name": "investorsInvested",
      "outputs": [
        {
          "name": "",
          "type": "uint256"
        }
      ],
      "payable": false,
      "stateMutability": "view",
      "type": "function"
    },
    {
      "constant": true,
      "inputs": [
        {
          "name": "",
          "type": "uint256"
        }
      ],
      "name": "depContractidToAddress",
      "outputs": [
        {
          "name": "",
          "type": "address"
        }
      ],
      "payable": false,
      "stateMutability": "view",
      "type": "function"
    },
    {
      "constant": false,
      "inputs": [
        {
          "name": "_coOwner",
          "type": "address"
        }
      ],
      "name": "setCoOwner1",
      "outputs": [],
      "payable": false,
      "stateMutability": "nonpayable",
      "type": "function"
    },
    {
      "constant": true,
      "inputs": [],
      "name": "coOwner1",
      "outputs": [
        {
          "name": "",
          "type": "address"
        }
      ],
      "payable": false,
      "stateMutability": "view",
      "type": "function"
    },
    {
      "constant": true,
      "inputs": [],
      "name": "investorsFeePercent",
      "outputs": [
        {
          "name": "",
          "type": "uint256"
        }
      ],
      "payable": false,
      "stateMutability": "view",
      "type": "function"
    },
    {
      "constant": true,
      "inputs": [
        {
          "name": "",
          "type": "uint256"
        }
      ],
      "name": "depContractidToAmount",
      "outputs": [
        {
          "name": "",
          "type": "uint256"
        }
      ],
      "payable": false,
      "stateMutability": "view",
      "type": "function"
    },
    {
      "constant": true,
      "inputs": [],
      "name": "isWipeAllowed",
      "outputs": [
        {
          "name": "",
          "type": "bool"
        }
      ],
      "payable": false,
      "stateMutability": "view",
      "type": "function"
    },
    {
      "constant": true,
      "inputs": [
        {
          "name": "",
          "type": "uint256"
        }
      ],
      "name": "investorsComissionPercent",
      "outputs": [
        {
          "name": "",
          "type": "uint256"
        }
      ],
      "payable": false,
      "stateMutability": "view",
      "type": "function"
    },
    {
      "constant": true,
      "inputs": [],
      "name": "totalInvestmentAmount",
      "outputs": [
        {
          "name": "",
          "type": "uint256"
        }
      ],
      "payable": false,
      "stateMutability": "view",
      "type": "function"
    },
    {
      "constant": true,
      "inputs": [],
      "name": "bankAmount",
      "outputs": [
        {
          "name": "",
          "type": "uint256"
        }
      ],
      "payable": false,
      "stateMutability": "view",
      "type": "function"
    },
    {
      "constant": true,
      "inputs": [],
      "name": "minLotteryAmount",
      "outputs": [
        {
          "name": "",
          "type": "uint256"
        }
      ],
      "payable": false,
      "stateMutability": "view",
      "type": "function"
    },
    {
      "constant": true,
      "inputs": [],
      "name": "jackpotPercent",
      "outputs": [
        {
          "name": "",
          "type": "uint256"
        }
      ],
      "payable": false,
      "stateMutability": "view",
      "type": "function"
    },
    {
      "constant": true,
      "inputs": [],
      "name": "coOwner2",
      "outputs": [
        {
          "name": "",
          "type": "address"
        }
      ],
      "payable": false,
      "stateMutability": "view",
      "type": "function"
    },
    {
      "constant": false,
      "inputs": [
        {
          "name": "_coOwner",
          "type": "address"
        }
      ],
      "name": "setCoOwner2",
      "outputs": [],
      "payable": false,
      "stateMutability": "nonpayable",
      "type": "function"
    },
    {
      "constant": true,
      "inputs": [
        {
          "name": "",
          "type": "uint256"
        }
      ],
      "name": "investorsAddress",
      "outputs": [
        {
          "name": "",
          "type": "address"
        }
      ],
      "payable": false,
      "stateMutability": "view",
      "type": "function"
    },
    {
      "constant": true,
      "inputs": [],
      "name": "lastTransaction",
      "outputs": [
        {
          "name": "",
          "type": "uint256"
        }
      ],
      "payable": false,
      "stateMutability": "view",
      "type": "function"
    },
    {
      "inputs": [],
      "payable": false,
      "stateMutability": "nonpayable",
      "type": "constructor"
    },
    {
      "payable": true,
      "stateMutability": "payable",
      "type": "fallback"
    },
    {
      "anonymous": false,
      "inputs": [
        {
          "indexed": false,
          "name": "amount",
          "type": "uint256"
        }
      ],
      "name": "EvDebug",
      "type": "event"
    },
    {
      "anonymous": false,
      "inputs": [
        {
          "indexed": false,
          "name": "iteration",
          "type": "uint256"
        },
        {
          "indexed": false,
          "name": "bankAmount",
          "type": "uint256"
        },
        {
          "indexed": false,
          "name": "index",
          "type": "uint256"
        },
        {
          "indexed": false,
          "name": "sender",
          "type": "address"
        },
        {
          "indexed": false,
          "name": "amount",
          "type": "uint256"
        },
        {
          "indexed": false,
          "name": "multiplier",
          "type": "uint256"
        },
        {
          "indexed": false,
          "name": "time",
          "type": "uint256"
        }
      ],
      "name": "EvNewDeposit",
      "type": "event"
    },
    {
      "anonymous": false,
      "inputs": [
        {
          "indexed": false,
          "name": "iteration",
          "type": "uint256"
        },
        {
          "indexed": false,
          "name": "bankAmount",
          "type": "uint256"
        },
        {
          "indexed": false,
          "name": "index",
          "type": "uint256"
        },
        {
          "indexed": false,
          "name": "sender",
          "type": "address"
        },
        {
          "indexed": false,
          "name": "amount",
          "type": "uint256"
        },
        {
          "indexed": false,
          "name": "investorsFee",
          "type": "uint256[]"
        }
      ],
      "name": "EvNewInvestment",
      "type": "event"
    },
    {
      "anonymous": false,
      "inputs": [
        {
          "indexed": false,
          "name": "iteration",
          "type": "uint256"
        },
        {
          "indexed": false,
          "name": "investorsComission",
          "type": "uint256[]"
        }
      ],
      "name": "EvInvestorsComission",
      "type": "event"
    },
    {
      "anonymous": false,
      "inputs": [
        {
          "indexed": false,
          "name": "iteration",
          "type": "uint256"
        },
        {
          "indexed": false,
          "name": "deposited",
          "type": "uint256"
        },
        {
          "indexed": false,
          "name": "balance",
          "type": "uint256"
        }
      ],
      "name": "EvUpdateBankAmount",
      "type": "event"
    },
    {
      "anonymous": false,
      "inputs": [
        {
          "indexed": false,
          "name": "iteration",
          "type": "uint256"
        },
        {
          "indexed": false,
          "name": "bankAmount",
          "type": "uint256"
        },
        {
          "indexed": false,
          "name": "index",
          "type": "uint256"
        },
        {
          "indexed": false,
          "name": "receiver",
          "type": "address"
        },
        {
          "indexed": false,
          "name": "amount",
          "type": "uint256"
        },
        {
          "indexed": false,
          "name": "fee",
          "type": "uint256"
        },
        {
          "indexed": false,
          "name": "jackpotBalance",
          "type": "uint256"
        }
      ],
      "name": "EvDepositPayout",
      "type": "event"
    },
    {
      "anonymous": false,
      "inputs": [
        {
          "indexed": false,
          "name": "iteration",
          "type": "uint256"
        }
      ],
      "name": "EvNewIteration",
      "type": "event"
    },
    {
      "anonymous": false,
      "inputs": [
        {
          "indexed": false,
          "name": "iteration",
          "type": "uint256"
        },
        {
          "indexed": false,
          "name": "index",
          "type": "uint256"
        },
        {
          "indexed": false,
          "name": "receiver",
          "type": "address"
        },
        {
          "indexed": false,
          "name": "payoutAmount",
          "type": "uint256"
        },
        {
          "indexed": false,
          "name": "bankAmount",
          "type": "uint256"
        }
      ],
      "name": "EvBankBecomeEmpty",
      "type": "event"
    },
    {
      "anonymous": false,
      "inputs": [
        {
          "indexed": false,
          "name": "iteration",
          "type": "uint256"
        },
        {
          "indexed": false,
          "name": "bankAmount",
          "type": "uint256"
        },
        {
          "indexed": false,
          "name": "index",
          "type": "uint256"
        },
        {
          "indexed": false,
          "name": "amount",
          "type": "uint256"
        },
        {
          "indexed": false,
          "name": "status",
          "type": "bool"
        }
      ],
      "name": "EvInvestorPayout",
      "type": "event"
    },
    {
      "anonymous": false,
      "inputs": [
        {
          "indexed": false,
          "name": "iteration",
          "type": "uint256"
        },
        {
          "indexed": false,
          "name": "bankAmount",
          "type": "uint256"
        },
        {
          "indexed": false,
          "name": "payouts",
          "type": "uint256[]"
        },
        {
          "indexed": false,
          "name": "statuses",
          "type": "bool[]"
        }
      ],
      "name": "EvInvestorsPayout",
      "type": "event"
    },
    {
      "anonymous": false,
      "inputs": [
        {
          "indexed": false,
          "name": "iteration",
          "type": "uint256"
        },
        {
          "indexed": false,
          "name": "timeDiff",
          "type": "uint256"
        },
        {
          "indexed": false,
          "name": "stage",
          "type": "uint256"
        }
      ],
      "name": "EvStageChanged",
      "type": "event"
    },
    {
      "anonymous": false,
      "inputs": [
        {
          "indexed": false,
          "name": "iteration",
          "type": "uint256"
        },
        {
          "indexed": false,
          "name": "contractId",
          "type": "uint256"
        },
        {
          "indexed": false,
          "name": "winer",
          "type": "address"
        },
        {
          "indexed": false,
          "name": "amount",
          "type": "uint256"
        }
      ],
      "name": "EvLotteryWin",
      "type": "event"
    },
    {
      "anonymous": false,
      "inputs": [
        {
          "indexed": false,
          "name": "sender",
          "type": "address"
        },
        {
          "indexed": false,
          "name": "code",
          "type": "bytes16"
        }
      ],
      "name": "EvConfimAddress",
      "type": "event"
    },
    {
      "anonymous": false,
      "inputs": [
        {
          "indexed": false,
          "name": "iteration",
          "type": "uint256"
        },
        {
          "indexed": false,
          "name": "index",
          "type": "uint256"
        },
        {
          "indexed": false,
          "name": "lotteryNumbers",
          "type": "uint256[]"
        }
      ],
      "name": "EvLotteryNumbers",
      "type": "event"
    },
    {
      "anonymous": false,
      "inputs": [
        {
          "indexed": false,
          "name": "iteration",
          "type": "uint256"
        },
        {
          "indexed": false,
          "name": "amount",
          "type": "uint256"
        },
        {
          "indexed": false,
          "name": "balance",
          "type": "uint256"
        }
      ],
      "name": "EvUpdateJackpot",
      "type": "event"
    },
    {
      "constant": false,
      "inputs": [],
      "name": "newIteration",
      "outputs": [],
      "payable": false,
      "stateMutability": "nonpayable",
      "type": "function"
    },
    {
      "constant": false,
      "inputs": [],
      "name": "updateBankAmount",
      "outputs": [],
      "payable": true,
      "stateMutability": "payable",
      "type": "function"
    },
    {
      "constant": false,
      "inputs": [],
      "name": "newInvestment",
      "outputs": [],
      "payable": true,
      "stateMutability": "payable",
      "type": "function"
    },
    {
      "constant": false,
      "inputs": [
        {
          "name": "depositIndex",
          "type": "uint256"
        },
        {
          "name": "pAmount",
          "type": "uint256"
        }
      ],
      "name": "depositPayout",
      "outputs": [
        {
          "name": "",
          "type": "bool"
        }
      ],
      "payable": false,
      "stateMutability": "nonpayable",
      "type": "function"
    },
    {
      "constant": false,
      "inputs": [],
      "name": "payoutInvestors",
      "outputs": [],
      "payable": false,
      "stateMutability": "nonpayable",
      "type": "function"
    },
    {
      "constant": false,
      "inputs": [
        {
          "name": "investorId",
          "type": "uint256"
        }
      ],
      "name": "payoutInvestor",
      "outputs": [],
      "payable": false,
      "stateMutability": "nonpayable",
      "type": "function"
    },
    {
      "constant": false,
      "inputs": [
        {
          "name": "code",
          "type": "bytes16"
        }
      ],
      "name": "confirmAddress",
      "outputs": [],
      "payable": false,
      "stateMutability": "nonpayable",
      "type": "function"
    },
    {
      "constant": true,
      "inputs": [
        {
          "name": "contractId",
          "type": "uint256"
        }
      ],
      "name": "depositInfo",
      "outputs": [
        {
          "name": "_address",
          "type": "address"
        },
        {
          "name": "_amount",
          "type": "uint256"
        },
        {
          "name": "_participateInLottery",
          "type": "bool"
        }
      ],
      "payable": false,
      "stateMutability": "view",
      "type": "function"
    },
    {
      "constant": true,
      "inputs": [
        {
          "name": "contractId",
          "type": "uint256"
        }
      ],
      "name": "investorInfo",
      "outputs": [
        {
          "name": "_address",
          "type": "address"
        },
        {
          "name": "_invested",
          "type": "uint256"
        },
        {
          "name": "_comissionPercent",
          "type": "uint256"
        },
        {
          "name": "earned",
          "type": "uint256"
        }
      ],
      "payable": false,
      "stateMutability": "view",
      "type": "function"
    },
    {
      "constant": true,
      "inputs": [],
      "name": "showBankAmount",
      "outputs": [
        {
          "name": "_bankAmount",
          "type": "uint256"
        }
      ],
      "payable": false,
      "stateMutability": "view",
      "type": "function"
    },
    {
      "constant": true,
      "inputs": [],
      "name": "showInvestorsComission",
      "outputs": [
        {
          "name": "_investorsComission",
          "type": "uint256"
        }
      ],
      "payable": false,
      "stateMutability": "view",
      "type": "function"
    },
    {
      "constant": true,
      "inputs": [],
      "name": "showJackpotBalance",
      "outputs": [
        {
          "name": "_jackpotBalance",
          "type": "uint256"
        }
      ],
      "payable": false,
      "stateMutability": "view",
      "type": "function"
    },
    {
      "constant": true,
      "inputs": [],
      "name": "showStats",
      "outputs": [
        {
          "name": "_ownerFeePercent",
          "type": "uint256"
        },
        {
          "name": "_investorsFeePercent",
          "type": "uint256"
        },
        {
          "name": "_jackpotPercent",
          "type": "uint256"
        },
        {
          "name": "_minDepositAmount",
          "type": "uint256"
        },
        {
          "name": "_minLotteryAmount",
          "type": "uint256"
        },
        {
          "name": "_minInvestmentAmount",
          "type": "uint256"
        },
        {
          "name": "info",
          "type": "string"
        }
      ],
      "payable": false,
      "stateMutability": "view",
      "type": "function"
    },
    {
      "constant": false,
      "inputs": [],
      "name": "updateJackpotBalance",
      "outputs": [],
      "payable": true,
      "stateMutability": "payable",
      "type": "function"
    },
    {
      "constant": false,
      "inputs": [
        {
          "name": "amount",
          "type": "uint256"
        }
      ],
      "name": "withdrawJackpotBalance",
      "outputs": [],
      "payable": false,
      "stateMutability": "nonpayable",
      "type": "function"
    }
  ],
  "bytecode": "0x608060405260006003556032600455608260055560016006556000600755600160085560006009556000600a55633b9aca00600b556301312d00600c556305f5e100600d55674563918244f40000600e556001600f60006101000a81548160ff0219169083151502179055506007601055426011554260125560016013556201518060145560006015556048601655600060175560146018553480156100a457600080fd5b50336000806101000a81548173ffffffffffffffffffffffffffffffffffffffff021916908373ffffffffffffffffffffffffffffffffffffffff16021790555033600160006101000a81548173ffffffffffffffffffffffffffffffffffffffff021916908373ffffffffffffffffffffffffffffffffffffffff16021790555033600260006101000a81548173ffffffffffffffffffffffffffffffffffffffff021916908373ffffffffffffffffffffffffffffffffffffffff1602179055506000809054906101000a900473ffffffffffffffffffffffffffffffffffffffff16601d600080815260200190815260200160002060006101000a81548173ffffffffffffffffffffffffffffffffffffffff021916908373ffffffffffffffffffffffffffffffffffffffff1602179055506000601e6000808152602001908152602001600020819055506000601f6000808152602001908152602001600020819055506000602060008081526020019081526020016000208190555061334f806102346000396000f300608060405260043610610219576000357c0100000000000000000000000000000000000000000000000000000000900463ffffffff168062bec571146102a75780630235e4e0146102fe578063040da8f41461033f5780630c0864631461036a5780632b71105114610395578063316e02cb146103c0578063317d7a2b146103eb5780633869ffd01461046a5780634506e935146104815780634d298a07146104ac57806352855882146104d7578063614596951461051757806361a7940e1461055c578063645006ca146105875780636998de35146105b257806369e15404146105dd57806371ec4cc1146106085780637221c3c0146106575780637c8da46a146106845780637dd3dd57146106c557806380dfb104146107325780638822bc1a146107755780639140f968146107cc57806393766a3d146107d657806394b941db146108015780639602d7721461088357806398f42e3b146108c4578063a1d122e8146108db578063a62f35031461090a578063acf7c1d214610914578063ad8180711461091e578063b102b8cb146109d8578063b1504a8814610a19578063b42a275e14610a44578063b80a00e514610a6f578063bf4637e514610a9a578063c180864c14610ac5578063c54d860914610b1c578063d007ff4b14610b5f578063d6ac239414610b8a578063dc09d8fd14610bb7578063dce5f27714610be2578063ebe29d7414610c4f578063fcda4ded14610c7a575b600080341180156102575750600073ffffffffffffffffffffffffffffffffffffffff163373ffffffffffffffffffffffffffffffffffffffff1614155b151561026257600080fd5b600b543481151561026f57fe5b049050600c5481101515610293574260118190555061028e3382610ca5565b6102a4565b806009600082825401925050819055505b50005b3480156102b357600080fd5b506102bc610e4c565b604051808273ffffffffffffffffffffffffffffffffffffffff1673ffffffffffffffffffffffffffffffffffffffff16815260200191505060405180910390f35b34801561030a57600080fd5b5061032960048036038101908080359060200190929190505050610e71565b6040518082815260200191505060405180910390f35b34801561034b57600080fd5b50610354610e88565b6040518082815260200191505060405180910390f35b34801561037657600080fd5b5061037f610e8e565b6040518082815260200191505060405180910390f35b3480156103a157600080fd5b506103aa610e94565b6040518082815260200191505060405180910390f35b3480156103cc57600080fd5b506103d5610e9a565b6040518082815260200191505060405180910390f35b3480156103f757600080fd5b5061041660048036038101908080359060200190929190505050610ea0565b604051808473ffffffffffffffffffffffffffffffffffffffff1673ffffffffffffffffffffffffffffffffffffffff16815260200183815260200182151515158152602001935050505060405180910390f35b34801561047657600080fd5b5061047f610f1f565b005b34801561048d57600080fd5b50610496611190565b6040518082815260200191505060405180910390f35b3480156104b857600080fd5b506104c1611196565b6040518082815260200191505060405180910390f35b3480156104e357600080fd5b5061051560048036038101908080356fffffffffffffffffffffffffffffffff1916906020019092919050505061119c565b005b34801561052357600080fd5b5061054260048036038101908080359060200190929190505050611230565b604051808215151515815260200191505060405180910390f35b34801561056857600080fd5b50610571611250565b6040518082815260200191505060405180910390f35b34801561059357600080fd5b5061059c611256565b6040518082815260200191505060405180910390f35b3480156105be57600080fd5b506105c761125c565b6040518082815260200191505060405180910390f35b3480156105e957600080fd5b506105f2611262565b6040518082815260200191505060405180910390f35b34801561061457600080fd5b5061063d6004803603810190808035906020019092919080359060200190929190505050611268565b604051808215151515815260200191505060405180910390f35b34801561066357600080fd5b506106826004803603810190808035906020019092919050505061175a565b005b34801561069057600080fd5b506106af600480360381019080803590602001909291905050506119aa565b6040518082815260200191505060405180910390f35b3480156106d157600080fd5b506106f0600480360381019080803590602001909291905050506119c2565b604051808273ffffffffffffffffffffffffffffffffffffffff1673ffffffffffffffffffffffffffffffffffffffff16815260200191505060405180910390f35b34801561073e57600080fd5b50610773600480360381019080803573ffffffffffffffffffffffffffffffffffffffff1690602001909291905050506119f5565b005b34801561078157600080fd5b5061078a611b44565b604051808273ffffffffffffffffffffffffffffffffffffffff1673ffffffffffffffffffffffffffffffffffffffff16815260200191505060405180910390f35b6107d4611b6a565b005b3480156107e257600080fd5b506107eb611bd8565b6040518082815260200191505060405180910390f35b34801561080d57600080fd5b5061082c60048036038101908080359060200190929190505050611bde565b604051808573ffffffffffffffffffffffffffffffffffffffff1673ffffffffffffffffffffffffffffffffffffffff16815260200184815260200183815260200182815260200194505050505060405180910390f35b34801561088f57600080fd5b506108ae60048036038101908080359060200190929190505050611c6b565b6040518082815260200191505060405180910390f35b3480156108d057600080fd5b506108d9611c83565b005b3480156108e757600080fd5b506108f0611efd565b604051808215151515815260200191505060405180910390f35b610912611f10565b005b61091c612108565b005b34801561092a57600080fd5b506109336122c5565b6040518088815260200187815260200186815260200185815260200184815260200183815260200180602001828103825283818151815260200191508051906020019080838360005b8381101561099757808201518184015260208101905061097c565b50505050905090810190601f1680156109c45780820380516001836020036101000a031916815260200191505b509850505050505050505060405180910390f35b3480156109e457600080fd5b50610a036004803603810190808035906020019092919050505061235e565b6040518082815260200191505060405180910390f35b348015610a2557600080fd5b50610a2e612376565b6040518082815260200191505060405180910390f35b348015610a5057600080fd5b50610a5961237c565b6040518082815260200191505060405180910390f35b348015610a7b57600080fd5b50610a84612382565b6040518082815260200191505060405180910390f35b348015610aa657600080fd5b50610aaf612388565b6040518082815260200191505060405180910390f35b348015610ad157600080fd5b50610ada61238e565b604051808273ffffffffffffffffffffffffffffffffffffffff1673ffffffffffffffffffffffffffffffffffffffff16815260200191505060405180910390f35b348015610b2857600080fd5b50610b5d600480360381019080803573ffffffffffffffffffffffffffffffffffffffff1690602001909291905050506123b4565b005b348015610b6b57600080fd5b50610b74612503565b6040518082815260200191505060405180910390f35b348015610b9657600080fd5b50610bb560048036038101908080359060200190929190505050612511565b005b348015610bc357600080fd5b50610bcc612667565b6040518082815260200191505060405180910390f35b348015610bee57600080fd5b50610c0d60048036038101908080359060200190929190505050612675565b604051808273ffffffffffffffffffffffffffffffffffffffff1673ffffffffffffffffffffffffffffffffffffffff16815260200191505060405180910390f35b348015610c5b57600080fd5b50610c646126a8565b6040518082815260200191505060405180910390f35b348015610c8657600080fd5b50610c8f6126ae565b6040518082815260200191505060405180910390f35b60008060008060c8610cb760646126bc565b019350610cc56105c86126bc565b9250610cd0836127c0565b9150610cdc8385612824565b9350600754905085601a600083815260200190815260200160002060006101000a81548173ffffffffffffffffffffffffffffffffffffffff021916908373ffffffffffffffffffffffffffffffffffffffff1602179055506064848602811515610d4357fe5b04601b600083815260200190815260200160002081905550600d54851015601c600083815260200190815260200160002060006101000a81548160ff021916908315150217905550600760008154809291906001019190505550846009600082825401925050819055507ff0e6b80e0db595dc805f2e48b9b15936415788ed9e96874412e560001bdc9ee56006546009548389898988604051808881526020018781526020018681526020018573ffffffffffffffffffffffffffffffffffffffff1673ffffffffffffffffffffffffffffffffffffffff16815260200184815260200183815260200182815260200197505050505050505060405180910390a1505050505050565b6000809054906101000a900473ffffffffffffffffffffffffffffffffffffffff1681565b602080528060005260406000206000915090505481565b60175481565b60065481565b60085481565b600b5481565b6000806000601a600085815260200190815260200160002060009054906101000a900473ffffffffffffffffffffffffffffffffffffffff16600b54601b60008781526020019081526020016000205402601c600087815260200190815260200160002060009054906101000a900460ff169250925092509193909250565b60008060009054906101000a900473ffffffffffffffffffffffffffffffffffffffff1673ffffffffffffffffffffffffffffffffffffffff163373ffffffffffffffffffffffffffffffffffffffff161480610fc95750600160009054906101000a900473ffffffffffffffffffffffffffffffffffffffff1673ffffffffffffffffffffffffffffffffffffffff163373ffffffffffffffffffffffffffffffffffffffff16145b806110215750600260009054906101000a900473ffffffffffffffffffffffffffffffffffffffff1673ffffffffffffffffffffffffffffffffffffffff163373ffffffffffffffffffffffffffffffffffffffff16145b151561102c57600080fd5b600f60009054906101000a900460ff16151561104757600080fd5b61104f611c83565b6000601e6000808152602001908152602001600020819055506001600881905550600060038190555060006009819055506000600a8190555060006007819055506001601381905550426012819055506000601581905550604860168190555060016006600082825401925050819055507f8fd12ee179e9ebda2a2d5b4b10058e9b0498cd13bb383fb8657a0fa1a723949c6006546040518082815260200191505060405180910390a1600b54601754023073ffffffffffffffffffffffffffffffffffffffff1631039050600081111561118d576000809054906101000a900473ffffffffffffffffffffffffffffffffffffffff1673ffffffffffffffffffffffffffffffffffffffff166108fc829081150290604051600060405180830381858888f1935050505015801561118b573d6000803e3d6000fd5b505b50565b60075481565b600e5481565b7f74fca19f85b17586b5901df962e3d330e6c5c333bed82f081ad56a835aff05713382604051808373ffffffffffffffffffffffffffffffffffffffff1673ffffffffffffffffffffffffffffffffffffffff168152602001826fffffffffffffffffffffffffffffffff19166fffffffffffffffffffffffffffffffff191681526020019250505060405180910390a150565b601c6020528060005260406000206000915054906101000a900460ff1681565b60105481565b600c5481565b60045481565b600a5481565b60008060008060008060008060009054906101000a900473ffffffffffffffffffffffffffffffffffffffff1673ffffffffffffffffffffffffffffffffffffffff163373ffffffffffffffffffffffffffffffffffffffff16148061131b5750600160009054906101000a900473ffffffffffffffffffffffffffffffffffffffff1673ffffffffffffffffffffffffffffffffffffffff163373ffffffffffffffffffffffffffffffffffffffff16145b806113735750600260009054906101000a900473ffffffffffffffffffffffffffffffffffffffff1673ffffffffffffffffffffffffffffffffffffffff163373ffffffffffffffffffffffffffffffffffffffff16145b151561137e57600080fd5b60075489108015611390575060008910155b80156113af57506000601b60008b815260200190815260200160002054115b15156113ba57600080fd5b600588111515156113ca57600080fd5b601b60008a815260200190815260200160002054955060648887028115156113ee57fe5b04860195506009548611156114db576001600f60006101000a81548160ff0219169083151502179055507f21c1f31dd70ba9b40160c8283dfa1f8d86fc33575395fcde4e3457f9340569186006548a601a60008d815260200190815260200160002060009054906101000a900473ffffffffffffffffffffffffffffffffffffffff1689600954604051808681526020018581526020018473ffffffffffffffffffffffffffffffffffffffff1673ffffffffffffffffffffffffffffffffffffffff1681526020018381526020018281526020019550505050505060405180910390a16000965061174e565b6103e860045487028115156114ec57fe5b0494508460206000808152602001908152602001600020600082825401925050819055506103e8601854870281151561152157fe5b049350836017600082825401925050819055506103e8600554870281151561154557fe5b04925082848601019150818603905085600960008282540392505081905550828501600a600082825401925050819055507fc2ff0db60f898db29de5145be23fbf59eb8ef8110bd0d32a10059606b2e68c276006546009548b601a60008e815260200190815260200160002060009054906101000a900473ffffffffffffffffffffffffffffffffffffffff168587601754604051808881526020018781526020018681526020018573ffffffffffffffffffffffffffffffffffffffff1673ffffffffffffffffffffffffffffffffffffffff16815260200184815260200183815260200182815260200197505050505050505060405180910390a161164b836128cb565b6000601b60008b815260200190815260200160002081905550600b5481029050601a60008a815260200190815260200160002060009054906101000a900473ffffffffffffffffffffffffffffffffffffffff1673ffffffffffffffffffffffffffffffffffffffff166108fc829081150290604051600060405180830381858888f193505050501580156116e4573d6000803e3d6000fd5b50601c60008a815260200190815260200160002060009054906101000a900460ff161561174957611748601a60008b815260200190815260200160002060009054906101000a900473ffffffffffffffffffffffffffffffffffffffff168a612a4d565b5b600196505b50505050505092915050565b60008060009054906101000a900473ffffffffffffffffffffffffffffffffffffffff1673ffffffffffffffffffffffffffffffffffffffff163373ffffffffffffffffffffffffffffffffffffffff1614806118045750600160009054906101000a900473ffffffffffffffffffffffffffffffffffffffff1673ffffffffffffffffffffffffffffffffffffffff163373ffffffffffffffffffffffffffffffffffffffff16145b8061185c5750600260009054906101000a900473ffffffffffffffffffffffffffffffffffffffff1673ffffffffffffffffffffffffffffffffffffffff163373ffffffffffffffffffffffffffffffffffffffff16145b151561186757600080fd5b600b548281151561187457fe5b04601754101580156118b35750600073ffffffffffffffffffffffffffffffffffffffff163373ffffffffffffffffffffffffffffffffffffffff1614155b15156118be57600080fd5b6224ea0060115442031115156118d357600080fd5b600b54828115156118e057fe5b049050806017600082825403925050819055506000809054906101000a900473ffffffffffffffffffffffffffffffffffffffff1673ffffffffffffffffffffffffffffffffffffffff166108fc839081150290604051600060405180830381858888f1935050505015801561195a573d6000803e3d6000fd5b507fd48887bcc2a5aaef98868f8bedd50521b340a45d6e86efebd58baa6999af7b0e6006548360175460405180848152602001838152602001828152602001935050505060405180910390a15050565b601e6020528060005260406000206000915090505481565b601a6020528060005260406000206000915054906101000a900473ffffffffffffffffffffffffffffffffffffffff1681565b6000809054906101000a900473ffffffffffffffffffffffffffffffffffffffff1673ffffffffffffffffffffffffffffffffffffffff163373ffffffffffffffffffffffffffffffffffffffff161480611a9d5750600160009054906101000a900473ffffffffffffffffffffffffffffffffffffffff1673ffffffffffffffffffffffffffffffffffffffff163373ffffffffffffffffffffffffffffffffffffffff16145b80611af55750600260009054906101000a900473ffffffffffffffffffffffffffffffffffffffff1673ffffffffffffffffffffffffffffffffffffffff163373ffffffffffffffffffffffffffffffffffffffff16145b1515611b0057600080fd5b80600160006101000a81548173ffffffffffffffffffffffffffffffffffffffff021916908373ffffffffffffffffffffffffffffffffffffffff16021790555050565b600160009054906101000a900473ffffffffffffffffffffffffffffffffffffffff1681565b600080600e543410158015611bac5750600073ffffffffffffffffffffffffffffffffffffffff163373ffffffffffffffffffffffffffffffffffffffff1614155b1515611bb757600080fd5b339150600b5434811515611bc757fe5b049050611bd48282612c0e565b5050565b60055481565b600080600080601d600086815260200190815260200160002060009054906101000a900473ffffffffffffffffffffffffffffffffffffffff16600b54601e60008881526020019081526020016000205402601f600088815260200190815260200160002054600b54602060008a8152602001908152602001600020540293509350935093509193509193565b601b6020528060005260406000206000915090505481565b6000806060806000806000806000975060009650600854604051908082528060200260200182016040528015611cc85781602001602082028038833980820191505090505b509550600854604051908082528060200260200182016040528015611cfc5781602001602082028038833980820191505090505b509450600a5493506006549250600091505b600854821015611e1957602060008381526020019081526020016000205490506000811415611d3c57611e0c565b600b5481029750808403935060006020600084815260200190815260200160002081905550601d600083815260200190815260200160002060009054906101000a900473ffffffffffffffffffffffffffffffffffffffff1673ffffffffffffffffffffffffffffffffffffffff166108fc899081150290604051600060405180830381858888f193505050509650808683815181101515611dda57fe5b9060200190602002018181525050868583815181101515611df757fe5b90602001906020020190151590811515815250505b8180600101925050611d0e565b7f14b3d47a87c0295a98c8ded85c2248706b54bdedbf32615f84f97c3454068859836009548888604051808581526020018481526020018060200180602001838103835285818151815260200191508051906020019060200280838360005b83811015611e93578082015181840152602081019050611e78565b50505050905001838103825284818151815260200191508051906020019060200280838360005b83811015611ed5578082015181840152602081019050611eba565b50505050905001965050505050505060405180910390a183600a819055505050505050505050565b600f60009054906101000a900460ff1681565b60008060009054906101000a900473ffffffffffffffffffffffffffffffffffffffff1673ffffffffffffffffffffffffffffffffffffffff163373ffffffffffffffffffffffffffffffffffffffff161480611fba5750600160009054906101000a900473ffffffffffffffffffffffffffffffffffffffff1673ffffffffffffffffffffffffffffffffffffffff163373ffffffffffffffffffffffffffffffffffffffff16145b806120125750600260009054906101000a900473ffffffffffffffffffffffffffffffffffffffff1673ffffffffffffffffffffffffffffffffffffffff163373ffffffffffffffffffffffffffffffffffffffff16145b151561201d57600080fd5b60003411801561205a5750600073ffffffffffffffffffffffffffffffffffffffff163373ffffffffffffffffffffffffffffffffffffffff1614155b151561206557600080fd5b600b543481151561207257fe5b0490506000600f60006101000a81548160ff02191690831515021790555080600960008282540192505081905550806003600082825401925050819055507fff15f48523095ee9271df1297c161f0fde1b4406fbf0995e6418b94059ace83b6006548260095460405180848152602001838152602001828152602001935050505060405180910390a16121053382612c61565b50565b6000809054906101000a900473ffffffffffffffffffffffffffffffffffffffff1673ffffffffffffffffffffffffffffffffffffffff163373ffffffffffffffffffffffffffffffffffffffff1614806121b05750600160009054906101000a900473ffffffffffffffffffffffffffffffffffffffff1673ffffffffffffffffffffffffffffffffffffffff163373ffffffffffffffffffffffffffffffffffffffff16145b806122085750600260009054906101000a900473ffffffffffffffffffffffffffffffffffffffff1673ffffffffffffffffffffffffffffffffffffffff163373ffffffffffffffffffffffffffffffffffffffff16145b151561221357600080fd5b6000341180156122505750600073ffffffffffffffffffffffffffffffffffffffff163373ffffffffffffffffffffffffffffffffffffffff1614155b151561225b57600080fd5b600b543481151561226857fe5b046017600082825401925050819055507fd48887bcc2a5aaef98868f8bedd50521b340a45d6e86efebd58baa6999af7b0e6006543460175460405180848152602001838152602001828152602001935050505060405180910390a1565b6000806000806000806060600454600554601854600b54600c5402600b54600d5402600e54606060405190810160405280602981526020017f546f20676574207265616c2070657263656e746167657320646976696465207481526020017f68656d20746f2031300000000000000000000000000000000000000000000000815250965096509650965096509650965090919293949596565b601f6020528060005260406000206000915090505481565b60035481565b60095481565b600d5481565b60185481565b600260009054906101000a900473ffffffffffffffffffffffffffffffffffffffff1681565b6000809054906101000a900473ffffffffffffffffffffffffffffffffffffffff1673ffffffffffffffffffffffffffffffffffffffff163373ffffffffffffffffffffffffffffffffffffffff16148061245c5750600160009054906101000a900473ffffffffffffffffffffffffffffffffffffffff1673ffffffffffffffffffffffffffffffffffffffff163373ffffffffffffffffffffffffffffffffffffffff16145b806124b45750600260009054906101000a900473ffffffffffffffffffffffffffffffffffffffff1673ffffffffffffffffffffffffffffffffffffffff163373ffffffffffffffffffffffffffffffffffffffff16145b15156124bf57600080fd5b80600260006101000a81548173ffffffffffffffffffffffffffffffffffffffff021916908373ffffffffffffffffffffffffffffffffffffffff16021790555050565b6000600b5460175402905090565b60008060085483108015612538575060006020600085815260200190815260200160002054115b151561254357600080fd5b600b5460206000858152602001908152602001600020540291506020600084815260200190815260200160002054600a6000828254039250508190555060006020600085815260200190815260200160002081905550601d600084815260200190815260200160002060009054906101000a900473ffffffffffffffffffffffffffffffffffffffff1673ffffffffffffffffffffffffffffffffffffffff166108fc839081150290604051600060405180830381858888f1935050505090507fc33b37f0c5204dfeac3abe6172c8d211f0942d058c8a7552fdebf8c85916248960065460095485858560405180868152602001858152602001848152602001838152602001821515151581526020019550505050505060405180910390a1505050565b6000600b54600a5402905090565b601d6020528060005260406000206000915054906101000a900473ffffffffffffffffffffffffffffffffffffffff1681565b60115481565b6000600b5460095402905090565b6000601954600143034041446040516020018085815260200184600019166000191681526020018373ffffffffffffffffffffffffffffffffffffffff1673ffffffffffffffffffffffffffffffffffffffff166c010000000000000000000000000281526014018281526020019450505050506040516020818303038152906040526040518082805190602001908083835b602083101515612774578051825260208201915060208101905060208303925061274f565b6001836020036101000a038019825116818451168082178552505050505050905001915050604051809103902060019004601981905550816019548115156127b857fe5b069050919050565b60008060046127cf60446126bc565b0190508060f0603c60f086018115156127e457fe5b0460020a018115156127f257fe5b066048039150612800612f80565b6128098261302b565b915060048210612819578161281c565b60045b915050919050565b60006008831415612839576103e890506128c5565b600c83141561284c5761038490506128c5565b601983141561285f5761032090506128c5565b6025831415612872576102bc90506128c5565b602a8314156128855761025890506128c5565b6033831415612898576101f490506128c5565b603f8314806128a75750604183145b806128b25750604383145b156128c15761019090506128c5565b8190505b92915050565b60006060600080600093506008546040519080825280602002602001820160405280156129075781602001602082028038833980820191505090505b509250600191505b6008548210156129a1576103e8601f600084815260200190815260200160002054860281151561293b57fe5b0490508060206000848152602001908152602001600020600082825401925050819055506020600083815260200190815260200160002054838381518110151561298157fe5b90602001906020020181815250508084019350818060010192505061290f565b83850360206000808152602001908152602001600020600082825401925050819055507f9b8b5015db6b2f620b1d9ca95023504627f3453c91d5cd3557ba1c430cee128f600654846040518083815260200180602001828103825283818151815260200191508051906020019060200280838360005b83811015612a32578082015181840152602081019050612a17565b50505050905001935050505060405180910390a15050505050565b6000606060008092506007604051908082528060200260200182016040528015612a865781602001602082028038833980820191505090505b509150612a97600143034086613094565b80935081945050507fbb618c4af24ebf37a4b34854f40bbd95ba523c8092375b37b67c85022b5af36660065485846040518084815260200183815260200180602001828103825283818151815260200191508051906020019060200280838360005b83811015612b14578082015181840152602081019050612af9565b5050505090500194505050505060405180910390a18215612c07577ff3fb0f5343e993ec9dfd5368586cce1283dca34c5447edc9c03c6d42340f2d306006548587601754604051808581526020018481526020018373ffffffffffffffffffffffffffffffffffffffff1673ffffffffffffffffffffffffffffffffffffffff16815260200182815260200194505050505060405180910390a1600b5460175402905060006017819055508473ffffffffffffffffffffffffffffffffffffffff166108fc829081150290604051600060405180830381858888f19350505050158015612c05573d6000803e3d6000fd5b505b5050505050565b8060035401600354108015612c2857508060095401600954105b1515612c3357600080fd5b8060036000828254019250508190555080600960008282540192505081905550612c5d8282612c61565b5050565b6000806000606060008094506001935060009250600160085401604051908082528060200260200182016040528015612ca95781602001602082028038833980820191505090505b509150600090505b600854811015612db0578673ffffffffffffffffffffffffffffffffffffffff16601d600083815260200190815260200160002060009054906101000a900473ffffffffffffffffffffffffffffffffffffffff1673ffffffffffffffffffffffffffffffffffffffff161415612d4b578094506000935085601e6000838152602001908152602001600020600082825401925050819055505b612d6c601e6000838152602001908152602001600020546003546003613258565b925082601f600083815260200190815260200160002081905550828282815181101515612d9557fe5b90602001906020020181815250508080600101915050612cb1565b8315612ea7576010546008541115612dc757600080fd5b612dd5866003546003613258565b9250600854945086601d600087815260200190815260200160002060006101000a81548173ffffffffffffffffffffffffffffffffffffffff021916908373ffffffffffffffffffffffffffffffffffffffff16021790555085601e60008781526020019081526020016000208190555082601f60008781526020019081526020016000208190555060006020600087815260200190815260200160002081905550828286815181101515612e8657fe5b90602001906020020181815250506008600081548092919060010191905055505b7f8c2b229de510efab100f3041df2ed106f4f48881054faf277b558e2543e791fb600654600954878a8a87604051808781526020018681526020018581526020018473ffffffffffffffffffffffffffffffffffffffff1673ffffffffffffffffffffffffffffffffffffffff16815260200183815260200180602001828103825283818151815260200191508051906020019060200280838360005b83811015612f5f578082015181840152602081019050612f44565b5050505090500197505050505050505060405180910390a150505050505050565b60006012544203905060145481118015612f9c57506003601354105b1561302857601360008154809291906001019190505550600a601560008282540192505081905550600a601660008282540392505081905550426012819055507f15eaaf925ea566066f332c8b3fe2c51dba4b4182f213b1f4d8105e39aa9374436006548260135460405180848152602001838152602001828152602001935050505060405180910390a15b50565b600080600161303a606e6126bc565b019050600160135411801561305c5750600060098281151561305857fe5b0614155b1561308a5760165483111561307557601654915061308e565b60155483101561308957601554915061308e565b5b8291505b50919050565b6000606080600080600080600080600060076040519080825280602002602001820160405280156130d45781602001602082028038833980820191505090505b5097508b8b6130e46103e76126bc565b6040516020018084600019166000191681526020018373ffffffffffffffffffffffffffffffffffffffff1673ffffffffffffffffffffffffffffffffffffffff166c0100000000000000000000000002815260140182815260200193505050506040516020818303038152906040526040518082805190602001908083835b6020831015156131895780518252602082019150602081019050602083039250613164565b6001836020036101000a0380198251168184511680821785525050505050509050019150506040518091039020965060019550600094505b6007851015613243576131d460016126bc565b850193506131e28785613291565b92506131ef8360046132d6565b91508160ff1690506009811115613207578060100390505b80888681518110151561321657fe5b906020019060200201818152505060078260ff1614151561323657600095505b84806001019550506131c1565b85889950995050505050505050509250929050565b600080600060018401600a0a86029150600a6005868481151561327757fe5b040181151561328257fe5b04905080925050509392505050565b6000600882601f030260020a83600190048115156132ab57fe5b047f010000000000000000000000000000000000000000000000000000000000000002905092915050565b6000808260ff16600260ff160a60ff16847f0100000000000000000000000000000000000000000000000000000000000000900460ff1681151561331657fe5b06905080915050929150505600a165627a7a723058202ae08bfda18c1e95ea50ed234c3c90fb8af97621ca70533cabb4833089d9d7d60029",
  "source": "\n\ncontract Owned {\n    address public aOwner;\n    address public coOwner1;\n    address public coOwner2;\n\n    constructor() public {\n        aOwner = msg.sender;\n        coOwner1 = msg.sender;\n        coOwner2 = msg.sender;\n    }\n\n    \n    modifier onlyOwner {\n        require(msg.sender == aOwner || msg.sender == coOwner1 || msg.sender == coOwner2);\n        _;\n    }\n\n    function setCoOwner1(address _coOwner) public onlyOwner {\n      coOwner1 = _coOwner;\n    }\n\n    function setCoOwner2(address _coOwner) public onlyOwner {\n      coOwner2 = _coOwner;\n    }\n}\n\n\ncontract XEther is Owned {\n    \n    uint256 public totalInvestmentAmount = 0;\n    uint256 public ownerFeePercent = 50; \n    uint256 public investorsFeePercent = 130; \n\n    uint256 public curIteration = 1;\n\n    uint256 public depositsCount = 0;\n    uint256 public investorsCount = 1;\n\n    uint256 public bankAmount = 0;\n    uint256 public feeAmount = 0;\n\n    uint256 public toGwei = 1000000000; \n    uint256 public minDepositAmount = 20000000; \n    uint256 public minLotteryAmount = 100000000; \n    uint256 public minInvestmentAmount = 5 ether; \n\n    bool public isWipeAllowed = true; \n    uint256 public investorsCountLimit = 7; \n    uint256 public lastTransaction = now;\n\n    \n    uint256 private stageStartTime = now;\n    uint private currentStage = 1;\n    uint private stageTime = 86400; \n    uint private stageMin = 0;\n    uint private stageMax = 72;\n\n    \n    uint256 public jackpotBalance = 0;\n    uint256 public jackpotPercent = 20; \n\n    uint256 _seed;\n\n    \n    mapping(uint256 => address) public depContractidToAddress;\n    mapping(uint256 => uint256) public depContractidToAmount;\n    mapping(uint256 => bool) public depContractidToLottery;\n\n    \n    mapping(uint256 => address) public investorsAddress;\n    mapping(uint256 => uint256) public investorsInvested;\n    mapping(uint256 => uint256) public investorsComissionPercent;\n    mapping(uint256 => uint256) public investorsEarned;\n\n    \n    event EvDebug (\n        uint amount\n    );\n\n    \n    event EvNewDeposit (\n        uint256 iteration,\n        uint256 bankAmount,\n        uint256 index,\n        address sender,\n        uint256 amount,\n        uint256 multiplier,\n        uint256 time\n    );\n\n    \n    event EvNewInvestment (\n        uint256 iteration,\n        uint256 bankAmount,\n        uint256 index,\n        address sender,\n        uint256 amount,\n        uint256[] investorsFee\n    );\n\n    \n    event EvInvestorsComission (\n        uint256 iteration,\n        uint256[] investorsComission\n    );\n\n    \n    event EvUpdateBankAmount (\n        uint256 iteration,\n        uint256 deposited,\n        uint256 balance\n    );\n\n    \n    event EvDepositPayout (\n        uint256 iteration,\n        uint256 bankAmount,\n        uint256 index,\n        address receiver,\n        uint256 amount,\n        uint256 fee,\n        uint256 jackpotBalance\n    );\n\n    \n    event EvNewIteration (\n        uint256 iteration\n    );\n\n    \n    event EvBankBecomeEmpty (\n        uint256 iteration,\n        uint256 index,\n        address receiver,\n        uint256 payoutAmount,\n        uint256 bankAmount\n    );\n\n    \n    event EvInvestorPayout (\n        uint256 iteration,\n        uint256 bankAmount,\n        uint256 index,\n        uint256 amount,\n        bool status\n    );\n\n    \n    event EvInvestorsPayout (\n        uint256 iteration,\n        uint256 bankAmount,\n        uint256[] payouts,\n        bool[] statuses\n    );\n\n    \n    event EvStageChanged (\n        uint256 iteration,\n        uint timeDiff,\n        uint stage\n    );\n\n    \n    event EvLotteryWin (\n        uint256 iteration,\n        uint256 contractId,\n        address winer,\n        uint256 amount\n    );\n\n    \n    event EvConfimAddress (\n        address sender,\n        bytes16 code\n    );\n\n    \n    event EvLotteryNumbers (\n        uint256 iteration,\n        uint256 index,\n        uint256[] lotteryNumbers\n    );\n\n    \n    event EvUpdateJackpot (\n        uint256 iteration,\n        uint256 amount,\n        uint256 balance\n    );\n\n    \n    constructor() public {\n        investorsAddress[0] = aOwner;\n        investorsInvested[0] = 0;\n        investorsComissionPercent[0] = 0;\n        investorsEarned[0] = 0;\n    }\n\n    \n    function() public payable {\n        require(msg.value > 0 && msg.sender != address(0));\n\n        uint256 amount = msg.value / toGwei; \n\n        if (amount >= minDepositAmount) {\n            lastTransaction = block.timestamp;\n            newDeposit(msg.sender, amount);\n        }\n        else {\n            bankAmount += amount;\n        }\n    }\n\n    function newIteration() public onlyOwner {\n        require(isWipeAllowed);\n\n        payoutInvestors();\n\n        investorsInvested[0] = 0;\n        investorsCount = 1;\n\n        totalInvestmentAmount = 0;\n        bankAmount = 0;\n        feeAmount = 0;\n        depositsCount = 0;\n\n        \n        currentStage = 1;\n        stageStartTime = now;\n        stageMin = 0;\n        stageMax = 72;\n\n        curIteration += 1;\n\n        emit EvNewIteration(curIteration);\n\n        uint256 realBalance = address(this).balance - (jackpotBalance * toGwei);\n        if (realBalance > 0) {\n          aOwner.transfer(realBalance);\n        }\n    }\n\n    function updateBankAmount() public onlyOwner payable {\n        require(msg.value > 0 && msg.sender != address(0));\n\n        uint256 amount = msg.value / toGwei;\n\n        isWipeAllowed = false;\n\n        bankAmount += amount;\n        totalInvestmentAmount += amount;\n\n        emit EvUpdateBankAmount(curIteration, amount, bankAmount);\n\n        recalcInvestorsFee(msg.sender, amount);\n    }\n\n    function newInvestment() public payable {\n        require(msg.value >= minInvestmentAmount && msg.sender != address(0));\n\n        address sender = msg.sender;\n        uint256 investmentAmount = msg.value / toGwei; \n\n        addInvestment(sender, investmentAmount);\n    }\n\n    \n    function depositPayout(uint depositIndex, uint pAmount) public onlyOwner returns(bool) {\n        require(depositIndex < depositsCount && depositIndex >= 0 && depContractidToAmount[depositIndex] > 0);\n        require(pAmount <= 5);\n\n        uint256 payoutAmount = depContractidToAmount[depositIndex];\n        payoutAmount += (payoutAmount * pAmount) / 100;\n\n        if (payoutAmount > bankAmount) {\n            isWipeAllowed = true;\n            \n            emit EvBankBecomeEmpty(curIteration, depositIndex, depContractidToAddress[depositIndex], payoutAmount, bankAmount);\n            return false;\n        }\n\n        uint256 ownerComission = (payoutAmount * ownerFeePercent) / 1000;\n        investorsEarned[0] += ownerComission;\n\n        uint256 addToJackpot = (payoutAmount * jackpotPercent) / 1000;\n        jackpotBalance += addToJackpot;\n\n        uint256 investorsComission = (payoutAmount * investorsFeePercent) / 1000;\n\n        uint256 payoutComission = ownerComission + addToJackpot + investorsComission;\n\n        uint256 paymentAmount = payoutAmount - payoutComission;\n\n        bankAmount -= payoutAmount;\n        feeAmount += ownerComission + investorsComission;\n\n        emit EvDepositPayout(curIteration, bankAmount, depositIndex, depContractidToAddress[depositIndex], paymentAmount, payoutComission, jackpotBalance);\n\n        updateInvestorsComission(investorsComission);\n\n        depContractidToAmount[depositIndex] = 0;\n\n        paymentAmount *= toGwei; \n        depContractidToAddress[depositIndex].transfer(paymentAmount);\n\n        if (depContractidToLottery[depositIndex]) {\n            lottery(depContractidToAddress[depositIndex], depositIndex);\n        }\n\n        return true;\n    }\n\n    \n    function payoutInvestors() public {\n        uint256 paymentAmount = 0;\n        bool isSuccess = false;\n\n        uint256[] memory payouts = new uint256[](investorsCount);\n        bool[] memory statuses = new bool[](investorsCount);\n\n        uint256 mFeeAmount = feeAmount;\n        uint256 iteration = curIteration;\n\n        for (uint256 i = 0; i < investorsCount; i++) {\n            uint256 iEarned = investorsEarned[i];\n            if (iEarned == 0) {\n                continue;\n            }\n            paymentAmount = iEarned * toGwei; \n\n            mFeeAmount -= iEarned;\n            investorsEarned[i] = 0;\n\n            isSuccess = investorsAddress[i].send(paymentAmount);\n            payouts[i] = iEarned;\n            statuses[i] = isSuccess;\n\n\n        }\n        emit EvInvestorsPayout(iteration, bankAmount, payouts, statuses);\n\n        feeAmount = mFeeAmount;\n    }\n\n    \n    function payoutInvestor(uint256 investorId) public {\n        require (investorId < investorsCount && investorsEarned[investorId] > 0);\n\n        uint256 paymentAmount = investorsEarned[investorId] * toGwei; \n        feeAmount -= investorsEarned[investorId];\n        investorsEarned[investorId] = 0;\n\n        bool isSuccess = investorsAddress[investorId].send(paymentAmount);\n\n        emit EvInvestorPayout(curIteration, bankAmount, investorId, paymentAmount, isSuccess);\n    }\n\n    \n    function confirmAddress(bytes16 code) public {\n        emit EvConfimAddress(msg.sender, code);\n    }\n\n    \n    function depositInfo(uint256 contractId) view public returns(address _address, uint256 _amount, bool _participateInLottery) {\n      return (depContractidToAddress[contractId], depContractidToAmount[contractId] * toGwei, depContractidToLottery[contractId]);\n    }\n\n    \n    function investorInfo(uint256 contractId) view public returns(\n        address _address, uint256 _invested, uint256 _comissionPercent, uint256 earned\n    )\n    {\n      return (investorsAddress[contractId], investorsInvested[contractId] * toGwei,\n        investorsComissionPercent[contractId], investorsEarned[contractId] * toGwei);\n    }\n\n    function showBankAmount() view public returns(uint256 _bankAmount) {\n      return bankAmount * toGwei;\n    }\n\n    function showInvestorsComission() view public returns(uint256 _investorsComission) {\n      return feeAmount * toGwei;\n    }\n\n    function showJackpotBalance() view public returns(uint256 _jackpotBalance) {\n      return jackpotBalance * toGwei;\n    }\n\n    function showStats() view public returns(\n        uint256 _ownerFeePercent, uint256 _investorsFeePercent, uint256 _jackpotPercent,\n        uint256 _minDepositAmount, uint256 _minLotteryAmount,uint256 _minInvestmentAmount,\n        string info\n      )\n    {\n      return (ownerFeePercent, investorsFeePercent, jackpotPercent,\n        minDepositAmount * toGwei, minLotteryAmount * toGwei, minInvestmentAmount,\n        'To get real percentages divide them to 10');\n    }\n\n    \n    function updateJackpotBalance() public onlyOwner payable {\n        require(msg.value > 0 && msg.sender != address(0));\n        jackpotBalance += msg.value / toGwei;\n        emit EvUpdateJackpot(curIteration, msg.value, jackpotBalance);\n    }\n\n    \n    function withdrawJackpotBalance(uint amount) public onlyOwner {\n        require(jackpotBalance >= amount / toGwei && msg.sender != address(0));\n        \n        require(now - lastTransaction > 4 weeks);\n\n        uint256 tmpJP = amount / toGwei;\n        jackpotBalance -= tmpJP;\n\n        \n        aOwner.transfer(amount);\n        emit EvUpdateJackpot(curIteration, amount, jackpotBalance);\n    }\n\n    \n    function newDeposit(address _address, uint depositAmount) private {\n        uint256 randMulti = random(100) + 200;\n        uint256 rndX = random(1480);\n        uint256 _time = getRandomTime(rndX);\n\n        \n        randMulti = checkForBonuses(rndX, randMulti);\n\n        uint256 contractid = depositsCount;\n\n        depContractidToAddress[contractid] = _address;\n        depContractidToAmount[contractid] = (depositAmount * randMulti) / 100;\n        depContractidToLottery[contractid] = depositAmount >= minLotteryAmount;\n\n        depositsCount++;\n\n        bankAmount += depositAmount;\n\n        emit EvNewDeposit(curIteration, bankAmount, contractid, _address, depositAmount, randMulti, _time);\n    }\n\n    function addInvestment(address sender, uint256 investmentAmount) private {\n        require( (totalInvestmentAmount < totalInvestmentAmount + investmentAmount) && (bankAmount < bankAmount + investmentAmount) );\n        totalInvestmentAmount += investmentAmount;\n        bankAmount += investmentAmount;\n\n        recalcInvestorsFee(sender, investmentAmount);\n    }\n\n    function recalcInvestorsFee(address sender, uint256 investmentAmount) private {\n        uint256 investorIndex = 0;\n        bool isNewInvestor = true;\n        uint256 investorFeePercent = 0;\n        uint256[] memory investorsFee = new uint256[](investorsCount+1);\n\n        for (uint256 i = 0; i < investorsCount; i++) {\n            if (investorsAddress[i] == sender) {\n                investorIndex = i;\n                isNewInvestor = false;\n                investorsInvested[i] += investmentAmount;\n            }\n\n            investorFeePercent = percent(investorsInvested[i], totalInvestmentAmount, 3);\n            investorsComissionPercent[i] = investorFeePercent;\n            investorsFee[i] = investorFeePercent;\n        }\n\n        if (isNewInvestor) {\n            if (investorsCount > investorsCountLimit) revert(); \n\n            investorFeePercent = percent(investmentAmount, totalInvestmentAmount, 3);\n            investorIndex = investorsCount;\n\n            investorsAddress[investorIndex] = sender;\n            investorsInvested[investorIndex] = investmentAmount;\n            investorsComissionPercent[investorIndex] = investorFeePercent;\n\n            investorsEarned[investorIndex] = 0;\n            investorsFee[investorIndex] = investorFeePercent;\n\n            investorsCount++;\n        }\n\n        emit EvNewInvestment(curIteration, bankAmount, investorIndex, sender, investmentAmount, investorsFee);\n    }\n\n    function updateInvestorsComission(uint256 amount) private {\n        uint256 investorsTotalIncome = 0;\n        uint256[] memory investorsComission = new uint256[](investorsCount);\n\n        for (uint256 i = 1; i < investorsCount; i++) {\n            uint256 investorIncome = (amount * investorsComissionPercent[i]) / 1000;\n\n            investorsEarned[i] += investorIncome;\n            investorsComission[i] = investorsEarned[i];\n\n            investorsTotalIncome += investorIncome;\n        }\n\n        investorsEarned[0] += amount - investorsTotalIncome;\n\n        emit EvInvestorsComission(curIteration, investorsComission);\n    }\n\n    function percent(uint numerator, uint denominator, uint precision) private pure returns(uint quotient) {\n        uint _numerator = numerator * 10 ** (precision+1);\n        uint _quotient = ((_numerator / denominator) + 5) / 10;\n\n        return (_quotient);\n    }\n\n    function random(uint numMax) private returns (uint256 result) {\n        _seed = uint256(keccak256(abi.encodePacked(\n            _seed,\n            blockhash(block.number - 1),\n            block.coinbase,\n            block.difficulty\n        )));\n\n        return _seed % numMax;\n    }\n\n    function getRandomTime(uint num) private returns (uint256 result) {\n        uint rndHours = random(68) + 4;\n        result = 72 - (2 ** ((num + 240) / 60) + 240) % rndHours;\n        checkStageCondition();\n        result = numStageRecalc(result);\n\n        return (result < 4) ? 4 : result;\n    }\n\n    function checkForBonuses(uint256 number, uint256 multiplier) private pure returns (uint256 newMultiplier) {\n        if (number == 8) return 1000;\n        if (number == 12) return 900;\n        if (number == 25) return 800;\n        if (number == 37) return 700;\n        if (number == 42) return 600;\n        if (number == 51) return 500;\n        if (number == 63 || number == 65 || number == 67) {\n            return 400;\n        }\n\n        return multiplier;\n    }\n\n    \n    function checkStageCondition() private {\n        uint timeDiff = now - stageStartTime;\n\n        if (timeDiff > stageTime && currentStage < 3) {\n            currentStage++;\n            stageMin += 10;\n            stageMax -= 10;\n            stageStartTime = now;\n            emit EvStageChanged(curIteration, timeDiff, currentStage);\n        }\n    }\n\n    \n    function numStageRecalc(uint256 curHours) private returns (uint256 result) {\n        uint chance = random(110) + 1;\n        if (currentStage > 1 && chance % 9 != 0) {\n            if (curHours > stageMax) return stageMax;\n            if (curHours < stageMin) return stageMin;\n        }\n\n        return curHours;\n    }\n\n    \n    function lottery(address sender, uint256 index) private {\n        bool lotteryWin = false;\n        uint256[] memory lotteryNumbers = new uint256[](7);\n\n        (lotteryWin, lotteryNumbers) = randomizerLottery(blockhash(block.number - 1), sender);\n\n        emit EvLotteryNumbers(curIteration, index, lotteryNumbers);\n\n        if (lotteryWin) {\n          emit EvLotteryWin(curIteration, index, sender, jackpotBalance);\n          uint256 tmpJP = jackpotBalance * toGwei; \n          jackpotBalance = 0;\n\n          \n          sender.transfer(tmpJP);\n        }\n    }\n\n    \n    function randomizerLottery(bytes32 hash, address sender) private returns(bool, uint256[] memory) {\n        uint256[] memory lotteryNumbers = new uint256[](7);\n        bytes32 userHash  = keccak256(abi.encodePacked(\n            hash,\n            sender,\n            random(999)\n        ));\n        bool win = true;\n\n        for (uint i = 0; i < 7; i++) {\n            uint position = i + random(1);\n            bytes1 charAtPos = charAt(userHash, position);\n            uint8 firstNums = getLastN(charAtPos, 4);\n            uint firstNumInt = uint(firstNums);\n\n            if (firstNumInt > 9) {\n                firstNumInt = 16 - firstNumInt;\n            }\n\n            lotteryNumbers[i] = firstNumInt;\n\n            if (firstNums != 7) {\n                win = false;\n            }\n        }\n\n        return (win, lotteryNumbers);\n    }\n\n    function charAt(bytes32 b, uint char) private pure returns (bytes1) {\n        return bytes1(uint8(uint(b) / (2**((31 - char) * 8))));\n    }\n\n    function getLastN(bytes1 a, uint8 n) private pure returns (uint8) {\n        uint8 lastN = uint8(a) % uint8(2) ** n;\n        return lastN;\n    }\n}",
  "sourcePath": "/home/XXX-1/smartrim-experiment/for-rlf/0xfee1f560e167cd3c55992c356e712d5ee8c33d49/contracts/0xfee1f560e167cd3c55992c356e712d5ee8c33d49.sol",
  "compiler": {
    "name": "solc",
    "version": "0.4.25+commit.59dbf8f1.Emscripten.clang"
  },
  "schemaVersion": "3.4.16",
  "updatedAt": "2025-08-14T03:44:11.162Z",
  "networkType": "ethereum",
  "devdoc": {
    "methods": {}
  },
  "userdoc": {
    "methods": {}
  }
}