{
  "contractName": "Crowdfunding",
  "abi": [
    {
      "constant": false,
      "inputs": [
        {
          "name": "_owner",
          "type": "address"
        }
      ],
      "name": "setOwner",
      "outputs": [],
      "payable": false,
      "stateMutability": "nonpayable",
      "type": "function"
    },
    {
      "constant": false,
      "inputs": [],
      "name": "withdraw",
      "outputs": [],
      "payable": false,
      "stateMutability": "nonpayable",
      "type": "function"
    },
    {
      "constant": true,
      "inputs": [],
      "name": "hammer",
      "outputs": [
        {
          "name": "",
          "type": "address"
        }
      ],
      "payable": false,
      "stateMutability": "view",
      "type": "function"
    },
    {
      "constant": false,
      "inputs": [],
      "name": "refund",
      "outputs": [],
      "payable": false,
      "stateMutability": "nonpayable",
      "type": "function"
    },
    {
      "constant": true,
      "inputs": [],
      "name": "config",
      "outputs": [
        {
          "name": "startBlock",
          "type": "uint256"
        },
        {
          "name": "stopBlock",
          "type": "uint256"
        },
        {
          "name": "minValue",
          "type": "uint256"
        },
        {
          "name": "maxValue",
          "type": "uint256"
        },
        {
          "name": "bountyScale",
          "type": "uint256"
        },
        {
          "name": "startRatio",
          "type": "uint256"
        },
        {
          "name": "reductionStep",
          "type": "uint256"
        },
        {
          "name": "reductionValue",
          "type": "uint256"
        }
      ],
      "payable": false,
      "stateMutability": "view",
      "type": "function"
    },
    {
      "constant": false,
      "inputs": [],
      "name": "destroy",
      "outputs": [],
      "payable": false,
      "stateMutability": "nonpayable",
      "type": "function"
    },
    {
      "constant": true,
      "inputs": [
        {
          "name": "_value",
          "type": "uint256"
        },
        {
          "name": "_block",
          "type": "uint256"
        }
      ],
      "name": "bountyValue",
      "outputs": [
        {
          "name": "",
          "type": "uint256"
        }
      ],
      "payable": false,
      "stateMutability": "view",
      "type": "function"
    },
    {
      "constant": true,
      "inputs": [],
      "name": "owner",
      "outputs": [
        {
          "name": "",
          "type": "address"
        }
      ],
      "payable": false,
      "stateMutability": "view",
      "type": "function"
    },
    {
      "constant": false,
      "inputs": [
        {
          "name": "_from",
          "type": "address"
        },
        {
          "name": "_value",
          "type": "uint256"
        },
        {
          "name": "_token",
          "type": "address"
        },
        {
          "name": "_extraData",
          "type": "bytes"
        }
      ],
      "name": "receiveApproval",
      "outputs": [],
      "payable": false,
      "stateMutability": "nonpayable",
      "type": "function"
    },
    {
      "constant": true,
      "inputs": [],
      "name": "bounty",
      "outputs": [
        {
          "name": "",
          "type": "address"
        }
      ],
      "payable": false,
      "stateMutability": "view",
      "type": "function"
    },
    {
      "constant": true,
      "inputs": [],
      "name": "totalFunded",
      "outputs": [
        {
          "name": "",
          "type": "uint256"
        }
      ],
      "payable": false,
      "stateMutability": "view",
      "type": "function"
    },
    {
      "constant": true,
      "inputs": [],
      "name": "fund",
      "outputs": [
        {
          "name": "",
          "type": "address"
        }
      ],
      "payable": false,
      "stateMutability": "view",
      "type": "function"
    },
    {
      "constant": true,
      "inputs": [],
      "name": "reference",
      "outputs": [
        {
          "name": "",
          "type": "string"
        }
      ],
      "payable": false,
      "stateMutability": "view",
      "type": "function"
    },
    {
      "constant": true,
      "inputs": [
        {
          "name": "",
          "type": "address"
        }
      ],
      "name": "donations",
      "outputs": [
        {
          "name": "",
          "type": "uint256"
        }
      ],
      "payable": false,
      "stateMutability": "view",
      "type": "function"
    },
    {
      "constant": false,
      "inputs": [
        {
          "name": "_hammer",
          "type": "address"
        }
      ],
      "name": "setHammer",
      "outputs": [],
      "payable": false,
      "stateMutability": "nonpayable",
      "type": "function"
    },
    {
      "inputs": [],
      "payable": false,
      "stateMutability": "nonpayable",
      "type": "constructor"
    },
    {
      "payable": true,
      "stateMutability": "payable",
      "type": "fallback"
    },
    {
      "anonymous": false,
      "inputs": [
        {
          "indexed": true,
          "name": "sender",
          "type": "address"
        },
        {
          "indexed": true,
          "name": "amount",
          "type": "uint256"
        }
      ],
      "name": "ReceivedEther",
      "type": "event"
    },
    {
      "anonymous": false,
      "inputs": [
        {
          "indexed": true,
          "name": "from",
          "type": "address"
        },
        {
          "indexed": true,
          "name": "value",
          "type": "uint256"
        },
        {
          "indexed": true,
          "name": "token",
          "type": "address"
        },
        {
          "indexed": false,
          "name": "extraData",
          "type": "bytes"
        }
      ],
      "name": "ReceivedTokens",
      "type": "event"
    }
  ],
  "bytecode": "0x608060405234801561001057600080fd5b50610123806040805190810160405280600381526020017f726c660000000000000000000000000000000000000000000000000000000000815250604e80604e80604e80604e80336000806101000a81548173ffffffffffffffffffffffffffffffffffffffff021916908373ffffffffffffffffffffffffffffffffffffffff16021790555033600160006101000a81548173ffffffffffffffffffffffffffffffffffffffff021916908373ffffffffffffffffffffffffffffffffffffffff1602179055508a600260006101000a81548173ffffffffffffffffffffffffffffffffffffffff021916908373ffffffffffffffffffffffffffffffffffffffff16021790555089600360006101000a81548173ffffffffffffffffffffffffffffffffffffffff021916908373ffffffffffffffffffffffffffffffffffffffff16021790555088600690805190602001906101709291906101d0565b50876007600001819055508660076001018190555085600760020181905550846007600301819055508360076004018190555082600760050181905550816007600601819055508060078001819055505050505050505050505050610275565b828054600181600116156101000203166002900490600052602060002090601f016020900481019282601f1061021157805160ff191683800117855561023f565b8280016001018555821561023f579182015b8281111561023e578251825591602001919060010190610223565b5b50905061024c9190610250565b5090565b61027291905b8082111561026e576000816000905550600101610256565b5090565b90565b610d92806102846000396000f3006080604052600436106100db576000357c0100000000000000000000000000000000000000000000000000000000900463ffffffff16806313af4035146103735780633ccfd60b146103b6578063457f4d41146103cd578063590e1ae31461042457806379502c551461043b57806383197ef014610497578063890814f8146104ae5780638da5cb5b146104f95780638f4ffcb114610550578063943dfef114610603578063ad044f491461065a578063b60d428814610685578063c65d15b9146106dc578063cc6cb19a1461076c578063d31fdffd146107c3575b60008060076003015434600554011080156100fa575060076000015443115b801561010a575060076001015443105b905080151561011857600080fd5b343373ffffffffffffffffffffffffffffffffffffffff167fa419615bc8fda4c87663805ee2a3597a6d71c1d476911d9892f340d965bc7bf160405160405180910390a33460056000828254019250508190555034600460003373ffffffffffffffffffffffffffffffffffffffff1673ffffffffffffffffffffffffffffffffffffffff168152602001908152602001600020600082825401925050819055506101c33443610806565b9150600360009054906101000a900473ffffffffffffffffffffffffffffffffffffffff1673ffffffffffffffffffffffffffffffffffffffff166358292a3d836040518263ffffffff167c010000000000000000000000000000000000000000000000000000000002815260040180828152602001915050600060405180830381600087803b15801561025657600080fd5b505af115801561026a573d6000803e3d6000fd5b50505050600360009054906101000a900473ffffffffffffffffffffffffffffffffffffffff1673ffffffffffffffffffffffffffffffffffffffff1663a9059cbb33846040518363ffffffff167c0100000000000000000000000000000000000000000000000000000000028152600401808373ffffffffffffffffffffffffffffffffffffffff1673ffffffffffffffffffffffffffffffffffffffff16815260200182815260200192505050602060405180830381600087803b15801561033357600080fd5b505af1158015610347573d6000803e3d6000fd5b505050506040513d602081101561035d57600080fd5b8101908080519060200190929190505050505050005b34801561037f57600080fd5b506103b4600480360381019080803573ffffffffffffffffffffffffffffffffffffffff169060200190929190505050610888565b005b3480156103c257600080fd5b506103cb610926565b005b3480156103d957600080fd5b506103e26109cd565b604051808273ffffffffffffffffffffffffffffffffffffffff1673ffffffffffffffffffffffffffffffffffffffff16815260200191505060405180910390f35b34801561043057600080fd5b506104396109f3565b005b34801561044757600080fd5b50610450610ae9565b604051808981526020018881526020018781526020018681526020018581526020018481526020018381526020018281526020019850505050505050505060405180910390f35b3480156104a357600080fd5b506104ac610b1f565b005b3480156104ba57600080fd5b506104e36004803603810190808035906020019092919080359060200190929190505050610806565b6040518082815260200191505060405180910390f35b34801561050557600080fd5b5061050e610b94565b604051808273ffffffffffffffffffffffffffffffffffffffff1673ffffffffffffffffffffffffffffffffffffffff16815260200191505060405180910390f35b34801561055c57600080fd5b50610601600480360381019080803573ffffffffffffffffffffffffffffffffffffffff16906020019092919080359060200190929190803573ffffffffffffffffffffffffffffffffffffffff169060200190929190803590602001908201803590602001908080601f0160208091040260200160405190810160405280939291908181526020018383808284378201915050505050509192919290505050610bb9565b005b34801561060f57600080fd5b50610618610bbe565b604051808273ffffffffffffffffffffffffffffffffffffffff1673ffffffffffffffffffffffffffffffffffffffff16815260200191505060405180910390f35b34801561066657600080fd5b5061066f610be4565b6040518082815260200191505060405180910390f35b34801561069157600080fd5b5061069a610bea565b604051808273ffffffffffffffffffffffffffffffffffffffff1673ffffffffffffffffffffffffffffffffffffffff16815260200191505060405180910390f35b3480156106e857600080fd5b506106f1610c10565b6040518080602001828103825283818151815260200191508051906020019080838360005b83811015610731578082015181840152602081019050610716565b50505050905090810190601f16801561075e5780820380516001836020036101000a031916815260200191505b509250505060405180910390f35b34801561077857600080fd5b506107ad600480360381019080803573ffffffffffffffffffffffffffffffffffffffff169060200190929190505050610cae565b6040518082815260200191505060405180910390f35b3480156107cf57600080fd5b50610804600480360381019080803573ffffffffffffffffffffffffffffffffffffffff169060200190929190505050610cc6565b005b600080600080600080600760000154871080610826575060076001015487115b15610834576000955061087d565b60076005015494506007600001549350600760060154925060078001549150818385890381151561086157fe5b04028503905060076004015481890281151561087957fe5b0495505b505050505092915050565b6000809054906101000a900473ffffffffffffffffffffffffffffffffffffffff1673ffffffffffffffffffffffffffffffffffffffff163373ffffffffffffffffffffffffffffffffffffffff161415156108e357600080fd5b806000806101000a81548173ffffffffffffffffffffffffffffffffffffffff021916908373ffffffffffffffffffffffffffffffffffffffff16021790555050565b600060076002015460055410158015610943575060076001015443115b905080151561095157600080fd5b600260009054906101000a900473ffffffffffffffffffffffffffffffffffffffff1673ffffffffffffffffffffffffffffffffffffffff166108fc3073ffffffffffffffffffffffffffffffffffffffff16319081150290604051600060405180830381858888f1935050505015156109ca57600080fd5b50565b600160009054906101000a900473ffffffffffffffffffffffffffffffffffffffff1681565b600080600760020154600554108015610a10575060076001015443115b9050801515610a1e57600080fd5b600460003373ffffffffffffffffffffffffffffffffffffffff1673ffffffffffffffffffffffffffffffffffffffff1681526020019081526020016000205491506000600460003373ffffffffffffffffffffffffffffffffffffffff1673ffffffffffffffffffffffffffffffffffffffff168152602001908152602001600020819055503373ffffffffffffffffffffffffffffffffffffffff166108fc839081150290604051600060405180830381858888f193505050501515610ae557600080fd5b5050565b60078060000154908060010154908060020154908060030154908060040154908060050154908060060154908060070154905088565b600160009054906101000a900473ffffffffffffffffffffffffffffffffffffffff1673ffffffffffffffffffffffffffffffffffffffff163373ffffffffffffffffffffffffffffffffffffffff16141515610b7b57600080fd5b3373ffffffffffffffffffffffffffffffffffffffff16ff5b6000809054906101000a900473ffffffffffffffffffffffffffffffffffffffff1681565b600080fd5b600360009054906101000a900473ffffffffffffffffffffffffffffffffffffffff1681565b60055481565b600260009054906101000a900473ffffffffffffffffffffffffffffffffffffffff1681565b60068054600181600116156101000203166002900480601f016020809104026020016040519081016040528092919081815260200182805460018160011615610100020316600290048015610ca65780601f10610c7b57610100808354040283529160200191610ca6565b820191906000526020600020905b815481529060010190602001808311610c8957829003601f168201915b505050505081565b60046020528060005260406000206000915090505481565b600160009054906101000a900473ffffffffffffffffffffffffffffffffffffffff1673ffffffffffffffffffffffffffffffffffffffff163373ffffffffffffffffffffffffffffffffffffffff16141515610d2257600080fd5b80600160006101000a81548173ffffffffffffffffffffffffffffffffffffffff021916908373ffffffffffffffffffffffffffffffffffffffff160217905550505600a165627a7a72305820e7eda320823f646cc5066dd866491c1f8a6468849d246efea6b86d15f5b67aa50029",
  "source": "\n\n\ncontract Owned {\n    \n    address public owner;\n\n    \n    function setOwner(address _owner) onlyOwner\n    { owner = _owner; }\n\n    \n    modifier onlyOwner { if (msg.sender != owner) throw; _; }\n}\n\n\ncontract Destroyable {\n    address public hammer;\n\n    \n    function setHammer(address _hammer) onlyHammer\n    { hammer = _hammer; }\n\n    \n    function destroy() onlyHammer\n    { suicide(msg.sender); }\n\n    \n    modifier onlyHammer { if (msg.sender != hammer) throw; _; }\n}\n\n\ncontract Object is Owned, Destroyable {\n    function Object() {\n        owner  = msg.sender;\n        hammer = msg.sender;\n    }\n}\n\n\n\ncontract ERC20 \n{\n\n    \n    uint256 public totalSupply;\n\n    \n    \n    function balanceOf(address _owner) constant returns (uint256);\n\n    \n    \n    \n    \n    function transfer(address _to, uint256 _value) returns (bool);\n\n    \n    \n    \n    \n    \n    function transferFrom(address _from, address _to, uint256 _value) returns (bool);\n\n    \n    \n    \n    \n    function approve(address _spender, uint256 _value) returns (bool);\n\n    \n    \n    \n    function allowance(address _owner, address _spender) constant returns (uint256);\n\n\n    event Transfer(address indexed _from, address indexed _to, uint256 _value);\n    event Approval(address indexed _owner, address indexed _spender, uint256 _value);\n}\n\n\ncontract Token is Object, ERC20 {\n    \n    string public name;\n    string public symbol;\n\n    \n    uint public totalSupply;\n\n    \n    uint8 public decimals;\n    \n    \n    mapping(address => uint) balances;\n    mapping(address => mapping(address => uint)) allowances;\n \n    \n    function balanceOf(address _owner) constant returns (uint256)\n    { return balances[_owner]; }\n \n    \n    function allowance(address _owner, address _spender) constant returns (uint256)\n    { return allowances[_owner][_spender]; }\n\n    \n    function Token(string _name, string _symbol, uint8 _decimals, uint _count) {\n        name        = _name;\n        symbol      = _symbol;\n        decimals    = _decimals;\n        totalSupply = _count;\n        balances[msg.sender] = _count;\n    }\n \n    \n    function transfer(address _to, uint _value) returns (bool) {\n        if (balances[msg.sender] >= _value) {\n            balances[msg.sender] -= _value;\n            balances[_to]        += _value;\n            Transfer(msg.sender, _to, _value);\n            return true;\n        }\n        return false;\n    }\n\n    \n    function transferFrom(address _from, address _to, uint256 _value) returns (bool) {\n        var avail = allowances[_from][msg.sender]\n                  > balances[_from] ? balances[_from]\n                                    : allowances[_from][msg.sender];\n        if (avail >= _value) {\n            allowances[_from][msg.sender] -= _value;\n            balances[_from] -= _value;\n            balances[_to]   += _value;\n            Transfer(_from, _to, _value);\n            return true;\n        }\n        return false;\n    }\n\n    \n    function approve(address _spender, uint256 _value) returns (bool) {\n        allowances[msg.sender][_spender] += _value;\n        Approval(msg.sender, _spender, _value);\n        return true;\n    }\n\n    \n    function unapprove(address _spender)\n    { allowances[msg.sender][_spender] = 0; }\n}\n\ncontract TokenEmission is Token {\n    function TokenEmission(string _name, string _symbol, uint8 _decimals,\n                           uint _start_count)\n             Token(_name, _symbol, _decimals, _start_count)\n    {}\n\n    \n    function emission(uint _value) onlyOwner {\n        \n        if (_value + totalSupply < totalSupply) throw;\n\n        totalSupply     += _value;\n        balances[owner] += _value;\n    }\n \n    \n    function burn(uint _value) {\n        if (balances[msg.sender] >= _value) {\n            balances[msg.sender] -= _value;\n            totalSupply      -= _value;\n        }\n    }\n}\n\n\ncontract Recipient {\n    \n    event ReceivedEther(address indexed sender,\n                        uint256 indexed amount);\n\n    \n    event ReceivedTokens(address indexed from,\n                         uint256 indexed value,\n                         address indexed token,\n                         bytes extraData);\n\n    \n    function receiveApproval(address _from, uint256 _value,\n                             ERC20 _token, bytes _extraData) {\n        if (!_token.transferFrom(_from, this, _value)) throw;\n        ReceivedTokens(_from, _value, _token, _extraData);\n    }\n\n    \n    function () payable\n    { ReceivedEther(msg.sender, msg.value); }\n}\n\n\ncontract Crowdfunding_1 is Object, Recipient {\n    \n    address public fund;\n\n    \n    TokenEmission public bounty;\n    \n    \n    mapping(address => uint256) public donations;\n\n    \n    uint256 public totalFunded;\n\n    \n    string public reference;\n\n    \n    Params public config;\n\n    struct Params {\n        \n        uint256 startBlock;\n        uint256 stopBlock;\n\n        \n        uint256 minValue;\n        uint256 maxValue;\n        \n        \n        uint256 bountyScale;\n        uint256 startRatio;\n        uint256 reductionStep;\n        uint256 reductionValue;\n    }\n\n    \n    function bountyValue(uint256 _value, uint256 _block) constant returns (uint256) {\n        if (_block < config.startBlock || _block > config.stopBlock)\n            return 0;\n\n        var R = config.startRatio;\n        var B = config.startBlock;\n        var S = config.reductionStep;\n        var V = config.reductionValue;\n        uint256 ratio = R - (_block - B) / S * V; \n        return _value * ratio / config.bountyScale; \n    }\n\n    \n    modifier onlyRunning {\n        bool isRunning = totalFunded + msg.value  < config.maxValue\n                      && block.number > config.startBlock\n                      && block.number < config.stopBlock;\n        if (!isRunning) throw;\n        _;\n    }\n\n    \n    modifier onlyFailure {\n        bool isFailure = totalFunded  < config.minValue\n                      && block.number > config.stopBlock;\n        if (!isFailure) throw;\n        _;\n    }\n\n    \n    modifier onlySuccess {\n        bool isSuccess = totalFunded >= config.minValue\n                      && block.number > config.stopBlock;\n        if (!isSuccess) throw;\n        _;\n    }\n\n    \n    function Crowdfunding_1(\n        address _fund,\n        address _bounty,\n        string  _reference,\n        uint256 _startBlock,\n        uint256 _stopBlock,\n        uint256 _minValue,\n        uint256 _maxValue,\n        uint256 _scale,\n        uint256 _startRatio,\n        uint256 _reductionStep,\n        uint256 _reductionValue\n    ) {\n        fund      = _fund;\n        bounty    = TokenEmission(_bounty);\n        reference = _reference;\n\n        config.startBlock     = _startBlock;\n        config.stopBlock      = _stopBlock;\n        config.minValue       = _minValue;\n        config.maxValue       = _maxValue;\n        config.bountyScale    = _scale;\n        config.startRatio     = _startRatio;\n        config.reductionStep  = _reductionStep;\n        config.reductionValue = _reductionValue;\n    }\n\n    \n    function () payable onlyRunning {\n        ReceivedEther(msg.sender, msg.value);\n\n        totalFunded           += msg.value;\n        donations[msg.sender] += msg.value;\n\n        var bountyVal = bountyValue(msg.value, block.number);\n        bounty.emission(bountyVal);\n        bounty.transfer(msg.sender, bountyVal);\n    }\n\n    \n    function withdraw() onlySuccess\n    { if (!fund.send(this.balance)) throw; }\n\n    \n    function refund() onlyFailure {\n        var donation = donations[msg.sender];\n        donations[msg.sender] = 0;\n        if (!msg.sender.send(donation)) throw;\n    }\n\n    \n    function receiveApproval(address _from, uint256 _value,\n                             ERC20 _token, bytes _extraData)\n    { throw; }\n}\n    \ncontract Crowdfunding is Crowdfunding_1 {\n    constructor() Crowdfunding_1(address(0x123), address(0x123), \"rlf\", 78, 78, 78, 78, 78, 78, 78, 78) public { }\n}\n",
  "sourcePath": "/home/XXX-1/smartrim-experiment/for-rlf/0x399a40838258af0836cad506cc58bf7a40061ee0/contracts/0x399a40838258af0836cad506cc58bf7a40061ee0.sol",
  "compiler": {
    "name": "solc",
    "version": "0.4.25+commit.59dbf8f1.Emscripten.clang"
  },
  "schemaVersion": "3.4.16",
  "updatedAt": "2025-08-14T03:52:28.507Z",
  "networkType": "ethereum",
  "devdoc": {
    "methods": {}
  },
  "userdoc": {
    "methods": {}
  }
}