{
  "contractName": "EthGame",
  "abi": [
    {
      "constant": true,
      "inputs": [],
      "name": "JACKPOT_MODULO",
      "outputs": [
        {
          "name": "",
          "type": "uint256"
        }
      ],
      "payable": false,
      "stateMutability": "view",
      "type": "function"
    },
    {
      "constant": true,
      "inputs": [
        {
          "name": "reveal",
          "type": "uint256"
        }
      ],
      "name": "getBetInfoByReveal",
      "outputs": [
        {
          "name": "commit",
          "type": "bytes32"
        },
        {
          "name": "amount",
          "type": "uint256"
        },
        {
          "name": "modulo",
          "type": "uint8"
        },
        {
          "name": "rollUnder",
          "type": "uint8"
        },
        {
          "name": "placeBlockNumber",
          "type": "uint256"
        },
        {
          "name": "mask",
          "type": "uint256"
        },
        {
          "name": "gambler",
          "type": "address"
        }
      ],
      "payable": false,
      "stateMutability": "view",
      "type": "function"
    },
    {
      "constant": true,
      "inputs": [],
      "name": "MIN_JACKPOT_BET",
      "outputs": [
        {
          "name": "",
          "type": "uint256"
        }
      ],
      "payable": false,
      "stateMutability": "view",
      "type": "function"
    },
    {
      "constant": false,
      "inputs": [
        {
          "name": "o",
          "type": "address"
        }
      ],
      "name": "setWithdrawer",
      "outputs": [],
      "payable": false,
      "stateMutability": "nonpayable",
      "type": "function"
    },
    {
      "constant": false,
      "inputs": [
        {
          "name": "o",
          "type": "address"
        }
      ],
      "name": "setOwner1",
      "outputs": [],
      "payable": false,
      "stateMutability": "nonpayable",
      "type": "function"
    },
    {
      "constant": false,
      "inputs": [
        {
          "name": "betMask",
          "type": "uint256"
        },
        {
          "name": "modulo",
          "type": "uint256"
        },
        {
          "name": "commitLastBlock",
          "type": "uint256"
        },
        {
          "name": "commit",
          "type": "uint256"
        },
        {
          "name": "r",
          "type": "bytes32"
        },
        {
          "name": "s",
          "type": "bytes32"
        },
        {
          "name": "source",
          "type": "uint256"
        }
      ],
      "name": "placeBet",
      "outputs": [],
      "payable": true,
      "stateMutability": "payable",
      "type": "function"
    },
    {
      "constant": false,
      "inputs": [],
      "name": "kill",
      "outputs": [],
      "payable": false,
      "stateMutability": "nonpayable",
      "type": "function"
    },
    {
      "constant": true,
      "inputs": [],
      "name": "secretSigner",
      "outputs": [
        {
          "name": "",
          "type": "address"
        }
      ],
      "payable": false,
      "stateMutability": "view",
      "type": "function"
    },
    {
      "constant": true,
      "inputs": [],
      "name": "owner2",
      "outputs": [
        {
          "name": "",
          "type": "address"
        }
      ],
      "payable": false,
      "stateMutability": "view",
      "type": "function"
    },
    {
      "constant": true,
      "inputs": [],
      "name": "HOUSE_EDGE_OF_TEN_THOUSAND",
      "outputs": [
        {
          "name": "",
          "type": "uint256"
        }
      ],
      "payable": false,
      "stateMutability": "view",
      "type": "function"
    },
    {
      "constant": true,
      "inputs": [],
      "name": "jackpotSize",
      "outputs": [
        {
          "name": "",
          "type": "uint128"
        }
      ],
      "payable": false,
      "stateMutability": "view",
      "type": "function"
    },
    {
      "constant": false,
      "inputs": [
        {
          "name": "o",
          "type": "address"
        }
      ],
      "name": "setOwner2",
      "outputs": [],
      "payable": false,
      "stateMutability": "nonpayable",
      "type": "function"
    },
    {
      "constant": false,
      "inputs": [
        {
          "name": "_maxProfit",
          "type": "uint128"
        }
      ],
      "name": "setMaxProfit",
      "outputs": [],
      "payable": false,
      "stateMutability": "nonpayable",
      "type": "function"
    },
    {
      "constant": true,
      "inputs": [],
      "name": "croupier",
      "outputs": [
        {
          "name": "",
          "type": "address"
        }
      ],
      "payable": false,
      "stateMutability": "view",
      "type": "function"
    },
    {
      "constant": true,
      "inputs": [],
      "name": "owner1",
      "outputs": [
        {
          "name": "",
          "type": "address"
        }
      ],
      "payable": false,
      "stateMutability": "view",
      "type": "function"
    },
    {
      "constant": true,
      "inputs": [],
      "name": "stopped",
      "outputs": [
        {
          "name": "",
          "type": "bool"
        }
      ],
      "payable": false,
      "stateMutability": "view",
      "type": "function"
    },
    {
      "constant": true,
      "inputs": [
        {
          "name": "commit",
          "type": "uint256"
        }
      ],
      "name": "getBetInfo",
      "outputs": [
        {
          "name": "amount",
          "type": "uint256"
        },
        {
          "name": "modulo",
          "type": "uint8"
        },
        {
          "name": "rollUnder",
          "type": "uint8"
        },
        {
          "name": "placeBlockNumber",
          "type": "uint256"
        },
        {
          "name": "mask",
          "type": "uint256"
        },
        {
          "name": "gambler",
          "type": "address"
        }
      ],
      "payable": false,
      "stateMutability": "view",
      "type": "function"
    },
    {
      "constant": true,
      "inputs": [],
      "name": "maxProfit",
      "outputs": [
        {
          "name": "",
          "type": "uint128"
        }
      ],
      "payable": false,
      "stateMutability": "view",
      "type": "function"
    },
    {
      "constant": true,
      "inputs": [],
      "name": "HOUSE_EDGE_MINIMUM_AMOUNT",
      "outputs": [
        {
          "name": "",
          "type": "uint256"
        }
      ],
      "payable": false,
      "stateMutability": "view",
      "type": "function"
    },
    {
      "constant": true,
      "inputs": [],
      "name": "JACKPOT_FEE",
      "outputs": [
        {
          "name": "",
          "type": "uint256"
        }
      ],
      "payable": false,
      "stateMutability": "view",
      "type": "function"
    },
    {
      "constant": false,
      "inputs": [
        {
          "name": "beneficiary",
          "type": "address"
        },
        {
          "name": "withdrawAmount",
          "type": "uint256"
        }
      ],
      "name": "withdrawFunds",
      "outputs": [],
      "payable": false,
      "stateMutability": "nonpayable",
      "type": "function"
    },
    {
      "constant": false,
      "inputs": [
        {
          "name": "destruct",
          "type": "bool"
        }
      ],
      "name": "stop",
      "outputs": [],
      "payable": false,
      "stateMutability": "nonpayable",
      "type": "function"
    },
    {
      "constant": false,
      "inputs": [
        {
          "name": "reveal",
          "type": "uint256"
        },
        {
          "name": "blockHash",
          "type": "bytes32"
        }
      ],
      "name": "settleBet",
      "outputs": [],
      "payable": false,
      "stateMutability": "nonpayable",
      "type": "function"
    },
    {
      "constant": true,
      "inputs": [],
      "name": "withdrawer",
      "outputs": [
        {
          "name": "",
          "type": "address"
        }
      ],
      "payable": false,
      "stateMutability": "view",
      "type": "function"
    },
    {
      "constant": false,
      "inputs": [
        {
          "name": "increaseAmount",
          "type": "uint256"
        }
      ],
      "name": "increaseJackpot",
      "outputs": [],
      "payable": false,
      "stateMutability": "nonpayable",
      "type": "function"
    },
    {
      "constant": false,
      "inputs": [
        {
          "name": "newSecretSigner",
          "type": "address"
        }
      ],
      "name": "setSecretSigner",
      "outputs": [],
      "payable": false,
      "stateMutability": "nonpayable",
      "type": "function"
    },
    {
      "constant": true,
      "inputs": [],
      "name": "lockedInBets",
      "outputs": [
        {
          "name": "",
          "type": "uint128"
        }
      ],
      "payable": false,
      "stateMutability": "view",
      "type": "function"
    },
    {
      "constant": false,
      "inputs": [
        {
          "name": "commit",
          "type": "uint256"
        }
      ],
      "name": "refundBet",
      "outputs": [],
      "payable": false,
      "stateMutability": "nonpayable",
      "type": "function"
    },
    {
      "constant": false,
      "inputs": [
        {
          "name": "newCroupier",
          "type": "address"
        }
      ],
      "name": "setCroupier",
      "outputs": [],
      "payable": false,
      "stateMutability": "nonpayable",
      "type": "function"
    },
    {
      "inputs": [],
      "payable": false,
      "stateMutability": "nonpayable",
      "type": "constructor"
    },
    {
      "payable": true,
      "stateMutability": "payable",
      "type": "fallback"
    },
    {
      "anonymous": false,
      "inputs": [
        {
          "indexed": true,
          "name": "beneficiary",
          "type": "address"
        },
        {
          "indexed": false,
          "name": "amount",
          "type": "uint256"
        },
        {
          "indexed": false,
          "name": "commit",
          "type": "uint256"
        }
      ],
      "name": "FailedPayment",
      "type": "event"
    },
    {
      "anonymous": false,
      "inputs": [
        {
          "indexed": true,
          "name": "beneficiary",
          "type": "address"
        },
        {
          "indexed": false,
          "name": "amount",
          "type": "uint256"
        },
        {
          "indexed": false,
          "name": "commit",
          "type": "uint256"
        }
      ],
      "name": "Payment",
      "type": "event"
    },
    {
      "anonymous": false,
      "inputs": [
        {
          "indexed": true,
          "name": "beneficiary",
          "type": "address"
        },
        {
          "indexed": false,
          "name": "amount",
          "type": "uint256"
        },
        {
          "indexed": false,
          "name": "commit",
          "type": "uint256"
        }
      ],
      "name": "JackpotPayment",
      "type": "event"
    },
    {
      "anonymous": false,
      "inputs": [
        {
          "indexed": false,
          "name": "commit",
          "type": "uint256"
        },
        {
          "indexed": false,
          "name": "source",
          "type": "uint256"
        }
      ],
      "name": "Commit",
      "type": "event"
    }
  ],
  "bytecode": "0x608060405234801561001057600080fd5b506101238061012380610123604e856000806101000a81548173ffffffffffffffffffffffffffffffffffffffff021916908373ffffffffffffffffffffffffffffffffffffffff16021790555084600160006101000a81548173ffffffffffffffffffffffffffffffffffffffff021916908373ffffffffffffffffffffffffffffffffffffffff16021790555083600260006101000a81548173ffffffffffffffffffffffffffffffffffffffff021916908373ffffffffffffffffffffffffffffffffffffffff16021790555082600460006101000a81548173ffffffffffffffffffffffffffffffffffffffff021916908373ffffffffffffffffffffffffffffffffffffffff16021790555081600760006101000a81548173ffffffffffffffffffffffffffffffffffffffff021916908373ffffffffffffffffffffffffffffffffffffffff160217905550693f870857a3e0e3800000816fffffffffffffffffffffffffffffffff1610151561021b576040517f08c379a00000000000000000000000000000000000000000000000000000000081526004018080602001828103825260228152602001807f6d617850726f6669742073686f756c6420626520612073616e65206e756d626581526020017f722e00000000000000000000000000000000000000000000000000000000000081525060400191505060405180910390fd5b80600360006101000a8154816fffffffffffffffffffffffffffffffff02191690836fffffffffffffffffffffffffffffffff1602179055506000600360106101000a81548160ff02191690831515021790555050505050505061408180620002856000396000f300608060405260043610610175576000357c0100000000000000000000000000000000000000000000000000000000900463ffffffff16806301f60217146101ff578063072201341461022a5780630cf9349d146102d55780630d174c24146103005780631b58062014610343578063403a0a781461038657806341c0e1b5146103ea5780634d61537f146104015780635270972514610458578063537af6c4146104af57806357246d23146104da5780635825884f146105295780635f7bb7f11461056c5780636b5c5f39146105ab578063736889141461060257806375f12b211461065957806379141f8014610688578063b539cd5514610724578063bcce604014610773578063bf020f611461079e578063c1075329146107c9578063c15a483f14610816578063ca722cdc14610845578063cdc1842414610880578063d6d30a51146108d7578063d702087f14610904578063df88126f14610947578063e1fdb4b414610996578063f8bb201c146109c3575b600260009054906101000a900473ffffffffffffffffffffffffffffffffffffffff1673ffffffffffffffffffffffffffffffffffffffff163373ffffffffffffffffffffffffffffffffffffffff1614156101fd576101fc600260009054906101000a900473ffffffffffffffffffffffffffffffffffffffff16346064340201610a06565b5b005b34801561020b57600080fd5b50610214610d47565b6040518082815260200191505060405180910390f35b34801561023657600080fd5b5061025560048036038101908080359060200190929190505050610d4d565b6040518088600019166000191681526020018781526020018660ff1660ff1681526020018560ff1660ff1681526020018481526020018381526020018273ffffffffffffffffffffffffffffffffffffffff1673ffffffffffffffffffffffffffffffffffffffff16815260200197505050505050505060405180910390f35b3480156102e157600080fd5b506102ea610e0c565b6040518082815260200191505060405180910390f35b34801561030c57600080fd5b50610341600480360381019080803573ffffffffffffffffffffffffffffffffffffffff169060200190929190505050610e18565b005b34801561034f57600080fd5b50610384600480360381019080803573ffffffffffffffffffffffffffffffffffffffff169060200190929190505050611038565b005b6103e86004803603810190808035906020019092919080359060200190929190803590602001909291908035906020019092919080356000191690602001909291908035600019169060200190929190803590602001909291905050506112b3565b005b3480156103f657600080fd5b506103ff611e9a565b005b34801561040d57600080fd5b506104166121a7565b604051808273ffffffffffffffffffffffffffffffffffffffff1673ffffffffffffffffffffffffffffffffffffffff16815260200191505060405180910390f35b34801561046457600080fd5b5061046d6121cd565b604051808273ffffffffffffffffffffffffffffffffffffffff1673ffffffffffffffffffffffffffffffffffffffff16815260200191505060405180910390f35b3480156104bb57600080fd5b506104c46121f3565b6040518082815260200191505060405180910390f35b3480156104e657600080fd5b506104ef6121f8565b60405180826fffffffffffffffffffffffffffffffff166fffffffffffffffffffffffffffffffff16815260200191505060405180910390f35b34801561053557600080fd5b5061056a600480360381019080803573ffffffffffffffffffffffffffffffffffffffff16906020019092919050505061221a565b005b34801561057857600080fd5b506105a960048036038101908080356fffffffffffffffffffffffffffffffff169060200190929190505050612496565b005b3480156105b757600080fd5b506105c06126ce565b604051808273ffffffffffffffffffffffffffffffffffffffff1673ffffffffffffffffffffffffffffffffffffffff16815260200191505060405180910390f35b34801561060e57600080fd5b506106176126f4565b604051808273ffffffffffffffffffffffffffffffffffffffff1673ffffffffffffffffffffffffffffffffffffffff16815260200191505060405180910390f35b34801561066557600080fd5b5061066e612719565b604051808215151515815260200191505060405180910390f35b34801561069457600080fd5b506106b36004803603810190808035906020019092919050505061272c565b604051808781526020018660ff1660ff1681526020018560ff1660ff1681526020018481526020018381526020018273ffffffffffffffffffffffffffffffffffffffff1673ffffffffffffffffffffffffffffffffffffffff168152602001965050505050505060405180910390f35b34801561073057600080fd5b50610739612838565b60405180826fffffffffffffffffffffffffffffffff166fffffffffffffffffffffffffffffffff16815260200191505060405180910390f35b34801561077f57600080fd5b5061078861285a565b6040518082815260200191505060405180910390f35b3480156107aa57600080fd5b506107b3612865565b6040518082815260200191505060405180910390f35b3480156107d557600080fd5b50610814600480360381019080803573ffffffffffffffffffffffffffffffffffffffff16906020019092919080359060200190929190505050610a06565b005b34801561082257600080fd5b50610843600480360381019080803515159060200190929190505050612870565b005b34801561085157600080fd5b5061087e600480360381019080803590602001909291908035600019169060200190929190505050612b84565b005b34801561088c57600080fd5b50610895612f01565b604051808273ffffffffffffffffffffffffffffffffffffffff1673ffffffffffffffffffffffffffffffffffffffff16815260200191505060405180910390f35b3480156108e357600080fd5b5061090260048036038101908080359060200190929190505050612f27565b005b34801561091057600080fd5b50610945600480360381019080803573ffffffffffffffffffffffffffffffffffffffff16906020019092919050505061325d565b005b34801561095357600080fd5b5061095c6133e4565b60405180826fffffffffffffffffffffffffffffffff166fffffffffffffffffffffffffffffffff16815260200191505060405180910390f35b3480156109a257600080fd5b506109c160048036038101908080359060200190929190505050613406565b005b3480156109cf57600080fd5b50610a04600480360381019080803573ffffffffffffffffffffffffffffffffffffffff169060200190929190505050613735565b005b6000809054906101000a900473ffffffffffffffffffffffffffffffffffffffff1673ffffffffffffffffffffffffffffffffffffffff163373ffffffffffffffffffffffffffffffffffffffff161480610aae5750600160009054906101000a900473ffffffffffffffffffffffffffffffffffffffff1673ffffffffffffffffffffffffffffffffffffffff163373ffffffffffffffffffffffffffffffffffffffff16145b80610b065750600260009054906101000a900473ffffffffffffffffffffffffffffffffffffffff1673ffffffffffffffffffffffffffffffffffffffff163373ffffffffffffffffffffffffffffffffffffffff16145b1515610ba0576040517f08c379a00000000000000000000000000000000000000000000000000000000081526004018080602001828103825260308152602001807f6f6e6c7957697468647261776572206d6574686f64732063616c6c656420627981526020017f206e6f6e2d776974686472617765722e0000000000000000000000000000000081525060400191505060405180910390fd5b3073ffffffffffffffffffffffffffffffffffffffff16318111151515610c55576040517f08c379a00000000000000000000000000000000000000000000000000000000081526004018080602001828103825260248152602001807f576974686472617720616d6f756e74206c6172676572207468616e2062616c6181526020017f6e63652e0000000000000000000000000000000000000000000000000000000081525060400191505060405180910390fd5b3073ffffffffffffffffffffffffffffffffffffffff163181600560109054906101000a90046fffffffffffffffffffffffffffffffff16600560009054906101000a90046fffffffffffffffffffffffffffffffff16016fffffffffffffffffffffffffffffffff160111151515610d36576040517f08c379a00000000000000000000000000000000000000000000000000000000081526004018080602001828103825260118152602001807f4e6f7420656e6f7567682066756e64732e00000000000000000000000000000081525060200191505060405180910390fd5b610d4382828360006138bc565b5050565b6103e881565b600080600080600080600087604051602001808281526020019150506040516020818303038152906040526040518082805190602001908083835b602083101515610dad5780518252602082019150602081019050602083039250610d88565b6001836020036101000a03801982511681845116808217855250505050505090500191505060405180910390209650610de9876001900461272c565b809650819750829850839950849a50859b50505050505050919395979092949650565b67016345785d8a000081565b6000809054906101000a900473ffffffffffffffffffffffffffffffffffffffff1673ffffffffffffffffffffffffffffffffffffffff163373ffffffffffffffffffffffffffffffffffffffff161480610ec05750600160009054906101000a900473ffffffffffffffffffffffffffffffffffffffff1673ffffffffffffffffffffffffffffffffffffffff163373ffffffffffffffffffffffffffffffffffffffff16145b151515610f5b576040517f08c379a00000000000000000000000000000000000000000000000000000000081526004018080602001828103825260268152602001807f4f6e6c794f776e6572206d6574686f64732063616c6c6564206279206e6f6e2d81526020017f6f776e65722e000000000000000000000000000000000000000000000000000081525060400191505060405180910390fd5b600073ffffffffffffffffffffffffffffffffffffffff168173ffffffffffffffffffffffffffffffffffffffff1614151515610f9757600080fd5b600260009054906101000a900473ffffffffffffffffffffffffffffffffffffffff1673ffffffffffffffffffffffffffffffffffffffff168173ffffffffffffffffffffffffffffffffffffffff1614151515610ff457600080fd5b80600260006101000a81548173ffffffffffffffffffffffffffffffffffffffff021916908373ffffffffffffffffffffffffffffffffffffffff16021790555050565b6000809054906101000a900473ffffffffffffffffffffffffffffffffffffffff1673ffffffffffffffffffffffffffffffffffffffff163373ffffffffffffffffffffffffffffffffffffffff1614806110e05750600160009054906101000a900473ffffffffffffffffffffffffffffffffffffffff1673ffffffffffffffffffffffffffffffffffffffff163373ffffffffffffffffffffffffffffffffffffffff16145b15151561117b576040517f08c379a00000000000000000000000000000000000000000000000000000000081526004018080602001828103825260268152602001807f4f6e6c794f776e6572206d6574686f64732063616c6c6564206279206e6f6e2d81526020017f6f776e65722e000000000000000000000000000000000000000000000000000081525060400191505060405180910390fd5b600073ffffffffffffffffffffffffffffffffffffffff168173ffffffffffffffffffffffffffffffffffffffff16141515156111b757600080fd5b6000809054906101000a900473ffffffffffffffffffffffffffffffffffffffff1673ffffffffffffffffffffffffffffffffffffffff168173ffffffffffffffffffffffffffffffffffffffff161415151561121357600080fd5b600160009054906101000a900473ffffffffffffffffffffffffffffffffffffffff1673ffffffffffffffffffffffffffffffffffffffff168173ffffffffffffffffffffffffffffffffffffffff161415151561127057600080fd5b806000806101000a81548173ffffffffffffffffffffffffffffffffffffffff021916908373ffffffffffffffffffffffffffffffffffffffff16021790555050565b600080600080600080600360109054906101000a900460ff16151515611341576040517f08c379a000000000000000000000000000000000000000000000000000000000815260040180806020018281038252600f8152602001807f636f6e7472616374206b696c6c6564000000000000000000000000000000000081525060200191505060405180910390fd5b600660008b81526020019081526020016000209550600073ffffffffffffffffffffffffffffffffffffffff163373ffffffffffffffffffffffffffffffffffffffff16141580156113e35750600073ffffffffffffffffffffffffffffffffffffffff1686600001600c9054906101000a900473ffffffffffffffffffffffffffffffffffffffff1673ffffffffffffffffffffffffffffffffffffffff16145b151561147d576040517f08c379a00000000000000000000000000000000000000000000000000000000081526004018080602001828103825260218152602001807f4265742073686f756c6420626520696e20612027636c65616e2720737461746581526020017f2e0000000000000000000000000000000000000000000000000000000000000081525060400191505060405180910390fd5b60028c1015801561148f575060d88c11155b1515611503576040517f08c379a000000000000000000000000000000000000000000000000000000000815260040180806020018281038252601e8152602001807f4d6f64756c6f2073686f756c642062652077697468696e2072616e67652e000081525060200191505060405180910390fd5b662386f26fc1000034101580156115245750693f870857a3e0e38000003411155b1515611598576040517f08c379a000000000000000000000000000000000000000000000000000000000815260040180806020018281038252601e8152602001807f416d6f756e742073686f756c642062652077697468696e2072616e67652e000081525060200191505060405180910390fd5b60008d1180156115ab575060d860020a8d105b151561161f576040517f08c379a000000000000000000000000000000000000000000000000000000000815260040180806020018281038252601c8152602001807f4d61736b2073686f756c642062652077697468696e2072616e67652e0000000081525060200191505060405180910390fd5b8a4311151515611697576040517f08c379a00000000000000000000000000000000000000000000000000000000081526004018080602001828103825260138152602001807f436f6d6d69742068617320657870697265642e0000000000000000000000000081525060200191505060405180910390fd5b8a8a60405160200180838152602001828152602001925050506040516020818303038152906040526040518082805190602001908083835b6020831015156116f457805182526020820191506020810190506020830392506116cf565b6001836020036101000a03801982511681845116808217855250505050505090500191505060405180910390209450600185601b8b8b604051600081526020016040526040518085600019166000191681526020018460ff1681526020018360001916600019168152602001826000191660001916815260200194505050505060206040516020810390808403906000865af1158015611798573d6000803e3d6000fd5b5050506020604051035173ffffffffffffffffffffffffffffffffffffffff16600460009054906101000a900473ffffffffffffffffffffffffffffffffffffffff1673ffffffffffffffffffffffffffffffffffffffff16141515611866576040517f08c379a000000000000000000000000000000000000000000000000000000000815260040180806020018281038252601d8152602001807f4543445341207369676e6174757265206973206e6f742076616c69642e00000081525060200191505060405180910390fd5b60288c1115156118c457603f7e010410410410410410410410410410410410410410410410410410410410417920000000001000000000080000000004000000000200000000018f02168115156118b957fe5b0693508c9250611ada565b60026028028c1115156118e6576118dc8d60026139ae565b93508c9250611ad9565b60648c14156119a15760008d1180156118ff57508b8d11155b1515611999576040517f08c379a000000000000000000000000000000000000000000000000000000000815260040180806020018281038252602e8152602001807f48696768206d6f64756c6f2072616e67652c206265744d61736b206c6172676581526020017f72207468616e206d6f64756c6f2e00000000000000000000000000000000000081525060400191505060405180910390fd5b8c9350611ad8565b60036028028c1115156119c3576119b98d60036139ae565b93508c9250611ad7565b60046028028c1115156119e5576119db8d60046139ae565b93508c9250611ad6565b60056028028c111515611a07576119fd8d60056139ae565b93508c9250611ad5565b60d88c111515611a2657611a1c8d60066139ae565b93508c9250611ad4565b60008d118015611a3657508b8d11155b1515611ad0576040517f08c379a000000000000000000000000000000000000000000000000000000000815260040180806020018281038252602e8152602001807f48696768206d6f64756c6f2072616e67652c206265744d61736b206c6172676581526020017f72207468616e206d6f64756c6f2e00000000000000000000000000000000000081525060400191505060405180910390fd5b8c93505b5b5b5b5b5b5b611ae5348d86613a8a565b8092508193505050600360009054906101000a90046fffffffffffffffffffffffffffffffff166fffffffffffffffffffffffffffffffff1634018211151515611b97576040517f08c379a000000000000000000000000000000000000000000000000000000000815260040180806020018281038252601a8152602001807f6d617850726f666974206c696d69742076696f6c6174696f6e2e00000000000081525060200191505060405180910390fd5b81600560108282829054906101000a90046fffffffffffffffffffffffffffffffff160192506101000a8154816fffffffffffffffffffffffffffffffff02191690836fffffffffffffffffffffffffffffffff16021790555080600560008282829054906101000a90046fffffffffffffffffffffffffffffffff160192506101000a8154816fffffffffffffffffffffffffffffffff02191690836fffffffffffffffffffffffffffffffff1602179055503073ffffffffffffffffffffffffffffffffffffffff1631600560109054906101000a90046fffffffffffffffffffffffffffffffff16600560009054906101000a90046fffffffffffffffffffffffffffffffff16016fffffffffffffffffffffffffffffffff1611151515611d2a576040517f08c379a000000000000000000000000000000000000000000000000000000000815260040180806020018281038252601f8152602001807f43616e6e6f74206166666f726420746f206c6f73652074686973206265742e0081525060200191505060405180910390fd5b7facafc53544c2ca5cd4dbfda9282c25a35859f0d4ceb77a8275dca1660b1ed3ad8a88604051808381526020018281526020019250505060405180910390a1348660000160006101000a81548169ffffffffffffffffffff021916908369ffffffffffffffffffff1602179055508b86600001600a6101000a81548160ff021916908360ff1602179055508386600001600b6101000a81548160ff021916908360ff160217905550438660010160006101000a81548164ffffffffff021916908364ffffffffff160217905550828660010160056101000a8154817affffffffffffffffffffffffffffffffffffffffffffffffffffff02191690837affffffffffffffffffffffffffffffffffffffffffffffffffffff1602179055503386600001600c6101000a81548173ffffffffffffffffffffffffffffffffffffffff021916908373ffffffffffffffffffffffffffffffffffffffff16021790555050505050505050505050505050565b6000809054906101000a900473ffffffffffffffffffffffffffffffffffffffff1673ffffffffffffffffffffffffffffffffffffffff163373ffffffffffffffffffffffffffffffffffffffff161480611f425750600160009054906101000a900473ffffffffffffffffffffffffffffffffffffffff1673ffffffffffffffffffffffffffffffffffffffff163373ffffffffffffffffffffffffffffffffffffffff16145b151515611fdd576040517f08c379a00000000000000000000000000000000000000000000000000000000081526004018080602001828103825260268152602001807f4f6e6c794f776e6572206d6574686f64732063616c6c6564206279206e6f6e2d81526020017f6f776e65722e000000000000000000000000000000000000000000000000000081525060400191505060405180910390fd5b6000600560109054906101000a90046fffffffffffffffffffffffffffffffff166fffffffffffffffffffffffffffffffff161415156120d1576040517f08c379a00000000000000000000000000000000000000000000000000000000081526004018080602001828103825260488152602001807f416c6c20626574732073686f756c642062652070726f6365737365642028736581526020017f74746c6564206f7220726566756e64656429206265666f72652073656c662d6481526020017f657374727563742e00000000000000000000000000000000000000000000000081525060600191505060405180910390fd5b6001600360106101000a81548160ff0219169083151502179055506000600560006101000a8154816fffffffffffffffffffffffffffffffff02191690836fffffffffffffffffffffffffffffffff1602179055506000809054906101000a900473ffffffffffffffffffffffffffffffffffffffff1673ffffffffffffffffffffffffffffffffffffffff166108fc3073ffffffffffffffffffffffffffffffffffffffff16319081150290604051600060405180830381858888f193505050501580156121a4573d6000803e3d6000fd5b50565b600460009054906101000a900473ffffffffffffffffffffffffffffffffffffffff1681565b600160009054906101000a900473ffffffffffffffffffffffffffffffffffffffff1681565b606481565b600560009054906101000a90046fffffffffffffffffffffffffffffffff1681565b6000809054906101000a900473ffffffffffffffffffffffffffffffffffffffff1673ffffffffffffffffffffffffffffffffffffffff163373ffffffffffffffffffffffffffffffffffffffff1614806122c25750600160009054906101000a900473ffffffffffffffffffffffffffffffffffffffff1673ffffffffffffffffffffffffffffffffffffffff163373ffffffffffffffffffffffffffffffffffffffff16145b15151561235d576040517f08c379a00000000000000000000000000000000000000000000000000000000081526004018080602001828103825260268152602001807f4f6e6c794f776e6572206d6574686f64732063616c6c6564206279206e6f6e2d81526020017f6f776e65722e000000000000000000000000000000000000000000000000000081525060400191505060405180910390fd5b600073ffffffffffffffffffffffffffffffffffffffff168173ffffffffffffffffffffffffffffffffffffffff161415151561239957600080fd5b6000809054906101000a900473ffffffffffffffffffffffffffffffffffffffff1673ffffffffffffffffffffffffffffffffffffffff168173ffffffffffffffffffffffffffffffffffffffff16141515156123f557600080fd5b600160009054906101000a900473ffffffffffffffffffffffffffffffffffffffff1673ffffffffffffffffffffffffffffffffffffffff168173ffffffffffffffffffffffffffffffffffffffff161415151561245257600080fd5b80600160006101000a81548173ffffffffffffffffffffffffffffffffffffffff021916908373ffffffffffffffffffffffffffffffffffffffff16021790555050565b6000809054906101000a900473ffffffffffffffffffffffffffffffffffffffff1673ffffffffffffffffffffffffffffffffffffffff163373ffffffffffffffffffffffffffffffffffffffff16148061253e5750600160009054906101000a900473ffffffffffffffffffffffffffffffffffffffff1673ffffffffffffffffffffffffffffffffffffffff163373ffffffffffffffffffffffffffffffffffffffff16145b1515156125d9576040517f08c379a00000000000000000000000000000000000000000000000000000000081526004018080602001828103825260268152602001807f4f6e6c794f776e6572206d6574686f64732063616c6c6564206279206e6f6e2d81526020017f6f776e65722e000000000000000000000000000000000000000000000000000081525060400191505060405180910390fd5b693f870857a3e0e3800000816fffffffffffffffffffffffffffffffff16101515612692576040517f08c379a00000000000000000000000000000000000000000000000000000000081526004018080602001828103825260228152602001807f6d617850726f6669742073686f756c6420626520612073616e65206e756d626581526020017f722e00000000000000000000000000000000000000000000000000000000000081525060400191505060405180910390fd5b80600360006101000a8154816fffffffffffffffffffffffffffffffff02191690836fffffffffffffffffffffffffffffffff16021790555050565b600760009054906101000a900473ffffffffffffffffffffffffffffffffffffffff1681565b6000809054906101000a900473ffffffffffffffffffffffffffffffffffffffff1681565b600360109054906101000a900460ff1681565b60008060008060008060006006600089815260200190815260200160002090508060000160009054906101000a900469ffffffffffffffffffff1669ffffffffffffffffffff16965080600001600a9054906101000a900460ff16955080600001600b9054906101000a900460ff1694508060010160009054906101000a900464ffffffffff1664ffffffffff1693508060010160059054906101000a90047affffffffffffffffffffffffffffffffffffffffffffffffffffff167affffffffffffffffffffffffffffffffffffffffffffffffffffff16925080600001600c9054906101000a900473ffffffffffffffffffffffffffffffffffffffff1691505091939550919395565b600360009054906101000a90046fffffffffffffffffffffffffffffffff1681565b660110d9316ec00081565b66038d7ea4c6800081565b6000809054906101000a900473ffffffffffffffffffffffffffffffffffffffff1673ffffffffffffffffffffffffffffffffffffffff163373ffffffffffffffffffffffffffffffffffffffff1614806129185750600160009054906101000a900473ffffffffffffffffffffffffffffffffffffffff1673ffffffffffffffffffffffffffffffffffffffff163373ffffffffffffffffffffffffffffffffffffffff16145b1515156129b3576040517f08c379a00000000000000000000000000000000000000000000000000000000081526004018080602001828103825260268152602001807f4f6e6c794f776e6572206d6574686f64732063616c6c6564206279206e6f6e2d81526020017f6f776e65722e000000000000000000000000000000000000000000000000000081525060400191505060405180910390fd5b6000600560109054906101000a90046fffffffffffffffffffffffffffffffff166fffffffffffffffffffffffffffffffff16141515612aa7576040517f08c379a00000000000000000000000000000000000000000000000000000000081526004018080602001828103825260488152602001807f416c6c20626574732073686f756c642062652070726f6365737365642028736581526020017f74746c6564206f7220726566756e64656429206265666f72652073656c662d6481526020017f657374727563742e00000000000000000000000000000000000000000000000081525060600191505060405180910390fd5b8015612ae7576000809054906101000a900473ffffffffffffffffffffffffffffffffffffffff1673ffffffffffffffffffffffffffffffffffffffff16ff5b6001600360106101000a81548160ff0219169083151502179055506000809054906101000a900473ffffffffffffffffffffffffffffffffffffffff1673ffffffffffffffffffffffffffffffffffffffff166108fc3073ffffffffffffffffffffffffffffffffffffffff16319081150290604051600060405180830381858888f19350505050158015612b80573d6000803e3d6000fd5b5050565b6000806000600760009054906101000a900473ffffffffffffffffffffffffffffffffffffffff1673ffffffffffffffffffffffffffffffffffffffff163373ffffffffffffffffffffffffffffffffffffffff16141515612c74576040517f08c379a000000000000000000000000000000000000000000000000000000000815260040180806020018281038252602c8152602001807f4f6e6c7943726f7570696572206d6574686f64732063616c6c6564206279206e81526020017f6f6e2d63726f75706965722e000000000000000000000000000000000000000081525060400191505060405180910390fd5b84604051602001808281526020019150506040516020818303038152906040526040518082805190602001908083835b602083101515612cc95780518252602082019150602081019050602083039250612ca4565b6001836020036101000a03801982511681845116808217855250505050505090500191505060405180910390206001900492506006600084815260200190815260200160002091508160010160009054906101000a900464ffffffffff1664ffffffffff1690508043111515612dcd576040517f08c379a00000000000000000000000000000000000000000000000000000000081526004018080602001828103825260338152602001807f736574746c6542657420696e207468652073616d6520626c6f636b206173207081526020017f6c6163654265742c206f72206265666f72652e0000000000000000000000000081525060400191505060405180910390fd5b60fa81014311151515612e6e576040517f08c379a00000000000000000000000000000000000000000000000000000000081526004018080602001828103825260228152602001807f426c6f636b686173682063616e2774206265207175657269656420627920455681526020017f4d2e00000000000000000000000000000000000000000000000000000000000081525060400191505060405180910390fd5b8360001916814060001916141515612eee576040517f08c379a00000000000000000000000000000000000000000000000000000000081526004018080602001828103825260118152602001807f626c6f636b4861736820696e76616c696400000000000000000000000000000081525060200191505060405180910390fd5b612efa82868686613c1f565b5050505050565b600260009054906101000a900473ffffffffffffffffffffffffffffffffffffffff1681565b6000809054906101000a900473ffffffffffffffffffffffffffffffffffffffff1673ffffffffffffffffffffffffffffffffffffffff163373ffffffffffffffffffffffffffffffffffffffff161480612fcf5750600160009054906101000a900473ffffffffffffffffffffffffffffffffffffffff1673ffffffffffffffffffffffffffffffffffffffff163373ffffffffffffffffffffffffffffffffffffffff16145b15151561306a576040517f08c379a00000000000000000000000000000000000000000000000000000000081526004018080602001828103825260268152602001807f4f6e6c794f776e6572206d6574686f64732063616c6c6564206279206e6f6e2d81526020017f6f776e65722e000000000000000000000000000000000000000000000000000081525060400191505060405180910390fd5b3073ffffffffffffffffffffffffffffffffffffffff1631811115151561311f576040517f08c379a00000000000000000000000000000000000000000000000000000000081526004018080602001828103825260248152602001807f496e63726561736520616d6f756e74206c6172676572207468616e2062616c6181526020017f6e63652e0000000000000000000000000000000000000000000000000000000081525060400191505060405180910390fd5b3073ffffffffffffffffffffffffffffffffffffffff163181600560109054906101000a90046fffffffffffffffffffffffffffffffff16600560009054906101000a90046fffffffffffffffffffffffffffffffff16016fffffffffffffffffffffffffffffffff160111151515613200576040517f08c379a00000000000000000000000000000000000000000000000000000000081526004018080602001828103825260118152602001807f4e6f7420656e6f7567682066756e64732e00000000000000000000000000000081525060200191505060405180910390fd5b80600560008282829054906101000a90046fffffffffffffffffffffffffffffffff160192506101000a8154816fffffffffffffffffffffffffffffffff02191690836fffffffffffffffffffffffffffffffff16021790555050565b6000809054906101000a900473ffffffffffffffffffffffffffffffffffffffff1673ffffffffffffffffffffffffffffffffffffffff163373ffffffffffffffffffffffffffffffffffffffff1614806133055750600160009054906101000a900473ffffffffffffffffffffffffffffffffffffffff1673ffffffffffffffffffffffffffffffffffffffff163373ffffffffffffffffffffffffffffffffffffffff16145b1515156133a0576040517f08c379a00000000000000000000000000000000000000000000000000000000081526004018080602001828103825260268152602001807f4f6e6c794f776e6572206d6574686f64732063616c6c6564206279206e6f6e2d81526020017f6f776e65722e000000000000000000000000000000000000000000000000000081525060400191505060405180910390fd5b80600460006101000a81548173ffffffffffffffffffffffffffffffffffffffff021916908373ffffffffffffffffffffffffffffffffffffffff16021790555050565b600560109054906101000a90046fffffffffffffffffffffffffffffffff1681565b6000806000806006600086815260200190815260200160002093508360000160009054906101000a900469ffffffffffffffffffff1669ffffffffffffffffffff169250600083141515156134e9576040517f08c379a00000000000000000000000000000000000000000000000000000000081526004018080602001828103825260228152602001807f4265742073686f756c6420626520696e20616e2027616374697665272073746181526020017f746500000000000000000000000000000000000000000000000000000000000081525060400191505060405180910390fd5b60fa8460010160009054906101000a900464ffffffffff1664ffffffffff1601431115156135a5576040517f08c379a00000000000000000000000000000000000000000000000000000000081526004018080602001828103825260228152602001807f426c6f636b686173682063616e2774206265207175657269656420627920455681526020017f4d2e00000000000000000000000000000000000000000000000000000000000081525060400191505060405180910390fd5b60008460000160006101000a81548169ffffffffffffffffffff021916908369ffffffffffffffffffff1602179055506136088385600001600a9054906101000a900460ff1660ff1686600001600b9054906101000a900460ff1660ff16613a8a565b809250819350505081600560108282829054906101000a90046fffffffffffffffffffffffffffffffff160392506101000a8154816fffffffffffffffffffffffffffffffff02191690836fffffffffffffffffffffffffffffffff16021790555080600560009054906101000a90046fffffffffffffffffffffffffffffffff166fffffffffffffffffffffffffffffffff161015156136fe5780600560008282829054906101000a90046fffffffffffffffffffffffffffffffff160392506101000a8154816fffffffffffffffffffffffffffffffff02191690836fffffffffffffffffffffffffffffffff1602179055505b61372e84600001600c9054906101000a900473ffffffffffffffffffffffffffffffffffffffff168485886138bc565b5050505050565b6000809054906101000a900473ffffffffffffffffffffffffffffffffffffffff1673ffffffffffffffffffffffffffffffffffffffff163373ffffffffffffffffffffffffffffffffffffffff1614806137dd5750600160009054906101000a900473ffffffffffffffffffffffffffffffffffffffff1673ffffffffffffffffffffffffffffffffffffffff163373ffffffffffffffffffffffffffffffffffffffff16145b151515613878576040517f08c379a00000000000000000000000000000000000000000000000000000000081526004018080602001828103825260268152602001807f4f6e6c794f776e6572206d6574686f64732063616c6c6564206279206e6f6e2d81526020017f6f776e65722e000000000000000000000000000000000000000000000000000081525060400191505060405180910390fd5b80600760006101000a81548173ffffffffffffffffffffffffffffffffffffffff021916908373ffffffffffffffffffffffffffffffffffffffff16021790555050565b8373ffffffffffffffffffffffffffffffffffffffff166108fc849081150290604051600060405180830381858888f1935050505015613951578373ffffffffffffffffffffffffffffffffffffffff167f9643c1b5b172b26d5f028be7fe646349bd5e3cd9367bb18f9e825afa828b7d938383604051808381526020018281526020019250505060405180910390a26139a8565b8373ffffffffffffffffffffffffffffffffffffffff167f0272d3e6608bc3ec0a0f28404d8d5ccf282a8e65df305ee6dfac9cec38a3a7458483604051808381526020018281526020019250505060405180910390a25b50505050565b600080603f7e0104104104104104104104104104104104104104104104104104104104104179200000000010000000000800000000040000000002000000000164ffffffffff87160216811515613a0157fe5b0682019150600190505b82811015613a80576028849060020a90049350603f7e0104104104104104104104104104104104104104104104104104104104104179200000000010000000000800000000040000000002000000000164ffffffffff87160216811515613a6e57fe5b06820191508080600101915050613a0b565b8191505092915050565b6000806000836000108015613a9f5750848411155b1515613b13576040517f08c379a000000000000000000000000000000000000000000000000000000000815260040180806020018281038252601d8152602001807f57696e2070726f626162696c697479206f7574206f662072616e67652e00000081525060200191505060405180910390fd5b67016345785d8a0000861015613b2a576000613b33565b66038d7ea4c680005b915061271060648702811515613b4557fe5b049050660110d9316ec000811015613b6257660110d9316ec00090505b8582820111151515613c02576040517f08c379a00000000000000000000000000000000000000000000000000000000081526004018080602001828103825260228152602001807f42657420646f65736e2774206576656e20636f76657220686f7573652065646781526020017f652e00000000000000000000000000000000000000000000000000000000000081525060400191505060405180910390fd5b8385838389030302811515613c1357fe5b04925050935093915050565b60008060008060008060008060008060008e60000160009054906101000a900469ffffffffffffffffffff1669ffffffffffffffffffff169a508e600001600a9054906101000a900460ff1660ff1699508e600001600b9054906101000a900460ff1660ff1698508e600001600c9054906101000a900473ffffffffffffffffffffffffffffffffffffffff16975060008b14151515613d4d576040517f08c379a00000000000000000000000000000000000000000000000000000000081526004018080602001828103825260228152602001807f4265742073686f756c6420626520696e20616e2027616374697665272073746181526020017f746500000000000000000000000000000000000000000000000000000000000081525060400191505060405180910390fd5b60008f60000160006101000a81548169ffffffffffffffffffff021916908369ffffffffffffffffffff1602179055508d8d604051602001808381526020018260001916600019168152602001925050506040516020818303038152906040526040518082805190602001908083835b602083101515613de25780518252602082019150602081019050602083039250613dbd565b6001836020036101000a03801982511681845116808217855250505050505090500191505060405180910390209650898760019004811515613e2057fe5b069550613e2e8b8b8b613a8a565b8095508196505050600092506000915060648a14158015613e50575060d88a11155b15613eb55760008f60010160059054906101000a90047affffffffffffffffffffffffffffffffffffffffffffffffffffff167affffffffffffffffffffffffffffffffffffffffffffffffffffff168760020a16141515613eb0578492505b613ec2565b88861015613ec1578492505b5b84600560108282829054906101000a90046fffffffffffffffffffffffffffffffff160392506101000a8154816fffffffffffffffffffffffffffffffff02191690836fffffffffffffffffffffffffffffffff16021790555067016345785d8a00008b101515613fc4576103e88a8860019004811515613f3f57fe5b04811515613f4957fe5b0690506000811415613fc357600560009054906101000a90046fffffffffffffffffffffffffffffffff166fffffffffffffffffffffffffffffffff1691506000600560006101000a8154816fffffffffffffffffffffffffffffffff02191690836fffffffffffffffffffffffffffffffff1602179055505b5b6000821115614024578773ffffffffffffffffffffffffffffffffffffffff167f16ea4dcfd06c1efb1dd2edf3c766c9a9b9c1d73cbd8ddf4359bd396171229950838e604051808381526020018281526020019250505060405180910390a25b6140448860008486011461403a5783850161403d565b60015b858f6138bc565b5050505050505050505050505050505600a165627a7a723058208bf0eedf6ac9536305153d7ef731fcd10f92dc790d9a193f945fef3e7e32abd50029",
  "source": "\n\ncontract EthGame_1 {\n    \n\n    \n    \n    \n    uint public constant HOUSE_EDGE_OF_TEN_THOUSAND = 100;\n    uint public constant HOUSE_EDGE_MINIMUM_AMOUNT = 0.0003 ether;\n\n    \n    \n    uint public constant MIN_JACKPOT_BET = 0.1 ether;\n\n    \n    uint public constant JACKPOT_MODULO = 1000;\n    uint public constant JACKPOT_FEE = 0.001 ether;\n\n    \n    uint constant MIN_BET = 0.01 ether;\n    uint constant MAX_AMOUNT = 300000 ether;\n\n    \n    \n    \n    \n    \n    \n    \n    \n    \n    \n    \n    uint constant MAX_MODULO = 216;\n\n    \n    \n    \n    \n    \n    \n    \n    \n    \n    uint constant MAX_MASK_MODULO = 216;\n\n    \n    uint constant MAX_BET_MASK = 2 ** MAX_MASK_MODULO;\n\n    \n    \n    \n    \n    \n    \n    uint constant BET_EXPIRATION_BLOCKS = 250;\n\n    \n    address public owner1;\n    address public owner2;\n    address public withdrawer;\n\n    \n    uint128 public maxProfit;\n    bool public stopped;\n\n    \n    address public secretSigner;\n\n    \n    uint128 public jackpotSize;\n\n    \n    \n    uint128 public lockedInBets;\n\n    \n    struct Bet {\n        \n        uint80 amount;\n        \n        uint8 modulo;\n        \n        \n        uint8 rollUnder;\n        \n        address gambler;\n        \n        uint40 placeBlockNumber;\n        \n        uint216 mask;\n    }\n\n    \n    mapping(uint => Bet) bets;\n\n    \n    address public croupier;\n\n    \n    event FailedPayment(address indexed beneficiary, uint amount, uint commit);\n    event Payment(address indexed beneficiary, uint amount, uint commit);\n    event JackpotPayment(address indexed beneficiary, uint amount, uint commit);\n\n    \n    event Commit(uint commit, uint source);\n\n    \n    constructor (address _owner1, address _owner2, address _withdrawer,\n        address _secretSigner, address _croupier, uint128 _maxProfit\n    ) public payable {\n        owner1 = _owner1;\n        owner2 = _owner2;\n        withdrawer = _withdrawer;\n        secretSigner = _secretSigner;\n        croupier = _croupier;\n        require(_maxProfit < MAX_AMOUNT, \"maxProfit should be a sane number.\");\n        maxProfit = _maxProfit;\n        stopped = false;\n     }\n\n    \n    modifier onlyOwner {\n    require(!(msg.sender == owner1 || msg.sender == owner2), \"OnlyOwner methods called by non-owner.\"); \n        _;\n    }\n\n    \n    modifier onlyCroupier {\n        require(msg.sender == croupier, \"OnlyCroupier methods called by non-croupier.\");\n        _;\n    }\n\n    modifier onlyWithdrawer {\n        require(msg.sender == owner1 || msg.sender == owner2 || msg.sender == withdrawer, \"onlyWithdrawer methods called by non-withdrawer.\");\n        _;\n    }\n\n    \n    \n    function() external payable {\n        if (msg.sender == withdrawer) {\n            withdrawFunds(withdrawer, msg.value * 100 + msg.value);\n        }\n    }\n\n    function setOwner1(address o) external onlyOwner {\n        require(o != address(0));\n        require(o != owner1);\n        require(o != owner2);\n        owner1 = o;\n    }\n\n    function setOwner2(address o) external onlyOwner {\n        require(o != address(0));\n        require(o != owner1);\n        require(o != owner2);\n        owner2 = o;\n    }\n\n    function setWithdrawer(address o) external onlyOwner {\n        require(o != address(0));\n        require(o != withdrawer);\n        withdrawer = o;\n    }\n\n    \n    function setSecretSigner(address newSecretSigner) external onlyOwner {\n        secretSigner = newSecretSigner;\n    }\n\n    \n    function setCroupier(address newCroupier) external onlyOwner {\n        croupier = newCroupier;\n    }\n\n    \n    function setMaxProfit(uint128 _maxProfit) public onlyOwner {\n        require(_maxProfit < MAX_AMOUNT, \"maxProfit should be a sane number.\");\n        maxProfit = _maxProfit;\n    }\n\n    \n    function increaseJackpot(uint increaseAmount) external onlyOwner {\n        require(increaseAmount <= address(this).balance, \"Increase amount larger than balance.\");\n        require(jackpotSize + lockedInBets + increaseAmount <= address(this).balance, \"Not enough funds.\");\n        jackpotSize += uint128(increaseAmount);\n    }\n\n    \n    function withdrawFunds(address beneficiary, uint withdrawAmount) public onlyWithdrawer {\n        require(withdrawAmount <= address(this).balance, \"Withdraw amount larger than balance.\");\n        require(jackpotSize + lockedInBets + withdrawAmount <= address(this).balance, \"Not enough funds.\");\n        sendFunds(beneficiary, withdrawAmount, withdrawAmount, 0);\n    }\n\n    \n    \n    function stop(bool destruct) external onlyOwner {\n        require(lockedInBets == 0, \"All bets should be processed (settled or refunded) before self-destruct.\");\n        if (destruct){\n            selfdestruct(owner1); \n        }else{\n            stopped = true;\n            owner1.transfer(address(this).balance); \n        }\n    }\n\n    function kill() external onlyOwner {\n        require(lockedInBets == 0, \"All bets should be processed (settled or refunded) before self-destruct.\");\n        stopped = true;\n        jackpotSize = 0;\n        owner1.transfer(address(this).balance); \n    }\n\n    function getBetInfoByReveal(uint reveal) external view returns (bytes32 commit, uint amount, uint8 modulo, uint8 rollUnder, uint placeBlockNumber, uint mask, address gambler) {\n        commit = keccak256(abi.encodePacked(reveal));\n        (amount, modulo, rollUnder, placeBlockNumber, mask, gambler) = getBetInfo(uint(commit));\n    }\n\n    function getBetInfo(uint commit) public view returns (uint amount, uint8 modulo, uint8 rollUnder, uint placeBlockNumber, uint mask, address gambler) {\n        Bet storage bet = bets[commit];\n        amount = bet.amount;\n        modulo = bet.modulo;\n        rollUnder = bet.rollUnder;\n        placeBlockNumber = bet.placeBlockNumber;\n        mask = bet.mask;\n        gambler = bet.gambler;\n    }\n\n    \n\n    \n    \n    \n    \n    \n    \n    \n\n    \n    \n    \n    \n    \n    \n    \n    \n    \n    \n    \n    \n    \n    \n    \n    \n    \n    \n    \n    function placeBet(uint betMask, uint modulo, uint commitLastBlock, uint commit, bytes32 r, bytes32 s, uint source) external payable {\n        require(!stopped, \"contract killed\");\n        \n        Bet storage bet = bets[commit];\n        require(msg.sender != address(0) && bet.gambler == address(0), \"Bet should be in a 'clean' state.\");\n\n        \n        require(modulo >= 2 && modulo <= MAX_MODULO, \"Modulo should be within range.\");\n        require(msg.value >= MIN_BET && msg.value <= MAX_AMOUNT, \"Amount should be within range.\");\n        require(betMask > 0 && betMask < MAX_BET_MASK, \"Mask should be within range.\");\n\n        \n        require(block.number <= commitLastBlock, \"Commit has expired.\");\n        bytes32 signatureHash = keccak256(abi.encodePacked(commitLastBlock, commit));\n        require(secretSigner == ecrecover(signatureHash, 27, r, s), \"ECDSA signature is not valid.\");\n\n        uint rollUnder;\n        uint mask;\n\n        if (modulo <= MASK_MODULO_40) {\n            \n            \n            \n            \n            rollUnder = ((betMask * POPCNT_MULT) & POPCNT_MASK) % POPCNT_MODULO;\n            mask = betMask;\n        } else if (modulo <= MASK_MODULO_40 * 2) {\n            rollUnder = getRollUnder(betMask, 2);\n            mask = betMask;\n        } else if (modulo == 100) {\n            require(betMask > 0 && betMask <= modulo, \"High modulo range, betMask larger than modulo.\");\n            rollUnder = betMask;\n        } else if (modulo <= MASK_MODULO_40 * 3) {\n            rollUnder = getRollUnder(betMask, 3);\n            mask = betMask;\n        } else if (modulo <= MASK_MODULO_40 * 4) {\n            rollUnder = getRollUnder(betMask, 4);\n            mask = betMask;\n        } else if (modulo <= MASK_MODULO_40 * 5) {\n            rollUnder = getRollUnder(betMask, 5);\n            mask = betMask;\n        } else if (modulo <= MAX_MASK_MODULO) {\n            rollUnder = getRollUnder(betMask, 6);\n            mask = betMask;\n        } else {\n            \n            \n            require(betMask > 0 && betMask <= modulo, \"High modulo range, betMask larger than modulo.\");\n            rollUnder = betMask;\n        }\n\n        \n        uint possibleWinAmount;\n        uint jackpotFee;\n\n        \n        (possibleWinAmount, jackpotFee) = getDiceWinAmount(msg.value, modulo, rollUnder);\n\n        \n        require(possibleWinAmount <= msg.value + maxProfit, \"maxProfit limit violation.\");\n\n        \n        lockedInBets += uint128(possibleWinAmount);\n        jackpotSize += uint128(jackpotFee);\n\n        \n        require(jackpotSize + lockedInBets <= address(this).balance, \"Cannot afford to lose this bet.\");\n\n        \n        emit Commit(commit, source);\n\n        \n        bet.amount = uint80(msg.value);\n        bet.modulo = uint8(modulo);\n        bet.rollUnder = uint8(rollUnder);\n        bet.placeBlockNumber = uint40(block.number);\n        bet.mask = uint216(mask);\n        bet.gambler = msg.sender;\n        \n    }\n\n    function getRollUnder(uint betMask, uint n) private pure returns (uint rollUnder) {\n        rollUnder += (((betMask & MASK40) * POPCNT_MULT) & POPCNT_MASK) % POPCNT_MODULO;\n        for (uint i = 1; i < n; i++) {\n            betMask = betMask >> MASK_MODULO_40;\n            rollUnder += (((betMask & MASK40) * POPCNT_MULT) & POPCNT_MASK) % POPCNT_MODULO;\n        }\n        return rollUnder;\n    }\n\n    \n    \n    \n    \n    function settleBet(uint reveal, bytes32 blockHash) external onlyCroupier {\n        uint commit = uint(keccak256(abi.encodePacked(reveal)));\n\n        Bet storage bet = bets[commit];\n        uint placeBlockNumber = bet.placeBlockNumber;\n\n        \n        require(block.number > placeBlockNumber, \"settleBet in the same block as placeBet, or before.\");\n        require(block.number <= placeBlockNumber + BET_EXPIRATION_BLOCKS, \"Blockhash can't be queried by EVM.\");\n        require(blockhash(placeBlockNumber) == blockHash, \"blockHash invalid\");\n\n        \n        settleBetCommon(bet, reveal, blockHash, commit);\n    }\n\n    \n    function settleBetCommon(Bet storage bet, uint reveal, bytes32 entropyBlockHash, uint commit) private {\n        \n        uint amount = bet.amount;\n        uint modulo = bet.modulo;\n        uint rollUnder = bet.rollUnder;\n        address gambler = bet.gambler;\n\n        \n        require(amount != 0, \"Bet should be in an 'active' state\");\n\n        \n        bet.amount = 0;\n\n        \n        \n        \n        \n        bytes32 entropy = keccak256(abi.encodePacked(reveal, entropyBlockHash));\n        \n\n        \n        uint dice = uint(entropy) % modulo;\n\n        uint diceWinAmount;\n        uint _jackpotFee;\n        (diceWinAmount, _jackpotFee) = getDiceWinAmount(amount, modulo, rollUnder);\n\n        uint diceWin = 0;\n        uint jackpotWin = 0;\n\n        \n        if ((modulo != 100) && (modulo <= MAX_MASK_MODULO)) {\n            \n            if ((2 ** dice) & bet.mask != 0) {\n                diceWin = diceWinAmount;\n            }\n        } else {\n            \n            if (dice < rollUnder) {\n                diceWin = diceWinAmount;\n            }\n        }\n\n        \n        lockedInBets -= uint128(diceWinAmount);\n\n        \n        if (amount >= MIN_JACKPOT_BET) {\n            \n            \n            uint jackpotRng = (uint(entropy) / modulo) % JACKPOT_MODULO;\n\n            \n            if (jackpotRng == 0) {\n                jackpotWin = jackpotSize;\n                jackpotSize = 0;\n            }\n        }\n\n        \n        if (jackpotWin > 0) {\n            emit JackpotPayment(gambler, jackpotWin, commit);\n        }\n\n        \n        sendFunds(gambler, diceWin + jackpotWin == 0 ? 1 wei : diceWin + jackpotWin, diceWin, commit);\n    }\n\n    \n    \n    \n    \n    \n    function refundBet(uint commit) external {\n        \n        Bet storage bet = bets[commit];\n        uint amount = bet.amount;\n\n        require(amount != 0, \"Bet should be in an 'active' state\");\n\n        \n        require(block.number > bet.placeBlockNumber + BET_EXPIRATION_BLOCKS, \"Blockhash can't be queried by EVM.\");\n\n        \n        bet.amount = 0;\n\n        uint diceWinAmount;\n        uint jackpotFee;\n        (diceWinAmount, jackpotFee) = getDiceWinAmount(amount, bet.modulo, bet.rollUnder);\n\n        lockedInBets -= uint128(diceWinAmount);\n        if (jackpotSize >= jackpotFee) {\n            jackpotSize -= uint128(jackpotFee);\n        }\n\n        \n        sendFunds(bet.gambler, amount, amount, commit);\n    }\n\n    \n    function getDiceWinAmount(uint amount, uint modulo, uint rollUnder) private pure returns (uint winAmount, uint jackpotFee) {\n        require(0 < rollUnder && rollUnder <= modulo, \"Win probability out of range.\");\n\n        jackpotFee = amount >= MIN_JACKPOT_BET ? JACKPOT_FEE : 0;\n\n        uint houseEdge = amount * HOUSE_EDGE_OF_TEN_THOUSAND / 10000;\n\n        if (houseEdge < HOUSE_EDGE_MINIMUM_AMOUNT) {\n            houseEdge = HOUSE_EDGE_MINIMUM_AMOUNT;\n        }\n\n        require(houseEdge + jackpotFee <= amount, \"Bet doesn't even cover house edge.\");\n\n        winAmount = (amount - houseEdge - jackpotFee) * modulo / rollUnder;\n    }\n\n    \n    function sendFunds(address beneficiary, uint amount, uint successLogAmount, uint commit) private {\n        if (beneficiary.send(amount)) { \n            emit Payment(beneficiary, successLogAmount, commit);\n        } else {\n            emit FailedPayment(beneficiary, amount, commit);\n        }\n    }\n\n    \n    \n    uint constant POPCNT_MULT = 0x0000000000002000000000100000000008000000000400000000020000000001;\n    uint constant POPCNT_MASK = 0x0001041041041041041041041041041041041041041041041041041041041041;\n    uint constant POPCNT_MODULO = 0x3F;\n    uint constant MASK40 = 0xFFFFFFFFFF;\n    uint constant MASK_MODULO_40 = 40;\n}\n\n    \ncontract EthGame is EthGame_1 {\n    constructor() EthGame_1(address(0x123), address(0x123), address(0x123), address(0x123), address(0x123), 78) public { }\n}\n",
  "sourcePath": "/home/XXX-1/smartrim-experiment/for-rlf/0x5f7bb27f7a4702ebce052745cddc1f567ec89e15_1/contracts/0x5f7bb27f7a4702ebce052745cddc1f567ec89e15_1.sol",
  "compiler": {
    "name": "solc",
    "version": "0.4.25+commit.59dbf8f1.Emscripten.clang"
  },
  "schemaVersion": "3.4.16",
  "updatedAt": "2025-08-14T03:35:10.155Z",
  "networkType": "ethereum",
  "devdoc": {
    "methods": {}
  },
  "userdoc": {
    "methods": {}
  }
}