{
  "contractName": "MultiBuyer",
  "abi": [
    {
      "constant": false,
      "inputs": [
        {
          "name": "_token",
          "type": "address"
        }
      ],
      "name": "reclaimToken",
      "outputs": [],
      "payable": false,
      "stateMutability": "nonpayable",
      "type": "function"
    },
    {
      "constant": false,
      "inputs": [
        {
          "name": "_bancor",
          "type": "address"
        },
        {
          "name": "_path",
          "type": "address[]"
        },
        {
          "name": "_amount",
          "type": "uint256"
        }
      ],
      "name": "bancorAlreadyTransferedTokenAmount",
      "outputs": [],
      "payable": false,
      "stateMutability": "nonpayable",
      "type": "function"
    },
    {
      "constant": false,
      "inputs": [
        {
          "name": "_bancor",
          "type": "address"
        },
        {
          "name": "_path",
          "type": "address[]"
        },
        {
          "name": "_mul",
          "type": "uint256"
        },
        {
          "name": "_div",
          "type": "uint256"
        }
      ],
      "name": "bancorSendEthProportion",
      "outputs": [],
      "payable": false,
      "stateMutability": "nonpayable",
      "type": "function"
    },
    {
      "constant": false,
      "inputs": [
        {
          "name": "_target",
          "type": "address"
        },
        {
          "name": "_data",
          "type": "bytes"
        },
        {
          "name": "_fromToken",
          "type": "address"
        },
        {
          "name": "_amount",
          "type": "uint256"
        }
      ],
      "name": "approveTokenAmount",
      "outputs": [],
      "payable": false,
      "stateMutability": "nonpayable",
      "type": "function"
    },
    {
      "constant": false,
      "inputs": [
        {
          "name": "_bancor",
          "type": "address"
        },
        {
          "name": "_path",
          "type": "address[]"
        },
        {
          "name": "_mul",
          "type": "uint256"
        },
        {
          "name": "_div",
          "type": "uint256"
        }
      ],
      "name": "bancorApproveTokenProportion",
      "outputs": [],
      "payable": false,
      "stateMutability": "nonpayable",
      "type": "function"
    },
    {
      "constant": false,
      "inputs": [
        {
          "name": "_bancor",
          "type": "address"
        },
        {
          "name": "_path",
          "type": "address[]"
        },
        {
          "name": "_amount",
          "type": "uint256"
        }
      ],
      "name": "bancorTransferTokenAmount",
      "outputs": [],
      "payable": false,
      "stateMutability": "nonpayable",
      "type": "function"
    },
    {
      "constant": false,
      "inputs": [
        {
          "name": "_etherToken",
          "type": "address"
        },
        {
          "name": "_mul",
          "type": "uint256"
        },
        {
          "name": "_div",
          "type": "uint256"
        }
      ],
      "name": "withdrawEtherTokenProportion",
      "outputs": [],
      "payable": false,
      "stateMutability": "nonpayable",
      "type": "function"
    },
    {
      "constant": false,
      "inputs": [
        {
          "name": "_bancor",
          "type": "address"
        },
        {
          "name": "_path",
          "type": "address[]"
        },
        {
          "name": "_mul",
          "type": "uint256"
        },
        {
          "name": "_div",
          "type": "uint256"
        }
      ],
      "name": "bancorTransferTokenProportion",
      "outputs": [],
      "payable": false,
      "stateMutability": "nonpayable",
      "type": "function"
    },
    {
      "constant": false,
      "inputs": [],
      "name": "renounceOwnership",
      "outputs": [],
      "payable": false,
      "stateMutability": "nonpayable",
      "type": "function"
    },
    {
      "constant": false,
      "inputs": [
        {
          "name": "_target",
          "type": "address"
        },
        {
          "name": "_data",
          "type": "bytes"
        },
        {
          "name": "_mul",
          "type": "uint256"
        },
        {
          "name": "_div",
          "type": "uint256"
        }
      ],
      "name": "sendEthProportion",
      "outputs": [],
      "payable": false,
      "stateMutability": "nonpayable",
      "type": "function"
    },
    {
      "constant": false,
      "inputs": [
        {
          "name": "_bancor",
          "type": "address"
        },
        {
          "name": "_path",
          "type": "address[]"
        },
        {
          "name": "_value",
          "type": "uint256"
        }
      ],
      "name": "bancorSendEthValue",
      "outputs": [],
      "payable": false,
      "stateMutability": "nonpayable",
      "type": "function"
    },
    {
      "constant": false,
      "inputs": [
        {
          "name": "_kyber",
          "type": "address"
        },
        {
          "name": "_fromToken",
          "type": "address"
        },
        {
          "name": "_toToken",
          "type": "address"
        },
        {
          "name": "_mul",
          "type": "uint256"
        },
        {
          "name": "_div",
          "type": "uint256"
        }
      ],
      "name": "kyberSendEthProportion",
      "outputs": [],
      "payable": false,
      "stateMutability": "nonpayable",
      "type": "function"
    },
    {
      "constant": true,
      "inputs": [],
      "name": "owner",
      "outputs": [
        {
          "name": "",
          "type": "address"
        }
      ],
      "payable": false,
      "stateMutability": "view",
      "type": "function"
    },
    {
      "constant": false,
      "inputs": [
        {
          "name": "_target",
          "type": "address"
        },
        {
          "name": "_data",
          "type": "bytes"
        },
        {
          "name": "_fromToken",
          "type": "address"
        },
        {
          "name": "_amount",
          "type": "uint256"
        }
      ],
      "name": "transferTokenAmount",
      "outputs": [],
      "payable": false,
      "stateMutability": "nonpayable",
      "type": "function"
    },
    {
      "constant": false,
      "inputs": [
        {
          "name": "_bancor",
          "type": "address"
        },
        {
          "name": "_path",
          "type": "address[]"
        },
        {
          "name": "_mul",
          "type": "uint256"
        },
        {
          "name": "_div",
          "type": "uint256"
        }
      ],
      "name": "bancorAlreadyTransferedTokenProportion",
      "outputs": [],
      "payable": false,
      "stateMutability": "nonpayable",
      "type": "function"
    },
    {
      "constant": false,
      "inputs": [
        {
          "name": "_etherToken",
          "type": "address"
        },
        {
          "name": "_amount",
          "type": "uint256"
        }
      ],
      "name": "withdrawEtherTokenAmount",
      "outputs": [],
      "payable": false,
      "stateMutability": "nonpayable",
      "type": "function"
    },
    {
      "constant": false,
      "inputs": [
        {
          "name": "_kyber",
          "type": "address"
        },
        {
          "name": "_fromToken",
          "type": "address"
        },
        {
          "name": "_toToken",
          "type": "address"
        },
        {
          "name": "_mul",
          "type": "uint256"
        },
        {
          "name": "_div",
          "type": "uint256"
        }
      ],
      "name": "kyberApproveTokenProportion",
      "outputs": [],
      "payable": false,
      "stateMutability": "nonpayable",
      "type": "function"
    },
    {
      "constant": false,
      "inputs": [
        {
          "name": "_target",
          "type": "address"
        },
        {
          "name": "_data",
          "type": "bytes"
        },
        {
          "name": "_fromToken",
          "type": "address"
        },
        {
          "name": "_mul",
          "type": "uint256"
        },
        {
          "name": "_div",
          "type": "uint256"
        }
      ],
      "name": "approveTokenProportion",
      "outputs": [],
      "payable": false,
      "stateMutability": "nonpayable",
      "type": "function"
    },
    {
      "constant": false,
      "inputs": [
        {
          "name": "_target",
          "type": "address"
        },
        {
          "name": "_data",
          "type": "bytes"
        },
        {
          "name": "_value",
          "type": "uint256"
        }
      ],
      "name": "sendEthValue",
      "outputs": [],
      "payable": false,
      "stateMutability": "nonpayable",
      "type": "function"
    },
    {
      "constant": false,
      "inputs": [
        {
          "name": "_target",
          "type": "address"
        },
        {
          "name": "_data",
          "type": "bytes"
        },
        {
          "name": "_fromToken",
          "type": "address"
        },
        {
          "name": "_mul",
          "type": "uint256"
        },
        {
          "name": "_div",
          "type": "uint256"
        }
      ],
      "name": "transferTokenProportion",
      "outputs": [],
      "payable": false,
      "stateMutability": "nonpayable",
      "type": "function"
    },
    {
      "constant": false,
      "inputs": [
        {
          "name": "_kyber",
          "type": "address"
        },
        {
          "name": "_fromToken",
          "type": "address"
        },
        {
          "name": "_toToken",
          "type": "address"
        },
        {
          "name": "_amount",
          "type": "uint256"
        }
      ],
      "name": "kyberApproveTokenAmount",
      "outputs": [],
      "payable": false,
      "stateMutability": "nonpayable",
      "type": "function"
    },
    {
      "constant": false,
      "inputs": [
        {
          "name": "_newOwner",
          "type": "address"
        }
      ],
      "name": "transferOwnership",
      "outputs": [],
      "payable": false,
      "stateMutability": "nonpayable",
      "type": "function"
    },
    {
      "constant": false,
      "inputs": [
        {
          "name": "_bancor",
          "type": "address"
        },
        {
          "name": "_path",
          "type": "address[]"
        },
        {
          "name": "_amount",
          "type": "uint256"
        }
      ],
      "name": "bancorApproveTokenAmount",
      "outputs": [],
      "payable": false,
      "stateMutability": "nonpayable",
      "type": "function"
    },
    {
      "anonymous": false,
      "inputs": [
        {
          "indexed": true,
          "name": "previousOwner",
          "type": "address"
        }
      ],
      "name": "OwnershipRenounced",
      "type": "event"
    },
    {
      "anonymous": false,
      "inputs": [
        {
          "indexed": true,
          "name": "previousOwner",
          "type": "address"
        },
        {
          "indexed": true,
          "name": "newOwner",
          "type": "address"
        }
      ],
      "name": "OwnershipTransferred",
      "type": "event"
    },
    {
      "constant": false,
      "inputs": [
        {
          "name": "_mtkn",
          "type": "address"
        },
        {
          "name": "_minimumReturn",
          "type": "uint256"
        },
        {
          "name": "_callDatas",
          "type": "bytes"
        },
        {
          "name": "_starts",
          "type": "uint256[]"
        }
      ],
      "name": "buy",
      "outputs": [],
      "payable": true,
      "stateMutability": "payable",
      "type": "function"
    },
    {
      "constant": false,
      "inputs": [
        {
          "name": "_mtkn",
          "type": "address"
        },
        {
          "name": "_callDatas",
          "type": "bytes"
        },
        {
          "name": "_starts",
          "type": "uint256[]"
        }
      ],
      "name": "buyFirstTokens",
      "outputs": [],
      "payable": true,
      "stateMutability": "payable",
      "type": "function"
    }
  ],
  "bytecode": "0x6080604052336000806101000a81548173ffffffffffffffffffffffffffffffffffffffff021916908373ffffffffffffffffffffffffffffffffffffffff1602179055506145f0806100536000396000f300608060405260043610610149576000357c0100000000000000000000000000000000000000000000000000000000900463ffffffff16806317ffc3201461014e5780631f91695d146101915780632545f8eb146101f65780633669f27b1461026557806338085649146102ea57806340f0b0f1146103595780635499716a146103be578063618e8ad3146104155780636babf51314610484578063715018a614610543578063846f11851461055a57806386b0e00a146105c95780638721fbe91461062e5780638da5cb5b146106c557806394480a691461071c5780639a509aff146107e55780639d99ce041461086a578063bd3e904f146108d9578063bed31bc714610926578063d04c6c18146109bd578063d2e9236b14610a4c578063d91bd1b014610ab1578063dc3193f914610b40578063f2fde38b14610bcd578063f8b2cb0714610c10575b600080fd5b34801561015a57600080fd5b5061018f600480360381019080803573ffffffffffffffffffffffffffffffffffffffff169060200190929190505050610c75565b005b34801561019d57600080fd5b506101f4600480360381019080803573ffffffffffffffffffffffffffffffffffffffff16906020019092919080359060200190820180359060200191909192939192939080359060200190929190505050610dfa565b005b34801561020257600080fd5b50610263600480360381019080803573ffffffffffffffffffffffffffffffffffffffff1690602001909291908035906020019082018035906020019190919293919293908035906020019092919080359060200190929190505050610ed9565b005b34801561027157600080fd5b506102e8600480360381019080803573ffffffffffffffffffffffffffffffffffffffff169060200190929190803590602001908201803590602001919091929391929390803573ffffffffffffffffffffffffffffffffffffffff16906020019092919080359060200190929190505050610ffb565b005b3480156102f657600080fd5b50610357600480360381019080803573ffffffffffffffffffffffffffffffffffffffff16906020019092919080359060200190820180359060200191909192939192939080359060200190929190803590602001909291905050506111b7565b005b34801561036557600080fd5b506103bc600480360381019080803573ffffffffffffffffffffffffffffffffffffffff16906020019092919080359060200190820180359060200191909192939192939080359060200190929190505050611576565b005b3480156103ca57600080fd5b50610413600480360381019080803573ffffffffffffffffffffffffffffffffffffffff16906020019092919080359060200190929190803590602001909291905050506116ac565b005b34801561042157600080fd5b50610482600480360381019080803573ffffffffffffffffffffffffffffffffffffffff1690602001909291908035906020019082018035906020019190919293919293908035906020019092919080359060200190929190505050611837565b005b610541600480360381019080803573ffffffffffffffffffffffffffffffffffffffff169060200190929190803590602001908201803590602001908080601f016020809104026020016040519081016040528093929190818152602001838380828437820191505050505050919291929080359060200190820180359060200190808060200260200160405190810160405280939291908181526020018383602002808284378201915050505050509192919290505050611a98565b005b34801561054f57600080fd5b5061055861229c565b005b34801561056657600080fd5b506105c7600480360381019080803573ffffffffffffffffffffffffffffffffffffffff169060200190929190803590602001908201803590602001919091929391929390803590602001909291908035906020019092919050505061239e565b005b3480156105d557600080fd5b5061062c600480360381019080803573ffffffffffffffffffffffffffffffffffffffff1690602001909291908035906020019082018035906020019190919293919293908035906020019092919050505061242f565b005b34801561063a57600080fd5b506106c3600480360381019080803573ffffffffffffffffffffffffffffffffffffffff169060200190929190803573ffffffffffffffffffffffffffffffffffffffff169060200190929190803573ffffffffffffffffffffffffffffffffffffffff169060200190929190803590602001909291908035906020019092919050505061250f565b005b3480156106d157600080fd5b506106da6126ee565b604051808273ffffffffffffffffffffffffffffffffffffffff1673ffffffffffffffffffffffffffffffffffffffff16815260200191505060405180910390f35b6107e3600480360381019080803573ffffffffffffffffffffffffffffffffffffffff16906020019092919080359060200190929190803590602001908201803590602001908080601f016020809104026020016040519081016040528093929190818152602001838380828437820191505050505050919291929080359060200190820180359060200190808060200260200160405190810160405280939291908181526020018383602002808284378201915050505050509192919290505050612713565b005b3480156107f157600080fd5b50610868600480360381019080803573ffffffffffffffffffffffffffffffffffffffff169060200190929190803590602001908201803590602001919091929391929390803573ffffffffffffffffffffffffffffffffffffffff169060200190929190803590602001909291905050506130b3565b005b34801561087657600080fd5b506108d7600480360381019080803573ffffffffffffffffffffffffffffffffffffffff169060200190929190803590602001908201803590602001919091929391929390803590602001909291908035906020019092919050505061312e565b005b3480156108e557600080fd5b50610924600480360381019080803573ffffffffffffffffffffffffffffffffffffffff16906020019092919080359060200190929190505050613338565b005b34801561093257600080fd5b506109bb600480360381019080803573ffffffffffffffffffffffffffffffffffffffff169060200190929190803573ffffffffffffffffffffffffffffffffffffffff169060200190929190803573ffffffffffffffffffffffffffffffffffffffff16906020019092919080359060200190929190803590602001909291905050506133c3565b005b3480156109c957600080fd5b50610a4a600480360381019080803573ffffffffffffffffffffffffffffffffffffffff169060200190929190803590602001908201803590602001919091929391929390803573ffffffffffffffffffffffffffffffffffffffff16906020019092919080359060200190929190803590602001909291905050506135ec565b005b348015610a5857600080fd5b50610aaf600480360381019080803573ffffffffffffffffffffffffffffffffffffffff169060200190929190803590602001908201803590602001919091929391929390803590602001909291905050506138a8565b005b348015610abd57600080fd5b50610b3e600480360381019080803573ffffffffffffffffffffffffffffffffffffffff169060200190929190803590602001908201803590602001919091929391929390803573ffffffffffffffffffffffffffffffffffffffff16906020019092919080359060200190929190803590602001909291905050506138f7565b005b348015610b4c57600080fd5b50610bcb600480360381019080803573ffffffffffffffffffffffffffffffffffffffff169060200190929190803573ffffffffffffffffffffffffffffffffffffffff169060200190929190803573ffffffffffffffffffffffffffffffffffffffff16906020019092919080359060200190929190505050613a72565b005b348015610bd957600080fd5b50610c0e600480360381019080803573ffffffffffffffffffffffffffffffffffffffff169060200190929190505050613d6d565b005b348015610c1c57600080fd5b50610c73600480360381019080803573ffffffffffffffffffffffffffffffffffffffff16906020019092919080359060200190820180359060200191909192939192939080359060200190929190505050613dd4565b005b60008060009054906101000a900473ffffffffffffffffffffffffffffffffffffffff1673ffffffffffffffffffffffffffffffffffffffff163373ffffffffffffffffffffffffffffffffffffffff16141515610cd257600080fd5b8173ffffffffffffffffffffffffffffffffffffffff166370a08231306040518263ffffffff167c0100000000000000000000000000000000000000000000000000000000028152600401808273ffffffffffffffffffffffffffffffffffffffff1673ffffffffffffffffffffffffffffffffffffffff168152602001915050602060405180830381600087803b158015610d6d57600080fd5b505af1158015610d81573d6000803e3d6000fd5b505050506040513d6020811015610d9757600080fd5b81019080805190602001909291905050509050610df66000809054906101000a900473ffffffffffffffffffffffffffffffffffffffff16828473ffffffffffffffffffffffffffffffffffffffff166140689092919063ffffffff16565b5050565b8373ffffffffffffffffffffffffffffffffffffffff1663f3898a9784848460016040518563ffffffff167c010000000000000000000000000000000000000000000000000000000002815260040180806020018481526020018381526020018281038252868682818152602001925060200280828437820191505095505050505050602060405180830381600087803b158015610e9757600080fd5b505af1158015610eab573d6000803e3d6000fd5b505050506040513d6020811015610ec157600080fd5b81019080805190602001909291905050505050505050565b6000610f1782610f09853073ffffffffffffffffffffffffffffffffffffffff163161415690919063ffffffff16565b61418e90919063ffffffff16565b90508573ffffffffffffffffffffffffffffffffffffffff1663f3898a978287878560016040518663ffffffff167c0100000000000000000000000000000000000000000000000000000000028152600401808060200184815260200183815260200182810382528686828181526020019250602002808284378201915050955050505050506020604051808303818588803b158015610fb657600080fd5b505af1158015610fca573d6000803e3d6000fd5b50505050506040513d6020811015610fe157600080fd5b810190808051906020019092919050505050505050505050565b60008273ffffffffffffffffffffffffffffffffffffffff1663dd62ed3e30886040518363ffffffff167c0100000000000000000000000000000000000000000000000000000000028152600401808373ffffffffffffffffffffffffffffffffffffffff1673ffffffffffffffffffffffffffffffffffffffff1681526020018273ffffffffffffffffffffffffffffffffffffffff1673ffffffffffffffffffffffffffffffffffffffff16815260200192505050602060405180830381600087803b1580156110cc57600080fd5b505af11580156110e0573d6000803e3d6000fd5b505050506040513d60208110156110f657600080fd5b810190808051906020019092919050505014151561113c5761113a8560008473ffffffffffffffffffffffffffffffffffffffff166141a49092919063ffffffff16565b505b61116785828473ffffffffffffffffffffffffffffffffffffffff166141a49092919063ffffffff16565b508473ffffffffffffffffffffffffffffffffffffffff168484604051808383808284378201915050925050506000604051808303816000865af191505015156111b057600080fd5b5050505050565b60006112de826112d0858888600081811015156111d057fe5b9050602002013573ffffffffffffffffffffffffffffffffffffffff1673ffffffffffffffffffffffffffffffffffffffff166370a08231306040518263ffffffff167c0100000000000000000000000000000000000000000000000000000000028152600401808273ffffffffffffffffffffffffffffffffffffffff1673ffffffffffffffffffffffffffffffffffffffff168152602001915050602060405180830381600087803b15801561128757600080fd5b505af115801561129b573d6000803e3d6000fd5b505050506040513d60208110156112b157600080fd5b810190808051906020019092919050505061415690919063ffffffff16565b61418e90919063ffffffff16565b905060008585600081811015156112f157fe5b9050602002013573ffffffffffffffffffffffffffffffffffffffff1673ffffffffffffffffffffffffffffffffffffffff1663dd62ed3e30896040518363ffffffff167c0100000000000000000000000000000000000000000000000000000000028152600401808373ffffffffffffffffffffffffffffffffffffffff1673ffffffffffffffffffffffffffffffffffffffff1681526020018273ffffffffffffffffffffffffffffffffffffffff1673ffffffffffffffffffffffffffffffffffffffff16815260200192505050602060405180830381600087803b1580156113dc57600080fd5b505af11580156113f0573d6000803e3d6000fd5b505050506040513d602081101561140657600080fd5b8101908080519060200190929190505050141561149557611493867fffffffffffffffffffffffffffffffffffffffffffffffffffffffffffffffff87876000818110151561145157fe5b9050602002013573ffffffffffffffffffffffffffffffffffffffff1673ffffffffffffffffffffffffffffffffffffffff166141a49092919063ffffffff16565b505b8573ffffffffffffffffffffffffffffffffffffffff1663c7ba24bc86868460016040518563ffffffff167c010000000000000000000000000000000000000000000000000000000002815260040180806020018481526020018381526020018281038252868682818152602001925060200280828437820191505095505050505050602060405180830381600087803b15801561153257600080fd5b505af1158015611546573d6000803e3d6000fd5b505050506040513d602081101561155c57600080fd5b810190808051906020019092919050505050505050505050565b6115cc848285856000818110151561158a57fe5b9050602002013573ffffffffffffffffffffffffffffffffffffffff1673ffffffffffffffffffffffffffffffffffffffff166142c29092919063ffffffff16565b508373ffffffffffffffffffffffffffffffffffffffff1663f3898a9784848460016040518563ffffffff167c010000000000000000000000000000000000000000000000000000000002815260040180806020018481526020018381526020018281038252868682818152602001925060200280828437820191505095505050505050602060405180830381600087803b15801561166a57600080fd5b505af115801561167e573d6000803e3d6000fd5b505050506040513d602081101561169457600080fd5b81019080805190602001909291905050505050505050565b60006117a88261179a858773ffffffffffffffffffffffffffffffffffffffff166370a08231306040518263ffffffff167c0100000000000000000000000000000000000000000000000000000000028152600401808273ffffffffffffffffffffffffffffffffffffffff1673ffffffffffffffffffffffffffffffffffffffff168152602001915050602060405180830381600087803b15801561175157600080fd5b505af1158015611765573d6000803e3d6000fd5b505050506040513d602081101561177b57600080fd5b810190808051906020019092919050505061415690919063ffffffff16565b61418e90919063ffffffff16565b90508373ffffffffffffffffffffffffffffffffffffffff16632e1a7d4d826040518263ffffffff167c010000000000000000000000000000000000000000000000000000000002815260040180828152602001915050600060405180830381600087803b15801561181957600080fd5b505af115801561182d573d6000803e3d6000fd5b5050505050505050565b600061195e826119508588886000818110151561185057fe5b9050602002013573ffffffffffffffffffffffffffffffffffffffff1673ffffffffffffffffffffffffffffffffffffffff166370a08231306040518263ffffffff167c0100000000000000000000000000000000000000000000000000000000028152600401808273ffffffffffffffffffffffffffffffffffffffff1673ffffffffffffffffffffffffffffffffffffffff168152602001915050602060405180830381600087803b15801561190757600080fd5b505af115801561191b573d6000803e3d6000fd5b505050506040513d602081101561193157600080fd5b810190808051906020019092919050505061415690919063ffffffff16565b61418e90919063ffffffff16565b90506119b6868287876000818110151561197457fe5b9050602002013573ffffffffffffffffffffffffffffffffffffffff1673ffffffffffffffffffffffffffffffffffffffff166142c29092919063ffffffff16565b508573ffffffffffffffffffffffffffffffffffffffff1663f3898a9786868460016040518563ffffffff167c010000000000000000000000000000000000000000000000000000000002815260040180806020018481526020018381526020018281038252868682818152602001925060200280828437820191505095505050505050602060405180830381600087803b158015611a5457600080fd5b505af1158015611a68573d6000803e3d6000fd5b505050506040513d6020811015611a7e57600080fd5b810190808051906020019092919050505050505050505050565b60006060600080611aa986866143e0565b8673ffffffffffffffffffffffffffffffffffffffff1663a64ed8ba6040518163ffffffff167c0100000000000000000000000000000000000000000000000000000000028152600401602060405180830381600087803b158015611b0d57600080fd5b505af1158015611b21573d6000803e3d6000fd5b505050506040513d6020811015611b3757600080fd5b8101908080519060200190929190505050935083604051908082528060200260200182016040528015611b795781602001602082028038833980820191505090505b509250600091505b83821015611e93578673ffffffffffffffffffffffffffffffffffffffff16634f64b2be836040518263ffffffff167c010000000000000000000000000000000000000000000000000000000002815260040180828152602001915050602060405180830381600087803b158015611bf857600080fd5b505af1158015611c0c573d6000803e3d6000fd5b505050506040513d6020811015611c2257600080fd5b810190808051906020019092919050505090508073ffffffffffffffffffffffffffffffffffffffff166370a08231306040518263ffffffff167c0100000000000000000000000000000000000000000000000000000000028152600401808273ffffffffffffffffffffffffffffffffffffffff1673ffffffffffffffffffffffffffffffffffffffff168152602001915050602060405180830381600087803b158015611cd057600080fd5b505af1158015611ce4573d6000803e3d6000fd5b505050506040513d6020811015611cfa57600080fd5b81019080805190602001909291905050508383815181101515611d1957fe5b906020019060200201818152505060008173ffffffffffffffffffffffffffffffffffffffff1663dd62ed3e308a6040518363ffffffff167c0100000000000000000000000000000000000000000000000000000000028152600401808373ffffffffffffffffffffffffffffffffffffffff1673ffffffffffffffffffffffffffffffffffffffff1681526020018273ffffffffffffffffffffffffffffffffffffffff1673ffffffffffffffffffffffffffffffffffffffff16815260200192505050602060405180830381600087803b158015611df857600080fd5b505af1158015611e0c573d6000803e3d6000fd5b505050506040513d6020811015611e2257600080fd5b81019080805190602001909291905050501415611e8657611e84877fffffffffffffffffffffffffffffffffffffffffffffffffffffffffffffffff8373ffffffffffffffffffffffffffffffffffffffff166141a49092919063ffffffff16565b505b8180600101925050611b81565b8673ffffffffffffffffffffffffffffffffffffffff166322393ef433611ec56103e83461415690919063ffffffff16565b866040518463ffffffff167c0100000000000000000000000000000000000000000000000000000000028152600401808473ffffffffffffffffffffffffffffffffffffffff1673ffffffffffffffffffffffffffffffffffffffff16815260200183815260200180602001828103825283818151815260200191508051906020019060200280838360005b83811015611f6c578082015181840152602081019050611f51565b50505050905001945050505050600060405180830381600087803b158015611f9357600080fd5b505af1158015611fa7573d6000803e3d6000fd5b5050505060003073ffffffffffffffffffffffffffffffffffffffff1631111561202a573373ffffffffffffffffffffffffffffffffffffffff166108fc3073ffffffffffffffffffffffffffffffffffffffff16319081150290604051600060405180830381858888f19350505050158015612028573d6000803e3d6000fd5b505b8673ffffffffffffffffffffffffffffffffffffffff1663a64ed8ba6040518163ffffffff167c0100000000000000000000000000000000000000000000000000000000028152600401602060405180830381600087803b15801561208e57600080fd5b505af11580156120a2573d6000803e3d6000fd5b505050506040513d60208110156120b857600080fd5b810190808051906020019092919050505091505b6000821115612293578673ffffffffffffffffffffffffffffffffffffffff16634f64b2be600184036040518263ffffffff167c010000000000000000000000000000000000000000000000000000000002815260040180828152602001915050602060405180830381600087803b15801561214757600080fd5b505af115801561215b573d6000803e3d6000fd5b505050506040513d602081101561217157600080fd5b81019080805190602001909291905050509050612284338273ffffffffffffffffffffffffffffffffffffffff166370a08231306040518263ffffffff167c0100000000000000000000000000000000000000000000000000000000028152600401808273ffffffffffffffffffffffffffffffffffffffff1673ffffffffffffffffffffffffffffffffffffffff168152602001915050602060405180830381600087803b15801561222357600080fd5b505af1158015612237573d6000803e3d6000fd5b505050506040513d602081101561224d57600080fd5b81019080805190602001909291905050508373ffffffffffffffffffffffffffffffffffffffff166142c29092919063ffffffff16565b508180600190039250506120cc565b50505050505050565b6000809054906101000a900473ffffffffffffffffffffffffffffffffffffffff1673ffffffffffffffffffffffffffffffffffffffff163373ffffffffffffffffffffffffffffffffffffffff161415156122f757600080fd5b6000809054906101000a900473ffffffffffffffffffffffffffffffffffffffff1673ffffffffffffffffffffffffffffffffffffffff167ff8df31144d9c2f0f6b59d69b8b98abd5459d07f2742c4df920b25aae33c6482060405160405180910390a260008060006101000a81548173ffffffffffffffffffffffffffffffffffffffff021916908373ffffffffffffffffffffffffffffffffffffffff160217905550565b60006123dc826123ce853073ffffffffffffffffffffffffffffffffffffffff163161415690919063ffffffff16565b61418e90919063ffffffff16565b90508573ffffffffffffffffffffffffffffffffffffffff168186866040518083838082843782019150509250505060006040518083038185875af192505050151561242757600080fd5b505050505050565b8373ffffffffffffffffffffffffffffffffffffffff1663f3898a978285858560016040518663ffffffff167c0100000000000000000000000000000000000000000000000000000000028152600401808060200184815260200183815260200182810382528686828181526020019250602002808284378201915050955050505050506020604051808303818588803b1580156124cc57600080fd5b505af11580156124e0573d6000803e3d6000fd5b50505050506040513d60208110156124f757600080fd5b81019080805190602001909291905050505050505050565b600061254d8261253f853073ffffffffffffffffffffffffffffffffffffffff163161415690919063ffffffff16565b61418e90919063ffffffff16565b90508573ffffffffffffffffffffffffffffffffffffffff1663cb3c28c782878488307f80000000000000000000000000000000000000000000000000000000000000006000806040518963ffffffff167c0100000000000000000000000000000000000000000000000000000000028152600401808873ffffffffffffffffffffffffffffffffffffffff1673ffffffffffffffffffffffffffffffffffffffff1681526020018781526020018673ffffffffffffffffffffffffffffffffffffffff1673ffffffffffffffffffffffffffffffffffffffff1681526020018573ffffffffffffffffffffffffffffffffffffffff1673ffffffffffffffffffffffffffffffffffffffff1681526020018481526020018381526020018273ffffffffffffffffffffffffffffffffffffffff1681526020019750505050505050506020604051808303818588803b1580156126a957600080fd5b505af11580156126bd573d6000803e3d6000fd5b50505050506040513d60208110156126d457600080fd5b810190808051906020019092919050505050505050505050565b6000809054906101000a900473ffffffffffffffffffffffffffffffffffffffff1681565b600080600080600061272587876143e0565b8873ffffffffffffffffffffffffffffffffffffffff166318160ddd6040518163ffffffff167c0100000000000000000000000000000000000000000000000000000000028152600401602060405180830381600087803b15801561278957600080fd5b505af115801561279d573d6000803e3d6000fd5b505050506040513d60208110156127b357600080fd5b810190808051906020019092919050505094507fffffffffffffffffffffffffffffffffffffffffffffffffffffffffffffffff93508873ffffffffffffffffffffffffffffffffffffffff1663a64ed8ba6040518163ffffffff167c0100000000000000000000000000000000000000000000000000000000028152600401602060405180830381600087803b15801561284d57600080fd5b505af1158015612861573d6000803e3d6000fd5b505050506040513d602081101561287757600080fd5b810190808051906020019092919050505092505b6000831115612c8d578873ffffffffffffffffffffffffffffffffffffffff16634f64b2be600185036040518263ffffffff167c010000000000000000000000000000000000000000000000000000000002815260040180828152602001915050602060405180830381600087803b15801561290657600080fd5b505af115801561291a573d6000803e3d6000fd5b505050506040513d602081101561293057600080fd5b8101908080519060200190929190505050915060008273ffffffffffffffffffffffffffffffffffffffff1663dd62ed3e308c6040518363ffffffff167c0100000000000000000000000000000000000000000000000000000000028152600401808373ffffffffffffffffffffffffffffffffffffffff1673ffffffffffffffffffffffffffffffffffffffff1681526020018273ffffffffffffffffffffffffffffffffffffffff1673ffffffffffffffffffffffffffffffffffffffff16815260200192505050602060405180830381600087803b158015612a1457600080fd5b505af1158015612a28573d6000803e3d6000fd5b505050506040513d6020811015612a3e57600080fd5b81019080805190602001909291905050501415612aa257612aa0897fffffffffffffffffffffffffffffffffffffffffffffffffffffffffffffffff8473ffffffffffffffffffffffffffffffffffffffff166141a49092919063ffffffff16565b505b612c718273ffffffffffffffffffffffffffffffffffffffff166370a082318b6040518263ffffffff167c0100000000000000000000000000000000000000000000000000000000028152600401808273ffffffffffffffffffffffffffffffffffffffff1673ffffffffffffffffffffffffffffffffffffffff168152602001915050602060405180830381600087803b158015612b4057600080fd5b505af1158015612b54573d6000803e3d6000fd5b505050506040513d6020811015612b6a57600080fd5b8101908080519060200190929190505050612c638473ffffffffffffffffffffffffffffffffffffffff166370a08231306040518263ffffffff167c0100000000000000000000000000000000000000000000000000000000028152600401808273ffffffffffffffffffffffffffffffffffffffff1673ffffffffffffffffffffffffffffffffffffffff168152602001915050602060405180830381600087803b158015612c1957600080fd5b505af1158015612c2d573d6000803e3d6000fd5b505050506040513d6020811015612c4357600080fd5b81019080805190602001909291905050508861415690919063ffffffff16565b61418e90919063ffffffff16565b905083811015612c7f578093505b82806001900393505061288b565b878410151515612d05576040517f08c379a000000000000000000000000000000000000000000000000000000000815260040180806020018281038252601c8152602001807f6275793a2072657475726e2076616c756520697320746f6f206c6f770000000081525060200191505060405180910390fd5b8873ffffffffffffffffffffffffffffffffffffffff1663eba3cdfe33866040518363ffffffff167c0100000000000000000000000000000000000000000000000000000000028152600401808373ffffffffffffffffffffffffffffffffffffffff1673ffffffffffffffffffffffffffffffffffffffff16815260200182815260200192505050600060405180830381600087803b158015612da857600080fd5b505af1158015612dbc573d6000803e3d6000fd5b5050505060003073ffffffffffffffffffffffffffffffffffffffff16311115612e3f573373ffffffffffffffffffffffffffffffffffffffff166108fc3073ffffffffffffffffffffffffffffffffffffffff16319081150290604051600060405180830381858888f19350505050158015612e3d573d6000803e3d6000fd5b505b8873ffffffffffffffffffffffffffffffffffffffff1663a64ed8ba6040518163ffffffff167c0100000000000000000000000000000000000000000000000000000000028152600401602060405180830381600087803b158015612ea357600080fd5b505af1158015612eb7573d6000803e3d6000fd5b505050506040513d6020811015612ecd57600080fd5b810190808051906020019092919050505092505b60008311156130a8578873ffffffffffffffffffffffffffffffffffffffff16634f64b2be600185036040518263ffffffff167c010000000000000000000000000000000000000000000000000000000002815260040180828152602001915050602060405180830381600087803b158015612f5c57600080fd5b505af1158015612f70573d6000803e3d6000fd5b505050506040513d6020811015612f8657600080fd5b81019080805190602001909291905050509150613099338373ffffffffffffffffffffffffffffffffffffffff166370a08231306040518263ffffffff167c0100000000000000000000000000000000000000000000000000000000028152600401808273ffffffffffffffffffffffffffffffffffffffff1673ffffffffffffffffffffffffffffffffffffffff168152602001915050602060405180830381600087803b15801561303857600080fd5b505af115801561304c573d6000803e3d6000fd5b505050506040513d602081101561306257600080fd5b81019080805190602001909291905050508473ffffffffffffffffffffffffffffffffffffffff166142c29092919063ffffffff16565b50828060019003935050612ee1565b505050505050505050565b6130de85828473ffffffffffffffffffffffffffffffffffffffff166142c29092919063ffffffff16565b508473ffffffffffffffffffffffffffffffffffffffff168484604051808383808284378201915050925050506000604051808303816000865af1915050151561312757600080fd5b5050505050565b6000613255826132478588886000818110151561314757fe5b9050602002013573ffffffffffffffffffffffffffffffffffffffff1673ffffffffffffffffffffffffffffffffffffffff166370a082318b6040518263ffffffff167c0100000000000000000000000000000000000000000000000000000000028152600401808273ffffffffffffffffffffffffffffffffffffffff1673ffffffffffffffffffffffffffffffffffffffff168152602001915050602060405180830381600087803b1580156131fe57600080fd5b505af1158015613212573d6000803e3d6000fd5b505050506040513d602081101561322857600080fd5b810190808051906020019092919050505061415690919063ffffffff16565b61418e90919063ffffffff16565b90508573ffffffffffffffffffffffffffffffffffffffff1663f3898a9786868460016040518563ffffffff167c010000000000000000000000000000000000000000000000000000000002815260040180806020018481526020018381526020018281038252868682818152602001925060200280828437820191505095505050505050602060405180830381600087803b1580156132f457600080fd5b505af1158015613308573d6000803e3d6000fd5b505050506040513d602081101561331e57600080fd5b810190808051906020019092919050505050505050505050565b8173ffffffffffffffffffffffffffffffffffffffff16632e1a7d4d826040518263ffffffff167c010000000000000000000000000000000000000000000000000000000002815260040180828152602001915050600060405180830381600087803b1580156133a757600080fd5b505af11580156133bb573d6000803e3d6000fd5b505050505050565b60006134bf826134b1858873ffffffffffffffffffffffffffffffffffffffff166370a08231306040518263ffffffff167c0100000000000000000000000000000000000000000000000000000000028152600401808273ffffffffffffffffffffffffffffffffffffffff1673ffffffffffffffffffffffffffffffffffffffff168152602001915050602060405180830381600087803b15801561346857600080fd5b505af115801561347c573d6000803e3d6000fd5b505050506040513d602081101561349257600080fd5b810190808051906020019092919050505061415690919063ffffffff16565b61418e90919063ffffffff16565b90503073ffffffffffffffffffffffffffffffffffffffff1663dc3193f9878787856040518563ffffffff167c0100000000000000000000000000000000000000000000000000000000028152600401808573ffffffffffffffffffffffffffffffffffffffff1673ffffffffffffffffffffffffffffffffffffffff1681526020018473ffffffffffffffffffffffffffffffffffffffff1673ffffffffffffffffffffffffffffffffffffffff1681526020018373ffffffffffffffffffffffffffffffffffffffff1673ffffffffffffffffffffffffffffffffffffffff168152602001828152602001945050505050600060405180830381600087803b1580156135cc57600080fd5b505af11580156135e0573d6000803e3d6000fd5b50505050505050505050565b60006136e8826136da858773ffffffffffffffffffffffffffffffffffffffff166370a08231306040518263ffffffff167c0100000000000000000000000000000000000000000000000000000000028152600401808273ffffffffffffffffffffffffffffffffffffffff1673ffffffffffffffffffffffffffffffffffffffff168152602001915050602060405180830381600087803b15801561369157600080fd5b505af11580156136a5573d6000803e3d6000fd5b505050506040513d60208110156136bb57600080fd5b810190808051906020019092919050505061415690919063ffffffff16565b61418e90919063ffffffff16565b905060008473ffffffffffffffffffffffffffffffffffffffff1663dd62ed3e308a6040518363ffffffff167c0100000000000000000000000000000000000000000000000000000000028152600401808373ffffffffffffffffffffffffffffffffffffffff1673ffffffffffffffffffffffffffffffffffffffff1681526020018273ffffffffffffffffffffffffffffffffffffffff1673ffffffffffffffffffffffffffffffffffffffff16815260200192505050602060405180830381600087803b1580156137bb57600080fd5b505af11580156137cf573d6000803e3d6000fd5b505050506040513d60208110156137e557600080fd5b810190808051906020019092919050505014151561382b576138298760008673ffffffffffffffffffffffffffffffffffffffff166141a49092919063ffffffff16565b505b61385687828673ffffffffffffffffffffffffffffffffffffffff166141a49092919063ffffffff16565b508673ffffffffffffffffffffffffffffffffffffffff168686604051808383808284378201915050925050506000604051808303816000865af1915050151561389f57600080fd5b50505050505050565b8373ffffffffffffffffffffffffffffffffffffffff168184846040518083838082843782019150509250505060006040518083038185875af19250505015156138f157600080fd5b50505050565b60006139f3826139e5858773ffffffffffffffffffffffffffffffffffffffff166370a08231306040518263ffffffff167c0100000000000000000000000000000000000000000000000000000000028152600401808273ffffffffffffffffffffffffffffffffffffffff1673ffffffffffffffffffffffffffffffffffffffff168152602001915050602060405180830381600087803b15801561399c57600080fd5b505af11580156139b0573d6000803e3d6000fd5b505050506040513d60208110156139c657600080fd5b810190808051906020019092919050505061415690919063ffffffff16565b61418e90919063ffffffff16565b9050613a2087828673ffffffffffffffffffffffffffffffffffffffff166142c29092919063ffffffff16565b508673ffffffffffffffffffffffffffffffffffffffff168686604051808383808284378201915050925050506000604051808303816000865af19150501515613a6957600080fd5b50505050505050565b60008373ffffffffffffffffffffffffffffffffffffffff1663dd62ed3e30876040518363ffffffff167c0100000000000000000000000000000000000000000000000000000000028152600401808373ffffffffffffffffffffffffffffffffffffffff1673ffffffffffffffffffffffffffffffffffffffff1681526020018273ffffffffffffffffffffffffffffffffffffffff1673ffffffffffffffffffffffffffffffffffffffff16815260200192505050602060405180830381600087803b158015613b4357600080fd5b505af1158015613b57573d6000803e3d6000fd5b505050506040513d6020811015613b6d57600080fd5b81019080805190602001909291905050501415613bd157613bcf847fffffffffffffffffffffffffffffffffffffffffffffffffffffffffffffffff8573ffffffffffffffffffffffffffffffffffffffff166141a49092919063ffffffff16565b505b8373ffffffffffffffffffffffffffffffffffffffff1663cb3c28c7848385307f80000000000000000000000000000000000000000000000000000000000000006000806040518863ffffffff167c0100000000000000000000000000000000000000000000000000000000028152600401808873ffffffffffffffffffffffffffffffffffffffff1673ffffffffffffffffffffffffffffffffffffffff1681526020018781526020018673ffffffffffffffffffffffffffffffffffffffff1673ffffffffffffffffffffffffffffffffffffffff1681526020018573ffffffffffffffffffffffffffffffffffffffff1673ffffffffffffffffffffffffffffffffffffffff1681526020018481526020018381526020018273ffffffffffffffffffffffffffffffffffffffff168152602001975050505050505050602060405180830381600087803b158015613d2b57600080fd5b505af1158015613d3f573d6000803e3d6000fd5b505050506040513d6020811015613d5557600080fd5b81019080805190602001909291905050505050505050565b6000809054906101000a900473ffffffffffffffffffffffffffffffffffffffff1673ffffffffffffffffffffffffffffffffffffffff163373ffffffffffffffffffffffffffffffffffffffff16141515613dc857600080fd5b613dd181614467565b50565b6000838360008181101515613de557fe5b9050602002013573ffffffffffffffffffffffffffffffffffffffff1673ffffffffffffffffffffffffffffffffffffffff1663dd62ed3e30876040518363ffffffff167c0100000000000000000000000000000000000000000000000000000000028152600401808373ffffffffffffffffffffffffffffffffffffffff1673ffffffffffffffffffffffffffffffffffffffff1681526020018273ffffffffffffffffffffffffffffffffffffffff1673ffffffffffffffffffffffffffffffffffffffff16815260200192505050602060405180830381600087803b158015613ed057600080fd5b505af1158015613ee4573d6000803e3d6000fd5b505050506040513d6020811015613efa57600080fd5b81019080805190602001909291905050501415613f8957613f87847fffffffffffffffffffffffffffffffffffffffffffffffffffffffffffffffff858560008181101515613f4557fe5b9050602002013573ffffffffffffffffffffffffffffffffffffffff1673ffffffffffffffffffffffffffffffffffffffff166141a49092919063ffffffff16565b505b8373ffffffffffffffffffffffffffffffffffffffff1663c7ba24bc84848460016040518563ffffffff167c010000000000000000000000000000000000000000000000000000000002815260040180806020018481526020018381526020018281038252868682818152602001925060200280828437820191505095505050505050602060405180830381600087803b15801561402657600080fd5b505af115801561403a573d6000803e3d6000fd5b505050506040513d602081101561405057600080fd5b81019080805190602001909291905050505050505050565b8273ffffffffffffffffffffffffffffffffffffffff1663a9059cbb83836040518363ffffffff167c0100000000000000000000000000000000000000000000000000000000028152600401808373ffffffffffffffffffffffffffffffffffffffff1673ffffffffffffffffffffffffffffffffffffffff16815260200182815260200192505050602060405180830381600087803b15801561410b57600080fd5b505af115801561411f573d6000803e3d6000fd5b505050506040513d602081101561413557600080fd5b8101908080519060200190929190505050151561415157600080fd5b505050565b6000808314156141695760009050614188565b818302905081838281151561417a57fe5b0414151561418457fe5b8090505b92915050565b6000818381151561419b57fe5b04905092915050565b60006141af84614561565b15156141ba57600080fd5b8373ffffffffffffffffffffffffffffffffffffffff1660405180807f617070726f766528616464726573732c75696e74323536290000000000000000815250601801905060405180910390207c0100000000000000000000000000000000000000000000000000000000900484846040518363ffffffff167c0100000000000000000000000000000000000000000000000000000000028152600401808373ffffffffffffffffffffffffffffffffffffffff1673ffffffffffffffffffffffffffffffffffffffff168152602001828152602001925050506000604051808303816000875af19250505015156142b157600080fd5b6142b961456e565b90509392505050565b60006142cd84614561565b15156142d857600080fd5b8373ffffffffffffffffffffffffffffffffffffffff1660405180807f7472616e7366657228616464726573732c75696e743235362900000000000000815250601901905060405180910390207c0100000000000000000000000000000000000000000000000000000000900484846040518363ffffffff167c0100000000000000000000000000000000000000000000000000000000028152600401808373ffffffffffffffffffffffffffffffffffffffff1673ffffffffffffffffffffffffffffffffffffffff168152602001828152602001925050506000604051808303816000875af19250505015156143cf57600080fd5b6143d761456e565b90509392505050565b60008090505b60018251038110156144625761444a30600085858581518110151561440757fe5b90602001906020020151868681518110151561441f57fe5b90602001906020020151876001880181518110151561443a57fe5b906020019060200201510361459f565b151561445557600080fd5b80806001019150506143e6565b505050565b600073ffffffffffffffffffffffffffffffffffffffff168173ffffffffffffffffffffffffffffffffffffffff16141515156144a357600080fd5b8073ffffffffffffffffffffffffffffffffffffffff166000809054906101000a900473ffffffffffffffffffffffffffffffffffffffff1673ffffffffffffffffffffffffffffffffffffffff167f8be0079c531659141344cd1fd0a4f28419497f9722a3daafe3b4186f6b6457e060405160405180910390a3806000806101000a81548173ffffffffffffffffffffffffffffffffffffffff021916908373ffffffffffffffffffffffffffffffffffffffff16021790555050565b600080823b119050919050565b60003d60008114614586576020811461458f57600080fd5b6001915061459b565b60206000803e60005191505b5090565b600060405160208501600082858784018a8c6187965a03f192505050959450505050505600a165627a7a72305820076fe4a5596163955f9fa651897bda77463d07022cb362c292ae836b397935200029",
  "source": "\n\n\n\n\ncontract ERC20Basic {\n  function totalSupply() public view returns (uint256);\n  function balanceOf(address _who) public view returns (uint256);\n  function transfer(address _to, uint256 _value) public returns (bool);\n  event Transfer(address indexed from, address indexed to, uint256 value);\n}\n\n\n\n\ncontract ERC20 is ERC20Basic {\n  function allowance(address _owner, address _spender)\n    public view returns (uint256);\n\n  function transferFrom(address _from, address _to, uint256 _value)\n    public returns (bool);\n\n  function approve(address _spender, uint256 _value) public returns (bool);\n  event Approval(\n    address indexed owner,\n    address indexed spender,\n    uint256 value\n  );\n}\n\n\n\ncontract IBasicMultiToken is ERC20 {\n    event Bundle(address indexed who, address indexed beneficiary, uint256 value);\n    event Unbundle(address indexed who, address indexed beneficiary, uint256 value);\n\n    ERC20[] public tokens;\n\n    function tokensCount() public view returns(uint256);\n\n    function bundleFirstTokens(address _beneficiary, uint256 _amount, uint256[] _tokenAmounts) public;\n    function bundle(address _beneficiary, uint256 _amount) public;\n\n    function unbundle(address _beneficiary, uint256 _value) public;\n    function unbundleSome(address _beneficiary, uint256 _value, ERC20[] _tokens) public;\n\n    function disableBundling() public;\n    function enableBundling() public;\n}\n\n\n\ncontract IMultiToken is IBasicMultiToken {\n    event Update();\n    event Change(address indexed _fromToken, address indexed _toToken, address indexed _changer, uint256 _amount, uint256 _return);\n\n    mapping(address => uint256) public weights;\n\n    function getReturn(address _fromToken, address _toToken, uint256 _amount) public view returns (uint256 returnAmount);\n    function change(address _fromToken, address _toToken, uint256 _amount, uint256 _minReturn) public returns (uint256 returnAmount);\n\n    function disableChanges() public;\n}\n\n\n\n\nlibrary SafeMath {\n\n  \n  function mul(uint256 _a, uint256 _b) internal pure returns (uint256 c) {\n    \n    \n    \n    if (_a == 0) {\n      return 0;\n    }\n\n    c = _a * _b;\n    assert(c / _a == _b);\n    return c;\n  }\n\n  \n  function div(uint256 _a, uint256 _b) internal pure returns (uint256) {\n    \n    \n    \n    return _a / _b;\n  }\n\n  \n  function sub(uint256 _a, uint256 _b) internal pure returns (uint256) {\n    assert(_b <= _a);\n    return _a - _b;\n  }\n\n  \n  function add(uint256 _a, uint256 _b) internal pure returns (uint256 c) {\n    c = _a + _b;\n    assert(c >= _a);\n    return c;\n  }\n}\n\n\n\n\ncontract Ownable {\n  address public owner;\n\n\n  event OwnershipRenounced(address indexed previousOwner);\n  event OwnershipTransferred(\n    address indexed previousOwner,\n    address indexed newOwner\n  );\n\n\n  \n  constructor() public {\n    owner = msg.sender;\n  }\n\n  \n  modifier onlyOwner() {\n    require(msg.sender == owner);\n    _;\n  }\n\n  \n  function renounceOwnership() public onlyOwner {\n    emit OwnershipRenounced(owner);\n    owner = address(0);\n  }\n\n  \n  function transferOwnership(address _newOwner) public onlyOwner {\n    _transferOwnership(_newOwner);\n  }\n\n  \n  function _transferOwnership(address _newOwner) internal {\n    require(_newOwner != address(0));\n    emit OwnershipTransferred(owner, _newOwner);\n    owner = _newOwner;\n  }\n}\n\n\n\n\nlibrary SafeERC20 {\n  function safeTransfer(\n    ERC20Basic _token,\n    address _to,\n    uint256 _value\n  )\n    internal\n  {\n    require(_token.transfer(_to, _value));\n  }\n\n  function safeTransferFrom(\n    ERC20 _token,\n    address _from,\n    address _to,\n    uint256 _value\n  )\n    internal\n  {\n    require(_token.transferFrom(_from, _to, _value));\n  }\n\n  function safeApprove(\n    ERC20 _token,\n    address _spender,\n    uint256 _value\n  )\n    internal\n  {\n    require(_token.approve(_spender, _value));\n  }\n}\n\n\n\n\ncontract CanReclaimToken is Ownable {\n  using SafeERC20 for ERC20Basic;\n\n  \n  function reclaimToken(ERC20Basic _token) external onlyOwner {\n    uint256 balance = _token.balanceOf(this);\n    _token.safeTransfer(owner, balance);\n  }\n\n}\n\n\n\nlibrary CheckedERC20 {\n    using SafeMath for uint;\n\n    function isContract(address addr) internal view returns(bool result) {\n        \n        assembly {\n            result := gt(extcodesize(addr), 0)\n        }\n    }\n\n    function handleReturnBool() internal pure returns(bool result) {\n        \n        assembly {\n            switch returndatasize()\n            case 0 { \n                result := 1\n            }\n            case 32 { \n                returndatacopy(0, 0, 32)\n                result := mload(0)\n            }\n            default { \n                revert(0, 0)\n            }\n        }\n    }\n\n    function handleReturnBytes32() internal pure returns(bytes32 result) {\n        \n        assembly {\n            if eq(returndatasize(), 32) { \n                returndatacopy(0, 0, 32)\n                result := mload(0)\n            }\n            if gt(returndatasize(), 32) { \n                returndatacopy(0, 64, 32)\n                result := mload(0)\n            }\n            if lt(returndatasize(), 32) { \n                revert(0, 0)\n            }\n        }\n    }\n\n    function asmTransfer(address _token, address _to, uint256 _value) internal returns(bool) {\n        require(isContract(_token));\n        \n        require(_token.call(bytes4(keccak256(\"transfer(address,uint256)\")), _to, _value));\n        return handleReturnBool();\n    }\n\n    function asmTransferFrom(address _token, address _from, address _to, uint256 _value) internal returns(bool) {\n        require(isContract(_token));\n        \n        require(_token.call(bytes4(keccak256(\"transferFrom(address,address,uint256)\")), _from, _to, _value));\n        return handleReturnBool();\n    }\n\n    function asmApprove(address _token, address _spender, uint256 _value) internal returns(bool) {\n        require(isContract(_token));\n        \n        require(_token.call(bytes4(keccak256(\"approve(address,uint256)\")), _spender, _value));\n        return handleReturnBool();\n    }\n\n    \n\n    function checkedTransfer(ERC20 _token, address _to, uint256 _value) internal {\n        if (_value > 0) {\n            uint256 balance = _token.balanceOf(this);\n            asmTransfer(_token, _to, _value);\n            require(_token.balanceOf(this) == balance.sub(_value), \"checkedTransfer: Final balance didn't match\");\n        }\n    }\n\n    function checkedTransferFrom(ERC20 _token, address _from, address _to, uint256 _value) internal {\n        if (_value > 0) {\n            uint256 toBalance = _token.balanceOf(_to);\n            asmTransferFrom(_token, _from, _to, _value);\n            require(_token.balanceOf(_to) == toBalance.add(_value), \"checkedTransfer: Final balance didn't match\");\n        }\n    }\n\n    \n\n    function asmName(address _token) internal view returns(bytes32) {\n        require(isContract(_token));\n        \n        require(_token.call(bytes4(keccak256(\"name()\"))));\n        return handleReturnBytes32();\n    }\n\n    function asmSymbol(address _token) internal view returns(bytes32) {\n        require(isContract(_token));\n        \n        require(_token.call(bytes4(keccak256(\"symbol()\"))));\n        return handleReturnBytes32();\n    }\n}\n\n\n\ncontract IEtherToken is ERC20 {\n    function deposit() public payable;\n    function withdraw(uint256 _amount) public;\n}\n\n\ncontract IBancorNetwork {\n    function convert(\n        address[] _path,\n        uint256 _amount,\n        uint256 _minReturn\n    ) \n        public\n        payable\n        returns(uint256);\n\n    function claimAndConvert(\n        address[] _path,\n        uint256 _amount,\n        uint256 _minReturn\n    ) \n        public\n        payable\n        returns(uint256);\n}\n\n\ncontract IKyberNetworkProxy {\n    function trade(\n        address src,\n        uint srcAmount,\n        address dest,\n        address destAddress,\n        uint maxDestAmount,\n        uint minConversionRate,\n        address walletId\n    )\n        public\n        payable\n        returns(uint);\n}\n\n\ncontract MultiChanger is CanReclaimToken {\n    using SafeMath for uint256;\n    using CheckedERC20 for ERC20;\n\n    \n    \n    \n    function externalCall(address destination, uint value, bytes data, uint dataOffset, uint dataLength) internal returns (bool result) {\n        \n        assembly {\n            let x := mload(0x40)   \n            let d := add(data, 32) \n            result := call(\n                sub(gas, 34710),   \n                                   \n                                   \n                destination,\n                value,\n                add(d, dataOffset),\n                dataLength,        \n                x,\n                0                  \n            )\n        }\n    }\n\n    function change(\n        bytes _callDatas,\n        uint[] _starts \n    )\n        internal\n    {\n        for (uint i = 0; i < _starts.length - 1; i++) {\n            require(externalCall(this, 0, _callDatas, _starts[i], _starts[i + 1] - _starts[i]));\n        }\n    }\n\n    function sendEthValue(address _target, bytes _data, uint256 _value) external {\n        \n        require(_target.call.value(_value)(_data));\n    }\n\n    function sendEthProportion(address _target, bytes _data, uint256 _mul, uint256 _div) external {\n        uint256 value = address(this).balance.mul(_mul).div(_div);\n        \n        require(_target.call.value(value)(_data));\n    }\n\n    function approveTokenAmount(address _target, bytes _data, ERC20 _fromToken, uint256 _amount) external {\n        if (_fromToken.allowance(this, _target) != 0) {\n            _fromToken.asmApprove(_target, 0);\n        }\n        _fromToken.asmApprove(_target, _amount);\n        \n        require(_target.call(_data));\n    }\n\n    function approveTokenProportion(address _target, bytes _data, ERC20 _fromToken, uint256 _mul, uint256 _div) external {\n        uint256 amount = _fromToken.balanceOf(this).mul(_mul).div(_div);\n        if (_fromToken.allowance(this, _target) != 0) {\n            _fromToken.asmApprove(_target, 0);\n        }\n        _fromToken.asmApprove(_target, amount);\n        \n        require(_target.call(_data));\n    }\n\n    function transferTokenAmount(address _target, bytes _data, ERC20 _fromToken, uint256 _amount) external {\n        _fromToken.asmTransfer(_target, _amount);\n        \n        require(_target.call(_data));\n    }\n\n    function transferTokenProportion(address _target, bytes _data, ERC20 _fromToken, uint256 _mul, uint256 _div) external {\n        uint256 amount = _fromToken.balanceOf(this).mul(_mul).div(_div);\n        _fromToken.asmTransfer(_target, amount);\n        \n        require(_target.call(_data));\n    }\n\n    \n\n    function withdrawEtherTokenAmount(IEtherToken _etherToken, uint256 _amount) external {\n        _etherToken.withdraw(_amount);\n    }\n\n    function withdrawEtherTokenProportion(IEtherToken _etherToken, uint256 _mul, uint256 _div) external {\n        uint256 amount = _etherToken.balanceOf(this).mul(_mul).div(_div);\n        _etherToken.withdraw(amount);\n    }\n\n    \n\n    function bancorSendEthValue(IBancorNetwork _bancor, address[] _path, uint256 _value) external {\n        _bancor.convert.value(_value)(_path, _value, 1);\n    }\n\n    function bancorSendEthProportion(IBancorNetwork _bancor, address[] _path, uint256 _mul, uint256 _div) external {\n        uint256 value = address(this).balance.mul(_mul).div(_div);\n        _bancor.convert.value(value)(_path, value, 1);\n    }\n\n    function bancorApproveTokenAmount(IBancorNetwork _bancor, address[] _path, uint256 _amount) external {\n        if (ERC20(_path[0]).allowance(this, _bancor) == 0) {\n            ERC20(_path[0]).asmApprove(_bancor, uint256(-1));\n        }\n        _bancor.claimAndConvert(_path, _amount, 1);\n    }\n\n    function bancorApproveTokenProportion(IBancorNetwork _bancor, address[] _path, uint256 _mul, uint256 _div) external {\n        uint256 amount = ERC20(_path[0]).balanceOf(this).mul(_mul).div(_div);\n        if (ERC20(_path[0]).allowance(this, _bancor) == 0) {\n            ERC20(_path[0]).asmApprove(_bancor, uint256(-1));\n        }\n        _bancor.claimAndConvert(_path, amount, 1);\n    }\n\n    function bancorTransferTokenAmount(IBancorNetwork _bancor, address[] _path, uint256 _amount) external {\n        ERC20(_path[0]).asmTransfer(_bancor, _amount);\n        _bancor.convert(_path, _amount, 1);\n    }\n\n    function bancorTransferTokenProportion(IBancorNetwork _bancor, address[] _path, uint256 _mul, uint256 _div) external {\n        uint256 amount = ERC20(_path[0]).balanceOf(this).mul(_mul).div(_div);\n        ERC20(_path[0]).asmTransfer(_bancor, amount);\n        _bancor.convert(_path, amount, 1);\n    }\n\n    function bancorAlreadyTransferedTokenAmount(IBancorNetwork _bancor, address[] _path, uint256 _amount) external {\n        _bancor.convert(_path, _amount, 1);\n    }\n\n    function bancorAlreadyTransferedTokenProportion(IBancorNetwork _bancor, address[] _path, uint256 _mul, uint256 _div) external {\n        uint256 amount = ERC20(_path[0]).balanceOf(_bancor).mul(_mul).div(_div);\n        _bancor.convert(_path, amount, 1);\n    }\n\n    \n\n    function kyberSendEthProportion(IKyberNetworkProxy _kyber, ERC20 _fromToken, address _toToken, uint256 _mul, uint256 _div) external {\n        uint256 value = address(this).balance.mul(_mul).div(_div);\n        _kyber.trade.value(value)(\n            _fromToken,\n            value,\n            _toToken,\n            this,\n            1 << 255,\n            0,\n            0\n        );\n    }\n\n    function kyberApproveTokenAmount(IKyberNetworkProxy _kyber, ERC20 _fromToken, address _toToken, uint256 _amount) external {\n        if (_fromToken.allowance(this, _kyber) == 0) {\n            _fromToken.asmApprove(_kyber, uint256(-1));\n        }\n        _kyber.trade(\n            _fromToken,\n            _amount,\n            _toToken,\n            this,\n            1 << 255,\n            0,\n            0\n        );\n    }\n\n    function kyberApproveTokenProportion(IKyberNetworkProxy _kyber, ERC20 _fromToken, address _toToken, uint256 _mul, uint256 _div) external {\n        uint256 amount = _fromToken.balanceOf(this).mul(_mul).div(_div);\n        this.kyberApproveTokenAmount(_kyber, _fromToken, _toToken, amount);\n    }\n}\n\n\n\ncontract MultiBuyer is MultiChanger {\n    function buy(\n        IMultiToken _mtkn,\n        uint256 _minimumReturn,\n        bytes _callDatas,\n        uint[] _starts \n    )\n        public\n        payable\n    {\n        change(_callDatas, _starts);\n\n        uint mtknTotalSupply = _mtkn.totalSupply(); \n        uint256 bestAmount = uint256(-1);\n        for (uint i = _mtkn.tokensCount(); i > 0; i--) {\n            ERC20 token = _mtkn.tokens(i - 1);\n            if (token.allowance(this, _mtkn) == 0) {\n                token.asmApprove(_mtkn, uint256(-1));\n            }\n\n            uint256 amount = mtknTotalSupply.mul(token.balanceOf(this)).div(token.balanceOf(_mtkn));\n            if (amount < bestAmount) {\n                bestAmount = amount;\n            }\n        }\n\n        require(bestAmount >= _minimumReturn, \"buy: return value is too low\");\n        _mtkn.bundle(msg.sender, bestAmount);\n        if (address(this).balance > 0) {\n            msg.sender.transfer(address(this).balance);\n        }\n        for (i = _mtkn.tokensCount(); i > 0; i--) {\n            token = _mtkn.tokens(i - 1);\n            token.asmTransfer(msg.sender, token.balanceOf(this));\n        }\n    }\n\n    function buyFirstTokens(\n        IMultiToken _mtkn,\n        bytes _callDatas,\n        uint[] _starts \n    )\n        public\n        payable\n    {\n        change(_callDatas, _starts);\n\n        uint tokensCount = _mtkn.tokensCount();\n        uint256[] memory amounts = new uint256[](tokensCount);\n        for (uint i = 0; i < tokensCount; i++) {\n            ERC20 token = _mtkn.tokens(i);\n            amounts[i] = token.balanceOf(this);\n            if (token.allowance(this, _mtkn) == 0) {\n                token.asmApprove(_mtkn, uint256(-1));\n            }\n        }\n\n        _mtkn.bundleFirstTokens(msg.sender, msg.value.mul(1000), amounts);\n        if (address(this).balance > 0) {\n            msg.sender.transfer(address(this).balance);\n        }\n        for (i = _mtkn.tokensCount(); i > 0; i--) {\n            token = _mtkn.tokens(i - 1);\n            token.asmTransfer(msg.sender, token.balanceOf(this));\n        }\n    }\n}",
  "sourcePath": "/home/XXX-1/smartrim-experiment/for-rlf/0xbe4eee50c1fa98b8f2f0edcc4cccae6646b4ce2c/contracts/0xbe4eee50c1fa98b8f2f0edcc4cccae6646b4ce2c.sol",
  "compiler": {
    "name": "solc",
    "version": "0.4.25+commit.59dbf8f1.Emscripten.clang"
  },
  "schemaVersion": "3.4.16",
  "updatedAt": "2025-08-14T03:43:14.376Z",
  "networkType": "ethereum",
  "devdoc": {
    "methods": {}
  },
  "userdoc": {
    "methods": {}
  }
}