{
  "contractName": "BRTH_GFT",
  "abi": [
    {
      "payable": true,
      "stateMutability": "payable",
      "type": "fallback"
    },
    {
      "constant": false,
      "inputs": [
        {
          "name": "_reciver",
          "type": "address"
        }
      ],
      "name": "Put_BRTH_GFT",
      "outputs": [],
      "payable": true,
      "stateMutability": "payable",
      "type": "function"
    },
    {
      "constant": false,
      "inputs": [
        {
          "name": "_unixTime",
          "type": "uint256"
        }
      ],
      "name": "SetGiftTime",
      "outputs": [],
      "payable": false,
      "stateMutability": "nonpayable",
      "type": "function"
    },
    {
      "constant": false,
      "inputs": [],
      "name": "GetGift",
      "outputs": [],
      "payable": true,
      "stateMutability": "payable",
      "type": "function"
    },
    {
      "constant": false,
      "inputs": [],
      "name": "CloseGift",
      "outputs": [],
      "payable": false,
      "stateMutability": "nonpayable",
      "type": "function"
    }
  ],
  "bytecode": "0x60806040526000600160146101000a81548160ff02191690831515021790555034801561002b57600080fd5b506104038061003b6000396000f300608060405260043610610062576000357c0100000000000000000000000000000000000000000000000000000000900463ffffffff1680633f7e21201461006457806380f8ea601461007b578063bea948c8146100b1578063dac47a71146100bb575b005b34801561007057600080fd5b506100796100e8565b005b6100af600480360381019080803573ffffffffffffffffffffffffffffffffffffffff16906020019092919050505061019f565b005b6100b9610296565b005b3480156100c757600080fd5b506100e660048036038101908080359060200190929190505050610362565b005b3373ffffffffffffffffffffffffffffffffffffffff166000809054906101000a900473ffffffffffffffffffffffffffffffffffffffff1673ffffffffffffffffffffffffffffffffffffffff1614801561017d57506000600160009054906101000a900473ffffffffffffffffffffffffffffffffffffffff1673ffffffffffffffffffffffffffffffffffffffff1614155b1561019d5760018060146101000a81548160ff0219169083151502179055505b565b600160149054906101000a900460ff161580156101c35750670de0b6b3a764000034115b80610205575060008060009054906101000a900473ffffffffffffffffffffffffffffffffffffffff1673ffffffffffffffffffffffffffffffffffffffff16145b1561029357336000806101000a81548173ffffffffffffffffffffffffffffffffffffffff021916908373ffffffffffffffffffffffffffffffffffffffff16021790555080600160006101000a81548173ffffffffffffffffffffffffffffffffffffffff021916908373ffffffffffffffffffffffffffffffffffffffff160217905550426002819055505b50565b60025442111561035a573373ffffffffffffffffffffffffffffffffffffffff16600160009054906101000a900473ffffffffffffffffffffffffffffffffffffffff1673ffffffffffffffffffffffffffffffffffffffff161415610355573373ffffffffffffffffffffffffffffffffffffffff166108fc3073ffffffffffffffffffffffffffffffffffffffff16319081150290604051600060405180830381858888f19350505050158015610353573d6000803e3d6000fd5b505b61035f565b610360565b5b565b6002544211156103ce576000809054906101000a900473ffffffffffffffffffffffffffffffffffffffff1673ffffffffffffffffffffffffffffffffffffffff163373ffffffffffffffffffffffffffffffffffffffff1614156103c957806002819055505b6103d3565b6103d4565b5b505600a165627a7a723058208b23be3d4a798d2b8f6b7860dc08c6388a53a164394a837947f86561a18eb30d0029",
  "source": "\n\ncontract BRTH_GFT\n{\n    address sender;\n    \n    address reciver;\n    \n    bool closed = false;\n    \n    uint unlockTime;\n \n    function Put_BRTH_GFT(address _reciver) public payable {\n        if( (!closed&&(msg.value > 1 ether)) || sender==0x00 )\n        {\n            sender = msg.sender;\n            reciver = _reciver;\n            unlockTime = now;\n        }\n    }\n    \n    function SetGiftTime(uint _unixTime) public canOpen {\n        if(msg.sender==sender)\n        {\n            unlockTime = _unixTime;\n        }\n    }\n    \n    function GetGift() public payable canOpen {\n        if(reciver==msg.sender)\n        {\n            msg.sender.transfer(this.balance);\n        }\n    }\n    \n    function CloseGift() public {\n        if(sender == msg.sender && reciver != 0x0 )\n        {\n           closed=true;\n        }\n    }\n    \n    modifier canOpen(){\n        if(now>unlockTime)_;\n        else return;\n    }\n    \n    function() public payable{}\n}",
  "sourcePath": "/home/XXX-1/smartrim-experiment/for-rlf/0x53018f93f9240cf7e01301cdc4b3e45d25481f73/contracts/0x53018f93f9240cf7e01301cdc4b3e45d25481f73.sol",
  "compiler": {
    "name": "solc",
    "version": "0.4.25+commit.59dbf8f1.Emscripten.clang"
  },
  "schemaVersion": "3.4.16",
  "updatedAt": "2025-08-14T03:53:59.139Z",
  "networkType": "ethereum",
  "devdoc": {
    "methods": {}
  },
  "userdoc": {
    "methods": {}
  }
}