{
  "contractName": "Offers_1Config",
  "abi": [
    {
      "constant": true,
      "inputs": [],
      "name": "cfoAddress",
      "outputs": [
        {
          "name": "",
          "type": "address"
        }
      ],
      "payable": false,
      "stateMutability": "view",
      "type": "function"
    },
    {
      "constant": true,
      "inputs": [],
      "name": "frozen",
      "outputs": [
        {
          "name": "",
          "type": "bool"
        }
      ],
      "payable": false,
      "stateMutability": "view",
      "type": "function"
    },
    {
      "constant": true,
      "inputs": [],
      "name": "ceoAddress",
      "outputs": [
        {
          "name": "",
          "type": "address"
        }
      ],
      "payable": false,
      "stateMutability": "view",
      "type": "function"
    },
    {
      "constant": true,
      "inputs": [],
      "name": "globalDuration",
      "outputs": [
        {
          "name": "",
          "type": "uint256"
        }
      ],
      "payable": false,
      "stateMutability": "view",
      "type": "function"
    },
    {
      "constant": false,
      "inputs": [
        {
          "name": "_newLostAndFound",
          "type": "address"
        }
      ],
      "name": "setLostAndFound",
      "outputs": [],
      "payable": false,
      "stateMutability": "nonpayable",
      "type": "function"
    },
    {
      "constant": false,
      "inputs": [
        {
          "name": "_newCEO",
          "type": "address"
        }
      ],
      "name": "setCEO",
      "outputs": [],
      "payable": false,
      "stateMutability": "nonpayable",
      "type": "function"
    },
    {
      "constant": false,
      "inputs": [
        {
          "name": "_newCOO",
          "type": "address"
        }
      ],
      "name": "setCOO",
      "outputs": [],
      "payable": false,
      "stateMutability": "nonpayable",
      "type": "function"
    },
    {
      "constant": true,
      "inputs": [],
      "name": "lostAndFoundAddress",
      "outputs": [
        {
          "name": "",
          "type": "address"
        }
      ],
      "payable": false,
      "stateMutability": "view",
      "type": "function"
    },
    {
      "constant": false,
      "inputs": [],
      "name": "withdrawTotalLostAndFoundBalance",
      "outputs": [],
      "payable": false,
      "stateMutability": "nonpayable",
      "type": "function"
    },
    {
      "constant": false,
      "inputs": [
        {
          "name": "_newCFO",
          "type": "address"
        }
      ],
      "name": "setCFO",
      "outputs": [],
      "payable": false,
      "stateMutability": "nonpayable",
      "type": "function"
    },
    {
      "constant": true,
      "inputs": [],
      "name": "totalCFOEarnings",
      "outputs": [
        {
          "name": "",
          "type": "uint256"
        }
      ],
      "payable": false,
      "stateMutability": "view",
      "type": "function"
    },
    {
      "constant": false,
      "inputs": [],
      "name": "freeze",
      "outputs": [],
      "payable": false,
      "stateMutability": "nonpayable",
      "type": "function"
    },
    {
      "constant": true,
      "inputs": [],
      "name": "minimumTotalValue",
      "outputs": [
        {
          "name": "",
          "type": "uint256"
        }
      ],
      "payable": false,
      "stateMutability": "view",
      "type": "function"
    },
    {
      "constant": true,
      "inputs": [],
      "name": "totalLostAndFoundBalance",
      "outputs": [
        {
          "name": "",
          "type": "uint256"
        }
      ],
      "payable": false,
      "stateMutability": "view",
      "type": "function"
    },
    {
      "constant": false,
      "inputs": [],
      "name": "withdrawTotalCFOEarnings",
      "outputs": [],
      "payable": false,
      "stateMutability": "nonpayable",
      "type": "function"
    },
    {
      "constant": true,
      "inputs": [],
      "name": "cooAddress",
      "outputs": [
        {
          "name": "",
          "type": "address"
        }
      ],
      "payable": false,
      "stateMutability": "view",
      "type": "function"
    },
    {
      "constant": true,
      "inputs": [],
      "name": "offerCut",
      "outputs": [
        {
          "name": "",
          "type": "uint256"
        }
      ],
      "payable": false,
      "stateMutability": "view",
      "type": "function"
    },
    {
      "constant": true,
      "inputs": [],
      "name": "unsuccessfulFee",
      "outputs": [
        {
          "name": "",
          "type": "uint256"
        }
      ],
      "payable": false,
      "stateMutability": "view",
      "type": "function"
    },
    {
      "constant": true,
      "inputs": [],
      "name": "minimumPriceIncrement",
      "outputs": [
        {
          "name": "",
          "type": "uint256"
        }
      ],
      "payable": false,
      "stateMutability": "view",
      "type": "function"
    },
    {
      "anonymous": false,
      "inputs": [
        {
          "indexed": false,
          "name": "value",
          "type": "uint256"
        }
      ],
      "name": "GlobalDurationUpdated",
      "type": "event"
    },
    {
      "anonymous": false,
      "inputs": [
        {
          "indexed": false,
          "name": "value",
          "type": "uint256"
        }
      ],
      "name": "MinimumTotalValueUpdated",
      "type": "event"
    },
    {
      "anonymous": false,
      "inputs": [
        {
          "indexed": false,
          "name": "value",
          "type": "uint256"
        }
      ],
      "name": "MinimumPriceIncrementUpdated",
      "type": "event"
    },
    {
      "anonymous": false,
      "inputs": [
        {
          "indexed": false,
          "name": "value",
          "type": "uint256"
        }
      ],
      "name": "OfferCutUpdated",
      "type": "event"
    },
    {
      "anonymous": false,
      "inputs": [
        {
          "indexed": false,
          "name": "value",
          "type": "uint256"
        }
      ],
      "name": "UnsuccessfulFeeUpdated",
      "type": "event"
    },
    {
      "constant": false,
      "inputs": [
        {
          "name": "_newMinTotal",
          "type": "uint256"
        }
      ],
      "name": "setMinimumTotalValue",
      "outputs": [],
      "payable": false,
      "stateMutability": "nonpayable",
      "type": "function"
    },
    {
      "constant": false,
      "inputs": [
        {
          "name": "_newDuration",
          "type": "uint256"
        }
      ],
      "name": "setGlobalDuration",
      "outputs": [],
      "payable": false,
      "stateMutability": "nonpayable",
      "type": "function"
    },
    {
      "constant": false,
      "inputs": [
        {
          "name": "_newOfferCut",
          "type": "uint256"
        }
      ],
      "name": "setOfferCut",
      "outputs": [],
      "payable": false,
      "stateMutability": "nonpayable",
      "type": "function"
    },
    {
      "constant": false,
      "inputs": [
        {
          "name": "_newUnsuccessfulFee",
          "type": "uint256"
        }
      ],
      "name": "setUnsuccessfulFee",
      "outputs": [],
      "payable": false,
      "stateMutability": "nonpayable",
      "type": "function"
    },
    {
      "constant": false,
      "inputs": [
        {
          "name": "_newMinimumPriceIncrement",
          "type": "uint256"
        }
      ],
      "name": "setMinimumPriceIncrement",
      "outputs": [],
      "payable": false,
      "stateMutability": "nonpayable",
      "type": "function"
    }
  ],
  "bytecode": "0x60806040526000600660006101000a81548160ff02191690831515021790555034801561002b57600080fd5b506120338061003b6000396000f30060806040526004361061013e576000357c0100000000000000000000000000000000000000000000000000000000900463ffffffff1680630519ce7914610143578063054f7d9c1461019a5780630a0f8168146101c957806314806a32146102205780631f7474581461024b57806327d7874c1461028e5780632ba73c15146102d15780632d5796ac14610314578063302890e1146103415780633a3d55a01461039857806345394dad146103c55780634ae772a4146103dc5780634e0a3379146104095780635ac165af1461044c57806362a5af3b14610477578063692507291461048e5780637ae86385146104b95780638c0ceea5146104e4578063930add2914610511578063b047fb5014610528578063bea12e001461057f578063bff2273e146105aa578063c65b98e7146105d7578063db34176514610602575b600080fd5b34801561014f57600080fd5b5061015861062d565b604051808273ffffffffffffffffffffffffffffffffffffffff1673ffffffffffffffffffffffffffffffffffffffff16815260200191505060405180910390f35b3480156101a657600080fd5b506101af610653565b604051808215151515815260200191505060405180910390f35b3480156101d557600080fd5b506101de610666565b604051808273ffffffffffffffffffffffffffffffffffffffff1673ffffffffffffffffffffffffffffffffffffffff16815260200191505060405180910390f35b34801561022c57600080fd5b5061023561068b565b6040518082815260200191505060405180910390f35b34801561025757600080fd5b5061028c600480360381019080803573ffffffffffffffffffffffffffffffffffffffff169060200190929190505050610691565b005b34801561029a57600080fd5b506102cf600480360381019080803573ffffffffffffffffffffffffffffffffffffffff16906020019092919050505061088a565b005b3480156102dd57600080fd5b50610312600480360381019080803573ffffffffffffffffffffffffffffffffffffffff169060200190929190505050610a82565b005b34801561032057600080fd5b5061033f60048036038101908080359060200190929190505050610c7b565b005b34801561034d57600080fd5b50610356610e2e565b604051808273ffffffffffffffffffffffffffffffffffffffff1673ffffffffffffffffffffffffffffffffffffffff16815260200191505060405180910390f35b3480156103a457600080fd5b506103c360048036038101908080359060200190929190505050610e54565b005b3480156103d157600080fd5b506103da611007565b005b3480156103e857600080fd5b50610407600480360381019080803590602001909291905050506111a6565b005b34801561041557600080fd5b5061044a600480360381019080803573ffffffffffffffffffffffffffffffffffffffff16906020019092919050505061135c565b005b34801561045857600080fd5b50610461611555565b6040518082815260200191505060405180910390f35b34801561048357600080fd5b5061048c61155b565b005b34801561049a57600080fd5b506104a3611778565b6040518082815260200191505060405180910390f35b3480156104c557600080fd5b506104ce61177e565b6040518082815260200191505060405180910390f35b3480156104f057600080fd5b5061050f60048036038101908080359060200190929190505050611784565b005b34801561051d57600080fd5b506105266119dc565b005b34801561053457600080fd5b5061053d611b7b565b604051808273ffffffffffffffffffffffffffffffffffffffff1673ffffffffffffffffffffffffffffffffffffffff16815260200191505060405180910390f35b34801561058b57600080fd5b50610594611ba1565b6040518082815260200191505060405180910390f35b3480156105b657600080fd5b506105d560048036038101908080359060200190929190505050611ba7565b005b3480156105e357600080fd5b506105ec611dfb565b6040518082815260200191505060405180910390f35b34801561060e57600080fd5b50610617611e01565b6040518082815260200191505060405180910390f35b600260009054906101000a900473ffffffffffffffffffffffffffffffffffffffff1681565b600660009054906101000a900460ff1681565b6000809054906101000a900473ffffffffffffffffffffffffffffffffffffffff1681565b60075481565b6000809054906101000a900473ffffffffffffffffffffffffffffffffffffffff1673ffffffffffffffffffffffffffffffffffffffff163373ffffffffffffffffffffffffffffffffffffffff1614151561077b576040517f08c379a000000000000000000000000000000000000000000000000000000000815260040180806020018281038252602d8152602001807f6f6e6c792043454f20697320616c6c6f77656420746f20706572666f726d207481526020017f686973206f7065726174696f6e0000000000000000000000000000000000000081525060400191505060405180910390fd5b600073ffffffffffffffffffffffffffffffffffffffff168173ffffffffffffffffffffffffffffffffffffffff1614151515610846576040517f08c379a000000000000000000000000000000000000000000000000000000000815260040180806020018281038252602d8152602001807f6e6577206c6f737420616e6420666f756e642063616e6e6f742062652074686581526020017f207a65726f2d6163636f756e740000000000000000000000000000000000000081525060400191505060405180910390fd5b80600360006101000a81548173ffffffffffffffffffffffffffffffffffffffff021916908373ffffffffffffffffffffffffffffffffffffffff16021790555050565b6000809054906101000a900473ffffffffffffffffffffffffffffffffffffffff1673ffffffffffffffffffffffffffffffffffffffff163373ffffffffffffffffffffffffffffffffffffffff16141515610974576040517f08c379a000000000000000000000000000000000000000000000000000000000815260040180806020018281038252602d8152602001807f6f6e6c792043454f20697320616c6c6f77656420746f20706572666f726d207481526020017f686973206f7065726174696f6e0000000000000000000000000000000000000081525060400191505060405180910390fd5b600073ffffffffffffffffffffffffffffffffffffffff168173ffffffffffffffffffffffffffffffffffffffff1614151515610a3f576040517f08c379a000000000000000000000000000000000000000000000000000000000815260040180806020018281038252602a8152602001807f6e65772043454f20616464726573732063616e6e6f7420626520746865207a6581526020017f726f2d6163636f756e740000000000000000000000000000000000000000000081525060400191505060405180910390fd5b806000806101000a81548173ffffffffffffffffffffffffffffffffffffffff021916908373ffffffffffffffffffffffffffffffffffffffff16021790555050565b6000809054906101000a900473ffffffffffffffffffffffffffffffffffffffff1673ffffffffffffffffffffffffffffffffffffffff163373ffffffffffffffffffffffffffffffffffffffff16141515610b6c576040517f08c379a000000000000000000000000000000000000000000000000000000000815260040180806020018281038252602d8152602001807f6f6e6c792043454f20697320616c6c6f77656420746f20706572666f726d207481526020017f686973206f7065726174696f6e0000000000000000000000000000000000000081525060400191505060405180910390fd5b600073ffffffffffffffffffffffffffffffffffffffff168173ffffffffffffffffffffffffffffffffffffffff1614151515610c37576040517f08c379a000000000000000000000000000000000000000000000000000000000815260040180806020018281038252602a8152602001807f6e657720434f4f20616464726573732063616e6e6f7420626520746865207a6581526020017f726f2d6163636f756e740000000000000000000000000000000000000000000081525060400191505060405180910390fd5b80600160006101000a81548173ffffffffffffffffffffffffffffffffffffffff021916908373ffffffffffffffffffffffffffffffffffffffff16021790555050565b600160009054906101000a900473ffffffffffffffffffffffffffffffffffffffff1673ffffffffffffffffffffffffffffffffffffffff163373ffffffffffffffffffffffffffffffffffffffff16141515610d66576040517f08c379a000000000000000000000000000000000000000000000000000000000815260040180806020018281038252602d8152602001807f6f6e6c7920434f4f20697320616c6c6f77656420746f20706572666f726d207481526020017f686973206f7065726174696f6e0000000000000000000000000000000000000081525060400191505060405180910390fd5b600660009054906101000a900460ff16151515610deb576040517f08c379a000000000000000000000000000000000000000000000000000000000815260040180806020018281038252601f8152602001807f636f6e7472616374206e6565647320746f206e6f742062652066726f7a656e0081525060200191505060405180910390fd5b610df481611e07565b7f4a13d5076f950a8eb96f30e1f814eecade18fcebc5042f3ce669cea283edaefd816040518082815260200191505060405180910390a150565b600360009054906101000a900473ffffffffffffffffffffffffffffffffffffffff1681565b600160009054906101000a900473ffffffffffffffffffffffffffffffffffffffff1673ffffffffffffffffffffffffffffffffffffffff163373ffffffffffffffffffffffffffffffffffffffff16141515610f3f576040517f08c379a000000000000000000000000000000000000000000000000000000000815260040180806020018281038252602d8152602001807f6f6e6c7920434f4f20697320616c6c6f77656420746f20706572666f726d207481526020017f686973206f7065726174696f6e0000000000000000000000000000000000000081525060400191505060405180910390fd5b600660009054906101000a900460ff16151515610fc4576040517f08c379a000000000000000000000000000000000000000000000000000000000815260040180806020018281038252601f8152602001807f636f6e7472616374206e6565647320746f206e6f742062652066726f7a656e0081525060200191505060405180910390fd5b610fcd81611eb1565b7f2fa1029ea9a56473df3e068ba4dc7f4343efacb8a54b808f595f78d1d62f0035816040518082815260200191505060405180910390a150565b6000600360009054906101000a900473ffffffffffffffffffffffffffffffffffffffff1673ffffffffffffffffffffffffffffffffffffffff163373ffffffffffffffffffffffffffffffffffffffff161480156110935750600073ffffffffffffffffffffffffffffffffffffffff163373ffffffffffffffffffffffffffffffffffffffff1614155b151561112d576040517f08c379a00000000000000000000000000000000000000000000000000000000081526004018080602001828103825260368152602001807f6f6e6c79204c6f7374416e64466f756e6420697320616c6c6f77656420746f2081526020017f706572666f726d2074686973206f7065726174696f6e0000000000000000000081525060400191505060405180910390fd5b60055490506000600581905550600360009054906101000a900473ffffffffffffffffffffffffffffffffffffffff1673ffffffffffffffffffffffffffffffffffffffff166108fc829081150290604051600060405180830381858888f193505050501580156111a2573d6000803e3d6000fd5b5050565b600160009054906101000a900473ffffffffffffffffffffffffffffffffffffffff1673ffffffffffffffffffffffffffffffffffffffff163373ffffffffffffffffffffffffffffffffffffffff16141515611291576040517f08c379a000000000000000000000000000000000000000000000000000000000815260040180806020018281038252602d8152602001807f6f6e6c7920434f4f20697320616c6c6f77656420746f20706572666f726d207481526020017f686973206f7065726174696f6e0000000000000000000000000000000000000081525060400191505060405180910390fd5b600660009054906101000a900460ff16151515611316576040517f08c379a000000000000000000000000000000000000000000000000000000000815260040180806020018281038252601f8152602001807f636f6e7472616374206e6565647320746f206e6f742062652066726f7a656e0081525060200191505060405180910390fd5b61132281600a54611f5b565b7f4193e3b6c8a874196e0068cb9b96b2aaef71a2d90fc46254c4508e1003996bd5816040518082815260200191505060405180910390a150565b6000809054906101000a900473ffffffffffffffffffffffffffffffffffffffff1673ffffffffffffffffffffffffffffffffffffffff163373ffffffffffffffffffffffffffffffffffffffff16141515611446576040517f08c379a000000000000000000000000000000000000000000000000000000000815260040180806020018281038252602d8152602001807f6f6e6c792043454f20697320616c6c6f77656420746f20706572666f726d207481526020017f686973206f7065726174696f6e0000000000000000000000000000000000000081525060400191505060405180910390fd5b600073ffffffffffffffffffffffffffffffffffffffff168173ffffffffffffffffffffffffffffffffffffffff1614151515611511576040517f08c379a000000000000000000000000000000000000000000000000000000000815260040180806020018281038252602a8152602001807f6e65772043464f20616464726573732063616e6e6f7420626520746865207a6581526020017f726f2d6163636f756e740000000000000000000000000000000000000000000081525060400191505060405180910390fd5b80600260006101000a81548173ffffffffffffffffffffffffffffffffffffffff021916908373ffffffffffffffffffffffffffffffffffffffff16021790555050565b60045481565b600073ffffffffffffffffffffffffffffffffffffffff163373ffffffffffffffffffffffffffffffffffffffff161415801561163c57506000809054906101000a900473ffffffffffffffffffffffffffffffffffffffff1673ffffffffffffffffffffffffffffffffffffffff163373ffffffffffffffffffffffffffffffffffffffff16148061163b5750600260009054906101000a900473ffffffffffffffffffffffffffffffffffffffff1673ffffffffffffffffffffffffffffffffffffffff163373ffffffffffffffffffffffffffffffffffffffff16145b5b15156116d6576040517f08c379a00000000000000000000000000000000000000000000000000000000081526004018080602001828103825260348152602001807f6f6e6c792043454f206f722043464f20697320616c6c6f77656420746f20706581526020017f72666f726d2074686973206f7065726174696f6e00000000000000000000000081525060400191505060405180910390fd5b600660009054906101000a900460ff1615151561175b576040517f08c379a000000000000000000000000000000000000000000000000000000000815260040180806020018281038252601f8152602001807f636f6e7472616374206e6565647320746f206e6f742062652066726f7a656e0081525060200191505060405180910390fd5b6001600660006101000a81548160ff021916908315150217905550565b60085481565b60055481565b600160009054906101000a900473ffffffffffffffffffffffffffffffffffffffff1673ffffffffffffffffffffffffffffffffffffffff163373ffffffffffffffffffffffffffffffffffffffff1614151561186f576040517f08c379a000000000000000000000000000000000000000000000000000000000815260040180806020018281038252602d8152602001807f6f6e6c7920434f4f20697320616c6c6f77656420746f20706572666f726d207481526020017f686973206f7065726174696f6e0000000000000000000000000000000000000081525060400191505060405180910390fd5b600660009054906101000a900460ff161515156118f4576040517f08c379a000000000000000000000000000000000000000000000000000000000815260040180806020018281038252601f8152602001807f636f6e7472616374206e6565647320746f206e6f742062652066726f7a656e0081525060200191505060405180910390fd5b8067ffffffffffffffff168114151561199b576040517f08c379a000000000000000000000000000000000000000000000000000000000815260040180806020018281038252602b8152602001807f6e657720676c6f62616c4475726174696f6e2076616c7565206d757374206e6f81526020017f7420756e646572666c6f7700000000000000000000000000000000000000000081525060400191505060405180910390fd5b806007819055507f66be647974b8677ccbdb171c9fd037f0f64af878ddc5b7f0923da6a32173ae47816040518082815260200191505060405180910390a150565b6000600260009054906101000a900473ffffffffffffffffffffffffffffffffffffffff1673ffffffffffffffffffffffffffffffffffffffff163373ffffffffffffffffffffffffffffffffffffffff16148015611a685750600073ffffffffffffffffffffffffffffffffffffffff163373ffffffffffffffffffffffffffffffffffffffff1614155b1515611b02576040517f08c379a000000000000000000000000000000000000000000000000000000000815260040180806020018281038252602d8152602001807f6f6e6c792043464f20697320616c6c6f77656420746f20706572666f726d207481526020017f686973206f7065726174696f6e0000000000000000000000000000000000000081525060400191505060405180910390fd5b60045490506000600481905550600260009054906101000a900473ffffffffffffffffffffffffffffffffffffffff1673ffffffffffffffffffffffffffffffffffffffff166108fc829081150290604051600060405180830381858888f19350505050158015611b77573d6000803e3d6000fd5b5050565b600160009054906101000a900473ffffffffffffffffffffffffffffffffffffffff1681565b600b5481565b600160009054906101000a900473ffffffffffffffffffffffffffffffffffffffff1673ffffffffffffffffffffffffffffffffffffffff163373ffffffffffffffffffffffffffffffffffffffff16141515611c92576040517f08c379a000000000000000000000000000000000000000000000000000000000815260040180806020018281038252602d8152602001807f6f6e6c7920434f4f20697320616c6c6f77656420746f20706572666f726d207481526020017f686973206f7065726174696f6e0000000000000000000000000000000000000081525060400191505060405180910390fd5b600660009054906101000a900460ff16151515611d17576040517f08c379a000000000000000000000000000000000000000000000000000000000815260040180806020018281038252601f8152602001807f636f6e7472616374206e6565647320746f206e6f742062652066726f7a656e0081525060200191505060405180910390fd5b8060020260085410151515611dba576040517f08c379a00000000000000000000000000000000000000000000000000000000081526004018080602001828103825260378152602001807f756e7375636365737366756c2076616c7565206d757374206265203c3d20686181526020017f6c66206f66206d696e696d756d546f74616c56616c756500000000000000000081525060400191505060405180910390fd5b80600a819055507ffa4a24dc8c85bb39a38146f43e5611e67c18d4df990b85be0fa17a8d9c7f3cc9816040518082815260200191505060405180910390a150565b600a5481565b60095481565b6127108111151515611ea7576040517f08c379a00000000000000000000000000000000000000000000000000000000081526004018080602001828103825260258152602001807f6f6666657220637574206d75737420626520612076616c69642062617369732081526020017f706f696e7400000000000000000000000000000000000000000000000000000081525060400191505060405180910390fd5b80600b8190555050565b6127108111151515611f51576040517f08c379a00000000000000000000000000000000000000000000000000000000081526004018080602001828103825260338152602001807f6d696e696d756d20707269636520696e6372656d656e74206d7573742062652081526020017f612076616c696420626173697320706f696e740000000000000000000000000081525060400191505060405180910390fd5b8060098190555050565b806002028210151515611ffc576040517f08c379a000000000000000000000000000000000000000000000000000000000815260040180806020018281038252602d8152602001807f6d696e696d756d2076616c7565206d757374206265203e3d2032202a20756e7381526020017f75636365737366756c206665650000000000000000000000000000000000000081525060400191505060405180910390fd5b8160088190555050505600a165627a7a7230582028121b74af98b7cb10a41cce0e5176ea6a30d5b25f4de9a2dc68cab6988cdf270029",
  "source": "\n\n\n\ncontract Offers_1AccessControl {\n\n    \n    address public ceoAddress;\n    \n    address public cooAddress;\n    \n    address public cfoAddress;\n    \n    address public lostAndFoundAddress;\n\n    \n    uint256 public totalCFOEarnings;\n    \n    uint256 public totalLostAndFoundBalance;\n\n    \n    \n    \n    bool public frozen = false;\n\n    \n    modifier onlyCEO() {\n        require(msg.sender == ceoAddress, \"only CEO is allowed to perform this operation\");\n        _;\n    }\n\n    \n    modifier onlyCOO() {\n        require(msg.sender == cooAddress, \"only COO is allowed to perform this operation\");\n        _;\n    }\n\n    \n    modifier onlyCFO() {\n        require(\n            msg.sender == cfoAddress &&\n            msg.sender != address(0),\n            \"only CFO is allowed to perform this operation\"\n        );\n        _;\n    }\n\n    \n    modifier onlyCeoOrCfo() {\n        require(\n            msg.sender != address(0) &&\n            (\n                msg.sender == ceoAddress ||\n                msg.sender == cfoAddress\n            ),\n            \"only CEO or CFO is allowed to perform this operation\"\n        );\n        _;\n    }\n\n    \n    modifier onlyLostAndFound() {\n        require(\n            msg.sender == lostAndFoundAddress &&\n            msg.sender != address(0),\n            \"only LostAndFound is allowed to perform this operation\"\n        );\n        _;\n    }\n\n    \n    \n    function setCEO(address _newCEO) external onlyCEO {\n        require(_newCEO != address(0), \"new CEO address cannot be the zero-account\");\n        ceoAddress = _newCEO;\n    }\n\n    \n    \n    function setCOO(address _newCOO) public onlyCEO {\n        require(_newCOO != address(0), \"new COO address cannot be the zero-account\");\n        cooAddress = _newCOO;\n    }\n\n    \n    \n    function setCFO(address _newCFO) external onlyCEO {\n        require(_newCFO != address(0), \"new CFO address cannot be the zero-account\");\n        cfoAddress = _newCFO;\n    }\n\n    \n    \n    function setLostAndFound(address _newLostAndFound) external onlyCEO {\n        require(_newLostAndFound != address(0), \"new lost and found cannot be the zero-account\");\n        lostAndFoundAddress = _newLostAndFound;\n    }\n\n    \n    function withdrawTotalCFOEarnings() external onlyCFO {\n        \n        uint256 balance = totalCFOEarnings;\n        totalCFOEarnings = 0;\n        cfoAddress.transfer(balance);\n    }\n\n    \n    function withdrawTotalLostAndFoundBalance() external onlyLostAndFound {\n        \n        uint256 balance = totalLostAndFoundBalance;\n        totalLostAndFoundBalance = 0;\n        lostAndFoundAddress.transfer(balance);\n    }\n\n    \n    modifier whenNotFrozen() {\n        require(!frozen, \"contract needs to not be frozen\");\n        _;\n    }\n\n    \n    modifier whenFrozen() {\n        require(frozen, \"contract needs to be frozen\");\n        _;\n    }\n\n    \n    \n    \n    \n    \n    function freeze() external onlyCeoOrCfo whenNotFrozen {\n        frozen = true;\n    }\n\n}\n\n\n\ncontract ERC721 {\n    \n    function totalSupply() public view returns (uint256 total);\n    function balanceOf(address _owner) public view returns (uint256 balance);\n    function ownerOf(uint256 _tokenId) external view returns (address owner);\n    function approve(address _to, uint256 _tokenId) external;\n    function transfer(address _to, uint256 _tokenId) external;\n    function transferFrom(address _from, address _to, uint256 _tokenId) external;\n\n    \n    event Transfer(address from, address to, uint256 tokenId);\n    event Approval(address owner, address approved, uint256 tokenId);\n\n    \n    \n    \n    \n    \n\n    \n    function supportsInterface(bytes4 _interfaceID) external view returns (bool);\n}\n\n\n\ncontract Offers_1Config is Offers_1AccessControl {\n\n    \n    \n    \n\n    \n    \n    uint256 public globalDuration;\n    \n    uint256 public minimumTotalValue;\n    \n    \n    uint256 public minimumPriceIncrement;\n\n    \n    \n    \n\n    \n    \n    \n    \n    \n    \n    \n    \n    \n    \n    \n    \n    \n    \n    \n    \n    \n    \n\n    \n    \n    uint256 public unsuccessfulFee;\n    \n    \n    uint256 public offerCut;\n\n    \n    \n    \n\n    event GlobalDurationUpdated(uint256 value);\n    event MinimumTotalValueUpdated(uint256 value);\n    event MinimumPriceIncrementUpdated(uint256 value);\n    event OfferCutUpdated(uint256 value);\n    event UnsuccessfulFeeUpdated(uint256 value);\n\n    \n    \n    \n\n    \n    \n    \n    \n    function setMinimumTotalValue(uint256 _newMinTotal) external onlyCOO whenNotFrozen {\n        _setMinimumTotalValue(_newMinTotal, unsuccessfulFee);\n        emit MinimumTotalValueUpdated(_newMinTotal);\n    }\n\n    \n    \n    \n    \n    \n    \n    function setGlobalDuration(uint256 _newDuration) external onlyCOO whenNotFrozen {\n        require(_newDuration == uint256(uint64(_newDuration)), \"new globalDuration value must not underflow\");\n        globalDuration = _newDuration;\n        emit GlobalDurationUpdated(_newDuration);\n    }\n\n    \n    \n    \n    \n    \n    function setOfferCut(uint256 _newOfferCut) external onlyCOO whenNotFrozen {\n        _setOfferCut(_newOfferCut);\n        emit OfferCutUpdated(_newOfferCut);\n    }\n\n    \n    \n    \n    \n    \n    \n    \n    \n    \n    function setUnsuccessfulFee(uint256 _newUnsuccessfulFee) external onlyCOO whenNotFrozen {\n        require(minimumTotalValue >= (2 * _newUnsuccessfulFee), \"unsuccessful value must be <= half of minimumTotalValue\");\n        unsuccessfulFee = _newUnsuccessfulFee;\n        emit UnsuccessfulFeeUpdated(_newUnsuccessfulFee);\n    }\n\n    \n    \n    \n    \n    \n    function setMinimumPriceIncrement(uint256 _newMinimumPriceIncrement) external onlyCOO whenNotFrozen {\n        _setMinimumPriceIncrement(_newMinimumPriceIncrement);\n        emit MinimumPriceIncrementUpdated(_newMinimumPriceIncrement);\n    }\n\n    \n    \n    \n    \n    \n    \n    \n    \n    \n    function _setMinimumTotalValue(uint256 _newMinTotal, uint256 _unsuccessfulFee) internal {\n        require(_newMinTotal >= (2 * _unsuccessfulFee), \"minimum value must be >= 2 * unsuccessful fee\");\n        minimumTotalValue = _newMinTotal;\n    }\n\n    \n    \n    function _setOfferCut(uint256 _newOfferCut) internal {\n        require(_newOfferCut <= 1e4, \"offer cut must be a valid basis point\");\n        offerCut = _newOfferCut;\n    }\n\n    \n    \n    function _setMinimumPriceIncrement(uint256 _newMinimumPriceIncrement) internal {\n        require(_newMinimumPriceIncrement <= 1e4, \"minimum price increment must be a valid basis point\");\n        minimumPriceIncrement = _newMinimumPriceIncrement;\n    }\n}\n\n\n\ncontract Offers_1Base is Offers_1Config {\n    \n\n    \n    \n    \n    \n    \n    \n    \n    \n    event OfferCreated(\n        uint256 tokenId,\n        address bidder,\n        uint256 expiresAt,\n        uint256 total,\n        uint256 offerPrice\n    );\n\n    \n    \n    \n    \n    \n    event OfferCancelled(\n        uint256 tokenId,\n        address bidder,\n        uint256 bidderReceived,\n        uint256 fee\n    );\n\n    \n    \n    \n    \n    \n    \n    \n    event OfferFulfilled(\n        uint256 tokenId,\n        address bidder,\n        address owner,\n        uint256 ownerReceived,\n        uint256 fee\n    );\n\n    \n    \n    \n    \n    \n    \n    \n    event OfferUpdated(\n        uint256 tokenId,\n        address bidder,\n        uint256 newExpiresAt,\n        uint256 totalRaised\n    );\n\n    \n    \n    \n    \n    \n    \n    event ExpiredOfferRemoved(\n      uint256 tokenId,\n      address bidder,\n      uint256 bidderReceived,\n      uint256 fee\n    );\n\n    \n    \n    \n    \n    \n    event BidderWithdrewFundsWhenFrozen(\n        uint256 tokenId,\n        address bidder,\n        uint256 amount\n    );\n\n\n    \n    \n    \n    \n    \n    event PushFundsFailed(\n        uint256 tokenId,\n        address to,\n        uint256 amount\n    );\n\n    \n\n    \n    struct Offer {\n        \n        uint64 expiresAt;\n        \n        address bidder;\n        \n        \n        \n        \n        uint16 offerCut;\n        \n        uint128 total;\n        \n        \n        \n        uint128 unsuccessfulFee;\n    }\n\n    \n    \n    \n    \n    mapping (uint256 => Offer) public tokenIdToOffer;\n\n    \n    \n    \n    \n    \n    \n    \n    function _computeMinimumOverbidPrice(uint256 _offerPrice) internal view returns (uint256) {\n        return _offerPrice * (1e4 + minimumPriceIncrement) / 1e4;\n    }\n\n    \n    \n    \n    \n    \n    \n    function _computeOfferPrice(uint256 _total, uint256 _offerCut) internal pure returns (uint256) {\n        return _total * 1e4 / (1e4 + _offerCut);\n    }\n\n    \n    \n    \n    \n    \n    \n    \n    function _offerExists(uint256 _expiresAt) internal pure returns (bool) {\n        return _expiresAt > 0;\n    }\n\n    \n    \n    \n    \n    \n    function _isOfferActive(uint256 _expiresAt) internal view returns (bool) {\n        return now < _expiresAt;\n    }\n\n    \n    \n    \n    \n    \n    \n    \n    function _tryPushFunds(uint256 _tokenId, address _to, uint256 _amount) internal {\n        \n        \n        bool success = _to.send(_amount);\n        if (!success) {\n            \n            \n            totalLostAndFoundBalance = totalLostAndFoundBalance + _amount;\n\n            \n            emit PushFundsFailed(_tokenId, _to, _amount);\n        }\n    }\n}\n\n\n\n\ncontract Offers_1 is Offers_1Base {\n\n    \n    \n    \n    \n    \n    \n    \n    \n    \n    \n    \n    \n    \n    \n    \n    \n    \n\n    \n    \n    \n    bytes4 constant InterfaceSignature_ERC721 = bytes4(0x9a20483d);\n\n    \n    ERC721 public nonFungibleContract;\n\n    \n    \n    \n    \n    \n    \n    \n    \n    constructor(\n      address _nftAddress,\n      address _cooAddress,\n      uint256 _globalDuration,\n      uint256 _minimumTotalValue,\n      uint256 _minimumPriceIncrement,\n      uint256 _unsuccessfulFee,\n      uint256 _offerCut\n    ) public {\n        \n        ceoAddress = msg.sender;\n\n        \n        ERC721 candidateContract = ERC721(_nftAddress);\n        require(candidateContract.supportsInterface(InterfaceSignature_ERC721), \"NFT Contract needs to support ERC721 Interface\");\n        nonFungibleContract = candidateContract;\n\n        setCOO(_cooAddress);\n\n        \n        globalDuration = _globalDuration;\n        unsuccessfulFee = _unsuccessfulFee;\n        _setOfferCut(_offerCut);\n        _setMinimumPriceIncrement(_minimumPriceIncrement);\n        _setMinimumTotalValue(_minimumTotalValue, _unsuccessfulFee);\n    }\n\n    \n    \n    \n    \n    \n    \n    \n    \n    \n    function createOffer(uint256 _tokenId) external payable whenNotFrozen {\n        \n        \n        require(msg.value >= minimumTotalValue, \"offer total value must be above minimumTotalValue\");\n\n        uint256 _offerCut = offerCut;\n\n        \n        uint256 offerPrice = _computeOfferPrice(msg.value, _offerCut);\n\n        Offer storage previousOffer = tokenIdToOffer[_tokenId];\n        uint256 previousExpiresAt = previousOffer.expiresAt;\n\n        uint256 toRefund = 0;\n\n        \n        if (_offerExists(previousExpiresAt)) {\n            uint256 previousOfferTotal = uint256(previousOffer.total);\n\n            \n            \n            \n            \n            \n            if (_isOfferActive(previousExpiresAt)) {\n                uint256 previousPriceForOwner = _computeOfferPrice(previousOfferTotal, uint256(previousOffer.offerCut));\n                uint256 minimumOverbidPrice = _computeMinimumOverbidPrice(previousPriceForOwner);\n                require(offerPrice >= minimumOverbidPrice, \"overbid price must match minimum price increment criteria\");\n            }\n\n            uint256 cfoEarnings = previousOffer.unsuccessfulFee;\n            \n            \n            toRefund = previousOfferTotal - cfoEarnings;\n\n            totalCFOEarnings += cfoEarnings;\n        }\n\n        uint256 newExpiresAt = now + globalDuration;\n\n        \n        \n        address previousBidder;\n        if (toRefund > 0) {\n            previousBidder = previousOffer.bidder;\n        }\n\n        tokenIdToOffer[_tokenId] = Offer(\n            uint64(newExpiresAt),\n            msg.sender,\n            uint16(_offerCut),\n            uint128(msg.value),\n            uint128(unsuccessfulFee)\n        );\n\n        \n        if (toRefund > 0) {\n            \n            \n            _tryPushFunds(\n                _tokenId,\n                previousBidder,\n                toRefund\n            );\n        }\n\n        emit OfferCreated(\n            _tokenId,\n            msg.sender,\n            newExpiresAt,\n            msg.value,\n            offerPrice\n        );\n    }\n\n    \n    \n    \n    \n    function cancelOffer(uint256 _tokenId) external whenNotFrozen {\n        \n        Offer storage offer = tokenIdToOffer[_tokenId];\n        uint256 expiresAt = offer.expiresAt;\n        require(_offerExists(expiresAt), \"offer to cancel must exist\");\n        require(_isOfferActive(expiresAt), \"offer to cancel must not be expired\");\n\n        address bidder = offer.bidder;\n        require(msg.sender == bidder, \"caller must be bidder of offer to be cancelled\");\n\n        \n        uint256 total = uint256(offer.total);\n        \n        uint256 toRefund = _computeOfferPrice(total, offer.offerCut);\n        uint256 cfoEarnings = total - toRefund;\n\n        \n        delete tokenIdToOffer[_tokenId];\n\n        \n        totalCFOEarnings += cfoEarnings;\n\n        \n        _tryPushFunds(_tokenId, bidder, toRefund);\n\n        emit OfferCancelled(\n            _tokenId,\n            bidder,\n            toRefund,\n            cfoEarnings\n        );\n    }\n\n    \n    \n    \n    \n    \n    \n    \n    \n    \n    \n    \n    \n    \n    \n    \n    \n    \n    function fulfillOffer(uint256 _tokenId, uint128 _minOfferPrice) external whenNotFrozen {\n        \n        Offer storage offer = tokenIdToOffer[_tokenId];\n        uint256 expiresAt = offer.expiresAt;\n        require(_offerExists(expiresAt), \"offer to fulfill must exist\");\n        require(_isOfferActive(expiresAt), \"offer to fulfill must not be expired\");\n\n        \n        address owner = nonFungibleContract.ownerOf(_tokenId);\n\n        require(msg.sender == cooAddress || msg.sender == owner, \"only COO or the owner can fulfill order\");\n\n        \n        uint256 total = uint256(offer.total);\n        \n        uint256 offerPrice = _computeOfferPrice(total, offer.offerCut);\n\n        \n        require(offerPrice >= _minOfferPrice, \"cannot fulfill offer – offer price too low\");\n\n        \n        address bidder = offer.bidder;\n\n        \n        delete tokenIdToOffer[_tokenId];\n\n        \n        nonFungibleContract.transferFrom(owner, bidder, _tokenId);\n\n        \n        \n        uint256 cfoEarnings = total - offerPrice;\n        totalCFOEarnings += cfoEarnings;\n\n        \n        _tryPushFunds(_tokenId, owner, offerPrice);\n\n        emit OfferFulfilled(\n            _tokenId,\n            bidder,\n            owner,\n            offerPrice,\n            cfoEarnings\n        );\n    }\n\n    \n    \n    \n    \n    \n    function batchRemoveExpired(uint256[] _tokenIds) external whenNotFrozen {\n        uint256 len = _tokenIds.length;\n\n        \n        uint256 cumulativeCFOEarnings = 0;\n\n        for (uint256 i = 0; i < len; i++) {\n            uint256 tokenId = _tokenIds[i];\n            Offer storage offer = tokenIdToOffer[tokenId];\n            uint256 expiresAt = offer.expiresAt;\n\n            \n            if (!_offerExists(expiresAt)) {\n                continue;\n            }\n            \n            if (_isOfferActive(expiresAt)) {\n                continue;\n            }\n\n            \n            address bidder = offer.bidder;\n\n            \n            uint256 cfoEarnings = uint256(offer.unsuccessfulFee);\n\n            \n            uint256 toRefund = uint256(offer.total) - cfoEarnings;\n\n            \n            delete tokenIdToOffer[tokenId];\n\n            \n            cumulativeCFOEarnings += cfoEarnings;\n\n            \n            \n            _tryPushFunds(\n                tokenId,\n                bidder,\n                toRefund\n            );\n\n            emit ExpiredOfferRemoved(\n                tokenId,\n                bidder,\n                toRefund,\n                cfoEarnings\n            );\n        }\n\n        \n        if (cumulativeCFOEarnings > 0) {\n            totalCFOEarnings += cumulativeCFOEarnings;\n        }\n    }\n\n    \n    \n    \n    \n    \n    \n    \n    function updateOffer(uint256 _tokenId) external payable whenNotFrozen {\n        \n        Offer storage offer = tokenIdToOffer[_tokenId];\n        uint256 expiresAt = uint256(offer.expiresAt);\n        require(_offerExists(expiresAt), \"offer to update must exist\");\n        require(_isOfferActive(expiresAt), \"offer to update must not be expired\");\n\n        require(msg.sender == offer.bidder, \"caller must be bidder of offer to be updated\");\n\n        uint256 newExpiresAt = now + globalDuration;\n\n        \n        if (msg.value > 0) {\n            \n            offer.total += uint128(msg.value);\n        }\n\n        offer.expiresAt = uint64(newExpiresAt);\n\n        emit OfferUpdated(_tokenId, msg.sender, newExpiresAt, msg.value);\n\n    }\n\n    \n    \n    \n    \n    \n    function bidderWithdrawFunds(uint256 _tokenId) external whenFrozen {\n        \n        Offer storage offer = tokenIdToOffer[_tokenId];\n        require(_offerExists(offer.expiresAt), \"offer to withdraw funds from must exist\");\n        require(msg.sender == offer.bidder, \"only bidders can withdraw their funds in escrow\");\n\n        \n        uint256 total = uint256(offer.total);\n\n        delete tokenIdToOffer[_tokenId];\n\n        \n        msg.sender.transfer(total);\n\n        emit BidderWithdrewFundsWhenFrozen(_tokenId, msg.sender, total);\n    }\n\n    \n    function() external payable {\n        revert(\"we don't accept any payments!\");\n    }\n}\n    \ncontract Offers is Offers_1 {\n    constructor() Offers_1(address(0x123), address(0x123), 78, 78, 78, 78, 78) public { }\n}\n",
  "sourcePath": "/home/XXX-1/smartrim-experiment/for-rlf/0x57831a0c76ba6b4fdcbadd6cb48cb26e8fc15e93/contracts/0x57831a0c76ba6b4fdcbadd6cb48cb26e8fc15e93.sol",
  "compiler": {
    "name": "solc",
    "version": "0.4.25+commit.59dbf8f1.Emscripten.clang"
  },
  "schemaVersion": "3.4.16",
  "updatedAt": "2025-08-14T03:54:24.565Z",
  "devdoc": {
    "methods": {}
  },
  "userdoc": {
    "methods": {}
  }
}