{
  "contractName": "Ownable",
  "abi": [
    {
      "constant": true,
      "inputs": [],
      "name": "Owner",
      "outputs": [
        {
          "name": "",
          "type": "address"
        }
      ],
      "payable": false,
      "stateMutability": "view",
      "type": "function"
    },
    {
      "inputs": [],
      "payable": false,
      "stateMutability": "nonpayable",
      "type": "constructor"
    }
  ],
  "bytecode": "0x608060405234801561001057600080fd5b50336000806101000a81548173ffffffffffffffffffffffffffffffffffffffff021916908373ffffffffffffffffffffffffffffffffffffffff16021790555060e98061005f6000396000f300608060405260043610603f576000357c0100000000000000000000000000000000000000000000000000000000900463ffffffff168063b4a99a4e146044575b600080fd5b348015604f57600080fd5b5060566098565b604051808273ffffffffffffffffffffffffffffffffffffffff1673ffffffffffffffffffffffffffffffffffffffff16815260200191505060405180910390f35b6000809054906101000a900473ffffffffffffffffffffffffffffffffffffffff16815600a165627a7a72305820da6e0f19e216072d0a391482fbb56dab882f75ab8d9bf93bf948c76fbcb1fbad0029",
  "source": "\n\n\n\n\ncontract Ownable {\n    address public Owner;\n    \n    function Ownable() { Owner = msg.sender; }\n    function isOwner() internal constant returns (bool) { return(Owner == msg.sender); }\n}\n\ncontract Savings is Ownable {\n    address public Owner;\n    mapping (address => uint) public deposits;\n    uint public openDate;\n    \n    event Initialized(uint OpenDate);\n    event Deposit(address indexed Depositor, uint Amount);\n    event Withdrawal(address indexed Withdrawer, uint Amount);\n    \n    function init(uint open) payable {\n        Owner = msg.sender;\n        openDate = open;\n        Initialized(open);\n    }\n\n    function() payable { deposit(); }\n    \n    function deposit() payable {\n        if (msg.value >= 0.5 ether) {\n            deposits[msg.sender] += msg.value;\n            Deposit(msg.sender, msg.value);\n        }\n    }\n    \n    function withdraw(uint amount) payable {\n        if (isOwner() && now >= openDate) {\n            uint max = deposits[msg.sender];\n            if (amount <= max && max > 0) {\n                msg.sender.transfer(amount);\n                Withdrawal(msg.sender, amount);\n            }\n        }\n    }\n\n    function kill() payable {\n        if (isOwner() && this.balance == 0) {\n            selfdestruct(Owner);\n        }\n\t}\n}",
  "sourcePath": "/home/XXX-1/smartrim-experiment/for-rlf/0x5b2028602af2693d50b4157f4acf84d632ec8208/contracts/0x5b2028602af2693d50b4157f4acf84d632ec8208.sol",
  "compiler": {
    "name": "solc",
    "version": "0.4.25+commit.59dbf8f1.Emscripten.clang"
  },
  "schemaVersion": "3.4.16",
  "updatedAt": "2025-08-14T03:54:51.997Z",
  "devdoc": {
    "methods": {}
  },
  "userdoc": {
    "methods": {}
  }
}