{
  "contractName": "Oraclize",
  "abi": [
    {
      "constant": true,
      "inputs": [],
      "name": "baseprice",
      "outputs": [
        {
          "name": "",
          "type": "uint256"
        }
      ],
      "payable": false,
      "stateMutability": "view",
      "type": "function"
    },
    {
      "constant": true,
      "inputs": [
        {
          "name": "",
          "type": "address"
        }
      ],
      "name": "cbAddresses",
      "outputs": [
        {
          "name": "",
          "type": "bytes1"
        }
      ],
      "payable": false,
      "stateMutability": "view",
      "type": "function"
    },
    {
      "constant": true,
      "inputs": [
        {
          "name": "",
          "type": "uint256"
        }
      ],
      "name": "randomDS_sessionPubKeysHash",
      "outputs": [
        {
          "name": "",
          "type": "bytes32"
        }
      ],
      "payable": false,
      "stateMutability": "view",
      "type": "function"
    },
    {
      "inputs": [],
      "payable": false,
      "stateMutability": "nonpayable",
      "type": "constructor"
    },
    {
      "payable": false,
      "stateMutability": "nonpayable",
      "type": "fallback"
    },
    {
      "anonymous": false,
      "inputs": [
        {
          "indexed": false,
          "name": "sender",
          "type": "address"
        },
        {
          "indexed": false,
          "name": "cid",
          "type": "bytes32"
        },
        {
          "indexed": false,
          "name": "timestamp",
          "type": "uint256"
        },
        {
          "indexed": false,
          "name": "datasource",
          "type": "string"
        },
        {
          "indexed": false,
          "name": "arg",
          "type": "string"
        },
        {
          "indexed": false,
          "name": "gaslimit",
          "type": "uint256"
        },
        {
          "indexed": false,
          "name": "proofType",
          "type": "bytes1"
        },
        {
          "indexed": false,
          "name": "gasPrice",
          "type": "uint256"
        }
      ],
      "name": "Log1",
      "type": "event"
    },
    {
      "anonymous": false,
      "inputs": [
        {
          "indexed": false,
          "name": "sender",
          "type": "address"
        },
        {
          "indexed": false,
          "name": "cid",
          "type": "bytes32"
        },
        {
          "indexed": false,
          "name": "timestamp",
          "type": "uint256"
        },
        {
          "indexed": false,
          "name": "datasource",
          "type": "string"
        },
        {
          "indexed": false,
          "name": "arg1",
          "type": "string"
        },
        {
          "indexed": false,
          "name": "arg2",
          "type": "string"
        },
        {
          "indexed": false,
          "name": "gaslimit",
          "type": "uint256"
        },
        {
          "indexed": false,
          "name": "proofType",
          "type": "bytes1"
        },
        {
          "indexed": false,
          "name": "gasPrice",
          "type": "uint256"
        }
      ],
      "name": "Log2",
      "type": "event"
    },
    {
      "anonymous": false,
      "inputs": [
        {
          "indexed": false,
          "name": "sender",
          "type": "address"
        },
        {
          "indexed": false,
          "name": "cid",
          "type": "bytes32"
        },
        {
          "indexed": false,
          "name": "timestamp",
          "type": "uint256"
        },
        {
          "indexed": false,
          "name": "datasource",
          "type": "string"
        },
        {
          "indexed": false,
          "name": "args",
          "type": "bytes"
        },
        {
          "indexed": false,
          "name": "gaslimit",
          "type": "uint256"
        },
        {
          "indexed": false,
          "name": "proofType",
          "type": "bytes1"
        },
        {
          "indexed": false,
          "name": "gasPrice",
          "type": "uint256"
        }
      ],
      "name": "LogN",
      "type": "event"
    },
    {
      "anonymous": false,
      "inputs": [
        {
          "indexed": false,
          "name": "sender",
          "type": "address"
        },
        {
          "indexed": false,
          "name": "cid",
          "type": "bytes32"
        },
        {
          "indexed": false,
          "name": "timestamp",
          "type": "uint256"
        },
        {
          "indexed": false,
          "name": "datasource",
          "type": "string"
        },
        {
          "indexed": false,
          "name": "arg",
          "type": "string"
        },
        {
          "indexed": false,
          "name": "callback",
          "type": "function"
        },
        {
          "indexed": false,
          "name": "gaslimit",
          "type": "uint256"
        },
        {
          "indexed": false,
          "name": "proofType",
          "type": "bytes1"
        },
        {
          "indexed": false,
          "name": "gasPrice",
          "type": "uint256"
        }
      ],
      "name": "Log1_fnc",
      "type": "event"
    },
    {
      "anonymous": false,
      "inputs": [
        {
          "indexed": false,
          "name": "sender",
          "type": "address"
        },
        {
          "indexed": false,
          "name": "cid",
          "type": "bytes32"
        },
        {
          "indexed": false,
          "name": "timestamp",
          "type": "uint256"
        },
        {
          "indexed": false,
          "name": "datasource",
          "type": "string"
        },
        {
          "indexed": false,
          "name": "arg1",
          "type": "string"
        },
        {
          "indexed": false,
          "name": "arg2",
          "type": "string"
        },
        {
          "indexed": false,
          "name": "callback",
          "type": "function"
        },
        {
          "indexed": false,
          "name": "gaslimit",
          "type": "uint256"
        },
        {
          "indexed": false,
          "name": "proofType",
          "type": "bytes1"
        },
        {
          "indexed": false,
          "name": "gasPrice",
          "type": "uint256"
        }
      ],
      "name": "Log2_fnc",
      "type": "event"
    },
    {
      "anonymous": false,
      "inputs": [
        {
          "indexed": false,
          "name": "sender",
          "type": "address"
        },
        {
          "indexed": false,
          "name": "cid",
          "type": "bytes32"
        },
        {
          "indexed": false,
          "name": "timestamp",
          "type": "uint256"
        },
        {
          "indexed": false,
          "name": "datasource",
          "type": "string"
        },
        {
          "indexed": false,
          "name": "args",
          "type": "bytes"
        },
        {
          "indexed": false,
          "name": "callback",
          "type": "function"
        },
        {
          "indexed": false,
          "name": "gaslimit",
          "type": "uint256"
        },
        {
          "indexed": false,
          "name": "proofType",
          "type": "bytes1"
        },
        {
          "indexed": false,
          "name": "gasPrice",
          "type": "uint256"
        }
      ],
      "name": "LogN_fnc",
      "type": "event"
    },
    {
      "constant": false,
      "inputs": [
        {
          "name": "_newAdmin",
          "type": "address"
        }
      ],
      "name": "changeAdmin",
      "outputs": [],
      "payable": false,
      "stateMutability": "nonpayable",
      "type": "function"
    },
    {
      "constant": false,
      "inputs": [
        {
          "name": "newCbAddress",
          "type": "address"
        },
        {
          "name": "addressType",
          "type": "bytes1"
        }
      ],
      "name": "addCbAddress",
      "outputs": [],
      "payable": false,
      "stateMutability": "nonpayable",
      "type": "function"
    },
    {
      "constant": false,
      "inputs": [
        {
          "name": "newCbAddress",
          "type": "address"
        },
        {
          "name": "addressType",
          "type": "bytes1"
        },
        {
          "name": "proof",
          "type": "bytes"
        }
      ],
      "name": "addCbAddress",
      "outputs": [],
      "payable": false,
      "stateMutability": "nonpayable",
      "type": "function"
    },
    {
      "constant": false,
      "inputs": [
        {
          "name": "newCbAddress",
          "type": "address"
        }
      ],
      "name": "removeCbAddress",
      "outputs": [],
      "payable": false,
      "stateMutability": "nonpayable",
      "type": "function"
    },
    {
      "constant": true,
      "inputs": [],
      "name": "cbAddress",
      "outputs": [
        {
          "name": "_cbAddress",
          "type": "address"
        }
      ],
      "payable": false,
      "stateMutability": "view",
      "type": "function"
    },
    {
      "constant": false,
      "inputs": [
        {
          "name": "dsname",
          "type": "string"
        },
        {
          "name": "multiplier",
          "type": "uint256"
        }
      ],
      "name": "addDSource",
      "outputs": [],
      "payable": false,
      "stateMutability": "nonpayable",
      "type": "function"
    },
    {
      "constant": false,
      "inputs": [
        {
          "name": "dsname",
          "type": "string"
        },
        {
          "name": "proofType",
          "type": "bytes1"
        },
        {
          "name": "multiplier",
          "type": "uint256"
        }
      ],
      "name": "addDSource",
      "outputs": [],
      "payable": false,
      "stateMutability": "nonpayable",
      "type": "function"
    },
    {
      "constant": false,
      "inputs": [
        {
          "name": "_proofType",
          "type": "uint256[]"
        },
        {
          "name": "_addr",
          "type": "address[]"
        }
      ],
      "name": "multisetProofType",
      "outputs": [],
      "payable": false,
      "stateMutability": "nonpayable",
      "type": "function"
    },
    {
      "constant": false,
      "inputs": [
        {
          "name": "_gasPrice",
          "type": "uint256[]"
        },
        {
          "name": "_addr",
          "type": "address[]"
        }
      ],
      "name": "multisetCustomGasPrice",
      "outputs": [],
      "payable": false,
      "stateMutability": "nonpayable",
      "type": "function"
    },
    {
      "constant": false,
      "inputs": [
        {
          "name": "newgasprice",
          "type": "uint256"
        }
      ],
      "name": "setGasPrice",
      "outputs": [],
      "payable": false,
      "stateMutability": "nonpayable",
      "type": "function"
    },
    {
      "constant": false,
      "inputs": [
        {
          "name": "new_baseprice",
          "type": "uint256"
        },
        {
          "name": "proofID",
          "type": "bytes"
        }
      ],
      "name": "setBasePrice",
      "outputs": [],
      "payable": false,
      "stateMutability": "nonpayable",
      "type": "function"
    },
    {
      "constant": false,
      "inputs": [
        {
          "name": "new_baseprice",
          "type": "uint256"
        }
      ],
      "name": "setBasePrice",
      "outputs": [],
      "payable": false,
      "stateMutability": "nonpayable",
      "type": "function"
    },
    {
      "constant": false,
      "inputs": [
        {
          "name": "_addr",
          "type": "address"
        }
      ],
      "name": "withdrawFunds",
      "outputs": [],
      "payable": false,
      "stateMutability": "nonpayable",
      "type": "function"
    },
    {
      "constant": false,
      "inputs": [
        {
          "name": "_newSessionPubKeysHash",
          "type": "bytes32[]"
        }
      ],
      "name": "randomDS_updateSessionPubKeysHash",
      "outputs": [],
      "payable": false,
      "stateMutability": "nonpayable",
      "type": "function"
    },
    {
      "constant": true,
      "inputs": [],
      "name": "randomDS_getSessionPubKeyHash",
      "outputs": [
        {
          "name": "",
          "type": "bytes32"
        }
      ],
      "payable": false,
      "stateMutability": "view",
      "type": "function"
    },
    {
      "constant": false,
      "inputs": [
        {
          "name": "_proofType",
          "type": "bytes1"
        }
      ],
      "name": "setProofType",
      "outputs": [],
      "payable": false,
      "stateMutability": "nonpayable",
      "type": "function"
    },
    {
      "constant": false,
      "inputs": [
        {
          "name": "_gasPrice",
          "type": "uint256"
        }
      ],
      "name": "setCustomGasPrice",
      "outputs": [],
      "payable": false,
      "stateMutability": "nonpayable",
      "type": "function"
    },
    {
      "constant": false,
      "inputs": [
        {
          "name": "_datasource",
          "type": "string"
        },
        {
          "name": "_gaslimit",
          "type": "uint256"
        }
      ],
      "name": "getPrice",
      "outputs": [
        {
          "name": "_dsprice",
          "type": "uint256"
        }
      ],
      "payable": false,
      "stateMutability": "nonpayable",
      "type": "function"
    },
    {
      "constant": false,
      "inputs": [
        {
          "name": "_datasource",
          "type": "string"
        }
      ],
      "name": "getPrice",
      "outputs": [
        {
          "name": "_dsprice",
          "type": "uint256"
        }
      ],
      "payable": false,
      "stateMutability": "nonpayable",
      "type": "function"
    },
    {
      "constant": false,
      "inputs": [
        {
          "name": "_datasource",
          "type": "string"
        },
        {
          "name": "_arg",
          "type": "string"
        }
      ],
      "name": "query",
      "outputs": [
        {
          "name": "_id",
          "type": "bytes32"
        }
      ],
      "payable": true,
      "stateMutability": "payable",
      "type": "function"
    },
    {
      "constant": false,
      "inputs": [
        {
          "name": "_timestamp",
          "type": "uint256"
        },
        {
          "name": "_datasource",
          "type": "string"
        },
        {
          "name": "_arg",
          "type": "string"
        }
      ],
      "name": "query",
      "outputs": [
        {
          "name": "_id",
          "type": "bytes32"
        }
      ],
      "payable": true,
      "stateMutability": "payable",
      "type": "function"
    },
    {
      "constant": false,
      "inputs": [
        {
          "name": "_timestamp",
          "type": "uint256"
        },
        {
          "name": "_datasource",
          "type": "string"
        },
        {
          "name": "_arg",
          "type": "string"
        },
        {
          "name": "_gaslimit",
          "type": "uint256"
        }
      ],
      "name": "query",
      "outputs": [
        {
          "name": "_id",
          "type": "bytes32"
        }
      ],
      "payable": true,
      "stateMutability": "payable",
      "type": "function"
    },
    {
      "constant": false,
      "inputs": [
        {
          "name": "_timestamp",
          "type": "uint256"
        },
        {
          "name": "_datasource",
          "type": "string"
        },
        {
          "name": "_arg",
          "type": "string"
        },
        {
          "name": "_gaslimit",
          "type": "uint256"
        }
      ],
      "name": "query_withGasLimit",
      "outputs": [
        {
          "name": "_id",
          "type": "bytes32"
        }
      ],
      "payable": true,
      "stateMutability": "payable",
      "type": "function"
    },
    {
      "constant": false,
      "inputs": [
        {
          "name": "_timestamp",
          "type": "uint256"
        },
        {
          "name": "_datasource",
          "type": "string"
        },
        {
          "name": "_arg",
          "type": "string"
        },
        {
          "name": "_gaslimit",
          "type": "uint256"
        }
      ],
      "name": "query1_withGasLimit",
      "outputs": [
        {
          "name": "_id",
          "type": "bytes32"
        }
      ],
      "payable": true,
      "stateMutability": "payable",
      "type": "function"
    },
    {
      "constant": false,
      "inputs": [
        {
          "name": "_timestamp",
          "type": "uint256"
        },
        {
          "name": "_datasource",
          "type": "string"
        },
        {
          "name": "_arg1",
          "type": "string"
        },
        {
          "name": "_arg2",
          "type": "string"
        },
        {
          "name": "_gaslimit",
          "type": "uint256"
        }
      ],
      "name": "query2_withGasLimit",
      "outputs": [
        {
          "name": "_id",
          "type": "bytes32"
        }
      ],
      "payable": true,
      "stateMutability": "payable",
      "type": "function"
    },
    {
      "constant": false,
      "inputs": [
        {
          "name": "_timestamp",
          "type": "uint256"
        },
        {
          "name": "_datasource",
          "type": "string"
        },
        {
          "name": "_args",
          "type": "bytes"
        },
        {
          "name": "_gaslimit",
          "type": "uint256"
        }
      ],
      "name": "queryN_withGasLimit",
      "outputs": [
        {
          "name": "_id",
          "type": "bytes32"
        }
      ],
      "payable": true,
      "stateMutability": "payable",
      "type": "function"
    },
    {
      "constant": false,
      "inputs": [
        {
          "name": "_timestamp",
          "type": "uint256"
        },
        {
          "name": "_datasource",
          "type": "string"
        },
        {
          "name": "_arg",
          "type": "string"
        }
      ],
      "name": "query1",
      "outputs": [
        {
          "name": "_id",
          "type": "bytes32"
        }
      ],
      "payable": true,
      "stateMutability": "payable",
      "type": "function"
    },
    {
      "constant": false,
      "inputs": [
        {
          "name": "_datasource",
          "type": "string"
        },
        {
          "name": "_arg",
          "type": "string"
        }
      ],
      "name": "query1",
      "outputs": [
        {
          "name": "_id",
          "type": "bytes32"
        }
      ],
      "payable": true,
      "stateMutability": "payable",
      "type": "function"
    },
    {
      "constant": false,
      "inputs": [
        {
          "name": "_timestamp",
          "type": "uint256"
        },
        {
          "name": "_datasource",
          "type": "string"
        },
        {
          "name": "_arg",
          "type": "string"
        },
        {
          "name": "_gaslimit",
          "type": "uint256"
        }
      ],
      "name": "query1",
      "outputs": [
        {
          "name": "_id",
          "type": "bytes32"
        }
      ],
      "payable": true,
      "stateMutability": "payable",
      "type": "function"
    },
    {
      "constant": false,
      "inputs": [
        {
          "name": "_timestamp",
          "type": "uint256"
        },
        {
          "name": "_datasource",
          "type": "string"
        },
        {
          "name": "_arg1",
          "type": "string"
        },
        {
          "name": "_arg2",
          "type": "string"
        }
      ],
      "name": "query2",
      "outputs": [
        {
          "name": "_id",
          "type": "bytes32"
        }
      ],
      "payable": true,
      "stateMutability": "payable",
      "type": "function"
    },
    {
      "constant": false,
      "inputs": [
        {
          "name": "_timestamp",
          "type": "uint256"
        },
        {
          "name": "_datasource",
          "type": "string"
        },
        {
          "name": "_arg1",
          "type": "string"
        },
        {
          "name": "_arg2",
          "type": "string"
        },
        {
          "name": "_gaslimit",
          "type": "uint256"
        }
      ],
      "name": "query2",
      "outputs": [
        {
          "name": "_id",
          "type": "bytes32"
        }
      ],
      "payable": true,
      "stateMutability": "payable",
      "type": "function"
    },
    {
      "constant": false,
      "inputs": [
        {
          "name": "_datasource",
          "type": "string"
        },
        {
          "name": "_arg1",
          "type": "string"
        },
        {
          "name": "_arg2",
          "type": "string"
        }
      ],
      "name": "query2",
      "outputs": [
        {
          "name": "_id",
          "type": "bytes32"
        }
      ],
      "payable": true,
      "stateMutability": "payable",
      "type": "function"
    },
    {
      "constant": false,
      "inputs": [
        {
          "name": "_timestamp",
          "type": "uint256"
        },
        {
          "name": "_datasource",
          "type": "string"
        },
        {
          "name": "_args",
          "type": "bytes"
        },
        {
          "name": "_gaslimit",
          "type": "uint256"
        }
      ],
      "name": "queryN",
      "outputs": [
        {
          "name": "_id",
          "type": "bytes32"
        }
      ],
      "payable": true,
      "stateMutability": "payable",
      "type": "function"
    },
    {
      "constant": false,
      "inputs": [
        {
          "name": "_timestamp",
          "type": "uint256"
        },
        {
          "name": "_datasource",
          "type": "string"
        },
        {
          "name": "_args",
          "type": "bytes"
        }
      ],
      "name": "queryN",
      "outputs": [
        {
          "name": "_id",
          "type": "bytes32"
        }
      ],
      "payable": true,
      "stateMutability": "payable",
      "type": "function"
    },
    {
      "constant": false,
      "inputs": [
        {
          "name": "_datasource",
          "type": "string"
        },
        {
          "name": "_args",
          "type": "bytes"
        }
      ],
      "name": "queryN",
      "outputs": [
        {
          "name": "_id",
          "type": "bytes32"
        }
      ],
      "payable": true,
      "stateMutability": "payable",
      "type": "function"
    },
    {
      "constant": false,
      "inputs": [
        {
          "name": "_timestamp",
          "type": "uint256"
        },
        {
          "name": "_datasource",
          "type": "string"
        },
        {
          "name": "_arg",
          "type": "string"
        },
        {
          "name": "_fnc",
          "type": "function"
        },
        {
          "name": "_gaslimit",
          "type": "uint256"
        }
      ],
      "name": "query1_fnc",
      "outputs": [
        {
          "name": "_id",
          "type": "bytes32"
        }
      ],
      "payable": true,
      "stateMutability": "payable",
      "type": "function"
    },
    {
      "constant": false,
      "inputs": [
        {
          "name": "_timestamp",
          "type": "uint256"
        },
        {
          "name": "_datasource",
          "type": "string"
        },
        {
          "name": "_arg1",
          "type": "string"
        },
        {
          "name": "_arg2",
          "type": "string"
        },
        {
          "name": "_fnc",
          "type": "function"
        },
        {
          "name": "_gaslimit",
          "type": "uint256"
        }
      ],
      "name": "query2_fnc",
      "outputs": [
        {
          "name": "_id",
          "type": "bytes32"
        }
      ],
      "payable": true,
      "stateMutability": "payable",
      "type": "function"
    },
    {
      "constant": false,
      "inputs": [
        {
          "name": "_timestamp",
          "type": "uint256"
        },
        {
          "name": "_datasource",
          "type": "string"
        },
        {
          "name": "_args",
          "type": "bytes"
        },
        {
          "name": "_fnc",
          "type": "function"
        },
        {
          "name": "_gaslimit",
          "type": "uint256"
        }
      ],
      "name": "queryN_fnc",
      "outputs": [
        {
          "name": "_id",
          "type": "bytes32"
        }
      ],
      "payable": true,
      "stateMutability": "payable",
      "type": "function"
    }
  ],
  "bytecode": "0x60806040526404a817c80060035534801561001957600080fd5b5033600260006101000a81548173ffffffffffffffffffffffffffffffffffffffff021916908373ffffffffffffffffffffffffffffffffffffffff1602179055506148258061006a6000396000f3006080604052600436106101f9576000357c0100000000000000000000000000000000000000000000000000000000900463ffffffff16806323dc42e7146102645780632ef3accc1461032c57806345362978146103b3578063480a434d146104715780634a64c23f1461049c578063512c0b9c146104df578063524f3889146105455780635c242c59146105c2578063627fd3bb1461069457806368742da614610703578063688dcfd71461074657806375700437146107955780637653740f14610867578063772286591461091c5780637d242ae514610a2a5780637e1c420514610a9d57806380325b2d14610bb557806381ade30714610c8757806383eed3d514610d4557806385dee34c14610e0d5780638f28397014610f2557806398cf6f2214610f68578063a2ec191a14611026578063abaa5f3e14611099578063ad44d0ca146110cc578063adf59f9914611233578063ae815843146112fb578063b5bfdd73146113cd578063bf1fe4201461146c578063c281d19e14611499578063c51be90f146114f0578063c55c1cb6146115c2578063ca6ad1e414611694578063d9597016146116c1578063db2399511461176a578063db37e42f14611805578063dba8fc61146118ae578063de4b3262146119cf578063e6c0e9e1146119fc578063e839e65e14611a45578063f84072a514611b49575b34801561020557600080fd5b50600260009054906101000a900473ffffffffffffffffffffffffffffffffffffffff1673ffffffffffffffffffffffffffffffffffffffff163373ffffffffffffffffffffffffffffffffffffffff1614151561026257600080fd5b005b61030e60048036038101908080359060200190929190803590602001908201803590602001908080601f0160208091040260200160405190810160405280939291908181526020018383808284378201915050505050509192919290803590602001908201803590602001908080601f0160208091040260200160405190810160405280939291908181526020018383808284378201915050505050509192919290505050611c6a565b60405180826000191660001916815260200191505060405180910390f35b34801561033857600080fd5b5061039d600480360381019080803590602001908201803590602001908080601f016020809104026020016040519081016040528093929190818152602001838380828437820191505050505050919291929080359060200190929190505050611c84565b6040518082815260200191505060405180910390f35b610453600480360381019080803590602001908201803590602001908080601f0160208091040260200160405190810160405280939291908181526020018383808284378201915050505050509192919290803590602001908201803590602001908080601f0160208091040260200160405190810160405280939291908181526020018383808284378201915050505050509192919290505050611c99565b60405180826000191660001916815260200191505060405180910390f35b34801561047d57600080fd5b50610486611cb3565b6040518082815260200191505060405180910390f35b3480156104a857600080fd5b506104dd600480360381019080803573ffffffffffffffffffffffffffffffffffffffff169060200190929190505050611cb9565b005b3480156104eb57600080fd5b5061054360048036038101908080359060200190820180359060200190808060200260200160405190810160405280939291908181526020018383602002808284378201915050505050509192919290505050611d67565b005b34801561055157600080fd5b506105ac600480360381019080803590602001908201803590602001908080601f0160208091040260200160405190810160405280939291908181526020018383808284378201915050505050509192919290505050611e3d565b6040518082815260200191505060405180910390f35b61067660048036038101908080359060200190929190803590602001908201803590602001908080601f0160208091040260200160405190810160405280939291908181526020018383808284378201915050505050509192919290803590602001908201803590602001908080601f016020809104026020016040519081016040528093929190818152602001838380828437820191505050505050919291929080359060200190929190505050611e50565b60405180826000191660001916815260200191505060405180910390f35b3480156106a057600080fd5b50610701600480360381019080803573ffffffffffffffffffffffffffffffffffffffff16906020019092919080357effffffffffffffffffffffffffffffffffffffffffffffffffffffffffffff1916906020019092919050505061226c565b005b34801561070f57600080fd5b50610744600480360381019080803573ffffffffffffffffffffffffffffffffffffffff1690602001909291905050506122ed565b005b34801561075257600080fd5b5061079360048036038101908080357effffffffffffffffffffffffffffffffffffffffffffffffffffffffffffff19169060200190929190505050612399565b005b61084960048036038101908080359060200190929190803590602001908201803590602001908080601f0160208091040260200160405190810160405280939291908181526020018383808284378201915050505050509192919290803590602001908201803590602001908080601f016020809104026020016040519081016040528093929190818152602001838380828437820191505050505050919291929080359060200190929190505050612414565b60405180826000191660001916815260200191505060405180910390f35b34801561087357600080fd5b5061091a600480360381019080803573ffffffffffffffffffffffffffffffffffffffff16906020019092919080357effffffffffffffffffffffffffffffffffffffffffffffffffffffffffffff19169060200190929190803590602001908201803590602001908080601f016020809104026020016040519081016040528093929190818152602001838380828437820191505050505050919291929050505061242c565b005b610a0c60048036038101908080359060200190929190803590602001908201803590602001908080601f0160208091040260200160405190810160405280939291908181526020018383808284378201915050505050509192919290803590602001908201803590602001908080601f0160208091040260200160405190810160405280939291908181526020018383808284378201915050505050509192919290803590602001908201803590602001908080601f0160208091040260200160405190810160405280939291908181526020018383808284378201915050505050509192919290505050612505565b60405180826000191660001916815260200191505060405180910390f35b348015610a3657600080fd5b50610a9b60048036038101908080359060200190929190803590602001908201803590602001908080601f0160208091040260200160405190810160405280939291908181526020018383808284378201915050505050509192919290505050612521565b005b610b9760048036038101908080359060200190929190803590602001908201803590602001908080601f0160208091040260200160405190810160405280939291908181526020018383808284378201915050505050509192919290803590602001908201803590602001908080601f0160208091040260200160405190810160405280939291908181526020018383808284378201915050505050509192919290803590602001908201803590602001908080601f016020809104026020016040519081016040528093929190818152602001838380828437820191505050505050919291929080359060200190929190505050612619565b60405180826000191660001916815260200191505060405180910390f35b610c6960048036038101908080359060200190929190803590602001908201803590602001908080601f0160208091040260200160405190810160405280939291908181526020018383808284378201915050505050509192919290803590602001908201803590602001908080601f016020809104026020016040519081016040528093929190818152602001838380828437820191505050505050919291929080359060200190929190505050612aa3565b60405180826000191660001916815260200191505060405180910390f35b610d27600480360381019080803590602001908201803590602001908080601f0160208091040260200160405190810160405280939291908181526020018383808284378201915050505050509192919290803590602001908201803590602001908080601f0160208091040260200160405190810160405280939291908181526020018383808284378201915050505050509192919290505050612ebf565b60405180826000191660001916815260200191505060405180910390f35b610def60048036038101908080359060200190929190803590602001908201803590602001908080601f0160208091040260200160405190810160405280939291908181526020018383808284378201915050505050509192919290803590602001908201803590602001908080601f0160208091040260200160405190810160405280939291908181526020018383808284378201915050505050509192919290505050612ed9565b60405180826000191660001916815260200191505060405180910390f35b610f0760048036038101908080359060200190929190803590602001908201803590602001908080601f0160208091040260200160405190810160405280939291908181526020018383808284378201915050505050509192919290803590602001908201803590602001908080601f0160208091040260200160405190810160405280939291908181526020018383808284378201915050505050509192919290803590602001908201803590602001908080601f016020809104026020016040519081016040528093929190818152602001838380828437820191505050505050919291929080359060200190929190505050612ef3565b60405180826000191660001916815260200191505060405180910390f35b348015610f3157600080fd5b50610f66600480360381019080803573ffffffffffffffffffffffffffffffffffffffff169060200190929190505050612f0d565b005b611008600480360381019080803590602001908201803590602001908080601f0160208091040260200160405190810160405280939291908181526020018383808284378201915050505050509192919290803590602001908201803590602001908080601f0160208091040260200160405190810160405280939291908181526020018383808284378201915050505050509192919290505050612fad565b60405180826000191660001916815260200191505060405180910390f35b34801561103257600080fd5b50611097600480360381019080803590602001908201803590602001908080601f016020809104026020016040519081016040528093929190818152602001838380828437820191505050505050919291929080359060200190929190505050612fc7565b005b3480156110a557600080fd5b506110ae612ff9565b60405180826000191660001916815260200191505060405180910390f35b61121560048036038101908080359060200190929190803590602001908201803590602001908080601f0160208091040260200160405190810160405280939291908181526020018383808284378201915050505050509192919290803590602001908201803590602001908080601f0160208091040260200160405190810160405280939291908181526020018383808284378201915050505050509192919290803590602001908201803590602001908080601f01602080910402602001604051908101604052809392919081815260200183838082843782019150505050505091929192908035806c0100000000000000000000000090049068010000000000000000900463ffffffff1677ffffffffffffffffffffffffffffffffffffffffffffffff1690916020019190939291909392919080359060200190929190505050613086565b60405180826000191660001916815260200191505060405180910390f35b6112dd60048036038101908080359060200190929190803590602001908201803590602001908080601f0160208091040260200160405190810160405280939291908181526020018383808284378201915050505050509192919290803590602001908201803590602001908080601f016020809104026020016040519081016040528093929190818152602001838380828437820191505050505050919291929050505061356e565b60405180826000191660001916815260200191505060405180910390f35b6113af60048036038101908080359060200190929190803590602001908201803590602001908080601f0160208091040260200160405190810160405280939291908181526020018383808284378201915050505050509192919290803590602001908201803590602001908080601f016020809104026020016040519081016040528093929190818152602001838380828437820191505050505050919291929080359060200190929190505050613588565b60405180826000191660001916815260200191505060405180910390f35b3480156113d957600080fd5b5061146a600480360381019080803590602001908201803590602001908080601f016020809104026020016040519081016040528093929190818152602001838380828437820191505050505050919291929080357effffffffffffffffffffffffffffffffffffffffffffffffffffffffffffff19169060200190929190803590602001909291905050506135a0565b005b34801561147857600080fd5b5061149760048036038101908080359060200190929190505050613709565b005b3480156114a557600080fd5b506114ae61376f565b604051808273ffffffffffffffffffffffffffffffffffffffff1673ffffffffffffffffffffffffffffffffffffffff16815260200191505060405180910390f35b6115a460048036038101908080359060200190929190803590602001908201803590602001908080601f0160208091040260200160405190810160405280939291908181526020018383808284378201915050505050509192919290803590602001908201803590602001908080601f016020809104026020016040519081016040528093929190818152602001838380828437820191505050505050919291929080359060200190929190505050613830565b60405180826000191660001916815260200191505060405180910390f35b61167660048036038101908080359060200190929190803590602001908201803590602001908080601f0160208091040260200160405190810160405280939291908181526020018383808284378201915050505050509192919290803590602001908201803590602001908080601f016020809104026020016040519081016040528093929190818152602001838380828437820191505050505050919291929080359060200190929190505050613848565b60405180826000191660001916815260200191505060405180910390f35b3480156116a057600080fd5b506116bf60048036038101908080359060200190929190505050613860565b005b3480156116cd57600080fd5b5061176860048036038101908080359060200190820180359060200190808060200260200160405190810160405280939291908181526020018383602002808284378201915050505050509192919290803590602001908201803590602001908080602002602001604051908101604052809392919081815260200183836020028082843782019150505050505091929192905050506138a7565b005b34801561177657600080fd5b506117ab600480360381019080803573ffffffffffffffffffffffffffffffffffffffff169060200190929190505050613997565b60405180827effffffffffffffffffffffffffffffffffffffffffffffffffffffffffffff19167effffffffffffffffffffffffffffffffffffffffffffffffffffffffffffff1916815260200191505060405180910390f35b34801561181157600080fd5b506118ac60048036038101908080359060200190820180359060200190808060200260200160405190810160405280939291908181526020018383602002808284378201915050505050509192919290803590602001908201803590602001908080602002602001604051908101604052809392919081815260200183836020028082843782019150505050505091929192905050506139d6565b005b6119b160048036038101908080359060200190929190803590602001908201803590602001908080601f0160208091040260200160405190810160405280939291908181526020018383808284378201915050505050509192919290803590602001908201803590602001908080601f01602080910402602001604051908101604052809392919081815260200183838082843782019150505050505091929192908035806c0100000000000000000000000090049068010000000000000000900463ffffffff1677ffffffffffffffffffffffffffffffffffffffffffffffff1690916020019190939291909392919080359060200190929190505050613b1c565b60405180826000191660001916815260200191505060405180910390f35b3480156119db57600080fd5b506119fa60048036038101908080359060200190929190505050613f96565b005b348015611a0857600080fd5b50611a276004803603810190808035906020019092919050505061408d565b60405180826000191660001916815260200191505060405180910390f35b611b2b600480360381019080803590602001908201803590602001908080601f0160208091040260200160405190810160405280939291908181526020018383808284378201915050505050509192919290803590602001908201803590602001908080601f0160208091040260200160405190810160405280939291908181526020018383808284378201915050505050509192919290803590602001908201803590602001908080601f01602080910402602001604051908101604052809392919081815260200183838082843782019150505050505091929192905050506140b0565b60405180826000191660001916815260200191505060405180910390f35b611c4c60048036038101908080359060200190929190803590602001908201803590602001908080601f0160208091040260200160405190810160405280939291908181526020018383808284378201915050505050509192919290803590602001908201803590602001908080601f01602080910402602001604051908101604052809392919081815260200183838082843782019150505050505091929192908035806c0100000000000000000000000090049068010000000000000000900463ffffffff1677ffffffffffffffffffffffffffffffffffffffffffffffff16909160200191909392919093929190803590602001909291905050506140cc565b60405180826000191660001916815260200191505060405180910390f35b6000611c7b84848462030d40611e50565b90509392505050565b6000611c91838333614546565b905092915050565b6000611cab6000848462030d40611e50565b905092915050565b60065481565b600260009054906101000a900473ffffffffffffffffffffffffffffffffffffffff1673ffffffffffffffffffffffffffffffffffffffff163373ffffffffffffffffffffffffffffffffffffffff16141515611d1557600080fd5b600160008273ffffffffffffffffffffffffffffffffffffffff1673ffffffffffffffffffffffffffffffffffffffff16815260200190815260200160002060006101000a81549060ff021916905550565b6000600260009054906101000a900473ffffffffffffffffffffffffffffffffffffffff1673ffffffffffffffffffffffffffffffffffffffff163373ffffffffffffffffffffffffffffffffffffffff16141515611dc557600080fd5b6000600a81611dd491906147a8565b50600090505b8151811015611e3957600a8282815181101515611df357fe5b9060200190602002015190806001815401808255809150509060018203906000526020600020016000909192909190915090600019169055508080600101915050611dda565b5050565b6000611e498233614790565b9050919050565b60008382600080611e62848433614546565b9150813410151561225b5781340390506000811115611eb2573373ffffffffffffffffffffffffffffffffffffffff166108fc829081150290604051600060405180830381858888f19350505050505b624f1a004201891180611ec457504586115b15611ece57600080fd5b30336000803373ffffffffffffffffffffffffffffffffffffffff1673ffffffffffffffffffffffffffffffffffffffff16815260200190815260200160002054604051808473ffffffffffffffffffffffffffffffffffffffff1673ffffffffffffffffffffffffffffffffffffffff166c010000000000000000000000000281526014018373ffffffffffffffffffffffffffffffffffffffff1673ffffffffffffffffffffffffffffffffffffffff166c010000000000000000000000000281526014018281526020019350505050604051809103902094506000803373ffffffffffffffffffffffffffffffffffffffff1673ffffffffffffffffffffffffffffffffffffffff168152602001908152602001600020600081548092919060010191905055507fb76d0edd90c6a07aa3ff7a222d7f5933e29c6acc660c059c97837f05c4ca1a8433868b8b8b8b600460003373ffffffffffffffffffffffffffffffffffffffff1673ffffffffffffffffffffffffffffffffffffffff16815260200190815260200160002060009054906101000a90047f010000000000000000000000000000000000000000000000000000000000000002600560003373ffffffffffffffffffffffffffffffffffffffff1673ffffffffffffffffffffffffffffffffffffffff16815260200190815260200160002054604051808973ffffffffffffffffffffffffffffffffffffffff1673ffffffffffffffffffffffffffffffffffffffff16815260200188600019166000191681526020018781526020018060200180602001868152602001857effffffffffffffffffffffffffffffffffffffffffffffffffffffffffffff19167effffffffffffffffffffffffffffffffffffffffffffffffffffffffffffff19168152602001848152602001838103835288818151815260200191508051906020019080838360005b838110156121ab578082015181840152602081019050612190565b50505050905090810190601f1680156121d85780820380516001836020036101000a031916815260200191505b50838103825287818151815260200191508051906020019080838360005b838110156122115780820151818401526020810190506121f6565b50505050905090810190601f16801561223e5780820380516001836020036101000a031916815260200191505b509a505050505050505050505060405180910390a1849450612260565b600080fd5b50505050949350505050565b6060600260009054906101000a900473ffffffffffffffffffffffffffffffffffffffff1673ffffffffffffffffffffffffffffffffffffffff163373ffffffffffffffffffffffffffffffffffffffff161415156122ca57600080fd5b602060405190810160405280600081525090506122e883838361242c565b505050565b600260009054906101000a900473ffffffffffffffffffffffffffffffffffffffff1673ffffffffffffffffffffffffffffffffffffffff163373ffffffffffffffffffffffffffffffffffffffff1614151561234957600080fd5b8073ffffffffffffffffffffffffffffffffffffffff166108fc3073ffffffffffffffffffffffffffffffffffffffff16319081150290604051600060405180830381858888f193505050505050565b80600460003373ffffffffffffffffffffffffffffffffffffffff1673ffffffffffffffffffffffffffffffffffffffff16815260200190815260200160002060006101000a81548160ff02191690837f01000000000000000000000000000000000000000000000000000000000000009004021790555050565b600061242285858585611e50565b9050949350505050565b600260009054906101000a900473ffffffffffffffffffffffffffffffffffffffff1673ffffffffffffffffffffffffffffffffffffffff163373ffffffffffffffffffffffffffffffffffffffff1614151561248857600080fd5b81600160008573ffffffffffffffffffffffffffffffffffffffff1673ffffffffffffffffffffffffffffffffffffffff16815260200190815260200160002060006101000a81548160ff02191690837f010000000000000000000000000000000000000000000000000000000000000090040217905550505050565b60006125178585858562030d40612619565b9050949350505050565b6000600260009054906101000a900473ffffffffffffffffffffffffffffffffffffffff1673ffffffffffffffffffffffffffffffffffffffff163373ffffffffffffffffffffffffffffffffffffffff1614151561257f57600080fd5b82600681905550600090505b60098054905081101561261457600860006009838154811015156125ab57fe5b906000526020600020015460001916600019168152602001908152602001600020548302600760006009848154811015156125e257fe5b90600052602060002001546000191660001916815260200190815260200160002081905550808060010191505061258b565b505050565b6000848260008061262b848433614546565b91508134101515612a91578134039050600081111561267b573373ffffffffffffffffffffffffffffffffffffffff166108fc829081150290604051600060405180830381858888f19350505050505b624f1a0042018a118061268d57504586115b1561269757600080fd5b30336000803373ffffffffffffffffffffffffffffffffffffffff1673ffffffffffffffffffffffffffffffffffffffff16815260200190815260200160002054604051808473ffffffffffffffffffffffffffffffffffffffff1673ffffffffffffffffffffffffffffffffffffffff166c010000000000000000000000000281526014018373ffffffffffffffffffffffffffffffffffffffff1673ffffffffffffffffffffffffffffffffffffffff166c010000000000000000000000000281526014018281526020019350505050604051809103902094506000803373ffffffffffffffffffffffffffffffffffffffff1673ffffffffffffffffffffffffffffffffffffffff168152602001908152602001600020600081548092919060010191905055507faf30e4d66b2f1f23e63ef4591058a897f67e6867233e33ca3508b982dcc4129b33868c8c8c8c8c600460003373ffffffffffffffffffffffffffffffffffffffff1673ffffffffffffffffffffffffffffffffffffffff16815260200190815260200160002060009054906101000a90047f010000000000000000000000000000000000000000000000000000000000000002600560003373ffffffffffffffffffffffffffffffffffffffff1673ffffffffffffffffffffffffffffffffffffffff16815260200190815260200160002054604051808a73ffffffffffffffffffffffffffffffffffffffff1673ffffffffffffffffffffffffffffffffffffffff1681526020018960001916600019168152602001888152602001806020018060200180602001878152602001867effffffffffffffffffffffffffffffffffffffffffffffffffffffffffffff19167effffffffffffffffffffffffffffffffffffffffffffffffffffffffffffff1916815260200185815260200184810384528a818151815260200191508051906020019080838360005b8381101561297957808201518184015260208101905061295e565b50505050905090810190601f1680156129a65780820380516001836020036101000a031916815260200191505b50848103835289818151815260200191508051906020019080838360005b838110156129df5780820151818401526020810190506129c4565b50505050905090810190601f168015612a0c5780820380516001836020036101000a031916815260200191505b50848103825288818151815260200191508051906020019080838360005b83811015612a45578082015181840152602081019050612a2a565b50505050905090810190601f168015612a725780820380516001836020036101000a031916815260200191505b509c5050505050505050505050505060405180910390a1849450612a96565b600080fd5b5050505095945050505050565b60008382600080612ab5848433614546565b91508134101515612eae5781340390506000811115612b05573373ffffffffffffffffffffffffffffffffffffffff166108fc829081150290604051600060405180830381858888f19350505050505b624f1a004201891180612b1757504586115b15612b2157600080fd5b30336000803373ffffffffffffffffffffffffffffffffffffffff1673ffffffffffffffffffffffffffffffffffffffff16815260200190815260200160002054604051808473ffffffffffffffffffffffffffffffffffffffff1673ffffffffffffffffffffffffffffffffffffffff166c010000000000000000000000000281526014018373ffffffffffffffffffffffffffffffffffffffff1673ffffffffffffffffffffffffffffffffffffffff166c010000000000000000000000000281526014018281526020019350505050604051809103902094506000803373ffffffffffffffffffffffffffffffffffffffff1673ffffffffffffffffffffffffffffffffffffffff168152602001908152602001600020600081548092919060010191905055507f3af7d71c651d8670228b02a0b636ffa73a7f759ef99ff9c024bc3b044a72443833868b8b8b8b600460003373ffffffffffffffffffffffffffffffffffffffff1673ffffffffffffffffffffffffffffffffffffffff16815260200190815260200160002060009054906101000a90047f010000000000000000000000000000000000000000000000000000000000000002600560003373ffffffffffffffffffffffffffffffffffffffff1673ffffffffffffffffffffffffffffffffffffffff16815260200190815260200160002054604051808973ffffffffffffffffffffffffffffffffffffffff1673ffffffffffffffffffffffffffffffffffffffff16815260200188600019166000191681526020018781526020018060200180602001868152602001857effffffffffffffffffffffffffffffffffffffffffffffffffffffffffffff19167effffffffffffffffffffffffffffffffffffffffffffffffffffffffffffff19168152602001848152602001838103835288818151815260200191508051906020019080838360005b83811015612dfe578082015181840152602081019050612de3565b50505050905090810190601f168015612e2b5780820380516001836020036101000a031916815260200191505b50838103825287818151815260200191508051906020019080838360005b83811015612e64578082015181840152602081019050612e49565b50505050905090810190601f168015612e915780820380516001836020036101000a031916815260200191505b509a505050505050505050505060405180910390a1849450612eb3565b600080fd5b50505050949350505050565b6000612ed16000848462030d40611e50565b905092915050565b6000612eea84848462030d40612aa3565b90509392505050565b6000612f028686868686612619565b905095945050505050565b600260009054906101000a900473ffffffffffffffffffffffffffffffffffffffff1673ffffffffffffffffffffffffffffffffffffffff163373ffffffffffffffffffffffffffffffffffffffff16141515612f6957600080fd5b80600260006101000a81548173ffffffffffffffffffffffffffffffffffffffff021916908373ffffffffffffffffffffffffffffffffffffffff16021790555050565b6000612fbf6000848462030d40612aa3565b905092915050565b612ff58260007f010000000000000000000000000000000000000000000000000000000000000002836135a0565b5050565b600080600a805490506000803373ffffffffffffffffffffffffffffffffffffffff1673ffffffffffffffffffffffffffffffffffffffff168152602001908152602001600020546040518082815260200191505060405180910390206001900481151561306357fe5b069050600a8181548110151561307557fe5b906000526020600020015491505090565b60008682600080613098848433614546565b9150813410151561355a57813403905060008111156130e8573373ffffffffffffffffffffffffffffffffffffffff166108fc829081150290604051600060405180830381858888f19350505050505b624f1a0042018c11806130fa57504586115b8061313157503373ffffffffffffffffffffffffffffffffffffffff168873ffffffffffffffffffffffffffffffffffffffff1614155b1561313b57600080fd5b30336000803373ffffffffffffffffffffffffffffffffffffffff1673ffffffffffffffffffffffffffffffffffffffff16815260200190815260200160002054604051808473ffffffffffffffffffffffffffffffffffffffff1673ffffffffffffffffffffffffffffffffffffffff166c010000000000000000000000000281526014018373ffffffffffffffffffffffffffffffffffffffff1673ffffffffffffffffffffffffffffffffffffffff166c010000000000000000000000000281526014018281526020019350505050604051809103902094506000803373ffffffffffffffffffffffffffffffffffffffff1673ffffffffffffffffffffffffffffffffffffffff168152602001908152602001600020600081548092919060010191905055507fcc57f89a6a20799d672e6569d224340220a0891ad6efa3039e7728f0c88854b333868e8e8e8e8e8e8e600460003373ffffffffffffffffffffffffffffffffffffffff1673ffffffffffffffffffffffffffffffffffffffff16815260200190815260200160002060009054906101000a90047f010000000000000000000000000000000000000000000000000000000000000002600560003373ffffffffffffffffffffffffffffffffffffffff1673ffffffffffffffffffffffffffffffffffffffff16815260200190815260200160002054604051808c73ffffffffffffffffffffffffffffffffffffffff1673ffffffffffffffffffffffffffffffffffffffff1681526020018b600019166000191681526020018a8152602001806020018060200180602001898963ffffffff1690640100000000021768010000000000000000028152602001878152602001867effffffffffffffffffffffffffffffffffffffffffffffffffffffffffffff19167effffffffffffffffffffffffffffffffffffffffffffffffffffffffffffff1916815260200185815260200184810384528c818151815260200191508051906020019080838360005b83811015613440578082015181840152602081019050613425565b50505050905090810190601f16801561346d5780820380516001836020036101000a031916815260200191505b5084810383528b818151815260200191508051906020019080838360005b838110156134a657808201518184015260208101905061348b565b50505050905090810190601f1680156134d35780820380516001836020036101000a031916815260200191505b5084810382528a818151815260200191508051906020019080838360005b8381101561350c5780820151818401526020810190506134f1565b50505050905090810190601f1680156135395780820380516001836020036101000a031916815260200191505b509e50505050505050505050505050505060405180910390a184945061355f565b600080fd5b50505050979650505050505050565b600061357f84848462030d40611e50565b90509392505050565b600061359685858585611e50565b9050949350505050565b6000600260009054906101000a900473ffffffffffffffffffffffffffffffffffffffff1673ffffffffffffffffffffffffffffffffffffffff163373ffffffffffffffffffffffffffffffffffffffff161415156135fe57600080fd5b83836040518083805190602001908083835b6020831015156136355780518252602082019150602081019050602083039250613610565b6001836020036101000a038019825116818451168082178552505050505050905001827effffffffffffffffffffffffffffffffffffffffffffffffffffffffffffff19167effffffffffffffffffffffffffffffffffffffffffffffffffffffffffffff1916815260010192505050604051809103902090508060098080548091906001016136c591906147a8565b8154811015156136d157fe5b906000526020600020018160001916905550816008600083600019166000191681526020019081526020016000208190555050505050565b600260009054906101000a900473ffffffffffffffffffffffffffffffffffffffff1673ffffffffffffffffffffffffffffffffffffffff163373ffffffffffffffffffffffffffffffffffffffff1614151561376557600080fd5b8060038190555050565b6000807f010000000000000000000000000000000000000000000000000000000000000002600160003273ffffffffffffffffffffffffffffffffffffffff1673ffffffffffffffffffffffffffffffffffffffff16815260200190815260200160002060009054906101000a90047f0100000000000000000000000000000000000000000000000000000000000000027effffffffffffffffffffffffffffffffffffffffffffffffffffffffffffff191614151561382d573290505b90565b600061383e85858585613588565b9050949350505050565b600061385685858585612aa3565b9050949350505050565b80600560003373ffffffffffffffffffffffffffffffffffffffff1673ffffffffffffffffffffffffffffffffffffffff1681526020019081526020016000208190555050565b6000600260009054906101000a900473ffffffffffffffffffffffffffffffffffffffff1673ffffffffffffffffffffffffffffffffffffffff163373ffffffffffffffffffffffffffffffffffffffff1614151561390557600080fd5b600090505b815181101561399257828181518110151561392157fe5b9060200190602002015160056000848481518110151561393d57fe5b9060200190602002015173ffffffffffffffffffffffffffffffffffffffff1673ffffffffffffffffffffffffffffffffffffffff16815260200190815260200160002081905550808060010191505061390a565b505050565b60016020528060005260406000206000915054906101000a90047f01000000000000000000000000000000000000000000000000000000000000000281565b6000600260009054906101000a900473ffffffffffffffffffffffffffffffffffffffff1673ffffffffffffffffffffffffffffffffffffffff163373ffffffffffffffffffffffffffffffffffffffff16141515613a3457600080fd5b600090505b8151811015613b17578281815181101515613a5057fe5b906020019060200201517f010000000000000000000000000000000000000000000000000000000000000002600460008484815181101515613a8e57fe5b9060200190602002015173ffffffffffffffffffffffffffffffffffffffff1673ffffffffffffffffffffffffffffffffffffffff16815260200190815260200160002060006101000a81548160ff02191690837f0100000000000000000000000000000000000000000000000000000000000000900402179055508080600101915050613a39565b505050565b60008582600080613b2e848433614546565b91508134101515613f835781340390506000811115613b7e573373ffffffffffffffffffffffffffffffffffffffff166108fc829081150290604051600060405180830381858888f19350505050505b624f1a0042018b1180613b9057504586115b80613bc757503373ffffffffffffffffffffffffffffffffffffffff168873ffffffffffffffffffffffffffffffffffffffff1614155b15613bd157600080fd5b30336000803373ffffffffffffffffffffffffffffffffffffffff1673ffffffffffffffffffffffffffffffffffffffff16815260200190815260200160002054604051808473ffffffffffffffffffffffffffffffffffffffff1673ffffffffffffffffffffffffffffffffffffffff166c010000000000000000000000000281526014018373ffffffffffffffffffffffffffffffffffffffff1673ffffffffffffffffffffffffffffffffffffffff166c010000000000000000000000000281526014018281526020019350505050604051809103902094506000803373ffffffffffffffffffffffffffffffffffffffff1673ffffffffffffffffffffffffffffffffffffffff168152602001908152602001600020600081548092919060010191905055507f5051eab4e301cef16e893db3c7a192f8cbf7bb44e1a92b928665c66170930a3933868d8d8d8d8d8d600460003373ffffffffffffffffffffffffffffffffffffffff1673ffffffffffffffffffffffffffffffffffffffff16815260200190815260200160002060009054906101000a90047f010000000000000000000000000000000000000000000000000000000000000002600560003373ffffffffffffffffffffffffffffffffffffffff1673ffffffffffffffffffffffffffffffffffffffff16815260200190815260200160002054604051808b73ffffffffffffffffffffffffffffffffffffffff1673ffffffffffffffffffffffffffffffffffffffff1681526020018a600019166000191681526020018981526020018060200180602001888863ffffffff1690640100000000021768010000000000000000028152602001868152602001857effffffffffffffffffffffffffffffffffffffffffffffffffffffffffffff19167effffffffffffffffffffffffffffffffffffffffffffffffffffffffffffff1916815260200184815260200183810383528a818151815260200191508051906020019080838360005b83811015613ed1578082015181840152602081019050613eb6565b50505050905090810190601f168015613efe5780820380516001836020036101000a031916815260200191505b50838103825289818151815260200191508051906020019080838360005b83811015613f37578082015181840152602081019050613f1c565b50505050905090810190601f168015613f645780820380516001836020036101000a031916815260200191505b509c5050505050505050505050505060405180910390a1849450613f88565b600080fd5b505050509695505050505050565b6000600260009054906101000a900473ffffffffffffffffffffffffffffffffffffffff1673ffffffffffffffffffffffffffffffffffffffff163373ffffffffffffffffffffffffffffffffffffffff16141515613ff457600080fd5b81600681905550600090505b600980549050811015614089576008600060098381548110151561402057fe5b9060005260206000200154600019166000191681526020019081526020016000205482026007600060098481548110151561405757fe5b906000526020600020015460001916600019168152602001908152602001600020819055508080600101915050614000565b5050565b600a8181548110151561409c57fe5b906000526020600020016000915090505481565b60006140c3600085858562030d40612619565b90509392505050565b600085826000806140de848433614546565b91508134101515614533578134039050600081111561412e573373ffffffffffffffffffffffffffffffffffffffff166108fc829081150290604051600060405180830381858888f19350505050505b624f1a0042018b118061414057504586115b8061417757503373ffffffffffffffffffffffffffffffffffffffff168873ffffffffffffffffffffffffffffffffffffffff1614155b1561418157600080fd5b30336000803373ffffffffffffffffffffffffffffffffffffffff1673ffffffffffffffffffffffffffffffffffffffff16815260200190815260200160002054604051808473ffffffffffffffffffffffffffffffffffffffff1673ffffffffffffffffffffffffffffffffffffffff166c010000000000000000000000000281526014018373ffffffffffffffffffffffffffffffffffffffff1673ffffffffffffffffffffffffffffffffffffffff166c010000000000000000000000000281526014018281526020019350505050604051809103902094506000803373ffffffffffffffffffffffffffffffffffffffff1673ffffffffffffffffffffffffffffffffffffffff168152602001908152602001600020600081548092919060010191905055507f90552fb8e54d9a2aa4212413b16aa948c66cab32c9fe727ff74be1850bb0a8be33868d8d8d8d8d8d600460003373ffffffffffffffffffffffffffffffffffffffff1673ffffffffffffffffffffffffffffffffffffffff16815260200190815260200160002060009054906101000a90047f010000000000000000000000000000000000000000000000000000000000000002600560003373ffffffffffffffffffffffffffffffffffffffff1673ffffffffffffffffffffffffffffffffffffffff16815260200190815260200160002054604051808b73ffffffffffffffffffffffffffffffffffffffff1673ffffffffffffffffffffffffffffffffffffffff1681526020018a600019166000191681526020018981526020018060200180602001888863ffffffff1690640100000000021768010000000000000000028152602001868152602001857effffffffffffffffffffffffffffffffffffffffffffffffffffffffffffff19167effffffffffffffffffffffffffffffffffffffffffffffffffffffffffffff1916815260200184815260200183810383528a818151815260200191508051906020019080838360005b83811015614481578082015181840152602081019050614466565b50505050905090810190601f1680156144ae5780820380516001836020036101000a031916815260200191505b50838103825289818151815260200191508051906020019080838360005b838110156144e75780820151818401526020810190506144cc565b50505050905090810190601f1680156145145780820380516001836020036101000a031916815260200191505b509c5050505050505050505050505060405180910390a1849450614538565b600080fd5b505050509695505050505050565b600080600560008473ffffffffffffffffffffffffffffffffffffffff1673ffffffffffffffffffffffffffffffffffffffff16815260200190815260200160002054905062030d4084111580156145dc575060008060008573ffffffffffffffffffffffffffffffffffffffff1673ffffffffffffffffffffffffffffffffffffffff16815260200190815260200160002054145b80156145ea57506003548111155b801561462957506145f961376f565b73ffffffffffffffffffffffffffffffffffffffff163273ffffffffffffffffffffffffffffffffffffffff1614155b156146375760009150614788565b60008114156146465760035490505b6007600086600460008773ffffffffffffffffffffffffffffffffffffffff1673ffffffffffffffffffffffffffffffffffffffff16815260200190815260200160002060009054906101000a90047f0100000000000000000000000000000000000000000000000000000000000000026040518083805190602001908083835b6020831015156146ec57805182526020820191506020810190506020830392506146c7565b6001836020036101000a038019825116818451168082178552505050505050905001827effffffffffffffffffffffffffffffffffffffffffffffffffffffffffffff19167effffffffffffffffffffffffffffffffffffffffffffffffffffffffffffff1916815260010192505050604051809103902060001916600019168152602001908152602001600020549150808402820191508191505b509392505050565b60006147a08362030d4084614546565b905092915050565b8154818355818111156147cf578183600052602060002091820191016147ce91906147d4565b5b505050565b6147f691905b808211156147f25760008160009055506001016147da565b5090565b905600a165627a7a72305820ee16efe0d95e3a8877a9beb97fa91fcea327a77b757398ee43a897b5950b2a540029",
  "source": "\n\n\n\n\n\ncontract Oraclize {\n    mapping (address => uint) reqc;\n\n    mapping (address => byte) public cbAddresses;\n\n    event Log1(address sender, bytes32 cid, uint timestamp, string datasource, string arg, uint gaslimit, byte proofType, uint gasPrice);\n    event Log2(address sender, bytes32 cid, uint timestamp, string datasource, string arg1, string arg2, uint gaslimit, byte proofType, uint gasPrice);\n    event LogN(address sender, bytes32 cid, uint timestamp, string datasource, bytes args, uint gaslimit, byte proofType, uint gasPrice);\n    event Log1_fnc(address sender, bytes32 cid, uint timestamp, string datasource, string arg, function() external callback, uint gaslimit, byte proofType, uint gasPrice);\n    event Log2_fnc(address sender, bytes32 cid, uint timestamp, string datasource, string arg1, string arg2, function() external callback, uint gaslimit, byte proofType, uint gasPrice);\n    event LogN_fnc(address sender, bytes32 cid, uint timestamp, string datasource, bytes args, function() external callback, uint gaslimit, byte proofType, uint gasPrice);\n\n    address owner;\n\n    modifier onlyadmin {\n        if (msg.sender != owner) throw;\n       _;\n    }\n    \n    function changeAdmin(address _newAdmin) \n    onlyadmin {\n        owner = _newAdmin;\n    }\n\n    \n    function addCbAddress(address newCbAddress, byte addressType, bytes proof) \n    onlyadmin {\n        cbAddresses[newCbAddress] = addressType;\n    }\n\n    function addCbAddress(address newCbAddress, byte addressType)\n    onlyadmin {\n        bytes memory nil = '';\n        addCbAddress(newCbAddress, addressType, nil);\n    }\n\n    function removeCbAddress(address newCbAddress)\n    onlyadmin {\n        delete cbAddresses[newCbAddress];\n    }\n\n    function cbAddress()\n    constant\n    returns (address _cbAddress) {\n        if (cbAddresses[tx.origin] != 0)\n            _cbAddress = tx.origin;\n    }\n\n    function addDSource(string dsname, uint multiplier) {\n        addDSource(dsname, 0x00, multiplier);\n    }\n\n    function addDSource(string dsname, byte proofType, uint multiplier) onlyadmin {\n        bytes32 dsname_hash = sha3(dsname, proofType);\n        dsources[dsources.length++] = dsname_hash;\n        price_multiplier[dsname_hash] = multiplier;\n    }\n\n    function multisetProofType(uint[] _proofType, address[] _addr) onlyadmin {\n        for (uint i=0; i<_addr.length; i++) addr_proofType[_addr[i]] = byte(_proofType[i]);\n    }\n\n    function multisetCustomGasPrice(uint[] _gasPrice, address[] _addr) onlyadmin {\n        for (uint i=0; i<_addr.length; i++) addr_gasPrice[_addr[i]] = _gasPrice[i];\n    }\n\n    uint gasprice = 20000000000;\n\n    function setGasPrice(uint newgasprice)\n    onlyadmin {\n        gasprice = newgasprice;\n    }\n\n    function setBasePrice(uint new_baseprice)\n    onlyadmin { \n        baseprice = new_baseprice;\n        for (uint i=0; i<dsources.length; i++) price[dsources[i]] = new_baseprice*price_multiplier[dsources[i]];\n    }\n\n    function setBasePrice(uint new_baseprice, bytes proofID)\n    onlyadmin { \n        baseprice = new_baseprice;\n        for (uint i=0; i<dsources.length; i++) price[dsources[i]] = new_baseprice*price_multiplier[dsources[i]];\n    }\n\n    function withdrawFunds(address _addr)\n    onlyadmin {\n        _addr.send(this.balance);\n    }\n\n    function() onlyadmin {}\n\n    function Oraclize() {\n        owner = msg.sender;\n    }\n\n    modifier costs(string datasource, uint gaslimit) {\n        uint price = getPrice(datasource, gaslimit, msg.sender);\n        if (msg.value >= price){\n            uint diff = msg.value - price;\n            if (diff > 0) msg.sender.send(diff);\n           _;\n        } else throw;\n    }\n\n    mapping (address => byte) addr_proofType;\n    mapping (address => uint) addr_gasPrice;\n    uint public baseprice;\n    mapping (bytes32 => uint) price;\n    mapping (bytes32 => uint) price_multiplier;\n    bytes32[] dsources;\n\n    bytes32[] public randomDS_sessionPubKeysHash;\n\n    function randomDS_updateSessionPubKeysHash(bytes32[] _newSessionPubKeysHash) onlyadmin {\n        randomDS_sessionPubKeysHash.length = 0;\n        for (uint i=0; i<_newSessionPubKeysHash.length; i++) randomDS_sessionPubKeysHash.push(_newSessionPubKeysHash[i]);\n    }\n\n    function randomDS_getSessionPubKeyHash() constant returns (bytes32) {\n        uint i = uint(sha3(reqc[msg.sender]))%randomDS_sessionPubKeysHash.length;\n        return randomDS_sessionPubKeysHash[i];\n    }\n\n    function setProofType(byte _proofType) {\n        addr_proofType[msg.sender] = _proofType;\n    }\n\n    function setCustomGasPrice(uint _gasPrice) {\n        addr_gasPrice[msg.sender] = _gasPrice;\n    }\n\n    function getPrice(string _datasource)\n    public\n    returns (uint _dsprice) {\n        return getPrice(_datasource, msg.sender);\n    }\n\n    function getPrice(string _datasource, uint _gaslimit)\n    public\n    returns (uint _dsprice) {\n        return getPrice(_datasource, _gaslimit, msg.sender);\n    }\n\n    function getPrice(string _datasource, address _addr)\n    private\n    returns (uint _dsprice) {\n        return getPrice(_datasource, 200000, _addr);\n    }\n\n    function getPrice(string _datasource, uint _gaslimit, address _addr)\n    private\n    returns (uint _dsprice) {\n        uint gasprice_ = addr_gasPrice[_addr];\n        if ((_gaslimit <= 200000)&&(reqc[_addr] == 0)&&(gasprice_ <= gasprice)&&(tx.origin != cbAddress())) return 0;\n        if (gasprice_ == 0) gasprice_ = gasprice;\n        _dsprice = price[sha3(_datasource, addr_proofType[_addr])];\n        _dsprice += _gaslimit*gasprice_;\n        return _dsprice;\n    }\n\n    function getCodeSize(address _addr)\n    private\n    constant\n    returns(uint _size) {\n    assembly {\n        _size := extcodesize(_addr)\n        }\n    }\n\n    function query(string _datasource, string _arg)\n    payable\n    returns (bytes32 _id) {\n        return query1(0, _datasource, _arg, 200000);\n    }\n\n    function query1(string _datasource, string _arg)\n    payable\n    returns (bytes32 _id) {\n        return query1(0, _datasource, _arg, 200000);\n    }\n\n    function query2(string _datasource, string _arg1, string _arg2)\n    payable\n    returns (bytes32 _id) {\n        return query2(0, _datasource, _arg1, _arg2, 200000);\n    }\n\n    function queryN(string _datasource, bytes _args)\n    payable\n    returns (bytes32 _id) {\n        return queryN(0, _datasource, _args, 200000);\n    }\n\n    function query(uint _timestamp, string _datasource, string _arg)\n    payable\n    returns (bytes32 _id) {\n        return query1(_timestamp, _datasource, _arg, 200000);\n    }\n\n    function query1(uint _timestamp, string _datasource, string _arg)\n    payable\n    returns (bytes32 _id) {\n        return query1(_timestamp, _datasource, _arg, 200000);\n    }\n\n    function query2(uint _timestamp, string _datasource, string _arg1, string _arg2)\n    payable\n    returns (bytes32 _id) {\n        return query2(_timestamp, _datasource, _arg1, _arg2, 200000);\n    }\n\n    function queryN(uint _timestamp, string _datasource, bytes _args)\n    payable\n    returns (bytes32 _id) {\n        return queryN(_timestamp, _datasource, _args, 200000);\n    }\n\n    function query(uint _timestamp, string _datasource, string _arg, uint _gaslimit)\n    payable\n    returns (bytes32 _id) {\n        return query1(_timestamp, _datasource, _arg, _gaslimit);\n    }\n\n    function query_withGasLimit(uint _timestamp, string _datasource, string _arg, uint _gaslimit)\n    payable\n    returns (bytes32 _id) {\n        return query(_timestamp, _datasource, _arg, _gaslimit);\n    }\n\n    function query1_withGasLimit(uint _timestamp, string _datasource, string _arg, uint _gaslimit)\n    payable\n    returns (bytes32 _id) {\n        return query1(_timestamp, _datasource, _arg, _gaslimit);\n    }\n\n    function query2_withGasLimit(uint _timestamp, string _datasource, string _arg1, string _arg2, uint _gaslimit)\n    payable\n    returns (bytes32 _id) {\n        return query2(_timestamp, _datasource, _arg1, _arg2, _gaslimit);\n    }\n\n    function queryN_withGasLimit(uint _timestamp, string _datasource, bytes _args, uint _gaslimit)\n    payable\n    returns (bytes32 _id) {\n        return queryN(_timestamp, _datasource, _args, _gaslimit);\n    }\n\n    function query1(uint _timestamp, string _datasource, string _arg, uint _gaslimit) costs(_datasource, _gaslimit)\n    payable\n    returns (bytes32 _id) {\n    \tif ((_timestamp > now+3600*24*60)||(_gaslimit > block.gaslimit)) throw;\n\n        _id = sha3(this, msg.sender, reqc[msg.sender]);\n        reqc[msg.sender]++;\n        Log1(msg.sender, _id, _timestamp, _datasource, _arg, _gaslimit, addr_proofType[msg.sender], addr_gasPrice[msg.sender]);\n        return _id;\n    }\n\n    function query2(uint _timestamp, string _datasource, string _arg1, string _arg2, uint _gaslimit)\n    costs(_datasource, _gaslimit)\n    payable\n    returns (bytes32 _id) {\n    \tif ((_timestamp > now+3600*24*60)||(_gaslimit > block.gaslimit)) throw;\n\n        _id = sha3(this, msg.sender, reqc[msg.sender]);\n        reqc[msg.sender]++;\n        Log2(msg.sender, _id, _timestamp, _datasource, _arg1, _arg2, _gaslimit, addr_proofType[msg.sender], addr_gasPrice[msg.sender]);\n        return _id;\n    }\n\n    function queryN(uint _timestamp, string _datasource, bytes _args, uint _gaslimit) costs(_datasource, _gaslimit)\n    payable\n    returns (bytes32 _id) {\n    \tif ((_timestamp > now+3600*24*60)||(_gaslimit > block.gaslimit)) throw;\n\n        _id = sha3(this, msg.sender, reqc[msg.sender]);\n        reqc[msg.sender]++;\n        LogN(msg.sender, _id, _timestamp, _datasource, _args, _gaslimit, addr_proofType[msg.sender], addr_gasPrice[msg.sender]);\n        return _id;\n    }\n\n    function query1_fnc(uint _timestamp, string _datasource, string _arg, function() external _fnc, uint _gaslimit)\n    costs(_datasource, _gaslimit)\n    payable\n    returns (bytes32 _id) {\n        if ((_timestamp > now+3600*24*60)||(_gaslimit > block.gaslimit)||address(_fnc) != msg.sender) throw;\n\n        _id = sha3(this, msg.sender, reqc[msg.sender]);\n        reqc[msg.sender]++;\n        Log1_fnc(msg.sender, _id, _timestamp, _datasource, _arg, _fnc, _gaslimit, addr_proofType[msg.sender], addr_gasPrice[msg.sender]);\n        return _id;\n    }\n\n    function query2_fnc(uint _timestamp, string _datasource, string _arg1, string _arg2, function() external _fnc, uint _gaslimit)\n    costs(_datasource, _gaslimit)\n    payable\n    returns (bytes32 _id) {\n        if ((_timestamp > now+3600*24*60)||(_gaslimit > block.gaslimit)||address(_fnc) != msg.sender) throw;\n\n        _id = sha3(this, msg.sender, reqc[msg.sender]);\n        reqc[msg.sender]++;\n        Log2_fnc(msg.sender, _id, _timestamp, _datasource, _arg1, _arg2, _fnc,  _gaslimit, addr_proofType[msg.sender], addr_gasPrice[msg.sender]);\n        return _id;\n    }\n\n    function queryN_fnc(uint _timestamp, string _datasource, bytes _args, function() external _fnc, uint _gaslimit)\n    costs(_datasource, _gaslimit)\n    payable\n    returns (bytes32 _id) {\n        if ((_timestamp > now+3600*24*60)||(_gaslimit > block.gaslimit)||address(_fnc) != msg.sender) throw;\n\n        _id = sha3(this, msg.sender, reqc[msg.sender]);\n        reqc[msg.sender]++;\n        LogN_fnc(msg.sender, _id, _timestamp, _datasource, _args, _fnc, _gaslimit, addr_proofType[msg.sender], addr_gasPrice[msg.sender]);\n        return _id;\n    }\n}",
  "sourcePath": "/home/XXX-1/smartrim-experiment/for-rlf/0x6f28b146804dba2d6f944c03528a8fdbc673df2c/contracts/0x6f28b146804dba2d6f944c03528a8fdbc673df2c.sol",
  "compiler": {
    "name": "solc",
    "version": "0.4.25+commit.59dbf8f1.Emscripten.clang"
  },
  "schemaVersion": "3.4.16",
  "updatedAt": "2025-08-14T03:57:03.453Z",
  "networkType": "ethereum",
  "devdoc": {
    "methods": {}
  },
  "userdoc": {
    "methods": {}
  }
}