{
  "contractName": "BurnablePayment",
  "abi": [
    {
      "constant": true,
      "inputs": [],
      "name": "payer",
      "outputs": [
        {
          "name": "",
          "type": "address"
        }
      ],
      "payable": false,
      "stateMutability": "view",
      "type": "function"
    },
    {
      "constant": true,
      "inputs": [],
      "name": "title",
      "outputs": [
        {
          "name": "",
          "type": "string"
        }
      ],
      "payable": false,
      "stateMutability": "view",
      "type": "function"
    },
    {
      "constant": true,
      "inputs": [],
      "name": "worker",
      "outputs": [
        {
          "name": "",
          "type": "address"
        }
      ],
      "payable": false,
      "stateMutability": "view",
      "type": "function"
    },
    {
      "constant": true,
      "inputs": [],
      "name": "amountBurned",
      "outputs": [
        {
          "name": "",
          "type": "uint256"
        }
      ],
      "payable": false,
      "stateMutability": "view",
      "type": "function"
    },
    {
      "constant": true,
      "inputs": [],
      "name": "autoreleaseInterval",
      "outputs": [
        {
          "name": "",
          "type": "uint256"
        }
      ],
      "payable": false,
      "stateMutability": "view",
      "type": "function"
    },
    {
      "constant": true,
      "inputs": [],
      "name": "autoreleaseTime",
      "outputs": [
        {
          "name": "",
          "type": "uint256"
        }
      ],
      "payable": false,
      "stateMutability": "view",
      "type": "function"
    },
    {
      "constant": true,
      "inputs": [],
      "name": "state",
      "outputs": [
        {
          "name": "",
          "type": "uint8"
        }
      ],
      "payable": false,
      "stateMutability": "view",
      "type": "function"
    },
    {
      "constant": true,
      "inputs": [],
      "name": "amountReleased",
      "outputs": [
        {
          "name": "",
          "type": "uint256"
        }
      ],
      "payable": false,
      "stateMutability": "view",
      "type": "function"
    },
    {
      "constant": true,
      "inputs": [],
      "name": "commitThreshold",
      "outputs": [
        {
          "name": "",
          "type": "uint256"
        }
      ],
      "payable": false,
      "stateMutability": "view",
      "type": "function"
    },
    {
      "constant": true,
      "inputs": [],
      "name": "amountDeposited",
      "outputs": [
        {
          "name": "",
          "type": "uint256"
        }
      ],
      "payable": false,
      "stateMutability": "view",
      "type": "function"
    },
    {
      "inputs": [
        {
          "name": "payerIsOpening",
          "type": "bool"
        },
        {
          "name": "creator",
          "type": "address"
        },
        {
          "name": "_commitThreshold",
          "type": "uint256"
        },
        {
          "name": "_autoreleaseInterval",
          "type": "uint256"
        },
        {
          "name": "_title",
          "type": "string"
        },
        {
          "name": "initialStatement",
          "type": "string"
        }
      ],
      "payable": true,
      "stateMutability": "payable",
      "type": "constructor"
    },
    {
      "anonymous": false,
      "inputs": [
        {
          "indexed": true,
          "name": "contractAddress",
          "type": "address"
        },
        {
          "indexed": false,
          "name": "payerOpened",
          "type": "bool"
        },
        {
          "indexed": false,
          "name": "creator",
          "type": "address"
        },
        {
          "indexed": false,
          "name": "commitThreshold",
          "type": "uint256"
        },
        {
          "indexed": false,
          "name": "autoreleaseInterval",
          "type": "uint256"
        },
        {
          "indexed": false,
          "name": "title",
          "type": "string"
        }
      ],
      "name": "Created",
      "type": "event"
    },
    {
      "anonymous": false,
      "inputs": [
        {
          "indexed": false,
          "name": "from",
          "type": "address"
        },
        {
          "indexed": false,
          "name": "amount",
          "type": "uint256"
        }
      ],
      "name": "FundsAdded",
      "type": "event"
    },
    {
      "anonymous": false,
      "inputs": [
        {
          "indexed": false,
          "name": "statement",
          "type": "string"
        }
      ],
      "name": "PayerStatement",
      "type": "event"
    },
    {
      "anonymous": false,
      "inputs": [
        {
          "indexed": false,
          "name": "statement",
          "type": "string"
        }
      ],
      "name": "WorkerStatement",
      "type": "event"
    },
    {
      "anonymous": false,
      "inputs": [],
      "name": "FundsRecovered",
      "type": "event"
    },
    {
      "anonymous": false,
      "inputs": [
        {
          "indexed": false,
          "name": "committer",
          "type": "address"
        }
      ],
      "name": "Committed",
      "type": "event"
    },
    {
      "anonymous": false,
      "inputs": [
        {
          "indexed": false,
          "name": "amount",
          "type": "uint256"
        }
      ],
      "name": "FundsBurned",
      "type": "event"
    },
    {
      "anonymous": false,
      "inputs": [
        {
          "indexed": false,
          "name": "amount",
          "type": "uint256"
        }
      ],
      "name": "FundsReleased",
      "type": "event"
    },
    {
      "anonymous": false,
      "inputs": [],
      "name": "Closed",
      "type": "event"
    },
    {
      "anonymous": false,
      "inputs": [],
      "name": "Unclosed",
      "type": "event"
    },
    {
      "anonymous": false,
      "inputs": [],
      "name": "AutoreleaseDelayed",
      "type": "event"
    },
    {
      "anonymous": false,
      "inputs": [],
      "name": "AutoreleaseTriggered",
      "type": "event"
    },
    {
      "constant": false,
      "inputs": [],
      "name": "addFunds",
      "outputs": [],
      "payable": true,
      "stateMutability": "payable",
      "type": "function"
    },
    {
      "constant": false,
      "inputs": [],
      "name": "recoverFunds",
      "outputs": [],
      "payable": false,
      "stateMutability": "nonpayable",
      "type": "function"
    },
    {
      "constant": false,
      "inputs": [],
      "name": "commit",
      "outputs": [],
      "payable": true,
      "stateMutability": "payable",
      "type": "function"
    },
    {
      "constant": false,
      "inputs": [
        {
          "name": "amount",
          "type": "uint256"
        }
      ],
      "name": "burn",
      "outputs": [],
      "payable": false,
      "stateMutability": "nonpayable",
      "type": "function"
    },
    {
      "constant": false,
      "inputs": [
        {
          "name": "amount",
          "type": "uint256"
        }
      ],
      "name": "release",
      "outputs": [],
      "payable": false,
      "stateMutability": "nonpayable",
      "type": "function"
    },
    {
      "constant": false,
      "inputs": [
        {
          "name": "statement",
          "type": "string"
        }
      ],
      "name": "logPayerStatement",
      "outputs": [],
      "payable": false,
      "stateMutability": "nonpayable",
      "type": "function"
    },
    {
      "constant": false,
      "inputs": [
        {
          "name": "statement",
          "type": "string"
        }
      ],
      "name": "logWorkerStatement",
      "outputs": [],
      "payable": false,
      "stateMutability": "nonpayable",
      "type": "function"
    },
    {
      "constant": false,
      "inputs": [],
      "name": "delayAutorelease",
      "outputs": [],
      "payable": false,
      "stateMutability": "nonpayable",
      "type": "function"
    },
    {
      "constant": false,
      "inputs": [],
      "name": "triggerAutorelease",
      "outputs": [],
      "payable": false,
      "stateMutability": "nonpayable",
      "type": "function"
    },
    {
      "constant": true,
      "inputs": [],
      "name": "getFullState",
      "outputs": [
        {
          "name": "",
          "type": "uint8"
        },
        {
          "name": "",
          "type": "address"
        },
        {
          "name": "",
          "type": "address"
        },
        {
          "name": "",
          "type": "string"
        },
        {
          "name": "",
          "type": "uint256"
        },
        {
          "name": "",
          "type": "uint256"
        },
        {
          "name": "",
          "type": "uint256"
        },
        {
          "name": "",
          "type": "uint256"
        },
        {
          "name": "",
          "type": "uint256"
        },
        {
          "name": "",
          "type": "uint256"
        },
        {
          "name": "",
          "type": "uint256"
        }
      ],
      "payable": false,
      "stateMutability": "view",
      "type": "function"
    }
  ],
  "bytecode": "0x60806040526000600260146101000a81548160ff02191690831515021790555060405162001b8c38038062001b8c8339810180604052810190808051906020019092919080519060200190929190805190602001909291908051906020019092919080518201929190602001805182019291905050503073ffffffffffffffffffffffffffffffffffffffff167f7948a17e5fb02dd2f672a909a6ae3292d179707215209444a747ffe9fc50d418878787600754600060405180861515151581526020018573ffffffffffffffffffffffffffffffffffffffff1673ffffffffffffffffffffffffffffffffffffffff168152602001848152602001838152602001806020018281038252838181546001816001161561010002031660029004815260200191508054600181600116156101000203166002900480156200018a5780601f106200015e576101008083540402835291602001916200018a565b820191906000526020600020905b8154815290600101906020018083116200016c57829003601f168201915b5050965050505050505060405180910390a2600034111562000222577f8fe10ae416f22f5e5220b0018a6c1d4ff534d6aa3a471f2a20cb7747fe63e5b93234604051808373ffffffffffffffffffffffffffffffffffffffff1673ffffffffffffffffffffffffffffffffffffffff1681526020018281526020019250505060405180910390a1346003600082825401925050819055505b81600090805190602001906200023a92919062000487565b508515620002ae576000600960006101000a81548160ff021916908360038111156200026257fe5b021790555084600160006101000a81548173ffffffffffffffffffffffffffffffffffffffff021916908373ffffffffffffffffffffffffffffffffffffffff16021790555062000315565b6001600960006101000a81548160ff02191690836003811115620002ce57fe5b021790555084600260006101000a81548173ffffffffffffffffffffffffffffffffffffffff021916908373ffffffffffffffffffffffffffffffffffffffff1602179055505b83600681905550826007819055506000815111156200047b578515620003da577f21dce665866130bddd42cadae51db6d5093826abb5e5309d67ab8589c7e92694816040518080602001828103825283818151815260200191508051906020019080838360005b83811015620003995780820151818401526020810190506200037c565b50505050905090810190601f168015620003c75780820380516001836020036101000a031916815260200191505b509250505060405180910390a16200047a565b7f337c87ca7e10f4ba0201da47ad3a16b990a1198718c55f51688d80da2a35cb75816040518080602001828103825283818151815260200191508051906020019080838360005b838110156200043e57808201518184015260208101905062000421565b50505050905090810190601f1680156200046c5780820380516001836020036101000a031916815260200191505b509250505060405180910390a15b5b50505050505062000536565b828054600181600116156101000203166002900490600052602060002090601f016020900481019282601f10620004ca57805160ff1916838001178555620004fb565b82800160010185558215620004fb579182015b82811115620004fa578251825591602001919060010190620004dd565b5b5090506200050a91906200050e565b5090565b6200053391905b808211156200052f57600081600090555060010162000515565b5090565b90565b61164680620005466000396000f300608060405260043610610112576000357c0100000000000000000000000000000000000000000000000000000000900463ffffffff168063123119cd14610117578063127b09011461016e57806337bdc99b146101855780633c7a3aff146101b257806342966c68146101bc5780634a79d50c146101e95780634d547ada146102795780635290d773146102d057806367aff919146102fb5780637345da39146103265780637d6ad4cd1461038f578063972161f7146103a6578063a26759cb146104e2578063b79550be146104ec578063bc30823314610503578063c19d93fb1461052e578063dc7454dd14610567578063ec1e74a714610592578063f3c74496146105bd578063f86ccd4114610626575b600080fd5b34801561012357600080fd5b5061012c610651565b604051808273ffffffffffffffffffffffffffffffffffffffff1673ffffffffffffffffffffffffffffffffffffffff16815260200191505060405180910390f35b34801561017a57600080fd5b50610183610677565b005b34801561019157600080fd5b506101b060048036038101908080359060200190929190505050610742565b005b6101ba6107e0565b005b3480156101c857600080fd5b506101e760048036038101908080359060200190929190505050610a23565b005b3480156101f557600080fd5b506101fe610ac1565b6040518080602001828103825283818151815260200191508051906020019080838360005b8381101561023e578082015181840152602081019050610223565b50505050905090810190601f16801561026b5780820380516001836020036101000a031916815260200191505b509250505060405180910390f35b34801561028557600080fd5b5061028e610b5f565b604051808273ffffffffffffffffffffffffffffffffffffffff1673ffffffffffffffffffffffffffffffffffffffff16815260200191505060405180910390f35b3480156102dc57600080fd5b506102e5610b85565b6040518082815260200191505060405180910390f35b34801561030757600080fd5b50610310610b8b565b6040518082815260200191505060405180910390f35b34801561033257600080fd5b5061038d600480360381019080803590602001908201803590602001908080601f0160208091040260200160405190810160405280939291908181526020018383808284378201915050505050509192919290505050610b91565b005b34801561039b57600080fd5b506103a4610c8c565b005b3480156103b257600080fd5b506103bb610d7d565b604051808c60038111156103cb57fe5b60ff1681526020018b73ffffffffffffffffffffffffffffffffffffffff1673ffffffffffffffffffffffffffffffffffffffff1681526020018a73ffffffffffffffffffffffffffffffffffffffff1673ffffffffffffffffffffffffffffffffffffffff1681526020018060200189815260200188815260200187815260200186815260200185815260200184815260200183815260200182810382528a818151815260200191508051906020019080838360005b8381101561049d578082015181840152602081019050610482565b50505050905090810190601f1680156104ca5780820380516001836020036101000a031916815260200191505b509c5050505050505050505050505060405180910390f35b6104ea610ed0565b005b3480156104f857600080fd5b5061050161108e565b005b34801561050f57600080fd5b506105186112cd565b6040518082815260200191505060405180910390f35b34801561053a57600080fd5b506105436112d3565b6040518082600381111561055357fe5b60ff16815260200191505060405180910390f35b34801561057357600080fd5b5061057c6112e6565b6040518082815260200191505060405180910390f35b34801561059e57600080fd5b506105a76112ec565b6040518082815260200191505060405180910390f35b3480156105c957600080fd5b50610624600480360381019080803590602001908201803590602001908080601f01602080910402602001604051908101604052809392919081815260200183838082843782019150505050505091929192905050506112f2565b005b34801561063257600080fd5b5061063b6113ed565b6040518082815260200191505060405180910390f35b600160009054906101000a900473ffffffffffffffffffffffffffffffffffffffff1681565b600160009054906101000a900473ffffffffffffffffffffffffffffffffffffffff1673ffffffffffffffffffffffffffffffffffffffff163373ffffffffffffffffffffffffffffffffffffffff161415156106d357600080fd5b6002600960009054906101000a900460ff1660038111156106f057fe5b8160038111156106fc57fe5b14151561070857600080fd5b60075442016008819055507f94306ecb3b8f13e878988b316e670b3a84f5b22fb40a6d534096390fdfd050ff60405160405180910390a150565b6002600960009054906101000a900460ff16600381111561075f57fe5b81600381111561076b57fe5b14151561077757600080fd5b600160009054906101000a900473ffffffffffffffffffffffffffffffffffffffff1673ffffffffffffffffffffffffffffffffffffffff163373ffffffffffffffffffffffffffffffffffffffff161415156107d357600080fd5b6107dc826113f3565b5050565b600060038111156107ed57fe5b600960009054906101000a900460ff16600381111561080857fe5b148061083957506001600381111561081c57fe5b600960009054906101000a900460ff16600381111561083757fe5b145b151561084457600080fd5b6006543414151561085457600080fd5b60003411156108d9577f8fe10ae416f22f5e5220b0018a6c1d4ff534d6aa3a471f2a20cb7747fe63e5b93334604051808373ffffffffffffffffffffffffffffffffffffffff1673ffffffffffffffffffffffffffffffffffffffff1681526020018281526020019250505060405180910390a1346003600082825401925050819055505b600060038111156108e657fe5b600960009054906101000a900460ff16600381111561090157fe5b141561094d5733600260006101000a81548173ffffffffffffffffffffffffffffffffffffffff021916908373ffffffffffffffffffffffffffffffffffffffff16021790555061098f565b33600160006101000a81548173ffffffffffffffffffffffffffffffffffffffff021916908373ffffffffffffffffffffffffffffffffffffffff1602179055505b6002600960006101000a81548160ff021916908360038111156109ae57fe5b02179055507f385d85909904c479680cfb49104dd25dd686a79a13b842e5ab5f1fab8fa0fb2a33604051808273ffffffffffffffffffffffffffffffffffffffff1673ffffffffffffffffffffffffffffffffffffffff16815260200191505060405180910390a16007544201600881905550565b6002600960009054906101000a900460ff166003811115610a4057fe5b816003811115610a4c57fe5b141515610a5857600080fd5b600160009054906101000a900473ffffffffffffffffffffffffffffffffffffffff1673ffffffffffffffffffffffffffffffffffffffff163373ffffffffffffffffffffffffffffffffffffffff16141515610ab457600080fd5b610abd82611517565b5050565b60008054600181600116156101000203166002900480601f016020809104026020016040519081016040528092919081815260200182805460018160011615610100020316600290048015610b575780601f10610b2c57610100808354040283529160200191610b57565b820191906000526020600020905b815481529060010190602001808311610b3a57829003601f168201915b505050505081565b600260009054906101000a900473ffffffffffffffffffffffffffffffffffffffff1681565b60045481565b60075481565b600160009054906101000a900473ffffffffffffffffffffffffffffffffffffffff1673ffffffffffffffffffffffffffffffffffffffff163373ffffffffffffffffffffffffffffffffffffffff16141515610bed57600080fd5b7f21dce665866130bddd42cadae51db6d5093826abb5e5309d67ab8589c7e92694816040518080602001828103825283818151815260200191508051906020019080838360005b83811015610c4f578082015181840152602081019050610c34565b50505050905090810190601f168015610c7c5780820380516001836020036101000a031916815260200191505b509250505060405180910390a150565b600260009054906101000a900473ffffffffffffffffffffffffffffffffffffffff1673ffffffffffffffffffffffffffffffffffffffff163373ffffffffffffffffffffffffffffffffffffffff16141515610ce857600080fd5b6002600960009054906101000a900460ff166003811115610d0557fe5b816003811115610d1157fe5b141515610d1d57600080fd5b6008544210151515610d2e57600080fd5b7fac0ca7228365809cfba9bd7a1549620db6e2c9a4176dae1d163edb0ade5d860660405160405180910390a1610d7a3073ffffffffffffffffffffffffffffffffffffffff16316113f3565b50565b600080600060606000806000806000806000600960009054906101000a900460ff16600160009054906101000a900473ffffffffffffffffffffffffffffffffffffffff16600260009054906101000a900473ffffffffffffffffffffffffffffffffffffffff1660003073ffffffffffffffffffffffffffffffffffffffff1631600654600354600454600554600754600854878054600181600116156101000203166002900480601f016020809104026020016040519081016040528092919081815260200182805460018160011615610100020316600290048015610ea65780601f10610e7b57610100808354040283529160200191610ea6565b820191906000526020600020905b815481529060010190602001808311610e8957829003601f168201915b505050505097509a509a509a509a509a509a509a509a509a509a509a50909192939495969798999a565b600160009054906101000a900473ffffffffffffffffffffffffffffffffffffffff1673ffffffffffffffffffffffffffffffffffffffff163373ffffffffffffffffffffffffffffffffffffffff161480610f795750600260009054906101000a900473ffffffffffffffffffffffffffffffffffffffff1673ffffffffffffffffffffffffffffffffffffffff163373ffffffffffffffffffffffffffffffffffffffff16145b1515610f8457600080fd5b600034111515610f9357600080fd5b7f8fe10ae416f22f5e5220b0018a6c1d4ff534d6aa3a471f2a20cb7747fe63e5b93334604051808373ffffffffffffffffffffffffffffffffffffffff1673ffffffffffffffffffffffffffffffffffffffff1681526020018281526020019250505060405180910390a13460036000828254019250508190555060038081111561101a57fe5b600960009054906101000a900460ff16600381111561103557fe5b141561108c576002600960006101000a81548160ff0219169083600381111561105a57fe5b02179055507f295a49ca32ac44ceb5c58aec886eeaf13b1a9cadee420af4c63ed7f1bc75b75b60405160405180910390a15b565b6000600381111561109b57fe5b600960009054906101000a900460ff1660038111156110b657fe5b141561111d57600160009054906101000a900473ffffffffffffffffffffffffffffffffffffffff1673ffffffffffffffffffffffffffffffffffffffff163373ffffffffffffffffffffffffffffffffffffffff1614151561111857600080fd5b6111b2565b6001600381111561112a57fe5b600960009054906101000a900460ff16600381111561114557fe5b14156111ac57600260009054906101000a900473ffffffffffffffffffffffffffffffffffffffff1673ffffffffffffffffffffffffffffffffffffffff163373ffffffffffffffffffffffffffffffffffffffff161415156111a757600080fd5b6111b1565b600080fd5b5b6001600260146101000a81548160ff0219169083151502179055507f8bc5aab0b8d1d51bcc031c58eb657027aac7eaa971cc1038d29846400ca22fc560405160405180910390a16000600381111561120657fe5b600960009054906101000a900460ff16600381111561122157fe5b141561126257600160009054906101000a900473ffffffffffffffffffffffffffffffffffffffff1673ffffffffffffffffffffffffffffffffffffffff16ff5b6001600381111561126f57fe5b600960009054906101000a900460ff16600381111561128a57fe5b14156112cb57600260009054906101000a900473ffffffffffffffffffffffffffffffffffffffff1673ffffffffffffffffffffffffffffffffffffffff16ff5b565b60085481565b600960009054906101000a900460ff1681565b60055481565b60065481565b600260009054906101000a900473ffffffffffffffffffffffffffffffffffffffff1673ffffffffffffffffffffffffffffffffffffffff163373ffffffffffffffffffffffffffffffffffffffff1614151561134e57600080fd5b7f337c87ca7e10f4ba0201da47ad3a16b990a1198718c55f51688d80da2a35cb75816040518080602001828103825283818151815260200191508051906020019080838360005b838110156113b0578082015181840152602081019050611395565b50505050905090810190601f1680156113dd5780820380516001836020036101000a031916815260200191505b509250505060405180910390a150565b60035481565b600260009054906101000a900473ffffffffffffffffffffffffffffffffffffffff1673ffffffffffffffffffffffffffffffffffffffff166108fc829081150290604051600060405180830381858888f1935050505015801561145b573d6000803e3d6000fd5b50806005600082825401925050819055507f952b264c8e0a06cddb4bbaa6d6af1d565145329fd95bbe72cb2b53942b2dc966816040518082815260200191505060405180910390a160003073ffffffffffffffffffffffffffffffffffffffff16311415611514576003600960006101000a81548160ff021916908360038111156114e257fe5b02179055507f1cdde67b72a90f19919ac732a437ac2f7a10fc128d28c2a6e525d89ce5cd9d3a60405160405180910390a15b50565b600073ffffffffffffffffffffffffffffffffffffffff166108fc829081150290604051600060405180830381858888f1935050505015801561155e573d6000803e3d6000fd5b50806004600082825401925050819055507fe2a0d56d128408deff6c63b30ce69c78024280bc67a251ee2bb096dc08ff1c1e816040518082815260200191505060405180910390a160003073ffffffffffffffffffffffffffffffffffffffff16311415611617576003600960006101000a81548160ff021916908360038111156115e557fe5b02179055507f1cdde67b72a90f19919ac732a437ac2f7a10fc128d28c2a6e525d89ce5cd9d3a60405160405180910390a15b505600a165627a7a723058208655de903174bbb24dedcc5bdc3b057c2f2278f4720ec0dfa18780629b2b707d0029",
  "source": "\n\n\n\n\n\n\n\n\n\n\n\n\n\n\n\n\n\n\n\n\n\n\n\n\n\n\n\n\n\n\n\n\n\n\ncontract BurnablePaymentFactory {\n    \n    \n    address[]public BPs;\n\n    event NewBurnablePayment(\n        address indexed bpAddress, \n        bool payerOpened, \n        address creator, \n        uint deposited, \n        uint commitThreshold, \n        uint autoreleaseInterval, \n        string title, \n        string initialStatement\n    );  \n\n    function newBP(bool payerOpened, address creator, uint commitThreshold, uint autoreleaseInterval, string title, string initialStatement)\n    public\n    payable\n    returns (address newBPAddr) \n    {\n        \n        newBPAddr = (new BurnablePayment).value(msg.value)(payerOpened, creator, commitThreshold, autoreleaseInterval, title, initialStatement);\n        NewBurnablePayment(newBPAddr, payerOpened, creator, msg.value, commitThreshold, autoreleaseInterval, title, initialStatement);\n\n        BPs.push(newBPAddr);\n\n        return newBPAddr;\n    }\n\n    function getBPCount()\n    public\n    constant\n    returns(uint) \n    {\n        return BPs.length;\n    }\n}\n\ncontract BurnablePayment {\n    \n    string public title;\n    \n    \n    address public payer;\n    address public worker;\n    address constant BURN_ADDRESS = 0x0;\n    \n    \n    bool recovered = false;\n\n    \n    uint public amountDeposited;\n    uint public amountBurned;\n    uint public amountReleased;\n\n    \n    uint public commitThreshold;\n\n    \n    uint public autoreleaseInterval;\n\n    \n    \n    \n    uint public autoreleaseTime;\n\n    \n    enum State {\n        PayerOpened,\n        WorkerOpened,\n        Committed,\n        Closed\n    }\n\n    \n    \n    State public state;\n\n    modifier inState(State s) {\n        require(s == state);\n        _;\n    }\n    modifier inOpenState() {\n        require(state == State.PayerOpened || state == State.WorkerOpened);\n        _;\n    }\n    modifier onlyPayer() {\n        require(msg.sender == payer);\n        _;\n    }\n    modifier onlyWorker() {\n        require(msg.sender == worker);\n        _;\n    }\n    modifier onlyPayerOrWorker() {\n        require((msg.sender == payer) || (msg.sender == worker));\n        _;\n    }\n    modifier onlyCreatorWhileOpen() {\n        if (state == State.PayerOpened) {\n            require(msg.sender == payer);\n        } else if (state == State.WorkerOpened) {\n            require(msg.sender == worker);\n        } else {\n            revert();        \n        }\n        _;\n    }\n\n    event Created(address indexed contractAddress, bool payerOpened, address creator, uint commitThreshold, uint autoreleaseInterval, string title);\n    event FundsAdded(address from, uint amount); \n    event PayerStatement(string statement);\n    event WorkerStatement(string statement);\n    event FundsRecovered();\n    event Committed(address committer);\n    event FundsBurned(uint amount);\n    event FundsReleased(uint amount);\n    event Closed();\n    event Unclosed();\n    event AutoreleaseDelayed();\n    event AutoreleaseTriggered();\n\n    function BurnablePayment(bool payerIsOpening, address creator, uint _commitThreshold, uint _autoreleaseInterval, string _title, string initialStatement)\n    public\n    payable \n    {\n        Created(this, payerIsOpening, creator, _commitThreshold, autoreleaseInterval, title);\n\n        if (msg.value > 0) {\n            \n            FundsAdded(tx.origin, msg.value);\n            amountDeposited += msg.value;\n        }\n        \n        title = _title;\n\n        if (payerIsOpening) {\n            state = State.PayerOpened;\n            payer = creator;\n        } else {\n            state = State.WorkerOpened;\n            worker = creator;\n        }\n\n        commitThreshold = _commitThreshold;\n        autoreleaseInterval = _autoreleaseInterval;\n\n        if (bytes(initialStatement).length > 0) {\n            if (payerIsOpening) {\n                PayerStatement(initialStatement);\n            } else {\n                WorkerStatement(initialStatement);              \n            }\n        }\n    }\n\n    function addFunds()\n    public\n    payable\n    onlyPayerOrWorker()\n    {\n        require(msg.value > 0);\n\n        FundsAdded(msg.sender, msg.value);\n        amountDeposited += msg.value;\n        if (state == State.Closed) {\n            state = State.Committed;\n            Unclosed();\n        }\n    }\n\n    function recoverFunds()\n    public\n    onlyCreatorWhileOpen()\n    {\n        recovered = true;\n        FundsRecovered();\n        \n        if (state == State.PayerOpened)\n            selfdestruct(payer);\n        else if (state == State.WorkerOpened)\n            selfdestruct(worker);\n    }\n\n    function commit()\n    public\n    inOpenState()\n    payable \n    {\n        require(msg.value == commitThreshold);\n\n        if (msg.value > 0) {\n            FundsAdded(msg.sender, msg.value);\n            amountDeposited += msg.value;\n        }\n\n        if (state == State.PayerOpened)\n            worker = msg.sender;\n        else\n            payer = msg.sender;\n        state = State.Committed;\n        \n        Committed(msg.sender);\n\n        autoreleaseTime = now + autoreleaseInterval;\n    }\n\n    function internalBurn(uint amount)\n    private \n    {\n        BURN_ADDRESS.transfer(amount);\n\n        amountBurned += amount;\n        FundsBurned(amount);\n\n        if (this.balance == 0) {\n            state = State.Closed;\n            Closed();\n        }\n    }\n\n    function burn(uint amount)\n    public\n    inState(State.Committed)\n    onlyPayer() \n    {\n        internalBurn(amount);\n    }\n\n    function internalRelease(uint amount)\n    private \n    {\n        worker.transfer(amount);\n\n        amountReleased += amount;\n        FundsReleased(amount);\n\n        if (this.balance == 0) {\n            state = State.Closed;\n            Closed();\n        }\n    }\n\n    function release(uint amount)\n    public\n    inState(State.Committed)\n    onlyPayer() \n    {\n        internalRelease(amount);\n    }\n\n    function logPayerStatement(string statement)\n    public\n    onlyPayer() \n    {\n        PayerStatement(statement);\n    }\n\n    function logWorkerStatement(string statement)\n    public\n    onlyWorker() \n    {\n        WorkerStatement(statement);\n    }\n\n    function delayAutorelease()\n    public\n    onlyPayer()\n    inState(State.Committed) \n    {\n        autoreleaseTime = now + autoreleaseInterval;\n        AutoreleaseDelayed();\n    }\n\n    function triggerAutorelease()\n    public\n    onlyWorker()\n    inState(State.Committed) \n    {\n        require(now >= autoreleaseTime);\n\n        AutoreleaseTriggered();\n        internalRelease(this.balance);\n    }\n    \n    function getFullState()\n    public\n    constant\n    returns(State, address, address, string, uint, uint, uint, uint, uint, uint, uint) {\n        return (state, payer, worker, title, this.balance, commitThreshold, amountDeposited, amountBurned, amountReleased, autoreleaseInterval, autoreleaseTime);\n    }\n}",
  "sourcePath": "/home/XXX-1/smartrim-experiment/for-rlf/0xa225ebe73347dd87492868332f9b746beb8499bb/contracts/0xa225ebe73347dd87492868332f9b746beb8499bb.sol",
  "compiler": {
    "name": "solc",
    "version": "0.4.25+commit.59dbf8f1.Emscripten.clang"
  },
  "schemaVersion": "3.4.16",
  "updatedAt": "2025-08-14T04:02:21.380Z",
  "devdoc": {
    "methods": {}
  },
  "userdoc": {
    "methods": {}
  }
}