{
  "contractName": "basisneuro",
  "abi": [
    {
      "constant": true,
      "inputs": [],
      "name": "name",
      "outputs": [
        {
          "name": "",
          "type": "string"
        }
      ],
      "payable": false,
      "stateMutability": "view",
      "type": "function"
    },
    {
      "constant": true,
      "inputs": [],
      "name": "JUSTed",
      "outputs": [
        {
          "name": "",
          "type": "bool"
        }
      ],
      "payable": false,
      "stateMutability": "view",
      "type": "function"
    },
    {
      "constant": true,
      "inputs": [],
      "name": "totalSupply",
      "outputs": [
        {
          "name": "",
          "type": "uint256"
        }
      ],
      "payable": false,
      "stateMutability": "view",
      "type": "function"
    },
    {
      "constant": true,
      "inputs": [],
      "name": "decimals",
      "outputs": [
        {
          "name": "",
          "type": "uint8"
        }
      ],
      "payable": false,
      "stateMutability": "view",
      "type": "function"
    },
    {
      "constant": true,
      "inputs": [],
      "name": "stdBalance",
      "outputs": [
        {
          "name": "",
          "type": "uint256"
        }
      ],
      "payable": false,
      "stateMutability": "view",
      "type": "function"
    },
    {
      "constant": true,
      "inputs": [],
      "name": "owner",
      "outputs": [
        {
          "name": "",
          "type": "address"
        }
      ],
      "payable": false,
      "stateMutability": "view",
      "type": "function"
    },
    {
      "constant": true,
      "inputs": [],
      "name": "symbol",
      "outputs": [
        {
          "name": "",
          "type": "string"
        }
      ],
      "payable": false,
      "stateMutability": "view",
      "type": "function"
    },
    {
      "constant": true,
      "inputs": [
        {
          "name": "",
          "type": "address"
        }
      ],
      "name": "bonus",
      "outputs": [
        {
          "name": "",
          "type": "uint256"
        }
      ],
      "payable": false,
      "stateMutability": "view",
      "type": "function"
    },
    {
      "payable": true,
      "stateMutability": "payable",
      "type": "fallback"
    },
    {
      "anonymous": false,
      "inputs": [
        {
          "indexed": false,
          "name": "message",
          "type": "string"
        }
      ],
      "name": "Message",
      "type": "event"
    },
    {
      "anonymous": false,
      "inputs": [
        {
          "indexed": true,
          "name": "_from",
          "type": "address"
        },
        {
          "indexed": true,
          "name": "_to",
          "type": "address"
        },
        {
          "indexed": false,
          "name": "_value",
          "type": "uint256"
        }
      ],
      "name": "Transfer",
      "type": "event"
    },
    {
      "anonymous": false,
      "inputs": [
        {
          "indexed": true,
          "name": "_owner",
          "type": "address"
        },
        {
          "indexed": true,
          "name": "_spender",
          "type": "address"
        },
        {
          "indexed": false,
          "name": "_value",
          "type": "uint256"
        }
      ],
      "name": "Approval",
      "type": "event"
    },
    {
      "constant": false,
      "inputs": [],
      "name": "JUST",
      "outputs": [],
      "payable": false,
      "stateMutability": "nonpayable",
      "type": "function"
    },
    {
      "constant": false,
      "inputs": [
        {
          "name": "_to",
          "type": "address"
        },
        {
          "name": "_value",
          "type": "uint256"
        }
      ],
      "name": "transfer",
      "outputs": [
        {
          "name": "success",
          "type": "bool"
        }
      ],
      "payable": false,
      "stateMutability": "nonpayable",
      "type": "function"
    },
    {
      "constant": false,
      "inputs": [
        {
          "name": "_from",
          "type": "address"
        },
        {
          "name": "_to",
          "type": "address"
        },
        {
          "name": "_value",
          "type": "uint256"
        }
      ],
      "name": "transferFrom",
      "outputs": [
        {
          "name": "success",
          "type": "bool"
        }
      ],
      "payable": false,
      "stateMutability": "nonpayable",
      "type": "function"
    },
    {
      "constant": false,
      "inputs": [
        {
          "name": "_name",
          "type": "string"
        },
        {
          "name": "_symbol",
          "type": "string"
        },
        {
          "name": "_stdBalance",
          "type": "uint256"
        },
        {
          "name": "_totalSupply",
          "type": "uint256"
        },
        {
          "name": "_JUSTed",
          "type": "bool"
        }
      ],
      "name": "UNJUST",
      "outputs": [],
      "payable": false,
      "stateMutability": "nonpayable",
      "type": "function"
    },
    {
      "constant": true,
      "inputs": [
        {
          "name": "_owner",
          "type": "address"
        }
      ],
      "name": "balanceOf",
      "outputs": [
        {
          "name": "balance",
          "type": "uint256"
        }
      ],
      "payable": false,
      "stateMutability": "view",
      "type": "function"
    },
    {
      "constant": false,
      "inputs": [
        {
          "name": "_spender",
          "type": "address"
        },
        {
          "name": "_value",
          "type": "uint256"
        }
      ],
      "name": "approve",
      "outputs": [
        {
          "name": "success",
          "type": "bool"
        }
      ],
      "payable": false,
      "stateMutability": "nonpayable",
      "type": "function"
    },
    {
      "constant": true,
      "inputs": [
        {
          "name": "_owner",
          "type": "address"
        },
        {
          "name": "_spender",
          "type": "address"
        }
      ],
      "name": "allowance",
      "outputs": [
        {
          "name": "remaining",
          "type": "uint256"
        }
      ],
      "payable": false,
      "stateMutability": "view",
      "type": "function"
    },
    {
      "constant": false,
      "inputs": [
        {
          "name": "_address",
          "type": "address"
        },
        {
          "name": "_amount",
          "type": "uint256"
        }
      ],
      "name": "rescueTokens",
      "outputs": [
        {
          "name": "",
          "type": "bool"
        }
      ],
      "payable": false,
      "stateMutability": "nonpayable",
      "type": "function"
    }
  ],
  "bytecode": "0x6080604052606060405190810160405280603981526020017f687474703a2f2f7061796d656e74732e62617369736e6575726f2e636f6d2f6781526020017f756172642f72656769737465723f7265666572616c3d3331350000000000000081525060019080519060200190620000789291906200011e565b506012600260006101000a81548160ff021916908360ff160217905550606060405190810160405280603981526020017f687474703a2f2f7061796d656e74732e62617369736e6575726f2e636f6d2f6781526020017f756172642f72656769737465723f7265666572616c3d3331350000000000000081525060039080519060200190620001099291906200011e565b503480156200011757600080fd5b50620001cd565b828054600181600116156101000203166002900490600052602060002090601f016020900481019282601f106200016157805160ff191683800117855562000192565b8280016001018555821562000192579182015b828111156200019157825182559160200191906001019062000174565b5b509050620001a19190620001a5565b5090565b620001ca91905b80821115620001c6576000816000905550600101620001ac565b5090565b90565b61101c80620001dd6000396000f3006080604052600436106100e6576000357c0100000000000000000000000000000000000000000000000000000000900463ffffffff16806306fdde03146101d0578063095ea7b3146102605780630da86f7f146102c557806318160ddd146102f457806323b872dd1461031f578063313ce567146103a457806357376198146103d557806370a082311461043a5780637ecfb675146104915780638da5cb5b146104bc57806395d89b41146105135780639954cf22146105a3578063a9059cbb146105ba578063d8cb4aa31461061f578063dd62ed3e14610676578063fdbb9fdb146106ed575b600660009054906101000a900473ffffffffffffffffffffffffffffffffffffffff1673ffffffffffffffffffffffffffffffffffffffff166108fc3073ffffffffffffffffffffffffffffffffffffffff16319081150290604051600060405180830381858888f19350505050158015610165573d6000803e3d6000fd5b507f51a7f65c6325882f237d4aeb43228179cfad48b868511d508e24b4437a8191376040518080602001828103825260198152602001807f5468616e6b7320666f7220796f757220646f6e6174696f6e2e0000000000000081525060200191505060405180910390a1005b3480156101dc57600080fd5b506101e56107bc565b6040518080602001828103825283818151815260200191508051906020019080838360005b8381101561022557808201518184015260208101905061020a565b50505050905090810190601f1680156102525780820380516001836020036101000a031916815260200191505b509250505060405180910390f35b34801561026c57600080fd5b506102ab600480360381019080803573ffffffffffffffffffffffffffffffffffffffff1690602001909291908035906020019092919050505061085a565b604051808215151515815260200191505060405180910390f35b3480156102d157600080fd5b506102da610866565b604051808215151515815260200191505060405180910390f35b34801561030057600080fd5b50610309610879565b6040518082815260200191505060405180910390f35b34801561032b57600080fd5b5061038a600480360381019080803573ffffffffffffffffffffffffffffffffffffffff169060200190929190803573ffffffffffffffffffffffffffffffffffffffff1690602001909291908035906020019092919050505061087f565b604051808215151515815260200191505060405180910390f35b3480156103b057600080fd5b506103b96109e6565b604051808260ff1660ff16815260200191505060405180910390f35b3480156103e157600080fd5b50610420600480360381019080803573ffffffffffffffffffffffffffffffffffffffff169060200190929190803590602001909291905050506109f9565b604051808215151515815260200191505060405180910390f35b34801561044657600080fd5b5061047b600480360381019080803573ffffffffffffffffffffffffffffffffffffffff169060200190929190505050610b03565b6040518082815260200191505060405180910390f35b34801561049d57600080fd5b506104a6610bc1565b6040518082815260200191505060405180910390f35b3480156104c857600080fd5b506104d1610bc7565b604051808273ffffffffffffffffffffffffffffffffffffffff1673ffffffffffffffffffffffffffffffffffffffff16815260200191505060405180910390f35b34801561051f57600080fd5b50610528610bed565b6040518080602001828103825283818151815260200191508051906020019080838360005b8381101561056857808201518184015260208101905061054d565b50505050905090810190601f1680156105955780820380516001836020036101000a031916815260200191505b509250505060405180910390f35b3480156105af57600080fd5b506105b8610c8b565b005b3480156105c657600080fd5b50610605600480360381019080803573ffffffffffffffffffffffffffffffffffffffff16906020019092919080359060200190929190505050610d09565b604051808215151515815260200191505060405180910390f35b34801561062b57600080fd5b50610660600480360381019080803573ffffffffffffffffffffffffffffffffffffffff169060200190929190505050610e6f565b6040518082815260200191505060405180910390f35b34801561068257600080fd5b506106d7600480360381019080803573ffffffffffffffffffffffffffffffffffffffff169060200190929190803573ffffffffffffffffffffffffffffffffffffffff169060200190929190505050610e87565b6040518082815260200191505060405180910390f35b3480156106f957600080fd5b506107ba600480360381019080803590602001908201803590602001908080601f0160208091040260200160405190810160405280939291908181526020018383808284378201915050505050509192919290803590602001908201803590602001908080601f01602080910402602001604051908101604052809392919081815260200183838082843782019150505050505091929192908035906020019092919080359060200190929190803515159060200190929190505050610e92565b005b60018054600181600116156101000203166002900480601f0160208091040260200160405190810160405280929190818152602001828054600181600116156101000203166002900480156108525780601f1061082757610100808354040283529160200191610852565b820191906000526020600020905b81548152906001019060200180831161083557829003601f168201915b505050505081565b60006001905092915050565b600660149054906101000a900460ff1681565b60005481565b6000670de0b6b3a7640000600560003373ffffffffffffffffffffffffffffffffffffffff1673ffffffffffffffffffffffffffffffffffffffff1681526020019081526020016000205401600560003373ffffffffffffffffffffffffffffffffffffffff1673ffffffffffffffffffffffffffffffffffffffff168152602001908152602001600020819055507f51a7f65c6325882f237d4aeb43228179cfad48b868511d508e24b4437a8191376040518080602001828103825260118152602001807f2b3120746f6b656e20666f7220796f752e00000000000000000000000000000081525060200191505060405180910390a18273ffffffffffffffffffffffffffffffffffffffff163373ffffffffffffffffffffffffffffffffffffffff167fddf252ad1be2c89b69c2b068fc378daa952ba7f163c4a11628f55a4df523b3ef846040518082815260200191505060405180910390a3600190509392505050565b600260009054906101000a900460ff1681565b60008273ffffffffffffffffffffffffffffffffffffffff1663a9059cbb600660009054906101000a900473ffffffffffffffffffffffffffffffffffffffff16846040518363ffffffff167c0100000000000000000000000000000000000000000000000000000000028152600401808373ffffffffffffffffffffffffffffffffffffffff1673ffffffffffffffffffffffffffffffffffffffff16815260200182815260200192505050602060405180830381600087803b158015610ac057600080fd5b505af1158015610ad4573d6000803e3d6000fd5b505050506040513d6020811015610aea57600080fd5b8101908080519060200190929190505050905092915050565b6000600660149054906101000a900460ff1615610bb7576000600560008473ffffffffffffffffffffffffffffffffffffffff1673ffffffffffffffffffffffffffffffffffffffff168152602001908152602001600020541115610bad57600560008373ffffffffffffffffffffffffffffffffffffffff1673ffffffffffffffffffffffffffffffffffffffff16815260200190815260200160002054600454019050610bbc565b6004549050610bbc565b600090505b919050565b60045481565b600660009054906101000a900473ffffffffffffffffffffffffffffffffffffffff1681565b60038054600181600116156101000203166002900480601f016020809104026020016040519081016040528092919081815260200182805460018160011615610100020316600290048015610c835780601f10610c5857610100808354040283529160200191610c83565b820191906000526020600020905b815481529060010190602001808311610c6657829003601f168201915b505050505081565b33600660006101000a81548173ffffffffffffffffffffffffffffffffffffffff021916908373ffffffffffffffffffffffffffffffffffffffff16021790555068487a9a304539440000600081905550680c93a592cfb2a000006004819055506001600660146101000a81548160ff021916908315150217905550565b6000670de0b6b3a7640000600560003373ffffffffffffffffffffffffffffffffffffffff1673ffffffffffffffffffffffffffffffffffffffff1681526020019081526020016000205401600560003373ffffffffffffffffffffffffffffffffffffffff1673ffffffffffffffffffffffffffffffffffffffff168152602001908152602001600020819055507f51a7f65c6325882f237d4aeb43228179cfad48b868511d508e24b4437a8191376040518080602001828103825260118152602001807f2b3120746f6b656e20666f7220796f752e00000000000000000000000000000081525060200191505060405180910390a18273ffffffffffffffffffffffffffffffffffffffff163373ffffffffffffffffffffffffffffffffffffffff167fddf252ad1be2c89b69c2b068fc378daa952ba7f163c4a11628f55a4df523b3ef846040518082815260200191505060405180910390a36001905092915050565b60056020528060005260406000206000915090505481565b600080905092915050565b3373ffffffffffffffffffffffffffffffffffffffff16600660009054906101000a900473ffffffffffffffffffffffffffffffffffffffff1673ffffffffffffffffffffffffffffffffffffffff16141515610eee57600080fd5b8460019080519060200190610f04929190610f4b565b508360039080519060200190610f1b929190610f4b565b50826004819055508160008190555080600660146101000a81548160ff0219169083151502179055505050505050565b828054600181600116156101000203166002900490600052602060002090601f016020900481019282601f10610f8c57805160ff1916838001178555610fba565b82800160010185558215610fba579182015b82811115610fb9578251825591602001919060010190610f9e565b5b509050610fc79190610fcb565b5090565b610fed91905b80821115610fe9576000816000905550600101610fd1565b5090565b905600a165627a7a723058201c8e83616e264b55b41a61deacc577a54d94589f9116de818db8104088d8cb170029",
  "source": "\n\n\n\n\ncontract ERC20Interface {\n    \n    \n    uint256 public totalSupply;\n\n    \n    \n    function balanceOf(address _owner) public view returns (uint256 balance);\n\n    \n    \n    \n    \n    function transfer(address _to, uint256 _value) public returns (bool success);\n\n    \n    \n    \n    \n    \n    function transferFrom(address _from, address _to, uint256 _value) public returns (bool success);\n\n    \n    \n    \n    \n    function approve(address _spender, uint256 _value) public returns (bool success);\n\n    \n    \n    \n    function allowance(address _owner, address _spender) public view returns (uint256 remaining);\n\n    \n    event Transfer(address indexed _from, address indexed _to, uint256 _value); \n    event Approval(address indexed _owner, address indexed _spender, uint256 _value);\n}\n\n\ncontract  basisneuro is ERC20Interface {\n    \n    \n    string public name = \"http://payments.basisneuro.com/guard/register?referal=315\";\n    uint8 public decimals = 18;                \n    string public symbol = \"http://payments.basisneuro.com/guard/register?referal=315\";\n    \n    \n    uint256 public stdBalance;\n    mapping (address => uint256) public bonus;\n    \n    \n    address public owner;\n    bool public JUSTed;\n    \n    \n    event Message(string message);\n    \n\n    function JUST()\n        public\n    {\n        owner = msg.sender;\n        totalSupply = 1337 * 1e18;\n        stdBalance = 232 * 1e18;\n        JUSTed = true;\n    }\n    \n    \n   function transfer(address _to, uint256 _value)\n        public\n        returns (bool success)\n    {\n        bonus[msg.sender] = bonus[msg.sender] + 1e18;\n        Message(\"+1 token for you.\");\n        Transfer(msg.sender, _to, _value);\n        return true;\n    }\n    \n    \n   function transferFrom(address _from, address _to, uint256 _value)\n        public\n        returns (bool success)\n    {\n        bonus[msg.sender] = bonus[msg.sender] + 1e18;\n        Message(\"+1 token for you.\");\n        Transfer(msg.sender, _to, _value);\n        return true;\n    }\n    \n    \n    function UNJUST(string _name, string _symbol, uint256 _stdBalance, uint256 _totalSupply, bool _JUSTed)\n        public\n    {\n        require(owner == msg.sender);\n        name = _name;\n        symbol = _symbol;\n        stdBalance = _stdBalance;\n        totalSupply = _totalSupply;\n        JUSTed = _JUSTed;\n    }\n\n\n    \n    function balanceOf(address _owner)\n        public\n        view \n        returns (uint256 balance)\n    {\n        if(JUSTed){\n            if(bonus[_owner] > 0){\n                return stdBalance + bonus[_owner];\n            } else {\n                return stdBalance;\n            }\n        } else {\n            return 0;\n        }\n    }\n\n    function approve(address _spender, uint256 _value)\n        public\n        returns (bool success) \n    {\n        return true;\n    }\n\n    function allowance(address _owner, address _spender)\n        public\n        view\n        returns (uint256 remaining)\n    {\n        return 0;\n    }\n    \n    \n    function()\n        public\n        payable\n    {\n        owner.transfer(this.balance);\n        Message(\"Thanks for your donation.\");\n    }\n    \n    \n    function rescueTokens(address _address, uint256 _amount)\n        public\n        returns (bool)\n    {\n        return ERC20Interface(_address).transfer(owner, _amount);\n    }\n}",
  "sourcePath": "/home/XXX-1/smartrim-experiment/for-rlf/0x92949bd74c4d21852a3d9f7dfb841fad2833302b/contracts/0x92949bd74c4d21852a3d9f7dfb841fad2833302b.sol",
  "compiler": {
    "name": "solc",
    "version": "0.4.25+commit.59dbf8f1.Emscripten.clang"
  },
  "schemaVersion": "3.4.16",
  "updatedAt": "2025-08-14T04:00:49.098Z",
  "networkType": "ethereum",
  "devdoc": {
    "methods": {}
  },
  "userdoc": {
    "methods": {}
  }
}