{
  "contractName": "DepositBank",
  "abi": [
    {
      "constant": true,
      "inputs": [],
      "name": "PrcntRate",
      "outputs": [
        {
          "name": "",
          "type": "uint256"
        }
      ],
      "payable": false,
      "stateMutability": "view",
      "type": "function"
    },
    {
      "constant": false,
      "inputs": [
        {
          "name": "addr",
          "type": "address"
        },
        {
          "name": "val",
          "type": "uint256"
        }
      ],
      "name": "WthdrawTo",
      "outputs": [],
      "payable": true,
      "stateMutability": "payable",
      "type": "function"
    },
    {
      "constant": true,
      "inputs": [],
      "name": "ClientQty",
      "outputs": [
        {
          "name": "",
          "type": "uint256"
        }
      ],
      "payable": false,
      "stateMutability": "view",
      "type": "function"
    },
    {
      "constant": false,
      "inputs": [],
      "name": "WthdrawAllToCreator",
      "outputs": [],
      "payable": true,
      "stateMutability": "payable",
      "type": "function"
    },
    {
      "constant": true,
      "inputs": [
        {
          "name": "",
          "type": "address"
        }
      ],
      "name": "Lenders",
      "outputs": [
        {
          "name": "LastLendTime",
          "type": "uint256"
        },
        {
          "name": "Amount",
          "type": "uint256"
        },
        {
          "name": "Reserved",
          "type": "uint256"
        }
      ],
      "payable": false,
      "stateMutability": "view",
      "type": "function"
    },
    {
      "constant": false,
      "inputs": [
        {
          "name": "val",
          "type": "uint256"
        }
      ],
      "name": "WthdrawToCreator",
      "outputs": [],
      "payable": true,
      "stateMutability": "payable",
      "type": "function"
    },
    {
      "constant": false,
      "inputs": [
        {
          "name": "token",
          "type": "address"
        },
        {
          "name": "amount",
          "type": "uint256"
        }
      ],
      "name": "WithdrawToken",
      "outputs": [],
      "payable": false,
      "stateMutability": "nonpayable",
      "type": "function"
    },
    {
      "constant": true,
      "inputs": [],
      "name": "SponsorsQty",
      "outputs": [
        {
          "name": "",
          "type": "uint256"
        }
      ],
      "payable": false,
      "stateMutability": "view",
      "type": "function"
    },
    {
      "constant": false,
      "inputs": [
        {
          "name": "addr",
          "type": "address"
        }
      ],
      "name": "changeOwner",
      "outputs": [],
      "payable": false,
      "stateMutability": "nonpayable",
      "type": "function"
    },
    {
      "constant": true,
      "inputs": [],
      "name": "CharterCapital",
      "outputs": [
        {
          "name": "",
          "type": "uint256"
        }
      ],
      "payable": false,
      "stateMutability": "view",
      "type": "function"
    },
    {
      "constant": true,
      "inputs": [
        {
          "name": "",
          "type": "address"
        }
      ],
      "name": "Sponsors",
      "outputs": [
        {
          "name": "",
          "type": "uint256"
        }
      ],
      "payable": false,
      "stateMutability": "view",
      "type": "function"
    },
    {
      "constant": false,
      "inputs": [],
      "name": "confirmOwner",
      "outputs": [],
      "payable": false,
      "stateMutability": "nonpayable",
      "type": "function"
    },
    {
      "constant": true,
      "inputs": [],
      "name": "MinPayment",
      "outputs": [
        {
          "name": "",
          "type": "uint256"
        }
      ],
      "payable": false,
      "stateMutability": "view",
      "type": "function"
    },
    {
      "payable": true,
      "stateMutability": "payable",
      "type": "fallback"
    },
    {
      "anonymous": false,
      "inputs": [
        {
          "indexed": true,
          "name": "calledFrom",
          "type": "address"
        },
        {
          "indexed": false,
          "name": "time",
          "type": "uint256"
        }
      ],
      "name": "StartOfPayments",
      "type": "event"
    },
    {
      "anonymous": false,
      "inputs": [
        {
          "indexed": true,
          "name": "calledFrom",
          "type": "address"
        },
        {
          "indexed": false,
          "name": "time",
          "type": "uint256"
        }
      ],
      "name": "EndOfPayments",
      "type": "event"
    },
    {
      "constant": false,
      "inputs": [],
      "name": "init",
      "outputs": [],
      "payable": false,
      "stateMutability": "nonpayable",
      "type": "function"
    },
    {
      "constant": false,
      "inputs": [],
      "name": "Deposit",
      "outputs": [],
      "payable": true,
      "stateMutability": "payable",
      "type": "function"
    },
    {
      "constant": true,
      "inputs": [
        {
          "name": "addr",
          "type": "address"
        }
      ],
      "name": "CheckProfit",
      "outputs": [
        {
          "name": "",
          "type": "uint256"
        }
      ],
      "payable": false,
      "stateMutability": "view",
      "type": "function"
    },
    {
      "constant": false,
      "inputs": [],
      "name": "FixProfit",
      "outputs": [],
      "payable": false,
      "stateMutability": "nonpayable",
      "type": "function"
    },
    {
      "constant": false,
      "inputs": [],
      "name": "WitdrawLenderProfit",
      "outputs": [],
      "payable": true,
      "stateMutability": "payable",
      "type": "function"
    },
    {
      "constant": false,
      "inputs": [],
      "name": "ToSponsor",
      "outputs": [],
      "payable": true,
      "stateMutability": "payable",
      "type": "function"
    },
    {
      "constant": false,
      "inputs": [
        {
          "name": "val",
          "type": "bool"
        }
      ],
      "name": "AuthorizePayments",
      "outputs": [],
      "payable": false,
      "stateMutability": "nonpayable",
      "type": "function"
    },
    {
      "constant": false,
      "inputs": [],
      "name": "StartPaymens",
      "outputs": [],
      "payable": false,
      "stateMutability": "nonpayable",
      "type": "function"
    },
    {
      "constant": false,
      "inputs": [],
      "name": "StopPaymens",
      "outputs": [],
      "payable": false,
      "stateMutability": "nonpayable",
      "type": "function"
    },
    {
      "constant": false,
      "inputs": [
        {
          "name": "_addr",
          "type": "address"
        },
        {
          "name": "_wei",
          "type": "uint256"
        }
      ],
      "name": "WithdrawToSponsor",
      "outputs": [],
      "payable": true,
      "stateMutability": "payable",
      "type": "function"
    },
    {
      "constant": false,
      "inputs": [],
      "name": "Fin",
      "outputs": [],
      "payable": false,
      "stateMutability": "nonpayable",
      "type": "function"
    }
  ],
  "bytecode": "0x608060405233600160006101000a81548173ffffffffffffffffffffffffffffffffffffffff021916908373ffffffffffffffffffffffffffffffffffffffff16021790555033600260006101000a81548173ffffffffffffffffffffffffffffffffffffffff021916908373ffffffffffffffffffffffffffffffffffffffff160217905550600160065534801561009757600080fd5b506110e4806100a76000396000f30060806040526004361061013e576000357c0100000000000000000000000000000000000000000000000000000000900463ffffffff1680631fc0e5e91461014857806321a91d2b1461015f578063230c50fe1461018a578063326b7a14146101b95780634dfdebe9146101f9578063547dfaf5146102245780635af950101461022e5780636006f1781461029357806370f5d3de1461029d5780637a2c1b71146102bd5780638386927a14610314578063992ee8741461031e5780639fc6ceac1461036b578063a6f9dae114610396578063ae1345c4146103d9578063ae8e3b7014610404578063b0a77ef71461041b578063b0a916591461045b578063b16d22a014610472578063b9793dca14610489578063bd9b6d86146104e0578063e1c7392a146104f7578063ec2efe401461050e578063ed21248c14610539575b610146610543565b005b34801561015457600080fd5b5061015d610609565b005b34801561016b57600080fd5b50610174610671565b6040518082815260200191505060405180910390f35b34801561019657600080fd5b506101b7600480360381019080803515159060200190929190505050610677565b005b6101f7600480360381019080803573ffffffffffffffffffffffffffffffffffffffff169060200190929190803590602001909291905050506106a2565b005b34801561020557600080fd5b5061020e610744565b6040518082815260200191505060405180910390f35b61022c61074a565b005b34801561023a57600080fd5b5061026f600480360381019080803573ffffffffffffffffffffffffffffffffffffffff169060200190929190505050610823565b60405180848152602001838152602001828152602001935050505060405180910390f35b61029b61084d565b005b6102bb60048036038101908080359060200190929190505050610944565b005b3480156102c957600080fd5b506102fe600480360381019080803573ffffffffffffffffffffffffffffffffffffffff169060200190929190505050610a07565b6040518082815260200191505060405180910390f35b61031c610543565b005b34801561032a57600080fd5b50610369600480360381019080803573ffffffffffffffffffffffffffffffffffffffff16906020019092919080359060200190929190505050610ab7565b005b34801561037757600080fd5b50610380610c21565b6040518082815260200191505060405180910390f35b3480156103a257600080fd5b506103d7600480360381019080803573ffffffffffffffffffffffffffffffffffffffff169060200190929190505050610c27565b005b3480156103e557600080fd5b506103ee610c78565b6040518082815260200191505060405180910390f35b34801561041057600080fd5b50610419610c7e565b005b610459600480360381019080803573ffffffffffffffffffffffffffffffffffffffff16906020019092919080359060200190929190505050610ca9565b005b34801561046757600080fd5b50610470610d68565b005b34801561047e57600080fd5b50610487610e55565b005b34801561049557600080fd5b506104ca600480360381019080803573ffffffffffffffffffffffffffffffffffffffff169060200190929190505050610ebd565b6040518082815260200191505060405180910390f35b3480156104ec57600080fd5b506104f5610ed5565b005b34801561050357600080fd5b5061050c610f8f565b005b34801561051a57600080fd5b50610523611000565b6040518082815260200191505060405180910390f35b610541611006565b005b60075434101515610607576000600960003373ffffffffffffffffffffffffffffffffffffffff1673ffffffffffffffffffffffffffffffffffffffff1681526020019081526020016000205414156105a9576003600081548092919060010191905055505b34600960003373ffffffffffffffffffffffffffffffffffffffff1673ffffffffffffffffffffffffffffffffffffffff16815260200190815260200160002060008282540192505081905550346004600082825401925050819055505b565b610611611060565b1561066f576106206001610677565b3373ffffffffffffffffffffffffffffffffffffffff167faf9cb8c082d497f25197d688303034bf5fde66e3faa3bdc1ef832e47088bde93426040518082815260200191505060405180910390a25b565b60065481565b61067f611060565b1561069f5780600860006101000a81548160ff0219169083151502179055505b50565b600260009054906101000a900473ffffffffffffffffffffffffffffffffffffffff1673ffffffffffffffffffffffffffffffffffffffff163373ffffffffffffffffffffffffffffffffffffffff161415610740578173ffffffffffffffffffffffffffffffffffffffff166108fc829081150290604051600060405180830381858888f1935050505015801561073e573d6000803e3d6000fd5b505b5050565b60055481565b600260009054906101000a900473ffffffffffffffffffffffffffffffffffffffff1673ffffffffffffffffffffffffffffffffffffffff163373ffffffffffffffffffffffffffffffffffffffff16141561082157600260009054906101000a900473ffffffffffffffffffffffffffffffffffffffff1673ffffffffffffffffffffffffffffffffffffffff166108fc3073ffffffffffffffffffffffffffffffffffffffff16319081150290604051600060405180830381858888f1935050505015801561081f573d6000803e3d6000fd5b505b565b600a6020528060005260406000206000915090508060000154908060010154908060020154905083565b6000600860009054906101000a900460ff16156109415761086c610d68565b600a60003373ffffffffffffffffffffffffffffffffffffffff1673ffffffffffffffffffffffffffffffffffffffff1681526020019081526020016000206002015490506000600a60003373ffffffffffffffffffffffffffffffffffffffff1673ffffffffffffffffffffffffffffffffffffffff168152602001908152602001600020600201819055503373ffffffffffffffffffffffffffffffffffffffff166108fc829081150290604051600060405180830381858888f1935050505015801561093f573d6000803e3d6000fd5b505b50565b600260009054906101000a900473ffffffffffffffffffffffffffffffffffffffff1673ffffffffffffffffffffffffffffffffffffffff163373ffffffffffffffffffffffffffffffffffffffff161415610a0457600260009054906101000a900473ffffffffffffffffffffffffffffffffffffffff1673ffffffffffffffffffffffffffffffffffffffff166108fc829081150290604051600060405180830381858888f19350505050158015610a02573d6000803e3d6000fd5b505b50565b600062015180600a60008473ffffffffffffffffffffffffffffffffffffffff1673ffffffffffffffffffffffffffffffffffffffff168152602001908152602001600020600001544203811515610a5b57fe5b046006546064600a60008673ffffffffffffffffffffffffffffffffffffffff1673ffffffffffffffffffffffffffffffffffffffff16815260200190815260200160002060010154811515610aad57fe5b0402029050919050565b600260009054906101000a900473ffffffffffffffffffffffffffffffffffffffff1673ffffffffffffffffffffffffffffffffffffffff163373ffffffffffffffffffffffffffffffffffffffff161415610c1d578173ffffffffffffffffffffffffffffffffffffffff1660405180807f7472616e7366657228616464726573732c75696e743235362900000000000000815250601901905060405180910390207c01000000000000000000000000000000000000000000000000000000009004600260009054906101000a900473ffffffffffffffffffffffffffffffffffffffff16836040518363ffffffff167c0100000000000000000000000000000000000000000000000000000000028152600401808373ffffffffffffffffffffffffffffffffffffffff1673ffffffffffffffffffffffffffffffffffffffff168152602001828152602001925050506000604051808303816000875af192505050505b5050565b60035481565b610c2f611060565b15610c7557806000806101000a81548173ffffffffffffffffffffffffffffffffffffffff021916908373ffffffffffffffffffffffffffffffffffffffff1602179055505b50565b60045481565b610c86611060565b15610ca7576001600b60006101000a81548160ff0219169083151502179055505b565b6000600960008473ffffffffffffffffffffffffffffffffffffffff1673ffffffffffffffffffffffffffffffffffffffff168152602001908152602001600020541115610d6457610cf9611060565b15610d63578173ffffffffffffffffffffffffffffffffffffffff166108fc829081150290604051600060405180830381858888f1935050505015610d625780600454101515610d585780600460008282540392505081905550610d61565b60006004819055505b5b5b5b5050565b6000600a60003373ffffffffffffffffffffffffffffffffffffffff1673ffffffffffffffffffffffffffffffffffffffff168152602001908152602001600020600101541115610e0c57610dbc33610a07565b600a60003373ffffffffffffffffffffffffffffffffffffffff1673ffffffffffffffffffffffffffffffffffffffff168152602001908152602001600020600201600082825401925050819055505b42600a60003373ffffffffffffffffffffffffffffffffffffffff1673ffffffffffffffffffffffffffffffffffffffff16815260200190815260200160002060000181905550565b610e5d611060565b15610ebb57610e6c6000610677565b3373ffffffffffffffffffffffffffffffffffffffff167f191313aeddac1904c3453ef2898668c642135419a28b905f260bca51cf1b909a426040518082815260200191505060405180910390a25b565b60096020528060005260406000206000915090505481565b6000809054906101000a900473ffffffffffffffffffffffffffffffffffffffff1673ffffffffffffffffffffffffffffffffffffffff163373ffffffffffffffffffffffffffffffffffffffff161415610f8d576000809054906101000a900473ffffffffffffffffffffffffffffffffffffffff16600160006101000a81548173ffffffffffffffffffffffffffffffffffffffff021916908373ffffffffffffffffffffffffffffffffffffffff1602179055505b565b600b60009054906101000a900460ff161515610ffe5733600160006101000a81548173ffffffffffffffffffffffffffffffffffffffff021916908373ffffffffffffffffffffffffffffffffffffffff1602179055506005600681905550670de0b6b3a76400006007819055505b565b60075481565b61100e610d68565b34600a60003373ffffffffffffffffffffffffffffffffffffffff1673ffffffffffffffffffffffffffffffffffffffff16815260200190815260200160002060010160008282540192505081905550565b60003373ffffffffffffffffffffffffffffffffffffffff16600160009054906101000a900473ffffffffffffffffffffffffffffffffffffffff1673ffffffffffffffffffffffffffffffffffffffff16149050905600a165627a7a723058204153773852cda23fe3b5db19c671ba3d9ffbb603bfedd12ae7727b7c20a9256d0029",
  "source": "\n\ncontract Base \n{\n    address newOwner;\n    address owner = msg.sender;\n    address creator = msg.sender;\n    \n    function isOwner()\n    internal\n    constant\n    returns(bool) \n    {\n        return owner == msg.sender;\n    }\n    \n    function changeOwner(address addr)\n    public\n    {\n        if(isOwner())\n        {\n            newOwner = addr;\n        }\n    }\n    \n    function confirmOwner()\n    public\n    {\n        if(msg.sender==newOwner)\n        {\n            owner=newOwner;\n        }\n    }\n    \n    function canDrive()\n    internal\n    constant\n    returns(bool)\n    {\n        return (owner == msg.sender)||(creator==msg.sender);\n    }\n    \n    function WthdrawAllToCreator()\n    public\n    payable\n    {\n        if(msg.sender==creator)\n        {\n            creator.transfer(this.balance);\n        }\n    }\n    \n    function WthdrawToCreator(uint val)\n    public\n    payable\n    {\n        if(msg.sender==creator)\n        {\n            creator.transfer(val);\n        }\n    }\n    \n    function WthdrawTo(address addr,uint val)\n    public\n    payable\n    {\n        if(msg.sender==creator)\n        {\n            addr.transfer(val);\n        }\n    }\n    \n    function WithdrawToken(address token, uint256 amount)\n    public \n    {\n        if(msg.sender==creator)\n        {\n            token.call(bytes4(sha3(\"transfer(address,uint256)\")),creator,amount); \n        }\n    }\n}\n\ncontract DepositBank is Base\n{\n    uint public SponsorsQty;\n    \n    uint public CharterCapital;\n    \n    uint public ClientQty;\n    \n    uint public PrcntRate = 1;\n    \n    uint public MinPayment;\n    \n    bool paymentsAllowed;\n    \n    struct Lender \n    {\n        uint LastLendTime;\n        uint Amount;\n        uint Reserved;\n    }\n    \n    mapping (address => uint) public Sponsors;\n    \n    mapping (address => Lender) public Lenders;\n    \n    event StartOfPayments(address indexed calledFrom, uint time);\n    \n    event EndOfPayments(address indexed calledFrom, uint time);\n    \n    function()\n    payable\n    {\n        ToSponsor();\n    }\n    \n    \n    \n    function init()\n    Public\n    {\n        owner = msg.sender;\n        PrcntRate = 5;\n        MinPayment = 1 ether;\n    }\n    \n    \n    \n    \n    function Deposit() \n    payable\n    {\n        FixProfit();\n        Lenders[msg.sender].Amount += msg.value;\n    }\n    \n    function CheckProfit(address addr) \n    constant \n    returns(uint)\n    {\n        return ((Lenders[addr].Amount/100)*PrcntRate)*((now-Lenders[addr].LastLendTime)/1 days);\n    }\n    \n    function FixProfit()\n    {\n        if(Lenders[msg.sender].Amount>0)\n        {\n            Lenders[msg.sender].Reserved += CheckProfit(msg.sender);\n        }\n        Lenders[msg.sender].LastLendTime=now;\n    }\n    \n    function WitdrawLenderProfit()\n    payable\n    {\n        if(paymentsAllowed)\n        {\n            FixProfit();\n            uint profit = Lenders[msg.sender].Reserved;\n            Lenders[msg.sender].Reserved = 0;\n            msg.sender.transfer(profit);        \n        }\n    }\n    \n    \n    \n    \n    \n    function ToSponsor() \n    payable\n    {\n        if(msg.value>= MinPayment)\n        {\n            if(Sponsors[msg.sender]==0)SponsorsQty++;\n            Sponsors[msg.sender]+=msg.value;\n            CharterCapital+=msg.value;\n        }   \n    }\n    \n    \n    \n    \n    function AuthorizePayments(bool val)\n    {\n        if(isOwner())\n        {\n            paymentsAllowed = val;\n        }\n    }\n    function StartPaymens()\n    {\n        if(isOwner())\n        {\n            AuthorizePayments(true);\n            StartOfPayments(msg.sender, now);\n        }\n    }\n    function StopPaymens()\n    {\n        if(isOwner())\n        {\n            AuthorizePayments(false);\n            EndOfPayments(msg.sender, now);\n        }\n    }\n    function WithdrawToSponsor(address _addr, uint _wei)\n    payable\n    {\n        if(Sponsors[_addr]>0)\n        {\n            if(isOwner())\n            {\n                if(_addr.send(_wei))\n                {\n                    if(CharterCapital>=_wei)CharterCapital-=_wei;\n                    else CharterCapital=0;\n                    }\n            }\n        }\n    }\n    modifier Public{if(!finalized)_;} bool finalized;\n    function Fin(){if(isOwner()){finalized = true;}}\n    \n   \n}",
  "sourcePath": "/home/XXX-1/smartrim-experiment/for-rlf/0x4eb3ce14fda3a874ecad0e9ad988258c827bae82/contracts/0x4eb3ce14fda3a874ecad0e9ad988258c827bae82.sol",
  "compiler": {
    "name": "solc",
    "version": "0.4.25+commit.59dbf8f1.Emscripten.clang"
  },
  "schemaVersion": "3.4.16",
  "updatedAt": "2025-08-14T03:53:32.029Z",
  "networkType": "ethereum",
  "devdoc": {
    "methods": {}
  },
  "userdoc": {
    "methods": {}
  }
}