{
  "contractName": "ExorbuxKing",
  "abi": [
    {
      "constant": true,
      "inputs": [],
      "name": "maxMessageChars",
      "outputs": [
        {
          "name": "",
          "type": "uint256"
        }
      ],
      "payable": false,
      "stateMutability": "view",
      "type": "function"
    },
    {
      "constant": true,
      "inputs": [],
      "name": "nextBidExpireBlockLength",
      "outputs": [
        {
          "name": "",
          "type": "uint256"
        }
      ],
      "payable": false,
      "stateMutability": "view",
      "type": "function"
    },
    {
      "constant": true,
      "inputs": [],
      "name": "bidExpireBlockLength",
      "outputs": [
        {
          "name": "",
          "type": "uint256"
        }
      ],
      "payable": false,
      "stateMutability": "view",
      "type": "function"
    },
    {
      "constant": true,
      "inputs": [],
      "name": "currentBidNumber",
      "outputs": [
        {
          "name": "",
          "type": "uint256"
        }
      ],
      "payable": false,
      "stateMutability": "view",
      "type": "function"
    },
    {
      "constant": true,
      "inputs": [],
      "name": "devFeePercent",
      "outputs": [
        {
          "name": "",
          "type": "uint256"
        }
      ],
      "payable": false,
      "stateMutability": "view",
      "type": "function"
    },
    {
      "constant": true,
      "inputs": [],
      "name": "lastBidBlock",
      "outputs": [
        {
          "name": "",
          "type": "uint256"
        }
      ],
      "payable": false,
      "stateMutability": "view",
      "type": "function"
    },
    {
      "constant": true,
      "inputs": [],
      "name": "rolloverPercent",
      "outputs": [
        {
          "name": "",
          "type": "uint256"
        }
      ],
      "payable": false,
      "stateMutability": "view",
      "type": "function"
    },
    {
      "constant": true,
      "inputs": [],
      "name": "owner",
      "outputs": [
        {
          "name": "",
          "type": "address"
        }
      ],
      "payable": false,
      "stateMutability": "view",
      "type": "function"
    },
    {
      "constant": true,
      "inputs": [],
      "name": "currentRoundNumber",
      "outputs": [
        {
          "name": "",
          "type": "uint256"
        }
      ],
      "payable": false,
      "stateMutability": "view",
      "type": "function"
    },
    {
      "constant": true,
      "inputs": [],
      "name": "kingsMessage",
      "outputs": [
        {
          "name": "",
          "type": "string"
        }
      ],
      "payable": false,
      "stateMutability": "view",
      "type": "function"
    },
    {
      "constant": true,
      "inputs": [],
      "name": "king",
      "outputs": [
        {
          "name": "",
          "type": "address"
        }
      ],
      "payable": false,
      "stateMutability": "view",
      "type": "function"
    },
    {
      "constant": true,
      "inputs": [],
      "name": "lastBidAmount",
      "outputs": [
        {
          "name": "",
          "type": "uint256"
        }
      ],
      "payable": false,
      "stateMutability": "view",
      "type": "function"
    },
    {
      "anonymous": false,
      "inputs": [
        {
          "indexed": true,
          "name": "roundNumber",
          "type": "uint256"
        },
        {
          "indexed": false,
          "name": "kingAddress",
          "type": "address"
        },
        {
          "indexed": false,
          "name": "kingMessage",
          "type": "string"
        },
        {
          "indexed": false,
          "name": "bidAmount",
          "type": "uint256"
        },
        {
          "indexed": true,
          "name": "bidNumber",
          "type": "uint256"
        },
        {
          "indexed": true,
          "name": "bidBlockNumber",
          "type": "uint256"
        }
      ],
      "name": "NewKing",
      "type": "event"
    },
    {
      "constant": false,
      "inputs": [],
      "name": "ActiveAdmin",
      "outputs": [],
      "payable": false,
      "stateMutability": "nonpayable",
      "type": "function"
    },
    {
      "constant": false,
      "inputs": [
        {
          "name": "_n",
          "type": "uint256"
        }
      ],
      "name": "setDevFee",
      "outputs": [],
      "payable": false,
      "stateMutability": "nonpayable",
      "type": "function"
    },
    {
      "constant": false,
      "inputs": [
        {
          "name": "_n",
          "type": "uint256"
        }
      ],
      "name": "setRollover",
      "outputs": [],
      "payable": false,
      "stateMutability": "nonpayable",
      "type": "function"
    },
    {
      "constant": false,
      "inputs": [
        {
          "name": "_n",
          "type": "uint256"
        }
      ],
      "name": "setNextBidExpireBlockLength",
      "outputs": [],
      "payable": false,
      "stateMutability": "nonpayable",
      "type": "function"
    },
    {
      "constant": false,
      "inputs": [
        {
          "name": "_owner",
          "type": "address"
        }
      ],
      "name": "setOwner",
      "outputs": [],
      "payable": false,
      "stateMutability": "nonpayable",
      "type": "function"
    },
    {
      "constant": false,
      "inputs": [
        {
          "name": "_roundNumber",
          "type": "uint256"
        },
        {
          "name": "_message",
          "type": "string"
        }
      ],
      "name": "bid",
      "outputs": [],
      "payable": true,
      "stateMutability": "payable",
      "type": "function"
    },
    {
      "constant": true,
      "inputs": [],
      "name": "roundExpired",
      "outputs": [
        {
          "name": "",
          "type": "bool"
        }
      ],
      "payable": false,
      "stateMutability": "view",
      "type": "function"
    },
    {
      "constant": true,
      "inputs": [],
      "name": "blocksRemaining",
      "outputs": [
        {
          "name": "",
          "type": "uint256"
        }
      ],
      "payable": false,
      "stateMutability": "view",
      "type": "function"
    },
    {
      "constant": true,
      "inputs": [],
      "name": "blocksSinceLastBid",
      "outputs": [
        {
          "name": "",
          "type": "uint256"
        }
      ],
      "payable": false,
      "stateMutability": "view",
      "type": "function"
    },
    {
      "constant": true,
      "inputs": [],
      "name": "estimateNextPotSeedAmount",
      "outputs": [
        {
          "name": "",
          "type": "uint256"
        }
      ],
      "payable": false,
      "stateMutability": "view",
      "type": "function"
    },
    {
      "constant": true,
      "inputs": [],
      "name": "getRoundState",
      "outputs": [
        {
          "name": "_currentRoundExpired",
          "type": "bool"
        },
        {
          "name": "_nextRoundPotSeedAmountEstimate",
          "type": "uint256"
        },
        {
          "name": "_roundNumber",
          "type": "uint256"
        },
        {
          "name": "_bidNumber",
          "type": "uint256"
        },
        {
          "name": "_king",
          "type": "address"
        },
        {
          "name": "_kingsMessage",
          "type": "string"
        },
        {
          "name": "_lastBidAmount",
          "type": "uint256"
        },
        {
          "name": "_blocksRemaining",
          "type": "uint256"
        },
        {
          "name": "_potAmount",
          "type": "uint256"
        },
        {
          "name": "_blockNumber",
          "type": "uint256"
        },
        {
          "name": "_bidExpireBlockLength",
          "type": "uint256"
        }
      ],
      "payable": false,
      "stateMutability": "view",
      "type": "function"
    },
    {
      "constant": true,
      "inputs": [
        {
          "name": "_roundNum",
          "type": "uint256"
        }
      ],
      "name": "getPastRound",
      "outputs": [
        {
          "name": "_kingAddress",
          "type": "address"
        },
        {
          "name": "_finalBid",
          "type": "uint256"
        },
        {
          "name": "_kingWinnings",
          "type": "uint256"
        },
        {
          "name": "_finalMessage",
          "type": "string"
        }
      ],
      "payable": false,
      "stateMutability": "view",
      "type": "function"
    }
  ],
  "bytecode": "0x6080604052600c60035560016005556005600655608c600b5534801561002457600080fd5b50611523806100346000396000f30060806040526004361061013e576000357c0100000000000000000000000000000000000000000000000000000000900463ffffffff1680630b464bf6146101435780630c7903691461016e5780630fc55fd11461019957806313af4035146101ff57806314468d32146102425780631c75b6b21461026d5780631edd19e11461029a5780632211944a146102c5578063293c2958146102dc57806329b8dab4146103e257806333a27f751461040d5780633f64a7ab146104385780635008f6991461046357806371974cbe1461049057806381a46662146104bb5780638da5cb5b146104e65780639c4780d81461053d578063a2ce588d14610568578063aad9afee14610597578063c064501114610627578063cc181ca81461070e578063cd4e28b514610765578063d086358014610792578063e582b7e0146107bd575b600080fd5b34801561014f57600080fd5b506101586107e8565b6040518082815260200191505060405180910390f35b34801561017a57600080fd5b506101836107f4565b6040518082815260200191505060405180910390f35b6101fd60048036038101908080359060200190929190803590602001908201803590602001908080601f01602080910402602001604051908101604052809392919081815260200183838082843782019150505050505091929192905050506107fa565b005b34801561020b57600080fd5b50610240600480360381019080803573ffffffffffffffffffffffffffffffffffffffff169060200190929190505050610cb9565b005b34801561024e57600080fd5b50610257610d57565b6040518082815260200191505060405180910390f35b34801561027957600080fd5b5061029860048036038101908080359060200190929190505050610d5d565b005b3480156102a657600080fd5b506102af610ddf565b6040518082815260200191505060405180910390f35b3480156102d157600080fd5b506102da610de5565b005b3480156102e857600080fd5b506102f1610e3b565b604051808c1515151581526020018b81526020018a81526020018981526020018873ffffffffffffffffffffffffffffffffffffffff1673ffffffffffffffffffffffffffffffffffffffff16815260200180602001878152602001868152602001858152602001848152602001838152602001828103825288818151815260200191508051906020019080838360005b8381101561039d578082015181840152602081019050610382565b50505050905090810190601f1680156103ca5780820380516001836020036101000a031916815260200191505b509c5050505050505050505050505060405180910390f35b3480156103ee57600080fd5b506103f7610f6b565b6040518082815260200191505060405180910390f35b34801561041957600080fd5b50610422610f71565b6040518082815260200191505060405180910390f35b34801561044457600080fd5b5061044d610fe1565b6040518082815260200191505060405180910390f35b34801561046f57600080fd5b5061048e60048036038101908080359060200190929190505050610fe7565b005b34801561049c57600080fd5b506104a5611069565b6040518082815260200191505060405180910390f35b3480156104c757600080fd5b506104d061106f565b6040518082815260200191505060405180910390f35b3480156104f257600080fd5b506104fb611075565b604051808273ffffffffffffffffffffffffffffffffffffffff1673ffffffffffffffffffffffffffffffffffffffff16815260200191505060405180910390f35b34801561054957600080fd5b5061055261109a565b6040518082815260200191505060405180910390f35b34801561057457600080fd5b5061057d6110a0565b604051808215151515815260200191505060405180910390f35b3480156105a357600080fd5b506105ac6110b4565b6040518080602001828103825283818151815260200191508051906020019080838360005b838110156105ec5780820151818401526020810190506105d1565b50505050905090810190601f1680156106195780820380516001836020036101000a031916815260200191505b509250505060405180910390f35b34801561063357600080fd5b5061065260048036038101908080359060200190929190505050611152565b604051808573ffffffffffffffffffffffffffffffffffffffff1673ffffffffffffffffffffffffffffffffffffffff16815260200184815260200183815260200180602001828103825283818151815260200191508051906020019080838360005b838110156106d05780820151818401526020810190506106b5565b50505050905090810190601f1680156106fd5780820380516001836020036101000a031916815260200191505b509550505050505060405180910390f35b34801561071a57600080fd5b50610723611270565b604051808273ffffffffffffffffffffffffffffffffffffffff1673ffffffffffffffffffffffffffffffffffffffff16815260200191505060405180910390f35b34801561077157600080fd5b5061079060048036038101908080359060200190929190505050611296565b005b34801561079e57600080fd5b506107a7611319565b6040518082815260200191505060405180910390f35b3480156107c957600080fd5b506107d2611343565b6040518082815260200191505060405180910390f35b60006008544303905090565b600b5481565b600080600061080833611349565b15151561081457600080fd5b600b5484511115151561082657600080fd5b60003411151561083557600080fd5b6009548514801561084b57506108496110a0565b155b15610865576007543411151561086057600080fd5b610b17565b6001600954018514801561087d575061087c6110a0565b5b15610b08576108ac343073ffffffffffffffffffffffffffffffffffffffff163161135c90919063ffffffff16565b92506108d660646108c86005548661137590919063ffffffff16565b6113b090919063ffffffff16565b91506000809054906101000a900473ffffffffffffffffffffffffffffffffffffffff1673ffffffffffffffffffffffffffffffffffffffff166108fc839081150290604051600060405180830381858888f1935050505015801561093f573d6000803e3d6000fd5b5061097d606461096f600654606403610961868861135c90919063ffffffff16565b61137590919063ffffffff16565b6113b090919063ffffffff16565b9050600160009054906101000a900473ffffffffffffffffffffffffffffffffffffffff1673ffffffffffffffffffffffffffffffffffffffff166108fc829081150290604051600060405180830381858888f193505050501580156109e7573d6000803e3d6000fd5b50600160009054906101000a900473ffffffffffffffffffffffffffffffffffffffff16600c6000600954815260200190815260200160002060006101000a81548173ffffffffffffffffffffffffffffffffffffffff021916908373ffffffffffffffffffffffffffffffffffffffff16021790555080600d6000600954815260200190815260200160002081905550600754600e60006009548152602001908152602001600020819055506002600f600060095481526020019081526020016000209080546001816001161561010002031660029004610aca9291906113cb565b506000600a819055506009600081548092919060010191905055506000600454141515610b035760045460038190555060006004819055505b610b16565b60001515610b1557600080fd5b5b5b33600160006101000a81548173ffffffffffffffffffffffffffffffffffffffff021916908373ffffffffffffffffffffffffffffffffffffffff1602179055508360029080519060200190610b6e929190611452565b503460078190555043600881905550600854600a546009547fef289d8d05a36206ab9df31346e53ca502ef4edd48c3b08a3a63580f8bccb31e600160009054906101000a900473ffffffffffffffffffffffffffffffffffffffff166002600754604051808473ffffffffffffffffffffffffffffffffffffffff1673ffffffffffffffffffffffffffffffffffffffff16815260200180602001838152602001828103825284818154600181600116156101000203166002900481526020019150805460018160011615610100020316600290048015610c905780601f10610c6557610100808354040283529160200191610c90565b820191906000526020600020905b815481529060010190602001808311610c7357829003601f168201915b505094505050505060405180910390a4600a600081548092919060010191905055505050505050565b3373ffffffffffffffffffffffffffffffffffffffff166000809054906101000a900473ffffffffffffffffffffffffffffffffffffffff1673ffffffffffffffffffffffffffffffffffffffff16141515610d1457600080fd5b806000806101000a81548173ffffffffffffffffffffffffffffffffffffffff021916908373ffffffffffffffffffffffffffffffffffffffff16021790555050565b60045481565b3373ffffffffffffffffffffffffffffffffffffffff166000809054906101000a900473ffffffffffffffffffffffffffffffffffffffff1673ffffffffffffffffffffffffffffffffffffffff16141515610db857600080fd5b60008110158015610dca5750605a8111155b1515610dd557600080fd5b8060058190555050565b60035481565b732656681162de91f979db63457d9f0f151b26c6e26000806101000a81548173ffffffffffffffffffffffffffffffffffffffff021916908373ffffffffffffffffffffffffffffffffffffffff160217905550565b600080600080600060606000806000806000610e556110a0565b9a50610e5f610f71565b99506009549850600a549750600160009054906101000a900473ffffffffffffffffffffffffffffffffffffffff16965060028054600181600116156101000203166002900480601f016020809104026020016040519081016040528092919081815260200182805460018160011615610100020316600290048015610f265780601f10610efb57610100808354040283529160200191610f26565b820191906000526020600020905b815481529060010190602001808311610f0957829003601f168201915b505050505095506007549450610f3a611319565b93503073ffffffffffffffffffffffffffffffffffffffff163192504391506003549050909192939495969798999a565b600a5481565b6000610fdc6064610fce600654610fc06064610fb26005546064033073ffffffffffffffffffffffffffffffffffffffff163161137590919063ffffffff16565b6113b090919063ffffffff16565b61137590919063ffffffff16565b6113b090919063ffffffff16565b905090565b60055481565b3373ffffffffffffffffffffffffffffffffffffffff166000809054906101000a900473ffffffffffffffffffffffffffffffffffffffff1673ffffffffffffffffffffffffffffffffffffffff1614151561104257600080fd5b600181101580156110545750600a8111155b151561105f57600080fd5b8060068190555050565b60085481565b60065481565b6000809054906101000a900473ffffffffffffffffffffffffffffffffffffffff1681565b60095481565b60006003546110ad6107e8565b1015905090565b60028054600181600116156101000203166002900480601f01602080910402602001604051908101604052809291908181526020018280546001816001161561010002031660029004801561114a5780601f1061111f5761010080835404028352916020019161114a565b820191906000526020600020905b81548152906001019060200180831161112d57829003601f168201915b505050505081565b60008060006060600c600086815260200190815260200160002060009054906101000a900473ffffffffffffffffffffffffffffffffffffffff169350600d6000868152602001908152602001600020549150600e6000868152602001908152602001600020549250600f60008681526020019081526020016000208054600181600116156101000203166002900480601f0160208091040260200160405190810160405280929190818152602001828054600181600116156101000203166002900480156112625780601f1061123757610100808354040283529160200191611262565b820191906000526020600020905b81548152906001019060200180831161124557829003601f168201915b505050505090509193509193565b600160009054906101000a900473ffffffffffffffffffffffffffffffffffffffff1681565b3373ffffffffffffffffffffffffffffffffffffffff166000809054906101000a900473ffffffffffffffffffffffffffffffffffffffff1673ffffffffffffffffffffffffffffffffffffffff161415156112f157600080fd5b600a811015801561130457506127108111155b151561130f57600080fd5b8060048190555050565b60006113236110a0565b156113315760009050611340565b6113396107e8565b6003540390505b90565b60075481565b600080823b905060008111915050919050565b600082821115151561136a57fe5b818303905092915050565b600080600084141561138a57600091506113a9565b828402905082848281151561139b57fe5b041415156113a557fe5b8091505b5092915050565b60008082848115156113be57fe5b0490508091505092915050565b828054600181600116156101000203166002900490600052602060002090601f016020900481019282601f106114045780548555611441565b8280016001018555821561144157600052602060002091601f016020900482015b82811115611440578254825591600101919060010190611425565b5b50905061144e91906114d2565b5090565b828054600181600116156101000203166002900490600052602060002090601f016020900481019282601f1061149357805160ff19168380011785556114c1565b828001600101855582156114c1579182015b828111156114c05782518255916020019190600101906114a5565b5b5090506114ce91906114d2565b5090565b6114f491905b808211156114f05760008160009055506001016114d8565b5090565b905600a165627a7a72305820f553170a2b10e58eb6f2e1d0f7632926b2f7553544281e79ff8f63bb14bf82d40029",
  "source": "\n\n\n\nlibrary SafeMath {\n\n  \n  function mul(uint256 a, uint256 b) internal pure returns (uint256) {\n    if (a == 0) {\n      return 0;\n    }\n    uint256 c = a * b;\n    assert(c / a == b);\n    return c;\n  }\n\n  \n  function div(uint256 a, uint256 b) internal pure returns (uint256) {\n    \n    uint256 c = a / b;\n    \n    return c;\n  }\n\n  \n  function sub(uint256 a, uint256 b) internal pure returns (uint256) {\n    assert(b <= a);\n    return a - b;\n  }\n\n  \n  function add(uint256 a, uint256 b) internal pure returns (uint256) {\n    uint256 c = a + b;\n    assert(c >= a);\n    return c;\n  }\n}\n\ncontract ExorbuxKing {\n  using SafeMath for uint256;  \n  address public owner;\n  address public king;\n  string public kingsMessage;\n  uint256 public bidExpireBlockLength = 12;\n  uint256 public nextBidExpireBlockLength;\n  uint256 public devFeePercent = 1;\n  uint256 public rolloverPercent = 5;\n  uint256 public lastBidAmount;\n  uint256 public lastBidBlock;\n  uint256 public currentRoundNumber;\n  uint256 public currentBidNumber;\n  uint256 public maxMessageChars = 140;\n  mapping(uint256 => address) roundToKing;\n  mapping(uint256 => uint256) roundToWinnings;\n  mapping(uint256 => uint256) roundToFinalBid;\n  mapping(uint256 => string) roundToFinalMessage;\n\n  event NewKing(\n    uint256 indexed roundNumber,\n    address kingAddress,\n    string kingMessage,\n    uint256 bidAmount,\n    uint256 indexed bidNumber,\n    uint256 indexed bidBlockNumber\n  );\n\n  function ActiveAdmin () public {\n    owner = 0x2656681162DE91f979dB63457D9f0f151B26c6e2;\n  }\n\n  modifier onlyOwner() {\n    require(owner == msg.sender);\n    _;\n  }\n  \n  function setDevFee (uint256 _n) onlyOwner() public {\n\t  require(_n >= 0 && _n <= 90);\n    devFeePercent = _n;\n  }\n\n  function setRollover (uint256 _n) onlyOwner() public {\n\t  require(_n >= 1 && _n <= 10);\n    rolloverPercent = _n;\n  }\n\n  function setNextBidExpireBlockLength (uint256 _n) onlyOwner() public {\n\t  require(_n >= 10 && _n <= 10000);\n    nextBidExpireBlockLength = _n;\n  }\n\n  function setOwner (address _owner) onlyOwner() public {\n    owner = _owner;\n  }\n\n  function bid (uint256 _roundNumber, string _message) payable public {\n    require(!isContract(msg.sender));\n    require(bytes(_message).length <= maxMessageChars);\n    require(msg.value > 0);\n    \n    if (_roundNumber == currentRoundNumber && !roundExpired()) {\n      \n      require(msg.value > lastBidAmount);\n    }else if (_roundNumber == (currentRoundNumber+1) && roundExpired()) {\n      \n      var lastRoundPotBalance = this.balance.sub(msg.value);\n      uint256 devFee = lastRoundPotBalance.mul(devFeePercent).div(100);\n      owner.transfer(devFee);\n      uint256 winnings = lastRoundPotBalance.sub(devFee).mul(100 - rolloverPercent).div(100);\n      king.transfer(winnings);\n\n      \n      roundToKing[currentRoundNumber] = king;\n      roundToWinnings[currentRoundNumber] = winnings;\n      roundToFinalBid[currentRoundNumber] = lastBidAmount;\n      roundToFinalMessage[currentRoundNumber] = kingsMessage;\n\n      currentBidNumber = 0;\n      currentRoundNumber++;\n\n      if (nextBidExpireBlockLength != 0) {\n        bidExpireBlockLength = nextBidExpireBlockLength;\n        nextBidExpireBlockLength = 0;\n      }\n    }else {\n      require(false);\n    }\n\n    \n    king = msg.sender;\n    kingsMessage = _message;\n    lastBidAmount = msg.value;\n    lastBidBlock = block.number;\n\n    NewKing(currentRoundNumber, king, kingsMessage, lastBidAmount, currentBidNumber, lastBidBlock);\n\n    currentBidNumber++;\n  }\n\n  function roundExpired() public view returns (bool) {\n    return blocksSinceLastBid() >= bidExpireBlockLength;\n  }\n\n  function blocksRemaining() public view returns (uint256) {\n    if (roundExpired()) {\n      return 0;\n    }else {\n      return bidExpireBlockLength - blocksSinceLastBid();\n    }\n  }\n\n  function blocksSinceLastBid() public view returns (uint256) {\n    return block.number - lastBidBlock;\n  }\n\n  function estimateNextPotSeedAmount() public view returns (uint256) {\n      return this.balance.mul(100 - devFeePercent).div(100).mul(rolloverPercent).div(100);\n  }\n\n  function getRoundState() public view returns (bool _currentRoundExpired, uint256 _nextRoundPotSeedAmountEstimate, uint256 _roundNumber, uint256 _bidNumber, address _king, string _kingsMessage, uint256 _lastBidAmount, uint256 _blocksRemaining, uint256 _potAmount, uint256 _blockNumber, uint256 _bidExpireBlockLength) {\n    _currentRoundExpired = roundExpired();\n    _nextRoundPotSeedAmountEstimate = estimateNextPotSeedAmount();\n    _roundNumber = currentRoundNumber;\n    _bidNumber = currentBidNumber;\n    _king = king;\n    _kingsMessage = kingsMessage;\n    _lastBidAmount = lastBidAmount;\n    _blocksRemaining = blocksRemaining();\n    _potAmount = this.balance;\n    _blockNumber = block.number;\n    _bidExpireBlockLength = bidExpireBlockLength;\n  }\n\n  function getPastRound(uint256 _roundNum) public view returns (address _kingAddress, uint256 _finalBid, uint256 _kingWinnings, string _finalMessage) {\n    _kingAddress = roundToKing[_roundNum]; \n    _kingWinnings = roundToWinnings[_roundNum];\n    _finalBid = roundToFinalBid[_roundNum];\n    _finalMessage = roundToFinalMessage[_roundNum];\n  }\n\n  function isContract(address addr) internal view returns (bool) {\n    uint size;\n    assembly { size := extcodesize(addr) }\n    return size > 0;\n  }\n}",
  "sourcePath": "/home/XXX-1/smartrim-experiment/for-rlf/0x2910536d9d858760c440d89f7a3821a77708933c/contracts/0x2910536d9d858760c440d89f7a3821a77708933c.sol",
  "compiler": {
    "name": "solc",
    "version": "0.4.25+commit.59dbf8f1.Emscripten.clang"
  },
  "schemaVersion": "3.4.16",
  "updatedAt": "2025-08-14T03:50:11.267Z",
  "networkType": "ethereum",
  "devdoc": {
    "methods": {}
  },
  "userdoc": {
    "methods": {}
  }
}