{
  "contractName": "SimpleSuicide",
  "abi": [
    {
      "constant": false,
      "inputs": [],
      "name": "sudicideAnyone",
      "outputs": [],
      "payable": false,
      "stateMutability": "nonpayable",
      "type": "function"
    }
  ],
  "bytecode": "0x6080604052348015600f57600080fd5b50609d8061001e6000396000f300608060405260043610603f576000357c0100000000000000000000000000000000000000000000000000000000900463ffffffff168063a56a3b5a146044575b600080fd5b348015604f57600080fd5b5060566058565b005b3373ffffffffffffffffffffffffffffffffffffffff16ff00a165627a7a72305820f2c3557313a30f56ba09f962dc216eb5c979d8450408214957fad9a1022578a30029",
  "source": "\n\n\n\n\ncontract SimpleSuicide {\n  \n  function sudicideAnyone() {\n    selfdestruct(msg.sender); \n  }\n\n}\n",
  "sourcePath": "/home/XXX-1/smartrim-experiment/for-rlf/simple_suicide/contracts/simple_suicide.sol",
  "compiler": {
    "name": "solc",
    "version": "0.4.25+commit.59dbf8f1.Emscripten.clang"
  },
  "schemaVersion": "3.4.16",
  "updatedAt": "2025-08-14T03:32:37.305Z",
  "networkType": "ethereum",
  "devdoc": {
    "methods": {}
  },
  "userdoc": {
    "methods": {}
  }
}