{
  "contractName": "AVStarsToken",
  "abi": [
    {
      "constant": true,
      "inputs": [],
      "name": "promoCreatedCount",
      "outputs": [
        {
          "name": "",
          "type": "uint256"
        }
      ],
      "payable": false,
      "stateMutability": "view",
      "type": "function"
    },
    {
      "constant": true,
      "inputs": [],
      "name": "ceoAddress",
      "outputs": [
        {
          "name": "",
          "type": "address"
        }
      ],
      "payable": false,
      "stateMutability": "view",
      "type": "function"
    },
    {
      "constant": true,
      "inputs": [
        {
          "name": "",
          "type": "uint256"
        }
      ],
      "name": "personIndexToApproved",
      "outputs": [
        {
          "name": "",
          "type": "address"
        }
      ],
      "payable": false,
      "stateMutability": "view",
      "type": "function"
    },
    {
      "constant": true,
      "inputs": [],
      "name": "NAME",
      "outputs": [
        {
          "name": "",
          "type": "string"
        }
      ],
      "payable": false,
      "stateMutability": "view",
      "type": "function"
    },
    {
      "constant": true,
      "inputs": [
        {
          "name": "",
          "type": "uint256"
        }
      ],
      "name": "personIndexToOwner",
      "outputs": [
        {
          "name": "",
          "type": "address"
        }
      ],
      "payable": false,
      "stateMutability": "view",
      "type": "function"
    },
    {
      "constant": true,
      "inputs": [],
      "name": "cooAddress",
      "outputs": [
        {
          "name": "",
          "type": "address"
        }
      ],
      "payable": false,
      "stateMutability": "view",
      "type": "function"
    },
    {
      "constant": true,
      "inputs": [],
      "name": "SYMBOL",
      "outputs": [
        {
          "name": "",
          "type": "string"
        }
      ],
      "payable": false,
      "stateMutability": "view",
      "type": "function"
    },
    {
      "inputs": [],
      "payable": false,
      "stateMutability": "nonpayable",
      "type": "constructor"
    },
    {
      "anonymous": false,
      "inputs": [
        {
          "indexed": false,
          "name": "tokenId",
          "type": "uint256"
        },
        {
          "indexed": false,
          "name": "name",
          "type": "string"
        },
        {
          "indexed": false,
          "name": "satisfaction",
          "type": "uint64"
        },
        {
          "indexed": false,
          "name": "cooldownTime",
          "type": "uint64"
        },
        {
          "indexed": false,
          "name": "slogan",
          "type": "string"
        },
        {
          "indexed": false,
          "name": "owner",
          "type": "address"
        }
      ],
      "name": "Birth",
      "type": "event"
    },
    {
      "anonymous": false,
      "inputs": [
        {
          "indexed": false,
          "name": "tokenId",
          "type": "uint256"
        },
        {
          "indexed": false,
          "name": "oldPrice",
          "type": "uint256"
        },
        {
          "indexed": false,
          "name": "newPrice",
          "type": "uint256"
        },
        {
          "indexed": false,
          "name": "prevOwner",
          "type": "address"
        },
        {
          "indexed": false,
          "name": "winner",
          "type": "address"
        },
        {
          "indexed": false,
          "name": "name",
          "type": "string"
        }
      ],
      "name": "TokenSold",
      "type": "event"
    },
    {
      "anonymous": false,
      "inputs": [
        {
          "indexed": false,
          "name": "from",
          "type": "address"
        },
        {
          "indexed": false,
          "name": "to",
          "type": "address"
        },
        {
          "indexed": false,
          "name": "tokenId",
          "type": "uint256"
        }
      ],
      "name": "Transfer",
      "type": "event"
    },
    {
      "anonymous": false,
      "inputs": [
        {
          "indexed": false,
          "name": "tokenId",
          "type": "uint256"
        },
        {
          "indexed": false,
          "name": "Owner",
          "type": "address"
        },
        {
          "indexed": false,
          "name": "startTime",
          "type": "uint64"
        },
        {
          "indexed": false,
          "name": "cooldownTime",
          "type": "uint64"
        },
        {
          "indexed": false,
          "name": "_type",
          "type": "uint256"
        }
      ],
      "name": "MoreActivity",
      "type": "event"
    },
    {
      "anonymous": false,
      "inputs": [
        {
          "indexed": false,
          "name": "slogan",
          "type": "string"
        }
      ],
      "name": "ChangeSlogan",
      "type": "event"
    },
    {
      "anonymous": false,
      "inputs": [
        {
          "indexed": true,
          "name": "owner",
          "type": "address"
        },
        {
          "indexed": true,
          "name": "approved",
          "type": "address"
        },
        {
          "indexed": false,
          "name": "tokenId",
          "type": "uint256"
        }
      ],
      "name": "Approval",
      "type": "event"
    },
    {
      "constant": false,
      "inputs": [
        {
          "name": "_to",
          "type": "address"
        },
        {
          "name": "_tokenId",
          "type": "uint256"
        }
      ],
      "name": "approve",
      "outputs": [],
      "payable": false,
      "stateMutability": "nonpayable",
      "type": "function"
    },
    {
      "constant": true,
      "inputs": [
        {
          "name": "_owner",
          "type": "address"
        }
      ],
      "name": "balanceOf",
      "outputs": [
        {
          "name": "balance",
          "type": "uint256"
        }
      ],
      "payable": false,
      "stateMutability": "view",
      "type": "function"
    },
    {
      "constant": false,
      "inputs": [
        {
          "name": "_owner",
          "type": "address"
        },
        {
          "name": "_name",
          "type": "string"
        },
        {
          "name": "_satisfaction",
          "type": "uint64"
        },
        {
          "name": "_cooldownTime",
          "type": "uint64"
        },
        {
          "name": "_slogan",
          "type": "string"
        },
        {
          "name": "_price",
          "type": "uint256"
        }
      ],
      "name": "createPromoPerson",
      "outputs": [],
      "payable": false,
      "stateMutability": "nonpayable",
      "type": "function"
    },
    {
      "constant": false,
      "inputs": [
        {
          "name": "_name",
          "type": "string"
        }
      ],
      "name": "createContractPerson",
      "outputs": [],
      "payable": false,
      "stateMutability": "nonpayable",
      "type": "function"
    },
    {
      "constant": true,
      "inputs": [
        {
          "name": "_tokenId",
          "type": "uint256"
        }
      ],
      "name": "getPerson",
      "outputs": [
        {
          "name": "personName",
          "type": "string"
        },
        {
          "name": "satisfaction",
          "type": "uint64"
        },
        {
          "name": "cooldownTime",
          "type": "uint64"
        },
        {
          "name": "slogan",
          "type": "string"
        },
        {
          "name": "basePrice",
          "type": "uint256"
        },
        {
          "name": "sellingPrice",
          "type": "uint256"
        },
        {
          "name": "owner",
          "type": "address"
        }
      ],
      "payable": false,
      "stateMutability": "view",
      "type": "function"
    },
    {
      "constant": true,
      "inputs": [],
      "name": "implementsERC721",
      "outputs": [
        {
          "name": "",
          "type": "bool"
        }
      ],
      "payable": false,
      "stateMutability": "pure",
      "type": "function"
    },
    {
      "constant": true,
      "inputs": [],
      "name": "name",
      "outputs": [
        {
          "name": "",
          "type": "string"
        }
      ],
      "payable": false,
      "stateMutability": "pure",
      "type": "function"
    },
    {
      "constant": false,
      "inputs": [],
      "name": "pauseGame",
      "outputs": [],
      "payable": false,
      "stateMutability": "nonpayable",
      "type": "function"
    },
    {
      "constant": false,
      "inputs": [],
      "name": "unPauseGame",
      "outputs": [],
      "payable": false,
      "stateMutability": "nonpayable",
      "type": "function"
    },
    {
      "constant": true,
      "inputs": [],
      "name": "GetIsPauded",
      "outputs": [
        {
          "name": "",
          "type": "bool"
        }
      ],
      "payable": false,
      "stateMutability": "view",
      "type": "function"
    },
    {
      "constant": true,
      "inputs": [
        {
          "name": "_tokenId",
          "type": "uint256"
        }
      ],
      "name": "ownerOf",
      "outputs": [
        {
          "name": "owner",
          "type": "address"
        }
      ],
      "payable": false,
      "stateMutability": "view",
      "type": "function"
    },
    {
      "constant": false,
      "inputs": [
        {
          "name": "_to",
          "type": "address"
        }
      ],
      "name": "payout",
      "outputs": [],
      "payable": false,
      "stateMutability": "nonpayable",
      "type": "function"
    },
    {
      "constant": false,
      "inputs": [
        {
          "name": "_tokenId",
          "type": "uint256"
        }
      ],
      "name": "purchase",
      "outputs": [],
      "payable": true,
      "stateMutability": "payable",
      "type": "function"
    },
    {
      "constant": false,
      "inputs": [
        {
          "name": "_tokenId",
          "type": "uint256"
        },
        {
          "name": "_type",
          "type": "uint256"
        }
      ],
      "name": "activity",
      "outputs": [],
      "payable": true,
      "stateMutability": "payable",
      "type": "function"
    },
    {
      "constant": false,
      "inputs": [
        {
          "name": "_tokenId",
          "type": "uint256"
        },
        {
          "name": "_slogan",
          "type": "string"
        }
      ],
      "name": "modifySlogan",
      "outputs": [],
      "payable": true,
      "stateMutability": "payable",
      "type": "function"
    },
    {
      "constant": true,
      "inputs": [
        {
          "name": "_tokenId",
          "type": "uint256"
        }
      ],
      "name": "priceOf",
      "outputs": [
        {
          "name": "price",
          "type": "uint256"
        }
      ],
      "payable": false,
      "stateMutability": "view",
      "type": "function"
    },
    {
      "constant": false,
      "inputs": [
        {
          "name": "_newCEO",
          "type": "address"
        }
      ],
      "name": "setCEO",
      "outputs": [],
      "payable": false,
      "stateMutability": "nonpayable",
      "type": "function"
    },
    {
      "constant": false,
      "inputs": [
        {
          "name": "_newCOO",
          "type": "address"
        }
      ],
      "name": "setCOO",
      "outputs": [],
      "payable": false,
      "stateMutability": "nonpayable",
      "type": "function"
    },
    {
      "constant": true,
      "inputs": [],
      "name": "symbol",
      "outputs": [
        {
          "name": "",
          "type": "string"
        }
      ],
      "payable": false,
      "stateMutability": "pure",
      "type": "function"
    },
    {
      "constant": false,
      "inputs": [
        {
          "name": "_tokenId",
          "type": "uint256"
        }
      ],
      "name": "takeOwnership",
      "outputs": [],
      "payable": false,
      "stateMutability": "nonpayable",
      "type": "function"
    },
    {
      "constant": true,
      "inputs": [
        {
          "name": "_owner",
          "type": "address"
        }
      ],
      "name": "tokensOfOwner",
      "outputs": [
        {
          "name": "ownerTokens",
          "type": "uint256[]"
        }
      ],
      "payable": false,
      "stateMutability": "view",
      "type": "function"
    },
    {
      "constant": true,
      "inputs": [],
      "name": "totalSupply",
      "outputs": [
        {
          "name": "total",
          "type": "uint256"
        }
      ],
      "payable": false,
      "stateMutability": "view",
      "type": "function"
    },
    {
      "constant": false,
      "inputs": [
        {
          "name": "_to",
          "type": "address"
        },
        {
          "name": "_tokenId",
          "type": "uint256"
        }
      ],
      "name": "transfer",
      "outputs": [],
      "payable": false,
      "stateMutability": "nonpayable",
      "type": "function"
    },
    {
      "constant": false,
      "inputs": [
        {
          "name": "_from",
          "type": "address"
        },
        {
          "name": "_to",
          "type": "address"
        },
        {
          "name": "_tokenId",
          "type": "uint256"
        }
      ],
      "name": "transferFrom",
      "outputs": [],
      "payable": false,
      "stateMutability": "nonpayable",
      "type": "function"
    }
  ],
  "bytecode": "0x6080604052670429d069189e00006000556716345785d8a0000060015534801561002857600080fd5b5033600660006101000a81548173ffffffffffffffffffffffffffffffffffffffff021916908373ffffffffffffffffffffffffffffffffffffffff16021790555033600760006101000a81548173ffffffffffffffffffffffffffffffffffffffff021916908373ffffffffffffffffffffffffffffffffffffffff1602179055506000600960006101000a81548160ff021916908315150217905550612e63806100d56000396000f30060806040526004361061018b576000357c0100000000000000000000000000000000000000000000000000000000900463ffffffff16806305e455461461019057806306fdde03146101bb578063095ea7b31461024b5780630a0f8168146102985780630b7e9c44146102ef5780630c433c1c146103325780631051db341461039857806318160ddd146103c757806323b872dd146103f2578063246982c41461045f57806327d7874c146105e85780632ba73c151461062b5780634955f2801461066e578063499831f2146106d75780634b0c085d146106ee5780636352211e146107ef57806370a082311461085c578063711b8881146108b3578063820c59bb146108dd5780638462151c1461090c5780639433a81e146109a457806395d89b4114610a11578063a3f4df7e14610aa1578063a9059cbb14610b31578063aa1d98af14610b7e578063b047fb5014610beb578063b2e6ceeb14610c42578063b9186d7d14610c6f578063efef39a114610cb0578063f42b1ae014610cd0578063f76f8d7814610ce7575b600080fd5b34801561019c57600080fd5b506101a5610d77565b6040518082815260200191505060405180910390f35b3480156101c757600080fd5b506101d0610d7d565b6040518080602001828103825283818151815260200191508051906020019080838360005b838110156102105780820151818401526020810190506101f5565b50505050905090810190601f16801561023d5780820380516001836020036101000a031916815260200191505b509250505060405180910390f35b34801561025757600080fd5b50610296600480360381019080803573ffffffffffffffffffffffffffffffffffffffff16906020019092919080359060200190929190505050610dba565b005b3480156102a457600080fd5b506102ad610e8a565b604051808273ffffffffffffffffffffffffffffffffffffffff1673ffffffffffffffffffffffffffffffffffffffff16815260200191505060405180910390f35b3480156102fb57600080fd5b50610330600480360381019080803573ffffffffffffffffffffffffffffffffffffffff169060200190929190505050610eb0565b005b61039660048036038101908080359060200190929190803590602001908201803590602001908080601f0160208091040260200160405190810160405280939291908181526020018383808284378201915050505050509192919290505050610f70565b005b3480156103a457600080fd5b506103ad61111f565b604051808215151515815260200191505060405180910390f35b3480156103d357600080fd5b506103dc611128565b6040518082815260200191505060405180910390f35b3480156103fe57600080fd5b5061045d600480360381019080803573ffffffffffffffffffffffffffffffffffffffff169060200190929190803573ffffffffffffffffffffffffffffffffffffffff16906020019092919080359060200190929190505050611135565b005b34801561046b57600080fd5b5061048a60048036038101908080359060200190929190505050611183565b60405180806020018867ffffffffffffffff1667ffffffffffffffff1681526020018767ffffffffffffffff1667ffffffffffffffff168152602001806020018681526020018581526020018473ffffffffffffffffffffffffffffffffffffffff1673ffffffffffffffffffffffffffffffffffffffff16815260200183810383528a818151815260200191508051906020019080838360005b83811015610540578082015181840152602081019050610525565b50505050905090810190601f16801561056d5780820380516001836020036101000a031916815260200191505b50838103825287818151815260200191508051906020019080838360005b838110156105a657808201518184015260208101905061058b565b50505050905090810190601f1680156105d35780820380516001836020036101000a031916815260200191505b50995050505050505050505060405180910390f35b3480156105f457600080fd5b50610629600480360381019080803573ffffffffffffffffffffffffffffffffffffffff16906020019092919050505061136e565b005b34801561063757600080fd5b5061066c600480360381019080803573ffffffffffffffffffffffffffffffffffffffff16906020019092919050505061144a565b005b34801561067a57600080fd5b506106d5600480360381019080803590602001908201803590602001908080601f0160208091040260200160405190810160405280939291908181526020018383808284378201915050505050509192919290505050611526565b005b3480156106e357600080fd5b506106ec6115a6565b005b3480156106fa57600080fd5b506107ed600480360381019080803573ffffffffffffffffffffffffffffffffffffffff169060200190929190803590602001908201803590602001908080601f0160208091040260200160405190810160405280939291908181526020018383808284378201915050505050509192919290803567ffffffffffffffff169060200190929190803567ffffffffffffffff169060200190929190803590602001908201803590602001908080601f016020809104026020016040519081016040528093929190818152602001838380828437820191505050505050919291929080359060200190929190505050611677565b005b3480156107fb57600080fd5b5061081a6004803603810190808035906020019092919050505061177e565b604051808273ffffffffffffffffffffffffffffffffffffffff1673ffffffffffffffffffffffffffffffffffffffff16815260200191505060405180910390f35b34801561086857600080fd5b5061089d600480360381019080803573ffffffffffffffffffffffffffffffffffffffff1690602001909291905050506117f7565b6040518082815260200191505060405180910390f35b6108db6004803603810190808035906020019092919080359060200190929190505050611840565b005b3480156108e957600080fd5b506108f2611c2f565b604051808215151515815260200191505060405180910390f35b34801561091857600080fd5b5061094d600480360381019080803573ffffffffffffffffffffffffffffffffffffffff169060200190929190505050611c46565b6040518080602001828103825283818151815260200191508051906020019060200280838360005b83811015610990578082015181840152602081019050610975565b505050509050019250505060405180910390f35b3480156109b057600080fd5b506109cf60048036038101908080359060200190929190505050611d93565b604051808273ffffffffffffffffffffffffffffffffffffffff1673ffffffffffffffffffffffffffffffffffffffff16815260200191505060405180910390f35b348015610a1d57600080fd5b50610a26611dc6565b6040518080602001828103825283818151815260200191508051906020019080838360005b83811015610a66578082015181840152602081019050610a4b565b50505050905090810190601f168015610a935780820380516001836020036101000a031916815260200191505b509250505060405180910390f35b348015610aad57600080fd5b50610ab6611e03565b6040518080602001828103825283818151815260200191508051906020019080838360005b83811015610af6578082015181840152602081019050610adb565b50505050905090810190601f168015610b235780820380516001836020036101000a031916815260200191505b509250505060405180910390f35b348015610b3d57600080fd5b50610b7c600480360381019080803573ffffffffffffffffffffffffffffffffffffffff16906020019092919080359060200190929190505050611e3c565b005b348015610b8a57600080fd5b50610ba960048036038101908080359060200190929190505050611e74565b604051808273ffffffffffffffffffffffffffffffffffffffff1673ffffffffffffffffffffffffffffffffffffffff16815260200191505060405180910390f35b348015610bf757600080fd5b50610c00611ea7565b604051808273ffffffffffffffffffffffffffffffffffffffff1673ffffffffffffffffffffffffffffffffffffffff16815260200191505060405180910390f35b348015610c4e57600080fd5b50610c6d60048036038101908080359060200190929190505050611ecd565b005b348015610c7b57600080fd5b50610c9a60048036038101908080359060200190929190505050611f42565b6040518082815260200191505060405180910390f35b610cce60048036038101908080359060200190929190505050611f5f565b005b348015610cdc57600080fd5b50610ce5612459565b005b348015610cf357600080fd5b50610cfc61252a565b6040518080602001828103825283818151815260200191508051906020019080838360005b83811015610d3c578082015181840152602081019050610d21565b50505050905090810190601f168015610d695780820380516001836020036101000a031916815260200191505b509250505060405180910390f35b60085481565b60606040805190810160405280600781526020017f4156537461727300000000000000000000000000000000000000000000000000815250905090565b610dc43382612563565b1515610dcf57600080fd5b816004600083815260200190815260200160002060006101000a81548173ffffffffffffffffffffffffffffffffffffffff021916908373ffffffffffffffffffffffffffffffffffffffff1602179055508173ffffffffffffffffffffffffffffffffffffffff163373ffffffffffffffffffffffffffffffffffffffff167f8c5be1e5ebec7d5bd14f71427d1e84f3dd0314c0f7b2291e5b200ac8c7c3b925836040518082815260200191505060405180910390a35050565b600660009054906101000a900473ffffffffffffffffffffffffffffffffffffffff1681565b600660009054906101000a900473ffffffffffffffffffffffffffffffffffffffff1673ffffffffffffffffffffffffffffffffffffffff163373ffffffffffffffffffffffffffffffffffffffff161480610f595750600760009054906101000a900473ffffffffffffffffffffffffffffffffffffffff1673ffffffffffffffffffffffffffffffffffffffff163373ffffffffffffffffffffffffffffffffffffffff16145b1515610f6457600080fd5b610f6d816125cf565b50565b60003373ffffffffffffffffffffffffffffffffffffffff166002600085815260200190815260200160002060009054906101000a900473ffffffffffffffffffffffffffffffffffffffff1673ffffffffffffffffffffffffffffffffffffffff16141515610fdf57600080fd5b600a83815481101515610fee57fe5b9060005260206000209060050201905081816003019080519060200190611016929190612cd8565b503373ffffffffffffffffffffffffffffffffffffffff166108fc349081150290604051600060405180830381858888f1935050505015801561105d573d6000803e3d6000fd5b507fd7190851063ca223cf1f15d4e7bf11ba02e28cd0b763eb55f2b070732bb058ec81600301604051808060200182810382528381815460018160011615610100020316600290048152602001915080546001816001161561010002031660029004801561110c5780601f106110e15761010080835404028352916020019161110c565b820191906000526020600020905b8154815290600101906020018083116110ef57829003601f168201915b50509250505060405180910390a1505050565b60006001905090565b6000600a80549050905090565b61113f8382612563565b151561114a57600080fd5b61115482826126eb565b151561115f57600080fd5b61116882612757565b151561117357600080fd5b61117e838383612790565b505050565b60606000806060600080600080600a8981548110151561119f57fe5b90600052602060002090600502019050806000018054600181600116156101000203166002900480601f0160208091040260200160405190810160405280929190818152602001828054600181600116156101000203166002900480156112475780601f1061121c57610100808354040283529160200191611247565b820191906000526020600020905b81548152906001019060200180831161122a57829003601f168201915b50505050509750806001015496508060020160009054906101000a900467ffffffffffffffff169550806003018054600181600116156101000203166002900480601f0160208091040260200160405190810160405280929190818152602001828054600181600116156101000203166002900480156113085780601f106112dd57610100808354040283529160200191611308565b820191906000526020600020905b8154815290600101906020018083116112eb57829003601f168201915b5050505050945080600401549350600560008a8152602001908152602001600020549250600260008a815260200190815260200160002060009054906101000a900473ffffffffffffffffffffffffffffffffffffffff16915050919395979092949650565b600660009054906101000a900473ffffffffffffffffffffffffffffffffffffffff1673ffffffffffffffffffffffffffffffffffffffff163373ffffffffffffffffffffffffffffffffffffffff161415156113ca57600080fd5b600073ffffffffffffffffffffffffffffffffffffffff168173ffffffffffffffffffffffffffffffffffffffff161415151561140657600080fd5b80600660006101000a81548173ffffffffffffffffffffffffffffffffffffffff021916908373ffffffffffffffffffffffffffffffffffffffff16021790555050565b600660009054906101000a900473ffffffffffffffffffffffffffffffffffffffff1673ffffffffffffffffffffffffffffffffffffffff163373ffffffffffffffffffffffffffffffffffffffff161415156114a657600080fd5b600073ffffffffffffffffffffffffffffffffffffffff168173ffffffffffffffffffffffffffffffffffffffff16141515156114e257600080fd5b80600760006101000a81548173ffffffffffffffffffffffffffffffffffffffff021916908373ffffffffffffffffffffffffffffffffffffffff16021790555050565b600760009054906101000a900473ffffffffffffffffffffffffffffffffffffffff1673ffffffffffffffffffffffffffffffffffffffff163373ffffffffffffffffffffffffffffffffffffffff1614151561158257600080fd5b6115a381600042602060405190810160405280600081525030600054612992565b50565b600660009054906101000a900473ffffffffffffffffffffffffffffffffffffffff1673ffffffffffffffffffffffffffffffffffffffff163373ffffffffffffffffffffffffffffffffffffffff16148061164f5750600760009054906101000a900473ffffffffffffffffffffffffffffffffffffffff1673ffffffffffffffffffffffffffffffffffffffff163373ffffffffffffffffffffffffffffffffffffffff16145b151561165a57600080fd5b6001600960006101000a81548160ff021916908315150217905550565b6000600760009054906101000a900473ffffffffffffffffffffffffffffffffffffffff1673ffffffffffffffffffffffffffffffffffffffff163373ffffffffffffffffffffffffffffffffffffffff161415156116d557600080fd5b6175306008541015156116e757600080fd5b869050600073ffffffffffffffffffffffffffffffffffffffff168173ffffffffffffffffffffffffffffffffffffffff16141561174557600760009054906101000a900473ffffffffffffffffffffffffffffffffffffffff1690505b6000821115156117555760005491505b600860008154809291906001019190505550611775868686868587612992565b50505050505050565b60006002600083815260200190815260200160002060009054906101000a900473ffffffffffffffffffffffffffffffffffffffff169050600073ffffffffffffffffffffffffffffffffffffffff168173ffffffffffffffffffffffffffffffffffffffff16141515156117f257600080fd5b919050565b6000600360008373ffffffffffffffffffffffffffffffffffffffff1673ffffffffffffffffffffffffffffffffffffffff168152602001908152602001600020549050919050565b6000806000806000801515600960009054906101000a900460ff16151514151561186957600080fd5b3373ffffffffffffffffffffffffffffffffffffffff166002600089815260200190815260200160002060009054906101000a900473ffffffffffffffffffffffffffffffffffffffff1673ffffffffffffffffffffffffffffffffffffffff161415156118d657600080fd5b671bc16d674ec8000060056000898152602001908152602001600020541015151561190057600080fd5b6002861115151561191057600080fd5b6000861415611922576006945061193a565b600186141561193457600c9450611939565b603094505b5b611973856119656050600560008c815260200190815260200160002054612c4b90919063ffffffff16565b612c6690919063ffffffff16565b935083341015151561198457600080fd5b600a8781548110151561199357fe5b906000526020600020906005020191506119b7600186612c6690919063ffffffff16565b82600101600082825401925050819055506064826001015411156119e057606482600101819055505b6119f7848360040154612ca190919063ffffffff16565b8260040181905550611a306064611a2284600101546078018560040154612c6690919063ffffffff16565b612c4b90919063ffffffff16565b9050806005600089815260200190815260200160002081905550428260020160009054906101000a900467ffffffffffffffff1667ffffffffffffffff161115611ac5578160020160009054906101000a900467ffffffffffffffff169250610e10850283018260020160006101000a81548167ffffffffffffffff021916908367ffffffffffffffff160217905550611afa565b429250610e10850283018260020160006101000a81548167ffffffffffffffff021916908367ffffffffffffffff1602179055505b600660009054906101000a900473ffffffffffffffffffffffffffffffffffffffff1673ffffffffffffffffffffffffffffffffffffffff166108fc349081150290604051600060405180830381858888f19350505050158015611b62573d6000803e3d6000fd5b507fd1145890e626f2c8ce8a07d18a882567fe7ae7dfce202d3a429f8a4145eab8a98733858560020160009054906101000a900467ffffffffffffffff168a604051808681526020018573ffffffffffffffffffffffffffffffffffffffff1673ffffffffffffffffffffffffffffffffffffffff1681526020018467ffffffffffffffff1667ffffffffffffffff1681526020018367ffffffffffffffff1667ffffffffffffffff1681526020018281526020019550505050505060405180910390a150505050505050565b6000600960009054906101000a900460ff16905090565b6060600060606000806000611c5a876117f7565b94506000851415611c9d576000604051908082528060200260200182016040528015611c955781602001602082028038833980820191505090505b509550611d89565b84604051908082528060200260200182016040528015611ccc5781602001602082028038833980820191505090505b509350611cd7611128565b925060009150600090505b8281111515611d85578673ffffffffffffffffffffffffffffffffffffffff166002600083815260200190815260200160002060009054906101000a900473ffffffffffffffffffffffffffffffffffffffff1673ffffffffffffffffffffffffffffffffffffffff161415611d7857808483815181101515611d6157fe5b906020019060200201818152505081806001019250505b8080600101915050611ce2565b8395505b5050505050919050565b60046020528060005260406000206000915054906101000a900473ffffffffffffffffffffffffffffffffffffffff1681565b60606040805190810160405280600381526020017f4156530000000000000000000000000000000000000000000000000000000000815250905090565b6040805190810160405280600781526020017f415653746172730000000000000000000000000000000000000000000000000081525081565b611e463382612563565b1515611e5157600080fd5b611e5a82612757565b1515611e6557600080fd5b611e70338383612790565b5050565b60026020528060005260406000206000915054906101000a900473ffffffffffffffffffffffffffffffffffffffff1681565b600760009054906101000a900473ffffffffffffffffffffffffffffffffffffffff1681565b6000803391506002600084815260200190815260200160002060009054906101000a900473ffffffffffffffffffffffffffffffffffffffff169050611f1282612757565b1515611f1d57600080fd5b611f2782846126eb565b1515611f3257600080fd5b611f3d818385612790565b505050565b600060056000838152602001908152602001600020549050919050565b60008060008060008060001515600960009054906101000a900460ff161515141515611f8a57600080fd5b6002600088815260200190815260200160002060009054906101000a900473ffffffffffffffffffffffffffffffffffffffff169550339450600560008881526020019081526020016000205493508473ffffffffffffffffffffffffffffffffffffffff168673ffffffffffffffffffffffffffffffffffffffff161415151561201457600080fd5b61201d85612757565b151561202857600080fd5b83341015151561203757600080fd5b600a8781548110151561204657fe5b906000526020600020906005020192504267ffffffffffffffff168360020160009054906101000a900467ffffffffffffffff1667ffffffffffffffff1610151561209057600080fd5b6120b760646120a9605f87612c6690919063ffffffff16565b612c4b90919063ffffffff16565b91506120cc8234612cbf90919063ffffffff16565b9050600154841015612138576005600088815260200190815260200160002054836004018190555061211c60c861210e61012c87612c6690919063ffffffff16565b612c4b90919063ffffffff16565b60056000898152602001908152602001600020819055506121f5565b612163606461215560328660010154612c6690919063ffffffff16565b612c4b90919063ffffffff16565b8360010181905550600560008881526020019081526020016000205483600401819055506121ae60646121a0607887612c6690919063ffffffff16565b612c4b90919063ffffffff16565b600560008981526020019081526020016000208190555061038442018360020160006101000a81548167ffffffffffffffff021916908367ffffffffffffffff1602179055505b612200868689612790565b3073ffffffffffffffffffffffffffffffffffffffff168673ffffffffffffffffffffffffffffffffffffffff1614151561227d578573ffffffffffffffffffffffffffffffffffffffff166108fc839081150290604051600060405180830381858888f1935050505015801561227b573d6000803e3d6000fd5b505b600660009054906101000a900473ffffffffffffffffffffffffffffffffffffffff1673ffffffffffffffffffffffffffffffffffffffff166108fc829081150290604051600060405180830381858888f193505050501580156122e5573d6000803e3d6000fd5b507e8201e7bcbf010c2c07de59d6e97cb7e3cf67a46125c49cbc89b9d2cde1f48f8785600560008b8152602001908152602001600020548989600a8d81548110151561232d57fe5b9060005260206000209060050201600001604051808781526020018681526020018581526020018473ffffffffffffffffffffffffffffffffffffffff1673ffffffffffffffffffffffffffffffffffffffff1681526020018373ffffffffffffffffffffffffffffffffffffffff1673ffffffffffffffffffffffffffffffffffffffff1681526020018060200182810382528381815460018160011615610100020316600290048152602001915080546001816001161561010002031660029004801561243d5780601f106124125761010080835404028352916020019161243d565b820191906000526020600020905b81548152906001019060200180831161242057829003601f168201915b505097505050505050505060405180910390a150505050505050565b600660009054906101000a900473ffffffffffffffffffffffffffffffffffffffff1673ffffffffffffffffffffffffffffffffffffffff163373ffffffffffffffffffffffffffffffffffffffff1614806125025750600760009054906101000a900473ffffffffffffffffffffffffffffffffffffffff1673ffffffffffffffffffffffffffffffffffffffff163373ffffffffffffffffffffffffffffffffffffffff16145b151561250d57600080fd5b6000600960006101000a81548160ff021916908315150217905550565b6040805190810160405280600381526020017f415653000000000000000000000000000000000000000000000000000000000081525081565b60006002600083815260200190815260200160002060009054906101000a900473ffffffffffffffffffffffffffffffffffffffff1673ffffffffffffffffffffffffffffffffffffffff168373ffffffffffffffffffffffffffffffffffffffff1614905092915050565b600073ffffffffffffffffffffffffffffffffffffffff168173ffffffffffffffffffffffffffffffffffffffff16141561268957600660009054906101000a900473ffffffffffffffffffffffffffffffffffffffff1673ffffffffffffffffffffffffffffffffffffffff166108fc3073ffffffffffffffffffffffffffffffffffffffff16319081150290604051600060405180830381858888f19350505050158015612683573d6000803e3d6000fd5b506126e8565b8073ffffffffffffffffffffffffffffffffffffffff166108fc3073ffffffffffffffffffffffffffffffffffffffff16319081150290604051600060405180830381858888f193505050501580156126e6573d6000803e3d6000fd5b505b50565b60008273ffffffffffffffffffffffffffffffffffffffff166004600084815260200190815260200160002060009054906101000a900473ffffffffffffffffffffffffffffffffffffffff1673ffffffffffffffffffffffffffffffffffffffff1614905092915050565b60008073ffffffffffffffffffffffffffffffffffffffff168273ffffffffffffffffffffffffffffffffffffffff1614159050919050565b600360008373ffffffffffffffffffffffffffffffffffffffff1673ffffffffffffffffffffffffffffffffffffffff16815260200190815260200160002060008154809291906001019190505550816002600083815260200190815260200160002060006101000a81548173ffffffffffffffffffffffffffffffffffffffff021916908373ffffffffffffffffffffffffffffffffffffffff160217905550600073ffffffffffffffffffffffffffffffffffffffff168373ffffffffffffffffffffffffffffffffffffffff161415156128ee57600360008473ffffffffffffffffffffffffffffffffffffffff1673ffffffffffffffffffffffffffffffffffffffff16815260200190815260200160002060008154809291906001900391905055506004600082815260200190815260200160002060006101000a81549073ffffffffffffffffffffffffffffffffffffffff02191690555b7fddf252ad1be2c89b69c2b068fc378daa952ba7f163c4a11628f55a4df523b3ef838383604051808473ffffffffffffffffffffffffffffffffffffffff1673ffffffffffffffffffffffffffffffffffffffff1681526020018373ffffffffffffffffffffffffffffffffffffffff1673ffffffffffffffffffffffffffffffffffffffff168152602001828152602001935050505060405180910390a1505050565b61299a612d58565b600060a0604051908101604052808981526020018867ffffffffffffffff1681526020018767ffffffffffffffff1681526020018681526020018481525091506001600a83908060018154018082558091505090600182039060005260206000209060050201600090919290919091506000820151816000019080519060200190612a26929190612d92565b506020820151816001015560408201518160020160006101000a81548167ffffffffffffffff021916908367ffffffffffffffff1602179055506060820151816003019080519060200190612a7c929190612d92565b506080820151816004015550500390508063ffffffff1681141515612aa057600080fd5b7fab4c31c027d380815babca7cb924d206a6c67d7ef5ffda0856f5fa0708338e8d81898989898960405180878152602001806020018667ffffffffffffffff1667ffffffffffffffff1681526020018567ffffffffffffffff1667ffffffffffffffff168152602001806020018473ffffffffffffffffffffffffffffffffffffffff1673ffffffffffffffffffffffffffffffffffffffff168152602001838103835288818151815260200191508051906020019080838360005b83811015612b77578082015181840152602081019050612b5c565b50505050905090810190601f168015612ba45780820380516001836020036101000a031916815260200191505b50838103825285818151815260200191508051906020019080838360005b83811015612bdd578082015181840152602081019050612bc2565b50505050905090810190601f168015612c0a5780820380516001836020036101000a031916815260200191505b509850505050505050505060405180910390a1826005600083815260200190815260200160002081905550612c4160008583612790565b5050505050505050565b6000808284811515612c5957fe5b0490508091505092915050565b6000806000841415612c7b5760009150612c9a565b8284029050828482811515612c8c57fe5b04141515612c9657fe5b8091505b5092915050565b6000808284019050838110151515612cb557fe5b8091505092915050565b6000828211151515612ccd57fe5b818303905092915050565b828054600181600116156101000203166002900490600052602060002090601f016020900481019282601f10612d1957805160ff1916838001178555612d47565b82800160010185558215612d47579182015b82811115612d46578251825591602001919060010190612d2b565b5b509050612d549190612e12565b5090565b60a0604051908101604052806060815260200160008152602001600067ffffffffffffffff16815260200160608152602001600081525090565b828054600181600116156101000203166002900490600052602060002090601f016020900481019282601f10612dd357805160ff1916838001178555612e01565b82800160010185558215612e01579182015b82811115612e00578251825591602001919060010190612de5565b5b509050612e0e9190612e12565b5090565b612e3491905b80821115612e30576000816000905550600101612e18565b5090565b905600a165627a7a72305820d851900bbf10e77d90adff1ba0b692712202e71fc7910465d8704d5c19c87d3d0029",
  "source": " \n\n\n\n\ncontract ERC721 {\n  \n  function approve(address _to, uint256 _tokenId) public;\n  function balanceOf(address _owner) public view returns (uint256 balance);\n  function implementsERC721() public pure returns (bool);\n  function ownerOf(uint256 _tokenId) public view returns (address addr);\n  function takeOwnership(uint256 _tokenId) public;\n  function totalSupply() public view returns (uint256 total);\n  function transferFrom(address _from, address _to, uint256 _tokenId) public;\n  function transfer(address _to, uint256 _tokenId) public;\n\n  event Transfer(address indexed from, address indexed to, uint256 tokenId);\n  event Approval(address indexed owner, address indexed approved, uint256 tokenId);\n\n  \n  \n  \n  \n  \n}\n\n\ncontract AVStarsToken is ERC721 {\n  using SafeMath for uint256;\n  \n\n  \n  event Birth(\n    uint256 tokenId, \n    string name, \n    uint64 satisfaction,\n    uint64 cooldownTime,\n    string slogan,\n    address owner);\n\n  \n  event TokenSold(\n    uint256 tokenId, \n    uint256 oldPrice, \n    uint256 newPrice, \n    address prevOwner, \n    address winner, \n    string name);\n\n  \n  \n  event Transfer(address from, address to, uint256 tokenId);\n\n  event MoreActivity(uint256 tokenId, address Owner, uint64 startTime, uint64 cooldownTime, uint256 _type);\n  event ChangeSlogan(string slogan);\n\n  \n\n  \n  string public constant NAME = \"AVStars\"; \n  string public constant SYMBOL = \"AVS\"; \n\n  uint256 private startingPrice = 0.3 ether;\n  uint256 private constant PROMO_CREATION_LIMIT = 30000;\n  uint256 private firstStepLimit =  1.6 ether;\n  \n\n  \n  \n  mapping (uint256 => address) public personIndexToOwner;\n\n  \n  \n  mapping (address => uint256) private ownershipTokenCount;\n\n  \n  \n  \n  mapping (uint256 => address) public personIndexToApproved;\n\n  \n  mapping (uint256 => uint256) private personIndexToPrice;\n\n\n  \n  address public ceoAddress;\n  address public cooAddress;\n  uint256 public promoCreatedCount;\n  bool isPaused;\n    \n\n  \n  struct Person {\n    string name;\n    uint256 satisfaction;\n    uint64 cooldownTime;\n    string slogan;\n    uint256 basePrice;\n  }\n\n  Person[] private persons;\n\n  \n  \n  modifier onlyCEO() {\n    require(msg.sender == ceoAddress);\n    _;\n  }\n\n  \n  modifier onlyCOO() {\n    require(msg.sender == cooAddress);\n    _;\n  }\n\n  \n  modifier onlyCLevel() {\n    require(\n      msg.sender == ceoAddress ||\n      msg.sender == cooAddress\n    );\n    _;\n  }\n\n  \n  function AVStarsToken() public {\n    ceoAddress = msg.sender;\n    cooAddress = msg.sender;\n    isPaused = false;\n  }\n\n  \n  \n  \n  \n  \n  \n  function approve(\n    address _to,\n    uint256 _tokenId\n  ) public {\n    \n    require(_owns(msg.sender, _tokenId));\n\n    personIndexToApproved[_tokenId] = _to;\n\n    Approval(msg.sender, _to, _tokenId);\n  }\n\n  \n  \n  \n  function balanceOf(address _owner) public view returns (uint256 balance) {\n    return ownershipTokenCount[_owner];\n  }\n\n  \n  function createPromoPerson(\n    address _owner, \n    string _name, \n    uint64 _satisfaction,\n    uint64 _cooldownTime,\n    string _slogan,\n    uint256 _price) public onlyCOO {\n    require(promoCreatedCount < PROMO_CREATION_LIMIT);\n\n    address personOwner = _owner;\n    if (personOwner == address(0)) {\n      personOwner = cooAddress;\n    }\n\n    if (_price <= 0) {\n      _price = startingPrice;\n    }\n\n    promoCreatedCount++;\n    _createPerson(\n      _name, \n      _satisfaction,\n      _cooldownTime,\n      _slogan,\n      personOwner, \n      _price);\n  }\n\n  \n  function createContractPerson(string _name) public onlyCOO {\n    _createPerson(\n      _name,\n      0,\n      uint64(now),\n      \"\", \n      address(this), \n      startingPrice);\n  }\n\n  \n  \n  function getPerson(uint256 _tokenId) public view returns (\n    string personName,\n    uint64 satisfaction,\n    uint64 cooldownTime,\n    string slogan,\n    uint256 basePrice,\n    uint256 sellingPrice,\n    address owner\n  ) {\n    Person storage person = persons[_tokenId];\n    personName = person.name;\n    satisfaction = uint64(person.satisfaction);\n    cooldownTime = uint64(person.cooldownTime);\n    slogan = person.slogan;\n    basePrice = person.basePrice;\n    sellingPrice = personIndexToPrice[_tokenId];\n    owner = personIndexToOwner[_tokenId];\n  }\n\n  function implementsERC721() public pure returns (bool) {\n    return true;\n  }\n\n  \n  function name() public pure returns (string) {\n    return NAME;\n  }\n\n  \n  function pauseGame() public onlyCLevel {\n      isPaused = true;\n  }\n  function unPauseGame() public onlyCLevel {\n      isPaused = false;\n  }\n  function GetIsPauded() public view returns(bool) {\n     return(isPaused);\n  }\n\n\n  \n  \n  \n  function ownerOf(uint256 _tokenId)\n    public\n    view\n    returns (address owner)\n  {\n    owner = personIndexToOwner[_tokenId];\n    require(owner != address(0));\n  }\n\n  function payout(address _to) public onlyCLevel {\n    _payout(_to);\n  }\n\n  \n  function purchase(uint256 _tokenId) public payable {\n    require(isPaused == false);\n    address oldOwner = personIndexToOwner[_tokenId];\n    address newOwner = msg.sender;\n\n    uint256 sellingPrice = personIndexToPrice[_tokenId];\n\n    \n    require(oldOwner != newOwner);\n    require(_addressNotNull(newOwner));\n    require(msg.value >= sellingPrice);\n\n    Person storage person = persons[_tokenId];\n    require(person.cooldownTime<uint64(now));\n    uint256 payment = sellingPrice.mul(95).div(100);\n    uint256 devCut = msg.value.sub(payment);\n\n    \n    if (sellingPrice < firstStepLimit) {\n      \n      person.basePrice = personIndexToPrice[_tokenId];\n      personIndexToPrice[_tokenId] = sellingPrice.mul(300).div(200);\n      \n    } else {\n      \n      person.satisfaction = person.satisfaction.mul(50).div(100);\n      person.basePrice = personIndexToPrice[_tokenId];\n      personIndexToPrice[_tokenId] = sellingPrice.mul(120).div(100);\n      person.cooldownTime = uint64(now + 15 minutes);\n    }\n\n    _transfer(oldOwner, newOwner, _tokenId);\n    if (oldOwner != address(this)) {\n      oldOwner.transfer(payment); \n    }\n    ceoAddress.transfer(devCut);\n    TokenSold(_tokenId, sellingPrice, personIndexToPrice[_tokenId], oldOwner, newOwner, persons[_tokenId].name);\n  }\n\n  function activity(uint256 _tokenId, uint256 _type) public payable {\n    require(isPaused == false);\n    require(personIndexToOwner[_tokenId] == msg.sender);\n    require(personIndexToPrice[_tokenId] >= 2000000000000000000);\n    require(_type <= 2);\n    uint256 _hours;\n\n    \n    if ( _type == 0 ) {\n      _hours = 6;\n    } else if (_type == 1) {\n      _hours = 12;\n    } else {\n      _hours = 48;\n    }\n\n    uint256 payment = personIndexToPrice[_tokenId].div(80).mul(_hours);\n    require(msg.value >= payment);\n    uint64 startTime;\n\n    Person storage person = persons[_tokenId];\n    \n    person.satisfaction += _hours.mul(1);\n    if (person.satisfaction > 100) {\n      person.satisfaction = 100;\n    }\n    uint256 newPrice;\n    person.basePrice = person.basePrice.add(payment);\n    newPrice = person.basePrice.mul(120+uint256(person.satisfaction)).div(100);\n    personIndexToPrice[_tokenId] = newPrice;\n    if (person.cooldownTime > now) {\n      startTime = person.cooldownTime;\n      person.cooldownTime = startTime +  uint64(_hours) * 1 hours;\n      \n    } else {\n      startTime = uint64(now);\n      person.cooldownTime = startTime+ uint64(_hours) * 1 hours;\n    }\n    ceoAddress.transfer(msg.value);\n    MoreActivity(_tokenId, msg.sender, startTime, person.cooldownTime, _type);\n  }\n\n  function modifySlogan(uint256 _tokenId, string _slogan) public payable {\n    require(personIndexToOwner[_tokenId]==msg.sender);\n    Person storage person = persons[_tokenId];\n    person.slogan = _slogan;\n    msg.sender.transfer(msg.value);\n    ChangeSlogan(person.slogan);\n  }\n\n  function priceOf(uint256 _tokenId) public view returns (uint256 price) {\n    return personIndexToPrice[_tokenId];\n  }\n\n  \n  \n  function setCEO(address _newCEO) public onlyCEO {\n    require(_newCEO != address(0));\n\n    ceoAddress = _newCEO;\n  }\n\n  \n  \n  function setCOO(address _newCOO) public onlyCEO {\n    require(_newCOO != address(0));\n\n    cooAddress = _newCOO;\n  }\n\n  \n  function symbol() public pure returns (string) {\n    return SYMBOL;\n  }\n\n  \n  \n  \n  function takeOwnership(uint256 _tokenId) public {\n    address newOwner = msg.sender;\n    address oldOwner = personIndexToOwner[_tokenId];\n\n    \n    require(_addressNotNull(newOwner));\n\n    \n    require(_approved(newOwner, _tokenId));\n\n    _transfer(oldOwner, newOwner, _tokenId);\n  }\n\n  \n  \n  \n  \n  \n  function tokensOfOwner(address _owner) public view returns(uint256[] ownerTokens) {\n    uint256 tokenCount = balanceOf(_owner);\n    if (tokenCount == 0) {\n        \n      return new uint256[](0);\n    } else {\n      uint256[] memory result = new uint256[](tokenCount);\n      uint256 totalPersons = totalSupply();\n      uint256 resultIndex = 0;\n\n      uint256 personId;\n      for (personId = 0; personId <= totalPersons; personId++) {\n        if (personIndexToOwner[personId] == _owner) {\n          result[resultIndex] = personId;\n          resultIndex++;\n        }\n      }\n      return result;\n    }\n  }\n\n  \n  \n  function totalSupply() public view returns (uint256 total) {\n    return persons.length;\n  }\n\n  \n  \n  \n  \n  function transfer(\n    address _to,\n    uint256 _tokenId\n  ) public {\n    require(_owns(msg.sender, _tokenId));\n    require(_addressNotNull(_to));\n\n    _transfer(msg.sender, _to, _tokenId);\n  }\n\n  \n  \n  \n  \n  \n  function transferFrom(\n    address _from,\n    address _to,\n    uint256 _tokenId\n  ) public {\n    require(_owns(_from, _tokenId));\n    require(_approved(_to, _tokenId));\n    require(_addressNotNull(_to));\n\n    _transfer(_from, _to, _tokenId);\n  }\n\n  \n  \n  function _addressNotNull(address _to) private pure returns (bool) {\n    return _to != address(0);\n  }\n\n  \n  function _approved(address _to, uint256 _tokenId) private view returns (bool) {\n    return personIndexToApproved[_tokenId] == _to;\n  }\n\n  \n  function _createPerson(\n    string _name,     \n    uint64 _satisfaction,\n    uint64 _cooldownTime,\n    string _slogan,\n    address _owner, \n    uint256 _basePrice) private {\n    Person memory _person = Person({\n      name: _name,\n      satisfaction: _satisfaction,\n      cooldownTime: _cooldownTime,\n      slogan:_slogan,\n      basePrice:_basePrice\n    });\n    uint256 newPersonId = persons.push(_person) - 1;\n\n    \n    \n    require(newPersonId == uint256(uint32(newPersonId)));\n\n    Birth(\n      newPersonId, \n      _name, \n      _satisfaction,\n      _cooldownTime,\n      _slogan,\n      _owner);\n\n    personIndexToPrice[newPersonId] = _basePrice;\n\n    \n    \n    _transfer(address(0), _owner, newPersonId);\n  }\n\n  \n  function _owns(address claimant, uint256 _tokenId) private view returns (bool) {\n    return claimant == personIndexToOwner[_tokenId];\n  }\n\n  \n  function _payout(address _to) private {\n    if (_to == address(0)) {\n      ceoAddress.transfer(this.balance);\n    } else {\n      _to.transfer(this.balance);\n    }\n  }\n\n  \n  function _transfer(address _from, address _to, uint256 _tokenId) private {\n    \n    ownershipTokenCount[_to]++;\n    \n    personIndexToOwner[_tokenId] = _to;\n\n    \n    if (_from != address(0)) {\n      ownershipTokenCount[_from]--;\n      \n      delete personIndexToApproved[_tokenId];\n    }\n\n    \n    Transfer(_from, _to, _tokenId);\n  }\n}\nlibrary SafeMath {\n\n  \n  function mul(uint256 a, uint256 b) internal pure returns (uint256) {\n    if (a == 0) {\n      return 0;\n    }\n    uint256 c = a * b;\n    assert(c / a == b);\n    return c;\n  }\n\n  \n  function div(uint256 a, uint256 b) internal pure returns (uint256) {\n    \n    uint256 c = a / b;\n    \n    return c;\n  }\n\n  \n  function sub(uint256 a, uint256 b) internal pure returns (uint256) {\n    assert(b <= a);\n    return a - b;\n  }\n\n  \n  function add(uint256 a, uint256 b) internal pure returns (uint256) {\n    uint256 c = a + b;\n    assert(c >= a);\n    return c;\n  }\n}",
  "sourcePath": "/home/XXX-1/smartrim-experiment/for-rlf/0x4fb718fdbf4a51d3fba11ea63309729b37ab76da/contracts/0x4fb718fdbf4a51d3fba11ea63309729b37ab76da.sol",
  "compiler": {
    "name": "solc",
    "version": "0.4.25+commit.59dbf8f1.Emscripten.clang"
  },
  "schemaVersion": "3.4.16",
  "updatedAt": "2025-08-14T03:53:45.511Z",
  "networkType": "ethereum",
  "devdoc": {
    "methods": {}
  },
  "userdoc": {
    "methods": {}
  }
}