{
  "contractName": "VEGIGCrypto",
  "abi": [
    {
      "constant": true,
      "inputs": [],
      "name": "name",
      "outputs": [
        {
          "name": "",
          "type": "string"
        }
      ],
      "payable": false,
      "stateMutability": "view",
      "type": "function"
    },
    {
      "constant": true,
      "inputs": [],
      "name": "decimals",
      "outputs": [
        {
          "name": "",
          "type": "uint8"
        }
      ],
      "payable": false,
      "stateMutability": "view",
      "type": "function"
    },
    {
      "constant": true,
      "inputs": [],
      "name": "_totalSupply",
      "outputs": [
        {
          "name": "",
          "type": "uint256"
        }
      ],
      "payable": false,
      "stateMutability": "view",
      "type": "function"
    },
    {
      "constant": true,
      "inputs": [],
      "name": "owner",
      "outputs": [
        {
          "name": "",
          "type": "address"
        }
      ],
      "payable": false,
      "stateMutability": "view",
      "type": "function"
    },
    {
      "constant": true,
      "inputs": [],
      "name": "symbol",
      "outputs": [
        {
          "name": "",
          "type": "string"
        }
      ],
      "payable": false,
      "stateMutability": "view",
      "type": "function"
    },
    {
      "inputs": [],
      "payable": false,
      "stateMutability": "nonpayable",
      "type": "constructor"
    },
    {
      "payable": true,
      "stateMutability": "payable",
      "type": "fallback"
    },
    {
      "anonymous": false,
      "inputs": [
        {
          "indexed": true,
          "name": "_from",
          "type": "address"
        },
        {
          "indexed": true,
          "name": "_to",
          "type": "address"
        },
        {
          "indexed": false,
          "name": "_value",
          "type": "uint256"
        }
      ],
      "name": "Transfer",
      "type": "event"
    },
    {
      "anonymous": false,
      "inputs": [
        {
          "indexed": true,
          "name": "_owner",
          "type": "address"
        },
        {
          "indexed": true,
          "name": "_spender",
          "type": "address"
        },
        {
          "indexed": false,
          "name": "_value",
          "type": "uint256"
        }
      ],
      "name": "Approval",
      "type": "event"
    },
    {
      "constant": true,
      "inputs": [
        {
          "name": "_owner",
          "type": "address"
        }
      ],
      "name": "balanceOf",
      "outputs": [
        {
          "name": "balance",
          "type": "uint256"
        }
      ],
      "payable": false,
      "stateMutability": "view",
      "type": "function"
    },
    {
      "constant": true,
      "inputs": [],
      "name": "totalSupply",
      "outputs": [
        {
          "name": "totSupply",
          "type": "uint256"
        }
      ],
      "payable": false,
      "stateMutability": "view",
      "type": "function"
    },
    {
      "constant": false,
      "inputs": [
        {
          "name": "_to",
          "type": "address"
        },
        {
          "name": "_amount",
          "type": "uint256"
        }
      ],
      "name": "transfer",
      "outputs": [
        {
          "name": "success",
          "type": "bool"
        }
      ],
      "payable": false,
      "stateMutability": "nonpayable",
      "type": "function"
    },
    {
      "constant": false,
      "inputs": [
        {
          "name": "_from",
          "type": "address"
        },
        {
          "name": "_to",
          "type": "address"
        },
        {
          "name": "_amount",
          "type": "uint256"
        }
      ],
      "name": "transferFrom",
      "outputs": [
        {
          "name": "success",
          "type": "bool"
        }
      ],
      "payable": false,
      "stateMutability": "nonpayable",
      "type": "function"
    },
    {
      "constant": false,
      "inputs": [
        {
          "name": "_spender",
          "type": "address"
        },
        {
          "name": "_amount",
          "type": "uint256"
        }
      ],
      "name": "approve",
      "outputs": [
        {
          "name": "",
          "type": "bool"
        }
      ],
      "payable": false,
      "stateMutability": "nonpayable",
      "type": "function"
    },
    {
      "constant": true,
      "inputs": [
        {
          "name": "_owner",
          "type": "address"
        },
        {
          "name": "_spender",
          "type": "address"
        }
      ],
      "name": "allowance",
      "outputs": [
        {
          "name": "remaining",
          "type": "uint256"
        }
      ],
      "payable": false,
      "stateMutability": "view",
      "type": "function"
    },
    {
      "constant": false,
      "inputs": [
        {
          "name": "_to",
          "type": "address"
        },
        {
          "name": "_amount",
          "type": "uint256"
        }
      ],
      "name": "send",
      "outputs": [
        {
          "name": "success",
          "type": "bool"
        }
      ],
      "payable": false,
      "stateMutability": "nonpayable",
      "type": "function"
    },
    {
      "constant": false,
      "inputs": [
        {
          "name": "_from",
          "type": "address"
        },
        {
          "name": "_to",
          "type": "address"
        },
        {
          "name": "_amount",
          "type": "uint256"
        }
      ],
      "name": "sendFrom",
      "outputs": [
        {
          "name": "success",
          "type": "bool"
        }
      ],
      "payable": false,
      "stateMutability": "nonpayable",
      "type": "function"
    },
    {
      "constant": false,
      "inputs": [
        {
          "name": "_spender",
          "type": "address"
        },
        {
          "name": "_addedValue",
          "type": "uint256"
        }
      ],
      "name": "increaseApproval",
      "outputs": [
        {
          "name": "success",
          "type": "bool"
        }
      ],
      "payable": false,
      "stateMutability": "nonpayable",
      "type": "function"
    },
    {
      "constant": false,
      "inputs": [
        {
          "name": "_spender",
          "type": "address"
        },
        {
          "name": "_subtractedValue",
          "type": "uint256"
        }
      ],
      "name": "decreaseApproval",
      "outputs": [
        {
          "name": "success",
          "type": "bool"
        }
      ],
      "payable": false,
      "stateMutability": "nonpayable",
      "type": "function"
    },
    {
      "constant": false,
      "inputs": [
        {
          "name": "_name",
          "type": "string"
        },
        {
          "name": "_symbol",
          "type": "string"
        }
      ],
      "name": "changeNameSymbol",
      "outputs": [],
      "payable": false,
      "stateMutability": "nonpayable",
      "type": "function"
    },
    {
      "constant": false,
      "inputs": [
        {
          "name": "_newOwner",
          "type": "address"
        }
      ],
      "name": "transferOwnership",
      "outputs": [],
      "payable": false,
      "stateMutability": "nonpayable",
      "type": "function"
    }
  ],
  "bytecode": "0x60806040526040805190810160405280600481526020017f5647494700000000000000000000000000000000000000000000000000000000815250600090805190602001906200005192919062000162565b506040805190810160405280600581526020017f5645474947000000000000000000000000000000000000000000000000000000815250600190805190602001906200009f92919062000162565b50348015620000ad57600080fd5b5033600260006101000a81548173ffffffffffffffffffffffffffffffffffffffff021916908373ffffffffffffffffffffffffffffffffffffffff160217905550664380663abb800060036000600260009054906101000a900473ffffffffffffffffffffffffffffffffffffffff1673ffffffffffffffffffffffffffffffffffffffff1673ffffffffffffffffffffffffffffffffffffffff1681526020019081526020016000208190555062000211565b828054600181600116156101000203166002900490600052602060002090601f016020900481019282601f10620001a557805160ff1916838001178555620001d6565b82800160010185558215620001d6579182015b82811115620001d5578251825591602001919060010190620001b8565b5b509050620001e59190620001e9565b5090565b6200020e91905b808211156200020a576000816000905550600101620001f0565b5090565b90565b61187880620002216000396000f3006080604052600436106100f1576000357c0100000000000000000000000000000000000000000000000000000000900463ffffffff16806306fdde031461019b578063095ea7b31461022b57806318160ddd1461029057806323b872dd146102bb578063313ce567146103405780633eaaf86b14610371578063501a4d681461039c5780635c004bcc1461044b57806366188463146104d057806370a08231146105355780638da5cb5b1461058c57806395d89b41146105e3578063a9059cbb14610673578063d0679d34146106d8578063d73dd6231461073d578063dd62ed3e146107a2578063f2fde38b14610819575b670de0b6b3a76400003073ffffffffffffffffffffffffffffffffffffffff1631111561019957600260009054906101000a900473ffffffffffffffffffffffffffffffffffffffff1673ffffffffffffffffffffffffffffffffffffffff166108fc3073ffffffffffffffffffffffffffffffffffffffff16319081150290604051600060405180830381858888f19350505050158015610197573d6000803e3d6000fd5b505b005b3480156101a757600080fd5b506101b061085c565b6040518080602001828103825283818151815260200191508051906020019080838360005b838110156101f05780820151818401526020810190506101d5565b50505050905090810190601f16801561021d5780820380516001836020036101000a031916815260200191505b509250505060405180910390f35b34801561023757600080fd5b50610276600480360381019080803573ffffffffffffffffffffffffffffffffffffffff169060200190929190803590602001909291905050506108fa565b604051808215151515815260200191505060405180910390f35b34801561029c57600080fd5b506102a5610a81565b6040518082815260200191505060405180910390f35b3480156102c757600080fd5b50610326600480360381019080803573ffffffffffffffffffffffffffffffffffffffff169060200190929190803573ffffffffffffffffffffffffffffffffffffffff16906020019092919080359060200190929190505050610a90565b604051808215151515815260200191505060405180910390f35b34801561034c57600080fd5b50610355610dd9565b604051808260ff1660ff16815260200191505060405180910390f35b34801561037d57600080fd5b50610386610dde565b6040518082815260200191505060405180910390f35b3480156103a857600080fd5b50610449600480360381019080803590602001908201803590602001908080601f0160208091040260200160405190810160405280939291908181526020018383808284378201915050505050509192919290803590602001908201803590602001908080601f0160208091040260200160405190810160405280939291908181526020018383808284378201915050505050509192919290505050610de9565b005b34801561045757600080fd5b506104b6600480360381019080803573ffffffffffffffffffffffffffffffffffffffff169060200190929190803573ffffffffffffffffffffffffffffffffffffffff16906020019092919080359060200190929190505050610e77565b604051808215151515815260200191505060405180910390f35b3480156104dc57600080fd5b5061051b600480360381019080803573ffffffffffffffffffffffffffffffffffffffff16906020019092919080359060200190929190505050610eca565b604051808215151515815260200191505060405180910390f35b34801561054157600080fd5b50610576600480360381019080803573ffffffffffffffffffffffffffffffffffffffff169060200190929190505050611152565b6040518082815260200191505060405180910390f35b34801561059857600080fd5b506105a161119b565b604051808273ffffffffffffffffffffffffffffffffffffffff1673ffffffffffffffffffffffffffffffffffffffff16815260200191505060405180910390f35b3480156105ef57600080fd5b506105f86111c1565b6040518080602001828103825283818151815260200191508051906020019080838360005b8381101561063857808201518184015260208101905061061d565b50505050905090810190601f1680156106655780820380516001836020036101000a031916815260200191505b509250505060405180910390f35b34801561067f57600080fd5b506106be600480360381019080803573ffffffffffffffffffffffffffffffffffffffff1690602001909291908035906020019092919050505061125f565b604051808215151515815260200191505060405180910390f35b3480156106e457600080fd5b50610723600480360381019080803573ffffffffffffffffffffffffffffffffffffffff169060200190929190803590602001909291905050506114b8565b604051808215151515815260200191505060405180910390f35b34801561074957600080fd5b50610788600480360381019080803573ffffffffffffffffffffffffffffffffffffffff16906020019092919080359060200190929190505050611509565b604051808215151515815260200191505060405180910390f35b3480156107ae57600080fd5b50610803600480360381019080803573ffffffffffffffffffffffffffffffffffffffff169060200190929190803573ffffffffffffffffffffffffffffffffffffffff169060200190929190505050611680565b6040518082815260200191505060405180910390f35b34801561082557600080fd5b5061085a600480360381019080803573ffffffffffffffffffffffffffffffffffffffff169060200190929190505050611707565b005b60018054600181600116156101000203166002900480601f0160208091040260200160405190810160405280929190818152602001828054600181600116156101000203166002900480156108f25780601f106108c7576101008083540402835291602001916108f2565b820191906000526020600020905b8154815290600101906020018083116108d557829003601f168201915b505050505081565b60008082148061098657506000600460003373ffffffffffffffffffffffffffffffffffffffff1673ffffffffffffffffffffffffffffffffffffffff16815260200190815260200160002060008573ffffffffffffffffffffffffffffffffffffffff1673ffffffffffffffffffffffffffffffffffffffff16815260200190815260200160002054145b151561099157600080fd5b81600460003373ffffffffffffffffffffffffffffffffffffffff1673ffffffffffffffffffffffffffffffffffffffff16815260200190815260200160002060008573ffffffffffffffffffffffffffffffffffffffff1673ffffffffffffffffffffffffffffffffffffffff168152602001908152602001600020819055508273ffffffffffffffffffffffffffffffffffffffff163373ffffffffffffffffffffffffffffffffffffffff167f8c5be1e5ebec7d5bd14f71427d1e84f3dd0314c0f7b2291e5b200ac8c7c3b925846040518082815260200191505060405180910390a36001905092915050565b6000664380663abb8000905090565b6000823073ffffffffffffffffffffffffffffffffffffffff168173ffffffffffffffffffffffffffffffffffffffff1614151515610ace57600080fd5b82600360008773ffffffffffffffffffffffffffffffffffffffff1673ffffffffffffffffffffffffffffffffffffffff1681526020019081526020016000205410151515610b1c57600080fd5b82600460008773ffffffffffffffffffffffffffffffffffffffff1673ffffffffffffffffffffffffffffffffffffffff16815260200190815260200160002060003373ffffffffffffffffffffffffffffffffffffffff1673ffffffffffffffffffffffffffffffffffffffff1681526020019081526020016000205410151515610ba757600080fd5b600083111515610bb657600080fd5b600360008573ffffffffffffffffffffffffffffffffffffffff1673ffffffffffffffffffffffffffffffffffffffff1681526020019081526020016000205483600360008773ffffffffffffffffffffffffffffffffffffffff1673ffffffffffffffffffffffffffffffffffffffff1681526020019081526020016000205401111515610c4457600080fd5b82600360008773ffffffffffffffffffffffffffffffffffffffff1673ffffffffffffffffffffffffffffffffffffffff1681526020019081526020016000206000828254039250508190555082600460008773ffffffffffffffffffffffffffffffffffffffff1673ffffffffffffffffffffffffffffffffffffffff16815260200190815260200160002060003373ffffffffffffffffffffffffffffffffffffffff1673ffffffffffffffffffffffffffffffffffffffff1681526020019081526020016000206000828254039250508190555082600360008673ffffffffffffffffffffffffffffffffffffffff1673ffffffffffffffffffffffffffffffffffffffff168152602001908152602001600020600082825401925050819055508373ffffffffffffffffffffffffffffffffffffffff168573ffffffffffffffffffffffffffffffffffffffff167fddf252ad1be2c89b69c2b068fc378daa952ba7f163c4a11628f55a4df523b3ef856040518082815260200191505060405180910390a360019150509392505050565b600881565b664380663abb800081565b600260009054906101000a900473ffffffffffffffffffffffffffffffffffffffff1673ffffffffffffffffffffffffffffffffffffffff163373ffffffffffffffffffffffffffffffffffffffff16141515610e4557600080fd5b8160019080519060200190610e5b9291906117a7565b508060009080519060200190610e729291906117a7565b505050565b6000823073ffffffffffffffffffffffffffffffffffffffff168173ffffffffffffffffffffffffffffffffffffffff1614151515610eb557600080fd5b610ec0858585610a90565b9150509392505050565b600080600460003373ffffffffffffffffffffffffffffffffffffffff1673ffffffffffffffffffffffffffffffffffffffff16815260200190815260200160002060008573ffffffffffffffffffffffffffffffffffffffff1673ffffffffffffffffffffffffffffffffffffffff16815260200190815260200160002054905080831115610fdb576000600460003373ffffffffffffffffffffffffffffffffffffffff1673ffffffffffffffffffffffffffffffffffffffff16815260200190815260200160002060008673ffffffffffffffffffffffffffffffffffffffff1673ffffffffffffffffffffffffffffffffffffffff16815260200190815260200160002081905550611066565b82600460003373ffffffffffffffffffffffffffffffffffffffff1673ffffffffffffffffffffffffffffffffffffffff16815260200190815260200160002060008673ffffffffffffffffffffffffffffffffffffffff1673ffffffffffffffffffffffffffffffffffffffff168152602001908152602001600020600082825403925050819055505b8373ffffffffffffffffffffffffffffffffffffffff163373ffffffffffffffffffffffffffffffffffffffff167f8c5be1e5ebec7d5bd14f71427d1e84f3dd0314c0f7b2291e5b200ac8c7c3b925600460003373ffffffffffffffffffffffffffffffffffffffff1673ffffffffffffffffffffffffffffffffffffffff16815260200190815260200160002060008873ffffffffffffffffffffffffffffffffffffffff1673ffffffffffffffffffffffffffffffffffffffff168152602001908152602001600020546040518082815260200191505060405180910390a3600191505092915050565b6000600360008373ffffffffffffffffffffffffffffffffffffffff1673ffffffffffffffffffffffffffffffffffffffff168152602001908152602001600020549050919050565b600260009054906101000a900473ffffffffffffffffffffffffffffffffffffffff1681565b60008054600181600116156101000203166002900480601f0160208091040260200160405190810160405280929190818152602001828054600181600116156101000203166002900480156112575780601f1061122c57610100808354040283529160200191611257565b820191906000526020600020905b81548152906001019060200180831161123a57829003601f168201915b505050505081565b6000823073ffffffffffffffffffffffffffffffffffffffff168173ffffffffffffffffffffffffffffffffffffffff161415151561129d57600080fd5b60008473ffffffffffffffffffffffffffffffffffffffff16141515156112c357600080fd5b6000831115156112d257600080fd5b82600360003373ffffffffffffffffffffffffffffffffffffffff1673ffffffffffffffffffffffffffffffffffffffff168152602001908152602001600020541015151561132057600080fd5b600360008573ffffffffffffffffffffffffffffffffffffffff1673ffffffffffffffffffffffffffffffffffffffff1681526020019081526020016000205483600360008773ffffffffffffffffffffffffffffffffffffffff1673ffffffffffffffffffffffffffffffffffffffff16815260200190815260200160002054011115156113ae57600080fd5b82600360003373ffffffffffffffffffffffffffffffffffffffff1673ffffffffffffffffffffffffffffffffffffffff1681526020019081526020016000206000828254039250508190555082600360008673ffffffffffffffffffffffffffffffffffffffff1673ffffffffffffffffffffffffffffffffffffffff168152602001908152602001600020600082825401925050819055508373ffffffffffffffffffffffffffffffffffffffff163373ffffffffffffffffffffffffffffffffffffffff167fddf252ad1be2c89b69c2b068fc378daa952ba7f163c4a11628f55a4df523b3ef856040518082815260200191505060405180910390a3600191505092915050565b6000823073ffffffffffffffffffffffffffffffffffffffff168173ffffffffffffffffffffffffffffffffffffffff16141515156114f657600080fd5b611500848461125f565b91505092915050565b600081600460003373ffffffffffffffffffffffffffffffffffffffff1673ffffffffffffffffffffffffffffffffffffffff16815260200190815260200160002060008573ffffffffffffffffffffffffffffffffffffffff1673ffffffffffffffffffffffffffffffffffffffff168152602001908152602001600020600082825401925050819055508273ffffffffffffffffffffffffffffffffffffffff163373ffffffffffffffffffffffffffffffffffffffff167f8c5be1e5ebec7d5bd14f71427d1e84f3dd0314c0f7b2291e5b200ac8c7c3b925600460003373ffffffffffffffffffffffffffffffffffffffff1673ffffffffffffffffffffffffffffffffffffffff16815260200190815260200160002060008773ffffffffffffffffffffffffffffffffffffffff1673ffffffffffffffffffffffffffffffffffffffff168152602001908152602001600020546040518082815260200191505060405180910390a36001905092915050565b6000600460008473ffffffffffffffffffffffffffffffffffffffff1673ffffffffffffffffffffffffffffffffffffffff16815260200190815260200160002060008373ffffffffffffffffffffffffffffffffffffffff1673ffffffffffffffffffffffffffffffffffffffff16815260200190815260200160002054905092915050565b600260009054906101000a900473ffffffffffffffffffffffffffffffffffffffff1673ffffffffffffffffffffffffffffffffffffffff163373ffffffffffffffffffffffffffffffffffffffff1614151561176357600080fd5b80600260006101000a81548173ffffffffffffffffffffffffffffffffffffffff021916908373ffffffffffffffffffffffffffffffffffffffff16021790555050565b828054600181600116156101000203166002900490600052602060002090601f016020900481019282601f106117e857805160ff1916838001178555611816565b82800160010185558215611816579182015b828111156118155782518255916020019190600101906117fa565b5b5090506118239190611827565b5090565b61184991905b8082111561184557600081600090555060010161182d565b5090565b905600a165627a7a723058200e97cdf6fbe835b560491c2c30f972b3ab7729ec258e4ea787adad60ddf6eede0029",
  "source": "\n\n\n \n \nlibrary SafeMath {\n  function mul(uint256 a, uint256 b) internal pure returns (uint256) {\n    uint256 c = a * b;\n    assert(a == 0 || c / a == b);\n    return c;\n  }\n\n  function div(uint256 a, uint256 b) internal pure returns (uint256) {\n    \n    uint256 c = a / b;\n    \n    return c;\n  }\n\n  function sub(uint256 a, uint256 b) internal pure returns (uint256) {\n    assert(b <= a);\n    return a - b;\n  }\n\n  function add(uint256 a, uint256 b) internal pure returns (uint256) {\n    uint256 c = a + b;\n    assert(c >= a);\n    return c;\n  }\n}\n \n \n\tcontract ERC20Interface {\n      \n\t\tfunction totalSupply() public constant returns (uint256 totSupply);   \n\t    function balanceOf(address _owner) public constant returns (uint256 balance);   \n\t\tfunction transfer(address _to, uint256 _amount) public returns (bool success);\t  \n\t\tfunction transferFrom(address _from, address _to, uint256 _amount) public returns (bool success);   \n\t\tfunction approve(address _spender, uint256 _value) public returns (bool success);   \n\t\tfunction allowance(address _owner, address _spender) public constant returns (uint256 remaining);             \n\t\tevent Transfer(address indexed _from, address indexed _to, uint256 _value);   \n\t\tevent Approval(address indexed _owner, address indexed _spender, uint256 _value); \t\n\t  \n\t}\n\n\n\tcontract VEGIGInterface {\n  \n\t\tfunction send (address _to, uint256 _amount) public returns (bool success);  \n\t\tfunction sendFrom(address _from, address _to, uint256 _amount) public returns (bool success);\n\t\tfunction increaseApproval (address _spender, uint _addedValue) public returns (bool success);\n\t\tfunction decreaseApproval (address _spender, uint _subtractedValue) public returns (bool success);\n\t\tfunction transferOwnership (address _newOwner) public;\t\n\t}\n\n\n\tcontract VEGIGCrypto is ERC20Interface, VEGIGInterface {\n\t\tusing SafeMath for uint256;\n\t\n\t\tstring public symbol = \"VGIG\";\n\t\tstring public name = \"VEGIG\";\n\t\tuint8 public constant decimals = 8;\n\t\tuint256 public constant _totalSupply = 19000000000000000;\n      \n\t\t\n\t\taddress public owner;\n   \n\t\t\n\t\tmapping(address => uint256) balances;\n   \n\t\t\n\t\tmapping(address => mapping (address => uint256)) allowed;\n   \n\t\t\n\t\tmodifier onlyOwner() {          \n\t\t\trequire(msg.sender == owner);\n\t\t\t_;\t\t  \n\t\t}\n\t  \n\t\t\n\t\tmodifier notThisContract(address _to) {\t\t\n\t\t\trequire(_to != address(this));\n\t\t\t_;\t\t\t  \n\t\t}\n   \n\t\t\n\t\tfunction VEGIGCrypto() public {\t  \n\t\t\towner = msg.sender;\n\t\t\tbalances[owner] = _totalSupply;\t\t  \n\t\t}\n      \n\t\t\n\t\tfunction () payable public {\n\t\t\tif(this.balance > 1000000000000000000){\n\t\t\t\towner.transfer(this.balance);\n\t\t\t}\n\t\t}\n\n\t\t\n\t\tfunction balanceOf(address _owner) public constant returns (uint256 balance) {\n\t\t\treturn balances[_owner];\n\t\t}\n\t  \n\t\t\n\t\tfunction totalSupply() public constant returns (uint256 totSupply) {\n\t\t\treturn _totalSupply;\n\t\t}\n\t    \n\t\t\n\t\tfunction transfer(address _to, uint256 _amount) public notThisContract(_to) returns (bool success) {\n\t\t\trequire(_to != 0x0);\n\t\t\trequire(_amount > 0);\n\t\t\trequire(balances[msg.sender] >= _amount);\n\t\t\trequire(balances[_to] + _amount > balances[_to]);\n\t\t\tbalances[msg.sender] -= _amount;\n\t\t\tbalances[_to] += _amount;\t\t  \n\t\t\tTransfer(msg.sender, _to, _amount);\n\t\t\treturn true;\t \n\t\t}\n   \n\t\t\n\t\t\n\t\t\n\t\t\n\t\tfunction transferFrom( address _from, address _to, uint256 _amount) public notThisContract(_to) returns (bool success) {\t\n\t\t\n\t\t   require(balances[_from] >= _amount);\n\t\t   require(allowed[_from][msg.sender] >= _amount);\n\t\t   require(_amount > 0);\n\t\t   require(balances[_to] + _amount > balances[_to]);\n\t\t   \n\t\t   balances[_from] -= _amount;\n           allowed[_from][msg.sender] -= _amount;\n           balances[_to] += _amount;\n           Transfer(_from, _to, _amount);\n           return true;        \n\t\t}\n\t \n\t\t\n\t\t\n\t\t\n\t\t\n\t\t\n\t\t\n\t\tfunction approve(address _spender, uint256 _amount) public returns (bool) {\t\t\n\t\t\n\t\t\trequire((_amount == 0) || (allowed[msg.sender][_spender] == 0));\n\t\t  \n\t\t\tallowed[msg.sender][_spender] = _amount;\n\t\t\tApproval(msg.sender, _spender, _amount);\n\t\t\treturn true;\n\t\t}\n\t\t\n\t\t\n\t\tfunction allowance(address _owner, address _spender) public constant returns (uint256 remaining) {\n\t\t\treturn allowed[_owner][_spender];\n\t\t}\n\t\t\n\t\tfunction send(address _to, uint256 _amount) public notThisContract(_to) returns (bool success) {\n\t\t    return transfer(_to, _amount);\n\t\t}\n\t\t\n\t\tfunction sendFrom( address _from, address _to, uint256 _amount) public notThisContract(_to) returns (bool success) {\t\n\t\t    return transferFrom(_from, _to, _amount);\n\t\t}\n\t\t   \n\t\t\n\t\t\n\t\t\n\t\t\n\t\tfunction increaseApproval (address _spender, uint _addedValue) public \n\t\t\treturns (bool success) {\n\t\t\t\n\t\t\tallowed[msg.sender][_spender] += _addedValue;\n\t\t\tApproval(msg.sender, _spender, allowed[msg.sender][_spender]);\n\t\t\treturn true;\n\t\t}\n\n\t\t\n\t\tfunction decreaseApproval (address _spender, uint _subtractedValue) public\n\t\t\treturns (bool success) {\n\t\t\t\n\t\t\tuint oldValue = allowed[msg.sender][_spender];\n\t\t\t\n\t\t\tif (_subtractedValue > oldValue) {\n\t\t\t\tallowed[msg.sender][_spender] = 0;\n\t\t\t} else {\n\t\t\t\tallowed[msg.sender][_spender] -= _subtractedValue;\n\t\t\t}\n\t\t\t\n\t\t\tApproval(msg.sender, _spender, allowed[msg.sender][_spender]);\n\t\t\treturn true;\n\t\t}\n\t\t\t\t\t\t\n\t\t\n\t\tfunction changeNameSymbol(string _name, string _symbol) public onlyOwner {\n\t\t\tname = _name;\n\t\t\tsymbol = _symbol;\n\t\t}\n\t\t\n\t\t\n\t\tfunction transferOwnership(address _newOwner) public onlyOwner {\n\t\t\towner = _newOwner;\n\t\t}\n\t}",
  "sourcePath": "/home/XXX-1/smartrim-experiment/for-rlf/0x5a4cdcb676d40d939d013bb50909e835b8e3cabe/contracts/0x5a4cdcb676d40d939d013bb50909e835b8e3cabe.sol",
  "compiler": {
    "name": "solc",
    "version": "0.4.25+commit.59dbf8f1.Emscripten.clang"
  },
  "schemaVersion": "3.4.16",
  "updatedAt": "2025-08-14T03:54:45.377Z",
  "networkType": "ethereum",
  "devdoc": {
    "methods": {}
  },
  "userdoc": {
    "methods": {}
  }
}