{
  "contractName": "Ownable",
  "abi": [
    {
      "constant": true,
      "inputs": [],
      "name": "Owner",
      "outputs": [
        {
          "name": "",
          "type": "address"
        }
      ],
      "payable": false,
      "stateMutability": "view",
      "type": "function"
    },
    {
      "constant": false,
      "inputs": [],
      "name": "kill",
      "outputs": [],
      "payable": false,
      "stateMutability": "nonpayable",
      "type": "function"
    }
  ],
  "bytecode": "0x608060405234801561001057600080fd5b506101cb806100206000396000f30060806040526004361061004c576000357c0100000000000000000000000000000000000000000000000000000000900463ffffffff16806341c0e1b514610051578063b4a99a4e14610068575b600080fd5b34801561005d57600080fd5b506100666100bf565b005b34801561007457600080fd5b5061007d61017a565b604051808273ffffffffffffffffffffffffffffffffffffffff1673ffffffffffffffffffffffffffffffffffffffff16815260200191505060405180910390f35b6000809054906101000a900473ffffffffffffffffffffffffffffffffffffffff1673ffffffffffffffffffffffffffffffffffffffff163373ffffffffffffffffffffffffffffffffffffffff1614151561011a57600080fd5b60003073ffffffffffffffffffffffffffffffffffffffff163114151561014057600080fd5b6000809054906101000a900473ffffffffffffffffffffffffffffffffffffffff1673ffffffffffffffffffffffffffffffffffffffff16ff5b6000809054906101000a900473ffffffffffffffffffffffffffffffffffffffff16815600a165627a7a7230582080e45cd816cbe73010a6137f196db5f4308f32144b38cd866ff325d69c987d6a0029",
  "source": "\n\n\ncontract Ownable {\n    address public Owner;\n\n    modifier onlyOwner {\n        require(msg.sender == Owner);\n        _;\n    }\n    \n    function kill() public onlyOwner {\n        require(this.balance == 0);\n        selfdestruct(Owner);\n    }\n}\n\ncontract Lockable is Ownable {\n    bool public Locked;\n    \n    modifier isUnlocked {\n        require(!Locked);\n        _;\n    }\n    function Lockable() { Locked = false; }\n    function lock() public onlyOwner { Locked = true; }\n    function unlock() public onlyOwner { Locked = false; }\n}\n\ncontract Transferable is Lockable {\n    address public PendingOwner;\n    \n    modifier onlyPendingOwner {\n        require(msg.sender == PendingOwner);\n        _;\n    }\n\n    event OwnershipTransferPending(address indexed Owner, address indexed PendingOwner);\n    event AcceptedOwnership(address indexed NewOwner);\n\n    function transferOwnership(address _new) public onlyOwner {\n        PendingOwner = _new;\n        OwnershipTransferPending(Owner, PendingOwner);\n    }\n\n    function acceptOwnership() public onlyPendingOwner {\n        Owner = msg.sender;\n        PendingOwner = address(0x0);\n        AcceptedOwnership(Owner);\n    }\n}\n\ncontract Vault is Transferable {\n    \n    event Initialized(address owner);\n    event LockDate(uint oldDate, uint newDate);\n    event Deposit(address indexed depositor, uint amount);\n    event Withdrawal(address indexed withdrawer, uint amount);\n    \n    mapping (address => uint) public deposits;\n    uint public lockDate;\n\n    function init() public payable isUnlocked {\n        Owner = msg.sender;\n        lockDate = 0;\n        Initialized(msg.sender);\n    }\n    \n    function SetLockDate(uint newDate) public payable onlyOwner {\n        LockDate(lockDate, newDate);\n        lockDate = newDate;\n    }\n    \n    function() public payable { deposit(); }\n\n    function deposit() public payable {\n        if (msg.value >= 0.1 ether) {\n            deposits[msg.sender] += msg.value;\n            Deposit(msg.sender, msg.value);\n        }\n    }\n\n    function withdraw(uint amount) public payable onlyOwner {\n        if (lockDate > 0 && now >= lockDate) {\n            uint max = deposits[msg.sender];\n            if (amount <= max && max > 0) {\n                msg.sender.transfer(amount);\n                Withdrawal(msg.sender, amount);\n            }\n        }\n    }\n}",
  "sourcePath": "/home/XXX-1/smartrim-experiment/for-rlf/0xfd6ecfe1cc8cc5a0e49961b34c20ba6577c60df8/contracts/0xfd6ecfe1cc8cc5a0e49961b34c20ba6577c60df8.sol",
  "compiler": {
    "name": "solc",
    "version": "0.4.25+commit.59dbf8f1.Emscripten.clang"
  },
  "schemaVersion": "3.4.16",
  "updatedAt": "2025-08-14T04:11:25.092Z",
  "devdoc": {
    "methods": {}
  },
  "userdoc": {
    "methods": {}
  }
}