{
  "contractName": "EtherGame",
  "abi": [
    {
      "constant": false,
      "inputs": [],
      "name": "Test1",
      "outputs": [
        {
          "name": "",
          "type": "address"
        }
      ],
      "payable": false,
      "stateMutability": "nonpayable",
      "type": "function"
    },
    {
      "constant": false,
      "inputs": [],
      "name": "Test2",
      "outputs": [
        {
          "name": "",
          "type": "address"
        }
      ],
      "payable": false,
      "stateMutability": "nonpayable",
      "type": "function"
    },
    {
      "constant": false,
      "inputs": [],
      "name": "Test3",
      "outputs": [
        {
          "name": "",
          "type": "uint256"
        }
      ],
      "payable": false,
      "stateMutability": "nonpayable",
      "type": "function"
    },
    {
      "constant": false,
      "inputs": [],
      "name": "Test4",
      "outputs": [
        {
          "name": "",
          "type": "uint256"
        }
      ],
      "payable": false,
      "stateMutability": "nonpayable",
      "type": "function"
    },
    {
      "constant": false,
      "inputs": [],
      "name": "Kill",
      "outputs": [],
      "payable": false,
      "stateMutability": "nonpayable",
      "type": "function"
    }
  ],
  "bytecode": "0x608060405234801561001057600080fd5b506101fa806100206000396000f30060806040526004361061006d576000357c0100000000000000000000000000000000000000000000000000000000900463ffffffff168063218444ab14610072578063b15addec146100c9578063bb1af82b14610120578063be26733c1461014b578063bffdf3f114610162575b600080fd5b34801561007e57600080fd5b5061008761018d565b604051808273ffffffffffffffffffffffffffffffffffffffff1673ffffffffffffffffffffffffffffffffffffffff16815260200191505060405180910390f35b3480156100d557600080fd5b506100de610195565b604051808273ffffffffffffffffffffffffffffffffffffffff1673ffffffffffffffffffffffffffffffffffffffff16815260200191505060405180910390f35b34801561012c57600080fd5b5061013561019d565b6040518082815260200191505060405180910390f35b34801561015757600080fd5b506101606101a9565b005b34801561016e57600080fd5b506101776101c2565b6040518082815260200191505060405180910390f35b600033905090565b600033905090565b60008080549050905090565b3373ffffffffffffffffffffffffffffffffffffffff16ff5b600080805490509050905600a165627a7a72305820430fe436e8f5ebbe998049550ec27c09abd6f8b7c8c25c2c42ba00e5a5a630050029",
  "source": "\n\ncontract EtherGame \n{\n    uint[] a;\n    function Test1() public returns(address)\n    {\n        return msg.sender;\n    }\n    function Test2() returns(address)\n    {\n        return msg.sender;\n    }\n    function Test3() public returns(uint)\n    {\n        return a.length;\n    }\n    function Test4() returns(uint)\n    {\n        return a.length;\n    }\n    function Kill()\n    {\n        selfdestruct(msg.sender);\n    }\n}",
  "sourcePath": "/home/XXX-1/smartrim-experiment/for-rlf/0x8a630b2d1e25f1ad066feaa090f5bdb63a1451cc/contracts/0x8a630b2d1e25f1ad066feaa090f5bdb63a1451cc.sol",
  "compiler": {
    "name": "solc",
    "version": "0.4.25+commit.59dbf8f1.Emscripten.clang"
  },
  "schemaVersion": "3.4.16",
  "updatedAt": "2025-08-14T04:00:00.371Z",
  "networkType": "ethereum",
  "devdoc": {
    "methods": {}
  },
  "userdoc": {
    "methods": {}
  }
}