{
  "contractName": "ReynaFoundationCoin",
  "abi": [
    {
      "constant": true,
      "inputs": [],
      "name": "passiveAirdropTokensAllocation",
      "outputs": [
        {
          "name": "",
          "type": "uint256"
        }
      ],
      "payable": false,
      "stateMutability": "view",
      "type": "function"
    },
    {
      "constant": true,
      "inputs": [],
      "name": "sellPrice",
      "outputs": [
        {
          "name": "",
          "type": "uint256"
        }
      ],
      "payable": false,
      "stateMutability": "view",
      "type": "function"
    },
    {
      "constant": true,
      "inputs": [],
      "name": "passiveAirdropTokensSold",
      "outputs": [
        {
          "name": "",
          "type": "uint256"
        }
      ],
      "payable": false,
      "stateMutability": "view",
      "type": "function"
    },
    {
      "constant": false,
      "inputs": [],
      "name": "acceptOwnership",
      "outputs": [],
      "payable": false,
      "stateMutability": "nonpayable",
      "type": "function"
    },
    {
      "constant": true,
      "inputs": [],
      "name": "buyPrice",
      "outputs": [
        {
          "name": "",
          "type": "uint256"
        }
      ],
      "payable": false,
      "stateMutability": "view",
      "type": "function"
    },
    {
      "constant": true,
      "inputs": [],
      "name": "owner",
      "outputs": [
        {
          "name": "",
          "type": "address"
        }
      ],
      "payable": false,
      "stateMutability": "view",
      "type": "function"
    },
    {
      "constant": true,
      "inputs": [],
      "name": "airdropFee",
      "outputs": [
        {
          "name": "",
          "type": "uint256"
        }
      ],
      "payable": false,
      "stateMutability": "view",
      "type": "function"
    },
    {
      "constant": true,
      "inputs": [
        {
          "name": "",
          "type": "address"
        }
      ],
      "name": "frozenAccount",
      "outputs": [
        {
          "name": "",
          "type": "bool"
        }
      ],
      "payable": false,
      "stateMutability": "view",
      "type": "function"
    },
    {
      "constant": true,
      "inputs": [],
      "name": "safeguard",
      "outputs": [
        {
          "name": "",
          "type": "bool"
        }
      ],
      "payable": false,
      "stateMutability": "view",
      "type": "function"
    },
    {
      "constant": true,
      "inputs": [],
      "name": "passiveAirdropStatus",
      "outputs": [
        {
          "name": "",
          "type": "bool"
        }
      ],
      "payable": false,
      "stateMutability": "view",
      "type": "function"
    },
    {
      "constant": true,
      "inputs": [],
      "name": "whitelistingStatus",
      "outputs": [
        {
          "name": "",
          "type": "bool"
        }
      ],
      "payable": false,
      "stateMutability": "view",
      "type": "function"
    },
    {
      "constant": true,
      "inputs": [],
      "name": "maxSupply",
      "outputs": [
        {
          "name": "",
          "type": "uint256"
        }
      ],
      "payable": false,
      "stateMutability": "view",
      "type": "function"
    },
    {
      "constant": true,
      "inputs": [
        {
          "name": "",
          "type": "uint256"
        },
        {
          "name": "",
          "type": "address"
        }
      ],
      "name": "airdropClaimed",
      "outputs": [
        {
          "name": "",
          "type": "bool"
        }
      ],
      "payable": false,
      "stateMutability": "view",
      "type": "function"
    },
    {
      "constant": true,
      "inputs": [
        {
          "name": "",
          "type": "address"
        }
      ],
      "name": "whitelisted",
      "outputs": [
        {
          "name": "",
          "type": "bool"
        }
      ],
      "payable": false,
      "stateMutability": "view",
      "type": "function"
    },
    {
      "constant": false,
      "inputs": [
        {
          "name": "_newOwner",
          "type": "address"
        }
      ],
      "name": "transferOwnership",
      "outputs": [],
      "payable": false,
      "stateMutability": "nonpayable",
      "type": "function"
    },
    {
      "constant": true,
      "inputs": [],
      "name": "airdropAmount",
      "outputs": [
        {
          "name": "",
          "type": "uint256"
        }
      ],
      "payable": false,
      "stateMutability": "view",
      "type": "function"
    },
    {
      "inputs": [],
      "payable": false,
      "stateMutability": "nonpayable",
      "type": "constructor"
    },
    {
      "payable": true,
      "stateMutability": "payable",
      "type": "fallback"
    },
    {
      "anonymous": false,
      "inputs": [
        {
          "indexed": true,
          "name": "from",
          "type": "address"
        },
        {
          "indexed": true,
          "name": "to",
          "type": "address"
        },
        {
          "indexed": false,
          "name": "value",
          "type": "uint256"
        }
      ],
      "name": "Transfer",
      "type": "event"
    },
    {
      "anonymous": false,
      "inputs": [
        {
          "indexed": true,
          "name": "from",
          "type": "address"
        },
        {
          "indexed": false,
          "name": "value",
          "type": "uint256"
        }
      ],
      "name": "Burn",
      "type": "event"
    },
    {
      "anonymous": false,
      "inputs": [
        {
          "indexed": false,
          "name": "target",
          "type": "address"
        },
        {
          "indexed": false,
          "name": "frozen",
          "type": "bool"
        }
      ],
      "name": "FrozenAccounts",
      "type": "event"
    },
    {
      "anonymous": false,
      "inputs": [
        {
          "indexed": true,
          "name": "from",
          "type": "address"
        },
        {
          "indexed": true,
          "name": "spender",
          "type": "address"
        },
        {
          "indexed": false,
          "name": "value",
          "type": "uint256"
        }
      ],
      "name": "Approval",
      "type": "event"
    },
    {
      "anonymous": false,
      "inputs": [
        {
          "indexed": true,
          "name": "_from",
          "type": "address"
        },
        {
          "indexed": true,
          "name": "_to",
          "type": "address"
        }
      ],
      "name": "OwnershipTransferred",
      "type": "event"
    },
    {
      "constant": true,
      "inputs": [],
      "name": "name",
      "outputs": [
        {
          "name": "",
          "type": "string"
        }
      ],
      "payable": false,
      "stateMutability": "pure",
      "type": "function"
    },
    {
      "constant": true,
      "inputs": [],
      "name": "symbol",
      "outputs": [
        {
          "name": "",
          "type": "string"
        }
      ],
      "payable": false,
      "stateMutability": "pure",
      "type": "function"
    },
    {
      "constant": true,
      "inputs": [],
      "name": "decimals",
      "outputs": [
        {
          "name": "",
          "type": "uint256"
        }
      ],
      "payable": false,
      "stateMutability": "pure",
      "type": "function"
    },
    {
      "constant": true,
      "inputs": [],
      "name": "totalSupply",
      "outputs": [
        {
          "name": "",
          "type": "uint256"
        }
      ],
      "payable": false,
      "stateMutability": "view",
      "type": "function"
    },
    {
      "constant": true,
      "inputs": [
        {
          "name": "user",
          "type": "address"
        }
      ],
      "name": "balanceOf",
      "outputs": [
        {
          "name": "",
          "type": "uint256"
        }
      ],
      "payable": false,
      "stateMutability": "view",
      "type": "function"
    },
    {
      "constant": true,
      "inputs": [
        {
          "name": "owner",
          "type": "address"
        },
        {
          "name": "spender",
          "type": "address"
        }
      ],
      "name": "allowance",
      "outputs": [
        {
          "name": "",
          "type": "uint256"
        }
      ],
      "payable": false,
      "stateMutability": "view",
      "type": "function"
    },
    {
      "constant": false,
      "inputs": [
        {
          "name": "_to",
          "type": "address"
        },
        {
          "name": "_value",
          "type": "uint256"
        }
      ],
      "name": "transfer",
      "outputs": [
        {
          "name": "success",
          "type": "bool"
        }
      ],
      "payable": false,
      "stateMutability": "nonpayable",
      "type": "function"
    },
    {
      "constant": false,
      "inputs": [
        {
          "name": "_from",
          "type": "address"
        },
        {
          "name": "_to",
          "type": "address"
        },
        {
          "name": "_value",
          "type": "uint256"
        }
      ],
      "name": "transferFrom",
      "outputs": [
        {
          "name": "success",
          "type": "bool"
        }
      ],
      "payable": false,
      "stateMutability": "nonpayable",
      "type": "function"
    },
    {
      "constant": false,
      "inputs": [
        {
          "name": "_spender",
          "type": "address"
        },
        {
          "name": "_value",
          "type": "uint256"
        }
      ],
      "name": "approve",
      "outputs": [
        {
          "name": "success",
          "type": "bool"
        }
      ],
      "payable": false,
      "stateMutability": "nonpayable",
      "type": "function"
    },
    {
      "constant": false,
      "inputs": [
        {
          "name": "spender",
          "type": "address"
        },
        {
          "name": "value",
          "type": "uint256"
        }
      ],
      "name": "increase_allowance",
      "outputs": [
        {
          "name": "",
          "type": "bool"
        }
      ],
      "payable": false,
      "stateMutability": "nonpayable",
      "type": "function"
    },
    {
      "constant": false,
      "inputs": [
        {
          "name": "spender",
          "type": "address"
        },
        {
          "name": "value",
          "type": "uint256"
        }
      ],
      "name": "decrease_allowance",
      "outputs": [
        {
          "name": "",
          "type": "bool"
        }
      ],
      "payable": false,
      "stateMutability": "nonpayable",
      "type": "function"
    },
    {
      "constant": false,
      "inputs": [
        {
          "name": "_value",
          "type": "uint256"
        }
      ],
      "name": "burn",
      "outputs": [
        {
          "name": "success",
          "type": "bool"
        }
      ],
      "payable": false,
      "stateMutability": "nonpayable",
      "type": "function"
    },
    {
      "constant": false,
      "inputs": [
        {
          "name": "_from",
          "type": "address"
        },
        {
          "name": "_value",
          "type": "uint256"
        }
      ],
      "name": "burnFrom",
      "outputs": [
        {
          "name": "success",
          "type": "bool"
        }
      ],
      "payable": false,
      "stateMutability": "nonpayable",
      "type": "function"
    },
    {
      "constant": false,
      "inputs": [
        {
          "name": "target",
          "type": "address"
        },
        {
          "name": "freeze",
          "type": "bool"
        }
      ],
      "name": "freezeAccount",
      "outputs": [],
      "payable": false,
      "stateMutability": "nonpayable",
      "type": "function"
    },
    {
      "constant": false,
      "inputs": [
        {
          "name": "target",
          "type": "address"
        },
        {
          "name": "mintedAmount",
          "type": "uint256"
        }
      ],
      "name": "mintToken",
      "outputs": [],
      "payable": false,
      "stateMutability": "nonpayable",
      "type": "function"
    },
    {
      "constant": false,
      "inputs": [
        {
          "name": "tokenAmount",
          "type": "uint256"
        }
      ],
      "name": "manualWithdrawTokens",
      "outputs": [],
      "payable": false,
      "stateMutability": "nonpayable",
      "type": "function"
    },
    {
      "constant": false,
      "inputs": [],
      "name": "manualWithdrawEther",
      "outputs": [],
      "payable": false,
      "stateMutability": "nonpayable",
      "type": "function"
    },
    {
      "constant": false,
      "inputs": [],
      "name": "changeSafeguardStatus",
      "outputs": [],
      "payable": false,
      "stateMutability": "nonpayable",
      "type": "function"
    },
    {
      "constant": false,
      "inputs": [
        {
          "name": "passiveAirdropTokensAllocation_",
          "type": "uint256"
        },
        {
          "name": "airdropAmount_",
          "type": "uint256"
        }
      ],
      "name": "startNewPassiveAirDrop",
      "outputs": [],
      "payable": false,
      "stateMutability": "nonpayable",
      "type": "function"
    },
    {
      "constant": false,
      "inputs": [],
      "name": "stopPassiveAirDropCompletely",
      "outputs": [],
      "payable": false,
      "stateMutability": "nonpayable",
      "type": "function"
    },
    {
      "constant": false,
      "inputs": [],
      "name": "claimPassiveAirdrop",
      "outputs": [
        {
          "name": "",
          "type": "bool"
        }
      ],
      "payable": true,
      "stateMutability": "payable",
      "type": "function"
    },
    {
      "constant": false,
      "inputs": [
        {
          "name": "newAmount",
          "type": "uint256"
        }
      ],
      "name": "changePassiveAirdropAmount",
      "outputs": [],
      "payable": false,
      "stateMutability": "nonpayable",
      "type": "function"
    },
    {
      "constant": true,
      "inputs": [
        {
          "name": "_address",
          "type": "address"
        }
      ],
      "name": "isContract",
      "outputs": [
        {
          "name": "",
          "type": "bool"
        }
      ],
      "payable": false,
      "stateMutability": "view",
      "type": "function"
    },
    {
      "constant": false,
      "inputs": [
        {
          "name": "newFee",
          "type": "uint256"
        }
      ],
      "name": "updateAirdropFee",
      "outputs": [],
      "payable": false,
      "stateMutability": "nonpayable",
      "type": "function"
    },
    {
      "constant": false,
      "inputs": [
        {
          "name": "recipients",
          "type": "address[]"
        },
        {
          "name": "tokenAmount",
          "type": "uint256[]"
        }
      ],
      "name": "airdropACTIVE",
      "outputs": [
        {
          "name": "",
          "type": "bool"
        }
      ],
      "payable": false,
      "stateMutability": "nonpayable",
      "type": "function"
    },
    {
      "constant": false,
      "inputs": [],
      "name": "changeWhitelistingStatus",
      "outputs": [],
      "payable": false,
      "stateMutability": "nonpayable",
      "type": "function"
    },
    {
      "constant": false,
      "inputs": [
        {
          "name": "userAddress",
          "type": "address"
        }
      ],
      "name": "whitelistUser",
      "outputs": [],
      "payable": false,
      "stateMutability": "nonpayable",
      "type": "function"
    },
    {
      "constant": false,
      "inputs": [
        {
          "name": "userAddresses",
          "type": "address[]"
        }
      ],
      "name": "whitelistManyUsers",
      "outputs": [],
      "payable": false,
      "stateMutability": "nonpayable",
      "type": "function"
    },
    {
      "constant": false,
      "inputs": [
        {
          "name": "newSellPrice",
          "type": "uint256"
        },
        {
          "name": "newBuyPrice",
          "type": "uint256"
        }
      ],
      "name": "setPrices",
      "outputs": [],
      "payable": false,
      "stateMutability": "nonpayable",
      "type": "function"
    },
    {
      "constant": false,
      "inputs": [],
      "name": "buyTokens",
      "outputs": [],
      "payable": true,
      "stateMutability": "payable",
      "type": "function"
    },
    {
      "constant": false,
      "inputs": [
        {
          "name": "amount",
          "type": "uint256"
        }
      ],
      "name": "sellTokens",
      "outputs": [],
      "payable": false,
      "stateMutability": "nonpayable",
      "type": "function"
    }
  ],
  "bytecode": "0x60806040526012600a0a64e8990a46000260025566b1a2bc2ec50000600d5534801561002a57600080fd5b50336000806101000a81548173ffffffffffffffffffffffffffffffffffffffff021916908373ffffffffffffffffffffffffffffffffffffffff1602179055506000809054906101000a900473ffffffffffffffffffffffffffffffffffffffff1673ffffffffffffffffffffffffffffffffffffffff16600073ffffffffffffffffffffffffffffffffffffffff167f8be0079c531659141344cd1fd0a4f28419497f9722a3daafe3b4186f6b6457e060405160405180910390a3600254600460008060009054906101000a900473ffffffffffffffffffffffffffffffffffffffff1673ffffffffffffffffffffffffffffffffffffffff1673ffffffffffffffffffffffffffffffffffffffff168152602001908152602001600020819055506000809054906101000a900473ffffffffffffffffffffffffffffffffffffffff1673ffffffffffffffffffffffffffffffffffffffff16600073ffffffffffffffffffffffffffffffffffffffff167fddf252ad1be2c89b69c2b068fc378daa952ba7f163c4a11628f55a4df523b3ef6002546040518082815260200191505060405180910390a36132bf806101e66000396000f30060806040526004361061023b576000357c0100000000000000000000000000000000000000000000000000000000900463ffffffff16806305fefda71461024557806306fdde031461027c578063095ea7b31461030c57806310254fd714610371578063162790551461039c57806318160ddd146103f757806323b872dd14610422578063313ce567146104a757806342966c68146104d257806346a68092146105175780634a4c560d146105395780634b7503341461057c5780634bec8335146105a757806356140a60146105be5780635954c8c5146105f55780636c11bcd31461060c5780636cf8a50b146106395780636ece08ac1461066457806370a08231146106c957806375ee19081461072057806379ba50971461078657806379c650681461079d57806379cc6790146107ea5780637ec69c501461084f57806382aade08146108665780638620410b146108cb5780638da5cb5b146108f6578063908e3c931461094d57806390a114031461097a57806395d89b41146109a75780639862445514610a37578063a9059cbb14610a62578063a972f67314610ac7578063b414d4b614610b88578063b57dbdc614610be3578063b806775314610c12578063bc1cfd4914610c29578063bd694af214610c58578063d0febe4c14610c87578063d5abeb0114610c91578063d7cb851714610cbc578063d936547e14610d21578063dd62ed3e14610d7c578063e724529c14610df3578063f2fde38b14610e42578063fbde8d7514610e85578063fc2ea8a514610eb2575b610243610edd565b005b34801561025157600080fd5b5061027a6004803603810190808035906020019092919080359060200190929190505050610ef4565b005b34801561028857600080fd5b50610291610f61565b6040518080602001828103825283818151815260200191508051906020019080838360005b838110156102d15780820151818401526020810190506102b6565b50505050905090810190601f1680156102fe5780820380516001836020036101000a031916815260200191505b509250505060405180910390f35b34801561031857600080fd5b50610357600480360381019080803573ffffffffffffffffffffffffffffffffffffffff16906020019092919080359060200190929190505050610f9e565b604051808215151515815260200191505060405180910390f35b34801561037d57600080fd5b506103866110ac565b6040518082815260200191505060405180910390f35b3480156103a857600080fd5b506103dd600480360381019080803573ffffffffffffffffffffffffffffffffffffffff1690602001909291905050506110b2565b604051808215151515815260200191505060405180910390f35b34801561040357600080fd5b5061040c6110cb565b6040518082815260200191505060405180910390f35b34801561042e57600080fd5b5061048d600480360381019080803573ffffffffffffffffffffffffffffffffffffffff169060200190929190803573ffffffffffffffffffffffffffffffffffffffff169060200190929190803590602001909291905050506110d5565b604051808215151515815260200191505060405180910390f35b3480156104b357600080fd5b506104bc6111fc565b6040518082815260200191505060405180910390f35b3480156104de57600080fd5b506104fd60048036038101908080359060200190929190505050611205565b604051808215151515815260200191505060405180910390f35b61051f611390565b604051808215151515815260200191505060405180910390f35b34801561054557600080fd5b5061057a600480360381019080803573ffffffffffffffffffffffffffffffffffffffff1690602001909291905050506117b5565b005b34801561058857600080fd5b506105916118c9565b6040518082815260200191505060405180910390f35b3480156105b357600080fd5b506105bc6118cf565b005b3480156105ca57600080fd5b506105f36004803603810190808035906020019092919080359060200190929190505050611984565b005b34801561060157600080fd5b5061060a611a0c565b005b34801561061857600080fd5b5061063760048036038101908080359060200190929190505050611ae8565b005b34801561064557600080fd5b5061064e611b7c565b6040518082815260200191505060405180910390f35b34801561067057600080fd5b506106af600480360381019080803573ffffffffffffffffffffffffffffffffffffffff16906020019092919080359060200190929190505050611b82565b604051808215151515815260200191505060405180910390f35b3480156106d557600080fd5b5061070a600480360381019080803573ffffffffffffffffffffffffffffffffffffffff169060200190929190505050611db9565b6040518082815260200191505060405180910390f35b34801561072c57600080fd5b5061078460048036038101908080359060200190820180359060200190808060200260200160405190810160405280939291908181526020018383602002808284378201915050505050509192919290505050611e02565b005b34801561079257600080fd5b5061079b611f8d565b005b3480156107a957600080fd5b506107e8600480360381019080803573ffffffffffffffffffffffffffffffffffffffff1690602001909291908035906020019092919050505061212c565b005b3480156107f657600080fd5b50610835600480360381019080803573ffffffffffffffffffffffffffffffffffffffff1690602001909291908035906020019092919050505061235e565b604051808215151515815260200191505060405180910390f35b34801561085b57600080fd5b506108646125f9565b005b34801561087257600080fd5b506108b1600480360381019080803573ffffffffffffffffffffffffffffffffffffffff169060200190929190803590602001909291905050506126ae565b604051808215151515815260200191505060405180910390f35b3480156108d757600080fd5b506108e06128e5565b6040518082815260200191505060405180910390f35b34801561090257600080fd5b5061090b6128eb565b604051808273ffffffffffffffffffffffffffffffffffffffff1673ffffffffffffffffffffffffffffffffffffffff16815260200191505060405180910390f35b34801561095957600080fd5b5061097860048036038101908080359060200190929190505050612910565b005b34801561098657600080fd5b506109a560048036038101908080359060200190929190505050612975565b005b3480156109b357600080fd5b506109bc6129da565b6040518080602001828103825283818151815260200191508051906020019080838360005b838110156109fc5780820151818401526020810190506109e1565b50505050905090810190601f168015610a295780820380516001836020036101000a031916815260200191505b509250505060405180910390f35b348015610a4357600080fd5b50610a4c612a17565b6040518082815260200191505060405180910390f35b348015610a6e57600080fd5b50610aad600480360381019080803573ffffffffffffffffffffffffffffffffffffffff16906020019092919080359060200190929190505050612a1d565b604051808215151515815260200191505060405180910390f35b348015610ad357600080fd5b50610b6e6004803603810190808035906020019082018035906020019080806020026020016040519081016040528093929190818152602001838360200280828437820191505050505050919291929080359060200190820180359060200190808060200260200160405190810160405280939291908181526020018383602002808284378201915050505050509192919290505050612a34565b604051808215151515815260200191505060405180910390f35b348015610b9457600080fd5b50610bc9600480360381019080803573ffffffffffffffffffffffffffffffffffffffff169060200190929190505050612b15565b604051808215151515815260200191505060405180910390f35b348015610bef57600080fd5b50610bf8612b35565b604051808215151515815260200191505060405180910390f35b348015610c1e57600080fd5b50610c27612b48565b005b348015610c3557600080fd5b50610c3e612be2565b604051808215151515815260200191505060405180910390f35b348015610c6457600080fd5b50610c6d612bf5565b604051808215151515815260200191505060405180910390f35b610c8f610edd565b005b348015610c9d57600080fd5b50610ca6612c08565b6040518082815260200191505060405180910390f35b348015610cc857600080fd5b50610d0760048036038101908080359060200190929190803573ffffffffffffffffffffffffffffffffffffffff169060200190929190505050612c17565b604051808215151515815260200191505060405180910390f35b348015610d2d57600080fd5b50610d62600480360381019080803573ffffffffffffffffffffffffffffffffffffffff169060200190929190505050612c46565b604051808215151515815260200191505060405180910390f35b348015610d8857600080fd5b50610ddd600480360381019080803573ffffffffffffffffffffffffffffffffffffffff169060200190929190803573ffffffffffffffffffffffffffffffffffffffff169060200190929190505050612c66565b6040518082815260200191505060405180910390f35b348015610dff57600080fd5b50610e40600480360381019080803573ffffffffffffffffffffffffffffffffffffffff169060200190929190803515159060200190929190505050612ced565b005b348015610e4e57600080fd5b50610e83600480360381019080803573ffffffffffffffffffffffffffffffffffffffff169060200190929190505050612e12565b005b348015610e9157600080fd5b50610eb060048036038101908080359060200190929190505050612e56565b005b348015610ebe57600080fd5b50610ec7612ee0565b6040518082815260200191505060405180910390f35b600060115434029050610ef1303383612ee6565b50565b6000809054906101000a900473ffffffffffffffffffffffffffffffffffffffff1673ffffffffffffffffffffffffffffffffffffffff163373ffffffffffffffffffffffffffffffffffffffff16141515610f4f57600080fd5b81601081905550806011819055505050565b60606040805190810160405280601581526020017f5265796e6120466f756e646174696f6e20436f696e0000000000000000000000815250905090565b6000600360009054906101000a900460ff16151515610fbc57600080fd5b81600560003373ffffffffffffffffffffffffffffffffffffffff1673ffffffffffffffffffffffffffffffffffffffff16815260200190815260200160002060008573ffffffffffffffffffffffffffffffffffffffff1673ffffffffffffffffffffffffffffffffffffffff168152602001908152602001600020819055508273ffffffffffffffffffffffffffffffffffffffff163373ffffffffffffffffffffffffffffffffffffffff167f8c5be1e5ebec7d5bd14f71427d1e84f3dd0314c0f7b2291e5b200ac8c7c3b925846040518082815260200191505060405180910390a36001905092915050565b60085481565b600080823b905060008163ffffffff1611915050919050565b6000600254905090565b600061116682600560008773ffffffffffffffffffffffffffffffffffffffff1673ffffffffffffffffffffffffffffffffffffffff16815260200190815260200160002060003373ffffffffffffffffffffffffffffffffffffffff1673ffffffffffffffffffffffffffffffffffffffff1681526020019081526020016000205461318490919063ffffffff16565b600560008673ffffffffffffffffffffffffffffffffffffffff1673ffffffffffffffffffffffffffffffffffffffff16815260200190815260200160002060003373ffffffffffffffffffffffffffffffffffffffff1673ffffffffffffffffffffffffffffffffffffffff168152602001908152602001600020819055506111f1848484612ee6565b600190509392505050565b60006012905090565b6000600360009054906101000a900460ff1615151561122357600080fd5b61127582600460003373ffffffffffffffffffffffffffffffffffffffff1673ffffffffffffffffffffffffffffffffffffffff1681526020019081526020016000205461318490919063ffffffff16565b600460003373ffffffffffffffffffffffffffffffffffffffff1673ffffffffffffffffffffffffffffffffffffffff168152602001908152602001600020819055506112cd8260025461318490919063ffffffff16565b6002819055503373ffffffffffffffffffffffffffffffffffffffff167fcc16f5dbb4873280815c1ee09dbd06736cffcc184412cf7a71a0fdb75d397ca5836040518082815260200191505060405180910390a2600073ffffffffffffffffffffffffffffffffffffffff163373ffffffffffffffffffffffffffffffffffffffff167fddf252ad1be2c89b69c2b068fc378daa952ba7f163c4a11628f55a4df523b3ef846040518082815260200191505060405180910390a360019050919050565b60008060095411151561140b576040517f08c379a000000000000000000000000000000000000000000000000000000000815260040180806020018281038252601d8152602001807f546f6b656e20616d6f756e74206d757374206e6f74206265207a65726f00000081525060200191505060405180910390fd5b600760009054906101000a900460ff16151561148f576040517f08c379a00000000000000000000000000000000000000000000000000000000081526004018080602001828103825260168152602001807f4169722064726f70206973206e6f74206163746976650000000000000000000081525060200191505060405180910390fd5b600854600a541115151561150b576040517f08c379a00000000000000000000000000000000000000000000000000000000081526004018080602001828103825260118152602001807f4169722064726f7020736f6c64206f757400000000000000000000000000000081525060200191505060405180910390fd5b600b6000600c54815260200190815260200160002060003373ffffffffffffffffffffffffffffffffffffffff1673ffffffffffffffffffffffffffffffffffffffff16815260200190815260200160002060009054906101000a900460ff161515156115e0576040517f08c379a000000000000000000000000000000000000000000000000000000000815260040180806020018281038252601d8152602001807f7573657220636c61696d6564206169722064726f7020616c726561647900000081525060200191505060405180910390fd5b6115e9336110b2565b151515611684576040517f08c379a000000000000000000000000000000000000000000000000000000000815260040180806020018281038252602d8152602001807f4e6f20636f6e7472616374206164647265737320616c6c6f77656420746f206381526020017f6c61696d206169722064726f700000000000000000000000000000000000000081525060400191505060405180910390fd5b600d543410151515611724576040517f08c379a00000000000000000000000000000000000000000000000000000000081526004018080602001828103825260268152602001807f4e6f7420656e6f75676820657468657220746f20636c61696d2074686973206181526020017f697264726f70000000000000000000000000000000000000000000000000000081525060400191505060405180910390fd5b6117313033600954612ee6565b600954600a600082825401925050819055506001600b6000600c54815260200190815260200160002060003373ffffffffffffffffffffffffffffffffffffffff1673ffffffffffffffffffffffffffffffffffffffff16815260200190815260200160002060006101000a81548160ff0219169083151502179055506001905090565b6000809054906101000a900473ffffffffffffffffffffffffffffffffffffffff1673ffffffffffffffffffffffffffffffffffffffff163373ffffffffffffffffffffffffffffffffffffffff1614151561181057600080fd5b60011515600e60009054906101000a900460ff16151514151561183257600080fd5b600073ffffffffffffffffffffffffffffffffffffffff168173ffffffffffffffffffffffffffffffffffffffff161415151561186e57600080fd5b6001600f60008373ffffffffffffffffffffffffffffffffffffffff1673ffffffffffffffffffffffffffffffffffffffff16815260200190815260200160002060006101000a81548160ff02191690831515021790555050565b60105481565b6000809054906101000a900473ffffffffffffffffffffffffffffffffffffffff1673ffffffffffffffffffffffffffffffffffffffff163373ffffffffffffffffffffffffffffffffffffffff1614151561192a57600080fd5b60001515600360009054906101000a900460ff1615151415611966576001600360006101000a81548160ff021916908315150217905550611982565b6000600360006101000a81548160ff0219169083151502179055505b565b6000809054906101000a900473ffffffffffffffffffffffffffffffffffffffff1673ffffffffffffffffffffffffffffffffffffffff163373ffffffffffffffffffffffffffffffffffffffff161415156119df57600080fd5b81600881905550806009819055506001600760006101000a81548160ff0219169083151502179055505050565b6000809054906101000a900473ffffffffffffffffffffffffffffffffffffffff1673ffffffffffffffffffffffffffffffffffffffff163373ffffffffffffffffffffffffffffffffffffffff16141515611a6757600080fd5b6000809054906101000a900473ffffffffffffffffffffffffffffffffffffffff1673ffffffffffffffffffffffffffffffffffffffff166108fc3073ffffffffffffffffffffffffffffffffffffffff16319081150290604051600060405180830381858888f19350505050158015611ae5573d6000803e3d6000fd5b50565b60006012600a0a6010548302811515611afd57fe5b049050803073ffffffffffffffffffffffffffffffffffffffff163110151515611b2657600080fd5b611b31333084612ee6565b3373ffffffffffffffffffffffffffffffffffffffff166108fc829081150290604051600060405180830381858888f19350505050158015611b77573d6000803e3d6000fd5b505050565b600a5481565b60008073ffffffffffffffffffffffffffffffffffffffff168373ffffffffffffffffffffffffffffffffffffffff1614151515611bbf57600080fd5b611c4e82600560003373ffffffffffffffffffffffffffffffffffffffff1673ffffffffffffffffffffffffffffffffffffffff16815260200190815260200160002060008673ffffffffffffffffffffffffffffffffffffffff1673ffffffffffffffffffffffffffffffffffffffff1681526020019081526020016000205461318490919063ffffffff16565b600560003373ffffffffffffffffffffffffffffffffffffffff1673ffffffffffffffffffffffffffffffffffffffff16815260200190815260200160002060008573ffffffffffffffffffffffffffffffffffffffff1673ffffffffffffffffffffffffffffffffffffffff168152602001908152602001600020819055508273ffffffffffffffffffffffffffffffffffffffff163373ffffffffffffffffffffffffffffffffffffffff167f8c5be1e5ebec7d5bd14f71427d1e84f3dd0314c0f7b2291e5b200ac8c7c3b925600560003373ffffffffffffffffffffffffffffffffffffffff1673ffffffffffffffffffffffffffffffffffffffff16815260200190815260200160002060008773ffffffffffffffffffffffffffffffffffffffff1673ffffffffffffffffffffffffffffffffffffffff168152602001908152602001600020546040518082815260200191505060405180910390a36001905092915050565b6000600460008373ffffffffffffffffffffffffffffffffffffffff1673ffffffffffffffffffffffffffffffffffffffff168152602001908152602001600020549050919050565b6000806000809054906101000a900473ffffffffffffffffffffffffffffffffffffffff1673ffffffffffffffffffffffffffffffffffffffff163373ffffffffffffffffffffffffffffffffffffffff16141515611e6057600080fd5b60011515600e60009054906101000a900460ff161515141515611e8257600080fd5b8251915060968211151515611eff576040517f08c379a00000000000000000000000000000000000000000000000000000000081526004018080602001828103825260128152602001807f546f6f206d616e7920616464726573736573000000000000000000000000000081525060200191505060405180910390fd5b600090505b81811015611f88576001600f60008584815181101515611f2057fe5b9060200190602002015173ffffffffffffffffffffffffffffffffffffffff1673ffffffffffffffffffffffffffffffffffffffff16815260200190815260200160002060006101000a81548160ff0219169083151502179055508080600101915050611f04565b505050565b600160009054906101000a900473ffffffffffffffffffffffffffffffffffffffff1673ffffffffffffffffffffffffffffffffffffffff163373ffffffffffffffffffffffffffffffffffffffff16141515611fe957600080fd5b600160009054906101000a900473ffffffffffffffffffffffffffffffffffffffff1673ffffffffffffffffffffffffffffffffffffffff166000809054906101000a900473ffffffffffffffffffffffffffffffffffffffff1673ffffffffffffffffffffffffffffffffffffffff167f8be0079c531659141344cd1fd0a4f28419497f9722a3daafe3b4186f6b6457e060405160405180910390a3600160009054906101000a900473ffffffffffffffffffffffffffffffffffffffff166000806101000a81548173ffffffffffffffffffffffffffffffffffffffff021916908373ffffffffffffffffffffffffffffffffffffffff1602179055506000600160006101000a81548173ffffffffffffffffffffffffffffffffffffffff021916908373ffffffffffffffffffffffffffffffffffffffff160217905550565b6000809054906101000a900473ffffffffffffffffffffffffffffffffffffffff1673ffffffffffffffffffffffffffffffffffffffff163373ffffffffffffffffffffffffffffffffffffffff1614151561218757600080fd5b6012600a0a64e8990a4600026121a88260025461320990919063ffffffff16565b11151515612244576040517f08c379a00000000000000000000000000000000000000000000000000000000081526004018080602001828103825260248152602001807f43616e6e6f74204d696e74206d6f7265207468616e206d6178696d756d20737581526020017f70706c790000000000000000000000000000000000000000000000000000000081525060400191505060405180910390fd5b61229681600460008573ffffffffffffffffffffffffffffffffffffffff1673ffffffffffffffffffffffffffffffffffffffff1681526020019081526020016000205461320990919063ffffffff16565b600460008473ffffffffffffffffffffffffffffffffffffffff1673ffffffffffffffffffffffffffffffffffffffff168152602001908152602001600020819055506122ee8160025461320990919063ffffffff16565b6002819055508173ffffffffffffffffffffffffffffffffffffffff16600073ffffffffffffffffffffffffffffffffffffffff167fddf252ad1be2c89b69c2b068fc378daa952ba7f163c4a11628f55a4df523b3ef836040518082815260200191505060405180910390a35050565b6000600360009054906101000a900460ff1615151561237c57600080fd5b6123ce82600460008673ffffffffffffffffffffffffffffffffffffffff1673ffffffffffffffffffffffffffffffffffffffff1681526020019081526020016000205461318490919063ffffffff16565b600460008573ffffffffffffffffffffffffffffffffffffffff1673ffffffffffffffffffffffffffffffffffffffff168152602001908152602001600020819055506124a082600560008673ffffffffffffffffffffffffffffffffffffffff1673ffffffffffffffffffffffffffffffffffffffff16815260200190815260200160002060003373ffffffffffffffffffffffffffffffffffffffff1673ffffffffffffffffffffffffffffffffffffffff1681526020019081526020016000205461318490919063ffffffff16565b600560008573ffffffffffffffffffffffffffffffffffffffff1673ffffffffffffffffffffffffffffffffffffffff16815260200190815260200160002060003373ffffffffffffffffffffffffffffffffffffffff1673ffffffffffffffffffffffffffffffffffffffff168152602001908152602001600020819055506125358260025461318490919063ffffffff16565b6002819055508273ffffffffffffffffffffffffffffffffffffffff167fcc16f5dbb4873280815c1ee09dbd06736cffcc184412cf7a71a0fdb75d397ca5836040518082815260200191505060405180910390a2600073ffffffffffffffffffffffffffffffffffffffff168373ffffffffffffffffffffffffffffffffffffffff167fddf252ad1be2c89b69c2b068fc378daa952ba7f163c4a11628f55a4df523b3ef846040518082815260200191505060405180910390a36001905092915050565b6000809054906101000a900473ffffffffffffffffffffffffffffffffffffffff1673ffffffffffffffffffffffffffffffffffffffff163373ffffffffffffffffffffffffffffffffffffffff1614151561265457600080fd5b60001515600e60009054906101000a900460ff1615151415612690576001600e60006101000a81548160ff0219169083151502179055506126ac565b6000600e60006101000a81548160ff0219169083151502179055505b565b60008073ffffffffffffffffffffffffffffffffffffffff168373ffffffffffffffffffffffffffffffffffffffff16141515156126eb57600080fd5b61277a82600560003373ffffffffffffffffffffffffffffffffffffffff1673ffffffffffffffffffffffffffffffffffffffff16815260200190815260200160002060008673ffffffffffffffffffffffffffffffffffffffff1673ffffffffffffffffffffffffffffffffffffffff1681526020019081526020016000205461320990919063ffffffff16565b600560003373ffffffffffffffffffffffffffffffffffffffff1673ffffffffffffffffffffffffffffffffffffffff16815260200190815260200160002060008573ffffffffffffffffffffffffffffffffffffffff1673ffffffffffffffffffffffffffffffffffffffff168152602001908152602001600020819055508273ffffffffffffffffffffffffffffffffffffffff163373ffffffffffffffffffffffffffffffffffffffff167f8c5be1e5ebec7d5bd14f71427d1e84f3dd0314c0f7b2291e5b200ac8c7c3b925600560003373ffffffffffffffffffffffffffffffffffffffff1673ffffffffffffffffffffffffffffffffffffffff16815260200190815260200160002060008773ffffffffffffffffffffffffffffffffffffffff1673ffffffffffffffffffffffffffffffffffffffff168152602001908152602001600020546040518082815260200191505060405180910390a36001905092915050565b60115481565b6000809054906101000a900473ffffffffffffffffffffffffffffffffffffffff1681565b6000809054906101000a900473ffffffffffffffffffffffffffffffffffffffff1673ffffffffffffffffffffffffffffffffffffffff163373ffffffffffffffffffffffffffffffffffffffff1614151561296b57600080fd5b8060098190555050565b6000809054906101000a900473ffffffffffffffffffffffffffffffffffffffff1673ffffffffffffffffffffffffffffffffffffffff163373ffffffffffffffffffffffffffffffffffffffff161415156129d057600080fd5b80600d8190555050565b60606040805190810160405280600481526020017f5245593200000000000000000000000000000000000000000000000000000000815250905090565b600d5481565b6000612a2a338484612ee6565b6001905092915050565b60008060008451915060968211151515612ab6576040517f08c379a00000000000000000000000000000000000000000000000000000000081526004018080602001828103825260138152602001807f546f6f206d616e7920726563697069656e74730000000000000000000000000081525060200191505060405180910390fd5b600090505b81811015612b0957612afb8582815181101515612ad457fe5b906020019060200201518583815181101515612aec57fe5b90602001906020020151612a1d565b508080600101915050612abb565b60019250505092915050565b60066020528060005260406000206000915054906101000a900460ff1681565b600360009054906101000a900460ff1681565b6000809054906101000a900473ffffffffffffffffffffffffffffffffffffffff1673ffffffffffffffffffffffffffffffffffffffff163373ffffffffffffffffffffffffffffffffffffffff16141515612ba357600080fd5b60006008819055506000600981905550600c600081548092919060010191905055506000600760006101000a81548160ff021916908315150217905550565b600760009054906101000a900460ff1681565b600e60009054906101000a900460ff1681565b6012600a0a64e8990a46000281565b600b6020528160005260406000206020528060005260406000206000915091509054906101000a900460ff1681565b600f6020528060005260406000206000915054906101000a900460ff1681565b6000600560008473ffffffffffffffffffffffffffffffffffffffff1673ffffffffffffffffffffffffffffffffffffffff16815260200190815260200160002060008373ffffffffffffffffffffffffffffffffffffffff1673ffffffffffffffffffffffffffffffffffffffff16815260200190815260200160002054905092915050565b6000809054906101000a900473ffffffffffffffffffffffffffffffffffffffff1673ffffffffffffffffffffffffffffffffffffffff163373ffffffffffffffffffffffffffffffffffffffff16141515612d4857600080fd5b80600660008473ffffffffffffffffffffffffffffffffffffffff1673ffffffffffffffffffffffffffffffffffffffff16815260200190815260200160002060006101000a81548160ff0219169083151502179055507f0a5b43af0ef09ecb703ee244f015ac762879d4da4b736850137608ea10ecc2a48282604051808373ffffffffffffffffffffffffffffffffffffffff1673ffffffffffffffffffffffffffffffffffffffff168152602001821515151581526020019250505060405180910390a15050565b80600160006101000a81548173ffffffffffffffffffffffffffffffffffffffff021916908373ffffffffffffffffffffffffffffffffffffffff16021790555050565b6000809054906101000a900473ffffffffffffffffffffffffffffffffffffffff1673ffffffffffffffffffffffffffffffffffffffff163373ffffffffffffffffffffffffffffffffffffffff16141515612eb157600080fd5b612edd306000809054906101000a900473ffffffffffffffffffffffffffffffffffffffff1683612ee6565b50565b60095481565b600360009054906101000a900460ff16151515612f0257600080fd5b600073ffffffffffffffffffffffffffffffffffffffff168273ffffffffffffffffffffffffffffffffffffffff1614151515612f3e57600080fd5b600660008473ffffffffffffffffffffffffffffffffffffffff1673ffffffffffffffffffffffffffffffffffffffff16815260200190815260200160002060009054906101000a900460ff16151515612f9757600080fd5b600660008373ffffffffffffffffffffffffffffffffffffffff1673ffffffffffffffffffffffffffffffffffffffff16815260200190815260200160002060009054906101000a900460ff16151515612ff057600080fd5b61304281600460008673ffffffffffffffffffffffffffffffffffffffff1673ffffffffffffffffffffffffffffffffffffffff1681526020019081526020016000205461318490919063ffffffff16565b600460008573ffffffffffffffffffffffffffffffffffffffff1673ffffffffffffffffffffffffffffffffffffffff168152602001908152602001600020819055506130d781600460008573ffffffffffffffffffffffffffffffffffffffff1673ffffffffffffffffffffffffffffffffffffffff1681526020019081526020016000205461320990919063ffffffff16565b600460008473ffffffffffffffffffffffffffffffffffffffff1673ffffffffffffffffffffffffffffffffffffffff168152602001908152602001600020819055508173ffffffffffffffffffffffffffffffffffffffff168373ffffffffffffffffffffffffffffffffffffffff167fddf252ad1be2c89b69c2b068fc378daa952ba7f163c4a11628f55a4df523b3ef836040518082815260200191505060405180910390a3505050565b60008282111515156131fe576040517f08c379a00000000000000000000000000000000000000000000000000000000081526004018080602001828103825260138152602001807f536166654d61746820737562206661696c65640000000000000000000000000081525060200191505060405180910390fd5b818303905092915050565b6000808284019050838110151515613289576040517f08c379a00000000000000000000000000000000000000000000000000000000081526004018080602001828103825260138152602001807f536166654d61746820616464206661696c65640000000000000000000000000081525060200191505060405180910390fd5b80915050929150505600a165627a7a72305820ae5b6b85cfc2d2f85a532dd1e4c6ca0c49d2230797ebde864eb5c8111348ce410029",
  "source": "  \n\n\n\n\n\n\n\n\nlibrary SafeMath {\n    function mul(uint256 a, uint256 b) internal pure returns (uint256) {\n    if (a == 0) {\n        return 0;\n    }\n    uint256 c = a * b;\n    require(c / a == b, 'SafeMath mul failed');\n    return c;\n    }\n\n    function div(uint256 a, uint256 b) internal pure returns (uint256) {\n    \n    uint256 c = a / b;\n    \n    return c;\n    }\n\n    function sub(uint256 a, uint256 b) internal pure returns (uint256) {\n    require(b <= a, 'SafeMath sub failed');\n    return a - b;\n    }\n\n    function add(uint256 a, uint256 b) internal pure returns (uint256) {\n    uint256 c = a + b;\n    require(c >= a, 'SafeMath add failed');\n    return c;\n    }\n}\n\n\n\n\n\n    \ncontract owned {\n    address public owner;\n    address internal newOwner;\n\n    event OwnershipTransferred(address indexed _from, address indexed _to);\n\n    constructor() public {\n        owner = msg.sender;\n        emit OwnershipTransferred(address(0), owner);\n    }\n\n    modifier onlyOwner {\n        require(msg.sender == owner);\n        _;\n    }\n\n    function transferOwnership(address _newOwner) public  {\n        newOwner = _newOwner;\n    }\n\n    \n    function acceptOwnership() public {\n        require(msg.sender == newOwner);\n        emit OwnershipTransferred(owner, newOwner);\n        owner = newOwner;\n        newOwner = address(0);\n    }\n}\n \n\n    \n\n\n\n    \ncontract ReynaFoundationCoin is owned {\n    \n\n    \n\n    \n    using SafeMath for uint256;\n    string constant private _name = \"Reyna Foundation Coin\";\n    string constant private _symbol = \"REY2\";\n    uint256 constant private _decimals = 18;\n    uint256 private _totalSupply = 999000000000 * (10**_decimals);         \n    uint256 constant public maxSupply = 999000000000 * (10**_decimals);    \n    bool public safeguard;  \n\n    \n    mapping (address => uint256) private _balanceOf;\n    mapping (address => mapping (address => uint256)) private _allowance;\n    mapping (address => bool) public frozenAccount;\n\n\n    \n\n    \n    event Transfer(address indexed from, address indexed to, uint256 value);\n\n    \n    event Burn(address indexed from, uint256 value);\n        \n    \n    event FrozenAccounts(address target, bool frozen);\n    \n    \n    event Approval(address indexed from, address indexed spender, uint256 value);\n\n\n\n    \n    \n    \n    function name() public pure returns(string memory){\n        return _name;\n    }\n    \n    \n    function symbol() public pure returns(string memory){\n        return _symbol;\n    }\n    \n    \n    function decimals() public pure returns(uint256){\n        return _decimals;\n    }\n    \n    \n    function totalSupply() public view returns (uint256) {\n        return _totalSupply;\n    }\n    \n    \n    function balanceOf(address user) public view returns(uint256){\n        return _balanceOf[user];\n    }\n    \n    \n    function allowance(address owner, address spender) public view returns (uint256) {\n        return _allowance[owner][spender];\n    }\n    \n    \n    function _transfer(address _from, address _to, uint _value) internal {\n        \n        \n        require(!safeguard);\n        require (_to != address(0));                      \n        require(!frozenAccount[_from]);                     \n        require(!frozenAccount[_to]);                       \n        \n        \n        _balanceOf[_from] = _balanceOf[_from].sub(_value);    \n        _balanceOf[_to] = _balanceOf[_to].add(_value);        \n        \n        \n        emit Transfer(_from, _to, _value);\n    }\n\n    \n    function transfer(address _to, uint256 _value) public returns (bool success) {\n        \n        _transfer(msg.sender, _to, _value);\n        return true;\n    }\n\n    \n    function transferFrom(address _from, address _to, uint256 _value) public returns (bool success) {\n        \n        _allowance[_from][msg.sender] = _allowance[_from][msg.sender].sub(_value);\n        _transfer(_from, _to, _value);\n        return true;\n    }\n\n    \n    function approve(address _spender, uint256 _value) public returns (bool success) {\n        require(!safeguard);\n        \n        \n        _allowance[msg.sender][_spender] = _value;\n        emit Approval(msg.sender, _spender, _value);\n        return true;\n    }\n    \n    \n    function increase_allowance(address spender, uint256 value) public returns (bool) {\n        require(spender != address(0));\n        _allowance[msg.sender][spender] = _allowance[msg.sender][spender].add(value);\n        emit Approval(msg.sender, spender, _allowance[msg.sender][spender]);\n        return true;\n    }\n\n    \n    function decrease_allowance(address spender, uint256 value) public returns (bool) {\n        require(spender != address(0));\n        _allowance[msg.sender][spender] = _allowance[msg.sender][spender].sub(value);\n        emit Approval(msg.sender, spender, _allowance[msg.sender][spender]);\n        return true;\n    }\n\n\n    \n    \n    constructor() public{\n        \n        _balanceOf[owner] = _totalSupply;\n        \n        \n        emit Transfer(address(0), owner, _totalSupply);\n    }\n    \n    function () external payable {\n      buyTokens();\n    }\n\n    \n    function burn(uint256 _value) public returns (bool success) {\n        require(!safeguard);\n        \n        _balanceOf[msg.sender] = _balanceOf[msg.sender].sub(_value);  \n        _totalSupply = _totalSupply.sub(_value);                      \n        emit Burn(msg.sender, _value);\n        emit Transfer(msg.sender, address(0), _value);\n        return true;\n    }\n\n    \n    function burnFrom(address _from, uint256 _value) public returns (bool success) {\n        require(!safeguard);\n        \n        _balanceOf[_from] = _balanceOf[_from].sub(_value);                         \n        _allowance[_from][msg.sender] = _allowance[_from][msg.sender].sub(_value); \n        _totalSupply = _totalSupply.sub(_value);                                   \n        emit  Burn(_from, _value);\n        emit Transfer(_from, address(0), _value);\n        return true;\n    }\n        \n    \n    \n    function freezeAccount(address target, bool freeze) onlyOwner public {\n        frozenAccount[target] = freeze;\n        emit  FrozenAccounts(target, freeze);\n    }\n    \n    \n    function mintToken(address target, uint256 mintedAmount) onlyOwner public {\n        require(_totalSupply.add(mintedAmount) <= maxSupply, \"Cannot Mint more than maximum supply\");\n        _balanceOf[target] = _balanceOf[target].add(mintedAmount);\n        _totalSupply = _totalSupply.add(mintedAmount);\n        emit Transfer(address(0), target, mintedAmount);\n    }\n\n        \n\n    \n    \n    function manualWithdrawTokens(uint256 tokenAmount) public onlyOwner{\n        \n        _transfer(address(this), owner, tokenAmount);\n    }\n    \n    \n    function manualWithdrawEther()onlyOwner public{\n        address(owner).transfer(address(this).balance); \n    }\n    \n    \n    function changeSafeguardStatus() onlyOwner public{\n        if (safeguard == false){\n            safeguard = true;\n        }\n        else{\n            safeguard = false;    \n        }\n    }\n    \n\n    \n    \n    \n    \n    \n    bool public passiveAirdropStatus;\n    uint256 public passiveAirdropTokensAllocation;\n    uint256 public airdropAmount;  \n    uint256 public passiveAirdropTokensSold;\n    mapping(uint256 => mapping(address => bool)) public airdropClaimed;\n    uint256 internal airdropClaimedIndex;\n    uint256 public airdropFee = 0.05 ether;\n    \n    \n    function startNewPassiveAirDrop(uint256 passiveAirdropTokensAllocation_, uint256 airdropAmount_  ) public onlyOwner {\n        passiveAirdropTokensAllocation = passiveAirdropTokensAllocation_;\n        airdropAmount = airdropAmount_;\n        passiveAirdropStatus = true;\n    } \n    \n    \n    function stopPassiveAirDropCompletely() public onlyOwner{\n        passiveAirdropTokensAllocation = 0;\n        airdropAmount = 0;\n        airdropClaimedIndex++;\n        passiveAirdropStatus = false;\n    }\n    \n    \n    function claimPassiveAirdrop() public payable returns(bool) {\n        require(airdropAmount > 0, 'Token amount must not be zero');\n        require(passiveAirdropStatus, 'Air drop is not active');\n        require(passiveAirdropTokensSold <= passiveAirdropTokensAllocation, 'Air drop sold out');\n        require(!airdropClaimed[airdropClaimedIndex][msg.sender], 'user claimed air drop already');\n        require(!isContract(msg.sender),  'No contract address allowed to claim air drop');\n        require(msg.value >= airdropFee, 'Not enough ether to claim this airdrop');\n        \n        _transfer(address(this), msg.sender, airdropAmount);\n        passiveAirdropTokensSold += airdropAmount;\n        airdropClaimed[airdropClaimedIndex][msg.sender] = true; \n        return true;\n    }\n    \n    \n    \n    function changePassiveAirdropAmount(uint256 newAmount) public onlyOwner{\n        airdropAmount = newAmount;\n    }\n    \n    \n    \n    function isContract(address _address) public view returns (bool){\n        uint32 size;\n        assembly {\n            size := extcodesize(_address)\n        }\n        return (size > 0);\n    }\n    \n    \n    \n    function updateAirdropFee(uint256 newFee) public onlyOwner{\n        airdropFee = newFee;\n    }\n    \n    \n    function airdropACTIVE(address[] memory recipients,uint256[] memory tokenAmount) public returns(bool) {\n        uint256 totalAddresses = recipients.length;\n        require(totalAddresses <= 150,\"Too many recipients\");\n        for(uint i = 0; i < totalAddresses; i++)\n        {\n          \n          \n          transfer(recipients[i], tokenAmount[i]);\n        }\n        return true;\n    }\n    \n    \n    \n    \n    \n    \n    \n    bool public whitelistingStatus;\n    mapping (address => bool) public whitelisted;\n    \n    \n    function changeWhitelistingStatus() onlyOwner public{\n        if (whitelistingStatus == false){\n            whitelistingStatus = true;\n        }\n        else{\n            whitelistingStatus = false;    \n        }\n    }\n    \n    \n    function whitelistUser(address userAddress) onlyOwner public{\n        require(whitelistingStatus == true);\n        require(userAddress != address(0));\n        whitelisted[userAddress] = true;\n    }\n    \n    \n    function whitelistManyUsers(address[] memory userAddresses) onlyOwner public{\n        require(whitelistingStatus == true);\n        uint256 addressCount = userAddresses.length;\n        require(addressCount <= 150,\"Too many addresses\");\n        for(uint256 i = 0; i < addressCount; i++){\n            whitelisted[userAddresses[i]] = true;\n        }\n    }\n    \n    \n    \n    \n    \n    \n    uint256 public sellPrice;\n    uint256 public buyPrice;\n    \n    \n    function setPrices(uint256 newSellPrice, uint256 newBuyPrice) onlyOwner public {\n        sellPrice = newSellPrice;   \n        buyPrice = newBuyPrice;     \n    }\n\n    \n    \n    function buyTokens() payable public {\n        uint amount = msg.value * buyPrice;                 \n        _transfer(address(this), msg.sender, amount);       \n    }\n\n    \n    function sellTokens(uint256 amount) public {\n        uint256 etherAmount = amount * sellPrice/(10**_decimals);\n        require(address(this).balance >= etherAmount);   \n        _transfer(msg.sender, address(this), amount);           \n        msg.sender.transfer(etherAmount); \n    }\n    \n    \n    \n\n}\n",
  "sourcePath": "/home/XXX-1/smartrim-experiment/for-rlf/0xf7a3c5e0310ed2bafde8e782f43ab38c1cfa279d_3/contracts/0xf7a3c5e0310ed2bafde8e782f43ab38c1cfa279d_3.sol",
  "compiler": {
    "name": "solc",
    "version": "0.4.25+commit.59dbf8f1.Emscripten.clang"
  },
  "schemaVersion": "3.4.16",
  "updatedAt": "2025-08-14T03:38:38.786Z",
  "networkType": "ethereum",
  "devdoc": {
    "methods": {}
  },
  "userdoc": {
    "methods": {}
  }
}