{
  "contractName": "Club",
  "abi": [
    {
      "constant": true,
      "inputs": [
        {
          "name": "",
          "type": "address"
        }
      ],
      "name": "members",
      "outputs": [
        {
          "name": "username",
          "type": "bytes20"
        },
        {
          "name": "karma",
          "type": "uint64"
        },
        {
          "name": "canWithdrawPeriod",
          "type": "uint16"
        },
        {
          "name": "birthPeriod",
          "type": "uint16"
        }
      ],
      "payable": false,
      "stateMutability": "view",
      "type": "function"
    }
  ],
  "bytecode": "0x608060405234801561001057600080fd5b50610199806100206000396000f300608060405260043610610041576000357c0100000000000000000000000000000000000000000000000000000000900463ffffffff16806308ae4b0c14610046575b600080fd5b34801561005257600080fd5b50610087600480360381019080803573ffffffffffffffffffffffffffffffffffffffff1690602001909291905050506100f4565b60405180856bffffffffffffffffffffffff19166bffffffffffffffffffffffff191681526020018467ffffffffffffffff1667ffffffffffffffff1681526020018361ffff1661ffff1681526020018261ffff1661ffff16815260200194505050505060405180910390f35b60006020528060005260406000206000915090508060000160009054906101000a90046c0100000000000000000000000002908060000160149054906101000a900467ffffffffffffffff169080600001601c9054906101000a900461ffff169080600001601e9054906101000a900461ffff169050845600a165627a7a723058202cc20ad986f8a14abd18ad149d75a26072be9eab66956d1cf6a175cb48d0c20b0029",
  "source": "\n\ncontract Club {\n  struct Member {\n    bytes20 username;\n    uint64 karma; \n    uint16 canWithdrawPeriod;\n    uint16 birthPeriod;\n  }\n\n  \n  mapping(address => Member) public members;\n}\n\n\n\n\n\n\n\ncontract Button_1 {\n  event Pressed(address indexed presser, uint256 endBlock);\n  event Winner(address winner, uint256 winnings);\n\n  uint64 public countdown;\n  uint64 public countdownDecrement;\n  uint64 public cooloffIncrement;\n\n  uint64 public pressFee;\n  uint64 public signupFee; \n  Club public club; \n\n  address public lastPresser;\n  uint64 public endBlock;\n\n  struct Presser {\n    uint64 numPresses;\n    uint64 cooloffEnd;\n  }\n\n  mapping (address => Presser) public pressers;\n\n  function Button_1(\n    uint64 _countdown, \n    uint64 _countdownDecrement, \n    uint64 _cooloffIncrement, \n    uint64 _pressFee, \n    uint64 _signupFee, \n    address _club\n  ) public payable {\n    countdown = _countdown;\n    countdownDecrement = _countdownDecrement;\n    cooloffIncrement = _cooloffIncrement;\n    pressFee = _pressFee;\n    signupFee = _signupFee;\n    club = Club(_club);\n\n    lastPresser = msg.sender;\n    endBlock = uint64(block.number + countdown);\n  }\n\n  function press() public payable {\n    require(block.number <= endBlock);\n\n    uint256 change = msg.value-pressFee;\n    Presser storage p = pressers[msg.sender];\n    require(p.cooloffEnd < block.number);\n\n    if (p.numPresses == 0) {\n      \n      uint128 npf = _newPresserFee(address(this).balance - msg.value);\n      change -= npf;\n      address(club).transfer(npf);\n    }\n    \n    require(change <= msg.value);\n\n    lastPresser = msg.sender;\n    uint64 finalCountdown = countdown - (p.numPresses*countdownDecrement);\n    if (finalCountdown < 10 || finalCountdown > countdown) {\n      finalCountdown = 10;\n    }\n    endBlock = uint64(block.number + finalCountdown);\n\n    p.numPresses++;\n    p.cooloffEnd = uint64(block.number + (p.numPresses*cooloffIncrement));\n\n    if (change > 0) {\n      msg.sender.transfer(change);\n    }\n\n    Pressed(msg.sender, endBlock);\n  }\n\n  function close() public {\n    require(block.number > endBlock);\n    require(lastPresser == msg.sender);\n    Winner(msg.sender, address(this).balance);\n    selfdestruct(msg.sender);\n  }\n\n  \n  function newPresserFee() public view returns (uint128) {\n    return _newPresserFee(address(this).balance);\n  }\n\n  function isMember() public view returns (bool) {\n    return _isMember();\n  }\n\n  \n  function _newPresserFee(uint256 _balance) private view returns (uint128) {\n    if (_isMember()){\n      return 0;\n    }\n    return uint128((_balance * signupFee) / 10000);\n  }\n\n  function _isMember() private view returns (bool) {\n    var(un, k, cwp, bp) = club.members(msg.sender);\n    \n    return bp != 0;\n  }\n\n  \n  function() payable public {}\n}\n    \ncontract Button is Button_1 {\n    constructor() Button_1(78, 78, 78, 78, 78, address(0x123)) public { }\n}\n",
  "sourcePath": "/home/XXX-1/smartrim-experiment/for-rlf/0xf7f6b7164fb3ab456715d2e8b84e8baac8bd09a9/contracts/0xf7f6b7164fb3ab456715d2e8b84e8baac8bd09a9.sol",
  "compiler": {
    "name": "solc",
    "version": "0.4.25+commit.59dbf8f1.Emscripten.clang"
  },
  "schemaVersion": "3.4.16",
  "updatedAt": "2025-08-14T04:10:57.880Z",
  "devdoc": {
    "methods": {}
  },
  "userdoc": {
    "methods": {}
  }
}