{
  "contractName": "BitGuildFeeProvider",
  "abi": [
    {
      "constant": true,
      "inputs": [
        {
          "name": "",
          "type": "address"
        }
      ],
      "name": "isOperator",
      "outputs": [
        {
          "name": "",
          "type": "bool"
        }
      ],
      "payable": false,
      "stateMutability": "view",
      "type": "function"
    },
    {
      "constant": true,
      "inputs": [],
      "name": "MAX_OPS",
      "outputs": [
        {
          "name": "",
          "type": "uint256"
        }
      ],
      "payable": false,
      "stateMutability": "view",
      "type": "function"
    },
    {
      "constant": true,
      "inputs": [],
      "name": "owner",
      "outputs": [
        {
          "name": "",
          "type": "address"
        }
      ],
      "payable": false,
      "stateMutability": "view",
      "type": "function"
    },
    {
      "constant": false,
      "inputs": [
        {
          "name": "_newOperator",
          "type": "address"
        }
      ],
      "name": "addOperator",
      "outputs": [],
      "payable": false,
      "stateMutability": "nonpayable",
      "type": "function"
    },
    {
      "constant": false,
      "inputs": [
        {
          "name": "_operator",
          "type": "address"
        }
      ],
      "name": "removeOperator",
      "outputs": [],
      "payable": false,
      "stateMutability": "nonpayable",
      "type": "function"
    },
    {
      "constant": false,
      "inputs": [],
      "name": "removeAllOps",
      "outputs": [],
      "payable": false,
      "stateMutability": "nonpayable",
      "type": "function"
    },
    {
      "constant": true,
      "inputs": [
        {
          "name": "",
          "type": "uint256"
        }
      ],
      "name": "operators",
      "outputs": [
        {
          "name": "",
          "type": "address"
        }
      ],
      "payable": false,
      "stateMutability": "view",
      "type": "function"
    },
    {
      "constant": true,
      "inputs": [
        {
          "name": "",
          "type": "bytes32"
        }
      ],
      "name": "customFee",
      "outputs": [
        {
          "name": "",
          "type": "uint256"
        }
      ],
      "payable": false,
      "stateMutability": "view",
      "type": "function"
    },
    {
      "constant": false,
      "inputs": [
        {
          "name": "_newOwner",
          "type": "address"
        }
      ],
      "name": "transferOwnership",
      "outputs": [],
      "payable": false,
      "stateMutability": "nonpayable",
      "type": "function"
    },
    {
      "payable": true,
      "stateMutability": "payable",
      "type": "fallback"
    },
    {
      "anonymous": false,
      "inputs": [
        {
          "indexed": false,
          "name": "newPercentFee",
          "type": "uint256"
        },
        {
          "indexed": false,
          "name": "oldPercentFee",
          "type": "uint256"
        },
        {
          "indexed": false,
          "name": "operator",
          "type": "address"
        }
      ],
      "name": "LogFeeChanged",
      "type": "event"
    },
    {
      "anonymous": false,
      "inputs": [
        {
          "indexed": false,
          "name": "newPercentFee",
          "type": "uint256"
        },
        {
          "indexed": false,
          "name": "oldPercentFee",
          "type": "uint256"
        },
        {
          "indexed": false,
          "name": "buyer",
          "type": "address"
        },
        {
          "indexed": false,
          "name": "seller",
          "type": "address"
        },
        {
          "indexed": false,
          "name": "token",
          "type": "address"
        },
        {
          "indexed": false,
          "name": "operator",
          "type": "address"
        }
      ],
      "name": "LogCustomFeeChanged",
      "type": "event"
    },
    {
      "anonymous": false,
      "inputs": [
        {
          "indexed": true,
          "name": "previousOwner",
          "type": "address"
        },
        {
          "indexed": true,
          "name": "newOwner",
          "type": "address"
        }
      ],
      "name": "OwnershipTransferred",
      "type": "event"
    },
    {
      "anonymous": false,
      "inputs": [
        {
          "indexed": false,
          "name": "operator",
          "type": "address"
        }
      ],
      "name": "OperatorAdded",
      "type": "event"
    },
    {
      "anonymous": false,
      "inputs": [
        {
          "indexed": false,
          "name": "operator",
          "type": "address"
        }
      ],
      "name": "OperatorRemoved",
      "type": "event"
    },
    {
      "constant": false,
      "inputs": [
        {
          "name": "_newFee",
          "type": "uint256"
        }
      ],
      "name": "updateFee",
      "outputs": [],
      "payable": false,
      "stateMutability": "nonpayable",
      "type": "function"
    },
    {
      "constant": false,
      "inputs": [
        {
          "name": "_newFee",
          "type": "uint256"
        },
        {
          "name": "_currency",
          "type": "address"
        },
        {
          "name": "_buyer",
          "type": "address"
        },
        {
          "name": "_seller",
          "type": "address"
        },
        {
          "name": "_token",
          "type": "address"
        }
      ],
      "name": "updateCustomFee",
      "outputs": [],
      "payable": false,
      "stateMutability": "nonpayable",
      "type": "function"
    },
    {
      "constant": true,
      "inputs": [
        {
          "name": "_price",
          "type": "uint256"
        },
        {
          "name": "_currency",
          "type": "address"
        },
        {
          "name": "_buyer",
          "type": "address"
        },
        {
          "name": "_seller",
          "type": "address"
        },
        {
          "name": "_token",
          "type": "address"
        }
      ],
      "name": "getFee",
      "outputs": [
        {
          "name": "percent",
          "type": "uint256"
        },
        {
          "name": "fee",
          "type": "uint256"
        }
      ],
      "payable": false,
      "stateMutability": "view",
      "type": "function"
    }
  ],
  "bytecode": "0x608060405260146002556101f4600455336000806101000a81548173ffffffffffffffffffffffffffffffffffffffff021916908373ffffffffffffffffffffffffffffffffffffffff1602179055506118248061005e6000396000f3006080604052600436106100ba576000357c0100000000000000000000000000000000000000000000000000000000900463ffffffff16806369d25ff2146100bf5780636d70f7ae1461016c578063786431c1146101c75780638da5cb5b146101f25780639012c4a8146102495780639870d7fe14610276578063ac8a584a146102b9578063bc14016b146102fc578063d71cf1e414610313578063e28d4906146103db578063e723304914610448578063f2fde38b1461048d575b600080fd5b3480156100cb57600080fd5b5061016a60048036038101908080359060200190929190803573ffffffffffffffffffffffffffffffffffffffff169060200190929190803573ffffffffffffffffffffffffffffffffffffffff169060200190929190803573ffffffffffffffffffffffffffffffffffffffff169060200190929190803573ffffffffffffffffffffffffffffffffffffffff1690602001909291905050506104d0565b005b34801561017857600080fd5b506101ad600480360381019080803573ffffffffffffffffffffffffffffffffffffffff1690602001909291905050506107fc565b604051808215151515815260200191505060405180910390f35b3480156101d357600080fd5b506101dc61081c565b6040518082815260200191505060405180910390f35b3480156101fe57600080fd5b50610207610822565b604051808273ffffffffffffffffffffffffffffffffffffffff1673ffffffffffffffffffffffffffffffffffffffff16815260200191505060405180910390f35b34801561025557600080fd5b5061027460048036038101908080359060200190929190505050610847565b005b34801561028257600080fd5b506102b7600480360381019080803573ffffffffffffffffffffffffffffffffffffffff169060200190929190505050610a91565b005b3480156102c557600080fd5b506102fa600480360381019080803573ffffffffffffffffffffffffffffffffffffffff169060200190929190505050610df5565b005b34801561030857600080fd5b50610311611190565b005b34801561031f57600080fd5b506103be60048036038101908080359060200190929190803573ffffffffffffffffffffffffffffffffffffffff169060200190929190803573ffffffffffffffffffffffffffffffffffffffff169060200190929190803573ffffffffffffffffffffffffffffffffffffffff169060200190929190803573ffffffffffffffffffffffffffffffffffffffff1690602001909291905050506112b0565b604051808381526020018281526020019250505060405180910390f35b3480156103e757600080fd5b5061040660048036038101908080359060200190929190505050611300565b604051808273ffffffffffffffffffffffffffffffffffffffff1673ffffffffffffffffffffffffffffffffffffffff16815260200191505060405180910390f35b34801561045457600080fd5b50610477600480360381019080803560001916906020019092919050505061133e565b6040518082815260200191505060405180910390f35b34801561049957600080fd5b506104ce600480360381019080803573ffffffffffffffffffffffffffffffffffffffff169060200190929190505050611356565b005b600080600360003373ffffffffffffffffffffffffffffffffffffffff1673ffffffffffffffffffffffffffffffffffffffff16815260200190815260200160002060009054906101000a900460ff168061057757506000809054906101000a900473ffffffffffffffffffffffffffffffffffffffff1673ffffffffffffffffffffffffffffffffffffffff163373ffffffffffffffffffffffffffffffffffffffff16145b1515610611576040517f08c379a00000000000000000000000000000000000000000000000000000000081526004018080602001828103825260348152602001807f5065726d697373696f6e2064656e6965642e204d75737420626520616e206f7081526020017f657261746f72206f7220746865206f776e65722e00000000000000000000000081525060400191505060405180910390fd5b6000871015801561062457506127108711155b1515610698576040517f08c379a00000000000000000000000000000000000000000000000000000000081526004018080602001828103825260148152602001807f496e76616c69642070657263656e74206665652e00000000000000000000000081525060200191505060405180910390fd5b6106a486868686611514565b915060056000836000191660001916815260200190815260200160002054905086600560008460001916600019168152602001908152602001600020819055507fa1cbfcd81405fb056a84ba381c6c6cd771ac64a04858d886470289681a6df863878287878733604051808781526020018681526020018573ffffffffffffffffffffffffffffffffffffffff1673ffffffffffffffffffffffffffffffffffffffff1681526020018473ffffffffffffffffffffffffffffffffffffffff1673ffffffffffffffffffffffffffffffffffffffff1681526020018373ffffffffffffffffffffffffffffffffffffffff1673ffffffffffffffffffffffffffffffffffffffff1681526020018273ffffffffffffffffffffffffffffffffffffffff1673ffffffffffffffffffffffffffffffffffffffff168152602001965050505050505060405180910390a150505050505050565b60036020528060005260406000206000915054906101000a900460ff1681565b60025481565b6000809054906101000a900473ffffffffffffffffffffffffffffffffffffffff1681565b6000600360003373ffffffffffffffffffffffffffffffffffffffff1673ffffffffffffffffffffffffffffffffffffffff16815260200190815260200160002060009054906101000a900460ff16806108ed57506000809054906101000a900473ffffffffffffffffffffffffffffffffffffffff1673ffffffffffffffffffffffffffffffffffffffff163373ffffffffffffffffffffffffffffffffffffffff16145b1515610987576040517f08c379a00000000000000000000000000000000000000000000000000000000081526004018080602001828103825260348152602001807f5065726d697373696f6e2064656e6965642e204d75737420626520616e206f7081526020017f657261746f72206f7220746865206f776e65722e00000000000000000000000081525060400191505060405180910390fd5b6000821015801561099a57506127108211155b1515610a0e576040517f08c379a00000000000000000000000000000000000000000000000000000000081526004018080602001828103825260148152602001807f496e76616c69642070657263656e74206665652e00000000000000000000000081525060200191505060405180910390fd5b6004549050816004819055507fa01bc2fc26fecb5f33a8d21e49a0e283f8c47c97c20fca8709d50b4687a96bf6828233604051808481526020018381526020018273ffffffffffffffffffffffffffffffffffffffff1673ffffffffffffffffffffffffffffffffffffffff168152602001935050505060405180910390a15050565b6000809054906101000a900473ffffffffffffffffffffffffffffffffffffffff1673ffffffffffffffffffffffffffffffffffffffff163373ffffffffffffffffffffffffffffffffffffffff16141515610aec57600080fd5b600073ffffffffffffffffffffffffffffffffffffffff168173ffffffffffffffffffffffffffffffffffffffff1614151515610b91576040517f08c379a000000000000000000000000000000000000000000000000000000000815260040180806020018281038252601d8152602001807f496e76616c6964206e6577206f70657261746f7220616464726573732e00000081525060200191505060405180910390fd5b600360008273ffffffffffffffffffffffffffffffffffffffff1673ffffffffffffffffffffffffffffffffffffffff16815260200190815260200160002060009054906101000a900460ff16151515610c53576040517f08c379a00000000000000000000000000000000000000000000000000000000081526004018080602001828103825260148152602001807f4e6577206f70657261746f72206578697374732e00000000000000000000000081525060200191505060405180910390fd5b600254600180549050101515610cd1576040517f08c379a00000000000000000000000000000000000000000000000000000000081526004018080602001828103825260098152602001807f4f766572666c6f772e000000000000000000000000000000000000000000000081525060200191505060405180910390fd5b60018190806001815401808255809150509060018203906000526020600020016000909192909190916101000a81548173ffffffffffffffffffffffffffffffffffffffff021916908373ffffffffffffffffffffffffffffffffffffffff160217905550506001600360008373ffffffffffffffffffffffffffffffffffffffff1673ffffffffffffffffffffffffffffffffffffffff16815260200190815260200160002060006101000a81548160ff0219169083151502179055507fac6fa858e9350a46cec16539926e0fde25b7629f84b5a72bffaae4df888ae86d81604051808273ffffffffffffffffffffffffffffffffffffffff1673ffffffffffffffffffffffffffffffffffffffff16815260200191505060405180910390a150565b6000806000809054906101000a900473ffffffffffffffffffffffffffffffffffffffff1673ffffffffffffffffffffffffffffffffffffffff163373ffffffffffffffffffffffffffffffffffffffff16141515610e5357600080fd5b6000600180549050111515610ed0576040517f08c379a000000000000000000000000000000000000000000000000000000000815260040180806020018281038252600c8152602001807f4e6f206f70657261746f722e000000000000000000000000000000000000000081525060200191505060405180910390fd5b600360008473ffffffffffffffffffffffffffffffffffffffff1673ffffffffffffffffffffffffffffffffffffffff16815260200190815260200160002060009054906101000a900460ff161515610f91576040517f08c379a00000000000000000000000000000000000000000000000000000000081526004018080602001828103825260108152602001807f4e6f7420616e206f70657261746f722e0000000000000000000000000000000081525060200191505060405180910390fd5b600180808054905003815481101515610fa657fe5b9060005260206000200160009054906101000a900473ffffffffffffffffffffffffffffffffffffffff169150600090505b6001805490508110156110b8578273ffffffffffffffffffffffffffffffffffffffff1660018281548110151561100b57fe5b9060005260206000200160009054906101000a900473ffffffffffffffffffffffffffffffffffffffff1673ffffffffffffffffffffffffffffffffffffffff1614156110ab578160018281548110151561106257fe5b9060005260206000200160006101000a81548173ffffffffffffffffffffffffffffffffffffffff021916908373ffffffffffffffffffffffffffffffffffffffff1602179055505b8080600101915050610fd8565b600180818180549050039150816110cf91906117a7565b506000600360008573ffffffffffffffffffffffffffffffffffffffff1673ffffffffffffffffffffffffffffffffffffffff16815260200190815260200160002060006101000a81548160ff0219169083151502179055507f80c0b871b97b595b16a7741c1b06fed0c6f6f558639f18ccbce50724325dc40d83604051808273ffffffffffffffffffffffffffffffffffffffff1673ffffffffffffffffffffffffffffffffffffffff16815260200191505060405180910390a1505050565b60008060009054906101000a900473ffffffffffffffffffffffffffffffffffffffff1673ffffffffffffffffffffffffffffffffffffffff163373ffffffffffffffffffffffffffffffffffffffff161415156111ed57600080fd5b600090505b60018054905081101561129d5760006003600060018481548110151561121457fe5b9060005260206000200160009054906101000a900473ffffffffffffffffffffffffffffffffffffffff1673ffffffffffffffffffffffffffffffffffffffff1673ffffffffffffffffffffffffffffffffffffffff16815260200190815260200160002060006101000a81548160ff02191690831515021790555080806001019150506111f2565b60006001816112ac91906117a7565b5050565b6000806000806112c288888888611514565b91506005600083600019166000191681526020019081526020016000205490506112ec89826116a6565b809450819550505050509550959350505050565b60018181548110151561130f57fe5b906000526020600020016000915054906101000a900473ffffffffffffffffffffffffffffffffffffffff1681565b60056020528060005260406000206000915090505481565b6000809054906101000a900473ffffffffffffffffffffffffffffffffffffffff1673ffffffffffffffffffffffffffffffffffffffff163373ffffffffffffffffffffffffffffffffffffffff161415156113b157600080fd5b600073ffffffffffffffffffffffffffffffffffffffff168173ffffffffffffffffffffffffffffffffffffffff1614151515611456576040517f08c379a000000000000000000000000000000000000000000000000000000000815260040180806020018281038252601a8152602001807f496e76616c6964206e6577206f776e657220616464726573732e00000000000081525060200191505060405180910390fd5b8073ffffffffffffffffffffffffffffffffffffffff166000809054906101000a900473ffffffffffffffffffffffffffffffffffffffff1673ffffffffffffffffffffffffffffffffffffffff167f8be0079c531659141344cd1fd0a4f28419497f9722a3daafe3b4186f6b6457e060405160405180910390a3806000806101000a81548173ffffffffffffffffffffffffffffffffffffffff021916908373ffffffffffffffffffffffffffffffffffffffff16021790555050565b600084848484604051602001808573ffffffffffffffffffffffffffffffffffffffff1673ffffffffffffffffffffffffffffffffffffffff166c010000000000000000000000000281526014018473ffffffffffffffffffffffffffffffffffffffff1673ffffffffffffffffffffffffffffffffffffffff166c010000000000000000000000000281526014018373ffffffffffffffffffffffffffffffffffffffff1673ffffffffffffffffffffffffffffffffffffffff166c010000000000000000000000000281526014018273ffffffffffffffffffffffffffffffffffffffff1673ffffffffffffffffffffffffffffffffffffffff166c010000000000000000000000000281526014019450505050506040516020818303038152906040526040518082805190602001908083835b60208310151561166f578051825260208201915060208101905060208303925061164a565b6001836020036101000a03801982511681845116808217855250505050505090500191505060405180910390209050949350505050565b60008060008410151515611722576040517f08c379a000000000000000000000000000000000000000000000000000000000815260040180806020018281038252600e8152602001807f496e76616c69642070726963652e00000000000000000000000000000000000081525060200191505060405180910390fd5b82915060008314156117345760045491505b61271083141561174b576000915060009050611765565b612710611758858461176c565b81151561176157fe5b0490505b9250929050565b600080600084141561178157600091506117a0565b828402905082848281151561179257fe5b0414151561179c57fe5b8091505b5092915050565b8154818355818111156117ce578183600052602060002091820191016117cd91906117d3565b5b505050565b6117f591905b808211156117f15760008160009055506001016117d9565b5090565b905600a165627a7a723058209dff93434145ef3d6b57580c27794dd767c11c528689b99163ac8d61babb01b20029",
  "source": "\n\n\ncontract tokenRecipient { function receiveApproval(address _from, uint256 _value, address _token, bytes _extraData) public; }\n\ncontract BitGuildToken {\n    \n    string public name = \"BitGuild PLAT\";\n    string public symbol = \"PLAT\";\n    uint8 public decimals = 18;\n    uint256 public totalSupply = 10000000000 * 10 ** uint256(decimals); \n\n    \n    mapping (address => uint256) public balanceOf;\n    mapping (address => mapping (address => uint256)) public allowance;\n\n    \n    event Transfer(address indexed from, address indexed to, uint256 value);\n\n    \n    event Burn(address indexed from, uint256 value);\n\n    \n    function BitGuildToken() public {\n        balanceOf[msg.sender] = totalSupply;\n    }\n\n    \n    function _transfer(address _from, address _to, uint _value) internal {\n        \n        require(_to != 0x0);\n        \n        require(balanceOf[_from] >= _value);\n        \n        require(balanceOf[_to] + _value > balanceOf[_to]);\n        \n        uint previousBalances = balanceOf[_from] + balanceOf[_to];\n        \n        balanceOf[_from] -= _value;\n        \n        balanceOf[_to] += _value;\n        Transfer(_from, _to, _value);\n        \n        assert(balanceOf[_from] + balanceOf[_to] == previousBalances);\n    }\n\n    \n    function transfer(address _to, uint256 _value) public {\n        _transfer(msg.sender, _to, _value);\n    }\n\n    \n    function transferFrom(address _from, address _to, uint256 _value) public returns (bool success) {\n        require(_value <= allowance[_from][msg.sender]);     \n        allowance[_from][msg.sender] -= _value;\n        _transfer(_from, _to, _value);\n        return true;\n    }\n\n    \n    function approve(address _spender, uint256 _value) public\n        returns (bool success) {\n        allowance[msg.sender][_spender] = _value;\n        return true;\n    }\n\n    \n    function approveAndCall(address _spender, uint256 _value, bytes _extraData)\n        public\n        returns (bool success) {\n        tokenRecipient spender = tokenRecipient(_spender);\n        if (approve(_spender, _value)) {\n            spender.receiveApproval(msg.sender, _value, this, _extraData);\n            return true;\n        }\n    }\n\n    \n    function burn(uint256 _value) public returns (bool success) {\n        require(balanceOf[msg.sender] >= _value);   \n        balanceOf[msg.sender] -= _value;            \n        totalSupply -= _value;                      \n        Burn(msg.sender, _value);\n        return true;\n    }\n\n    \n    function burnFrom(address _from, uint256 _value) public returns (bool success) {\n        require(balanceOf[_from] >= _value);                \n        require(_value <= allowance[_from][msg.sender]);    \n        balanceOf[_from] -= _value;                         \n        allowance[_from][msg.sender] -= _value;             \n        totalSupply -= _value;                              \n        Burn(_from, _value);\n        return true;\n    }\n}\n\n\n\ncontract BitGuildAccessAdmin {\n    address public owner;\n    address[] public operators;\n\n    uint public MAX_OPS = 20; \n\n    mapping(address => bool) public isOperator;\n\n    event OwnershipTransferred(\n        address indexed previousOwner,\n        address indexed newOwner\n    );\n    event OperatorAdded(address operator);\n    event OperatorRemoved(address operator);\n\n    \n    constructor() public {\n        owner = msg.sender;\n    }\n\n    \n    modifier onlyOwner() {\n        require(msg.sender == owner);\n        _;\n    }\n\n    \n    modifier onlyOperator() {\n        require(\n            isOperator[msg.sender] || msg.sender == owner,\n            \"Permission denied. Must be an operator or the owner.\"\n        );\n        _;\n    }\n\n    \n    function transferOwnership(address _newOwner) public onlyOwner {\n        require(\n            _newOwner != address(0),\n            \"Invalid new owner address.\"\n        );\n        emit OwnershipTransferred(owner, _newOwner);\n        owner = _newOwner;\n    }\n\n    \n    function addOperator(address _newOperator) public onlyOwner {\n        require(\n            _newOperator != address(0),\n            \"Invalid new operator address.\"\n        );\n\n        \n        require(\n            !isOperator[_newOperator],\n            \"New operator exists.\"\n        );\n\n        \n        require(\n            operators.length < MAX_OPS,\n            \"Overflow.\"\n        );\n\n        operators.push(_newOperator);\n        isOperator[_newOperator] = true;\n\n        emit OperatorAdded(_newOperator);\n    }\n\n    \n    function removeOperator(address _operator) public onlyOwner {\n        \n        require(\n            operators.length > 0,\n            \"No operator.\"\n        );\n\n        \n        require(\n            isOperator[_operator],\n            \"Not an operator.\"\n        );\n\n        \n        \n        \n        address lastOperator = operators[operators.length - 1];\n        for (uint i = 0; i < operators.length; i++) {\n            if (operators[i] == _operator) {\n                operators[i] = lastOperator;\n            }\n        }\n        operators.length -= 1; \n\n        isOperator[_operator] = false;\n        emit OperatorRemoved(_operator);\n    }\n\n    \n    function removeAllOps() public onlyOwner {\n        for (uint i = 0; i < operators.length; i++) {\n            isOperator[operators[i]] = false;\n        }\n        operators.length = 0;\n    }\n}\n\n\n\ncontract BitGuildWhitelist is BitGuildAccessAdmin {\n    uint public total = 0;\n    mapping (address => bool) public isWhitelisted;\n\n    event AddressWhitelisted(address indexed addr, address operator);\n    event AddressRemovedFromWhitelist(address indexed addr, address operator);\n\n    \n    modifier onlyWhitelisted(address _address) {\n        require(\n            isWhitelisted[_address],\n            \"Address is not on the whitelist.\"\n        );\n        _;\n    }\n\n    \n    function () external payable {\n        revert();\n    }\n\n    \n    function addToWhitelist(address _newAddr) public onlyOperator {\n        require(\n            _newAddr != address(0),\n            \"Invalid new address.\"\n        );\n\n        \n        require(\n            !isWhitelisted[_newAddr],\n            \"Address is already whitelisted.\"\n        );\n\n        isWhitelisted[_newAddr] = true;\n        total++;\n        emit AddressWhitelisted(_newAddr, msg.sender);\n    }\n\n    \n    function removeFromWhitelist(address _addr) public onlyOperator {\n        require(\n            _addr != address(0),\n            \"Invalid address.\"\n        );\n\n        \n        require(\n            isWhitelisted[_addr],\n            \"Address not in whitelist.\"\n        );\n\n        isWhitelisted[_addr] = false;\n        if (total > 0) {\n            total--;\n        }\n        emit AddressRemovedFromWhitelist(_addr, msg.sender);\n    }\n\n    \n    function whitelistAddresses(address[] _addresses, bool _whitelisted) public onlyOperator {\n        for (uint i = 0; i < _addresses.length; i++) {\n            address addr = _addresses[i];\n            if (isWhitelisted[addr] == _whitelisted) continue;\n            if (_whitelisted) {\n                addToWhitelist(addr);\n            } else {\n                removeFromWhitelist(addr);\n            }\n        }\n    }\n}\n\n\ncontract BitGuildFeeProvider is BitGuildAccessAdmin {\n    \n    uint constant NO_FEE = 10000;\n\n    \n    uint defaultPercentFee = 500; \n\n    mapping(bytes32 => uint) public customFee;  \n\n    event LogFeeChanged(uint newPercentFee, uint oldPercentFee, address operator);\n    event LogCustomFeeChanged(uint newPercentFee, uint oldPercentFee, address buyer, address seller, address token, address operator);\n\n    \n    function () external payable {\n        revert();\n    }\n\n    \n    function updateFee(uint _newFee) public onlyOperator {\n        require(_newFee >= 0 && _newFee <= 10000, \"Invalid percent fee.\");\n\n        uint oldPercentFee = defaultPercentFee;\n        defaultPercentFee = _newFee;\n\n        emit LogFeeChanged(_newFee, oldPercentFee, msg.sender);\n    }\n\n    \n    function updateCustomFee(uint _newFee, address _currency, address _buyer, address _seller, address _token) public onlyOperator {\n        require(_newFee >= 0 && _newFee <= 10000, \"Invalid percent fee.\");\n\n        bytes32 key = _getHash(_currency, _buyer, _seller, _token);\n        uint oldPercentFee = customFee[key];\n        customFee[key] = _newFee;\n\n        emit LogCustomFeeChanged(_newFee, oldPercentFee, _buyer, _seller, _token, msg.sender);\n    }\n\n    \n    function getFee(uint _price, address _currency, address _buyer, address _seller, address _token) public view returns(uint percent, uint fee) {\n        bytes32 key = _getHash(_currency, _buyer, _seller, _token);\n        uint customPercentFee = customFee[key];\n        (percent, fee) = _getFee(_price, customPercentFee);\n    }\n\n    function _getFee(uint _price, uint _percentFee) internal view returns(uint percent, uint fee) {\n        require(_price >= 0, \"Invalid price.\");\n\n        percent = _percentFee;\n\n        \n        if (_percentFee == 0) {\n            percent = defaultPercentFee;\n        }\n\n        \n        if (_percentFee == NO_FEE) {\n            percent = 0;\n            fee = 0;\n        } else {\n            fee = _safeMul(_price, percent) / 10000; \n        }\n    }\n\n    \n    function _getHash(address _currency, address _buyer, address _seller, address _token) internal pure returns(bytes32 key) {\n        key = keccak256(abi.encodePacked(_currency, _buyer, _seller, _token));\n    }\n\n    \n    function _safeMul(uint a, uint b) internal pure returns (uint) {\n        if (a == 0) {\n            return 0;\n        }\n        uint c = a * b;\n        assert(c / a == b);\n        return c;\n    }\n}\n\n\n\ninterface ERC721  {\n    \n    \n    \n    \n    \n    event Transfer(address indexed _from, address indexed _to, uint256 indexed _tokenId);\n\n    \n    \n    \n    \n    event Approval(address indexed _owner, address indexed _approved, uint256 indexed _tokenId);\n\n    \n    \n    event ApprovalForAll(address indexed _owner, address indexed _operator, bool _approved);\n\n    \n    \n    \n    \n    \n    function balanceOf(address _owner) external view returns (uint256);\n\n    \n    \n    \n    \n    \n    function ownerOf(uint256 _tokenId) external view returns (address);\n\n    \n    \n    \n    \n    \n    \n    \n    \n    \n    \n    \n    \n    function safeTransferFrom(address _from, address _to, uint256 _tokenId, bytes data) external;\n\n    \n    \n    \n    \n    \n    \n    function safeTransferFrom(address _from, address _to, uint256 _tokenId) external;\n\n    \n    \n    \n    \n    \n    \n    \n    \n    \n    \n    function transferFrom(address _from, address _to, uint256 _tokenId) external;\n\n    \n    \n    \n    \n    \n    \n    function approve(address _approved, uint256 _tokenId) external;\n\n    \n    \n    \n    \n    \n    \n    function setApprovalForAll(address _operator, bool _approved) external;\n\n    \n    \n    \n    \n    function getApproved(uint256 _tokenId) external view returns (address);\n\n    \n    \n    \n    \n    function isApprovedForAll(address _owner, address _operator) external view returns (bool);\n}\n\n\n\ninterface ERC721TokenReceiver {\n\tfunction onERC721Received(address _from, uint256 _tokenId, bytes data) external returns(bytes4);\n\tfunction onERC721Received(address _operator, address _from, uint256 _tokenId, bytes data) external returns(bytes4);\n}\n\n\ncontract BitGuildMarketplace is BitGuildAccessAdmin {\n    \n    \n    bytes4 constant ERC721_RECEIVED_OLD = 0xf0b9e5ba;\n    \n    bytes4 constant ERC721_RECEIVED = 0x150b7a02;\n\n    \n    BitGuildToken public PLAT = BitGuildToken(0x7E43581b19ab509BCF9397a2eFd1ab10233f27dE); \n    BitGuildWhitelist public Whitelist = BitGuildWhitelist(0xA8CedD578fed14f07C3737bF42AD6f04FAAE3978); \n    BitGuildFeeProvider public FeeProvider = BitGuildFeeProvider(0x58D36571250D91eF5CE90869E66Cd553785364a2); \n    \n    \n    \n\n    uint public defaultExpiry = 7 days;  \n\n    enum Currency { PLAT, ETH }\n    struct Listing {\n        Currency currency;      \n        address seller;         \n        address token;          \n        uint tokenId;           \n        uint price;             \n        uint createdAt;         \n        uint expiry;            \n    }\n\n    mapping(bytes32 => Listing) public listings;\n\n    event LogListingCreated(address _seller, address _contract, uint _tokenId, uint _createdAt, uint _expiry);\n    event LogListingExtended(address _seller, address _contract, uint _tokenId, uint _createdAt, uint _expiry);\n    event LogItemSold(address _buyer, address _seller, address _contract, uint _tokenId, uint _price, Currency _currency, uint _soldAt);\n    event LogItemWithdrawn(address _seller, address _contract, uint _tokenId, uint _withdrawnAt);\n    event LogItemExtended(address _contract, uint _tokenId, uint _modifiedAt, uint _expiry);\n\n    modifier onlyWhitelisted(address _contract) {\n        require(Whitelist.isWhitelisted(_contract), \"Contract not in whitelist.\");\n        _;\n    }\n\n    \n    function () external payable {\n        revert();\n    }\n\n    \n    function getHashKey(address _contract, uint _tokenId) public pure returns(bytes32 key) {\n        key = _getHashKey(_contract, _tokenId);\n    }\n\n    \n    \n    \n    \n    function getFee(uint _price, address _currency, address _buyer, address _seller, address _token) public view returns(uint percent, uint fee) {\n        (percent, fee) = FeeProvider.getFee(_price, _currency, _buyer, _seller, _token);\n    }\n\n    \n    \n    \n    \n    \n    function onERC721Received(address _from, uint _tokenId, bytes _extraData) external returns(bytes4) {\n        _deposit(_from, msg.sender, _tokenId, _extraData);\n        return ERC721_RECEIVED_OLD;\n    }\n\n    \n    function onERC721Received(address _operator, address _from, uint _tokenId, bytes _extraData) external returns(bytes4) {\n        _deposit(_from, msg.sender, _tokenId, _extraData);\n        return ERC721_RECEIVED;\n    }\n\n    \n    \n    \n    function extendItem(address _contract, uint _tokenId) public onlyWhitelisted(_contract) returns(bool) {\n        bytes32 key = _getHashKey(_contract, _tokenId);\n        address seller = listings[key].seller;\n\n        require(seller == msg.sender, \"Only seller can extend listing.\");\n        require(listings[key].expiry > 0, \"Item not listed.\");\n\n        listings[key].expiry = now + defaultExpiry;\n\n        emit LogListingExtended(seller, _contract, _tokenId, listings[key].createdAt, listings[key].expiry);\n\n        return true;\n    }\n\n    \n    \n    \n    function withdrawItem(address _contract, uint _tokenId) public onlyWhitelisted(_contract) {\n        bytes32 key = _getHashKey(_contract, _tokenId);\n        address seller = listings[key].seller;\n\n        require(seller == msg.sender, \"Only seller can withdraw listing.\");\n\n        \n        ERC721 gameToken = ERC721(_contract);\n        gameToken.safeTransferFrom(this, seller, _tokenId);\n\n        emit LogItemWithdrawn(seller, _contract, _tokenId, now);\n\n        \n        delete(listings[key]);\n    }\n\n    \n    \n    \n    \n    \n    \n    function buyWithETH(address _token, uint _tokenId) public onlyWhitelisted(_token) payable {\n        _buy(_token, _tokenId, Currency.ETH, msg.value, msg.sender);\n    }\n\n    \n    \n    \n    \n    \n    \n    function receiveApproval(address _buyer, uint _value, BitGuildToken _PLAT, bytes _extraData) public {\n        require(_extraData.length > 0, \"No extraData provided.\");\n        \n        require(msg.sender == address(PLAT), \"Unauthorized PLAT contract address.\");\n\n        address token;\n        uint tokenId;\n        (token, tokenId) = _decodeBuyData(_extraData);\n\n        _buy(token, tokenId, Currency.PLAT, _value, _buyer);\n    }\n\n    \n    \n    \n    \n    function updateFeeProvider(address _newAddr) public onlyOperator {\n        require(_newAddr != address(0), \"Invalid contract address.\");\n        FeeProvider = BitGuildFeeProvider(_newAddr);\n    }\n\n    \n    function updateWhitelist(address _newAddr) public onlyOperator {\n        require(_newAddr != address(0), \"Invalid contract address.\");\n        Whitelist = BitGuildWhitelist(_newAddr);\n    }\n\n    \n    function updateExpiry(uint _days) public onlyOperator {\n        require(_days > 0, \"Invalid number of days.\");\n        defaultExpiry = _days * 1 days;\n    }\n\n    \n    function withdrawETH() public onlyOwner payable {\n        msg.sender.transfer(msg.value);\n    }\n\n    \n    function withdrawPLAT() public onlyOwner payable {\n        uint balance = PLAT.balanceOf(this);\n        PLAT.transfer(msg.sender, balance);\n    }\n\n    \n    \n    \n    function _getHashKey(address _contract, uint _tokenId) internal pure returns(bytes32 key) {\n        key = keccak256(abi.encodePacked(_contract, _tokenId));\n    }\n\n    \n    function _newListing(address _seller, address _contract, uint _tokenId, uint _price, Currency _currency) internal {\n        bytes32 key = _getHashKey(_contract, _tokenId);\n        uint createdAt = now;\n        uint expiry = now + defaultExpiry;\n        listings[key].currency = _currency;\n        listings[key].seller = _seller;\n        listings[key].token = _contract;\n        listings[key].tokenId = _tokenId;\n        listings[key].price = _price;\n        listings[key].createdAt = createdAt;\n        listings[key].expiry = expiry;\n\n        emit LogListingCreated(_seller, _contract, _tokenId, createdAt, expiry);\n    }\n\n    \n    \n    function _deposit(address _seller, address _contract, uint _tokenId, bytes _extraData) internal onlyWhitelisted(_contract) {\n        uint price;\n        uint currencyUint;\n        (currencyUint, price) = _decodePriceData(_extraData);\n        Currency currency = Currency(currencyUint);\n\n        require(price > 0, \"Invalid price.\");\n\n        _newListing(_seller, _contract, _tokenId, price, currency);\n    }\n\n    \n    function _buy(address _token, uint _tokenId, Currency _currency, uint _price, address _buyer) internal {\n        bytes32 key = _getHashKey(_token, _tokenId);\n        Currency currency = listings[key].currency;\n        address seller = listings[key].seller;\n\n        address currencyAddress = _currency == Currency.PLAT ? address(PLAT) : address(0);\n\n        require(currency == _currency, \"Wrong currency.\");\n        require(_price > 0 && _price == listings[key].price, \"Invalid price.\");\n        require(listings[key].expiry > now, \"Item expired.\");\n\n        ERC721 gameToken = ERC721(_token);\n        require(gameToken.ownerOf(_tokenId) == address(this), \"Item is not available.\");\n\n        if (_currency == Currency.PLAT) {\n            \n            require(PLAT.transferFrom(_buyer, address(this), _price), \"PLAT payment transfer failed.\");\n        }\n\n        \n        gameToken.safeTransferFrom(this, _buyer, _tokenId);\n\n        uint fee;\n        (,fee) = getFee(_price, currencyAddress, _buyer, seller, _token); \n\n        if (_currency == Currency.PLAT) {\n            PLAT.transfer(seller, _price - fee);\n        } else {\n            require(seller.send(_price - fee) == true, \"Transfer to seller failed.\");\n        }\n\n        \n        emit LogItemSold(_buyer, seller, _token, _tokenId, _price, currency, now);\n\n        \n        delete(listings[key]);\n    }\n\n    function _decodePriceData(bytes _extraData) internal pure returns(uint _currency, uint _price) {\n        \n        uint256 offset = 64;\n        _price = _bytesToUint256(offset, _extraData);\n        offset -= 32;\n        _currency = _bytesToUint256(offset, _extraData);\n    }\n\n    function _decodeBuyData(bytes _extraData) internal pure returns(address _contract, uint _tokenId) {\n        \n        uint256 offset = 64;\n        _tokenId = _bytesToUint256(offset, _extraData);\n        offset -= 32;\n        _contract = _bytesToAddress(offset, _extraData);\n    }\n\n    \n    function _bytesToUint256(uint _offst, bytes memory _input) internal pure returns (uint256 _output) {\n        assembly {\n            _output := mload(add(_input, _offst))\n        }\n    }\n\n    \n    function _bytesToAddress(uint _offst, bytes memory _input) internal pure returns (address _output) {\n        assembly {\n            _output := mload(add(_input, _offst))\n        }\n    }\n}",
  "sourcePath": "/home/XXX-1/smartrim-experiment/for-rlf/0x00e2c3b903bec1131fb05283c92df8a94613ca4a/contracts/0x00e2c3b903bec1131fb05283c92df8a94613ca4a.sol",
  "compiler": {
    "name": "solc",
    "version": "0.4.25+commit.59dbf8f1.Emscripten.clang"
  },
  "schemaVersion": "3.4.16",
  "updatedAt": "2025-08-14T03:44:26.276Z",
  "devdoc": {
    "methods": {}
  },
  "userdoc": {
    "methods": {}
  }
}