{
  "contractName": "ContractReceiver",
  "abi": [
    {
      "constant": false,
      "inputs": [
        {
          "name": "_from",
          "type": "address"
        },
        {
          "name": "_value",
          "type": "uint256"
        },
        {
          "name": "_data",
          "type": "bytes"
        }
      ],
      "name": "tokenFallback",
      "outputs": [],
      "payable": false,
      "stateMutability": "nonpayable",
      "type": "function"
    }
  ],
  "bytecode": "0x608060405234801561001057600080fd5b50610448806100206000396000f300608060405260043610610041576000357c0100000000000000000000000000000000000000000000000000000000900463ffffffff168063c0ee0b8a14610046575b600080fd5b34801561005257600080fd5b506100d7600480360381019080803573ffffffffffffffffffffffffffffffffffffffff16906020019092919080359060200190929190803590602001908201803590602001908080601f01602080910402602001604051908101604052809392919081815260200183838082843782019150505050505091929192905050506100d9565b005b6100e16103be565b600084826000019073ffffffffffffffffffffffffffffffffffffffff16908173ffffffffffffffffffffffffffffffffffffffff168152505083826020018181525050828260400181905250601883600081518110151561013f57fe5b9060200101517f010000000000000000000000000000000000000000000000000000000000000090047f0100000000000000000000000000000000000000000000000000000000000000027f0100000000000000000000000000000000000000000000000000000000000000900463ffffffff169060020a0260108460018151811015156101c957fe5b9060200101517f010000000000000000000000000000000000000000000000000000000000000090047f0100000000000000000000000000000000000000000000000000000000000000027f0100000000000000000000000000000000000000000000000000000000000000900463ffffffff169060020a02600885600281518110151561025357fe5b9060200101517f010000000000000000000000000000000000000000000000000000000000000090047f0100000000000000000000000000000000000000000000000000000000000000027f0100000000000000000000000000000000000000000000000000000000000000900463ffffffff169060020a028560038151811015156102db57fe5b9060200101517f010000000000000000000000000000000000000000000000000000000000000090047f0100000000000000000000000000000000000000000000000000000000000000027f010000000000000000000000000000000000000000000000000000000000000090040101019050807c01000000000000000000000000000000000000000000000000000000000282606001907bffffffffffffffffffffffffffffffffffffffffffffffffffffffff191690817bffffffffffffffffffffffffffffffffffffffffffffffffffffffff1916815250505050505050565b608060405190810160405280600073ffffffffffffffffffffffffffffffffffffffff168152602001600081526020016060815260200160007bffffffffffffffffffffffffffffffffffffffffffffffffffffffff1916815250905600a165627a7a72305820986802494a50e39ef866463a1a17528ac96ad9be71dc3e45b0a56b8a69f86a4a0029",
  "source": "\n\ncontract ERC223 {\n    uint public totalSupply;\n\n    \n    function balanceOf(address who) public constant returns (uint);\n    function totalSupply() constant public returns (uint256 _supply);\n    function transfer(address to, uint value) public returns (bool ok);\n    function transfer(address to, uint value, bytes data) public returns (bool ok);\n    function transfer(address to, uint value, bytes data, string customFallback) public returns (bool ok);\n    event Transfer(address indexed from, address indexed to, uint value, bytes indexed data);\n\n    \n    function name() constant public returns (string _name);\n    function symbol() constant public returns (string _symbol);\n    function decimals() constant public returns (uint8 _decimals);\n\n    \n    function transferFrom(address _from, address _to, uint256 _value) returns (bool success);\n    \n   \n    event Transfer(address indexed _from, address indexed _to, uint256 _value);\n   \n     event Burn(address indexed from, uint256 value);\n}\n\n\ncontract SafeMath {\n    uint256 constant public MAX_UINT256 =\n    0xFFFFFFFFFFFFFFFFFFFFFFFFFFFFFFFFFFFFFFFFFFFFFFFFFFFFFFFFFFFFFFFF;\n\n    function safeAdd(uint256 x, uint256 y) constant internal returns (uint256 z) {\n        if (x > MAX_UINT256 - y)\n            revert();\n        return x + y;\n    }\n\n    function safeSub(uint256 x, uint256 y) constant internal returns (uint256 z) {\n        if (x < y) {\n            revert();\n        }\n        return x - y;\n    }\n\n    function safeMul(uint256 x, uint256 y) constant internal returns (uint256 z) {\n        if (y == 0) {\n            return 0;\n        }\n        if (x > MAX_UINT256 / y) {\n            revert();\n        }\n        return x * y;\n    }\n}\n\n\n contract ContractReceiver {\n\n    struct TKN {\n        address sender;\n        uint value;\n        bytes data;\n        bytes4 sig;\n    }\n\n    function tokenFallback(address _from, uint _value, bytes _data) public {\n      TKN memory tkn;\n      tkn.sender = _from;\n      tkn.value = _value;\n      tkn.data = _data;\n      uint32 u = uint32(_data[3]) + (uint32(_data[2]) << 8) + (uint32(_data[1]) << 16) + (uint32(_data[0]) << 24);\n      tkn.sig = bytes4(u);\n\n      \n    }\n}\n\n\ncontract CL is ERC223, SafeMath {\n\n    string public name = \"TCoin\";\n\n    string public symbol = \"TCoin\";\n\n    uint8 public decimals = 8;\n\n    uint256 public totalSupply = 10000 * 10**2;\n\n    address public owner;\n    address public admin;\n\n  \n\n    bool public tokenCreated = false;\n\n    mapping(address => uint256) balances;\n\n    mapping(address => mapping (address => uint256)) allowed;\n    \n    function admined(){\n   admin = msg.sender;\n  }\n  \n\n    \n    \n    function CL() public {\n\n      \n        \n        require(tokenCreated == false);\n        tokenCreated = true;\n\n        owner = msg.sender;\n        balances[owner] = totalSupply;\n\n        \n        require(balances[owner] > 0);\n    }\n\n    modifier onlyOwner() {\n        require(msg.sender == owner);\n        _;\n    }\n     modifier onlyAdmin(){\n    require(msg.sender == admin) ;\n    _;\n  }\n  function transferAdminship(address newAdmin) onlyAdmin {\n     \n    admin = newAdmin;\n  }\n  \n  \n\n    \n    \n    \n    \n    \n    function distributeAirdrop(address[] addresses, uint256 amount) onlyOwner public {\n        \n        \n        \n\n        \n        uint256 normalizedAmount = amount * 10**8;\n        \n        \n        require(balances[owner] >= safeMul(addresses.length, normalizedAmount));\n        for (uint i = 0; i < addresses.length; i++) {\n            balances[owner] = safeSub(balanceOf(owner), normalizedAmount);\n            balances[addresses[i]] = safeAdd(balanceOf(addresses[i]), normalizedAmount);\n            Transfer(owner, addresses[i], normalizedAmount);\n        }\n    }\n\n    \n    function name() constant public returns (string _name) {\n        return name;\n    }\n    \n    function symbol() constant public returns (string _symbol) {\n        return symbol;\n    }\n    \n    function decimals() constant public returns (uint8 _decimals) {\n        return decimals;\n    }\n    \n    function totalSupply() constant public returns (uint256 _totalSupply) {\n        return totalSupply;\n    }\n\n    \n    function transfer(address _to, uint _value, bytes _data, string _custom_fallback) public returns (bool success) {\n\n        \n        \n       \n\n        if (isContract(_to)) {\n            if (balanceOf(msg.sender) < _value) {\n                revert();\n            }\n            balances[msg.sender] = safeSub(balanceOf(msg.sender), _value);\n            balances[_to] = safeAdd(balanceOf(_to), _value);\n            ContractReceiver receiver = ContractReceiver(_to);\n            receiver.call.value(0)(bytes4(sha3(_custom_fallback)), msg.sender, _value, _data);\n            Transfer(msg.sender, _to, _value, _data);\n            return true;\n        } else {\n            return transferToAddress(_to, _value, _data);\n        }\n    }\n\n    \n    function transfer(address _to, uint _value, bytes _data) public  returns (bool success) {\n\n        \n        \n       \n\n        if (isContract(_to)) {\n            return transferToContract(_to, _value, _data);\n        } else {\n            return transferToAddress(_to, _value, _data);\n        }\n    }\n    \n\n    \n    \n    function transfer(address _to, uint _value) public returns (bool success) {\n\n        \n        \n        \n\n        \n        \n        bytes memory empty;\n        if (isContract(_to)) {\n            return transferToContract(_to, _value, empty);\n        } else {\n            return transferToAddress(_to, _value, empty);\n        }\n    }\n\n    \n    function isContract(address _addr) private returns (bool is_contract) {\n        uint length;\n        assembly {\n            \n            length := extcodesize(_addr)\n        }\n        return (length > 0);\n    }\n\n    \n    function transferToAddress(address _to, uint _value, bytes _data) private returns (bool success) {\n        if (balanceOf(msg.sender) < _value) {\n            revert();\n        }\n        balances[msg.sender] = safeSub(balanceOf(msg.sender), _value);\n        balances[_to] = safeAdd(balanceOf(_to), _value);\n        Transfer(msg.sender, _to, _value, _data);\n        return true;\n    }\n    \n\n    \n    function transferToContract(address _to, uint _value, bytes _data) private returns (bool success) {\n        if (balanceOf(msg.sender) < _value) {\n            revert();\n        }\n        balances[msg.sender] = safeSub(balanceOf(msg.sender), _value);\n        balances[_to] = safeAdd(balanceOf(_to), _value);\n        ContractReceiver receiver = ContractReceiver(_to);\n        receiver.tokenFallback(msg.sender, _value, _data);\n        Transfer(msg.sender, _to, _value, _data);\n        return true;\n    }\n\n    \n    function balanceOf(address _owner) constant public returns (uint256 balance) {\n        return balances[_owner];\n    }\n\n     \n     \n   \n\n    \n    \n    \n    function transferFrom(address _from, address _to, uint256 _value) public returns (bool success) {\n        \n        \n        \n        \n        require(balances[_from] >= _value && allowed[_from][msg.sender] >= _value && balances[_to] + _value > balances[_to]);\n        uint256 allowance = allowed[_from][msg.sender];\n        require(balances[_from] >= _value && allowance >= _value);\n        balances[_to] = safeAdd(balanceOf(_to), _value);\n        balances[_from] = safeSub(balanceOf(_from), _value);\n        if (allowance < MAX_UINT256) {\n            allowed[_from][msg.sender] = safeSub(allowed[_from][msg.sender], _value);\n        }\n        Transfer(_from, _to, _value);\n        return true;\n    }\n    function mintToken(address target, uint256 mintedAmount) onlyOwner{\n    balances[target] += mintedAmount;\n    totalSupply += mintedAmount;\n    Transfer(0, this, mintedAmount);\n    Transfer(this, target, mintedAmount);\n  }\n  \n  function burn(uint256 _value) public returns (bool success) {\n        require(balances[msg.sender] >= _value);   \n        balances[msg.sender] -= _value;            \n        totalSupply -= _value;                      \n        Burn(msg.sender, _value);\n        return true;\n    }\n\n \n}",
  "sourcePath": "/home/XXX-1/smartrim-experiment/for-rlf/0xdab860de671cc76c4a341615b69f878a08bb9bbb/contracts/0xdab860de671cc76c4a341615b69f878a08bb9bbb.sol",
  "compiler": {
    "name": "solc",
    "version": "0.4.25+commit.59dbf8f1.Emscripten.clang"
  },
  "schemaVersion": "3.4.16",
  "updatedAt": "2025-08-14T04:08:20.753Z",
  "devdoc": {
    "methods": {}
  },
  "userdoc": {
    "methods": {}
  }
}