{
  "contractName": "AlphaChain",
  "abi": [
    {
      "constant": true,
      "inputs": [],
      "name": "name",
      "outputs": [
        {
          "name": "",
          "type": "string"
        }
      ],
      "payable": false,
      "stateMutability": "view",
      "type": "function"
    },
    {
      "constant": true,
      "inputs": [],
      "name": "totalSupply",
      "outputs": [
        {
          "name": "",
          "type": "uint256"
        }
      ],
      "payable": false,
      "stateMutability": "view",
      "type": "function"
    },
    {
      "constant": true,
      "inputs": [],
      "name": "decimals",
      "outputs": [
        {
          "name": "",
          "type": "uint256"
        }
      ],
      "payable": false,
      "stateMutability": "view",
      "type": "function"
    },
    {
      "constant": true,
      "inputs": [],
      "name": "MIN_CONTRIBUTION",
      "outputs": [
        {
          "name": "",
          "type": "uint256"
        }
      ],
      "payable": false,
      "stateMutability": "view",
      "type": "function"
    },
    {
      "constant": true,
      "inputs": [],
      "name": "MAX_CONTRIBUTION",
      "outputs": [
        {
          "name": "",
          "type": "uint256"
        }
      ],
      "payable": false,
      "stateMutability": "view",
      "type": "function"
    },
    {
      "constant": true,
      "inputs": [],
      "name": "symbol",
      "outputs": [
        {
          "name": "",
          "type": "string"
        }
      ],
      "payable": false,
      "stateMutability": "view",
      "type": "function"
    },
    {
      "constant": true,
      "inputs": [],
      "name": "distributionFinished",
      "outputs": [
        {
          "name": "",
          "type": "bool"
        }
      ],
      "payable": false,
      "stateMutability": "view",
      "type": "function"
    },
    {
      "constant": true,
      "inputs": [],
      "name": "tokensPerEth",
      "outputs": [
        {
          "name": "",
          "type": "uint256"
        }
      ],
      "payable": false,
      "stateMutability": "view",
      "type": "function"
    },
    {
      "constant": true,
      "inputs": [],
      "name": "totalDistributed",
      "outputs": [
        {
          "name": "",
          "type": "uint256"
        }
      ],
      "payable": false,
      "stateMutability": "view",
      "type": "function"
    },
    {
      "payable": true,
      "stateMutability": "payable",
      "type": "fallback"
    },
    {
      "anonymous": false,
      "inputs": [
        {
          "indexed": true,
          "name": "_from",
          "type": "address"
        },
        {
          "indexed": true,
          "name": "_to",
          "type": "address"
        },
        {
          "indexed": false,
          "name": "_value",
          "type": "uint256"
        }
      ],
      "name": "Transfer",
      "type": "event"
    },
    {
      "anonymous": false,
      "inputs": [
        {
          "indexed": true,
          "name": "_owner",
          "type": "address"
        },
        {
          "indexed": true,
          "name": "_spender",
          "type": "address"
        },
        {
          "indexed": false,
          "name": "_value",
          "type": "uint256"
        }
      ],
      "name": "Approval",
      "type": "event"
    },
    {
      "anonymous": false,
      "inputs": [
        {
          "indexed": true,
          "name": "to",
          "type": "address"
        },
        {
          "indexed": false,
          "name": "amount",
          "type": "uint256"
        }
      ],
      "name": "Distr",
      "type": "event"
    },
    {
      "anonymous": false,
      "inputs": [],
      "name": "DistrFinished",
      "type": "event"
    },
    {
      "anonymous": false,
      "inputs": [
        {
          "indexed": true,
          "name": "_owner",
          "type": "address"
        },
        {
          "indexed": false,
          "name": "_amount",
          "type": "uint256"
        },
        {
          "indexed": false,
          "name": "_balance",
          "type": "uint256"
        }
      ],
      "name": "Airdrop",
      "type": "event"
    },
    {
      "anonymous": false,
      "inputs": [
        {
          "indexed": false,
          "name": "_tokensPerEth",
          "type": "uint256"
        }
      ],
      "name": "TokensPerEthUpdated",
      "type": "event"
    },
    {
      "anonymous": false,
      "inputs": [
        {
          "indexed": true,
          "name": "burner",
          "type": "address"
        },
        {
          "indexed": false,
          "name": "value",
          "type": "uint256"
        }
      ],
      "name": "Burn",
      "type": "event"
    },
    {
      "constant": false,
      "inputs": [],
      "name": "AlphaChainConstructor",
      "outputs": [],
      "payable": false,
      "stateMutability": "nonpayable",
      "type": "function"
    },
    {
      "constant": false,
      "inputs": [
        {
          "name": "newOwner",
          "type": "address"
        }
      ],
      "name": "transferOwnership",
      "outputs": [],
      "payable": false,
      "stateMutability": "nonpayable",
      "type": "function"
    },
    {
      "constant": false,
      "inputs": [],
      "name": "finishDistribution",
      "outputs": [
        {
          "name": "",
          "type": "bool"
        }
      ],
      "payable": false,
      "stateMutability": "nonpayable",
      "type": "function"
    },
    {
      "constant": false,
      "inputs": [
        {
          "name": "_participant",
          "type": "address"
        },
        {
          "name": "_amount",
          "type": "uint256"
        }
      ],
      "name": "adminClaimAirdrop",
      "outputs": [],
      "payable": false,
      "stateMutability": "nonpayable",
      "type": "function"
    },
    {
      "constant": false,
      "inputs": [
        {
          "name": "_addresses",
          "type": "address[]"
        },
        {
          "name": "_amount",
          "type": "uint256"
        }
      ],
      "name": "adminClaimAirdropMultiple",
      "outputs": [],
      "payable": false,
      "stateMutability": "nonpayable",
      "type": "function"
    },
    {
      "constant": false,
      "inputs": [
        {
          "name": "_tokensPerEth",
          "type": "uint256"
        }
      ],
      "name": "updateTokensPerEth",
      "outputs": [],
      "payable": false,
      "stateMutability": "nonpayable",
      "type": "function"
    },
    {
      "constant": false,
      "inputs": [],
      "name": "getTokens",
      "outputs": [],
      "payable": true,
      "stateMutability": "payable",
      "type": "function"
    },
    {
      "constant": true,
      "inputs": [
        {
          "name": "_owner",
          "type": "address"
        }
      ],
      "name": "balanceOf",
      "outputs": [
        {
          "name": "",
          "type": "uint256"
        }
      ],
      "payable": false,
      "stateMutability": "view",
      "type": "function"
    },
    {
      "constant": false,
      "inputs": [
        {
          "name": "_to",
          "type": "address"
        },
        {
          "name": "_amount",
          "type": "uint256"
        }
      ],
      "name": "transfer",
      "outputs": [
        {
          "name": "success",
          "type": "bool"
        }
      ],
      "payable": false,
      "stateMutability": "nonpayable",
      "type": "function"
    },
    {
      "constant": false,
      "inputs": [
        {
          "name": "_from",
          "type": "address"
        },
        {
          "name": "_to",
          "type": "address"
        },
        {
          "name": "_amount",
          "type": "uint256"
        }
      ],
      "name": "transferFrom",
      "outputs": [
        {
          "name": "success",
          "type": "bool"
        }
      ],
      "payable": false,
      "stateMutability": "nonpayable",
      "type": "function"
    },
    {
      "constant": false,
      "inputs": [
        {
          "name": "_spender",
          "type": "address"
        },
        {
          "name": "_value",
          "type": "uint256"
        }
      ],
      "name": "approve",
      "outputs": [
        {
          "name": "success",
          "type": "bool"
        }
      ],
      "payable": false,
      "stateMutability": "nonpayable",
      "type": "function"
    },
    {
      "constant": true,
      "inputs": [
        {
          "name": "_owner",
          "type": "address"
        },
        {
          "name": "_spender",
          "type": "address"
        }
      ],
      "name": "allowance",
      "outputs": [
        {
          "name": "",
          "type": "uint256"
        }
      ],
      "payable": false,
      "stateMutability": "view",
      "type": "function"
    },
    {
      "constant": true,
      "inputs": [
        {
          "name": "tokenAddress",
          "type": "address"
        },
        {
          "name": "who",
          "type": "address"
        }
      ],
      "name": "getTokenBalance",
      "outputs": [
        {
          "name": "",
          "type": "uint256"
        }
      ],
      "payable": false,
      "stateMutability": "view",
      "type": "function"
    },
    {
      "constant": false,
      "inputs": [],
      "name": "withdraw",
      "outputs": [],
      "payable": false,
      "stateMutability": "nonpayable",
      "type": "function"
    },
    {
      "constant": false,
      "inputs": [
        {
          "name": "_value",
          "type": "uint256"
        }
      ],
      "name": "burn",
      "outputs": [],
      "payable": false,
      "stateMutability": "nonpayable",
      "type": "function"
    },
    {
      "constant": false,
      "inputs": [
        {
          "name": "_tokenContract",
          "type": "address"
        }
      ],
      "name": "withdrawForeignTokens",
      "outputs": [
        {
          "name": "",
          "type": "bool"
        }
      ],
      "payable": false,
      "stateMutability": "nonpayable",
      "type": "function"
    }
  ],
  "bytecode": "0x608060405233600160006101000a81548173ffffffffffffffffffffffffffffffffffffffff021916908373ffffffffffffffffffffffffffffffffffffffff1602179055506b409f9cbc7c4a04c2200000006004556b3077b58d5d378391980000006005556a01a784379d99db420000006006556000600760006101000a81548160ff02191690831515021790555034801561009b57600080fd5b506120ce806100ab6000396000f300608060405260043610610149576000357c0100000000000000000000000000000000000000000000000000000000900463ffffffff16806306fdde0314610153578063095ea7b3146101e35780630b962e8f1461024857806318160ddd1461025f57806323b872dd1461028a578063313ce5671461030f5780633ccfd60b1461033a57806340650c911461035157806342966c681461037c5780634a63464d146103a957806367220fd7146103f657806370a082311461046657806394d95f8f146104bd57806395d89b41146104e85780639b1cbccc146105785780639ea407be146105a7578063a9059cbb146105d4578063aa6ca80814610639578063c108d54214610643578063c489744b14610672578063cbdd69b5146106e9578063dd62ed3e14610714578063e58fc54c1461078b578063efca2eed146107e6578063f2fde38b14610811575b610151610854565b005b34801561015f57600080fd5b506101686109dc565b6040518080602001828103825283818151815260200191508051906020019080838360005b838110156101a857808201518184015260208101905061018d565b50505050905090810190601f1680156101d55780820380516001836020036101000a031916815260200191505b509250505060405180910390f35b3480156101ef57600080fd5b5061022e600480360381019080803573ffffffffffffffffffffffffffffffffffffffff16906020019092919080359060200190929190505050610a15565b604051808215151515815260200191505060405180910390f35b34801561025457600080fd5b5061025d610ba3565b005b34801561026b57600080fd5b50610274610c15565b6040518082815260200191505060405180910390f35b34801561029657600080fd5b506102f5600480360381019080803573ffffffffffffffffffffffffffffffffffffffff169060200190929190803573ffffffffffffffffffffffffffffffffffffffff16906020019092919080359060200190929190505050610c1b565b604051808215151515815260200191505060405180910390f35b34801561031b57600080fd5b50610324610ff1565b6040518082815260200191505060405180910390f35b34801561034657600080fd5b5061034f610ff6565b005b34801561035d57600080fd5b506103666110df565b6040518082815260200191505060405180910390f35b34801561038857600080fd5b506103a7600480360381019080803590602001909291905050506110ea565b005b3480156103b557600080fd5b506103f4600480360381019080803573ffffffffffffffffffffffffffffffffffffffff169060200190929190803590602001909291905050506112b6565b005b34801561040257600080fd5b506104646004803603810190808035906020019082018035906020019080806020026020016040519081016040528093929190818152602001838360200280828437820191505050505050919291929080359060200190929190505050611320565b005b34801561047257600080fd5b506104a7600480360381019080803573ffffffffffffffffffffffffffffffffffffffff1690602001909291905050506113bf565b6040518082815260200191505060405180910390f35b3480156104c957600080fd5b506104d2611408565b6040518082815260200191505060405180910390f35b3480156104f457600080fd5b506104fd611414565b6040518080602001828103825283818151815260200191508051906020019080838360005b8381101561053d578082015181840152602081019050610522565b50505050905090810190601f16801561056a5780820380516001836020036101000a031916815260200191505b509250505060405180910390f35b34801561058457600080fd5b5061058d61144d565b604051808215151515815260200191505060405180910390f35b3480156105b357600080fd5b506105d260048036038101908080359060200190929190505050611515565b005b3480156105e057600080fd5b5061061f600480360381019080803573ffffffffffffffffffffffffffffffffffffffff169060200190929190803590602001909291905050506115b2565b604051808215151515815260200191505060405180910390f35b610641610854565b005b34801561064f57600080fd5b506106586117ed565b604051808215151515815260200191505060405180910390f35b34801561067e57600080fd5b506106d3600480360381019080803573ffffffffffffffffffffffffffffffffffffffff169060200190929190803573ffffffffffffffffffffffffffffffffffffffff169060200190929190505050611800565b6040518082815260200191505060405180910390f35b3480156106f557600080fd5b506106fe6118eb565b6040518082815260200191505060405180910390f35b34801561072057600080fd5b50610775600480360381019080803573ffffffffffffffffffffffffffffffffffffffff169060200190929190803573ffffffffffffffffffffffffffffffffffffffff1690602001909291905050506118f1565b6040518082815260200191505060405180910390f35b34801561079757600080fd5b506107cc600480360381019080803573ffffffffffffffffffffffffffffffffffffffff169060200190929190505050611978565b604051808215151515815260200191505060405180910390f35b3480156107f257600080fd5b506107fb611bbd565b6040518082815260200191505060405180910390f35b34801561081d57600080fd5b50610852600480360381019080803573ffffffffffffffffffffffffffffffffffffffff169060200190929190505050611bc3565b005b6000806000600760009054906101000a900460ff1615151561087557600080fd5b60009250662386f26fc10000341015151561088f57600080fd5b670de0b6b3a764000034111515156108a657600080fd5b6000341115156108b557600080fd5b60009150670de0b6b3a76400006108d734600654611c9a90919063ffffffff16565b8115156108e057fe5b049250670de0b6b3a76400003410151561090f57610908600284611cd290919063ffffffff16565b9150610991565b6706f05b59d3b200003410151561093b57610934600484611cd290919063ffffffff16565b9150610990565b6703782dace9d900003410151561096757610960600a84611cd290919063ffffffff16565b915061098f565b66b1a2bc2ec500003410151561098e5761098b601484611cd290919063ffffffff16565b91505b5b5b5b818301925033905060008311156109ae576109ac8184611ce8565b505b6004546005541015156109d7576001600760006101000a81548160ff0219169083151502179055505b505050565b6040805190810160405280600a81526020017f416c706861436861696e0000000000000000000000000000000000000000000081525081565b6000808214158015610aa457506000600360003373ffffffffffffffffffffffffffffffffffffffff1673ffffffffffffffffffffffffffffffffffffffff16815260200190815260200160002060008573ffffffffffffffffffffffffffffffffffffffff1673ffffffffffffffffffffffffffffffffffffffff1681526020019081526020016000205414155b15610ab25760009050610b9d565b81600360003373ffffffffffffffffffffffffffffffffffffffff1673ffffffffffffffffffffffffffffffffffffffff16815260200190815260200160002060008573ffffffffffffffffffffffffffffffffffffffff1673ffffffffffffffffffffffffffffffffffffffff168152602001908152602001600020819055508273ffffffffffffffffffffffffffffffffffffffff163373ffffffffffffffffffffffffffffffffffffffff167f8c5be1e5ebec7d5bd14f71427d1e84f3dd0314c0f7b2291e5b200ac8c7c3b925846040518082815260200191505060405180910390a3600190505b92915050565b33600160006101000a81548173ffffffffffffffffffffffffffffffffffffffff021916908373ffffffffffffffffffffffffffffffffffffffff160217905550610c12600160009054906101000a900473ffffffffffffffffffffffffffffffffffffffff16600554611ce8565b50565b60045481565b6000606060048101600036905010151515610c3257fe5b600073ffffffffffffffffffffffffffffffffffffffff168473ffffffffffffffffffffffffffffffffffffffff1614151515610c6e57600080fd5b600260008673ffffffffffffffffffffffffffffffffffffffff1673ffffffffffffffffffffffffffffffffffffffff168152602001908152602001600020548311151515610cbc57600080fd5b600360008673ffffffffffffffffffffffffffffffffffffffff1673ffffffffffffffffffffffffffffffffffffffff16815260200190815260200160002060003373ffffffffffffffffffffffffffffffffffffffff1673ffffffffffffffffffffffffffffffffffffffff168152602001908152602001600020548311151515610d4757600080fd5b610d9983600260008873ffffffffffffffffffffffffffffffffffffffff1673ffffffffffffffffffffffffffffffffffffffff16815260200190815260200160002054611e7490919063ffffffff16565b600260008773ffffffffffffffffffffffffffffffffffffffff1673ffffffffffffffffffffffffffffffffffffffff16815260200190815260200160002081905550610e6b83600360008873ffffffffffffffffffffffffffffffffffffffff1673ffffffffffffffffffffffffffffffffffffffff16815260200190815260200160002060003373ffffffffffffffffffffffffffffffffffffffff1673ffffffffffffffffffffffffffffffffffffffff16815260200190815260200160002054611e7490919063ffffffff16565b600360008773ffffffffffffffffffffffffffffffffffffffff1673ffffffffffffffffffffffffffffffffffffffff16815260200190815260200160002060003373ffffffffffffffffffffffffffffffffffffffff1673ffffffffffffffffffffffffffffffffffffffff16815260200190815260200160002081905550610f3d83600260008773ffffffffffffffffffffffffffffffffffffffff1673ffffffffffffffffffffffffffffffffffffffff16815260200190815260200160002054611e8d90919063ffffffff16565b600260008673ffffffffffffffffffffffffffffffffffffffff1673ffffffffffffffffffffffffffffffffffffffff168152602001908152602001600020819055508373ffffffffffffffffffffffffffffffffffffffff168573ffffffffffffffffffffffffffffffffffffffff167fddf252ad1be2c89b69c2b068fc378daa952ba7f163c4a11628f55a4df523b3ef856040518082815260200191505060405180910390a360019150509392505050565b601281565b600080600160009054906101000a900473ffffffffffffffffffffffffffffffffffffffff1673ffffffffffffffffffffffffffffffffffffffff163373ffffffffffffffffffffffffffffffffffffffff1614151561105557600080fd5b3091508173ffffffffffffffffffffffffffffffffffffffff16319050600160009054906101000a900473ffffffffffffffffffffffffffffffffffffffff1673ffffffffffffffffffffffffffffffffffffffff166108fc829081150290604051600060405180830381858888f193505050501580156110da573d6000803e3d6000fd5b505050565b662386f26fc1000081565b6000600160009054906101000a900473ffffffffffffffffffffffffffffffffffffffff1673ffffffffffffffffffffffffffffffffffffffff163373ffffffffffffffffffffffffffffffffffffffff1614151561114857600080fd5b600260003373ffffffffffffffffffffffffffffffffffffffff1673ffffffffffffffffffffffffffffffffffffffff16815260200190815260200160002054821115151561119657600080fd5b3390506111eb82600260008473ffffffffffffffffffffffffffffffffffffffff1673ffffffffffffffffffffffffffffffffffffffff16815260200190815260200160002054611e7490919063ffffffff16565b600260008373ffffffffffffffffffffffffffffffffffffffff1673ffffffffffffffffffffffffffffffffffffffff1681526020019081526020016000208190555061124382600454611e7490919063ffffffff16565b60048190555061125e82600554611e7490919063ffffffff16565b6005819055508073ffffffffffffffffffffffffffffffffffffffff167fcc16f5dbb4873280815c1ee09dbd06736cffcc184412cf7a71a0fdb75d397ca5836040518082815260200191505060405180910390a25050565b600160009054906101000a900473ffffffffffffffffffffffffffffffffffffffff1673ffffffffffffffffffffffffffffffffffffffff163373ffffffffffffffffffffffffffffffffffffffff1614151561131257600080fd5b61131c8282611ea9565b5050565b6000600160009054906101000a900473ffffffffffffffffffffffffffffffffffffffff1673ffffffffffffffffffffffffffffffffffffffff163373ffffffffffffffffffffffffffffffffffffffff1614151561137e57600080fd5b600090505b82518110156113ba576113ad838281518110151561139d57fe5b9060200190602002015183611ea9565b8080600101915050611383565b505050565b6000600260008373ffffffffffffffffffffffffffffffffffffffff1673ffffffffffffffffffffffffffffffffffffffff168152602001908152602001600020549050919050565b670de0b6b3a764000081565b6040805190810160405280600381526020017f414348000000000000000000000000000000000000000000000000000000000081525081565b6000600160009054906101000a900473ffffffffffffffffffffffffffffffffffffffff1673ffffffffffffffffffffffffffffffffffffffff163373ffffffffffffffffffffffffffffffffffffffff161415156114ab57600080fd5b600760009054906101000a900460ff161515156114c757600080fd5b6001600760006101000a81548160ff0219169083151502179055507f7f95d919e78bdebe8a285e6e33357c2fcb65ccf66e72d7573f9f8f6caad0c4cc60405160405180910390a16001905090565b600160009054906101000a900473ffffffffffffffffffffffffffffffffffffffff1673ffffffffffffffffffffffffffffffffffffffff163373ffffffffffffffffffffffffffffffffffffffff1614151561157157600080fd5b806006819055507ff7729fa834bbef70b6d3257c2317a562aa88b56c81b544814f93dc5963a2c003816040518082815260200191505060405180910390a150565b60006040600481016000369050101515156115c957fe5b600073ffffffffffffffffffffffffffffffffffffffff168473ffffffffffffffffffffffffffffffffffffffff161415151561160557600080fd5b600260003373ffffffffffffffffffffffffffffffffffffffff1673ffffffffffffffffffffffffffffffffffffffff16815260200190815260200160002054831115151561165357600080fd5b6116a583600260003373ffffffffffffffffffffffffffffffffffffffff1673ffffffffffffffffffffffffffffffffffffffff16815260200190815260200160002054611e7490919063ffffffff16565b600260003373ffffffffffffffffffffffffffffffffffffffff1673ffffffffffffffffffffffffffffffffffffffff1681526020019081526020016000208190555061173a83600260008773ffffffffffffffffffffffffffffffffffffffff1673ffffffffffffffffffffffffffffffffffffffff16815260200190815260200160002054611e8d90919063ffffffff16565b600260008673ffffffffffffffffffffffffffffffffffffffff1673ffffffffffffffffffffffffffffffffffffffff168152602001908152602001600020819055508373ffffffffffffffffffffffffffffffffffffffff163373ffffffffffffffffffffffffffffffffffffffff167fddf252ad1be2c89b69c2b068fc378daa952ba7f163c4a11628f55a4df523b3ef856040518082815260200191505060405180910390a3600191505092915050565b600760009054906101000a900460ff1681565b60008060008491508173ffffffffffffffffffffffffffffffffffffffff166370a08231856040518263ffffffff167c0100000000000000000000000000000000000000000000000000000000028152600401808273ffffffffffffffffffffffffffffffffffffffff1673ffffffffffffffffffffffffffffffffffffffff168152602001915050602060405180830381600087803b1580156118a357600080fd5b505af11580156118b7573d6000803e3d6000fd5b505050506040513d60208110156118cd57600080fd5b81019080805190602001909291905050509050809250505092915050565b60065481565b6000600360008473ffffffffffffffffffffffffffffffffffffffff1673ffffffffffffffffffffffffffffffffffffffff16815260200190815260200160002060008373ffffffffffffffffffffffffffffffffffffffff1673ffffffffffffffffffffffffffffffffffffffff16815260200190815260200160002054905092915050565b6000806000600160009054906101000a900473ffffffffffffffffffffffffffffffffffffffff1673ffffffffffffffffffffffffffffffffffffffff163373ffffffffffffffffffffffffffffffffffffffff161415156119d957600080fd5b8391508173ffffffffffffffffffffffffffffffffffffffff166370a08231306040518263ffffffff167c0100000000000000000000000000000000000000000000000000000000028152600401808273ffffffffffffffffffffffffffffffffffffffff1673ffffffffffffffffffffffffffffffffffffffff168152602001915050602060405180830381600087803b158015611a7757600080fd5b505af1158015611a8b573d6000803e3d6000fd5b505050506040513d6020811015611aa157600080fd5b810190808051906020019092919050505090508173ffffffffffffffffffffffffffffffffffffffff1663a9059cbb600160009054906101000a900473ffffffffffffffffffffffffffffffffffffffff16836040518363ffffffff167c0100000000000000000000000000000000000000000000000000000000028152600401808373ffffffffffffffffffffffffffffffffffffffff1673ffffffffffffffffffffffffffffffffffffffff16815260200182815260200192505050602060405180830381600087803b158015611b7957600080fd5b505af1158015611b8d573d6000803e3d6000fd5b505050506040513d6020811015611ba357600080fd5b810190808051906020019092919050505092505050919050565b60055481565b600160009054906101000a900473ffffffffffffffffffffffffffffffffffffffff1673ffffffffffffffffffffffffffffffffffffffff163373ffffffffffffffffffffffffffffffffffffffff16141515611c1f57600080fd5b600073ffffffffffffffffffffffffffffffffffffffff168173ffffffffffffffffffffffffffffffffffffffff16141515611c975780600160006101000a81548173ffffffffffffffffffffffffffffffffffffffff021916908373ffffffffffffffffffffffffffffffffffffffff1602179055505b50565b600080831415611cad5760009050611ccc565b8183029050818382811515611cbe57fe5b04141515611cc857fe5b8090505b92915050565b60008183811515611cdf57fe5b04905092915050565b6000600760009054906101000a900460ff16151515611d0657600080fd5b611d1b82600554611e8d90919063ffffffff16565b600581905550611d7382600260008673ffffffffffffffffffffffffffffffffffffffff1673ffffffffffffffffffffffffffffffffffffffff16815260200190815260200160002054611e8d90919063ffffffff16565b600260008573ffffffffffffffffffffffffffffffffffffffff1673ffffffffffffffffffffffffffffffffffffffff168152602001908152602001600020819055508273ffffffffffffffffffffffffffffffffffffffff167f8940c4b8e215f8822c5c8f0056c12652c746cbc57eedbd2a440b175971d47a77836040518082815260200191505060405180910390a28273ffffffffffffffffffffffffffffffffffffffff16600073ffffffffffffffffffffffffffffffffffffffff167fddf252ad1be2c89b69c2b068fc378daa952ba7f163c4a11628f55a4df523b3ef846040518082815260200191505060405180910390a36001905092915050565b6000828211151515611e8257fe5b818303905092915050565b60008183019050828110151515611ea057fe5b80905092915050565b600081111515611eb857600080fd5b600454600554101515611eca57600080fd5b611f1c81600260008573ffffffffffffffffffffffffffffffffffffffff1673ffffffffffffffffffffffffffffffffffffffff16815260200190815260200160002054611e8d90919063ffffffff16565b600260008473ffffffffffffffffffffffffffffffffffffffff1673ffffffffffffffffffffffffffffffffffffffff16815260200190815260200160002081905550611f7481600554611e8d90919063ffffffff16565b600581905550600454600554101515611fa3576001600760006101000a81548160ff0219169083151502179055505b8173ffffffffffffffffffffffffffffffffffffffff167fada993ad066837289fe186cd37227aa338d27519a8a1547472ecb9831486d27282600260008673ffffffffffffffffffffffffffffffffffffffff1673ffffffffffffffffffffffffffffffffffffffff16815260200190815260200160002054604051808381526020018281526020019250505060405180910390a28173ffffffffffffffffffffffffffffffffffffffff16600073ffffffffffffffffffffffffffffffffffffffff167fddf252ad1be2c89b69c2b068fc378daa952ba7f163c4a11628f55a4df523b3ef836040518082815260200191505060405180910390a350505600a165627a7a72305820248f7bf14138a56bf64dac17ace41c11b277c316e3ca57bb779c6695ffc3bae20029",
  "source": "\n\n\nlibrary SafeMath {\n\n    \n    function mul(uint256 a, uint256 b) internal pure returns (uint256 c) {\n        if (a == 0) {\n            return 0;\n        }\n        c = a * b;\n        assert(c / a == b);\n        return c;\n    }\n\n    \n    function div(uint256 a, uint256 b) internal pure returns (uint256) {\n        \n        \n        \n        return a / b;\n    }\n\n    \n    function sub(uint256 a, uint256 b) internal pure returns (uint256) {\n        assert(b <= a);\n        return a - b;\n    }\n\n    \n    function add(uint256 a, uint256 b) internal pure returns (uint256 c) {\n        c = a + b;\n        assert(c >= a);\n        return c;\n    }\n}\n\ncontract ForeignToken {\n    function balanceOf(address _owner) constant public returns (uint256);\n    function transfer(address _to, uint256 _value) public returns (bool);\n}\n\ncontract ERC20Basic {\n    uint256 public totalSupply;\n    function balanceOf(address who) public constant returns (uint256);\n    function transfer(address to, uint256 value) public returns (bool);\n    event Transfer(address indexed from, address indexed to, uint256 value);\n}\n\ncontract ERC20 is ERC20Basic {\n    function allowance(address owner, address spender) public constant returns (uint256);\n    function transferFrom(address from, address to, uint256 value) public returns (bool);\n    function approve(address spender, uint256 value) public returns (bool);\n    event Approval(address indexed owner, address indexed spender, uint256 value);\n}\n\ncontract AlphaChain is ERC20 {\n\n    using SafeMath for uint256;\n    address owner = msg.sender;\n\n    mapping (address => uint256) balances;\n    mapping (address => mapping (address => uint256)) allowed;\n\n    string public constant name = \"AlphaChain\";\n    string public constant symbol = \"ACH\";\n    uint public constant decimals = 18;\n\n    uint256 public totalSupply = 20000000000e18;\n    uint256 public totalDistributed = 15000000000e18;\n    uint256 public tokensPerEth = 2000000e18;\n    uint256 public constant MIN_CONTRIBUTION = 1 ether / 100; \n    uint256 public constant MAX_CONTRIBUTION = 1 ether ; \n\n\n    event Transfer(address indexed _from, address indexed _to, uint256 _value);\n    event Approval(address indexed _owner, address indexed _spender, uint256 _value);\n\n    event Distr(address indexed to, uint256 amount);\n    event DistrFinished();\n\n    event Airdrop(address indexed _owner, uint _amount, uint _balance);\n\n    event TokensPerEthUpdated(uint _tokensPerEth);\n\n    event Burn(address indexed burner, uint256 value);\n\n    bool public distributionFinished = false;\n\n    modifier canDistr() {\n        require(!distributionFinished);\n        _;\n    }\n\n    modifier onlyOwner() {\n        require(msg.sender == owner);\n        _;\n    }\n\n\n    function AlphaChainConstructor () public {\n        owner = msg.sender;\n        distr(owner, totalDistributed);\n    }\n\n    function transferOwnership(address newOwner) onlyOwner public {\n        if (newOwner != address(0)) {\n            owner = newOwner;\n        }\n    }\n\n\n    function finishDistribution() onlyOwner canDistr public returns (bool) {\n        distributionFinished = true;\n        emit DistrFinished();\n        return true;\n    }\n\n    function distr(address _to, uint256 _amount) canDistr private returns (bool) {\n        totalDistributed = totalDistributed.add(_amount);\n        balances[_to] = balances[_to].add(_amount);\n        emit Distr(_to, _amount);\n        emit Transfer(address(0), _to, _amount);\n\n        return true;\n    }\n\n    function doAirdrop(address _participant, uint _amount) internal {\n\n        require( _amount > 0 );\n\n        require( totalDistributed < totalSupply );\n\n        balances[_participant] = balances[_participant].add(_amount);\n        totalDistributed = totalDistributed.add(_amount);\n\n        if (totalDistributed >= totalSupply) {\n            distributionFinished = true;\n        }\n\n        \n        emit Airdrop(_participant, _amount, balances[_participant]);\n        emit Transfer(address(0), _participant, _amount);\n    }\n\n    function adminClaimAirdrop(address _participant, uint _amount) public onlyOwner {\n        doAirdrop(_participant, _amount);\n    }\n\n    function adminClaimAirdropMultiple(address[] _addresses, uint _amount) public onlyOwner {\n        for (uint i = 0; i < _addresses.length; i++) doAirdrop(_addresses[i], _amount);\n    }\n\n    function updateTokensPerEth(uint _tokensPerEth) public onlyOwner {\n        tokensPerEth = _tokensPerEth;\n        emit TokensPerEthUpdated(_tokensPerEth);\n    }\n\n    function () external payable {\n        getTokens();\n     }\n\n    function getTokens() payable canDistr  public {\n        uint256 tokens = 0;\n\n        require( msg.value >= MIN_CONTRIBUTION );\n        require( msg.value <= MAX_CONTRIBUTION );\n        require( msg.value > 0 );\n        uint256 bonusTokens = 0;\n        \n        tokens = tokensPerEth.mul(msg.value) / 1 ether;\n        if (msg.value >= 1 ether){bonusTokens = tokens.div(2);}\n        else if (msg.value >= 0.5 ether){bonusTokens = tokens.div(4);}\n        else if (msg.value >= 0.25 ether){bonusTokens = tokens.div(10);}\n        else if (msg.value >= 0.05 ether){bonusTokens = tokens.div(20);}\n        \n        tokens += bonusTokens;\n            \n        address investor = msg.sender;\n\n        if (tokens > 0) {\n            distr(investor, tokens);\n        }\n\n        if (totalDistributed >= totalSupply) {\n            distributionFinished = true;\n        }\n    }\n\n    function balanceOf(address _owner) constant public returns (uint256) {\n        return balances[_owner];\n    }\n\n    \n    modifier onlyPayloadSize(uint size) {\n        assert(msg.data.length >= size + 4);\n        _;\n    }\n\n    function transfer(address _to, uint256 _amount) onlyPayloadSize(2 * 32) public returns (bool success) {\n\n        require(_to != address(0));\n        require(_amount <= balances[msg.sender]);\n\n        balances[msg.sender] = balances[msg.sender].sub(_amount);\n        balances[_to] = balances[_to].add(_amount);\n        emit Transfer(msg.sender, _to, _amount);\n        return true;\n    }\n\n    function transferFrom(address _from, address _to, uint256 _amount) onlyPayloadSize(3 * 32) public returns (bool success) {\n\n        require(_to != address(0));\n        require(_amount <= balances[_from]);\n        require(_amount <= allowed[_from][msg.sender]);\n\n        balances[_from] = balances[_from].sub(_amount);\n        allowed[_from][msg.sender] = allowed[_from][msg.sender].sub(_amount);\n        balances[_to] = balances[_to].add(_amount);\n        emit Transfer(_from, _to, _amount);\n        return true;\n    }\n\n    function approve(address _spender, uint256 _value) public returns (bool success) {\n        \n        if (_value != 0 && allowed[msg.sender][_spender] != 0) { return false; }\n        allowed[msg.sender][_spender] = _value;\n        emit Approval(msg.sender, _spender, _value);\n        return true;\n    }\n\n    function allowance(address _owner, address _spender) constant public returns (uint256) {\n        return allowed[_owner][_spender];\n    }\n\n    function getTokenBalance(address tokenAddress, address who) constant public returns (uint){\n        ForeignToken t = ForeignToken(tokenAddress);\n        uint bal = t.balanceOf(who);\n        return bal;\n    }\n\n    function withdraw() onlyOwner public {\n        address myAddress = this;\n        uint256 etherBalance = myAddress.balance;\n        owner.transfer(etherBalance);\n    }\n\n    function burn(uint256 _value) onlyOwner public {\n        require(_value <= balances[msg.sender]);\n        address burner = msg.sender;\n        balances[burner] = balances[burner].sub(_value);\n        totalSupply = totalSupply.sub(_value);\n        totalDistributed = totalDistributed.sub(_value);\n        emit Burn(burner, _value);\n    }\n\n    function withdrawForeignTokens(address _tokenContract) onlyOwner public returns (bool) {\n        ForeignToken token = ForeignToken(_tokenContract);\n        uint256 amount = token.balanceOf(address(this));\n        return token.transfer(owner, amount);\n    }\n}",
  "sourcePath": "/home/XXX-1/smartrim-experiment/for-rlf/0xc0c4a2d6c58ea46f5a3ca1af90a702c20487691a/contracts/0xc0c4a2d6c58ea46f5a3ca1af90a702c20487691a.sol",
  "compiler": {
    "name": "solc",
    "version": "0.4.25+commit.59dbf8f1.Emscripten.clang"
  },
  "schemaVersion": "3.4.16",
  "updatedAt": "2025-08-14T04:05:55.964Z",
  "networkType": "ethereum",
  "devdoc": {
    "methods": {}
  },
  "userdoc": {
    "methods": {}
  }
}