{
  "contractName": "TokenSale",
  "abi": [
    {
      "constant": true,
      "inputs": [],
      "name": "name",
      "outputs": [
        {
          "name": "",
          "type": "string"
        }
      ],
      "payable": false,
      "stateMutability": "view",
      "type": "function"
    },
    {
      "constant": true,
      "inputs": [],
      "name": "beneficiary",
      "outputs": [
        {
          "name": "",
          "type": "address"
        }
      ],
      "payable": false,
      "stateMutability": "view",
      "type": "function"
    },
    {
      "constant": true,
      "inputs": [],
      "name": "tokensSoldTotal",
      "outputs": [
        {
          "name": "",
          "type": "uint256"
        }
      ],
      "payable": false,
      "stateMutability": "view",
      "type": "function"
    },
    {
      "constant": false,
      "inputs": [],
      "name": "halt",
      "outputs": [],
      "payable": false,
      "stateMutability": "nonpayable",
      "type": "function"
    },
    {
      "constant": true,
      "inputs": [],
      "name": "owner",
      "outputs": [
        {
          "name": "",
          "type": "address"
        }
      ],
      "payable": false,
      "stateMutability": "view",
      "type": "function"
    },
    {
      "constant": false,
      "inputs": [],
      "name": "Owanble",
      "outputs": [],
      "payable": false,
      "stateMutability": "nonpayable",
      "type": "function"
    },
    {
      "constant": true,
      "inputs": [],
      "name": "price",
      "outputs": [
        {
          "name": "",
          "type": "uint256"
        }
      ],
      "payable": false,
      "stateMutability": "view",
      "type": "function"
    },
    {
      "constant": true,
      "inputs": [],
      "name": "weiRaisedTotal",
      "outputs": [
        {
          "name": "",
          "type": "uint256"
        }
      ],
      "payable": false,
      "stateMutability": "view",
      "type": "function"
    },
    {
      "constant": true,
      "inputs": [],
      "name": "halted",
      "outputs": [
        {
          "name": "",
          "type": "bool"
        }
      ],
      "payable": false,
      "stateMutability": "view",
      "type": "function"
    },
    {
      "constant": false,
      "inputs": [],
      "name": "unhalt",
      "outputs": [],
      "payable": false,
      "stateMutability": "nonpayable",
      "type": "function"
    },
    {
      "constant": true,
      "inputs": [],
      "name": "reserve",
      "outputs": [
        {
          "name": "",
          "type": "address"
        }
      ],
      "payable": false,
      "stateMutability": "view",
      "type": "function"
    },
    {
      "constant": true,
      "inputs": [],
      "name": "investorCount",
      "outputs": [
        {
          "name": "",
          "type": "uint256"
        }
      ],
      "payable": false,
      "stateMutability": "view",
      "type": "function"
    },
    {
      "constant": false,
      "inputs": [
        {
          "name": "newOwner",
          "type": "address"
        }
      ],
      "name": "transferOwnership",
      "outputs": [],
      "payable": false,
      "stateMutability": "nonpayable",
      "type": "function"
    },
    {
      "constant": true,
      "inputs": [],
      "name": "token",
      "outputs": [
        {
          "name": "",
          "type": "address"
        }
      ],
      "payable": false,
      "stateMutability": "view",
      "type": "function"
    },
    {
      "inputs": [],
      "payable": false,
      "stateMutability": "nonpayable",
      "type": "constructor"
    },
    {
      "payable": true,
      "stateMutability": "payable",
      "type": "fallback"
    },
    {
      "anonymous": false,
      "inputs": [
        {
          "indexed": true,
          "name": "holder",
          "type": "address"
        },
        {
          "indexed": false,
          "name": "tokenAmount",
          "type": "uint256"
        },
        {
          "indexed": false,
          "name": "etherAmount",
          "type": "uint256"
        }
      ],
      "name": "NewContribution",
      "type": "event"
    },
    {
      "constant": false,
      "inputs": [
        {
          "name": "_beneficiary",
          "type": "address"
        }
      ],
      "name": "changeBeneficiary",
      "outputs": [],
      "payable": false,
      "stateMutability": "nonpayable",
      "type": "function"
    },
    {
      "constant": false,
      "inputs": [
        {
          "name": "_reserve",
          "type": "address"
        }
      ],
      "name": "changeReserve",
      "outputs": [],
      "payable": false,
      "stateMutability": "nonpayable",
      "type": "function"
    },
    {
      "constant": false,
      "inputs": [
        {
          "name": "_price",
          "type": "uint256"
        }
      ],
      "name": "changePrice",
      "outputs": [],
      "payable": false,
      "stateMutability": "nonpayable",
      "type": "function"
    },
    {
      "constant": false,
      "inputs": [
        {
          "name": "_token",
          "type": "address"
        }
      ],
      "name": "withdrawERC20Token",
      "outputs": [],
      "payable": false,
      "stateMutability": "nonpayable",
      "type": "function"
    },
    {
      "constant": false,
      "inputs": [
        {
          "name": "_token",
          "type": "address"
        }
      ],
      "name": "withdrawEIP20Token",
      "outputs": [],
      "payable": false,
      "stateMutability": "nonpayable",
      "type": "function"
    },
    {
      "constant": false,
      "inputs": [],
      "name": "withdrawToken",
      "outputs": [],
      "payable": false,
      "stateMutability": "nonpayable",
      "type": "function"
    },
    {
      "constant": true,
      "inputs": [],
      "name": "tokensRemaining",
      "outputs": [
        {
          "name": "",
          "type": "uint256"
        }
      ],
      "payable": false,
      "stateMutability": "view",
      "type": "function"
    }
  ],
  "bytecode": "0x608060405260008060146101000a81548160ff0219169083151502179055506040805190810160405280601281526020017f546f6b656e53616c6520436f6e74726163740000000000000000000000000000815250600190805190602001906200006b929190620001e1565b5060006005556000600655600060075560006008553480156200008d57600080fd5b50336000806101000a81548173ffffffffffffffffffffffffffffffffffffffff021916908373ffffffffffffffffffffffffffffffffffffffff160217905550732f7823aaf1ad1df0d5716e8f18e1764579f4abe6600260006101000a81548173ffffffffffffffffffffffffffffffffffffffff021916908373ffffffffffffffffffffffffffffffffffffffff16021790555073f2b9da535e8b8ef8aab29956823df7237f1863a3600360006101000a81548173ffffffffffffffffffffffffffffffffffffffff021916908373ffffffffffffffffffffffffffffffffffffffff16021790555073966c0fd16a4f4292e6e0372e04fbb5c7013ad02e600460006101000a81548173ffffffffffffffffffffffffffffffffffffffff021916908373ffffffffffffffffffffffffffffffffffffffff160217905550660d76fc23b2e00060058190555062000290565b828054600181600116156101000203166002900490600052602060002090601f016020900481019282601f106200022457805160ff191683800117855562000255565b8280016001018555821562000255579182015b828111156200025457825182559160200191906001019062000237565b5b50905062000264919062000268565b5090565b6200028d91905b80821115620002895760008160009055506001016200026f565b5090565b90565b61187a80620002a06000396000f30060806040526004361061011d576000357c0100000000000000000000000000000000000000000000000000000000900463ffffffff16806306fdde031461060657806338af3eed146106965780633bdebbe1146106ed5780634dcad927146107305780635ed7ca5b1461075b578063790105ff146107725780638da5cb5b146107b5578063939fb3bf1461080c578063a035b1fe14610823578063a2b40d191461084e578063b3ebc3da1461087b578063b9b8af0b146108a6578063c8b08125146108d5578063ca58da1a14610900578063ca628c7814610943578063cb3e64fd1461095a578063cd3293de14610971578063d7e64c00146109c8578063dc070657146109f3578063f2fde38b14610a36578063fc0c546a14610a79575b60008060008060149054906101000a900460ff1615151561013d57600080fd5b600554341015151561014e57600080fd5b6005543481151561015b57fe5b04925082600260009054906101000a900473ffffffffffffffffffffffffffffffffffffffff1673ffffffffffffffffffffffffffffffffffffffff166370a08231306040518263ffffffff167c0100000000000000000000000000000000000000000000000000000000028152600401808273ffffffffffffffffffffffffffffffffffffffff1673ffffffffffffffffffffffffffffffffffffffff168152602001915050602060405180830381600087803b15801561021c57600080fd5b505af1158015610230573d6000803e3d6000fd5b505050506040513d602081101561024657600080fd5b81019080805190602001909291905050501015151561026457600080fd5b61027983600654610ad090919063ffffffff16565b6006819055506000600260009054906101000a900473ffffffffffffffffffffffffffffffffffffffff1673ffffffffffffffffffffffffffffffffffffffff166370a08231336040518263ffffffff167c0100000000000000000000000000000000000000000000000000000000028152600401808273ffffffffffffffffffffffffffffffffffffffff1673ffffffffffffffffffffffffffffffffffffffff168152602001915050602060405180830381600087803b15801561033e57600080fd5b505af1158015610352573d6000803e3d6000fd5b505050506040513d602081101561036857600080fd5b81019080805190602001909291905050501415610392576008600081548092919060010191905055505b6103a734600754610ad090919063ffffffff16565b600781905550600260009054906101000a900473ffffffffffffffffffffffffffffffffffffffff1673ffffffffffffffffffffffffffffffffffffffff1663a9059cbb33856040518363ffffffff167c0100000000000000000000000000000000000000000000000000000000028152600401808373ffffffffffffffffffffffffffffffffffffffff1673ffffffffffffffffffffffffffffffffffffffff16815260200182815260200192505050602060405180830381600087803b15801561047257600080fd5b505af1158015610486573d6000803e3d6000fd5b505050506040513d602081101561049c57600080fd5b8101908080519060200190929190505050506104c2600a34610aee90919063ffffffff16565b91506104d78234610b0990919063ffffffff16565b9050600460009054906101000a900473ffffffffffffffffffffffffffffffffffffffff1673ffffffffffffffffffffffffffffffffffffffff166108fc839081150290604051600060405180830381858888f19350505050158015610541573d6000803e3d6000fd5b50600360009054906101000a900473ffffffffffffffffffffffffffffffffffffffff1673ffffffffffffffffffffffffffffffffffffffff166108fc829081150290604051600060405180830381858888f193505050501580156105aa573d6000803e3d6000fd5b503373ffffffffffffffffffffffffffffffffffffffff167f16d99cb06fd9528f88184dd0483174a09cfd8312c28639858734b0c449cc05b88434604051808381526020018281526020019250505060405180910390a2505050005b34801561061257600080fd5b5061061b610b22565b6040518080602001828103825283818151815260200191508051906020019080838360005b8381101561065b578082015181840152602081019050610640565b50505050905090810190601f1680156106885780820380516001836020036101000a031916815260200191505b509250505060405180910390f35b3480156106a257600080fd5b506106ab610bc0565b604051808273ffffffffffffffffffffffffffffffffffffffff1673ffffffffffffffffffffffffffffffffffffffff16815260200191505060405180910390f35b3480156106f957600080fd5b5061072e600480360381019080803573ffffffffffffffffffffffffffffffffffffffff169060200190929190505050610be6565b005b34801561073c57600080fd5b50610745610df6565b6040518082815260200191505060405180910390f35b34801561076757600080fd5b50610770610dfc565b005b34801561077e57600080fd5b506107b3600480360381019080803573ffffffffffffffffffffffffffffffffffffffff169060200190929190505050610e74565b005b3480156107c157600080fd5b506107ca6110a8565b604051808273ffffffffffffffffffffffffffffffffffffffff1673ffffffffffffffffffffffffffffffffffffffff16815260200191505060405180910390f35b34801561081857600080fd5b506108216110cd565b005b34801561082f57600080fd5b5061083861110f565b6040518082815260200191505060405180910390f35b34801561085a57600080fd5b5061087960048036038101908080359060200190929190505050611115565b005b34801561088757600080fd5b50610890611196565b6040518082815260200191505060405180910390f35b3480156108b257600080fd5b506108bb61119c565b604051808215151515815260200191505060405180910390f35b3480156108e157600080fd5b506108ea6111af565b6040518082815260200191505060405180910390f35b34801561090c57600080fd5b50610941600480360381019080803573ffffffffffffffffffffffffffffffffffffffff1690602001909291905050506112ae565b005b34801561094f57600080fd5b50610958611369565b005b34801561096657600080fd5b5061096f6115da565b005b34801561097d57600080fd5b5061098661166c565b604051808273ffffffffffffffffffffffffffffffffffffffff1673ffffffffffffffffffffffffffffffffffffffff16815260200191505060405180910390f35b3480156109d457600080fd5b506109dd611692565b6040518082815260200191505060405180910390f35b3480156109ff57600080fd5b50610a34600480360381019080803573ffffffffffffffffffffffffffffffffffffffff169060200190929190505050611698565b005b348015610a4257600080fd5b50610a77600480360381019080803573ffffffffffffffffffffffffffffffffffffffff169060200190929190505050611753565b005b348015610a8557600080fd5b50610a8e611828565b604051808273ffffffffffffffffffffffffffffffffffffffff1673ffffffffffffffffffffffffffffffffffffffff16815260200191505060405180910390f35b6000808284019050838110151515610ae457fe5b8091505092915050565b6000808284811515610afc57fe5b0490508091505092915050565b6000828211151515610b1757fe5b818303905092915050565b60018054600181600116156101000203166002900480601f016020809104026020016040519081016040528092919081815260200182805460018160011615610100020316600290048015610bb85780601f10610b8d57610100808354040283529160200191610bb8565b820191906000526020600020905b815481529060010190602001808311610b9b57829003601f168201915b505050505081565b600360009054906101000a900473ffffffffffffffffffffffffffffffffffffffff1681565b60008060009054906101000a900473ffffffffffffffffffffffffffffffffffffffff1673ffffffffffffffffffffffffffffffffffffffff163373ffffffffffffffffffffffffffffffffffffffff16141515610c4357600080fd5b600060149054906101000a900460ff16151515610c5f57600080fd5b8190508073ffffffffffffffffffffffffffffffffffffffff1663a9059cbb338373ffffffffffffffffffffffffffffffffffffffff166370a08231306040518263ffffffff167c0100000000000000000000000000000000000000000000000000000000028152600401808273ffffffffffffffffffffffffffffffffffffffff1673ffffffffffffffffffffffffffffffffffffffff168152602001915050602060405180830381600087803b158015610d1a57600080fd5b505af1158015610d2e573d6000803e3d6000fd5b505050506040513d6020811015610d4457600080fd5b81019080805190602001909291905050506040518363ffffffff167c0100000000000000000000000000000000000000000000000000000000028152600401808373ffffffffffffffffffffffffffffffffffffffff1673ffffffffffffffffffffffffffffffffffffffff16815260200182815260200192505050600060405180830381600087803b158015610dda57600080fd5b505af1158015610dee573d6000803e3d6000fd5b505050505050565b60065481565b6000809054906101000a900473ffffffffffffffffffffffffffffffffffffffff1673ffffffffffffffffffffffffffffffffffffffff163373ffffffffffffffffffffffffffffffffffffffff16141515610e5757600080fd5b6001600060146101000a81548160ff021916908315150217905550565b60008060009054906101000a900473ffffffffffffffffffffffffffffffffffffffff1673ffffffffffffffffffffffffffffffffffffffff163373ffffffffffffffffffffffffffffffffffffffff16141515610ed157600080fd5b600060149054906101000a900460ff16151515610eed57600080fd5b8190508073ffffffffffffffffffffffffffffffffffffffff1663a9059cbb338373ffffffffffffffffffffffffffffffffffffffff166370a08231306040518263ffffffff167c0100000000000000000000000000000000000000000000000000000000028152600401808273ffffffffffffffffffffffffffffffffffffffff1673ffffffffffffffffffffffffffffffffffffffff168152602001915050602060405180830381600087803b158015610fa857600080fd5b505af1158015610fbc573d6000803e3d6000fd5b505050506040513d6020811015610fd257600080fd5b81019080805190602001909291905050506040518363ffffffff167c0100000000000000000000000000000000000000000000000000000000028152600401808373ffffffffffffffffffffffffffffffffffffffff1673ffffffffffffffffffffffffffffffffffffffff16815260200182815260200192505050602060405180830381600087803b15801561106857600080fd5b505af115801561107c573d6000803e3d6000fd5b505050506040513d602081101561109257600080fd5b8101908080519060200190929190505050505050565b6000809054906101000a900473ffffffffffffffffffffffffffffffffffffffff1681565b336000806101000a81548173ffffffffffffffffffffffffffffffffffffffff021916908373ffffffffffffffffffffffffffffffffffffffff160217905550565b60055481565b6000809054906101000a900473ffffffffffffffffffffffffffffffffffffffff1673ffffffffffffffffffffffffffffffffffffffff163373ffffffffffffffffffffffffffffffffffffffff1614151561117057600080fd5b600060149054906101000a900460ff1615151561118c57600080fd5b8060058190555050565b60075481565b600060149054906101000a900460ff1681565b6000600260009054906101000a900473ffffffffffffffffffffffffffffffffffffffff1673ffffffffffffffffffffffffffffffffffffffff166370a08231306040518263ffffffff167c0100000000000000000000000000000000000000000000000000000000028152600401808273ffffffffffffffffffffffffffffffffffffffff1673ffffffffffffffffffffffffffffffffffffffff168152602001915050602060405180830381600087803b15801561126e57600080fd5b505af1158015611282573d6000803e3d6000fd5b505050506040513d602081101561129857600080fd5b8101908080519060200190929190505050905090565b6000809054906101000a900473ffffffffffffffffffffffffffffffffffffffff1673ffffffffffffffffffffffffffffffffffffffff163373ffffffffffffffffffffffffffffffffffffffff1614151561130957600080fd5b600060149054906101000a900460ff1615151561132557600080fd5b80600460006101000a81548173ffffffffffffffffffffffffffffffffffffffff021916908373ffffffffffffffffffffffffffffffffffffffff16021790555050565b6000809054906101000a900473ffffffffffffffffffffffffffffffffffffffff1673ffffffffffffffffffffffffffffffffffffffff163373ffffffffffffffffffffffffffffffffffffffff161415156113c457600080fd5b600060149054906101000a900460ff161515156113e057600080fd5b600260009054906101000a900473ffffffffffffffffffffffffffffffffffffffff1673ffffffffffffffffffffffffffffffffffffffff1663a9059cbb33600260009054906101000a900473ffffffffffffffffffffffffffffffffffffffff1673ffffffffffffffffffffffffffffffffffffffff166370a08231306040518263ffffffff167c0100000000000000000000000000000000000000000000000000000000028152600401808273ffffffffffffffffffffffffffffffffffffffff1673ffffffffffffffffffffffffffffffffffffffff168152602001915050602060405180830381600087803b1580156114dc57600080fd5b505af11580156114f0573d6000803e3d6000fd5b505050506040513d602081101561150657600080fd5b81019080805190602001909291905050506040518363ffffffff167c0100000000000000000000000000000000000000000000000000000000028152600401808373ffffffffffffffffffffffffffffffffffffffff1673ffffffffffffffffffffffffffffffffffffffff16815260200182815260200192505050602060405180830381600087803b15801561159c57600080fd5b505af11580156115b0573d6000803e3d6000fd5b505050506040513d60208110156115c657600080fd5b810190808051906020019092919050505050565b6000809054906101000a900473ffffffffffffffffffffffffffffffffffffffff1673ffffffffffffffffffffffffffffffffffffffff163373ffffffffffffffffffffffffffffffffffffffff1614151561163557600080fd5b600060149054906101000a900460ff16151561165057600080fd5b60008060146101000a81548160ff021916908315150217905550565b600460009054906101000a900473ffffffffffffffffffffffffffffffffffffffff1681565b60085481565b6000809054906101000a900473ffffffffffffffffffffffffffffffffffffffff1673ffffffffffffffffffffffffffffffffffffffff163373ffffffffffffffffffffffffffffffffffffffff161415156116f357600080fd5b600060149054906101000a900460ff1615151561170f57600080fd5b80600360006101000a81548173ffffffffffffffffffffffffffffffffffffffff021916908373ffffffffffffffffffffffffffffffffffffffff16021790555050565b6000809054906101000a900473ffffffffffffffffffffffffffffffffffffffff1673ffffffffffffffffffffffffffffffffffffffff163373ffffffffffffffffffffffffffffffffffffffff161415156117ae57600080fd5b600073ffffffffffffffffffffffffffffffffffffffff168173ffffffffffffffffffffffffffffffffffffffff1614151561182557806000806101000a81548173ffffffffffffffffffffffffffffffffffffffff021916908373ffffffffffffffffffffffffffffffffffffffff1602179055505b50565b600260009054906101000a900473ffffffffffffffffffffffffffffffffffffffff16815600a165627a7a72305820e851d5dca812c80c7542638e1a91e7cbd1ec9d89494dc64f7b4691b2c2ac19670029",
  "source": "\n\ncontract EIP20Interface {\n    uint256 public totalSupply;\n\n    function balanceOf(address _owner) public view returns (uint256 balance);\n    function transfer(address _to, uint256 _value) public returns (bool success);\n    function transferFrom(address _from, address _to, uint256 _value) public returns (bool success);\n    function approve(address _spender, uint256 _value) public returns (bool success);\n    function allowance(address _owner, address _spender) public view returns (uint256 remaining);\n\n    event Transfer(address indexed _from, address indexed _to, uint256 _value); \n    event Approval(address indexed _owner, address indexed _spender, uint256 _value);\n    event Burn(address indexed burner, uint256 value);\n}\n\n\nlibrary SafeMath {\n  function mul(uint256 a, uint256 b) internal pure returns (uint256) {\n    uint256 c = a * b;\n    assert(a == 0 || c / a == b);\n    return c;\n  }\n\n  function div(uint256 a, uint256 b) internal pure returns (uint256) {\n    \n    uint256 c = a / b;\n    \n    return c;\n  }\n\n  function sub(uint256 a, uint256 b) internal pure returns (uint256) {\n    assert(b <= a);\n    return a - b;\n  }\n\n  function add(uint256 a, uint256 b) internal pure returns (uint256) {\n    uint256 c = a + b;\n    assert(c >= a);\n    return c;\n  }\n\n}\n\n\ncontract ERC20Basic {\n  uint256 public totalSupply;\n  function balanceOf(address who) public constant returns (uint256);\n  function transfer(address to, uint256 value) public;\n  event Transfer(address indexed from, address indexed to, uint256 value);\n}\n\n\ncontract ERC20 is ERC20Basic {\n  function allowance(address owner, address spender) public constant returns (uint256);\n  function transferFrom(address from, address to, uint256 value) public;\n  function approve(address spender, uint256 value) public;\n  event Approval(address indexed owner, address indexed spender, uint256 value);\n}\n\n\ncontract Ownable {\n  address public owner;\n\n  function Owanble() public{\n    owner = msg.sender;\n  }\n\n  \n  \n\n  modifier onlyOwner() {\n    require(msg.sender == owner);\n    _;\n  }\n\n  \n  \n  \n\n  function transferOwnership(address newOwner) public onlyOwner {\n    if (newOwner != address(0)) {\n      owner = newOwner;\n    }\n  }\n\n}\n\n\ncontract Haltable is Ownable {\n  bool public halted = false;\n\n  modifier stopInEmergency {\n    require(!halted);\n    _;\n  }\n\n  modifier onlyInEmergency {\n    require(halted);\n    _;\n  }\n\n  \n  function halt() external onlyOwner {\n    halted = true;\n  }\n\n  \n  function unhalt() external onlyOwner onlyInEmergency {\n    halted = false;\n  }\n\n}\n\ncontract TokenSale is Haltable {\n    using SafeMath for uint;\n\n    string public name = \"TokenSale Contract\";\n\n    \n    EIP20Interface public token;\n    address public beneficiary;\n    address public reserve;\n    uint public price = 0; \n\n    \n    uint public tokensSoldTotal = 0; \n    uint public weiRaisedTotal = 0; \n    uint public investorCount = 0;\n\n    event NewContribution(\n        address indexed holder,\n        uint256 tokenAmount,\n        uint256 etherAmount);\n\n    function TokenSale(\n        ) public {\n            \n        \n        owner = msg.sender;\n        \n        \n        token = EIP20Interface(address(0x2F7823AaF1ad1dF0D5716E8F18e1764579F4ABe6));\n        \n        \n        beneficiary = address(0xf2b9DA535e8B8eF8aab29956823df7237f1863A3);\n        \n        \n        reserve = address(0x966c0FD16a4f4292E6E0372e04fbB5c7013AD02e);\n        \n        \n        price = 0.00379 ether;\n    }\n\n    function changeBeneficiary(address _beneficiary) public onlyOwner stopInEmergency {\n        beneficiary = _beneficiary;\n    }\n    \n    function changeReserve(address _reserve) public onlyOwner stopInEmergency {\n        reserve = _reserve;\n    }\n    \n    function changePrice(uint _price) public onlyOwner stopInEmergency {\n        price = _price;\n    }\n\n    function () public payable stopInEmergency {\n        \n        \n        require(msg.value >= price);\n        \n        \n        uint tokens = msg.value / price;\n        \n        \n        require(token.balanceOf(this) >= tokens);\n        \n        \n        tokensSoldTotal = tokensSoldTotal.add(tokens);\n        if (token.balanceOf(msg.sender) == 0) investorCount++;\n        weiRaisedTotal = weiRaisedTotal.add(msg.value);\n        \n        \n        token.transfer(msg.sender, tokens);\n\n        \n        uint reservePie = msg.value.div(10);\n        \n        \n        uint beneficiaryPie = msg.value.sub(reservePie);\n\n        \n        reserve.transfer(reservePie);\n\n        \n        beneficiary.transfer(beneficiaryPie);\n\n        emit NewContribution(msg.sender, tokens, msg.value);\n    }\n    \n    \n    \n    \n    function withdrawERC20Token(address _token) public onlyOwner stopInEmergency {\n        ERC20 foreignToken = ERC20(_token);\n        foreignToken.transfer(msg.sender, foreignToken.balanceOf(this));\n    }\n    \n    \n    \n    function withdrawEIP20Token(address _token) public onlyOwner stopInEmergency {\n        EIP20Interface foreignToken = EIP20Interface(_token);\n        foreignToken.transfer(msg.sender, foreignToken.balanceOf(this));\n    }\n    \n    \n    \n    function withdrawToken() public onlyOwner stopInEmergency {\n        token.transfer(msg.sender, token.balanceOf(this));\n    }\n    \n    \n    function tokensRemaining() public constant returns (uint256) {\n        return token.balanceOf(this);\n    }\n    \n}",
  "sourcePath": "/home/XXX-1/smartrim-experiment/for-rlf/0xafdd6fec9be6e31ad9dd7e28631625ac8e38f9c3/contracts/0xafdd6fec9be6e31ad9dd7e28631625ac8e38f9c3.sol",
  "compiler": {
    "name": "solc",
    "version": "0.4.25+commit.59dbf8f1.Emscripten.clang"
  },
  "schemaVersion": "3.4.16",
  "updatedAt": "2025-08-14T04:03:44.711Z",
  "networkType": "ethereum",
  "devdoc": {
    "methods": {}
  },
  "userdoc": {
    "methods": {}
  }
}