{
  "contractName": "EcoDollar",
  "abi": [
    {
      "constant": true,
      "inputs": [],
      "name": "name",
      "outputs": [
        {
          "name": "",
          "type": "string"
        }
      ],
      "payable": false,
      "stateMutability": "view",
      "type": "function"
    },
    {
      "constant": false,
      "inputs": [
        {
          "name": "_spender",
          "type": "address"
        },
        {
          "name": "_value",
          "type": "uint256"
        }
      ],
      "name": "approve",
      "outputs": [
        {
          "name": "success",
          "type": "bool"
        }
      ],
      "payable": false,
      "stateMutability": "nonpayable",
      "type": "function"
    },
    {
      "constant": true,
      "inputs": [
        {
          "name": "",
          "type": "address"
        }
      ],
      "name": "frozenBalances",
      "outputs": [
        {
          "name": "",
          "type": "uint256"
        }
      ],
      "payable": false,
      "stateMutability": "view",
      "type": "function"
    },
    {
      "constant": false,
      "inputs": [
        {
          "name": "_owner",
          "type": "address"
        }
      ],
      "name": "setOwner",
      "outputs": [],
      "payable": false,
      "stateMutability": "nonpayable",
      "type": "function"
    },
    {
      "constant": true,
      "inputs": [],
      "name": "totalSupply",
      "outputs": [
        {
          "name": "",
          "type": "uint256"
        }
      ],
      "payable": false,
      "stateMutability": "view",
      "type": "function"
    },
    {
      "constant": true,
      "inputs": [],
      "name": "status",
      "outputs": [
        {
          "name": "",
          "type": "uint8"
        }
      ],
      "payable": false,
      "stateMutability": "view",
      "type": "function"
    },
    {
      "constant": false,
      "inputs": [
        {
          "name": "_from",
          "type": "address"
        },
        {
          "name": "_to",
          "type": "address"
        },
        {
          "name": "_value",
          "type": "uint256"
        }
      ],
      "name": "transferFrom",
      "outputs": [
        {
          "name": "success",
          "type": "bool"
        }
      ],
      "payable": false,
      "stateMutability": "nonpayable",
      "type": "function"
    },
    {
      "constant": true,
      "inputs": [
        {
          "name": "",
          "type": "address"
        }
      ],
      "name": "balances",
      "outputs": [
        {
          "name": "",
          "type": "uint256"
        }
      ],
      "payable": false,
      "stateMutability": "view",
      "type": "function"
    },
    {
      "constant": false,
      "inputs": [],
      "name": "destruct",
      "outputs": [],
      "payable": false,
      "stateMutability": "nonpayable",
      "type": "function"
    },
    {
      "constant": true,
      "inputs": [],
      "name": "decimals",
      "outputs": [
        {
          "name": "",
          "type": "uint8"
        }
      ],
      "payable": false,
      "stateMutability": "view",
      "type": "function"
    },
    {
      "constant": false,
      "inputs": [
        {
          "name": "_value",
          "type": "uint256"
        }
      ],
      "name": "burn",
      "outputs": [
        {
          "name": "success",
          "type": "bool"
        }
      ],
      "payable": false,
      "stateMutability": "nonpayable",
      "type": "function"
    },
    {
      "constant": false,
      "inputs": [],
      "name": "close",
      "outputs": [],
      "payable": false,
      "stateMutability": "nonpayable",
      "type": "function"
    },
    {
      "constant": true,
      "inputs": [],
      "name": "sellPrice",
      "outputs": [
        {
          "name": "",
          "type": "uint256"
        }
      ],
      "payable": false,
      "stateMutability": "view",
      "type": "function"
    },
    {
      "constant": true,
      "inputs": [
        {
          "name": "",
          "type": "address"
        },
        {
          "name": "",
          "type": "address"
        }
      ],
      "name": "allowed",
      "outputs": [
        {
          "name": "",
          "type": "uint256"
        }
      ],
      "payable": false,
      "stateMutability": "view",
      "type": "function"
    },
    {
      "constant": false,
      "inputs": [
        {
          "name": "_spender",
          "type": "address"
        },
        {
          "name": "_value",
          "type": "uint256"
        }
      ],
      "name": "decreaseApproval",
      "outputs": [
        {
          "name": "success",
          "type": "bool"
        }
      ],
      "payable": false,
      "stateMutability": "nonpayable",
      "type": "function"
    },
    {
      "constant": false,
      "inputs": [
        {
          "name": "_admin",
          "type": "address"
        }
      ],
      "name": "setAdmin",
      "outputs": [],
      "payable": false,
      "stateMutability": "nonpayable",
      "type": "function"
    },
    {
      "constant": true,
      "inputs": [
        {
          "name": "_owner",
          "type": "address"
        }
      ],
      "name": "balanceOf",
      "outputs": [
        {
          "name": "balance",
          "type": "uint256"
        }
      ],
      "payable": false,
      "stateMutability": "view",
      "type": "function"
    },
    {
      "constant": false,
      "inputs": [
        {
          "name": "_from",
          "type": "address"
        },
        {
          "name": "_value",
          "type": "uint256"
        }
      ],
      "name": "burnFrom",
      "outputs": [
        {
          "name": "success",
          "type": "bool"
        }
      ],
      "payable": false,
      "stateMutability": "nonpayable",
      "type": "function"
    },
    {
      "constant": true,
      "inputs": [],
      "name": "buyPrice",
      "outputs": [
        {
          "name": "",
          "type": "uint256"
        }
      ],
      "payable": false,
      "stateMutability": "view",
      "type": "function"
    },
    {
      "constant": true,
      "inputs": [],
      "name": "symbol",
      "outputs": [
        {
          "name": "",
          "type": "string"
        }
      ],
      "payable": false,
      "stateMutability": "view",
      "type": "function"
    },
    {
      "constant": false,
      "inputs": [],
      "name": "limit",
      "outputs": [],
      "payable": false,
      "stateMutability": "nonpayable",
      "type": "function"
    },
    {
      "constant": true,
      "inputs": [],
      "name": "getManagers",
      "outputs": [
        {
          "name": "_owner",
          "type": "address"
        },
        {
          "name": "_admin",
          "type": "address"
        }
      ],
      "payable": false,
      "stateMutability": "view",
      "type": "function"
    },
    {
      "constant": false,
      "inputs": [
        {
          "name": "_to",
          "type": "address"
        },
        {
          "name": "_value",
          "type": "uint256"
        }
      ],
      "name": "transfer",
      "outputs": [
        {
          "name": "success",
          "type": "bool"
        }
      ],
      "payable": false,
      "stateMutability": "nonpayable",
      "type": "function"
    },
    {
      "constant": false,
      "inputs": [],
      "name": "start",
      "outputs": [],
      "payable": false,
      "stateMutability": "nonpayable",
      "type": "function"
    },
    {
      "constant": false,
      "inputs": [
        {
          "name": "_spender",
          "type": "address"
        },
        {
          "name": "_value",
          "type": "uint256"
        }
      ],
      "name": "increaseApproval",
      "outputs": [
        {
          "name": "success",
          "type": "bool"
        }
      ],
      "payable": false,
      "stateMutability": "nonpayable",
      "type": "function"
    },
    {
      "constant": true,
      "inputs": [
        {
          "name": "_owner",
          "type": "address"
        },
        {
          "name": "_spender",
          "type": "address"
        }
      ],
      "name": "allowance",
      "outputs": [
        {
          "name": "remaining",
          "type": "uint256"
        }
      ],
      "payable": false,
      "stateMutability": "view",
      "type": "function"
    },
    {
      "inputs": [],
      "payable": false,
      "stateMutability": "nonpayable",
      "type": "constructor"
    },
    {
      "anonymous": false,
      "inputs": [
        {
          "indexed": true,
          "name": "target",
          "type": "address"
        },
        {
          "indexed": false,
          "name": "balance",
          "type": "uint256"
        }
      ],
      "name": "FrozenBalance",
      "type": "event"
    },
    {
      "anonymous": false,
      "inputs": [
        {
          "indexed": false,
          "name": "newSellPrice",
          "type": "uint256"
        },
        {
          "indexed": false,
          "name": "newBuyPrice",
          "type": "uint256"
        }
      ],
      "name": "Price",
      "type": "event"
    },
    {
      "anonymous": false,
      "inputs": [
        {
          "indexed": true,
          "name": "from",
          "type": "address"
        },
        {
          "indexed": false,
          "name": "value",
          "type": "uint256"
        }
      ],
      "name": "Burn",
      "type": "event"
    },
    {
      "anonymous": false,
      "inputs": [
        {
          "indexed": true,
          "name": "_from",
          "type": "address"
        },
        {
          "indexed": true,
          "name": "_to",
          "type": "address"
        },
        {
          "indexed": false,
          "name": "_value",
          "type": "uint256"
        }
      ],
      "name": "Transfer",
      "type": "event"
    },
    {
      "anonymous": false,
      "inputs": [
        {
          "indexed": true,
          "name": "_owner",
          "type": "address"
        },
        {
          "indexed": true,
          "name": "_spender",
          "type": "address"
        },
        {
          "indexed": false,
          "name": "_value",
          "type": "uint256"
        }
      ],
      "name": "Approval",
      "type": "event"
    },
    {
      "constant": false,
      "inputs": [
        {
          "name": "target",
          "type": "address"
        },
        {
          "name": "_value",
          "type": "uint256"
        }
      ],
      "name": "increaseFrozenBalances",
      "outputs": [],
      "payable": false,
      "stateMutability": "nonpayable",
      "type": "function"
    },
    {
      "constant": false,
      "inputs": [
        {
          "name": "target",
          "type": "address"
        },
        {
          "name": "_value",
          "type": "uint256"
        }
      ],
      "name": "decreaseFrozenBalances",
      "outputs": [],
      "payable": false,
      "stateMutability": "nonpayable",
      "type": "function"
    },
    {
      "constant": false,
      "inputs": [
        {
          "name": "target",
          "type": "address"
        },
        {
          "name": "percent",
          "type": "uint8"
        }
      ],
      "name": "freeze",
      "outputs": [],
      "payable": false,
      "stateMutability": "nonpayable",
      "type": "function"
    },
    {
      "constant": false,
      "inputs": [
        {
          "name": "percent",
          "type": "uint8"
        }
      ],
      "name": "changeFrozenBalanceAll",
      "outputs": [],
      "payable": false,
      "stateMutability": "nonpayable",
      "type": "function"
    },
    {
      "constant": false,
      "inputs": [
        {
          "name": "target",
          "type": "address"
        }
      ],
      "name": "unfreeze",
      "outputs": [],
      "payable": false,
      "stateMutability": "nonpayable",
      "type": "function"
    },
    {
      "constant": false,
      "inputs": [],
      "name": "unfreezeAll",
      "outputs": [],
      "payable": false,
      "stateMutability": "nonpayable",
      "type": "function"
    },
    {
      "constant": false,
      "inputs": [
        {
          "name": "newSellPrice",
          "type": "uint256"
        },
        {
          "name": "newBuyPrice",
          "type": "uint256"
        }
      ],
      "name": "setPrices",
      "outputs": [],
      "payable": false,
      "stateMutability": "nonpayable",
      "type": "function"
    },
    {
      "constant": false,
      "inputs": [],
      "name": "buy",
      "outputs": [],
      "payable": true,
      "stateMutability": "payable",
      "type": "function"
    },
    {
      "constant": false,
      "inputs": [
        {
          "name": "amount",
          "type": "uint256"
        }
      ],
      "name": "sell",
      "outputs": [],
      "payable": false,
      "stateMutability": "nonpayable",
      "type": "function"
    },
    {
      "constant": false,
      "inputs": [
        {
          "name": "percent",
          "type": "uint8"
        }
      ],
      "name": "setFreezePercent",
      "outputs": [],
      "payable": false,
      "stateMutability": "nonpayable",
      "type": "function"
    },
    {
      "constant": true,
      "inputs": [
        {
          "name": "target",
          "type": "address"
        }
      ],
      "name": "frozenBalancesOf",
      "outputs": [
        {
          "name": "balance",
          "type": "uint256"
        }
      ],
      "payable": false,
      "stateMutability": "view",
      "type": "function"
    }
  ],
  "bytecode": "0x60806040526000600160006101000a81548173ffffffffffffffffffffffffffffffffffffffff021916908373ffffffffffffffffffffffffffffffffffffffff1602179055506000600260006101000a81548173ffffffffffffffffffffffffffffffffffffffff021916908373ffffffffffffffffffffffffffffffffffffffff1602179055506000600260146101000a81548160ff021916908360ff160217905550348015620000b157600080fd5b5033600160006101000a81548173ffffffffffffffffffffffffffffffffffffffff021916908373ffffffffffffffffffffffffffffffffffffffff16021790555033600260006101000a81548173ffffffffffffffffffffffffffffffffffffffff021916908373ffffffffffffffffffffffffffffffffffffffff160217905550620001c063b2d05e006040805190810160405280600981526020017f45636f446f6c6c617200000000000000000000000000000000000000000000008152506040805190810160405280600381526020017f45434f000000000000000000000000000000000000000000000000000000000081525060126200024a640100000000026401000000009004565b6064600a60006101000a81548160ff021916908360ff1602179055503373ffffffffffffffffffffffffffffffffffffffff16600073ffffffffffffffffffffffffffffffffffffffff167fddf252ad1be2c89b69c2b068fc378daa952ba7f163c4a11628f55a4df523b3ef6000546040518082815260200191505060405180910390a3620003df565b6000600260149054906101000a900460ff1660ff161415156200026c57600080fd5b8060ff16600a0a8402600081905550600054600660003373ffffffffffffffffffffffffffffffffffffffff1673ffffffffffffffffffffffffffffffffffffffff168152602001908152602001600020819055508260039080519060200190620002d992919062000330565b508160049080519060200190620002f292919062000330565b5080600560006101000a81548160ff021916908360ff1602179055506001600260146101000a81548160ff021916908360ff16021790555050505050565b828054600181600116156101000203166002900490600052602060002090601f016020900481019282601f106200037357805160ff1916838001178555620003a4565b82800160010185558215620003a4579182015b82811115620003a357825182559160200191906001019062000386565b5b509050620003b39190620003b7565b5090565b620003dc91905b80821115620003d8576000816000905550600101620003be565b5090565b90565b613b0f80620003ef6000396000f3006080604052600436106101cd576000357c0100000000000000000000000000000000000000000000000000000000900463ffffffff16806305fefda7146101d257806306fdde0314610209578063095ea7b3146102995780630ad9e7bf146102fe57806313af40351461035557806318160ddd14610398578063200d2ed2146103c357806323b872dd146103f457806327e235e3146104795780632b68b9c6146104d0578063313ce567146104e757806342966c681461051857806343d726d61461055d57806345c8b1a6146105745780634b750334146105b75780635c658165146105e2578063654286d114610659578063661884631461068957806366c5c4a0146106ee5780636db76efd146107055780636f71f40714610752578063704b6c02146107a257806370a08231146107e557806379cc67901461083c5780638620410b146108a15780638f4e5158146108cc57806395d89b4114610919578063a4d66daf146109a9578063a6f2ae3a146109c0578063a8d088bb146109ca578063a9059cbb14610a54578063aa5c88ca14610ab9578063be9a655514610ae9578063cd8e250a14610b00578063d73dd62314610b57578063dd62ed3e14610bbc578063e4849b3214610c33575b600080fd5b3480156101de57600080fd5b506102076004803603810190808035906020019092919080359060200190929190505050610c60565b005b34801561021557600080fd5b5061021e610d69565b6040518080602001828103825283818151815260200191508051906020019080838360005b8381101561025e578082015181840152602081019050610243565b50505050905090810190601f16801561028b5780820380516001836020036101000a031916815260200191505b509250505060405180910390f35b3480156102a557600080fd5b506102e4600480360381019080803573ffffffffffffffffffffffffffffffffffffffff16906020019092919080359060200190929190505050610e07565b604051808215151515815260200191505060405180910390f35b34801561030a57600080fd5b5061033f600480360381019080803573ffffffffffffffffffffffffffffffffffffffff16906020019092919050505061112d565b6040518082815260200191505060405180910390f35b34801561036157600080fd5b50610396600480360381019080803573ffffffffffffffffffffffffffffffffffffffff169060200190929190505050611145565b005b3480156103a457600080fd5b506103ad611189565b6040518082815260200191505060405180910390f35b3480156103cf57600080fd5b506103d861118f565b604051808260ff1660ff16815260200191505060405180910390f35b34801561040057600080fd5b5061045f600480360381019080803573ffffffffffffffffffffffffffffffffffffffff169060200190929190803573ffffffffffffffffffffffffffffffffffffffff169060200190929190803590602001909291905050506111a2565b604051808215151515815260200191505060405180910390f35b34801561048557600080fd5b506104ba600480360381019080803573ffffffffffffffffffffffffffffffffffffffff1690602001909291905050506112cf565b6040518082815260200191505060405180910390f35b3480156104dc57600080fd5b506104e56112e7565b005b3480156104f357600080fd5b506104fc61137e565b604051808260ff1660ff16815260200191505060405180910390f35b34801561052457600080fd5b5061054360048036038101908080359060200190929190505050611391565b604051808215151515815260200191505060405180910390f35b34801561056957600080fd5b50610572611494565b005b34801561058057600080fd5b506105b5600480360381019080803573ffffffffffffffffffffffffffffffffffffffff169060200190929190505050611588565b005b3480156105c357600080fd5b506105cc61168b565b6040518082815260200191505060405180910390f35b3480156105ee57600080fd5b50610643600480360381019080803573ffffffffffffffffffffffffffffffffffffffff169060200190929190803573ffffffffffffffffffffffffffffffffffffffff169060200190929190505050611691565b6040518082815260200191505060405180910390f35b34801561066557600080fd5b50610687600480360381019080803560ff1690602001909291905050506116b6565b005b34801561069557600080fd5b506106d4600480360381019080803573ffffffffffffffffffffffffffffffffffffffff169060200190929190803590602001909291905050506118a0565b604051808215151515815260200191505060405180910390f35b3480156106fa57600080fd5b50610703611cc7565b005b34801561071157600080fd5b50610750600480360381019080803573ffffffffffffffffffffffffffffffffffffffff16906020019092919080359060200190929190505050611e3e565b005b34801561075e57600080fd5b506107a0600480360381019080803573ffffffffffffffffffffffffffffffffffffffff169060200190929190803560ff16906020019092919050505061207c565b005b3480156107ae57600080fd5b506107e3600480360381019080803573ffffffffffffffffffffffffffffffffffffffff1690602001909291905050506122ed565b005b3480156107f157600080fd5b50610826600480360381019080803573ffffffffffffffffffffffffffffffffffffffff16906020019092919050505061238d565b6040518082815260200191505060405180910390f35b34801561084857600080fd5b50610887600480360381019080803573ffffffffffffffffffffffffffffffffffffffff169060200190929190803590602001909291905050506123d6565b604051808215151515815260200191505060405180910390f35b3480156108ad57600080fd5b506108b66125ef565b6040518082815260200191505060405180910390f35b3480156108d857600080fd5b50610917600480360381019080803573ffffffffffffffffffffffffffffffffffffffff169060200190929190803590602001909291905050506125f5565b005b34801561092557600080fd5b5061092e612845565b6040518080602001828103825283818151815260200191508051906020019080838360005b8381101561096e578082015181840152602081019050610953565b50505050905090810190601f16801561099b5780820380516001836020036101000a031916815260200191505b509250505060405180910390f35b3480156109b557600080fd5b506109be6128e3565b005b6109c86129d7565b005b3480156109d657600080fd5b506109df612a07565b604051808373ffffffffffffffffffffffffffffffffffffffff1673ffffffffffffffffffffffffffffffffffffffff1681526020018273ffffffffffffffffffffffffffffffffffffffff1673ffffffffffffffffffffffffffffffffffffffff1681526020019250505060405180910390f35b348015610a6057600080fd5b50610a9f600480360381019080803573ffffffffffffffffffffffffffffffffffffffff16906020019092919080359060200190929190505050612a58565b604051808215151515815260200191505060405180910390f35b348015610ac557600080fd5b50610ae7600480360381019080803560ff169060200190929190505050612a6f565b005b348015610af557600080fd5b50610afe612b41565b005b348015610b0c57600080fd5b50610b41600480360381019080803573ffffffffffffffffffffffffffffffffffffffff169060200190929190505050612c33565b6040518082815260200191505060405180910390f35b348015610b6357600080fd5b50610ba2600480360381019080803573ffffffffffffffffffffffffffffffffffffffff16906020019092919080359060200190929190505050612c7c565b604051808215151515815260200191505060405180910390f35b348015610bc857600080fd5b50610c1d600480360381019080803573ffffffffffffffffffffffffffffffffffffffff169060200190929190803573ffffffffffffffffffffffffffffffffffffffff16906020019092919050505061300d565b6040518082815260200191505060405180910390f35b348015610c3f57600080fd5b50610c5e60048036038101908080359060200190929190505050613094565b005b3373ffffffffffffffffffffffffffffffffffffffff16600160009054906101000a900473ffffffffffffffffffffffffffffffffffffffff1673ffffffffffffffffffffffffffffffffffffffff161480610d0957503373ffffffffffffffffffffffffffffffffffffffff16600260009054906101000a900473ffffffffffffffffffffffffffffffffffffffff1673ffffffffffffffffffffffffffffffffffffffff16145b1515610d1457600080fd5b81600881905550806009819055507fd1353c68e79ef70de84ee90d2facf845ec24895116d4a03505aa41785af71f5a600854600954604051808381526020018281526020019250505060405180910390a15050565b60038054600181600116156101000203166002900480601f016020809104026020016040519081016040528092919081815260200182805460018160011615610100020316600290048015610dff5780601f10610dd457610100808354040283529160200191610dff565b820191906000526020600020905b815481529060010190602001808311610de257829003601f168201915b505050505081565b600060028060149054906101000a900460ff1660ff161480610e7657503373ffffffffffffffffffffffffffffffffffffffff16600160009054906101000a900473ffffffffffffffffffffffffffffffffffffffff1673ffffffffffffffffffffffffffffffffffffffff16145b80610ece57503373ffffffffffffffffffffffffffffffffffffffff16600260009054906101000a900473ffffffffffffffffffffffffffffffffffffffff1673ffffffffffffffffffffffffffffffffffffffff16145b80610f9c57506001600260149054906101000a900460ff1660ff16148015610f9b57503373ffffffffffffffffffffffffffffffffffffffff16600160009054906101000a900473ffffffffffffffffffffffffffffffffffffffff1673ffffffffffffffffffffffffffffffffffffffff161480610f9a57503373ffffffffffffffffffffffffffffffffffffffff16600260009054906101000a900473ffffffffffffffffffffffffffffffffffffffff1673ffffffffffffffffffffffffffffffffffffffff16145b5b5b1515610fa757600080fd5b600082148061103257506000600760003373ffffffffffffffffffffffffffffffffffffffff1673ffffffffffffffffffffffffffffffffffffffff16815260200190815260200160002060008573ffffffffffffffffffffffffffffffffffffffff1673ffffffffffffffffffffffffffffffffffffffff16815260200190815260200160002054145b151561103d57600080fd5b81600760003373ffffffffffffffffffffffffffffffffffffffff1673ffffffffffffffffffffffffffffffffffffffff16815260200190815260200160002060008573ffffffffffffffffffffffffffffffffffffffff1673ffffffffffffffffffffffffffffffffffffffff168152602001908152602001600020819055508273ffffffffffffffffffffffffffffffffffffffff163373ffffffffffffffffffffffffffffffffffffffff167f8c5be1e5ebec7d5bd14f71427d1e84f3dd0314c0f7b2291e5b200ac8c7c3b925846040518082815260200191505060405180910390a36001905092915050565b600c6020528060005260406000206000915090505481565b80600160006101000a81548173ffffffffffffffffffffffffffffffffffffffff021916908373ffffffffffffffffffffffffffffffffffffffff16021790555050565b60005481565b600260149054906101000a900460ff1681565b6000600760008573ffffffffffffffffffffffffffffffffffffffff1673ffffffffffffffffffffffffffffffffffffffff16815260200190815260200160002060003373ffffffffffffffffffffffffffffffffffffffff1673ffffffffffffffffffffffffffffffffffffffff16815260200190815260200160002054821115151561122f57600080fd5b81600760008673ffffffffffffffffffffffffffffffffffffffff1673ffffffffffffffffffffffffffffffffffffffff16815260200190815260200160002060003373ffffffffffffffffffffffffffffffffffffffff1673ffffffffffffffffffffffffffffffffffffffff168152602001908152602001600020600082825403925050819055506112c484848461312d565b600190509392505050565b60066020528060005260406000206000915090505481565b3373ffffffffffffffffffffffffffffffffffffffff16600160009054906101000a900473ffffffffffffffffffffffffffffffffffffffff1673ffffffffffffffffffffffffffffffffffffffff1614151561134357600080fd5b600160009054906101000a900473ffffffffffffffffffffffffffffffffffffffff1673ffffffffffffffffffffffffffffffffffffffff16ff5b600560009054906101000a900460ff1681565b600081600660003373ffffffffffffffffffffffffffffffffffffffff1673ffffffffffffffffffffffffffffffffffffffff16815260200190815260200160002054101515156113e157600080fd5b81600660003373ffffffffffffffffffffffffffffffffffffffff1673ffffffffffffffffffffffffffffffffffffffff168152602001908152602001600020600082825403925050819055508160008082825403925050819055503373ffffffffffffffffffffffffffffffffffffffff167fcc16f5dbb4873280815c1ee09dbd06736cffcc184412cf7a71a0fdb75d397ca5836040518082815260200191505060405180910390a260019050919050565b3373ffffffffffffffffffffffffffffffffffffffff16600160009054906101000a900473ffffffffffffffffffffffffffffffffffffffff1673ffffffffffffffffffffffffffffffffffffffff16148061153d57503373ffffffffffffffffffffffffffffffffffffffff16600260009054906101000a900473ffffffffffffffffffffffffffffffffffffffff1673ffffffffffffffffffffffffffffffffffffffff16145b151561154857600080fd5b6003600260149054906101000a900460ff1660ff161415151561156a57600080fd5b6003600260146101000a81548160ff021916908360ff160217905550565b3373ffffffffffffffffffffffffffffffffffffffff16600160009054906101000a900473ffffffffffffffffffffffffffffffffffffffff1673ffffffffffffffffffffffffffffffffffffffff16148061163157503373ffffffffffffffffffffffffffffffffffffffff16600260009054906101000a900473ffffffffffffffffffffffffffffffffffffffff1673ffffffffffffffffffffffffffffffffffffffff16145b151561163c57600080fd5b6116458161339f565b600c60008273ffffffffffffffffffffffffffffffffffffffff1673ffffffffffffffffffffffffffffffffffffffff1681526020019081526020016000206000905550565b60085481565b6007602052816000526040600020602052806000526040600020600091509150505481565b60008060003373ffffffffffffffffffffffffffffffffffffffff16600160009054906101000a900473ffffffffffffffffffffffffffffffffffffffff1673ffffffffffffffffffffffffffffffffffffffff16148061176457503373ffffffffffffffffffffffffffffffffffffffff16600260009054906101000a900473ffffffffffffffffffffffffffffffffffffffff1673ffffffffffffffffffffffffffffffffffffffff16145b151561176f57600080fd5b600b805490509250600091505b8282101561189a5760648460ff1660066000600b8681548110151561179d57fe5b9060005260206000200160009054906101000a900473ffffffffffffffffffffffffffffffffffffffff1673ffffffffffffffffffffffffffffffffffffffff1673ffffffffffffffffffffffffffffffffffffffff168152602001908152602001600020540281151561180d57fe5b04905080600c6000600b8581548110151561182457fe5b9060005260206000200160009054906101000a900473ffffffffffffffffffffffffffffffffffffffff1673ffffffffffffffffffffffffffffffffffffffff1673ffffffffffffffffffffffffffffffffffffffff16815260200190815260200160002081905550818060010192505061177c565b50505050565b60008060028060149054906101000a900460ff1660ff16148061191057503373ffffffffffffffffffffffffffffffffffffffff16600160009054906101000a900473ffffffffffffffffffffffffffffffffffffffff1673ffffffffffffffffffffffffffffffffffffffff16145b8061196857503373ffffffffffffffffffffffffffffffffffffffff16600260009054906101000a900473ffffffffffffffffffffffffffffffffffffffff1673ffffffffffffffffffffffffffffffffffffffff16145b80611a3657506001600260149054906101000a900460ff1660ff16148015611a3557503373ffffffffffffffffffffffffffffffffffffffff16600160009054906101000a900473ffffffffffffffffffffffffffffffffffffffff1673ffffffffffffffffffffffffffffffffffffffff161480611a3457503373ffffffffffffffffffffffffffffffffffffffff16600260009054906101000a900473ffffffffffffffffffffffffffffffffffffffff1673ffffffffffffffffffffffffffffffffffffffff16145b5b5b1515611a4157600080fd5b600760003373ffffffffffffffffffffffffffffffffffffffff1673ffffffffffffffffffffffffffffffffffffffff16815260200190815260200160002060008573ffffffffffffffffffffffffffffffffffffffff1673ffffffffffffffffffffffffffffffffffffffff1681526020019081526020016000205490508083101515611b50576000600760003373ffffffffffffffffffffffffffffffffffffffff1673ffffffffffffffffffffffffffffffffffffffff16815260200190815260200160002060008673ffffffffffffffffffffffffffffffffffffffff1673ffffffffffffffffffffffffffffffffffffffff16815260200190815260200160002081905550611bdb565b611b5a81846134f5565b600760003373ffffffffffffffffffffffffffffffffffffffff1673ffffffffffffffffffffffffffffffffffffffff16815260200190815260200160002060008673ffffffffffffffffffffffffffffffffffffffff1673ffffffffffffffffffffffffffffffffffffffff168152602001908152602001600020819055505b8373ffffffffffffffffffffffffffffffffffffffff163373ffffffffffffffffffffffffffffffffffffffff167f8c5be1e5ebec7d5bd14f71427d1e84f3dd0314c0f7b2291e5b200ac8c7c3b925600760003373ffffffffffffffffffffffffffffffffffffffff1673ffffffffffffffffffffffffffffffffffffffff16815260200190815260200160002060008873ffffffffffffffffffffffffffffffffffffffff1673ffffffffffffffffffffffffffffffffffffffff168152602001908152602001600020546040518082815260200191505060405180910390a3600191505092915050565b6000803373ffffffffffffffffffffffffffffffffffffffff16600160009054906101000a900473ffffffffffffffffffffffffffffffffffffffff1673ffffffffffffffffffffffffffffffffffffffff161480611d7357503373ffffffffffffffffffffffffffffffffffffffff16600260009054906101000a900473ffffffffffffffffffffffffffffffffffffffff1673ffffffffffffffffffffffffffffffffffffffff16145b1515611d7e57600080fd5b600b805490509150600090505b81811015611e1c57600c6000600b83815481101515611da657fe5b9060005260206000200160009054906101000a900473ffffffffffffffffffffffffffffffffffffffff1673ffffffffffffffffffffffffffffffffffffffff1673ffffffffffffffffffffffffffffffffffffffff168152602001908152602001600020600090558080600101915050611d8b565b600b6000611e2a9190613a71565b6000600b81611e399190613a92565b505050565b3373ffffffffffffffffffffffffffffffffffffffff16600160009054906101000a900473ffffffffffffffffffffffffffffffffffffffff1673ffffffffffffffffffffffffffffffffffffffff161480611ee757503373ffffffffffffffffffffffffffffffffffffffff16600260009054906101000a900473ffffffffffffffffffffffffffffffffffffffff1673ffffffffffffffffffffffffffffffffffffffff16145b1515611ef257600080fd5b600081118015611f41575080600c60008473ffffffffffffffffffffffffffffffffffffffff1673ffffffffffffffffffffffffffffffffffffffff1681526020019081526020016000205410155b1515611f4c57600080fd5b80600c60008473ffffffffffffffffffffffffffffffffffffffff1673ffffffffffffffffffffffffffffffffffffffff168152602001908152602001600020600082825403925050819055506000600c60008473ffffffffffffffffffffffffffffffffffffffff1673ffffffffffffffffffffffffffffffffffffffff168152602001908152602001600020541415611feb57611fea8261339f565b5b8173ffffffffffffffffffffffffffffffffffffffff167fd2dc74064ce9979876047afc7922931592038bce8a7fbaf28417799c138e4e4d600c60008573ffffffffffffffffffffffffffffffffffffffff1673ffffffffffffffffffffffffffffffffffffffff168152602001908152602001600020546040518082815260200191505060405180910390a25050565b60003373ffffffffffffffffffffffffffffffffffffffff16600160009054906101000a900473ffffffffffffffffffffffffffffffffffffffff1673ffffffffffffffffffffffffffffffffffffffff16148061212757503373ffffffffffffffffffffffffffffffffffffffff16600260009054906101000a900473ffffffffffffffffffffffffffffffffffffffff1673ffffffffffffffffffffffffffffffffffffffff16145b151561213257600080fd5b60008260ff16118015612149575060648260ff1611155b151561215457600080fd5b6000600c60008573ffffffffffffffffffffffffffffffffffffffff1673ffffffffffffffffffffffffffffffffffffffff16815260200190815260200160002054141561220357600b8390806001815401808255809150509060018203906000526020600020016000909192909190916101000a81548173ffffffffffffffffffffffffffffffffffffffff021916908373ffffffffffffffffffffffffffffffffffffffff160217905550505b60648260ff16600660008673ffffffffffffffffffffffffffffffffffffffff1673ffffffffffffffffffffffffffffffffffffffff168152602001908152602001600020540281151561225357fe5b04905080600c60008573ffffffffffffffffffffffffffffffffffffffff1673ffffffffffffffffffffffffffffffffffffffff168152602001908152602001600020819055508273ffffffffffffffffffffffffffffffffffffffff167fd2dc74064ce9979876047afc7922931592038bce8a7fbaf28417799c138e4e4d826040518082815260200191505060405180910390a2505050565b3373ffffffffffffffffffffffffffffffffffffffff16600160009054906101000a900473ffffffffffffffffffffffffffffffffffffffff1673ffffffffffffffffffffffffffffffffffffffff1614151561234957600080fd5b80600260006101000a81548173ffffffffffffffffffffffffffffffffffffffff021916908373ffffffffffffffffffffffffffffffffffffffff16021790555050565b6000600660008373ffffffffffffffffffffffffffffffffffffffff1673ffffffffffffffffffffffffffffffffffffffff168152602001908152602001600020549050919050565b600081600660008573ffffffffffffffffffffffffffffffffffffffff1673ffffffffffffffffffffffffffffffffffffffff168152602001908152602001600020541015151561242657600080fd5b600760008473ffffffffffffffffffffffffffffffffffffffff1673ffffffffffffffffffffffffffffffffffffffff16815260200190815260200160002060003373ffffffffffffffffffffffffffffffffffffffff1673ffffffffffffffffffffffffffffffffffffffff1681526020019081526020016000205482111515156124b157600080fd5b81600660008573ffffffffffffffffffffffffffffffffffffffff1673ffffffffffffffffffffffffffffffffffffffff1681526020019081526020016000206000828254039250508190555081600760008573ffffffffffffffffffffffffffffffffffffffff1673ffffffffffffffffffffffffffffffffffffffff16815260200190815260200160002060003373ffffffffffffffffffffffffffffffffffffffff1673ffffffffffffffffffffffffffffffffffffffff168152602001908152602001600020600082825403925050819055508160008082825403925050819055508273ffffffffffffffffffffffffffffffffffffffff167fcc16f5dbb4873280815c1ee09dbd06736cffcc184412cf7a71a0fdb75d397ca5836040518082815260200191505060405180910390a26001905092915050565b60095481565b3373ffffffffffffffffffffffffffffffffffffffff16600160009054906101000a900473ffffffffffffffffffffffffffffffffffffffff1673ffffffffffffffffffffffffffffffffffffffff16148061269e57503373ffffffffffffffffffffffffffffffffffffffff16600260009054906101000a900473ffffffffffffffffffffffffffffffffffffffff1673ffffffffffffffffffffffffffffffffffffffff16145b15156126a957600080fd5b6000811115156126b857600080fd5b6000600c60008473ffffffffffffffffffffffffffffffffffffffff1673ffffffffffffffffffffffffffffffffffffffff16815260200190815260200160002054141561276757600b8290806001815401808255809150509060018203906000526020600020016000909192909190916101000a81548173ffffffffffffffffffffffffffffffffffffffff021916908373ffffffffffffffffffffffffffffffffffffffff160217905550505b80600c60008473ffffffffffffffffffffffffffffffffffffffff1673ffffffffffffffffffffffffffffffffffffffff168152602001908152602001600020600082825401925050819055508173ffffffffffffffffffffffffffffffffffffffff167fd2dc74064ce9979876047afc7922931592038bce8a7fbaf28417799c138e4e4d600c60008573ffffffffffffffffffffffffffffffffffffffff1673ffffffffffffffffffffffffffffffffffffffff168152602001908152602001600020546040518082815260200191505060405180910390a25050565b60048054600181600116156101000203166002900480601f0160208091040260200160405190810160405280929190818152602001828054600181600116156101000203166002900480156128db5780601f106128b0576101008083540402835291602001916128db565b820191906000526020600020905b8154815290600101906020018083116128be57829003601f168201915b505050505081565b3373ffffffffffffffffffffffffffffffffffffffff16600160009054906101000a900473ffffffffffffffffffffffffffffffffffffffff1673ffffffffffffffffffffffffffffffffffffffff16148061298c57503373ffffffffffffffffffffffffffffffffffffffff16600260009054906101000a900473ffffffffffffffffffffffffffffffffffffffff1673ffffffffffffffffffffffffffffffffffffffff16145b151561299757600080fd5b6001600260149054906101000a900460ff1660ff16141515156129b957600080fd5b6001600260146101000a81548160ff021916908360ff160217905550565b6000806009541115156129e957600080fd5b600954348115156129f657fe5b049050612a0430338361312d565b50565b600080600160009054906101000a900473ffffffffffffffffffffffffffffffffffffffff16600260009054906101000a900473ffffffffffffffffffffffffffffffffffffffff16915091509091565b6000612a6533848461312d565b6001905092915050565b3373ffffffffffffffffffffffffffffffffffffffff16600160009054906101000a900473ffffffffffffffffffffffffffffffffffffffff1673ffffffffffffffffffffffffffffffffffffffff161480612b1857503373ffffffffffffffffffffffffffffffffffffffff16600260009054906101000a900473ffffffffffffffffffffffffffffffffffffffff1673ffffffffffffffffffffffffffffffffffffffff16145b1515612b2357600080fd5b80600a60006101000a81548160ff021916908360ff16021790555050565b3373ffffffffffffffffffffffffffffffffffffffff16600160009054906101000a900473ffffffffffffffffffffffffffffffffffffffff1673ffffffffffffffffffffffffffffffffffffffff161480612bea57503373ffffffffffffffffffffffffffffffffffffffff16600260009054906101000a900473ffffffffffffffffffffffffffffffffffffffff1673ffffffffffffffffffffffffffffffffffffffff16145b1515612bf557600080fd5b60028060149054906101000a900460ff1660ff1614151515612c1657600080fd5b60028060146101000a81548160ff021916908360ff160217905550565b6000600c60008373ffffffffffffffffffffffffffffffffffffffff1673ffffffffffffffffffffffffffffffffffffffff168152602001908152602001600020549050919050565b600060028060149054906101000a900460ff1660ff161480612ceb57503373ffffffffffffffffffffffffffffffffffffffff16600160009054906101000a900473ffffffffffffffffffffffffffffffffffffffff1673ffffffffffffffffffffffffffffffffffffffff16145b80612d4357503373ffffffffffffffffffffffffffffffffffffffff16600260009054906101000a900473ffffffffffffffffffffffffffffffffffffffff1673ffffffffffffffffffffffffffffffffffffffff16145b80612e1157506001600260149054906101000a900460ff1660ff16148015612e1057503373ffffffffffffffffffffffffffffffffffffffff16600160009054906101000a900473ffffffffffffffffffffffffffffffffffffffff1673ffffffffffffffffffffffffffffffffffffffff161480612e0f57503373ffffffffffffffffffffffffffffffffffffffff16600260009054906101000a900473ffffffffffffffffffffffffffffffffffffffff1673ffffffffffffffffffffffffffffffffffffffff16145b5b5b1515612e1c57600080fd5b612ea2600760003373ffffffffffffffffffffffffffffffffffffffff1673ffffffffffffffffffffffffffffffffffffffff16815260200190815260200160002060008573ffffffffffffffffffffffffffffffffffffffff1673ffffffffffffffffffffffffffffffffffffffff1681526020019081526020016000205483613513565b600760003373ffffffffffffffffffffffffffffffffffffffff1673ffffffffffffffffffffffffffffffffffffffff16815260200190815260200160002060008573ffffffffffffffffffffffffffffffffffffffff1673ffffffffffffffffffffffffffffffffffffffff168152602001908152602001600020819055508273ffffffffffffffffffffffffffffffffffffffff163373ffffffffffffffffffffffffffffffffffffffff167f8c5be1e5ebec7d5bd14f71427d1e84f3dd0314c0f7b2291e5b200ac8c7c3b925600760003373ffffffffffffffffffffffffffffffffffffffff1673ffffffffffffffffffffffffffffffffffffffff16815260200190815260200160002060008773ffffffffffffffffffffffffffffffffffffffff1673ffffffffffffffffffffffffffffffffffffffff168152602001908152602001600020546040518082815260200191505060405180910390a36001905092915050565b6000600760008473ffffffffffffffffffffffffffffffffffffffff1673ffffffffffffffffffffffffffffffffffffffff16815260200190815260200160002060008373ffffffffffffffffffffffffffffffffffffffff1673ffffffffffffffffffffffffffffffffffffffff16815260200190815260200160002054905092915050565b6000806008541115156130a657600080fd5b30905060085482028173ffffffffffffffffffffffffffffffffffffffff1631101515156130d357600080fd5b6130de33308461312d565b3373ffffffffffffffffffffffffffffffffffffffff166108fc60085484029081150290604051600060405180830381858888f19350505050158015613128573d6000803e3d6000fd5b505050565b60028060149054906101000a900460ff1660ff16148061319a57503373ffffffffffffffffffffffffffffffffffffffff16600160009054906101000a900473ffffffffffffffffffffffffffffffffffffffff1673ffffffffffffffffffffffffffffffffffffffff16145b806131f257503373ffffffffffffffffffffffffffffffffffffffff16600260009054906101000a900473ffffffffffffffffffffffffffffffffffffffff1673ffffffffffffffffffffffffffffffffffffffff16145b806132c057506001600260149054906101000a900460ff1660ff161480156132bf57503373ffffffffffffffffffffffffffffffffffffffff16600160009054906101000a900473ffffffffffffffffffffffffffffffffffffffff1673ffffffffffffffffffffffffffffffffffffffff1614806132be57503373ffffffffffffffffffffffffffffffffffffffff16600260009054906101000a900473ffffffffffffffffffffffffffffffffffffffff1673ffffffffffffffffffffffffffffffffffffffff16145b5b5b15156132cb57600080fd5b80600660008573ffffffffffffffffffffffffffffffffffffffff1673ffffffffffffffffffffffffffffffffffffffff1681526020019081526020016000205403600c60008573ffffffffffffffffffffffffffffffffffffffff1673ffffffffffffffffffffffffffffffffffffffff168152602001908152602001600020541115151561335a57600080fd5b61336583838361353d565b6001600260149054906101000a900460ff1660ff16141561339a5761339982600a60009054906101000a900460ff1661207c565b5b505050565b600080600080600b805490509350600091505b8382101561343c578473ffffffffffffffffffffffffffffffffffffffff16600b838154811015156133e057fe5b9060005260206000200160009054906101000a900473ffffffffffffffffffffffffffffffffffffffff1673ffffffffffffffffffffffffffffffffffffffff16141561342f5781925061343c565b81806001019250506133b2565b600b6001600b805490500381548110151561345357fe5b9060005260206000200160009054906101000a900473ffffffffffffffffffffffffffffffffffffffff16905080600b8481548110151561349057fe5b9060005260206000200160006101000a81548173ffffffffffffffffffffffffffffffffffffffff021916908373ffffffffffffffffffffffffffffffffffffffff160217905550600b8054809190600190036134ed9190613a92565b505050505050565b60008082841015151561350457fe5b82840390508091505092915050565b600080828401905083811015801561352b5750828110155b151561353357fe5b8091505092915050565b600060028060149054906101000a900460ff1660ff1614806135ac57503373ffffffffffffffffffffffffffffffffffffffff16600160009054906101000a900473ffffffffffffffffffffffffffffffffffffffff1673ffffffffffffffffffffffffffffffffffffffff16145b8061360457503373ffffffffffffffffffffffffffffffffffffffff16600260009054906101000a900473ffffffffffffffffffffffffffffffffffffffff1673ffffffffffffffffffffffffffffffffffffffff16145b806136d257506001600260149054906101000a900460ff1660ff161480156136d157503373ffffffffffffffffffffffffffffffffffffffff16600160009054906101000a900473ffffffffffffffffffffffffffffffffffffffff1673ffffffffffffffffffffffffffffffffffffffff1614806136d057503373ffffffffffffffffffffffffffffffffffffffff16600260009054906101000a900473ffffffffffffffffffffffffffffffffffffffff1673ffffffffffffffffffffffffffffffffffffffff16145b5b5b15156136dd57600080fd5b8273ffffffffffffffffffffffffffffffffffffffff1660001415151561370357600080fd5b81600660008673ffffffffffffffffffffffffffffffffffffffff1673ffffffffffffffffffffffffffffffffffffffff168152602001908152602001600020541015151561375157600080fd5b600660008473ffffffffffffffffffffffffffffffffffffffff1673ffffffffffffffffffffffffffffffffffffffff1681526020019081526020016000205482600660008673ffffffffffffffffffffffffffffffffffffffff1673ffffffffffffffffffffffffffffffffffffffff1681526020019081526020016000205401101515156137e057600080fd5b600660008473ffffffffffffffffffffffffffffffffffffffff1673ffffffffffffffffffffffffffffffffffffffff16815260200190815260200160002054600660008673ffffffffffffffffffffffffffffffffffffffff1673ffffffffffffffffffffffffffffffffffffffff168152602001908152602001600020540190506138ac600660008673ffffffffffffffffffffffffffffffffffffffff1673ffffffffffffffffffffffffffffffffffffffff16815260200190815260200160002054836134f5565b600660008673ffffffffffffffffffffffffffffffffffffffff1673ffffffffffffffffffffffffffffffffffffffff16815260200190815260200160002081905550613938600660008573ffffffffffffffffffffffffffffffffffffffff1673ffffffffffffffffffffffffffffffffffffffff1681526020019081526020016000205483613513565b600660008573ffffffffffffffffffffffffffffffffffffffff1673ffffffffffffffffffffffffffffffffffffffff168152602001908152602001600020819055508273ffffffffffffffffffffffffffffffffffffffff168473ffffffffffffffffffffffffffffffffffffffff167fddf252ad1be2c89b69c2b068fc378daa952ba7f163c4a11628f55a4df523b3ef846040518082815260200191505060405180910390a380600660008573ffffffffffffffffffffffffffffffffffffffff1673ffffffffffffffffffffffffffffffffffffffff16815260200190815260200160002054600660008773ffffffffffffffffffffffffffffffffffffffff1673ffffffffffffffffffffffffffffffffffffffff1681526020019081526020016000205401141515613a6b57fe5b50505050565b5080546000825590600052602060002090810190613a8f9190613abe565b50565b815481835581811115613ab957818360005260206000209182019101613ab89190613abe565b5b505050565b613ae091905b80821115613adc576000816000905550600101613ac4565b5090565b905600a165627a7a72305820225b91cdd793f4ea730d65b41c129b23738cb2c74bb5b82659ca00ef589051750029",
  "source": "\n\n contract Math {\n    function add(uint256 x, uint256 y) pure internal returns(uint256) {\n      uint256 z = x + y;\n      assert((z >= x) && (z >= y));\n      return z;\n    }\n\n    function subtract(uint256 x, uint256 y) pure internal returns(uint256) {\n      assert(x >= y);\n      uint256 z = x - y;\n      return z;\n    }\n}\n\ncontract Auth {\n    address owner = 0x0;\n    address admin = 0x0;\n\n    modifier isOwner {\n        require(owner == msg.sender);\n        _;\n    }\n\n    modifier isAdmin {\n        require(owner == msg.sender || admin == msg.sender);\n        _;\n    }\n    \n    function setOwner(address _owner)  public {\n        owner = _owner;\n    }\n    \n    function setAdmin(address _admin) isOwner public {\n        admin = _admin;\n    }\n    \n    function getManagers() public view returns (address _owner, address _admin) {\n        return (owner, admin);\n    }\n}\n\ncontract Manage is Auth {\n    \n    \n    uint8 public status = 0;\n\n    modifier isRunning {\n        require(status == 2 || owner == msg.sender || admin == msg.sender || (status == 1 && (owner == msg.sender || admin == msg.sender)));\n        _;\n    }\n\n    function limit() isAdmin public {\n    \trequire(status != 1);\n        status = 1;\n    }\n    \n    function start() isAdmin public {\n    \trequire(status != 2);\n        status = 2;\n    }\n    \n    function close() isAdmin public {\n    \trequire(status != 3);\n        status = 3;\n    }\n}\n\ncontract EIP20Interface {\n    uint256 public totalSupply;\n    function balanceOf(address _owner) public view returns (uint256 balance);\n    function transfer(address _to, uint256 _value) public returns (bool success);\n    function transferFrom(address _from, address _to, uint256 _value) public returns (bool success);\n    function approve(address _spender, uint256 _value) public returns (bool success);\n    function allowance(address _owner, address _spender) public view returns (uint256 remaining);\n    \n    event Transfer(address indexed _from, address indexed _to, uint256 _value);\n    event Approval(address indexed _owner, address indexed _spender, uint256 _value);\n}\n\ncontract TokenBase is EIP20Interface, Manage, Math {\n    string public name;\n    string public symbol;\n    uint8 public decimals;\n    \n    event Burn(address indexed from, uint256 value);\n\n    mapping (address => uint256) public balances;\n    mapping (address => mapping (address => uint256)) public allowed;\n    \n    constructor() public {\n        owner = msg.sender;\n        admin = msg.sender;\n    }\n    \n    function init(uint256 initialSupply, string tokenName, string tokenSymbol, uint8 tokenDecimals) internal {\n        require(status == 0);\n        totalSupply = initialSupply * 10 ** uint256(tokenDecimals);\n        balances[msg.sender] = totalSupply;\n        name = tokenName;\n        symbol = tokenSymbol;\n        decimals = tokenDecimals;\n        status = 1;\n    }\n    \n    function _transfer(address _from, address _to, uint256 _value) isRunning internal {\n    \trequire(0x0 != _to);\n        require(balances[_from] >= _value);\n        require(balances[_to] + _value >= balances[_to]);\n        uint previousBalances = balances[_from] + balances[_to];\n        balances[_from] = Math.subtract(balances[_from], _value);\n        balances[_to] = Math.add(balances[_to], _value);\n        emit Transfer(_from, _to, _value);\n        assert(balances[_from] + balances[_to] == previousBalances);\n    }\n    \n    function transfer(address _to, uint256 _value) public returns (bool success) {\n        _transfer(msg.sender, _to, _value);\n        return true;\n    }\n    \n    function transferFrom(address _from, address _to, uint256 _value) public returns (bool success) {\n        require(_value <= allowed[_from][msg.sender]);\n        allowed[_from][msg.sender] -= _value;\n        _transfer(_from, _to, _value);\n        return true;\n    }\n    \n    function approve(address _spender, uint256 _value) isRunning public returns (bool success) {\n        require(_value == 0 || allowed[msg.sender][_spender] == 0);\n        allowed[msg.sender][_spender] = _value;\n        emit Approval(msg.sender, _spender, _value);\n        return true;\n    }\n    \n    function increaseApproval(address _spender, uint256 _value) isRunning public returns (bool success) {\n   \t\tallowed[msg.sender][_spender] = Math.add(allowed[msg.sender][_spender], _value);\n   \t\temit Approval(msg.sender, _spender, allowed[msg.sender][_spender]);\n   \t\treturn true;\n\t}\n\n\tfunction decreaseApproval(address _spender, uint _value) isRunning public returns (bool success) {\n\t   \tuint256 oldValue = allowed[msg.sender][_spender];\n\t   \tif (_value >= oldValue) {\n\t       allowed[msg.sender][_spender] = 0;\n\t   \t} else {\n\t       allowed[msg.sender][_spender] = Math.subtract(oldValue, _value);\n\t   \t}\n\t   \temit Approval(msg.sender, _spender, allowed[msg.sender][_spender]);\n\t   \treturn true;\n\t}\n    \n    function burn(uint256 _value) public returns (bool success) {\n        require(balances[msg.sender] >= _value);   \n        balances[msg.sender] -= _value;            \n        totalSupply -= _value;                      \n        emit Burn(msg.sender, _value);\n        return true;\n    }\n    \n    function burnFrom(address _from, uint256 _value) public returns (bool success) {\n        require(balances[_from] >= _value);                \n        require(_value <= allowed[_from][msg.sender]);    \n        balances[_from] -= _value;                         \n        allowed[_from][msg.sender] -= _value;             \n        totalSupply -= _value;                              \n        emit Burn(_from, _value);\n        return true;\n    }\n    \n    function balanceOf(address _owner) public view returns (uint256 balance) {\n        return balances[_owner];\n    }\n    \n    function allowance(address _owner, address _spender) public view returns (uint256 remaining) {\n        return allowed[_owner][_spender];\n    }\n    \n    function destruct() isOwner public {\n        selfdestruct(owner); \n    }\n}\n\ncontract EcoDollar is TokenBase {\n    uint256 public sellPrice;\n    uint256 public buyPrice;\n    uint8 freezePercent;\n    address[] private frozenAddresses;\n    mapping (address => uint256) public frozenBalances;\n    \n    event FrozenBalance(address indexed target, uint256 balance);\n    event Price(uint256 newSellPrice, uint256 newBuyPrice);\n    \n    constructor() TokenBase() public {\n        init(3000000000, \"EcoDollar\", \"ECO\", 18);\n        freezePercent = 100;\n        \n        emit Transfer(address(0), msg.sender, totalSupply);\n    }\n    \n    function _transfer(address _from, address _to, uint256 _value) isRunning internal {\n        require(frozenBalances[_from] <= balances[_from] - _value);\n        \n        super._transfer(_from, _to, _value);\n        \n        if(status == 1) \n        \tfreeze(_to, freezePercent);\n    }\n    \n    function increaseFrozenBalances(address target, uint256 _value) isAdmin public {\n        require(_value > 0);\n        if(frozenBalances[target] == 0)\n        \tfrozenAddresses.push(target);\n        \t\n        frozenBalances[target] += _value;\n        emit FrozenBalance(target, frozenBalances[target]);\n    }\n    \n    function decreaseFrozenBalances(address target, uint256 _value) isAdmin public {\n        require(_value > 0 && frozenBalances[target] >= _value);\n        frozenBalances[target] -= _value;\n        \n        if(frozenBalances[target] == 0)\n        \tdeleteFrozenAddresses(target);\n        \t\n        emit FrozenBalance(target, frozenBalances[target]);\n    }\n    \n    function freeze(address target, uint8 percent) isAdmin public {\n        require(percent > 0 && percent <= 100);\n        if(frozenBalances[target] == 0)\n        \tfrozenAddresses.push(target);\n        \n        uint256 frozenBalance = balances[target] * percent / 100;\n        frozenBalances[target] = frozenBalance;\n        \n        emit FrozenBalance(target, frozenBalance);\n    }\n    \n    function changeFrozenBalanceAll(uint8 percent) isAdmin public {\n        uint arrayLength = frozenAddresses.length;\n\t\tfor (uint i=0; i<arrayLength; i++) {\n\t\t\tuint256 frozenBalance = balances[frozenAddresses[i]] * percent / 100;\n        \tfrozenBalances[frozenAddresses[i]] = frozenBalance;\n\t\t}\n    }\n    \n    function unfreeze(address target) isAdmin public {\n    \tdeleteFrozenAddresses(target);\n    \n        delete frozenBalances[target];\n    }\n    \n    function deleteFrozenAddresses(address target) private {\n    \tuint arrayLength = frozenAddresses.length;\n    \tuint indexToBeDeleted;\n\t\tfor (uint i=0; i<arrayLength; i++) {\n  \t\t\tif (frozenAddresses[i] == target) {\n    \t\t\tindexToBeDeleted = i;\n    \t\t\tbreak;\n  \t\t\t}\n\t\t}\n\t\t\n\t\taddress lastAddress = frozenAddresses[frozenAddresses.length-1];\n        frozenAddresses[indexToBeDeleted] = lastAddress;\n        frozenAddresses.length--;\n    }\n    \n    function unfreezeAll() isAdmin public {\n    \tuint arrayLength = frozenAddresses.length;\n\t\tfor (uint i=0; i<arrayLength; i++) {\n\t\t\tdelete frozenBalances[frozenAddresses[i]];\n\t\t}\n        \n        delete frozenAddresses;\n        frozenAddresses.length = 0;\n    }\n    \n    function setPrices(uint256 newSellPrice, uint256 newBuyPrice) isAdmin public {\n        sellPrice = newSellPrice;\n        buyPrice = newBuyPrice;\n        emit Price(sellPrice, buyPrice);\n    }\n    \n    function buy() payable public {\n        require(buyPrice > 0);\n        uint amount = msg.value / buyPrice;\n        _transfer(this, msg.sender, amount);\n    }\n    \n    function sell(uint256 amount) public {\n        require(sellPrice > 0);\n        address myAddress = this;\n        require(myAddress.balance >= amount * sellPrice);\n        _transfer(msg.sender, this, amount);\n        msg.sender.transfer(amount * sellPrice);\n    }\n    \n    function setFreezePercent(uint8 percent) isAdmin public {\n    \tfreezePercent = percent;\n    }\n    \n    function frozenBalancesOf(address target) public view returns (uint256 balance) {\n         return frozenBalances[target];\n    }\n}\n",
  "sourcePath": "/home/XXX-1/smartrim-experiment/for-rlf/0x3933e1bd030c3c14407f8eecce81493e066ab5e1_3/contracts/0x3933e1bd030c3c14407f8eecce81493e066ab5e1_3.sol",
  "compiler": {
    "name": "solc",
    "version": "0.4.25+commit.59dbf8f1.Emscripten.clang"
  },
  "schemaVersion": "3.4.16",
  "updatedAt": "2025-08-14T03:36:49.021Z",
  "networkType": "ethereum",
  "devdoc": {
    "methods": {}
  },
  "userdoc": {
    "methods": {}
  }
}