{
  "contractName": "Johnsonville",
  "abi": [
    {
      "inputs": [],
      "payable": false,
      "stateMutability": "nonpayable",
      "type": "constructor"
    },
    {
      "constant": false,
      "inputs": [],
      "name": "Donate",
      "outputs": [],
      "payable": true,
      "stateMutability": "payable",
      "type": "function"
    },
    {
      "constant": false,
      "inputs": [],
      "name": "PatronOneWithdrawal",
      "outputs": [],
      "payable": false,
      "stateMutability": "nonpayable",
      "type": "function"
    },
    {
      "constant": false,
      "inputs": [],
      "name": "PatronTwoWithdrawal",
      "outputs": [],
      "payable": false,
      "stateMutability": "nonpayable",
      "type": "function"
    },
    {
      "constant": false,
      "inputs": [],
      "name": "PatronThreeWithdrawal",
      "outputs": [],
      "payable": false,
      "stateMutability": "nonpayable",
      "type": "function"
    },
    {
      "constant": false,
      "inputs": [
        {
          "name": "withdrawalAddress",
          "type": "address"
        }
      ],
      "name": "Withdrawal",
      "outputs": [],
      "payable": false,
      "stateMutability": "nonpayable",
      "type": "function"
    },
    {
      "constant": false,
      "inputs": [],
      "name": "KillContract",
      "outputs": [],
      "payable": false,
      "stateMutability": "nonpayable",
      "type": "function"
    }
  ],
  "bytecode": "0x608060405234801561001057600080fd5b50336000806101000a81548173ffffffffffffffffffffffffffffffffffffffff021916908373ffffffffffffffffffffffffffffffffffffffff1602179055506000600360146101000a81548160ff0219169083151502179055506000600360156101000a81548160ff0219169083151502179055506000600360166101000a81548160ff021916908315150217905550610657806100b16000396000f300608060405260043610610078576000357c0100000000000000000000000000000000000000000000000000000000900463ffffffff16806350d9b9321461007d5780635b0cfcd81461009457806362612c6d146100ab578063d917deb5146100c2578063e19ed711146100cc578063f19674f61461010f575b600080fd5b34801561008957600080fd5b50610092610126565b005b3480156100a057600080fd5b506100a96101a9565b005b3480156100b757600080fd5b506100c0610208565b005b6100ca61028b565b005b3480156100d857600080fd5b5061010d600480360381019080803573ffffffffffffffffffffffffffffffffffffffff1690602001909291905050506104ec565b005b34801561011b57600080fd5b506101246105a8565b005b600160009054906101000a900473ffffffffffffffffffffffffffffffffffffffff1673ffffffffffffffffffffffffffffffffffffffff163373ffffffffffffffffffffffffffffffffffffffff1614156101a757600360149054906101000a900460ff1615600360146101000a81548160ff0219169083151502179055505b565b6000809054906101000a900473ffffffffffffffffffffffffffffffffffffffff1673ffffffffffffffffffffffffffffffffffffffff163373ffffffffffffffffffffffffffffffffffffffff1614151561020457600080fd5b6000ff5b600260009054906101000a900473ffffffffffffffffffffffffffffffffffffffff1673ffffffffffffffffffffffffffffffffffffffff163373ffffffffffffffffffffffffffffffffffffffff16141561028957600360159054906101000a900460ff1615600360156101000a81548160ff0219169083151502179055505b565b600160009054906101000a900473ffffffffffffffffffffffffffffffffffffffff1673ffffffffffffffffffffffffffffffffffffffff163134118061030a57506000600160009054906101000a900473ffffffffffffffffffffffffffffffffffffffff1673ffffffffffffffffffffffffffffffffffffffff16145b156103555733600160006101000a81548173ffffffffffffffffffffffffffffffffffffffff021916908373ffffffffffffffffffffffffffffffffffffffff1602179055506104ea565b600260009054906101000a900473ffffffffffffffffffffffffffffffffffffffff1673ffffffffffffffffffffffffffffffffffffffff16313411806103d457506000600260009054906101000a900473ffffffffffffffffffffffffffffffffffffffff1673ffffffffffffffffffffffffffffffffffffffff16145b1561041f5733600260006101000a81548173ffffffffffffffffffffffffffffffffffffffff021916908373ffffffffffffffffffffffffffffffffffffffff1602179055506104ea565b600360009054906101000a900473ffffffffffffffffffffffffffffffffffffffff1673ffffffffffffffffffffffffffffffffffffffff163134118061049e57506000600360009054906101000a900473ffffffffffffffffffffffffffffffffffffffff1673ffffffffffffffffffffffffffffffffffffffff16145b156104e95733600360006101000a81548173ffffffffffffffffffffffffffffffffffffffff021916908373ffffffffffffffffffffffffffffffffffffffff1602179055506104ea565b5b565b6000809054906101000a900473ffffffffffffffffffffffffffffffffffffffff1673ffffffffffffffffffffffffffffffffffffffff163373ffffffffffffffffffffffffffffffffffffffff1614151561054757600080fd5b600360149054906101000a900460ff16801561056f5750600360159054906101000a900460ff165b80156105875750600360169054906101000a900460ff165b156105a5578073ffffffffffffffffffffffffffffffffffffffff16ff5b50565b600360009054906101000a900473ffffffffffffffffffffffffffffffffffffffff1673ffffffffffffffffffffffffffffffffffffffff163373ffffffffffffffffffffffffffffffffffffffff16141561062957600360169054906101000a900460ff1615600360166101000a81548160ff0219169083151502179055505b5600a165627a7a723058201c833035b981ab86215a91672abaaecfad35464ff6a54d2e82c718a2aca72e470029",
  "source": "\n\ncontract Johnsonville {\n\n    address owner;\n    address patronOne;\n    address patronTwo;\n    address patronThree;\n\n    bool patronOneWd;\n    bool patronTwoWd;\n    bool patronThreeWd;\n\n    modifier onlyOwner {\n      if(msg.sender != owner) throw;\n      _;\n    }\n\n    function Johnsonville() {\n      owner = msg.sender;\n      patronOneWd = false;\n      patronTwoWd = false;\n      patronThreeWd = false;\n    }\n\n    function Donate() payable {\n      if(msg.value > patronOne.balance || patronOne == 0x0){\n        patronOne = msg.sender;\n        return;\n      }\n      if(msg.value > patronTwo.balance || patronTwo == 0x0){\n        patronTwo = msg.sender;\n        return;\n      }\n      if(msg.value > patronThree.balance || patronThree == 0x0){\n        patronThree = msg.sender;\n        return;\n      }\n    }\n\n    function PatronOneWithdrawal(){\n      if(msg.sender == patronOne){ patronOneWd = !patronOneWd; }\n    }\n\n    function PatronTwoWithdrawal(){\n      if(msg.sender == patronTwo){ patronTwoWd = !patronTwoWd; }\n    }\n\n    function PatronThreeWithdrawal(){\n      if(msg.sender == patronThree){ patronThreeWd = !patronThreeWd; }\n    }\n\n    function Withdrawal(address withdrawalAddress) onlyOwner {\n      if(patronOneWd && patronTwoWd && patronThreeWd){\n        selfdestruct(withdrawalAddress);\n      }\n    }\n\n    function KillContract() onlyOwner {\n      selfdestruct(0x0);\n    }\n}",
  "sourcePath": "/home/XXX-1/smartrim-experiment/for-rlf/0x4c524b1e9d947c79be92e20c82e7281d783657dd/contracts/0x4c524b1e9d947c79be92e20c82e7281d783657dd.sol",
  "compiler": {
    "name": "solc",
    "version": "0.4.25+commit.59dbf8f1.Emscripten.clang"
  },
  "schemaVersion": "3.4.16",
  "updatedAt": "2025-08-14T03:53:22.948Z",
  "networkType": "ethereum",
  "devdoc": {
    "methods": {}
  },
  "userdoc": {
    "methods": {}
  }
}