{
  "contractName": "Better_Bank_With_Interest",
  "abi": [
    {
      "constant": true,
      "inputs": [],
      "name": "deposit_fee",
      "outputs": [
        {
          "name": "",
          "type": "uint256"
        }
      ],
      "payable": false,
      "stateMutability": "view",
      "type": "function"
    },
    {
      "constant": true,
      "inputs": [],
      "name": "count_customer_deposits",
      "outputs": [
        {
          "name": "",
          "type": "uint256"
        }
      ],
      "payable": false,
      "stateMutability": "view",
      "type": "function"
    },
    {
      "constant": true,
      "inputs": [],
      "name": "minimum_deposit_amount",
      "outputs": [
        {
          "name": "",
          "type": "uint256"
        }
      ],
      "payable": false,
      "stateMutability": "view",
      "type": "function"
    },
    {
      "constant": true,
      "inputs": [],
      "name": "contract_alive_until_this_block",
      "outputs": [
        {
          "name": "",
          "type": "uint256"
        }
      ],
      "payable": false,
      "stateMutability": "view",
      "type": "function"
    },
    {
      "inputs": [],
      "payable": false,
      "stateMutability": "nonpayable",
      "type": "constructor"
    },
    {
      "payable": true,
      "stateMutability": "payable",
      "type": "fallback"
    },
    {
      "constant": false,
      "inputs": [],
      "name": "deposit",
      "outputs": [],
      "payable": true,
      "stateMutability": "payable",
      "type": "function"
    },
    {
      "constant": false,
      "inputs": [
        {
          "name": "withdraw_amount",
          "type": "uint256"
        }
      ],
      "name": "withdraw",
      "outputs": [],
      "payable": false,
      "stateMutability": "nonpayable",
      "type": "function"
    },
    {
      "constant": false,
      "inputs": [
        {
          "name": "new_limit",
          "type": "uint256"
        }
      ],
      "name": "set_minimum_payment",
      "outputs": [],
      "payable": false,
      "stateMutability": "nonpayable",
      "type": "function"
    },
    {
      "constant": false,
      "inputs": [
        {
          "name": "new_fee",
          "type": "uint256"
        }
      ],
      "name": "set_deposit_fee",
      "outputs": [],
      "payable": false,
      "stateMutability": "nonpayable",
      "type": "function"
    },
    {
      "constant": true,
      "inputs": [],
      "name": "get_available_interest_amount",
      "outputs": [
        {
          "name": "",
          "type": "uint256"
        }
      ],
      "payable": false,
      "stateMutability": "view",
      "type": "function"
    },
    {
      "constant": true,
      "inputs": [
        {
          "name": "query_address",
          "type": "address"
        }
      ],
      "name": "get_term_deposit_end_date",
      "outputs": [
        {
          "name": "",
          "type": "uint256"
        }
      ],
      "payable": false,
      "stateMutability": "view",
      "type": "function"
    },
    {
      "constant": true,
      "inputs": [
        {
          "name": "query_address",
          "type": "address"
        }
      ],
      "name": "get_balance",
      "outputs": [
        {
          "name": "",
          "type": "uint256"
        }
      ],
      "payable": false,
      "stateMutability": "view",
      "type": "function"
    },
    {
      "constant": false,
      "inputs": [
        {
          "name": "newblock",
          "type": "uint256"
        }
      ],
      "name": "extend_life_of_contract",
      "outputs": [],
      "payable": false,
      "stateMutability": "nonpayable",
      "type": "function"
    },
    {
      "constant": false,
      "inputs": [],
      "name": "close_bank",
      "outputs": [],
      "payable": false,
      "stateMutability": "nonpayable",
      "type": "function"
    }
  ],
  "bytecode": "0x608060405234801561001057600080fd5b5033600260006101000a81548173ffffffffffffffffffffffffffffffffffffffff021916908373ffffffffffffffffffffffffffffffffffffffff160217905550680d8d726b7177a80000600381905550674563918244f40000600481905550622dc6c06005819055506000600681905550600060016000600260009054906101000a900473ffffffffffffffffffffffffffffffffffffffff1673ffffffffffffffffffffffffffffffffffffffff1673ffffffffffffffffffffffffffffffffffffffff16815260200190815260200160002081905550610c1e806100f96000396000f3006080604052600436106100c5576000357c0100000000000000000000000000000000000000000000000000000000900463ffffffff16806310ce6452146101355780631e279a371461016257806322e62038146101b95780632e1a7d4d146101d0578063424ddaac146101fd57806355e6fc501461022857806361493b971461025357806376fede7a146102805780637d35f656146102d7578063933bf76014610302578063a9d663521461032f578063d0e30db01461035a578063d21fa4e114610364575b34600080600260009054906101000a900473ffffffffffffffffffffffffffffffffffffffff1673ffffffffffffffffffffffffffffffffffffffff1673ffffffffffffffffffffffffffffffffffffffff16815260200190815260200160002060008282540192505081905550005b34801561014157600080fd5b506101606004803603810190808035906020019092919050505061038f565b005b34801561016e57600080fd5b506101a3600480360381019080803573ffffffffffffffffffffffffffffffffffffffff1690602001909291905050506103f0565b6040518082815260200191505060405180910390f35b3480156101c557600080fd5b506101ce610438565b005b3480156101dc57600080fd5b506101fb6004803603810190808035906020019092919050505061048c565b005b34801561020957600080fd5b506102126107aa565b6040518082815260200191505060405180910390f35b34801561023457600080fd5b5061023d610812565b6040518082815260200191505060405180910390f35b34801561025f57600080fd5b5061027e60048036038101908080359060200190929190505050610818565b005b34801561028c57600080fd5b506102c1600480360381019080803573ffffffffffffffffffffffffffffffffffffffff169060200190929190505050610879565b6040518082815260200191505060405180910390f35b3480156102e357600080fd5b506102ec6108c2565b6040518082815260200191505060405180910390f35b34801561030e57600080fd5b5061032d600480360381019080803590602001909291905050506108c8565b005b34801561033b57600080fd5b506103446109a2565b6040518082815260200191505060405180910390f35b6103626109a8565b005b34801561037057600080fd5b50610379610bec565b6040518082815260200191505060405180910390f35b600260009054906101000a900473ffffffffffffffffffffffffffffffffffffffff1673ffffffffffffffffffffffffffffffffffffffff163373ffffffffffffffffffffffffffffffffffffffff1614156103ed57806004819055505b50565b60008060008373ffffffffffffffffffffffffffffffffffffffff1673ffffffffffffffffffffffffffffffffffffffff168152602001908152602001600020549050919050565b43600554108061044a57506000600654145b1561048a57600260009054906101000a900473ffffffffffffffffffffffffffffffffffffffff1673ffffffffffffffffffffffffffffffffffffffff16ff5b565b6000678ac7230489e800008210156104a357600080fd5b6000803373ffffffffffffffffffffffffffffffffffffffff1673ffffffffffffffffffffffffffffffffffffffff168152602001908152602001600020548211156104ee57600080fd5b600160003373ffffffffffffffffffffffffffffffffffffffff1673ffffffffffffffffffffffffffffffffffffffff1681526020019081526020016000205443101561053a57600080fd5b670de0b6b3a76400009050600260009054906101000a900473ffffffffffffffffffffffffffffffffffffffff1673ffffffffffffffffffffffffffffffffffffffff163373ffffffffffffffffffffffffffffffffffffffff1614156105a057600090505b600080600260009054906101000a900473ffffffffffffffffffffffffffffffffffffffff1673ffffffffffffffffffffffffffffffffffffffff1673ffffffffffffffffffffffffffffffffffffffff1681526020019081526020016000205481111561066c57600080600260009054906101000a900473ffffffffffffffffffffffffffffffffffffffff1673ffffffffffffffffffffffffffffffffffffffff1673ffffffffffffffffffffffffffffffffffffffff1681526020019081526020016000205490505b80600080600260009054906101000a900473ffffffffffffffffffffffffffffffffffffffff1673ffffffffffffffffffffffffffffffffffffffff1673ffffffffffffffffffffffffffffffffffffffff16815260200190815260200160002060008282540392505081905550816000803373ffffffffffffffffffffffffffffffffffffffff1673ffffffffffffffffffffffffffffffffffffffff168152602001908152602001600020600082825403925050819055503373ffffffffffffffffffffffffffffffffffffffff166108fc839081150290604051600060405180830381858888f19350505050151561076657600080fd5b3373ffffffffffffffffffffffffffffffffffffffff166108fc829081150290604051600060405180830381858888f1935050505015156107a657600080fd5b5050565b6000806000600260009054906101000a900473ffffffffffffffffffffffffffffffffffffffff1673ffffffffffffffffffffffffffffffffffffffff1673ffffffffffffffffffffffffffffffffffffffff16815260200190815260200160002054905090565b60045481565b600260009054906101000a900473ffffffffffffffffffffffffffffffffffffffff1673ffffffffffffffffffffffffffffffffffffffff163373ffffffffffffffffffffffffffffffffffffffff16141561087657806003819055505b50565b6000600160008373ffffffffffffffffffffffffffffffffffffffff1673ffffffffffffffffffffffffffffffffffffffff168152602001908152602001600020549050919050565b60065481565b600260009054906101000a900473ffffffffffffffffffffffffffffffffffffffff1673ffffffffffffffffffffffffffffffffffffffff163373ffffffffffffffffffffffffffffffffffffffff16141580610926575060055481105b1561093057600080fd5b8060058190555060055460016000600260009054906101000a900473ffffffffffffffffffffffffffffffffffffffff1673ffffffffffffffffffffffffffffffffffffffff1673ffffffffffffffffffffffffffffffffffffffff1681526020019081526020016000208190555050565b60035481565b6003543410156109b757600080fd5b60008060003373ffffffffffffffffffffffffffffffffffffffff1673ffffffffffffffffffffffffffffffffffffffff168152602001908152602001600020541415610a075760006004819055505b600260009054906101000a900473ffffffffffffffffffffffffffffffffffffffff1673ffffffffffffffffffffffffffffffffffffffff163373ffffffffffffffffffffffffffffffffffffffff161415610ad05734600080600260009054906101000a900473ffffffffffffffffffffffffffffffffffffffff1673ffffffffffffffffffffffffffffffffffffffff1673ffffffffffffffffffffffffffffffffffffffff16815260200190815260200160002060008282540192505081905550610bea565b600160066000828254019250508190555060045434036000803373ffffffffffffffffffffffffffffffffffffffff1673ffffffffffffffffffffffffffffffffffffffff16815260200190815260200160002060008282540192505081905550600454600080600260009054906101000a900473ffffffffffffffffffffffffffffffffffffffff1673ffffffffffffffffffffffffffffffffffffffff1673ffffffffffffffffffffffffffffffffffffffff168152602001908152602001600020600082825401925050819055506178824301600160003373ffffffffffffffffffffffffffffffffffffffff1673ffffffffffffffffffffffffffffffffffffffff168152602001908152602001600020819055505b565b600554815600a165627a7a7230582077a5483343957065636cda4512e61133cc49b5b16171e05daea28e3acfbdba3a0029",
  "source": "\n\ncontract Better_Bank_With_Interest {\n    \n    \n    \n    \n    \n    \n    \n    \n    \n    \n    \n    \n    \n    \n    \n    \n    \n    \n    \n    \n    \n    \n    \n    \n    \n    \n    \n    \n    \n    \n    \n    \n    \n    \n    \n    \n    \n    \n    \n    \n    mapping(address => uint256) balances;\n    mapping(address => uint256) term_deposit_end_block; \n                                                         \n    address thebank; \n    \n    uint256 public minimum_deposit_amount; \n    uint256 public deposit_fee;     \n    uint256 public contract_alive_until_this_block;\n    \n    uint256 public count_customer_deposits; \n    \n    function Better_Bank_With_Interest() { \n        thebank = msg.sender;  \n        minimum_deposit_amount = 250 ether;\n        deposit_fee = 5 ether;\n        contract_alive_until_this_block = 3000000; \n                                                   \n        \n        count_customer_deposits = 0;\n        \n        term_deposit_end_block[thebank] = 0;\n        \n    }\n    \n   \n    \n    \n    function deposit() payable {\n        \n        if (msg.value < minimum_deposit_amount) throw; \n        \n        \n        if (balances[msg.sender] == 0) deposit_fee = 0 ether;  \n        \n        if ( msg.sender == thebank ){ \n            balances[thebank] += msg.value;\n        }\n        else { \n            count_customer_deposits += 1; \n            balances[msg.sender] += msg.value - deposit_fee;  \n            balances[thebank] += deposit_fee; \n            term_deposit_end_block[msg.sender] = block.number + 30850; \n        }\n        \n    }\n    \n    \n    \n    \n    \n    function withdraw(uint256 withdraw_amount) {\n        \n        if (withdraw_amount < 10 ether) throw; \n        if ( withdraw_amount > balances[msg.sender]  ) throw; \n        if (block.number < term_deposit_end_block[msg.sender] ) throw; \n        \n        \n        \n        uint256 interest = 1 ether;  \n        \n        if (msg.sender == thebank){ \n            interest = 0 ether;\n        }\n        \n        if (interest > balances[thebank])   \n            interest = balances[thebank];  \n        \n        \n        balances[thebank] -= interest;  \n        balances[msg.sender] -= withdraw_amount;\n        \n        if (!msg.sender.send(withdraw_amount)) throw;  \n        if (!msg.sender.send(interest)) throw;         \n        \n    }\n    \n    \n    \n    \n    \n    \n    function set_minimum_payment(uint256 new_limit) {\n        if ( msg.sender == thebank ){\n            minimum_deposit_amount = new_limit;\n        }\n    }\n    \n    \n    function set_deposit_fee (uint256 new_fee) {\n        if ( msg.sender == thebank ){\n            deposit_fee = new_fee;\n        }\n    }\n    \n    \n    function get_available_interest_amount () constant  returns (uint256) {\n        return balances[thebank];\n    }\n    \n    function get_term_deposit_end_date (address query_address) constant  returns (uint256) {\n        return term_deposit_end_block[query_address];\n    }    \n    \n    function get_balance (address query_address) constant  returns (uint256) {\n        return balances[query_address];\n    }\n    \n    \n    \n    \n\t\n    function extend_life_of_contract (uint256 newblock){\n        if ( msg.sender != thebank || newblock < contract_alive_until_this_block ) throw;\n        \n        contract_alive_until_this_block = newblock; \n        \n        term_deposit_end_block[thebank] = contract_alive_until_this_block;\n    }\n    \n    \n    function close_bank(){\n        if (contract_alive_until_this_block < block.number || count_customer_deposits == 0)\n            selfdestruct(thebank); \n            \n            \n    }\n    \n    \n    \n    function () payable { \n                          \n                          \n        balances[thebank] += msg.value;\n    }\n}",
  "sourcePath": "/home/XXX-1/smartrim-experiment/for-rlf/0x245233bc8604d2097bfcbf3338959c46da04d9e0/contracts/0x245233bc8604d2097bfcbf3338959c46da04d9e0.sol",
  "compiler": {
    "name": "solc",
    "version": "0.4.25+commit.59dbf8f1.Emscripten.clang"
  },
  "schemaVersion": "3.4.16",
  "updatedAt": "2025-08-14T03:49:39.735Z",
  "networkType": "ethereum",
  "devdoc": {
    "methods": {}
  },
  "userdoc": {
    "methods": {}
  }
}