{
  "contractName": "tokenContract",
  "abi": [
    {
      "constant": true,
      "inputs": [],
      "name": "name",
      "outputs": [
        {
          "name": "",
          "type": "string"
        }
      ],
      "payable": false,
      "stateMutability": "view",
      "type": "function"
    },
    {
      "constant": false,
      "inputs": [
        {
          "name": "_spender",
          "type": "address"
        },
        {
          "name": "_value",
          "type": "uint256"
        }
      ],
      "name": "approve",
      "outputs": [
        {
          "name": "success",
          "type": "bool"
        }
      ],
      "payable": false,
      "stateMutability": "nonpayable",
      "type": "function"
    },
    {
      "constant": false,
      "inputs": [
        {
          "name": "_to",
          "type": "address"
        },
        {
          "name": "_value",
          "type": "uint256"
        }
      ],
      "name": "transferICO",
      "outputs": [
        {
          "name": "",
          "type": "bool"
        }
      ],
      "payable": false,
      "stateMutability": "nonpayable",
      "type": "function"
    },
    {
      "constant": true,
      "inputs": [],
      "name": "totalSupply",
      "outputs": [
        {
          "name": "",
          "type": "uint256"
        }
      ],
      "payable": false,
      "stateMutability": "view",
      "type": "function"
    },
    {
      "constant": false,
      "inputs": [
        {
          "name": "_from",
          "type": "address"
        },
        {
          "name": "_to",
          "type": "address"
        },
        {
          "name": "_value",
          "type": "uint256"
        }
      ],
      "name": "transferFrom",
      "outputs": [],
      "payable": false,
      "stateMutability": "nonpayable",
      "type": "function"
    },
    {
      "constant": true,
      "inputs": [],
      "name": "decimals",
      "outputs": [
        {
          "name": "",
          "type": "uint256"
        }
      ],
      "payable": false,
      "stateMutability": "view",
      "type": "function"
    },
    {
      "constant": true,
      "inputs": [],
      "name": "ico",
      "outputs": [
        {
          "name": "",
          "type": "address"
        }
      ],
      "payable": false,
      "stateMutability": "view",
      "type": "function"
    },
    {
      "constant": true,
      "inputs": [
        {
          "name": "_owner",
          "type": "address"
        }
      ],
      "name": "balanceOf",
      "outputs": [
        {
          "name": "",
          "type": "uint256"
        }
      ],
      "payable": false,
      "stateMutability": "view",
      "type": "function"
    },
    {
      "constant": true,
      "inputs": [],
      "name": "owner",
      "outputs": [
        {
          "name": "",
          "type": "address"
        }
      ],
      "payable": false,
      "stateMutability": "view",
      "type": "function"
    },
    {
      "constant": true,
      "inputs": [],
      "name": "symbol",
      "outputs": [
        {
          "name": "",
          "type": "string"
        }
      ],
      "payable": false,
      "stateMutability": "view",
      "type": "function"
    },
    {
      "constant": false,
      "inputs": [
        {
          "name": "_to",
          "type": "address"
        },
        {
          "name": "_value",
          "type": "uint256"
        }
      ],
      "name": "transfer",
      "outputs": [
        {
          "name": "",
          "type": "bool"
        }
      ],
      "payable": false,
      "stateMutability": "nonpayable",
      "type": "function"
    },
    {
      "constant": true,
      "inputs": [],
      "name": "blocktime",
      "outputs": [
        {
          "name": "",
          "type": "uint256"
        }
      ],
      "payable": false,
      "stateMutability": "view",
      "type": "function"
    },
    {
      "constant": true,
      "inputs": [],
      "name": "OwnerDefined",
      "outputs": [
        {
          "name": "",
          "type": "bool"
        }
      ],
      "payable": false,
      "stateMutability": "view",
      "type": "function"
    },
    {
      "constant": false,
      "inputs": [
        {
          "name": "_blocktime",
          "type": "uint256"
        },
        {
          "name": "_ico",
          "type": "address"
        }
      ],
      "name": "init",
      "outputs": [
        {
          "name": "",
          "type": "bool"
        }
      ],
      "payable": false,
      "stateMutability": "nonpayable",
      "type": "function"
    },
    {
      "constant": true,
      "inputs": [
        {
          "name": "_owner",
          "type": "address"
        },
        {
          "name": "_spender",
          "type": "address"
        }
      ],
      "name": "allowance",
      "outputs": [
        {
          "name": "remaining",
          "type": "uint256"
        }
      ],
      "payable": false,
      "stateMutability": "view",
      "type": "function"
    },
    {
      "constant": true,
      "inputs": [],
      "name": "tokenState",
      "outputs": [
        {
          "name": "",
          "type": "bool"
        }
      ],
      "payable": false,
      "stateMutability": "view",
      "type": "function"
    },
    {
      "constant": false,
      "inputs": [
        {
          "name": "newOwner",
          "type": "address"
        }
      ],
      "name": "transferOwnership",
      "outputs": [],
      "payable": false,
      "stateMutability": "nonpayable",
      "type": "function"
    },
    {
      "anonymous": false,
      "inputs": [
        {
          "indexed": true,
          "name": "from",
          "type": "address"
        },
        {
          "indexed": true,
          "name": "to",
          "type": "address"
        },
        {
          "indexed": false,
          "name": "value",
          "type": "uint256"
        }
      ],
      "name": "Transfer",
      "type": "event"
    },
    {
      "anonymous": false,
      "inputs": [
        {
          "indexed": true,
          "name": "_owner",
          "type": "address"
        },
        {
          "indexed": true,
          "name": "_spender",
          "type": "address"
        },
        {
          "indexed": false,
          "name": "_value",
          "type": "uint256"
        }
      ],
      "name": "Approval",
      "type": "event"
    },
    {
      "anonymous": false,
      "inputs": [
        {
          "indexed": false,
          "name": "_addr",
          "type": "address"
        },
        {
          "indexed": false,
          "name": "action",
          "type": "uint8"
        }
      ],
      "name": "OwnerEvents",
      "type": "event"
    }
  ],
  "bytecode": "0x608060405260008060006101000a81548160ff0219169083151502179055506040805190810160405280600881526020017f44726f704465636b000000000000000000000000000000000000000000000000815250600190805190602001906200006b929190620001bd565b506040805190810160405280600381526020017f444444000000000000000000000000000000000000000000000000000000000081525060029080519060200190620000b9929190620001bd565b50600860035567054607fc96a60000600455600015156000809054906101000a900460ff161515141515620000ed57600080fd5b33600060016101000a81548173ffffffffffffffffffffffffffffffffffffffff021916908373ffffffffffffffffffffffffffffffffffffffff16021790555060016000806101000a81548160ff0219169083151502179055507f63820550ac74c68a3f13b4bbcf8d49ec4839f7d768253bb3446226522a48eceb336001604051808373ffffffffffffffffffffffffffffffffffffffff1673ffffffffffffffffffffffffffffffffffffffff1681526020018260ff1681526020019250505060405180910390a16200026c565b828054600181600116156101000203166002900490600052602060002090601f016020900481019282601f106200020057805160ff191683800117855562000231565b8280016001018555821562000231579182015b828111156200023057825182559160200191906001019062000213565b5b50905062000240919062000244565b5090565b6200026991905b80821115620002655760008160009055506001016200024b565b5090565b90565b6116cf806200027c6000396000f3006080604052600436106100f1576000357c0100000000000000000000000000000000000000000000000000000000900463ffffffff16806306fdde03146100f6578063095ea7b314610186578063144b2a82146101eb57806318160ddd1461025057806323b872dd1461027b578063313ce567146102e85780635d4522011461031357806370a082311461036a5780638da5cb5b146103c157806395d89b4114610418578063a9059cbb146104a8578063a9b12c4c1461050d578063b3bb8d4414610538578063b792e6ec14610567578063dd62ed3e146105cc578063e90dd9e214610643578063f2fde38b14610672575b600080fd5b34801561010257600080fd5b5061010b6106b5565b6040518080602001828103825283818151815260200191508051906020019080838360005b8381101561014b578082015181840152602081019050610130565b50505050905090810190601f1680156101785780820380516001836020036101000a031916815260200191505b509250505060405180910390f35b34801561019257600080fd5b506101d1600480360381019080803573ffffffffffffffffffffffffffffffffffffffff16906020019092919080359060200190929190505050610753565b604051808215151515815260200191505060405180910390f35b3480156101f757600080fd5b50610236600480360381019080803573ffffffffffffffffffffffffffffffffffffffff1690602001909291908035906020019092919050505061090c565b604051808215151515815260200191505060405180910390f35b34801561025c57600080fd5b50610265610c00565b6040518082815260200191505060405180910390f35b34801561028757600080fd5b506102e6600480360381019080803573ffffffffffffffffffffffffffffffffffffffff169060200190929190803573ffffffffffffffffffffffffffffffffffffffff16906020019092919080359060200190929190505050610c06565b005b3480156102f457600080fd5b506102fd610fa3565b6040518082815260200191505060405180910390f35b34801561031f57600080fd5b50610328610fa9565b604051808273ffffffffffffffffffffffffffffffffffffffff1673ffffffffffffffffffffffffffffffffffffffff16815260200191505060405180910390f35b34801561037657600080fd5b506103ab600480360381019080803573ffffffffffffffffffffffffffffffffffffffff169060200190929190505050610fcf565b6040518082815260200191505060405180910390f35b3480156103cd57600080fd5b506103d661103a565b604051808273ffffffffffffffffffffffffffffffffffffffff1673ffffffffffffffffffffffffffffffffffffffff16815260200191505060405180910390f35b34801561042457600080fd5b5061042d611060565b6040518080602001828103825283818151815260200191508051906020019080838360005b8381101561046d578082015181840152602081019050610452565b50505050905090810190601f16801561049a5780820380516001836020036101000a031916815260200191505b509250505060405180910390f35b3480156104b457600080fd5b506104f3600480360381019080803573ffffffffffffffffffffffffffffffffffffffff169060200190929190803590602001909291905050506110fe565b604051808215151515815260200191505060405180910390f35b34801561051957600080fd5b50610522611344565b6040518082815260200191505060405180910390f35b34801561054457600080fd5b5061054d61134a565b604051808215151515815260200191505060405180910390f35b34801561057357600080fd5b506105b260048036038101908080359060200190929190803573ffffffffffffffffffffffffffffffffffffffff16906020019092919050505061135c565b604051808215151515815260200191505060405180910390f35b3480156105d857600080fd5b5061062d600480360381019080803573ffffffffffffffffffffffffffffffffffffffff169060200190929190803573ffffffffffffffffffffffffffffffffffffffff169060200190929190505050611432565b6040518082815260200191505060405180910390f35b34801561064f57600080fd5b506106586114db565b604051808215151515815260200191505060405180910390f35b34801561067e57600080fd5b506106b3600480360381019080803573ffffffffffffffffffffffffffffffffffffffff1690602001909291905050506114ee565b005b60018054600181600116156101000203166002900480601f01602080910402602001604051908101604052809291908181526020018280546001816001161561010002031660029004801561074b5780601f106107205761010080835404028352916020019161074b565b820191906000526020600020905b81548152906001019060200180831161072e57829003601f168201915b505050505081565b600060011515600060159054906101000a900460ff16151514151561077757600080fd5b600073ffffffffffffffffffffffffffffffffffffffff168373ffffffffffffffffffffffffffffffffffffffff16141515156107b357600080fd5b600060019054906101000a900473ffffffffffffffffffffffffffffffffffffffff1673ffffffffffffffffffffffffffffffffffffffff163373ffffffffffffffffffffffffffffffffffffffff1614151561080f57600080fd5b61081d826305f5e100611639565b600860003373ffffffffffffffffffffffffffffffffffffffff1673ffffffffffffffffffffffffffffffffffffffff16815260200190815260200160002060008573ffffffffffffffffffffffffffffffffffffffff1673ffffffffffffffffffffffffffffffffffffffff168152602001908152602001600020819055508273ffffffffffffffffffffffffffffffffffffffff163373ffffffffffffffffffffffffffffffffffffffff167f8c5be1e5ebec7d5bd14f71427d1e84f3dd0314c0f7b2291e5b200ac8c7c3b925846040518082815260200191505060405180910390a36001905092915050565b600060011515600060159054906101000a900460ff16151514151561093057600080fd5b600073ffffffffffffffffffffffffffffffffffffffff168373ffffffffffffffffffffffffffffffffffffffff161415151561096c57600080fd5b600760008060019054906101000a900473ffffffffffffffffffffffffffffffffffffffff1673ffffffffffffffffffffffffffffffffffffffff1673ffffffffffffffffffffffffffffffffffffffff1681526020019081526020016000205482111515156109db57600080fd5b3373ffffffffffffffffffffffffffffffffffffffff16600660009054906101000a900473ffffffffffffffffffffffffffffffffffffffff1673ffffffffffffffffffffffffffffffffffffffff16141515610a3757600080fd5b610aa1600760008060019054906101000a900473ffffffffffffffffffffffffffffffffffffffff1673ffffffffffffffffffffffffffffffffffffffff1673ffffffffffffffffffffffffffffffffffffffff168152602001908152602001600020548361166c565b600760008060019054906101000a900473ffffffffffffffffffffffffffffffffffffffff1673ffffffffffffffffffffffffffffffffffffffff1673ffffffffffffffffffffffffffffffffffffffff16815260200190815260200160002081905550610b4e600760008573ffffffffffffffffffffffffffffffffffffffff1673ffffffffffffffffffffffffffffffffffffffff1681526020019081526020016000205483611685565b600760008573ffffffffffffffffffffffffffffffffffffffff1673ffffffffffffffffffffffffffffffffffffffff168152602001908152602001600020819055508273ffffffffffffffffffffffffffffffffffffffff163373ffffffffffffffffffffffffffffffffffffffff167fddf252ad1be2c89b69c2b068fc378daa952ba7f163c4a11628f55a4df523b3ef846040518082815260200191505060405180910390a36001905092915050565b60045481565b600073ffffffffffffffffffffffffffffffffffffffff168273ffffffffffffffffffffffffffffffffffffffff1614151515610c4257600080fd5b600760008473ffffffffffffffffffffffffffffffffffffffff1673ffffffffffffffffffffffffffffffffffffffff168152602001908152602001600020548111151515610c9057600080fd5b600860008473ffffffffffffffffffffffffffffffffffffffff1673ffffffffffffffffffffffffffffffffffffffff16815260200190815260200160002060003373ffffffffffffffffffffffffffffffffffffffff1673ffffffffffffffffffffffffffffffffffffffff168152602001908152602001600020548111151515610d1b57600080fd5b610d64600760008573ffffffffffffffffffffffffffffffffffffffff1673ffffffffffffffffffffffffffffffffffffffff168152602001908152602001600020548261166c565b600760008573ffffffffffffffffffffffffffffffffffffffff1673ffffffffffffffffffffffffffffffffffffffff16815260200190815260200160002081905550610df0600760008473ffffffffffffffffffffffffffffffffffffffff1673ffffffffffffffffffffffffffffffffffffffff1681526020019081526020016000205482611685565b600760008473ffffffffffffffffffffffffffffffffffffffff1673ffffffffffffffffffffffffffffffffffffffff16815260200190815260200160002081905550610eb9600860008573ffffffffffffffffffffffffffffffffffffffff1673ffffffffffffffffffffffffffffffffffffffff16815260200190815260200160002060003373ffffffffffffffffffffffffffffffffffffffff1673ffffffffffffffffffffffffffffffffffffffff168152602001908152602001600020548261166c565b600860008573ffffffffffffffffffffffffffffffffffffffff1673ffffffffffffffffffffffffffffffffffffffff16815260200190815260200160002060003373ffffffffffffffffffffffffffffffffffffffff1673ffffffffffffffffffffffffffffffffffffffff168152602001908152602001600020819055508173ffffffffffffffffffffffffffffffffffffffff168373ffffffffffffffffffffffffffffffffffffffff167fddf252ad1be2c89b69c2b068fc378daa952ba7f163c4a11628f55a4df523b3ef836040518082815260200191505060405180910390a3505050565b60035481565b600660009054906101000a900473ffffffffffffffffffffffffffffffffffffffff1681565b600060011515600060159054906101000a900460ff161515141515610ff357600080fd5b600760008373ffffffffffffffffffffffffffffffffffffffff1673ffffffffffffffffffffffffffffffffffffffff168152602001908152602001600020549050919050565b600060019054906101000a900473ffffffffffffffffffffffffffffffffffffffff1681565b60028054600181600116156101000203166002900480601f0160208091040260200160405190810160405280929190818152602001828054600181600116156101000203166002900480156110f65780601f106110cb576101008083540402835291602001916110f6565b820191906000526020600020905b8154815290600101906020018083116110d957829003601f168201915b505050505081565b600060011515600060159054906101000a900460ff16151514151561112257600080fd5b600073ffffffffffffffffffffffffffffffffffffffff168373ffffffffffffffffffffffffffffffffffffffff161415151561115e57600080fd5b600760003373ffffffffffffffffffffffffffffffffffffffff1673ffffffffffffffffffffffffffffffffffffffff1681526020019081526020016000205482111515156111ac57600080fd5b60055443101515156111bd57600080fd5b611206600760003373ffffffffffffffffffffffffffffffffffffffff1673ffffffffffffffffffffffffffffffffffffffff168152602001908152602001600020548361166c565b600760003373ffffffffffffffffffffffffffffffffffffffff1673ffffffffffffffffffffffffffffffffffffffff16815260200190815260200160002081905550611292600760008573ffffffffffffffffffffffffffffffffffffffff1673ffffffffffffffffffffffffffffffffffffffff1681526020019081526020016000205483611685565b600760008573ffffffffffffffffffffffffffffffffffffffff1673ffffffffffffffffffffffffffffffffffffffff168152602001908152602001600020819055508273ffffffffffffffffffffffffffffffffffffffff163373ffffffffffffffffffffffffffffffffffffffff167fddf252ad1be2c89b69c2b068fc378daa952ba7f163c4a11628f55a4df523b3ef846040518082815260200191505060405180910390a36001905092915050565b60055481565b6000809054906101000a900460ff1681565b6000801515600060159054906101000a900460ff16151514151561137f57600080fd5b6001600060156101000a81548160ff021916908315150217905550600454600760003373ffffffffffffffffffffffffffffffffffffffff1673ffffffffffffffffffffffffffffffffffffffff168152602001908152602001600020819055508260058190555081600660006101000a81548173ffffffffffffffffffffffffffffffffffffffff021916908373ffffffffffffffffffffffffffffffffffffffff1602179055506001905092915050565b600060011515600060159054906101000a900460ff16151514151561145657600080fd5b600860008473ffffffffffffffffffffffffffffffffffffffff1673ffffffffffffffffffffffffffffffffffffffff16815260200190815260200160002060008373ffffffffffffffffffffffffffffffffffffffff1673ffffffffffffffffffffffffffffffffffffffff16815260200190815260200160002054905092915050565b600060159054906101000a900460ff1681565b600060019054906101000a900473ffffffffffffffffffffffffffffffffffffffff1673ffffffffffffffffffffffffffffffffffffffff163373ffffffffffffffffffffffffffffffffffffffff1614151561154a57600080fd5b600073ffffffffffffffffffffffffffffffffffffffff168173ffffffffffffffffffffffffffffffffffffffff161415151561158657600080fd5b80600060016101000a81548173ffffffffffffffffffffffffffffffffffffffff021916908373ffffffffffffffffffffffffffffffffffffffff1602179055507f63820550ac74c68a3f13b4bbcf8d49ec4839f7d768253bb3446226522a48eceb336002604051808373ffffffffffffffffffffffffffffffffffffffff1673ffffffffffffffffffffffffffffffffffffffff1681526020018260ff1681526020019250505060405180910390a150565b6000808284029050600084148061165a575082848281151561165757fe5b04145b151561166257fe5b8091505092915050565b600082821115151561167a57fe5b818303905092915050565b600080828401905083811015151561169957fe5b80915050929150505600a165627a7a72305820929d4f6f7ac6896f8351032b026a49009de1e799a1a7cec7b17fb1f2b8ea29c40029",
  "source": "\n\n\n\n\ncontract SafeMath {\n\n    \n    \n    \n    \n    function mul(uint256 a, uint256 b) internal  returns (uint256) {\n        uint256 c = a * b;\n        assert(a == 0 || c / a == b);\n        return c;\n    }\n\n    \n    \n    \n    \n    function div(uint256 a, uint256 b) internal  returns (uint256) {\n        assert(b > 0);\n        uint256 c = a / b;\n        return c;\n    }\n\n    \n    \n    \n    function sub(uint256 a, uint256 b) internal   returns (uint256) {\n        assert(b <= a);\n        return a - b;\n    }\n\n    \n    \n    \n    function add(uint256 a, uint256 b) internal  returns (uint256) {\n        uint256 c = a + b;\n        assert(c >= a);\n        return c;\n    }\n\n    \n    \n    \n    function pow( uint256 a , uint8 b ) internal returns ( uint256 ){\n        uint256 c;\n        c = a ** b;\n        return c;\n    }\n}\n\ncontract owned {\n\n    bool public OwnerDefined = false;\n    address public owner;\n    event OwnerEvents(address _addr, uint8 action);\n\n    \n    function owned()\n        internal\n    {\n        require(OwnerDefined == false);\n        owner = msg.sender;\n        OwnerDefined = true;\n        OwnerEvents(msg.sender,1);\n    }\n\n    \n    \n    function transferOwnership( address newOwner )\n        external\n    {\n        require(msg.sender == owner);\n        require(newOwner != address(0));\n        owner = newOwner;\n        OwnerEvents(msg.sender,2);\n    }\n}\n\ncontract ERC20Token is owned, SafeMath{\n\n    \n    bool public tokenState;\n    string public name = \"DropDeck\";\n    string public symbol = \"DDD\";\n    uint256 public decimals = 8;\n    uint256 public totalSupply = 380000000000000000;\n    uint256 public blocktime;\n    address public ico;\n\n    mapping(address => uint256) balances;\n    mapping (address => mapping (address => uint256)) allowed;\n\n    event Transfer(address indexed from, address indexed to, uint256 value);\n    event Approval(address indexed _owner, address indexed _spender, uint256 _value);\n\n    \n    \n    \n    \n    \n    function init( uint256 _blocktime,address _ico)\n        external\n    returns ( bool ){\n        require(tokenState == false);\n        owned;\n        tokenState = true;\n        balances[msg.sender] = totalSupply;\n        blocktime = _blocktime;\n        ico = _ico;\n        return true;\n    }\n\n    \n    \n    \n    function transfer(address _to, uint256 _value)\n        public\n    returns ( bool ) {\n        require(tokenState == true);\n        require(_to != address(0));\n        require(_value <= balances[msg.sender]);\n        require(block.number >= blocktime);\n        balances[msg.sender] = sub(balances[msg.sender],_value);\n        balances[_to] = add(balances[_to],_value);\n        Transfer(msg.sender, _to, _value);\n        return true;\n    }\n    \n    \n    \n    \n    function transferFrom(address _from, address _to, uint256 _value)\n        public\n    {\n        require(_to != address(0));\n        require(_value <= balances[_from]);\n        require(_value <= allowed[_from][msg.sender]);\n\n        balances[_from] = sub(balances[_from],_value);\n        balances[_to] = add(balances[_to],_value);\n        allowed[_from][msg.sender] = sub(allowed[_from][msg.sender],_value);\n        Transfer(_from, _to, _value);\n\n    }\n\n    \n    \n    \n    function transferICO(address _to, uint256 _value)\n        public\n    returns ( bool ) {\n        require(tokenState == true);\n        require(_to != address(0));\n        require(_value <= balances[owner]);\n        require(ico == msg.sender);\n        balances[owner] = sub(balances[owner],_value);\n        balances[_to] = add(balances[_to],_value);\n        Transfer(msg.sender, _to, _value);\n        return true;\n    }\n\n    \n    \n    function balanceOf(address _owner)\n        external\n        constant\n    returns (uint256) {\n        require(tokenState == true);\n        return balances[_owner];\n    }\n\n    \n    \n    \n    function approve(address _spender, uint256 _value)\n        external\n    returns (bool success) {\n        require(tokenState == true);\n        require(_spender != address(0));\n        require(msg.sender == owner);\n        allowed[msg.sender][_spender] = mul(_value, 100000000);\n        Approval(msg.sender, _spender, _value);\n        return true;\n    }\n\n    \n    \n    \n    function allowance(address _owner, address _spender)\n        external\n        constant\n    returns (uint256 remaining) {\n        require(tokenState == true);\n        return allowed[_owner][_spender];\n    }\n}\ncontract tokenContract is ERC20Token{\n\n}\n\ncontract DDDico is SafeMath {\n\n    tokenContract token;\n\n    bool public state;\n\n    address public wallet;\n    address public tokenAddress;\n    address public owner;\n\n    uint256 public weiRaised;\n    uint256 public hardCap;\n    uint256 public tokenSale;\n    uint256 public tokenLeft;\n    uint256 public applicableRate;\n    uint256 weiAmount;\n    uint256 tok;\n\n    uint256 public block0 = 4644650;\n    uint256 public block1 = 4644890;\n    uint256 public block2 = 4650650;\n    uint256 public block3 = 4690970;\n    uint256 public block4 = 4731290;\n    uint256 public block5 = 4771610;\n    uint256 public block6 = 4811930;\n\n    event TokenPurchase(address indexed purchaser, address indexed beneficiary, uint256 value, uint256 amount);\n\n    \n    \n    \n    \n    function DDDico( address _wallet, address _token , uint256 _hardCap, uint256 _tokenSale ) {\n        require(_wallet != address(0));\n        state = true;\n        owner = msg.sender;\n        wallet = _wallet;\n        tokenAddress = _token;\n        token = tokenContract(tokenAddress);\n        hardCap = mul(_hardCap,pow(10,16));\n        tokenSale = mul(_tokenSale,pow(10,8));\n        tokenLeft = tokenSale;\n    }\n\n    \n    function () payable {\n        buyTokens();\n    }\n\n    \n    function buyTokens() public payable {\n        require(validPurchase());\n        weiAmount               = 0;\n        tok                     = 0;\n        weiAmount               = msg.value;\n        tok                     = div(mul(weiAmount,fetchRate()),pow(10,16));\n        weiRaised               = add(weiRaised,weiAmount);\n        tokenLeft               = sub(tokenLeft,tok);\n        token.transferICO(msg.sender,tok);\n        TokenPurchase(msg.sender, msg.sender, weiAmount, tok);\n        forwardFunds();\n    }\n\n    \n    function forwardFunds() internal {\n        wallet.transfer(msg.value);\n    }\n\n    \n    function validPurchase() internal constant returns (bool) {\n        bool withinPeriod = block.number >= block0 && block.number <= block6;\n        bool nonZeroPurchase = msg.value != 0;\n        bool cap = weiRaised <= hardCap;\n        return withinPeriod && nonZeroPurchase && cap;\n    }\n\n    \n    function fetchRate() constant returns (uint256){\n        if( block0 <= block.number && block1 > block.number ){\n            applicableRate = 18700000000;\n            return applicableRate;\n        }\n        if ( block1 <= block.number && block2 > block.number ){\n            applicableRate = 16700000000;\n            return applicableRate;\n        }\n        if ( block2 <= block.number && block3 > block.number ){\n            applicableRate = 15000000000;\n            return applicableRate;\n        }\n        if ( block3 <= block.number && block4 > block.number ){\n            applicableRate = 13600000000;\n            return applicableRate;\n        }\n        if ( block4 <= block.number && block5 > block.number ){\n            applicableRate = 12500000000;\n            return applicableRate;\n        }\n        if ( block5 <= block.number && block6 > block.number ){\n            applicableRate = 11500000000;\n            return applicableRate;\n        }\n    }\n\n    \n    function hasEnded() public constant returns (bool)\n    {\n        return block.number > block6;\n    }\n}",
  "sourcePath": "/home/XXX-1/smartrim-experiment/for-rlf/0x76e7da54f22728f7f5afa35f974419ae9f41ba94/contracts/0x76e7da54f22728f7f5afa35f974419ae9f41ba94.sol",
  "compiler": {
    "name": "solc",
    "version": "0.4.25+commit.59dbf8f1.Emscripten.clang"
  },
  "schemaVersion": "3.4.16",
  "updatedAt": "2025-08-14T03:57:58.789Z",
  "networkType": "ethereum",
  "devdoc": {
    "methods": {}
  },
  "userdoc": {
    "methods": {}
  }
}