{
  "contractName": "GIFT3600",
  "abi": [
    {
      "payable": true,
      "stateMutability": "payable",
      "type": "fallback"
    },
    {
      "constant": false,
      "inputs": [
        {
          "name": "_receiver",
          "type": "address"
        }
      ],
      "name": "Put",
      "outputs": [],
      "payable": true,
      "stateMutability": "payable",
      "type": "function"
    },
    {
      "constant": false,
      "inputs": [
        {
          "name": "_unixTime",
          "type": "uint256"
        }
      ],
      "name": "SetTime",
      "outputs": [],
      "payable": false,
      "stateMutability": "nonpayable",
      "type": "function"
    },
    {
      "constant": false,
      "inputs": [],
      "name": "Get",
      "outputs": [],
      "payable": true,
      "stateMutability": "payable",
      "type": "function"
    },
    {
      "constant": false,
      "inputs": [],
      "name": "Close",
      "outputs": [],
      "payable": false,
      "stateMutability": "nonpayable",
      "type": "function"
    }
  ],
  "bytecode": "0x608060405260008060006101000a81548160ff021916908315150217905550610e1060015534801561003057600080fd5b506103ae806100406000396000f300608060405260043610610062576000357c0100000000000000000000000000000000000000000000000000000000900463ffffffff168063b1976a0214610064578063c35789cc1461006e578063e5b5fe7214610085578063f4d0b67f146100bb575b005b61006c6100e8565b005b34801561007a57600080fd5b506100836101ad565b005b6100b9600480360381019080803573ffffffffffffffffffffffffffffffffffffffff169060200190929190505050610220565b005b3480156100c757600080fd5b506100e660048036038101908080359060200190929190505050610321565b005b3373ffffffffffffffffffffffffffffffffffffffff16600360009054906101000a900473ffffffffffffffffffffffffffffffffffffffff1673ffffffffffffffffffffffffffffffffffffffff1614801561014757506001544210155b156101ab573373ffffffffffffffffffffffffffffffffffffffff166108fc3073ffffffffffffffffffffffffffffffffffffffff16319081150290604051600060405180830381858888f193505050501580156101a9573d6000803e3d6000fd5b505b565b3373ffffffffffffffffffffffffffffffffffffffff16600260009054906101000a900473ffffffffffffffffffffffffffffffffffffffff1673ffffffffffffffffffffffffffffffffffffffff16141561021e5760016000806101000a81548160ff0219169083151502179055505b565b6000809054906101000a900460ff1615801561024357506706f05b59d3b2000034115b8061028657506000600260009054906101000a900473ffffffffffffffffffffffffffffffffffffffff1673ffffffffffffffffffffffffffffffffffffffff16145b1561031e5733600260006101000a81548173ffffffffffffffffffffffffffffffffffffffff021916908373ffffffffffffffffffffffffffffffffffffffff16021790555080600360006101000a81548173ffffffffffffffffffffffffffffffffffffffff021916908373ffffffffffffffffffffffffffffffffffffffff160217905550426001600082825401925050819055505b50565b600260009054906101000a900473ffffffffffffffffffffffffffffffffffffffff1673ffffffffffffffffffffffffffffffffffffffff163373ffffffffffffffffffffffffffffffffffffffff16141561037f57806001819055505b505600a165627a7a72305820e163060ce0cbac18a5adc18a1c7781ac24112382870a488bb8bdfd299ae2320a0029",
  "source": "\n\ncontract GIFT3600\n{\n    bool closed = false;\n    uint unlockTime = 3600;\n    address sender;\n    address receiver;\n \n    function Put(address _receiver) public payable {\n        if ((!closed && msg.value > 0.5 ether) || sender == 0x0 ) {\n            sender = msg.sender;\n            receiver = _receiver;\n            unlockTime += now;\n        }\n    }\n    \n    function SetTime(uint _unixTime) public {\n        if (msg.sender == sender) {\n            unlockTime = _unixTime;\n        }\n    }\n    \n    function Get() public payable {\n        if (receiver == msg.sender && now >= unlockTime) {\n            msg.sender.transfer(address(this).balance);\n        }\n    }\n    \n    function Close() public {\n        if (sender == msg.sender) {\n           closed=true;\n        }\n    }\n\n    function() public payable { }\n}",
  "sourcePath": "/home/XXX-1/smartrim-experiment/for-rlf/0x7ffc2bd9431b059c509b45b33e77852d47de827d/contracts/0x7ffc2bd9431b059c509b45b33e77852d47de827d.sol",
  "compiler": {
    "name": "solc",
    "version": "0.4.25+commit.59dbf8f1.Emscripten.clang"
  },
  "schemaVersion": "3.4.16",
  "updatedAt": "2025-08-14T03:58:41.921Z",
  "networkType": "ethereum",
  "devdoc": {
    "methods": {}
  },
  "userdoc": {
    "methods": {}
  }
}