{
  "contractName": "LastManStanding",
  "abi": [
    {
      "inputs": [],
      "payable": false,
      "stateMutability": "nonpayable",
      "type": "constructor"
    },
    {
      "payable": true,
      "stateMutability": "payable",
      "type": "fallback"
    },
    {
      "constant": false,
      "inputs": [],
      "name": "mineIsBigger",
      "outputs": [],
      "payable": true,
      "stateMutability": "payable",
      "type": "function"
    },
    {
      "constant": false,
      "inputs": [],
      "name": "withdraw",
      "outputs": [],
      "payable": false,
      "stateMutability": "nonpayable",
      "type": "function"
    }
  ],
  "bytecode": "0x608060405234801561001057600080fd5b5033600160006101000a81548173ffffffffffffffffffffffffffffffffffffffff021916908373ffffffffffffffffffffffffffffffffffffffff1602179055506101dd806100616000396000f30060806040526004361061004c576000357c0100000000000000000000000000000000000000000000000000000000900463ffffffff1680633ccfd60b14610056578063bf91cbb51461006d575b610054610077565b005b34801561006257600080fd5b5061006b6100e1565b005b610075610077565b005b3073ffffffffffffffffffffffffffffffffffffffff16313411156100df5733600160006101000a81548173ffffffffffffffffffffffffffffffffffffffff021916908373ffffffffffffffffffffffffffffffffffffffff160217905550426000819055505b565b600160009054906101000a900473ffffffffffffffffffffffffffffffffffffffff1673ffffffffffffffffffffffffffffffffffffffff163373ffffffffffffffffffffffffffffffffffffffff1614151561013d57600080fd5b614650600054014211151561015157600080fd5b3373ffffffffffffffffffffffffffffffffffffffff166108fc3073ffffffffffffffffffffffffffffffffffffffff16319081150290604051600060405180830381858888f193505050501580156101ae573d6000803e3d6000fd5b505600a165627a7a723058209be03e9801296082cd728c756f4e09e0ad35832fc0291b50565adf13e25f74f80029",
  "source": "\n\n\ncontract LastManStanding {\n\n    uint lastBlock;\n    address owner;\n    modifier onlyowner {\n        require (msg.sender == owner);\n        _;\n    }\n\n    function LastManStanding() public {\n        owner = msg.sender;\n    }\n\n    function () public payable {\n        mineIsBigger();\n    }\n\n    function mineIsBigger() public payable {\n        if (msg.value > this.balance) {\n            owner = msg.sender;\n            lastBlock = now;\n        }\n    }\n\n    function withdraw() public onlyowner {\n        \n        \n        require(now > lastBlock + 5 hours);\n        msg.sender.transfer(this.balance);\n    }\n   \n}",
  "sourcePath": "/home/XXX-1/smartrim-experiment/for-rlf/0xe952cbf5c1480032537c57874de3e949203ed623/contracts/0xe952cbf5c1480032537c57874de3e949203ed623.sol",
  "compiler": {
    "name": "solc",
    "version": "0.4.25+commit.59dbf8f1.Emscripten.clang"
  },
  "schemaVersion": "3.4.16",
  "updatedAt": "2025-08-14T04:09:34.249Z",
  "networkType": "ethereum",
  "devdoc": {
    "methods": {}
  },
  "userdoc": {
    "methods": {}
  }
}