{
  "contractName": "MarketboardERC20Listing_1",
  "abi": [
    {
      "constant": true,
      "inputs": [],
      "name": "feeFixed",
      "outputs": [
        {
          "name": "",
          "type": "uint256"
        }
      ],
      "payable": false,
      "stateMutability": "view",
      "type": "function"
    },
    {
      "constant": true,
      "inputs": [],
      "name": "tokenContract",
      "outputs": [
        {
          "name": "",
          "type": "address"
        }
      ],
      "payable": false,
      "stateMutability": "view",
      "type": "function"
    },
    {
      "constant": true,
      "inputs": [],
      "name": "tokenPrice",
      "outputs": [
        {
          "name": "",
          "type": "uint256"
        }
      ],
      "payable": false,
      "stateMutability": "view",
      "type": "function"
    },
    {
      "constant": true,
      "inputs": [],
      "name": "feePercentage",
      "outputs": [
        {
          "name": "",
          "type": "uint32"
        }
      ],
      "payable": false,
      "stateMutability": "view",
      "type": "function"
    },
    {
      "constant": true,
      "inputs": [],
      "name": "feePercentageMax",
      "outputs": [
        {
          "name": "",
          "type": "uint32"
        }
      ],
      "payable": false,
      "stateMutability": "view",
      "type": "function"
    },
    {
      "inputs": [
        {
          "name": "_moderator",
          "type": "address"
        },
        {
          "name": "_feeFixed",
          "type": "uint256"
        },
        {
          "name": "_feePercentage",
          "type": "uint32"
        },
        {
          "name": "_erc20Token",
          "type": "address"
        },
        {
          "name": "_tokenPrice",
          "type": "uint256"
        }
      ],
      "payable": false,
      "stateMutability": "nonpayable",
      "type": "constructor"
    },
    {
      "anonymous": false,
      "inputs": [
        {
          "indexed": true,
          "name": "tokenContract",
          "type": "address"
        },
        {
          "indexed": false,
          "name": "numTokensSold",
          "type": "uint256"
        },
        {
          "indexed": false,
          "name": "totalEtherPrice",
          "type": "uint256"
        },
        {
          "indexed": false,
          "name": "fee",
          "type": "uint256"
        },
        {
          "indexed": false,
          "name": "pricePerToken",
          "type": "uint256"
        }
      ],
      "name": "MarketboardListingComplete",
      "type": "event"
    },
    {
      "anonymous": false,
      "inputs": [
        {
          "indexed": true,
          "name": "tokenContract",
          "type": "address"
        },
        {
          "indexed": false,
          "name": "numTokens",
          "type": "uint256"
        }
      ],
      "name": "MarketboardListingBuyback",
      "type": "event"
    },
    {
      "anonymous": false,
      "inputs": [],
      "name": "MarketboardListingDestroyed",
      "type": "event"
    },
    {
      "anonymous": false,
      "inputs": [
        {
          "indexed": false,
          "name": "oldPricePerToken",
          "type": "uint256"
        },
        {
          "indexed": false,
          "name": "newPricePerToken",
          "type": "uint256"
        }
      ],
      "name": "MarketboardListingPriceChanged",
      "type": "event"
    },
    {
      "constant": true,
      "inputs": [],
      "name": "_version",
      "outputs": [
        {
          "name": "",
          "type": "uint32"
        }
      ],
      "payable": false,
      "stateMutability": "pure",
      "type": "function"
    },
    {
      "constant": true,
      "inputs": [],
      "name": "tokenCount",
      "outputs": [
        {
          "name": "",
          "type": "uint256"
        }
      ],
      "payable": false,
      "stateMutability": "view",
      "type": "function"
    },
    {
      "constant": true,
      "inputs": [],
      "name": "tokenBase",
      "outputs": [
        {
          "name": "",
          "type": "uint256"
        }
      ],
      "payable": false,
      "stateMutability": "view",
      "type": "function"
    },
    {
      "constant": true,
      "inputs": [],
      "name": "totalPrice",
      "outputs": [
        {
          "name": "",
          "type": "uint256"
        }
      ],
      "payable": false,
      "stateMutability": "view",
      "type": "function"
    },
    {
      "constant": true,
      "inputs": [],
      "name": "fee",
      "outputs": [
        {
          "name": "",
          "type": "uint256"
        }
      ],
      "payable": false,
      "stateMutability": "view",
      "type": "function"
    },
    {
      "constant": false,
      "inputs": [
        {
          "name": "newTokenPrice",
          "type": "uint256"
        }
      ],
      "name": "setPrice",
      "outputs": [],
      "payable": false,
      "stateMutability": "nonpayable",
      "type": "function"
    },
    {
      "constant": false,
      "inputs": [
        {
          "name": "recipient",
          "type": "address"
        }
      ],
      "name": "buyback",
      "outputs": [],
      "payable": false,
      "stateMutability": "nonpayable",
      "type": "function"
    },
    {
      "constant": false,
      "inputs": [
        {
          "name": "recipient",
          "type": "address"
        }
      ],
      "name": "purchase",
      "outputs": [],
      "payable": true,
      "stateMutability": "payable",
      "type": "function"
    },
    {
      "constant": false,
      "inputs": [
        {
          "name": "unrelatedTokenContract",
          "type": "address"
        },
        {
          "name": "recipient",
          "type": "address"
        }
      ],
      "name": "claimUnrelatedTokens",
      "outputs": [],
      "payable": false,
      "stateMutability": "nonpayable",
      "type": "function"
    }
  ],
  "bytecode": "0x60806040526000805534801561001457600080fd5b5060405160a0806112c8833981018060405281019080805190602001909291908051906020019092919080519060200190929190805190602001909291908051906020019092919050505033600360006101000a81548173ffffffffffffffffffffffffffffffffffffffff021916908373ffffffffffffffffffffffffffffffffffffffff16021790555084600260006101000a81548173ffffffffffffffffffffffffffffffffffffffff021916908373ffffffffffffffffffffffffffffffffffffffff1602179055508360048190555082600560006101000a81548163ffffffff021916908363ffffffff16021790555081600160006101000a81548173ffffffffffffffffffffffffffffffffffffffff021916908373ffffffffffffffffffffffffffffffffffffffff160217905550806000819055505050505050611163806101656000396000f3006080604052600436106100d0576000357c0100000000000000000000000000000000000000000000000000000000900463ffffffff1680630e3d2202146100d557806325b31a97146101005780633e118dbe1461013657806355a373d61461016d5780637ff9b596146101c457806391b7f5ed146101ef5780639f181b5e1461021c578063a001ecdd14610247578063ab0d92dd1461027e578063b61daaee146102a9578063bb0c8893146102d4578063ddca3f4314610337578063e09ee57f14610362578063fb3e6f2914610399575b600080fd5b3480156100e157600080fd5b506100ea6103dc565b6040518082815260200191505060405180910390f35b610134600480360381019080803573ffffffffffffffffffffffffffffffffffffffff1690602001909291905050506103e2565b005b34801561014257600080fd5b5061014b61072e565b604051808263ffffffff1663ffffffff16815260200191505060405180910390f35b34801561017957600080fd5b50610182610737565b604051808273ffffffffffffffffffffffffffffffffffffffff1673ffffffffffffffffffffffffffffffffffffffff16815260200191505060405180910390f35b3480156101d057600080fd5b506101d961075d565b6040518082815260200191505060405180910390f35b3480156101fb57600080fd5b5061021a60048036038101908080359060200190929190505050610763565b005b34801561022857600080fd5b50610231610868565b6040518082815260200191505060405180910390f35b34801561025357600080fd5b5061025c61096c565b604051808263ffffffff1663ffffffff16815260200191505060405180910390f35b34801561028a57600080fd5b50610293610982565b6040518082815260200191505060405180910390f35b3480156102b557600080fd5b506102be6109b0565b6040518082815260200191505060405180910390f35b3480156102e057600080fd5b50610335600480360381019080803573ffffffffffffffffffffffffffffffffffffffff169060200190929190803573ffffffffffffffffffffffffffffffffffffffff169060200190929190505050610a89565b005b34801561034357600080fd5b5061034c610d5d565b6040518082815260200191505060405180910390f35b34801561036e57600080fd5b50610377610db9565b604051808263ffffffff1663ffffffff16815260200191505060405180910390f35b3480156103a557600080fd5b506103da600480360381019080803573ffffffffffffffffffffffffffffffffffffffff169060200190929190505050610dc0565b005b60045481565b60008060006103ef610982565b34101515156103fd57600080fd5b600160009054906101000a900473ffffffffffffffffffffffffffffffffffffffff1673ffffffffffffffffffffffffffffffffffffffff167f11e384689c764e3b8702126d30fe779755eccf00b76ea2f5a41d20d4b2d6f0b68334610461610d5d565b6000546040518085815260200184815260200183815260200182815260200194505050505060405180910390a2600160009054906101000a900473ffffffffffffffffffffffffffffffffffffffff1692508273ffffffffffffffffffffffffffffffffffffffff166370a08231306040518263ffffffff167c0100000000000000000000000000000000000000000000000000000000028152600401808273ffffffffffffffffffffffffffffffffffffffff1673ffffffffffffffffffffffffffffffffffffffff168152602001915050602060405180830381600087803b15801561054e57600080fd5b505af1158015610562573d6000803e3d6000fd5b505050506040513d602081101561057857600080fd5b810190808051906020019092919050505091508273ffffffffffffffffffffffffffffffffffffffff1663a9059cbb85846040518363ffffffff167c0100000000000000000000000000000000000000000000000000000000028152600401808373ffffffffffffffffffffffffffffffffffffffff1673ffffffffffffffffffffffffffffffffffffffff16815260200182815260200192505050602060405180830381600087803b15801561062e57600080fd5b505af1158015610642573d6000803e3d6000fd5b505050506040513d602081101561065857600080fd5b8101908080519060200190929190505050506106726109b0565b826000540281151561068057fe5b04905060008111151561069257600080fd5b3073ffffffffffffffffffffffffffffffffffffffff1631811015156106b757600080fd5b600360009054906101000a900473ffffffffffffffffffffffffffffffffffffffff1673ffffffffffffffffffffffffffffffffffffffff166108fc829081150290604051600060405180830381858888f1935050505015801561071f573d6000803e3d6000fd5b506107286110d0565b50505050565b60006002905090565b600160009054906101000a900473ffffffffffffffffffffffffffffffffffffffff1681565b60005481565b60003373ffffffffffffffffffffffffffffffffffffffff16600260009054906101000a900473ffffffffffffffffffffffffffffffffffffffff1673ffffffffffffffffffffffffffffffffffffffff16148061080e57503373ffffffffffffffffffffffffffffffffffffffff16600360009054906101000a900473ffffffffffffffffffffffffffffffffffffffff1673ffffffffffffffffffffffffffffffffffffffff16145b151561081957600080fd5b6000549050816000819055507f4c7cfd9b63bf4be98096fab331111c07c9c0fd07c0e9b26542e07950e37e1a738183604051808381526020018281526020019250505060405180910390a15050565b600080600160009054906101000a900473ffffffffffffffffffffffffffffffffffffffff1690508073ffffffffffffffffffffffffffffffffffffffff166370a08231306040518263ffffffff167c0100000000000000000000000000000000000000000000000000000000028152600401808273ffffffffffffffffffffffffffffffffffffffff1673ffffffffffffffffffffffffffffffffffffffff168152602001915050602060405180830381600087803b15801561092b57600080fd5b505af115801561093f573d6000803e3d6000fd5b505050506040513d602081101561095557600080fd5b810190808051906020019092919050505091505090565b600560009054906101000a900463ffffffff1681565b600061098c610d5d565b6109946109b0565b61099c610868565b600054028115156109a957fe5b0401905090565b6000806000600160009054906101000a900473ffffffffffffffffffffffffffffffffffffffff1691508173ffffffffffffffffffffffffffffffffffffffff1663313ce5676040518163ffffffff167c0100000000000000000000000000000000000000000000000000000000028152600401602060405180830381600087803b158015610a3e57600080fd5b505af1158015610a52573d6000803e3d6000fd5b505050506040513d6020811015610a6857600080fd5b810190808051906020019092919050505060ff16905080600a0a9250505090565b6000803373ffffffffffffffffffffffffffffffffffffffff16600260009054906101000a900473ffffffffffffffffffffffffffffffffffffffff1673ffffffffffffffffffffffffffffffffffffffff161480610b3557503373ffffffffffffffffffffffffffffffffffffffff16600360009054906101000a900473ffffffffffffffffffffffffffffffffffffffff1673ffffffffffffffffffffffffffffffffffffffff16145b1515610b4057600080fd5b8373ffffffffffffffffffffffffffffffffffffffff16600160009054906101000a900473ffffffffffffffffffffffffffffffffffffffff1673ffffffffffffffffffffffffffffffffffffffff1614151515610b9d57600080fd5b8391508173ffffffffffffffffffffffffffffffffffffffff166370a08231306040518263ffffffff167c0100000000000000000000000000000000000000000000000000000000028152600401808273ffffffffffffffffffffffffffffffffffffffff1673ffffffffffffffffffffffffffffffffffffffff168152602001915050602060405180830381600087803b158015610c3b57600080fd5b505af1158015610c4f573d6000803e3d6000fd5b505050506040513d6020811015610c6557600080fd5b810190808051906020019092919050505090508173ffffffffffffffffffffffffffffffffffffffff1663a9059cbb84836040518363ffffffff167c0100000000000000000000000000000000000000000000000000000000028152600401808373ffffffffffffffffffffffffffffffffffffffff1673ffffffffffffffffffffffffffffffffffffffff16815260200182815260200192505050602060405180830381600087803b158015610d1b57600080fd5b505af1158015610d2f573d6000803e3d6000fd5b505050506040513d6020811015610d4557600080fd5b81019080805190602001909291905050505050505050565b600080610d686109b0565b610d70610868565b60005402811515610d7d57fe5b049050600454620186a063ffffffff16600560009054906101000a900463ffffffff1663ffffffff168302811515610db157fe5b040191505090565b620186a081565b6000803373ffffffffffffffffffffffffffffffffffffffff16600260009054906101000a900473ffffffffffffffffffffffffffffffffffffffff1673ffffffffffffffffffffffffffffffffffffffff161480610e6c57503373ffffffffffffffffffffffffffffffffffffffff16600360009054906101000a900473ffffffffffffffffffffffffffffffffffffffff1673ffffffffffffffffffffffffffffffffffffffff16145b1515610e7757600080fd5b600160009054906101000a900473ffffffffffffffffffffffffffffffffffffffff1691508173ffffffffffffffffffffffffffffffffffffffff166370a08231306040518263ffffffff167c0100000000000000000000000000000000000000000000000000000000028152600401808273ffffffffffffffffffffffffffffffffffffffff1673ffffffffffffffffffffffffffffffffffffffff168152602001915050602060405180830381600087803b158015610f3757600080fd5b505af1158015610f4b573d6000803e3d6000fd5b505050506040513d6020811015610f6157600080fd5b810190808051906020019092919050505090508173ffffffffffffffffffffffffffffffffffffffff1663a9059cbb84836040518363ffffffff167c0100000000000000000000000000000000000000000000000000000000028152600401808373ffffffffffffffffffffffffffffffffffffffff1673ffffffffffffffffffffffffffffffffffffffff16815260200182815260200192505050602060405180830381600087803b15801561101757600080fd5b505af115801561102b573d6000803e3d6000fd5b505050506040513d602081101561104157600080fd5b810190808051906020019092919050505050600160009054906101000a900473ffffffffffffffffffffffffffffffffffffffff1673ffffffffffffffffffffffffffffffffffffffff167ff9b7fb56ded16557f3429b2a944bf7a4be8848b8e77e4dae98ac45bcfdf5576c826040518082815260200191505060405180910390a26110cb6110d0565b505050565b7f7049a4251c05a5b826f07be4412618f9cdfb888860f6bdfd844051f55eca3e9a60405160405180910390a1600260009054906101000a900473ffffffffffffffffffffffffffffffffffffffff1673ffffffffffffffffffffffffffffffffffffffff16ff00a165627a7a72305820d31541b426148568fe54ce09c18ef5f27b9977638a18784b2c43491a61bf735c0029",
  "source": "\n\n\n\n\n\ncontract ERC20 {\n    function totalSupply() public constant returns (uint);\n    function balanceOf(address tokenOwner) public constant returns (uint balance);\n    function allowance(address tokenOwner, address spender) public constant returns (uint remaining);\n    function transfer(address to, uint tokens) public returns (bool success);\n    function approve(address spender, uint tokens) public returns (bool success);\n    function transferFrom(address from, address to, uint tokens) public returns (bool success);\n\n    event Transfer(address indexed from, address indexed to, uint tokens);\n    event Approval(address indexed tokenOwner, address indexed spender, uint tokens);\n\n    string public constant name = \"Token Name\";\n    string public constant symbol = \"SYM\";\n    uint8 public constant decimals = 18;  \n\n}\n\n\ncontract MarketboardERC20Listing_1 {\n\n    \n    function _version() pure public returns(uint32) {\n        return 2;\n    }\n\n    \n    event MarketboardListingComplete(address indexed tokenContract, uint256 numTokensSold, uint256 totalEtherPrice, uint256 fee, uint256 pricePerToken);\n\n    \n    event MarketboardListingBuyback(address indexed tokenContract, uint256 numTokens);\n\n\t\n\tevent MarketboardListingDestroyed();\n\n    \n    event MarketboardListingPriceChanged(uint256 oldPricePerToken, uint256 newPricePerToken);\n\n\n    \n    modifier moderatorOnly {\n        require(msg.sender == moderator);\n        _;\n    }\n\n    \n    modifier moderatorOrSellerOnly {\n        require(moderator == msg.sender || seller == msg.sender);\n        _;\n    }\n\n    \n\tuint256 public tokenPrice = 0;\n\n    \n    address public tokenContract;\n\n    \n    address moderator;\n\n    \n    address seller;\n\n    \n    \n    uint256 public feeFixed;\n\n    \n    \n    uint32 public feePercentage;\n\tuint32 constant public feePercentageMax = 100000;\n\n    \n    function MarketboardERC20Listing_1(address _moderator, uint256 _feeFixed, uint32 _feePercentage, address _erc20Token, uint256 _tokenPrice) public {\n\n        \n        seller = msg.sender;\n        moderator = _moderator;\n        feeFixed = _feeFixed;\n        feePercentage = _feePercentage;\n        tokenContract = _erc20Token;\n        tokenPrice = _tokenPrice;\n\n    }\n\n    \n    function tokenCount() public view returns(uint256) {\n\n        \n        ERC20 erc = ERC20(tokenContract);\n        return erc.balanceOf(this);\n\n    }\n\n    \n    function tokenBase() public view returns(uint256) {\n\n        \n        ERC20 erc = ERC20(tokenContract);\n        uint256 decimals = erc.decimals();\n        return 10 ** decimals;\n\n    }\n\n    \n    function totalPrice() public view returns(uint256) {\n\n        \n        return tokenPrice * tokenCount() / tokenBase() + fee();\n\n    }\n\n    \n    function fee() public view returns(uint256) {\n\n        \n        uint256 price = tokenPrice * tokenCount() / tokenBase();\n\n        \n        return price * feePercentage / feePercentageMax + feeFixed;\n\n    }\n\n    \n    function setPrice(uint256 newTokenPrice) moderatorOrSellerOnly public {\n\n        \n        uint256 oldPrice = tokenPrice;\n\n        \n        tokenPrice = newTokenPrice;\n\n        \n        MarketboardListingPriceChanged(oldPrice, newTokenPrice);\n\n    }\n\n    \n    function buyback(address recipient) moderatorOrSellerOnly public {\n\n        \n        ERC20 erc = ERC20(tokenContract);\n\t\tuint256 balance = erc.balanceOf(this);\n        erc.transfer(recipient, balance);\n\n        \n        MarketboardListingBuyback(tokenContract, balance);\n\n        \n        reset();\n\n    }\n\n\t\n    \n    function purchase(address recipient) public payable {\n\n        \n        require(msg.value >= totalPrice());\n\n        \n        MarketboardListingComplete(tokenContract, balance, msg.value, fee(), tokenPrice);\n\n        \n        ERC20 erc = ERC20(tokenContract);\n\t\tuint256 balance = erc.balanceOf(this);\n        erc.transfer(recipient, balance);\n\n\t\t\n\t\tuint256 basePrice = tokenPrice * balance / tokenBase();\n\t\trequire(basePrice > 0);\n\t\trequire(basePrice < this.balance);\n\n\t\t\n\t\tseller.transfer(basePrice);\n\n        \n        reset();\n\n    }\n\n    \n    function claimUnrelatedTokens(address unrelatedTokenContract, address recipient) moderatorOrSellerOnly public {\n\n        \n        require(tokenContract != unrelatedTokenContract);\n\n        \n        ERC20 erc = ERC20(unrelatedTokenContract);\n        uint256 balance = erc.balanceOf(this);\n        erc.transfer(recipient, balance);\n\n    }\n\n\t\n\tfunction reset() internal {\n\n        \n        MarketboardListingDestroyed();\n\n\t\t\n\t\tselfdestruct(moderator);\n\n\t}\n\n}\n    \ncontract MarketboardERC20Listing is MarketboardERC20Listing_1 {\n    constructor() MarketboardERC20Listing_1(address(0x123), 78, 78, address(0x123), 78) public { }\n}\n",
  "sourcePath": "/home/XXX-1/smartrim-experiment/for-rlf/0x8d4feae082902b3c81675febbe35c2aaea9c8cab/contracts/0x8d4feae082902b3c81675febbe35c2aaea9c8cab.sol",
  "compiler": {
    "name": "solc",
    "version": "0.4.25+commit.59dbf8f1.Emscripten.clang"
  },
  "schemaVersion": "3.4.16",
  "updatedAt": "2025-08-14T03:41:51.906Z",
  "devdoc": {
    "methods": {}
  },
  "userdoc": {
    "methods": {}
  }
}