{
  "contractName": "Owned",
  "abi": [
    {
      "constant": true,
      "inputs": [],
      "name": "owner",
      "outputs": [
        {
          "name": "",
          "type": "address"
        }
      ],
      "payable": false,
      "stateMutability": "view",
      "type": "function"
    },
    {
      "constant": false,
      "inputs": [],
      "name": "owned",
      "outputs": [],
      "payable": false,
      "stateMutability": "nonpayable",
      "type": "function"
    },
    {
      "constant": false,
      "inputs": [
        {
          "name": "_newOwner",
          "type": "address"
        }
      ],
      "name": "changeOwner",
      "outputs": [],
      "payable": false,
      "stateMutability": "nonpayable",
      "type": "function"
    }
  ],
  "bytecode": "0x608060405234801561001057600080fd5b5061023e806100206000396000f300608060405260043610610057576000357c0100000000000000000000000000000000000000000000000000000000900463ffffffff1680638da5cb5b1461005c578063a6f9dae1146100b3578063df32754b146100f6575b600080fd5b34801561006857600080fd5b5061007161010d565b604051808273ffffffffffffffffffffffffffffffffffffffff1673ffffffffffffffffffffffffffffffffffffffff16815260200191505060405180910390f35b3480156100bf57600080fd5b506100f4600480360381019080803573ffffffffffffffffffffffffffffffffffffffff169060200190929190505050610132565b005b34801561010257600080fd5b5061010b6101d0565b005b6000809054906101000a900473ffffffffffffffffffffffffffffffffffffffff1681565b6000809054906101000a900473ffffffffffffffffffffffffffffffffffffffff1673ffffffffffffffffffffffffffffffffffffffff163373ffffffffffffffffffffffffffffffffffffffff1614151561018d57600080fd5b806000806101000a81548173ffffffffffffffffffffffffffffffffffffffff021916908373ffffffffffffffffffffffffffffffffffffffff16021790555050565b336000806101000a81548173ffffffffffffffffffffffffffffffffffffffff021916908373ffffffffffffffffffffffffffffffffffffffff1602179055505600a165627a7a72305820591e89afb05538e5f66fc270f8c123bc8c6596ee3c7a04f7da1c0ef384c833c20029",
  "source": "\n\n\n\ninterface tokenRecipient {\n  function receiveApproval( address from, uint256 value, bytes data ) external;\n}\n\n\ninterface ContractReceiver {\n  function tokenFallback( address from, uint value, bytes data ) external;\n}\n\n\ncontract Owned {\n  address public owner;\n\n  function owned() public {\n    owner = msg.sender;\n  }\n\n  function changeOwner(address _newOwner) public onlyOwner {\n    owner = _newOwner;\n  }\n\n  modifier onlyOwner {\n    require (msg.sender == owner);\n    _;\n  }\n}\n\n\ncontract Token_1 is Owned {\n  string  public name;\n  string  public symbol;\n  uint8   public decimals = 18;\n  uint256 public totalSupply;\n\n  mapping( address => uint256 ) balances;\n  mapping( address => mapping(address => uint256) ) allowances;\n\n  \n  event Approval(\n    address indexed owner,\n    address indexed spender,\n    uint value\n  );\n\n  \n  event Transfer(\n    address indexed from,\n    address indexed to,\n    uint256 value\n  );\n\n  function Token_1(\n    uint256 _initialSupply,\n    string _tokenName,\n    string _tokenSymbol\n  )\n    public\n  {\n    totalSupply = _initialSupply * 10**18;\n    balances[msg.sender] = _initialSupply * 10**18;\n\n    name = _tokenName;\n    symbol = _tokenSymbol;\n  }\n\n  \n  function balanceOf( address owner ) public constant returns (uint) {\n    return balances[owner];\n  }\n\n  \n  function approve( address spender, uint256 value ) public returns (bool success) {\n    \n    \n    \n    \n    allowances[msg.sender][spender] = value;\n    Approval( msg.sender, spender, value );\n    return true;\n  }\n\n  \n  function safeApprove(\n    address _spender,\n    uint256 _currentValue,\n    uint256 _value\n  )\n    public\n    returns (bool success)\n  {\n    \n    \n\n    if (allowances[msg.sender][_spender] == _currentValue)\n      return approve(_spender, _value);\n\n    return false;\n  }\n\n  \n  function allowance(\n    address owner,\n    address spender\n  )\n    public constant\n    returns (uint256 remaining)\n  {\n    return allowances[owner][spender];\n  }\n\n  \n  function transfer(\n    address to,\n    uint256 value\n  )\n    public\n    returns (bool success)\n  {\n    bytes memory empty; \n    _transfer( msg.sender, to, value, empty );\n    return true;\n  }\n\n  \n  function transferFrom(\n    address from,\n    address to,\n    uint256 value\n  )\n    public\n    returns (bool success)\n  {\n    require( value <= allowances[from][msg.sender] );\n\n    allowances[from][msg.sender] -= value;\n    bytes memory empty;\n    _transfer( from, to, value, empty );\n\n    return true;\n  }\n\n  \n  function approveAndCall(\n    address spender,\n    uint256 value,\n    bytes context\n  )\n    public\n    returns (bool success)\n  {\n    if (approve(spender, value))\n    {\n      tokenRecipient recip = tokenRecipient(spender);\n\n      if (isContract(recip))\n        recip.receiveApproval(msg.sender, value, context);\n\n      return true;\n    }\n\n    return false;\n  }\n\n\n  \n  function transfer(\n    address to,\n    uint value,\n    bytes data,\n    string custom_fallback\n  )\n    public\n    returns (bool success)\n  {\n    _transfer( msg.sender, to, value, data );\n\n    \n    require(\n      address(to).call.value(0)(\n        bytes4(keccak256(custom_fallback)),\n        msg.sender,\n        value,\n        data\n      )\n    );\n\n    return true;\n  }\n\n  \n  function transfer(\n    address to,\n    uint value,\n    bytes data\n  )\n    public\n    returns (bool success)\n  {\n    if (isContract(to)) {\n      return transferToContract( to, value, data );\n    }\n\n    _transfer( msg.sender, to, value, data );\n    return true;\n  }\n\n  \n  function transferToContract(\n    address to,\n    uint value,\n    bytes data\n  )\n    private\n    returns (bool success)\n  {\n    _transfer( msg.sender, to, value, data );\n\n    ContractReceiver rx = ContractReceiver(to);\n\n    if (isContract(rx)) {\n      rx.tokenFallback( msg.sender, value, data );\n      return true;\n    }\n\n    return false;\n  }\n\n  \n  function isContract(address _addr)\n    private\n    constant\n    returns (bool)\n  {\n    uint length;\n    assembly { length := extcodesize(_addr) }\n    return (length > 0);\n  }\n\n  \n  function _transfer(\n    address from,\n    address to,\n    uint value,\n    bytes data\n  )\n    internal\n  {\n    require( to != 0x0 );\n    require( balances[from] >= value );\n    require( balances[to] + value > balances[to] ); \n\n    balances[from] -= value;\n    balances[to] += value;\n\n    bytes memory ignore;\n    ignore = data; \n    Transfer( from, to, value ); \n  }\n}\n    \ncontract Token is Token_1 {\n    constructor() Token_1(78, \"rlf\", \"rlf\") public { }\n}\n",
  "sourcePath": "/home/XXX-1/smartrim-experiment/for-rlf/0xcbbfaaddd045f0274a6e6d1ec8640c0a9b5fef46/contracts/0xcbbfaaddd045f0274a6e6d1ec8640c0a9b5fef46.sol",
  "compiler": {
    "name": "solc",
    "version": "0.4.25+commit.59dbf8f1.Emscripten.clang"
  },
  "schemaVersion": "3.4.16",
  "updatedAt": "2025-08-14T04:06:47.749Z",
  "devdoc": {
    "methods": {}
  },
  "userdoc": {
    "methods": {}
  }
}