{
  "contractName": "FutureDeposit",
  "abi": [
    {
      "constant": true,
      "inputs": [
        {
          "name": "",
          "type": "address"
        }
      ],
      "name": "Deposits",
      "outputs": [
        {
          "name": "",
          "type": "uint256"
        }
      ],
      "payable": false,
      "stateMutability": "view",
      "type": "function"
    },
    {
      "payable": true,
      "stateMutability": "payable",
      "type": "fallback"
    },
    {
      "anonymous": false,
      "inputs": [
        {
          "indexed": true,
          "name": "depositor",
          "type": "address"
        },
        {
          "indexed": false,
          "name": "amount",
          "type": "uint256"
        }
      ],
      "name": "Deposit",
      "type": "event"
    },
    {
      "anonymous": false,
      "inputs": [
        {
          "indexed": true,
          "name": "to",
          "type": "address"
        },
        {
          "indexed": false,
          "name": "amount",
          "type": "uint256"
        }
      ],
      "name": "Withdrawal",
      "type": "event"
    },
    {
      "constant": false,
      "inputs": [
        {
          "name": "to",
          "type": "address"
        }
      ],
      "name": "transferOwnership",
      "outputs": [],
      "payable": false,
      "stateMutability": "nonpayable",
      "type": "function"
    },
    {
      "constant": false,
      "inputs": [],
      "name": "init",
      "outputs": [],
      "payable": true,
      "stateMutability": "payable",
      "type": "function"
    },
    {
      "constant": true,
      "inputs": [],
      "name": "MinimumDeposit",
      "outputs": [
        {
          "name": "",
          "type": "uint256"
        }
      ],
      "payable": false,
      "stateMutability": "view",
      "type": "function"
    },
    {
      "constant": false,
      "inputs": [
        {
          "name": "newDate",
          "type": "uint256"
        }
      ],
      "name": "setRelease",
      "outputs": [],
      "payable": false,
      "stateMutability": "nonpayable",
      "type": "function"
    },
    {
      "constant": true,
      "inputs": [],
      "name": "ReleaseDate",
      "outputs": [
        {
          "name": "",
          "type": "uint256"
        }
      ],
      "payable": false,
      "stateMutability": "view",
      "type": "function"
    },
    {
      "constant": true,
      "inputs": [],
      "name": "WithdrawEnabled",
      "outputs": [
        {
          "name": "",
          "type": "bool"
        }
      ],
      "payable": false,
      "stateMutability": "view",
      "type": "function"
    },
    {
      "constant": false,
      "inputs": [],
      "name": "deposit",
      "outputs": [],
      "payable": true,
      "stateMutability": "payable",
      "type": "function"
    },
    {
      "constant": false,
      "inputs": [
        {
          "name": "amount",
          "type": "uint256"
        }
      ],
      "name": "withdraw",
      "outputs": [],
      "payable": false,
      "stateMutability": "nonpayable",
      "type": "function"
    },
    {
      "constant": false,
      "inputs": [
        {
          "name": "to",
          "type": "address"
        },
        {
          "name": "amount",
          "type": "uint256"
        }
      ],
      "name": "withdrawTo",
      "outputs": [],
      "payable": false,
      "stateMutability": "nonpayable",
      "type": "function"
    },
    {
      "constant": false,
      "inputs": [],
      "name": "lock",
      "outputs": [],
      "payable": false,
      "stateMutability": "nonpayable",
      "type": "function"
    },
    {
      "constant": false,
      "inputs": [],
      "name": "kill",
      "outputs": [],
      "payable": false,
      "stateMutability": "nonpayable",
      "type": "function"
    }
  ],
  "bytecode": "0x608060405234801561001057600080fd5b50610706806100206000396000f3006080604052600436106100ba576000357c0100000000000000000000000000000000000000000000000000000000900463ffffffff168063205c2878146100c45780632e1a7d4d146101115780633ee2d7c21461013e57806341c0e1b5146101955780638cf49cad146101ac578063be3eac25146101d7578063c635a9f214610206578063cfa4f3e814610231578063d0e30db01461025e578063e1c7392a14610268578063f2fde38b14610272578063f83d08ba146102b5575b6100c26102cc565b005b3480156100d057600080fd5b5061010f600480360381019080803573ffffffffffffffffffffffffffffffffffffffff16906020019092919080359060200190929190505050610384565b005b34801561011d57600080fd5b5061013c600480360381019080803590602001909291905050506104dc565b005b34801561014a57600080fd5b5061017f600480360381019080803573ffffffffffffffffffffffffffffffffffffffff1690602001909291905050506104e9565b6040518082815260200191505060405180910390f35b3480156101a157600080fd5b506101aa610501565b005b3480156101b857600080fd5b506101c1610561565b6040518082815260200191505060405180910390f35b3480156101e357600080fd5b506101ec61056b565b604051808215151515815260200191505060405180910390f35b34801561021257600080fd5b5061021b610585565b6040518082815260200191505060405180910390f35b34801561023d57600080fd5b5061025c6004803603810190808035906020019092919050505061058f565b005b6102666102cc565b005b610270610599565b005b34801561027e57600080fd5b506102b3600480360381019080803573ffffffffffffffffffffffffffffffffffffffff169060200190929190505050610624565b005b3480156102c157600080fd5b506102ca6106bd565b005b6000341115610382576102dd610585565b341015156103335734600160003373ffffffffffffffffffffffffffffffffffffffff1673ffffffffffffffffffffffffffffffffffffffff168152602001908152602001600020600082825401925050819055505b3373ffffffffffffffffffffffffffffffffffffffff167fe1fffcc4923d04b559f4d29a8bfc6cda04eb5b0d3c460751c2402c5c5cc9109c346040518082815260200191505060405180910390a25b565b60008060009054906101000a900473ffffffffffffffffffffffffffffffffffffffff1673ffffffffffffffffffffffffffffffffffffffff163373ffffffffffffffffffffffffffffffffffffffff1614156104d7576103e361056b565b156104d657600160003373ffffffffffffffffffffffffffffffffffffffff1673ffffffffffffffffffffffffffffffffffffffff16815260200190815260200160002054905060008111801561043a5750808211155b156104d5578273ffffffffffffffffffffffffffffffffffffffff166108fc839081150290604051600060405180830381858888f19350505050158015610485573d6000803e3d6000fd5b508273ffffffffffffffffffffffffffffffffffffffff167f7fcf532c15f0a6db0bd6d0e038bea71d30d808c7d98cb3bf7268a95bf5081b65836040518082815260200191505060405180910390a25b5b5b505050565b6104e63382610384565b50565b60016020528060005260406000206000915090505481565b60003073ffffffffffffffffffffffffffffffffffffffff163114151561052757600080fd5b6000809054906101000a900473ffffffffffffffffffffffffffffffffffffffff1673ffffffffffffffffffffffffffffffffffffffff16ff5b6000600454905090565b60008060045411801561058057504260045411155b905090565b6000600254905090565b8060048190555050565b600360009054906101000a900460ff16151561062257336000806101000a81548173ffffffffffffffffffffffffffffffffffffffff021916908373ffffffffffffffffffffffffffffffffffffffff1602179055506703782dace9d900006002819055506000600360006101000a81548160ff0219169083151502179055506106216102cc565b5b565b6000809054906101000a900473ffffffffffffffffffffffffffffffffffffffff1673ffffffffffffffffffffffffffffffffffffffff163373ffffffffffffffffffffffffffffffffffffffff1614156106ba57806000806101000a81548173ffffffffffffffffffffffffffffffffffffffff021916908373ffffffffffffffffffffffffffffffffffffffff1602179055505b50565b6001600360006101000a81548160ff0219169083151502179055505600a165627a7a72305820a8918ce219aa8694800b073f11a10c165f83251c3ccbf512a255f54ddf6498b00029",
  "source": "\n\ncontract FutureDeposit {\n    \n    event Deposit(address indexed depositor, uint amount);\n    event Withdrawal(address indexed to, uint amount);\n\n    address Owner;\n    function transferOwnership(address to) public onlyOwner {\n        Owner = to;\n    }\n    modifier onlyOwner { if (msg.sender == Owner) _; }\n    \n    mapping (address => uint) public Deposits;\n    uint minDeposit;\n    bool Locked;\n    uint Date;\n\n    function init() payable open {\n        Owner = msg.sender;\n        minDeposit = 0.25 ether;\n        Locked = false;\n        deposit();\n    }\n    \n    function MinimumDeposit() public constant returns (uint) { return minDeposit; }\n\n    function setRelease(uint newDate) public {\n        Date = newDate;\n    }\n    function ReleaseDate() public constant returns (uint) { return Date; }\n    function WithdrawEnabled() public constant returns (bool) { return Date > 0 && Date <= now; }\n\n    function() public payable { deposit(); }\n\n    function deposit() public payable {\n        if (msg.value > 0) {\n            if (msg.value >= MinimumDeposit())\n                Deposits[msg.sender] += msg.value;\n            Deposit(msg.sender, msg.value);\n        }\n    }\n\n    function withdraw(uint amount) public { return withdrawTo(msg.sender, amount); }\n    \n    function withdrawTo(address to, uint amount) public onlyOwner {\n        if (WithdrawEnabled()) {\n            uint max = Deposits[msg.sender];\n            if (max > 0 && amount <= max) {\n                to.transfer(amount);\n                Withdrawal(to, amount);\n            }\n        }\n    }\n\n    function lock() public { Locked = true; }\n    modifier open { if (!Locked) _; }\n    function kill() { require(this.balance == 0); selfdestruct(Owner); }\n}",
  "sourcePath": "/home/XXX-1/smartrim-experiment/for-rlf/0xbddd99e8aaeb85847703c31a83277856d49961d9/contracts/0xbddd99e8aaeb85847703c31a83277856d49961d9.sol",
  "compiler": {
    "name": "solc",
    "version": "0.4.25+commit.59dbf8f1.Emscripten.clang"
  },
  "schemaVersion": "3.4.16",
  "updatedAt": "2025-08-14T03:43:08.402Z",
  "networkType": "ethereum",
  "devdoc": {
    "methods": {}
  },
  "userdoc": {
    "methods": {}
  }
}