{
  "contractName": "Contract",
  "abi": [
    {
      "constant": true,
      "inputs": [],
      "name": "Name",
      "outputs": [
        {
          "name": "",
          "type": "bytes32"
        }
      ],
      "payable": false,
      "stateMutability": "view",
      "type": "function"
    },
    {
      "inputs": [
        {
          "name": "_contractName",
          "type": "bytes32"
        }
      ],
      "payable": false,
      "stateMutability": "nonpayable",
      "type": "constructor"
    },
    {
      "payable": true,
      "stateMutability": "payable",
      "type": "fallback"
    },
    {
      "constant": false,
      "inputs": [
        {
          "name": "receiver",
          "type": "address"
        },
        {
          "name": "amount",
          "type": "uint256"
        }
      ],
      "name": "sendFunds",
      "outputs": [],
      "payable": false,
      "stateMutability": "nonpayable",
      "type": "function"
    }
  ],
  "bytecode": "0x608060405234801561001057600080fd5b506040516020806101998339810180604052810190808051906020019092919050505080600081600019169055505061014b8061004e6000396000f30060806040526004361061004c576000357c0100000000000000000000000000000000000000000000000000000000900463ffffffff1680636f64234e1461004e5780638052474d1461009b575b005b34801561005a57600080fd5b50610099600480360381019080803573ffffffffffffffffffffffffffffffffffffffff169060200190929190803590602001909291905050506100ce565b005b3480156100a757600080fd5b506100b0610119565b60405180826000191660001916815260200191505060405180910390f35b8173ffffffffffffffffffffffffffffffffffffffff166108fc829081150290604051600060405180830381858888f19350505050158015610114573d6000803e3d6000fd5b505050565b600054815600a165627a7a7230582089f4a701cf6a7b42a9a9b5ea5e3f113340d4e94129c466eb55e9dcfabd10d2990029",
  "source": "\n\n\n\n\nlibrary SafeMath {\n    function add(uint a, uint b) internal pure returns (uint c) {\n        c = a + b;\n        require(c >= a);\n    }\n    function sub(uint a, uint b) internal pure returns (uint c) {\n        require(b <= a);\n        c = a - b;\n    }\n    function mul(uint a, uint b) internal pure returns (uint c) {\n        c = a * b;\n        require(a == 0 || c / a == b);\n    }\n    function div(uint a, uint b) internal pure returns (uint c) {\n        require(b > 0);\n        c = a / b;\n    }\n}\n\n\n\n\n\n\ncontract ERC20Interface {\n    function totalSupply() public view returns (uint);\n    function balanceOf(address tokenOwner) public view returns (uint balance);\n    function allowance(address tokenOwner, address spender) public view returns (uint remaining);\n    function transfer(address to, uint tokens) public returns (bool success);\n    function approve(address spender, uint tokens) public returns (bool success);\n    function transferFrom(address from, address to, uint tokens) public returns (bool success);\n\n    event Transfer(address indexed from, address indexed to, uint tokens);\n    event Approval(address indexed tokenOwner, address indexed spender, uint tokens);\n}\n\n\n\n\n\n\n\ncontract ApproveAndCallFallBack {\n    function receiveApproval(address from, uint256 tokens, address token, bytes data) public;\n}\n\n\n\n\n\ncontract Owned {\n    address public owner;\n    address public newOwner;\n\n    event OwnershipTransferred(address indexed _from, address indexed _to);\n\n    constructor() public {\n        owner = msg.sender;\n    }\n\n    modifier onlyOwner {\n        require(msg.sender == owner);\n        _;\n    }\n\n    function transferOwnership(address _newOwner) public onlyOwner {\n        newOwner = _newOwner;\n    }\n    function acceptOwnership() public {\n        require(msg.sender == newOwner);\n        emit OwnershipTransferred(owner, newOwner);\n        owner = newOwner;\n        newOwner = address(0);\n    }\n}\n\n\n\n\ncontract Contract {\n    bytes32 public Name;\n\n    \n    \n    constructor(bytes32 _contractName) public {\n        Name = _contractName;\n    }\n\n    function() public payable { }\n    \n    function sendFunds(address receiver, uint amount) public {\n        receiver.transfer(amount);\n    }    \n}\n\n\n\n\ncontract DeaultERC20 is ERC20Interface, Owned {\n    using SafeMath for uint;\n\n    string public symbol;\n    string public  name;\n    uint8 public decimals;\n    uint public _totalSupply;\n\n    mapping(address => uint) balances;\n    mapping(address => mapping(address => uint)) allowed;\n\n\n    \n    \n    \n    constructor() public {\n        symbol = \"DFLT\";\n        name = \"Default\";\n        decimals = 18;\n    }\n\n    \n    \n    \n    function totalSupply() public view returns (uint) {\n        return _totalSupply  - balances[address(0)];\n    }\n\n    \n    \n    \n    function balanceOf(address tokenOwner) public view returns (uint balance) {\n        return balances[tokenOwner];\n    }\n\n    \n    \n    \n    \n    \n    function transfer(address to, uint tokens) public returns (bool success) {\n        balances[msg.sender] = balances[msg.sender].sub(tokens);\n        balances[to] = balances[to].add(tokens);\n        emit Transfer(msg.sender, to, tokens);\n        return true;\n    }\n\n    \n    \n    \n    \n    \n    \n    \n    \n    function approve(address spender, uint tokens) public returns (bool success) {\n        allowed[msg.sender][spender] = tokens;\n        emit Approval(msg.sender, spender, tokens);\n        return true;\n    }\n\n    \n    \n    \n    \n    \n    \n    \n    \n    \n    function transferFrom(address from, address to, uint tokens) public returns (bool success) {\n        balances[from] = balances[from].sub(tokens);\n        allowed[from][msg.sender] = allowed[from][msg.sender].sub(tokens);\n        balances[to] = balances[to].add(tokens);\n        emit Transfer(from, to, tokens);\n        return true;\n    }\n\n    \n    \n    \n    \n    function allowance(address tokenOwner, address spender) public view returns (uint remaining) {\n        return allowed[tokenOwner][spender];\n    }\n\n    \n    \n    \n    \n    \n    function approveAndCall(address spender, uint tokens, bytes data) public returns (bool success) {\n        allowed[msg.sender][spender] = tokens;\n        emit Approval(msg.sender, spender, tokens);\n        ApproveAndCallFallBack(spender).receiveApproval(msg.sender, tokens, this, data);\n        return true;\n    }\n\n    \n    \n    \n    function () public payable {\n        revert();\n    }\n}\n\n\n\n\ncontract IGCoin is DeaultERC20 {\n    using SafeMath for uint;\n\n    address public reserveAddress; \n    uint256 public ask;\n    uint256 public bid;\n    uint16 public constant reserveRate = 10;\n    bool public initialSaleComplete;\n    uint256 constant private ICOAmount = 2e0*1e16; \n    uint256 constant private ICOask = 1e0*1e16; \n    uint256 constant private ICObid = 0; \n    uint256 constant private InitialSupply = 1e0 * 1e16; \n\n    uint256 constant private R = 125000;  \n    uint256 constant private P = 10; \n    uint256 constant private lnR = R; \n    uint256 constant private S = 1e8; \n    uint256 constant private RS = 800; \n    uint256 constant private lnS = 18; \n    uint256 constant private lnRS = 391764552740441533402669241351723684867125000;\n    uint256 private refund = 0;\n    uint256 constant SU = 1e15; \n    \n    \n    uint256 private constant ONE = 1;\n    uint8 private constant MAX_PRECISION = 127;\n    uint256 private constant FIXED_1 = 0x080000000000000000000000000000000;\n    uint256 private constant FIXED_2 = 0x100000000000000000000000000000000;\n    uint256 private constant MAX_NUM = 0x1ffffffffffffffffffffffffffffffff;\n    uint256 private constant FIXED_3 = 0x07fffffffffffffffffffffffffffffff;\n    uint256 private constant LN2_MANTISSA = 0x2c5c85fdf473de6af278ece600fcbda;\n    uint8   private constant LN2_EXPONENT = 122;\n    \n    \n    uint256[128] private maxExpArray;    \n    \n    \n    \n    \n    uint32 private constant MAX_WEIGHT = 1000000;\n    uint8 private constant MIN_PRECISION = 120;\n\n    \n    uint256 private constant LN2_NUMERATOR   = 0x3f80fe03f80fe03f80fe03f80fe03f8;\n    uint256 private constant LN2_DENOMINATOR = 0x5b9de1d10bf4103d647b0955897ba80;\n\n    \n    uint256 private constant OPT_LOG_MAX_VAL = 0x15bf0a8b1457695355fb8ac404e7a79e3; \n    uint256 private constant OPT_EXP_MAX_VAL = 0x800000000000000000000000000000000; \n\n\n    mapping (address => bool) public frozenAccount;\n    event FrozenFunds(address target, bool frozen); \n\n    \n    \n    \n    constructor() public {\n        symbol = \"IG17\";\n        name = \"theTestToken002\";\n        decimals = 18;\n        initialSaleComplete = false;\n        _totalSupply = InitialSupply;  \n        balances[owner] = _totalSupply;  \n        emit Transfer(address(0), owner, _totalSupply);\n\n        reserveAddress = new Contract(\"Reserve\");  \n        quoteAsk();\n        quoteBid();        \n\n        \n        \n        \n    \n    \n    \n    \n    \n    \n    \n    \n    \n    \n    \n    \n    \n    \n    \n    \n    \n    \n    \n    \n    \n    \n    \n    \n    \n    \n    \n    \n    \n    \n    \n    \n    \n        maxExpArray[120] = 0x00b320d03b2c343d4829abd6075f0cc5ff;\n        maxExpArray[121] = 0x00abc25204e02828d73c6e80bcdb1a95bf;\n        maxExpArray[122] = 0x00a4b16f74ee4bb2040a1ec6c15fbbf2df;\n        maxExpArray[123] = 0x009deaf736ac1f569deb1b5ae3f36c130f;\n        maxExpArray[124] = 0x00976bd9952c7aa957f5937d790ef65037;\n        maxExpArray[125] = 0x009131271922eaa6064b73a22d0bd4f2bf;\n        maxExpArray[126] = 0x008b380f3558668c46c91c49a2f8e967b9;\n        maxExpArray[127] = 0x00857ddf0117efa215952912839f6473e6;       \n    }\n    \n\n    \n    \n    \n    function deposit(uint256 _value) private {\n        reserveAddress.transfer(_value);\n        balances[reserveAddress] += _value;\n    }\n  \n    \n    \n    \n    function withdraw(uint256 _value) private pure {\n        \n         _value = _value;\n    }\n    \n    \n    \n    \n    function transfer(address _to, uint256 _value) public returns (bool success) {\n        \n        require(balances[msg.sender] >= _value && balances[_to] + _value >= balances[_to]);\n        \n        \n        require(_value > 0);\n\n        \n        balances[msg.sender] -= _value;\n        balances[_to] += _value;\n    \n        \n        emit Transfer(msg.sender, _to, _value);\n        \n        return true;\n    }\n    \n    \n    \n    \n    \n    function freezeAccount(address _target, bool _freeze) public onlyOwner {\n        frozenAccount[_target] = _freeze;\n        emit FrozenFunds(_target, _freeze);\n    }    \n \n    \n    \n    \n    function quoteAsk() private returns (uint256) {\n        if(initialSaleComplete)\n        {\n            ask = fracExp(1e16, R, (_totalSupply/1e16)+1, P);\n        }\n        else\n        {\n            ask = ICOask;\n        }\n        \n        return ask;\n    }\n    \n    \n    \n    \n    function quoteBid() private returns (uint256) {\n        if(initialSaleComplete)\n        {\n            bid = fracExp(1e16, R, (_totalSupply/1e16)-1, P);\n        }\n        else\n        {\n            bid = ICObid;\n        }\n\n        return bid;\n    }\n\n    \n    \n    function buy() public payable returns (uint256 amount){\n\n        if(initialSaleComplete)\n        {\n            uint256 b = 0;\n            uint256 p = 0;\n            uint8 ps = 0;\n\n            (p, ps) = power(1000008,1000000,(uint32)(1+_totalSupply/SU),1); \n            p=(S*p)>>ps;\n            \n            \n            b = (ln_fixed3_lnr_18(RS*msg.value/SU + p,1)-1e18*lnRS-1e18*FIXED_3)/FIXED_3; \n\n            refund = msg.value - (msg.value/SU)*SU;\n            amount = b*SU/1e18-_totalSupply;\n            \n            \n            \n            \n\n            reserveAddress.transfer((msg.value/SU)*SU);     \n            balances[reserveAddress] += msg.value-refund;   \n            mintToken(msg.sender, amount);                  \n            msg.sender.transfer(refund);                    \n            quoteAsk();\n            quoteBid();\n        }\n        else\n        {\n            \n            \n            ask = ICOask;                                   \n            amount = 1e16*msg.value / ask;                  \n            refund = msg.value - (amount*ask/1e16);         \n\n            \n            reserveAddress.transfer(msg.value - refund);    \n            msg.sender.transfer(refund);                    \n            balances[reserveAddress] += msg.value-refund;   \n            mintToken(msg.sender, amount);                  \n\n            if(_totalSupply >= ICOAmount)\n            {\n                initialSaleComplete = true;\n            }             \n        }\n        \n        \n        return amount;                                    \n    }\n\n    \n    \n    \n    function sell(uint256 amount) public returns (uint256 revenue){\n        uint256 a = 0;\n        \n        require(initialSaleComplete);\n        require(balances[msg.sender] >= amount);        \n        \n        a = _totalSupply - amount;\n\n        uint256 p = 0;\n        uint8 ps = 0;\n\n        (p, ps) = power(1000008,1000000,(uint32)(1e5+1e5*_totalSupply/SU),1e5); \n        p=(S*p)>>ps;\n\n        uint256 p2 = 0;\n        uint8 ps2 = 0;\n\n        (p2, ps2) = power(1000008,1000000,(uint32)(1e5+1e5*a/SU),1e5); \n        p2=(S*p2)>>ps2;\n\n            \n\n        revenue = (SU*p-SU*p2)*R/S;\n        \n       \n        \n        \n        \n        _totalSupply -= amount;                 \n        require(balances[reserveAddress] >= revenue);\n        balances[reserveAddress] -= revenue;             \n        balances[msg.sender] -= amount;                 \n        Contract reserve = Contract(reserveAddress);\n        reserve.sendFunds(msg.sender, revenue);\n        \n        emit Transfer(msg.sender, reserveAddress, amount);               \n\n        quoteAsk();\n        quoteBid();  \n\n        return revenue;                                 \n    }    \n    \n    \n    \n    \n    function mintToken(address target, uint256 mintedAmount) public {\n        balances[target] += mintedAmount;\n        _totalSupply += mintedAmount;\n        \n        emit Transfer(address(0), this, mintedAmount);\n        emit Transfer(this, target, mintedAmount);\n    }    \n    \n\n    \n    \n    \n    \n    \n    \n    \n    \n    \n    \n    function fracExp(uint256 _k, uint256 _q, uint256 _n, uint256 _p) internal pure returns (uint256) {\n      uint256 s = 0;\n      uint256 N = 1;\n      uint256 B = 1;\n      for (uint256 i = 0; i < _p; ++i){\n        s += _k * N / B / (_q**i);\n        N  = N * (_n-i);\n        B  = B * (i+1);\n      }\n      return s;\n    }\n    \n    \n    \n    \n    \n    \n    \n    \n    \n    \n    \n    \n    \n    \n    \n    \n    \n    \n    \n    \n    \n    \n    \n    \n    \n    \n    \n    \n    \n    \n    \n    function ln_fixed3_lnr_18(uint256 _numerator, uint256 _denominator) internal pure returns (uint256) {\n        assert(_numerator <= MAX_NUM);\n\n        uint256 res = 0;\n        uint256 x = _numerator * FIXED_1 / _denominator;\n\n        \n        if (x >= FIXED_2) {\n            uint8 count = floorLog2(x / FIXED_1);\n            x >>= count; \n            res = count * FIXED_1;\n        }\n\n        \n        if (x > FIXED_1) {\n            for (uint8 i = MAX_PRECISION; i > 0; --i) {\n                x = (x * x) / FIXED_1; \n                if (x >= FIXED_2) {\n                    x >>= 1; \n                    res += ONE << (i - 1);\n                }\n            }\n        }\n\n        return (((res * LN2_MANTISSA) >> LN2_EXPONENT)*lnR*1e18);\n    }       \n\n    \n    \n    \n    \n    function floorLog2(uint256 _n) internal pure returns (uint8) {\n        uint8 res = 0;\n\n        if (_n < 256) {\n            \n            while (_n > 1) {\n                _n >>= 1;\n                res += 1;\n            }\n        }\n        else {\n            \n            for (uint8 s = 128; s > 0; s >>= 1) {\n                if (_n >= (ONE << s)) {\n                    _n >>= s;\n                    res |= s;\n                }\n            }\n        }\n\n        return res;\n    }    \n    \n    \n    \n    \n    \n    function round(uint256 _n, uint256 _m) internal pure returns (uint256) {\n        uint256 res = 0;\n        \n        uint256 p =_n/_m;\n        res = _n-(_m*p);\n        \n        if(res >= 1)\n        {\n            res = p+1;\n        }\n        else\n        {\n            res = p;\n        }\n\n        return res;\n    }      \n  \n  \n    \n    \n    \n\n    \n    function power(uint256 _baseN, uint256 _baseD, uint32 _expN, uint32 _expD) internal view returns (uint256, uint8) {\n        assert(_baseN < MAX_NUM);\n\n        uint256 baseLog;\n        uint256 base = _baseN * FIXED_1 / _baseD;\n        if (base < OPT_LOG_MAX_VAL) {\n            baseLog = optimalLog(base);\n        }\n        else {\n            baseLog = generalLog(base);\n        }\n\n        uint256 baseLogTimesExp = baseLog * _expN / _expD;\n        if (baseLogTimesExp < OPT_EXP_MAX_VAL) {\n            \n            return (optimalExp(baseLogTimesExp), MAX_PRECISION);\n        }\n        else {\n            uint8 precision = findPositionInMaxExpArray(baseLogTimesExp);\n            return (generalExp(baseLogTimesExp >> (MAX_PRECISION - precision), precision), precision);\n        }\n    }\n\n    \n    function generalLog(uint256 x) internal pure returns (uint256) {\n        uint256 res = 0;\n\n        \n        if (x >= FIXED_2) {\n            uint8 count = floorLog2(x / FIXED_1);\n            x >>= count; \n            res = count * FIXED_1;\n        }\n\n        \n        if (x > FIXED_1) {\n            for (uint8 i = MAX_PRECISION; i > 0; --i) {\n                x = (x * x) / FIXED_1; \n                if (x >= FIXED_2) {\n                    x >>= 1; \n                    res += ONE << (i - 1);\n                }\n            }\n        }\n\n        return res * LN2_NUMERATOR / LN2_DENOMINATOR;\n    }\n\n    \n    function findPositionInMaxExpArray(uint256 _x) internal view returns (uint8) {\n        uint8 lo = MIN_PRECISION;\n        uint8 hi = MAX_PRECISION;\n\n        while (lo + 1 < hi) {\n            uint8 mid = (lo + hi) / 2;\n            if (maxExpArray[mid] >= _x)\n                lo = mid;\n            else\n                hi = mid;\n        }\n        \n        if (maxExpArray[hi] >= _x){\n            \n            return hi;\n        }\n        if (maxExpArray[lo] >= _x){\n            \n            return lo;\n        }\n            \n        \n\n        assert(false);\n        return 0;\n    }\n\n    \n    function generalExp(uint256 _x, uint8 _precision) internal pure returns (uint256) {\n        uint256 xi = _x;\n        uint256 res = 0;\n\n        xi = (xi * _x) >> _precision; res += xi * 0x3442c4e6074a82f1797f72ac0000000; \n        xi = (xi * _x) >> _precision; res += xi * 0x116b96f757c380fb287fd0e40000000; \n        xi = (xi * _x) >> _precision; res += xi * 0x045ae5bdd5f0e03eca1ff4390000000; \n        xi = (xi * _x) >> _precision; res += xi * 0x00defabf91302cd95b9ffda50000000; \n        xi = (xi * _x) >> _precision; res += xi * 0x002529ca9832b22439efff9b8000000; \n        xi = (xi * _x) >> _precision; res += xi * 0x00054f1cf12bd04e516b6da88000000; \n        xi = (xi * _x) >> _precision; res += xi * 0x0000a9e39e257a09ca2d6db51000000; \n        xi = (xi * _x) >> _precision; res += xi * 0x000012e066e7b839fa050c309000000; \n        xi = (xi * _x) >> _precision; res += xi * 0x000001e33d7d926c329a1ad1a800000; \n        xi = (xi * _x) >> _precision; res += xi * 0x0000002bee513bdb4a6b19b5f800000; \n        xi = (xi * _x) >> _precision; res += xi * 0x00000003a9316fa79b88eccf2a00000; \n        xi = (xi * _x) >> _precision; res += xi * 0x0000000048177ebe1fa812375200000; \n        xi = (xi * _x) >> _precision; res += xi * 0x0000000005263fe90242dcbacf00000; \n        xi = (xi * _x) >> _precision; res += xi * 0x000000000057e22099c030d94100000; \n        xi = (xi * _x) >> _precision; res += xi * 0x0000000000057e22099c030d9410000; \n        xi = (xi * _x) >> _precision; res += xi * 0x00000000000052b6b54569976310000; \n        xi = (xi * _x) >> _precision; res += xi * 0x00000000000004985f67696bf748000; \n        xi = (xi * _x) >> _precision; res += xi * 0x000000000000003dea12ea99e498000; \n        xi = (xi * _x) >> _precision; res += xi * 0x00000000000000031880f2214b6e000; \n        xi = (xi * _x) >> _precision; res += xi * 0x000000000000000025bcff56eb36000; \n        xi = (xi * _x) >> _precision; res += xi * 0x000000000000000001b722e10ab1000; \n        xi = (xi * _x) >> _precision; res += xi * 0x0000000000000000001317c70077000; \n        xi = (xi * _x) >> _precision; res += xi * 0x00000000000000000000cba84aafa00; \n        xi = (xi * _x) >> _precision; res += xi * 0x00000000000000000000082573a0a00; \n        xi = (xi * _x) >> _precision; res += xi * 0x00000000000000000000005035ad900; \n        xi = (xi * _x) >> _precision; res += xi * 0x000000000000000000000002f881b00; \n        xi = (xi * _x) >> _precision; res += xi * 0x0000000000000000000000001b29340; \n        xi = (xi * _x) >> _precision; res += xi * 0x00000000000000000000000000efc40; \n        xi = (xi * _x) >> _precision; res += xi * 0x0000000000000000000000000007fe0; \n        xi = (xi * _x) >> _precision; res += xi * 0x0000000000000000000000000000420; \n        xi = (xi * _x) >> _precision; res += xi * 0x0000000000000000000000000000021; \n        xi = (xi * _x) >> _precision; res += xi * 0x0000000000000000000000000000001; \n\n        return res / 0x688589cc0e9505e2f2fee5580000000 + _x + (ONE << _precision); \n    }\n\n    \n    function optimalLog(uint256 x) internal pure returns (uint256) {\n        uint256 res = 0;\n\n        uint256 y;\n        uint256 z;\n        uint256 w;\n\n        if (x >= 0xd3094c70f034de4b96ff7d5b6f99fcd8) {res += 0x40000000000000000000000000000000; x = x * FIXED_1 / 0xd3094c70f034de4b96ff7d5b6f99fcd8;}\n        if (x >= 0xa45af1e1f40c333b3de1db4dd55f29a7) {res += 0x20000000000000000000000000000000; x = x * FIXED_1 / 0xa45af1e1f40c333b3de1db4dd55f29a7;}\n        if (x >= 0x910b022db7ae67ce76b441c27035c6a1) {res += 0x10000000000000000000000000000000; x = x * FIXED_1 / 0x910b022db7ae67ce76b441c27035c6a1;}\n        if (x >= 0x88415abbe9a76bead8d00cf112e4d4a8) {res += 0x08000000000000000000000000000000; x = x * FIXED_1 / 0x88415abbe9a76bead8d00cf112e4d4a8;}\n        if (x >= 0x84102b00893f64c705e841d5d4064bd3) {res += 0x04000000000000000000000000000000; x = x * FIXED_1 / 0x84102b00893f64c705e841d5d4064bd3;}\n        if (x >= 0x8204055aaef1c8bd5c3259f4822735a2) {res += 0x02000000000000000000000000000000; x = x * FIXED_1 / 0x8204055aaef1c8bd5c3259f4822735a2;}\n        if (x >= 0x810100ab00222d861931c15e39b44e99) {res += 0x01000000000000000000000000000000; x = x * FIXED_1 / 0x810100ab00222d861931c15e39b44e99;}\n        if (x >= 0x808040155aabbbe9451521693554f733) {res += 0x00800000000000000000000000000000; x = x * FIXED_1 / 0x808040155aabbbe9451521693554f733;}\n\n        z = y = x - FIXED_1;\n        w = y * y / FIXED_1;\n        res += z * (0x100000000000000000000000000000000 - y) / 0x100000000000000000000000000000000; z = z * w / FIXED_1;\n        res += z * (0x0aaaaaaaaaaaaaaaaaaaaaaaaaaaaaaaa - y) / 0x200000000000000000000000000000000; z = z * w / FIXED_1;\n        res += z * (0x099999999999999999999999999999999 - y) / 0x300000000000000000000000000000000; z = z * w / FIXED_1;\n        res += z * (0x092492492492492492492492492492492 - y) / 0x400000000000000000000000000000000; z = z * w / FIXED_1;\n        res += z * (0x08e38e38e38e38e38e38e38e38e38e38e - y) / 0x500000000000000000000000000000000; z = z * w / FIXED_1;\n        res += z * (0x08ba2e8ba2e8ba2e8ba2e8ba2e8ba2e8b - y) / 0x600000000000000000000000000000000; z = z * w / FIXED_1;\n        res += z * (0x089d89d89d89d89d89d89d89d89d89d89 - y) / 0x700000000000000000000000000000000; z = z * w / FIXED_1;\n        res += z * (0x088888888888888888888888888888888 - y) / 0x800000000000000000000000000000000;\n\n        return res;\n    }\n\n    \n    function optimalExp(uint256 x) internal pure returns (uint256) {\n        uint256 res = 0;\n\n        uint256 y;\n        uint256 z;\n\n        z = y = x % 0x10000000000000000000000000000000;\n        z = z * y / FIXED_1; res += z * 0x10e1b3be415a0000; \n        z = z * y / FIXED_1; res += z * 0x05a0913f6b1e0000; \n        z = z * y / FIXED_1; res += z * 0x0168244fdac78000; \n        z = z * y / FIXED_1; res += z * 0x004807432bc18000; \n        z = z * y / FIXED_1; res += z * 0x000c0135dca04000; \n        z = z * y / FIXED_1; res += z * 0x0001b707b1cdc000; \n        z = z * y / FIXED_1; res += z * 0x000036e0f639b800; \n        z = z * y / FIXED_1; res += z * 0x00000618fee9f800; \n        z = z * y / FIXED_1; res += z * 0x0000009c197dcc00; \n        z = z * y / FIXED_1; res += z * 0x0000000e30dce400; \n        z = z * y / FIXED_1; res += z * 0x000000012ebd1300; \n        z = z * y / FIXED_1; res += z * 0x0000000017499f00; \n        z = z * y / FIXED_1; res += z * 0x0000000001a9d480; \n        z = z * y / FIXED_1; res += z * 0x00000000001c6380; \n        z = z * y / FIXED_1; res += z * 0x000000000001c638; \n        z = z * y / FIXED_1; res += z * 0x0000000000001ab8; \n        z = z * y / FIXED_1; res += z * 0x000000000000017c; \n        z = z * y / FIXED_1; res += z * 0x0000000000000014; \n        z = z * y / FIXED_1; res += z * 0x0000000000000001; \n        res = res / 0x21c3677c82b40000 + y + FIXED_1; \n\n        if ((x & 0x010000000000000000000000000000000) != 0) res = res * 0x1c3d6a24ed82218787d624d3e5eba95f9 / 0x18ebef9eac820ae8682b9793ac6d1e776;\n        if ((x & 0x020000000000000000000000000000000) != 0) res = res * 0x18ebef9eac820ae8682b9793ac6d1e778 / 0x1368b2fc6f9609fe7aceb46aa619baed4;\n        if ((x & 0x040000000000000000000000000000000) != 0) res = res * 0x1368b2fc6f9609fe7aceb46aa619baed5 / 0x0bc5ab1b16779be3575bd8f0520a9f21f;\n        if ((x & 0x080000000000000000000000000000000) != 0) res = res * 0x0bc5ab1b16779be3575bd8f0520a9f21e / 0x0454aaa8efe072e7f6ddbab84b40a55c9;\n        if ((x & 0x100000000000000000000000000000000) != 0) res = res * 0x0454aaa8efe072e7f6ddbab84b40a55c5 / 0x00960aadc109e7a3bf4578099615711ea;\n        if ((x & 0x200000000000000000000000000000000) != 0) res = res * 0x00960aadc109e7a3bf4578099615711d7 / 0x0002bf84208204f5977f9a8cf01fdce3d;\n        if ((x & 0x400000000000000000000000000000000) != 0) res = res * 0x0002bf84208204f5977f9a8cf01fdc307 / 0x0000003c6ab775dd0b95b4cbee7e65d11;\n\n        return res;\n    }  \n}",
  "sourcePath": "/home/XXX-1/smartrim-experiment/for-rlf/0x371f24324e223a5ca99f26c4993aae53149b2597/contracts/0x371f24324e223a5ca99f26c4993aae53149b2597.sol",
  "compiler": {
    "name": "solc",
    "version": "0.4.25+commit.59dbf8f1.Emscripten.clang"
  },
  "schemaVersion": "3.4.16",
  "updatedAt": "2025-08-14T03:40:05.507Z",
  "devdoc": {
    "methods": {}
  },
  "userdoc": {
    "methods": {}
  }
}