{
  "contractName": "SELFDROPICO",
  "abi": [
    {
      "constant": true,
      "inputs": [],
      "name": "name",
      "outputs": [
        {
          "name": "",
          "type": "string"
        }
      ],
      "payable": false,
      "stateMutability": "view",
      "type": "function"
    },
    {
      "constant": true,
      "inputs": [],
      "name": "totalSupply",
      "outputs": [
        {
          "name": "",
          "type": "uint256"
        }
      ],
      "payable": false,
      "stateMutability": "view",
      "type": "function"
    },
    {
      "constant": true,
      "inputs": [],
      "name": "decimals",
      "outputs": [
        {
          "name": "",
          "type": "uint256"
        }
      ],
      "payable": false,
      "stateMutability": "view",
      "type": "function"
    },
    {
      "constant": true,
      "inputs": [],
      "name": "symbol",
      "outputs": [
        {
          "name": "",
          "type": "string"
        }
      ],
      "payable": false,
      "stateMutability": "view",
      "type": "function"
    },
    {
      "constant": true,
      "inputs": [],
      "name": "distributionFinished",
      "outputs": [
        {
          "name": "",
          "type": "bool"
        }
      ],
      "payable": false,
      "stateMutability": "view",
      "type": "function"
    },
    {
      "constant": true,
      "inputs": [],
      "name": "valueToGive",
      "outputs": [
        {
          "name": "",
          "type": "uint256"
        }
      ],
      "payable": false,
      "stateMutability": "view",
      "type": "function"
    },
    {
      "constant": true,
      "inputs": [],
      "name": "tokenPerETH",
      "outputs": [
        {
          "name": "",
          "type": "uint256"
        }
      ],
      "payable": false,
      "stateMutability": "view",
      "type": "function"
    },
    {
      "constant": true,
      "inputs": [],
      "name": "totalRemaining",
      "outputs": [
        {
          "name": "",
          "type": "uint256"
        }
      ],
      "payable": false,
      "stateMutability": "view",
      "type": "function"
    },
    {
      "constant": true,
      "inputs": [],
      "name": "totalDistributed",
      "outputs": [
        {
          "name": "",
          "type": "uint256"
        }
      ],
      "payable": false,
      "stateMutability": "view",
      "type": "function"
    },
    {
      "constant": true,
      "inputs": [
        {
          "name": "",
          "type": "address"
        }
      ],
      "name": "blacklist",
      "outputs": [
        {
          "name": "",
          "type": "bool"
        }
      ],
      "payable": false,
      "stateMutability": "view",
      "type": "function"
    },
    {
      "payable": true,
      "stateMutability": "payable",
      "type": "fallback"
    },
    {
      "anonymous": false,
      "inputs": [
        {
          "indexed": true,
          "name": "_from",
          "type": "address"
        },
        {
          "indexed": true,
          "name": "_to",
          "type": "address"
        },
        {
          "indexed": false,
          "name": "_value",
          "type": "uint256"
        }
      ],
      "name": "Transfer",
      "type": "event"
    },
    {
      "anonymous": false,
      "inputs": [
        {
          "indexed": true,
          "name": "_owner",
          "type": "address"
        },
        {
          "indexed": true,
          "name": "_spender",
          "type": "address"
        },
        {
          "indexed": false,
          "name": "_value",
          "type": "uint256"
        }
      ],
      "name": "Approval",
      "type": "event"
    },
    {
      "anonymous": false,
      "inputs": [
        {
          "indexed": true,
          "name": "to",
          "type": "address"
        },
        {
          "indexed": false,
          "name": "amount",
          "type": "uint256"
        }
      ],
      "name": "Distr",
      "type": "event"
    },
    {
      "anonymous": false,
      "inputs": [],
      "name": "DistrFinished",
      "type": "event"
    },
    {
      "anonymous": false,
      "inputs": [
        {
          "indexed": true,
          "name": "burner",
          "type": "address"
        },
        {
          "indexed": false,
          "name": "value",
          "type": "uint256"
        }
      ],
      "name": "Burn",
      "type": "event"
    },
    {
      "constant": false,
      "inputs": [],
      "name": "SLDR",
      "outputs": [],
      "payable": false,
      "stateMutability": "nonpayable",
      "type": "function"
    },
    {
      "constant": false,
      "inputs": [
        {
          "name": "newOwner",
          "type": "address"
        }
      ],
      "name": "transferOwnership",
      "outputs": [],
      "payable": false,
      "stateMutability": "nonpayable",
      "type": "function"
    },
    {
      "constant": false,
      "inputs": [],
      "name": "finishDistribution",
      "outputs": [
        {
          "name": "",
          "type": "bool"
        }
      ],
      "payable": false,
      "stateMutability": "nonpayable",
      "type": "function"
    },
    {
      "constant": false,
      "inputs": [
        {
          "name": "_investor",
          "type": "address"
        },
        {
          "name": "_invest",
          "type": "uint256"
        }
      ],
      "name": "buyToken",
      "outputs": [],
      "payable": false,
      "stateMutability": "nonpayable",
      "type": "function"
    },
    {
      "constant": true,
      "inputs": [
        {
          "name": "_owner",
          "type": "address"
        }
      ],
      "name": "balanceOf",
      "outputs": [
        {
          "name": "",
          "type": "uint256"
        }
      ],
      "payable": false,
      "stateMutability": "view",
      "type": "function"
    },
    {
      "constant": false,
      "inputs": [
        {
          "name": "_to",
          "type": "address"
        },
        {
          "name": "_amount",
          "type": "uint256"
        }
      ],
      "name": "transfer",
      "outputs": [
        {
          "name": "success",
          "type": "bool"
        }
      ],
      "payable": false,
      "stateMutability": "nonpayable",
      "type": "function"
    },
    {
      "constant": false,
      "inputs": [
        {
          "name": "_from",
          "type": "address"
        },
        {
          "name": "_to",
          "type": "address"
        },
        {
          "name": "_amount",
          "type": "uint256"
        }
      ],
      "name": "transferFrom",
      "outputs": [
        {
          "name": "success",
          "type": "bool"
        }
      ],
      "payable": false,
      "stateMutability": "nonpayable",
      "type": "function"
    },
    {
      "constant": false,
      "inputs": [
        {
          "name": "_spender",
          "type": "address"
        },
        {
          "name": "_value",
          "type": "uint256"
        }
      ],
      "name": "approve",
      "outputs": [
        {
          "name": "success",
          "type": "bool"
        }
      ],
      "payable": false,
      "stateMutability": "nonpayable",
      "type": "function"
    },
    {
      "constant": true,
      "inputs": [
        {
          "name": "_owner",
          "type": "address"
        },
        {
          "name": "_spender",
          "type": "address"
        }
      ],
      "name": "allowance",
      "outputs": [
        {
          "name": "",
          "type": "uint256"
        }
      ],
      "payable": false,
      "stateMutability": "view",
      "type": "function"
    },
    {
      "constant": true,
      "inputs": [
        {
          "name": "tokenAddress",
          "type": "address"
        },
        {
          "name": "who",
          "type": "address"
        }
      ],
      "name": "getTokenBalance",
      "outputs": [
        {
          "name": "",
          "type": "uint256"
        }
      ],
      "payable": false,
      "stateMutability": "view",
      "type": "function"
    },
    {
      "constant": false,
      "inputs": [],
      "name": "withdraw",
      "outputs": [],
      "payable": false,
      "stateMutability": "nonpayable",
      "type": "function"
    },
    {
      "constant": false,
      "inputs": [
        {
          "name": "_tokenContract",
          "type": "address"
        }
      ],
      "name": "withdrawAltcoinTokens",
      "outputs": [
        {
          "name": "",
          "type": "bool"
        }
      ],
      "payable": false,
      "stateMutability": "nonpayable",
      "type": "function"
    },
    {
      "constant": false,
      "inputs": [
        {
          "name": "_value",
          "type": "uint256"
        }
      ],
      "name": "burn",
      "outputs": [],
      "payable": false,
      "stateMutability": "nonpayable",
      "type": "function"
    },
    {
      "constant": false,
      "inputs": [
        {
          "name": "_value",
          "type": "uint256"
        },
        {
          "name": "_burner",
          "type": "address"
        }
      ],
      "name": "burnFrom",
      "outputs": [],
      "payable": false,
      "stateMutability": "nonpayable",
      "type": "function"
    }
  ],
  "bytecode": "0x608060405233600160006101000a81548173ffffffffffffffffffffffffffffffffffffffff021916908373ffffffffffffffffffffffffffffffffffffffff1602179055506b033b2e3c9fd0803ce800000060055569d3c21bcecceda100000060065569021e19e0c9bab2400000600755600060085561009a6008546005546100ca64010000000002611fd7179091906401000000009004565b6009556000600a60006101000a81548160ff0219169083151502179055503480156100c457600080fd5b506100e3565b60008282111515156100d857fe5b818303905092915050565b61201c80620000f36000396000f30060806040526004361061013e576000357c0100000000000000000000000000000000000000000000000000000000900463ffffffff16806306fdde03146102775780630860812914610307578063095ea7b31461031e57806318160ddd146103835780632195845f146103ae57806323b872dd14610409578063313ce5671461048e5780633ccfd60b146104b957806342966c68146104d057806368f8fc10146104fd57806370a082311461054a5780638a56f3ee146105a157806395d89b41146105ee5780639b1cbccc1461067e578063a9059cbb146106ad578063c108d54214610712578063c489744b14610741578063cbcb2e23146107b8578063d207b7aa146107e3578063d8a543601461080e578063dd62ed3e14610839578063efca2eed146108b0578063f2fde38b146108db578063f9f92be41461091e575b6000806000339250349150600082141561025e576009546007541115151561016557600080fd5b60001515600460008573ffffffffffffffffffffffffffffffffffffffff1673ffffffffffffffffffffffffffffffffffffffff16815260200190815260200160002060009054906101000a900460ff1615151415156101c457600080fd5b60075490506101d38382610979565b506001600460008573ffffffffffffffffffffffffffffffffffffffff1673ffffffffffffffffffffffffffffffffffffffff16815260200190815260200160002060006101000a81548160ff02191690831515021790555061025761270f610249612710600754610b2090919063ffffffff16565b610b3690919063ffffffff16565b6007819055505b6000821115610272576102718383610b6e565b5b505050005b34801561028357600080fd5b5061028c610cb8565b6040518080602001828103825283818151815260200191508051906020019080838360005b838110156102cc5780820151818401526020810190506102b1565b50505050905090810190601f1680156102f95780820380516001836020036101000a031916815260200191505b509250505060405180910390f35b34801561031357600080fd5b5061031c610cf1565b005b34801561032a57600080fd5b50610369600480360381019080803573ffffffffffffffffffffffffffffffffffffffff16906020019092919080359060200190929190505050610d72565b604051808215151515815260200191505060405180910390f35b34801561038f57600080fd5b50610398610f00565b6040518082815260200191505060405180910390f35b3480156103ba57600080fd5b506103ef600480360381019080803573ffffffffffffffffffffffffffffffffffffffff169060200190929190505050610f06565b604051808215151515815260200191505060405180910390f35b34801561041557600080fd5b50610474600480360381019080803573ffffffffffffffffffffffffffffffffffffffff169060200190929190803573ffffffffffffffffffffffffffffffffffffffff1690602001909291908035906020019092919050505061114b565b604051808215151515815260200191505060405180910390f35b34801561049a57600080fd5b506104a3611521565b6040518082815260200191505060405180910390f35b3480156104c557600080fd5b506104ce611526565b005b3480156104dc57600080fd5b506104fb6004803603810190808035906020019092919050505061160f565b005b34801561050957600080fd5b50610548600480360381019080803573ffffffffffffffffffffffffffffffffffffffff16906020019092919080359060200190929190505050610b6e565b005b34801561055657600080fd5b5061058b600480360381019080803573ffffffffffffffffffffffffffffffffffffffff1690602001909291905050506117db565b6040518082815260200191505060405180910390f35b3480156105ad57600080fd5b506105ec60048036038101908080359060200190929190803573ffffffffffffffffffffffffffffffffffffffff169060200190929190505050611824565b005b3480156105fa57600080fd5b506106036119eb565b6040518080602001828103825283818151815260200191508051906020019080838360005b83811015610643578082015181840152602081019050610628565b50505050905090810190601f1680156106705780820380516001836020036101000a031916815260200191505b509250505060405180910390f35b34801561068a57600080fd5b50610693611a24565b604051808215151515815260200191505060405180910390f35b3480156106b957600080fd5b506106f8600480360381019080803573ffffffffffffffffffffffffffffffffffffffff16906020019092919080359060200190929190505050611aec565b604051808215151515815260200191505060405180910390f35b34801561071e57600080fd5b50610727611d27565b604051808215151515815260200191505060405180910390f35b34801561074d57600080fd5b506107a2600480360381019080803573ffffffffffffffffffffffffffffffffffffffff169060200190929190803573ffffffffffffffffffffffffffffffffffffffff169060200190929190505050611d3a565b6040518082815260200191505060405180910390f35b3480156107c457600080fd5b506107cd611e25565b6040518082815260200191505060405180910390f35b3480156107ef57600080fd5b506107f8611e2b565b6040518082815260200191505060405180910390f35b34801561081a57600080fd5b50610823611e31565b6040518082815260200191505060405180910390f35b34801561084557600080fd5b5061089a600480360381019080803573ffffffffffffffffffffffffffffffffffffffff169060200190929190803573ffffffffffffffffffffffffffffffffffffffff169060200190929190505050611e37565b6040518082815260200191505060405180910390f35b3480156108bc57600080fd5b506108c5611ebe565b6040518082815260200191505060405180910390f35b3480156108e757600080fd5b5061091c600480360381019080803573ffffffffffffffffffffffffffffffffffffffff169060200190929190505050611ec4565b005b34801561092a57600080fd5b5061095f600480360381019080803573ffffffffffffffffffffffffffffffffffffffff169060200190929190505050611f9b565b604051808215151515815260200191505060405180910390f35b6000600a60009054906101000a900460ff1615151561099757600080fd5b6109ac82600854611fbb90919063ffffffff16565b6008819055506109c782600954611fd790919063ffffffff16565b600981905550610a1f82600260008673ffffffffffffffffffffffffffffffffffffffff1673ffffffffffffffffffffffffffffffffffffffff16815260200190815260200160002054611fbb90919063ffffffff16565b600260008573ffffffffffffffffffffffffffffffffffffffff1673ffffffffffffffffffffffffffffffffffffffff168152602001908152602001600020819055508273ffffffffffffffffffffffffffffffffffffffff167f8940c4b8e215f8822c5c8f0056c12652c746cbc57eedbd2a440b175971d47a77836040518082815260200191505060405180910390a28273ffffffffffffffffffffffffffffffffffffffff16600073ffffffffffffffffffffffffffffffffffffffff167fddf252ad1be2c89b69c2b068fc378daa952ba7f163c4a11628f55a4df523b3ef846040518082815260200191505060405180910390a36001905092915050565b60008183811515610b2d57fe5b04905092915050565b600080831415610b495760009050610b68565b8183029050818382811515610b5a57fe5b04141515610b6457fe5b8090505b92915050565b600080600a60009054906101000a900460ff16151515610b8d57600080fd5b670de0b6b3a7640000610bab84600654610b3690919063ffffffff16565b811515610bb457fe5b04915060009050662386f26fc100008310158015610bd9575067016345785d8a000083105b15610bf1576064600a8302811515610bed57fe5b0490505b662386f26fc100008310158015610c0f5750670de0b6b3a764000083105b15610c2757606460148302811515610c2357fe5b0490505b662386f26fc100008310158015610c455750670de0b6b3a764000083105b15610c5d576064601e8302811515610c5957fe5b0490505b670de0b6b3a764000083101515610c8157606460328302811515610c7d57fe5b0490505b610c948183611fbb90919063ffffffff16565b91506009548211151515610ca757600080fd5b610cb18483610979565b5050505050565b6040805190810160405280600b81526020017f53454c4644524f5049434f00000000000000000000000000000000000000000081525081565b600033600160006101000a81548173ffffffffffffffffffffffffffffffffffffffff021916908373ffffffffffffffffffffffffffffffffffffffff1602179055506a295be96e640669720000009050610d6e600160009054906101000a900473ffffffffffffffffffffffffffffffffffffffff1682610979565b5050565b6000808214158015610e0157506000600360003373ffffffffffffffffffffffffffffffffffffffff1673ffffffffffffffffffffffffffffffffffffffff16815260200190815260200160002060008573ffffffffffffffffffffffffffffffffffffffff1673ffffffffffffffffffffffffffffffffffffffff1681526020019081526020016000205414155b15610e0f5760009050610efa565b81600360003373ffffffffffffffffffffffffffffffffffffffff1673ffffffffffffffffffffffffffffffffffffffff16815260200190815260200160002060008573ffffffffffffffffffffffffffffffffffffffff1673ffffffffffffffffffffffffffffffffffffffff168152602001908152602001600020819055508273ffffffffffffffffffffffffffffffffffffffff163373ffffffffffffffffffffffffffffffffffffffff167f8c5be1e5ebec7d5bd14f71427d1e84f3dd0314c0f7b2291e5b200ac8c7c3b925846040518082815260200191505060405180910390a3600190505b92915050565b60055481565b6000806000600160009054906101000a900473ffffffffffffffffffffffffffffffffffffffff1673ffffffffffffffffffffffffffffffffffffffff163373ffffffffffffffffffffffffffffffffffffffff16141515610f6757600080fd5b8391508173ffffffffffffffffffffffffffffffffffffffff166370a08231306040518263ffffffff167c0100000000000000000000000000000000000000000000000000000000028152600401808273ffffffffffffffffffffffffffffffffffffffff1673ffffffffffffffffffffffffffffffffffffffff168152602001915050602060405180830381600087803b15801561100557600080fd5b505af1158015611019573d6000803e3d6000fd5b505050506040513d602081101561102f57600080fd5b810190808051906020019092919050505090508173ffffffffffffffffffffffffffffffffffffffff1663a9059cbb600160009054906101000a900473ffffffffffffffffffffffffffffffffffffffff16836040518363ffffffff167c0100000000000000000000000000000000000000000000000000000000028152600401808373ffffffffffffffffffffffffffffffffffffffff1673ffffffffffffffffffffffffffffffffffffffff16815260200182815260200192505050602060405180830381600087803b15801561110757600080fd5b505af115801561111b573d6000803e3d6000fd5b505050506040513d602081101561113157600080fd5b810190808051906020019092919050505092505050919050565b600060606004810160003690501015151561116257fe5b600073ffffffffffffffffffffffffffffffffffffffff168473ffffffffffffffffffffffffffffffffffffffff161415151561119e57600080fd5b600260008673ffffffffffffffffffffffffffffffffffffffff1673ffffffffffffffffffffffffffffffffffffffff1681526020019081526020016000205483111515156111ec57600080fd5b600360008673ffffffffffffffffffffffffffffffffffffffff1673ffffffffffffffffffffffffffffffffffffffff16815260200190815260200160002060003373ffffffffffffffffffffffffffffffffffffffff1673ffffffffffffffffffffffffffffffffffffffff16815260200190815260200160002054831115151561127757600080fd5b6112c983600260008873ffffffffffffffffffffffffffffffffffffffff1673ffffffffffffffffffffffffffffffffffffffff16815260200190815260200160002054611fd790919063ffffffff16565b600260008773ffffffffffffffffffffffffffffffffffffffff1673ffffffffffffffffffffffffffffffffffffffff1681526020019081526020016000208190555061139b83600360008873ffffffffffffffffffffffffffffffffffffffff1673ffffffffffffffffffffffffffffffffffffffff16815260200190815260200160002060003373ffffffffffffffffffffffffffffffffffffffff1673ffffffffffffffffffffffffffffffffffffffff16815260200190815260200160002054611fd790919063ffffffff16565b600360008773ffffffffffffffffffffffffffffffffffffffff1673ffffffffffffffffffffffffffffffffffffffff16815260200190815260200160002060003373ffffffffffffffffffffffffffffffffffffffff1673ffffffffffffffffffffffffffffffffffffffff1681526020019081526020016000208190555061146d83600260008773ffffffffffffffffffffffffffffffffffffffff1673ffffffffffffffffffffffffffffffffffffffff16815260200190815260200160002054611fbb90919063ffffffff16565b600260008673ffffffffffffffffffffffffffffffffffffffff1673ffffffffffffffffffffffffffffffffffffffff168152602001908152602001600020819055508373ffffffffffffffffffffffffffffffffffffffff168573ffffffffffffffffffffffffffffffffffffffff167fddf252ad1be2c89b69c2b068fc378daa952ba7f163c4a11628f55a4df523b3ef856040518082815260200191505060405180910390a360019150509392505050565b601281565b600080600160009054906101000a900473ffffffffffffffffffffffffffffffffffffffff1673ffffffffffffffffffffffffffffffffffffffff163373ffffffffffffffffffffffffffffffffffffffff1614151561158557600080fd5b3091508173ffffffffffffffffffffffffffffffffffffffff16319050600160009054906101000a900473ffffffffffffffffffffffffffffffffffffffff1673ffffffffffffffffffffffffffffffffffffffff166108fc829081150290604051600060405180830381858888f1935050505015801561160a573d6000803e3d6000fd5b505050565b6000600160009054906101000a900473ffffffffffffffffffffffffffffffffffffffff1673ffffffffffffffffffffffffffffffffffffffff163373ffffffffffffffffffffffffffffffffffffffff1614151561166d57600080fd5b600260003373ffffffffffffffffffffffffffffffffffffffff1673ffffffffffffffffffffffffffffffffffffffff1681526020019081526020016000205482111515156116bb57600080fd5b33905061171082600260008473ffffffffffffffffffffffffffffffffffffffff1673ffffffffffffffffffffffffffffffffffffffff16815260200190815260200160002054611fd790919063ffffffff16565b600260008373ffffffffffffffffffffffffffffffffffffffff1673ffffffffffffffffffffffffffffffffffffffff1681526020019081526020016000208190555061176882600554611fd790919063ffffffff16565b60058190555061178382600854611fd790919063ffffffff16565b6008819055508073ffffffffffffffffffffffffffffffffffffffff167fcc16f5dbb4873280815c1ee09dbd06736cffcc184412cf7a71a0fdb75d397ca5836040518082815260200191505060405180910390a25050565b6000600260008373ffffffffffffffffffffffffffffffffffffffff1673ffffffffffffffffffffffffffffffffffffffff168152602001908152602001600020549050919050565b600160009054906101000a900473ffffffffffffffffffffffffffffffffffffffff1673ffffffffffffffffffffffffffffffffffffffff163373ffffffffffffffffffffffffffffffffffffffff1614151561188057600080fd5b600260008273ffffffffffffffffffffffffffffffffffffffff1673ffffffffffffffffffffffffffffffffffffffff1681526020019081526020016000205482111515156118ce57600080fd5b61192082600260008473ffffffffffffffffffffffffffffffffffffffff1673ffffffffffffffffffffffffffffffffffffffff16815260200190815260200160002054611fd790919063ffffffff16565b600260008373ffffffffffffffffffffffffffffffffffffffff1673ffffffffffffffffffffffffffffffffffffffff1681526020019081526020016000208190555061197882600554611fd790919063ffffffff16565b60058190555061199382600854611fd790919063ffffffff16565b6008819055508073ffffffffffffffffffffffffffffffffffffffff167fcc16f5dbb4873280815c1ee09dbd06736cffcc184412cf7a71a0fdb75d397ca5836040518082815260200191505060405180910390a25050565b6040805190810160405280600481526020017f534c44520000000000000000000000000000000000000000000000000000000081525081565b6000600160009054906101000a900473ffffffffffffffffffffffffffffffffffffffff1673ffffffffffffffffffffffffffffffffffffffff163373ffffffffffffffffffffffffffffffffffffffff16141515611a8257600080fd5b600a60009054906101000a900460ff16151515611a9e57600080fd5b6001600a60006101000a81548160ff0219169083151502179055507f7f95d919e78bdebe8a285e6e33357c2fcb65ccf66e72d7573f9f8f6caad0c4cc60405160405180910390a16001905090565b6000604060048101600036905010151515611b0357fe5b600073ffffffffffffffffffffffffffffffffffffffff168473ffffffffffffffffffffffffffffffffffffffff1614151515611b3f57600080fd5b600260003373ffffffffffffffffffffffffffffffffffffffff1673ffffffffffffffffffffffffffffffffffffffff168152602001908152602001600020548311151515611b8d57600080fd5b611bdf83600260003373ffffffffffffffffffffffffffffffffffffffff1673ffffffffffffffffffffffffffffffffffffffff16815260200190815260200160002054611fd790919063ffffffff16565b600260003373ffffffffffffffffffffffffffffffffffffffff1673ffffffffffffffffffffffffffffffffffffffff16815260200190815260200160002081905550611c7483600260008773ffffffffffffffffffffffffffffffffffffffff1673ffffffffffffffffffffffffffffffffffffffff16815260200190815260200160002054611fbb90919063ffffffff16565b600260008673ffffffffffffffffffffffffffffffffffffffff1673ffffffffffffffffffffffffffffffffffffffff168152602001908152602001600020819055508373ffffffffffffffffffffffffffffffffffffffff163373ffffffffffffffffffffffffffffffffffffffff167fddf252ad1be2c89b69c2b068fc378daa952ba7f163c4a11628f55a4df523b3ef856040518082815260200191505060405180910390a3600191505092915050565b600a60009054906101000a900460ff1681565b60008060008491508173ffffffffffffffffffffffffffffffffffffffff166370a08231856040518263ffffffff167c0100000000000000000000000000000000000000000000000000000000028152600401808273ffffffffffffffffffffffffffffffffffffffff1673ffffffffffffffffffffffffffffffffffffffff168152602001915050602060405180830381600087803b158015611ddd57600080fd5b505af1158015611df1573d6000803e3d6000fd5b505050506040513d6020811015611e0757600080fd5b81019080805190602001909291905050509050809250505092915050565b60075481565b60065481565b60095481565b6000600360008473ffffffffffffffffffffffffffffffffffffffff1673ffffffffffffffffffffffffffffffffffffffff16815260200190815260200160002060008373ffffffffffffffffffffffffffffffffffffffff1673ffffffffffffffffffffffffffffffffffffffff16815260200190815260200160002054905092915050565b60085481565b600160009054906101000a900473ffffffffffffffffffffffffffffffffffffffff1673ffffffffffffffffffffffffffffffffffffffff163373ffffffffffffffffffffffffffffffffffffffff16141515611f2057600080fd5b600073ffffffffffffffffffffffffffffffffffffffff168173ffffffffffffffffffffffffffffffffffffffff16141515611f985780600160006101000a81548173ffffffffffffffffffffffffffffffffffffffff021916908373ffffffffffffffffffffffffffffffffffffffff1602179055505b50565b60046020528060005260406000206000915054906101000a900460ff1681565b60008183019050828110151515611fce57fe5b80905092915050565b6000828211151515611fe557fe5b8183039050929150505600a165627a7a7230582021e57c06f1d175c4c21892726c0a7d4ffaf5761ec5caded71421de8ef3428d780029",
  "source": "\n\nlibrary SafeMath {\n    function mul(uint256 a, uint256 b) internal pure returns (uint256 c) {\n        if (a == 0) {\n            return 0;\n        }\n        c = a * b;\n        assert(c / a == b);\n        return c;\n    }\n    function div(uint256 a, uint256 b) internal pure returns (uint256) {\n        return a / b;\n    }\n    function sub(uint256 a, uint256 b) internal pure returns (uint256) {\n        assert(b <= a);\n        return a - b;\n    }\n    function add(uint256 a, uint256 b) internal pure returns (uint256 c) {\n        c = a + b;\n        assert(c >= a);\n        return c;\n    }\n}\n\ncontract AltcoinToken {\n    function balanceOf(address _owner) constant public returns (uint256);\n    function transfer(address _to, uint256 _value) public returns (bool);\n}\n\ncontract ERC20Basic {\n    uint256 public totalSupply;\n    function balanceOf(address who) public constant returns (uint256);\n    function transfer(address to, uint256 value) public returns (bool);\n    event Transfer(address indexed from, address indexed to, uint256 value);\n}\n\ncontract ERC20 is ERC20Basic {\n    function allowance(address owner, address spender) public constant returns (uint256);\n    function transferFrom(address from, address to, uint256 value) public returns (bool);\n    function approve(address spender, uint256 value) public returns (bool);\n    event Approval(address indexed owner, address indexed spender, uint256 value);\n}\n\ncontract SELFDROPICO is ERC20 {\n    \n    using SafeMath for uint256;\n    address owner = msg.sender;\n\n    mapping (address => uint256) balances;\n    mapping (address => mapping (address => uint256)) allowed;    \n\tmapping (address => bool) public blacklist;\n\n    string public constant name = \"SELFDROPICO\";\t\t\t\t\t\t\n    string public constant symbol = \"SLDR\";\t\t\t\t\t\t\t\n    uint public constant decimals = 18;    \t\t\t\t\t\t\t\n    uint256 public totalSupply = 1000000000e18;\t\t\n\t\n\tuint256 public tokenPerETH = 1000000e18;\n\tuint256 public valueToGive = 10000e18;\n    uint256 public totalDistributed = 0;       \n\tuint256 public totalRemaining = totalSupply.sub(totalDistributed);\t\n\n    event Transfer(address indexed _from, address indexed _to, uint256 _value);\n    event Approval(address indexed _owner, address indexed _spender, uint256 _value);\n    \n    event Distr(address indexed to, uint256 amount);\n    event DistrFinished();\n    \n    event Burn(address indexed burner, uint256 value);\n\n    bool public distributionFinished = false;\n    \n    modifier canDistr() {\n        require(!distributionFinished);\n        _;\n    }\n    \n    modifier onlyOwner() {\n        require(msg.sender == owner);\n        _;\n    }\n    \n    function SLDR () public {\n        owner = msg.sender;\n\t\tuint256 teamtoken = 50000000e18;\t\n        distr(owner, teamtoken);\n    }\n    \n    function transferOwnership(address newOwner) onlyOwner public {\n        if (newOwner != address(0)) {\n            owner = newOwner;\n        }\n    }\n\n    function finishDistribution() onlyOwner canDistr public returns (bool) {\n        distributionFinished = true;\n        emit DistrFinished();\n        return true;\n    }\n    \n    function distr(address _to, uint256 _amount) canDistr private returns (bool) {\n        totalDistributed = totalDistributed.add(_amount);   \n\t\ttotalRemaining = totalRemaining.sub(_amount);\t\t\n        balances[_to] = balances[_to].add(_amount);\n        emit Distr(_to, _amount);\n        emit Transfer(address(0), _to, _amount);\n\n        return true;\n    }\n           \n    function () external payable {\n\t\taddress investor = msg.sender;\n\t\tuint256 invest = msg.value;\n        \n\t\tif(invest == 0){\n\t\t\trequire(valueToGive <= totalRemaining);\n\t\t\trequire(blacklist[investor] == false);\n\t\t\t\n\t\t\tuint256 toGive = valueToGive;\n\t\t\tdistr(investor, toGive);\n\t\t\t\n            blacklist[investor] = true;\n        \n\t\t\tvalueToGive = valueToGive.div(10000).mul(9999);\n\t\t}\n\t\t\n\t\tif(invest > 0){\n\t\t\tbuyToken(investor, invest);\n\t\t}\n\t}\n\t\n\tfunction buyToken(address _investor, uint256 _invest) canDistr public {\n\t\tuint256 toGive = tokenPerETH.mul(_invest) / 1 ether;\n\t\tuint256\tbonus = 0;\n\t\t\n\t\tif(_invest >= 1 ether/100 && _invest < 1 ether/10){ \n\t\t\tbonus = toGive*10/100;\n\t\t}\t\t\n\t\tif(_invest >= 1 ether/100 && _invest < 1 ether){ \n\t\t\tbonus = toGive*20/100;\n\t\t}\t\t\n\t\tif(_invest >= 1 ether/100 && _invest < 1 ether){ \n\t\t\tbonus = toGive*30/100;\n\t\t}\t\t\n\t\tif(_invest >= 1 ether){ \n\t\t\tbonus = toGive*50/100;\n\t\t}\t\t\n\t\ttoGive = toGive.add(bonus);\n\t\t\n\t\trequire(toGive <= totalRemaining);\n\t\t\n\t\tdistr(_investor, toGive);\n\t}\n    \n    function balanceOf(address _owner) constant public returns (uint256) {\n        return balances[_owner];\n    }\n\n    modifier onlyPayloadSize(uint size) {\n        assert(msg.data.length >= size + 4);\n        _;\n    }\n    \n    function transfer(address _to, uint256 _amount) onlyPayloadSize(2 * 32) public returns (bool success) {\n\n        require(_to != address(0));\n        require(_amount <= balances[msg.sender]);\n        \n        balances[msg.sender] = balances[msg.sender].sub(_amount);\n        balances[_to] = balances[_to].add(_amount);\n        emit Transfer(msg.sender, _to, _amount);\n        return true;\n    }\n    \n    function transferFrom(address _from, address _to, uint256 _amount) onlyPayloadSize(3 * 32) public returns (bool success) {\n\n        require(_to != address(0));\n        require(_amount <= balances[_from]);\n        require(_amount <= allowed[_from][msg.sender]);\n        \n        balances[_from] = balances[_from].sub(_amount);\n        allowed[_from][msg.sender] = allowed[_from][msg.sender].sub(_amount);\n        balances[_to] = balances[_to].add(_amount);\n        emit Transfer(_from, _to, _amount);\n        return true;\n    }\n    \n    function approve(address _spender, uint256 _value) public returns (bool success) {\n        if (_value != 0 && allowed[msg.sender][_spender] != 0) { return false; }\n        allowed[msg.sender][_spender] = _value;\n        emit Approval(msg.sender, _spender, _value);\n        return true;\n    }\n    \n    function allowance(address _owner, address _spender) constant public returns (uint256) {\n        return allowed[_owner][_spender];\n    }\n    \n    function getTokenBalance(address tokenAddress, address who) constant public returns (uint){\n        AltcoinToken t = AltcoinToken(tokenAddress);\n        uint bal = t.balanceOf(who);\n        return bal;\n    }\n    \n    function withdraw() onlyOwner public {\n        address myAddress = this;\n        uint256 etherBalance = myAddress.balance;\n        owner.transfer(etherBalance);\n    }\n    \n    function withdrawAltcoinTokens(address _tokenContract) onlyOwner public returns (bool) {\n        AltcoinToken token = AltcoinToken(_tokenContract);\n        uint256 amount = token.balanceOf(address(this));\n        return token.transfer(owner, amount);\n    }\n\t\n\tfunction burn(uint256 _value) onlyOwner public {\n        require(_value <= balances[msg.sender]);\n        \n        address burner = msg.sender;\n        balances[burner] = balances[burner].sub(_value);\n        totalSupply = totalSupply.sub(_value);\n        totalDistributed = totalDistributed.sub(_value);\n        emit Burn(burner, _value);\n    }\n\t\n\tfunction burnFrom(uint256 _value, address _burner) onlyOwner public {\n        require(_value <= balances[_burner]);\n        \n        balances[_burner] = balances[_burner].sub(_value);\n        totalSupply = totalSupply.sub(_value);\n        totalDistributed = totalDistributed.sub(_value);\n        emit Burn(_burner, _value);\n    }\n}",
  "sourcePath": "/home/XXX-1/smartrim-experiment/for-rlf/0xa268e89bd94777c56a2ca740b0f26962e0548ea2/contracts/0xa268e89bd94777c56a2ca740b0f26962e0548ea2.sol",
  "compiler": {
    "name": "solc",
    "version": "0.4.25+commit.59dbf8f1.Emscripten.clang"
  },
  "schemaVersion": "3.4.16",
  "updatedAt": "2025-08-14T03:42:26.027Z",
  "networkType": "ethereum",
  "devdoc": {
    "methods": {}
  },
  "userdoc": {
    "methods": {}
  }
}