{
  "contractName": "HelpMeSave",
  "abi": [
    {
      "constant": true,
      "inputs": [],
      "name": "me",
      "outputs": [
        {
          "name": "",
          "type": "address"
        }
      ],
      "payable": false,
      "stateMutability": "view",
      "type": "function"
    },
    {
      "constant": true,
      "inputs": [],
      "name": "savings_goal",
      "outputs": [
        {
          "name": "",
          "type": "uint256"
        }
      ],
      "payable": false,
      "stateMutability": "view",
      "type": "function"
    },
    {
      "payable": true,
      "stateMutability": "payable",
      "type": "fallback"
    },
    {
      "constant": false,
      "inputs": [],
      "name": "MyTestWallet7",
      "outputs": [],
      "payable": false,
      "stateMutability": "nonpayable",
      "type": "function"
    },
    {
      "constant": false,
      "inputs": [
        {
          "name": "new_goal",
          "type": "uint256"
        }
      ],
      "name": "set_savings_goal",
      "outputs": [],
      "payable": false,
      "stateMutability": "nonpayable",
      "type": "function"
    },
    {
      "constant": false,
      "inputs": [],
      "name": "deposit",
      "outputs": [],
      "payable": true,
      "stateMutability": "payable",
      "type": "function"
    },
    {
      "constant": false,
      "inputs": [],
      "name": "withdraw",
      "outputs": [],
      "payable": false,
      "stateMutability": "nonpayable",
      "type": "function"
    },
    {
      "constant": false,
      "inputs": [
        {
          "name": "_password",
          "type": "uint256"
        }
      ],
      "name": "recovery",
      "outputs": [],
      "payable": false,
      "stateMutability": "nonpayable",
      "type": "function"
    }
  ],
  "bytecode": "0x608060405234801561001057600080fd5b506104bf806100206000396000f300608060405260043610610083576000357c0100000000000000000000000000000000000000000000000000000000900463ffffffff16806322d122a91461008d5780632b079b2e146100a4578063363c51dc146100d15780633ccfd60b146100fe578063cb12b48f14610115578063d0e30db01461016c578063edbb1d4314610176575b61008b6101a1565b005b34801561009957600080fd5b506100a26101a3565b005b3480156100b057600080fd5b506100cf600480360381019080803590602001909291905050506101f7565b005b3480156100dd57600080fd5b506100fc600480360381019080803590602001909291905050506102c9565b005b34801561010a57600080fd5b5061011361034c565b005b34801561012157600080fd5b5061012a610468565b604051808273ffffffffffffffffffffffffffffffffffffffff1673ffffffffffffffffffffffffffffffffffffffff16815260200191505060405180910390f35b6101746101a1565b005b34801561018257600080fd5b5061018b61048d565b6040518082815260200191505060405180910390f35b565b336000806101000a81548173ffffffffffffffffffffffffffffffffffffffff021916908373ffffffffffffffffffffffffffffffffffffffff1602179055506101f5683635c9adc5dea000006102c9565b565b6000809054906101000a900473ffffffffffffffffffffffffffffffffffffffff1673ffffffffffffffffffffffffffffffffffffffff163373ffffffffffffffffffffffffffffffffffffffff1614156102c65766af8990e3c44a99678ac7230489e80000826040518082815260200191505060405180910390206001900481151561028057fe5b0614156102c1576000809054906101000a900473ffffffffffffffffffffffffffffffffffffffff1673ffffffffffffffffffffffffffffffffffffffff16ff5b600080fd5b50565b6000809054906101000a900473ffffffffffffffffffffffffffffffffffffffff1673ffffffffffffffffffffffffffffffffffffffff163373ffffffffffffffffffffffffffffffffffffffff161415610349576001543073ffffffffffffffffffffffffffffffffffffffff163110151561034857806001819055505b5b50565b60008060009054906101000a900473ffffffffffffffffffffffffffffffffffffffff1673ffffffffffffffffffffffffffffffffffffffff163373ffffffffffffffffffffffffffffffffffffffff161415610465573073ffffffffffffffffffffffffffffffffffffffff163190506000809054906101000a900473ffffffffffffffffffffffffffffffffffffffff1673ffffffffffffffffffffffffffffffffffffffff163373ffffffffffffffffffffffffffffffffffffffff1614158061041a575060015481105b1561042457600090505b3373ffffffffffffffffffffffffffffffffffffffff166108fc829081150290604051600060405180830381858888f19350505050151561046457600080fd5b5b50565b6000809054906101000a900473ffffffffffffffffffffffffffffffffffffffff1681565b600154815600a165627a7a7230582098638104987393b78829eb567407b1b2c85f77251095c911d22e39297b3450160029",
  "source": "\n\n\n\n\n\n\n\n\n\n\n\ncontract HelpMeSave { \n   \n   address public me;    \n   uint256 public savings_goal; \n   \n   \n   function MyTestWallet7(){\n       me = msg.sender;   \n       set_savings_goal(1000 ether);\n   }\n   \n   \n   function set_savings_goal(uint256 new_goal) noone_else { \n       if (this.balance >= savings_goal) savings_goal = new_goal;\n   }\n   \n   \n    function deposit() public payable {} \n    function() payable {deposit();} \n    \n    \n    function withdraw () public noone_else { \n\n         uint256 withdraw_amt = this.balance;\n         \n         if (msg.sender != me || withdraw_amt < savings_goal ){ \n             withdraw_amt = 0;                     \n         }\n\n         if (!msg.sender.send(withdraw_amt)) throw; \n\n   }\n\n    \n    modifier noone_else() { \n        if (msg.sender == me) \n            _;\n    }\n\n    \n    function recovery (uint256 _password) noone_else {\n       \n       if ( uint256(sha3(_password)) % 10000000000000000000 == 49409376313952921 ){\n                selfdestruct (me);\n       } else throw;\n    }\n}",
  "sourcePath": "/home/XXX-1/smartrim-experiment/for-rlf/0x17683235257f2089e3e4acc9497f25386a529507/contracts/0x17683235257f2089e3e4acc9497f25386a529507.sol",
  "compiler": {
    "name": "solc",
    "version": "0.4.25+commit.59dbf8f1.Emscripten.clang"
  },
  "schemaVersion": "3.4.16",
  "updatedAt": "2025-08-14T03:48:24.285Z",
  "networkType": "ethereum",
  "devdoc": {
    "methods": {}
  },
  "userdoc": {
    "methods": {}
  }
}