{
  "contractName": "Auctionify",
  "abi": [
    {
      "constant": false,
      "inputs": [],
      "name": "bid",
      "outputs": [],
      "payable": true,
      "stateMutability": "payable",
      "type": "function"
    },
    {
      "constant": true,
      "inputs": [],
      "name": "auctionDescription",
      "outputs": [
        {
          "name": "",
          "type": "string"
        }
      ],
      "payable": false,
      "stateMutability": "view",
      "type": "function"
    },
    {
      "constant": true,
      "inputs": [],
      "name": "auctionEnd",
      "outputs": [
        {
          "name": "",
          "type": "uint256"
        }
      ],
      "payable": false,
      "stateMutability": "view",
      "type": "function"
    },
    {
      "constant": true,
      "inputs": [],
      "name": "beneficiary",
      "outputs": [
        {
          "name": "",
          "type": "address"
        }
      ],
      "payable": false,
      "stateMutability": "view",
      "type": "function"
    },
    {
      "constant": true,
      "inputs": [
        {
          "name": "",
          "type": "address"
        }
      ],
      "name": "bids",
      "outputs": [
        {
          "name": "",
          "type": "uint256"
        }
      ],
      "payable": false,
      "stateMutability": "view",
      "type": "function"
    },
    {
      "constant": true,
      "inputs": [],
      "name": "auctionState",
      "outputs": [
        {
          "name": "",
          "type": "uint8"
        }
      ],
      "payable": false,
      "stateMutability": "view",
      "type": "function"
    },
    {
      "constant": true,
      "inputs": [],
      "name": "highestBidder",
      "outputs": [
        {
          "name": "",
          "type": "address"
        }
      ],
      "payable": false,
      "stateMutability": "view",
      "type": "function"
    },
    {
      "constant": true,
      "inputs": [],
      "name": "auctionTitle",
      "outputs": [
        {
          "name": "",
          "type": "string"
        }
      ],
      "payable": false,
      "stateMutability": "view",
      "type": "function"
    },
    {
      "constant": true,
      "inputs": [],
      "name": "escrowModerator",
      "outputs": [
        {
          "name": "",
          "type": "address"
        }
      ],
      "payable": false,
      "stateMutability": "view",
      "type": "function"
    },
    {
      "constant": false,
      "inputs": [],
      "name": "cleanUpAfterYourself",
      "outputs": [],
      "payable": false,
      "stateMutability": "nonpayable",
      "type": "function"
    },
    {
      "constant": true,
      "inputs": [],
      "name": "minimumBid",
      "outputs": [
        {
          "name": "",
          "type": "uint256"
        }
      ],
      "payable": false,
      "stateMutability": "view",
      "type": "function"
    },
    {
      "constant": true,
      "inputs": [],
      "name": "highestBid",
      "outputs": [
        {
          "name": "",
          "type": "uint256"
        }
      ],
      "payable": false,
      "stateMutability": "view",
      "type": "function"
    },
    {
      "constant": false,
      "inputs": [],
      "name": "endAuction",
      "outputs": [],
      "payable": false,
      "stateMutability": "nonpayable",
      "type": "function"
    },
    {
      "inputs": [],
      "payable": false,
      "stateMutability": "nonpayable",
      "type": "constructor"
    },
    {
      "anonymous": false,
      "inputs": [
        {
          "indexed": false,
          "name": "bidder",
          "type": "address"
        },
        {
          "indexed": false,
          "name": "amount",
          "type": "uint256"
        }
      ],
      "name": "HighestBidIncreased",
      "type": "event"
    },
    {
      "anonymous": false,
      "inputs": [
        {
          "indexed": false,
          "name": "winner",
          "type": "address"
        },
        {
          "indexed": false,
          "name": "amount",
          "type": "uint256"
        }
      ],
      "name": "AuctionEnded",
      "type": "event"
    },
    {
      "anonymous": false,
      "inputs": [
        {
          "indexed": false,
          "name": "cheater",
          "type": "address"
        },
        {
          "indexed": false,
          "name": "amount",
          "type": "uint256"
        }
      ],
      "name": "CheaterBidder",
      "type": "event"
    }
  ],
  "bytecode": "0x60806040523480156200001157600080fd5b506040805190810160405280600381526020017f726c660000000000000000000000000000000000000000000000000000000000815250604e6101236040805190810160405280600381526020017f726c660000000000000000000000000000000000000000000000000000000000815250604e6001808660029080519060200190620000a092919062000197565b50846000806101000a81548173ffffffffffffffffffffffffffffffffffffffff021916908373ffffffffffffffffffffffffffffffffffffffff1602179055508560018190555083600390805190602001906200010092919062000197565b506000600860006101000a81548160ff021916908360028111156200012157fe5b02179055508260048190555081156200018a577332cefb2dc869bbfe636f7547cda43f561bf88d5a600560006101000a81548173ffffffffffffffffffffffffffffffffffffffff021916908373ffffffffffffffffffffffffffffffffffffffff1602179055505b5050505050505062000246565b828054600181600116156101000203166002900490600052602060002090601f016020900481019282601f10620001da57805160ff19168380011785556200020b565b828001600101855582156200020b579182015b828111156200020a578251825591602001919060010190620001ed565b5b5090506200021a91906200021e565b5090565b6200024391905b808211156200023f57600081600090555060010162000225565b5090565b90565b6111c480620002566000396000f3006080604052600436106100c5576000357c0100000000000000000000000000000000000000000000000000000000900463ffffffff1680631998aeef146100ca5780631dceace8146100d45780632a24f46c1461016457806338af3eed1461018f57806362ea82db146101e65780637fb450991461023d57806391f9015714610276578063a17bf884146102cd578063bb2d23721461035d578063d37b82aa146103b4578063d3a86386146103cb578063d57bde79146103f6578063fe67a54b14610421575b600080fd5b6100d2610438565b005b3480156100e057600080fd5b506100e96109ee565b6040518080602001828103825283818151815260200191508051906020019080838360005b8381101561012957808201518184015260208101905061010e565b50505050905090810190601f1680156101565780820380516001836020036101000a031916815260200191505b509250505060405180910390f35b34801561017057600080fd5b50610179610a8c565b6040518082815260200191505060405180910390f35b34801561019b57600080fd5b506101a4610a92565b604051808273ffffffffffffffffffffffffffffffffffffffff1673ffffffffffffffffffffffffffffffffffffffff16815260200191505060405180910390f35b3480156101f257600080fd5b50610227600480360381019080803573ffffffffffffffffffffffffffffffffffffffff169060200190929190505050610ab7565b6040518082815260200191505060405180910390f35b34801561024957600080fd5b50610252610acf565b6040518082600281111561026257fe5b60ff16815260200191505060405180910390f35b34801561028257600080fd5b5061028b610ae2565b604051808273ffffffffffffffffffffffffffffffffffffffff1673ffffffffffffffffffffffffffffffffffffffff16815260200191505060405180910390f35b3480156102d957600080fd5b506102e2610b08565b6040518080602001828103825283818151815260200191508051906020019080838360005b83811015610322578082015181840152602081019050610307565b50505050905090810190601f16801561034f5780820380516001836020036101000a031916815260200191505b509250505060405180910390f35b34801561036957600080fd5b50610372610ba6565b604051808273ffffffffffffffffffffffffffffffffffffffff1673ffffffffffffffffffffffffffffffffffffffff16815260200191505060405180910390f35b3480156103c057600080fd5b506103c9610bcc565b005b3480156103d757600080fd5b506103e0610d35565b6040518082815260200191505060405180910390f35b34801561040257600080fd5b5061040b610d3b565b6040518082815260200191505060405180910390f35b34801561042d57600080fd5b50610436610da4565b005b6000600154421015156104b3576040517f08c379a00000000000000000000000000000000000000000000000000000000081526004018080602001828103825260168152602001807f41756374696f6e20616c726561647920656e6465642e0000000000000000000081525060200191505060405180910390fd5b6002808111156104bf57fe5b600860009054906101000a900460ff1660028111156104da57fe5b14151515610550576040517f08c379a00000000000000000000000000000000000000000000000000000000081526004018080602001828103825260168152602001807f41756374696f6e20616c726561647920656e6465642e0000000000000000000081525060200191505060405180910390fd5b60045434101515156105f0576040517f08c379a00000000000000000000000000000000000000000000000000000000081526004018080602001828103825260268152602001807f5468652076616c756520697320736d616c6c6572207468616e206d696e696d7581526020017f6d206269642e000000000000000000000000000000000000000000000000000081525060400191505060405180910390fd5b60076000600660009054906101000a900473ffffffffffffffffffffffffffffffffffffffff1673ffffffffffffffffffffffffffffffffffffffff1673ffffffffffffffffffffffffffffffffffffffff16815260200190815260200160002054341115156106c8576040517f08c379a000000000000000000000000000000000000000000000000000000000815260040180806020018281038252601e8152602001807f546865726520616c7265616479206973206120686967686572206269642e000081525060200191505060405180910390fd5b600073ffffffffffffffffffffffffffffffffffffffff16600660009054906101000a900473ffffffffffffffffffffffffffffffffffffffff1673ffffffffffffffffffffffffffffffffffffffff161415156108d75760076000600660009054906101000a900473ffffffffffffffffffffffffffffffffffffffff1673ffffffffffffffffffffffffffffffffffffffff1673ffffffffffffffffffffffffffffffffffffffff168152602001908152602001600020549050600060076000600660009054906101000a900473ffffffffffffffffffffffffffffffffffffffff1673ffffffffffffffffffffffffffffffffffffffff1673ffffffffffffffffffffffffffffffffffffffff16815260200190815260200160002081905550600660009054906101000a900473ffffffffffffffffffffffffffffffffffffffff1673ffffffffffffffffffffffffffffffffffffffff166108fc829081150290604051600060405180830381858888f1935050505015156108d6577fa1b60e980b75e8b9b39e4d6017a6398e1e37e9269560093a3530e52d5e56668b600660009054906101000a900473ffffffffffffffffffffffffffffffffffffffff1682604051808373ffffffffffffffffffffffffffffffffffffffff1673ffffffffffffffffffffffffffffffffffffffff1681526020018281526020019250505060405180910390a15b5b33600660006101000a81548173ffffffffffffffffffffffffffffffffffffffff021916908373ffffffffffffffffffffffffffffffffffffffff16021790555034600760003373ffffffffffffffffffffffffffffffffffffffff1673ffffffffffffffffffffffffffffffffffffffff168152602001908152602001600020819055506001600860006101000a81548160ff0219169083600281111561097b57fe5b02179055507ff4757a49b326036464bec6fe419a4ae38c8a02ce3e68bf0809674f6aab8ad3003334604051808373ffffffffffffffffffffffffffffffffffffffff1673ffffffffffffffffffffffffffffffffffffffff1681526020018281526020019250505060405180910390a150565b60038054600181600116156101000203166002900480601f016020809104026020016040519081016040528092919081815260200182805460018160011615610100020316600290048015610a845780601f10610a5957610100808354040283529160200191610a84565b820191906000526020600020905b815481529060010190602001808311610a6757829003601f168201915b505050505081565b60015481565b6000809054906101000a900473ffffffffffffffffffffffffffffffffffffffff1681565b60076020528060005260406000206000915090505481565b600860009054906101000a900460ff1681565b600660009054906101000a900473ffffffffffffffffffffffffffffffffffffffff1681565b60028054600181600116156101000203166002900480601f016020809104026020016040519081016040528092919081815260200182805460018160011615610100020316600290048015610b9e5780601f10610b7357610100808354040283529160200191610b9e565b820191906000526020600020905b815481529060010190602001808311610b8157829003601f168201915b505050505081565b600560009054906101000a900473ffffffffffffffffffffffffffffffffffffffff1681565b600280811115610bd857fe5b600860009054906101000a900460ff166002811115610bf357fe5b141515610c68576040517f08c379a00000000000000000000000000000000000000000000000000000000081526004018080602001828103825260158152602001807f41756374696f6e206973206e6f7420656e6465642e000000000000000000000081525060200191505060405180910390fd5b600073ffffffffffffffffffffffffffffffffffffffff16600560009054906101000a900473ffffffffffffffffffffffffffffffffffffffff1673ffffffffffffffffffffffffffffffffffffffff16141515610cfb57600560009054906101000a900473ffffffffffffffffffffffffffffffffffffffff1673ffffffffffffffffffffffffffffffffffffffff16ff5b6000809054906101000a900473ffffffffffffffffffffffffffffffffffffffff1673ffffffffffffffffffffffffffffffffffffffff16ff5b60045481565b600060076000600660009054906101000a900473ffffffffffffffffffffffffffffffffffffffff1673ffffffffffffffffffffffffffffffffffffffff1673ffffffffffffffffffffffffffffffffffffffff16815260200190815260200160002054905090565b600660009054906101000a900473ffffffffffffffffffffffffffffffffffffffff1673ffffffffffffffffffffffffffffffffffffffff163373ffffffffffffffffffffffffffffffffffffffff161480610e4d5750600560009054906101000a900473ffffffffffffffffffffffffffffffffffffffff1673ffffffffffffffffffffffffffffffffffffffff163373ffffffffffffffffffffffffffffffffffffffff16145b80610ea65750600073ffffffffffffffffffffffffffffffffffffffff16600660009054906101000a900473ffffffffffffffffffffffffffffffffffffffff1673ffffffffffffffffffffffffffffffffffffffff16145b15611191576001544210151515610f25576040517f08c379a00000000000000000000000000000000000000000000000000000000081526004018080602001828103825260168152602001807f41756374696f6e206e6f742079657420656e6465642e0000000000000000000081525060200191505060405180910390fd5b600280811115610f3157fe5b600860009054906101000a900460ff166002811115610f4c57fe5b14151515610fc2576040517f08c379a000000000000000000000000000000000000000000000000000000000815260040180806020018281038252601a8152602001807f41756374696f6e2068617320616c726561647920656e6465642e00000000000081525060200191505060405180910390fd5b6002600860006101000a81548160ff02191690836002811115610fe157fe5b02179055507fdaec4582d5d9595688c8c98545fdd1c696d41c6aeaeb636737e84ed2f5c00eda600660009054906101000a900473ffffffffffffffffffffffffffffffffffffffff1660076000600660009054906101000a900473ffffffffffffffffffffffffffffffffffffffff1673ffffffffffffffffffffffffffffffffffffffff1673ffffffffffffffffffffffffffffffffffffffff16815260200190815260200160002054604051808373ffffffffffffffffffffffffffffffffffffffff1673ffffffffffffffffffffffffffffffffffffffff1681526020018281526020019250505060405180910390a16000809054906101000a900473ffffffffffffffffffffffffffffffffffffffff1673ffffffffffffffffffffffffffffffffffffffff166108fc60076000600660009054906101000a900473ffffffffffffffffffffffffffffffffffffffff1673ffffffffffffffffffffffffffffffffffffffff1673ffffffffffffffffffffffffffffffffffffffff168152602001908152602001600020549081150290604051600060405180830381858888f1935050505050611196565b600080fd5b5600a165627a7a72305820cf6ed63d15d1056126a1285df1715147a77c697caaab10e7b7e324a0ac11e10d0029",
  "source": "\n\n\n\n\n\ncontract Auctionify_1 {\n    \n    \n\n    address public beneficiary;\n    uint public auctionEnd;\n    string public auctionTitle;\n    string public auctionDescription;\n    uint public minimumBid;\n\n    \n    address public escrowModerator;\n    \n\n    \n    address public highestBidder;\n\n    \n    mapping(address => uint) public bids;\n\n    \n    enum AuctionStates { Started, Ongoing, Ended }\n    AuctionStates public auctionState;\n\n\n    \n    modifier auctionNotEnded()\n    {\n        \n        \n        require(\n            now < auctionEnd, \n            \"Auction already ended.\"\n        );\n        require(\n          auctionState != AuctionStates.Ended,\n           \"Auction already ended.\"\n          );\n        _;\n    }\n\n    \n    modifier isMinimumBid()\n    {\n      \n      require(\n          msg.value >= minimumBid,\n          \"The value is smaller than minimum bid.\"\n      );\n      _;\n    }\n\n    modifier isHighestBid()\n    {\n      \n      \n      require(\n          msg.value > bids[highestBidder],\n          \"There already is a higher bid.\"\n      );\n      _;\n    }\n\n    modifier onlyHighestBidderOrEscrow()\n    {\n      \n      \n      if ((msg.sender == highestBidder) || (msg.sender == escrowModerator) || (highestBidder == address(0))) {\n        _;\n      }\n      else{\n        revert();\n      }\n    }\n\n\n    \n    event HighestBidIncreased(address bidder, uint amount);\n    event AuctionEnded(address winner, uint amount);\n    event CheaterBidder(address cheater, uint amount);\n\n    constructor(\n        string _auctionTitle,\n        uint _auctionEnd,\n        address _beneficiary,\n        string _auctionDesc,\n        uint _minimumBid,\n        bool _escrowEnabled,\n        bool _listed\n    ) public {\n        auctionTitle = _auctionTitle;\n        beneficiary = _beneficiary;\n        auctionEnd = _auctionEnd;\n        auctionDescription = _auctionDesc;\n        auctionState = AuctionStates.Started;\n        minimumBid = _minimumBid;\n        if (_escrowEnabled) {\n          \n          escrowModerator = address(0x32cEfb2dC869BBfe636f7547CDa43f561Bf88d5A); \n        }\n        if (_listed) {\n          \n        }\n    }\n\n    \n   \n   \n   \n   \n    function bid() public payable auctionNotEnded isMinimumBid isHighestBid {\n        \n        \n        \n        if (highestBidder != address(0)) {\n            \n            uint lastBid = bids[highestBidder];\n            bids[highestBidder] = 0;\n            if(!highestBidder.send(lastBid)) {\n                \n                emit CheaterBidder(highestBidder, lastBid);\n            }\n        }\n\n        \n        highestBidder = msg.sender;\n        bids[msg.sender] = msg.value;\n\n        \n        auctionState = AuctionStates.Ongoing;\n        emit HighestBidIncreased(msg.sender, msg.value);\n    }\n\n    \n   \n   \n   \n    function highestBid() public view returns(uint){\n      return (bids[highestBidder]);\n    }\n\n    \n    \n    \n   \n   \n    function endAuction() public onlyHighestBidderOrEscrow {\n\n        \n        require(now >= auctionEnd, \"Auction not yet ended.\");\n        require(auctionState != AuctionStates.Ended, \"Auction has already ended.\");\n\n        \n        auctionState = AuctionStates.Ended;\n        emit AuctionEnded(highestBidder, bids[highestBidder]);\n\n        \n        if(!beneficiary.send(bids[highestBidder])) {\n            \n            \n        }\n    }\n\n    \n   \n   \n  function cleanUpAfterYourself() public {\n    require(auctionState == AuctionStates.Ended, \"Auction is not ended.\");\n      if (escrowModerator != address(0)) {\n        selfdestruct(escrowModerator);\n      } else {\n        selfdestruct(beneficiary); \n      }\n  }\n}\n    \ncontract Auctionify is Auctionify_1 {\n    constructor() Auctionify_1(\"rlf\", 78, address(0x123), \"rlf\", 78, true, true) public { }\n}\n",
  "sourcePath": "/home/XXX-1/smartrim-experiment/for-rlf/0x3a6984181f49c9ef64ada32373e736db0c9f1078/contracts/0x3a6984181f49c9ef64ada32373e736db0c9f1078.sol",
  "compiler": {
    "name": "solc",
    "version": "0.4.25+commit.59dbf8f1.Emscripten.clang"
  },
  "schemaVersion": "3.4.16",
  "updatedAt": "2025-08-14T03:52:32.958Z",
  "networkType": "ethereum",
  "devdoc": {
    "methods": {}
  },
  "userdoc": {
    "methods": {}
  }
}