{
  "contractName": "SkinMix",
  "abi": [
    {
      "constant": true,
      "inputs": [],
      "name": "mixFormula",
      "outputs": [
        {
          "name": "",
          "type": "address"
        }
      ],
      "payable": false,
      "stateMutability": "view",
      "type": "function"
    },
    {
      "constant": true,
      "inputs": [
        {
          "name": "",
          "type": "uint256"
        }
      ],
      "name": "skinIdToOwner",
      "outputs": [
        {
          "name": "",
          "type": "address"
        }
      ],
      "payable": false,
      "stateMutability": "view",
      "type": "function"
    },
    {
      "constant": true,
      "inputs": [],
      "name": "nextSkinId",
      "outputs": [
        {
          "name": "",
          "type": "uint256"
        }
      ],
      "payable": false,
      "stateMutability": "view",
      "type": "function"
    },
    {
      "constant": false,
      "inputs": [],
      "name": "unpause",
      "outputs": [],
      "payable": false,
      "stateMutability": "nonpayable",
      "type": "function"
    },
    {
      "constant": true,
      "inputs": [],
      "name": "paused",
      "outputs": [
        {
          "name": "",
          "type": "bool"
        }
      ],
      "payable": false,
      "stateMutability": "view",
      "type": "function"
    },
    {
      "constant": true,
      "inputs": [
        {
          "name": "",
          "type": "address"
        }
      ],
      "name": "numSkinOfAccounts",
      "outputs": [
        {
          "name": "",
          "type": "uint256"
        }
      ],
      "payable": false,
      "stateMutability": "view",
      "type": "function"
    },
    {
      "constant": true,
      "inputs": [],
      "name": "prePaidFee",
      "outputs": [
        {
          "name": "",
          "type": "uint256"
        }
      ],
      "payable": false,
      "stateMutability": "view",
      "type": "function"
    },
    {
      "constant": false,
      "inputs": [],
      "name": "pause",
      "outputs": [],
      "payable": false,
      "stateMutability": "nonpayable",
      "type": "function"
    },
    {
      "constant": true,
      "inputs": [],
      "name": "owner",
      "outputs": [
        {
          "name": "",
          "type": "address"
        }
      ],
      "payable": false,
      "stateMutability": "view",
      "type": "function"
    },
    {
      "constant": true,
      "inputs": [
        {
          "name": "id",
          "type": "uint256"
        }
      ],
      "name": "getSkin",
      "outputs": [
        {
          "name": "",
          "type": "uint128"
        },
        {
          "name": "",
          "type": "uint64"
        },
        {
          "name": "",
          "type": "uint64"
        }
      ],
      "payable": false,
      "stateMutability": "view",
      "type": "function"
    },
    {
      "constant": true,
      "inputs": [
        {
          "name": "account",
          "type": "address"
        },
        {
          "name": "id",
          "type": "uint256"
        }
      ],
      "name": "skinOfAccountById",
      "outputs": [
        {
          "name": "",
          "type": "uint256"
        }
      ],
      "payable": false,
      "stateMutability": "view",
      "type": "function"
    },
    {
      "constant": false,
      "inputs": [],
      "name": "withdrawETH",
      "outputs": [],
      "payable": false,
      "stateMutability": "nonpayable",
      "type": "function"
    },
    {
      "constant": true,
      "inputs": [
        {
          "name": "",
          "type": "uint256"
        }
      ],
      "name": "isOnSale",
      "outputs": [
        {
          "name": "",
          "type": "bool"
        }
      ],
      "payable": false,
      "stateMutability": "view",
      "type": "function"
    },
    {
      "constant": false,
      "inputs": [
        {
          "name": "newOwner",
          "type": "address"
        }
      ],
      "name": "transferOwnership",
      "outputs": [],
      "payable": false,
      "stateMutability": "nonpayable",
      "type": "function"
    },
    {
      "anonymous": false,
      "inputs": [
        {
          "indexed": false,
          "name": "account",
          "type": "address"
        },
        {
          "indexed": false,
          "name": "skinAId",
          "type": "uint256"
        },
        {
          "indexed": false,
          "name": "skinBId",
          "type": "uint256"
        }
      ],
      "name": "MixStart",
      "type": "event"
    },
    {
      "anonymous": false,
      "inputs": [
        {
          "indexed": false,
          "name": "account",
          "type": "address"
        },
        {
          "indexed": false,
          "name": "skinAId",
          "type": "uint256"
        },
        {
          "indexed": false,
          "name": "skinBId",
          "type": "uint256"
        },
        {
          "indexed": false,
          "name": "cooldownEndTime",
          "type": "uint64"
        }
      ],
      "name": "AutoMix",
      "type": "event"
    },
    {
      "anonymous": false,
      "inputs": [
        {
          "indexed": false,
          "name": "account",
          "type": "address"
        },
        {
          "indexed": false,
          "name": "skinId",
          "type": "uint256"
        },
        {
          "indexed": false,
          "name": "skinAId",
          "type": "uint256"
        },
        {
          "indexed": false,
          "name": "skinBId",
          "type": "uint256"
        }
      ],
      "name": "MixSuccess",
      "type": "event"
    },
    {
      "anonymous": false,
      "inputs": [],
      "name": "Pause",
      "type": "event"
    },
    {
      "anonymous": false,
      "inputs": [],
      "name": "Unpause",
      "type": "event"
    },
    {
      "anonymous": false,
      "inputs": [
        {
          "indexed": true,
          "name": "previousOwner",
          "type": "address"
        },
        {
          "indexed": true,
          "name": "newOwner",
          "type": "address"
        }
      ],
      "name": "OwnershipTransferred",
      "type": "event"
    },
    {
      "constant": false,
      "inputs": [
        {
          "name": "mixFormulaAddress",
          "type": "address"
        }
      ],
      "name": "setMixFormulaAddress",
      "outputs": [],
      "payable": false,
      "stateMutability": "nonpayable",
      "type": "function"
    },
    {
      "constant": false,
      "inputs": [
        {
          "name": "newPrePaidFee",
          "type": "uint256"
        }
      ],
      "name": "setPrePaidFee",
      "outputs": [],
      "payable": false,
      "stateMutability": "nonpayable",
      "type": "function"
    },
    {
      "constant": false,
      "inputs": [
        {
          "name": "skinAId",
          "type": "uint256"
        },
        {
          "name": "skinBId",
          "type": "uint256"
        }
      ],
      "name": "mix",
      "outputs": [],
      "payable": false,
      "stateMutability": "nonpayable",
      "type": "function"
    },
    {
      "constant": false,
      "inputs": [
        {
          "name": "skinAId",
          "type": "uint256"
        },
        {
          "name": "skinBId",
          "type": "uint256"
        }
      ],
      "name": "mixAuto",
      "outputs": [],
      "payable": true,
      "stateMutability": "payable",
      "type": "function"
    },
    {
      "constant": false,
      "inputs": [
        {
          "name": "skinAId",
          "type": "uint256"
        },
        {
          "name": "skinBId",
          "type": "uint256"
        }
      ],
      "name": "getMixingResult",
      "outputs": [],
      "payable": false,
      "stateMutability": "nonpayable",
      "type": "function"
    }
  ],
  "bytecode": "0x608060405260008060146101000a81548160ff0219169083151502179055506001600455662c68af0bb14000600755336000806101000a81548173ffffffffffffffffffffffffffffffffffffffff021916908373ffffffffffffffffffffffffffffffffffffffff1602179055506118f18061007d6000396000f300608060405260043610610107576000357c0100000000000000000000000000000000000000000000000000000000900463ffffffff16806305d258dd1461010c5780632038e80a146101435780632104fa0b1461019a578063287efb57146102075780632c9ea1b71461024a5780633f4ba83a146102755780635b548ab41461028c5780635c975abb146102b6578063733efe16146102e55780637b04b1f81461033c5780638456cb59146103675780638da5cb5b1461037e57806397b3116e146103d557806398e4f58114610402578063a02a34cd1461049d578063b4bb58fb146104fe578063e086e5ec14610535578063f0f2805f1461054c578063f2fde38b14610591575b600080fd5b34801561011857600080fd5b5061014160048036038101908080359060200190929190803590602001909291905050506105d4565b005b34801561014f57600080fd5b50610158610bdc565b604051808273ffffffffffffffffffffffffffffffffffffffff1673ffffffffffffffffffffffffffffffffffffffff16815260200191505060405180910390f35b3480156101a657600080fd5b506101c560048036038101908080359060200190929190505050610c02565b604051808273ffffffffffffffffffffffffffffffffffffffff1673ffffffffffffffffffffffffffffffffffffffff16815260200191505060405180910390f35b34801561021357600080fd5b50610248600480360381019080803573ffffffffffffffffffffffffffffffffffffffff169060200190929190505050610c35565b005b34801561025657600080fd5b5061025f610cd4565b6040518082815260200191505060405180910390f35b34801561028157600080fd5b5061028a610cda565b005b6102b46004803603810190808035906020019092919080359060200190929190505050610d98565b005b3480156102c257600080fd5b506102cb610e91565b604051808215151515815260200191505060405180910390f35b3480156102f157600080fd5b50610326600480360381019080803573ffffffffffffffffffffffffffffffffffffffff169060200190929190505050610ea4565b6040518082815260200191505060405180910390f35b34801561034857600080fd5b50610351610ebc565b6040518082815260200191505060405180910390f35b34801561037357600080fd5b5061037c610ec2565b005b34801561038a57600080fd5b50610393610f82565b604051808273ffffffffffffffffffffffffffffffffffffffff1673ffffffffffffffffffffffffffffffffffffffff16815260200191505060405180910390f35b3480156103e157600080fd5b5061040060048036038101908080359060200190929190505050610fa7565b005b34801561040e57600080fd5b5061042d6004803603810190808035906020019092919050505061100c565b60405180846fffffffffffffffffffffffffffffffff166fffffffffffffffffffffffffffffffff1681526020018367ffffffffffffffff1667ffffffffffffffff1681526020018267ffffffffffffffff1667ffffffffffffffff168152602001935050505060405180910390f35b3480156104a957600080fd5b506104e8600480360381019080803573ffffffffffffffffffffffffffffffffffffffff169060200190929190803590602001909291905050506110a7565b6040518082815260200191505060405180910390f35b34801561050a57600080fd5b5061053360048036038101908080359060200190929190803590602001909291905050506111ba565b005b34801561054157600080fd5b5061054a611336565b005b34801561055857600080fd5b5061057760048036038101908080359060200190929190505050611412565b604051808215151515815260200191505060405180910390f35b34801561059d57600080fd5b506105d2600480360381019080803573ffffffffffffffffffffffffffffffffffffffff169060200190929190505050611432565b005b6000806000806105e261187d565b600060149054906101000a900460ff161515156105fe57600080fd5b6002600088815260200190815260200160002060009054906101000a900473ffffffffffffffffffffffffffffffffffffffff1694506002600087815260200190815260200160002060009054906101000a900473ffffffffffffffffffffffffffffffffffffffff1673ffffffffffffffffffffffffffffffffffffffff168573ffffffffffffffffffffffffffffffffffffffff161415156106a157600080fd5b6001600088815260200190815260200160002093506001600087815260200190815260200160002092508567ffffffffffffffff168460000160189054906101000a900467ffffffffffffffff1667ffffffffffffffff1614151561070557600080fd5b8667ffffffffffffffff168360000160189054906101000a900467ffffffffffffffff1667ffffffffffffffff1614151561073f57600080fd5b6107498787611587565b151561075457600080fd5b600660009054906101000a900473ffffffffffffffffffffffffffffffffffffffff1673ffffffffffffffffffffffffffffffffffffffff1663a1c1519a8560000160009054906101000a90046fffffffffffffffffffffffffffffffff168560000160009054906101000a90046fffffffffffffffffffffffffffffffff166040518363ffffffff167c010000000000000000000000000000000000000000000000000000000002815260040180836fffffffffffffffffffffffffffffffff166fffffffffffffffffffffffffffffffff168152602001826fffffffffffffffffffffffffffffffff166fffffffffffffffffffffffffffffffff16815260200192505050602060405180830381600087803b15801561087557600080fd5b505af1158015610889573d6000803e3d6000fd5b505050506040513d602081101561089f57600080fd5b81019080805190602001909291905050509150606060405190810160405280836fffffffffffffffffffffffffffffffff1681526020014267ffffffffffffffff168152602001600067ffffffffffffffff1681525090508060016000600454815260200190815260200160002060008201518160000160006101000a8154816fffffffffffffffffffffffffffffffff02191690836fffffffffffffffffffffffffffffffff16021790555060208201518160000160106101000a81548167ffffffffffffffff021916908367ffffffffffffffff16021790555060408201518160000160186101000a81548167ffffffffffffffff021916908367ffffffffffffffff1602179055509050508460026000600454815260200190815260200160002060006101000a81548173ffffffffffffffffffffffffffffffffffffffff021916908373ffffffffffffffffffffffffffffffffffffffff160217905550600060036000600454815260200190815260200160002060006101000a81548160ff02191690831515021790555060046000815480929190600101919050555060008460000160186101000a81548167ffffffffffffffff021916908367ffffffffffffffff16021790555060008360000160186101000a81548167ffffffffffffffff021916908367ffffffffffffffff1602179055506002600088815260200190815260200160002060006101000a81549073ffffffffffffffffffffffffffffffffffffffff02191690556002600087815260200190815260200160002060006101000a81549073ffffffffffffffffffffffffffffffffffffffff02191690556001600560008773ffffffffffffffffffffffffffffffffffffffff1673ffffffffffffffffffffffffffffffffffffffff168152602001908152602001600020600082825403925050819055507fac81ba101131fd51da2d33fa7ef506549a1f53c29fad06382d86b257fc5888d9856001600454038989604051808573ffffffffffffffffffffffffffffffffffffffff1673ffffffffffffffffffffffffffffffffffffffff16815260200184815260200183815260200182815260200194505050505060405180910390a150505050505050565b600660009054906101000a900473ffffffffffffffffffffffffffffffffffffffff1681565b60026020528060005260406000206000915054906101000a900473ffffffffffffffffffffffffffffffffffffffff1681565b6000809054906101000a900473ffffffffffffffffffffffffffffffffffffffff1673ffffffffffffffffffffffffffffffffffffffff163373ffffffffffffffffffffffffffffffffffffffff16141515610c9057600080fd5b80600660006101000a81548173ffffffffffffffffffffffffffffffffffffffff021916908373ffffffffffffffffffffffffffffffffffffffff16021790555050565b60045481565b6000809054906101000a900473ffffffffffffffffffffffffffffffffffffffff1673ffffffffffffffffffffffffffffffffffffffff163373ffffffffffffffffffffffffffffffffffffffff16141515610d3557600080fd5b600060149054906101000a900460ff161515610d5057600080fd5b60008060146101000a81548160ff0219169083151502179055507f7805862f689e2f13df9f062ff482ad3ad112aca9e0847911ed832e158c525b3360405160405180910390a1565b60008060149054906101000a900460ff16151515610db557600080fd5b6007543410151515610dc657600080fd5b610dd083836111ba565b6001600084815260200190815260200160002090507fa0b8773c576b204aa8e6df0ff342f9b00297636e99dce8a2103e8d966e767f843384848460000160109054906101000a900467ffffffffffffffff16604051808573ffffffffffffffffffffffffffffffffffffffff1673ffffffffffffffffffffffffffffffffffffffff1681526020018481526020018381526020018267ffffffffffffffff1667ffffffffffffffff16815260200194505050505060405180910390a1505050565b600060149054906101000a900460ff1681565b60056020528060005260406000206000915090505481565b60075481565b6000809054906101000a900473ffffffffffffffffffffffffffffffffffffffff1673ffffffffffffffffffffffffffffffffffffffff163373ffffffffffffffffffffffffffffffffffffffff16141515610f1d57600080fd5b600060149054906101000a900460ff16151515610f3957600080fd5b6001600060146101000a81548160ff0219169083151502179055507f6985a02210a168e66602d3235cb6db0e70f92b3ba4d376a33c0f3d9434bff62560405160405180910390a1565b6000809054906101000a900473ffffffffffffffffffffffffffffffffffffffff1681565b6000809054906101000a900473ffffffffffffffffffffffffffffffffffffffff1673ffffffffffffffffffffffffffffffffffffffff163373ffffffffffffffffffffffffffffffffffffffff1614151561100257600080fd5b8060078190555050565b60008060008060008511151561102157600080fd5b6004548510151561103157600080fd5b6001600086815260200190815260200160002090508060000160009054906101000a90046fffffffffffffffffffffffffffffffff168160000160109054906101000a900467ffffffffffffffff168260000160189054906101000a900467ffffffffffffffff16935093509350509193909250565b60008060008060009250600560008773ffffffffffffffffffffffffffffffffffffffff1673ffffffffffffffffffffffffffffffffffffffff16815260200190815260200160002054915060008211151561110257600080fd5b818510151561111057600080fd5b600190505b6004548110156111ac578573ffffffffffffffffffffffffffffffffffffffff166002600083815260200190815260200160002060009054906101000a900473ffffffffffffffffffffffffffffffffffffffff1673ffffffffffffffffffffffffffffffffffffffff16141561119f5784831415611196578093506111b1565b82806001019350505b8080600101915050611115565b600080fd5b50505092915050565b600060149054906101000a900460ff161515156111d657600080fd5b6111e133838361161d565b15156111ec57600080fd5b6111f582611744565b8015611206575061120581611744565b5b151561121157600080fd5b61121b8282611587565b151561122657600080fd5b6112308282611774565b151561123b57600080fd5b61124582826117f5565b806001600084815260200190815260200160002060000160186101000a81548167ffffffffffffffff021916908367ffffffffffffffff160217905550816001600083815260200190815260200160002060000160186101000a81548167ffffffffffffffff021916908367ffffffffffffffff1602179055507f4e1f80806ba228e25ed6f726450eaef48a5ae8e2604ca9156f554699acdd883f338383604051808473ffffffffffffffffffffffffffffffffffffffff1673ffffffffffffffffffffffffffffffffffffffff168152602001838152602001828152602001935050505060405180910390a15050565b6000809054906101000a900473ffffffffffffffffffffffffffffffffffffffff1673ffffffffffffffffffffffffffffffffffffffff163373ffffffffffffffffffffffffffffffffffffffff1614151561139157600080fd5b6000809054906101000a900473ffffffffffffffffffffffffffffffffffffffff1673ffffffffffffffffffffffffffffffffffffffff166108fc3073ffffffffffffffffffffffffffffffffffffffff16319081150290604051600060405180830381858888f1935050505015801561140f573d6000803e3d6000fd5b50565b60036020528060005260406000206000915054906101000a900460ff1681565b6000809054906101000a900473ffffffffffffffffffffffffffffffffffffffff1673ffffffffffffffffffffffffffffffffffffffff163373ffffffffffffffffffffffffffffffffffffffff1614151561148d57600080fd5b600073ffffffffffffffffffffffffffffffffffffffff168173ffffffffffffffffffffffffffffffffffffffff16141515156114c957600080fd5b8073ffffffffffffffffffffffffffffffffffffffff166000809054906101000a900473ffffffffffffffffffffffffffffffffffffffff1673ffffffffffffffffffffffffffffffffffffffff167f8be0079c531659141344cd1fd0a4f28419497f9722a3daafe3b4186f6b6457e060405160405180910390a3806000806101000a81548173ffffffffffffffffffffffffffffffffffffffff021916908373ffffffffffffffffffffffffffffffffffffffff16021790555050565b60004267ffffffffffffffff166001600085815260200190815260200160002060000160109054906101000a900467ffffffffffffffff1667ffffffffffffffff161115801561161557504267ffffffffffffffff166001600084815260200190815260200160002060000160109054906101000a900467ffffffffffffffff1667ffffffffffffffff1611155b905092915050565b600081831415611630576000905061173d565b600083148061163f5750600082145b1561164d576000905061173d565b6004548310158061166057506004548210155b1561166e576000905061173d565b8373ffffffffffffffffffffffffffffffffffffffff166002600085815260200190815260200160002060009054906101000a900473ffffffffffffffffffffffffffffffffffffffff1673ffffffffffffffffffffffffffffffffffffffff1614801561173a57508373ffffffffffffffffffffffffffffffffffffffff166002600084815260200190815260200160002060009054906101000a900473ffffffffffffffffffffffffffffffffffffffff1673ffffffffffffffffffffffffffffffffffffffff16145b90505b9392505050565b60008015156003600084815260200190815260200160002060009054906101000a900460ff161515149050919050565b6000806001600085815260200190815260200160002060000160189054906101000a900467ffffffffffffffff1667ffffffffffffffff161480156117ed575060006001600084815260200190815260200160002060000160189054906101000a900467ffffffffffffffff1667ffffffffffffffff16145b905092915050565b600061012c42019050806001600085815260200190815260200160002060000160106101000a81548167ffffffffffffffff021916908367ffffffffffffffff160217905550806001600084815260200190815260200160002060000160106101000a81548167ffffffffffffffff021916908367ffffffffffffffff160217905550505050565b60606040519081016040528060006fffffffffffffffffffffffffffffffff168152602001600067ffffffffffffffff168152602001600067ffffffffffffffff16815250905600a165627a7a723058200308c6334351a100fc70051d8c5b3d565adfffe425b8d53de0a57a5338d59d4d0029",
  "source": "\n\ncontract Ownable {\n  address public owner;\n\n\n  event OwnershipTransferred(address indexed previousOwner, address indexed newOwner);\n\n\n  \n  function Ownable() public {\n    owner = msg.sender;\n  }\n\n  \n  modifier onlyOwner() {\n    require(msg.sender == owner);\n    _;\n  }\n\n  \n  function transferOwnership(address newOwner) public onlyOwner {\n    require(newOwner != address(0));\n    OwnershipTransferred(owner, newOwner);\n    owner = newOwner;\n  }\n\n}\n\n\ncontract Pausable is Ownable {\n  event Pause();\n  event Unpause();\n\n  bool public paused = false;\n\n\n  \n  modifier whenNotPaused() {\n    require(!paused);\n    _;\n  }\n\n  \n  modifier whenPaused() {\n    require(paused);\n    _;\n  }\n\n  \n  function pause() onlyOwner whenNotPaused public {\n    paused = true;\n    Pause();\n  }\n\n  \n  function unpause() onlyOwner whenPaused public {\n    paused = false;\n    Unpause();\n  }\n}\n\ncontract SkinBase is Pausable {\n\n    struct Skin {\n        uint128 appearance;\n        uint64 cooldownEndTime;\n        uint64 mixingWithId;\n    }\n\n    \n    mapping (uint256 => Skin) skins;\n\n    \n    mapping (uint256 => address) public skinIdToOwner;\n\n    \n    mapping (uint256 => bool) public isOnSale;\n\n    \n    \n    uint256 public nextSkinId = 1;  \n\n    \n    mapping (address => uint256) public numSkinOfAccounts;\n\n    \n    \n    \n    \n\n    \n    \n    \n    \n    \n    \n    \n    \n    \n    \n    \n    \n    \n    \n    \n    \n    \n    \n    \n    \n    \n    \n\n    \n    function skinOfAccountById(address account, uint256 id) external view returns (uint256) {\n       uint256 count = 0;\n       uint256 numSkinOfAccount = numSkinOfAccounts[account];\n       require(numSkinOfAccount > 0);\n       require(id < numSkinOfAccount);\n       for (uint256 i = 1; i < nextSkinId; i++) {\n           if (skinIdToOwner[i] == account) {\n               \n               if (count == id) {\n                   \n                    return i;\n               } \n               count++;\n           }\n        }\n        revert();\n    }\n\n    \n    function getSkin(uint256 id) public view returns (uint128, uint64, uint64) {\n        require(id > 0);\n        require(id < nextSkinId);\n        Skin storage skin = skins[id];\n        return (skin.appearance, skin.cooldownEndTime, skin.mixingWithId);\n    }\n\n    function withdrawETH() external onlyOwner {\n        owner.transfer(this.balance);\n    }\n}\ncontract MixFormulaInterface {\n    function calcNewSkinAppearance(uint128 x, uint128 y) public pure returns (uint128);\n\n    \n    function randomSkinAppearance() public view returns (uint128);\n\n    \n    function bleachAppearance(uint128 appearance, uint128 attributes) public pure returns (uint128);\n}\ncontract SkinMix is SkinBase {\n\n    \n    MixFormulaInterface public mixFormula;\n\n\n    \n    uint256 public prePaidFee = 2500000 * 5000000000; \n\n    \n    event MixStart(address account, uint256 skinAId, uint256 skinBId);\n    event AutoMix(address account, uint256 skinAId, uint256 skinBId, uint64 cooldownEndTime);\n    event MixSuccess(address account, uint256 skinId, uint256 skinAId, uint256 skinBId);\n\n    \n    function setMixFormulaAddress(address mixFormulaAddress) external onlyOwner {\n        mixFormula = MixFormulaInterface(mixFormulaAddress);\n    }\n\n    \n    function setPrePaidFee(uint256 newPrePaidFee) external onlyOwner {\n        prePaidFee = newPrePaidFee;\n    }\n\n    \n    function _isCooldownReady(uint256 skinAId, uint256 skinBId) private view returns (bool) {\n        return (skins[skinAId].cooldownEndTime <= uint64(now)) && (skins[skinBId].cooldownEndTime <= uint64(now));\n    }\n\n    \n    function _isNotMixing(uint256 skinAId, uint256 skinBId) private view returns (bool) {\n        return (skins[skinAId].mixingWithId == 0) && (skins[skinBId].mixingWithId == 0);\n    }\n\n    \n    function _setCooldownEndTime(uint256 skinAId, uint256 skinBId) private {\n        uint256 end = now + 5 minutes;\n        \n        skins[skinAId].cooldownEndTime = uint64(end);\n        skins[skinBId].cooldownEndTime = uint64(end);\n    }\n\n    \n    \n    \n    \n    function _isValidSkin(address account, uint256 skinAId, uint256 skinBId) private view returns (bool) {\n        \n        if (skinAId == skinBId) {\n            return false;\n        }\n        if ((skinAId == 0) || (skinBId == 0)) {\n            return false;\n        }\n        if ((skinAId >= nextSkinId) || (skinBId >= nextSkinId)) {\n            return false;\n        }\n        return (skinIdToOwner[skinAId] == account) && (skinIdToOwner[skinBId] == account);\n    }\n\n    \n    function _isNotOnSale(uint256 skinId) private view returns (bool) {\n        return (isOnSale[skinId] == false);\n    }\n\n    \n    function mix(uint256 skinAId, uint256 skinBId) public whenNotPaused {\n\n        \n        require(_isValidSkin(msg.sender, skinAId, skinBId));\n\n        \n        require(_isNotOnSale(skinAId) && _isNotOnSale(skinBId));\n\n        \n        require(_isCooldownReady(skinAId, skinBId));\n\n        \n        require(_isNotMixing(skinAId, skinBId));\n\n        \n        _setCooldownEndTime(skinAId, skinBId);\n\n        \n        skins[skinAId].mixingWithId = uint64(skinBId);\n        skins[skinBId].mixingWithId = uint64(skinAId);\n\n        \n        MixStart(msg.sender, skinAId, skinBId);\n    }\n\n    \n    function mixAuto(uint256 skinAId, uint256 skinBId) public payable whenNotPaused {\n        require(msg.value >= prePaidFee);\n\n        mix(skinAId, skinBId);\n\n        Skin storage skin = skins[skinAId];\n\n        AutoMix(msg.sender, skinAId, skinBId, skin.cooldownEndTime);\n    }\n\n    \n    function getMixingResult(uint256 skinAId, uint256 skinBId) public whenNotPaused {\n        \n        address account = skinIdToOwner[skinAId];\n        require(account == skinIdToOwner[skinBId]);\n\n        \n        Skin storage skinA = skins[skinAId];\n        Skin storage skinB = skins[skinBId];\n        require(skinA.mixingWithId == uint64(skinBId));\n        require(skinB.mixingWithId == uint64(skinAId));\n\n        \n        require(_isCooldownReady(skinAId, skinBId));\n\n        \n        uint128 newSkinAppearance = mixFormula.calcNewSkinAppearance(skinA.appearance, skinB.appearance);\n        Skin memory newSkin = Skin({appearance: newSkinAppearance, cooldownEndTime: uint64(now), mixingWithId: 0});\n        skins[nextSkinId] = newSkin;\n        skinIdToOwner[nextSkinId] = account;\n        isOnSale[nextSkinId] = false;\n        nextSkinId++;\n\n        \n        skinA.mixingWithId = 0;\n        skinB.mixingWithId = 0;\n\n        \n        \n        \n        delete skinIdToOwner[skinAId];\n        delete skinIdToOwner[skinBId];\n        \n        numSkinOfAccounts[account] -= 1;\n\n        MixSuccess(account, nextSkinId - 1, skinAId, skinBId);\n    }\n}\ncontract SkinMarket is SkinMix {\n\n    \n    \n    uint128 public trCut = 290;\n\n    \n    mapping (uint256 => uint256) public desiredPrice;\n\n    \n    event PutOnSale(address account, uint256 skinId);\n    event WithdrawSale(address account, uint256 skinId);\n    event BuyInMarket(address buyer, uint256 skinId);\n\n    \n\n    \n    function putOnSale(uint256 skinId, uint256 price) public whenNotPaused {\n        \n        require(skinIdToOwner[skinId] == msg.sender);\n\n        \n        require(skins[skinId].mixingWithId == 0);\n\n        \n        require(isOnSale[skinId] == false);\n\n        require(price > 0); \n\n        \n        desiredPrice[skinId] = price;\n        isOnSale[skinId] = true;\n\n        \n        PutOnSale(msg.sender, skinId);\n    }\n  \n    \n    function withdrawSale(uint256 skinId) external whenNotPaused {\n        \n        require(isOnSale[skinId] == true);\n        \n        \n        require(skinIdToOwner[skinId] == msg.sender);\n\n        \n        isOnSale[skinId] = false;\n        desiredPrice[skinId] = 0;\n\n        \n        WithdrawSale(msg.sender, skinId);\n    }\n \n    \n    function buyInMarket(uint256 skinId) external payable whenNotPaused {\n        \n        require(isOnSale[skinId] == true);\n\n        address seller = skinIdToOwner[skinId];\n\n        \n        require(msg.sender != seller);\n\n        uint256 _price = desiredPrice[skinId];\n        \n        require(msg.value >= _price);\n\n        \n        uint256 sellerProceeds = _price - _computeCut(_price);\n\n        seller.transfer(sellerProceeds);\n\n        \n        numSkinOfAccounts[seller] -= 1;\n        skinIdToOwner[skinId] = msg.sender;\n        numSkinOfAccounts[msg.sender] += 1;\n        isOnSale[skinId] = false;\n        desiredPrice[skinId] = 0;\n\n        \n        BuyInMarket(msg.sender, skinId);\n    }\n\n    \n    function _computeCut(uint256 _price) internal view returns (uint256) {\n        return _price * trCut / 10000;\n    }\n}\ncontract SkinMinting is SkinMarket {\n\n    \n    uint256 public skinCreatedLimit = 50000;\n\n    \n    mapping (address => uint256) public accoutToSummonNum;\n\n    \n    mapping (address => uint256) public accoutToPayLevel;\n    mapping (address => uint256) public accountsLastClearTime;\n\n    uint256 public levelClearTime = now;\n\n    \n    uint256 public baseSummonPrice = 3 finney;\n    uint256 public bleachPrice = 30 finney;\n\n    \n    uint256[5] public levelSplits = [10,\n                                     20,\n                                     50,\n                                     100,\n                                     200];\n    \n    uint256[6] public payMultiple = [1,\n                                     2,\n                                     4,\n                                     8,\n                                     20,\n                                     100];\n\n\n    \n    event CreateNewSkin(uint256 skinId, address account);\n    event Bleach(uint256 skinId, uint128 newAppearance);\n\n    \n\n    \n    function setBaseSummonPrice(uint256 newPrice) external onlyOwner {\n        baseSummonPrice = newPrice;\n    }\n\n    function setBleachPrice(uint256 newPrice) external onlyOwner {\n        bleachPrice = newPrice;\n    }\n\n    \n    function createSkin(uint128 specifiedAppearance, uint256 salePrice) external onlyOwner whenNotPaused {\n        require(numSkinOfAccounts[owner] < skinCreatedLimit);\n\n        \n        \n        Skin memory newSkin = Skin({appearance: specifiedAppearance, cooldownEndTime: uint64(now), mixingWithId: 0});\n        skins[nextSkinId] = newSkin;\n        skinIdToOwner[nextSkinId] = owner;\n        isOnSale[nextSkinId] = false;\n\n        \n        CreateNewSkin(nextSkinId, owner);\n\n        \n        putOnSale(nextSkinId, salePrice);\n\n        nextSkinId++;\n        numSkinOfAccounts[owner] += 1;   \n    }\n\n    \n    function summon() external payable whenNotPaused {\n        \n        if (accountsLastClearTime[msg.sender] == uint256(0)) {\n            \n            accountsLastClearTime[msg.sender] = now;\n        } else {\n            if (accountsLastClearTime[msg.sender] < levelClearTime && now > levelClearTime) {\n                accoutToSummonNum[msg.sender] = 0;\n                accoutToPayLevel[msg.sender] = 0;\n                accountsLastClearTime[msg.sender] = now;\n            }\n        }\n\n        uint256 payLevel = accoutToPayLevel[msg.sender];\n        uint256 price = payMultiple[payLevel] * baseSummonPrice;\n        require(msg.value >= price);\n\n        \n        uint128 randomAppearance = mixFormula.randomSkinAppearance();\n        \n        Skin memory newSkin = Skin({appearance: randomAppearance, cooldownEndTime: uint64(now), mixingWithId: 0});\n        skins[nextSkinId] = newSkin;\n        skinIdToOwner[nextSkinId] = msg.sender;\n        isOnSale[nextSkinId] = false;\n\n        \n        CreateNewSkin(nextSkinId, msg.sender);\n\n        nextSkinId++;\n        numSkinOfAccounts[msg.sender] += 1;\n        \n        accoutToSummonNum[msg.sender] += 1;\n        \n        \n        if (payLevel < 5) {\n            if (accoutToSummonNum[msg.sender] >= levelSplits[payLevel]) {\n                accoutToPayLevel[msg.sender] = payLevel + 1;\n            }\n        }\n    }\n\n    \n    function bleach(uint128 skinId, uint128 attributes) external payable whenNotPaused {\n        \n        require(msg.sender == skinIdToOwner[skinId]);\n\n        \n        require(isOnSale[skinId] == false);\n\n        \n        require(msg.value >= bleachPrice);\n\n        Skin storage originSkin = skins[skinId];\n        \n        require(originSkin.mixingWithId == 0);\n\n        uint128 newAppearance = mixFormula.bleachAppearance(originSkin.appearance, attributes);\n        originSkin.appearance = newAppearance;\n\n        \n        Bleach(skinId, newAppearance);\n    }\n\n    \n    function clearSummonNum() external onlyOwner {\n        uint256 nextDay = levelClearTime + 1 days;\n        if (now > nextDay) {\n            levelClearTime = nextDay;\n        }\n    }\n}",
  "sourcePath": "/home/XXX-1/smartrim-experiment/for-rlf/0x8e48f1fd56abd20d86bfb995f4b7ef1eb4f32d1c/contracts/0x8e48f1fd56abd20d86bfb995f4b7ef1eb4f32d1c.sol",
  "compiler": {
    "name": "solc",
    "version": "0.4.25+commit.59dbf8f1.Emscripten.clang"
  },
  "schemaVersion": "3.4.16",
  "updatedAt": "2025-08-14T04:00:27.643Z",
  "devdoc": {
    "methods": {}
  },
  "userdoc": {
    "methods": {}
  }
}