{
  "contractName": "UbermenschPrefundToken",
  "abi": [
    {
      "constant": false,
      "inputs": [
        {
          "name": "to",
          "type": "address"
        }
      ],
      "name": "invest",
      "outputs": [],
      "payable": true,
      "stateMutability": "payable",
      "type": "function"
    },
    {
      "constant": true,
      "inputs": [],
      "name": "name",
      "outputs": [
        {
          "name": "",
          "type": "string"
        }
      ],
      "payable": false,
      "stateMutability": "view",
      "type": "function"
    },
    {
      "constant": false,
      "inputs": [],
      "name": "stop",
      "outputs": [],
      "payable": false,
      "stateMutability": "nonpayable",
      "type": "function"
    },
    {
      "constant": true,
      "inputs": [],
      "name": "totalSupply",
      "outputs": [
        {
          "name": "",
          "type": "uint256"
        }
      ],
      "payable": false,
      "stateMutability": "view",
      "type": "function"
    },
    {
      "constant": false,
      "inputs": [],
      "name": "transform",
      "outputs": [],
      "payable": false,
      "stateMutability": "nonpayable",
      "type": "function"
    },
    {
      "constant": true,
      "inputs": [],
      "name": "decimals",
      "outputs": [
        {
          "name": "",
          "type": "uint256"
        }
      ],
      "payable": false,
      "stateMutability": "view",
      "type": "function"
    },
    {
      "constant": true,
      "inputs": [],
      "name": "getCurrentBonus",
      "outputs": [
        {
          "name": "",
          "type": "uint256"
        }
      ],
      "payable": false,
      "stateMutability": "view",
      "type": "function"
    },
    {
      "constant": true,
      "inputs": [
        {
          "name": "_owner",
          "type": "address"
        }
      ],
      "name": "balanceOf",
      "outputs": [
        {
          "name": "balance",
          "type": "uint256"
        }
      ],
      "payable": false,
      "stateMutability": "view",
      "type": "function"
    },
    {
      "constant": true,
      "inputs": [],
      "name": "stopped",
      "outputs": [
        {
          "name": "",
          "type": "bool"
        }
      ],
      "payable": false,
      "stateMutability": "view",
      "type": "function"
    },
    {
      "constant": true,
      "inputs": [],
      "name": "transformAgent",
      "outputs": [
        {
          "name": "",
          "type": "address"
        }
      ],
      "payable": false,
      "stateMutability": "view",
      "type": "function"
    },
    {
      "constant": false,
      "inputs": [
        {
          "name": "agent",
          "type": "address"
        }
      ],
      "name": "setTransformAgent",
      "outputs": [],
      "payable": false,
      "stateMutability": "nonpayable",
      "type": "function"
    },
    {
      "constant": true,
      "inputs": [],
      "name": "getTransformState",
      "outputs": [
        {
          "name": "",
          "type": "uint8"
        }
      ],
      "payable": false,
      "stateMutability": "view",
      "type": "function"
    },
    {
      "constant": true,
      "inputs": [],
      "name": "owner",
      "outputs": [
        {
          "name": "",
          "type": "address"
        }
      ],
      "payable": false,
      "stateMutability": "view",
      "type": "function"
    },
    {
      "constant": true,
      "inputs": [],
      "name": "multisigWallet",
      "outputs": [
        {
          "name": "",
          "type": "address"
        }
      ],
      "payable": false,
      "stateMutability": "view",
      "type": "function"
    },
    {
      "constant": true,
      "inputs": [],
      "name": "symbol",
      "outputs": [
        {
          "name": "",
          "type": "string"
        }
      ],
      "payable": false,
      "stateMutability": "view",
      "type": "function"
    },
    {
      "constant": true,
      "inputs": [],
      "name": "totalFunds",
      "outputs": [
        {
          "name": "",
          "type": "uint256"
        }
      ],
      "payable": false,
      "stateMutability": "view",
      "type": "function"
    },
    {
      "constant": true,
      "inputs": [],
      "name": "TOKEN_CAP",
      "outputs": [
        {
          "name": "",
          "type": "uint256"
        }
      ],
      "payable": false,
      "stateMutability": "view",
      "type": "function"
    },
    {
      "constant": true,
      "inputs": [],
      "name": "totalTransformedTokens",
      "outputs": [
        {
          "name": "",
          "type": "uint256"
        }
      ],
      "payable": false,
      "stateMutability": "view",
      "type": "function"
    },
    {
      "constant": false,
      "inputs": [],
      "name": "buy",
      "outputs": [],
      "payable": true,
      "stateMutability": "payable",
      "type": "function"
    },
    {
      "constant": false,
      "inputs": [
        {
          "name": "_to",
          "type": "address"
        },
        {
          "name": "_value",
          "type": "uint256"
        }
      ],
      "name": "transfer",
      "outputs": [],
      "payable": false,
      "stateMutability": "nonpayable",
      "type": "function"
    },
    {
      "constant": true,
      "inputs": [],
      "name": "TOKEN_PRICE",
      "outputs": [
        {
          "name": "",
          "type": "uint256"
        }
      ],
      "payable": false,
      "stateMutability": "view",
      "type": "function"
    },
    {
      "constant": true,
      "inputs": [],
      "name": "investorCount",
      "outputs": [
        {
          "name": "",
          "type": "uint256"
        }
      ],
      "payable": false,
      "stateMutability": "view",
      "type": "function"
    },
    {
      "constant": true,
      "inputs": [
        {
          "name": "",
          "type": "address"
        }
      ],
      "name": "funds",
      "outputs": [
        {
          "name": "",
          "type": "uint256"
        }
      ],
      "payable": false,
      "stateMutability": "view",
      "type": "function"
    },
    {
      "constant": false,
      "inputs": [
        {
          "name": "newOwner",
          "type": "address"
        }
      ],
      "name": "transferOwnership",
      "outputs": [],
      "payable": false,
      "stateMutability": "nonpayable",
      "type": "function"
    },
    {
      "inputs": [],
      "payable": false,
      "stateMutability": "nonpayable",
      "type": "constructor"
    },
    {
      "payable": true,
      "stateMutability": "payable",
      "type": "fallback"
    },
    {
      "anonymous": false,
      "inputs": [
        {
          "indexed": true,
          "name": "investor",
          "type": "address"
        },
        {
          "indexed": false,
          "name": "weiAmount",
          "type": "uint256"
        },
        {
          "indexed": false,
          "name": "tokenAmount",
          "type": "uint256"
        }
      ],
      "name": "Invested",
      "type": "event"
    },
    {
      "anonymous": false,
      "inputs": [
        {
          "indexed": true,
          "name": "_from",
          "type": "address"
        },
        {
          "indexed": true,
          "name": "_to",
          "type": "address"
        },
        {
          "indexed": false,
          "name": "_tokens",
          "type": "uint256"
        },
        {
          "indexed": false,
          "name": "_funds",
          "type": "uint256"
        }
      ],
      "name": "Transform",
      "type": "event"
    },
    {
      "anonymous": false,
      "inputs": [
        {
          "indexed": false,
          "name": "agent",
          "type": "address"
        }
      ],
      "name": "TransformAgentSet",
      "type": "event"
    },
    {
      "anonymous": false,
      "inputs": [
        {
          "indexed": true,
          "name": "from",
          "type": "address"
        },
        {
          "indexed": true,
          "name": "to",
          "type": "address"
        },
        {
          "indexed": false,
          "name": "value",
          "type": "uint256"
        }
      ],
      "name": "Transfer",
      "type": "event"
    }
  ],
  "bytecode": "0x608060405234801561001057600080fd5b5061012333600460006101000a81548173ffffffffffffffffffffffffffffffffffffffff021916908373ffffffffffffffffffffffffffffffffffffffff16021790555061006d816100b4640100000000026401000000009004565b80600860006101000a81548173ffffffffffffffffffffffffffffffffffffffff021916908373ffffffffffffffffffffffffffffffffffffffff1602179055505061018b565b600460009054906101000a900473ffffffffffffffffffffffffffffffffffffffff1673ffffffffffffffffffffffffffffffffffffffff163373ffffffffffffffffffffffffffffffffffffffff1614151561011057600080fd5b600073ffffffffffffffffffffffffffffffffffffffff168173ffffffffffffffffffffffffffffffffffffffff161415156101885780600460006101000a81548173ffffffffffffffffffffffffffffffffffffffff021916908373ffffffffffffffffffffffffffffffffffffffff1602179055505b50565b6116a78061019a6000396000f30060806040526004361061013e576000357c0100000000000000000000000000000000000000000000000000000000900463ffffffff16806303f9c7931461014857806306fdde031461017e57806307da68f51461020e57806318160ddd146102255780633054c79a14610250578063313ce5671461026757806357e5eea51461029257806370a08231146102bd57806375f12b2114610314578063851545de146103435780638676993f1461039a57806388088a54146103dd5780638da5cb5b146104165780639075becf1461046d57806395d89b41146104c4578063968ed600146105545780639a6524f11461057f5780639f2f077c146105aa578063a6f2ae3a146105d5578063a9059cbb146105df578063d2d8cb671461062c578063d7e64c0014610657578063e2ae93fb14610682578063f2fde38b146106d9575b61014661071c565b005b61017c600480360381019080803573ffffffffffffffffffffffffffffffffffffffff169060200190929190505050610727565b005b34801561018a57600080fd5b506101936109ce565b6040518080602001828103825283818151815260200191508051906020019080838360005b838110156101d35780820151818401526020810190506101b8565b50505050905090810190601f1680156102005780820380516001836020036101000a031916815260200191505b509250505060405180910390f35b34801561021a57600080fd5b50610223610a07565b005b34801561023157600080fd5b5061023a610a80565b6040518082815260200191505060405180910390f35b34801561025c57600080fd5b50610265610a86565b005b34801561027357600080fd5b5061027c610e06565b6040518082815260200191505060405180910390f35b34801561029e57600080fd5b506102a7610e0b565b6040518082815260200191505060405180910390f35b3480156102c957600080fd5b506102fe600480360381019080803573ffffffffffffffffffffffffffffffffffffffff169060200190929190505050610e4d565b6040518082815260200191505060405180910390f35b34801561032057600080fd5b50610329610e96565b604051808215151515815260200191505060405180910390f35b34801561034f57600080fd5b50610358610ea9565b604051808273ffffffffffffffffffffffffffffffffffffffff1673ffffffffffffffffffffffffffffffffffffffff16815260200191505060405180910390f35b3480156103a657600080fd5b506103db600480360381019080803573ffffffffffffffffffffffffffffffffffffffff169060200190929190505050610ecf565b005b3480156103e957600080fd5b506103f26112b2565b6040518082600481111561040257fe5b60ff16815260200191505060405180910390f35b34801561042257600080fd5b5061042b611319565b604051808273ffffffffffffffffffffffffffffffffffffffff1673ffffffffffffffffffffffffffffffffffffffff16815260200191505060405180910390f35b34801561047957600080fd5b5061048261133f565b604051808273ffffffffffffffffffffffffffffffffffffffff1673ffffffffffffffffffffffffffffffffffffffff16815260200191505060405180910390f35b3480156104d057600080fd5b506104d9611365565b6040518080602001828103825283818151815260200191508051906020019080838360005b838110156105195780820151818401526020810190506104fe565b50505050905090810190601f1680156105465780820380516001836020036101000a031916815260200191505b509250505060405180910390f35b34801561056057600080fd5b5061056961139e565b6040518082815260200191505060405180910390f35b34801561058b57600080fd5b506105946113a4565b6040518082815260200191505060405180910390f35b3480156105b657600080fd5b506105bf6113b2565b6040518082815260200191505060405180910390f35b6105dd61071c565b005b3480156105eb57600080fd5b5061062a600480360381019080803573ffffffffffffffffffffffffffffffffffffffff169060200190929190803590602001909291905050506113b8565b005b34801561063857600080fd5b506106416113bd565b6040518082815260200191505060405180910390f35b34801561066357600080fd5b5061066c6113c8565b6040518082815260200191505060405180910390f35b34801561068e57600080fd5b506106c3600480360381019080803573ffffffffffffffffffffffffffffffffffffffff1690602001909291905050506113ce565b6040518082815260200191505060405180910390f35b3480156106e557600080fd5b5061071a600480360381019080803573ffffffffffffffffffffffffffffffffffffffff1690602001909291905050506113e6565b005b61072533610727565b565b600080600860149054906101000a900460ff1615151561074657600080fd5b6002600481111561075357fe5b61075b6112b2565b600481111561076657fe5b14151561077257600080fd5b3491506107ca6608e1bc9bf040006107bc60646008600a0a81151561079357fe5b046107ae866107a0610e0b565b6114bd90919063ffffffff16565b6114bd90919063ffffffff16565b6114f090919063ffffffff16565b9050600081101515156107dc57600080fd5b6000600260008573ffffffffffffffffffffffffffffffffffffffff1673ffffffffffffffffffffffffffffffffffffffff16815260200190815260200160002054141561083557600760008154600101919050819055505b61088782600260008673ffffffffffffffffffffffffffffffffffffffff1673ffffffffffffffffffffffffffffffffffffffff1681526020019081526020016000205461153190919063ffffffff16565b600260008573ffffffffffffffffffffffffffffffffffffffff1673ffffffffffffffffffffffffffffffffffffffff168152602001908152602001600020819055506108df8260035461153190919063ffffffff16565b6003819055506108ef838261154f565b6008600a0a6301312d00026000541115151561090a57600080fd5b600860009054906101000a900473ffffffffffffffffffffffffffffffffffffffff1673ffffffffffffffffffffffffffffffffffffffff166108fc839081150290604051600060405180830381858888f19350505050158015610972573d6000803e3d6000fd5b508273ffffffffffffffffffffffffffffffffffffffff167f9e9d071824fd57d062ca63fd8b786d8da48a6807eebbcb2d83f9e8d21398e28c8383604051808381526020018281526020019250505060405180910390a2505050565b6040805190810160405280601281526020017f556265726d656e7363682050726566756e64000000000000000000000000000081525081565b600460009054906101000a900473ffffffffffffffffffffffffffffffffffffffff1673ffffffffffffffffffffffffffffffffffffffff163373ffffffffffffffffffffffffffffffffffffffff16141515610a6357600080fd5b6001600860146101000a81548160ff021916908315150217905550565b60005481565b6000806000610a936112b2565b925060036004811115610aa257fe5b836004811115610aae57fe5b1480610acf5750600480811115610ac157fe5b836004811115610acd57fe5b145b1515610ada57600080fd5b600160003373ffffffffffffffffffffffffffffffffffffffff1673ffffffffffffffffffffffffffffffffffffffff168152602001908152602001600020549150600260003373ffffffffffffffffffffffffffffffffffffffff1673ffffffffffffffffffffffffffffffffffffffff168152602001908152602001600020549050600082111515610b6d57600080fd5b6000600160003373ffffffffffffffffffffffffffffffffffffffff1673ffffffffffffffffffffffffffffffffffffffff168152602001908152602001600020819055506000600260003373ffffffffffffffffffffffffffffffffffffffff1673ffffffffffffffffffffffffffffffffffffffff16815260200190815260200160002081905550610c0c8260005461165390919063ffffffff16565b600081905550610c278160035461165390919063ffffffff16565b600381905550610c428260065461153190919063ffffffff16565b600681905550600560009054906101000a900473ffffffffffffffffffffffffffffffffffffffff1673ffffffffffffffffffffffffffffffffffffffff16638e87fcbf3384846040518463ffffffff167c0100000000000000000000000000000000000000000000000000000000028152600401808473ffffffffffffffffffffffffffffffffffffffff1673ffffffffffffffffffffffffffffffffffffffff1681526020018381526020018281526020019350505050600060405180830381600087803b158015610d1557600080fd5b505af1158015610d29573d6000803e3d6000fd5b50505050600560009054906101000a900473ffffffffffffffffffffffffffffffffffffffff1673ffffffffffffffffffffffffffffffffffffffff163373ffffffffffffffffffffffffffffffffffffffff167f3bdb647c57c930454c395f23e876c6e21141f259f20a408b69a4f654572f21848484604051808381526020018281526020019250505060405180910390a3600080541415610e0157600460009054906101000a900473ffffffffffffffffffffffffffffffffffffffff1673ffffffffffffffffffffffffffffffffffffffff16ff5b505050565b600881565b60006008600a0a626acfc0026000541015610e295760b49050610e4a565b6008600a0a62d59f80026000541015610e4557609b9050610e4a565b608c90505b90565b6000600160008373ffffffffffffffffffffffffffffffffffffffff1673ffffffffffffffffffffffffffffffffffffffff168152602001908152602001600020549050919050565b600860149054906101000a900460ff1681565b600560009054906101000a900473ffffffffffffffffffffffffffffffffffffffff1681565b600460009054906101000a900473ffffffffffffffffffffffffffffffffffffffff1673ffffffffffffffffffffffffffffffffffffffff163373ffffffffffffffffffffffffffffffffffffffff16141515610f2b57600080fd5b60008173ffffffffffffffffffffffffffffffffffffffff1614151515610f5157600080fd5b600480811115610f5d57fe5b610f656112b2565b6004811115610f7057fe5b14151515610f7d57600080fd5b80600560006101000a81548173ffffffffffffffffffffffffffffffffffffffff021916908373ffffffffffffffffffffffffffffffffffffffff160217905550600560009054906101000a900473ffffffffffffffffffffffffffffffffffffffff1673ffffffffffffffffffffffffffffffffffffffff1663ea2e34f26040518163ffffffff167c0100000000000000000000000000000000000000000000000000000000028152600401602060405180830381600087803b15801561104457600080fd5b505af1158015611058573d6000803e3d6000fd5b505050506040513d602081101561106e57600080fd5b8101908080519060200190929190505050151561108a57600080fd5b600054600560009054906101000a900473ffffffffffffffffffffffffffffffffffffffff1673ffffffffffffffffffffffffffffffffffffffff16634b2ba0dd6040518163ffffffff167c0100000000000000000000000000000000000000000000000000000000028152600401602060405180830381600087803b15801561111357600080fd5b505af1158015611127573d6000803e3d6000fd5b505050506040513d602081101561113d57600080fd5b810190808051906020019092919050505014151561115a57600080fd5b600354600560009054906101000a900473ffffffffffffffffffffffffffffffffffffffff1673ffffffffffffffffffffffffffffffffffffffff16630dfc2bcd6040518163ffffffff167c0100000000000000000000000000000000000000000000000000000000028152600401602060405180830381600087803b1580156111e357600080fd5b505af11580156111f7573d6000803e3d6000fd5b505050506040513d602081101561120d57600080fd5b810190808051906020019092919050505014151561122a57600080fd5b7fb637493e0d4687b69dcd973b99799aefa9ea83fd32876fc21965e7e6bad66ecb600560009054906101000a900473ffffffffffffffffffffffffffffffffffffffff16604051808273ffffffffffffffffffffffffffffffffffffffff1673ffffffffffffffffffffffffffffffffffffffff16815260200191505060405180910390a150565b600080600560009054906101000a900473ffffffffffffffffffffffffffffffffffffffff1673ffffffffffffffffffffffffffffffffffffffff1614156112fd5760029050611316565b600060065414156113115760039050611316565b600490505b90565b600460009054906101000a900473ffffffffffffffffffffffffffffffffffffffff1681565b600860009054906101000a900473ffffffffffffffffffffffffffffffffffffffff1681565b6040805190810160405280600381526020017f554d50000000000000000000000000000000000000000000000000000000000081525081565b60035481565b6008600a0a6301312d000281565b60065481565b600080fd5b6608e1bc9bf0400081565b60075481565b60026020528060005260406000206000915090505481565b600460009054906101000a900473ffffffffffffffffffffffffffffffffffffffff1673ffffffffffffffffffffffffffffffffffffffff163373ffffffffffffffffffffffffffffffffffffffff1614151561144257600080fd5b600073ffffffffffffffffffffffffffffffffffffffff168173ffffffffffffffffffffffffffffffffffffffff161415156114ba5780600460006101000a81548173ffffffffffffffffffffffffffffffffffffffff021916908373ffffffffffffffffffffffffffffffffffffffff1602179055505b50565b60008082840290506114e660008514806114e157508385838115156114de57fe5b04145b61166c565b8091505092915050565b6000806114ff6000841161166c565b828481151561150a57fe5b049050611527838581151561151b57fe5b0682850201851461166c565b8091505092915050565b60008082840190506115458482101561166c565b8091505092915050565b6115648160005461153190919063ffffffff16565b6000819055506115bc81600160008573ffffffffffffffffffffffffffffffffffffffff1673ffffffffffffffffffffffffffffffffffffffff1681526020019081526020016000205461153190919063ffffffff16565b600160008473ffffffffffffffffffffffffffffffffffffffff1673ffffffffffffffffffffffffffffffffffffffff168152602001908152602001600020819055508173ffffffffffffffffffffffffffffffffffffffff1660007fddf252ad1be2c89b69c2b068fc378daa952ba7f163c4a11628f55a4df523b3ef836040518082815260200191505060405180910390a35050565b60006116618383111561166c565b818303905092915050565b80151561167857600080fd5b505600a165627a7a723058201dabd6353ebf8021863751a4bab532c68912b7200d3df88189c3fff75b4897850029",
  "source": "\n\n\n\nlibrary SafeMath {\n  function mul(uint a, uint b) internal returns (uint) {\n    uint c = a * b;\n    assert(a == 0 || c / a == b);\n    return c;\n  }\n\n  function div(uint a, uint b) internal returns (uint) {\n    assert(b > 0);\n    uint c = a / b;\n    assert(a == b * c + a % b);\n    return c;\n  }\n\n  function sub(uint a, uint b) internal returns (uint) {\n    assert(b <= a);\n    return a - b;\n  }\n\n  function add(uint a, uint b) internal returns (uint) {\n    uint c = a + b;\n    assert(c >= a);\n    return c;\n  }\n\n  function max64(uint64 a, uint64 b) internal constant returns (uint64) {\n    return a >= b ? a : b;\n  }\n\n  function min64(uint64 a, uint64 b) internal constant returns (uint64) {\n    return a < b ? a : b;\n  }\n\n  function max256(uint256 a, uint256 b) internal constant returns (uint256) {\n    return a >= b ? a : b;\n  }\n\n  function min256(uint256 a, uint256 b) internal constant returns (uint256) {\n    return a < b ? a : b;\n  }\n\n  function assert(bool assertion) internal {\n    if (!assertion) {\n      throw;\n    }\n  }\n}\n\n\n\ncontract Ownable {\n  address public owner;\n\n  function Ownable() {\n    owner = msg.sender;\n  }\n\n  modifier onlyOwner() {\n    if (msg.sender != owner) {\n      throw;\n    }\n    _;\n  }\n\n  function transferOwnership(address newOwner) onlyOwner {\n    if (newOwner != address(0)) {\n      owner = newOwner;\n    }\n  }\n}\n\n\n\ncontract ERC20Basic {\n  uint public totalSupply;\n  function balanceOf(address who) constant returns (uint);\n  function transfer(address to, uint value);\n  event Transfer(address indexed from, address indexed to, uint value);\n}\n\n\n\ncontract BasicToken is ERC20Basic {\n  using SafeMath for uint;\n\n  mapping(address => uint) balances;\n\n  \n  modifier onlyPayloadSize(uint size) {\n     if(msg.data.length < size + 4) {\n       throw;\n     }\n     _;\n  }\n\n  function transfer(address _to, uint _value) onlyPayloadSize(2 * 32) {\n    balances[msg.sender] = balances[msg.sender].sub(_value);\n    balances[_to] = balances[_to].add(_value);\n    Transfer(msg.sender, _to, _value);\n  }\n\n  function balanceOf(address _owner) constant returns (uint balance) {\n    return balances[_owner];\n  }\n}\n\n\n\ncontract FundableToken is BasicToken {\n    \n    mapping(address => uint) public funds;\n\n    \n    uint public totalFunds;\n\n    function FundableToken() {}\n}\n\n\n\ncontract TransformAgent {\n    \n    uint256 public originalSupply;\n    \n    uint256 public originalFunds;\n\n    \n    function isTransformAgent() public constant returns (bool) {\n        return true;\n    }\n\n    function transformFrom(address _from, uint256 _tokens, uint256 _funds) public;\n\n}\n\n\n\ncontract TransformableToken is FundableToken, Ownable {\n\n    \n    TransformAgent public transformAgent;\n\n    \n    uint256 public totalTransformedTokens;\n\n    \n    enum TransformState {Unknown, NotAllowed, WaitingForAgent, ReadyToTransform, Transforming}\n\n    \n    event Transform(address indexed _from, address indexed _to, uint256 _tokens, uint256 _funds);\n\n    \n    event TransformAgentSet(address agent);\n\n    \n    function transform() public {\n\n        TransformState state = getTransformState();\n        require(state == TransformState.ReadyToTransform || state == TransformState.Transforming);\n\n        uint tokens = balances[msg.sender];\n        uint investments = funds[msg.sender];\n        require(tokens > 0); \n\n        balances[msg.sender] = 0;\n        funds[msg.sender] = 0;\n\n        \n        totalSupply = totalSupply.sub(tokens);\n        totalFunds = totalFunds.sub(investments);\n\n        totalTransformedTokens = totalTransformedTokens.add(tokens);\n\n        \n        transformAgent.transformFrom(msg.sender, tokens, investments);\n        Transform(msg.sender, transformAgent, tokens, investments);\n\n        \n        if(totalSupply == 0)\n            selfdestruct(owner);\n    }\n\n    \n    function setTransformAgent(address agent) onlyOwner external {\n        require(agent != 0x0);\n        \n        require(getTransformState() != TransformState.Transforming);\n\n        transformAgent = TransformAgent(agent);\n\n        \n        require(transformAgent.isTransformAgent());\n        \n        require(transformAgent.originalSupply() == totalSupply);\n        require(transformAgent.originalFunds() == totalFunds);\n\n        TransformAgentSet(transformAgent);\n    }\n\n    \n    function getTransformState() public constant returns(TransformState) {\n        if(address(transformAgent) == 0x00) return TransformState.WaitingForAgent;\n        else if(totalTransformedTokens == 0) return TransformState.ReadyToTransform;\n        else return TransformState.Transforming;\n    }\n}\n\n\n\ncontract MintableToken is BasicToken {\n    \n\n    function mint(address _to, uint _amount) internal {\n        totalSupply = totalSupply.add(_amount);\n        balances[_to] = balances[_to].add(_amount);\n        \n        Transfer(0x0, _to, _amount);\n    }\n}\n\n\n\n\ncontract UbermenschPrefundToken_1 is MintableToken, TransformableToken {\n    string constant public name = \"Ubermensch Prefund\";\n    string constant public symbol = \"UMP\";\n    uint constant public decimals = 8;\n\n    \n    uint constant public TOKEN_PRICE = 0.0025 * 1 ether;\n    \n    uint constant public TOKEN_CAP = 20000000 * (10 ** decimals);\n\n    uint public investorCount;\n    address public multisigWallet;\n    bool public stopped;\n\n    \n    event Invested(address indexed investor, uint weiAmount, uint tokenAmount);\n\n    function UbermenschPrefundToken_1(address multisig){\n        \n        \n        \n        \n        \n        transferOwnership(multisig);\n        multisigWallet = multisig;\n    }\n\n    modifier onlyActive(){\n        require(!stopped);\n        \n        require(getTransformState() == TransformState.WaitingForAgent);\n        _;\n    }\n\n    \n    function getCurrentBonus() public constant returns (uint){\n        if(totalSupply < 7000000 * (10 ** decimals))\n            return 180;\n        if(totalSupply < 14000000 * (10 ** decimals))\n            return 155;\n        return 140;\n    }\n\n    \n    \n    function invest(address to) onlyActive public payable {\n        uint amount = msg.value;\n        \n        uint tokenAmount = getCurrentBonus().mul(amount).mul(10 ** decimals / 100).div(TOKEN_PRICE);\n\n        require(tokenAmount >= 0);\n\n        if(funds[to] == 0) {\n            \n            ++investorCount;\n        }\n\n        \n        funds[to] = funds[to].add(amount);\n        totalFunds = totalFunds.add(amount);\n\n        \n        mint(to, tokenAmount);\n\n        \n        \n        \n        require(totalSupply <= TOKEN_CAP);\n\n        \n        multisigWallet.transfer(amount);\n\n        \n        Invested(to, amount, tokenAmount);\n    }\n\n    function buy() public payable {\n        invest(msg.sender);\n    }\n\n    function transfer(address _to, uint _value){\n        throw; \n    }\n\n    \n    function stop() onlyOwner {\n        stopped = true;\n    }\n\n    \n    function () payable{\n        buy();\n    }\n}\n    \ncontract UbermenschPrefundToken is UbermenschPrefundToken_1 {\n    constructor() UbermenschPrefundToken_1(address(0x123)) public { }\n}\n",
  "sourcePath": "/home/XXX-1/smartrim-experiment/for-rlf/0xbdb0b3f3b4c154f55006ba428790dcb19391a7e8/contracts/0xbdb0b3f3b4c154f55006ba428790dcb19391a7e8.sol",
  "compiler": {
    "name": "solc",
    "version": "0.4.25+commit.59dbf8f1.Emscripten.clang"
  },
  "schemaVersion": "3.4.16",
  "updatedAt": "2025-08-14T04:05:38.478Z",
  "networkType": "ethereum",
  "devdoc": {
    "methods": {}
  },
  "userdoc": {
    "methods": {}
  }
}