{
  "contractName": "CryptoVideoGames",
  "abi": [
    {
      "constant": true,
      "inputs": [
        {
          "name": "_videoGameId",
          "type": "uint256"
        }
      ],
      "name": "getVideoGameOwner",
      "outputs": [
        {
          "name": "",
          "type": "address"
        }
      ],
      "payable": false,
      "stateMutability": "view",
      "type": "function"
    }
  ],
  "bytecode": "0x608060405234801561001057600080fd5b5060e18061001f6000396000f300608060405260043610603f576000357c0100000000000000000000000000000000000000000000000000000000900463ffffffff168063ab22a640146044575b600080fd5b348015604f57600080fd5b50606c6004803603810190808035906020019092919050505060ae565b604051808273ffffffffffffffffffffffffffffffffffffffff1673ffffffffffffffffffffffffffffffffffffffff16815260200191505060405180910390f35b60009190505600a165627a7a72305820e16de7ed6d96759841a653be2449e77eafd4104a6532f8ba380d64ec3585b2f30029",
  "source": "\n\ncontract CryptoVideoGameItem {\n\n    address contractCreator = 0xC15d9f97aC926a6A29A681f5c19e2b56fd208f00; \n    address devFeeAddress = 0xC15d9f97aC926a6A29A681f5c19e2b56fd208f00;\n\n    address cryptoVideoGames = 0xdEc14D8f4DA25108Fd0d32Bf2DeCD9538564D069; \n\n    struct VideoGameItem {\n        string videoGameItemName;\n        address ownerAddress;\n        uint256 currentPrice;\n        uint parentVideoGame;\n    }\n    VideoGameItem[] videoGameItems;\n\n    modifier onlyContractCreator() {\n        require (msg.sender == contractCreator);\n        _;\n    }\n\n    bool isPaused;\n    \n    \n    \n    function pauseGame() public onlyContractCreator {\n        isPaused = true;\n    }\n    function unPauseGame() public onlyContractCreator {\n        isPaused = false;\n    }\n    function GetGamestatus() public view returns(bool) {\n       return(isPaused);\n    }\n\n    \n    function purchaseVideoGameItem(uint _videoGameItemId) public payable {\n        require(msg.value >= videoGameItems[_videoGameItemId].currentPrice);\n        require(isPaused == false);\n\n        CryptoVideoGames parentContract = CryptoVideoGames(cryptoVideoGames);\n        uint256 currentPrice = videoGameItems[_videoGameItemId].currentPrice;\n        uint256 excess = msg.value - currentPrice;\n        \n        uint256 devFee = (currentPrice / 10);\n        uint256 parentOwnerFee = (currentPrice / 10);\n\n        address parentOwner = parentContract.getVideoGameOwner(videoGameItems[_videoGameItemId].parentVideoGame);\n        address newOwner = msg.sender;\n        \n        uint256 commissionOwner = currentPrice - devFee - parentOwnerFee; \n        videoGameItems[_videoGameItemId].ownerAddress.transfer(commissionOwner);\n\n        \n        devFeeAddress.transfer(devFee); \n        parentOwner.transfer(parentOwnerFee); \n        newOwner.transfer(excess);              \n\n        \n        videoGameItems[_videoGameItemId].ownerAddress = newOwner;\n        videoGameItems[_videoGameItemId].currentPrice = mul(videoGameItems[_videoGameItemId].currentPrice, 2);\n    }\n    \n    \n    function modifyCurrentVideoGameItemPrice(uint _videoGameItemId, uint256 _newPrice) public {\n        require(_newPrice > 0);\n        require(videoGameItems[_videoGameItemId].ownerAddress == msg.sender);\n        require(_newPrice < videoGameItems[_videoGameItemId].currentPrice);\n        videoGameItems[_videoGameItemId].currentPrice = _newPrice;\n    }\n    \n    \n    function getVideoGameItemDetails(uint _videoGameItemId) public view returns (\n        string videoGameItemName,\n        address ownerAddress,\n        uint256 currentPrice,\n        uint parentVideoGame\n    ) {\n        VideoGameItem memory _videoGameItem = videoGameItems[_videoGameItemId];\n\n        videoGameItemName = _videoGameItem.videoGameItemName;\n        ownerAddress = _videoGameItem.ownerAddress;\n        currentPrice = _videoGameItem.currentPrice;\n        parentVideoGame = _videoGameItem.parentVideoGame;\n    }\n    \n    \n    function getVideoGameItemCurrentPrice(uint _videoGameItemId) public view returns(uint256) {\n        return(videoGameItems[_videoGameItemId].currentPrice);\n    }\n    \n    \n    function getVideoGameItemOwner(uint _videoGameItemId) public view returns(address) {\n        return(videoGameItems[_videoGameItemId].ownerAddress);\n    }\n    \n    \n    \n    function mul(uint256 a, uint256 b) internal pure returns (uint256) {\n        if (a == 0) {\n          return 0;\n        }\n        uint256 c = a * b;\n        assert(c / a == b);\n        return c;\n    }\n\n    \n    function div(uint256 a, uint256 b) internal pure returns (uint256) {\n        \n        uint256 c = a / b;\n        \n        return c;\n    }\n    \n    \n    function addVideoGameItem(string videoGameItemName, address ownerAddress, uint256 currentPrice, uint parentVideoGame) public onlyContractCreator {\n        videoGameItems.push(VideoGameItem(videoGameItemName,ownerAddress,currentPrice, parentVideoGame));\n    }\n    \n}\n\n\n\ncontract CryptoVideoGames {\n    \n    \n    \n    \n    function getVideoGameOwner(uint _videoGameId) public view returns(address) {\n    }\n    \n}",
  "sourcePath": "/home/XXX-1/smartrim-experiment/for-rlf/0xd2606c9bc5efe092a8925e7d6ae2f63a84c5fdea/contracts/0xd2606c9bc5efe092a8925e7d6ae2f63a84c5fdea.sol",
  "compiler": {
    "name": "solc",
    "version": "0.4.25+commit.59dbf8f1.Emscripten.clang"
  },
  "schemaVersion": "3.4.16",
  "updatedAt": "2025-08-14T04:07:19.769Z",
  "devdoc": {
    "methods": {}
  },
  "userdoc": {
    "methods": {}
  }
}