{
  "contractName": "Artemine",
  "abi": [
    {
      "constant": true,
      "inputs": [],
      "name": "name",
      "outputs": [
        {
          "name": "",
          "type": "string"
        }
      ],
      "payable": false,
      "stateMutability": "view",
      "type": "function"
    },
    {
      "constant": true,
      "inputs": [],
      "name": "decimals",
      "outputs": [
        {
          "name": "",
          "type": "uint8"
        }
      ],
      "payable": false,
      "stateMutability": "view",
      "type": "function"
    },
    {
      "constant": true,
      "inputs": [],
      "name": "symbol",
      "outputs": [
        {
          "name": "",
          "type": "string"
        }
      ],
      "payable": false,
      "stateMutability": "view",
      "type": "function"
    },
    {
      "inputs": [],
      "payable": false,
      "stateMutability": "nonpayable",
      "type": "constructor"
    },
    {
      "anonymous": false,
      "inputs": [
        {
          "indexed": true,
          "name": "from",
          "type": "address"
        },
        {
          "indexed": true,
          "name": "to",
          "type": "address"
        },
        {
          "indexed": false,
          "name": "value",
          "type": "uint256"
        }
      ],
      "name": "Transfer",
      "type": "event"
    },
    {
      "anonymous": false,
      "inputs": [
        {
          "indexed": true,
          "name": "_owner",
          "type": "address"
        },
        {
          "indexed": true,
          "name": "_spender",
          "type": "address"
        },
        {
          "indexed": false,
          "name": "_value",
          "type": "uint256"
        }
      ],
      "name": "Approval",
      "type": "event"
    },
    {
      "anonymous": false,
      "inputs": [
        {
          "indexed": true,
          "name": "from",
          "type": "address"
        },
        {
          "indexed": true,
          "name": "to",
          "type": "address"
        },
        {
          "indexed": false,
          "name": "supply",
          "type": "uint256"
        }
      ],
      "name": "GenesisAddressTransfer",
      "type": "event"
    },
    {
      "anonymous": false,
      "inputs": [
        {
          "indexed": true,
          "name": "from",
          "type": "address"
        },
        {
          "indexed": true,
          "name": "to",
          "type": "address"
        },
        {
          "indexed": false,
          "name": "price",
          "type": "uint256"
        },
        {
          "indexed": false,
          "name": "supply",
          "type": "uint256"
        }
      ],
      "name": "GenesisAddressSale",
      "type": "event"
    },
    {
      "anonymous": false,
      "inputs": [
        {
          "indexed": true,
          "name": "from",
          "type": "address"
        },
        {
          "indexed": false,
          "name": "price",
          "type": "uint256"
        }
      ],
      "name": "GenesisBuyPriceHistory",
      "type": "event"
    },
    {
      "anonymous": false,
      "inputs": [
        {
          "indexed": true,
          "name": "to",
          "type": "address"
        },
        {
          "indexed": false,
          "name": "amount",
          "type": "uint256"
        }
      ],
      "name": "PublicMined",
      "type": "event"
    },
    {
      "constant": true,
      "inputs": [],
      "name": "currentEthBlock",
      "outputs": [
        {
          "name": "blockNumber",
          "type": "uint256"
        }
      ],
      "payable": false,
      "stateMutability": "view",
      "type": "function"
    },
    {
      "constant": true,
      "inputs": [],
      "name": "currentBlock",
      "outputs": [
        {
          "name": "blockNumber",
          "type": "uint256"
        }
      ],
      "payable": false,
      "stateMutability": "view",
      "type": "function"
    },
    {
      "constant": false,
      "inputs": [
        {
          "name": "_address",
          "type": "address"
        },
        {
          "name": "amount",
          "type": "uint256"
        }
      ],
      "name": "setGenesisAddress",
      "outputs": [
        {
          "name": "success",
          "type": "bool"
        }
      ],
      "payable": false,
      "stateMutability": "nonpayable",
      "type": "function"
    },
    {
      "constant": true,
      "inputs": [
        {
          "name": "_address",
          "type": "address"
        }
      ],
      "name": "availableBalanceOf",
      "outputs": [
        {
          "name": "Balance",
          "type": "uint256"
        }
      ],
      "payable": false,
      "stateMutability": "view",
      "type": "function"
    },
    {
      "constant": true,
      "inputs": [],
      "name": "totalSupply",
      "outputs": [
        {
          "name": "TotalSupply",
          "type": "uint256"
        }
      ],
      "payable": false,
      "stateMutability": "view",
      "type": "function"
    },
    {
      "constant": true,
      "inputs": [],
      "name": "maxTotalSupply",
      "outputs": [
        {
          "name": "maxSupply",
          "type": "uint256"
        }
      ],
      "payable": false,
      "stateMutability": "view",
      "type": "function"
    },
    {
      "constant": false,
      "inputs": [
        {
          "name": "_to",
          "type": "address"
        },
        {
          "name": "_value",
          "type": "uint256"
        }
      ],
      "name": "transfer",
      "outputs": [],
      "payable": false,
      "stateMutability": "nonpayable",
      "type": "function"
    },
    {
      "constant": false,
      "inputs": [
        {
          "name": "_from",
          "type": "address"
        },
        {
          "name": "_to",
          "type": "address"
        },
        {
          "name": "_amount",
          "type": "uint256"
        }
      ],
      "name": "transferFrom",
      "outputs": [
        {
          "name": "success",
          "type": "bool"
        }
      ],
      "payable": false,
      "stateMutability": "nonpayable",
      "type": "function"
    },
    {
      "constant": false,
      "inputs": [
        {
          "name": "_spender",
          "type": "address"
        },
        {
          "name": "_amount",
          "type": "uint256"
        }
      ],
      "name": "approve",
      "outputs": [
        {
          "name": "success",
          "type": "bool"
        }
      ],
      "payable": false,
      "stateMutability": "nonpayable",
      "type": "function"
    },
    {
      "constant": true,
      "inputs": [
        {
          "name": "_owner",
          "type": "address"
        },
        {
          "name": "_spender",
          "type": "address"
        }
      ],
      "name": "allowance",
      "outputs": [
        {
          "name": "remaining",
          "type": "uint256"
        }
      ],
      "payable": false,
      "stateMutability": "view",
      "type": "function"
    },
    {
      "constant": false,
      "inputs": [
        {
          "name": "_caller",
          "type": "address"
        }
      ],
      "name": "setGenesisCallerAddress",
      "outputs": [
        {
          "name": "success",
          "type": "bool"
        }
      ],
      "payable": false,
      "stateMutability": "nonpayable",
      "type": "function"
    },
    {
      "constant": true,
      "inputs": [
        {
          "name": "_address",
          "type": "address"
        }
      ],
      "name": "balanceOf",
      "outputs": [
        {
          "name": "balance",
          "type": "uint256"
        }
      ],
      "payable": false,
      "stateMutability": "view",
      "type": "function"
    },
    {
      "constant": false,
      "inputs": [
        {
          "name": "_to",
          "type": "address"
        }
      ],
      "name": "TransferGenesis",
      "outputs": [],
      "payable": false,
      "stateMutability": "nonpayable",
      "type": "function"
    },
    {
      "constant": false,
      "inputs": [
        {
          "name": "weiPrice",
          "type": "uint256"
        }
      ],
      "name": "SetGenesisBuyPrice",
      "outputs": [],
      "payable": false,
      "stateMutability": "nonpayable",
      "type": "function"
    },
    {
      "constant": false,
      "inputs": [
        {
          "name": "_address",
          "type": "address"
        }
      ],
      "name": "BuyGenesis",
      "outputs": [],
      "payable": true,
      "stateMutability": "payable",
      "type": "function"
    },
    {
      "constant": false,
      "inputs": [],
      "name": "PublicMine",
      "outputs": [],
      "payable": false,
      "stateMutability": "nonpayable",
      "type": "function"
    },
    {
      "constant": false,
      "inputs": [],
      "name": "stopSetup",
      "outputs": [
        {
          "name": "success",
          "type": "bool"
        }
      ],
      "payable": false,
      "stateMutability": "nonpayable",
      "type": "function"
    },
    {
      "constant": true,
      "inputs": [],
      "name": "InitialBlockCount",
      "outputs": [
        {
          "name": "",
          "type": "uint256"
        }
      ],
      "payable": false,
      "stateMutability": "view",
      "type": "function"
    },
    {
      "constant": true,
      "inputs": [],
      "name": "TotalGenesisAddresses",
      "outputs": [
        {
          "name": "",
          "type": "uint256"
        }
      ],
      "payable": false,
      "stateMutability": "view",
      "type": "function"
    },
    {
      "constant": true,
      "inputs": [],
      "name": "GenesisCallerAddress",
      "outputs": [
        {
          "name": "",
          "type": "address"
        }
      ],
      "payable": false,
      "stateMutability": "view",
      "type": "function"
    },
    {
      "constant": true,
      "inputs": [],
      "name": "MinedBlocks",
      "outputs": [
        {
          "name": "",
          "type": "uint256"
        }
      ],
      "payable": false,
      "stateMutability": "view",
      "type": "function"
    },
    {
      "constant": true,
      "inputs": [],
      "name": "PublicMiningReward",
      "outputs": [
        {
          "name": "",
          "type": "uint256"
        }
      ],
      "payable": false,
      "stateMutability": "view",
      "type": "function"
    },
    {
      "constant": true,
      "inputs": [],
      "name": "PublicMiningSupply",
      "outputs": [
        {
          "name": "",
          "type": "uint256"
        }
      ],
      "payable": false,
      "stateMutability": "view",
      "type": "function"
    },
    {
      "constant": true,
      "inputs": [],
      "name": "isSetupRunning",
      "outputs": [
        {
          "name": "",
          "type": "bool"
        }
      ],
      "payable": false,
      "stateMutability": "view",
      "type": "function"
    },
    {
      "constant": true,
      "inputs": [
        {
          "name": "_address",
          "type": "address"
        }
      ],
      "name": "IsGenesisAddress",
      "outputs": [
        {
          "name": "",
          "type": "bool"
        }
      ],
      "payable": false,
      "stateMutability": "view",
      "type": "function"
    },
    {
      "constant": true,
      "inputs": [
        {
          "name": "_address",
          "type": "address"
        }
      ],
      "name": "GenesisBuyPrice",
      "outputs": [
        {
          "name": "",
          "type": "uint256"
        }
      ],
      "payable": false,
      "stateMutability": "view",
      "type": "function"
    },
    {
      "constant": true,
      "inputs": [
        {
          "name": "_address",
          "type": "address"
        }
      ],
      "name": "GenesisRewardPerBlock",
      "outputs": [
        {
          "name": "",
          "type": "uint256"
        }
      ],
      "payable": false,
      "stateMutability": "view",
      "type": "function"
    },
    {
      "constant": true,
      "inputs": [
        {
          "name": "_address",
          "type": "address"
        }
      ],
      "name": "GenesisInitialSupply",
      "outputs": [
        {
          "name": "",
          "type": "uint256"
        }
      ],
      "payable": false,
      "stateMutability": "view",
      "type": "function"
    },
    {
      "constant": true,
      "inputs": [],
      "name": "GenesisSalesCount",
      "outputs": [
        {
          "name": "",
          "type": "uint256"
        }
      ],
      "payable": false,
      "stateMutability": "view",
      "type": "function"
    },
    {
      "constant": true,
      "inputs": [],
      "name": "GenesisSalesPriceCount",
      "outputs": [
        {
          "name": "",
          "type": "uint256"
        }
      ],
      "payable": false,
      "stateMutability": "view",
      "type": "function"
    },
    {
      "constant": true,
      "inputs": [],
      "name": "GenesisTransfersCount",
      "outputs": [
        {
          "name": "",
          "type": "uint256"
        }
      ],
      "payable": false,
      "stateMutability": "view",
      "type": "function"
    },
    {
      "constant": true,
      "inputs": [],
      "name": "PublicMineCallsCount",
      "outputs": [
        {
          "name": "",
          "type": "uint256"
        }
      ],
      "payable": false,
      "stateMutability": "view",
      "type": "function"
    }
  ],
  "bytecode": "0x60806040523480156200001157600080fd5b506040805190810160405280600881526020017f417274656d696e65000000000000000000000000000000000000000000000000815250600090805190602001906200005f92919062000179565b506040805190810160405280600481526020017f415254450000000000000000000000000000000000000000000000000000000081525060019080519060200190620000ad92919062000179565b506012600260006101000a81548160ff021916908360ff16021790555043600381905550651d1a94a20000600a8190555060006004819055506000600b819055506000600c819055506000600d819055506000600e8190555060006010819055506000600f819055506001601160006101000a81548160ff0219169083151502179055506000600560006101000a81548173ffffffffffffffffffffffffffffffffffffffff021916908373ffffffffffffffffffffffffffffffffffffffff16021790555062000228565b828054600181600116156101000203166002900490600052602060002090601f016020900481019282601f10620001bc57805160ff1916838001178555620001ed565b82800160010185558215620001ed579182015b82811115620001ec578251825591602001919060010190620001cf565b5b509050620001fc919062000200565b5090565b6200022591905b808211156200022157600081600090555060010162000207565b5090565b90565b612a0e80620002386000396000f3006080604052600436106101b7576000357c0100000000000000000000000000000000000000000000000000000000900463ffffffff16806306fdde03146101bc578063095ea7b31461024c57806309f6c607146102b15780630d571742146102dc5780630d8cba741461034157806317214a8a1461036c57806318160ddd146103c35780631856bc0f146103ee57806323b872dd1461042457806325d998bb146104a95780632704355c146105005780632ab4d0521461055b578063313ce56714610586578063342bd327146105b75780634349168e1461060e5780634a26410b146106395780634bdf666714610666578063542aa99f146106c157806359291e2f146106f05780636c70ad0d1461071b5780636ee4b4751461074657806370a082311461077157806370ee9edd146107c8578063729aeea6146107f35780637dce8dd414610822578063811bab321461084d57806387ccccb3146108a45780638d2810fe146108bb57806395d89b411461091257806399cfe743146109a2578063a9059cbb146109cd578063cf91e33114610a1a578063dd62ed3e14610a5d578063e12ed13c14610ad4578063e2c9bc9e14610aff575b600080fd5b3480156101c857600080fd5b506101d1610b2a565b6040518080602001828103825283818151815260200191508051906020019080838360005b838110156102115780820151818401526020810190506101f6565b50505050905090810190601f16801561023e5780820380516001836020036101000a031916815260200191505b509250505060405180910390f35b34801561025857600080fd5b50610297600480360381019080803573ffffffffffffffffffffffffffffffffffffffff16906020019092919080359060200190929190505050610bc8565b604051808215151515815260200191505060405180910390f35b3480156102bd57600080fd5b506102c6610cba565b6040518082815260200191505060405180910390f35b3480156102e857600080fd5b50610327600480360381019080803573ffffffffffffffffffffffffffffffffffffffff16906020019092919080359060200190929190505050610cc2565b604051808215151515815260200191505060405180910390f35b34801561034d57600080fd5b50610356610efc565b6040518082815260200191505060405180910390f35b34801561037857600080fd5b506103ad600480360381019080803573ffffffffffffffffffffffffffffffffffffffff169060200190929190505050610f06565b6040518082815260200191505060405180910390f35b3480156103cf57600080fd5b506103d8610f4f565b6040518082815260200191505060405180910390f35b610422600480360381019080803573ffffffffffffffffffffffffffffffffffffffff169060200190929190505050610f7b565b005b34801561043057600080fd5b5061048f600480360381019080803573ffffffffffffffffffffffffffffffffffffffff169060200190929190803573ffffffffffffffffffffffffffffffffffffffff1690602001909291908035906020019092919050505061163a565b604051808215151515815260200191505060405180910390f35b3480156104b557600080fd5b506104ea600480360381019080803573ffffffffffffffffffffffffffffffffffffffff169060200190929190505050611961565b6040518082815260200191505060405180910390f35b34801561050c57600080fd5b50610541600480360381019080803573ffffffffffffffffffffffffffffffffffffffff169060200190929190505050611b46565b604051808215151515815260200191505060405180910390f35b34801561056757600080fd5b50610570611bf3565b6040518082815260200191505060405180910390f35b34801561059257600080fd5b5061059b611c01565b604051808260ff1660ff16815260200191505060405180910390f35b3480156105c357600080fd5b506105f8600480360381019080803573ffffffffffffffffffffffffffffffffffffffff169060200190929190505050611c14565b6040518082815260200191505060405180910390f35b34801561061a57600080fd5b50610623611c5d565b6040518082815260200191505060405180910390f35b34801561064557600080fd5b5061066460048036038101908080359060200190929190505050611c67565b005b34801561067257600080fd5b506106a7600480360381019080803573ffffffffffffffffffffffffffffffffffffffff169060200190929190505050611da1565b604051808215151515815260200191505060405180910390f35b3480156106cd57600080fd5b506106d6611df7565b604051808215151515815260200191505060405180910390f35b3480156106fc57600080fd5b50610705611e72565b6040518082815260200191505060405180910390f35b34801561072757600080fd5b50610730611e87565b6040518082815260200191505060405180910390f35b34801561075257600080fd5b5061075b611e91565b6040518082815260200191505060405180910390f35b34801561077d57600080fd5b506107b2600480360381019080803573ffffffffffffffffffffffffffffffffffffffff169060200190929190505050611e9b565b6040518082815260200191505060405180910390f35b3480156107d457600080fd5b506107dd611ee4565b6040518082815260200191505060405180910390f35b3480156107ff57600080fd5b50610808611eee565b604051808215151515815260200191505060405180910390f35b34801561082e57600080fd5b50610837611f05565b6040518082815260200191505060405180910390f35b34801561085957600080fd5b50610862611f0f565b604051808273ffffffffffffffffffffffffffffffffffffffff1673ffffffffffffffffffffffffffffffffffffffff16815260200191505060405180910390f35b3480156108b057600080fd5b506108b9611f39565b005b3480156108c757600080fd5b506108fc600480360381019080803573ffffffffffffffffffffffffffffffffffffffff1690602001909291905050506120e3565b6040518082815260200191505060405180910390f35b34801561091e57600080fd5b5061092761212c565b6040518080602001828103825283818151815260200191508051906020019080838360005b8381101561096757808201518184015260208101905061094c565b50505050905090810190601f1680156109945780820380516001836020036101000a031916815260200191505b509250505060405180910390f35b3480156109ae57600080fd5b506109b76121ca565b6040518082815260200191505060405180910390f35b3480156109d957600080fd5b50610a18600480360381019080803573ffffffffffffffffffffffffffffffffffffffff169060200190929190803590602001909291905050506121d4565b005b348015610a2657600080fd5b50610a5b600480360381019080803573ffffffffffffffffffffffffffffffffffffffff16906020019092919050505061241c565b005b348015610a6957600080fd5b50610abe600480360381019080803573ffffffffffffffffffffffffffffffffffffffff169060200190929190803573ffffffffffffffffffffffffffffffffffffffff169060200190929190505050612945565b6040518082815260200191505060405180910390f35b348015610ae057600080fd5b50610ae96129cc565b6040518082815260200191505060405180910390f35b348015610b0b57600080fd5b50610b146129d8565b6040518082815260200191505060405180910390f35b60008054600181600116156101000203166002900480601f016020809104026020016040519081016040528092919081815260200182805460018160011615610100020316600290048015610bc05780601f10610b9557610100808354040283529160200191610bc0565b820191906000526020600020905b815481529060010190602001808311610ba357829003601f168201915b505050505081565b600081601760003373ffffffffffffffffffffffffffffffffffffffff1673ffffffffffffffffffffffffffffffffffffffff16815260200190815260200160002060008573ffffffffffffffffffffffffffffffffffffffff1673ffffffffffffffffffffffffffffffffffffffff168152602001908152602001600020819055508273ffffffffffffffffffffffffffffffffffffffff163373ffffffffffffffffffffffffffffffffffffffff167f8c5be1e5ebec7d5bd14f71427d1e84f3dd0314c0f7b2291e5b200ac8c7c3b925846040518082815260200191505060405180910390a36001905092915050565b600043905090565b6000601160009054906101000a900460ff1615610ef157600560009054906101000a900473ffffffffffffffffffffffffffffffffffffffff1673ffffffffffffffffffffffffffffffffffffffff163373ffffffffffffffffffffffffffffffffffffffff161415610ef0576000601260008573ffffffffffffffffffffffffffffffffffffffff1673ffffffffffffffffffffffffffffffffffffffff168152602001908152602001600020541415610d895760016004600082825401925050819055505b81601260008573ffffffffffffffffffffffffffffffffffffffff1673ffffffffffffffffffffffffffffffffffffffff1681526020019081526020016000206000828254019250508190555081601560008573ffffffffffffffffffffffffffffffffffffffff1673ffffffffffffffffffffffffffffffffffffffff168152602001908152602001600020600082825401925050819055506305f5e10082811515610e3257fe5b04601460008573ffffffffffffffffffffffffffffffffffffffff1673ffffffffffffffffffffffffffffffffffffffff168152602001908152602001600020600082825401925050819055506001601360008573ffffffffffffffffffffffffffffffffffffffff1673ffffffffffffffffffffffffffffffffffffffff16815260200190815260200160002060006101000a81548160ff02191690831515021790555081600c6000828254019250508190555060019050610ef6565b5b600090505b92915050565b6000600b54905090565b6000601560008373ffffffffffffffffffffffffffffffffffffffff1673ffffffffffffffffffffffffffffffffffffffff168152602001908152602001600020549050919050565b60006003544303600881905550600b546008546305f5e100600c54811515610f7357fe5b040201905090565b6000341415610f8957600080fd5b6000601660008373ffffffffffffffffffffffffffffffffffffffff1673ffffffffffffffffffffffffffffffffffffffff168152602001908152602001600020541415610fd657600080fd5b601360003373ffffffffffffffffffffffffffffffffffffffff1673ffffffffffffffffffffffffffffffffffffffff16815260200190815260200160002060009054906101000a900460ff161561102d57600080fd5b601360008273ffffffffffffffffffffffffffffffffffffffff1673ffffffffffffffffffffffffffffffffffffffff16815260200190815260200160002060009054906101000a900460ff16151561108557600080fd5b6000601260008373ffffffffffffffffffffffffffffffffffffffff1673ffffffffffffffffffffffffffffffffffffffff1681526020019081526020016000205414156110d257600080fd5b6000601260003373ffffffffffffffffffffffffffffffffffffffff1673ffffffffffffffffffffffffffffffffffffffff16815260200190815260200160002054111561111f57600080fd5b601660008273ffffffffffffffffffffffffffffffffffffffff1673ffffffffffffffffffffffffffffffffffffffff168152602001908152602001600020543414156111ab578073ffffffffffffffffffffffffffffffffffffffff166108fc349081150290604051600060405180830381858888f1935050505015156111a657600080fd5b6111b0565b600080fd5b601260008273ffffffffffffffffffffffffffffffffffffffff1673ffffffffffffffffffffffffffffffffffffffff16815260200190815260200160002054601260003373ffffffffffffffffffffffffffffffffffffffff1673ffffffffffffffffffffffffffffffffffffffff168152602001908152602001600020819055506000601260008373ffffffffffffffffffffffffffffffffffffffff1673ffffffffffffffffffffffffffffffffffffffff168152602001908152602001600020819055506001601360003373ffffffffffffffffffffffffffffffffffffffff1673ffffffffffffffffffffffffffffffffffffffff16815260200190815260200160002060006101000a81548160ff0219169083151502179055506000601360008373ffffffffffffffffffffffffffffffffffffffff1673ffffffffffffffffffffffffffffffffffffffff16815260200190815260200160002060006101000a81548160ff0219169083151502179055506000601660003373ffffffffffffffffffffffffffffffffffffffff1673ffffffffffffffffffffffffffffffffffffffff16815260200190815260200160002081905550601460008273ffffffffffffffffffffffffffffffffffffffff1673ffffffffffffffffffffffffffffffffffffffff16815260200190815260200160002054601460003373ffffffffffffffffffffffffffffffffffffffff1673ffffffffffffffffffffffffffffffffffffffff168152602001908152602001600020819055506000601460008373ffffffffffffffffffffffffffffffffffffffff1673ffffffffffffffffffffffffffffffffffffffff16815260200190815260200160002081905550601560008273ffffffffffffffffffffffffffffffffffffffff1673ffffffffffffffffffffffffffffffffffffffff16815260200190815260200160002054601560003373ffffffffffffffffffffffffffffffffffffffff1673ffffffffffffffffffffffffffffffffffffffff168152602001908152602001600020819055506000601560008373ffffffffffffffffffffffffffffffffffffffff1673ffffffffffffffffffffffffffffffffffffffff168152602001908152602001600020819055503373ffffffffffffffffffffffffffffffffffffffff168173ffffffffffffffffffffffffffffffffffffffff167fddf252ad1be2c89b69c2b068fc378daa952ba7f163c4a11628f55a4df523b3ef61155533611e9b565b6040518082815260200191505060405180910390a33373ffffffffffffffffffffffffffffffffffffffff168173ffffffffffffffffffffffffffffffffffffffff167f392664e50552bd2d2328c6c45d09a8169344424c61b5d44bfd19ec585f14925e34601260003373ffffffffffffffffffffffffffffffffffffffff1673ffffffffffffffffffffffffffffffffffffffff16815260200190815260200160002054604051808381526020018281526020019250505060405180910390a36001600d6000828254019250508190555034600e6000828254019250508190555050565b6000601360008473ffffffffffffffffffffffffffffffffffffffff1673ffffffffffffffffffffffffffffffffffffffff16815260200190815260200160002060009054906101000a900460ff161561169357600080fd5b8161169d85611961565b10158015611727575081601760008673ffffffffffffffffffffffffffffffffffffffff1673ffffffffffffffffffffffffffffffffffffffff16815260200190815260200160002060003373ffffffffffffffffffffffffffffffffffffffff1673ffffffffffffffffffffffffffffffffffffffff1681526020019081526020016000205410155b80156117335750600082115b80156117be5750601260008473ffffffffffffffffffffffffffffffffffffffff1673ffffffffffffffffffffffffffffffffffffffff1681526020019081526020016000205482601260008673ffffffffffffffffffffffffffffffffffffffff1673ffffffffffffffffffffffffffffffffffffffff1681526020019081526020016000205401115b156119555781601260008673ffffffffffffffffffffffffffffffffffffffff1673ffffffffffffffffffffffffffffffffffffffff1681526020019081526020016000206000828254039250508190555081601760008673ffffffffffffffffffffffffffffffffffffffff1673ffffffffffffffffffffffffffffffffffffffff16815260200190815260200160002060003373ffffffffffffffffffffffffffffffffffffffff1673ffffffffffffffffffffffffffffffffffffffff1681526020019081526020016000206000828254039250508190555081601260008573ffffffffffffffffffffffffffffffffffffffff1673ffffffffffffffffffffffffffffffffffffffff168152602001908152602001600020600082825401925050819055508273ffffffffffffffffffffffffffffffffffffffff168473ffffffffffffffffffffffffffffffffffffffff167fddf252ad1be2c89b69c2b068fc378daa952ba7f163c4a11628f55a4df523b3ef846040518082815260200191505060405180910390a36001905061195a565b600090505b9392505050565b6000601360008373ffffffffffffffffffffffffffffffffffffffff1673ffffffffffffffffffffffffffffffffffffffff16815260200190815260200160002060009054906101000a900460ff1615611afe5760035443036008819055506305f5e100600854101515611a1657601260008373ffffffffffffffffffffffffffffffffffffffff1673ffffffffffffffffffffffffffffffffffffffff168152602001908152602001600020549050611b41565b600854601460008473ffffffffffffffffffffffffffffffffffffffff1673ffffffffffffffffffffffffffffffffffffffff1681526020019081526020016000205402600681905550600654601560008473ffffffffffffffffffffffffffffffffffffffff1673ffffffffffffffffffffffffffffffffffffffff1681526020019081526020016000205403600981905550600954601260008473ffffffffffffffffffffffffffffffffffffffff1673ffffffffffffffffffffffffffffffffffffffff16815260200190815260200160002054036007819055506007549050611b41565b601260008373ffffffffffffffffffffffffffffffffffffffff1673ffffffffffffffffffffffffffffffffffffffff1681526020019081526020016000205490505b919050565b60008073ffffffffffffffffffffffffffffffffffffffff16600560009054906101000a900473ffffffffffffffffffffffffffffffffffffffff1673ffffffffffffffffffffffffffffffffffffffff16141515611ba85760009050611bee565b81600560006101000a81548173ffffffffffffffffffffffffffffffffffffffff021916908373ffffffffffffffffffffffffffffffffffffffff160217905550600190505b919050565b6000600b54600c5401905090565b600260009054906101000a900460ff1681565b6000601460008373ffffffffffffffffffffffffffffffffffffffff1673ffffffffffffffffffffffffffffffffffffffff168152602001908152602001600020549050919050565b6000600e54905090565b601360003373ffffffffffffffffffffffffffffffffffffffff1673ffffffffffffffffffffffffffffffffffffffff16815260200190815260200160002060009054906101000a900460ff161515611cbf57600080fd5b6000601260003373ffffffffffffffffffffffffffffffffffffffff1673ffffffffffffffffffffffffffffffffffffffff168152602001908152602001600020541415611d0c57600080fd5b80601660003373ffffffffffffffffffffffffffffffffffffffff1673ffffffffffffffffffffffffffffffffffffffff168152602001908152602001600020819055503373ffffffffffffffffffffffffffffffffffffffff167fd066c84192ce99cf5b69f19403f54a3d47fd6ef522e5d20a572be9232e3a19c2826040518082815260200191505060405180910390a250565b6000601360008373ffffffffffffffffffffffffffffffffffffffff1673ffffffffffffffffffffffffffffffffffffffff16815260200190815260200160002060009054906101000a900460ff169050919050565b6000600560009054906101000a900473ffffffffffffffffffffffffffffffffffffffff1673ffffffffffffffffffffffffffffffffffffffff163373ffffffffffffffffffffffffffffffffffffffff161415611e6b576000601160006101000a81548160ff0219169083151502179055505b6001905090565b60006003544303600881905550600854905090565b6000601054905090565b6000600354905090565b6000601260008373ffffffffffffffffffffffffffffffffffffffff1673ffffffffffffffffffffffffffffffffffffffff168152602001908152602001600020549050919050565b6000600a54905090565b6000601160009054906101000a900460ff16905090565b6000600d54905090565b6000600560009054906101000a900473ffffffffffffffffffffffffffffffffffffffff16905090565b601360003373ffffffffffffffffffffffffffffffffffffffff1673ffffffffffffffffffffffffffffffffffffffff16815260200190815260200160002060009054906101000a900460ff1615611f9057600080fd5b612710600a541015611fa657612710600a819055505b600a54601260003373ffffffffffffffffffffffffffffffffffffffff1673ffffffffffffffffffffffffffffffffffffffff16815260200190815260200160002060008282540192505081905550600a54600b600082825401925050819055503373ffffffffffffffffffffffffffffffffffffffff163073ffffffffffffffffffffffffffffffffffffffff167fddf252ad1be2c89b69c2b068fc378daa952ba7f163c4a11628f55a4df523b3ef600a546040518082815260200191505060405180910390a33373ffffffffffffffffffffffffffffffffffffffff167f72e8e6a49b728206d8e3fc505644775feda8eac221c95325f1664821e312daf9600a546040518082815260200191505060405180910390a2612710600a600082825403925050819055506001601060008282540192505081905550565b6000601660008373ffffffffffffffffffffffffffffffffffffffff1673ffffffffffffffffffffffffffffffffffffffff168152602001908152602001600020549050919050565b60018054600181600116156101000203166002900480601f0160208091040260200160405190810160405280929190818152602001828054600181600116156101000203166002900480156121c25780601f10612197576101008083540402835291602001916121c2565b820191906000526020600020905b8154815290600101906020018083116121a557829003601f168201915b505050505081565b6000600454905090565b601360008373ffffffffffffffffffffffffffffffffffffffff1673ffffffffffffffffffffffffffffffffffffffff16815260200190815260200160002060009054906101000a900460ff161561222b57600080fd5b80601260003373ffffffffffffffffffffffffffffffffffffffff1673ffffffffffffffffffffffffffffffffffffffff16815260200190815260200160002054101561227757600080fd5b601260008373ffffffffffffffffffffffffffffffffffffffff1673ffffffffffffffffffffffffffffffffffffffff1681526020019081526020016000205481601260008573ffffffffffffffffffffffffffffffffffffffff1673ffffffffffffffffffffffffffffffffffffffff1681526020019081526020016000205401101561230457600080fd5b61230d33611961565b81111561231957600080fd5b80601260003373ffffffffffffffffffffffffffffffffffffffff1673ffffffffffffffffffffffffffffffffffffffff1681526020019081526020016000206000828254039250508190555080601260008473ffffffffffffffffffffffffffffffffffffffff1673ffffffffffffffffffffffffffffffffffffffff168152602001908152602001600020600082825401925050819055508173ffffffffffffffffffffffffffffffffffffffff163373ffffffffffffffffffffffffffffffffffffffff167fddf252ad1be2c89b69c2b068fc378daa952ba7f163c4a11628f55a4df523b3ef836040518082815260200191505060405180910390a35050565b601360003373ffffffffffffffffffffffffffffffffffffffff1673ffffffffffffffffffffffffffffffffffffffff16815260200190815260200160002060009054906101000a900460ff16151561247457600080fd5b6000601260008373ffffffffffffffffffffffffffffffffffffffff1673ffffffffffffffffffffffffffffffffffffffff1681526020019081526020016000205411156124c157600080fd5b601360008273ffffffffffffffffffffffffffffffffffffffff1673ffffffffffffffffffffffffffffffffffffffff16815260200190815260200160002060009054906101000a900460ff161561251857600080fd5b601260003373ffffffffffffffffffffffffffffffffffffffff1673ffffffffffffffffffffffffffffffffffffffff16815260200190815260200160002054601260008373ffffffffffffffffffffffffffffffffffffffff1673ffffffffffffffffffffffffffffffffffffffff168152602001908152602001600020819055506000601260003373ffffffffffffffffffffffffffffffffffffffff1673ffffffffffffffffffffffffffffffffffffffff168152602001908152602001600020819055506000601360003373ffffffffffffffffffffffffffffffffffffffff1673ffffffffffffffffffffffffffffffffffffffff16815260200190815260200160002060006101000a81548160ff0219169083151502179055506001601360008373ffffffffffffffffffffffffffffffffffffffff1673ffffffffffffffffffffffffffffffffffffffff16815260200190815260200160002060006101000a81548160ff021916908315150217905550601460003373ffffffffffffffffffffffffffffffffffffffff1673ffffffffffffffffffffffffffffffffffffffff16815260200190815260200160002054601460008373ffffffffffffffffffffffffffffffffffffffff1673ffffffffffffffffffffffffffffffffffffffff168152602001908152602001600020819055506000601460003373ffffffffffffffffffffffffffffffffffffffff1673ffffffffffffffffffffffffffffffffffffffff16815260200190815260200160002081905550601560003373ffffffffffffffffffffffffffffffffffffffff1673ffffffffffffffffffffffffffffffffffffffff16815260200190815260200160002054601560008373ffffffffffffffffffffffffffffffffffffffff1673ffffffffffffffffffffffffffffffffffffffff168152602001908152602001600020819055506000601560003373ffffffffffffffffffffffffffffffffffffffff1673ffffffffffffffffffffffffffffffffffffffff168152602001908152602001600020819055508073ffffffffffffffffffffffffffffffffffffffff163373ffffffffffffffffffffffffffffffffffffffff167fddf252ad1be2c89b69c2b068fc378daa952ba7f163c4a11628f55a4df523b3ef61287884611e9b565b6040518082815260200191505060405180910390a38073ffffffffffffffffffffffffffffffffffffffff163373ffffffffffffffffffffffffffffffffffffffff167fee7d92b81df7f3765a7a94daa038cdf6a79eea8c67e639d910c796258e60a0ac601260008573ffffffffffffffffffffffffffffffffffffffff1673ffffffffffffffffffffffffffffffffffffffff168152602001908152602001600020546040518082815260200191505060405180910390a36001600f6000828254019250508190555050565b6000601760008473ffffffffffffffffffffffffffffffffffffffff1673ffffffffffffffffffffffffffffffffffffffff16815260200190815260200160002060008373ffffffffffffffffffffffffffffffffffffffff1673ffffffffffffffffffffffffffffffffffffffff16815260200190815260200160002054905092915050565b60006003544303905090565b6000600f549050905600a165627a7a7230582076c1b2263a8549ccea10d21ff5016fcd82156e220f840eb9d917be972e5ff53a0029",
  "source": "\ncontract Artemine { \n\nstring public name; \nstring public symbol; \nuint8 public decimals; \nuint256 initialBlockCount;\nuint256 totalGenesisAddresses;\naddress genesisCallerAddress;\nuint256 availableAmount;\nuint256 availableBalance;\nuint256 minedBlocks;\nuint256 totalMaxAvailableAmount;\nuint256 publicMiningReward;\nuint256 publicMiningSupply;\nuint256 overallSupply;\nuint256 genesisSalesCount;\nuint256 genesisSalesPriceCount;\nuint256 genesisTransfersCount;\nuint256 publicMineCallsCount;\nbool setupRunning;\nuint256 constant maxBlocks = 100000000;\n\nmapping (address => uint256) balances; \nmapping (address => bool) isGenesisAddress; \nmapping (address => uint256) genesisRewardPerBlock;\nmapping (address => uint256) genesisInitialSupply;\nmapping (address => uint256) genesisBuyPrice;\nmapping (address => mapping (address => uint256)) allowed;\n\nevent Transfer(address indexed from, address indexed to, uint256 value);\nevent Approval(address indexed _owner, address indexed _spender, uint256 _value);\nevent GenesisAddressTransfer(address indexed from, address indexed to, uint256 supply);\nevent GenesisAddressSale(address indexed from, address indexed to, uint256 price, uint256 supply);\nevent GenesisBuyPriceHistory(address indexed from, uint256 price);\nevent PublicMined(address indexed to, uint256 amount);\n\nfunction Artemine() { \nname = \"Artemine\"; \nsymbol = \"ARTE\"; \ndecimals = 18; \ninitialBlockCount = block.number;\npublicMiningReward = 32000000000000;\ntotalGenesisAddresses = 0;\npublicMiningSupply = 0;\noverallSupply = 0;\ngenesisSalesCount = 0;\ngenesisSalesPriceCount = 0;\npublicMineCallsCount = 0;\ngenesisTransfersCount = 0;\nsetupRunning = true;\ngenesisCallerAddress = 0x0000000000000000000000000000000000000000;\n}\n\nfunction currentEthBlock() constant returns (uint256 blockNumber)\n{\n\treturn block.number;\n}\n\nfunction currentBlock() constant returns (uint256 blockNumber)\n{\n\treturn block.number - initialBlockCount;\n}\n\nfunction setGenesisAddress(address _address, uint256 amount) public returns (bool success)\n{\n\tif (setupRunning) \n\t{\n\t\tif (msg.sender == genesisCallerAddress)\n\t\t{\n\t\t\tif (balances[_address] == 0)\n\t\t\t\ttotalGenesisAddresses += 1;\t\t\t\t\t\t\t\n\t\t\tbalances[_address] += amount;\n\t\t\tgenesisInitialSupply[_address] += amount;\n\t\t\tgenesisRewardPerBlock[_address] += (amount / maxBlocks);\t\t\t\n\t\t\tisGenesisAddress[_address] = true;\t\t\t\n\t\t\toverallSupply += amount;\n\t\t\treturn true;\n\t\t}\n\t}\n\treturn false;\n}\n\n\nfunction availableBalanceOf(address _address) constant returns (uint256 Balance)\n{\n\tif (isGenesisAddress[_address])\n\t{\n\t\tminedBlocks = block.number - initialBlockCount;\n\t\t\n\t\tif (minedBlocks >= maxBlocks) return balances[_address];\n\t\t\n\t\tavailableAmount = genesisRewardPerBlock[_address]*minedBlocks;\n\t\t\n\t\ttotalMaxAvailableAmount = genesisInitialSupply[_address] - availableAmount;\n\t\t\n\t\tavailableBalance = balances[_address] - totalMaxAvailableAmount;\n\t\t\n\t\treturn availableBalance;\n\t}\n\telse\n\t\treturn balances[_address];\n}\n\nfunction totalSupply() constant returns (uint256 TotalSupply)\n{\t\n\tminedBlocks = block.number - initialBlockCount;\n\treturn ((overallSupply/maxBlocks)*minedBlocks)+publicMiningSupply;\n}\n\nfunction maxTotalSupply() constant returns (uint256 maxSupply)\n{\t\n\treturn overallSupply + publicMiningSupply;\n}\n\nfunction transfer(address _to, uint256 _value) { \n\nif (isGenesisAddress[_to]) revert();\n\nif (balances[msg.sender] < _value) revert(); \n\nif (balances[_to] + _value < balances[_to]) revert(); \n\nif (_value > availableBalanceOf(msg.sender)) revert();\n\nbalances[msg.sender] -= _value; \nbalances[_to] += _value; \nTransfer(msg.sender, _to, _value); \n}\n\nfunction transferFrom(\n        address _from,\n        address _to,\n        uint256 _amount\n) returns (bool success) {\n\tif (isGenesisAddress[_to])\n\t\trevert();\n\t\n    if (availableBalanceOf(_from) >= _amount\n        && allowed[_from][msg.sender] >= _amount\n        && _amount > 0\n        && balances[_to] + _amount > balances[_to]) {\n        balances[_from] -= _amount;\n        allowed[_from][msg.sender] -= _amount;\n        balances[_to] += _amount;\n        Transfer(_from, _to, _amount);\n        return true;\n    } else {\n        return false;\n    }\n}\n\nfunction approve(address _spender, uint256 _amount) returns (bool success) {\n    allowed[msg.sender][_spender] = _amount;\n    Approval(msg.sender, _spender, _amount);\n    return true;\n}\n\nfunction allowance(address _owner, address _spender) constant returns (uint256 remaining) {\n    return allowed[_owner][_spender];\n}\n\nfunction setGenesisCallerAddress(address _caller) public returns (bool success)\n{\n\tif (genesisCallerAddress != 0x0000000000000000000000000000000000000000) return false;\n\t\n\tgenesisCallerAddress = _caller;\n\t\n\treturn true;\n}\n\nfunction balanceOf(address _address) constant returns (uint256 balance) {\n\treturn balances[_address];\t\n}\n\nfunction TransferGenesis(address _to) { \n\tif (!isGenesisAddress[msg.sender]) revert();\n\t\n\tif (balances[_to] > 0) revert();\n\t\n\tif (isGenesisAddress[_to]) revert();\t\n\t\n\tbalances[_to] = balances[msg.sender]; \n\tbalances[msg.sender] = 0;\n\tisGenesisAddress[msg.sender] = false;\n\tisGenesisAddress[_to] = true;\n\tgenesisRewardPerBlock[_to] = genesisRewardPerBlock[msg.sender];\n\tgenesisRewardPerBlock[msg.sender] = 0;\n\tgenesisInitialSupply[_to] = genesisInitialSupply[msg.sender];\n\tgenesisInitialSupply[msg.sender] = 0;\n\tTransfer(msg.sender, _to, balanceOf(_to));\n\tGenesisAddressTransfer(msg.sender, _to, balances[_to]);\n\tgenesisTransfersCount += 1;\n}\n\nfunction SetGenesisBuyPrice(uint256 weiPrice) { \n\tif (!isGenesisAddress[msg.sender]) revert();\n\t\n\tif (balances[msg.sender] == 0) revert();\n\t\n\tgenesisBuyPrice[msg.sender] = weiPrice;\n\t\n\tGenesisBuyPriceHistory(msg.sender, weiPrice);\n}\n\nfunction BuyGenesis(address _address) payable{\n\tif (msg.value == 0) revert();\n\t\n\tif (genesisBuyPrice[_address] == 0) revert();\n\t\n\tif (isGenesisAddress[msg.sender]) revert();\n\n\tif (!isGenesisAddress[_address]) revert();\n\t\n\tif (balances[_address] == 0) revert();\n\t\n\tif (balances[msg.sender] > 0) revert();\n\t\n\tif (msg.value == genesisBuyPrice[_address])\n\t{\n\t\tif(!_address.send(msg.value)) revert();\t\n\t}\n\telse revert();\n\t\n\tbalances[msg.sender] = balances[_address];\n\tbalances[_address] = 0;\n\tisGenesisAddress[msg.sender] = true;\n\tisGenesisAddress[_address] = false;\n\tgenesisBuyPrice[msg.sender] = 0;\n\tgenesisRewardPerBlock[msg.sender] = genesisRewardPerBlock[_address];\n\tgenesisRewardPerBlock[_address] = 0;\n\tgenesisInitialSupply[msg.sender] = genesisInitialSupply[_address];\n\tgenesisInitialSupply[_address] = 0;\n\tTransfer(_address, msg.sender, balanceOf(msg.sender));\t\n\tGenesisAddressSale(_address, msg.sender, msg.value, balances[msg.sender]);\n\tgenesisSalesCount += 1;\n\tgenesisSalesPriceCount += msg.value;\n}\n\nfunction PublicMine() {\n\tif (isGenesisAddress[msg.sender]) revert();\n\tif (publicMiningReward < 10000)\tpublicMiningReward = 10000;\t\n\tbalances[msg.sender] += publicMiningReward;\n\tpublicMiningSupply += publicMiningReward;\n\tTransfer(this, msg.sender, publicMiningReward);\n\tPublicMined(msg.sender, publicMiningReward);\n\tpublicMiningReward -= 10000;\n\tpublicMineCallsCount += 1;\n}\n\nfunction stopSetup() public returns (bool success)\n{\n\tif (msg.sender == genesisCallerAddress)\n\t{\n\t\tsetupRunning = false;\n\t}\n\treturn true;\n}\n\nfunction InitialBlockCount() constant returns(uint256){ return initialBlockCount; }\nfunction TotalGenesisAddresses() constant returns(uint256){ return totalGenesisAddresses; }\nfunction GenesisCallerAddress() constant returns(address){ return genesisCallerAddress; }\nfunction MinedBlocks() constant returns(uint256){ minedBlocks = block.number - initialBlockCount; return minedBlocks; }\nfunction PublicMiningReward() constant returns(uint256){ return publicMiningReward; }\nfunction PublicMiningSupply() constant returns(uint256){ return publicMiningSupply; }\nfunction isSetupRunning() constant returns(bool){ return setupRunning; }\nfunction IsGenesisAddress(address _address) constant returns(bool) { return isGenesisAddress[_address];}\nfunction GenesisBuyPrice(address _address) constant returns(uint256) { return genesisBuyPrice[_address];}\nfunction GenesisRewardPerBlock(address _address) constant returns(uint256) { return genesisRewardPerBlock[_address];}\nfunction GenesisInitialSupply(address _address) constant returns(uint256) { return genesisInitialSupply[_address];}\nfunction GenesisSalesCount() constant returns(uint256) { return genesisSalesCount;}\nfunction GenesisSalesPriceCount() constant returns(uint256) { return genesisSalesPriceCount;}\nfunction GenesisTransfersCount() constant returns(uint256) { return genesisTransfersCount;}\nfunction PublicMineCallsCount() constant returns(uint256) { return publicMineCallsCount;}\n}",
  "sourcePath": "/home/XXX-1/smartrim-experiment/for-rlf/0x5f6e7fb7fe92ea7822472bb0e8f1be60d6a4ea50/contracts/0x5f6e7fb7fe92ea7822472bb0e8f1be60d6a4ea50.sol",
  "compiler": {
    "name": "solc",
    "version": "0.4.25+commit.59dbf8f1.Emscripten.clang"
  },
  "schemaVersion": "3.4.16",
  "updatedAt": "2025-08-14T03:55:26.173Z",
  "networkType": "ethereum",
  "devdoc": {
    "methods": {}
  },
  "userdoc": {
    "methods": {}
  }
}