{
  "contractName": "Adoption",
  "abi": [
    {
      "inputs": [],
      "payable": false,
      "stateMutability": "nonpayable",
      "type": "constructor"
    },
    {
      "constant": false,
      "inputs": [
        {
          "name": "oldOwner",
          "type": "address"
        },
        {
          "name": "price",
          "type": "uint256"
        }
      ],
      "name": "returnEth",
      "outputs": [],
      "payable": true,
      "stateMutability": "payable",
      "type": "function"
    },
    {
      "constant": false,
      "inputs": [
        {
          "name": "",
          "type": "address"
        },
        {
          "name": "price",
          "type": "uint256"
        }
      ],
      "name": "gimmeTendies",
      "outputs": [],
      "payable": true,
      "stateMutability": "payable",
      "type": "function"
    },
    {
      "constant": false,
      "inputs": [
        {
          "name": "pepeId",
          "type": "uint256"
        }
      ],
      "name": "adopt",
      "outputs": [
        {
          "name": "",
          "type": "uint256"
        },
        {
          "name": "",
          "type": "uint256"
        }
      ],
      "payable": true,
      "stateMutability": "payable",
      "type": "function"
    },
    {
      "constant": true,
      "inputs": [],
      "name": "getAdopters",
      "outputs": [
        {
          "name": "",
          "type": "address[]"
        },
        {
          "name": "",
          "type": "uint256[]"
        }
      ],
      "payable": false,
      "stateMutability": "view",
      "type": "function"
    }
  ],
  "bytecode": "0x6080604052731aea2d3709bb7cff5326a4abc44c45aa2629c6266000806101000a81548173ffffffffffffffffffffffffffffffffffffffff021916908373ffffffffffffffffffffffffffffffffffffffff16021790555034801561006457600080fd5b5060008090505b60108110156100f857662386f26fc1000060018260108110151561008b57fe5b6002020160010181905550336001826010811015156100a657fe5b6002020160000160006101000a81548173ffffffffffffffffffffffffffffffffffffffff021916908373ffffffffffffffffffffffffffffffffffffffff160217905550808060010191505061006b565b506105f6806101086000396000f300608060405260043610610062576000357c0100000000000000000000000000000000000000000000000000000000900463ffffffff1680633de4eb171461006757806343b8aedf1461011b5780636840f8e81461015b5780638588b2c51461019b575b600080fd5b34801561007357600080fd5b5061007c6101d6565b604051808060200180602001838103835285818151815260200191508051906020019060200280838360005b838110156100c35780820151818401526020810190506100a8565b50505050905001838103825284818151815260200191508051906020019060200280838360005b838110156101055780820151818401526020810190506100ea565b5050505090500194505050505060405180910390f35b610159600480360381019080803573ffffffffffffffffffffffffffffffffffffffff16906020019092919080359060200190929190505050610320565b005b610199600480360381019080803573ffffffffffffffffffffffffffffffffffffffff1690602001909291908035906020019092919050505061038c565b005b6101b9600480360381019080803590602001909291905050506103d7565b604051808381526020018281526020019250505060405180910390f35b6060806060806000601060405190808252806020026020018201604052801561020e5781602001602082028038833980820191505090505b50925060106040519080825280602002602001820160405280156102415781602001602082028038833980820191505090505b509150600090505b60108110156103135760018160108110151561026157fe5b6002020160000160009054906101000a900473ffffffffffffffffffffffffffffffffffffffff16838281518110151561029757fe5b9060200190602002019073ffffffffffffffffffffffffffffffffffffffff16908173ffffffffffffffffffffffffffffffffffffffff16815250506001816010811015156102e257fe5b600202016001015482828151811015156102f857fe5b90602001906020020181815250508080600101915050610249565b8282945094505050509091565b6000809054906101000a900473ffffffffffffffffffffffffffffffffffffffff1673ffffffffffffffffffffffffffffffffffffffff166108fc829081150290604051600060405180830381858888f19350505050158015610387573d6000803e3d6000fd5b505050565b8173ffffffffffffffffffffffffffffffffffffffff166108fc829081150290604051600060405180830381858888f193505050501580156103d2573d6000803e3d6000fd5b505050565b600080600083101580156103ec5750600f8311155b15156103f757600080fd5b662386f26fc1000060018460108110151561040e57fe5b600202016001015414156104435766470de4df82000060018460108110151561043357fe5b6002020160010181905550610478565b600260018460108110151561045457fe5b60020201600101540260018460108110151561046c57fe5b60020201600101819055505b6001808460108110151561048857fe5b600202016001015402341015151561049f57600080fd5b6105046001846010811015156104b157fe5b6002020160000160009054906101000a900473ffffffffffffffffffffffffffffffffffffffff166009600a6001876010811015156104ec57fe5b60020201600101548115156104fd57fe5b040261038c565b6105546000809054906101000a900473ffffffffffffffffffffffffffffffffffffffff166001600a60018760108110151561053c57fe5b600202016001015481151561054d57fe5b0402610320565b3360018460108110151561056457fe5b6002020160000160006101000a81548173ffffffffffffffffffffffffffffffffffffffff021916908373ffffffffffffffffffffffffffffffffffffffff160217905550826001846010811015156105b957fe5b6002020160010154915091509150915600a165627a7a723058203b49866f6466bb6f258aab0035545a51c4dd39687e96c70f13b151c8f2fb2f750029",
  "source": "\ncontract Adoption {\n  address ceoAddress = 0x1AEA2d3709bB7CFf5326a4Abc44c45Aa2629C626;\n  struct Pepe {\n    address owner;\n    uint256 price;\n   \n  }\n\n  Pepe[16] data;\n\n  function Adoption() public {\n    for (uint i = 0; i < 16; i++) {\n     \n      data[i].price = 10000000000000000;\n      data[i].owner = msg.sender;\n    }\n  }\n\n  function returnEth(address oldOwner, uint256 price) public payable {\n    oldOwner.transfer(price);\n  }\n\n  function gimmeTendies(address, uint256 price) public payable {\n    ceoAddress.transfer(price);\n  }\n  \n  function adopt(uint pepeId) public payable returns (uint, uint) {\n    require(pepeId >= 0 && pepeId <= 15);\n    if ( data[pepeId].price == 10000000000000000 ) {\n      data[pepeId].price = 20000000000000000;\n    } else {\n      data[pepeId].price = data[pepeId].price * 2;\n    }\n    \n    require(msg.value >= data[pepeId].price * uint256(1));\n    returnEth(data[pepeId].owner,  (data[pepeId].price / 10) * (9)); \n    gimmeTendies(ceoAddress, (data[pepeId].price / 10) * (1));\n    data[pepeId].owner = msg.sender;\n    return (pepeId, data[pepeId].price);\n    \n  }\n\n  function getAdopters() external view returns (address[], uint256[]) {\n    address[] memory owners = new address[](16);\n    uint256[] memory prices =  new uint256[](16);\n    for (uint i=0; i<16; i++) {\n      owners[i] = (data[i].owner);\n      prices[i] = (data[i].price);\n    }\n    return (owners,prices);\n  }\n  \n}",
  "sourcePath": "/home/XXX-1/smartrim-experiment/for-rlf/0xbae533c9c0a67d5de2b89a8fd0bc01a2b450bd2d/contracts/0xbae533c9c0a67d5de2b89a8fd0bc01a2b450bd2d.sol",
  "compiler": {
    "name": "solc",
    "version": "0.4.25+commit.59dbf8f1.Emscripten.clang"
  },
  "schemaVersion": "3.4.16",
  "updatedAt": "2025-08-14T03:43:04.004Z",
  "networkType": "ethereum",
  "devdoc": {
    "methods": {}
  },
  "userdoc": {
    "methods": {}
  }
}