{
  "contractName": "WhooseWallet",
  "abi": [
    {
      "constant": true,
      "inputs": [
        {
          "name": "_key",
          "type": "bytes32"
        }
      ],
      "name": "getKey",
      "outputs": [
        {
          "name": "purposes",
          "type": "uint256[]"
        },
        {
          "name": "keyType",
          "type": "uint256"
        },
        {
          "name": "key",
          "type": "bytes32"
        }
      ],
      "payable": false,
      "stateMutability": "view",
      "type": "function"
    },
    {
      "constant": false,
      "inputs": [
        {
          "name": "_key",
          "type": "bytes32"
        },
        {
          "name": "_purpose",
          "type": "uint256"
        },
        {
          "name": "_type",
          "type": "uint256"
        }
      ],
      "name": "addKey",
      "outputs": [
        {
          "name": "success",
          "type": "bool"
        }
      ],
      "payable": false,
      "stateMutability": "nonpayable",
      "type": "function"
    },
    {
      "constant": false,
      "inputs": [
        {
          "name": "_topic",
          "type": "uint256[]"
        },
        {
          "name": "_issuer",
          "type": "address[]"
        },
        {
          "name": "_signature",
          "type": "bytes"
        },
        {
          "name": "_data",
          "type": "bytes"
        },
        {
          "name": "_offsets",
          "type": "uint256[]"
        }
      ],
      "name": "addClaims",
      "outputs": [],
      "payable": false,
      "stateMutability": "nonpayable",
      "type": "function"
    },
    {
      "constant": false,
      "inputs": [
        {
          "name": "_claimId",
          "type": "bytes32"
        }
      ],
      "name": "removeClaim",
      "outputs": [
        {
          "name": "success",
          "type": "bool"
        }
      ],
      "payable": false,
      "stateMutability": "nonpayable",
      "type": "function"
    },
    {
      "constant": false,
      "inputs": [
        {
          "name": "_key",
          "type": "bytes32"
        },
        {
          "name": "_purpose",
          "type": "uint256"
        }
      ],
      "name": "removeKey",
      "outputs": [
        {
          "name": "success",
          "type": "bool"
        }
      ],
      "payable": false,
      "stateMutability": "nonpayable",
      "type": "function"
    },
    {
      "constant": false,
      "inputs": [
        {
          "name": "_keys",
          "type": "bytes32[]"
        },
        {
          "name": "_purpose",
          "type": "uint256"
        },
        {
          "name": "_type",
          "type": "uint256"
        }
      ],
      "name": "addKeys",
      "outputs": [
        {
          "name": "success",
          "type": "bool"
        }
      ],
      "payable": false,
      "stateMutability": "nonpayable",
      "type": "function"
    },
    {
      "constant": false,
      "inputs": [
        {
          "name": "_id",
          "type": "uint256"
        },
        {
          "name": "_approve",
          "type": "bool"
        }
      ],
      "name": "approve",
      "outputs": [
        {
          "name": "success",
          "type": "bool"
        }
      ],
      "payable": false,
      "stateMutability": "nonpayable",
      "type": "function"
    },
    {
      "constant": true,
      "inputs": [
        {
          "name": "_topic",
          "type": "uint256"
        }
      ],
      "name": "getClaimIdsByTopic",
      "outputs": [
        {
          "name": "claimIds",
          "type": "bytes32[]"
        }
      ],
      "payable": false,
      "stateMutability": "view",
      "type": "function"
    },
    {
      "constant": true,
      "inputs": [
        {
          "name": "_purpose",
          "type": "uint256"
        }
      ],
      "name": "getKeysByPurpose",
      "outputs": [
        {
          "name": "_keys",
          "type": "bytes32[]"
        }
      ],
      "payable": false,
      "stateMutability": "view",
      "type": "function"
    },
    {
      "constant": false,
      "inputs": [
        {
          "name": "_topic",
          "type": "uint256"
        },
        {
          "name": "_scheme",
          "type": "uint256"
        },
        {
          "name": "_issuer",
          "type": "address"
        },
        {
          "name": "_signature",
          "type": "bytes"
        },
        {
          "name": "_data",
          "type": "bytes"
        },
        {
          "name": "_uri",
          "type": "string"
        }
      ],
      "name": "addClaim",
      "outputs": [
        {
          "name": "claimRequestId",
          "type": "bytes32"
        }
      ],
      "payable": false,
      "stateMutability": "nonpayable",
      "type": "function"
    },
    {
      "constant": false,
      "inputs": [
        {
          "name": "_to",
          "type": "address"
        },
        {
          "name": "_value",
          "type": "uint256"
        },
        {
          "name": "_data",
          "type": "bytes"
        }
      ],
      "name": "execute",
      "outputs": [
        {
          "name": "executionId",
          "type": "uint256"
        }
      ],
      "payable": false,
      "stateMutability": "nonpayable",
      "type": "function"
    },
    {
      "constant": true,
      "inputs": [
        {
          "name": "_claimId",
          "type": "bytes32"
        }
      ],
      "name": "getClaim",
      "outputs": [
        {
          "name": "topic",
          "type": "uint256"
        },
        {
          "name": "scheme",
          "type": "uint256"
        },
        {
          "name": "issuer",
          "type": "address"
        },
        {
          "name": "signature",
          "type": "bytes"
        },
        {
          "name": "data",
          "type": "bytes"
        },
        {
          "name": "uri",
          "type": "string"
        }
      ],
      "payable": false,
      "stateMutability": "view",
      "type": "function"
    },
    {
      "constant": true,
      "inputs": [
        {
          "name": "_key",
          "type": "bytes32"
        },
        {
          "name": "_purpose",
          "type": "uint256"
        }
      ],
      "name": "keyHasPurpose",
      "outputs": [
        {
          "name": "exists",
          "type": "bool"
        }
      ],
      "payable": false,
      "stateMutability": "view",
      "type": "function"
    },
    {
      "constant": true,
      "inputs": [
        {
          "name": "_key",
          "type": "bytes32"
        }
      ],
      "name": "getKeyPurposes",
      "outputs": [
        {
          "name": "purposes",
          "type": "uint256[]"
        }
      ],
      "payable": false,
      "stateMutability": "view",
      "type": "function"
    },
    {
      "inputs": [],
      "payable": false,
      "stateMutability": "nonpayable",
      "type": "constructor"
    },
    {
      "anonymous": false,
      "inputs": [
        {
          "indexed": true,
          "name": "claimRequestId",
          "type": "uint256"
        },
        {
          "indexed": true,
          "name": "topic",
          "type": "uint256"
        },
        {
          "indexed": false,
          "name": "scheme",
          "type": "uint256"
        },
        {
          "indexed": true,
          "name": "issuer",
          "type": "address"
        },
        {
          "indexed": false,
          "name": "signature",
          "type": "bytes"
        },
        {
          "indexed": false,
          "name": "data",
          "type": "bytes"
        },
        {
          "indexed": false,
          "name": "uri",
          "type": "string"
        }
      ],
      "name": "ClaimRequested",
      "type": "event"
    },
    {
      "anonymous": false,
      "inputs": [
        {
          "indexed": true,
          "name": "claimId",
          "type": "bytes32"
        },
        {
          "indexed": true,
          "name": "topic",
          "type": "uint256"
        },
        {
          "indexed": false,
          "name": "scheme",
          "type": "uint256"
        },
        {
          "indexed": true,
          "name": "issuer",
          "type": "address"
        },
        {
          "indexed": false,
          "name": "signature",
          "type": "bytes"
        },
        {
          "indexed": false,
          "name": "data",
          "type": "bytes"
        },
        {
          "indexed": false,
          "name": "uri",
          "type": "string"
        }
      ],
      "name": "ClaimAdded",
      "type": "event"
    },
    {
      "anonymous": false,
      "inputs": [
        {
          "indexed": true,
          "name": "claimId",
          "type": "bytes32"
        },
        {
          "indexed": true,
          "name": "topic",
          "type": "uint256"
        },
        {
          "indexed": false,
          "name": "scheme",
          "type": "uint256"
        },
        {
          "indexed": true,
          "name": "issuer",
          "type": "address"
        },
        {
          "indexed": false,
          "name": "signature",
          "type": "bytes"
        },
        {
          "indexed": false,
          "name": "data",
          "type": "bytes"
        },
        {
          "indexed": false,
          "name": "uri",
          "type": "string"
        }
      ],
      "name": "ClaimRemoved",
      "type": "event"
    },
    {
      "anonymous": false,
      "inputs": [
        {
          "indexed": true,
          "name": "claimId",
          "type": "bytes32"
        },
        {
          "indexed": true,
          "name": "topic",
          "type": "uint256"
        },
        {
          "indexed": false,
          "name": "scheme",
          "type": "uint256"
        },
        {
          "indexed": true,
          "name": "issuer",
          "type": "address"
        },
        {
          "indexed": false,
          "name": "signature",
          "type": "bytes"
        },
        {
          "indexed": false,
          "name": "data",
          "type": "bytes"
        },
        {
          "indexed": false,
          "name": "uri",
          "type": "string"
        }
      ],
      "name": "ClaimChanged",
      "type": "event"
    },
    {
      "anonymous": false,
      "inputs": [
        {
          "indexed": true,
          "name": "key",
          "type": "bytes32"
        },
        {
          "indexed": true,
          "name": "purpose",
          "type": "uint256"
        },
        {
          "indexed": true,
          "name": "keyType",
          "type": "uint256"
        }
      ],
      "name": "KeyAdded",
      "type": "event"
    },
    {
      "anonymous": false,
      "inputs": [
        {
          "indexed": true,
          "name": "key",
          "type": "bytes32"
        },
        {
          "indexed": true,
          "name": "purpose",
          "type": "uint256"
        },
        {
          "indexed": true,
          "name": "keyType",
          "type": "uint256"
        }
      ],
      "name": "KeyRemoved",
      "type": "event"
    },
    {
      "anonymous": false,
      "inputs": [
        {
          "indexed": true,
          "name": "executionId",
          "type": "uint256"
        },
        {
          "indexed": true,
          "name": "to",
          "type": "address"
        },
        {
          "indexed": true,
          "name": "value",
          "type": "uint256"
        },
        {
          "indexed": false,
          "name": "data",
          "type": "bytes"
        }
      ],
      "name": "ExecutionRequested",
      "type": "event"
    },
    {
      "anonymous": false,
      "inputs": [
        {
          "indexed": true,
          "name": "executionId",
          "type": "uint256"
        },
        {
          "indexed": true,
          "name": "to",
          "type": "address"
        },
        {
          "indexed": true,
          "name": "value",
          "type": "uint256"
        },
        {
          "indexed": false,
          "name": "data",
          "type": "bytes"
        }
      ],
      "name": "Executed",
      "type": "event"
    },
    {
      "anonymous": false,
      "inputs": [
        {
          "indexed": true,
          "name": "executionId",
          "type": "uint256"
        },
        {
          "indexed": false,
          "name": "approved",
          "type": "bool"
        }
      ],
      "name": "Approved",
      "type": "event"
    },
    {
      "constant": false,
      "inputs": [],
      "name": "destruct",
      "outputs": [],
      "payable": false,
      "stateMutability": "nonpayable",
      "type": "function"
    }
  ],
  "bytecode": "0x6080604052736babebb9657257f83492d457e7f41b2524368de6600660006101000a81548173ffffffffffffffffffffffffffffffffffffffff021916908373ffffffffffffffffffffffffffffffffffffffff1602179055503480156200006657600080fd5b5060008073__KeyHolderLibrary______________________6330864be560006040518263ffffffff167c01000000000000000000000000000000000000000000000000000000000281526004018082815260200191505060006040518083038186803b158015620000d757600080fd5b505af4158015620000ec573d6000803e3d6000fd5b50505050600660009054906101000a900473ffffffffffffffffffffffffffffffffffffffff16604051602001808273ffffffffffffffffffffffffffffffffffffffff1673ffffffffffffffffffffffffffffffffffffffff166c010000000000000000000000000281526014019150506040516020818303038152906040526040518082805190602001908083835b602083101515620001a457805182526020820191506020810190506020830392506200017d565b6001836020036101000a03801982511681845116808217855250505050505090500191505060405180910390209150620001f082600180620002f8640100000000026401000000009004565b50600660009054906101000a900473ffffffffffffffffffffffffffffffffffffffff1690508073ffffffffffffffffffffffffffffffffffffffff16635f539d69306040518263ffffffff167c0100000000000000000000000000000000000000000000000000000000028152600401808273ffffffffffffffffffffffffffffffffffffffff1673ffffffffffffffffffffffffffffffffffffffff168152602001915050602060405180830381600087803b158015620002b257600080fd5b505af1158015620002c7573d6000803e3d6000fd5b505050506040513d6020811015620002de57600080fd5b8101908080519060200190929190505050505050620003cd565b600073__KeyHolderLibrary______________________635d601c3a60008686866040518563ffffffff167c010000000000000000000000000000000000000000000000000000000002815260040180858152602001846000191660001916815260200183815260200182815260200194505050505060206040518083038186803b1580156200038757600080fd5b505af41580156200039c573d6000803e3d6000fd5b505050506040513d6020811015620003b357600080fd5b810190808051906020019092919050505090509392505050565b611e2380620003dd6000396000f3006080604052600436106100db576000357c0100000000000000000000000000000000000000000000000000000000900463ffffffff16806312aaac70146100e05780631d3812401461017c57806321c148f0146101d95780632b68b9c6146103515780634eee424a1461036857806353d413c5146103b15780635dbe4b0614610404578063747442d31461049657806380e9e9e1146104e75780639010f72614610569578063b1a34e0d146105eb578063b61d27f614610730578063c9100bcb146107d7578063d202158d1461099a578063fb307b34146109ed575b600080fd5b3480156100ec57600080fd5b5061010f6004803603810190808035600019169060200190929190505050610a73565b60405180806020018481526020018360001916600019168152602001828103825285818151815260200191508051906020019060200280838360005b8381101561016657808201518184015260208101905061014b565b5050505090500194505050505060405180910390f35b34801561018857600080fd5b506101bf60048036038101908080356000191690602001909291908035906020019092919080359060200190929190505050610ba9565b604051808215151515815260200191505060405180910390f35b3480156101e557600080fd5b5061034f6004803603810190808035906020019082018035906020019080806020026020016040519081016040528093929190818152602001838360200280828437820191505050505050919291929080359060200190820180359060200190808060200260200160405190810160405280939291908181526020018383602002808284378201915050505050509192919290803590602001908201803590602001908080601f0160208091040260200160405190810160405280939291908181526020018383808284378201915050505050509192919290803590602001908201803590602001908080601f016020809104026020016040519081016040528093929190818152602001838380828437820191505050505050919291929080359060200190820180359060200190808060200260200160405190810160405280939291908181526020018383602002808284378201915050505050509192919290505050610c7b565b005b34801561035d57600080fd5b50610366610ec4565b005b34801561037457600080fd5b5061039760048036038101908080356000191690602001909291905050506111aa565b604051808215151515815260200191505060405180910390f35b3480156103bd57600080fd5b506103ea600480360381019080803560001916906020019092919080359060200190929190505050611273565b604051808215151515815260200191505060405180910390f35b34801561041057600080fd5b5061047c60048036038101908080359060200190820180359060200190808060200260200160405190810160405280939291908181526020018383602002808284378201915050505050509192919290803590602001909291908035906020019092919050505061133c565b604051808215151515815260200191505060405180910390f35b3480156104a257600080fd5b506104cd60048036038101908080359060200190929190803515159060200190929190505050611447565b604051808215151515815260200191505060405180910390f35b3480156104f357600080fd5b506105126004803603810190808035906020019092919050505061150c565b6040518080602001828103825283818151815260200191508051906020019060200280838360005b8381101561055557808201518184015260208101905061053a565b505050509050019250505060405180910390f35b34801561057557600080fd5b506105946004803603810190808035906020019092919050505061157e565b6040518080602001828103825283818151815260200191508051906020019060200280838360005b838110156105d75780820151818401526020810190506105bc565b505050509050019250505060405180910390f35b3480156105f757600080fd5b506107126004803603810190808035906020019092919080359060200190929190803573ffffffffffffffffffffffffffffffffffffffff169060200190929190803590602001908201803590602001908080601f0160208091040260200160405190810160405280939291908181526020018383808284378201915050505050509192919290803590602001908201803590602001908080601f0160208091040260200160405190810160405280939291908181526020018383808284378201915050505050509192919290803590602001908201803590602001908080601f016020809104026020016040519081016040528093929190818152602001838380828437820191505050505050919291929050505061168c565b60405180826000191660001916815260200191505060405180910390f35b34801561073c57600080fd5b506107c1600480360381019080803573ffffffffffffffffffffffffffffffffffffffff16906020019092919080359060200190929190803590602001908201803590602001908080601f01602080910402602001604051908101604052809392919081815260200183838082843782019150505050505091929192905050506118d5565b6040518082815260200191505060405180910390f35b3480156107e357600080fd5b506108066004803603810190808035600019169060200190929190505050611a30565b604051808781526020018681526020018573ffffffffffffffffffffffffffffffffffffffff1673ffffffffffffffffffffffffffffffffffffffff168152602001806020018060200180602001848103845287818151815260200191508051906020019080838360005b8381101561088c578082015181840152602081019050610871565b50505050905090810190601f1680156108b95780820380516001836020036101000a031916815260200191505b50848103835286818151815260200191508051906020019080838360005b838110156108f25780820151818401526020810190506108d7565b50505050905090810190601f16801561091f5780820380516001836020036101000a031916815260200191505b50848103825285818151815260200191508051906020019080838360005b8381101561095857808201518184015260208101905061093d565b50505050905090810190601f1680156109855780820380516001836020036101000a031916815260200191505b50995050505050505050505060405180910390f35b3480156109a657600080fd5b506109d3600480360381019080803560001916906020019092919080359060200190929190505050611c18565b604051808215151515815260200191505060405180910390f35b3480156109f957600080fd5b50610a1c6004803603810190808035600019169060200190929190505050611ce1565b6040518080602001828103825283818151815260200191508051906020019060200280838360005b83811015610a5f578082015181840152602081019050610a44565b505050509050019250505060405180910390f35b606060008073__KeyHolderLibrary______________________63b01a9fb36000866040518363ffffffff167c01000000000000000000000000000000000000000000000000000000000281526004018083815260200182600019166000191681526020019250505060006040518083038186803b158015610af457600080fd5b505af4158015610b08573d6000803e3d6000fd5b505050506040513d6000823e3d601f19601f820116820180604052506060811015610b3257600080fd5b810190808051640100000000811115610b4a57600080fd5b82810190506020810184811115610b6057600080fd5b8151856020820283011164010000000082111715610b7d57600080fd5b505092919060200180519060200190929190805190602001909291905050509250925092509193909250565b600073__KeyHolderLibrary______________________635d601c3a60008686866040518563ffffffff167c010000000000000000000000000000000000000000000000000000000002815260040180858152602001846000191660001916815260200183815260200182815260200194505050505060206040518083038186803b158015610c3757600080fd5b505af4158015610c4b573d6000803e3d6000fd5b505050506040513d6020811015610c6157600080fd5b810190808051906020019092919050505090509392505050565b73__ClaimHolderLibrary____________________63428e59ee6000600488888888886040518863ffffffff167c010000000000000000000000000000000000000000000000000000000002815260040180888152602001878152602001806020018060200180602001806020018060200186810386528b818151815260200191508051906020019060200280838360005b83811015610d28578082015181840152602081019050610d0d565b5050505090500186810385528a818151815260200191508051906020019060200280838360005b83811015610d6a578082015181840152602081019050610d4f565b50505050905001868103845289818151815260200191508051906020019080838360005b83811015610da9578082015181840152602081019050610d8e565b50505050905090810190601f168015610dd65780820380516001836020036101000a031916815260200191505b50868103835288818151815260200191508051906020019080838360005b83811015610e0f578082015181840152602081019050610df4565b50505050905090810190601f168015610e3c5780820380516001836020036101000a031916815260200191505b50868103825287818151815260200191508051906020019060200280838360005b83811015610e78578082015181840152602081019050610e5d565b505050509050019c5050505050505050505050505060006040518083038186803b158015610ea557600080fd5b505af4158015610eb9573d6000803e3d6000fd5b505050505050505050565b60003073ffffffffffffffffffffffffffffffffffffffff163373ffffffffffffffffffffffffffffffffffffffff1614158015610f5057503073ffffffffffffffffffffffffffffffffffffffff16600660009054906101000a900473ffffffffffffffffffffffffffffffffffffffff1673ffffffffffffffffffffffffffffffffffffffff1614155b1561116f5733604051602001808273ffffffffffffffffffffffffffffffffffffffff1673ffffffffffffffffffffffffffffffffffffffff166c010000000000000000000000000281526014019150506040516020818303038152906040526040518082805190602001908083835b602083101515610fe55780518252602082019150602081019050602083039250610fc0565b6001836020036101000a0380198251168184511680821785525050505050509050019150506040518091039020905073__KeyHolderLibrary______________________63d8188a4060008360016040518463ffffffff167c0100000000000000000000000000000000000000000000000000000000028152600401808481526020018360001916600019168152602001828152602001935050505060206040518083038186803b15801561109957600080fd5b505af41580156110ad573d6000803e3d6000fd5b505050506040513d60208110156110c357600080fd5b8101908080519060200190929190505050151561116e576040517f08c379a00000000000000000000000000000000000000000000000000000000081526004018080602001828103825260238152602001807f53656e64657220646f6573206e6f742068617665206d616e6167656d656e742081526020017f6b6579000000000000000000000000000000000000000000000000000000000081525060400191505060405180910390fd5b5b600660009054906101000a900473ffffffffffffffffffffffffffffffffffffffff1673ffffffffffffffffffffffffffffffffffffffff16ff5b600073__ClaimHolderLibrary____________________635c02fae160006004856040518463ffffffff167c0100000000000000000000000000000000000000000000000000000000028152600401808481526020018381526020018260001916600019168152602001935050505060206040518083038186803b15801561123157600080fd5b505af4158015611245573d6000803e3d6000fd5b505050506040513d602081101561125b57600080fd5b81019080805190602001909291905050509050919050565b600073__KeyHolderLibrary______________________633f47616d600085856040518463ffffffff167c0100000000000000000000000000000000000000000000000000000000028152600401808481526020018360001916600019168152602001828152602001935050505060206040518083038186803b1580156112f957600080fd5b505af415801561130d573d6000803e3d6000fd5b505050506040513d602081101561132357600080fd5b8101908080519060200190929190505050905092915050565b600073__KeyHolderLibrary______________________631a905cd160008686866040518563ffffffff167c01000000000000000000000000000000000000000000000000000000000281526004018085815260200180602001848152602001838152602001828103825285818151815260200191508051906020019060200280838360005b838110156113dd5780820151818401526020810190506113c2565b505050509050019550505050505060206040518083038186803b15801561140357600080fd5b505af4158015611417573d6000803e3d6000fd5b505050506040513d602081101561142d57600080fd5b810190808051906020019092919050505090509392505050565b600073__KeyHolderLibrary______________________6367d4865f600085856040518463ffffffff167c01000000000000000000000000000000000000000000000000000000000281526004018084815260200183815260200182151515158152602001935050505060206040518083038186803b1580156114c957600080fd5b505af41580156114dd573d6000803e3d6000fd5b505050506040513d60208110156114f357600080fd5b8101908080519060200190929190505050905092915050565b60606004600101600083815260200190815260200160002080548060200260200160405190810160405280929190818152602001828054801561157257602002820191906000526020600020905b8154600019168152602001906001019080831161155a575b50505050509050919050565b606073__KeyHolderLibrary______________________63746199f96000846040518363ffffffff167c0100000000000000000000000000000000000000000000000000000000028152600401808381526020018281526020019250505060006040518083038186803b1580156115f457600080fd5b505af4158015611608573d6000803e3d6000fd5b505050506040513d6000823e3d601f19601f82011682018060405250602081101561163257600080fd5b81019080805164010000000081111561164a57600080fd5b8281019050602081018481111561166057600080fd5b815185602082028301116401000000008211171561167d57600080fd5b50509291905050509050919050565b600073__ClaimHolderLibrary____________________63bd2d0c28600060048a8a8a8a8a8a6040518963ffffffff167c0100000000000000000000000000000000000000000000000000000000028152600401808981526020018881526020018781526020018681526020018573ffffffffffffffffffffffffffffffffffffffff1673ffffffffffffffffffffffffffffffffffffffff168152602001806020018060200180602001848103845287818151815260200191508051906020019080838360005b8381101561176f578082015181840152602081019050611754565b50505050905090810190601f16801561179c5780820380516001836020036101000a031916815260200191505b50848103835286818151815260200191508051906020019080838360005b838110156117d55780820151818401526020810190506117ba565b50505050905090810190601f1680156118025780820380516001836020036101000a031916815260200191505b50848103825285818151815260200191508051906020019080838360005b8381101561183b578082015181840152602081019050611820565b50505050905090810190601f1680156118685780820380516001836020036101000a031916815260200191505b509b50505050505050505050505060206040518083038186803b15801561188e57600080fd5b505af41580156118a2573d6000803e3d6000fd5b505050506040513d60208110156118b857600080fd5b810190808051906020019092919050505090509695505050505050565b600073__KeyHolderLibrary______________________63e9356c6f60008686866040518563ffffffff167c0100000000000000000000000000000000000000000000000000000000028152600401808581526020018473ffffffffffffffffffffffffffffffffffffffff1673ffffffffffffffffffffffffffffffffffffffff16815260200183815260200180602001828103825283818151815260200191508051906020019080838360005b8381101561199f578082015181840152602081019050611984565b50505050905090810190601f1680156119cc5780820380516001836020036101000a031916815260200191505b509550505050505060206040518083038186803b1580156119ec57600080fd5b505af4158015611a00573d6000803e3d6000fd5b505050506040513d6020811015611a1657600080fd5b810190808051906020019092919050505090509392505050565b6000806000606080606073__ClaimHolderLibrary____________________638522d0eb6004896040518363ffffffff167c01000000000000000000000000000000000000000000000000000000000281526004018083815260200182600019166000191681526020019250505060006040518083038186803b158015611ab657600080fd5b505af4158015611aca573d6000803e3d6000fd5b505050506040513d6000823e3d601f19601f8201168201806040525060c0811015611af457600080fd5b810190808051906020019092919080519060200190929190805190602001909291908051640100000000811115611b2a57600080fd5b82810190506020810184811115611b4057600080fd5b8151856001820283011164010000000082111715611b5d57600080fd5b50509291906020018051640100000000811115611b7957600080fd5b82810190506020810184811115611b8f57600080fd5b8151856001820283011164010000000082111715611bac57600080fd5b50509291906020018051640100000000811115611bc857600080fd5b82810190506020810184811115611bde57600080fd5b8151856001820283011164010000000082111715611bfb57600080fd5b505092919050505095509550955095509550955091939550919395565b600073__KeyHolderLibrary______________________63d8188a40600085856040518463ffffffff167c0100000000000000000000000000000000000000000000000000000000028152600401808481526020018360001916600019168152602001828152602001935050505060206040518083038186803b158015611c9e57600080fd5b505af4158015611cb2573d6000803e3d6000fd5b505050506040513d6020811015611cc857600080fd5b8101908080519060200190929190505050905092915050565b606073__KeyHolderLibrary______________________630f982bac6000846040518363ffffffff167c01000000000000000000000000000000000000000000000000000000000281526004018083815260200182600019166000191681526020019250505060006040518083038186803b158015611d5f57600080fd5b505af4158015611d73573d6000803e3d6000fd5b505050506040513d6000823e3d601f19601f820116820180604052506020811015611d9d57600080fd5b810190808051640100000000811115611db557600080fd5b82810190506020810184811115611dcb57600080fd5b8151856020820283011164010000000082111715611de857600080fd5b505092919050505090509190505600a165627a7a723058206d2e348378aef6946cd0c48f9947826c75d1fb1ec4e51878cf7985915424ee8e0029",
  "source": "\n\nlibrary KeyHolderLibrary {\n    event KeyAdded(bytes32 indexed key, uint256 indexed purpose, uint256 indexed keyType);\n    event KeyRemoved(bytes32 indexed key, uint256 indexed purpose, uint256 indexed keyType);\n    event ExecutionRequested(uint256 indexed executionId, address indexed to, uint256 indexed value, bytes data);\n    event ExecutionFailed(uint256 indexed executionId, address indexed to, uint256 indexed value, bytes data);\n    event Executed(uint256 indexed executionId, address indexed to, uint256 indexed value, bytes data);\n    event Approved(uint256 indexed executionId, bool approved);\n\n    struct Key {\n        uint256[] purposes; \n        uint256 keyType; \n        bytes32 key;\n    }\n\n    struct KeyHolderData {\n        uint256 executionNonce;\n        mapping (bytes32 => Key) keys;\n        mapping (uint256 => bytes32[]) keysByPurpose;\n        mapping (uint256 => Execution) executions;\n    }\n\n    struct Execution {\n        address to;\n        uint256 value;\n        bytes data;\n        bool approved;\n        bool executed;\n    }\n\n    function init(KeyHolderData storage _keyHolderData)\n        public\n    {\n        bytes32 _key = keccak256(abi.encodePacked(msg.sender));\n        _keyHolderData.keys[_key].key = _key;\n        _keyHolderData.keys[_key].purposes.push(1);\n        _keyHolderData.keys[_key].keyType = 1;\n        _keyHolderData.keysByPurpose[1].push(_key);\n        emit KeyAdded(_key, 1, 1);\n    }\n\n    function getKey(KeyHolderData storage _keyHolderData, bytes32 _key)\n        public\n        view\n        returns(uint256[] purposes, uint256 keyType, bytes32 key)\n    {\n        return (\n            _keyHolderData.keys[_key].purposes,\n            _keyHolderData.keys[_key].keyType,\n            _keyHolderData.keys[_key].key\n        );\n    }\n\n    function getKeyPurposes(KeyHolderData storage _keyHolderData, bytes32 _key)\n        public\n        view\n        returns(uint256[] purposes)\n    {\n        return (_keyHolderData.keys[_key].purposes);\n    }\n\n    function getKeysByPurpose(KeyHolderData storage _keyHolderData, uint256 _purpose)\n        public\n        view\n        returns(bytes32[] _keys)\n    {\n        return _keyHolderData.keysByPurpose[_purpose];\n    }\n\n    function addKey(KeyHolderData storage _keyHolderData, bytes32 _key, uint256 _purpose, uint256 _type)\n        public\n        returns (bool success)\n    {\n        require(!keyHasPurpose(_keyHolderData, _key, _purpose), \"Key already exists with same purpose\"); \n        if (msg.sender != address(this)) {\n            require(keyHasPurpose(_keyHolderData, keccak256(abi.encodePacked(msg.sender)), 1), \"Sender does not have management key\"); \n        }\n\n        _keyHolderData.keys[_key].key = _key;\n        _keyHolderData.keys[_key].purposes.push(_purpose);\n        _keyHolderData.keys[_key].keyType = _type;\n\n        _keyHolderData.keysByPurpose[_purpose].push(_key);\n\n        emit KeyAdded(_key, _purpose, _type);\n\n        return true;\n    }\n\n    function addKeys(KeyHolderData storage _keyHolderData, bytes32[] _keys, uint256 _purpose, uint256 _type)\n        public\n        returns (bool success)\n    {\n        for (uint16 i = 0; i < _keys.length; i++) {\n            addKey(\n                _keyHolderData,\n                _keys[i],\n                _purpose,\n                _type\n            );\n        }\n\n        return true;\n    }\n\n    function approve(KeyHolderData storage _keyHolderData, uint256 _id, bool _approve)\n        public\n        returns (bool success)\n    {\n        require(keyHasPurpose(_keyHolderData, keccak256(abi.encodePacked(msg.sender)), 2), \"Sender does not have action key\");\n        require(!_keyHolderData.executions[_id].executed, \"Already executed\");\n\n        emit Approved(_id, _approve);\n\n        if (_approve == true) {\n            _keyHolderData.executions[_id].approved = true;\n            success = _keyHolderData.executions[_id].to.call(_keyHolderData.executions[_id].data, 0);\n            if (success) {\n                _keyHolderData.executions[_id].executed = true;\n                emit Executed(\n                    _id,\n                    _keyHolderData.executions[_id].to,\n                    _keyHolderData.executions[_id].value,\n                    _keyHolderData.executions[_id].data\n                );\n                return;\n            } else {\n                emit ExecutionFailed(\n                    _id,\n                    _keyHolderData.executions[_id].to,\n                    _keyHolderData.executions[_id].value,\n                    _keyHolderData.executions[_id].data\n                );\n                return;\n            }\n        } else {\n            _keyHolderData.executions[_id].approved = false;\n        }\n        return true;\n    }\n\n    function execute(KeyHolderData storage _keyHolderData, address _to, uint256 _value, bytes _data)\n        public\n        returns (uint256 executionId)\n    {\n        require(!_keyHolderData.executions[_keyHolderData.executionNonce].executed, \"Already executed\");\n        _keyHolderData.executions[_keyHolderData.executionNonce].to = _to;\n        _keyHolderData.executions[_keyHolderData.executionNonce].value = _value;\n        _keyHolderData.executions[_keyHolderData.executionNonce].data = _data;\n\n        emit ExecutionRequested(_keyHolderData.executionNonce, _to, _value, _data);\n\n        if (keyHasPurpose(_keyHolderData, keccak256(abi.encodePacked(msg.sender)),1) || keyHasPurpose(_keyHolderData, keccak256(abi.encodePacked(msg.sender)),2)) {\n            approve(_keyHolderData, _keyHolderData.executionNonce, true);\n        }\n\n        _keyHolderData.executionNonce++;\n        return _keyHolderData.executionNonce-1;\n    }\n\n    function removeKey(KeyHolderData storage _keyHolderData, bytes32 _key, uint256 _purpose)\n        public\n        returns (bool success)\n    {\n        if (msg.sender != address(this)) {\n            require(keyHasPurpose(_keyHolderData, keccak256(abi.encodePacked(msg.sender)), 1), \"Sender does not have management key\"); \n        }\n\n        require(_keyHolderData.keys[_key].key == _key, \"No such key\");\n        emit KeyRemoved(_key, _purpose, _keyHolderData.keys[_key].keyType);\n\n        \n        uint256[] storage purposes = _keyHolderData.keys[_key].purposes;\n        for (uint i = 0; i < purposes.length; i++) {\n            if (purposes[i] == _purpose) {\n                purposes[i] = purposes[purposes.length - 1];\n                delete purposes[purposes.length - 1];\n                purposes.length--;\n                break;\n            }\n        }\n\n        \n        if (purposes.length == 0) {\n            delete _keyHolderData.keys[_key];\n        }\n\n        \n        bytes32[] storage keys = _keyHolderData.keysByPurpose[_purpose];\n        for (uint j = 0; j < keys.length; j++) {\n            if (keys[j] == _key) {\n                keys[j] = keys[keys.length - 1];\n                delete keys[keys.length - 1];\n                keys.length--;\n                break;\n            }\n        }\n\n        return true;\n    }\n\n    function keyHasPurpose(KeyHolderData storage _keyHolderData, bytes32 _key, uint256 _purpose)\n        public\n        view\n        returns(bool result)\n    {\n        bool isThere;\n        if (_keyHolderData.keys[_key].key == 0) {\n            return false;\n        }\n\n        uint256[] storage purposes = _keyHolderData.keys[_key].purposes;\n        for (uint i = 0; i < purposes.length; i++) {\n            if (purposes[i] <= _purpose) {\n                isThere = true;\n                break;\n            }\n        }\n        return isThere;\n    }\n}\n\nlibrary ClaimHolderLibrary {\n    event ClaimAdded(bytes32 indexed claimId, uint256 indexed topic, uint256 scheme, address indexed issuer, bytes signature, bytes data, string uri);\n    event ClaimRemoved(bytes32 indexed claimId, uint256 indexed topic, uint256 scheme, address indexed issuer, bytes signature, bytes data, string uri);\n\n    struct Claim {\n        uint256 topic;\n        uint256 scheme;\n        address issuer; \n        bytes signature; \n        bytes data;\n        string uri;\n    }\n\n    struct Claims {\n        mapping (bytes32 => Claim) byId;\n        mapping (uint256 => bytes32[]) byTopic;\n    }\n\n    function addClaim(\n        KeyHolderLibrary.KeyHolderData storage _keyHolderData,\n        Claims storage _claims,\n        uint256 _topic,\n        uint256 _scheme,\n        address _issuer,\n        bytes _signature,\n        bytes _data,\n        string _uri\n    )\n        public\n        returns (bytes32 claimRequestId)\n    {\n        if (msg.sender != address(this)) {\n            bytes32 sender = keccak256(abi.encodePacked(msg.sender));\n            require(KeyHolderLibrary.keyHasPurpose(_keyHolderData, sender, 1) ||\n                    KeyHolderLibrary.keyHasPurpose(_keyHolderData, sender, 3), \"Sender does not have claim signer key\");\n        }\n\n        bytes32 claimId = keccak256(abi.encodePacked(_issuer, _topic));\n\n        if (_claims.byId[claimId].issuer != _issuer) {\n            _claims.byTopic[_topic].push(claimId);\n        }\n\n        _claims.byId[claimId].topic = _topic;\n        _claims.byId[claimId].scheme = _scheme;\n        _claims.byId[claimId].issuer = _issuer;\n        _claims.byId[claimId].signature = _signature;\n        _claims.byId[claimId].data = _data;\n        _claims.byId[claimId].uri = _uri;\n\n        emit ClaimAdded(\n            claimId,\n            _topic,\n            _scheme,\n            _issuer,\n            _signature,\n            _data,\n            _uri\n        );\n\n        return claimId;\n    }\n\n    function addClaims(\n        KeyHolderLibrary.KeyHolderData storage _keyHolderData,\n        Claims storage _claims,\n        uint256[] _topic,\n        address[] _issuer,\n        bytes _signature,\n        bytes _data,\n        uint256[] _offsets\n    )\n        public\n    {\n        uint offset = 0;\n        for (uint16 i = 0; i < _topic.length; i++) {\n            addClaim(\n                _keyHolderData,\n                _claims,\n                _topic[i],\n                1,\n                _issuer[i],\n                getBytes(_signature, (i * 65), 65),\n                getBytes(_data, offset, _offsets[i]),\n                \"\"\n            );\n            offset += _offsets[i];\n        }\n    }\n\n    function removeClaim(\n        KeyHolderLibrary.KeyHolderData storage _keyHolderData,\n        Claims storage _claims,\n        bytes32 _claimId\n    )\n        public\n        returns (bool success)\n    {\n        if (msg.sender != address(this)) {\n            require(KeyHolderLibrary.keyHasPurpose(_keyHolderData, keccak256(abi.encodePacked(msg.sender)), 1), \"Sender does not have management key\");\n        }\n\n        emit ClaimRemoved(\n            _claimId,\n            _claims.byId[_claimId].topic,\n            _claims.byId[_claimId].scheme,\n            _claims.byId[_claimId].issuer,\n            _claims.byId[_claimId].signature,\n            _claims.byId[_claimId].data,\n            _claims.byId[_claimId].uri\n        );\n\n        delete _claims.byId[_claimId];\n        return true;\n    }\n\n    function getClaim(Claims storage _claims, bytes32 _claimId)\n        public\n        view\n        returns(\n          uint256 topic,\n          uint256 scheme,\n          address issuer,\n          bytes signature,\n          bytes data,\n          string uri\n        )\n    {\n        return (\n            _claims.byId[_claimId].topic,\n            _claims.byId[_claimId].scheme,\n            _claims.byId[_claimId].issuer,\n            _claims.byId[_claimId].signature,\n            _claims.byId[_claimId].data,\n            _claims.byId[_claimId].uri\n        );\n    }\n\n    function getBytes(bytes _str, uint256 _offset, uint256 _length)\n        internal\n        pure\n        returns (bytes)\n    {\n        bytes memory sig = new bytes(_length);\n        uint256 j = 0;\n        for (uint256 k = _offset; k < _offset + _length; k++) {\n            sig[j] = _str[k];\n            j++;\n        }\n        return sig;\n    }\n}\n\ncontract ERC725 {\n    uint256 constant MANAGEMENT_KEY = 1;\n    uint256 constant ACTION_KEY = 2;\n    uint256 constant CLAIM_SIGNER_KEY = 3;\n    uint256 constant ENCRYPTION_KEY = 4;\n\n    event KeyAdded(bytes32 indexed key, uint256 indexed purpose, uint256 indexed keyType);\n    event KeyRemoved(bytes32 indexed key, uint256 indexed purpose, uint256 indexed keyType);\n    event ExecutionRequested(uint256 indexed executionId, address indexed to, uint256 indexed value, bytes data);\n    event Executed(uint256 indexed executionId, address indexed to, uint256 indexed value, bytes data);\n    event Approved(uint256 indexed executionId, bool approved);\n\n    function getKey(bytes32 _key) public view returns(uint256[] purposes, uint256 keyType, bytes32 key);\n    function keyHasPurpose(bytes32 _key, uint256 _purpose) public view returns (bool exists);\n    function getKeysByPurpose(uint256 _purpose) public view returns(bytes32[] keys);\n    function addKey(bytes32 _key, uint256 _purpose, uint256 _keyType) public returns (bool success);\n    function removeKey(bytes32 _key, uint256 _purpose) public returns (bool success);\n    function execute(address _to, uint256 _value, bytes _data) public returns (uint256 executionId);\n    function approve(uint256 _id, bool _approve) public returns (bool success);\n}\n\ncontract ERC735 {\n    event ClaimRequested(uint256 indexed claimRequestId, uint256 indexed topic, uint256 scheme, address indexed issuer, bytes signature, bytes data, string uri);\n    event ClaimAdded(bytes32 indexed claimId, uint256 indexed topic, uint256 scheme, address indexed issuer, bytes signature, bytes data, string uri);\n    event ClaimRemoved(bytes32 indexed claimId, uint256 indexed topic, uint256 scheme, address indexed issuer, bytes signature, bytes data, string uri);\n    event ClaimChanged(bytes32 indexed claimId, uint256 indexed topic, uint256 scheme, address indexed issuer, bytes signature, bytes data, string uri);\n\n    struct Claim {\n        uint256 topic;\n        uint256 scheme;\n        address issuer; \n        bytes signature; \n        bytes data;\n        string uri;\n    }\n\n    function getClaim(bytes32 _claimId) public view returns(uint256 topic, uint256 scheme, address issuer, bytes signature, bytes data, string uri);\n    function getClaimIdsByTopic(uint256 _topic) public view returns(bytes32[] claimIds);\n    function addClaim(uint256 _topic, uint256 _scheme, address issuer, bytes _signature, bytes _data, string _uri) public returns (bytes32 claimRequestId);\n    function removeClaim(bytes32 _claimId) public returns (bool success);\n}\n\ncontract KeyHolder is ERC725 {\n    KeyHolderLibrary.KeyHolderData keyHolderData;\n\n    constructor() public {\n        KeyHolderLibrary.init(keyHolderData);\n    }\n\n    function getKey(bytes32 _key)\n        public\n        view\n        returns(uint256[] purposes, uint256 keyType, bytes32 key)\n    {\n        return KeyHolderLibrary.getKey(keyHolderData, _key);\n    }\n\n    function getKeyPurposes(bytes32 _key)\n        public\n        view\n        returns(uint256[] purposes)\n    {\n        return KeyHolderLibrary.getKeyPurposes(keyHolderData, _key);\n    }\n\n    function getKeysByPurpose(uint256 _purpose)\n        public\n        view\n        returns(bytes32[] _keys)\n    {\n        return KeyHolderLibrary.getKeysByPurpose(keyHolderData, _purpose);\n    }\n\n    function addKey(bytes32 _key, uint256 _purpose, uint256 _type)\n        public\n        returns (bool success)\n    {\n        return KeyHolderLibrary.addKey(keyHolderData, _key, _purpose, _type);\n    }\n\n    function addKeys(bytes32[] _keys, uint256 _purpose, uint256 _type)\n        public\n        returns (bool success)\n    {\n        return KeyHolderLibrary.addKeys(keyHolderData, _keys, _purpose, _type);\n    }\n\n    function approve(uint256 _id, bool _approve)\n        public\n        returns (bool success)\n    {\n        return KeyHolderLibrary.approve(keyHolderData, _id, _approve);\n    }\n\n    function execute(address _to, uint256 _value, bytes _data)\n        public\n        returns (uint256 executionId)\n    {\n        return KeyHolderLibrary.execute(keyHolderData, _to, _value, _data);\n    }\n\n    function removeKey(bytes32 _key, uint256 _purpose)\n        public\n        returns (bool success)\n    {\n        return KeyHolderLibrary.removeKey(keyHolderData, _key, _purpose);\n    }\n\n    function keyHasPurpose(bytes32 _key, uint256 _purpose)\n        public\n        view\n        returns(bool exists)\n    {\n        return KeyHolderLibrary.keyHasPurpose(keyHolderData, _key, _purpose);\n    }\n}\n\ncontract ClaimHolder is KeyHolder, ERC735 {\n    ClaimHolderLibrary.Claims claims;\n\n    function addClaim(\n        uint256 _topic,\n        uint256 _scheme,\n        address _issuer,\n        bytes _signature,\n        bytes _data,\n        string _uri\n    )\n        public\n        returns (bytes32 claimRequestId)\n    {\n        return ClaimHolderLibrary.addClaim(\n            keyHolderData,\n            claims,\n            _topic,\n            _scheme,\n            _issuer,\n            _signature,\n            _data,\n            _uri\n        );\n    }\n\n    function addClaims(\n        uint256[] _topic,\n        address[] _issuer,\n        bytes _signature,\n        bytes _data,\n        uint256[] _offsets\n    )\n        public\n    {\n        ClaimHolderLibrary.addClaims(\n            keyHolderData,\n            claims,\n            _topic,\n            _issuer,\n            _signature,\n            _data,\n            _offsets\n        );\n    }\n\n    function removeClaim(bytes32 _claimId) public returns (bool success) {\n        return ClaimHolderLibrary.removeClaim(keyHolderData, claims, _claimId);\n    }\n\n    function getClaim(bytes32 _claimId)\n        public\n        view\n        returns(\n            uint256 topic,\n            uint256 scheme,\n            address issuer,\n            bytes signature,\n            bytes data,\n            string uri\n        )\n    {\n        return ClaimHolderLibrary.getClaim(claims, _claimId);\n    }\n\n    function getClaimIdsByTopic(uint256 _topic)\n        public\n        view\n        returns(bytes32[] claimIds)\n    {\n        return claims.byTopic[_topic];\n    }\n}\n\ncontract managed {\n    address public admin;\n\n    constructor() public {\n        admin = msg.sender;\n    }\n\n    modifier onlyAdmin {\n        require(msg.sender == admin);\n        _;\n    }\n\n    function transferOwnership(address newAdmin) onlyAdmin public {\n        admin = newAdmin;\n    }\n}\n\ncontract WhooseWalletAdmin is managed {\n    mapping(address => address) contracts;\n\n    function addContract(address addr) public returns(bool success) {\n        contracts[addr] = addr;\n        return true;\n    }\n\n    function removeContract(address addr) public onlyAdmin returns(bool success) {\n        delete contracts[addr];\n        return true;\n    }\n\n    function getContract(address addr) public view onlyAdmin returns(address addr_res) {\n        return contracts[addr];\n    }\n\n    \n    function getKey(address _walletAddress, bytes32 _key)\n        public view onlyAdmin returns(uint256[] purposes, uint256 keyType, bytes32 key) {\n        WhooseWallet _wallet = WhooseWallet(_walletAddress);\n        return _wallet.getKey(_key);\n    }\n\n    function keyHasPurpose(address _walletAddress, bytes32 _key, uint256 _purpose)\n        public view onlyAdmin returns (bool exists) {\n        WhooseWallet _wallet = WhooseWallet(_walletAddress);\n        return _wallet.keyHasPurpose(_key, _purpose);\n    }\n\n    function getKeysByPurpose(address _walletAddress, uint256 _purpose)\n        public view onlyAdmin returns(bytes32[] keys) {\n        WhooseWallet _wallet = WhooseWallet(_walletAddress);\n        return _wallet.getKeysByPurpose(_purpose);\n    }\n\n    function addKey(address _walletAddress, bytes32 _key, uint256 _purpose, uint256 _keyType)\n        public onlyAdmin returns (bool success) {\n        WhooseWallet _wallet = WhooseWallet(_walletAddress);\n        return _wallet.addKey(_key, _purpose, _keyType);\n    }\n\n    function addKeys(address _walletAddress, bytes32[] _keys, uint256 _purpose, uint256 _keyType)\n        public onlyAdmin returns (bool success) {\n        WhooseWallet _wallet = WhooseWallet(_walletAddress);\n        return _wallet.addKeys(_keys, _purpose, _keyType);\n    }\n\n    function removeKey(address _walletAddress, bytes32 _key, uint256 _purpose)\n        public onlyAdmin returns (bool success) {\n        WhooseWallet _wallet = WhooseWallet(_walletAddress);\n        return _wallet.removeKey(_key, _purpose);\n    }\n\n    function execute(address _walletAddress, address _to, uint256 _value, bytes _data)\n        public onlyAdmin returns (uint256 executionId) {\n        WhooseWallet _wallet = WhooseWallet(_walletAddress);\n        return _wallet.execute(_to, _value, _data);\n    }\n\n    function approve(address _walletAddress, uint256 _id, bool _approve)\n        public onlyAdmin returns (bool success) {\n        WhooseWallet _wallet = WhooseWallet(_walletAddress);\n        return _wallet.approve(_id, _approve);\n    }\n\n    \n    function getClaim(address _walletAddress, bytes32 _claimId)\n        public onlyAdmin view returns(uint256 topic, uint256 scheme, address issuer, bytes signature, bytes data, string uri) {\n        WhooseWallet _wallet = WhooseWallet(_walletAddress);\n        return _wallet.getClaim(_claimId);\n    }\n\n    function getClaimIdsByTopic(address _walletAddress, uint256 _topic)\n        public onlyAdmin view returns(bytes32[] claimIds) {\n        WhooseWallet _wallet = WhooseWallet(_walletAddress);\n        return _wallet.getClaimIdsByTopic(_topic);\n    }\n\n    function addClaim(address _walletAddress, uint256 _topic, uint256 _scheme, address issuer, bytes _signature, bytes _data, string _uri)\n        public onlyAdmin returns (bytes32 claimRequestId) {\n        WhooseWallet _wallet = WhooseWallet(_walletAddress);\n        return _wallet.addClaim(_topic, _scheme, issuer, _signature, _data, _uri);\n    }\n\n    function removeClaim(address _walletAddress, bytes32 _claimId)\n        public onlyAdmin returns (bool success) {\n        WhooseWallet _wallet = WhooseWallet(_walletAddress);\n        return _wallet.removeClaim(_claimId);\n    }\n\n    function kill(address _walletAddress)\n        public onlyAdmin returns (bool success) {\n        WhooseWallet _wallet = WhooseWallet(_walletAddress);\n        _wallet.destruct();\n        return true;\n    }\n}\n\ncontract WhooseWallet is ClaimHolder {\n    address whooseWalletAdminAddress = 0x6babebb9657257F83492D457E7f41B2524368dE6;\n\n    constructor() public {\n        bytes32 _admin = keccak256(abi.encodePacked(whooseWalletAdminAddress));\n        addKey(_admin, 1, 1);\n\n        WhooseWalletAdmin _walletAdmin = WhooseWalletAdmin(whooseWalletAdminAddress);\n        _walletAdmin.addContract(address(this));\n    }\n\n    function destruct() public {\n        if (msg.sender != address(this) && whooseWalletAdminAddress != address(this)) {\n            bytes32 sender = keccak256(abi.encodePacked(msg.sender));\n            require(KeyHolderLibrary.keyHasPurpose(keyHolderData, sender, 1), \"Sender does not have management key\");\n        }\n\n        selfdestruct(whooseWalletAdminAddress);\n    }\n}",
  "sourcePath": "/home/XXX-1/smartrim-experiment/for-rlf/0xdb6677db66d1b908d4813de47acf0b38251bfc35/contracts/0xdb6677db66d1b908d4813de47acf0b38251bfc35.sol",
  "compiler": {
    "name": "solc",
    "version": "0.4.25+commit.59dbf8f1.Emscripten.clang"
  },
  "schemaVersion": "3.4.16",
  "updatedAt": "2025-08-14T04:08:30.798Z",
  "devdoc": {
    "methods": {}
  },
  "userdoc": {
    "methods": {}
  }
}