{
  "contractName": "Vault",
  "abi": [
    {
      "constant": true,
      "inputs": [
        {
          "name": "",
          "type": "address"
        }
      ],
      "name": "Deposits",
      "outputs": [
        {
          "name": "",
          "type": "uint256"
        }
      ],
      "payable": false,
      "stateMutability": "view",
      "type": "function"
    },
    {
      "payable": true,
      "stateMutability": "payable",
      "type": "fallback"
    },
    {
      "anonymous": false,
      "inputs": [
        {
          "indexed": true,
          "name": "depositor",
          "type": "address"
        },
        {
          "indexed": false,
          "name": "amount",
          "type": "uint256"
        }
      ],
      "name": "Deposit",
      "type": "event"
    },
    {
      "anonymous": false,
      "inputs": [
        {
          "indexed": true,
          "name": "to",
          "type": "address"
        },
        {
          "indexed": false,
          "name": "amount",
          "type": "uint256"
        }
      ],
      "name": "Withdrawal",
      "type": "event"
    },
    {
      "anonymous": false,
      "inputs": [
        {
          "indexed": true,
          "name": "from",
          "type": "address"
        },
        {
          "indexed": true,
          "name": "to",
          "type": "address"
        }
      ],
      "name": "TransferOwnership",
      "type": "event"
    },
    {
      "constant": false,
      "inputs": [
        {
          "name": "to",
          "type": "address"
        }
      ],
      "name": "transferOwnership",
      "outputs": [],
      "payable": false,
      "stateMutability": "nonpayable",
      "type": "function"
    },
    {
      "constant": false,
      "inputs": [],
      "name": "init",
      "outputs": [],
      "payable": true,
      "stateMutability": "payable",
      "type": "function"
    },
    {
      "constant": false,
      "inputs": [
        {
          "name": "NewDate",
          "type": "uint256"
        }
      ],
      "name": "SetReleaseDate",
      "outputs": [],
      "payable": false,
      "stateMutability": "nonpayable",
      "type": "function"
    },
    {
      "constant": false,
      "inputs": [],
      "name": "deposit",
      "outputs": [],
      "payable": true,
      "stateMutability": "payable",
      "type": "function"
    },
    {
      "constant": false,
      "inputs": [
        {
          "name": "amount",
          "type": "uint256"
        }
      ],
      "name": "withdraw",
      "outputs": [],
      "payable": true,
      "stateMutability": "payable",
      "type": "function"
    },
    {
      "constant": false,
      "inputs": [
        {
          "name": "to",
          "type": "address"
        },
        {
          "name": "amount",
          "type": "uint256"
        }
      ],
      "name": "withdrawTo",
      "outputs": [],
      "payable": false,
      "stateMutability": "nonpayable",
      "type": "function"
    },
    {
      "constant": true,
      "inputs": [],
      "name": "MinimumDeposit",
      "outputs": [
        {
          "name": "",
          "type": "uint256"
        }
      ],
      "payable": false,
      "stateMutability": "view",
      "type": "function"
    },
    {
      "constant": true,
      "inputs": [],
      "name": "ReleaseDate",
      "outputs": [
        {
          "name": "",
          "type": "uint256"
        }
      ],
      "payable": false,
      "stateMutability": "view",
      "type": "function"
    },
    {
      "constant": false,
      "inputs": [],
      "name": "lock",
      "outputs": [],
      "payable": false,
      "stateMutability": "nonpayable",
      "type": "function"
    },
    {
      "constant": false,
      "inputs": [],
      "name": "kill",
      "outputs": [],
      "payable": false,
      "stateMutability": "nonpayable",
      "type": "function"
    }
  ],
  "bytecode": "0x608060405234801561001057600080fd5b5061073a806100206000396000f3006080604052600436106100af576000357c0100000000000000000000000000000000000000000000000000000000900463ffffffff168063205c2878146100b95780632e1a7d4d146101065780633ee2d7c21461012657806341c0e1b51461017d5780638cf49cad14610194578063c635a9f2146101bf578063c67bdb19146101ea578063d0e30db014610217578063e1c7392a14610221578063f2fde38b1461022b578063f83d08ba1461026e575b6100b7610285565b005b3480156100c557600080fd5b50610104600480360381019080803573ffffffffffffffffffffffffffffffffffffffff1690602001909291908035906020019092919050505061033d565b005b61012460048036038101908080359060200190929190505050610495565b005b34801561013257600080fd5b50610167600480360381019080803573ffffffffffffffffffffffffffffffffffffffff1690602001909291905050506104a2565b6040518082815260200191505060405180910390f35b34801561018957600080fd5b506101926104ba565b005b3480156101a057600080fd5b506101a961051a565b6040518082815260200191505060405180910390f35b3480156101cb57600080fd5b506101d4610524565b6040518082815260200191505060405180910390f35b3480156101f657600080fd5b506102156004803603810190808035906020019092919050505061052e565b005b61021f610285565b005b610229610538565b005b34801561023757600080fd5b5061026c600480360381019080803573ffffffffffffffffffffffffffffffffffffffff1690602001909291905050506105c3565b005b34801561027a57600080fd5b506102836106d7565b005b600034111561033b57610296610524565b341015156102ec5734600160003373ffffffffffffffffffffffffffffffffffffffff1673ffffffffffffffffffffffffffffffffffffffff168152602001908152602001600020600082825401925050819055505b3373ffffffffffffffffffffffffffffffffffffffff167fe1fffcc4923d04b559f4d29a8bfc6cda04eb5b0d3c460751c2402c5c5cc9109c346040518082815260200191505060405180910390a25b565b60008060009054906101000a900473ffffffffffffffffffffffffffffffffffffffff1673ffffffffffffffffffffffffffffffffffffffff163373ffffffffffffffffffffffffffffffffffffffff1614156104905761039c6106f4565b1561048f57600160003373ffffffffffffffffffffffffffffffffffffffff1673ffffffffffffffffffffffffffffffffffffffff1681526020019081526020016000205490506000811180156103f35750808211155b1561048e578273ffffffffffffffffffffffffffffffffffffffff166108fc839081150290604051600060405180830381858888f1935050505015801561043e573d6000803e3d6000fd5b508273ffffffffffffffffffffffffffffffffffffffff167f7fcf532c15f0a6db0bd6d0e038bea71d30d808c7d98cb3bf7268a95bf5081b65836040518082815260200191505060405180910390a25b5b5b505050565b61049f338261033d565b50565b60016020528060005260406000206000915090505481565b60003073ffffffffffffffffffffffffffffffffffffffff16311415156104e057600080fd5b6000809054906101000a900473ffffffffffffffffffffffffffffffffffffffff1673ffffffffffffffffffffffffffffffffffffffff16ff5b6000600454905090565b6000600254905090565b8060048190555050565b600360009054906101000a900460ff1615156105c157336000806101000a81548173ffffffffffffffffffffffffffffffffffffffff021916908373ffffffffffffffffffffffffffffffffffffffff1602179055506706f05b59d3b200006002819055506000600360006101000a81548160ff0219169083151502179055506105c0610285565b5b565b6000809054906101000a900473ffffffffffffffffffffffffffffffffffffffff1673ffffffffffffffffffffffffffffffffffffffff163373ffffffffffffffffffffffffffffffffffffffff1614156106d4578073ffffffffffffffffffffffffffffffffffffffff166000809054906101000a900473ffffffffffffffffffffffffffffffffffffffff1673ffffffffffffffffffffffffffffffffffffffff167f5c486528ec3e3f0ea91181cff8116f02bfa350e03b8b6f12e00765adbb5af85c60405160405180910390a3806000806101000a81548173ffffffffffffffffffffffffffffffffffffffff021916908373ffffffffffffffffffffffffffffffffffffffff1602179055505b50565b6001600360006101000a81548160ff021916908315150217905550565b60008060045411801561070957504260045411155b9050905600a165627a7a723058204e77ab3545d0f8044792ff4c954b3ea7c110617db6708b3dbe4308b139f7fa300029",
  "source": "\n\ncontract Vault {\n    \n    event Deposit(address indexed depositor, uint amount);\n    event Withdrawal(address indexed to, uint amount);\n    event TransferOwnership(address indexed from, address indexed to);\n    \n    address Owner;\n    function transferOwnership(address to) public onlyOwner {\n        TransferOwnership(Owner, to); Owner = to;\n    }\n    \n    mapping (address => uint) public Deposits;\n    uint minDeposit;\n    bool Locked;\n    uint Date;\n\n    function init() payable open {\n        Owner = msg.sender;\n        minDeposit = 0.5 ether;\n        Locked = false;\n        deposit();\n    }\n\n    function SetReleaseDate(uint NewDate) {\n        Date = NewDate;\n    }\n\n    function() public payable { deposit(); }\n\n    function deposit() public payable {\n        if (msg.value > 0) {\n            if (msg.value >= MinimumDeposit())\n                Deposits[msg.sender] += msg.value;\n            Deposit(msg.sender, msg.value);\n        }\n    }\n\n    function withdraw(uint amount) public payable { withdrawTo(msg.sender, amount); }\n    \n    function withdrawTo(address to, uint amount) public onlyOwner {\n        if (WithdrawalEnabled()) {\n            uint max = Deposits[msg.sender];\n            if (max > 0 && amount <= max) {\n                to.transfer(amount);\n                Withdrawal(to, amount);\n            }\n        }\n    }\n\n    function MinimumDeposit() public constant returns (uint) { return minDeposit; }\n    function ReleaseDate() public constant returns (uint) { return Date; }\n    function WithdrawalEnabled() constant internal returns (bool) { return Date > 0 && Date <= now; }\n    function lock() public { Locked = true; }\n    modifier onlyOwner { if (msg.sender == Owner) _; }\n    modifier open { if (!Locked) _; }\n    function kill() { require(this.balance == 0); selfdestruct(Owner); }\n}",
  "sourcePath": "/home/XXX-1/smartrim-experiment/for-rlf/0x65c52ae9b15dd6f30902e9f8164c91e912ee2be3/contracts/0x65c52ae9b15dd6f30902e9f8164c91e912ee2be3.sol",
  "compiler": {
    "name": "solc",
    "version": "0.4.25+commit.59dbf8f1.Emscripten.clang"
  },
  "schemaVersion": "3.4.16",
  "updatedAt": "2025-08-14T03:56:18.134Z",
  "networkType": "ethereum",
  "devdoc": {
    "methods": {}
  },
  "userdoc": {
    "methods": {}
  }
}