{
  "contractName": "SimpleBet",
  "abi": [
    {
      "payable": true,
      "stateMutability": "payable",
      "type": "fallback"
    },
    {
      "constant": false,
      "inputs": [],
      "name": "bet",
      "outputs": [],
      "payable": true,
      "stateMutability": "payable",
      "type": "function"
    },
    {
      "constant": false,
      "inputs": [],
      "name": "lock",
      "outputs": [],
      "payable": false,
      "stateMutability": "nonpayable",
      "type": "function"
    },
    {
      "constant": false,
      "inputs": [],
      "name": "unlock",
      "outputs": [],
      "payable": false,
      "stateMutability": "nonpayable",
      "type": "function"
    },
    {
      "constant": false,
      "inputs": [
        {
          "name": "owner",
          "type": "address"
        }
      ],
      "name": "own",
      "outputs": [],
      "payable": false,
      "stateMutability": "nonpayable",
      "type": "function"
    },
    {
      "constant": false,
      "inputs": [
        {
          "name": "amount",
          "type": "uint256"
        }
      ],
      "name": "releaseFunds",
      "outputs": [],
      "payable": false,
      "stateMutability": "nonpayable",
      "type": "function"
    },
    {
      "constant": true,
      "inputs": [],
      "name": "random",
      "outputs": [
        {
          "name": "",
          "type": "uint8"
        }
      ],
      "payable": false,
      "stateMutability": "view",
      "type": "function"
    }
  ],
  "bytecode": "0x608060405260008060006101000a81548173ffffffffffffffffffffffffffffffffffffffff021916908373ffffffffffffffffffffffffffffffffffffffff16021790555060008060146101000a81548160ff02191690831515021790555034801561006b57600080fd5b506104cd8061007b6000396000f300608060405260043610610078576000357c0100000000000000000000000000000000000000000000000000000000900463ffffffff16806311610c25146100825780634d68282f1461008c5780635ec01e4d146100b9578063a69df4b5146100ea578063f349e3e314610101578063f83d08ba14610144575b61008061015b565b005b61008a61015b565b005b34801561009857600080fd5b506100b7600480360381019080803590602001909291905050506101eb565b005b3480156100c557600080fd5b506100ce610295565b604051808260ff1660ff16815260200191505060405180910390f35b3480156100f657600080fd5b506100ff6102cb565b005b34801561010d57600080fd5b50610142600480360381019080803573ffffffffffffffffffffffffffffffffffffffff16906020019092919050505061033d565b005b34801561015057600080fd5b5061015961042e565b005b60016002610167610295565b60ff1681151561017357fe5b0660ff1614801561018b5750670de0b6b3a764000034145b80156101a45750600060149054906101000a900460ff16155b156101e9573373ffffffffffffffffffffffffffffffffffffffff16671bc16d674ec8000060405160006040518083038185875af19250505015156101e857600080fd5b5b565b3373ffffffffffffffffffffffffffffffffffffffff166000809054906101000a900473ffffffffffffffffffffffffffffffffffffffff1673ffffffffffffffffffffffffffffffffffffffff161415610292573373ffffffffffffffffffffffffffffffffffffffff166108fc670de0b6b3a764000083029081150290604051600060405180830381858888f19350505050158015610290573d6000803e3d6000fd5b505b50565b6000610100424460405180838152602001828152602001925050506040518091039020600190048115156102c557fe5b06905090565b3373ffffffffffffffffffffffffffffffffffffffff166000809054906101000a900473ffffffffffffffffffffffffffffffffffffffff1673ffffffffffffffffffffffffffffffffffffffff16141561033b5760008060146101000a81548160ff0219169083151502179055505b565b600073ffffffffffffffffffffffffffffffffffffffff166000809054906101000a900473ffffffffffffffffffffffffffffffffffffffff1673ffffffffffffffffffffffffffffffffffffffff1614806103e557503373ffffffffffffffffffffffffffffffffffffffff166000809054906101000a900473ffffffffffffffffffffffffffffffffffffffff1673ffffffffffffffffffffffffffffffffffffffff16145b1561042b57806000806101000a81548173ffffffffffffffffffffffffffffffffffffffff021916908373ffffffffffffffffffffffffffffffffffffffff1602179055505b50565b3373ffffffffffffffffffffffffffffffffffffffff166000809054906101000a900473ffffffffffffffffffffffffffffffffffffffff1673ffffffffffffffffffffffffffffffffffffffff16141561049f576001600060146101000a81548160ff0219169083151502179055505b5600a165627a7a723058201d1b13180e0e9ab9a7b77fdb71484376f510dd92a6ddc6a8147c7788874455b20029",
  "source": "\ncontract SimpleBet {\n\n\taddress gameOwner = address(0);\n\n\tbool locked = false;\n\n\tfunction bet() payable\n\t{\n\t\tif ((random()%2==1) && (msg.value == 1 ether) && (!locked))\n\t\t{\n\t\t\tif (!msg.sender.call.value(2 ether)())\n\t\t\t\tthrow;\n\t\t}\n\t}\n\n\tfunction lock()\n\t{\n\t\tif (gameOwner==msg.sender)\n\t\t{\n\t\t\tlocked = true;\n\t\t}\n\t}\n\n\tfunction unlock()\n\t{\n\t\tif (gameOwner==msg.sender)\n\t\t{\n\t\t\tlocked = false;\n\t\t}\n\t}\n\n\tfunction own(address owner)\n\t{\n\t\tif ((gameOwner == address(0)) || (gameOwner == msg.sender))\n\t\t{\n\t\t\tgameOwner = owner;\n\t\t}\n\t}\n\n\tfunction releaseFunds(uint amount)\n\t{\n\t\tif (gameOwner==msg.sender)\n\t\t{\n\t\t\tmsg.sender.transfer( amount * (1 ether));\n\t\t}\n\t}\n\n\n\tfunction random() view returns (uint8) {\n        \treturn uint8(uint256(keccak256(block.timestamp, block.difficulty))%256);\n    \t}\n\n\tfunction () public  payable\n\t{\n\t\tbet();\n\t}\n}",
  "sourcePath": "/home/XXX-1/smartrim-experiment/for-rlf/0x11f4306f9812b80e75c1411c1cf296b04917b2f0/contracts/0x11f4306f9812b80e75c1411c1cf296b04917b2f0.sol",
  "compiler": {
    "name": "solc",
    "version": "0.4.25+commit.59dbf8f1.Emscripten.clang"
  },
  "schemaVersion": "3.4.16",
  "updatedAt": "2025-08-14T03:47:18.417Z",
  "networkType": "ethereum",
  "devdoc": {
    "methods": {}
  },
  "userdoc": {
    "methods": {}
  }
}