{
  "contractName": "BurnableOpenPayment",
  "abi": [
    {
      "constant": true,
      "inputs": [],
      "name": "payerString",
      "outputs": [
        {
          "name": "",
          "type": "string"
        }
      ],
      "payable": false,
      "stateMutability": "view",
      "type": "function"
    },
    {
      "constant": true,
      "inputs": [],
      "name": "payer",
      "outputs": [
        {
          "name": "",
          "type": "address"
        }
      ],
      "payable": false,
      "stateMutability": "view",
      "type": "function"
    },
    {
      "constant": true,
      "inputs": [],
      "name": "recipient",
      "outputs": [
        {
          "name": "",
          "type": "address"
        }
      ],
      "payable": false,
      "stateMutability": "view",
      "type": "function"
    },
    {
      "constant": true,
      "inputs": [],
      "name": "defaultTimeoutLength",
      "outputs": [
        {
          "name": "",
          "type": "uint256"
        }
      ],
      "payable": false,
      "stateMutability": "view",
      "type": "function"
    },
    {
      "constant": true,
      "inputs": [],
      "name": "recipientString",
      "outputs": [
        {
          "name": "",
          "type": "string"
        }
      ],
      "payable": false,
      "stateMutability": "view",
      "type": "function"
    },
    {
      "constant": true,
      "inputs": [],
      "name": "state",
      "outputs": [
        {
          "name": "",
          "type": "uint8"
        }
      ],
      "payable": false,
      "stateMutability": "view",
      "type": "function"
    },
    {
      "constant": true,
      "inputs": [],
      "name": "defaultAction",
      "outputs": [
        {
          "name": "",
          "type": "uint8"
        }
      ],
      "payable": false,
      "stateMutability": "view",
      "type": "function"
    },
    {
      "constant": true,
      "inputs": [],
      "name": "defaultTriggerTime",
      "outputs": [
        {
          "name": "",
          "type": "uint256"
        }
      ],
      "payable": false,
      "stateMutability": "view",
      "type": "function"
    },
    {
      "constant": true,
      "inputs": [],
      "name": "commitThreshold",
      "outputs": [
        {
          "name": "",
          "type": "uint256"
        }
      ],
      "payable": false,
      "stateMutability": "view",
      "type": "function"
    },
    {
      "inputs": [
        {
          "name": "_payer",
          "type": "address"
        },
        {
          "name": "_payerString",
          "type": "string"
        },
        {
          "name": "_commitThreshold",
          "type": "uint256"
        },
        {
          "name": "_defaultAction",
          "type": "uint8"
        },
        {
          "name": "_defaultTimeoutLength",
          "type": "uint256"
        }
      ],
      "payable": true,
      "stateMutability": "payable",
      "type": "constructor"
    },
    {
      "anonymous": false,
      "inputs": [
        {
          "indexed": false,
          "name": "amount",
          "type": "uint256"
        }
      ],
      "name": "FundsAdded",
      "type": "event"
    },
    {
      "anonymous": false,
      "inputs": [
        {
          "indexed": false,
          "name": "newPayerString",
          "type": "string"
        }
      ],
      "name": "PayerStringUpdated",
      "type": "event"
    },
    {
      "anonymous": false,
      "inputs": [
        {
          "indexed": false,
          "name": "newRecipientString",
          "type": "string"
        }
      ],
      "name": "RecipientStringUpdated",
      "type": "event"
    },
    {
      "anonymous": false,
      "inputs": [],
      "name": "FundsRecovered",
      "type": "event"
    },
    {
      "anonymous": false,
      "inputs": [
        {
          "indexed": false,
          "name": "recipient",
          "type": "address"
        }
      ],
      "name": "Committed",
      "type": "event"
    },
    {
      "anonymous": false,
      "inputs": [
        {
          "indexed": false,
          "name": "amount",
          "type": "uint256"
        }
      ],
      "name": "FundsBurned",
      "type": "event"
    },
    {
      "anonymous": false,
      "inputs": [
        {
          "indexed": false,
          "name": "amount",
          "type": "uint256"
        }
      ],
      "name": "FundsReleased",
      "type": "event"
    },
    {
      "anonymous": false,
      "inputs": [],
      "name": "Expended",
      "type": "event"
    },
    {
      "anonymous": false,
      "inputs": [],
      "name": "Unexpended",
      "type": "event"
    },
    {
      "anonymous": false,
      "inputs": [],
      "name": "DefaultActionDelayed",
      "type": "event"
    },
    {
      "anonymous": false,
      "inputs": [],
      "name": "DefaultActionCalled",
      "type": "event"
    },
    {
      "constant": false,
      "inputs": [],
      "name": "addFunds",
      "outputs": [],
      "payable": true,
      "stateMutability": "payable",
      "type": "function"
    },
    {
      "constant": false,
      "inputs": [],
      "name": "recoverFunds",
      "outputs": [],
      "payable": false,
      "stateMutability": "nonpayable",
      "type": "function"
    },
    {
      "constant": false,
      "inputs": [],
      "name": "commit",
      "outputs": [],
      "payable": true,
      "stateMutability": "payable",
      "type": "function"
    },
    {
      "constant": false,
      "inputs": [
        {
          "name": "amount",
          "type": "uint256"
        }
      ],
      "name": "burn",
      "outputs": [
        {
          "name": "",
          "type": "bool"
        }
      ],
      "payable": false,
      "stateMutability": "nonpayable",
      "type": "function"
    },
    {
      "constant": false,
      "inputs": [
        {
          "name": "amount",
          "type": "uint256"
        }
      ],
      "name": "release",
      "outputs": [
        {
          "name": "",
          "type": "bool"
        }
      ],
      "payable": false,
      "stateMutability": "nonpayable",
      "type": "function"
    },
    {
      "constant": false,
      "inputs": [
        {
          "name": "_string",
          "type": "string"
        }
      ],
      "name": "setPayerString",
      "outputs": [],
      "payable": false,
      "stateMutability": "nonpayable",
      "type": "function"
    },
    {
      "constant": false,
      "inputs": [
        {
          "name": "_string",
          "type": "string"
        }
      ],
      "name": "setRecipientString",
      "outputs": [],
      "payable": false,
      "stateMutability": "nonpayable",
      "type": "function"
    },
    {
      "constant": false,
      "inputs": [],
      "name": "delayDefaultAction",
      "outputs": [],
      "payable": false,
      "stateMutability": "nonpayable",
      "type": "function"
    },
    {
      "constant": false,
      "inputs": [],
      "name": "callDefaultAction",
      "outputs": [],
      "payable": false,
      "stateMutability": "nonpayable",
      "type": "function"
    }
  ],
  "bytecode": "0x6080604052604051620017f3380380620017f383398101806040528101908080519060200190929190805182019291906020018051906020019092919080519060200190929190805190602001909291905050506000600860006101000a81548160ff021916908360028111156200007357fe5b0217905550846000806101000a81548173ffffffffffffffffffffffffffffffffffffffff021916908373ffffffffffffffffffffffffffffffffffffffff1602179055508360029080519060200190620000d0929190620001cc565b507fdc91ea68d03b0572213a54d6505b782a13653e806090b342af10ba023fe5437f60026040518080602001828103825283818154600181600116156101000203166002900481526020019150805460018160011615610100020316600290048015620001815780601f10620001555761010080835404028352916020019162000181565b820191906000526020600020905b8154815290600101906020018083116200016357829003601f168201915b50509250505060405180910390a18260048190555081600560006101000a81548160ff02191690836002811115620001b557fe5b02179055508060068190555050505050506200027b565b828054600181600116156101000203166002900490600052602060002090601f016020900481019282601f106200020f57805160ff191683800117855562000240565b8280016001018555821562000240579182015b828111156200023f57825182559160200191906001019062000222565b5b5090506200024f919062000253565b5090565b6200027891905b80821115620002745760008160009055506001016200025a565b5090565b90565b611568806200028b6000396000f3006080604052600436106100fc576000357c0100000000000000000000000000000000000000000000000000000000900463ffffffff1680631194ed4614610101578063123119cd1461019157806337bdc99b146101e85780633c7a3aff1461022d57806342966c68146102375780634585ad021461027c57806366d003ac1461029357806368163034146102ea5780636d295e24146103155780639472eb761461032c578063a26759cb14610395578063b2e7c2881461039f578063b79550be1461042f578063c19d93fb14610446578063c75e8d551461047f578063cf19461f146104e8578063e3d0252b14610521578063ec1e74a71461054c575b600080fd5b34801561010d57600080fd5b50610116610577565b6040518080602001828103825283818151815260200191508051906020019080838360005b8381101561015657808201518184015260208101905061013b565b50505050905090810190601f1680156101835780820380516001836020036101000a031916815260200191505b509250505060405180910390f35b34801561019d57600080fd5b506101a6610615565b604051808273ffffffffffffffffffffffffffffffffffffffff1673ffffffffffffffffffffffffffffffffffffffff16815260200191505060405180910390f35b3480156101f457600080fd5b506102136004803603810190808035906020019092919050505061063a565b604051808215151515815260200191505060405180910390f35b6102356106dd565b005b34801561024357600080fd5b50610262600480360381019080803590602001909291905050506108ba565b604051808215151515815260200191505060405180910390f35b34801561028857600080fd5b5061029161095d565b005b34801561029f57600080fd5b506102a8610ab4565b604051808273ffffffffffffffffffffffffffffffffffffffff1673ffffffffffffffffffffffffffffffffffffffff16815260200191505060405180910390f35b3480156102f657600080fd5b506102ff610ada565b6040518082815260200191505060405180910390f35b34801561032157600080fd5b5061032a610ae0565b005b34801561033857600080fd5b50610393600480360381019080803590602001908201803590602001908080601f0160208091040260200160405190810160405280939291908181526020018383808284378201915050505050509192919290505050610cdf565b005b61039d610e0e565b005b3480156103ab57600080fd5b506103b4610f2e565b6040518080602001828103825283818151815260200191508051906020019080838360005b838110156103f45780820151818401526020810190506103d9565b50505050905090810190601f1680156104215780820380516001836020036101000a031916815260200191505b509250505060405180910390f35b34801561043b57600080fd5b50610444610fcc565b005b34801561045257600080fd5b5061045b6110c2565b6040518082600281111561046b57fe5b60ff16815260200191505060405180910390f35b34801561048b57600080fd5b506104e6600480360381019080803590602001908201803590602001908080601f01602080910402602001604051908101604052809392919081815260200183838082843782019150505050505091929192905050506110d5565b005b3480156104f457600080fd5b506104fd611205565b6040518082600281111561050d57fe5b60ff16815260200191505060405180910390f35b34801561052d57600080fd5b50610536611218565b6040518082815260200191505060405180910390f35b34801561055857600080fd5b5061056161121e565b6040518082815260200191505060405180910390f35b60028054600181600116156101000203166002900480601f01602080910402602001604051908101604052809291908181526020018280546001816001161561010002031660029004801561060d5780601f106105e25761010080835404028352916020019161060d565b820191906000526020600020905b8154815290600101906020018083116105f057829003601f168201915b505050505081565b6000809054906101000a900473ffffffffffffffffffffffffffffffffffffffff1681565b60006001600860009054906101000a900460ff16600281111561065957fe5b81600281111561066557fe5b14151561067157600080fd5b6000809054906101000a900473ffffffffffffffffffffffffffffffffffffffff1673ffffffffffffffffffffffffffffffffffffffff163373ffffffffffffffffffffffffffffffffffffffff161415156106cc57600080fd5b6106d583611224565b915050919050565b6000600860009054906101000a900460ff1660028111156106fa57fe5b81600281111561070657fe5b14151561071257600080fd5b60045434101561072157600080fd5b33600160006101000a81548173ffffffffffffffffffffffffffffffffffffffff021916908373ffffffffffffffffffffffffffffffffffffffff1602179055506001600860006101000a81548160ff0219169083600281111561078157fe5b02179055507f385d85909904c479680cfb49104dd25dd686a79a13b842e5ab5f1fab8fa0fb2a600160009054906101000a900473ffffffffffffffffffffffffffffffffffffffff16604051808273ffffffffffffffffffffffffffffffffffffffff1673ffffffffffffffffffffffffffffffffffffffff16815260200191505060405180910390a160003073ffffffffffffffffffffffffffffffffffffffff1631141561087c576002600860006101000a81548160ff0219169083600281111561084a57fe5b02179055507fb3927eeb902aeb8cad05167b0e03a7cc876d56b1a6f31003747f8d195dab5e1960405160405180910390a15b6000600281111561088957fe5b600560009054906101000a900460ff1660028111156108a457fe5b1415156108b75760065442016007819055505b50565b60006001600860009054906101000a900460ff1660028111156108d957fe5b8160028111156108e557fe5b1415156108f157600080fd5b6000809054906101000a900473ffffffffffffffffffffffffffffffffffffffff1673ffffffffffffffffffffffffffffffffffffffff163373ffffffffffffffffffffffffffffffffffffffff1614151561094c57600080fd5b6109558361136e565b915050919050565b6000809054906101000a900473ffffffffffffffffffffffffffffffffffffffff1673ffffffffffffffffffffffffffffffffffffffff163373ffffffffffffffffffffffffffffffffffffffff1614158015610a085750600160009054906101000a900473ffffffffffffffffffffffffffffffffffffffff1673ffffffffffffffffffffffffffffffffffffffff163373ffffffffffffffffffffffffffffffffffffffff1614155b15610a1257600080fd5b6001600860009054906101000a900460ff166002811115610a2f57fe5b816002811115610a3b57fe5b141515610a4757600080fd5b60006002811115610a5457fe5b600560009054906101000a900460ff166002811115610a6f57fe5b1415610a7a57600080fd5b7fbf4aaf86a66fe4360f58a0c5db181f702658bd2d75fa86cb7da62417db0b1aeb60405160405180910390a1600654420160078190555050565b600160009054906101000a900473ffffffffffffffffffffffffffffffffffffffff1681565b60065481565b6000809054906101000a900473ffffffffffffffffffffffffffffffffffffffff1673ffffffffffffffffffffffffffffffffffffffff163373ffffffffffffffffffffffffffffffffffffffff1614158015610b8b5750600160009054906101000a900473ffffffffffffffffffffffffffffffffffffffff1673ffffffffffffffffffffffffffffffffffffffff163373ffffffffffffffffffffffffffffffffffffffff1614155b15610b9557600080fd5b6001600860009054906101000a900460ff166002811115610bb257fe5b816002811115610bbe57fe5b141515610bca57600080fd5b60006002811115610bd757fe5b600560009054906101000a900460ff166002811115610bf257fe5b1415610bfd57600080fd5b600754421015610c0c57600080fd5b7fc23de9628df4b204a0f8de48c685c23e1e8d89d4c940e482158caa45124b9c4660405160405180910390a1600280811115610c4457fe5b600560009054906101000a900460ff166002811115610c5f57fe5b1415610c8b57610c853073ffffffffffffffffffffffffffffffffffffffff163161136e565b50610cdc565b60016002811115610c9857fe5b600560009054906101000a900460ff166002811115610cb357fe5b1415610cdb57610cd93073ffffffffffffffffffffffffffffffffffffffff1631611224565b505b5b50565b6000809054906101000a900473ffffffffffffffffffffffffffffffffffffffff1673ffffffffffffffffffffffffffffffffffffffff163373ffffffffffffffffffffffffffffffffffffffff16141515610d3a57600080fd5b8060029080519060200190610d50929190611497565b507fdc91ea68d03b0572213a54d6505b782a13653e806090b342af10ba023fe5437f60026040518080602001828103825283818154600181600116156101000203166002900481526020019150805460018160011615610100020316600290048015610dfd5780601f10610dd257610100808354040283529160200191610dfd565b820191906000526020600020905b815481529060010190602001808311610de057829003601f168201915b50509250505060405180910390a150565b6000809054906101000a900473ffffffffffffffffffffffffffffffffffffffff1673ffffffffffffffffffffffffffffffffffffffff163373ffffffffffffffffffffffffffffffffffffffff16141515610e6957600080fd5b6000341415610e7757600080fd5b7fd30fc8a1b5907be76206421a3040262f1f6aed0d418c05312ef5ff8de0c9ae4c346040518082815260200191505060405180910390a1600280811115610eba57fe5b600860009054906101000a900460ff166002811115610ed557fe5b1415610f2c576001600860006101000a81548160ff02191690836002811115610efa57fe5b02179055507fc72486d2cbd21793af2e783cfbec8fa23574ac76994847abdd0ef5f07e899a9560405160405180910390a15b565b60038054600181600116156101000203166002900480601f016020809104026020016040519081016040528092919081815260200182805460018160011615610100020316600290048015610fc45780601f10610f9957610100808354040283529160200191610fc4565b820191906000526020600020905b815481529060010190602001808311610fa757829003601f168201915b505050505081565b6000809054906101000a900473ffffffffffffffffffffffffffffffffffffffff1673ffffffffffffffffffffffffffffffffffffffff163373ffffffffffffffffffffffffffffffffffffffff1614151561102757600080fd5b6000600860009054906101000a900460ff16600281111561104457fe5b81600281111561105057fe5b14151561105c57600080fd5b7f8bc5aab0b8d1d51bcc031c58eb657027aac7eaa971cc1038d29846400ca22fc560405160405180910390a16000809054906101000a900473ffffffffffffffffffffffffffffffffffffffff1673ffffffffffffffffffffffffffffffffffffffff16ff5b600860009054906101000a900460ff1681565b600160009054906101000a900473ffffffffffffffffffffffffffffffffffffffff1673ffffffffffffffffffffffffffffffffffffffff163373ffffffffffffffffffffffffffffffffffffffff1614151561113157600080fd5b8060039080519060200190611147929190611497565b507fe5113280d1468809ce30542fd53d4a93070097c06690906f55f0ff2a52fa5803600360405180806020018281038252838181546001816001161561010002031660029004815260200191508054600181600116156101000203166002900480156111f45780601f106111c9576101008083540402835291602001916111f4565b820191906000526020600020905b8154815290600101906020018083116111d757829003601f168201915b50509250505060405180910390a150565b600560009054906101000a900460ff1681565b60075481565b60045481565b6000806001600860009054906101000a900460ff16600281111561124457fe5b81600281111561125057fe5b14151561125c57600080fd5b600160009054906101000a900473ffffffffffffffffffffffffffffffffffffffff1673ffffffffffffffffffffffffffffffffffffffff166108fc859081150290604051600060405180830381858888f19350505050915081156112f3577f952b264c8e0a06cddb4bbaa6d6af1d565145329fd95bbe72cb2b53942b2dc966846040518082815260200191505060405180910390a15b60003073ffffffffffffffffffffffffffffffffffffffff16311415611364576002600860006101000a81548160ff0219169083600281111561133257fe5b02179055507fb3927eeb902aeb8cad05167b0e03a7cc876d56b1a6f31003747f8d195dab5e1960405160405180910390a15b8192505050919050565b6000806001600860009054906101000a900460ff16600281111561138e57fe5b81600281111561139a57fe5b1415156113a657600080fd5b600073ffffffffffffffffffffffffffffffffffffffff166108fc859081150290604051600060405180830381858888f193505050509150811561141c577fe2a0d56d128408deff6c63b30ce69c78024280bc67a251ee2bb096dc08ff1c1e846040518082815260200191505060405180910390a15b60003073ffffffffffffffffffffffffffffffffffffffff1631141561148d576002600860006101000a81548160ff0219169083600281111561145b57fe5b02179055507fb3927eeb902aeb8cad05167b0e03a7cc876d56b1a6f31003747f8d195dab5e1960405160405180910390a15b8192505050919050565b828054600181600116156101000203166002900490600052602060002090601f016020900481019282601f106114d857805160ff1916838001178555611506565b82800160010185558215611506579182015b828111156115055782518255916020019190600101906114ea565b5b5090506115139190611517565b5090565b61153991905b8082111561153557600081600090555060010161151d565b5090565b905600a165627a7a72305820d3abec986df38a15b45dc9334eb9543599cf25faf0d18ba5867b95a725a9cc5b0029",
  "source": "\n\n\n\n\n\n\n\n\n\n\n\n\n\n\n\ncontract BurnableOpenPayment {\n    address public payer;\n    address public recipient;\n    address constant burnAddress = 0x0;\n    \n    string public payerString;\n    string public recipientString;\n    \n    uint public commitThreshold;\n    \n    enum DefaultAction {None, Release, Burn}\n    DefaultAction public defaultAction;\n    uint public defaultTimeoutLength;\n    uint public defaultTriggerTime;\n    \n    enum State {Open, Committed, Expended}\n    State public state;\n    \n    modifier inState(State s) { if (s != state) throw; _; }\n    modifier onlyPayer() { if (msg.sender != payer) throw; _; }\n    modifier onlyRecipient() { if (msg.sender != recipient) throw; _; }\n    modifier onlyPayerOrRecipient() { if ((msg.sender != payer) && (msg.sender != recipient)) throw; _; }\n    \n    event FundsAdded(uint amount);\n    event PayerStringUpdated(string newPayerString);\n    event RecipientStringUpdated(string newRecipientString);\n    event FundsRecovered();\n    event Committed(address recipient);\n    event FundsBurned(uint amount);\n    event FundsReleased(uint amount);\n    event Expended();\n    event Unexpended();\n    event DefaultActionDelayed();\n    event DefaultActionCalled();\n    \n    function BurnableOpenPayment(address _payer, string _payerString, uint _commitThreshold, DefaultAction _defaultAction, uint _defaultTimeoutLength)\n    public\n    payable {\n        state = State.Open;\n        payer = _payer;\n        payerString = _payerString;\n        PayerStringUpdated(payerString);\n        commitThreshold = _commitThreshold;\n        defaultAction = _defaultAction;\n        defaultTimeoutLength = _defaultTimeoutLength;\n    }\n    \n    function addFunds()\n    public\n    onlyPayer()\n    payable {\n        if (msg.value == 0) throw;\n        FundsAdded(msg.value);\n        if (state == State.Expended) {\n            state = State.Committed;\n            Unexpended();\n        }\n    }\n    \n    function recoverFunds()\n    public\n    onlyPayer()\n    inState(State.Open)\n    {\n        FundsRecovered();\n        selfdestruct(payer);\n    }\n    \n    function commit()\n    public\n    inState(State.Open)\n    payable\n    {\n        if (msg.value < commitThreshold) throw;\n        recipient = msg.sender;\n        state = State.Committed;\n        Committed(recipient);\n        \n        if (this.balance == 0) {\n            state = State.Expended;\n            Expended();\n        }\n        \n        if (defaultAction != DefaultAction.None) {\n            defaultTriggerTime = now + defaultTimeoutLength;\n        }\n    }\n    \n    function internalBurn(uint amount)\n    private\n    inState(State.Committed)\n    returns (bool)\n    {\n        bool success = burnAddress.send(amount);\n        if (success) {\n            FundsBurned(amount);\n        }\n        if (this.balance == 0) {\n            state = State.Expended;\n            Expended();\n        }\n        return success;\n    }\n    \n    function burn(uint amount)\n    public\n    inState(State.Committed)\n    onlyPayer()\n    returns (bool)\n    {\n        return internalBurn(amount);\n    }\n    \n    function internalRelease(uint amount)\n    private\n    inState(State.Committed)\n    returns (bool)\n    {\n        bool success = recipient.send(amount);\n        if (success) {\n            FundsReleased(amount);\n        }\n        if (this.balance == 0) {\n            state = State.Expended;\n            Expended();\n        }\n        return success;\n    }\n    \n    function release(uint amount)\n    public\n    inState(State.Committed)\n    onlyPayer()\n    returns (bool)\n    {\n        return internalRelease(amount);\n    }\n    \n    function setPayerString(string _string)\n    public\n    onlyPayer()\n    {\n        payerString = _string;\n        PayerStringUpdated(payerString);\n    }\n    \n    function setRecipientString(string _string)\n    public\n    onlyRecipient()\n    {\n        recipientString = _string;\n        RecipientStringUpdated(recipientString);\n    }\n    \n    function delayDefaultAction()\n    public\n    onlyPayerOrRecipient()\n    inState(State.Committed)\n    {\n        if (defaultAction == DefaultAction.None) throw;\n        \n        DefaultActionDelayed();\n        defaultTriggerTime = now + defaultTimeoutLength;\n    }\n    \n    function callDefaultAction()\n    public\n    onlyPayerOrRecipient()\n    inState(State.Committed)\n    {\n        if (defaultAction == DefaultAction.None) throw;\n        if (now < defaultTriggerTime) throw;\n        \n        DefaultActionCalled();\n        if (defaultAction == DefaultAction.Burn) {\n            internalBurn(this.balance);\n        }\n        else if (defaultAction == DefaultAction.Release) {\n            internalRelease(this.balance);\n        }\n    }\n}\n\ncontract BurnableOpenPaymentFactory {\n    event NewBOP(address newBOPAddress);\n    \n    function newBurnableOpenPayment(address payer, string payerString, uint commitThreshold, BurnableOpenPayment.DefaultAction defaultAction, uint defaultTimeoutLength)\n    public\n    payable\n    returns (address) {\n        \n        address newBOPAddr = (new BurnableOpenPayment).value(msg.value)(payer, payerString, commitThreshold, defaultAction, defaultTimeoutLength);\n        NewBOP(newBOPAddr);\n        return newBOPAddr;\n    }\n}",
  "sourcePath": "/home/XXX-1/smartrim-experiment/for-rlf/0x1442a8fd038e0253ab07fd0e6aa70413d961f315/contracts/0x1442a8fd038e0253ab07fd0e6aa70413d961f315.sol",
  "compiler": {
    "name": "solc",
    "version": "0.4.25+commit.59dbf8f1.Emscripten.clang"
  },
  "schemaVersion": "3.4.16",
  "updatedAt": "2025-08-14T03:47:47.649Z",
  "devdoc": {
    "methods": {}
  },
  "userdoc": {
    "methods": {}
  }
}