{
  "contractName": "CAPS",
  "abi": [
    {
      "constant": true,
      "inputs": [],
      "name": "owner",
      "outputs": [
        {
          "name": "",
          "type": "address"
        }
      ],
      "payable": false,
      "stateMutability": "view",
      "type": "function"
    },
    {
      "constant": false,
      "inputs": [],
      "name": "owned",
      "outputs": [],
      "payable": false,
      "stateMutability": "nonpayable",
      "type": "function"
    },
    {
      "constant": false,
      "inputs": [
        {
          "name": "newOwner",
          "type": "address"
        }
      ],
      "name": "transferOwnership",
      "outputs": [],
      "payable": false,
      "stateMutability": "nonpayable",
      "type": "function"
    }
  ],
  "bytecode": "0x608060405234801561001057600080fd5b5061023e806100206000396000f300608060405260043610610057576000357c0100000000000000000000000000000000000000000000000000000000900463ffffffff1680638da5cb5b1461005c578063df32754b146100b3578063f2fde38b146100ca575b600080fd5b34801561006857600080fd5b5061007161010d565b604051808273ffffffffffffffffffffffffffffffffffffffff1673ffffffffffffffffffffffffffffffffffffffff16815260200191505060405180910390f35b3480156100bf57600080fd5b506100c8610132565b005b3480156100d657600080fd5b5061010b600480360381019080803573ffffffffffffffffffffffffffffffffffffffff169060200190929190505050610174565b005b6000809054906101000a900473ffffffffffffffffffffffffffffffffffffffff1681565b336000806101000a81548173ffffffffffffffffffffffffffffffffffffffff021916908373ffffffffffffffffffffffffffffffffffffffff160217905550565b6000809054906101000a900473ffffffffffffffffffffffffffffffffffffffff1673ffffffffffffffffffffffffffffffffffffffff163373ffffffffffffffffffffffffffffffffffffffff161415156101cf57600080fd5b806000806101000a81548173ffffffffffffffffffffffffffffffffffffffff021916908373ffffffffffffffffffffffffffffffffffffffff160217905550505600a165627a7a72305820543d01d7deddf5d6e0789046909920c3a7aa108cf1b760a99e0d593409eca9030029",
  "source": "\n\ncontract CAPS {\n    address public owner;\n\n    function owned() public {\n        owner = msg.sender;\n    }\n\n    modifier onlyOwner {\n        require(msg.sender == owner);\n        _;\n    }\n\n    function transferOwnership(address newOwner) onlyOwner public {\n        owner = newOwner;\n    }\n}\n\ninterface tokenRecipient { function receiveApproval(address _from, uint256 _value, address _token, bytes _extraData) public; }\n\ncontract CCXTokenERC20 {\n    string public constant _myTokeName = 'DigiStakes';\n    string public constant _mySymbol = 'DIGI';\n    uint public constant _myinitialSupply = 200000000000000;\n    uint8 public constant _myDecimal = 2;\n    \n    string public name;\n    string public symbol;\n    uint8 public decimals;\n    \n    uint256 public totalSupply;\n\n    \n    mapping (address => uint256) public balanceOf;\n    mapping (address => mapping (address => uint256)) public allowance;\n\n    \n    event Transfer(address indexed from, address indexed to, uint256 value);\n\n    \n    event Burn(address indexed from, uint256 value);\n\n    \n    function CCXTokenERC20(\n        uint256 initialSupply,\n        string tokenName,\n        string tokenSymbol\n    ) public {\n        decimals = _myDecimal;\n        totalSupply = _myinitialSupply * (10 ** uint256(_myDecimal));  \n        balanceOf[msg.sender] = totalSupply;                \n        name = _myTokeName;                                   \n        symbol = _mySymbol;                               \n    }\n\n    \n    function _transfer(address _from, address _to, uint _value) internal {\n        \n        require(_to != 0x0);\n        \n        require(balanceOf[_from] >= _value);\n        \n        require(balanceOf[_to] + _value > balanceOf[_to]);\n        \n        uint previousBalances = balanceOf[_from] + balanceOf[_to];\n        \n        balanceOf[_from] -= _value;\n        \n        balanceOf[_to] += _value;\n        Transfer(_from, _to, _value);\n        \n        assert(balanceOf[_from] + balanceOf[_to] == previousBalances);\n    }\n\n    \n    function transfer(address _to, uint256 _value) public {\n        _transfer(msg.sender, _to, _value);\n    }\n\n    \n    function transferFrom(address _from, address _to, uint256 _value) public returns (bool success) {\n        require(_value <= allowance[_from][msg.sender]);     \n        allowance[_from][msg.sender] -= _value;\n        _transfer(_from, _to, _value);\n        return true;\n    }\n\n    \n    function approve(address _spender, uint256 _value) public\n        returns (bool success) {\n        allowance[msg.sender][_spender] = _value;\n        return true;\n    }\n\n    \n    function approveAndCall(address _spender, uint256 _value, bytes _extraData)\n        public\n        returns (bool success) {\n        tokenRecipient spender = tokenRecipient(_spender);\n        if (approve(_spender, _value)) {\n            spender.receiveApproval(msg.sender, _value, this, _extraData);\n            return true;\n        }\n    }\n\n    \n    function burn(uint256 _value) public returns (bool success) {\n        require(balanceOf[msg.sender] >= _value);   \n        balanceOf[msg.sender] -= _value;            \n        totalSupply -= _value;                      \n        Burn(msg.sender, _value);\n        return true;\n    }\n\n    \n    function burnFrom(address _from, uint256 _value) public returns (bool success) {\n        require(balanceOf[_from] >= _value);                \n        require(_value <= allowance[_from][msg.sender]);    \n        balanceOf[_from] -= _value;                         \n        allowance[_from][msg.sender] -= _value;             \n        totalSupply -= _value;                              \n        Burn(_from, _value);\n        return true;\n    }\n}\n\n\n\n\n\ncontract MyAdvancedToken is CAPS, CCXTokenERC20 {\n\n\n\n    uint256 public sellPrice;\n    uint256 public buyPrice;\n\n    mapping (address => bool) public frozenAccount;\n\n    \n    event FrozenFunds(address target, bool frozen);\n\n    \n    function MyAdvancedToken(\n        uint256 initialSupply,\n        string tokenName,\n        string tokenSymbol\n    ) CCXTokenERC20(initialSupply, tokenName, tokenSymbol) public {}\n\n    \n    function _transfer(address _from, address _to, uint _value) internal {\n        require (_to != 0x0);                               \n        require (balanceOf[_from] >= _value);               \n        require (balanceOf[_to] + _value > balanceOf[_to]); \n        require(!frozenAccount[_from]);                     \n        require(!frozenAccount[_to]);                       \n        balanceOf[_from] -= _value;                         \n        balanceOf[_to] += _value;                           \n        Transfer(_from, _to, _value);\n    }\n\n    \n    \n    \n    function mintToken(address target, uint256 mintedAmount) onlyOwner public {\n        balanceOf[target] += mintedAmount;\n        totalSupply += mintedAmount;\n        Transfer(0, this, mintedAmount);\n        Transfer(this, target, mintedAmount);\n    }\n\n    \n    \n    \n    function freezeAccount(address target, bool freeze) onlyOwner public {\n        frozenAccount[target] = freeze;\n        FrozenFunds(target, freeze);\n    }\n\n    \n    \n    \n    function setPrices(uint256 newSellPrice, uint256 newBuyPrice) onlyOwner public {\n        sellPrice = newSellPrice;\n        buyPrice = newBuyPrice;\n    }\n\n    \n    function buy() payable public {\n        uint amount = msg.value / buyPrice;               \n        _transfer(this, msg.sender, amount);              \n    }\n\n    \n    \n    function sell(uint256 amount) public {\n        require(this.balance >= amount * sellPrice);      \n        _transfer(msg.sender, this, amount);              \n        msg.sender.transfer(amount * sellPrice);          \n    }\n}",
  "sourcePath": "/home/XXX-1/smartrim-experiment/for-rlf/0x818b121e5c6435e1d3a7533c466804b817a18cd2/contracts/0x818b121e5c6435e1d3a7533c466804b817a18cd2.sol",
  "compiler": {
    "name": "solc",
    "version": "0.4.25+commit.59dbf8f1.Emscripten.clang"
  },
  "schemaVersion": "3.4.16",
  "updatedAt": "2025-08-14T03:58:59.536Z",
  "networkType": "ethereum",
  "devdoc": {
    "methods": {}
  },
  "userdoc": {
    "methods": {}
  }
}