{
  "contractName": "MyAdvancedToken",
  "abi": [
    {
      "constant": true,
      "inputs": [],
      "name": "name",
      "outputs": [
        {
          "name": "",
          "type": "string"
        }
      ],
      "payable": false,
      "stateMutability": "view",
      "type": "function"
    },
    {
      "constant": false,
      "inputs": [
        {
          "name": "_spender",
          "type": "address"
        },
        {
          "name": "_value",
          "type": "uint256"
        }
      ],
      "name": "approve",
      "outputs": [
        {
          "name": "success",
          "type": "bool"
        }
      ],
      "payable": false,
      "stateMutability": "nonpayable",
      "type": "function"
    },
    {
      "constant": true,
      "inputs": [],
      "name": "totalSupply",
      "outputs": [
        {
          "name": "",
          "type": "uint256"
        }
      ],
      "payable": false,
      "stateMutability": "view",
      "type": "function"
    },
    {
      "constant": false,
      "inputs": [
        {
          "name": "_from",
          "type": "address"
        },
        {
          "name": "_to",
          "type": "address"
        },
        {
          "name": "_value",
          "type": "uint256"
        }
      ],
      "name": "transferFrom",
      "outputs": [
        {
          "name": "success",
          "type": "bool"
        }
      ],
      "payable": false,
      "stateMutability": "nonpayable",
      "type": "function"
    },
    {
      "constant": true,
      "inputs": [],
      "name": "decimals",
      "outputs": [
        {
          "name": "",
          "type": "uint8"
        }
      ],
      "payable": false,
      "stateMutability": "view",
      "type": "function"
    },
    {
      "constant": false,
      "inputs": [
        {
          "name": "_value",
          "type": "uint256"
        }
      ],
      "name": "burn",
      "outputs": [
        {
          "name": "success",
          "type": "bool"
        }
      ],
      "payable": false,
      "stateMutability": "nonpayable",
      "type": "function"
    },
    {
      "constant": true,
      "inputs": [],
      "name": "sellPrice",
      "outputs": [
        {
          "name": "",
          "type": "uint256"
        }
      ],
      "payable": false,
      "stateMutability": "view",
      "type": "function"
    },
    {
      "constant": true,
      "inputs": [],
      "name": "_myDecimal",
      "outputs": [
        {
          "name": "",
          "type": "uint8"
        }
      ],
      "payable": false,
      "stateMutability": "view",
      "type": "function"
    },
    {
      "constant": true,
      "inputs": [
        {
          "name": "",
          "type": "address"
        }
      ],
      "name": "balanceOf",
      "outputs": [
        {
          "name": "",
          "type": "uint256"
        }
      ],
      "payable": false,
      "stateMutability": "view",
      "type": "function"
    },
    {
      "constant": false,
      "inputs": [
        {
          "name": "_from",
          "type": "address"
        },
        {
          "name": "_value",
          "type": "uint256"
        }
      ],
      "name": "burnFrom",
      "outputs": [
        {
          "name": "success",
          "type": "bool"
        }
      ],
      "payable": false,
      "stateMutability": "nonpayable",
      "type": "function"
    },
    {
      "constant": true,
      "inputs": [],
      "name": "buyPrice",
      "outputs": [
        {
          "name": "",
          "type": "uint256"
        }
      ],
      "payable": false,
      "stateMutability": "view",
      "type": "function"
    },
    {
      "constant": true,
      "inputs": [],
      "name": "_myTokeName",
      "outputs": [
        {
          "name": "",
          "type": "string"
        }
      ],
      "payable": false,
      "stateMutability": "view",
      "type": "function"
    },
    {
      "constant": true,
      "inputs": [],
      "name": "owner",
      "outputs": [
        {
          "name": "",
          "type": "address"
        }
      ],
      "payable": false,
      "stateMutability": "view",
      "type": "function"
    },
    {
      "constant": true,
      "inputs": [],
      "name": "symbol",
      "outputs": [
        {
          "name": "",
          "type": "string"
        }
      ],
      "payable": false,
      "stateMutability": "view",
      "type": "function"
    },
    {
      "constant": false,
      "inputs": [
        {
          "name": "_to",
          "type": "address"
        },
        {
          "name": "_value",
          "type": "uint256"
        }
      ],
      "name": "transfer",
      "outputs": [],
      "payable": false,
      "stateMutability": "nonpayable",
      "type": "function"
    },
    {
      "constant": true,
      "inputs": [
        {
          "name": "",
          "type": "address"
        }
      ],
      "name": "frozenAccount",
      "outputs": [
        {
          "name": "",
          "type": "bool"
        }
      ],
      "payable": false,
      "stateMutability": "view",
      "type": "function"
    },
    {
      "constant": true,
      "inputs": [],
      "name": "_mySymbol",
      "outputs": [
        {
          "name": "",
          "type": "string"
        }
      ],
      "payable": false,
      "stateMutability": "view",
      "type": "function"
    },
    {
      "constant": false,
      "inputs": [
        {
          "name": "_spender",
          "type": "address"
        },
        {
          "name": "_value",
          "type": "uint256"
        },
        {
          "name": "_extraData",
          "type": "bytes"
        }
      ],
      "name": "approveAndCall",
      "outputs": [
        {
          "name": "success",
          "type": "bool"
        }
      ],
      "payable": false,
      "stateMutability": "nonpayable",
      "type": "function"
    },
    {
      "constant": true,
      "inputs": [],
      "name": "_myinitialSupply",
      "outputs": [
        {
          "name": "",
          "type": "uint256"
        }
      ],
      "payable": false,
      "stateMutability": "view",
      "type": "function"
    },
    {
      "constant": true,
      "inputs": [
        {
          "name": "",
          "type": "address"
        },
        {
          "name": "",
          "type": "address"
        }
      ],
      "name": "allowance",
      "outputs": [
        {
          "name": "",
          "type": "uint256"
        }
      ],
      "payable": false,
      "stateMutability": "view",
      "type": "function"
    },
    {
      "constant": false,
      "inputs": [],
      "name": "owned",
      "outputs": [],
      "payable": false,
      "stateMutability": "nonpayable",
      "type": "function"
    },
    {
      "constant": false,
      "inputs": [
        {
          "name": "newOwner",
          "type": "address"
        }
      ],
      "name": "transferOwnership",
      "outputs": [],
      "payable": false,
      "stateMutability": "nonpayable",
      "type": "function"
    },
    {
      "inputs": [
        {
          "name": "initialSupply",
          "type": "uint256"
        },
        {
          "name": "tokenName",
          "type": "string"
        },
        {
          "name": "tokenSymbol",
          "type": "string"
        }
      ],
      "payable": false,
      "stateMutability": "nonpayable",
      "type": "constructor"
    },
    {
      "anonymous": false,
      "inputs": [
        {
          "indexed": false,
          "name": "target",
          "type": "address"
        },
        {
          "indexed": false,
          "name": "frozen",
          "type": "bool"
        }
      ],
      "name": "FrozenFunds",
      "type": "event"
    },
    {
      "anonymous": false,
      "inputs": [
        {
          "indexed": true,
          "name": "from",
          "type": "address"
        },
        {
          "indexed": true,
          "name": "to",
          "type": "address"
        },
        {
          "indexed": false,
          "name": "value",
          "type": "uint256"
        }
      ],
      "name": "Transfer",
      "type": "event"
    },
    {
      "anonymous": false,
      "inputs": [
        {
          "indexed": true,
          "name": "from",
          "type": "address"
        },
        {
          "indexed": false,
          "name": "value",
          "type": "uint256"
        }
      ],
      "name": "Burn",
      "type": "event"
    },
    {
      "constant": false,
      "inputs": [
        {
          "name": "target",
          "type": "address"
        },
        {
          "name": "mintedAmount",
          "type": "uint256"
        }
      ],
      "name": "mintToken",
      "outputs": [],
      "payable": false,
      "stateMutability": "nonpayable",
      "type": "function"
    },
    {
      "constant": false,
      "inputs": [
        {
          "name": "target",
          "type": "address"
        },
        {
          "name": "freeze",
          "type": "bool"
        }
      ],
      "name": "freezeAccount",
      "outputs": [],
      "payable": false,
      "stateMutability": "nonpayable",
      "type": "function"
    },
    {
      "constant": false,
      "inputs": [
        {
          "name": "newSellPrice",
          "type": "uint256"
        },
        {
          "name": "newBuyPrice",
          "type": "uint256"
        }
      ],
      "name": "setPrices",
      "outputs": [],
      "payable": false,
      "stateMutability": "nonpayable",
      "type": "function"
    },
    {
      "constant": false,
      "inputs": [],
      "name": "buy",
      "outputs": [],
      "payable": true,
      "stateMutability": "payable",
      "type": "function"
    },
    {
      "constant": false,
      "inputs": [
        {
          "name": "amount",
          "type": "uint256"
        }
      ],
      "name": "sell",
      "outputs": [],
      "payable": false,
      "stateMutability": "nonpayable",
      "type": "function"
    }
  ],
  "bytecode": "0x60806040523480156200001157600080fd5b5060405162001c8638038062001c868339810180604052810190808051906020019092919080518201929190602001805182019291905050508282826002600360006101000a81548160ff021916908360ff160217905550600260ff16600a0a65b5e620f4800002600481905550600454600560003373ffffffffffffffffffffffffffffffffffffffff1673ffffffffffffffffffffffffffffffffffffffff168152602001908152602001600020819055506040805190810160405280600a81526020017f446967695374616b65730000000000000000000000000000000000000000000081525060019080519060200190620001129291906200016d565b506040805190810160405280600481526020017f444947490000000000000000000000000000000000000000000000000000000081525060029080519060200190620001609291906200016d565b505050505050506200021c565b828054600181600116156101000203166002900490600052602060002090601f016020900481019282601f10620001b057805160ff1916838001178555620001e1565b82800160010185558215620001e1579182015b82811115620001e0578251825591602001919060010190620001c3565b5b509050620001f09190620001f4565b5090565b6200021991905b8082111562000215576000816000905550600101620001fb565b5090565b90565b611a5a806200022c6000396000f30060806040526004361061015f576000357c0100000000000000000000000000000000000000000000000000000000900463ffffffff16806305fefda71461016457806306fdde031461019b578063095ea7b31461022b57806318160ddd1461029057806323b872dd146102bb578063313ce5671461034057806342966c68146103715780634b750334146103b657806365ce47fb146103e157806370a082311461041257806379c650681461046957806379cc6790146104b65780638620410b1461051b5780638a3db05f146105465780638da5cb5b146105d657806395d89b411461062d578063a6f2ae3a146106bd578063a9059cbb146106c7578063b414d4b614610714578063bc77b9191461076f578063cae9ca51146107ff578063dc9c6e15146108aa578063dd62ed3e146108d5578063df32754b1461094c578063e4849b3214610963578063e724529c14610990578063f2fde38b146109df575b600080fd5b34801561017057600080fd5b506101996004803603810190808035906020019092919080359060200190929190505050610a22565b005b3480156101a757600080fd5b506101b0610a8f565b6040518080602001828103825283818151815260200191508051906020019080838360005b838110156101f05780820151818401526020810190506101d5565b50505050905090810190601f16801561021d5780820380516001836020036101000a031916815260200191505b509250505060405180910390f35b34801561023757600080fd5b50610276600480360381019080803573ffffffffffffffffffffffffffffffffffffffff16906020019092919080359060200190929190505050610b2d565b604051808215151515815260200191505060405180910390f35b34801561029c57600080fd5b506102a5610bba565b6040518082815260200191505060405180910390f35b3480156102c757600080fd5b50610326600480360381019080803573ffffffffffffffffffffffffffffffffffffffff169060200190929190803573ffffffffffffffffffffffffffffffffffffffff16906020019092919080359060200190929190505050610bc0565b604051808215151515815260200191505060405180910390f35b34801561034c57600080fd5b50610355610ced565b604051808260ff1660ff16815260200191505060405180910390f35b34801561037d57600080fd5b5061039c60048036038101908080359060200190929190505050610d00565b604051808215151515815260200191505060405180910390f35b3480156103c257600080fd5b506103cb610e04565b6040518082815260200191505060405180910390f35b3480156103ed57600080fd5b506103f6610e0a565b604051808260ff1660ff16815260200191505060405180910390f35b34801561041e57600080fd5b50610453600480360381019080803573ffffffffffffffffffffffffffffffffffffffff169060200190929190505050610e0f565b6040518082815260200191505060405180910390f35b34801561047557600080fd5b506104b4600480360381019080803573ffffffffffffffffffffffffffffffffffffffff16906020019092919080359060200190929190505050610e27565b005b3480156104c257600080fd5b50610501600480360381019080803573ffffffffffffffffffffffffffffffffffffffff16906020019092919080359060200190929190505050610f98565b604051808215151515815260200191505060405180910390f35b34801561052757600080fd5b506105306111b2565b6040518082815260200191505060405180910390f35b34801561055257600080fd5b5061055b6111b8565b6040518080602001828103825283818151815260200191508051906020019080838360005b8381101561059b578082015181840152602081019050610580565b50505050905090810190601f1680156105c85780820380516001836020036101000a031916815260200191505b509250505060405180910390f35b3480156105e257600080fd5b506105eb6111f1565b604051808273ffffffffffffffffffffffffffffffffffffffff1673ffffffffffffffffffffffffffffffffffffffff16815260200191505060405180910390f35b34801561063957600080fd5b50610642611216565b6040518080602001828103825283818151815260200191508051906020019080838360005b83811015610682578082015181840152602081019050610667565b50505050905090810190601f1680156106af5780820380516001836020036101000a031916815260200191505b509250505060405180910390f35b6106c56112b4565b005b3480156106d357600080fd5b50610712600480360381019080803573ffffffffffffffffffffffffffffffffffffffff169060200190929190803590602001909291905050506112d4565b005b34801561072057600080fd5b50610755600480360381019080803573ffffffffffffffffffffffffffffffffffffffff1690602001909291905050506112e3565b604051808215151515815260200191505060405180910390f35b34801561077b57600080fd5b50610784611303565b6040518080602001828103825283818151815260200191508051906020019080838360005b838110156107c45780820151818401526020810190506107a9565b50505050905090810190601f1680156107f15780820380516001836020036101000a031916815260200191505b509250505060405180910390f35b34801561080b57600080fd5b50610890600480360381019080803573ffffffffffffffffffffffffffffffffffffffff16906020019092919080359060200190929190803590602001908201803590602001908080601f016020809104026020016040519081016040528093929190818152602001838380828437820191505050505050919291929050505061133c565b604051808215151515815260200191505060405180910390f35b3480156108b657600080fd5b506108bf6114bf565b6040518082815260200191505060405180910390f35b3480156108e157600080fd5b50610936600480360381019080803573ffffffffffffffffffffffffffffffffffffffff169060200190929190803573ffffffffffffffffffffffffffffffffffffffff1690602001909291905050506114c9565b6040518082815260200191505060405180910390f35b34801561095857600080fd5b506109616114ee565b005b34801561096f57600080fd5b5061098e60048036038101908080359060200190929190505050611530565b005b34801561099c57600080fd5b506109dd600480360381019080803573ffffffffffffffffffffffffffffffffffffffff1690602001909291908035151590602001909291905050506115b3565b005b3480156109eb57600080fd5b50610a20600480360381019080803573ffffffffffffffffffffffffffffffffffffffff1690602001909291905050506116d8565b005b6000809054906101000a900473ffffffffffffffffffffffffffffffffffffffff1673ffffffffffffffffffffffffffffffffffffffff163373ffffffffffffffffffffffffffffffffffffffff16141515610a7d57600080fd5b81600781905550806008819055505050565b60018054600181600116156101000203166002900480601f016020809104026020016040519081016040528092919081815260200182805460018160011615610100020316600290048015610b255780601f10610afa57610100808354040283529160200191610b25565b820191906000526020600020905b815481529060010190602001808311610b0857829003601f168201915b505050505081565b600081600660003373ffffffffffffffffffffffffffffffffffffffff1673ffffffffffffffffffffffffffffffffffffffff16815260200190815260200160002060008573ffffffffffffffffffffffffffffffffffffffff1673ffffffffffffffffffffffffffffffffffffffff168152602001908152602001600020819055506001905092915050565b60045481565b6000600660008573ffffffffffffffffffffffffffffffffffffffff1673ffffffffffffffffffffffffffffffffffffffff16815260200190815260200160002060003373ffffffffffffffffffffffffffffffffffffffff1673ffffffffffffffffffffffffffffffffffffffff168152602001908152602001600020548211151515610c4d57600080fd5b81600660008673ffffffffffffffffffffffffffffffffffffffff1673ffffffffffffffffffffffffffffffffffffffff16815260200190815260200160002060003373ffffffffffffffffffffffffffffffffffffffff1673ffffffffffffffffffffffffffffffffffffffff16815260200190815260200160002060008282540392505081905550610ce2848484611776565b600190509392505050565b600360009054906101000a900460ff1681565b600081600560003373ffffffffffffffffffffffffffffffffffffffff1673ffffffffffffffffffffffffffffffffffffffff1681526020019081526020016000205410151515610d5057600080fd5b81600560003373ffffffffffffffffffffffffffffffffffffffff1673ffffffffffffffffffffffffffffffffffffffff16815260200190815260200160002060008282540392505081905550816004600082825403925050819055503373ffffffffffffffffffffffffffffffffffffffff167fcc16f5dbb4873280815c1ee09dbd06736cffcc184412cf7a71a0fdb75d397ca5836040518082815260200191505060405180910390a260019050919050565b60075481565b600281565b60056020528060005260406000206000915090505481565b6000809054906101000a900473ffffffffffffffffffffffffffffffffffffffff1673ffffffffffffffffffffffffffffffffffffffff163373ffffffffffffffffffffffffffffffffffffffff16141515610e8257600080fd5b80600560008473ffffffffffffffffffffffffffffffffffffffff1673ffffffffffffffffffffffffffffffffffffffff16815260200190815260200160002060008282540192505081905550806004600082825401925050819055503073ffffffffffffffffffffffffffffffffffffffff1660007fddf252ad1be2c89b69c2b068fc378daa952ba7f163c4a11628f55a4df523b3ef836040518082815260200191505060405180910390a38173ffffffffffffffffffffffffffffffffffffffff163073ffffffffffffffffffffffffffffffffffffffff167fddf252ad1be2c89b69c2b068fc378daa952ba7f163c4a11628f55a4df523b3ef836040518082815260200191505060405180910390a35050565b600081600560008573ffffffffffffffffffffffffffffffffffffffff1673ffffffffffffffffffffffffffffffffffffffff1681526020019081526020016000205410151515610fe857600080fd5b600660008473ffffffffffffffffffffffffffffffffffffffff1673ffffffffffffffffffffffffffffffffffffffff16815260200190815260200160002060003373ffffffffffffffffffffffffffffffffffffffff1673ffffffffffffffffffffffffffffffffffffffff16815260200190815260200160002054821115151561107357600080fd5b81600560008573ffffffffffffffffffffffffffffffffffffffff1673ffffffffffffffffffffffffffffffffffffffff1681526020019081526020016000206000828254039250508190555081600660008573ffffffffffffffffffffffffffffffffffffffff1673ffffffffffffffffffffffffffffffffffffffff16815260200190815260200160002060003373ffffffffffffffffffffffffffffffffffffffff1673ffffffffffffffffffffffffffffffffffffffff16815260200190815260200160002060008282540392505081905550816004600082825403925050819055508273ffffffffffffffffffffffffffffffffffffffff167fcc16f5dbb4873280815c1ee09dbd06736cffcc184412cf7a71a0fdb75d397ca5836040518082815260200191505060405180910390a26001905092915050565b60085481565b6040805190810160405280600a81526020017f446967695374616b65730000000000000000000000000000000000000000000081525081565b6000809054906101000a900473ffffffffffffffffffffffffffffffffffffffff1681565b60028054600181600116156101000203166002900480601f0160208091040260200160405190810160405280929190818152602001828054600181600116156101000203166002900480156112ac5780601f10611281576101008083540402835291602001916112ac565b820191906000526020600020905b81548152906001019060200180831161128f57829003601f168201915b505050505081565b6000600854348115156112c357fe5b0490506112d1303383611776565b50565b6112df338383611776565b5050565b60096020528060005260406000206000915054906101000a900460ff1681565b6040805190810160405280600481526020017f444947490000000000000000000000000000000000000000000000000000000081525081565b60008084905061134c8585610b2d565b156114b6578073ffffffffffffffffffffffffffffffffffffffff16638f4ffcb1338630876040518563ffffffff167c0100000000000000000000000000000000000000000000000000000000028152600401808573ffffffffffffffffffffffffffffffffffffffff1673ffffffffffffffffffffffffffffffffffffffff1681526020018481526020018373ffffffffffffffffffffffffffffffffffffffff1673ffffffffffffffffffffffffffffffffffffffff16815260200180602001828103825283818151815260200191508051906020019080838360005b8381101561144657808201518184015260208101905061142b565b50505050905090810190601f1680156114735780820380516001836020036101000a031916815260200191505b5095505050505050600060405180830381600087803b15801561149557600080fd5b505af11580156114a9573d6000803e3d6000fd5b50505050600191506114b7565b5b509392505050565b65b5e620f4800081565b6006602052816000526040600020602052806000526040600020600091509150505481565b336000806101000a81548173ffffffffffffffffffffffffffffffffffffffff021916908373ffffffffffffffffffffffffffffffffffffffff160217905550565b60075481023073ffffffffffffffffffffffffffffffffffffffff16311015151561155a57600080fd5b611565333083611776565b3373ffffffffffffffffffffffffffffffffffffffff166108fc60075483029081150290604051600060405180830381858888f193505050501580156115af573d6000803e3d6000fd5b5050565b6000809054906101000a900473ffffffffffffffffffffffffffffffffffffffff1673ffffffffffffffffffffffffffffffffffffffff163373ffffffffffffffffffffffffffffffffffffffff1614151561160e57600080fd5b80600960008473ffffffffffffffffffffffffffffffffffffffff1673ffffffffffffffffffffffffffffffffffffffff16815260200190815260200160002060006101000a81548160ff0219169083151502179055507f48335238b4855f35377ed80f164e8c6f3c366e54ac00b96a6402d4a9814a03a58282604051808373ffffffffffffffffffffffffffffffffffffffff1673ffffffffffffffffffffffffffffffffffffffff168152602001821515151581526020019250505060405180910390a15050565b6000809054906101000a900473ffffffffffffffffffffffffffffffffffffffff1673ffffffffffffffffffffffffffffffffffffffff163373ffffffffffffffffffffffffffffffffffffffff1614151561173357600080fd5b806000806101000a81548173ffffffffffffffffffffffffffffffffffffffff021916908373ffffffffffffffffffffffffffffffffffffffff16021790555050565b60008273ffffffffffffffffffffffffffffffffffffffff161415151561179c57600080fd5b80600560008573ffffffffffffffffffffffffffffffffffffffff1673ffffffffffffffffffffffffffffffffffffffff16815260200190815260200160002054101515156117ea57600080fd5b600560008373ffffffffffffffffffffffffffffffffffffffff1673ffffffffffffffffffffffffffffffffffffffff1681526020019081526020016000205481600560008573ffffffffffffffffffffffffffffffffffffffff1673ffffffffffffffffffffffffffffffffffffffff168152602001908152602001600020540111151561187857600080fd5b600960008473ffffffffffffffffffffffffffffffffffffffff1673ffffffffffffffffffffffffffffffffffffffff16815260200190815260200160002060009054906101000a900460ff161515156118d157600080fd5b600960008373ffffffffffffffffffffffffffffffffffffffff1673ffffffffffffffffffffffffffffffffffffffff16815260200190815260200160002060009054906101000a900460ff1615151561192a57600080fd5b80600560008573ffffffffffffffffffffffffffffffffffffffff1673ffffffffffffffffffffffffffffffffffffffff1681526020019081526020016000206000828254039250508190555080600560008473ffffffffffffffffffffffffffffffffffffffff1673ffffffffffffffffffffffffffffffffffffffff168152602001908152602001600020600082825401925050819055508173ffffffffffffffffffffffffffffffffffffffff168373ffffffffffffffffffffffffffffffffffffffff167fddf252ad1be2c89b69c2b068fc378daa952ba7f163c4a11628f55a4df523b3ef836040518082815260200191505060405180910390a35050505600a165627a7a72305820a76e5792cc0d6ad1f8bf370eadca5cd961f970775d8ca84a5457ffe440c26f9d0029",
  "source": "\n\ncontract CAPS {\n    address public owner;\n\n    function owned() public {\n        owner = msg.sender;\n    }\n\n    modifier onlyOwner {\n        require(msg.sender == owner);\n        _;\n    }\n\n    function transferOwnership(address newOwner) onlyOwner public {\n        owner = newOwner;\n    }\n}\n\ninterface tokenRecipient { function receiveApproval(address _from, uint256 _value, address _token, bytes _extraData) public; }\n\ncontract CCXTokenERC20 {\n    string public constant _myTokeName = 'DigiStakes';\n    string public constant _mySymbol = 'DIGI';\n    uint public constant _myinitialSupply = 200000000000000;\n    uint8 public constant _myDecimal = 2;\n    \n    string public name;\n    string public symbol;\n    uint8 public decimals;\n    \n    uint256 public totalSupply;\n\n    \n    mapping (address => uint256) public balanceOf;\n    mapping (address => mapping (address => uint256)) public allowance;\n\n    \n    event Transfer(address indexed from, address indexed to, uint256 value);\n\n    \n    event Burn(address indexed from, uint256 value);\n\n    \n    function CCXTokenERC20(\n        uint256 initialSupply,\n        string tokenName,\n        string tokenSymbol\n    ) public {\n        decimals = _myDecimal;\n        totalSupply = _myinitialSupply * (10 ** uint256(_myDecimal));  \n        balanceOf[msg.sender] = totalSupply;                \n        name = _myTokeName;                                   \n        symbol = _mySymbol;                               \n    }\n\n    \n    function _transfer(address _from, address _to, uint _value) internal {\n        \n        require(_to != 0x0);\n        \n        require(balanceOf[_from] >= _value);\n        \n        require(balanceOf[_to] + _value > balanceOf[_to]);\n        \n        uint previousBalances = balanceOf[_from] + balanceOf[_to];\n        \n        balanceOf[_from] -= _value;\n        \n        balanceOf[_to] += _value;\n        Transfer(_from, _to, _value);\n        \n        assert(balanceOf[_from] + balanceOf[_to] == previousBalances);\n    }\n\n    \n    function transfer(address _to, uint256 _value) public {\n        _transfer(msg.sender, _to, _value);\n    }\n\n    \n    function transferFrom(address _from, address _to, uint256 _value) public returns (bool success) {\n        require(_value <= allowance[_from][msg.sender]);     \n        allowance[_from][msg.sender] -= _value;\n        _transfer(_from, _to, _value);\n        return true;\n    }\n\n    \n    function approve(address _spender, uint256 _value) public\n        returns (bool success) {\n        allowance[msg.sender][_spender] = _value;\n        return true;\n    }\n\n    \n    function approveAndCall(address _spender, uint256 _value, bytes _extraData)\n        public\n        returns (bool success) {\n        tokenRecipient spender = tokenRecipient(_spender);\n        if (approve(_spender, _value)) {\n            spender.receiveApproval(msg.sender, _value, this, _extraData);\n            return true;\n        }\n    }\n\n    \n    function burn(uint256 _value) public returns (bool success) {\n        require(balanceOf[msg.sender] >= _value);   \n        balanceOf[msg.sender] -= _value;            \n        totalSupply -= _value;                      \n        Burn(msg.sender, _value);\n        return true;\n    }\n\n    \n    function burnFrom(address _from, uint256 _value) public returns (bool success) {\n        require(balanceOf[_from] >= _value);                \n        require(_value <= allowance[_from][msg.sender]);    \n        balanceOf[_from] -= _value;                         \n        allowance[_from][msg.sender] -= _value;             \n        totalSupply -= _value;                              \n        Burn(_from, _value);\n        return true;\n    }\n}\n\n\n\n\n\ncontract MyAdvancedToken is CAPS, CCXTokenERC20 {\n\n\n\n    uint256 public sellPrice;\n    uint256 public buyPrice;\n\n    mapping (address => bool) public frozenAccount;\n\n    \n    event FrozenFunds(address target, bool frozen);\n\n    \n    function MyAdvancedToken(\n        uint256 initialSupply,\n        string tokenName,\n        string tokenSymbol\n    ) CCXTokenERC20(initialSupply, tokenName, tokenSymbol) public {}\n\n    \n    function _transfer(address _from, address _to, uint _value) internal {\n        require (_to != 0x0);                               \n        require (balanceOf[_from] >= _value);               \n        require (balanceOf[_to] + _value > balanceOf[_to]); \n        require(!frozenAccount[_from]);                     \n        require(!frozenAccount[_to]);                       \n        balanceOf[_from] -= _value;                         \n        balanceOf[_to] += _value;                           \n        Transfer(_from, _to, _value);\n    }\n\n    \n    \n    \n    function mintToken(address target, uint256 mintedAmount) onlyOwner public {\n        balanceOf[target] += mintedAmount;\n        totalSupply += mintedAmount;\n        Transfer(0, this, mintedAmount);\n        Transfer(this, target, mintedAmount);\n    }\n\n    \n    \n    \n    function freezeAccount(address target, bool freeze) onlyOwner public {\n        frozenAccount[target] = freeze;\n        FrozenFunds(target, freeze);\n    }\n\n    \n    \n    \n    function setPrices(uint256 newSellPrice, uint256 newBuyPrice) onlyOwner public {\n        sellPrice = newSellPrice;\n        buyPrice = newBuyPrice;\n    }\n\n    \n    function buy() payable public {\n        uint amount = msg.value / buyPrice;               \n        _transfer(this, msg.sender, amount);              \n    }\n\n    \n    \n    function sell(uint256 amount) public {\n        require(this.balance >= amount * sellPrice);      \n        _transfer(msg.sender, this, amount);              \n        msg.sender.transfer(amount * sellPrice);          \n    }\n}",
  "sourcePath": "/home/XXX-1/smartrim-experiment/for-rlf/0x818b121e5c6435e1d3a7533c466804b817a18cd2/contracts/0x818b121e5c6435e1d3a7533c466804b817a18cd2.sol",
  "compiler": {
    "name": "solc",
    "version": "0.4.25+commit.59dbf8f1.Emscripten.clang"
  },
  "schemaVersion": "3.4.16",
  "updatedAt": "2025-08-14T03:58:57.468Z",
  "devdoc": {
    "methods": {}
  },
  "userdoc": {
    "methods": {}
  }
}