{
  "contractName": "CertificationDb_1",
  "abi": [
    {
      "constant": true,
      "inputs": [],
      "name": "getTotalBalance",
      "outputs": [
        {
          "name": "",
          "type": "uint256"
        }
      ],
      "payable": false,
      "stateMutability": "view",
      "type": "function"
    },
    {
      "constant": false,
      "inputs": [
        {
          "name": "newOwner",
          "type": "address"
        }
      ],
      "name": "setOwner",
      "outputs": [
        {
          "name": "success",
          "type": "bool"
        }
      ],
      "payable": false,
      "stateMutability": "nonpayable",
      "type": "function"
    },
    {
      "constant": true,
      "inputs": [],
      "name": "getQueryFee",
      "outputs": [
        {
          "name": "",
          "type": "uint256"
        }
      ],
      "payable": false,
      "stateMutability": "view",
      "type": "function"
    },
    {
      "constant": false,
      "inputs": [
        {
          "name": "newBeneficiary",
          "type": "address"
        }
      ],
      "name": "setBeneficiary",
      "outputs": [
        {
          "name": "success",
          "type": "bool"
        }
      ],
      "payable": false,
      "stateMutability": "nonpayable",
      "type": "function"
    },
    {
      "constant": true,
      "inputs": [],
      "name": "getBeneficiary",
      "outputs": [
        {
          "name": "",
          "type": "address"
        }
      ],
      "payable": false,
      "stateMutability": "view",
      "type": "function"
    },
    {
      "constant": false,
      "inputs": [],
      "name": "withdrawPayments",
      "outputs": [
        {
          "name": "success",
          "type": "bool"
        }
      ],
      "payable": false,
      "stateMutability": "nonpayable",
      "type": "function"
    },
    {
      "constant": true,
      "inputs": [],
      "name": "getOwner",
      "outputs": [
        {
          "name": "",
          "type": "address"
        }
      ],
      "payable": false,
      "stateMutability": "view",
      "type": "function"
    },
    {
      "constant": false,
      "inputs": [
        {
          "name": "newQueryFee",
          "type": "uint256"
        }
      ],
      "name": "setQueryFee",
      "outputs": [
        {
          "name": "success",
          "type": "bool"
        }
      ],
      "payable": false,
      "stateMutability": "nonpayable",
      "type": "function"
    },
    {
      "constant": true,
      "inputs": [
        {
          "name": "beneficiary",
          "type": "address"
        }
      ],
      "name": "getPaymentOf",
      "outputs": [
        {
          "name": "",
          "type": "uint256"
        }
      ],
      "payable": false,
      "stateMutability": "view",
      "type": "function"
    },
    {
      "inputs": [
        {
          "name": "beneficiary",
          "type": "address"
        },
        {
          "name": "certificationQueryFee",
          "type": "uint256"
        },
        {
          "name": "_certifierDb",
          "type": "address"
        }
      ],
      "payable": false,
      "stateMutability": "nonpayable",
      "type": "constructor"
    },
    {
      "payable": true,
      "stateMutability": "payable",
      "type": "fallback"
    },
    {
      "anonymous": false,
      "inputs": [
        {
          "indexed": true,
          "name": "dest",
          "type": "address"
        },
        {
          "indexed": false,
          "name": "amount",
          "type": "uint256"
        }
      ],
      "name": "LogPaymentReceived",
      "type": "event"
    },
    {
      "anonymous": false,
      "inputs": [
        {
          "indexed": false,
          "name": "previousQueryFee",
          "type": "uint256"
        },
        {
          "indexed": false,
          "name": "newQueryFee",
          "type": "uint256"
        }
      ],
      "name": "LogQueryFeeSet",
      "type": "event"
    },
    {
      "anonymous": false,
      "inputs": [
        {
          "indexed": true,
          "name": "previousBeneficiary",
          "type": "address"
        },
        {
          "indexed": true,
          "name": "newBeneficiary",
          "type": "address"
        }
      ],
      "name": "LogBeneficiarySet",
      "type": "event"
    },
    {
      "anonymous": false,
      "inputs": [
        {
          "indexed": true,
          "name": "previousOwner",
          "type": "address"
        },
        {
          "indexed": true,
          "name": "newOwner",
          "type": "address"
        }
      ],
      "name": "LogOwnerChanged",
      "type": "event"
    },
    {
      "anonymous": false,
      "inputs": [
        {
          "indexed": true,
          "name": "previousCertifierDb",
          "type": "address"
        },
        {
          "indexed": true,
          "name": "newCertifierDb",
          "type": "address"
        }
      ],
      "name": "LogCertifierDbChanged",
      "type": "event"
    },
    {
      "anonymous": false,
      "inputs": [
        {
          "indexed": true,
          "name": "student",
          "type": "address"
        },
        {
          "indexed": false,
          "name": "timestamp",
          "type": "uint256"
        },
        {
          "indexed": true,
          "name": "certifier",
          "type": "address"
        },
        {
          "indexed": true,
          "name": "document",
          "type": "bytes32"
        }
      ],
      "name": "LogStudentCertified",
      "type": "event"
    },
    {
      "anonymous": false,
      "inputs": [
        {
          "indexed": true,
          "name": "student",
          "type": "address"
        },
        {
          "indexed": false,
          "name": "timestamp",
          "type": "uint256"
        },
        {
          "indexed": true,
          "name": "certifier",
          "type": "address"
        }
      ],
      "name": "LogStudentUncertified",
      "type": "event"
    },
    {
      "anonymous": false,
      "inputs": [
        {
          "indexed": true,
          "name": "student",
          "type": "address"
        },
        {
          "indexed": true,
          "name": "document",
          "type": "bytes32"
        }
      ],
      "name": "LogCertificationDocumentAdded",
      "type": "event"
    },
    {
      "anonymous": false,
      "inputs": [
        {
          "indexed": true,
          "name": "student",
          "type": "address"
        },
        {
          "indexed": true,
          "name": "document",
          "type": "bytes32"
        }
      ],
      "name": "LogCertificationDocumentRemoved",
      "type": "event"
    },
    {
      "constant": true,
      "inputs": [],
      "name": "getCertifierDb",
      "outputs": [
        {
          "name": "",
          "type": "address"
        }
      ],
      "payable": false,
      "stateMutability": "view",
      "type": "function"
    },
    {
      "constant": false,
      "inputs": [
        {
          "name": "newCertifierDb",
          "type": "address"
        }
      ],
      "name": "setCertifierDb",
      "outputs": [
        {
          "name": "success",
          "type": "bool"
        }
      ],
      "payable": false,
      "stateMutability": "nonpayable",
      "type": "function"
    },
    {
      "constant": false,
      "inputs": [
        {
          "name": "student",
          "type": "address"
        },
        {
          "name": "document",
          "type": "bytes32"
        }
      ],
      "name": "certify",
      "outputs": [
        {
          "name": "success",
          "type": "bool"
        }
      ],
      "payable": false,
      "stateMutability": "nonpayable",
      "type": "function"
    },
    {
      "constant": false,
      "inputs": [
        {
          "name": "student",
          "type": "address"
        }
      ],
      "name": "uncertify",
      "outputs": [
        {
          "name": "success",
          "type": "bool"
        }
      ],
      "payable": false,
      "stateMutability": "nonpayable",
      "type": "function"
    },
    {
      "constant": false,
      "inputs": [
        {
          "name": "student",
          "type": "address"
        },
        {
          "name": "document",
          "type": "bytes32"
        }
      ],
      "name": "addCertificationDocument",
      "outputs": [
        {
          "name": "success",
          "type": "bool"
        }
      ],
      "payable": false,
      "stateMutability": "nonpayable",
      "type": "function"
    },
    {
      "constant": false,
      "inputs": [
        {
          "name": "document",
          "type": "bytes32"
        }
      ],
      "name": "addCertificationDocumentToSelf",
      "outputs": [
        {
          "name": "success",
          "type": "bool"
        }
      ],
      "payable": false,
      "stateMutability": "nonpayable",
      "type": "function"
    },
    {
      "constant": false,
      "inputs": [
        {
          "name": "student",
          "type": "address"
        },
        {
          "name": "document",
          "type": "bytes32"
        }
      ],
      "name": "removeCertificationDocument",
      "outputs": [
        {
          "name": "success",
          "type": "bool"
        }
      ],
      "payable": false,
      "stateMutability": "nonpayable",
      "type": "function"
    },
    {
      "constant": false,
      "inputs": [
        {
          "name": "document",
          "type": "bytes32"
        }
      ],
      "name": "removeCertificationDocumentFromSelf",
      "outputs": [
        {
          "name": "success",
          "type": "bool"
        }
      ],
      "payable": false,
      "stateMutability": "nonpayable",
      "type": "function"
    },
    {
      "constant": true,
      "inputs": [],
      "name": "getCertifiedStudentsCount",
      "outputs": [
        {
          "name": "count",
          "type": "uint256"
        }
      ],
      "payable": false,
      "stateMutability": "view",
      "type": "function"
    },
    {
      "constant": false,
      "inputs": [
        {
          "name": "index",
          "type": "uint256"
        }
      ],
      "name": "getCertifiedStudentAtIndex",
      "outputs": [
        {
          "name": "student",
          "type": "address"
        }
      ],
      "payable": true,
      "stateMutability": "payable",
      "type": "function"
    },
    {
      "constant": false,
      "inputs": [
        {
          "name": "student",
          "type": "address"
        }
      ],
      "name": "getCertification",
      "outputs": [
        {
          "name": "certified",
          "type": "bool"
        },
        {
          "name": "timestamp",
          "type": "uint256"
        },
        {
          "name": "certifier",
          "type": "address"
        },
        {
          "name": "documentCount",
          "type": "uint256"
        }
      ],
      "payable": true,
      "stateMutability": "payable",
      "type": "function"
    },
    {
      "constant": false,
      "inputs": [
        {
          "name": "student",
          "type": "address"
        }
      ],
      "name": "isCertified",
      "outputs": [
        {
          "name": "isIndeed",
          "type": "bool"
        }
      ],
      "payable": true,
      "stateMutability": "payable",
      "type": "function"
    },
    {
      "constant": false,
      "inputs": [
        {
          "name": "student",
          "type": "address"
        },
        {
          "name": "index",
          "type": "uint256"
        }
      ],
      "name": "getCertificationDocumentAtIndex",
      "outputs": [
        {
          "name": "document",
          "type": "bytes32"
        }
      ],
      "payable": true,
      "stateMutability": "payable",
      "type": "function"
    },
    {
      "constant": false,
      "inputs": [
        {
          "name": "student",
          "type": "address"
        },
        {
          "name": "document",
          "type": "bytes32"
        }
      ],
      "name": "isCertification",
      "outputs": [
        {
          "name": "isIndeed",
          "type": "bool"
        }
      ],
      "payable": true,
      "stateMutability": "payable",
      "type": "function"
    },
    {
      "constant": false,
      "inputs": [],
      "name": "fixBalance",
      "outputs": [
        {
          "name": "success",
          "type": "bool"
        }
      ],
      "payable": false,
      "stateMutability": "nonpayable",
      "type": "function"
    }
  ],
  "bytecode": "0x60806040523480156200001157600080fd5b50604051606080620028cc833981018060405281019080805190602001909291908051906020019092919080519060200190929190505050828281336000806101000a81548173ffffffffffffffffffffffffffffffffffffffff021916908373ffffffffffffffffffffffffffffffffffffffff16021790555060008173ffffffffffffffffffffffffffffffffffffffff1614151515620000b357600080fd5b80600160006101000a81548173ffffffffffffffffffffffffffffffffffffffff021916908373ffffffffffffffffffffffffffffffffffffffff16021790555060003411156200013c576200013b600160009054906101000a900473ffffffffffffffffffffffffffffffffffffffff16346200020b640100000000026401000000009004565b5b508060028190555050503073ffffffffffffffffffffffffffffffffffffffff1631600010156200019a5762000199333073ffffffffffffffffffffffffffffffffffffffff16316200020b640100000000026401000000009004565b5b60008173ffffffffffffffffffffffffffffffffffffffff1614151515620001c157600080fd5b80600560006101000a81548173ffffffffffffffffffffffffffffffffffffffff021916908373ffffffffffffffffffffffffffffffffffffffff160217905550505050620002c5565b6000811115620002c1578060036000828254019250508190555080600460008473ffffffffffffffffffffffffffffffffffffffff1673ffffffffffffffffffffffffffffffffffffffff168152602001908152602001600020600082825401925050819055508173ffffffffffffffffffffffffffffffffffffffff167f71c66459b89364f3bf3c906b1a1d8652cc2920224be995f47e1bd17fd1428222826040518082815260200191505060405180910390a25b5050565b6125f780620002d56000396000f30060806040526004361061013e576000357c0100000000000000000000000000000000000000000000000000000000900463ffffffff168063038461ea1461016c57806312b583491461019757806313af4035146101c2578063163aba3c1461021d5780631c31f710146102485780635103a5a3146102a3578063565a2e2c1461030c57806356d73ad1146103635780635afa5036146103ba5780636103d70b14610408578063893d20e814610437578063912de8de1461048e578063951b01c5146104bd5780639c30936f146105185780639e1e652814610561578063c24924d6146105bc578063c88cc6ac14610601578063d558220514610690578063da7d0082146106f0578063de6292351461074c578063e42d5be0146107a8578063e80bd3e5146107ff578063ec97cff714610848578063f3ee6305146108b1575b61016a600160009054906101000a900473ffffffffffffffffffffffffffffffffffffffff163461091a565b005b34801561017857600080fd5b506101816109d3565b6040518082815260200191505060405180910390f35b3480156101a357600080fd5b506101ac6109e0565b6040518082815260200191505060405180910390f35b3480156101ce57600080fd5b50610203600480360381019080803573ffffffffffffffffffffffffffffffffffffffff1690602001909291905050506109ea565b604051808215151515815260200191505060405180910390f35b34801561022957600080fd5b50610232610b88565b6040518082815260200191505060405180910390f35b34801561025457600080fd5b50610289600480360381019080803573ffffffffffffffffffffffffffffffffffffffff169060200190929190505050610b92565b604051808215151515815260200191505060405180910390f35b3480156102af57600080fd5b506102f2600480360381019080803573ffffffffffffffffffffffffffffffffffffffff1690602001909291908035600019169060200190929190505050610d33565b604051808215151515815260200191505060405180910390f35b34801561031857600080fd5b50610321611252565b604051808273ffffffffffffffffffffffffffffffffffffffff1673ffffffffffffffffffffffffffffffffffffffff16815260200191505060405180910390f35b34801561036f57600080fd5b5061037861127c565b604051808273ffffffffffffffffffffffffffffffffffffffff1673ffffffffffffffffffffffffffffffffffffffff16815260200191505060405180910390f35b6103ee600480360381019080803573ffffffffffffffffffffffffffffffffffffffff1690602001909291905050506112a6565b604051808215151515815260200191505060405180910390f35b34801561041457600080fd5b5061041d611321565b604051808215151515815260200191505060405180910390f35b34801561044357600080fd5b5061044c6113fa565b604051808273ffffffffffffffffffffffffffffffffffffffff1673ffffffffffffffffffffffffffffffffffffffff16815260200191505060405180910390f35b34801561049a57600080fd5b506104a3611423565b604051808215151515815260200191505060405180910390f35b3480156104c957600080fd5b506104fe600480360381019080803573ffffffffffffffffffffffffffffffffffffffff16906020019092919050505061143a565b604051808215151515815260200191505060405180910390f35b34801561052457600080fd5b5061054760048036038101908080356000191690602001909291905050506115db565b604051808215151515815260200191505060405180910390f35b34801561056d57600080fd5b506105a2600480360381019080803573ffffffffffffffffffffffffffffffffffffffff1690602001909291905050506115ee565b604051808215151515815260200191505060405180910390f35b3480156105c857600080fd5b506105e760048036038101908080359060200190929190505050611a32565b604051808215151515815260200191505060405180910390f35b610635600480360381019080803573ffffffffffffffffffffffffffffffffffffffff169060200190929190505050611aec565b60405180851515151581526020018481526020018373ffffffffffffffffffffffffffffffffffffffff1673ffffffffffffffffffffffffffffffffffffffff16815260200182815260200194505050505060405180910390f35b6106ae60048036038101908080359060200190929190505050611bab565b604051808273ffffffffffffffffffffffffffffffffffffffff1673ffffffffffffffffffffffffffffffffffffffff16815260200191505060405180910390f35b610732600480360381019080803573ffffffffffffffffffffffffffffffffffffffff1690602001909291908035600019169060200190929190505050611c10565b604051808215151515815260200191505060405180910390f35b61078a600480360381019080803573ffffffffffffffffffffffffffffffffffffffff16906020019092919080359060200190929190505050611ca8565b60405180826000191660001916815260200191505060405180910390f35b3480156107b457600080fd5b506107e9600480360381019080803573ffffffffffffffffffffffffffffffffffffffff169060200190929190505050611d2e565b6040518082815260200191505060405180910390f35b34801561080b57600080fd5b5061082e6004803603810190808035600019169060200190929190505050611d77565b604051808215151515815260200191505060405180910390f35b34801561085457600080fd5b50610897600480360381019080803573ffffffffffffffffffffffffffffffffffffffff1690602001909291908035600019169060200190929190505050611d8a565b604051808215151515815260200191505060405180910390f35b3480156108bd57600080fd5b50610900600480360381019080803573ffffffffffffffffffffffffffffffffffffffff1690602001909291908035600019169060200190929190505050611ea1565b604051808215151515815260200191505060405180910390f35b60008111156109cf578060036000828254019250508190555080600460008473ffffffffffffffffffffffffffffffffffffffff1673ffffffffffffffffffffffffffffffffffffffff168152602001908152602001600020600082825401925050819055508173ffffffffffffffffffffffffffffffffffffffff167f71c66459b89364f3bf3c906b1a1d8652cc2920224be995f47e1bd17fd1428222826040518082815260200191505060405180910390a25b5050565b6000600780549050905090565b6000600354905090565b60008060009054906101000a900473ffffffffffffffffffffffffffffffffffffffff1673ffffffffffffffffffffffffffffffffffffffff163373ffffffffffffffffffffffffffffffffffffffff16141515610a4757600080fd5b60008273ffffffffffffffffffffffffffffffffffffffff1614151515610a6d57600080fd5b8173ffffffffffffffffffffffffffffffffffffffff166000809054906101000a900473ffffffffffffffffffffffffffffffffffffffff1673ffffffffffffffffffffffffffffffffffffffff16141515610b7f578173ffffffffffffffffffffffffffffffffffffffff166000809054906101000a900473ffffffffffffffffffffffffffffffffffffffff1673ffffffffffffffffffffffffffffffffffffffff167ffcf23a92150d56e85e3a3d33b357493246e55783095eb6a733eb8439ffc752c860405160405180910390a3816000806101000a81548173ffffffffffffffffffffffffffffffffffffffff021916908373ffffffffffffffffffffffffffffffffffffffff1602179055505b60019050919050565b6000600254905090565b60008060009054906101000a900473ffffffffffffffffffffffffffffffffffffffff1673ffffffffffffffffffffffffffffffffffffffff163373ffffffffffffffffffffffffffffffffffffffff16141515610bef57600080fd5b60008273ffffffffffffffffffffffffffffffffffffffff1614151515610c1557600080fd5b8173ffffffffffffffffffffffffffffffffffffffff16600160009054906101000a900473ffffffffffffffffffffffffffffffffffffffff1673ffffffffffffffffffffffffffffffffffffffff16141515610d2a578173ffffffffffffffffffffffffffffffffffffffff16600160009054906101000a900473ffffffffffffffffffffffffffffffffffffffff1673ffffffffffffffffffffffffffffffffffffffff167f19fc5dfa52cbe3deb2c9d94a22f464548abadd6067db0c2c0534844d041f8df060405160405180910390a381600160006101000a81548173ffffffffffffffffffffffffffffffffffffffff021916908373ffffffffffffffffffffffffffffffffffffffff1602179055505b60019050919050565b600080600560009054906101000a900473ffffffffffffffffffffffffffffffffffffffff1673ffffffffffffffffffffffffffffffffffffffff16631c2353e1336040518263ffffffff167c0100000000000000000000000000000000000000000000000000000000028152600401808273ffffffffffffffffffffffffffffffffffffffff1673ffffffffffffffffffffffffffffffffffffffff168152602001915050602060405180830381600087803b158015610df357600080fd5b505af1158015610e07573d6000803e3d6000fd5b505050506040513d6020811015610e1d57600080fd5b81019080805190602001909291905050501515610e3957600080fd5b60008473ffffffffffffffffffffffffffffffffffffffff1614151515610e5f57600080fd5b600660008573ffffffffffffffffffffffffffffffffffffffff1673ffffffffffffffffffffffffffffffffffffffff16815260200190815260200160002060000160009054906101000a900460ff16151515610ebb57600080fd5b600060010283600019161415905060a0604051908101604052806001151581526020014281526020013373ffffffffffffffffffffffffffffffffffffffff1681526020016000604051908082528060200260200182016040528015610f305781602001602082028038833980820191505090505b508152602001600780549050815250600660008673ffffffffffffffffffffffffffffffffffffffff1673ffffffffffffffffffffffffffffffffffffffff16815260200190815260200160002060008201518160000160006101000a81548160ff0219169083151502179055506020820151816001015560408201518160020160006101000a81548173ffffffffffffffffffffffffffffffffffffffff021916908373ffffffffffffffffffffffffffffffffffffffff160217905550606082015181600401908051906020019061100b9291906124b5565b50608082015181600501559050508015611177576040805190810160405280600115158152602001600660008773ffffffffffffffffffffffffffffffffffffffff1673ffffffffffffffffffffffffffffffffffffffff16815260200190815260200160002060040180549050815250600660008673ffffffffffffffffffffffffffffffffffffffff1673ffffffffffffffffffffffffffffffffffffffff1681526020019081526020016000206003016000856000191660001916815260200190815260200160002060008201518160000160006101000a81548160ff02191690831515021790555060208201518160010155905050600660008573ffffffffffffffffffffffffffffffffffffffff1673ffffffffffffffffffffffffffffffffffffffff1681526020019081526020016000206004018390806001815401808255809150509060018203906000526020600020016000909192909190915090600019169055505b60078490806001815401808255809150509060018203906000526020600020016000909192909190916101000a81548173ffffffffffffffffffffffffffffffffffffffff021916908373ffffffffffffffffffffffffffffffffffffffff1602179055505082600019163373ffffffffffffffffffffffffffffffffffffffff168573ffffffffffffffffffffffffffffffffffffffff167fb24ec0b08d813dcdfcd724c8f00c9391266e74f7b3e4ac777cab023decdac3a4426040518082815260200191505060405180910390a4600191505092915050565b6000600160009054906101000a900473ffffffffffffffffffffffffffffffffffffffff16905090565b6000600560009054906101000a900473ffffffffffffffffffffffffffffffffffffffff16905090565b600034600254111515156112b957600080fd5b6112ca6112c4611252565b3461091a565b600660008373ffffffffffffffffffffffffffffffffffffffff1673ffffffffffffffffffffffffffffffffffffffff16815260200190815260200160002060000160009054906101000a900460ff169050919050565b600080600460003373ffffffffffffffffffffffffffffffffffffffff1673ffffffffffffffffffffffffffffffffffffffff1681526020019081526020016000205490506000600460003373ffffffffffffffffffffffffffffffffffffffff1673ffffffffffffffffffffffffffffffffffffffff16815260200190815260200160002081905550806003600082825403925050819055503373ffffffffffffffffffffffffffffffffffffffff168160405160006040518083038185875af19250505015156113f257600080fd5b600191505090565b60008060009054906101000a900473ffffffffffffffffffffffffffffffffffffffff16905090565b6000611435611430611252565b611fb8565b905090565b60008060009054906101000a900473ffffffffffffffffffffffffffffffffffffffff1673ffffffffffffffffffffffffffffffffffffffff163373ffffffffffffffffffffffffffffffffffffffff1614151561149757600080fd5b60008273ffffffffffffffffffffffffffffffffffffffff16141515156114bd57600080fd5b8173ffffffffffffffffffffffffffffffffffffffff16600560009054906101000a900473ffffffffffffffffffffffffffffffffffffffff1673ffffffffffffffffffffffffffffffffffffffff161415156115d2578173ffffffffffffffffffffffffffffffffffffffff16600560009054906101000a900473ffffffffffffffffffffffffffffffffffffffff1673ffffffffffffffffffffffffffffffffffffffff167fb1d919edde8c3abc5bb1da8cad2f086adc0e3147be111672dcf8bae0e39b2b0060405160405180910390a381600560006101000a81548173ffffffffffffffffffffffffffffffffffffffff021916908373ffffffffffffffffffffffffffffffffffffffff1602179055505b60019050919050565b60006115e733836120a0565b9050919050565b600080600560009054906101000a900473ffffffffffffffffffffffffffffffffffffffff1673ffffffffffffffffffffffffffffffffffffffff16631c2353e1336040518263ffffffff167c0100000000000000000000000000000000000000000000000000000000028152600401808273ffffffffffffffffffffffffffffffffffffffff1673ffffffffffffffffffffffffffffffffffffffff168152602001915050602060405180830381600087803b1580156116ae57600080fd5b505af11580156116c2573d6000803e3d6000fd5b505050506040513d60208110156116d857600080fd5b810190808051906020019092919050505015156116f457600080fd5b600660008473ffffffffffffffffffffffffffffffffffffffff1673ffffffffffffffffffffffffffffffffffffffff16815260200190815260200160002060000160009054906101000a900460ff16151561174f57600080fd5b6000600660008573ffffffffffffffffffffffffffffffffffffffff1673ffffffffffffffffffffffffffffffffffffffff168152602001908152602001600020600401805490501415156117a357600080fd5b600660008473ffffffffffffffffffffffffffffffffffffffff1673ffffffffffffffffffffffffffffffffffffffff168152602001908152602001600020600501549050600660008473ffffffffffffffffffffffffffffffffffffffff1673ffffffffffffffffffffffffffffffffffffffff168152602001908152602001600020600080820160006101000a81549060ff021916905560018201600090556002820160006101000a81549073ffffffffffffffffffffffffffffffffffffffff021916905560048201600061187b9190612508565b60058201600090555050600160078054905011156119ad5760076001600780549050038154811015156118aa57fe5b9060005260206000200160009054906101000a900473ffffffffffffffffffffffffffffffffffffffff166007828154811015156118e457fe5b9060005260206000200160006101000a81548173ffffffffffffffffffffffffffffffffffffffff021916908373ffffffffffffffffffffffffffffffffffffffff160217905550806006600060078481548110151561194057fe5b9060005260206000200160009054906101000a900473ffffffffffffffffffffffffffffffffffffffff1673ffffffffffffffffffffffffffffffffffffffff1673ffffffffffffffffffffffffffffffffffffffff168152602001908152602001600020600501819055505b60078054809190600190036119c29190612529565b503373ffffffffffffffffffffffffffffffffffffffff168373ffffffffffffffffffffffffffffffffffffffff167f846e5851feb0abe1147738246a99adca29c3d529de2746efe5cfccbf6207525e426040518082815260200191505060405180910390a36001915050919050565b60008060009054906101000a900473ffffffffffffffffffffffffffffffffffffffff1673ffffffffffffffffffffffffffffffffffffffff163373ffffffffffffffffffffffffffffffffffffffff16141515611a8f57600080fd5b81600254141515611ae3577fe835852b487b67dc2d1456553d3887776f63d4c97b567b725bb208d5d5a9edfa60025483604051808381526020018281526020019250505060405180910390a1816002819055505b60019050919050565b60008060008060003460025411151515611b0557600080fd5b611b16611b10611252565b3461091a565b600660008773ffffffffffffffffffffffffffffffffffffffff1673ffffffffffffffffffffffffffffffffffffffff16815260200190815260200160002090508060000160009054906101000a900460ff1681600101548260020160009054906101000a900473ffffffffffffffffffffffffffffffffffffffff1683600401805490509450945094509450509193509193565b60003460025411151515611bbe57600080fd5b611bcf611bc9611252565b3461091a565b600782815481101515611bde57fe5b9060005260206000200160009054906101000a900473ffffffffffffffffffffffffffffffffffffffff169050919050565b60003460025411151515611c2357600080fd5b611c34611c2e611252565b3461091a565b600660008473ffffffffffffffffffffffffffffffffffffffff1673ffffffffffffffffffffffffffffffffffffffff1681526020019081526020016000206003016000836000191660001916815260200190815260200160002060000160009054906101000a900460ff16905092915050565b60003460025411151515611cbb57600080fd5b611ccc611cc6611252565b3461091a565b600660008473ffffffffffffffffffffffffffffffffffffffff1673ffffffffffffffffffffffffffffffffffffffff16815260200190815260200160002060040182815481101515611d1b57fe5b9060005260206000200154905092915050565b6000600460008373ffffffffffffffffffffffffffffffffffffffff1673ffffffffffffffffffffffffffffffffffffffff168152602001908152602001600020549050919050565b6000611d8333836122da565b9050919050565b6000600560009054906101000a900473ffffffffffffffffffffffffffffffffffffffff1673ffffffffffffffffffffffffffffffffffffffff16631c2353e1336040518263ffffffff167c0100000000000000000000000000000000000000000000000000000000028152600401808273ffffffffffffffffffffffffffffffffffffffff1673ffffffffffffffffffffffffffffffffffffffff168152602001915050602060405180830381600087803b158015611e4957600080fd5b505af1158015611e5d573d6000803e3d6000fd5b505050506040513d6020811015611e7357600080fd5b81019080805190602001909291905050501515611e8f57600080fd5b611e9983836122da565b905092915050565b6000600560009054906101000a900473ffffffffffffffffffffffffffffffffffffffff1673ffffffffffffffffffffffffffffffffffffffff16631c2353e1336040518263ffffffff167c0100000000000000000000000000000000000000000000000000000000028152600401808273ffffffffffffffffffffffffffffffffffffffff1673ffffffffffffffffffffffffffffffffffffffff168152602001915050602060405180830381600087803b158015611f6057600080fd5b505af1158015611f74573d6000803e3d6000fd5b505050506040513d6020811015611f8a57600080fd5b81019080805190602001909291905050501515611fa657600080fd5b611fb083836120a0565b905092915050565b6000803073ffffffffffffffffffffffffffffffffffffffff16316003541015612096576003543073ffffffffffffffffffffffffffffffffffffffff163103905080600460008573ffffffffffffffffffffffffffffffffffffffff1673ffffffffffffffffffffffffffffffffffffffff168152602001908152602001600020600082825401925050819055508273ffffffffffffffffffffffffffffffffffffffff167f71c66459b89364f3bf3c906b1a1d8652cc2920224be995f47e1bd17fd1428222826040518082815260200191505060405180910390a25b6001915050919050565b6000806000600660008673ffffffffffffffffffffffffffffffffffffffff1673ffffffffffffffffffffffffffffffffffffffff16815260200190815260200160002060000160009054906101000a900460ff16151561210057600080fd5b600660008673ffffffffffffffffffffffffffffffffffffffff1673ffffffffffffffffffffffffffffffffffffffff1681526020019081526020016000209150816003016000856000191660001916815260200190815260200160002060000160009054906101000a900460ff16156122ce5781600301600085600019166000191681526020019081526020016000206001015490508160030160008560001916600019168152602001908152602001600020600080820160006101000a81549060ff02191690556001820160009055505060018260040180549050111561226d578160040160018360040180549050038154811015156121fe57fe5b9060005260206000200154826004018281548110151561221a57fe5b90600052602060002001816000191690555080826003016000846004018481548110151561224457fe5b906000526020600020015460001916600019168152602001908152602001600020600101819055505b816004018054809190600190036122849190612555565b5083600019168573ffffffffffffffffffffffffffffffffffffffff167f50f8fc971f36f7a6288db952ca5aec9d69a835e58b15c048ecabec94072c883960405160405180910390a35b60019250505092915050565b600080600660008573ffffffffffffffffffffffffffffffffffffffff1673ffffffffffffffffffffffffffffffffffffffff16815260200190815260200160002060000160009054906101000a900460ff16151561233857600080fd5b600060010283600019161415151561234f57600080fd5b600660008573ffffffffffffffffffffffffffffffffffffffff1673ffffffffffffffffffffffffffffffffffffffff1681526020019081526020016000209050806003016000846000191660001916815260200190815260200160002060000160009054906101000a900460ff1615156124aa5760408051908101604052806001151581526020018260040180549050815250816003016000856000191660001916815260200190815260200160002060008201518160000160006101000a81548160ff021916908315150217905550602082015181600101559050508060040183908060018154018082558091505090600182039060005260206000200160009091929091909150906000191690555082600019168473ffffffffffffffffffffffffffffffffffffffff167f2785ed218847cc38c985abc0734cdab82800face2ee7ca805aac3602ff31b60960405160405180910390a35b600191505092915050565b8280548282559060005260206000209081019282156124f7579160200282015b828111156124f65782518290600019169055916020019190600101906124d5565b5b5090506125049190612581565b5090565b50805460008255906000526020600020908101906125269190612581565b50565b8154818355818111156125505781836000526020600020918201910161254f91906125a6565b5b505050565b81548183558181111561257c5781836000526020600020918201910161257b9190612581565b5b505050565b6125a391905b8082111561259f576000816000905550600101612587565b5090565b90565b6125c891905b808211156125c45760008160009055506001016125ac565b5090565b905600a165627a7a72305820351006d70930e638838d26494a1b5965c4cffc41a7eb0171a55f62d22005bd070029",
  "source": "\n\n\ncontract OwnedI {\n    event LogOwnerChanged(address indexed previousOwner, address indexed newOwner);\n\n    function getOwner()\n        view public\n        returns (address);\n\n    function setOwner(address newOwner)\n        public\n        returns (bool success); \n}\n\n\ncontract Owned is OwnedI {\n    \n    address private owner;\n\n    constructor() public {\n        owner = msg.sender;\n    }\n\n    modifier fromOwner {\n        require(msg.sender == owner);\n        _;\n    }\n\n    function getOwner()\n        view public\n        returns (address) {\n        return owner;\n    }\n\n    function setOwner(address newOwner)\n        fromOwner public\n        returns (bool success) {\n        require(newOwner != 0);\n        if (owner != newOwner) {\n            emit LogOwnerChanged(owner, newOwner);\n            owner = newOwner;\n        }\n        success = true;\n    }\n}\n\ncontract WithBeneficiary is Owned {\n    \n    address private beneficiary;\n    \n    event LogBeneficiarySet(address indexed previousBeneficiary, address indexed newBeneficiary);\n\n    constructor(address _beneficiary) payable public {\n        require(_beneficiary != 0);\n        beneficiary = _beneficiary;\n        if (msg.value > 0) {\n            asyncSend(beneficiary, msg.value);\n        }\n    }\n\n    function asyncSend(address dest, uint amount) internal;\n\n    function getBeneficiary()\n        view public\n        returns (address) {\n        return beneficiary;\n    }\n\n    function setBeneficiary(address newBeneficiary)\n        fromOwner public\n        returns (bool success) {\n        require(newBeneficiary != 0);\n        if (beneficiary != newBeneficiary) {\n            emit LogBeneficiarySet(beneficiary, newBeneficiary);\n            beneficiary = newBeneficiary;\n        }\n        success = true;\n    }\n\n    function () payable public {\n        asyncSend(beneficiary, msg.value);\n    }\n}\n\ncontract WithFee is WithBeneficiary {\n    \n    uint256 private queryFee;\n\n    event LogQueryFeeSet(uint256 previousQueryFee, uint256 newQueryFee);\n\n    constructor(\n            address beneficiary,\n            uint256 _queryFee) public\n        WithBeneficiary(beneficiary) {\n        queryFee = _queryFee;\n    }\n\n    modifier requestFeePaid {\n        require(queryFee <= msg.value);\n        asyncSend(getBeneficiary(), msg.value);\n        _;\n    }\n\n    function getQueryFee()\n        view public\n        returns (uint256) {\n        return queryFee;\n    }\n\n    function setQueryFee(uint256 newQueryFee)\n        fromOwner public\n        returns (bool success) {\n        if (queryFee != newQueryFee) {\n            emit LogQueryFeeSet(queryFee, newQueryFee);\n            queryFee = newQueryFee;\n        }\n        success = true;\n    }\n}\n\n\ncontract PullPaymentCapable {\n    uint256 private totalBalance;\n    mapping(address => uint256) private payments;\n\n    event LogPaymentReceived(address indexed dest, uint256 amount);\n\n    constructor() public {\n        if (0 < address(this).balance) {\n            asyncSend(msg.sender, address(this).balance);\n        }\n    }\n\n    \n    function asyncSend(address dest, uint256 amount) internal {\n        if (amount > 0) {\n            totalBalance += amount;\n            payments[dest] += amount;\n            emit LogPaymentReceived(dest, amount);\n        }\n    }\n\n    function getTotalBalance()\n        view public\n        returns (uint256) {\n        return totalBalance;\n    }\n\n    function getPaymentOf(address beneficiary) \n        view public\n        returns (uint256) {\n        return payments[beneficiary];\n    }\n\n    \n    function withdrawPayments()\n        external \n        returns (bool success) {\n        uint256 payment = payments[msg.sender];\n        payments[msg.sender] = 0;\n        totalBalance -= payment;\n        require(msg.sender.call.value(payment)());\n        success = true;\n    }\n\n    function fixBalance()\n        public\n        returns (bool success);\n\n    function fixBalanceInternal(address dest)\n        internal\n        returns (bool success) {\n        if (totalBalance < address(this).balance) {\n            uint256 amount = address(this).balance - totalBalance;\n            payments[dest] += amount;\n            emit LogPaymentReceived(dest, amount);\n        }\n        return true;\n    }\n}\n\n\ncontract CertifierDbI {\n    event LogCertifierAdded(address indexed certifier);\n\n    event LogCertifierRemoved(address indexed certifier);\n\n    function addCertifier(address certifier)\n        public\n        returns (bool success);\n\n    function removeCertifier(address certifier)\n        public\n        returns (bool success);\n\n    function getCertifiersCount()\n        view public\n        returns (uint count);\n\n    function getCertifierStatus(address certifierAddr)\n        view public \n        returns (bool authorised, uint256 index);\n\n    function getCertifierAtIndex(uint256 index)\n        view public\n        returns (address);\n\n    function isCertifier(address certifier)\n        view public\n        returns (bool isIndeed);\n}\n\ncontract CertificationDb_1I {\n    event LogCertifierDbChanged(\n        address indexed previousCertifierDb,\n        address indexed newCertifierDb);\n\n    event LogStudentCertified(\n        address indexed student, uint timestamp,\n        address indexed certifier, bytes32 indexed document);\n\n    event LogStudentUncertified(\n        address indexed student, uint timestamp,\n        address indexed certifier);\n\n    event LogCertificationDocumentAdded(\n        address indexed student, bytes32 indexed document);\n\n    event LogCertificationDocumentRemoved(\n        address indexed student, bytes32 indexed document);\n\n    function getCertifierDb()\n        view public\n        returns (address);\n\n    function setCertifierDb(address newCertifierDb)\n        public\n        returns (bool success);\n\n    function certify(address student, bytes32 document)\n        public\n        returns (bool success);\n\n    function uncertify(address student)\n        public\n        returns (bool success);\n\n    function addCertificationDocument(address student, bytes32 document)\n        public\n        returns (bool success);\n\n    function addCertificationDocumentToSelf(bytes32 document)\n        public\n        returns (bool success);\n\n    function removeCertificationDocument(address student, bytes32 document)\n        public\n        returns (bool success);\n\n    function removeCertificationDocumentFromSelf(bytes32 document)\n        public\n        returns (bool success);\n\n    function getCertifiedStudentsCount()\n        view public\n        returns (uint count);\n\n    function getCertifiedStudentAtIndex(uint index)\n        payable public\n        returns (address student);\n\n    function getCertification(address student)\n        payable public\n        returns (bool certified, uint timestamp, address certifier, uint documentCount);\n\n    function isCertified(address student)\n        payable public\n        returns (bool isIndeed);\n\n    function getCertificationDocumentAtIndex(address student, uint256 index)\n        payable public\n        returns (bytes32 document);\n\n    function isCertification(address student, bytes32 document)\n        payable public\n        returns (bool isIndeed);\n}\n\ncontract CertificationDb_1 is CertificationDb_1I, WithFee, PullPaymentCapable {\n    \n    CertifierDbI private certifierDb;\n\n    struct DocumentStatus {\n        bool isValid;\n        uint256 index;\n    }\n\n    struct Certification {\n        bool certified;\n        uint256 timestamp;\n        address certifier;\n        mapping(bytes32 => DocumentStatus) documentStatuses;\n        bytes32[] documents;\n        uint256 index;\n    }\n\n    \n    mapping(address => Certification) studentCertifications;\n    \n    address[] certifiedStudents;\n\n    constructor(\n            address beneficiary,\n            uint256 certificationQueryFee,\n            address _certifierDb)\n            public\n            WithFee(beneficiary, certificationQueryFee) {\n        require(_certifierDb != 0);\n        certifierDb = CertifierDbI(_certifierDb);\n    }\n\n    modifier fromCertifier {\n        require(certifierDb.isCertifier(msg.sender));\n        _;\n    }\n\n    function getCertifierDb()\n        view public\n        returns (address) {\n        return certifierDb;\n    }\n\n    function setCertifierDb(address newCertifierDb)\n        fromOwner public\n        returns (bool success) {\n        require(newCertifierDb != 0);\n        if (certifierDb != newCertifierDb) {\n            emit LogCertifierDbChanged(certifierDb, newCertifierDb);\n            certifierDb = CertifierDbI(newCertifierDb);\n        }\n        success = true;\n    }\n\n    function certify(address student, bytes32 document) \n        fromCertifier public\n        returns (bool success) {\n        require(student != 0);\n        require(!studentCertifications[student].certified);\n        bool documentExists = document != 0;\n        studentCertifications[student] = Certification({\n            certified: true,\n            timestamp: now,\n            certifier: msg.sender,\n            documents: new bytes32[](0),\n            index: certifiedStudents.length\n        });\n        if (documentExists) {\n            studentCertifications[student].documentStatuses[document] = DocumentStatus({\n                isValid: true,\n                index: studentCertifications[student].documents.length\n            });\n            studentCertifications[student].documents.push(document);\n        }\n        certifiedStudents.push(student);\n        emit LogStudentCertified(student, now, msg.sender, document);\n        success = true;\n    }\n\n    function uncertify(address student) \n        fromCertifier public\n        returns (bool success) {\n        require(studentCertifications[student].certified);\n        \n        require(studentCertifications[student].documents.length == 0);\n        uint256 index = studentCertifications[student].index;\n        delete studentCertifications[student];\n        if (certifiedStudents.length > 1) {\n            certifiedStudents[index] = certifiedStudents[certifiedStudents.length - 1];\n            studentCertifications[certifiedStudents[index]].index = index;\n        }\n        certifiedStudents.length--;\n        emit LogStudentUncertified(student, now, msg.sender);\n        success = true;\n    }\n\n    function addCertificationDocument(address student, bytes32 document)\n        fromCertifier public\n        returns (bool success) {\n        success = addCertificationDocumentInternal(student, document);\n    }\n\n    function addCertificationDocumentToSelf(bytes32 document)\n        public\n        returns (bool success) {\n        success = addCertificationDocumentInternal(msg.sender, document);\n    }\n\n    function addCertificationDocumentInternal(address student, bytes32 document)\n        internal\n        returns (bool success) {\n        require(studentCertifications[student].certified);\n        require(document != 0);\n        Certification storage certification = studentCertifications[student];\n        if (!certification.documentStatuses[document].isValid) {\n            certification.documentStatuses[document] = DocumentStatus({\n                isValid:  true,\n                index: certification.documents.length\n            });\n            certification.documents.push(document);\n            emit LogCertificationDocumentAdded(student, document);\n        }\n        success = true;\n    }\n\n    function removeCertificationDocument(address student, bytes32 document)\n        fromCertifier public\n        returns (bool success) {\n        success = removeCertificationDocumentInternal(student, document);\n    }\n\n    function removeCertificationDocumentFromSelf(bytes32 document)\n        public\n        returns (bool success) {\n        success = removeCertificationDocumentInternal(msg.sender, document);\n    }\n\n    function removeCertificationDocumentInternal(address student, bytes32 document)\n        internal\n        returns (bool success) {\n        require(studentCertifications[student].certified);\n        Certification storage certification = studentCertifications[student];\n        if (certification.documentStatuses[document].isValid) {\n            uint256 index = certification.documentStatuses[document].index;\n            delete certification.documentStatuses[document];\n            if (certification.documents.length > 1) {\n                certification.documents[index] =\n                    certification.documents[certification.documents.length - 1];\n                certification.documentStatuses[certification.documents[index]].index = index;\n            }\n            certification.documents.length--;\n            emit LogCertificationDocumentRemoved(student, document);\n        }\n        success = true;\n    }\n\n    function getCertifiedStudentsCount()\n        view public\n        returns (uint256 count) {\n        count = certifiedStudents.length;\n    }\n\n    function getCertifiedStudentAtIndex(uint256 index)\n        payable public\n        requestFeePaid\n        returns (address student) {\n        student = certifiedStudents[index];\n    }\n\n    \n    function getCertification(address student)\n        payable public\n        requestFeePaid\n        returns (bool certified, uint256 timestamp, address certifier, uint256 documentCount) {\n        Certification storage certification = studentCertifications[student];\n        return (certification.certified,\n            certification.timestamp,\n            certification.certifier,\n            certification.documents.length);\n    }\n\n    \n    function isCertified(address student)\n        payable public\n        requestFeePaid\n        returns (bool isIndeed) {\n        isIndeed = studentCertifications[student].certified;\n    }\n\n    \n    function getCertificationDocumentAtIndex(address student, uint256 index)\n        payable public\n        requestFeePaid\n        returns (bytes32 document) {\n        document = studentCertifications[student].documents[index];\n    }\n\n    \n    function isCertification(address student, bytes32 document)\n        payable public\n        requestFeePaid\n        returns (bool isIndeed) {\n        isIndeed = studentCertifications[student].documentStatuses[document].isValid;\n    }\n\n    function fixBalance()\n        public\n        returns (bool success) {\n        return fixBalanceInternal(getBeneficiary());\n    }\n}\n    \ncontract CertificationDb is CertificationDb_1 {\n    constructor() CertificationDb_1(address(0x123), 78, address(0x123)) public { }\n}\n",
  "sourcePath": "/home/XXX-1/smartrim-experiment/for-rlf/0x1e5028fcb334d79633f5a6665347d2eaa02cb406/contracts/0x1e5028fcb334d79633f5a6665347d2eaa02cb406.sol",
  "compiler": {
    "name": "solc",
    "version": "0.4.25+commit.59dbf8f1.Emscripten.clang"
  },
  "schemaVersion": "3.4.16",
  "updatedAt": "2025-08-14T03:49:15.444Z",
  "devdoc": {
    "methods": {}
  },
  "userdoc": {
    "methods": {}
  }
}