{
  "contractName": "SimpleEscrow",
  "abi": [
    {
      "constant": true,
      "inputs": [],
      "name": "developerWallet",
      "outputs": [
        {
          "name": "",
          "type": "address"
        }
      ],
      "payable": false,
      "stateMutability": "view",
      "type": "function"
    },
    {
      "constant": true,
      "inputs": [],
      "name": "started",
      "outputs": [
        {
          "name": "",
          "type": "uint256"
        }
      ],
      "payable": false,
      "stateMutability": "view",
      "type": "function"
    },
    {
      "constant": true,
      "inputs": [],
      "name": "customerWallet",
      "outputs": [
        {
          "name": "",
          "type": "address"
        }
      ],
      "payable": false,
      "stateMutability": "view",
      "type": "function"
    },
    {
      "constant": true,
      "inputs": [],
      "name": "orderLastDate",
      "outputs": [
        {
          "name": "",
          "type": "uint256"
        }
      ],
      "payable": false,
      "stateMutability": "view",
      "type": "function"
    },
    {
      "constant": true,
      "inputs": [],
      "name": "owner",
      "outputs": [
        {
          "name": "",
          "type": "address"
        }
      ],
      "payable": false,
      "stateMutability": "view",
      "type": "function"
    },
    {
      "constant": true,
      "inputs": [],
      "name": "safeLastDate",
      "outputs": [
        {
          "name": "",
          "type": "uint256"
        }
      ],
      "payable": false,
      "stateMutability": "view",
      "type": "function"
    },
    {
      "constant": true,
      "inputs": [],
      "name": "PERIOD",
      "outputs": [
        {
          "name": "",
          "type": "uint256"
        }
      ],
      "payable": false,
      "stateMutability": "view",
      "type": "function"
    },
    {
      "constant": true,
      "inputs": [],
      "name": "SAFE_PERIOD",
      "outputs": [
        {
          "name": "",
          "type": "uint256"
        }
      ],
      "payable": false,
      "stateMutability": "view",
      "type": "function"
    },
    {
      "inputs": [],
      "payable": false,
      "stateMutability": "nonpayable",
      "type": "constructor"
    },
    {
      "payable": true,
      "stateMutability": "payable",
      "type": "fallback"
    },
    {
      "constant": false,
      "inputs": [
        {
          "name": "newDeveloperWallet",
          "type": "address"
        }
      ],
      "name": "setDeveloperWallet",
      "outputs": [],
      "payable": false,
      "stateMutability": "nonpayable",
      "type": "function"
    },
    {
      "constant": false,
      "inputs": [],
      "name": "completed",
      "outputs": [],
      "payable": false,
      "stateMutability": "nonpayable",
      "type": "function"
    },
    {
      "constant": false,
      "inputs": [],
      "name": "orderNotAccepted",
      "outputs": [],
      "payable": false,
      "stateMutability": "nonpayable",
      "type": "function"
    },
    {
      "constant": false,
      "inputs": [],
      "name": "failedByDeveloper",
      "outputs": [],
      "payable": false,
      "stateMutability": "nonpayable",
      "type": "function"
    },
    {
      "constant": false,
      "inputs": [],
      "name": "completeOrderBySafePeriod",
      "outputs": [],
      "payable": false,
      "stateMutability": "nonpayable",
      "type": "function"
    }
  ],
  "bytecode": "0x6080604052621baf806000556206978060015573ea15adb66dc92a4bbccc8bf32fd25e2e86a2a770600260006101000a81548173ffffffffffffffffffffffffffffffffffffffff021916908373ffffffffffffffffffffffffffffffffffffffff16021790555034801561007357600080fd5b5033600760006101000a81548173ffffffffffffffffffffffffffffffffffffffff021916908373ffffffffffffffffffffffffffffffffffffffff160217905550610889806100c46000396000f3006080604052600436106100c5576000357c0100000000000000000000000000000000000000000000000000000000900463ffffffff168063185870f9146101865780631f2698ab146101dd57806320fd8861146102085780632fa997911461025f57806357d9fd41146102765780636cd56878146102a15780638da5cb5b146102e45780639d9a7fe91461033b578063a37e6f6914610352578063a7fbe7ad14610369578063b4d1d79514610394578063b5f529cf146103bf578063c55fb39f146103d6575b600073ffffffffffffffffffffffffffffffffffffffff16600360009054906101000a900473ffffffffffffffffffffffffffffffffffffffff1673ffffffffffffffffffffffffffffffffffffffff1614151561012257600080fd5b33600360006101000a81548173ffffffffffffffffffffffffffffffffffffffff021916908373ffffffffffffffffffffffffffffffffffffffff160217905550426004819055506000546004540160058190555060015460055401600681905550005b34801561019257600080fd5b5061019b610401565b604051808273ffffffffffffffffffffffffffffffffffffffff1673ffffffffffffffffffffffffffffffffffffffff16815260200191505060405180910390f35b3480156101e957600080fd5b506101f2610427565b6040518082815260200191505060405180910390f35b34801561021457600080fd5b5061021d61042d565b604051808273ffffffffffffffffffffffffffffffffffffffff1673ffffffffffffffffffffffffffffffffffffffff16815260200191505060405180910390f35b34801561026b57600080fd5b50610274610453565b005b34801561028257600080fd5b5061028b610542565b6040518082815260200191505060405180910390f35b3480156102ad57600080fd5b506102e2600480360381019080803573ffffffffffffffffffffffffffffffffffffffff169060200190929190505050610548565b005b3480156102f057600080fd5b506102f96105e8565b604051808273ffffffffffffffffffffffffffffffffffffffff1673ffffffffffffffffffffffffffffffffffffffff16815260200191505060405180910390f35b34801561034757600080fd5b5061035061060e565b005b34801561035e57600080fd5b506103676106ec565b005b34801561037557600080fd5b5061037e6107ca565b6040518082815260200191505060405180910390f35b3480156103a057600080fd5b506103a96107d0565b6040518082815260200191505060405180910390f35b3480156103cb57600080fd5b506103d46107d6565b005b3480156103e257600080fd5b506103eb610857565b6040518082815260200191505060405180910390f35b600260009054906101000a900473ffffffffffffffffffffffffffffffffffffffff1681565b60045481565b600360009054906101000a900473ffffffffffffffffffffffffffffffffffffffff1681565b600260009054906101000a900473ffffffffffffffffffffffffffffffffffffffff1673ffffffffffffffffffffffffffffffffffffffff163373ffffffffffffffffffffffffffffffffffffffff161415156104af57600080fd5b60065442101515156104c057600080fd5b600260009054906101000a900473ffffffffffffffffffffffffffffffffffffffff1673ffffffffffffffffffffffffffffffffffffffff166108fc3073ffffffffffffffffffffffffffffffffffffffff16319081150290604051600060405180830381858888f1935050505015801561053f573d6000803e3d6000fd5b50565b60055481565b600760009054906101000a900473ffffffffffffffffffffffffffffffffffffffff1673ffffffffffffffffffffffffffffffffffffffff163373ffffffffffffffffffffffffffffffffffffffff161415156105a457600080fd5b80600260006101000a81548173ffffffffffffffffffffffffffffffffffffffff021916908373ffffffffffffffffffffffffffffffffffffffff16021790555050565b600760009054906101000a900473ffffffffffffffffffffffffffffffffffffffff1681565b600360009054906101000a900473ffffffffffffffffffffffffffffffffffffffff1673ffffffffffffffffffffffffffffffffffffffff163373ffffffffffffffffffffffffffffffffffffffff1614151561066a57600080fd5b600260009054906101000a900473ffffffffffffffffffffffffffffffffffffffff1673ffffffffffffffffffffffffffffffffffffffff166108fc3073ffffffffffffffffffffffffffffffffffffffff16319081150290604051600060405180830381858888f193505050501580156106e9573d6000803e3d6000fd5b50565b600260009054906101000a900473ffffffffffffffffffffffffffffffffffffffff1673ffffffffffffffffffffffffffffffffffffffff163373ffffffffffffffffffffffffffffffffffffffff1614151561074857600080fd5b600360009054906101000a900473ffffffffffffffffffffffffffffffffffffffff1673ffffffffffffffffffffffffffffffffffffffff166108fc3073ffffffffffffffffffffffffffffffffffffffff16319081150290604051600060405180830381858888f193505050501580156107c7573d6000803e3d6000fd5b50565b60065481565b60005481565b600360009054906101000a900473ffffffffffffffffffffffffffffffffffffffff1673ffffffffffffffffffffffffffffffffffffffff163373ffffffffffffffffffffffffffffffffffffffff1614151561083257600080fd5b600554421015151561084357600080fd5b600154600660008282540192505081905550565b600154815600a165627a7a723058201916708d01fd79ee2a63698bbd704e878db9f5b700f82f49d1fcc09f9a4454920029",
  "source": "\n\ncontract SimpleEscrow {\n    \n    uint public PERIOD = 21 days;\n    \n    uint public SAFE_PERIOD = 5 days;\n    \n    address public developerWallet = 0xEA15Adb66DC92a4BbCcC8Bf32fd25E2e86a2A770;\n    \n    address public customerWallet;\n    \n    uint public started;\n    \n    uint public orderLastDate;\n    \n    uint public safeLastDate;\n\n    address public owner;\n\n    function SimpleEscrow() public {\n        owner = msg.sender;\n    }\n\n    modifier onlyCustomer() {\n        require(msg.sender == customerWallet);\n        _;\n    }\n\n    modifier onlyDeveloper() {\n        require(msg.sender == developerWallet);\n        _;\n    }\n    \n    function setDeveloperWallet(address newDeveloperWallet) public {\n        require(msg.sender == owner);\n        developerWallet = newDeveloperWallet;\n    }\n\n    function completed() public onlyCustomer {\n        developerWallet.transfer(this.balance);\n    }\n\n    function orderNotAccepted() public onlyCustomer {\n        require(now >= orderLastDate);\n        safeLastDate += SAFE_PERIOD;\n    }\n\n    function failedByDeveloper() public onlyDeveloper {\n        customerWallet.transfer(this.balance);\n    }\n    \n    function completeOrderBySafePeriod() public onlyDeveloper {\n        require(now >= safeLastDate);\n        developerWallet.transfer(this.balance);\n    }\n    \n    function () external payable {\n        require(customerWallet == address(0x0));\n        customerWallet = msg.sender;\n        started = now;\n        orderLastDate = started + PERIOD;\n        safeLastDate = orderLastDate + SAFE_PERIOD;\n    }\n    \n}",
  "sourcePath": "/home/XXX-1/smartrim-experiment/for-rlf/0x29e577a56e32cb79442efb8c9275b46e6616951d/contracts/0x29e577a56e32cb79442efb8c9275b46e6616951d.sol",
  "compiler": {
    "name": "solc",
    "version": "0.4.25+commit.59dbf8f1.Emscripten.clang"
  },
  "schemaVersion": "3.4.16",
  "updatedAt": "2025-08-14T03:50:20.347Z",
  "networkType": "ethereum",
  "devdoc": {
    "methods": {}
  },
  "userdoc": {
    "methods": {}
  }
}