{
  "contractName": "Manage",
  "abi": [
    {
      "constant": false,
      "inputs": [
        {
          "name": "_owner",
          "type": "address"
        }
      ],
      "name": "setOwner",
      "outputs": [],
      "payable": false,
      "stateMutability": "nonpayable",
      "type": "function"
    },
    {
      "constant": true,
      "inputs": [],
      "name": "status",
      "outputs": [
        {
          "name": "",
          "type": "uint8"
        }
      ],
      "payable": false,
      "stateMutability": "view",
      "type": "function"
    },
    {
      "constant": false,
      "inputs": [
        {
          "name": "_admin",
          "type": "address"
        }
      ],
      "name": "setAdmin",
      "outputs": [],
      "payable": false,
      "stateMutability": "nonpayable",
      "type": "function"
    },
    {
      "constant": true,
      "inputs": [],
      "name": "getManagers",
      "outputs": [
        {
          "name": "_owner",
          "type": "address"
        },
        {
          "name": "_admin",
          "type": "address"
        }
      ],
      "payable": false,
      "stateMutability": "view",
      "type": "function"
    },
    {
      "constant": false,
      "inputs": [],
      "name": "limit",
      "outputs": [],
      "payable": false,
      "stateMutability": "nonpayable",
      "type": "function"
    },
    {
      "constant": false,
      "inputs": [],
      "name": "start",
      "outputs": [],
      "payable": false,
      "stateMutability": "nonpayable",
      "type": "function"
    },
    {
      "constant": false,
      "inputs": [],
      "name": "close",
      "outputs": [],
      "payable": false,
      "stateMutability": "nonpayable",
      "type": "function"
    }
  ],
  "bytecode": "0x608060405260008060006101000a81548173ffffffffffffffffffffffffffffffffffffffff021916908373ffffffffffffffffffffffffffffffffffffffff1602179055506000600160006101000a81548173ffffffffffffffffffffffffffffffffffffffff021916908373ffffffffffffffffffffffffffffffffffffffff1602179055506000600160146101000a81548160ff021916908360ff1602179055503480156100af57600080fd5b506106b3806100bf6000396000f300608060405260043610610083576000357c0100000000000000000000000000000000000000000000000000000000900463ffffffff16806313af403514610088578063200d2ed2146100cb57806343d726d6146100fc578063704b6c0214610113578063a4d66daf14610156578063a8d088bb1461016d578063be9a6555146101f7575b600080fd5b34801561009457600080fd5b506100c9600480360381019080803573ffffffffffffffffffffffffffffffffffffffff16906020019092919050505061020e565b005b3480156100d757600080fd5b506100e06102ad565b604051808260ff1660ff16815260200191505060405180910390f35b34801561010857600080fd5b506101116102c0565b005b34801561011f57600080fd5b50610154600480360381019080803573ffffffffffffffffffffffffffffffffffffffff1690602001909291905050506103b3565b005b34801561016257600080fd5b5061016b610453565b005b34801561017957600080fd5b50610182610544565b604051808373ffffffffffffffffffffffffffffffffffffffff1673ffffffffffffffffffffffffffffffffffffffff1681526020018273ffffffffffffffffffffffffffffffffffffffff1673ffffffffffffffffffffffffffffffffffffffff1681526020019250505060405180910390f35b34801561020357600080fd5b5061020c610594565b005b3373ffffffffffffffffffffffffffffffffffffffff166000809054906101000a900473ffffffffffffffffffffffffffffffffffffffff1673ffffffffffffffffffffffffffffffffffffffff161415151561026a57600080fd5b806000806101000a81548173ffffffffffffffffffffffffffffffffffffffff021916908373ffffffffffffffffffffffffffffffffffffffff16021790555050565b600160149054906101000a900460ff1681565b3373ffffffffffffffffffffffffffffffffffffffff166000809054906101000a900473ffffffffffffffffffffffffffffffffffffffff1673ffffffffffffffffffffffffffffffffffffffff16148061036857503373ffffffffffffffffffffffffffffffffffffffff16600160009054906101000a900473ffffffffffffffffffffffffffffffffffffffff1673ffffffffffffffffffffffffffffffffffffffff16145b151561037357600080fd5b6003600160149054906101000a900460ff1660ff161415151561039557600080fd5b6003600160146101000a81548160ff021916908360ff160217905550565b3373ffffffffffffffffffffffffffffffffffffffff166000809054906101000a900473ffffffffffffffffffffffffffffffffffffffff1673ffffffffffffffffffffffffffffffffffffffff161415151561040f57600080fd5b80600160006101000a81548173ffffffffffffffffffffffffffffffffffffffff021916908373ffffffffffffffffffffffffffffffffffffffff16021790555050565b3373ffffffffffffffffffffffffffffffffffffffff166000809054906101000a900473ffffffffffffffffffffffffffffffffffffffff1673ffffffffffffffffffffffffffffffffffffffff1614806104fb57503373ffffffffffffffffffffffffffffffffffffffff16600160009054906101000a900473ffffffffffffffffffffffffffffffffffffffff1673ffffffffffffffffffffffffffffffffffffffff16145b151561050657600080fd5b60018060149054906101000a900460ff1660ff161415151561052757600080fd5b60018060146101000a81548160ff021916908360ff160217905550565b6000806000809054906101000a900473ffffffffffffffffffffffffffffffffffffffff16600160009054906101000a900473ffffffffffffffffffffffffffffffffffffffff16915091509091565b3373ffffffffffffffffffffffffffffffffffffffff166000809054906101000a900473ffffffffffffffffffffffffffffffffffffffff1673ffffffffffffffffffffffffffffffffffffffff16148061063c57503373ffffffffffffffffffffffffffffffffffffffff16600160009054906101000a900473ffffffffffffffffffffffffffffffffffffffff1673ffffffffffffffffffffffffffffffffffffffff16145b151561064757600080fd5b6002600160149054906101000a900460ff1660ff161415151561066957600080fd5b6002600160146101000a81548160ff021916908360ff1602179055505600a165627a7a72305820e59706d315e973518b2179e4a736b086dda2bbcbca6a67a30e756368aa300d7f0029",
  "source": "\n\n contract Math {\n    function add(uint256 x, uint256 y) pure internal returns(uint256) {\n      uint256 z = x + y;\n      assert((z >= x) && (z >= y));\n      return z;\n    }\n\n    function subtract(uint256 x, uint256 y) pure internal returns(uint256) {\n      assert(x >= y);\n      uint256 z = x - y;\n      return z;\n    }\n}\n\ncontract Auth {\n    address owner = 0x0;\n    address admin = 0x0;\n\n    modifier isOwner {\n        require(owner != msg.sender); \n        _;\n    }\n\n    modifier isAdmin {\n        require(owner == msg.sender || admin == msg.sender);\n        _;\n    }\n    \n    function setOwner(address _owner) isOwner public {\n        owner = _owner;\n    }\n    \n    function setAdmin(address _admin) isOwner public {\n        admin = _admin;\n    }\n    \n    function getManagers() public view returns (address _owner, address _admin) {\n        return (owner, admin);\n    }\n}\n\ncontract Manage is Auth {\n    \n    \n    uint8 public status = 0;\n\n    modifier isRunning {\n        require(status == 2 || owner == msg.sender || admin == msg.sender || (status == 1 && (owner == msg.sender || admin == msg.sender)));\n        _;\n    }\n\n    function limit() isAdmin public {\n    \trequire(status != 1);\n        status = 1;\n    }\n    \n    function start() isAdmin public {\n    \trequire(status != 2);\n        status = 2;\n    }\n    \n    function close() isAdmin public {\n    \trequire(status != 3);\n        status = 3;\n    }\n}\n\ncontract EIP20Interface {\n    uint256 public totalSupply;\n    function balanceOf(address _owner) public view returns (uint256 balance);\n    function transfer(address _to, uint256 _value) public returns (bool success);\n    function transferFrom(address _from, address _to, uint256 _value) public returns (bool success);\n    function approve(address _spender, uint256 _value) public returns (bool success);\n    function allowance(address _owner, address _spender) public view returns (uint256 remaining);\n    \n    event Transfer(address indexed _from, address indexed _to, uint256 _value);\n    event Approval(address indexed _owner, address indexed _spender, uint256 _value);\n}\n\ncontract TokenBase is EIP20Interface, Manage, Math {\n    string public name;\n    string public symbol;\n    uint8 public decimals;\n    \n    event Burn(address indexed from, uint256 value);\n\n    mapping (address => uint256) public balances;\n    mapping (address => mapping (address => uint256)) public allowed;\n    \n    constructor() public {\n        owner = msg.sender;\n        admin = msg.sender;\n    }\n    \n    function init(uint256 initialSupply, string tokenName, string tokenSymbol, uint8 tokenDecimals) internal {\n        require(status == 0);\n        totalSupply = initialSupply * 10 ** uint256(tokenDecimals);\n        balances[msg.sender] = totalSupply;\n        name = tokenName;\n        symbol = tokenSymbol;\n        decimals = tokenDecimals;\n        status = 1;\n    }\n    \n    function _transfer(address _from, address _to, uint256 _value) isRunning internal {\n    \trequire(0x0 != _to);\n        require(balances[_from] >= _value);\n        require(balances[_to] + _value >= balances[_to]);\n        uint previousBalances = balances[_from] + balances[_to];\n        balances[_from] = Math.subtract(balances[_from], _value);\n        balances[_to] = Math.add(balances[_to], _value);\n        emit Transfer(_from, _to, _value);\n        assert(balances[_from] + balances[_to] == previousBalances);\n    }\n    \n    function transfer(address _to, uint256 _value) public returns (bool success) {\n        _transfer(msg.sender, _to, _value);\n        return true;\n    }\n    \n    function transferFrom(address _from, address _to, uint256 _value) public returns (bool success) {\n        require(_value <= allowed[_from][msg.sender]);\n        allowed[_from][msg.sender] -= _value;\n        _transfer(_from, _to, _value);\n        return true;\n    }\n    \n    function approve(address _spender, uint256 _value) isRunning public returns (bool success) {\n        require(_value == 0 || allowed[msg.sender][_spender] == 0);\n        allowed[msg.sender][_spender] = _value;\n        emit Approval(msg.sender, _spender, _value);\n        return true;\n    }\n    \n    function increaseApproval(address _spender, uint256 _value) isRunning public returns (bool success) {\n   \t\tallowed[msg.sender][_spender] = Math.add(allowed[msg.sender][_spender], _value);\n   \t\temit Approval(msg.sender, _spender, allowed[msg.sender][_spender]);\n   \t\treturn true;\n\t}\n\n\tfunction decreaseApproval(address _spender, uint _value) isRunning public returns (bool success) {\n\t   \tuint256 oldValue = allowed[msg.sender][_spender];\n\t   \tif (_value >= oldValue) {\n\t       allowed[msg.sender][_spender] = 0;\n\t   \t} else {\n\t       allowed[msg.sender][_spender] = Math.subtract(oldValue, _value);\n\t   \t}\n\t   \temit Approval(msg.sender, _spender, allowed[msg.sender][_spender]);\n\t   \treturn true;\n\t}\n    \n    function burn(uint256 _value) public returns (bool success) {\n        require(balances[msg.sender] >= _value);   \n        balances[msg.sender] -= _value;            \n        totalSupply -= _value;                      \n        emit Burn(msg.sender, _value);\n        return true;\n    }\n    \n    function burnFrom(address _from, uint256 _value) public returns (bool success) {\n        require(balances[_from] >= _value);                \n        require(_value <= allowed[_from][msg.sender]);    \n        balances[_from] -= _value;                         \n        allowed[_from][msg.sender] -= _value;             \n        totalSupply -= _value;                              \n        emit Burn(_from, _value);\n        return true;\n    }\n    \n    function balanceOf(address _owner) public view returns (uint256 balance) {\n        return balances[_owner];\n    }\n    \n    function allowance(address _owner, address _spender) public view returns (uint256 remaining) {\n        return allowed[_owner][_spender];\n    }\n    \n    function destruct() isOwner public {\n        selfdestruct(owner); \n    }\n}\n\ncontract EcoDollar is TokenBase {\n    uint256 public sellPrice;\n    uint256 public buyPrice;\n    uint8 freezePercent;\n    address[] private frozenAddresses;\n    mapping (address => uint256) public frozenBalances;\n    \n    event FrozenBalance(address indexed target, uint256 balance);\n    event Price(uint256 newSellPrice, uint256 newBuyPrice);\n    \n    constructor() TokenBase() public {\n        init(3000000000, \"EcoDollar\", \"ECO\", 18);\n        freezePercent = 100;\n        \n        emit Transfer(address(0), msg.sender, totalSupply);\n    }\n    \n    function _transfer(address _from, address _to, uint256 _value) isRunning internal {\n        require(frozenBalances[_from] <= balances[_from] - _value);\n        \n        super._transfer(_from, _to, _value);\n        \n        if(status == 1) \n        \tfreeze(_to, freezePercent);\n    }\n    \n    function increaseFrozenBalances(address target, uint256 _value) isAdmin public {\n        require(_value > 0);\n        if(frozenBalances[target] == 0)\n        \tfrozenAddresses.push(target);\n        \t\n        frozenBalances[target] += _value;\n        emit FrozenBalance(target, frozenBalances[target]);\n    }\n    \n    function decreaseFrozenBalances(address target, uint256 _value) isAdmin public {\n        require(_value > 0 && frozenBalances[target] >= _value);\n        frozenBalances[target] -= _value;\n        \n        if(frozenBalances[target] == 0)\n        \tdeleteFrozenAddresses(target);\n        \t\n        emit FrozenBalance(target, frozenBalances[target]);\n    }\n    \n    function freeze(address target, uint8 percent) isAdmin public {\n        require(percent > 0 && percent <= 100);\n        if(frozenBalances[target] == 0)\n        \tfrozenAddresses.push(target);\n        \n        uint256 frozenBalance = balances[target] * percent / 100;\n        frozenBalances[target] = frozenBalance;\n        \n        emit FrozenBalance(target, frozenBalance);\n    }\n    \n    function changeFrozenBalanceAll(uint8 percent) isAdmin public {\n        uint arrayLength = frozenAddresses.length;\n\t\tfor (uint i=0; i<arrayLength; i++) {\n\t\t\tuint256 frozenBalance = balances[frozenAddresses[i]] * percent / 100;\n        \tfrozenBalances[frozenAddresses[i]] = frozenBalance;\n\t\t}\n    }\n    \n    function unfreeze(address target) isAdmin public {\n    \tdeleteFrozenAddresses(target);\n    \n        delete frozenBalances[target];\n    }\n    \n    function deleteFrozenAddresses(address target) private {\n    \tuint arrayLength = frozenAddresses.length;\n    \tuint indexToBeDeleted;\n\t\tfor (uint i=0; i<arrayLength; i++) {\n  \t\t\tif (frozenAddresses[i] == target) {\n    \t\t\tindexToBeDeleted = i;\n    \t\t\tbreak;\n  \t\t\t}\n\t\t}\n\t\t\n\t\taddress lastAddress = frozenAddresses[frozenAddresses.length-1];\n        frozenAddresses[indexToBeDeleted] = lastAddress;\n        frozenAddresses.length--;\n    }\n    \n    function unfreezeAll() isAdmin public {\n    \tuint arrayLength = frozenAddresses.length;\n\t\tfor (uint i=0; i<arrayLength; i++) {\n\t\t\tdelete frozenBalances[frozenAddresses[i]];\n\t\t}\n        \n        delete frozenAddresses;\n        frozenAddresses.length = 0;\n    }\n    \n    function setPrices(uint256 newSellPrice, uint256 newBuyPrice) isAdmin public {\n        sellPrice = newSellPrice;\n        buyPrice = newBuyPrice;\n        emit Price(sellPrice, buyPrice);\n    }\n    \n    function buy() payable public {\n        require(buyPrice > 0);\n        uint amount = msg.value / buyPrice;\n        _transfer(this, msg.sender, amount);\n    }\n    \n    function sell(uint256 amount) public {\n        require(sellPrice > 0);\n        address myAddress = this;\n        require(myAddress.balance >= amount * sellPrice);\n        _transfer(msg.sender, this, amount);\n        msg.sender.transfer(amount * sellPrice);\n    }\n    \n    function setFreezePercent(uint8 percent) isAdmin public {\n    \tfreezePercent = percent;\n    }\n    \n    function frozenBalancesOf(address target) public view returns (uint256 balance) {\n         return frozenBalances[target];\n    }\n}\n",
  "sourcePath": "/home/XXX-1/smartrim-experiment/for-rlf/0x3933e1bd030c3c14407f8eecce81493e066ab5e1_1/contracts/0x3933e1bd030c3c14407f8eecce81493e066ab5e1_1.sol",
  "compiler": {
    "name": "solc",
    "version": "0.4.25+commit.59dbf8f1.Emscripten.clang"
  },
  "schemaVersion": "3.4.16",
  "updatedAt": "2025-08-14T03:36:36.736Z",
  "devdoc": {
    "methods": {}
  },
  "userdoc": {
    "methods": {}
  }
}