{
  "contractName": "TokenVault",
  "abi": [
    {
      "constant": false,
      "inputs": [
        {
          "name": "to",
          "type": "address"
        }
      ],
      "name": "transferOwnership",
      "outputs": [],
      "payable": false,
      "stateMutability": "nonpayable",
      "type": "function"
    },
    {
      "constant": false,
      "inputs": [
        {
          "name": "token",
          "type": "address"
        },
        {
          "name": "to",
          "type": "address"
        },
        {
          "name": "amount",
          "type": "uint256"
        }
      ],
      "name": "withdrawTokenTo",
      "outputs": [
        {
          "name": "",
          "type": "bool"
        }
      ],
      "payable": false,
      "stateMutability": "nonpayable",
      "type": "function"
    },
    {
      "constant": false,
      "inputs": [
        {
          "name": "token",
          "type": "address"
        }
      ],
      "name": "withdrawToken",
      "outputs": [
        {
          "name": "",
          "type": "bool"
        }
      ],
      "payable": false,
      "stateMutability": "nonpayable",
      "type": "function"
    },
    {
      "constant": false,
      "inputs": [
        {
          "name": "token",
          "type": "address"
        },
        {
          "name": "to",
          "type": "address"
        }
      ],
      "name": "emtpyTo",
      "outputs": [
        {
          "name": "",
          "type": "bool"
        }
      ],
      "payable": false,
      "stateMutability": "nonpayable",
      "type": "function"
    }
  ],
  "bytecode": "0x6080604052336000806101000a81548173ffffffffffffffffffffffffffffffffffffffff021916908373ffffffffffffffffffffffffffffffffffffffff16021790555030600160006101000a81548173ffffffffffffffffffffffffffffffffffffffff021916908373ffffffffffffffffffffffffffffffffffffffff16021790555034801561009157600080fd5b50610620806100a16000396000f300608060405260043610610062576000357c0100000000000000000000000000000000000000000000000000000000900463ffffffff168063223c217b1461006757806389476069146100ec578063b215814b14610147578063f2fde38b146101c2575b600080fd5b34801561007357600080fd5b506100d2600480360381019080803573ffffffffffffffffffffffffffffffffffffffff169060200190929190803573ffffffffffffffffffffffffffffffffffffffff16906020019092919080359060200190929190505050610205565b604051808215151515815260200191505060405180910390f35b3480156100f857600080fd5b5061012d600480360381019080803573ffffffffffffffffffffffffffffffffffffffff169060200190929190505050610344565b604051808215151515815260200191505060405180910390f35b34801561015357600080fd5b506101a8600480360381019080803573ffffffffffffffffffffffffffffffffffffffff169060200190929190803573ffffffffffffffffffffffffffffffffffffffff16906020019092919050505061044f565b604051808215151515815260200191505060405180910390f35b3480156101ce57600080fd5b50610203600480360381019080803573ffffffffffffffffffffffffffffffffffffffff16906020019092919050505061055b565b005b60008060009054906101000a900473ffffffffffffffffffffffffffffffffffffffff1673ffffffffffffffffffffffffffffffffffffffff163373ffffffffffffffffffffffffffffffffffffffff16141561033d578373ffffffffffffffffffffffffffffffffffffffff1663a9059cbb84846040518363ffffffff167c0100000000000000000000000000000000000000000000000000000000028152600401808373ffffffffffffffffffffffffffffffffffffffff1673ffffffffffffffffffffffffffffffffffffffff16815260200182815260200192505050602060405180830381600087803b1580156102ff57600080fd5b505af1158015610313573d6000803e3d6000fd5b505050506040513d602081101561032957600080fd5b810190808051906020019092919050505090505b9392505050565b600061044882338473ffffffffffffffffffffffffffffffffffffffff166370a08231600160009054906101000a900473ffffffffffffffffffffffffffffffffffffffff166040518263ffffffff167c0100000000000000000000000000000000000000000000000000000000028152600401808273ffffffffffffffffffffffffffffffffffffffff1673ffffffffffffffffffffffffffffffffffffffff168152602001915050602060405180830381600087803b15801561040857600080fd5b505af115801561041c573d6000803e3d6000fd5b505050506040513d602081101561043257600080fd5b8101908080519060200190929190505050610205565b9050919050565b600061055383838573ffffffffffffffffffffffffffffffffffffffff166370a08231600160009054906101000a900473ffffffffffffffffffffffffffffffffffffffff166040518263ffffffff167c0100000000000000000000000000000000000000000000000000000000028152600401808273ffffffffffffffffffffffffffffffffffffffff1673ffffffffffffffffffffffffffffffffffffffff168152602001915050602060405180830381600087803b15801561051357600080fd5b505af1158015610527573d6000803e3d6000fd5b505050506040513d602081101561053d57600080fd5b8101908080519060200190929190505050610205565b905092915050565b6000809054906101000a900473ffffffffffffffffffffffffffffffffffffffff1673ffffffffffffffffffffffffffffffffffffffff163373ffffffffffffffffffffffffffffffffffffffff1614156105f157806000806101000a81548173ffffffffffffffffffffffffffffffffffffffff021916908373ffffffffffffffffffffffffffffffffffffffff1602179055505b505600a165627a7a72305820a95a6ed66877613a4bc32f0270d94b84fc964058cf045c63772d2ed6d576e1ca0029",
  "source": "\n\n\n\n\n\n\n\ncontract Token {\n    function balanceOf(address who) public constant returns (uint256);\n    function transfer(address to, uint amount) public returns (bool);\n}\n\ncontract Ownable {\n    address Owner = msg.sender;\n    modifier onlyOwner { if (msg.sender == Owner) _; }\n    function transferOwnership(address to) public onlyOwner { Owner = to; }\n}\n\n\ncontract TokenVault is Ownable {\n    address self = address(this);\n\n    function withdrawTokenTo(address token, address to, uint amount) public onlyOwner returns (bool) {\n        return Token(token).transfer(to, amount);\n    }\n    \n    function withdrawToken(address token) public returns (bool) {\n        return withdrawTokenTo(token, msg.sender, Token(token).balanceOf(self));\n    }\n    \n    function emtpyTo(address token, address to) public returns (bool) {\n        return withdrawTokenTo(token, to, Token(token).balanceOf(self));\n    }\n}\n\n\ncontract Vault is TokenVault {\n    \n    event Deposit(address indexed depositor, uint amount);\n    event Withdrawal(address indexed to, uint amount);\n    event OpenDate(uint date);\n\n    mapping (address => uint) public Deposits;\n    uint minDeposit;\n    bool Locked;\n    uint Date;\n\n    function initVault() payable open {\n        Owner = msg.sender;\n        minDeposit = 0.25 ether;\n        Locked = false;\n        deposit();\n    }\n    \n    function MinimumDeposit() public constant returns (uint) { return minDeposit; }\n    function ReleaseDate() public constant returns (uint) { return Date; }\n    function WithdrawEnabled() public constant returns (bool) { return Date > 0 && Date <= now; }\n\n    function() public payable { deposit(); }\n\n    function deposit() public payable {\n        if (msg.value > 0) {\n            if (msg.value >= MinimumDeposit())\n                Deposits[msg.sender] += msg.value;\n            Deposit(msg.sender, msg.value);\n        }\n    }\n\n    function withdraw(address to, uint amount) public onlyOwner {\n        if (WithdrawEnabled()) {\n            uint max = Deposits[msg.sender];\n            if (max > 0 && amount <= max) {\n                to.transfer(amount);\n                Withdrawal(to, amount);\n            }\n        }\n    }\n\n    function setRelease(uint newDate) public { \n        Date = newDate;\n        OpenDate(Date);\n    }\n    \n    \n    function lock() public { Locked = true; } address inited;\n    modifier open { if (!Locked) _; inited = msg.sender; }\n    function kill() { require(this.balance == 0); selfdestruct(Owner); }\n    function getOwner() external constant returns (address) { return inited; }\n}",
  "sourcePath": "/home/XXX-1/smartrim-experiment/for-rlf/0xed29ff5874fa64dcf47ed7dacb770857a5d164fb/contracts/0xed29ff5874fa64dcf47ed7dacb770857a5d164fb.sol",
  "compiler": {
    "name": "solc",
    "version": "0.4.25+commit.59dbf8f1.Emscripten.clang"
  },
  "schemaVersion": "3.4.16",
  "updatedAt": "2025-08-14T04:09:44.396Z",
  "devdoc": {
    "methods": {}
  },
  "userdoc": {
    "methods": {}
  }
}