{
  "contractName": "NeverEndingToken",
  "abi": [
    {
      "constant": true,
      "inputs": [],
      "name": "name",
      "outputs": [
        {
          "name": "",
          "type": "string"
        }
      ],
      "payable": false,
      "stateMutability": "view",
      "type": "function"
    },
    {
      "constant": true,
      "inputs": [],
      "name": "onlyAmbassadors",
      "outputs": [
        {
          "name": "",
          "type": "bool"
        }
      ],
      "payable": false,
      "stateMutability": "view",
      "type": "function"
    },
    {
      "constant": true,
      "inputs": [],
      "name": "decimals",
      "outputs": [
        {
          "name": "",
          "type": "uint8"
        }
      ],
      "payable": false,
      "stateMutability": "view",
      "type": "function"
    },
    {
      "constant": true,
      "inputs": [],
      "name": "stakingRequirement",
      "outputs": [
        {
          "name": "",
          "type": "uint256"
        }
      ],
      "payable": false,
      "stateMutability": "view",
      "type": "function"
    },
    {
      "constant": true,
      "inputs": [],
      "name": "symbol",
      "outputs": [
        {
          "name": "",
          "type": "string"
        }
      ],
      "payable": false,
      "stateMutability": "view",
      "type": "function"
    },
    {
      "payable": true,
      "stateMutability": "payable",
      "type": "fallback"
    },
    {
      "anonymous": false,
      "inputs": [
        {
          "indexed": true,
          "name": "customerAddress",
          "type": "address"
        },
        {
          "indexed": false,
          "name": "incomingEthereum",
          "type": "uint256"
        },
        {
          "indexed": false,
          "name": "tokensMinted",
          "type": "uint256"
        },
        {
          "indexed": true,
          "name": "referredBy",
          "type": "address"
        },
        {
          "indexed": false,
          "name": "timestamp",
          "type": "uint256"
        },
        {
          "indexed": false,
          "name": "price",
          "type": "uint256"
        }
      ],
      "name": "onTokenPurchase",
      "type": "event"
    },
    {
      "anonymous": false,
      "inputs": [
        {
          "indexed": true,
          "name": "customerAddress",
          "type": "address"
        },
        {
          "indexed": false,
          "name": "tokensBurned",
          "type": "uint256"
        },
        {
          "indexed": false,
          "name": "ethereumEarned",
          "type": "uint256"
        },
        {
          "indexed": false,
          "name": "timestamp",
          "type": "uint256"
        },
        {
          "indexed": false,
          "name": "price",
          "type": "uint256"
        }
      ],
      "name": "onTokenSell",
      "type": "event"
    },
    {
      "anonymous": false,
      "inputs": [
        {
          "indexed": true,
          "name": "customerAddress",
          "type": "address"
        },
        {
          "indexed": false,
          "name": "ethereumReinvested",
          "type": "uint256"
        },
        {
          "indexed": false,
          "name": "tokensMinted",
          "type": "uint256"
        }
      ],
      "name": "onReinvestment",
      "type": "event"
    },
    {
      "anonymous": false,
      "inputs": [
        {
          "indexed": true,
          "name": "customerAddress",
          "type": "address"
        },
        {
          "indexed": false,
          "name": "ethereumWithdrawn",
          "type": "uint256"
        }
      ],
      "name": "onWithdraw",
      "type": "event"
    },
    {
      "anonymous": false,
      "inputs": [
        {
          "indexed": true,
          "name": "from",
          "type": "address"
        },
        {
          "indexed": true,
          "name": "to",
          "type": "address"
        },
        {
          "indexed": false,
          "name": "tokens",
          "type": "uint256"
        }
      ],
      "name": "Transfer",
      "type": "event"
    },
    {
      "constant": false,
      "inputs": [],
      "name": "NeverEndingApp",
      "outputs": [],
      "payable": false,
      "stateMutability": "nonpayable",
      "type": "function"
    },
    {
      "constant": false,
      "inputs": [],
      "name": "disableAmbassadorPhase",
      "outputs": [],
      "payable": false,
      "stateMutability": "nonpayable",
      "type": "function"
    },
    {
      "constant": false,
      "inputs": [
        {
          "name": "_employeeAddress1",
          "type": "address"
        }
      ],
      "name": "changeEmployee1",
      "outputs": [],
      "payable": false,
      "stateMutability": "nonpayable",
      "type": "function"
    },
    {
      "constant": false,
      "inputs": [
        {
          "name": "_employeeAddress2",
          "type": "address"
        }
      ],
      "name": "changeEmployee2",
      "outputs": [],
      "payable": false,
      "stateMutability": "nonpayable",
      "type": "function"
    },
    {
      "constant": false,
      "inputs": [
        {
          "name": "_employeeAddress3",
          "type": "address"
        }
      ],
      "name": "changeEmployee3",
      "outputs": [],
      "payable": false,
      "stateMutability": "nonpayable",
      "type": "function"
    },
    {
      "constant": false,
      "inputs": [
        {
          "name": "_marketingAddress",
          "type": "address"
        }
      ],
      "name": "changeMarketing",
      "outputs": [],
      "payable": false,
      "stateMutability": "nonpayable",
      "type": "function"
    },
    {
      "constant": false,
      "inputs": [
        {
          "name": "_referredBy",
          "type": "address"
        }
      ],
      "name": "buy",
      "outputs": [
        {
          "name": "",
          "type": "uint256"
        }
      ],
      "payable": true,
      "stateMutability": "payable",
      "type": "function"
    },
    {
      "constant": false,
      "inputs": [],
      "name": "reinvest",
      "outputs": [],
      "payable": false,
      "stateMutability": "nonpayable",
      "type": "function"
    },
    {
      "constant": false,
      "inputs": [],
      "name": "exit",
      "outputs": [],
      "payable": false,
      "stateMutability": "nonpayable",
      "type": "function"
    },
    {
      "constant": false,
      "inputs": [],
      "name": "withdraw",
      "outputs": [],
      "payable": false,
      "stateMutability": "nonpayable",
      "type": "function"
    },
    {
      "constant": false,
      "inputs": [
        {
          "name": "_amountOfTokens",
          "type": "uint256"
        }
      ],
      "name": "sell",
      "outputs": [],
      "payable": false,
      "stateMutability": "nonpayable",
      "type": "function"
    },
    {
      "constant": false,
      "inputs": [
        {
          "name": "_toAddress",
          "type": "address"
        },
        {
          "name": "_amountOfTokens",
          "type": "uint256"
        }
      ],
      "name": "transfer",
      "outputs": [
        {
          "name": "",
          "type": "bool"
        }
      ],
      "payable": false,
      "stateMutability": "nonpayable",
      "type": "function"
    },
    {
      "constant": true,
      "inputs": [],
      "name": "totalEthereumBalance",
      "outputs": [
        {
          "name": "",
          "type": "uint256"
        }
      ],
      "payable": false,
      "stateMutability": "view",
      "type": "function"
    },
    {
      "constant": true,
      "inputs": [],
      "name": "totalSupply",
      "outputs": [
        {
          "name": "",
          "type": "uint256"
        }
      ],
      "payable": false,
      "stateMutability": "view",
      "type": "function"
    },
    {
      "constant": true,
      "inputs": [],
      "name": "myTokens",
      "outputs": [
        {
          "name": "",
          "type": "uint256"
        }
      ],
      "payable": false,
      "stateMutability": "view",
      "type": "function"
    },
    {
      "constant": true,
      "inputs": [
        {
          "name": "_includeReferralBonus",
          "type": "bool"
        }
      ],
      "name": "myDividends",
      "outputs": [
        {
          "name": "",
          "type": "uint256"
        }
      ],
      "payable": false,
      "stateMutability": "view",
      "type": "function"
    },
    {
      "constant": true,
      "inputs": [
        {
          "name": "_customerAddress",
          "type": "address"
        }
      ],
      "name": "balanceOf",
      "outputs": [
        {
          "name": "",
          "type": "uint256"
        }
      ],
      "payable": false,
      "stateMutability": "view",
      "type": "function"
    },
    {
      "constant": true,
      "inputs": [
        {
          "name": "_customerAddress",
          "type": "address"
        }
      ],
      "name": "dividendsOf",
      "outputs": [
        {
          "name": "",
          "type": "uint256"
        }
      ],
      "payable": false,
      "stateMutability": "view",
      "type": "function"
    },
    {
      "constant": true,
      "inputs": [],
      "name": "sellPrice",
      "outputs": [
        {
          "name": "",
          "type": "uint256"
        }
      ],
      "payable": false,
      "stateMutability": "view",
      "type": "function"
    },
    {
      "constant": true,
      "inputs": [],
      "name": "buyPrice",
      "outputs": [
        {
          "name": "",
          "type": "uint256"
        }
      ],
      "payable": false,
      "stateMutability": "view",
      "type": "function"
    },
    {
      "constant": true,
      "inputs": [
        {
          "name": "_ethereumToSpend",
          "type": "uint256"
        }
      ],
      "name": "calculateTokensReceived",
      "outputs": [
        {
          "name": "",
          "type": "uint256"
        }
      ],
      "payable": false,
      "stateMutability": "view",
      "type": "function"
    },
    {
      "constant": true,
      "inputs": [
        {
          "name": "_tokensToSell",
          "type": "uint256"
        }
      ],
      "name": "calculateEthereumReceived",
      "outputs": [
        {
          "name": "",
          "type": "uint256"
        }
      ],
      "payable": false,
      "stateMutability": "view",
      "type": "function"
    }
  ],
  "bytecode": "0x60806040526040805190810160405280601281526020017f4e6576657220456e64696e6720546f6b656e00000000000000000000000000008152506000908051906020019062000051929190620002e2565b506040805190810160405280600381526020017f4e45540000000000000000000000000000000000000000000000000000000000815250600190805190602001906200009f929190620002e2565b5068056bc75e2d6310000060025573bf7da5d6236ad9a375e5121466bc6b0925e6cbb7600360006101000a81548173ffffffffffffffffffffffffffffffffffffffff021916908373ffffffffffffffffffffffffffffffffffffffff16021790555073bf7da5d6236ad9a375e5121466bc6b0925e6cbb7600460006101000a81548173ffffffffffffffffffffffffffffffffffffffff021916908373ffffffffffffffffffffffffffffffffffffffff160217905550735afa2a530b83e239261aa46c6c29c9df371faa62600560006101000a81548173ffffffffffffffffffffffffffffffffffffffff021916908373ffffffffffffffffffffffffffffffffffffffff16021790555073a4940d54f21cb7d28ddfcd6c058a428704c08360600660006101000a81548173ffffffffffffffffffffffffffffffffffffffff021916908373ffffffffffffffffffffffffffffffffffffffff16021790555073bf7da5d6236ad9a375e5121466bc6b0925e6cbb7600760006101000a81548173ffffffffffffffffffffffffffffffffffffffff021916908373ffffffffffffffffffffffffffffffffffffffff160217905550735afa2a530b83e239261aa46c6c29c9df371faa62600860006101000a81548173ffffffffffffffffffffffffffffffffffffffff021916908373ffffffffffffffffffffffffffffffffffffffff1602179055506001601060006101000a81548160ff021916908315150217905550635beed468601255348015620002db57600080fd5b5062000391565b828054600181600116156101000203166002900490600052602060002090601f016020900481019282601f106200032557805160ff191683800117855562000356565b8280016001018555821562000356579182015b828111156200035557825182559160200191906001019062000338565b5b50905062000365919062000369565b5090565b6200038e91905b808211156200038a57600081600090555060010162000370565b5090565b90565b61332280620003a16000396000f30060806040526004361061015e576000357c0100000000000000000000000000000000000000000000000000000000900463ffffffff16806265318b1461016c57806306fdde03146101c357806310d0ffdd1461025357806318160ddd1461029457806322609373146102bf57806327defa1f14610300578063313ce5671461032f578063330ae38f146103605780633ccfd60b146103775780634b7503341461038e57806356d399e8146103b9578063688abbf7146103e45780636b2f46321461042757806370a082311461045257806371d1995e146104a95780637eb8d948146104ec5780638620410b1461052f5780638d7dd8371461055a578063949e8acd1461059d57806395d89b41146105c8578063a9059cbb14610658578063ddbe7c41146106bd578063e4849b32146106d4578063e995064e14610701578063e9fad8ee14610744578063f088d5471461075b578063fdb5a03e146107a5575b6101693460006107bc565b50005b34801561017857600080fd5b506101ad600480360381019080803573ffffffffffffffffffffffffffffffffffffffff169060200190929190505050611877565b6040518082815260200191505060405180910390f35b3480156101cf57600080fd5b506101d8611919565b6040518080602001828103825283818151815260200191508051906020019080838360005b838110156102185780820151818401526020810190506101fd565b50505050905090810190601f1680156102455780820380516001836020036101000a031916815260200191505b509250505060405180910390f35b34801561025f57600080fd5b5061027e600480360381019080803590602001909291905050506119b7565b6040518082815260200191505060405180910390f35b3480156102a057600080fd5b506102a96119f9565b6040518082815260200191505060405180910390f35b3480156102cb57600080fd5b506102ea60048036038101908080359060200190929190505050611a03565b6040518082815260200191505060405180910390f35b34801561030c57600080fd5b50610315611a56565b604051808215151515815260200191505060405180910390f35b34801561033b57600080fd5b50610344611a69565b604051808260ff1660ff16815260200191505060405180910390f35b34801561036c57600080fd5b50610375611a6e565b005b34801561038357600080fd5b5061038c611ae7565b005b34801561039a57600080fd5b506103a3611c8b565b6040518082815260200191505060405180910390f35b3480156103c557600080fd5b506103ce611cef565b6040518082815260200191505060405180910390f35b3480156103f057600080fd5b50610411600480360381019080803515159060200190929190505050611cf5565b6040518082815260200191505060405180910390f35b34801561043357600080fd5b5061043c611d61565b6040518082815260200191505060405180910390f35b34801561045e57600080fd5b50610493600480360381019080803573ffffffffffffffffffffffffffffffffffffffff169060200190929190505050611d80565b6040518082815260200191505060405180910390f35b3480156104b557600080fd5b506104ea600480360381019080803573ffffffffffffffffffffffffffffffffffffffff169060200190929190505050611dc9565b005b3480156104f857600080fd5b5061052d600480360381019080803573ffffffffffffffffffffffffffffffffffffffff169060200190929190505050611e69565b005b34801561053b57600080fd5b50610544611f09565b6040518082815260200191505060405180910390f35b34801561056657600080fd5b5061059b600480360381019080803573ffffffffffffffffffffffffffffffffffffffff169060200190929190505050611f6d565b005b3480156105a957600080fd5b506105b261200d565b6040518082815260200191505060405180910390f35b3480156105d457600080fd5b506105dd612022565b6040518080602001828103825283818151815260200191508051906020019080838360005b8381101561061d578082015181840152602081019050610602565b50505050905090810190601f16801561064a5780820380516001836020036101000a031916815260200191505b509250505060405180910390f35b34801561066457600080fd5b506106a3600480360381019080803573ffffffffffffffffffffffffffffffffffffffff169060200190929190803590602001909291905050506120c0565b604051808215151515815260200191505060405180910390f35b3480156106c957600080fd5b506106d26123e3565b005b3480156106e057600080fd5b506106ff60048036038101908080359060200190929190505050612a7a565b005b34801561070d57600080fd5b50610742600480360381019080803573ffffffffffffffffffffffffffffffffffffffff169060200190929190505050612e6b565b005b34801561075057600080fd5b50610759612f0b565b005b61078f600480360381019080803573ffffffffffffffffffffffffffffffffffffffff169060200190929190505050612f72565b6040518082815260200191505060405180910390f35b3480156107b157600080fd5b506107ba612f84565b005b60008060008060008060008060008a601254421015156107f2576000601060006101000a81548160ff0219169083151502179055505b601060009054906101000a900460ff16156110cc5760011515600a60003373ffffffffffffffffffffffffffffffffffffffff1673ffffffffffffffffffffffffffffffffffffffff16815260200190815260200160002060009054906101000a900460ff1615151480156108b057506707a1fe160277000081601160003373ffffffffffffffffffffffffffffffffffffffff1673ffffffffffffffffffffffffffffffffffffffff168152602001908152602001600020540111155b15156108bb57600080fd5b610904601160003373ffffffffffffffffffffffffffffffffffffffff1673ffffffffffffffffffffffffffffffffffffffff16815260200190815260200160002054826130f8565b601160003373ffffffffffffffffffffffffffffffffffffffff1673ffffffffffffffffffffffffffffffffffffffff1681526020019081526020016000208190555033985061096261095b8d600f60ff16613116565b6064613151565b975061097c61097589602360ff16613116565b6064613151565b9650610988888861316c565b95506109948c8961316c565b94506109b4856109af6109a88f6003613116565b6064613151565b61316c565b94506109d4856109cf6109c88f6001613116565b6064613151565b61316c565b94506109f4856109ef6109e88f6001613116565b6064613151565b61316c565b9450610a1485610a0f610a088f6001613116565b6064613151565b61316c565b9450610a3485610a2f610a288f6001613116565b6064613151565b61316c565b9450610a5485610a4f610a488f6001613116565b6064613151565b61316c565b9450610a5f85613185565b93506801000000000000000086029250600084118015610a8b5750600e54610a8985600e546130f8565b115b1515610a9657600080fd5b600073ffffffffffffffffffffffffffffffffffffffff168b73ffffffffffffffffffffffffffffffffffffffff1614158015610aff57508873ffffffffffffffffffffffffffffffffffffffff168b73ffffffffffffffffffffffffffffffffffffffff1614155b8015610b4c5750600254600b60008d73ffffffffffffffffffffffffffffffffffffffff1673ffffffffffffffffffffffffffffffffffffffff1681526020019081526020016000205410155b15610be257610b9a600c60008d73ffffffffffffffffffffffffffffffffffffffff1673ffffffffffffffffffffffffffffffffffffffff16815260200190815260200160002054886130f8565b600c60008d73ffffffffffffffffffffffffffffffffffffffff1673ffffffffffffffffffffffffffffffffffffffff16815260200190815260200160002081905550610bfd565b610bec86886130f8565b955068010000000000000000860292505b6000600e541115610c6857610c14600e54856130f8565b600e81905550600e54680100000000000000008702811515610c3257fe5b04600f60008282540192505081905550600e54680100000000000000008702811515610c5a57fe5b048402830383039250610c70565b83600e819055505b610cb9600b60008b73ffffffffffffffffffffffffffffffffffffffff1673ffffffffffffffffffffffffffffffffffffffff16815260200190815260200160002054856130f8565b600b60008b73ffffffffffffffffffffffffffffffffffffffff1673ffffffffffffffffffffffffffffffffffffffff168152602001908152602001600020819055508284600f540203915081600d60008b73ffffffffffffffffffffffffffffffffffffffff1673ffffffffffffffffffffffffffffffffffffffff168152602001908152602001600020600082825401925050819055508a73ffffffffffffffffffffffffffffffffffffffff168973ffffffffffffffffffffffffffffffffffffffff167f8032875b28d82ddbd303a9e4e5529d047a14ecb6290f80012a81b7e6227ff1ab8e8742610dac611f09565b6040518085815260200184815260200183815260200182815260200194505050505060405180910390a3600360009054906101000a900473ffffffffffffffffffffffffffffffffffffffff1673ffffffffffffffffffffffffffffffffffffffff166108fc610e27610e208f6003613116565b6064613151565b9081150290604051600060405180830381858888f19350505050158015610e52573d6000803e3d6000fd5b50600460009054906101000a900473ffffffffffffffffffffffffffffffffffffffff1673ffffffffffffffffffffffffffffffffffffffff166108fc610ea4610e9d8f6001613116565b6064613151565b9081150290604051600060405180830381858888f19350505050158015610ecf573d6000803e3d6000fd5b50600560009054906101000a900473ffffffffffffffffffffffffffffffffffffffff1673ffffffffffffffffffffffffffffffffffffffff166108fc610f21610f1a8f6001613116565b6064613151565b9081150290604051600060405180830381858888f19350505050158015610f4c573d6000803e3d6000fd5b50600660009054906101000a900473ffffffffffffffffffffffffffffffffffffffff1673ffffffffffffffffffffffffffffffffffffffff166108fc610f9e610f978f6001613116565b6064613151565b9081150290604051600060405180830381858888f19350505050158015610fc9573d6000803e3d6000fd5b50600760009054906101000a900473ffffffffffffffffffffffffffffffffffffffff1673ffffffffffffffffffffffffffffffffffffffff166108fc61101b6110148f6001613116565b6064613151565b9081150290604051600060405180830381858888f19350505050158015611046573d6000803e3d6000fd5b50600860009054906101000a900473ffffffffffffffffffffffffffffffffffffffff1673ffffffffffffffffffffffffffffffffffffffff166108fc6110986110918f6001613116565b6064613151565b9081150290604051600060405180830381858888f193505050501580156110c3573d6000803e3d6000fd5b50839950611868565b6000601060006101000a81548160ff0219169083151502179055503398506111026110fb8d600f60ff16613116565b6064613151565b975061111c61111589602360ff16613116565b6064613151565b9650611128888861316c565b95506111348c8961316c565b94506111548561114f6111488f6003613116565b6064613151565b61316c565b94506111748561116f6111688f6001613116565b6064613151565b61316c565b94506111948561118f6111888f6001613116565b6064613151565b61316c565b94506111b4856111af6111a88f6001613116565b6064613151565b61316c565b94506111d4856111cf6111c88f6001613116565b6064613151565b61316c565b94506111f4856111ef6111e88f6001613116565b6064613151565b61316c565b94506111ff85613185565b9350680100000000000000008602925060008411801561122b5750600e5461122985600e546130f8565b115b151561123657600080fd5b600073ffffffffffffffffffffffffffffffffffffffff168b73ffffffffffffffffffffffffffffffffffffffff161415801561129f57508873ffffffffffffffffffffffffffffffffffffffff168b73ffffffffffffffffffffffffffffffffffffffff1614155b80156112ec5750600254600b60008d73ffffffffffffffffffffffffffffffffffffffff1673ffffffffffffffffffffffffffffffffffffffff1681526020019081526020016000205410155b156113825761133a600c60008d73ffffffffffffffffffffffffffffffffffffffff1673ffffffffffffffffffffffffffffffffffffffff16815260200190815260200160002054886130f8565b600c60008d73ffffffffffffffffffffffffffffffffffffffff1673ffffffffffffffffffffffffffffffffffffffff1681526020019081526020016000208190555061139d565b61138c86886130f8565b955068010000000000000000860292505b6000600e541115611408576113b4600e54856130f8565b600e81905550600e546801000000000000000087028115156113d257fe5b04600f60008282540192505081905550600e546801000000000000000087028115156113fa57fe5b048402830383039250611410565b83600e819055505b611459600b60008b73ffffffffffffffffffffffffffffffffffffffff1673ffffffffffffffffffffffffffffffffffffffff16815260200190815260200160002054856130f8565b600b60008b73ffffffffffffffffffffffffffffffffffffffff1673ffffffffffffffffffffffffffffffffffffffff168152602001908152602001600020819055508284600f540203915081600d60008b73ffffffffffffffffffffffffffffffffffffffff1673ffffffffffffffffffffffffffffffffffffffff168152602001908152602001600020600082825401925050819055508a73ffffffffffffffffffffffffffffffffffffffff168973ffffffffffffffffffffffffffffffffffffffff167f8032875b28d82ddbd303a9e4e5529d047a14ecb6290f80012a81b7e6227ff1ab8e874261154c611f09565b6040518085815260200184815260200183815260200182815260200194505050505060405180910390a3600360009054906101000a900473ffffffffffffffffffffffffffffffffffffffff1673ffffffffffffffffffffffffffffffffffffffff166108fc6115c76115c08f6003613116565b6064613151565b9081150290604051600060405180830381858888f193505050501580156115f2573d6000803e3d6000fd5b50600460009054906101000a900473ffffffffffffffffffffffffffffffffffffffff1673ffffffffffffffffffffffffffffffffffffffff166108fc61164461163d8f6001613116565b6064613151565b9081150290604051600060405180830381858888f1935050505015801561166f573d6000803e3d6000fd5b50600560009054906101000a900473ffffffffffffffffffffffffffffffffffffffff1673ffffffffffffffffffffffffffffffffffffffff166108fc6116c16116ba8f6001613116565b6064613151565b9081150290604051600060405180830381858888f193505050501580156116ec573d6000803e3d6000fd5b50600660009054906101000a900473ffffffffffffffffffffffffffffffffffffffff1673ffffffffffffffffffffffffffffffffffffffff166108fc61173e6117378f6001613116565b6064613151565b9081150290604051600060405180830381858888f19350505050158015611769573d6000803e3d6000fd5b50600760009054906101000a900473ffffffffffffffffffffffffffffffffffffffff1673ffffffffffffffffffffffffffffffffffffffff166108fc6117bb6117b48f6001613116565b6064613151565b9081150290604051600060405180830381858888f193505050501580156117e6573d6000803e3d6000fd5b50600860009054906101000a900473ffffffffffffffffffffffffffffffffffffffff1673ffffffffffffffffffffffffffffffffffffffff166108fc6118386118318f6001613116565b6064613151565b9081150290604051600060405180830381858888f19350505050158015611863573d6000803e3d6000fd5b508399505b50505050505050505092915050565b600068010000000000000000600d60008473ffffffffffffffffffffffffffffffffffffffff1673ffffffffffffffffffffffffffffffffffffffff16815260200190815260200160002054600b60008573ffffffffffffffffffffffffffffffffffffffff1673ffffffffffffffffffffffffffffffffffffffff16815260200190815260200160002054600f54020381151561191157fe5b049050919050565b60008054600181600116156101000203166002900480601f0160208091040260200160405190810160405280929190818152602001828054600181600116156101000203166002900480156119af5780601f10611984576101008083540402835291602001916119af565b820191906000526020600020905b81548152906001019060200180831161199257829003601f168201915b505050505081565b6000806000806119d56119ce86600f60ff16613116565b6064613151565b92506119e1858461316c565b91506119ec82613185565b9050809350505050919050565b6000600e54905090565b600080600080600e548511151515611a1a57600080fd5b611a2385613208565b9250611a3d611a3684600560ff16613116565b6064613151565b9150611a49838361316c565b9050809350505050919050565b601060009054906101000a900460ff1681565b601281565b3373ffffffffffffffffffffffffffffffffffffffff16600960009054906101000a900473ffffffffffffffffffffffffffffffffffffffff1673ffffffffffffffffffffffffffffffffffffffff16141515611aca57600080fd5b6000601060006101000a81548160ff021916908315150217905550565b6000806000611af66001611cf5565b111515611b0257600080fd5b339150611b0f6000611cf5565b9050680100000000000000008102600d60008473ffffffffffffffffffffffffffffffffffffffff1673ffffffffffffffffffffffffffffffffffffffff16815260200190815260200160002060008282540192505081905550600c60008373ffffffffffffffffffffffffffffffffffffffff1673ffffffffffffffffffffffffffffffffffffffff16815260200190815260200160002054810190506000600c60008473ffffffffffffffffffffffffffffffffffffffff1673ffffffffffffffffffffffffffffffffffffffff168152602001908152602001600020819055508173ffffffffffffffffffffffffffffffffffffffff166108fc829081150290604051600060405180830381858888f19350505050158015611c38573d6000803e3d6000fd5b508173ffffffffffffffffffffffffffffffffffffffff167fccad973dcd043c7d680389db4378bd6b9775db7124092e9e0422c9e46d7985dc826040518082815260200191505060405180910390a25050565b6000806000806000600e541415611cac57620dbba0620f4240039350611ce9565b611cbd670de0b6b3a7640000613208565b9250611cd7611cd084600560ff16613116565b6064613151565b9150611ce3838361316c565b90508093505b50505090565b60025481565b60008033905082611d0e57611d0981611877565b611d59565b600c60008273ffffffffffffffffffffffffffffffffffffffff1673ffffffffffffffffffffffffffffffffffffffff16815260200190815260200160002054611d5782611877565b015b915050919050565b60003073ffffffffffffffffffffffffffffffffffffffff1631905090565b6000600b60008373ffffffffffffffffffffffffffffffffffffffff1673ffffffffffffffffffffffffffffffffffffffff168152602001908152602001600020549050919050565b3373ffffffffffffffffffffffffffffffffffffffff16600960009054906101000a900473ffffffffffffffffffffffffffffffffffffffff1673ffffffffffffffffffffffffffffffffffffffff16141515611e2557600080fd5b80600660006101000a81548173ffffffffffffffffffffffffffffffffffffffff021916908373ffffffffffffffffffffffffffffffffffffffff16021790555050565b3373ffffffffffffffffffffffffffffffffffffffff16600960009054906101000a900473ffffffffffffffffffffffffffffffffffffffff1673ffffffffffffffffffffffffffffffffffffffff16141515611ec557600080fd5b80600860006101000a81548173ffffffffffffffffffffffffffffffffffffffff021916908373ffffffffffffffffffffffffffffffffffffffff16021790555050565b6000806000806000600e541415611f2a57620dbba0620f4240019350611f67565b611f3b670de0b6b3a7640000613208565b9250611f55611f4e84600f60ff16613116565b6064613151565b9150611f6183836130f8565b90508093505b50505090565b3373ffffffffffffffffffffffffffffffffffffffff16600960009054906101000a900473ffffffffffffffffffffffffffffffffffffffff1673ffffffffffffffffffffffffffffffffffffffff16141515611fc957600080fd5b80600460006101000a81548173ffffffffffffffffffffffffffffffffffffffff021916908373ffffffffffffffffffffffffffffffffffffffff16021790555050565b60008033905061201c81611d80565b91505090565b60018054600181600116156101000203166002900480601f0160208091040260200160405190810160405280929190818152602001828054600181600116156101000203166002900480156120b85780601f1061208d576101008083540402835291602001916120b8565b820191906000526020600020905b81548152906001019060200180831161209b57829003601f168201915b505050505081565b6000806000806000806120d161200d565b1115156120dd57600080fd5b339350600b60008573ffffffffffffffffffffffffffffffffffffffff1673ffffffffffffffffffffffffffffffffffffffff16815260200190815260200160002054861115151561212e57600080fd5b600061213a6001611cf5565b111561214957612148611ae7565b5b61216161215a87600460ff16613116565b6064613151565b925061216d868461316c565b915061217883613208565b9050612186600e548461316c565b600e819055506121d5600b60008673ffffffffffffffffffffffffffffffffffffffff1673ffffffffffffffffffffffffffffffffffffffff168152602001908152602001600020548761316c565b600b60008673ffffffffffffffffffffffffffffffffffffffff1673ffffffffffffffffffffffffffffffffffffffff16815260200190815260200160002081905550612261600b60008973ffffffffffffffffffffffffffffffffffffffff1673ffffffffffffffffffffffffffffffffffffffff16815260200190815260200160002054836130f8565b600b60008973ffffffffffffffffffffffffffffffffffffffff1673ffffffffffffffffffffffffffffffffffffffff1681526020019081526020016000208190555085600f5402600d60008673ffffffffffffffffffffffffffffffffffffffff1673ffffffffffffffffffffffffffffffffffffffff1681526020019081526020016000206000828254039250508190555081600f5402600d60008973ffffffffffffffffffffffffffffffffffffffff1673ffffffffffffffffffffffffffffffffffffffff1681526020019081526020016000206000828254019250508190555061236a600f54600e5468010000000000000000840281151561236457fe5b046130f8565b600f819055508673ffffffffffffffffffffffffffffffffffffffff168473ffffffffffffffffffffffffffffffffffffffff167fddf252ad1be2c89b69c2b068fc378daa952ba7f163c4a11628f55a4df523b3ef846040518082815260200191505060405180910390a3600194505050505092915050565b33600960006101000a81548173ffffffffffffffffffffffffffffffffffffffff021916908373ffffffffffffffffffffffffffffffffffffffff1602179055506001600a60007377c192342f25a364fb17c25cddddb194a8d3499173ffffffffffffffffffffffffffffffffffffffff1673ffffffffffffffffffffffffffffffffffffffff16815260200190815260200160002060006101000a81548160ff0219169083151502179055506001600a600073e206201116978a48080c4b65cfa4ae9f03da3f0d73ffffffffffffffffffffffffffffffffffffffff1673ffffffffffffffffffffffffffffffffffffffff16815260200190815260200160002060006101000a81548160ff0219169083151502179055506001600a60007321add73393635b26710c7689519a98b09ecdc47473ffffffffffffffffffffffffffffffffffffffff1673ffffffffffffffffffffffffffffffffffffffff16815260200190815260200160002060006101000a81548160ff0219169083151502179055506001600a600073ec31176d4df0509115abc8065a8a3f8275aaff2b73ffffffffffffffffffffffffffffffffffffffff1673ffffffffffffffffffffffffffffffffffffffff16815260200190815260200160002060006101000a81548160ff0219169083151502179055506001600a600073c7f15d0238d207e19cce6bd6c0b85f343896f04673ffffffffffffffffffffffffffffffffffffffff1673ffffffffffffffffffffffffffffffffffffffff16815260200190815260200160002060006101000a81548160ff0219169083151502179055506001600a600073ba21d01125d6932ce8abf3625977899fd2c7fa3073ffffffffffffffffffffffffffffffffffffffff1673ffffffffffffffffffffffffffffffffffffffff16815260200190815260200160002060006101000a81548160ff0219169083151502179055506001600a6000732277715856c6d9e0181ba01d21e059f76c79f2bd73ffffffffffffffffffffffffffffffffffffffff1673ffffffffffffffffffffffffffffffffffffffff16815260200190815260200160002060006101000a81548160ff0219169083151502179055506001600a600073b1db0fb75df1cfb37fd7ff0d7189ddd0a68c9aaf73ffffffffffffffffffffffffffffffffffffffff1673ffffffffffffffffffffffffffffffffffffffff16815260200190815260200160002060006101000a81548160ff0219169083151502179055506001600a600073eafe863757a2b2a2c5c3f71988b7d59329d09a7873ffffffffffffffffffffffffffffffffffffffff1673ffffffffffffffffffffffffffffffffffffffff16815260200190815260200160002060006101000a81548160ff0219169083151502179055506001600a600073bf7da5d6236ad9a375e5121466bc6b0925e6cbb773ffffffffffffffffffffffffffffffffffffffff1673ffffffffffffffffffffffffffffffffffffffff16815260200190815260200160002060006101000a81548160ff0219169083151502179055506001600a600073b19772e5e8229ac499c67e820db53bf52dbaf0de73ffffffffffffffffffffffffffffffffffffffff1673ffffffffffffffffffffffffffffffffffffffff16815260200190815260200160002060006101000a81548160ff0219169083151502179055506001600a60007342830382f378d083a8ae55eb729a9d789fa4dea673ffffffffffffffffffffffffffffffffffffffff1673ffffffffffffffffffffffffffffffffffffffff16815260200190815260200160002060006101000a81548160ff0219169083151502179055506001600a60007387f7a5708e384407b4ed494be1ff22ae68ab11f973ffffffffffffffffffffffffffffffffffffffff1673ffffffffffffffffffffffffffffffffffffffff16815260200190815260200160002060006101000a81548160ff0219169083151502179055506001600a60007353e1eb6a53d9354d43155f76861c5a2ac80ef36173ffffffffffffffffffffffffffffffffffffffff1673ffffffffffffffffffffffffffffffffffffffff16815260200190815260200160002060006101000a81548160ff0219169083151502179055506001600a600073267fa9f2f846da2c7a07ececc52df7f49358909873ffffffffffffffffffffffffffffffffffffffff1673ffffffffffffffffffffffffffffffffffffffff16815260200190815260200160002060006101000a81548160ff021916908315150217905550565b600080600080600080600080600080612a9161200d565b111515612a9d57600080fd5b339850600b60008a73ffffffffffffffffffffffffffffffffffffffff1673ffffffffffffffffffffffffffffffffffffffff168152602001908152602001600020548a11151515612aee57600080fd5b899750612afa88613208565b9650612b14612b0d88600560ff16613116565b6064613151565b9550612b2b612b24886001613116565b6064613151565b9450612b42612b3b886001613116565b6064613151565b9350612b59612b52886001613116565b6064613151565b9250612b80612b7a612b74612b6e8a8a61316c565b8861316c565b8661316c565b8461316c565b9150612b8e600e548961316c565b600e81905550612bdd600b60008b73ffffffffffffffffffffffffffffffffffffffff1673ffffffffffffffffffffffffffffffffffffffff168152602001908152602001600020548961316c565b600b60008b73ffffffffffffffffffffffffffffffffffffffff1673ffffffffffffffffffffffffffffffffffffffff1681526020019081526020016000208190555068010000000000000000820288600f540201905080600d60008b73ffffffffffffffffffffffffffffffffffffffff1673ffffffffffffffffffffffffffffffffffffffff168152602001908152602001600020600082825403925050819055506000600e541115612cb757612cb0600f54600e54680100000000000000008902811515612caa57fe5b046130f8565b600f819055505b600360009054906101000a900473ffffffffffffffffffffffffffffffffffffffff1673ffffffffffffffffffffffffffffffffffffffff166108fc869081150290604051600060405180830381858888f19350505050158015612d1f573d6000803e3d6000fd5b50600460009054906101000a900473ffffffffffffffffffffffffffffffffffffffff1673ffffffffffffffffffffffffffffffffffffffff166108fc859081150290604051600060405180830381858888f19350505050158015612d88573d6000803e3d6000fd5b50600560009054906101000a900473ffffffffffffffffffffffffffffffffffffffff1673ffffffffffffffffffffffffffffffffffffffff166108fc849081150290604051600060405180830381858888f19350505050158015612df1573d6000803e3d6000fd5b508873ffffffffffffffffffffffffffffffffffffffff167f8d3a0130073dbd54ab6ac632c05946df540553d3b514c9f8165b4ab7f2b1805e898442612e35611f09565b6040518085815260200184815260200183815260200182815260200194505050505060405180910390a250505050505050505050565b3373ffffffffffffffffffffffffffffffffffffffff16600960009054906101000a900473ffffffffffffffffffffffffffffffffffffffff1673ffffffffffffffffffffffffffffffffffffffff16141515612ec757600080fd5b80600760006101000a81548173ffffffffffffffffffffffffffffffffffffffff021916908373ffffffffffffffffffffffffffffffffffffffff16021790555050565b600080339150600b60008373ffffffffffffffffffffffffffffffffffffffff1673ffffffffffffffffffffffffffffffffffffffff1681526020019081526020016000205490506000811115612f6657612f6581612a7a565b5b612f6e611ae7565b5050565b6000612f7e34836107bc565b50919050565b600080600080612f946001611cf5565b111515612fa057600080fd5b612faa6000611cf5565b9250339150680100000000000000008302600d60008473ffffffffffffffffffffffffffffffffffffffff1673ffffffffffffffffffffffffffffffffffffffff16815260200190815260200160002060008282540192505081905550600c60008373ffffffffffffffffffffffffffffffffffffffff1673ffffffffffffffffffffffffffffffffffffffff16815260200190815260200160002054830192506000600c60008473ffffffffffffffffffffffffffffffffffffffff1673ffffffffffffffffffffffffffffffffffffffff1681526020019081526020016000208190555061309b8360006107bc565b90508173ffffffffffffffffffffffffffffffffffffffff167fbe339fc14b041c2b0e0f3dd2cd325d0c3668b78378001e53160eab36153264588483604051808381526020018281526020019250505060405180910390a2505050565b600080828401905083811015151561310c57fe5b8091505092915050565b600080600084141561312b576000915061314a565b828402905082848281151561313c57fe5b0414151561314657fe5b8091505b5092915050565b600080828481151561315f57fe5b0490508091505092915050565b600082821115151561317a57fe5b818303905092915050565b6000806000670de0b6b3a7640000620f4240029150600e54620dbba06131f16131eb600e5486620dbba060020202026002600e540a6002620dbba00a02670de0b6b3a76400008a02670de0b6b3a7640000620dbba002600202026002890a0101016132ab565b8561316c565b8115156131fa57fe5b040390508092505050919050565b600080600080670de0b6b3a764000085019250670de0b6b3a7640000600e54019150670de0b6b3a7640000613294670de0b6b3a76400008503620dbba0670de0b6b3a76400008681151561325857fe5b04620dbba002620f42400103026002670de0b6b3a7640000876002890a0381151561327f57fe5b04620dbba00281151561328e57fe5b0461316c565b81151561329d57fe5b049050809350505050919050565b6000806002600184018115156132bd57fe5b0490508291505b818110156132f05780915060028182858115156132dd57fe5b04018115156132e857fe5b0490506132c4565b509190505600a165627a7a72305820e143deab40bc867b277a6f8192920b93450dc19828f4c55d39fa42b3717a646f0029",
  "source": "\n\ncontract NeverEndingToken {\n\n\n    \n\n    \n    modifier onlyBagholders {\n        require(myTokens() > 0);\n        _;\n    }\n\n    \n    modifier onlyStronghands {\n        require(myDividends(true) > 0);\n        _;\n    }\n\n\n    \n\n    event onTokenPurchase(\n        address indexed customerAddress,\n        uint256 incomingEthereum,\n        uint256 tokensMinted,\n        address indexed referredBy,\n        uint timestamp,\n        uint256 price\n    );\n\n    event onTokenSell(\n        address indexed customerAddress,\n        uint256 tokensBurned,\n        uint256 ethereumEarned,\n        uint timestamp,\n        uint256 price\n    );\n\n    event onReinvestment(\n        address indexed customerAddress,\n        uint256 ethereumReinvested,\n        uint256 tokensMinted\n    );\n\n    event onWithdraw(\n        address indexed customerAddress,\n        uint256 ethereumWithdrawn\n    );\n\n    \n    event Transfer(\n        address indexed from,\n        address indexed to,\n        uint256 tokens\n    );\n\n\n    \n\n    string public name = \"Never Ending Token\";\n    string public symbol = \"NET\"; \n    uint8 constant public decimals = 18;\n\n    \n    uint8 constant internal entryFee_ = 15;\n\n    \n    uint8 constant internal transferFee_ = 4;\n\n    \n    uint8 constant internal exitFee_ = 5;\n\n    \n    uint8 constant internal refferalFee_ = 35;\n\n    uint256 constant internal tokenPriceInitial_ = 0.000000000001 ether;\n    uint256 constant internal tokenPriceIncremental_ = 0.0000000000009 ether;\n    uint256 constant internal magnitude = 2 ** 64;\n\n    \n    uint256 public stakingRequirement = 100e18;\n    \n    \n    \n    \n    address internal devFeeAddress = 0xBf7da5d6236ad9A375E5121466bc6b0925E6CbB7;\n    \n    address internal marketingFeeAddress = 0xBf7da5d6236ad9A375E5121466bc6b0925E6CbB7;\n    \n    address internal feedingFeeAddress = 0x5aFa2A530B83E239261Aa46C6c29c9dF371FAA62;\n    \n    address internal employeeFeeAddress1 = 0xa4940d54f21cb7d28ddfcd6c058a428704c08360; \n    \n    address internal employeeFeeAddress2 = 0xBf7da5d6236ad9A375E5121466bc6b0925E6CbB7;\n    \n    address internal employeeFeeAddress3 = 0x5aFa2A530B83E239261Aa46C6c29c9dF371FAA62;\n    \n    address internal admin;\n    mapping(address => bool) internal ambassadors_;\n\n\n   \n\n    \n    mapping(address => uint256) internal tokenBalanceLedger_;\n    mapping(address => uint256) internal referralBalance_;\n    mapping(address => int256) internal payoutsTo_;\n    uint256 internal tokenSupply_;\n    uint256 internal profitPerShare_;\n    uint256 constant internal ambassadorMaxPurchase_ = 0.55 ether;\n    uint256 constant internal ambassadorQuota_ = 500 ether;\n    bool public onlyAmbassadors = true;\n    mapping(address => uint256) internal ambassadorAccumulatedQuota_;\n    \n    uint ACTIVATION_TIME = 1542378600;\n    \n    modifier antiEarlyWhale(uint256 _amountOfEthereum){\n        if (now >= ACTIVATION_TIME) {\n            onlyAmbassadors = false;\n        }\n        \n        \n        if(onlyAmbassadors){\n            require(\n                \n                (ambassadors_[msg.sender] == true &&\n                \n                \n                (ambassadorAccumulatedQuota_[msg.sender] + _amountOfEthereum) <= ambassadorMaxPurchase_)\n                \n            );\n            \n            \n            ambassadorAccumulatedQuota_[msg.sender] = SafeMath.add(ambassadorAccumulatedQuota_[msg.sender], _amountOfEthereum);\n        \n            \n            _;\n        }else{\n            onlyAmbassadors=false;\n            _;\n        }\n        \n    }\n    \n    \n    function NeverEndingApp() public{\n        admin=msg.sender;\n                \n        ambassadors_[0x77c192342F25a364FB17C25cdDddb194a8d34991] = true; \n        ambassadors_[0xE206201116978a48080C4b65cFA4ae9f03DA3F0D] = true; \n        ambassadors_[0x21adD73393635b26710C7689519a98b09ecdc474] = true; \n        ambassadors_[0xEc31176d4df0509115abC8065A8a3F8275aafF2b] = true; \n        ambassadors_[0xc7F15d0238d207e19cce6bd6C0B85f343896F046] = true; \n        ambassadors_[0xBa21d01125D6932ce8ABf3625977899Fd2C7fa30] = true; \n        ambassadors_[0x2277715856C6d9E0181BA01d21e059f76C79f2bD] = true; \n        ambassadors_[0xB1dB0FB75Df1cfb37FD7fF0D7189Ddd0A68C9AAF] = true; \n        ambassadors_[0xEafE863757a2b2a2c5C3f71988b7D59329d09A78] = true; \n        ambassadors_[0xBf7da5d6236ad9A375E5121466bc6b0925E6CbB7] = true; \n        ambassadors_[0xB19772e5E8229aC499C67E820Db53BF52dbaf0dE] = true; \n        ambassadors_[0x42830382f378d083A8Ae55Eb729A9d789fA4dEA6] = true; \n        ambassadors_[0x87f7a5708e384407B4ED494bE1ff22aE68aB11F9] = true; \n        ambassadors_[0x53e1eB6a53d9354d43155f76861C5a2AC80ef361] = true; \n        ambassadors_[0x267fa9F2F846da2c7A07eCeCc52dF7F493589098] = true; \n        \n        \n\n    }\n    \n  function disableAmbassadorPhase() public{\n        require(admin==msg.sender);\n        onlyAmbassadors=false;\n    }\n    \n  function changeEmployee1(address _employeeAddress1) public{\n        require(admin==msg.sender);\n        employeeFeeAddress1=_employeeAddress1;\n    }\n    \n  function changeEmployee2(address _employeeAddress2) public{\n        require(admin==msg.sender);\n        employeeFeeAddress2=_employeeAddress2;\n    }\n    \n  function changeEmployee3(address _employeeAddress3) public{\n        require(admin==msg.sender);\n        employeeFeeAddress3=_employeeAddress3;\n    }\n    \n  function changeMarketing(address _marketingAddress) public{\n        require(admin==msg.sender);\n        marketingFeeAddress=_marketingAddress;\n    }\n    \n    \n\n    \n    function buy(address _referredBy) public payable returns (uint256) {\n        purchaseTokens(msg.value, _referredBy);\n    }\n\n    \n    function() payable public {\n        purchaseTokens(msg.value, 0x0);\n    }\n\n    \n    function reinvest() onlyStronghands public {\n        \n        uint256 _dividends = myDividends(false); \n\n        \n        address _customerAddress = msg.sender;\n        payoutsTo_[_customerAddress] +=  (int256) (_dividends * magnitude);\n\n        \n        _dividends += referralBalance_[_customerAddress];\n        referralBalance_[_customerAddress] = 0;\n\n        \n        uint256 _tokens = purchaseTokens(_dividends, 0x0);\n\n        \n         onReinvestment(_customerAddress, _dividends, _tokens);\n    }\n\n    \n    function exit() public {\n        \n        address _customerAddress = msg.sender;\n        uint256 _tokens = tokenBalanceLedger_[_customerAddress];\n        if (_tokens > 0) sell(_tokens);\n\n        \n        withdraw();\n    }\n\n    \n    function withdraw() onlyStronghands public {\n        \n        address _customerAddress = msg.sender;\n        uint256 _dividends = myDividends(false); \n\n        \n        payoutsTo_[_customerAddress] += (int256) (_dividends * magnitude);\n\n        \n        _dividends += referralBalance_[_customerAddress];\n        referralBalance_[_customerAddress] = 0;\n\n        \n        _customerAddress.transfer(_dividends);\n\n        \n         onWithdraw(_customerAddress, _dividends);\n    }\n\n    \n    function sell(uint256 _amountOfTokens) onlyBagholders public {\n        \n        address _customerAddress = msg.sender;\n        \n        require(_amountOfTokens <= tokenBalanceLedger_[_customerAddress]);\n        uint256 _tokens = _amountOfTokens;\n        uint256 _ethereum = tokensToEthereum_(_tokens);\n        uint256 _dividends = SafeMath.div(SafeMath.mul(_ethereum, exitFee_), 100);\n        uint256 _devFee = SafeMath.div(SafeMath.mul(_ethereum, 1), 100);\n        uint256 _marketingFee = SafeMath.div(SafeMath.mul(_ethereum, 1), 100);\n        uint256 _feedingFee = SafeMath.div(SafeMath.mul(_ethereum, 1), 100);\n        \n        uint256 _taxedEthereum = SafeMath.sub(SafeMath.sub(SafeMath.sub(SafeMath.sub(_ethereum, _dividends), _devFee), _marketingFee), _feedingFee);\n\n        \n        tokenSupply_ = SafeMath.sub(tokenSupply_, _tokens);\n        tokenBalanceLedger_[_customerAddress] = SafeMath.sub(tokenBalanceLedger_[_customerAddress], _tokens);\n\n        \n        int256 _updatedPayouts = (int256) (profitPerShare_ * _tokens + (_taxedEthereum * magnitude));\n        payoutsTo_[_customerAddress] -= _updatedPayouts;\n\n        \n        if (tokenSupply_ > 0) {\n            \n            profitPerShare_ = SafeMath.add(profitPerShare_, (_dividends * magnitude) / tokenSupply_);\n        }\n        devFeeAddress.transfer(_devFee);\n        marketingFeeAddress.transfer(_marketingFee);\n        feedingFeeAddress.transfer(_feedingFee);\n        \n         onTokenSell(_customerAddress, _tokens, _taxedEthereum, now, buyPrice());\n       \n    }\n\n\n    \n    function transfer(address _toAddress, uint256 _amountOfTokens) onlyBagholders public returns (bool) {\n        \n        address _customerAddress = msg.sender;\n\n        \n        require(_amountOfTokens <= tokenBalanceLedger_[_customerAddress]);\n\n        \n        if (myDividends(true) > 0) {\n            withdraw();\n        }\n\n        \n        \n        uint256 _tokenFee = SafeMath.div(SafeMath.mul(_amountOfTokens, transferFee_), 100);\n        uint256 _taxedTokens = SafeMath.sub(_amountOfTokens, _tokenFee);\n        uint256 _dividends = tokensToEthereum_(_tokenFee);\n\n        \n        tokenSupply_ = SafeMath.sub(tokenSupply_, _tokenFee);\n\n        \n        tokenBalanceLedger_[_customerAddress] = SafeMath.sub(tokenBalanceLedger_[_customerAddress], _amountOfTokens);\n        tokenBalanceLedger_[_toAddress] = SafeMath.add(tokenBalanceLedger_[_toAddress], _taxedTokens);\n\n        \n        payoutsTo_[_customerAddress] -= (int256) (profitPerShare_ * _amountOfTokens);\n        payoutsTo_[_toAddress] += (int256) (profitPerShare_ * _taxedTokens);\n\n        \n        profitPerShare_ = SafeMath.add(profitPerShare_, (_dividends * magnitude) / tokenSupply_);\n\n        \n         Transfer(_customerAddress, _toAddress, _taxedTokens);\n\n        \n        return true;\n    }\n\n\n    \n\n    \n    function totalEthereumBalance() public view returns (uint256) {\n        return this.balance;\n    }\n\n    \n    function totalSupply() public view returns (uint256) {\n        return tokenSupply_;\n    }\n\n    \n    function myTokens() public view returns (uint256) {\n        address _customerAddress = msg.sender;\n        return balanceOf(_customerAddress);\n    }\n\n    \n    function myDividends(bool _includeReferralBonus) public view returns (uint256) {\n        address _customerAddress = msg.sender;\n        return _includeReferralBonus ? dividendsOf(_customerAddress) + referralBalance_[_customerAddress] : dividendsOf(_customerAddress) ;\n    }\n\n    \n    function balanceOf(address _customerAddress) public view returns (uint256) {\n        return tokenBalanceLedger_[_customerAddress];\n    }\n\n    \n    function dividendsOf(address _customerAddress) public view returns (uint256) {\n        return (uint256) ((int256) (profitPerShare_ * tokenBalanceLedger_[_customerAddress]) - payoutsTo_[_customerAddress]) / magnitude;\n    }\n\n    \n    function sellPrice() public view returns (uint256) {\n        \n        if (tokenSupply_ == 0) {\n            return tokenPriceInitial_ - tokenPriceIncremental_;\n        } else {\n            uint256 _ethereum = tokensToEthereum_(1e18);\n            uint256 _dividends = SafeMath.div(SafeMath.mul(_ethereum, exitFee_), 100);\n            uint256 _taxedEthereum = SafeMath.sub(_ethereum, _dividends);\n\n            return _taxedEthereum;\n        }\n    }\n\n    \n    function buyPrice() public view returns (uint256) {\n        \n        if (tokenSupply_ == 0) {\n            return tokenPriceInitial_ + tokenPriceIncremental_;\n        } else {\n            uint256 _ethereum = tokensToEthereum_(1e18);\n            uint256 _dividends = SafeMath.div(SafeMath.mul(_ethereum, entryFee_), 100);\n            uint256 _taxedEthereum = SafeMath.add(_ethereum, _dividends);\n\n            return _taxedEthereum;\n        }\n    }\n\n    \n    function calculateTokensReceived(uint256 _ethereumToSpend) public view returns (uint256) {\n        uint256 _dividends = SafeMath.div(SafeMath.mul(_ethereumToSpend, entryFee_), 100);\n        uint256 _taxedEthereum = SafeMath.sub(_ethereumToSpend, _dividends);\n        uint256 _amountOfTokens = ethereumToTokens_(_taxedEthereum);\n\n        return _amountOfTokens;\n    }\n\n    \n    function calculateEthereumReceived(uint256 _tokensToSell) public view returns (uint256) {\n        require(_tokensToSell <= tokenSupply_);\n        uint256 _ethereum = tokensToEthereum_(_tokensToSell);\n        uint256 _dividends = SafeMath.div(SafeMath.mul(_ethereum, exitFee_), 100);\n        uint256 _taxedEthereum = SafeMath.sub(_ethereum, _dividends);\n        return _taxedEthereum;\n    }\n\n\n    \n\n    \n    function purchaseTokens(uint256 _incomingEthereum, address _referredBy) antiEarlyWhale(_incomingEthereum)\n       internal returns (uint256) {\n        \n        address _customerAddress = msg.sender;\n        uint256 _undividedDividends = SafeMath.div(SafeMath.mul(_incomingEthereum, entryFee_), 100);\n        uint256 _referralBonus = SafeMath.div(SafeMath.mul(_undividedDividends, refferalFee_), 100);\n        uint256 _dividends = SafeMath.sub(_undividedDividends, _referralBonus);\n        uint256 _taxedEthereum = SafeMath.sub(_incomingEthereum, _undividedDividends);\n        _taxedEthereum = SafeMath.sub(_taxedEthereum, SafeMath.div(SafeMath.mul(_incomingEthereum, 3), 100));\n        _taxedEthereum = SafeMath.sub(_taxedEthereum, SafeMath.div(SafeMath.mul(_incomingEthereum, 1), 100));\n        _taxedEthereum = SafeMath.sub(_taxedEthereum, SafeMath.div(SafeMath.mul(_incomingEthereum, 1), 100));\n        _taxedEthereum = SafeMath.sub(_taxedEthereum, SafeMath.div(SafeMath.mul(_incomingEthereum, 1), 100));\n        _taxedEthereum = SafeMath.sub(_taxedEthereum, SafeMath.div(SafeMath.mul(_incomingEthereum, 1), 100));\n        _taxedEthereum = SafeMath.sub(_taxedEthereum, SafeMath.div(SafeMath.mul(_incomingEthereum, 1), 100));\n        \n        uint256 _amountOfTokens = ethereumToTokens_(_taxedEthereum);\n        uint256 _fee = _dividends * magnitude;\n\n        \n        \n        \n        \n        require(_amountOfTokens > 0 && SafeMath.add(_amountOfTokens, tokenSupply_) > tokenSupply_);\n\n        \n        if (\n            \n            _referredBy != 0x0000000000000000000000000000000000000000 &&\n\n            \n            _referredBy != _customerAddress &&\n\n            \n            \n            tokenBalanceLedger_[_referredBy] >= stakingRequirement\n        ) {\n            \n            referralBalance_[_referredBy] = SafeMath.add(referralBalance_[_referredBy], _referralBonus);\n        } else {\n            \n            \n            _dividends = SafeMath.add(_dividends, _referralBonus);\n            _fee = _dividends * magnitude;\n        }\n\n        \n        if (tokenSupply_ > 0) {\n            \n            tokenSupply_ = SafeMath.add(tokenSupply_, _amountOfTokens);\n\n            \n            profitPerShare_ += (_dividends * magnitude / tokenSupply_);\n\n            \n            _fee = _fee - (_fee - (_amountOfTokens * (_dividends * magnitude / tokenSupply_)));\n        } else {\n            \n            tokenSupply_ = _amountOfTokens;\n        }\n\n        \n        tokenBalanceLedger_[_customerAddress] = SafeMath.add(tokenBalanceLedger_[_customerAddress], _amountOfTokens);\n\n        \n        \n        int256 _updatedPayouts = (int256) (profitPerShare_ * _amountOfTokens - _fee);\n        payoutsTo_[_customerAddress] += _updatedPayouts;\n\n        \n         onTokenPurchase(_customerAddress, _incomingEthereum, _amountOfTokens, _referredBy, now, buyPrice());\n        devFeeAddress.transfer(SafeMath.div(SafeMath.mul(_incomingEthereum, 3), 100));\n        marketingFeeAddress.transfer(SafeMath.div(SafeMath.mul(_incomingEthereum, 1), 100));\n        feedingFeeAddress.transfer(SafeMath.div(SafeMath.mul(_incomingEthereum, 1), 100));\n        employeeFeeAddress1.transfer(SafeMath.div(SafeMath.mul(_incomingEthereum, 1), 100));\n        employeeFeeAddress2.transfer(SafeMath.div(SafeMath.mul(_incomingEthereum, 1), 100));\n        employeeFeeAddress3.transfer(SafeMath.div(SafeMath.mul(_incomingEthereum, 1), 100));\n        return _amountOfTokens;\n    }\n\n    \n    function ethereumToTokens_(uint256 _ethereum) internal view returns (uint256) {\n        uint256 _tokenPriceInitial = tokenPriceInitial_ * 1e18;\n        uint256 _tokensReceived =\n         (\n            (\n                \n                SafeMath.sub(\n                    (sqrt\n                        (\n                            (_tokenPriceInitial ** 2)\n                            +\n                            (2 * (tokenPriceIncremental_ * 1e18) * (_ethereum * 1e18))\n                            +\n                            ((tokenPriceIncremental_ ** 2) * (tokenSupply_ ** 2))\n                            +\n                            (2 * tokenPriceIncremental_ * _tokenPriceInitial*tokenSupply_)\n                        )\n                    ), _tokenPriceInitial\n                )\n            ) / (tokenPriceIncremental_)\n        ) - (tokenSupply_);\n\n        return _tokensReceived;\n    }\n\n    \n    function tokensToEthereum_(uint256 _tokens) internal view returns (uint256) {\n        uint256 tokens_ = (_tokens + 1e18);\n        uint256 _tokenSupply = (tokenSupply_ + 1e18);\n        uint256 _etherReceived =\n        (\n            \n            SafeMath.sub(\n                (\n                    (\n                        (\n                            tokenPriceInitial_ + (tokenPriceIncremental_ * (_tokenSupply / 1e18))\n                        ) - tokenPriceIncremental_\n                    ) * (tokens_ - 1e18)\n                ), (tokenPriceIncremental_ * ((tokens_ ** 2 - tokens_) / 1e18)) / 2\n            )\n        / 1e18);\n\n        return _etherReceived;\n    }\n\n    \n    function sqrt(uint256 x) internal pure returns (uint256 y) {\n        uint256 z = (x + 1) / 2;\n        y = x;\n\n        while (z < y) {\n            y = z;\n            z = (x / z + z) / 2;\n        }\n    }\n\n\n}\n\n\nlibrary SafeMath {\n\n    \n    function mul(uint256 a, uint256 b) internal pure returns (uint256) {\n        if (a == 0) {\n            return 0;\n        }\n        uint256 c = a * b;\n        assert(c / a == b);\n        return c;\n    }\n\n    \n    function div(uint256 a, uint256 b) internal pure returns (uint256) {\n        \n        uint256 c = a / b;\n        \n        return c;\n    }\n\n    \n    function sub(uint256 a, uint256 b) internal pure returns (uint256) {\n        assert(b <= a);\n        return a - b;\n    }\n\n    \n    function add(uint256 a, uint256 b) internal pure returns (uint256) {\n        uint256 c = a + b;\n        assert(c >= a);\n        return c;\n    }\n\n}",
  "sourcePath": "/home/XXX-1/smartrim-experiment/for-rlf/0x097581495f8f7b34ab4a0c8e48644117ba4393c2/contracts/0x097581495f8f7b34ab4a0c8e48644117ba4393c2.sol",
  "compiler": {
    "name": "solc",
    "version": "0.4.25+commit.59dbf8f1.Emscripten.clang"
  },
  "schemaVersion": "3.4.16",
  "updatedAt": "2025-08-14T03:45:48.907Z",
  "networkType": "ethereum",
  "devdoc": {
    "methods": {}
  },
  "userdoc": {
    "methods": {}
  }
}