{
  "contractName": "OneEther",
  "abi": [
    {
      "constant": true,
      "inputs": [
        {
          "name": "",
          "type": "address"
        }
      ],
      "name": "pIDAddr_",
      "outputs": [
        {
          "name": "",
          "type": "uint256"
        }
      ],
      "payable": false,
      "stateMutability": "view",
      "type": "function"
    },
    {
      "constant": true,
      "inputs": [
        {
          "name": "",
          "type": "uint256"
        }
      ],
      "name": "bIDBet_",
      "outputs": [
        {
          "name": "bID",
          "type": "uint256"
        },
        {
          "name": "owner",
          "type": "address"
        },
        {
          "name": "check",
          "type": "uint256"
        },
        {
          "name": "unit",
          "type": "uint256"
        },
        {
          "name": "isActivated",
          "type": "bool"
        }
      ],
      "payable": false,
      "stateMutability": "view",
      "type": "function"
    },
    {
      "constant": true,
      "inputs": [
        {
          "name": "",
          "type": "uint256"
        }
      ],
      "name": "rIDBet_",
      "outputs": [
        {
          "name": "rID",
          "type": "uint256"
        },
        {
          "name": "bID",
          "type": "uint256"
        },
        {
          "name": "total",
          "type": "uint256"
        },
        {
          "name": "current",
          "type": "uint256"
        },
        {
          "name": "ethAmount",
          "type": "uint256"
        },
        {
          "name": "maskHash",
          "type": "bytes32"
        },
        {
          "name": "playerCode",
          "type": "uint256"
        }
      ],
      "payable": false,
      "stateMutability": "view",
      "type": "function"
    },
    {
      "constant": true,
      "inputs": [
        {
          "name": "",
          "type": "uint256"
        }
      ],
      "name": "bIDrID_",
      "outputs": [
        {
          "name": "",
          "type": "uint256"
        }
      ],
      "payable": false,
      "stateMutability": "view",
      "type": "function"
    },
    {
      "constant": true,
      "inputs": [],
      "name": "pID",
      "outputs": [
        {
          "name": "",
          "type": "uint256"
        }
      ],
      "payable": false,
      "stateMutability": "view",
      "type": "function"
    },
    {
      "constant": true,
      "inputs": [],
      "name": "bID",
      "outputs": [
        {
          "name": "",
          "type": "uint256"
        }
      ],
      "payable": false,
      "stateMutability": "view",
      "type": "function"
    },
    {
      "constant": true,
      "inputs": [],
      "name": "rID",
      "outputs": [
        {
          "name": "",
          "type": "uint256"
        }
      ],
      "payable": false,
      "stateMutability": "view",
      "type": "function"
    },
    {
      "constant": true,
      "inputs": [],
      "name": "NAME",
      "outputs": [
        {
          "name": "",
          "type": "bytes32"
        }
      ],
      "payable": false,
      "stateMutability": "view",
      "type": "function"
    },
    {
      "constant": true,
      "inputs": [],
      "name": "linkPrice_",
      "outputs": [
        {
          "name": "",
          "type": "uint256"
        }
      ],
      "payable": false,
      "stateMutability": "view",
      "type": "function"
    },
    {
      "constant": true,
      "inputs": [
        {
          "name": "",
          "type": "uint256"
        }
      ],
      "name": "bIDList_",
      "outputs": [
        {
          "name": "",
          "type": "uint256"
        }
      ],
      "payable": false,
      "stateMutability": "view",
      "type": "function"
    },
    {
      "constant": true,
      "inputs": [
        {
          "name": "",
          "type": "uint256"
        },
        {
          "name": "",
          "type": "uint256"
        }
      ],
      "name": "betList_",
      "outputs": [
        {
          "name": "start",
          "type": "uint256"
        },
        {
          "name": "end",
          "type": "uint256"
        },
        {
          "name": "pID",
          "type": "uint256"
        }
      ],
      "payable": false,
      "stateMutability": "view",
      "type": "function"
    },
    {
      "constant": true,
      "inputs": [
        {
          "name": "",
          "type": "uint256"
        }
      ],
      "name": "pIDPlayer_",
      "outputs": [
        {
          "name": "addr",
          "type": "address"
        },
        {
          "name": "balance",
          "type": "uint256"
        },
        {
          "name": "invator",
          "type": "uint256"
        },
        {
          "name": "agent",
          "type": "uint256"
        }
      ],
      "payable": false,
      "stateMutability": "view",
      "type": "function"
    },
    {
      "constant": true,
      "inputs": [],
      "name": "activated_",
      "outputs": [
        {
          "name": "",
          "type": "bool"
        }
      ],
      "payable": false,
      "stateMutability": "view",
      "type": "function"
    },
    {
      "constant": true,
      "inputs": [
        {
          "name": "",
          "type": "uint256"
        }
      ],
      "name": "pIDAgent_",
      "outputs": [
        {
          "name": "",
          "type": "address"
        }
      ],
      "payable": false,
      "stateMutability": "view",
      "type": "function"
    },
    {
      "constant": true,
      "inputs": [],
      "name": "SYMBOL",
      "outputs": [
        {
          "name": "",
          "type": "bytes32"
        }
      ],
      "payable": false,
      "stateMutability": "view",
      "type": "function"
    },
    {
      "inputs": [],
      "payable": false,
      "stateMutability": "nonpayable",
      "type": "constructor"
    },
    {
      "anonymous": false,
      "inputs": [
        {
          "indexed": true,
          "name": "bID",
          "type": "uint256"
        },
        {
          "indexed": false,
          "name": "owner",
          "type": "address"
        },
        {
          "indexed": false,
          "name": "check",
          "type": "uint256"
        },
        {
          "indexed": false,
          "name": "unit",
          "type": "uint256"
        },
        {
          "indexed": false,
          "name": "recordTime",
          "type": "uint256"
        }
      ],
      "name": "onOpenNewBet",
      "type": "event"
    },
    {
      "anonymous": false,
      "inputs": [
        {
          "indexed": true,
          "name": "bID",
          "type": "uint256"
        },
        {
          "indexed": false,
          "name": "owner",
          "type": "address"
        },
        {
          "indexed": false,
          "name": "check",
          "type": "uint256"
        },
        {
          "indexed": false,
          "name": "unit",
          "type": "uint256"
        },
        {
          "indexed": false,
          "name": "recordTime",
          "type": "uint256"
        }
      ],
      "name": "onEditBet",
      "type": "event"
    },
    {
      "anonymous": false,
      "inputs": [
        {
          "indexed": true,
          "name": "bID",
          "type": "uint256"
        },
        {
          "indexed": true,
          "name": "rID",
          "type": "uint256"
        },
        {
          "indexed": false,
          "name": "total",
          "type": "uint256"
        },
        {
          "indexed": false,
          "name": "current",
          "type": "uint256"
        },
        {
          "indexed": false,
          "name": "ethAmount",
          "type": "uint256"
        },
        {
          "indexed": false,
          "name": "recordTime",
          "type": "uint256"
        }
      ],
      "name": "onOpenNewRound",
      "type": "event"
    },
    {
      "anonymous": false,
      "inputs": [
        {
          "indexed": false,
          "name": "rID",
          "type": "uint256"
        },
        {
          "indexed": false,
          "name": "hashmask",
          "type": "bytes32"
        }
      ],
      "name": "RoundMask",
      "type": "event"
    },
    {
      "anonymous": false,
      "inputs": [
        {
          "indexed": true,
          "name": "rID",
          "type": "uint256"
        },
        {
          "indexed": false,
          "name": "winner",
          "type": "address"
        },
        {
          "indexed": false,
          "name": "reward",
          "type": "uint256"
        },
        {
          "indexed": false,
          "name": "teamFee",
          "type": "uint256"
        },
        {
          "indexed": false,
          "name": "scretNumber",
          "type": "uint256"
        },
        {
          "indexed": false,
          "name": "randomNumber",
          "type": "uint256"
        },
        {
          "indexed": false,
          "name": "recordTime",
          "type": "uint256"
        }
      ],
      "name": "onReveal",
      "type": "event"
    },
    {
      "anonymous": false,
      "inputs": [
        {
          "indexed": true,
          "name": "bID",
          "type": "uint256"
        },
        {
          "indexed": true,
          "name": "rID",
          "type": "uint256"
        },
        {
          "indexed": false,
          "name": "playerAddress",
          "type": "address"
        },
        {
          "indexed": false,
          "name": "amount",
          "type": "uint256"
        },
        {
          "indexed": false,
          "name": "key",
          "type": "uint256"
        },
        {
          "indexed": false,
          "name": "playerCode",
          "type": "uint256"
        },
        {
          "indexed": false,
          "name": "invator",
          "type": "uint256"
        },
        {
          "indexed": false,
          "name": "recordTime",
          "type": "uint256"
        }
      ],
      "name": "onBuyBet",
      "type": "event"
    },
    {
      "anonymous": false,
      "inputs": [
        {
          "indexed": true,
          "name": "bID",
          "type": "uint256"
        },
        {
          "indexed": true,
          "name": "rID",
          "type": "uint256"
        },
        {
          "indexed": false,
          "name": "totalKey",
          "type": "uint256"
        },
        {
          "indexed": false,
          "name": "currentKey",
          "type": "uint256"
        },
        {
          "indexed": false,
          "name": "lastUpdate",
          "type": "uint256"
        }
      ],
      "name": "onRoundUpdate",
      "type": "event"
    },
    {
      "anonymous": false,
      "inputs": [
        {
          "indexed": true,
          "name": "bID",
          "type": "uint256"
        },
        {
          "indexed": true,
          "name": "rID",
          "type": "uint256"
        },
        {
          "indexed": false,
          "name": "lastUpdate",
          "type": "uint256"
        }
      ],
      "name": "onRoundEnd",
      "type": "event"
    },
    {
      "anonymous": false,
      "inputs": [
        {
          "indexed": true,
          "name": "playerID",
          "type": "uint256"
        },
        {
          "indexed": true,
          "name": "playerAddress",
          "type": "address"
        },
        {
          "indexed": false,
          "name": "ethOut",
          "type": "uint256"
        },
        {
          "indexed": false,
          "name": "recordTime",
          "type": "uint256"
        }
      ],
      "name": "onWithdraw",
      "type": "event"
    },
    {
      "anonymous": false,
      "inputs": [
        {
          "indexed": true,
          "name": "playerID",
          "type": "uint256"
        },
        {
          "indexed": true,
          "name": "rID",
          "type": "uint256"
        },
        {
          "indexed": false,
          "name": "ethIn",
          "type": "uint256"
        },
        {
          "indexed": false,
          "name": "recordTime",
          "type": "uint256"
        }
      ],
      "name": "onBuyFailed",
      "type": "event"
    },
    {
      "constant": false,
      "inputs": [],
      "name": "activate",
      "outputs": [],
      "payable": false,
      "stateMutability": "nonpayable",
      "type": "function"
    },
    {
      "constant": false,
      "inputs": [],
      "name": "close",
      "outputs": [],
      "payable": false,
      "stateMutability": "nonpayable",
      "type": "function"
    },
    {
      "constant": false,
      "inputs": [
        {
          "name": "_addr",
          "type": "address"
        }
      ],
      "name": "setNewAdmin",
      "outputs": [],
      "payable": false,
      "stateMutability": "nonpayable",
      "type": "function"
    },
    {
      "constant": false,
      "inputs": [
        {
          "name": "_owner",
          "type": "address"
        },
        {
          "name": "_check",
          "type": "uint256"
        },
        {
          "name": "_unit",
          "type": "uint256"
        }
      ],
      "name": "openNewBet",
      "outputs": [],
      "payable": false,
      "stateMutability": "nonpayable",
      "type": "function"
    },
    {
      "constant": false,
      "inputs": [
        {
          "name": "_bID",
          "type": "uint256"
        },
        {
          "name": "_maskHash",
          "type": "bytes32"
        }
      ],
      "name": "openFirstRound",
      "outputs": [],
      "payable": false,
      "stateMutability": "nonpayable",
      "type": "function"
    },
    {
      "constant": false,
      "inputs": [
        {
          "name": "_bID",
          "type": "uint256"
        }
      ],
      "name": "closeBet",
      "outputs": [],
      "payable": false,
      "stateMutability": "nonpayable",
      "type": "function"
    },
    {
      "constant": false,
      "inputs": [
        {
          "name": "_bID",
          "type": "uint256"
        }
      ],
      "name": "openBet",
      "outputs": [],
      "payable": false,
      "stateMutability": "nonpayable",
      "type": "function"
    },
    {
      "constant": false,
      "inputs": [
        {
          "name": "_bID",
          "type": "uint256"
        },
        {
          "name": "_check",
          "type": "uint256"
        },
        {
          "name": "_unit",
          "type": "uint256"
        }
      ],
      "name": "editBet",
      "outputs": [],
      "payable": false,
      "stateMutability": "nonpayable",
      "type": "function"
    },
    {
      "constant": false,
      "inputs": [],
      "name": "withdrawFee",
      "outputs": [],
      "payable": false,
      "stateMutability": "nonpayable",
      "type": "function"
    },
    {
      "constant": false,
      "inputs": [
        {
          "name": "_addr",
          "type": "address"
        }
      ],
      "name": "registAgent",
      "outputs": [],
      "payable": false,
      "stateMutability": "nonpayable",
      "type": "function"
    },
    {
      "constant": false,
      "inputs": [
        {
          "name": "_addr",
          "type": "address"
        }
      ],
      "name": "resetAgent",
      "outputs": [],
      "payable": false,
      "stateMutability": "nonpayable",
      "type": "function"
    },
    {
      "constant": false,
      "inputs": [
        {
          "name": "_rID",
          "type": "uint256"
        },
        {
          "name": "_key",
          "type": "uint256"
        },
        {
          "name": "_playerCode",
          "type": "uint256"
        },
        {
          "name": "_linkPID",
          "type": "uint256"
        },
        {
          "name": "_agent",
          "type": "uint256"
        }
      ],
      "name": "buySome",
      "outputs": [],
      "payable": true,
      "stateMutability": "payable",
      "type": "function"
    },
    {
      "constant": false,
      "inputs": [
        {
          "name": "_rID",
          "type": "uint256"
        },
        {
          "name": "_key",
          "type": "uint256"
        },
        {
          "name": "_playerCode",
          "type": "uint256"
        }
      ],
      "name": "buyWithBalance",
      "outputs": [],
      "payable": true,
      "stateMutability": "payable",
      "type": "function"
    },
    {
      "constant": false,
      "inputs": [
        {
          "name": "_rID",
          "type": "uint256"
        },
        {
          "name": "_scretKey",
          "type": "uint256"
        },
        {
          "name": "_maskHash",
          "type": "bytes32"
        }
      ],
      "name": "reveal",
      "outputs": [],
      "payable": false,
      "stateMutability": "nonpayable",
      "type": "function"
    },
    {
      "constant": true,
      "inputs": [
        {
          "name": "_addr",
          "type": "address"
        }
      ],
      "name": "getPlayerByAddr",
      "outputs": [
        {
          "name": "",
          "type": "uint256"
        },
        {
          "name": "",
          "type": "uint256"
        }
      ],
      "payable": false,
      "stateMutability": "view",
      "type": "function"
    },
    {
      "constant": true,
      "inputs": [
        {
          "name": "_rID",
          "type": "uint256"
        }
      ],
      "name": "getRoundInfoByID",
      "outputs": [
        {
          "name": "",
          "type": "uint256"
        },
        {
          "name": "",
          "type": "uint256"
        },
        {
          "name": "",
          "type": "uint256"
        },
        {
          "name": "",
          "type": "uint256"
        },
        {
          "name": "",
          "type": "uint256"
        },
        {
          "name": "",
          "type": "bytes32"
        },
        {
          "name": "",
          "type": "uint256"
        }
      ],
      "payable": false,
      "stateMutability": "view",
      "type": "function"
    },
    {
      "constant": true,
      "inputs": [
        {
          "name": "_bID",
          "type": "uint256"
        }
      ],
      "name": "getBetInfoByID",
      "outputs": [
        {
          "name": "",
          "type": "uint256"
        },
        {
          "name": "",
          "type": "uint256"
        },
        {
          "name": "",
          "type": "address"
        },
        {
          "name": "",
          "type": "uint256"
        },
        {
          "name": "",
          "type": "uint256"
        },
        {
          "name": "",
          "type": "bool"
        }
      ],
      "payable": false,
      "stateMutability": "view",
      "type": "function"
    },
    {
      "constant": true,
      "inputs": [],
      "name": "getBIDList",
      "outputs": [
        {
          "name": "",
          "type": "uint256[]"
        }
      ],
      "payable": false,
      "stateMutability": "view",
      "type": "function"
    },
    {
      "constant": true,
      "inputs": [
        {
          "name": "_addr",
          "type": "address"
        }
      ],
      "name": "getAgent",
      "outputs": [
        {
          "name": "",
          "type": "uint256"
        }
      ],
      "payable": false,
      "stateMutability": "view",
      "type": "function"
    },
    {
      "constant": false,
      "inputs": [],
      "name": "withdraw",
      "outputs": [],
      "payable": false,
      "stateMutability": "nonpayable",
      "type": "function"
    }
  ],
  "bytecode": "0x6080604052336000806101000a81548173ffffffffffffffffffffffffffffffffffffffff021916908373ffffffffffffffffffffffffffffffffffffffff16021790555033600160006101000a81548173ffffffffffffffffffffffffffffffffffffffff021916908373ffffffffffffffffffffffffffffffffffffffff160217905550662386f26fc100006002556000600360006101000a81548160ff0219169083151502179055506000600455600a60055560646006556103e86007553480156100cc57600080fd5b50614c57806100dc6000396000f3006080604052600436106101b7576000357c0100000000000000000000000000000000000000000000000000000000900463ffffffff16806304b70576146101bc5780630f15f4c0146101ff57806310db48be146102165780631bf498b61461026d578063331b7698146102b05780633ccfd60b1461033d57806343d726d6146103545780634b8f74161461036b5780634baa39be146103de5780634ead47711461041f57806359c281da1461048b5780635c57190c146104c657806361d49ea8146105075780636de0b3751461054c578063717ab112146105795780638eec99c8146105a457806396b15c0b146105e75780639b6ed77714610612578063a1804e671461063d578063a24beff714610671578063a3f4df7e1461069e578063a654ecd5146106d1578063b78ce8ee146106fc578063bbc6df301461073d578063c3031fac146107b0578063c77c00f814610809578063c81c198c14610860578063c8cfb032146108e2578063cf53d63014610940578063d53b2679146109d4578063e941fa7814610a03578063f2ba26b914610a1a578063f4514ca614610a87578063f76f8d7814610acf578063fb3551ff14610b02575b600080fd5b3480156101c857600080fd5b506101fd600480360381019080803573ffffffffffffffffffffffffffffffffffffffff169060200190929190505050610b59565b005b34801561020b57600080fd5b50610214610cc4565b005b34801561022257600080fd5b50610257600480360381019080803573ffffffffffffffffffffffffffffffffffffffff169060200190929190505050610e31565b6040518082815260200191505060405180910390f35b34801561027957600080fd5b506102ae600480360381019080803573ffffffffffffffffffffffffffffffffffffffff169060200190929190505050610e49565b005b3480156102bc57600080fd5b506102db600480360381019080803590602001909291905050506110f6565b604051808681526020018573ffffffffffffffffffffffffffffffffffffffff1673ffffffffffffffffffffffffffffffffffffffff168152602001848152602001838152602001821515151581526020019550505050505060405180910390f35b34801561034957600080fd5b50610352611159565b005b34801561036057600080fd5b50610369611395565b005b34801561037757600080fd5b5061039660048036038101908080359060200190929190505050611502565b60405180888152602001878152602001868152602001858152602001848152602001836000191660001916815260200182815260200197505050505050505060405180910390f35b3480156103ea57600080fd5b5061041d600480360381019080803590602001909291908035906020019092919080359060200190929190505050611544565b005b34801561042b57600080fd5b506104346118ca565b6040518080602001828103825283818151815260200191508051906020019060200280838360005b8381101561047757808201518184015260208101905061045c565b505050509050019250505060405180910390f35b34801561049757600080fd5b506104c4600480360381019080803590602001909291908035600019169060200190929190505050611922565b005b3480156104d257600080fd5b506104f160048036038101908080359060200190929190505050611c81565b6040518082815260200191505060405180910390f35b34801561051357600080fd5b5061054a60048036038101908080359060200190929190803590602001909291908035600019169060200190929190505050611c99565b005b34801561055857600080fd5b5061057760048036038101908080359060200190929190505050612407565b005b34801561058557600080fd5b5061058e6126dd565b6040518082815260200191505060405180910390f35b3480156105b057600080fd5b506105e5600480360381019080803573ffffffffffffffffffffffffffffffffffffffff1690602001909291905050506126e3565b005b3480156105f357600080fd5b506105fc612782565b6040518082815260200191505060405180910390f35b34801561061e57600080fd5b50610627612788565b6040518082815260200191505060405180910390f35b61066f60048036038101908080359060200190929190803590602001909291908035906020019092919050505061278e565b005b34801561067d57600080fd5b5061069c60048036038101908080359060200190929190505050612f11565b005b3480156106aa57600080fd5b506106b3613145565b60405180826000191660001916815260200191505060405180910390f35b3480156106dd57600080fd5b506106e6613169565b6040518082815260200191505060405180910390f35b34801561070857600080fd5b506107276004803603810190808035906020019092919050505061316f565b6040518082815260200191505060405180910390f35b34801561074957600080fd5b5061076860048036038101908080359060200190929190505050613192565b60405180888152602001878152602001868152602001858152602001848152602001836000191660001916815260200182815260200197505050505050505060405180910390f35b3480156107bc57600080fd5b506107e56004803603810190808035906020019092919080359060200190929190505050613257565b60405180848152602001838152602001828152602001935050505060405180910390f35b34801561081557600080fd5b5061085e600480360381019080803573ffffffffffffffffffffffffffffffffffffffff169060200190929190803590602001909291908035906020019092919050505061329d565b005b34801561086c57600080fd5b5061088b60048036038101908080359060200190929190505050613793565b604051808573ffffffffffffffffffffffffffffffffffffffff1673ffffffffffffffffffffffffffffffffffffffff16815260200184815260200183815260200182815260200194505050505060405180910390f35b3480156108ee57600080fd5b50610923600480360381019080803573ffffffffffffffffffffffffffffffffffffffff1690602001909291905050506137e3565b604051808381526020018281526020019250505060405180910390f35b34801561094c57600080fd5b5061096b6004803603810190808035906020019092919050505061384c565b604051808781526020018681526020018573ffffffffffffffffffffffffffffffffffffffff1673ffffffffffffffffffffffffffffffffffffffff16815260200184815260200183815260200182151515158152602001965050505050505060405180910390f35b3480156109e057600080fd5b506109e961391e565b604051808215151515815260200191505060405180910390f35b348015610a0f57600080fd5b50610a18613931565b005b348015610a2657600080fd5b50610a4560048036038101908080359060200190929190505050613a4f565b604051808273ffffffffffffffffffffffffffffffffffffffff1673ffffffffffffffffffffffffffffffffffffffff16815260200191505060405180910390f35b610acd6004803603810190808035906020019092919080359060200190929190803590602001909291908035906020019092919080359060200190929190505050613a82565b005b348015610adb57600080fd5b50610ae46140e4565b60405180826000191660001916815260200191505060405180910390f35b348015610b0e57600080fd5b50610b43600480360381019080803573ffffffffffffffffffffffffffffffffffffffff169060200190929190505050614108565b6040518082815260200191505060405180910390f35b6000600160009054906101000a900473ffffffffffffffffffffffffffffffffffffffff1673ffffffffffffffffffffffffffffffffffffffff163373ffffffffffffffffffffffffffffffffffffffff16141515610c20576040517f08c379a000000000000000000000000000000000000000000000000000000000815260040180806020018281038252601d8152602001807f6974732063616e206f6e6c792062652063616c6c2062792061646d696e00000081525060200191505060405180910390fd5b600860008373ffffffffffffffffffffffffffffffffffffffff1673ffffffffffffffffffffffffffffffffffffffff168152602001908152602001600020549050600081141515610cc0576000600e600083815260200190815260200160002060006101000a81548173ffffffffffffffffffffffffffffffffffffffff021916908373ffffffffffffffffffffffffffffffffffffffff1602179055505b5050565b600160009054906101000a900473ffffffffffffffffffffffffffffffffffffffff1673ffffffffffffffffffffffffffffffffffffffff163373ffffffffffffffffffffffffffffffffffffffff16141515610d89576040517f08c379a000000000000000000000000000000000000000000000000000000000815260040180806020018281038252601d8152602001807f6974732063616e206f6e6c792062652063616c6c2062792061646d696e00000081525060200191505060405180910390fd5b60001515600360009054906101000a900460ff161515141515610e14576040517f08c379a00000000000000000000000000000000000000000000000000000000081526004018080602001828103825260138152602001807f7468652067616d652069732072756e6e696e670000000000000000000000000081525060200191505060405180910390fd5b6001600360006101000a81548160ff021916908315150217905550565b60086020528060005260406000206000915090505481565b6000600160009054906101000a900473ffffffffffffffffffffffffffffffffffffffff1673ffffffffffffffffffffffffffffffffffffffff163373ffffffffffffffffffffffffffffffffffffffff16141515610f10576040517f08c379a000000000000000000000000000000000000000000000000000000000815260040180806020018281038252601d8152602001807f6974732063616e206f6e6c792062652063616c6c2062792061646d696e00000081525060200191505060405180910390fd5b600860008373ffffffffffffffffffffffffffffffffffffffff1673ffffffffffffffffffffffffffffffffffffffff168152602001908152602001600020549050600081141561109f57600660008154809291906001019190505550600654600860008473ffffffffffffffffffffffffffffffffffffffff1673ffffffffffffffffffffffffffffffffffffffff1681526020019081526020016000208190555081600c6000600654815260200190815260200160002060000160006101000a81548173ffffffffffffffffffffffffffffffffffffffff021916908373ffffffffffffffffffffffffffffffffffffffff1602179055506000600c60006006548152602001908152602001600020600101819055506000600c600060065481526020019081526020016000206003018190555081600e6000600654815260200190815260200160002060006101000a81548173ffffffffffffffffffffffffffffffffffffffff021916908373ffffffffffffffffffffffffffffffffffffffff1602179055506110f2565b81600e600083815260200190815260200160002060006101000a81548173ffffffffffffffffffffffffffffffffffffffff021916908373ffffffffffffffffffffffffffffffffffffffff1602179055505b5050565b60096020528060005260406000206000915090508060000154908060010160009054906101000a900473ffffffffffffffffffffffffffffffffffffffff16908060020154908060030154908060040160009054906101000a900460ff16905085565b600080600060011515600360009054906101000a900460ff1615151415156111e9576040517f08c379a00000000000000000000000000000000000000000000000000000000081526004018080602001828103825260138152602001807f697473206e6f74207265616479207965742e200000000000000000000000000081525060200191505060405180910390fd5b429250600860003373ffffffffffffffffffffffffffffffffffffffff1673ffffffffffffffffffffffffffffffffffffffff16815260200190815260200160002054915060008214151561139057611241826141c5565b90506000811115156112bb576040517f08c379a00000000000000000000000000000000000000000000000000000000081526004018080602001828103825260138152602001807f6e6f20616e792062616c616e6365206c6566740000000000000000000000000081525060200191505060405180910390fd5b600c600083815260200190815260200160002060000160009054906101000a900473ffffffffffffffffffffffffffffffffffffffff1673ffffffffffffffffffffffffffffffffffffffff166108fc829081150290604051600060405180830381858888f19350505050158015611337573d6000803e3d6000fd5b503373ffffffffffffffffffffffffffffffffffffffff16827fee898eacf688f6932b2234d6e6467430ce81a75c69d0805ca79399e195cd66638386604051808381526020018281526020019250505060405180910390a35b505050565b600160009054906101000a900473ffffffffffffffffffffffffffffffffffffffff1673ffffffffffffffffffffffffffffffffffffffff163373ffffffffffffffffffffffffffffffffffffffff1614151561145a576040517f08c379a000000000000000000000000000000000000000000000000000000000815260040180806020018281038252601d8152602001807f6974732063616e206f6e6c792062652063616c6c2062792061646d696e00000081525060200191505060405180910390fd5b60011515600360009054906101000a900460ff1615151415156114e5576040517f08c379a00000000000000000000000000000000000000000000000000000000081526004018080602001828103825260138152602001807f697473206e6f74207265616479207965742e200000000000000000000000000081525060200191505060405180910390fd5b6000600360006101000a81548160ff021916908315150217905550565b600b6020528060005260406000206000915090508060000154908060010154908060020154908060030154908060040154908060050154908060060154905087565b600066038d7ea4c680008310158015611567575069065a4da25d3016c000008311155b15156115db576040517f08c379a000000000000000000000000000000000000000000000000000000000815260040180806020018281038252600c8152602001807f6f7574206f662072616e6765000000000000000000000000000000000000000081525060200191505060405180910390fd5b339050600060096000868152602001908152602001600020600001541415151561166d576040517f08c379a00000000000000000000000000000000000000000000000000000000081526004018080602001828103825260128152602001807f63616e742066696e64207468697320626574000000000000000000000000000081525060200191505060405180910390fd5b8073ffffffffffffffffffffffffffffffffffffffff1660096000600554815260200190815260200160002060010160009054906101000a900473ffffffffffffffffffffffffffffffffffffffff1673ffffffffffffffffffffffffffffffffffffffff1614806117645750600160009054906101000a900473ffffffffffffffffffffffffffffffffffffffff1673ffffffffffffffffffffffffffffffffffffffff1660096000600554815260200190815260200160002060010160009054906101000a900473ffffffffffffffffffffffffffffffffffffffff1673ffffffffffffffffffffffffffffffffffffffff16145b15156117d8576040517f08c379a00000000000000000000000000000000000000000000000000000000081526004018080602001828103825260118152602001807f5065726d697373696f6e2064656e69656400000000000000000000000000000081525060200191505060405180910390fd5b8260096000868152602001908152602001600020600201819055508160096000868152602001908152602001600020600301819055506005547fbc32fec5748f86214c69e4ef7e6fed603b60df94c24180a4b627e360a28b334260096000600554815260200190815260200160002060010160009054906101000a900473ffffffffffffffffffffffffffffffffffffffff16858542604051808573ffffffffffffffffffffffffffffffffffffffff1673ffffffffffffffffffffffffffffffffffffffff16815260200184815260200183815260200182815260200194505050505060405180910390a250505050565b6060600f80548060200260200160405190810160405280929190818152602001828054801561191857602002820191906000526020600020905b815481526020019060010190808311611904575b5050505050905090565b60008260006009600083815260200190815260200160002060000154141580156119735750600115156009600083815260200190815260200160002060040160009054906101000a900460ff161515145b15156119e7576040517f08c379a00000000000000000000000000000000000000000000000000000000081526004018080602001828103825260128152602001807f63616e742066696e64207468697320626574000000000000000000000000000081525060200191505060405180910390fd5b33915060006009600060055481526020019081526020016000206000015414151515611a7b576040517f08c379a00000000000000000000000000000000000000000000000000000000081526004018080602001828103825260128152602001807f63616e742066696e64207468697320626574000000000000000000000000000081525060200191505060405180910390fd5b8173ffffffffffffffffffffffffffffffffffffffff1660096000600554815260200190815260200160002060010160009054906101000a900473ffffffffffffffffffffffffffffffffffffffff1673ffffffffffffffffffffffffffffffffffffffff161480611b725750600160009054906101000a900473ffffffffffffffffffffffffffffffffffffffff1673ffffffffffffffffffffffffffffffffffffffff1660096000600554815260200190815260200160002060010160009054906101000a900473ffffffffffffffffffffffffffffffffffffffff1673ffffffffffffffffffffffffffffffffffffffff16145b1515611be6576040517f08c379a00000000000000000000000000000000000000000000000000000000081526004018080602001828103825260118152602001807f5065726d697373696f6e2064656e69656400000000000000000000000000000081525060200191505060405180910390fd5b6000600d600086815260200190815260200160002054141515611c71576040517f08c379a000000000000000000000000000000000000000000000000000000000815260040180806020018281038252601f8152602001807f4f6e65204265742063616e206f6e6c79206f70656e206f6e6520726f756e640081525060200191505060405180910390fd5b611c7b8484614210565b50505050565b600d6020528060005260406000206000915090505481565b600080600080600080600080600080600b60008e81526020019081526020016000206000015414151515611d35576040517f08c379a00000000000000000000000000000000000000000000000000000000081526004018080602001828103825260148152602001807f63616e742066696e64207468697320726f756e6400000000000000000000000081525060200191505060405180910390fd5b600b60008d81526020019081526020016000206001015498506000600960008b81526020019081526020016000206000015414151515611ddd576040517f08c379a00000000000000000000000000000000000000000000000000000000081526004018080602001828103825260128152602001807f63616e742066696e64207468697320626574000000000000000000000000000081525060200191505060405180910390fd5b3373ffffffffffffffffffffffffffffffffffffffff16600960008b815260200190815260200160002060010160009054906101000a900473ffffffffffffffffffffffffffffffffffffffff1673ffffffffffffffffffffffffffffffffffffffff161480611e9a57503373ffffffffffffffffffffffffffffffffffffffff16600160009054906101000a900473ffffffffffffffffffffffffffffffffffffffff1673ffffffffffffffffffffffffffffffffffffffff16145b1515611f34576040517f08c379a00000000000000000000000000000000000000000000000000000000081526004018080602001828103825260268152602001807f63616e206f6e6c792062652072657665616c65642062792061646d696e206f7281526020017f206f776e6572000000000000000000000000000000000000000000000000000081525060400191505060405180910390fd5b8a604051602001808281526020019150506040516020818303038152906040526040518082805190602001908083835b602083101515611f895780518252602082019150602081019050602083039250611f64565b6001836020036101000a03801982511681845116808217855250505050505090500191505060405180910390209750600b60008d81526020019081526020016000206005015460001916886000191614151561204d576040517f08c379a000000000000000000000000000000000000000000000000000000000815260040180806020018281038252601e8152602001807f73637265744b6579206973206e6f74206d61746368206d61736b48617368000081525060200191505060405180910390fd5b600b60008d815260200190815260200160002060020154965087600b60008e81526020019081526020016000206006015442430160405160200180846000191660001916815260200183815260200182815260200193505050506040516020818303038152906040526040518082805190602001908083835b6020831015156120eb57805182526020820191506020810190506020830392506120c6565b6001836020036101000a03801982511681845116808217855250505050505090500191505060405180910390209550600187876001900481151561212b57fe5b0601945060009350600092505b600a60008d81526020019081526020016000208054905083101561221357600a60008d81526020019081526020016000208381548110151561217657fe5b90600052602060002090600302016000015485101580156121c85750600a60008d8152602001908152602001600020838154811015156121b257fe5b9060005260206000209060030201600101548511155b1561220657600a60008d8152602001908152602001600020838154811015156121ed57fe5b9060005260206000209060030201600201549350612213565b8280600101935050612138565b600b60008d815260200190815260200160002060040154915060646122586003600960008d81526020019081526020016000206002015461448490919063ffffffff16565b81151561226157fe5b04905061228d82600c60008781526020019081526020016000206001015461452890919063ffffffff16565b600c6000868152602001908152602001600020600101819055508b7f04a377b83c50c3112030b5cec70aa3cfed91b5f4009162f2a646ebcde50276d9600c600087815260200190815260200160002060000160009054906101000a900473ffffffffffffffffffffffffffffffffffffffff1684848f8a42604051808773ffffffffffffffffffffffffffffffffffffffff1673ffffffffffffffffffffffffffffffffffffffff168152602001868152602001858152602001848152602001838152602001828152602001965050505050505060405180910390a2600b60008d81526020019081526020016000206000808201600090556001820160009055600282016000905560038201600090556004820160009055600582016000905560068201600090555050600a60008d815260200190815260200160002060006123d69190614bae565b6000600d60008b8152602001908152602001600020819055506123f9898b614210565b505050505050505050505050565b60003390506000600960006005548152602001908152602001600020600001541415151561249d576040517f08c379a00000000000000000000000000000000000000000000000000000000081526004018080602001828103825260128152602001807f63616e742066696e64207468697320626574000000000000000000000000000081525060200191505060405180910390fd5b8073ffffffffffffffffffffffffffffffffffffffff1660096000600554815260200190815260200160002060010160009054906101000a900473ffffffffffffffffffffffffffffffffffffffff1673ffffffffffffffffffffffffffffffffffffffff1614806125945750600160009054906101000a900473ffffffffffffffffffffffffffffffffffffffff1673ffffffffffffffffffffffffffffffffffffffff1660096000600554815260200190815260200160002060010160009054906101000a900473ffffffffffffffffffffffffffffffffffffffff1673ffffffffffffffffffffffffffffffffffffffff16145b1515612608576040517f08c379a00000000000000000000000000000000000000000000000000000000081526004018080602001828103825260118152602001807f5065726d697373696f6e2064656e69656400000000000000000000000000000081525060200191505060405180910390fd5b60006009600084815260200190815260200160002060040160006101000a81548160ff021916908315150217905515156126aa576040517f08c379a00000000000000000000000000000000000000000000000000000000081526004018080602001828103825260138152602001807f5468697320626574206973206f70656e696e670000000000000000000000000081525060200191505060405180910390fd5b60016009600084815260200190815260200160002060040160006101000a81548160ff0219169083151502179055505050565b60065481565b6000809054906101000a900473ffffffffffffffffffffffffffffffffffffffff1673ffffffffffffffffffffffffffffffffffffffff163373ffffffffffffffffffffffffffffffffffffffff1614151561273e57600080fd5b80600160006101000a81548173ffffffffffffffffffffffffffffffffffffffff021916908373ffffffffffffffffffffffffffffffffffffffff16021790555050565b60055481565b60075481565b600080600080600860003373ffffffffffffffffffffffffffffffffffffffff1673ffffffffffffffffffffffffffffffffffffffff1681526020019081526020016000205493506000841415151561284f576040517f08c379a000000000000000000000000000000000000000000000000000000000815260040180806020018281038252601f8152602001807f706c61796572206e6f7420666f756e64656420696e20636f6e7472616374200081525060200191505060405180910390fd5b6000600b600089815260200190815260200160002060000154141515156128de576040517f08c379a00000000000000000000000000000000000000000000000000000000081526004018080602001828103825260148152602001807f63616e742066696e64207468697320726f756e6400000000000000000000000081525060200191505060405180910390fd5b600b60008881526020019081526020016000206001015492506000600960008581526020019081526020016000206000015414151515612986576040517f08c379a00000000000000000000000000000000000000000000000000000000081526004018080602001828103825260128152602001807f63616e742066696e64207468697320626574000000000000000000000000000081525060200191505060405180910390fd5b600c6000858152602001908152602001600020600101549150600b6000888152602001908152602001600020600201548611151515612a2d576040517f08c379a00000000000000000000000000000000000000000000000000000000081526004018080602001828103825260198152602001807f6b6579206d757374206e6f74206265796f6e64206c696d69740000000000000081525060200191505060405180910390fd5b60096000848152602001908152602001600020600301548210151515612abb576040517f08c379a00000000000000000000000000000000000000000000000000000000081526004018080602001828103825260168152602001807f746f6f20736d616c6c20666f722074686973206265740000000000000000000081525060200191505060405180910390fd5b818660096000868152602001908152602001600020600301540211151515612b4b576040517f08c379a00000000000000000000000000000000000000000000000000000000081526004018080602001828103825260128152602001807f6e6f7420656e6f7567682062616c616e6365000000000000000000000000000081525060200191505060405180910390fd5b655af3107a400085101515612bc8576040517f08c379a000000000000000000000000000000000000000000000000000000000815260040180806020018281038252601d8152602001807f796f75722072616e646f6d206e756d62657220697320746f6f2062696700000081525060200191505060405180910390fd5b600b60008881526020019081526020016000206002015486600b60008a8152602001908152602001600020600301540111151515612c6e576040517f08c379a000000000000000000000000000000000000000000000000000000000815260040180806020018281038252600e8152602001807f796f75206265796f6e64206b657900000000000000000000000000000000000081525060200191505060405180910390fd5b612caf86600960008681526020019081526020016000206003015402600c6000878152602001908152602001600020600101546145b090919063ffffffff16565b600c600086815260200190815260200160002060010181905550612ceb8487600960008781526020019081526020016000206003015402614635565b9050612cf8848888614849565b612d2186600b60008a81526020019081526020016000206003015461452890919063ffffffff16565b600b600089815260200190815260200160002060030181905550612d6481600b60008a81526020019081526020016000206004015461452890919063ffffffff16565b600b600089815260200190815260200160002060040181905550612da785600b60008a81526020019081526020016000206006015461452890919063ffffffff16565b600b60008981526020019081526020016000206006018190555086837f5b324661b09e34246f7bae6ec3b9a4d912f91d5f2d7074b8ca6404674a1b3b7d600c600088815260200190815260200160002060000160009054906101000a900473ffffffffffffffffffffffffffffffffffffffff16848a8a600c60008c81526020019081526020016000206002015442604051808773ffffffffffffffffffffffffffffffffffffffff1673ffffffffffffffffffffffffffffffffffffffff168152602001868152602001858152602001848152602001838152602001828152602001965050505050505060405180910390a3600b600088815260200190815260200160002060020154600b6000898152602001908152602001600020600301541415612f085786837f4c990201c2919f7b317d8cd9772f9bf0809028eec5f8fe4fa834bd3fed9ed4e4426040518082815260200191505060405180910390a35b50505050505050565b600033905060006009600060055481526020019081526020016000206000015414151515612fa7576040517f08c379a00000000000000000000000000000000000000000000000000000000081526004018080602001828103825260128152602001807f63616e742066696e64207468697320626574000000000000000000000000000081525060200191505060405180910390fd5b8073ffffffffffffffffffffffffffffffffffffffff1660096000600554815260200190815260200160002060010160009054906101000a900473ffffffffffffffffffffffffffffffffffffffff1673ffffffffffffffffffffffffffffffffffffffff16148061309e5750600160009054906101000a900473ffffffffffffffffffffffffffffffffffffffff1673ffffffffffffffffffffffffffffffffffffffff1660096000600554815260200190815260200160002060010160009054906101000a900473ffffffffffffffffffffffffffffffffffffffff1673ffffffffffffffffffffffffffffffffffffffff16145b1515613112576040517f08c379a00000000000000000000000000000000000000000000000000000000081526004018080602001828103825260118152602001807f5065726d697373696f6e2064656e69656400000000000000000000000000000081525060200191505060405180910390fd5b60006009600084815260200190815260200160002060040160006101000a81548160ff0219169083151502179055505050565b7f4f6e65457468657200000000000000000000000000000000000000000000000081565b60025481565b600f8181548110151561317e57fe5b906000526020600020016000915090505481565b6000806000806000806000600b600089815260200190815260200160002060000154600b60008a815260200190815260200160002060010154600b60008b815260200190815260200160002060020154600b60008c815260200190815260200160002060030154600b60008d815260200190815260200160002060040154600b60008e815260200190815260200160002060050154600b60008f8152602001908152602001600020600601549650965096509650965096509650919395979092949650565b600a6020528160005260406000208181548110151561327257fe5b9060005260206000209060030201600091509150508060000154908060010154908060020154905083565b6000600160009054906101000a900473ffffffffffffffffffffffffffffffffffffffff1673ffffffffffffffffffffffffffffffffffffffff163373ffffffffffffffffffffffffffffffffffffffff16141515613364576040517f08c379a000000000000000000000000000000000000000000000000000000000815260040180806020018281038252601d8152602001807f6974732063616e206f6e6c792062652063616c6c2062792061646d696e00000081525060200191505060405180910390fd5b60011515600360009054906101000a900460ff1615151415156133ef576040517f08c379a00000000000000000000000000000000000000000000000000000000081526004018080602001828103825260138152602001807f697473206e6f74207265616479207965742e200000000000000000000000000081525060200191505060405180910390fd5b66038d7ea4c680008310158015613410575069065a4da25d3016c000008311155b1515613484576040517f08c379a000000000000000000000000000000000000000000000000000000000815260040180806020018281038252600c8152602001807f6f7574206f662072616e6765000000000000000000000000000000000000000081525060200191505060405180910390fd5b8260028302111515156134ff576040517f08c379a00000000000000000000000000000000000000000000000000000000081526004018080602001828103825260178152602001807f756e6974206f66207061796d656e742064656e6e69656400000000000000000081525060200191505060405180910390fd5b60056000815480929190600101919050555060055460096000600554815260200190815260200160002060000181905550429050600073ffffffffffffffffffffffffffffffffffffffff168473ffffffffffffffffffffffffffffffffffffffff1614156135e657600160009054906101000a900473ffffffffffffffffffffffffffffffffffffffff1660096000600554815260200190815260200160002060010160006101000a81548173ffffffffffffffffffffffffffffffffffffffff021916908373ffffffffffffffffffffffffffffffffffffffff16021790555061363e565b8360096000600554815260200190815260200160002060010160006101000a81548173ffffffffffffffffffffffffffffffffffffffff021916908373ffffffffffffffffffffffffffffffffffffffff1602179055505b82600960006005548152602001908152602001600020600201819055508160096000600554815260200190815260200160002060030181905550600160096000600554815260200190815260200160002060040160006101000a81548160ff021916908315150217905550600f60055490806001815401808255809150509060018203906000526020600020016000909192909190915055506005547ff2e220cf825d217203c7d359235d871cf14d635f88bc18ce235ee5132b94cbc760096000600554815260200190815260200160002060010160009054906101000a900473ffffffffffffffffffffffffffffffffffffffff16858585604051808573ffffffffffffffffffffffffffffffffffffffff1673ffffffffffffffffffffffffffffffffffffffff16815260200184815260200183815260200182815260200194505050505060405180910390a250505050565b600c6020528060005260406000206000915090508060000160009054906101000a900473ffffffffffffffffffffffffffffffffffffffff16908060010154908060020154908060030154905084565b6000806000600860008573ffffffffffffffffffffffffffffffffffffffff1673ffffffffffffffffffffffffffffffffffffffff16815260200190815260200160002054905080600c6000838152602001908152602001600020600101549250925050915091565b600080600080600080600d6000888152602001908152602001600020546009600089815260200190815260200160002060000154600960008a815260200190815260200160002060010160009054906101000a900473ffffffffffffffffffffffffffffffffffffffff16600960008b815260200190815260200160002060020154600960008c815260200190815260200160002060030154600960008d815260200190815260200160002060040160009054906101000a900460ff1695509550955095509550955091939550919395565b600360009054906101000a900460ff1681565b6000600160009054906101000a900473ffffffffffffffffffffffffffffffffffffffff1673ffffffffffffffffffffffffffffffffffffffff163373ffffffffffffffffffffffffffffffffffffffff161415156139f8576040517f08c379a000000000000000000000000000000000000000000000000000000000815260040180806020018281038252601d8152602001807f6974732063616e206f6e6c792062652063616c6c2062792061646d696e00000081525060200191505060405180910390fd5b600454905060006004819055503373ffffffffffffffffffffffffffffffffffffffff166108fc829081150290604051600060405180830381858888f19350505050158015613a4b573d6000803e3d6000fd5b5050565b600e6020528060005260406000206000915054906101000a900473ffffffffffffffffffffffffffffffffffffffff1681565b600080600080600b60008a81526020019081526020016000206000015414151515613b15576040517f08c379a00000000000000000000000000000000000000000000000000000000081526004018080602001828103825260148152602001807f63616e742066696e64207468697320726f756e6400000000000000000000000081525060200191505060405180910390fd5b600b60008981526020019081526020016000206001015492506000600960008581526020019081526020016000206000015414151515613bbd576040517f08c379a00000000000000000000000000000000000000000000000000000000081526004018080602001828103825260128152602001807f63616e742066696e64207468697320626574000000000000000000000000000081525060200191505060405180910390fd5b600b6000898152602001908152602001600020600201548711151515613c4b576040517f08c379a00000000000000000000000000000000000000000000000000000000081526004018080602001828103825260198152602001807f6b6579206d757374206e6f74206265796f6e64206c696d69740000000000000081525060200191505060405180910390fd5b60096000848152602001908152602001600020600301543410151515613cd9576040517f08c379a00000000000000000000000000000000000000000000000000000000081526004018080602001828103825260168152602001807f746f6f20736d616c6c20666f722074686973206265740000000000000000000081525060200191505060405180910390fd5b3487600960008681526020019081526020016000206003015402141515613d68576040517f08c379a00000000000000000000000000000000000000000000000000000000081526004018080602001828103825260128152602001807f6e6f7420656e6f756768207061796d656e74000000000000000000000000000081525060200191505060405180910390fd5b655af3107a400086101515613de5576040517f08c379a000000000000000000000000000000000000000000000000000000000815260040180806020018281038252601d8152602001807f796f75722072616e646f6d206e756d62657220697320746f6f2062696700000081525060200191505060405180910390fd5b613def8585614917565b9150600b60008981526020019081526020016000206002015487600b60008b8152602001908152602001600020600301540111151561405557613e328234614635565b9050613e3f828989614849565b613e6887600b60008b81526020019081526020016000206003015461452890919063ffffffff16565b600b60008a815260200190815260200160002060030181905550613eab81600b60008b81526020019081526020016000206004015461452890919063ffffffff16565b600b60008a815260200190815260200160002060040181905550613eee86600b60008b81526020019081526020016000206006015461452890919063ffffffff16565b600b60008a81526020019081526020016000206006018190555087837f5b324661b09e34246f7bae6ec3b9a4d912f91d5f2d7074b8ca6404674a1b3b7d600c600086815260200190815260200160002060000160009054906101000a900473ffffffffffffffffffffffffffffffffffffffff16848b8b600c60008a81526020019081526020016000206002015442604051808773ffffffffffffffffffffffffffffffffffffffff1673ffffffffffffffffffffffffffffffffffffffff168152602001868152602001858152602001848152602001838152602001828152602001965050505050505060405180910390a3600b600089815260200190815260200160002060020154600b60008a8152602001908152602001600020600301541015156140505787837f4c990201c2919f7b317d8cd9772f9bf0809028eec5f8fe4fa834bd3fed9ed4e4426040518082815260200191505060405180910390a35b6140da565b61407e34600c60008581526020019081526020016000206001015461452890919063ffffffff16565b600c60008481526020019081526020016000206001018190555087827f9788adba038de75934212f990d83caf607ae4434d0a2ee1a8761eab68126b4d43442604051808381526020018281526020019250505060405180910390a35b5050505050505050565b7f4f6e65457468657200000000000000000000000000000000000000000000000081565b600080600860008473ffffffffffffffffffffffffffffffffffffffff1673ffffffffffffffffffffffffffffffffffffffff168152602001908152602001600020549050600073ffffffffffffffffffffffffffffffffffffffff16600e600083815260200190815260200160002060009054906101000a900473ffffffffffffffffffffffffffffffffffffffff1673ffffffffffffffffffffffffffffffffffffffff16146141ba57806141bd565b60005b915050919050565b600080600c60008481526020019081526020016000206001015490506000811115614207576000600c6000858152602001908152602001600020600101819055505b80915050919050565b60006009600084815260200190815260200160002060030154600960008581526020019081526020016000206002015481151561424957fe5b049050600115156009600085815260200190815260200160002060040160009054906101000a900460ff161515141561446557600760008154809291906001019190505550600754600b600060075481526020019081526020016000206000018190555082600b600060075481526020019081526020016000206001018190555080600b60006007548152602001908152602001600020600201819055506000600b60006007548152602001908152602001600020600301819055506000600b600060075481526020019081526020016000206004018190555081600b6000600754815260200190815260200160002060050181600019169055506000600b6000600754815260200190815260200160002060060181905550600754600d600085815260200190815260200160002081905550600754837f5a8aa1a17b8fc49234218cb19e58e9c115c83c7c7a3ce78b6f763cae8bda29f8600b6000600754815260200190815260200160002060020154600b6000600754815260200190815260200160002060030154600b6000600754815260200190815260200160002060040154426040518085815260200184815260200183815260200182815260200194505050505060405180910390a37f97643223266a8ff2acef23f0ef956c2d74b6560ee457d1dc055942762995b537600754836040518083815260200182600019166000191681526020019250505060405180910390a161447f565b6000600d6000858152602001908152602001600020819055505b505050565b6000808314156144975760009050614522565b81830290508183828115156144a857fe5b0414151561451e576040517f08c379a00000000000000000000000000000000000000000000000000000000081526004018080602001828103825260138152602001807f536166654d617468206d756c206661696c65640000000000000000000000000081525060200191505060405180910390fd5b8090505b92915050565b600081830190508281101515156145a7576040517f08c379a00000000000000000000000000000000000000000000000000000000081526004018080602001828103825260138152602001807f536166654d61746820616464206661696c65640000000000000000000000000081525060200191505060405180910390fd5b80905092915050565b600082821115151561462a576040517f08c379a00000000000000000000000000000000000000000000000000000000081526004018080602001828103825260138152602001807f536166654d61746820737562206661696c65640000000000000000000000000081525060200191505060405180910390fd5b818303905092915050565b6000806000806000806000606461465660038a61448490919063ffffffff16565b81151561465f57fe5b04955061467586896145b090919063ffffffff16565b9450600c60008a81526020019081526020016000206002015493506000841415156147155760646146b0603c8861448490919063ffffffff16565b8115156146b957fe5b0492506146cf83876145b090919063ffffffff16565b95506146fa83600c60008781526020019081526020016000206001015461452890919063ffffffff16565b600c6000868152602001908152602001600020600101819055505b600c60008a81526020019081526020016000206003015491506000821415801561479f5750600073ffffffffffffffffffffffffffffffffffffffff16600e600084815260200190815260200160002060009054906101000a900473ffffffffffffffffffffffffffffffffffffffff1673ffffffffffffffffffffffffffffffffffffffff1614155b1561481f5760646147ba60328861448490919063ffffffff16565b8115156147c357fe5b0490506147d981876145b090919063ffffffff16565b955061480481600c60008581526020019081526020016000206001015461452890919063ffffffff16565b600c6000848152602001908152602001600020600101819055505b6148348660045461452890919063ffffffff16565b60048190555084965050505050505092915050565b6000614853614bd2565b600b60008581526020019081526020016000206003015491506060604051908101604052806000815260200160008152602001600081525090506001820181600001818152505082820181602001818152505084816040018181525050600a600085815260200190815260200160002081908060018154018082558091505090600182039060005260206000209060030201600090919290919091506000820151816000015560208201518160010155604082015181600201555050505050505050565b600080600860003373ffffffffffffffffffffffffffffffffffffffff1673ffffffffffffffffffffffffffffffffffffffff1681526020019081526020016000205490506000811415614ba357600660008154809291906001019190505550600654600860003373ffffffffffffffffffffffffffffffffffffffff1673ffffffffffffffffffffffffffffffffffffffff1681526020019081526020016000208190555033600c6000600654815260200190815260200160002060000160006101000a81548173ffffffffffffffffffffffffffffffffffffffff021916908373ffffffffffffffffffffffffffffffffffffffff1602179055506000600c60006006548152602001908152602001600020600101819055506000600c6000600654815260200190815260200160002060030181905550600073ffffffffffffffffffffffffffffffffffffffff16600c600086815260200190815260200160002060000160009054906101000a900473ffffffffffffffffffffffffffffffffffffffff1673ffffffffffffffffffffffffffffffffffffffff16141515614b115783600c6000600654815260200190815260200160002060020181905550600c600085815260200190815260200160002060030154600c6000600654815260200190815260200160002060030181905550614b99565b600073ffffffffffffffffffffffffffffffffffffffff16600e600085815260200190815260200160002060009054906101000a900473ffffffffffffffffffffffffffffffffffffffff1673ffffffffffffffffffffffffffffffffffffffff16141515614b985782600c60006006548152602001908152602001600020600301819055505b5b6006549150614ba7565b8091505b5092915050565b5080546000825560030290600052602060002090810190614bcf9190614bf4565b50565b6060604051908101604052806000815260200160008152602001600081525090565b614c2891905b80821115614c24576000808201600090556001820160009055600282016000905550600301614bfa565b5090565b905600a165627a7a7230582095b7b0ef88619e5e3a5145dcd162dd54b92ea0638ecc07e5c1ff19b2eced1cdd0029",
  "source": "\n\n\ncontract OneEther {\n\n    event onOpenNewBet(\n        uint256 indexed bID,\n        address owner,\n        uint256 check,\n        uint256 unit,\n        uint256 recordTime\n    );\n\n    event onEditBet(\n        uint256 indexed bID,\n        address owner,\n        uint256 check,\n        uint256 unit,\n        uint256 recordTime\n    );\n\n    event onOpenNewRound(\n        uint256 indexed bID,\n        uint256 indexed rID,\n        uint256 total,\n        uint256 current,\n        uint256 ethAmount,\n        uint256 recordTime\n    );\n\n    event RoundMask(\n        uint256 rID,\n        bytes32 hashmask\n    );\n\n    event onReveal(\n        uint256 indexed rID,\n        address winner,\n        uint256 reward,\n        uint256 teamFee,\n        uint256 scretNumber,\n        uint256 randomNumber,\n        uint256 recordTime\n    );\n\n    event onBuyBet(\n        uint256 indexed bID,\n        uint256 indexed rID,\n        address playerAddress,\n        uint256 amount,\n        uint256 key,\n        uint256 playerCode,\n        uint256 invator,\n        uint256 recordTime\n    );\n\n    event onRoundUpdate(\n        uint256 indexed bID,\n        uint256 indexed rID,\n        uint256 totalKey,\n        uint256 currentKey,\n        uint256 lastUpdate\n    );\n\n    event onRoundEnd(\n        uint256 indexed bID,\n        uint256 indexed rID,\n        uint256 lastUpdate\n    );\n\n    event onWithdraw\n    (\n        uint256 indexed playerID,\n        address indexed playerAddress,\n        uint256 ethOut,\n        uint256 recordTime\n    );\n\n    event onBuyFailed\n    (\n        uint256 indexed playerID,\n        uint256 indexed rID,\n        uint256 ethIn,\n        uint256 recordTime\n    );\n\n    using SafeMath for *;\n\n    address private owner = msg.sender;\n    address private admin = msg.sender;\n    bytes32 constant public NAME = \"OneEther\";\n    bytes32 constant public SYMBOL = \"OneEther\";\n    uint256 constant  MIN_BUY = 0.001 ether;\n    uint256 constant  MAX_BUY = 30000 ether;\n    uint256 public linkPrice_ = 0.01 ether;\n    bool public activated_ = false;\n    uint256 private teamFee_ = 0; \n\n    uint256 public bID = 10;\n    uint256 public pID = 100;\n    uint256 public rID = 1000;\n\n    mapping(address => uint256) public pIDAddr_;\n    mapping(uint256 => OneEtherDatasets.BetInfo) public bIDBet_;\n    mapping(uint256 => OneEtherDatasets.Stake[]) public betList_;\n    mapping(uint256 => OneEtherDatasets.BetState) public rIDBet_;\n    mapping(uint256 => OneEtherDatasets.Player) public pIDPlayer_;\n    mapping(uint256 => uint256) public bIDrID_;\n    mapping(uint256 => address) public pIDAgent_;\n    uint256[] public bIDList_;\n\n\n\n\n    constructor() public {}\n\n\n\n    \n\n    modifier isAdmin() {require(msg.sender == admin, \"its can only be call by admin\");_;}\n\n    modifier isbetActivated(uint256 _bID) {\n        require(bIDBet_[_bID].bID != 0 && bIDBet_[_bID].isActivated == true, \"cant find this bet\");\n        _;\n    }\n\n    modifier isActivated() {require(activated_ == true, \"its not ready yet. \");_;}\n    \n\n    modifier isWithinLimits(uint256 _eth) {\n        require(_eth >= MIN_BUY, \"too small\");\n        require(_eth <= MAX_BUY, \"too big\");\n        _;\n    }\n\n    \n    function activate() public isAdmin() {require(activated_ == false, \"the game is running\");activated_ = true;}\n\n    \n    function close() public isAdmin() isActivated() {activated_ = false;}\n\n\n\n\n    \n    function setNewAdmin(address _addr)\n    public\n    {\n        require(msg.sender == owner);\n        admin = _addr;\n    }\n\n    function openNewBet(address _owner, uint256 _check, uint256 _unit)\n    public\n    isAdmin()\n    isActivated()\n    {\n        require((_check >= MIN_BUY) && (_check <= MAX_BUY), \"out of range\");\n        require((_unit * 2) <= _check, \"unit of payment dennied\");\n        bID++;\n        bIDBet_[bID].bID = bID;\n        uint256 _now = now;\n        if (_owner == address(0)) {\n            bIDBet_[bID].owner = admin;\n        } else {\n            bIDBet_[bID].owner = _owner;\n        }\n        bIDBet_[bID].check = _check;\n        bIDBet_[bID].unit = _unit;\n        bIDBet_[bID].isActivated = true;\n        bIDList_.push(bID);\n        \n        emit onOpenNewBet(bID, bIDBet_[bID].owner, _check, _unit, _now);\n    }\n\n    function openFirstRound(uint256 _bID, bytes32 _maskHash)\n    public\n    isbetActivated(_bID)\n    {\n        address addr = msg.sender;\n        require(bIDBet_[bID].bID != 0, \"cant find this bet\");\n        require(bIDBet_[bID].owner == addr || bIDBet_[bID].owner == admin, \"Permission denied\");\n        require(bIDrID_[_bID] == 0, \"One Bet can only open one round\");\n        newRound(_bID, _maskHash);\n    }\n\n    function closeBet(uint256 _bID)\n    public\n    {\n        address addr = msg.sender;\n        require(bIDBet_[bID].bID != 0, \"cant find this bet\");\n        require(bIDBet_[bID].owner == addr || bIDBet_[bID].owner == admin, \"Permission denied\");\n        \n        bIDBet_[_bID].isActivated = false;\n        \n    }\n\n    function openBet(uint256 _bID)\n    public\n    {\n        address addr = msg.sender;\n        require(bIDBet_[bID].bID != 0, \"cant find this bet\");\n        require(bIDBet_[bID].owner == addr || bIDBet_[bID].owner == admin, \"Permission denied\");\n        require(bIDBet_[_bID].isActivated = false, \"This bet is opening\");\n        bIDBet_[_bID].isActivated = true;\n    }\n\n    function editBet(uint256 _bID, uint256 _check, uint256 _unit)\n    public\n    {\n        require((_check >= MIN_BUY) && (_check <= MAX_BUY), \"out of range\");\n        address addr = msg.sender;\n        require(bIDBet_[_bID].bID != 0, \"cant find this bet\");\n        require(bIDBet_[bID].owner == addr || bIDBet_[bID].owner == admin, \"Permission denied\");\n\n        bIDBet_[_bID].check = _check;\n        bIDBet_[_bID].unit = _unit;\n        emit onEditBet(bID, bIDBet_[bID].owner, _check, _unit, now);\n    }\n\n    function withdrawFee()\n    public\n    isAdmin()\n    {\n        uint256 temp = teamFee_;\n        teamFee_ = 0;\n        msg.sender.transfer(temp);\n    }\n\n    function registAgent(address _addr)\n    public\n    isAdmin()\n    {\n        uint256 _pID = pIDAddr_[_addr];\n        if (_pID == 0) {\n            \n            pID++;\n            pIDAddr_[_addr] = pID;\n            \n            pIDPlayer_[pID].addr = _addr;\n            pIDPlayer_[pID].balance = 0;\n            pIDPlayer_[pID].agent = 0;\n\n            pIDAgent_[pID] = _addr;\n        } else {\n            pIDAgent_[_pID] = _addr;\n        }\n\n    }\n\n    function resetAgent(address _addr)\n    public\n    isAdmin() {\n        uint256 _pID = pIDAddr_[_addr];\n        if (_pID != 0) {\n            pIDAgent_[_pID] = address(0);\n        }\n    }\n\n\n\n\n    function buySome(uint256 _rID, uint256 _key, uint256 _playerCode, uint256 _linkPID, uint256 _agent)\n    public\n    payable\n    {\n        require(rIDBet_[_rID].rID != 0, \"cant find this round\");\n        uint256 _bID = rIDBet_[_rID].bID;\n        require(bIDBet_[_bID].bID != 0, \"cant find this bet\");\n        require(_key <= rIDBet_[_rID].total, \"key must not beyond limit\");\n        require(msg.value >= bIDBet_[_bID].unit, \"too small for this bet\");\n        require(bIDBet_[_bID].unit * _key == msg.value, \"not enough payment\");\n        require(_playerCode < 100000000000000, \"your random number is too big\");\n        uint256 _pID = managePID(_linkPID, _agent);\n\n        if (rIDBet_[_rID].current + _key <= rIDBet_[_rID].total) {\n            uint256 _value = manageLink(_pID, msg.value);\n            manageKey(_pID, _rID, _key);\n            rIDBet_[_rID].current = rIDBet_[_rID].current.add(_key);\n            rIDBet_[_rID].ethAmount = rIDBet_[_rID].ethAmount.add(_value);\n            rIDBet_[_rID].playerCode = rIDBet_[_rID].playerCode.add(_playerCode);\n            emit onBuyBet(_bID, _rID, pIDPlayer_[_pID].addr, _value, _key, _playerCode, pIDPlayer_[_pID].invator, now);\n\n            if (rIDBet_[_rID].current >= rIDBet_[_rID].total) {\n                emit onRoundEnd(_bID, _rID, now);\n            }\n        } else {\n            \n            pIDPlayer_[_pID].balance = pIDPlayer_[_pID].balance.add(msg.value);\n            emit onBuyFailed(_pID, _rID, msg.value, now);\n        }\n\n\n    }\n\n    function buyWithBalance(uint256 _rID, uint256 _key, uint256 _playerCode)\n    public\n    payable\n    {\n        uint256 _pID = pIDAddr_[msg.sender];\n        require(_pID != 0, \"player not founded in contract \");\n        require(rIDBet_[_rID].rID != 0, \"cant find this round\");\n        uint256 _bID = rIDBet_[_rID].bID;\n        require(bIDBet_[_bID].bID != 0, \"cant find this bet\");\n\n        uint256 _balance = pIDPlayer_[_pID].balance;\n        require(_key <= rIDBet_[_rID].total, \"key must not beyond limit\");\n        require(_balance >= bIDBet_[_bID].unit, \"too small for this bet\");\n        require(bIDBet_[_bID].unit * _key <= _balance, \"not enough balance\");\n        require(_playerCode < 100000000000000, \"your random number is too big\");\n\n        require(rIDBet_[_rID].current + _key <= rIDBet_[_rID].total, \"you beyond key\");\n        pIDPlayer_[_pID].balance = pIDPlayer_[_pID].balance.sub(bIDBet_[_bID].unit * _key);\n        uint256 _value = manageLink(_pID, bIDBet_[_bID].unit * _key);\n        manageKey(_pID, _rID, _key);\n        rIDBet_[_rID].current = rIDBet_[_rID].current.add(_key);\n        rIDBet_[_rID].ethAmount = rIDBet_[_rID].ethAmount.add(_value);\n        rIDBet_[_rID].playerCode = rIDBet_[_rID].playerCode.add(_playerCode);\n\n        emit onBuyBet(_bID, _rID, pIDPlayer_[_pID].addr, _value, _key, _playerCode, pIDPlayer_[_pID].invator, now);\n\n        if (rIDBet_[_rID].current == rIDBet_[_rID].total) {\n            emit onRoundEnd(_bID, _rID, now);\n        }\n    }\n\n    function reveal(uint256 _rID, uint256 _scretKey, bytes32 _maskHash)\n    public\n    {\n        require(rIDBet_[_rID].rID != 0, \"cant find this round\");\n        uint256 _bID = rIDBet_[_rID].bID;\n        require(bIDBet_[_bID].bID != 0, \"cant find this bet\");\n        require((bIDBet_[_bID].owner == msg.sender) || admin == msg.sender, \"can only be revealed by admin or owner\");\n        bytes32 check = keccak256(abi.encodePacked(_scretKey));\n        require(check == rIDBet_[_rID].maskHash, \"scretKey is not match maskHash\");\n\n        uint256 modulo = rIDBet_[_rID].total;\n\n         \n        bytes32 random = keccak256(abi.encodePacked(check, rIDBet_[_rID].playerCode, (block.number + now)));\n        uint result = (uint(random) % modulo) + 1;\n        uint256 _winPID = 0;\n\n        for (uint i = 0; i < betList_[_rID].length; i++) {\n            if (result >= betList_[_rID][i].start && result <= betList_[_rID][i].end) {\n                _winPID = betList_[_rID][i].pID;\n                break;\n            }\n        }\n        \n        uint256 reward = rIDBet_[_rID].ethAmount;\n        uint256 teamFee = (bIDBet_[_bID].check.mul(3))/100;\n        pIDPlayer_[_winPID].balance = pIDPlayer_[_winPID].balance.add(reward);\n        \n        emit onReveal(_rID, pIDPlayer_[_winPID].addr, reward, teamFee, _scretKey, result, now);\n\n        \n        delete rIDBet_[_rID];\n        delete betList_[_rID];\n        bIDrID_[_bID] = 0;\n\n        \n        newRound(_bID, _maskHash);\n    }\n\n    function getPlayerByAddr(address _addr)\n    public\n    view\n    returns(uint256, uint256)\n    {\n        uint256 _pID = pIDAddr_[_addr];\n        return (_pID, pIDPlayer_[_pID].balance);\n    }\n\n    function getRoundInfoByID(uint256 _rID)\n    public\n    view\n    returns(uint256, uint256, uint256, uint256, uint256, bytes32, uint256)\n    {\n        return\n        (\n            rIDBet_[_rID].rID,               \n            rIDBet_[_rID].bID,               \n            rIDBet_[_rID].total,             \n            rIDBet_[_rID].current,           \n            rIDBet_[_rID].ethAmount,         \n            rIDBet_[_rID].maskHash,          \n            rIDBet_[_rID].playerCode     \n            );\n    }\n\n    function getBetInfoByID(uint256 _bID)\n    public\n    view\n    returns(uint256, uint256, address, uint256, uint256, bool)\n    {\n        return\n        (\n            bIDrID_[_bID], \n            bIDBet_[_bID].bID,\n            bIDBet_[_bID].owner,\n            bIDBet_[_bID].check,\n            bIDBet_[_bID].unit,\n            bIDBet_[_bID].isActivated\n            );\n    }\n\n    function getBIDList()\n    public\n    view\n    returns(uint256[])\n    {return(bIDList_);}\n\n    function getAgent(address _addr)\n    public\n    view\n    returns(uint256)\n    {\n        uint256 _pID = pIDAddr_[_addr];\n        return pIDAgent_[_pID] == address(0) ? 0 : _pID;\n    }\n\n    function withdraw()\n    public\n    isActivated()\n    {\n        uint256 _now = now;\n        uint256 _pID = pIDAddr_[msg.sender];\n        uint256 _eth;\n\n        if (_pID != 0) {\n            _eth = withdrawEarnings(_pID);\n            require(_eth > 0, \"no any balance left\");\n            pIDPlayer_[_pID].addr.transfer(_eth);\n\n            emit onWithdraw(_pID, msg.sender, _eth, _now);\n        }\n    }\n\n\n\n\n    function manageKey(uint256 _pID, uint256 _rID, uint256 _key)\n    private\n    {\n        uint256 _current = rIDBet_[_rID].current;\n\n        OneEtherDatasets.Stake memory _playerstake = OneEtherDatasets.Stake(0, 0, 0);\n        _playerstake.start = _current + 1;\n        _playerstake.end = _current + _key;\n        _playerstake.pID = _pID;\n\n        betList_[_rID].push(_playerstake);\n    }\n\n    function manageLink(uint256 _pID, uint256 _value)\n    private\n    returns(uint256)\n    {\n        uint256 cut = (_value.mul(3))/100;\n        uint256 _value2 = _value.sub(cut);\n\n        uint256 _invator = pIDPlayer_[_pID].invator;\n        if (_invator != 0) {\n            uint256 cut2 = (cut.mul(60))/100; \n            cut = cut.sub(cut2);\n            pIDPlayer_[_invator].balance = pIDPlayer_[_invator].balance.add(cut2);\n        }\n        \n        uint256 _agent = pIDPlayer_[_pID].agent;\n        if (_agent != 0 && pIDAgent_[_agent] != address(0)) {\n            uint256 cut3 = (cut.mul(50))/100; \n            cut = cut.sub(cut3);\n            pIDPlayer_[_agent].balance = pIDPlayer_[_agent].balance.add(cut3);\n        }\n        teamFee_ = teamFee_.add(cut);\n        return _value2;\n    }\n\n    function managePID(uint256 _linkPID, uint256 _agent)\n    private\n    returns (uint256)\n    {\n        uint256 _pID = pIDAddr_[msg.sender];\n\n        if (_pID == 0) {\n            \n            pID++;\n            pIDAddr_[msg.sender] = pID;\n\n\n            \n            pIDPlayer_[pID].addr = msg.sender;\n            pIDPlayer_[pID].balance = 0;\n            pIDPlayer_[pID].agent = 0;\n\n            if (pIDPlayer_[_linkPID].addr != address(0)) {\n                pIDPlayer_[pID].invator = _linkPID;\n                pIDPlayer_[pID].agent = pIDPlayer_[_linkPID].agent;\n            } else {\n                if (pIDAgent_[_agent] != address(0)) {\n                    pIDPlayer_[pID].agent = _agent;\n                }\n            }\n            return (pID);\n        } else {\n            return (_pID);\n        }\n\n    }\n\n    function newRound(uint256 _bID, bytes32 _maskHash)\n    private\n    {\n        uint256 _total = bIDBet_[_bID].check / bIDBet_[_bID].unit;\n        if (bIDBet_[_bID].isActivated == true) {\n            rID++;\n            rIDBet_[rID].rID = rID;\n            rIDBet_[rID].bID = _bID;\n            rIDBet_[rID].total = _total;\n            rIDBet_[rID].current = 0;\n            rIDBet_[rID].ethAmount = 0;\n            rIDBet_[rID].maskHash = _maskHash;\n            rIDBet_[rID].playerCode = 0;\n\n            bIDrID_[_bID] = rID;\n            emit onOpenNewRound(_bID, rID, rIDBet_[rID].total, rIDBet_[rID].current, rIDBet_[rID].ethAmount, now);\n            emit RoundMask(rID, _maskHash);\n        } else {\n            bIDrID_[_bID] = 0;\n        }\n\n    }\n\n    function withdrawEarnings(uint256 _pID)\n        private\n        returns(uint256)\n    {\n        uint256 _earnings = pIDPlayer_[_pID].balance;\n        if (_earnings > 0) {\n            pIDPlayer_[_pID].balance = 0;\n        }\n\n        return(_earnings);\n    }\n}\n\n\nlibrary OneEtherDatasets {\n\n    struct BetInfo {\n        uint256 bID;\n        address owner;\n        uint256 check;\n        uint256 unit;\n        bool isActivated;\n    }\n\n    struct BetState {\n        uint256 rID;\n        uint256 bID;\n        uint256 total;\n        uint256 current;\n        uint256 ethAmount;\n        bytes32 maskHash;\n        uint256 playerCode;\n    }\n\n    struct Player {\n        address addr;\n        uint256 balance;\n        uint256 invator;\n        uint256 agent;\n    }\n\n    struct Stake {\n        uint256 start;\n        uint256 end;\n        uint256 pID;\n    }\n}\n\n\nlibrary SafeMath {\n\n    \n    function mul(uint256 a, uint256 b)\n        internal\n        pure\n        returns (uint256 c)\n    {\n        if (a == 0) {\n            return 0;\n        }\n        c = a * b;\n        require(c / a == b, \"SafeMath mul failed\");\n        return c;\n    }\n\n    \n    function sub(uint256 a, uint256 b)\n        internal\n        pure\n        returns (uint256)\n    {\n        require(b <= a, \"SafeMath sub failed\");\n        return a - b;\n    }\n\n    \n    function add(uint256 a, uint256 b)\n        internal\n        pure\n        returns (uint256 c)\n    {\n        c = a + b;\n        require(c >= a, \"SafeMath add failed\");\n        return c;\n    }\n\n    \n    function sqrt(uint256 x)\n        internal\n        pure\n        returns (uint256 y)\n    {\n        uint256 z = ((add(x, 1)) / 2);\n        y = x;\n        while (z < y) {\n            y = z;\n            z = ((add((x / z), z)) / 2);\n        }\n    }\n\n    \n    function sq(uint256 x)\n        internal\n        pure\n        returns (uint256)\n    {\n        return (mul(x, x));\n    }\n\n    \n    function pwr(uint256 x, uint256 y)\n        internal\n        pure\n        returns (uint256)\n    {\n        if (x == 0)\n            return (0);\n        else if (y == 0)\n                return (1);\n        else {\n            uint256 z = x;\n            for (uint256 i = 1; i < y; i++)\n                z = mul(z, x);\n            return (z);\n        }\n    }\n}",
  "sourcePath": "/home/XXX-1/smartrim-experiment/for-rlf/0x42d7c0c40a153c49212a89d0129a8cec8c23935b/contracts/0x42d7c0c40a153c49212a89d0129a8cec8c23935b.sol",
  "compiler": {
    "name": "solc",
    "version": "0.4.25+commit.59dbf8f1.Emscripten.clang"
  },
  "schemaVersion": "3.4.16",
  "updatedAt": "2025-08-14T03:40:31.159Z",
  "networkType": "ethereum",
  "devdoc": {
    "methods": {}
  },
  "userdoc": {
    "methods": {}
  }
}