{
  "contractName": "GetsBurned",
  "abi": [
    {
      "payable": true,
      "stateMutability": "payable",
      "type": "fallback"
    },
    {
      "constant": false,
      "inputs": [],
      "name": "BurnMe",
      "outputs": [],
      "payable": false,
      "stateMutability": "nonpayable",
      "type": "function"
    }
  ],
  "bytecode": "0x6080604052348015600f57600080fd5b50609a8061001e6000396000f300608060405260043610603f576000357c0100000000000000000000000000000000000000000000000000000000900463ffffffff168063cbaddbaa146041575b005b348015604c57600080fd5b5060536055565b005b3073ffffffffffffffffffffffffffffffffffffffff16ff00a165627a7a723058203b900cfb7a306d55ab2318ff6475656106dab8959d4c7bc4fcd291a27d26012c0029",
  "source": "\ncontract GetsBurned {\n    function () payable public {\n    }\n\n    function BurnMe() public {\n        \n        selfdestruct(address(this));\n    }\n}",
  "sourcePath": "/home/XXX-1/smartrim-experiment/for-rlf/0x7a70299f8ede75836d47e37b9af192fb58ea6c51/contracts/0x7a70299f8ede75836d47e37b9af192fb58ea6c51.sol",
  "compiler": {
    "name": "solc",
    "version": "0.4.25+commit.59dbf8f1.Emscripten.clang"
  },
  "schemaVersion": "3.4.16",
  "updatedAt": "2025-08-14T03:58:07.339Z",
  "networkType": "ethereum",
  "devdoc": {
    "methods": {}
  },
  "userdoc": {
    "methods": {}
  }
}