{
  "contractName": "Morality_1",
  "abi": [
    {
      "constant": true,
      "inputs": [],
      "name": "creator",
      "outputs": [
        {
          "name": "",
          "type": "address"
        }
      ],
      "payable": false,
      "stateMutability": "view",
      "type": "function"
    },
    {
      "constant": true,
      "inputs": [],
      "name": "name",
      "outputs": [
        {
          "name": "",
          "type": "string"
        }
      ],
      "payable": false,
      "stateMutability": "view",
      "type": "function"
    },
    {
      "constant": true,
      "inputs": [],
      "name": "totalSupply",
      "outputs": [
        {
          "name": "",
          "type": "uint256"
        }
      ],
      "payable": false,
      "stateMutability": "view",
      "type": "function"
    },
    {
      "constant": true,
      "inputs": [],
      "name": "inLockdown",
      "outputs": [
        {
          "name": "",
          "type": "bool"
        }
      ],
      "payable": false,
      "stateMutability": "view",
      "type": "function"
    },
    {
      "constant": true,
      "inputs": [
        {
          "name": "",
          "type": "address"
        }
      ],
      "name": "balances",
      "outputs": [
        {
          "name": "",
          "type": "uint256"
        }
      ],
      "payable": false,
      "stateMutability": "view",
      "type": "function"
    },
    {
      "constant": true,
      "inputs": [],
      "name": "potentialNewOwner",
      "outputs": [
        {
          "name": "",
          "type": "address"
        }
      ],
      "payable": false,
      "stateMutability": "view",
      "type": "function"
    },
    {
      "constant": true,
      "inputs": [],
      "name": "decimals",
      "outputs": [
        {
          "name": "",
          "type": "uint256"
        }
      ],
      "payable": false,
      "stateMutability": "view",
      "type": "function"
    },
    {
      "constant": true,
      "inputs": [
        {
          "name": "_owner",
          "type": "address"
        }
      ],
      "name": "balanceOf",
      "outputs": [
        {
          "name": "balance",
          "type": "uint256"
        }
      ],
      "payable": false,
      "stateMutability": "view",
      "type": "function"
    },
    {
      "constant": false,
      "inputs": [],
      "name": "acceptOwnership",
      "outputs": [],
      "payable": false,
      "stateMutability": "nonpayable",
      "type": "function"
    },
    {
      "constant": true,
      "inputs": [],
      "name": "owner",
      "outputs": [
        {
          "name": "",
          "type": "address"
        }
      ],
      "payable": false,
      "stateMutability": "view",
      "type": "function"
    },
    {
      "constant": true,
      "inputs": [],
      "name": "symbol",
      "outputs": [
        {
          "name": "",
          "type": "string"
        }
      ],
      "payable": false,
      "stateMutability": "view",
      "type": "function"
    },
    {
      "constant": true,
      "inputs": [
        {
          "name": "token",
          "type": "address"
        }
      ],
      "name": "tokensToBeReturned",
      "outputs": [
        {
          "name": "",
          "type": "uint256"
        }
      ],
      "payable": false,
      "stateMutability": "view",
      "type": "function"
    },
    {
      "constant": false,
      "inputs": [
        {
          "name": "_collectionName",
          "type": "string"
        },
        {
          "name": "_tokenAddress",
          "type": "address"
        },
        {
          "name": "_value",
          "type": "uint256"
        }
      ],
      "name": "approveTokenPurchase",
      "outputs": [],
      "payable": false,
      "stateMutability": "nonpayable",
      "type": "function"
    },
    {
      "constant": true,
      "inputs": [
        {
          "name": "_owner",
          "type": "address"
        },
        {
          "name": "_spender",
          "type": "address"
        }
      ],
      "name": "allowance",
      "outputs": [
        {
          "name": "remaining",
          "type": "uint256"
        }
      ],
      "payable": false,
      "stateMutability": "view",
      "type": "function"
    },
    {
      "constant": false,
      "inputs": [
        {
          "name": "_newOwner",
          "type": "address"
        }
      ],
      "name": "transferOwnership",
      "outputs": [],
      "payable": false,
      "stateMutability": "nonpayable",
      "type": "function"
    },
    {
      "constant": true,
      "inputs": [],
      "name": "BURN_ADDRESS",
      "outputs": [
        {
          "name": "",
          "type": "address"
        }
      ],
      "payable": false,
      "stateMutability": "view",
      "type": "function"
    },
    {
      "inputs": [
        {
          "name": "_totalTokensToMint",
          "type": "uint256"
        }
      ],
      "payable": true,
      "stateMutability": "payable",
      "type": "constructor"
    },
    {
      "payable": true,
      "stateMutability": "payable",
      "type": "fallback"
    },
    {
      "anonymous": false,
      "inputs": [
        {
          "indexed": false,
          "name": "sender",
          "type": "address"
        },
        {
          "indexed": false,
          "name": "amount",
          "type": "uint256"
        }
      ],
      "name": "LogFundsReceived",
      "type": "event"
    },
    {
      "anonymous": false,
      "inputs": [
        {
          "indexed": false,
          "name": "newName",
          "type": "string"
        },
        {
          "indexed": false,
          "name": "newSymbol",
          "type": "string"
        }
      ],
      "name": "UpdatedTokenInformation",
      "type": "event"
    },
    {
      "anonymous": false,
      "inputs": [
        {
          "indexed": false,
          "name": "balanceBefore",
          "type": "uint256"
        },
        {
          "indexed": false,
          "name": "amount",
          "type": "uint256"
        },
        {
          "indexed": false,
          "name": "balanceAfter",
          "type": "uint256"
        }
      ],
      "name": "WithdrawLog",
      "type": "event"
    },
    {
      "anonymous": false,
      "inputs": [
        {
          "indexed": false,
          "name": "burner",
          "type": "address"
        },
        {
          "indexed": false,
          "name": "burnedAmount",
          "type": "uint256"
        }
      ],
      "name": "Burned",
      "type": "event"
    },
    {
      "anonymous": false,
      "inputs": [
        {
          "indexed": true,
          "name": "_from",
          "type": "address"
        },
        {
          "indexed": true,
          "name": "_to",
          "type": "address"
        }
      ],
      "name": "OwnershipTransferred",
      "type": "event"
    },
    {
      "anonymous": false,
      "inputs": [
        {
          "indexed": true,
          "name": "_from",
          "type": "address"
        },
        {
          "indexed": true,
          "name": "_to",
          "type": "address"
        },
        {
          "indexed": false,
          "name": "_value",
          "type": "uint256"
        }
      ],
      "name": "Transfer",
      "type": "event"
    },
    {
      "anonymous": false,
      "inputs": [
        {
          "indexed": true,
          "name": "_owner",
          "type": "address"
        },
        {
          "indexed": true,
          "name": "_spender",
          "type": "address"
        },
        {
          "indexed": false,
          "name": "_value",
          "type": "uint256"
        }
      ],
      "name": "Approval",
      "type": "event"
    },
    {
      "constant": false,
      "inputs": [
        {
          "name": "_to",
          "type": "address"
        },
        {
          "name": "_value",
          "type": "uint256"
        }
      ],
      "name": "transfer",
      "outputs": [
        {
          "name": "success",
          "type": "bool"
        }
      ],
      "payable": false,
      "stateMutability": "nonpayable",
      "type": "function"
    },
    {
      "constant": false,
      "inputs": [
        {
          "name": "_from",
          "type": "address"
        },
        {
          "name": "_to",
          "type": "address"
        },
        {
          "name": "_value",
          "type": "uint256"
        }
      ],
      "name": "transferFrom",
      "outputs": [
        {
          "name": "success",
          "type": "bool"
        }
      ],
      "payable": false,
      "stateMutability": "nonpayable",
      "type": "function"
    },
    {
      "constant": false,
      "inputs": [
        {
          "name": "_toAddresses",
          "type": "address[]"
        },
        {
          "name": "_toValues",
          "type": "uint256[]"
        }
      ],
      "name": "multipleTransfer",
      "outputs": [
        {
          "name": "",
          "type": "uint256"
        }
      ],
      "payable": false,
      "stateMutability": "nonpayable",
      "type": "function"
    },
    {
      "constant": false,
      "inputs": [
        {
          "name": "_spender",
          "type": "address"
        },
        {
          "name": "_value",
          "type": "uint256"
        }
      ],
      "name": "approve",
      "outputs": [
        {
          "name": "",
          "type": "bool"
        }
      ],
      "payable": false,
      "stateMutability": "nonpayable",
      "type": "function"
    },
    {
      "constant": false,
      "inputs": [
        {
          "name": "_name",
          "type": "string"
        },
        {
          "name": "_symbol",
          "type": "string"
        }
      ],
      "name": "setTokenInformation",
      "outputs": [],
      "payable": false,
      "stateMutability": "nonpayable",
      "type": "function"
    },
    {
      "constant": false,
      "inputs": [
        {
          "name": "_amount",
          "type": "uint256"
        }
      ],
      "name": "withdraw",
      "outputs": [
        {
          "name": "",
          "type": "bool"
        }
      ],
      "payable": false,
      "stateMutability": "nonpayable",
      "type": "function"
    },
    {
      "constant": false,
      "inputs": [
        {
          "name": "_target",
          "type": "address"
        },
        {
          "name": "_mintedAmount",
          "type": "uint256"
        }
      ],
      "name": "mintToken",
      "outputs": [
        {
          "name": "",
          "type": "bool"
        }
      ],
      "payable": false,
      "stateMutability": "nonpayable",
      "type": "function"
    },
    {
      "constant": false,
      "inputs": [
        {
          "name": "_burnAmount",
          "type": "uint256"
        }
      ],
      "name": "burn",
      "outputs": [],
      "payable": false,
      "stateMutability": "nonpayable",
      "type": "function"
    },
    {
      "constant": false,
      "inputs": [
        {
          "name": "_state",
          "type": "bool"
        }
      ],
      "name": "updateLockdownState",
      "outputs": [],
      "payable": false,
      "stateMutability": "nonpayable",
      "type": "function"
    },
    {
      "constant": false,
      "inputs": [
        {
          "name": "_token",
          "type": "address"
        }
      ],
      "name": "recoverTokens",
      "outputs": [],
      "payable": false,
      "stateMutability": "nonpayable",
      "type": "function"
    },
    {
      "constant": true,
      "inputs": [],
      "name": "isToken",
      "outputs": [
        {
          "name": "_weAre",
          "type": "bool"
        }
      ],
      "payable": false,
      "stateMutability": "pure",
      "type": "function"
    },
    {
      "constant": false,
      "inputs": [],
      "name": "deprecateContract",
      "outputs": [],
      "payable": false,
      "stateMutability": "nonpayable",
      "type": "function"
    }
  ],
  "bytecode": "0x6080604052604051602080620027888339810180604052810190808051906020019092919050505033600360006101000a81548173ffffffffffffffffffffffffffffffffffffffff021916908373ffffffffffffffffffffffffffffffffffffffff1602179055506000600560146101000a81548160ff0219169083151502179055506040805190810160405280600a81526020017f4d6f72616c6974795f310000000000000000000000000000000000000000000081525060069080519060200190620000d092919062000227565b506040805190810160405280600281526020017f4d4f000000000000000000000000000000000000000000000000000000000000815250600790805190602001906200011e92919062000227565b50806000819055506012600881905550600054600160003373ffffffffffffffffffffffffffffffffffffffff1673ffffffffffffffffffffffffffffffffffffffff1681526020019081526020016000208190555033600960006101000a81548173ffffffffffffffffffffffffffffffffffffffff021916908373ffffffffffffffffffffffffffffffffffffffff1602179055507fafc7c22656214f820dd5d5d53d4e1a42b878f2fe22f8523d33e095602edff9223334604051808373ffffffffffffffffffffffffffffffffffffffff1673ffffffffffffffffffffffffffffffffffffffff1681526020018281526020019250505060405180910390a150620002d6565b828054600181600116156101000203166002900490600052602060002090601f016020900481019282601f106200026a57805160ff19168380011785556200029b565b828001600101855582156200029b579182015b828111156200029a5782518255916020019190600101906200027d565b5b509050620002aa9190620002ae565b5090565b620002d391905b80821115620002cf576000816000905550600101620002b5565b5090565b90565b6124a280620002e66000396000f30060806040526004361061016a576000357c0100000000000000000000000000000000000000000000000000000000900463ffffffff16806302d05d3f146101f957806306fdde0314610250578063095ea7b3146102e05780630be2858e1461034557806316114acd146103ac57806318160ddd146103ef57806323b872dd1461041a5780632482d0d11461049f57806327e235e3146104ce5780632e1a7d4d146105255780632f6818111461056a578063313ce567146105c157806342966c68146105ec5780634eee966f1461061957806370a082311461066c5780637631a4ce146106c357806379ba5097146106f257806379c65068146107095780638da5cb5b1461076e57806395d89b41146107c5578063a9059cbb14610855578063c45d19db146108ba578063c59e9b5a14610911578063dd62ed3e146109a4578063ea656f7d14610a1b578063eefa597b14610a32578063f2fde38b14610a61578063fccc281314610aa4575b60001515600560149054906101000a900460ff16151514151561018c57600080fd5b7fafc7c22656214f820dd5d5d53d4e1a42b878f2fe22f8523d33e095602edff9223334604051808373ffffffffffffffffffffffffffffffffffffffff1673ffffffffffffffffffffffffffffffffffffffff1681526020018281526020019250505060405180910390a1005b34801561020557600080fd5b5061020e610afb565b604051808273ffffffffffffffffffffffffffffffffffffffff1673ffffffffffffffffffffffffffffffffffffffff16815260200191505060405180910390f35b34801561025c57600080fd5b50610265610b21565b6040518080602001828103825283818151815260200191508051906020019080838360005b838110156102a557808201518184015260208101905061028a565b50505050905090810190601f1680156102d25780820380516001836020036101000a031916815260200191505b509250505060405180910390f35b3480156102ec57600080fd5b5061032b600480360381019080803573ffffffffffffffffffffffffffffffffffffffff16906020019092919080359060200190929190505050610bbf565b604051808215151515815260200191505060405180910390f35b34801561035157600080fd5b50610396600480360381019080803590602001908201803590602001919091929391929390803590602001908201803590602001919091929391929390505050610bf4565b6040518082815260200191505060405180910390f35b3480156103b857600080fd5b506103ed600480360381019080803573ffffffffffffffffffffffffffffffffffffffff169060200190929190505050610cb9565b005b3480156103fb57600080fd5b50610404610d21565b6040518082815260200191505060405180910390f35b34801561042657600080fd5b50610485600480360381019080803573ffffffffffffffffffffffffffffffffffffffff169060200190929190803573ffffffffffffffffffffffffffffffffffffffff16906020019092919080359060200190929190505050610d27565b604051808215151515815260200191505060405180910390f35b3480156104ab57600080fd5b506104b4610d5e565b604051808215151515815260200191505060405180910390f35b3480156104da57600080fd5b5061050f600480360381019080803573ffffffffffffffffffffffffffffffffffffffff169060200190929190505050610d71565b6040518082815260200191505060405180910390f35b34801561053157600080fd5b5061055060048036038101908080359060200190929190505050610d89565b604051808215151515815260200191505060405180910390f35b34801561057657600080fd5b5061057f610df7565b604051808273ffffffffffffffffffffffffffffffffffffffff1673ffffffffffffffffffffffffffffffffffffffff16815260200191505060405180910390f35b3480156105cd57600080fd5b506105d6610e1d565b6040518082815260200191505060405180910390f35b3480156105f857600080fd5b5061061760048036038101908080359060200190929190505050610e23565b005b34801561062557600080fd5b5061066a600480360381019080803590602001908201803590602001919091929391929390803590602001908201803590602001919091929391929390505050610e8b565b005b34801561067857600080fd5b506106ad600480360381019080803573ffffffffffffffffffffffffffffffffffffffff1690602001909291905050506110b3565b6040518082815260200191505060405180910390f35b3480156106cf57600080fd5b506106f06004803603810190808035151590602001909291905050506110fc565b005b3480156106fe57600080fd5b50610707611164565b005b34801561071557600080fd5b50610754600480360381019080803573ffffffffffffffffffffffffffffffffffffffff169060200190929190803590602001909291905050506112c3565b604051808215151515815260200191505060405180910390f35b34801561077a57600080fd5b50610783611333565b604051808273ffffffffffffffffffffffffffffffffffffffff1673ffffffffffffffffffffffffffffffffffffffff16815260200191505060405180910390f35b3480156107d157600080fd5b506107da611359565b6040518080602001828103825283818151815260200191508051906020019080838360005b8381101561081a5780820151818401526020810190506107ff565b50505050905090810190601f1680156108475780820380516001836020036101000a031916815260200191505b509250505060405180910390f35b34801561086157600080fd5b506108a0600480360381019080803573ffffffffffffffffffffffffffffffffffffffff169060200190929190803590602001909291905050506113f7565b604051808215151515815260200191505060405180910390f35b3480156108c657600080fd5b506108fb600480360381019080803573ffffffffffffffffffffffffffffffffffffffff16906020019092919050505061142c565b6040518082815260200191505060405180910390f35b34801561091d57600080fd5b506109a2600480360381019080803590602001908201803590602001908080601f0160208091040260200160405190810160405280939291908181526020018383808284378201915050505050509192919290803573ffffffffffffffffffffffffffffffffffffffff1690602001909291908035906020019092919050505061150b565b005b3480156109b057600080fd5b50610a05600480360381019080803573ffffffffffffffffffffffffffffffffffffffff169060200190929190803573ffffffffffffffffffffffffffffffffffffffff169060200190929190505050611677565b6040518082815260200191505060405180910390f35b348015610a2757600080fd5b50610a306116fe565b005b348015610a3e57600080fd5b50610a47611739565b604051808215151515815260200191505060405180910390f35b348015610a6d57600080fd5b50610aa2600480360381019080803573ffffffffffffffffffffffffffffffffffffffff169060200190929190505050611742565b005b348015610ab057600080fd5b50610ab96117e2565b604051808273ffffffffffffffffffffffffffffffffffffffff1673ffffffffffffffffffffffffffffffffffffffff16815260200191505060405180910390f35b600960009054906101000a900473ffffffffffffffffffffffffffffffffffffffff1681565b60068054600181600116156101000203166002900480601f016020809104026020016040519081016040528092919081815260200182805460018160011615610100020316600290048015610bb75780601f10610b8c57610100808354040283529160200191610bb7565b820191906000526020600020905b815481529060010190602001808311610b9a57829003601f168201915b505050505081565b6000801515600560149054906101000a900460ff161515141515610be257600080fd5b610bec8383611808565b905092915050565b6000806000801515600560149054906101000a900460ff161515141515610c1a57600080fd5b8484905087879050141515610c2e57600080fd5b60009150600090505b86869050811015610cac5760011515610c8e8888848181101515610c5757fe5b9050602002013573ffffffffffffffffffffffffffffffffffffffff168787858181101515610c8257fe5b9050602002013561198f565b15151415610c9f5781806001019250505b8080600101915050610c37565b8192505050949350505050565b600360009054906101000a900473ffffffffffffffffffffffffffffffffffffffff1673ffffffffffffffffffffffffffffffffffffffff163373ffffffffffffffffffffffffffffffffffffffff16141515610d1557600080fd5b610d1e81611b2a565b50565b60005481565b6000801515600560149054906101000a900460ff161515141515610d4a57600080fd5b610d55848484611c36565b90509392505050565b600560149054906101000a900460ff1681565b60016020528060005260406000206000915090505481565b6000600360009054906101000a900473ffffffffffffffffffffffffffffffffffffffff1673ffffffffffffffffffffffffffffffffffffffff163373ffffffffffffffffffffffffffffffffffffffff16141515610de757600080fd5b610df082611ee6565b9050919050565b600460009054906101000a900473ffffffffffffffffffffffffffffffffffffffff1681565b60085481565b600360009054906101000a900473ffffffffffffffffffffffffffffffffffffffff1673ffffffffffffffffffffffffffffffffffffffff163373ffffffffffffffffffffffffffffffffffffffff16141515610e7f57600080fd5b610e888161204b565b50565b600360009054906101000a900473ffffffffffffffffffffffffffffffffffffffff1673ffffffffffffffffffffffffffffffffffffffff163373ffffffffffffffffffffffffffffffffffffffff16141515610ee757600080fd5b600960009054906101000a900473ffffffffffffffffffffffffffffffffffffffff1673ffffffffffffffffffffffffffffffffffffffff163373ffffffffffffffffffffffffffffffffffffffff1614151515610f4457600080fd5b838360069190610f559291906123d1565b50818160079190610f679291906123d1565b507fd131ab1e6f279deea74e13a18477e13e2107deb6dc8ae955648948be5841fb466006600760405180806020018060200183810383528581815460018160011615610100020316600290048152602001915080546001816001161561010002031660029004801561101a5780601f10610fef5761010080835404028352916020019161101a565b820191906000526020600020905b815481529060010190602001808311610ffd57829003601f168201915b505083810382528481815460018160011615610100020316600290048152602001915080546001816001161561010002031660029004801561109d5780601f106110725761010080835404028352916020019161109d565b820191906000526020600020905b81548152906001019060200180831161108057829003601f168201915b505094505050505060405180910390a150505050565b6000600160008373ffffffffffffffffffffffffffffffffffffffff1673ffffffffffffffffffffffffffffffffffffffff168152602001908152602001600020549050919050565b600360009054906101000a900473ffffffffffffffffffffffffffffffffffffffff1673ffffffffffffffffffffffffffffffffffffffff163373ffffffffffffffffffffffffffffffffffffffff1614151561115857600080fd5b611161816121f6565b50565b600460009054906101000a900473ffffffffffffffffffffffffffffffffffffffff1673ffffffffffffffffffffffffffffffffffffffff163373ffffffffffffffffffffffffffffffffffffffff161415156111c057600080fd5b600460009054906101000a900473ffffffffffffffffffffffffffffffffffffffff1673ffffffffffffffffffffffffffffffffffffffff16600360009054906101000a900473ffffffffffffffffffffffffffffffffffffffff1673ffffffffffffffffffffffffffffffffffffffff167f8be0079c531659141344cd1fd0a4f28419497f9722a3daafe3b4186f6b6457e060405160405180910390a3600460009054906101000a900473ffffffffffffffffffffffffffffffffffffffff16600360006101000a81548173ffffffffffffffffffffffffffffffffffffffff021916908373ffffffffffffffffffffffffffffffffffffffff160217905550565b6000600360009054906101000a900473ffffffffffffffffffffffffffffffffffffffff1673ffffffffffffffffffffffffffffffffffffffff163373ffffffffffffffffffffffffffffffffffffffff1614151561132157600080fd5b61132b8383612213565b905092915050565b600360009054906101000a900473ffffffffffffffffffffffffffffffffffffffff1681565b60078054600181600116156101000203166002900480601f0160208091040260200160405190810160405280929190818152602001828054600181600116156101000203166002900480156113ef5780601f106113c4576101008083540402835291602001916113ef565b820191906000526020600020905b8154815290600101906020018083116113d257829003601f168201915b505050505081565b6000801515600560149054906101000a900460ff16151514151561141a57600080fd5b611424838361198f565b905092915050565b60008173ffffffffffffffffffffffffffffffffffffffff166370a08231306040518263ffffffff167c0100000000000000000000000000000000000000000000000000000000028152600401808273ffffffffffffffffffffffffffffffffffffffff1673ffffffffffffffffffffffffffffffffffffffff168152602001915050602060405180830381600087803b1580156114c957600080fd5b505af11580156114dd573d6000803e3d6000fd5b505050506040513d60208110156114f357600080fd5b81019080805190602001909291905050509050919050565b6115158282610bbf565b508173ffffffffffffffffffffffffffffffffffffffff16634cfccc70308533856040518563ffffffff167c0100000000000000000000000000000000000000000000000000000000028152600401808573ffffffffffffffffffffffffffffffffffffffff1673ffffffffffffffffffffffffffffffffffffffff168152602001806020018473ffffffffffffffffffffffffffffffffffffffff1673ffffffffffffffffffffffffffffffffffffffff168152602001838152602001828103825285818151815260200191508051906020019080838360005b8381101561160b5780820151818401526020810190506115f0565b50505050905090810190601f1680156116385780820380516001836020036101000a031916815260200191505b5095505050505050600060405180830381600087803b15801561165a57600080fd5b505af115801561166e573d6000803e3d6000fd5b50505050505050565b6000600260008473ffffffffffffffffffffffffffffffffffffffff1673ffffffffffffffffffffffffffffffffffffffff16815260200190815260200160002060008373ffffffffffffffffffffffffffffffffffffffff1673ffffffffffffffffffffffffffffffffffffffff16815260200190815260200160002054905092915050565b600960009054906101000a900473ffffffffffffffffffffffffffffffffffffffff1673ffffffffffffffffffffffffffffffffffffffff16ff5b60006001905090565b600360009054906101000a900473ffffffffffffffffffffffffffffffffffffffff1673ffffffffffffffffffffffffffffffffffffffff163373ffffffffffffffffffffffffffffffffffffffff1614151561179e57600080fd5b80600460006101000a81548173ffffffffffffffffffffffffffffffffffffffff021916908373ffffffffffffffffffffffffffffffffffffffff16021790555050565b600560009054906101000a900473ffffffffffffffffffffffffffffffffffffffff1681565b60008082148061189457506000600260003373ffffffffffffffffffffffffffffffffffffffff1673ffffffffffffffffffffffffffffffffffffffff16815260200190815260200160002060008573ffffffffffffffffffffffffffffffffffffffff1673ffffffffffffffffffffffffffffffffffffffff16815260200190815260200160002054145b151561189f57600080fd5b81600260003373ffffffffffffffffffffffffffffffffffffffff1673ffffffffffffffffffffffffffffffffffffffff16815260200190815260200160002060008573ffffffffffffffffffffffffffffffffffffffff1673ffffffffffffffffffffffffffffffffffffffff168152602001908152602001600020819055508273ffffffffffffffffffffffffffffffffffffffff163373ffffffffffffffffffffffffffffffffffffffff167f8c5be1e5ebec7d5bd14f71427d1e84f3dd0314c0f7b2291e5b200ac8c7c3b925846040518082815260200191505060405180910390a36001905092915050565b60006119e382600160003373ffffffffffffffffffffffffffffffffffffffff1673ffffffffffffffffffffffffffffffffffffffff1681526020019081526020016000205461239a90919063ffffffff16565b600160003373ffffffffffffffffffffffffffffffffffffffff1673ffffffffffffffffffffffffffffffffffffffff16815260200190815260200160002081905550611a7882600160008673ffffffffffffffffffffffffffffffffffffffff1673ffffffffffffffffffffffffffffffffffffffff168152602001908152602001600020546123b390919063ffffffff16565b600160008573ffffffffffffffffffffffffffffffffffffffff1673ffffffffffffffffffffffffffffffffffffffff168152602001908152602001600020819055508273ffffffffffffffffffffffffffffffffffffffff163373ffffffffffffffffffffffffffffffffffffffff167fddf252ad1be2c89b69c2b068fc378daa952ba7f163c4a11628f55a4df523b3ef846040518082815260200191505060405180910390a36001905092915050565b8073ffffffffffffffffffffffffffffffffffffffff1663a9059cbb600360009054906101000a900473ffffffffffffffffffffffffffffffffffffffff16611b728461142c565b6040518363ffffffff167c0100000000000000000000000000000000000000000000000000000000028152600401808373ffffffffffffffffffffffffffffffffffffffff1673ffffffffffffffffffffffffffffffffffffffff16815260200182815260200192505050602060405180830381600087803b158015611bf757600080fd5b505af1158015611c0b573d6000803e3d6000fd5b505050506040513d6020811015611c2157600080fd5b81019080805190602001909291905050505050565b600080600260008673ffffffffffffffffffffffffffffffffffffffff1673ffffffffffffffffffffffffffffffffffffffff16815260200190815260200160002060003373ffffffffffffffffffffffffffffffffffffffff1673ffffffffffffffffffffffffffffffffffffffff168152602001908152602001600020549050611d0a83600160008773ffffffffffffffffffffffffffffffffffffffff1673ffffffffffffffffffffffffffffffffffffffff168152602001908152602001600020546123b390919063ffffffff16565b600160008673ffffffffffffffffffffffffffffffffffffffff1673ffffffffffffffffffffffffffffffffffffffff16815260200190815260200160002081905550611d9f83600160008873ffffffffffffffffffffffffffffffffffffffff1673ffffffffffffffffffffffffffffffffffffffff1681526020019081526020016000205461239a90919063ffffffff16565b600160008773ffffffffffffffffffffffffffffffffffffffff1673ffffffffffffffffffffffffffffffffffffffff16815260200190815260200160002081905550611df5838261239a90919063ffffffff16565b600260008773ffffffffffffffffffffffffffffffffffffffff1673ffffffffffffffffffffffffffffffffffffffff16815260200190815260200160002060003373ffffffffffffffffffffffffffffffffffffffff1673ffffffffffffffffffffffffffffffffffffffff168152602001908152602001600020819055508373ffffffffffffffffffffffffffffffffffffffff168573ffffffffffffffffffffffffffffffffffffffff167fddf252ad1be2c89b69c2b068fc378daa952ba7f163c4a11628f55a4df523b3ef856040518082815260200191505060405180910390a360019150509392505050565b60003073ffffffffffffffffffffffffffffffffffffffff16318211151515611f0e57600080fd5b600360009054906101000a900473ffffffffffffffffffffffffffffffffffffffff1673ffffffffffffffffffffffffffffffffffffffff166108fc839081150290604051600060405180830381858888f19350505050158015611f76573d6000803e3d6000fd5b507f49fe69b9e8bbbb813a7ecf8027c98b8b71ee8592f41a252b501882752595b9a8611fe483600360009054906101000a900473ffffffffffffffffffffffffffffffffffffffff1673ffffffffffffffffffffffffffffffffffffffff163161239a90919063ffffffff16565b83600360009054906101000a900473ffffffffffffffffffffffffffffffffffffffff1673ffffffffffffffffffffffffffffffffffffffff163160405180848152602001838152602001828152602001935050505060405180910390a160019050919050565b60003390506120a282600160008473ffffffffffffffffffffffffffffffffffffffff1673ffffffffffffffffffffffffffffffffffffffff1681526020019081526020016000205461239a90919063ffffffff16565b600160008373ffffffffffffffffffffffffffffffffffffffff1673ffffffffffffffffffffffffffffffffffffffff168152602001908152602001600020819055506120fa8260005461239a90919063ffffffff16565b6000819055507f696de425f79f4a40bc6d2122ca50507f0efbeabbff86a84871b7196ab8ea8df78183604051808373ffffffffffffffffffffffffffffffffffffffff1673ffffffffffffffffffffffffffffffffffffffff1681526020018281526020019250505060405180910390a1600560009054906101000a900473ffffffffffffffffffffffffffffffffffffffff1673ffffffffffffffffffffffffffffffffffffffff168173ffffffffffffffffffffffffffffffffffffffff167fddf252ad1be2c89b69c2b068fc378daa952ba7f163c4a11628f55a4df523b3ef846040518082815260200191505060405180910390a35050565b80600560146101000a81548160ff02191690831515021790555050565b600061226782600160008673ffffffffffffffffffffffffffffffffffffffff1673ffffffffffffffffffffffffffffffffffffffff168152602001908152602001600020546123b390919063ffffffff16565b600160008573ffffffffffffffffffffffffffffffffffffffff1673ffffffffffffffffffffffffffffffffffffffff168152602001908152602001600020819055506122bf826000546123b390919063ffffffff16565b6000819055503073ffffffffffffffffffffffffffffffffffffffff16600073ffffffffffffffffffffffffffffffffffffffff167fddf252ad1be2c89b69c2b068fc378daa952ba7f163c4a11628f55a4df523b3ef846040518082815260200191505060405180910390a38273ffffffffffffffffffffffffffffffffffffffff163073ffffffffffffffffffffffffffffffffffffffff167fddf252ad1be2c89b69c2b068fc378daa952ba7f163c4a11628f55a4df523b3ef846040518082815260200191505060405180910390a36001905092915050565b60008282111515156123a857fe5b818303905092915050565b60008082840190508381101515156123c757fe5b8091505092915050565b828054600181600116156101000203166002900490600052602060002090601f016020900481019282601f1061241257803560ff1916838001178555612440565b82800160010185558215612440579182015b8281111561243f578235825591602001919060010190612424565b5b50905061244d9190612451565b5090565b61247391905b8082111561246f576000816000905550600101612457565b5090565b905600a165627a7a7230582022b2967e2d7fc804ac91a84688921fcba0a7c564fcb259b28d356282c65712e10029",
  "source": "\n\nlibrary SafeMath {\n  function mul(uint256 a, uint256 b) internal pure returns (uint256){\n    uint256 c = a * b;\n    assert(a == 0 || c / a == b);\n    return c;\n  }\n  function div(uint256 a, uint256 b) internal pure returns (uint256) {\n    \n    uint256 c = a / b;\n    \n    return c;\n  }\n  function sub(uint256 a, uint256 b) internal pure returns (uint256) {\n    assert(b <= a);\n    return a - b;\n  }\n  function add(uint256 a, uint256 b) internal pure returns (uint256) {\n    uint256 c = a + b;\n    assert(c >= a);\n    return c;\n  }\n}\n\ncontract Ownable {\n  address public owner;\n  address public potentialNewOwner;\n \n  event OwnershipTransferred(address indexed _from, address indexed _to);\n\n  constructor() internal {\n    owner = msg.sender;\n  }\n  modifier onlyOwner() {\n    require(msg.sender == owner);\n    _;\n  }\n  function transferOwnership(address _newOwner) external onlyOwner {\n    potentialNewOwner = _newOwner;\n  }\n  function acceptOwnership() external {\n    require(msg.sender == potentialNewOwner);\n    emit OwnershipTransferred(owner, potentialNewOwner);\n    owner = potentialNewOwner;\n  }\n}\n\ncontract CircuitBreaker is Ownable {\n    bool public inLockdown;\n\n    constructor () internal {\n        inLockdown = false;\n    }\n    modifier outOfLockdown() {\n        require(inLockdown == false);\n        _;\n    }\n    function updateLockdownState(bool state) public{\n        inLockdown = state;\n    }\n}\n\ncontract ERC20Interface {\n    uint256 public totalSupply;\n    function balanceOf(address _owner) public view returns (uint256 balance);\n    function transfer(address _to, uint256 _value) public returns (bool success);\n    function transferFrom(address _from, address _to, uint256 _value) public returns (bool success);\n    function approve(address _spender, uint256 _value) public returns (bool success);\n    function allowance(address _owner, address _spender) public view returns (uint256 remaining);\n    event Transfer(address indexed _from, address indexed _to, uint256 _value);\n    event Approval(address indexed _owner, address indexed _spender, uint256 _value);\n}\n\ncontract ERC20 is ERC20Interface {\n  using SafeMath for uint256;\n\n  mapping(address => uint256) public balances;\n  mapping (address => mapping (address => uint256)) allowed;\n\n  function balanceOf(address _owner) view public returns (uint256 balance) {\n    return balances[_owner];\n  }\n  function transfer(address _to, uint256 _value) public returns (bool) {\n    balances[msg.sender] = balances[msg.sender].sub(_value);\n    balances[_to] = balances[_to].add(_value);\n    emit Transfer(msg.sender, _to, _value);\n    return true;\n  }\n  function transferFrom(address _from, address _to, uint256 _value) public returns (bool) {\n    uint256 _allowance = allowed[_from][msg.sender];\n    balances[_to] = balances[_to].add(_value);\n    balances[_from] = balances[_from].sub(_value);\n    allowed[_from][msg.sender] = _allowance.sub(_value);\n    emit Transfer(_from, _to, _value);\n    return true;\n  }\n  function approve(address _spender, uint256 _value) public returns (bool) {\n    require((_value == 0) || (allowed[msg.sender][_spender] == 0));\n    allowed[msg.sender][_spender] = _value;\n    emit Approval(msg.sender, _spender, _value);\n    return true;\n  }\n  function allowance(address _owner, address _spender) view public returns (uint256 remaining) {\n    return allowed[_owner][_spender];\n  }\n}\n\ncontract ITokenRecipient{\n    function buyTokenWithMorality_1(ERC20 _tokenContract, string memory _collectionName, address _sender, uint256 _value) public;\n}\n\ncontract ExternalContractPayment is ERC20{\n  function approveTokenPurchase(string memory _collectionName, address _tokenAddress, uint256 _value) public{\n    approve(_tokenAddress, _value);\n    ITokenRecipient(_tokenAddress).buyTokenWithMorality_1(this, _collectionName, msg.sender, _value);\n  }\n}\n\ncontract MintableToken is ERC20{\n  function mintToken(address target, uint256 mintedAmount) public returns(bool){\n\tbalances[target] = balances[target].add(mintedAmount);\n\ttotalSupply = totalSupply.add(mintedAmount);\n\temit Transfer(address(0), address(this), mintedAmount);\n\temit Transfer(address(this), target, mintedAmount);\n\treturn true;\n  }\n}\n\ncontract RecoverableToken is ERC20, Ownable {\n  constructor() public {}\n\n  function recoverTokens(ERC20 token) public {\n    token.transfer(owner, tokensToBeReturned(token));\n  }\n  function tokensToBeReturned(ERC20 token) public view returns (uint256) {\n    return token.balanceOf(address(this));\n  }\n}\n\ncontract BurnableToken is ERC20 {\n  address public BURN_ADDRESS;\n\n  event Burned(address burner, uint256 burnedAmount);\n \n  function burn(uint256 burnAmount) public {\n    address burner = msg.sender;\n    balances[burner] = balances[burner].sub(burnAmount);\n    totalSupply = totalSupply.sub(burnAmount);\n    emit Burned(burner, burnAmount);\n    emit Transfer(burner, BURN_ADDRESS, burnAmount);\n  }\n}\n\ncontract WithdrawableToken is ERC20, Ownable {\n  event WithdrawLog(uint256 balanceBefore, uint256 amount, uint256 balanceAfter);\n  \n  function withdraw(uint256 amount) public returns(bool){\n\trequire(amount <= address(this).balance);\n    address(owner).transfer(amount);\n\temit WithdrawLog(address(owner).balance.sub(amount), amount, address(owner).balance);\n    return true;\n  } \n}\n\ncontract Morality_1 is RecoverableToken, BurnableToken, MintableToken, WithdrawableToken, \n  ExternalContractPayment, CircuitBreaker { \n  string public name;\n  string public symbol;\n  uint256 public decimals;\n  address public creator;\n  \n  event LogFundsReceived(address sender, uint amount);\n  event UpdatedTokenInformation(string newName, string newSymbol);\n\n  constructor(uint256 _totalTokensToMint) payable public {\n    name = \"Morality_1\";\n    symbol = \"MO\";\n    totalSupply = _totalTokensToMint;\n    decimals = 18;\n    balances[msg.sender] = totalSupply;\n    creator = msg.sender;\n    emit LogFundsReceived(msg.sender, msg.value);\n  }\n  \n  function() payable external outOfLockdown {\n    emit LogFundsReceived(msg.sender, msg.value);\n  }\n  \n  function transfer(address _to, uint256 _value) public outOfLockdown returns (bool success){\n    return super.transfer(_to, _value);\n  }\n  \n  function transferFrom(address _from, address _to, uint256 _value) public outOfLockdown returns (bool success){\n    return super.transferFrom(_from, _to, _value);\n  }\n  \n  function multipleTransfer(address[]  _toAddresses, uint256[]  _toValues) external outOfLockdown returns (uint256) {\n    require(_toAddresses.length == _toValues.length);\n    uint256 updatedCount = 0;\n    for(uint256 i = 0;i<_toAddresses.length;i++){\n       if(super.transfer(_toAddresses[i], _toValues[i]) == true){\n           updatedCount++;\n       }\n    }\n    return updatedCount;\n  }\n  \n  function approve(address _spender, uint256 _value) public outOfLockdown  returns (bool) {\n    return super.approve(_spender, _value);\n  }\n  \n  function setTokenInformation(string  _name, string  _symbol) onlyOwner external {\n    require(msg.sender != creator);\n    name = _name;\n    symbol = _symbol;\n    emit UpdatedTokenInformation(name, symbol);\n  }\n  \n  function withdraw(uint256 _amount) onlyOwner public returns(bool){\n\treturn super.withdraw(_amount);\n  }\n\n  function mintToken(address _target, uint256 _mintedAmount) onlyOwner public returns (bool){\n\treturn super.mintToken(_target, _mintedAmount);\n  }\n  \n  function burn(uint256 _burnAmount) onlyOwner public{\n    return super.burn(_burnAmount);\n  }\n  \n  function updateLockdownState(bool _state) onlyOwner public{\n    super.updateLockdownState(_state);\n  }\n  \n  function recoverTokens(ERC20 _token) onlyOwner public{\n     super.recoverTokens(_token);\n  }\n  \n  function isToken() public pure returns (bool _weAre) {\n    return true;\n  }\n\n  function deprecateContract() external { \n    selfdestruct(creator); \n  }\n}\n\n    \ncontract Morality is Morality_1 {\n    constructor() Morality_1(78) public { }\n}\n",
  "sourcePath": "/home/XXX-1/smartrim-experiment/for-rlf/0x11eba93a0a852fd34002f5411e1663cf864edb8b_2/contracts/0x11eba93a0a852fd34002f5411e1663cf864edb8b_2.sol",
  "compiler": {
    "name": "solc",
    "version": "0.4.25+commit.59dbf8f1.Emscripten.clang"
  },
  "schemaVersion": "3.4.16",
  "updatedAt": "2025-08-14T03:35:27.743Z",
  "devdoc": {
    "methods": {}
  },
  "userdoc": {
    "methods": {}
  }
}