{
  "contractName": "PrivateDeposit",
  "abi": [
    {
      "constant": true,
      "inputs": [],
      "name": "MinDeposit",
      "outputs": [
        {
          "name": "",
          "type": "uint256"
        }
      ],
      "payable": false,
      "stateMutability": "view",
      "type": "function"
    },
    {
      "constant": true,
      "inputs": [
        {
          "name": "",
          "type": "address"
        }
      ],
      "name": "balances",
      "outputs": [
        {
          "name": "",
          "type": "uint256"
        }
      ],
      "payable": false,
      "stateMutability": "view",
      "type": "function"
    },
    {
      "constant": true,
      "inputs": [],
      "name": "owner",
      "outputs": [
        {
          "name": "",
          "type": "address"
        }
      ],
      "payable": false,
      "stateMutability": "view",
      "type": "function"
    },
    {
      "inputs": [],
      "payable": false,
      "stateMutability": "nonpayable",
      "type": "constructor"
    },
    {
      "payable": true,
      "stateMutability": "payable",
      "type": "fallback"
    },
    {
      "constant": false,
      "inputs": [
        {
          "name": "_lib",
          "type": "address"
        }
      ],
      "name": "setLog",
      "outputs": [],
      "payable": false,
      "stateMutability": "nonpayable",
      "type": "function"
    },
    {
      "constant": false,
      "inputs": [],
      "name": "Deposit",
      "outputs": [],
      "payable": true,
      "stateMutability": "payable",
      "type": "function"
    },
    {
      "constant": false,
      "inputs": [
        {
          "name": "_am",
          "type": "uint256"
        }
      ],
      "name": "CashOut",
      "outputs": [],
      "payable": false,
      "stateMutability": "nonpayable",
      "type": "function"
    }
  ],
  "bytecode": "0x6080604052670de0b6b3a764000060015534801561001c57600080fd5b5033600260006101000a81548173ffffffffffffffffffffffffffffffffffffffff021916908373ffffffffffffffffffffffffffffffffffffffff1602179055506100666100c8565b604051809103906000f080158015610082573d6000803e3d6000fd5b50600360006101000a81548173ffffffffffffffffffffffffffffffffffffffff021916908373ffffffffffffffffffffffffffffffffffffffff1602179055506100d8565b6040516105858061071383390190565b61062c806100e76000396000f300608060405260043610610078576000357c0100000000000000000000000000000000000000000000000000000000900463ffffffff16806311bcd8301461007a57806327e235e3146100a55780634797f21b146100fc5780638da5cb5b1461013f5780639ffa071114610196578063ed21248c146101c3575b005b34801561008657600080fd5b5061008f6101cd565b6040518082815260200191505060405180910390f35b3480156100b157600080fd5b506100e6600480360381019080803573ffffffffffffffffffffffffffffffffffffffff1690602001909291905050506101d3565b6040518082815260200191505060405180910390f35b34801561010857600080fd5b5061013d600480360381019080803573ffffffffffffffffffffffffffffffffffffffff1690602001909291905050506101eb565b005b34801561014b57600080fd5b5061015461028b565b604051808273ffffffffffffffffffffffffffffffffffffffff1673ffffffffffffffffffffffffffffffffffffffff16815260200191505060405180910390f35b3480156101a257600080fd5b506101c1600480360381019080803590602001909291905050506102b1565b005b6101cb610490565b005b60015481565b60006020528060005260406000206000915090505481565b600260009054906101000a900473ffffffffffffffffffffffffffffffffffffffff1673ffffffffffffffffffffffffffffffffffffffff163273ffffffffffffffffffffffffffffffffffffffff1614151561024757600080fd5b80600360006101000a81548173ffffffffffffffffffffffffffffffffffffffff021916908373ffffffffffffffffffffffffffffffffffffffff16021790555050565b600260009054906101000a900473ffffffffffffffffffffffffffffffffffffffff1681565b6000803373ffffffffffffffffffffffffffffffffffffffff1673ffffffffffffffffffffffffffffffffffffffff168152602001908152602001600020548111151561048d573373ffffffffffffffffffffffffffffffffffffffff168160405160006040518083038185875af1925050501561048c57806000803373ffffffffffffffffffffffffffffffffffffffff1673ffffffffffffffffffffffffffffffffffffffff16815260200190815260200160002060008282540392505081905550600360009054906101000a900473ffffffffffffffffffffffffffffffffffffffff1673ffffffffffffffffffffffffffffffffffffffff16634c2f04a433836040518363ffffffff167c0100000000000000000000000000000000000000000000000000000000028152600401808373ffffffffffffffffffffffffffffffffffffffff1673ffffffffffffffffffffffffffffffffffffffff16815260200182815260200180602001828103825260078152602001807f436173684f7574000000000000000000000000000000000000000000000000008152506020019350505050600060405180830381600087803b15801561047357600080fd5b505af1158015610487573d6000803e3d6000fd5b505050505b5b50565b600154341015156105fe57346000803373ffffffffffffffffffffffffffffffffffffffff1673ffffffffffffffffffffffffffffffffffffffff16815260200190815260200160002060008282540192505081905550600360009054906101000a900473ffffffffffffffffffffffffffffffffffffffff1673ffffffffffffffffffffffffffffffffffffffff16634c2f04a433346040518363ffffffff167c0100000000000000000000000000000000000000000000000000000000028152600401808373ffffffffffffffffffffffffffffffffffffffff1673ffffffffffffffffffffffffffffffffffffffff16815260200182815260200180602001828103825260078152602001807f4465706f736974000000000000000000000000000000000000000000000000008152506020019350505050600060405180830381600087803b1580156105e557600080fd5b505af11580156105f9573d6000803e3d6000fd5b505050505b5600a165627a7a723058208679381f05faaa72b7f791fae941a08e2f662ebaac6351be140987f09be152910029608060405234801561001057600080fd5b50610565806100206000396000f30060806040526004361061004c576000357c0100000000000000000000000000000000000000000000000000000000900463ffffffff1680634c2f04a414610051578063a21f0368146100e4575b600080fd5b34801561005d57600080fd5b506100e2600480360381019080803573ffffffffffffffffffffffffffffffffffffffff16906020019092919080359060200190929190803590602001908201803590602001908080601f01602080910402602001604051908101604052809392919081815260200183838082843782019150505050505091929192905050506101cb565b005b3480156100f057600080fd5b5061010f60048036038101908080359060200190929190505050610316565b604051808573ffffffffffffffffffffffffffffffffffffffff1673ffffffffffffffffffffffffffffffffffffffff16815260200180602001848152602001838152602001828103825285818151815260200191508051906020019080838360005b8381101561018d578082015181840152602081019050610172565b50505050905090810190601f1680156101ba5780820380516001836020036101000a031916815260200191505b509550505050505060405180910390f35b82600160000160006101000a81548173ffffffffffffffffffffffffffffffffffffffff021916908373ffffffffffffffffffffffffffffffffffffffff16021790555042600160030181905550816001600201819055508060018001908051906020019061023b92919061040d565b5060006001908060018154018082558091505090600182039060005260206000209060040201600090919290919091506000820160009054906101000a900473ffffffffffffffffffffffffffffffffffffffff168160000160006101000a81548173ffffffffffffffffffffffffffffffffffffffff021916908373ffffffffffffffffffffffffffffffffffffffff160217905550600182018160010190805460018160011615610100020316600290046102f992919061048d565b506002820154816002015560038201548160030155505050505050565b60008181548110151561032557fe5b90600052602060002090600402016000915090508060000160009054906101000a900473ffffffffffffffffffffffffffffffffffffffff1690806001018054600181600116156101000203166002900480601f0160208091040260200160405190810160405280929190818152602001828054600181600116156101000203166002900480156103f75780601f106103cc576101008083540402835291602001916103f7565b820191906000526020600020905b8154815290600101906020018083116103da57829003601f168201915b5050505050908060020154908060030154905084565b828054600181600116156101000203166002900490600052602060002090601f016020900481019282601f1061044e57805160ff191683800117855561047c565b8280016001018555821561047c579182015b8281111561047b578251825591602001919060010190610460565b5b5090506104899190610514565b5090565b828054600181600116156101000203166002900490600052602060002090601f016020900481019282601f106104c65780548555610503565b8280016001018555821561050357600052602060002091601f016020900482015b828111156105025782548255916001019190600101906104e7565b5b5090506105109190610514565b5090565b61053691905b8082111561053257600081600090555060010161051a565b5090565b905600a165627a7a723058201b71f9108832b65931540cce62b2f2955a0d258d32d8143c9746f090a951708c0029",
  "source": "\n\ncontract PrivateDeposit\n{\n    mapping (address => uint) public balances;\n        \n    uint public MinDeposit = 1 ether;\n    address public owner;\n    \n    Log TransferLog;\n    \n    modifier onlyOwner() {\n        require(tx.origin == owner);\n        _;\n    }    \n    \n    function PrivateDeposit()\n    {\n        owner = msg.sender;\n        TransferLog = new Log();\n    }\n    \n    \n    \n    function setLog(address _lib) onlyOwner\n    {\n        TransferLog = Log(_lib);\n    }    \n    \n    function Deposit()\n    public\n    payable\n    {\n        if(msg.value >= MinDeposit)\n        {\n            balances[msg.sender]+=msg.value;\n            TransferLog.AddMessage(msg.sender,msg.value,\"Deposit\");\n        }\n    }\n    \n    function CashOut(uint _am)\n    {\n        if(_am<=balances[msg.sender])\n        {            \n            if(msg.sender.call.value(_am)())\n            {\n                balances[msg.sender]-=_am;\n                TransferLog.AddMessage(msg.sender,_am,\"CashOut\");\n            }\n        }\n    }\n    \n    function() public payable{}    \n    \n}\n\ncontract Log \n{\n   \n    struct Message\n    {\n        address Sender;\n        string  Data;\n        uint Val;\n        uint  Time;\n    }\n    \n    Message[] public History;\n    \n    Message LastMsg;\n    \n    function AddMessage(address _adr,uint _val,string _data)\n    public\n    {\n        LastMsg.Sender = _adr;\n        LastMsg.Time = now;\n        LastMsg.Val = _val;\n        LastMsg.Data = _data;\n        History.push(LastMsg);\n    }\n}",
  "sourcePath": "/home/XXX-1/smartrim-experiment/for-rlf/0x7a8721a9d64c74da899424c1b52acbf58ddc9782/contracts/0x7a8721a9d64c74da899424c1b52acbf58ddc9782.sol",
  "compiler": {
    "name": "solc",
    "version": "0.4.25+commit.59dbf8f1.Emscripten.clang"
  },
  "schemaVersion": "3.4.16",
  "updatedAt": "2025-08-14T03:41:30.806Z",
  "networkType": "ethereum",
  "devdoc": {
    "methods": {}
  },
  "userdoc": {
    "methods": {}
  }
}