{
  "contractName": "Vault",
  "abi": [
    {
      "constant": true,
      "inputs": [
        {
          "name": "",
          "type": "address"
        }
      ],
      "name": "Deposits",
      "outputs": [
        {
          "name": "",
          "type": "uint256"
        }
      ],
      "payable": false,
      "stateMutability": "view",
      "type": "function"
    },
    {
      "payable": true,
      "stateMutability": "payable",
      "type": "fallback"
    },
    {
      "anonymous": false,
      "inputs": [
        {
          "indexed": true,
          "name": "depositor",
          "type": "address"
        },
        {
          "indexed": false,
          "name": "amount",
          "type": "uint256"
        }
      ],
      "name": "Deposit",
      "type": "event"
    },
    {
      "anonymous": false,
      "inputs": [
        {
          "indexed": true,
          "name": "to",
          "type": "address"
        },
        {
          "indexed": false,
          "name": "amount",
          "type": "uint256"
        }
      ],
      "name": "Withdrawal",
      "type": "event"
    },
    {
      "anonymous": false,
      "inputs": [
        {
          "indexed": true,
          "name": "from",
          "type": "address"
        },
        {
          "indexed": true,
          "name": "to",
          "type": "address"
        }
      ],
      "name": "TransferOwnership",
      "type": "event"
    },
    {
      "constant": false,
      "inputs": [],
      "name": "initVault",
      "outputs": [],
      "payable": true,
      "stateMutability": "payable",
      "type": "function"
    },
    {
      "constant": false,
      "inputs": [],
      "name": "deposit",
      "outputs": [],
      "payable": true,
      "stateMutability": "payable",
      "type": "function"
    },
    {
      "constant": false,
      "inputs": [
        {
          "name": "amount",
          "type": "uint256"
        }
      ],
      "name": "withdraw",
      "outputs": [],
      "payable": true,
      "stateMutability": "payable",
      "type": "function"
    },
    {
      "constant": false,
      "inputs": [
        {
          "name": "to",
          "type": "address"
        },
        {
          "name": "amount",
          "type": "uint256"
        }
      ],
      "name": "withdrawTo",
      "outputs": [],
      "payable": false,
      "stateMutability": "nonpayable",
      "type": "function"
    },
    {
      "constant": false,
      "inputs": [
        {
          "name": "to",
          "type": "address"
        }
      ],
      "name": "transferOwnership",
      "outputs": [],
      "payable": false,
      "stateMutability": "nonpayable",
      "type": "function"
    },
    {
      "constant": true,
      "inputs": [],
      "name": "MinimumDeposit",
      "outputs": [
        {
          "name": "",
          "type": "uint256"
        }
      ],
      "payable": false,
      "stateMutability": "view",
      "type": "function"
    },
    {
      "constant": true,
      "inputs": [],
      "name": "ReleaseDate",
      "outputs": [
        {
          "name": "",
          "type": "uint256"
        }
      ],
      "payable": false,
      "stateMutability": "view",
      "type": "function"
    },
    {
      "constant": false,
      "inputs": [
        {
          "name": "NewDate",
          "type": "uint256"
        }
      ],
      "name": "SetReleaseDate",
      "outputs": [],
      "payable": false,
      "stateMutability": "nonpayable",
      "type": "function"
    },
    {
      "constant": false,
      "inputs": [],
      "name": "lock",
      "outputs": [],
      "payable": false,
      "stateMutability": "nonpayable",
      "type": "function"
    }
  ],
  "bytecode": "0x608060405234801561001057600080fd5b50610724806100206000396000f3006080604052600436106100a4576000357c0100000000000000000000000000000000000000000000000000000000900463ffffffff168063205c2878146100ae5780632e1a7d4d146100fb5780633ee2d7c21461011b5780637c65f503146101725780638cf49cad1461017c578063c635a9f2146101a7578063c67bdb19146101d2578063d0e30db0146101ff578063f2fde38b14610209578063f83d08ba1461024c575b6100ac610263565b005b3480156100ba57600080fd5b506100f9600480360381019080803573ffffffffffffffffffffffffffffffffffffffff16906020019092919080359060200190929190505050610331565b005b61011960048036038101908080359060200190929190505050610489565b005b34801561012757600080fd5b5061015c600480360381019080803573ffffffffffffffffffffffffffffffffffffffff1690602001909291905050506104ec565b6040518082815260200191505060405180910390f35b61017a610504565b005b34801561018857600080fd5b5061019161058f565b6040518082815260200191505060405180910390f35b3480156101b357600080fd5b506101bc610599565b6040518082815260200191505060405180910390f35b3480156101de57600080fd5b506101fd600480360381019080803590602001909291905050506105a3565b005b610207610263565b005b34801561021557600080fd5b5061024a600480360381019080803573ffffffffffffffffffffffffffffffffffffffff1690602001909291905050506105ad565b005b34801561025857600080fd5b506102616106c1565b005b6000333b905060008111156102775761032e565b600034111561032d57610288610599565b341015156102de5734600160003373ffffffffffffffffffffffffffffffffffffffff1673ffffffffffffffffffffffffffffffffffffffff168152602001908152602001600020600082825401925050819055505b3373ffffffffffffffffffffffffffffffffffffffff167fe1fffcc4923d04b559f4d29a8bfc6cda04eb5b0d3c460751c2402c5c5cc9109c346040518082815260200191505060405180910390a25b5b50565b60008060009054906101000a900473ffffffffffffffffffffffffffffffffffffffff1673ffffffffffffffffffffffffffffffffffffffff163373ffffffffffffffffffffffffffffffffffffffff161415610484576103906106de565b1561048357600160003373ffffffffffffffffffffffffffffffffffffffff1673ffffffffffffffffffffffffffffffffffffffff1681526020019081526020016000205490506000811180156103e75750808211155b15610482578273ffffffffffffffffffffffffffffffffffffffff167f7fcf532c15f0a6db0bd6d0e038bea71d30d808c7d98cb3bf7268a95bf5081b65836040518082815260200191505060405180910390a28273ffffffffffffffffffffffffffffffffffffffff166108fc839081150290604051600060405180830381858888f19350505050158015610480573d6000803e3d6000fd5b505b5b5b505050565b6000809054906101000a900473ffffffffffffffffffffffffffffffffffffffff1673ffffffffffffffffffffffffffffffffffffffff163373ffffffffffffffffffffffffffffffffffffffff1614156104e9576104e83382610331565b5b50565b60016020528060005260406000206000915090505481565b600360009054906101000a900460ff16151561058d57336000806101000a81548173ffffffffffffffffffffffffffffffffffffffff021916908373ffffffffffffffffffffffffffffffffffffffff1602179055506706f05b59d3b200006002819055506000600360006101000a81548160ff02191690831515021790555061058c610263565b5b565b6000600454905090565b6000600254905090565b8060048190555050565b6000809054906101000a900473ffffffffffffffffffffffffffffffffffffffff1673ffffffffffffffffffffffffffffffffffffffff163373ffffffffffffffffffffffffffffffffffffffff1614156106be578073ffffffffffffffffffffffffffffffffffffffff166000809054906101000a900473ffffffffffffffffffffffffffffffffffffffff1673ffffffffffffffffffffffffffffffffffffffff167f5c486528ec3e3f0ea91181cff8116f02bfa350e03b8b6f12e00765adbb5af85c60405160405180910390a3806000806101000a81548173ffffffffffffffffffffffffffffffffffffffff021916908373ffffffffffffffffffffffffffffffffffffffff1602179055505b50565b6001600360006101000a81548160ff021916908315150217905550565b6000806004541180156106f357504260045411155b9050905600a165627a7a7230582035d03e6f25ae5e59372e6a350f246125088bbf1cba96710d9132cf2b67c42a300029",
  "source": "\n\ncontract Vault {\n    \n    event Deposit(address indexed depositor, uint amount);\n    event Withdrawal(address indexed to, uint amount);\n    event TransferOwnership(address indexed from, address indexed to);\n    \n    address Owner;\n    mapping (address => uint) public Deposits;\n    uint minDeposit;\n    bool Locked;\n    uint Date;\n\n    function initVault() isOpen payable {\n        Owner = msg.sender;\n        minDeposit = 0.5 ether;\n        Locked = false;\n        deposit();\n    }\n\n    function() payable { deposit(); }\n\n    function deposit() payable addresses {\n        if (msg.value > 0) {\n            if (msg.value >= MinimumDeposit()) Deposits[msg.sender] += msg.value;\n            Deposit(msg.sender, msg.value);\n        }\n    }\n\n    function withdraw(uint amount) payable onlyOwner { withdrawTo(msg.sender, amount); }\n    \n    function withdrawTo(address to, uint amount) onlyOwner {\n        if (WithdrawalEnabled()) {\n            uint max = Deposits[msg.sender];\n            if (max > 0 && amount <= max) {\n                Withdrawal(to, amount);\n                to.transfer(amount);\n            }\n        }\n    }\n\n    function transferOwnership(address to) onlyOwner { TransferOwnership(Owner, to); Owner = to; }\n    function MinimumDeposit() constant returns (uint) { return minDeposit; }\n    function ReleaseDate() constant returns (uint) { return Date; }\n    function WithdrawalEnabled() internal returns (bool) { return Date > 0 && Date <= now; }\n    function SetReleaseDate(uint NewDate) { Date = NewDate; }\n    function lock() { Locked = true; }\n    modifier onlyOwner { if (msg.sender == Owner) _; }\n    modifier isOpen { if (!Locked) _; }\n    modifier addresses {\n        uint size;\n        assembly { size := extcodesize(caller) }\n        if (size > 0) return;\n        _;\n    }\n}",
  "sourcePath": "/home/XXX-1/smartrim-experiment/for-rlf/0x08ade307321221677e837c8150bdbd4e891daf09/contracts/0x08ade307321221677e837c8150bdbd4e891daf09.sol",
  "compiler": {
    "name": "solc",
    "version": "0.4.25+commit.59dbf8f1.Emscripten.clang"
  },
  "schemaVersion": "3.4.16",
  "updatedAt": "2025-08-14T03:45:43.997Z",
  "networkType": "ethereum",
  "devdoc": {
    "methods": {}
  },
  "userdoc": {
    "methods": {}
  }
}