{
  "contractName": "ERC20Token",
  "abi": [
    {
      "constant": true,
      "inputs": [],
      "name": "totalSupply",
      "outputs": [
        {
          "name": "",
          "type": "uint256"
        }
      ],
      "payable": false,
      "stateMutability": "view",
      "type": "function"
    },
    {
      "constant": true,
      "inputs": [],
      "name": "symbol",
      "outputs": [
        {
          "name": "",
          "type": "string"
        }
      ],
      "payable": false,
      "stateMutability": "view",
      "type": "function"
    },
    {
      "anonymous": false,
      "inputs": [
        {
          "indexed": true,
          "name": "_from",
          "type": "address"
        },
        {
          "indexed": true,
          "name": "_to",
          "type": "address"
        },
        {
          "indexed": false,
          "name": "_amount",
          "type": "uint256"
        }
      ],
      "name": "Transfer",
      "type": "event"
    },
    {
      "anonymous": false,
      "inputs": [
        {
          "indexed": true,
          "name": "_owner",
          "type": "address"
        },
        {
          "indexed": true,
          "name": "_spender",
          "type": "address"
        },
        {
          "indexed": false,
          "name": "_amount",
          "type": "uint256"
        }
      ],
      "name": "Approval",
      "type": "event"
    },
    {
      "constant": true,
      "inputs": [
        {
          "name": "_addr",
          "type": "address"
        }
      ],
      "name": "balanceOf",
      "outputs": [
        {
          "name": "",
          "type": "uint256"
        }
      ],
      "payable": false,
      "stateMutability": "view",
      "type": "function"
    },
    {
      "constant": true,
      "inputs": [
        {
          "name": "_owner",
          "type": "address"
        },
        {
          "name": "_spender",
          "type": "address"
        }
      ],
      "name": "allowance",
      "outputs": [
        {
          "name": "",
          "type": "uint256"
        }
      ],
      "payable": false,
      "stateMutability": "view",
      "type": "function"
    },
    {
      "constant": false,
      "inputs": [
        {
          "name": "_to",
          "type": "address"
        },
        {
          "name": "_amount",
          "type": "uint256"
        }
      ],
      "name": "transfer",
      "outputs": [
        {
          "name": "",
          "type": "bool"
        }
      ],
      "payable": false,
      "stateMutability": "nonpayable",
      "type": "function"
    },
    {
      "constant": false,
      "inputs": [
        {
          "name": "_from",
          "type": "address"
        },
        {
          "name": "_to",
          "type": "address"
        },
        {
          "name": "_amount",
          "type": "uint256"
        }
      ],
      "name": "transferFrom",
      "outputs": [
        {
          "name": "",
          "type": "bool"
        }
      ],
      "payable": false,
      "stateMutability": "nonpayable",
      "type": "function"
    },
    {
      "constant": false,
      "inputs": [
        {
          "name": "_spender",
          "type": "address"
        },
        {
          "name": "_amount",
          "type": "uint256"
        }
      ],
      "name": "approve",
      "outputs": [
        {
          "name": "",
          "type": "bool"
        }
      ],
      "payable": false,
      "stateMutability": "nonpayable",
      "type": "function"
    }
  ],
  "bytecode": "0x608060405234801561001057600080fd5b506109e6806100206000396000f300608060405260043610610083576000357c0100000000000000000000000000000000000000000000000000000000900463ffffffff168063095ea7b31461008857806318160ddd146100ed57806323b872dd1461011857806370a082311461019d57806395d89b41146101f4578063a9059cbb14610284578063dd62ed3e146102e9575b600080fd5b34801561009457600080fd5b506100d3600480360381019080803573ffffffffffffffffffffffffffffffffffffffff16906020019092919080359060200190929190505050610360565b604051808215151515815260200191505060405180910390f35b3480156100f957600080fd5b50610102610452565b6040518082815260200191505060405180910390f35b34801561012457600080fd5b50610183600480360381019080803573ffffffffffffffffffffffffffffffffffffffff169060200190929190803573ffffffffffffffffffffffffffffffffffffffff16906020019092919080359060200190929190505050610458565b604051808215151515815260200191505060405180910390f35b3480156101a957600080fd5b506101de600480360381019080803573ffffffffffffffffffffffffffffffffffffffff169060200190929190505050610608565b6040518082815260200191505060405180910390f35b34801561020057600080fd5b50610209610651565b6040518080602001828103825283818151815260200191508051906020019080838360005b8381101561024957808201518184015260208101905061022e565b50505050905090810190601f1680156102765780820380516001836020036101000a031916815260200191505b509250505060405180910390f35b34801561029057600080fd5b506102cf600480360381019080803573ffffffffffffffffffffffffffffffffffffffff169060200190929190803590602001909291905050506106ef565b604051808215151515815260200191505060405180910390f35b3480156102f557600080fd5b5061034a600480360381019080803573ffffffffffffffffffffffffffffffffffffffff169060200190929190803573ffffffffffffffffffffffffffffffffffffffff169060200190929190505050610704565b6040518082815260200191505060405180910390f35b600081600360003373ffffffffffffffffffffffffffffffffffffffff1673ffffffffffffffffffffffffffffffffffffffff16815260200190815260200160002060008573ffffffffffffffffffffffffffffffffffffffff1673ffffffffffffffffffffffffffffffffffffffff168152602001908152602001600020819055508273ffffffffffffffffffffffffffffffffffffffff163373ffffffffffffffffffffffffffffffffffffffff167f8c5be1e5ebec7d5bd14f71427d1e84f3dd0314c0f7b2291e5b200ac8c7c3b925846040518082815260200191505060405180910390a36001905092915050565b60005481565b6000600360008573ffffffffffffffffffffffffffffffffffffffff1673ffffffffffffffffffffffffffffffffffffffff16815260200190815260200160002060003373ffffffffffffffffffffffffffffffffffffffff1673ffffffffffffffffffffffffffffffffffffffff1681526020019081526020016000205482111515156104e557600080fd5b61057482600360008773ffffffffffffffffffffffffffffffffffffffff1673ffffffffffffffffffffffffffffffffffffffff16815260200190815260200160002060003373ffffffffffffffffffffffffffffffffffffffff1673ffffffffffffffffffffffffffffffffffffffff1681526020019081526020016000205461078b90919063ffffffff16565b600360008673ffffffffffffffffffffffffffffffffffffffff1673ffffffffffffffffffffffffffffffffffffffff16815260200190815260200160002060003373ffffffffffffffffffffffffffffffffffffffff1673ffffffffffffffffffffffffffffffffffffffff168152602001908152602001600020819055506105ff8484846107a4565b90509392505050565b6000600260008373ffffffffffffffffffffffffffffffffffffffff1673ffffffffffffffffffffffffffffffffffffffff168152602001908152602001600020549050919050565b60018054600181600116156101000203166002900480601f0160208091040260200160405190810160405280929190818152602001828054600181600116156101000203166002900480156106e75780601f106106bc576101008083540402835291602001916106e7565b820191906000526020600020905b8154815290600101906020018083116106ca57829003601f168201915b505050505081565b60006106fc3384846107a4565b905092915050565b6000600360008473ffffffffffffffffffffffffffffffffffffffff1673ffffffffffffffffffffffffffffffffffffffff16815260200190815260200160002060008373ffffffffffffffffffffffffffffffffffffffff1673ffffffffffffffffffffffffffffffffffffffff16815260200190815260200160002054905092915050565b6000818303905082811115151561079e57fe5b92915050565b6000600260008573ffffffffffffffffffffffffffffffffffffffff1673ffffffffffffffffffffffffffffffffffffffff1681526020019081526020016000205482111515156107f457600080fd5b8273ffffffffffffffffffffffffffffffffffffffff168473ffffffffffffffffffffffffffffffffffffffff167fddf252ad1be2c89b69c2b068fc378daa952ba7f163c4a11628f55a4df523b3ef846040518082815260200191505060405180910390a3600082141561086b576001905061099a565b6108bd82600260008773ffffffffffffffffffffffffffffffffffffffff1673ffffffffffffffffffffffffffffffffffffffff1681526020019081526020016000205461078b90919063ffffffff16565b600260008673ffffffffffffffffffffffffffffffffffffffff1673ffffffffffffffffffffffffffffffffffffffff1681526020019081526020016000208190555061095282600260008673ffffffffffffffffffffffffffffffffffffffff1673ffffffffffffffffffffffffffffffffffffffff168152602001908152602001600020546109a190919063ffffffff16565b600260008573ffffffffffffffffffffffffffffffffffffffff1673ffffffffffffffffffffffffffffffffffffffff16815260200190815260200160002081905550600190505b9392505050565b600081830190508281101515156109b457fe5b929150505600a165627a7a72305820ec306989df0f6144743c3dee5b1a7f1eb696a5763b0f9e0c132afadaf177115a0029",
  "source": "\n\n\n\n\n\n\n\ncontract VentanaTokenConfig\n{\n    \n    string public           name            = \"Ventana\";\n    string public           symbol          = \"VNT\";\n\n    \n    \n    address public          owner           = 0xF4b087Ad256ABC5BE11E0433B15Ed012c8AEC8B4; \n    \n    \n    \n    address public          fundWallet      = 0xd6514387236595e080B97c8ead1cBF12f9a6Ab65; \n\n    \n    uint public constant    TOKENS_PER_USD  = 3;\n\n    \n    uint public constant    USD_PER_ETH     = 258; \n    \n    \n    uint public constant    MIN_USD_FUND    = 2000000;  \n    uint public constant    MAX_USD_FUND    = 20000000; \n    \n    \n    uint public constant    KYC_USD_LMT     = 10000;\n    \n    \n    \n    uint public constant    MAX_TOKENS      = 300000000;\n    \n    \n    \n    uint public constant    START_DATE      = 1502701200; \n\n    \n    uint public constant    FUNDING_PERIOD  = 28 days;\n}\n\n\nlibrary SafeMath\n{\n    \n    function add(uint a, uint b) internal returns (uint c) {\n        c = a + b;\n        assert(c >= a);\n    }\n    \n    \n    function sub(uint a, uint b) internal returns (uint c) {\n        c = a - b;\n        assert(c <= a);\n    }\n    \n    \n    function mul(uint a, uint b) internal returns (uint c) {\n        c = a * b;\n        assert(a == 0 || c / a == b);\n    }\n    \n    \n    function div(uint a, uint b) internal returns (uint c) {\n        c = a / b;\n        \n    }\n}\n\n\ncontract ReentryProtected\n{\n    \n    bool __reMutex;\n\n    \n    modifier preventReentry() {\n        require(!__reMutex);\n        __reMutex = true;\n        _;\n        delete __reMutex;\n    }\n\n    \n    modifier noReentry() {\n        require(!__reMutex);\n        _;\n    }\n}\n\ncontract ERC20Token\n{\n    using SafeMath for uint;\n\n\n\n    \n    \n\n\n    \n    uint public totalSupply;\n    \n    \n    string public symbol;\n    \n    \n    mapping (address => uint) balances;\n    \n    \n    mapping (address => mapping (address => uint)) allowed;\n\n\n\n    \n    event Transfer(\n        address indexed _from,\n        address indexed _to,\n        uint256 _amount);\n\n    \n    event Approval(\n        address indexed _owner,\n        address indexed _spender,\n        uint256 _amount);\n\n\n\n    \n    \n\n\n    \n    function balanceOf(address _addr)\n        public\n        constant\n        returns (uint)\n    {\n        return balances[_addr];\n    }\n    \n    \n    function allowance(address _owner, address _spender)\n        public\n        constant\n        returns (uint)\n    {\n        return allowed[_owner][_spender];\n    }\n\n    \n    function transfer(address _to, uint256 _amount)\n        public\n        returns (bool)\n    {\n        return xfer(msg.sender, _to, _amount);\n    }\n\n    \n    function transferFrom(address _from, address _to, uint256 _amount)\n        public\n        returns (bool)\n    {\n        require(_amount <= allowed[_from][msg.sender]);\n        \n        allowed[_from][msg.sender] = allowed[_from][msg.sender].sub(_amount);\n        return xfer(_from, _to, _amount);\n    }\n\n    \n    function xfer(address _from, address _to, uint _amount)\n        internal\n        returns (bool)\n    {\n        require(_amount <= balances[_from]);\n\n        Transfer(_from, _to, _amount);\n        \n        \n        if(_amount == 0) return true;\n        \n        balances[_from] = balances[_from].sub(_amount);\n        balances[_to]   = balances[_to].add(_amount);\n        \n        return true;\n    }\n\n    \n    function approve(address _spender, uint256 _amount)\n        public\n        returns (bool)\n    {\n        allowed[msg.sender][_spender] = _amount;\n        Approval(msg.sender, _spender, _amount);\n        return true;\n    }\n}\n\n\n\n\n\ncontract VentanaTokenAbstract\n{\n\n    event KYCAddress(address indexed _addr, bool indexed _kyc);\n    event Refunded(address indexed _addr, uint indexed _value);\n    event ChangedOwner(address indexed _from, address indexed _to);\n    event ChangeOwnerTo(address indexed _to);\n    event FundsTransferred(address indexed _wallet, uint indexed _value);\n\n    \n    bool public __abortFuse = true;\n    \n    \n    \n    bool public icoSuccessful;\n\n    \n    uint8 public constant decimals = 18;\n\n    \n    address public newOwner;\n    \n    \n    address public veredictum;\n    \n    \n    uint public etherRaised;\n    \n    \n    \n    mapping (address => bool) public kycAddresses;\n    \n    \n    mapping (address => uint) public etherContributed;\n\n    \n    function fundSucceeded() public constant returns (bool);\n    \n    \n    function fundFailed() public constant returns (bool);\n\n    \n    function usdRaised() public constant returns (uint);\n\n    \n    function usdToEth(uint) public constant returns(uint);\n    \n    \n    function ethToUsd(uint _wei) public constant returns (uint);\n\n    \n    function ethToTokens(uint _eth)\n        public constant returns (uint);\n\n    \n    function proxyPurchase(address _addr) payable returns (bool);\n\n    \n    function finaliseICO() public returns (bool);\n    \n    \n    function addKycAddress(address _addr, bool _kyc)\n        public returns (bool);\n\n    \n    function refund(address _addr) public returns (bool);\n\n    \n    function abort() public returns (bool);\n    \n    \n    function changeVeredictum(address _addr) public returns (bool);\n    \n    \n    function transferAnyERC20Token(address tokenAddress, uint amount)\n        returns (bool);\n}\n\n\n\n\ncontract VentanaToken is \n    ReentryProtected,\n    ERC20Token,\n    VentanaTokenAbstract,\n    VentanaTokenConfig\n{\n    using SafeMath for uint;\n\n\n\n\n\n    \n    uint public constant TOKENS_PER_ETH = TOKENS_PER_USD * USD_PER_ETH;\n    uint public constant MIN_ETH_FUND   = 1 ether * MIN_USD_FUND / USD_PER_ETH;\n    uint public constant MAX_ETH_FUND   = 1 ether * MAX_USD_FUND / USD_PER_ETH;\n    uint public constant KYC_ETH_LMT    = 1 ether * KYC_USD_LMT  / USD_PER_ETH;\n\n    \n    uint public END_DATE  = START_DATE + FUNDING_PERIOD;\n\n\n\n\n\n    modifier onlyOwner {\n        require(msg.sender == owner);\n        _;\n    }\n\n\n\n\n\n    \n    function VentanaToken()\n    {\n        \n        \n        require(bytes(symbol).length > 0);\n        require(bytes(name).length > 0);\n        require(owner != 0x0);\n        require(fundWallet != 0x0);\n        require(TOKENS_PER_USD > 0);\n        require(USD_PER_ETH > 0);\n        require(MIN_USD_FUND > 0);\n        require(MAX_USD_FUND > MIN_USD_FUND);\n        require(START_DATE > 0);\n        require(FUNDING_PERIOD > 0);\n        \n        \n        totalSupply = MAX_TOKENS * 1e18;\n        balances[fundWallet] = totalSupply;\n        Transfer(0x0, fundWallet, totalSupply);\n    }\n    \n    \n    function ()\n        payable\n    {\n        \n        \n        proxyPurchase(msg.sender);\n    }\n\n\n\n\n\n    \n    function fundFailed() public constant returns (bool)\n    {\n        return !__abortFuse\n            || (now > END_DATE && etherRaised < MIN_ETH_FUND);\n    }\n    \n    \n    function fundSucceeded() public constant returns (bool)\n    {\n        return !fundFailed()\n            && etherRaised >= MIN_ETH_FUND;\n    }\n\n    \n    function ethToUsd(uint _wei) public constant returns (uint)\n    {\n        return USD_PER_ETH.mul(_wei).div(1 ether);\n    }\n    \n    \n    function usdToEth(uint _usd) public constant returns (uint)\n    {\n        return _usd.mul(1 ether).div(USD_PER_ETH);\n    }\n    \n    \n    function usdRaised() public constant returns (uint)\n    {\n        return ethToUsd(etherRaised);\n    }\n    \n    \n    function ethToTokens(uint _wei) public constant returns (uint)\n    {\n        uint usd = ethToUsd(_wei);\n        \n        \n        uint bonus =\n            usd >= 2000000 ? 35 :\n            usd >= 500000  ? 30 :\n            usd >= 100000  ? 20 :\n            usd >= 25000   ? 15 :\n            usd >= 10000   ? 10 :\n            usd >= 5000    ? 5  :\n                             0;  \n        \n        \n        return _wei.mul(TOKENS_PER_ETH).mul(bonus + 100).div(100);\n    }\n\n\n\n\n\n    \n    \n    \n    function abort()\n        public\n        noReentry\n        onlyOwner\n        returns (bool)\n    {\n        require(!icoSuccessful);\n        delete __abortFuse;\n        return true;\n    }\n    \n    \n    function proxyPurchase(address _addr)\n        payable\n        noReentry\n        returns (bool)\n    {\n        require(!fundFailed());\n        require(!icoSuccessful);\n        require(now <= END_DATE);\n        require(msg.value > 0);\n        \n        \n        if(!kycAddresses[_addr])\n        {\n            require(now >= START_DATE);\n            require((etherContributed[_addr].add(msg.value)) <= KYC_ETH_LMT);\n        }\n\n        \n        uint tokens = ethToTokens(msg.value);\n        \n        \n        xfer(fundWallet, _addr, tokens);\n        \n        \n        etherContributed[_addr] = etherContributed[_addr].add(msg.value);\n        \n        \n        etherRaised = etherRaised.add(msg.value);\n        \n        \n        require(etherRaised <= MAX_ETH_FUND);\n\n        return true;\n    }\n    \n    \n    function addKycAddress(address _addr, bool _kyc)\n        public\n        noReentry\n        onlyOwner\n        returns (bool)\n    {\n        require(!fundFailed());\n\n        kycAddresses[_addr] = _kyc;\n        KYCAddress(_addr, _kyc);\n        return true;\n    }\n    \n    \n    \n    function finaliseICO()\n        public\n        onlyOwner\n        preventReentry()\n        returns (bool)\n    {\n        require(fundSucceeded());\n\n        icoSuccessful = true;\n\n        FundsTransferred(fundWallet, this.balance);\n        fundWallet.transfer(this.balance);\n        return true;\n    }\n    \n    \n    function refund(address _addr)\n        public\n        preventReentry()\n        returns (bool)\n    {\n        require(fundFailed());\n        \n        uint value = etherContributed[_addr];\n\n        \n        \n        xfer(_addr, fundWallet, balances[_addr]);\n\n        \n        delete etherContributed[_addr];\n        delete kycAddresses[_addr];\n        \n        Refunded(_addr, value);\n        if (value > 0) {\n            _addr.transfer(value);\n        }\n        return true;\n    }\n\n\n\n\n\n    function transfer(address _to, uint _amount)\n        public\n        preventReentry\n        returns (bool)\n    {\n        \n        require(icoSuccessful);\n        super.transfer(_to, _amount);\n\n        if (_to == veredictum)\n            \n            require(Notify(veredictum).notify(msg.sender, _amount));\n        return true;\n    }\n\n    function transferFrom(address _from, address _to, uint _amount)\n        public\n        preventReentry\n        returns (bool)\n    {\n        \n        require(icoSuccessful);\n        super.transferFrom(_from, _to, _amount);\n\n        if (_to == veredictum)\n            \n            require(Notify(veredictum).notify(msg.sender, _amount));\n        return true;\n    }\n    \n    function approve(address _spender, uint _amount)\n        public\n        noReentry\n        returns (bool)\n    {\n        \n        require(icoSuccessful);\n        super.approve(_spender, _amount);\n        return true;\n    }\n\n\n\n\n\n    \n    function changeOwner(address _newOwner)\n        public\n        noReentry\n        onlyOwner\n        returns (bool)\n    {\n        ChangeOwnerTo(_newOwner);\n        newOwner = _newOwner;\n        return true;\n    }\n\n    \n    function acceptOwnership()\n        public\n        noReentry\n        returns (bool)\n    {\n        require(msg.sender == newOwner);\n        ChangedOwner(owner, newOwner);\n        owner = newOwner;\n        return true;\n    }\n\n    \n    \n    function changeVeredictum(address _addr)\n        public\n        noReentry\n        onlyOwner\n        returns (bool)\n    {\n        veredictum = _addr;\n        return true;\n    }\n    \n    \n    function destroy()\n        public\n        noReentry\n        onlyOwner\n    {\n        require(!__abortFuse);\n        require(this.balance == 0);\n        selfdestruct(owner);\n    }\n    \n    \n    function transferAnyERC20Token(address tokenAddress, uint amount)\n        public\n        onlyOwner\n        preventReentry\n        returns (bool) \n    {\n        require(ERC20Token(tokenAddress).transfer(owner, amount));\n        return true;\n    }\n}\n\n\ninterface Notify\n{\n    event Notified(address indexed _from, uint indexed _amount);\n    \n    function notify(address _from, uint _amount) public returns (bool);\n}\n\n\ncontract VeredictumTest is Notify\n{\n    address public vnt;\n    \n    function setVnt(address _addr) { vnt = _addr; }\n    \n    function notify(address _from, uint _amount) public returns (bool)\n    {\n        require(msg.sender == vnt);\n        Notified(_from, _amount);\n        return true;\n    }\n}",
  "sourcePath": "/home/XXX-1/smartrim-experiment/for-rlf/0x30cefbcb5c26a5b19a019092ab8d09f8739c904f/contracts/0x30cefbcb5c26a5b19a019092ab8d09f8739c904f.sol",
  "compiler": {
    "name": "solc",
    "version": "0.4.25+commit.59dbf8f1.Emscripten.clang"
  },
  "schemaVersion": "3.4.16",
  "updatedAt": "2025-08-14T03:51:27.636Z",
  "devdoc": {
    "methods": {}
  },
  "userdoc": {
    "methods": {}
  }
}