{
  "contractName": "ReferStorage",
  "abi": [
    {
      "constant": true,
      "inputs": [
        {
          "name": "",
          "type": "address"
        }
      ],
      "name": "percentReferrer",
      "outputs": [
        {
          "name": "",
          "type": "uint256"
        }
      ],
      "payable": false,
      "stateMutability": "view",
      "type": "function"
    },
    {
      "constant": true,
      "inputs": [],
      "name": "owner",
      "outputs": [
        {
          "name": "",
          "type": "address"
        }
      ],
      "payable": false,
      "stateMutability": "view",
      "type": "function"
    },
    {
      "constant": true,
      "inputs": [],
      "name": "isOwner",
      "outputs": [
        {
          "name": "",
          "type": "bool"
        }
      ],
      "payable": false,
      "stateMutability": "view",
      "type": "function"
    },
    {
      "constant": true,
      "inputs": [
        {
          "name": "",
          "type": "address"
        }
      ],
      "name": "whitelist",
      "outputs": [
        {
          "name": "",
          "type": "bool"
        }
      ],
      "payable": false,
      "stateMutability": "view",
      "type": "function"
    },
    {
      "constant": true,
      "inputs": [
        {
          "name": "",
          "type": "address"
        }
      ],
      "name": "balanceContract",
      "outputs": [
        {
          "name": "",
          "type": "uint256"
        }
      ],
      "payable": false,
      "stateMutability": "view",
      "type": "function"
    },
    {
      "constant": false,
      "inputs": [
        {
          "name": "newOwner",
          "type": "address"
        }
      ],
      "name": "transferOwnership",
      "outputs": [],
      "payable": false,
      "stateMutability": "nonpayable",
      "type": "function"
    },
    {
      "inputs": [],
      "payable": false,
      "stateMutability": "nonpayable",
      "type": "constructor"
    },
    {
      "payable": true,
      "stateMutability": "payable",
      "type": "fallback"
    },
    {
      "anonymous": false,
      "inputs": [
        {
          "indexed": true,
          "name": "investor",
          "type": "address"
        },
        {
          "indexed": false,
          "name": "amount",
          "type": "uint256"
        }
      ],
      "name": "ReferrerWithdraw",
      "type": "event"
    },
    {
      "anonymous": false,
      "inputs": [
        {
          "indexed": true,
          "name": "investor",
          "type": "address"
        },
        {
          "indexed": false,
          "name": "amount",
          "type": "uint256"
        }
      ],
      "name": "ReferrerDeposit",
      "type": "event"
    },
    {
      "anonymous": false,
      "inputs": [
        {
          "indexed": true,
          "name": "walletUser",
          "type": "address"
        },
        {
          "indexed": true,
          "name": "admin",
          "type": "address"
        }
      ],
      "name": "AddWhitelist",
      "type": "event"
    },
    {
      "anonymous": false,
      "inputs": [
        {
          "indexed": true,
          "name": "addressContract",
          "type": "address"
        },
        {
          "indexed": false,
          "name": "amount",
          "type": "uint256"
        },
        {
          "indexed": true,
          "name": "sender",
          "type": "address"
        }
      ],
      "name": "PutAmountToFund",
      "type": "event"
    },
    {
      "anonymous": false,
      "inputs": [
        {
          "indexed": true,
          "name": "addressContract",
          "type": "address"
        },
        {
          "indexed": false,
          "name": "amount",
          "type": "uint256"
        },
        {
          "indexed": true,
          "name": "beneficiary",
          "type": "address"
        },
        {
          "indexed": true,
          "name": "sender",
          "type": "address"
        }
      ],
      "name": "GetAmountFromFund",
      "type": "event"
    },
    {
      "anonymous": false,
      "inputs": [
        {
          "indexed": true,
          "name": "previousOwner",
          "type": "address"
        },
        {
          "indexed": true,
          "name": "newOwner",
          "type": "address"
        }
      ],
      "name": "OwnershipTransferred",
      "type": "event"
    },
    {
      "constant": true,
      "inputs": [
        {
          "name": "_contractAddress",
          "type": "address"
        },
        {
          "name": "_referrer",
          "type": "address"
        }
      ],
      "name": "viewReferrerBalance",
      "outputs": [
        {
          "name": "",
          "type": "uint256"
        }
      ],
      "payable": false,
      "stateMutability": "view",
      "type": "function"
    },
    {
      "constant": false,
      "inputs": [
        {
          "name": "_contractAddress",
          "type": "address"
        }
      ],
      "name": "getReferrerBalance",
      "outputs": [],
      "payable": false,
      "stateMutability": "nonpayable",
      "type": "function"
    },
    {
      "constant": false,
      "inputs": [
        {
          "name": "_newUser",
          "type": "address"
        },
        {
          "name": "_status",
          "type": "bool"
        }
      ],
      "name": "setWhitelist",
      "outputs": [],
      "payable": false,
      "stateMutability": "nonpayable",
      "type": "function"
    },
    {
      "constant": false,
      "inputs": [
        {
          "name": "_contractAddress",
          "type": "address"
        },
        {
          "name": "_newPercent",
          "type": "uint256"
        }
      ],
      "name": "setReferrerPercent",
      "outputs": [],
      "payable": false,
      "stateMutability": "nonpayable",
      "type": "function"
    },
    {
      "constant": true,
      "inputs": [
        {
          "name": "_contractAddress",
          "type": "address"
        }
      ],
      "name": "getReferrerPercent",
      "outputs": [
        {
          "name": "",
          "type": "uint256"
        }
      ],
      "payable": false,
      "stateMutability": "view",
      "type": "function"
    },
    {
      "constant": true,
      "inputs": [],
      "name": "balanceAll",
      "outputs": [
        {
          "name": "",
          "type": "uint256"
        }
      ],
      "payable": false,
      "stateMutability": "view",
      "type": "function"
    },
    {
      "constant": true,
      "inputs": [
        {
          "name": "_contract",
          "type": "address"
        }
      ],
      "name": "balanceByContract",
      "outputs": [
        {
          "name": "",
          "type": "uint256"
        }
      ],
      "payable": false,
      "stateMutability": "view",
      "type": "function"
    },
    {
      "constant": false,
      "inputs": [
        {
          "name": "_contract",
          "type": "address"
        }
      ],
      "name": "depositFunds",
      "outputs": [],
      "payable": true,
      "stateMutability": "payable",
      "type": "function"
    },
    {
      "constant": false,
      "inputs": [
        {
          "name": "_amount",
          "type": "uint256"
        },
        {
          "name": "_beneficiary",
          "type": "address"
        },
        {
          "name": "_contract",
          "type": "address"
        }
      ],
      "name": "withdrawFunds",
      "outputs": [],
      "payable": false,
      "stateMutability": "nonpayable",
      "type": "function"
    },
    {
      "constant": false,
      "inputs": [
        {
          "name": "_amount",
          "type": "uint256"
        }
      ],
      "name": "withdraw",
      "outputs": [],
      "payable": false,
      "stateMutability": "nonpayable",
      "type": "function"
    },
    {
      "constant": false,
      "inputs": [
        {
          "name": "_contract",
          "type": "address"
        },
        {
          "name": "_status",
          "type": "bool"
        }
      ],
      "name": "setParentContract",
      "outputs": [],
      "payable": false,
      "stateMutability": "nonpayable",
      "type": "function"
    },
    {
      "constant": false,
      "inputs": [],
      "name": "finish",
      "outputs": [],
      "payable": false,
      "stateMutability": "nonpayable",
      "type": "function"
    },
    {
      "constant": false,
      "inputs": [
        {
          "name": "_contract",
          "type": "address"
        },
        {
          "name": "_referral",
          "type": "address"
        },
        {
          "name": "_amount",
          "type": "uint256"
        },
        {
          "name": "_referrer",
          "type": "bytes"
        }
      ],
      "name": "checkReferralLink",
      "outputs": [],
      "payable": false,
      "stateMutability": "nonpayable",
      "type": "function"
    }
  ],
  "bytecode": "0x608060405234801561001057600080fd5b5033806000806101000a81548173ffffffffffffffffffffffffffffffffffffffff021916908373ffffffffffffffffffffffffffffffffffffffff1602179055506000809054906101000a900473ffffffffffffffffffffffffffffffffffffffff1673ffffffffffffffffffffffffffffffffffffffff16600073ffffffffffffffffffffffffffffffffffffffff167f8be0079c531659141344cd1fd0a4f28419497f9722a3daafe3b4186f6b6457e060405160405180910390a350611ca9806100de6000396000f300608060405260043610610107576000357c0100000000000000000000000000000000000000000000000000000000900463ffffffff16806309b29006146101095780632e1a7d4d1461016057806342729c141461018d578063470366d7146101b857806353d6fd59146102055780637b783daa146102545780638da5cb5b146102ab5780638f32d59b14610302578063919747fb1461033157806396cce016146103675780639b19251a1461041a578063ab13426a14610475578063abc3bc92146104c4578063ac7ccfca14610507578063b428400e1461055e578063ba933ca7146105cb578063ca29941014610642578063d56b288914610699578063f2fde38b146106b0575b005b34801561011557600080fd5b5061014a600480360381019080803573ffffffffffffffffffffffffffffffffffffffff1690602001909291905050506106f3565b6040518082815260200191505060405180910390f35b34801561016c57600080fd5b5061018b6004803603810190808035906020019092919050505061073c565b005b34801561019957600080fd5b506101a26108ad565b6040518082815260200191505060405180910390f35b3480156101c457600080fd5b50610203600480360381019080803573ffffffffffffffffffffffffffffffffffffffff169060200190929190803590602001909291905050506108cc565b005b34801561021157600080fd5b50610252600480360381019080803573ffffffffffffffffffffffffffffffffffffffff169060200190929190803515159060200190929190505050610a1a565b005b34801561026057600080fd5b50610295600480360381019080803573ffffffffffffffffffffffffffffffffffffffff169060200190929190505050610bc5565b6040518082815260200191505060405180910390f35b3480156102b757600080fd5b506102c0610bdd565b604051808273ffffffffffffffffffffffffffffffffffffffff1673ffffffffffffffffffffffffffffffffffffffff16815260200191505060405180910390f35b34801561030e57600080fd5b50610317610c06565b604051808215151515815260200191505060405180910390f35b610365600480360381019080803573ffffffffffffffffffffffffffffffffffffffff169060200190929190505050610c5d565b005b34801561037357600080fd5b50610418600480360381019080803573ffffffffffffffffffffffffffffffffffffffff169060200190929190803573ffffffffffffffffffffffffffffffffffffffff16906020019092919080359060200190929190803590602001908201803590602001908080601f0160208091040260200160405190810160405280939291908181526020018383808284378201915050505050509192919290505050610e12565b005b34801561042657600080fd5b5061045b600480360381019080803573ffffffffffffffffffffffffffffffffffffffff169060200190929190505050610f81565b604051808215151515815260200191505060405180910390f35b34801561048157600080fd5b506104c2600480360381019080803573ffffffffffffffffffffffffffffffffffffffff169060200190929190803515159060200190929190505050610fa1565b005b3480156104d057600080fd5b50610505600480360381019080803573ffffffffffffffffffffffffffffffffffffffff169060200190929190505050611078565b005b34801561051357600080fd5b50610548600480360381019080803573ffffffffffffffffffffffffffffffffffffffff169060200190929190505050611397565b6040518082815260200191505060405180910390f35b34801561056a57600080fd5b506105c960048036038101908080359060200190929190803573ffffffffffffffffffffffffffffffffffffffff169060200190929190803573ffffffffffffffffffffffffffffffffffffffff1690602001909291905050506113e0565b005b3480156105d757600080fd5b5061062c600480360381019080803573ffffffffffffffffffffffffffffffffffffffff169060200190929190803573ffffffffffffffffffffffffffffffffffffffff1690602001909291905050506116dc565b6040518082815260200191505060405180910390f35b34801561064e57600080fd5b50610683600480360381019080803573ffffffffffffffffffffffffffffffffffffffff169060200190929190505050611763565b6040518082815260200191505060405180910390f35b3480156106a557600080fd5b506106ae61177b565b005b3480156106bc57600080fd5b506106f1600480360381019080803573ffffffffffffffffffffffffffffffffffffffff1690602001909291905050506117a0565b005b6000600360008373ffffffffffffffffffffffffffffffffffffffff1673ffffffffffffffffffffffffffffffffffffffff168152602001908152602001600020549050919050565b6000610746610c06565b15156107ba576040517f08c379a00000000000000000000000000000000000000000000000000000000081526004018080602001828103825260208152602001807f4f776e61626c653a2063616c6c6572206973206e6f7420746865206f776e657281525060200191505060405180910390fd5b816107c36108ad565b101580156107d15750600082115b15156107dc57600080fd5b6107e4610bdd565b90508073ffffffffffffffffffffffffffffffffffffffff166108fc839081150290604051600060405180830381858888f1935050505015801561082c573d6000803e3d6000fd5b503373ffffffffffffffffffffffffffffffffffffffff168173ffffffffffffffffffffffffffffffffffffffff163073ffffffffffffffffffffffffffffffffffffffff167f7b518d7300ef544f0016dfe44da22fb95625b3b576f61ce6ac5876abb0114817856040518082815260200191505060405180910390a45050565b60003073ffffffffffffffffffffffffffffffffffffffff1631905090565b600560003373ffffffffffffffffffffffffffffffffffffffff1673ffffffffffffffffffffffffffffffffffffffff16815260200190815260200160002060009054906101000a900460ff16806109285750610927610c06565b5b15156109c2576040517f08c379a000000000000000000000000000000000000000000000000000000000815260040180806020018281038252603e8152602001807f6f6e6c79506172656e74436f6e7472616374206d6574686f64732063616c6c6581526020017f64206279206e6f6e202d20706172656e74206f6620636f6e74726163742e000081525060400191505060405180910390fd5b600081101515156109d257600080fd5b80600260008473ffffffffffffffffffffffffffffffffffffffff1673ffffffffffffffffffffffffffffffffffffffff168152602001908152602001600020819055505050565b600560003373ffffffffffffffffffffffffffffffffffffffff1673ffffffffffffffffffffffffffffffffffffffff16815260200190815260200160002060009054906101000a900460ff1680610a765750610a75610c06565b5b1515610b10576040517f08c379a000000000000000000000000000000000000000000000000000000000815260040180806020018281038252603e8152602001807f6f6e6c79506172656e74436f6e7472616374206d6574686f64732063616c6c6581526020017f64206279206e6f6e202d20706172656e74206f6620636f6e74726163742e000081525060400191505060405180910390fd5b80600460008473ffffffffffffffffffffffffffffffffffffffff1673ffffffffffffffffffffffffffffffffffffffff16815260200190815260200160002060006101000a81548160ff0219169083151502179055503373ffffffffffffffffffffffffffffffffffffffff168273ffffffffffffffffffffffffffffffffffffffff167f4e9f391aa121d4fbfafbf818d9f6a6eb66cf9349e7aa7b884cee27f2498aa39660405160405180910390a35050565b60026020528060005260406000206000915090505481565b60008060009054906101000a900473ffffffffffffffffffffffffffffffffffffffff16905090565b60008060009054906101000a900473ffffffffffffffffffffffffffffffffffffffff1673ffffffffffffffffffffffffffffffffffffffff163373ffffffffffffffffffffffffffffffffffffffff1614905090565b600080339050600460008273ffffffffffffffffffffffffffffffffffffffff1673ffffffffffffffffffffffffffffffffffffffff16815260200190815260200160002060009054906101000a900460ff1680610cbf5750610cbe610c06565b5b1515610cca57600080fd5b600073ffffffffffffffffffffffffffffffffffffffff168373ffffffffffffffffffffffffffffffffffffffff1614151515610d0657600080fd5b3491506000821115610e0d57610d6482600360008673ffffffffffffffffffffffffffffffffffffffff1673ffffffffffffffffffffffffffffffffffffffff1681526020019081526020016000205461182890919063ffffffff16565b600360008573ffffffffffffffffffffffffffffffffffffffff1673ffffffffffffffffffffffffffffffffffffffff168152602001908152602001600020819055503373ffffffffffffffffffffffffffffffffffffffff168373ffffffffffffffffffffffffffffffffffffffff167f1d926064fe4e44d534da52729fd7cf8446ebc75e80bff1f106a466f24aee5be9846040518082815260200191505060405180910390a35b505050565b6000806000339050600460008273ffffffffffffffffffffffffffffffffffffffff1673ffffffffffffffffffffffffffffffffffffffff16815260200190815260200160002060009054906101000a900460ff1680610e765750610e75610c06565b5b1515610e8157600080fd5b601484511415610f7857610e9484611849565b92503373ffffffffffffffffffffffffffffffffffffffff168373ffffffffffffffffffffffffffffffffffffffff1614158015610efe57508573ffffffffffffffffffffffffffffffffffffffff168373ffffffffffffffffffffffffffffffffffffffff1614155b15610f7757610f696103e8610f5b600260008b73ffffffffffffffffffffffffffffffffffffffff1673ffffffffffffffffffffffffffffffffffffffff168152602001908152602001600020548861190990919063ffffffff16565b61194790919063ffffffff16565b9150610f76878484611971565b5b5b50505050505050565b60046020528060005260406000206000915054906101000a900460ff1681565b610fa9610c06565b151561101d576040517f08c379a00000000000000000000000000000000000000000000000000000000081526004018080602001828103825260208152602001807f4f776e61626c653a2063616c6c6572206973206e6f7420746865206f776e657281525060200191505060405180910390fd5b80600560008473ffffffffffffffffffffffffffffffffffffffff1673ffffffffffffffffffffffffffffffffffffffff16815260200190815260200160002060006101000a81548160ff0219169083151502179055505050565b600080339150600160008473ffffffffffffffffffffffffffffffffffffffff1673ffffffffffffffffffffffffffffffffffffffff16815260200190815260200160002060008373ffffffffffffffffffffffffffffffffffffffff1673ffffffffffffffffffffffffffffffffffffffff168152602001908152602001600020549050600360008473ffffffffffffffffffffffffffffffffffffffff1673ffffffffffffffffffffffffffffffffffffffff168152602001908152602001600020548111158015611153575061114f6108ad565b8111155b15611392576111e781600160008673ffffffffffffffffffffffffffffffffffffffff1673ffffffffffffffffffffffffffffffffffffffff16815260200190815260200160002060008573ffffffffffffffffffffffffffffffffffffffff1673ffffffffffffffffffffffffffffffffffffffff16815260200190815260200160002054611ad390919063ffffffff16565b600160008573ffffffffffffffffffffffffffffffffffffffff1673ffffffffffffffffffffffffffffffffffffffff16815260200190815260200160002060008473ffffffffffffffffffffffffffffffffffffffff1673ffffffffffffffffffffffffffffffffffffffff168152602001908152602001600020819055506112b981600360008673ffffffffffffffffffffffffffffffffffffffff1673ffffffffffffffffffffffffffffffffffffffff16815260200190815260200160002054611ad390919063ffffffff16565b600360008573ffffffffffffffffffffffffffffffffffffffff1673ffffffffffffffffffffffffffffffffffffffff168152602001908152602001600020819055508173ffffffffffffffffffffffffffffffffffffffff166108fc829081150290604051600060405180830381858888f19350505050158015611342573d6000803e3d6000fd5b508173ffffffffffffffffffffffffffffffffffffffff167fb0c4e4e1d3105aae718d44049f60c98816ade1c9b8d34fc5a00c5edfa83b2679826040518082815260200191505060405180910390a25b505050565b6000600260008373ffffffffffffffffffffffffffffffffffffffff1673ffffffffffffffffffffffffffffffffffffffff168152602001908152602001600020549050919050565b600560003373ffffffffffffffffffffffffffffffffffffffff1673ffffffffffffffffffffffffffffffffffffffff16815260200190815260200160002060009054906101000a900460ff168061143c575061143b610c06565b5b15156114d6576040517f08c379a000000000000000000000000000000000000000000000000000000000815260040180806020018281038252603e8152602001807f6f6e6c79506172656e74436f6e7472616374206d6574686f64732063616c6c6581526020017f64206279206e6f6e202d20706172656e74206f6620636f6e74726163742e000081525060400191505060405180910390fd5b600073ffffffffffffffffffffffffffffffffffffffff168173ffffffffffffffffffffffffffffffffffffffff161415151561151257600080fd5b82600360008373ffffffffffffffffffffffffffffffffffffffff1673ffffffffffffffffffffffffffffffffffffffff16815260200190815260200160002054101580156115685750826115656108ad565b10155b80156115745750600083115b151561157f57600080fd5b6115d183600360008473ffffffffffffffffffffffffffffffffffffffff1673ffffffffffffffffffffffffffffffffffffffff16815260200190815260200160002054611ad390919063ffffffff16565b600360008373ffffffffffffffffffffffffffffffffffffffff1673ffffffffffffffffffffffffffffffffffffffff168152602001908152602001600020819055508173ffffffffffffffffffffffffffffffffffffffff166108fc849081150290604051600060405180830381858888f1935050505015801561165a573d6000803e3d6000fd5b503373ffffffffffffffffffffffffffffffffffffffff168273ffffffffffffffffffffffffffffffffffffffff168273ffffffffffffffffffffffffffffffffffffffff167f7b518d7300ef544f0016dfe44da22fb95625b3b576f61ce6ac5876abb0114817866040518082815260200191505060405180910390a4505050565b6000600160008473ffffffffffffffffffffffffffffffffffffffff1673ffffffffffffffffffffffffffffffffffffffff16815260200190815260200160002060008373ffffffffffffffffffffffffffffffffffffffff1673ffffffffffffffffffffffffffffffffffffffff16815260200190815260200160002054905092915050565b60036020528060005260406000206000915090505481565b6000611785610bdd565b90508073ffffffffffffffffffffffffffffffffffffffff16ff5b6117a8610c06565b151561181c576040517f08c379a00000000000000000000000000000000000000000000000000000000081526004018080602001828103825260208152602001807f4f776e61626c653a2063616c6c6572206973206e6f7420746865206f776e657281525060200191505060405180910390fd5b61182581611af4565b50565b600080828401905083811015151561183f57600080fd5b8091505092915050565b60008060008060019150601490505b60008111156118fe5781856001830381518110151561187357fe5b9060200101517f010000000000000000000000000000000000000000000000000000000000000090047f0100000000000000000000000000000000000000000000000000000000000000027f0100000000000000000000000000000000000000000000000000000000000000900460ff16028301925061010082029150808060019003915050611858565b829350505050919050565b600080600084141561191e5760009150611940565b828402905082848281151561192f57fe5b0414151561193c57600080fd5b8091505b5092915050565b60008060008311151561195957600080fd5b828481151561196457fe5b0490508091505092915050565b611a0081600160008673ffffffffffffffffffffffffffffffffffffffff1673ffffffffffffffffffffffffffffffffffffffff16815260200190815260200160002060008573ffffffffffffffffffffffffffffffffffffffff1673ffffffffffffffffffffffffffffffffffffffff1681526020019081526020016000205461182890919063ffffffff16565b600160008573ffffffffffffffffffffffffffffffffffffffff1673ffffffffffffffffffffffffffffffffffffffff16815260200190815260200160002060008473ffffffffffffffffffffffffffffffffffffffff1673ffffffffffffffffffffffffffffffffffffffff168152602001908152602001600020819055508173ffffffffffffffffffffffffffffffffffffffff167fd524c3028e68fd19b6aa354464e50b42717eda3452be52a9d02a2422338a30dc826040518082815260200191505060405180910390a2505050565b600080838311151515611ae557600080fd5b82840390508091505092915050565b600073ffffffffffffffffffffffffffffffffffffffff168173ffffffffffffffffffffffffffffffffffffffff1614151515611bbf576040517f08c379a00000000000000000000000000000000000000000000000000000000081526004018080602001828103825260268152602001807f4f776e61626c653a206e6577206f776e657220697320746865207a65726f206181526020017f646472657373000000000000000000000000000000000000000000000000000081525060400191505060405180910390fd5b8073ffffffffffffffffffffffffffffffffffffffff166000809054906101000a900473ffffffffffffffffffffffffffffffffffffffff1673ffffffffffffffffffffffffffffffffffffffff167f8be0079c531659141344cd1fd0a4f28419497f9722a3daafe3b4186f6b6457e060405160405180910390a3806000806101000a81548173ffffffffffffffffffffffffffffffffffffffff021916908373ffffffffffffffffffffffffffffffffffffffff160217905550505600a165627a7a7230582050d8611649b78b37aec9f8ac4e8fd473eaa6915cf9b06fbb65f4ece36fd6b25e0029",
  "source": "\n\n\nlibrary SafeMath {\n\n    \n    function mul(uint256 _a, uint256 _b) internal pure returns (uint256) {\n        if (_a == 0) {\n            return 0;\n        }\n\n        uint256 c = _a * _b;\n        require(c / _a == _b);\n\n        return c;\n    }\n\n    \n    function div(uint256 _a, uint256 _b) internal pure returns (uint256) {\n        require(_b > 0);\n        \n        uint256 c = _a / _b;\n        \n\n        return c;\n    }\n\n    \n    function sub(uint256 _a, uint256 _b) internal pure returns (uint256) {\n        require(_b <= _a);\n        uint256 c = _a - _b;\n\n        return c;\n    }\n\n    \n    function add(uint256 _a, uint256 _b) internal pure returns (uint256) {\n        uint256 c = _a + _b;\n        require(c >= _a);\n\n        return c;\n    }\n\n}\n\n\ncontract Ownable {\n    address private _owner;\n\n    event OwnershipTransferred(address indexed previousOwner, address indexed newOwner);\n\n    \n    constructor (address newOwner) public {\n        _owner = newOwner;\n        emit OwnershipTransferred(address(0), _owner);\n    }\n\n    \n    function owner() public view returns (address) {\n        return _owner;\n    }\n\n    \n    modifier onlyOwner() {\n        require(isOwner(), \"Ownable: caller is not the owner\");\n        _;\n    }\n\n    \n    function isOwner() public view returns (bool) {\n        return msg.sender == _owner;\n    }\n\n    \n    function transferOwnership(address newOwner) public onlyOwner {\n        _transferOwnership(newOwner);\n    }\n\n    \n    function _transferOwnership(address newOwner) internal {\n        require(newOwner != address(0), \"Ownable: new owner is the zero address\");\n        emit OwnershipTransferred(_owner, newOwner);\n        _owner = newOwner;\n    }\n}\n\ncontract ReferStorage is Ownable {\n    using SafeMath for uint;\n\n    mapping(address => mapping(address => uint)) private referrerBalance;\n    \n    mapping(address => uint) public percentReferrer;\n    \n\n    mapping(address => uint) public balanceContract;\n    \n\n    mapping(address => bool) public whitelist;\n    \n\n    mapping(address => bool) private parentContract;\n    \n\n    modifier onlyOwnerOrWhitelist(){\n        address _customerAddress = msg.sender;\n        require(whitelist[_customerAddress] || isOwner());\n        _;\n    }\n\n    modifier onlyParentContract {\n        require(parentContract[msg.sender] || isOwner(), \"onlyParentContract methods called by non - parent of contract.\");\n        _;\n    }\n\n    event ReferrerWithdraw(address indexed investor, uint256 amount);\n    event ReferrerDeposit(address indexed investor, uint256 amount);\n    event AddWhitelist(address indexed walletUser, address indexed admin);\n    event PutAmountToFund(address indexed addressContract, uint amount, address indexed sender);\n    event GetAmountFromFund(address indexed addressContract, uint amount, address indexed beneficiary, address indexed sender);\n\n    constructor() public\n    Ownable(msg.sender)\n    {}\n\n    function() external payable {\n    }\n\n    function viewReferrerBalance(address _contractAddress, address _referrer) public view returns (uint256) {\n        return referrerBalance[_contractAddress][_referrer];\n    }\n\n    function getReferrerBalance(address _contractAddress) public {\n        address referrer = msg.sender;\n        uint amount = referrerBalance[_contractAddress][referrer];\n        if (amount <= balanceContract[_contractAddress] && amount <= balanceAll()) {\n            referrerBalance[_contractAddress][referrer] = referrerBalance[_contractAddress][referrer].sub(amount);\n            balanceContract[_contractAddress] = balanceContract[_contractAddress].sub(amount);\n            referrer.transfer(amount);\n            emit ReferrerWithdraw(referrer, amount);\n        }\n    }\n\n    function setWhitelist(address _newUser, bool _status) onlyParentContract public {\n        whitelist[_newUser] = _status;\n        emit AddWhitelist(_newUser, msg.sender);\n    }\n\n    function setReferrerPercent(address _contractAddress, uint _newPercent) onlyParentContract public {\n        require(_newPercent >= 0);\n        percentReferrer[_contractAddress] = _newPercent;\n    }\n\n    function getReferrerPercent(address _contractAddress) public view returns(uint) {\n        return percentReferrer[_contractAddress];\n    }\n\n    function balanceAll() public view returns (uint) {\n        return address(this).balance;\n    }\n\n    function balanceByContract(address _contract) public view returns (uint) {\n        return balanceContract[_contract];\n    }\n\n    function depositFunds(address _contract) onlyOwnerOrWhitelist payable public {\n        require(_contract != address(0));\n        uint amount = msg.value;\n        if (amount > 0) {\n            balanceContract[_contract] = balanceContract[_contract].add(amount);\n            emit PutAmountToFund(_contract, amount, msg.sender);\n        }\n    }\n\n    function withdrawFunds(uint _amount, address _beneficiary, address _contract) onlyParentContract public {\n        require(_contract != address(0));\n        require(balanceContract[_contract] >= _amount && balanceAll() >= _amount && _amount > 0);\n        balanceContract[_contract] = balanceContract[_contract].sub(_amount);\n        _beneficiary.transfer(_amount);\n        emit GetAmountFromFund(_contract, _amount, _beneficiary, msg.sender);\n    }\n\n    function withdraw(uint _amount) onlyOwner public {\n        require(balanceAll() >= _amount && _amount > 0);\n        address contractOwner = owner();\n        contractOwner.transfer(_amount);\n        emit GetAmountFromFund(address(this), _amount, contractOwner, msg.sender);\n    }\n\n    function setParentContract(address _contract, bool _status) onlyOwner public {\n        parentContract[_contract] = _status;\n    }\n\n    function finish() external  {\n        address __owner = owner();\n        selfdestruct(__owner); \n    }\n\n    function checkReferralLink(address _contract, address _referral, uint256 _amount, bytes memory _referrer) onlyOwnerOrWhitelist public {\n        if (_referrer.length == 20) {\n            address referrer = bytesToAddress(_referrer);\n            if (referrer != msg.sender && referrer != _referral ) {\n                uint _referrerAmount = _amount.mul(percentReferrer[_contract]).div(1000);\n                _addReferrerBalance(_contract, referrer, _referrerAmount);\n            }\n        }\n    }\n\n    function _addReferrerBalance(address _contract, address _referrer, uint _amount) internal {\n        referrerBalance[_contract][_referrer] = referrerBalance[_contract][_referrer].add(_amount);\n        emit ReferrerDeposit(_referrer, _amount);\n    }\n\n    function bytesToAddress(bytes memory source) internal pure returns (address) {\n        uint result;\n        uint mul = 1;\n        for (uint i = 20; i > 0; i--) {\n            result += uint8(source[i - 1]) * mul;\n            mul = mul * 256;\n        }\n        return address(result);\n    }\n}\n",
  "sourcePath": "/home/XXX-1/smartrim-experiment/for-rlf/0x9ac4883b0226fb37fa362dbd76564c539c4f0ee6_2/contracts/0x9ac4883b0226fb37fa362dbd76564c539c4f0ee6_2.sol",
  "compiler": {
    "name": "solc",
    "version": "0.4.25+commit.59dbf8f1.Emscripten.clang"
  },
  "schemaVersion": "3.4.16",
  "updatedAt": "2025-08-14T03:36:29.466Z",
  "networkType": "ethereum",
  "devdoc": {
    "methods": {}
  },
  "userdoc": {
    "methods": {}
  }
}