{
  "contractName": "MetaGameCore",
  "abi": [
    {
      "constant": true,
      "inputs": [],
      "name": "totalPayments",
      "outputs": [
        {
          "name": "",
          "type": "uint256"
        }
      ],
      "payable": false,
      "stateMutability": "view",
      "type": "function"
    },
    {
      "constant": true,
      "inputs": [
        {
          "name": "_interfaceID",
          "type": "bytes4"
        }
      ],
      "name": "supportsInterface",
      "outputs": [
        {
          "name": "",
          "type": "bool"
        }
      ],
      "payable": false,
      "stateMutability": "pure",
      "type": "function"
    },
    {
      "constant": true,
      "inputs": [],
      "name": "cfoAddress",
      "outputs": [
        {
          "name": "",
          "type": "address"
        }
      ],
      "payable": false,
      "stateMutability": "view",
      "type": "function"
    },
    {
      "constant": true,
      "inputs": [],
      "name": "name",
      "outputs": [
        {
          "name": "_deedName",
          "type": "string"
        }
      ],
      "payable": false,
      "stateMutability": "pure",
      "type": "function"
    },
    {
      "constant": false,
      "inputs": [
        {
          "name": "_to",
          "type": "address"
        },
        {
          "name": "_deedId",
          "type": "uint256"
        }
      ],
      "name": "approve",
      "outputs": [],
      "payable": false,
      "stateMutability": "nonpayable",
      "type": "function"
    },
    {
      "constant": false,
      "inputs": [
        {
          "name": "identifier",
          "type": "uint256"
        },
        {
          "name": "newPrice",
          "type": "uint256"
        }
      ],
      "name": "changeInitialPrice",
      "outputs": [],
      "payable": false,
      "stateMutability": "nonpayable",
      "type": "function"
    },
    {
      "constant": false,
      "inputs": [
        {
          "name": "token",
          "type": "address"
        }
      ],
      "name": "reclaimToken",
      "outputs": [],
      "payable": false,
      "stateMutability": "nonpayable",
      "type": "function"
    },
    {
      "constant": false,
      "inputs": [
        {
          "name": "_to",
          "type": "address"
        },
        {
          "name": "_deedIds",
          "type": "uint256[]"
        }
      ],
      "name": "transferMultiple",
      "outputs": [],
      "payable": false,
      "stateMutability": "nonpayable",
      "type": "function"
    },
    {
      "constant": false,
      "inputs": [
        {
          "name": "_to",
          "type": "address"
        },
        {
          "name": "_deedIds",
          "type": "uint256[]"
        }
      ],
      "name": "approveMultiple",
      "outputs": [],
      "payable": false,
      "stateMutability": "nonpayable",
      "type": "function"
    },
    {
      "constant": false,
      "inputs": [
        {
          "name": "threshold",
          "type": "uint256"
        }
      ],
      "name": "setDirectPaymentThreshold",
      "outputs": [],
      "payable": false,
      "stateMutability": "nonpayable",
      "type": "function"
    },
    {
      "constant": true,
      "inputs": [
        {
          "name": "currentPrice",
          "type": "uint256"
        }
      ],
      "name": "nextPrice",
      "outputs": [
        {
          "name": "",
          "type": "uint256"
        }
      ],
      "payable": false,
      "stateMutability": "pure",
      "type": "function"
    },
    {
      "constant": true,
      "inputs": [
        {
          "name": "",
          "type": "uint256"
        }
      ],
      "name": "identifiers",
      "outputs": [
        {
          "name": "",
          "type": "uint256"
        }
      ],
      "payable": false,
      "stateMutability": "view",
      "type": "function"
    },
    {
      "constant": true,
      "inputs": [
        {
          "name": "_owner",
          "type": "address"
        }
      ],
      "name": "deedsOfOwner",
      "outputs": [
        {
          "name": "",
          "type": "uint256[]"
        }
      ],
      "payable": false,
      "stateMutability": "view",
      "type": "function"
    },
    {
      "constant": true,
      "inputs": [
        {
          "name": "price",
          "type": "uint256"
        },
        {
          "name": "dividendsPaid",
          "type": "uint256"
        }
      ],
      "name": "calculateFee",
      "outputs": [
        {
          "name": "fee",
          "type": "uint256"
        }
      ],
      "payable": false,
      "stateMutability": "view",
      "type": "function"
    },
    {
      "constant": false,
      "inputs": [],
      "name": "unpause",
      "outputs": [],
      "payable": false,
      "stateMutability": "nonpayable",
      "type": "function"
    },
    {
      "constant": false,
      "inputs": [
        {
          "name": "_newCFO",
          "type": "address"
        }
      ],
      "name": "setCFO",
      "outputs": [],
      "payable": false,
      "stateMutability": "nonpayable",
      "type": "function"
    },
    {
      "constant": false,
      "inputs": [],
      "name": "claimOwnership",
      "outputs": [],
      "payable": false,
      "stateMutability": "nonpayable",
      "type": "function"
    },
    {
      "constant": false,
      "inputs": [
        {
          "name": "_maxDividendDepth",
          "type": "uint256"
        }
      ],
      "name": "setMaxDividendDepth",
      "outputs": [],
      "payable": false,
      "stateMutability": "nonpayable",
      "type": "function"
    },
    {
      "constant": true,
      "inputs": [
        {
          "name": "_owner",
          "type": "address"
        },
        {
          "name": "_index",
          "type": "uint256"
        }
      ],
      "name": "deedOfOwnerByIndex",
      "outputs": [
        {
          "name": "",
          "type": "uint256"
        }
      ],
      "payable": false,
      "stateMutability": "view",
      "type": "function"
    },
    {
      "constant": true,
      "inputs": [],
      "name": "minimumFeePlusDividendsPercentage",
      "outputs": [
        {
          "name": "",
          "type": "uint256"
        }
      ],
      "payable": false,
      "stateMutability": "view",
      "type": "function"
    },
    {
      "constant": true,
      "inputs": [],
      "name": "paused",
      "outputs": [
        {
          "name": "",
          "type": "bool"
        }
      ],
      "payable": false,
      "stateMutability": "view",
      "type": "function"
    },
    {
      "constant": true,
      "inputs": [],
      "name": "getAllIdentifiers",
      "outputs": [
        {
          "name": "",
          "type": "uint256[]"
        }
      ],
      "payable": false,
      "stateMutability": "view",
      "type": "function"
    },
    {
      "constant": false,
      "inputs": [],
      "name": "withdrawPayments",
      "outputs": [],
      "payable": false,
      "stateMutability": "nonpayable",
      "type": "function"
    },
    {
      "constant": true,
      "inputs": [
        {
          "name": "_deedId",
          "type": "uint256"
        }
      ],
      "name": "ownerOf",
      "outputs": [
        {
          "name": "_owner",
          "type": "address"
        }
      ],
      "payable": false,
      "stateMutability": "view",
      "type": "function"
    },
    {
      "constant": true,
      "inputs": [
        {
          "name": "",
          "type": "uint256"
        }
      ],
      "name": "recentBuyers",
      "outputs": [
        {
          "name": "",
          "type": "address"
        }
      ],
      "payable": false,
      "stateMutability": "view",
      "type": "function"
    },
    {
      "constant": true,
      "inputs": [],
      "name": "dividendRecentBuyersPercentage",
      "outputs": [
        {
          "name": "",
          "type": "uint256"
        }
      ],
      "payable": false,
      "stateMutability": "view",
      "type": "function"
    },
    {
      "constant": false,
      "inputs": [],
      "name": "pause",
      "outputs": [],
      "payable": false,
      "stateMutability": "nonpayable",
      "type": "function"
    },
    {
      "constant": true,
      "inputs": [],
      "name": "dividendParentsPercentage",
      "outputs": [
        {
          "name": "",
          "type": "uint256"
        }
      ],
      "payable": false,
      "stateMutability": "view",
      "type": "function"
    },
    {
      "constant": true,
      "inputs": [],
      "name": "maxDividendDepth",
      "outputs": [
        {
          "name": "",
          "type": "uint256"
        }
      ],
      "payable": false,
      "stateMutability": "view",
      "type": "function"
    },
    {
      "constant": true,
      "inputs": [],
      "name": "owner",
      "outputs": [
        {
          "name": "",
          "type": "address"
        }
      ],
      "payable": false,
      "stateMutability": "view",
      "type": "function"
    },
    {
      "constant": true,
      "inputs": [],
      "name": "directPaymentThreshold",
      "outputs": [
        {
          "name": "",
          "type": "uint256"
        }
      ],
      "payable": false,
      "stateMutability": "view",
      "type": "function"
    },
    {
      "constant": true,
      "inputs": [
        {
          "name": "_owner",
          "type": "address"
        }
      ],
      "name": "countOfDeedsByOwner",
      "outputs": [
        {
          "name": "",
          "type": "uint256"
        }
      ],
      "payable": false,
      "stateMutability": "view",
      "type": "function"
    },
    {
      "constant": true,
      "inputs": [],
      "name": "symbol",
      "outputs": [
        {
          "name": "_deedSymbol",
          "type": "string"
        }
      ],
      "payable": false,
      "stateMutability": "pure",
      "type": "function"
    },
    {
      "constant": true,
      "inputs": [
        {
          "name": "",
          "type": "uint256"
        }
      ],
      "name": "identifierToPrice",
      "outputs": [
        {
          "name": "",
          "type": "uint256"
        }
      ],
      "payable": false,
      "stateMutability": "view",
      "type": "function"
    },
    {
      "constant": false,
      "inputs": [
        {
          "name": "identifier",
          "type": "uint256"
        },
        {
          "name": "newPrice",
          "type": "uint256"
        }
      ],
      "name": "changeDeedPrice",
      "outputs": [],
      "payable": false,
      "stateMutability": "nonpayable",
      "type": "function"
    },
    {
      "constant": true,
      "inputs": [],
      "name": "allowChangePrice",
      "outputs": [
        {
          "name": "",
          "type": "bool"
        }
      ],
      "payable": false,
      "stateMutability": "view",
      "type": "function"
    },
    {
      "constant": false,
      "inputs": [
        {
          "name": "_to",
          "type": "address"
        },
        {
          "name": "_deedId",
          "type": "uint256"
        }
      ],
      "name": "transfer",
      "outputs": [],
      "payable": false,
      "stateMutability": "nonpayable",
      "type": "function"
    },
    {
      "constant": true,
      "inputs": [],
      "name": "minimumFeePercentage",
      "outputs": [
        {
          "name": "",
          "type": "uint256"
        }
      ],
      "payable": false,
      "stateMutability": "view",
      "type": "function"
    },
    {
      "constant": false,
      "inputs": [
        {
          "name": "_allowChangePrice",
          "type": "bool"
        }
      ],
      "name": "setAllowChangePrice",
      "outputs": [],
      "payable": false,
      "stateMutability": "nonpayable",
      "type": "function"
    },
    {
      "constant": false,
      "inputs": [
        {
          "name": "_deedId",
          "type": "uint256"
        }
      ],
      "name": "takeOwnership",
      "outputs": [],
      "payable": false,
      "stateMutability": "nonpayable",
      "type": "function"
    },
    {
      "constant": true,
      "inputs": [
        {
          "name": "_deedId",
          "type": "uint256"
        }
      ],
      "name": "deedUri",
      "outputs": [
        {
          "name": "uri",
          "type": "string"
        }
      ],
      "payable": false,
      "stateMutability": "pure",
      "type": "function"
    },
    {
      "constant": true,
      "inputs": [],
      "name": "countOfDeeds",
      "outputs": [
        {
          "name": "",
          "type": "uint256"
        }
      ],
      "payable": false,
      "stateMutability": "view",
      "type": "function"
    },
    {
      "constant": true,
      "inputs": [
        {
          "name": "identifier",
          "type": "uint256"
        }
      ],
      "name": "parentOf",
      "outputs": [
        {
          "name": "parentIdentifier",
          "type": "uint256"
        }
      ],
      "payable": false,
      "stateMutability": "view",
      "type": "function"
    },
    {
      "constant": true,
      "inputs": [
        {
          "name": "",
          "type": "address"
        }
      ],
      "name": "payments",
      "outputs": [
        {
          "name": "",
          "type": "uint256"
        }
      ],
      "payable": false,
      "stateMutability": "view",
      "type": "function"
    },
    {
      "constant": true,
      "inputs": [],
      "name": "pendingOwner",
      "outputs": [
        {
          "name": "",
          "type": "address"
        }
      ],
      "payable": false,
      "stateMutability": "view",
      "type": "function"
    },
    {
      "constant": false,
      "inputs": [
        {
          "name": "_deedIds",
          "type": "uint256[]"
        }
      ],
      "name": "takeOwnershipMultiple",
      "outputs": [],
      "payable": false,
      "stateMutability": "nonpayable",
      "type": "function"
    },
    {
      "constant": true,
      "inputs": [],
      "name": "dividendRecentBuyersPercentageDecreaseFactor",
      "outputs": [
        {
          "name": "",
          "type": "uint256"
        }
      ],
      "payable": false,
      "stateMutability": "view",
      "type": "function"
    },
    {
      "constant": false,
      "inputs": [],
      "name": "withdrawFreeBalance",
      "outputs": [],
      "payable": false,
      "stateMutability": "nonpayable",
      "type": "function"
    },
    {
      "constant": false,
      "inputs": [
        {
          "name": "newOwner",
          "type": "address"
        }
      ],
      "name": "transferOwnership",
      "outputs": [],
      "payable": false,
      "stateMutability": "nonpayable",
      "type": "function"
    },
    {
      "inputs": [],
      "payable": false,
      "stateMutability": "nonpayable",
      "type": "constructor"
    },
    {
      "anonymous": false,
      "inputs": [
        {
          "indexed": true,
          "name": "identifier",
          "type": "uint256"
        },
        {
          "indexed": false,
          "name": "price",
          "type": "uint256"
        },
        {
          "indexed": false,
          "name": "nextPrice",
          "type": "uint256"
        }
      ],
      "name": "Price",
      "type": "event"
    },
    {
      "anonymous": false,
      "inputs": [
        {
          "indexed": true,
          "name": "oldOwner",
          "type": "address"
        },
        {
          "indexed": true,
          "name": "newOwner",
          "type": "address"
        },
        {
          "indexed": true,
          "name": "identifier",
          "type": "uint256"
        },
        {
          "indexed": false,
          "name": "price",
          "type": "uint256"
        },
        {
          "indexed": false,
          "name": "ownerWinnings",
          "type": "uint256"
        }
      ],
      "name": "Buy",
      "type": "event"
    },
    {
      "anonymous": false,
      "inputs": [
        {
          "indexed": true,
          "name": "beneficiary",
          "type": "address"
        },
        {
          "indexed": true,
          "name": "identifierBought",
          "type": "uint256"
        },
        {
          "indexed": true,
          "name": "identifier",
          "type": "uint256"
        },
        {
          "indexed": false,
          "name": "dividend",
          "type": "uint256"
        }
      ],
      "name": "DividendPaid",
      "type": "event"
    },
    {
      "anonymous": false,
      "inputs": [
        {
          "indexed": true,
          "name": "from",
          "type": "address"
        },
        {
          "indexed": true,
          "name": "to",
          "type": "address"
        },
        {
          "indexed": true,
          "name": "deedId",
          "type": "uint256"
        }
      ],
      "name": "Transfer",
      "type": "event"
    },
    {
      "anonymous": false,
      "inputs": [
        {
          "indexed": true,
          "name": "owner",
          "type": "address"
        },
        {
          "indexed": true,
          "name": "approved",
          "type": "address"
        },
        {
          "indexed": true,
          "name": "deedId",
          "type": "uint256"
        }
      ],
      "name": "Approval",
      "type": "event"
    },
    {
      "anonymous": false,
      "inputs": [],
      "name": "Pause",
      "type": "event"
    },
    {
      "anonymous": false,
      "inputs": [],
      "name": "Unpause",
      "type": "event"
    },
    {
      "anonymous": false,
      "inputs": [
        {
          "indexed": true,
          "name": "previousOwner",
          "type": "address"
        },
        {
          "indexed": true,
          "name": "newOwner",
          "type": "address"
        }
      ],
      "name": "OwnershipTransferred",
      "type": "event"
    },
    {
      "constant": false,
      "inputs": [
        {
          "name": "identifier",
          "type": "uint256"
        },
        {
          "name": "owner",
          "type": "address"
        },
        {
          "name": "parentIdentifier",
          "type": "uint256"
        },
        {
          "name": "price",
          "type": "uint256"
        }
      ],
      "name": "createCollectible",
      "outputs": [],
      "payable": false,
      "stateMutability": "nonpayable",
      "type": "function"
    },
    {
      "constant": false,
      "inputs": [
        {
          "name": "identifier",
          "type": "uint256"
        },
        {
          "name": "parentIdentifier",
          "type": "uint256"
        }
      ],
      "name": "setParent",
      "outputs": [],
      "payable": false,
      "stateMutability": "nonpayable",
      "type": "function"
    },
    {
      "constant": false,
      "inputs": [
        {
          "name": "identifier",
          "type": "uint256"
        }
      ],
      "name": "buy",
      "outputs": [],
      "payable": true,
      "stateMutability": "payable",
      "type": "function"
    },
    {
      "constant": true,
      "inputs": [
        {
          "name": "identifier",
          "type": "uint256"
        }
      ],
      "name": "getDeed",
      "outputs": [
        {
          "name": "deedId",
          "type": "uint256"
        },
        {
          "name": "owner",
          "type": "address"
        },
        {
          "name": "buyPrice",
          "type": "uint256"
        },
        {
          "name": "nextBuyPrice",
          "type": "uint256"
        }
      ],
      "payable": false,
      "stateMutability": "view",
      "type": "function"
    }
  ],
  "bytecode": "0x60806040526000600160146101000a81548160ff0219169083151502179055506103e8600a556109c4600b55611f40600c556006604051908082528060200260200182016040528015620000625781602001602082028038833980820191505090505b50600d90805190602001906200007a9291906200015a565b506103e8600e556002600f5560006011556000601260006101000a81548160ff0219169083151502179055506006601355348015620000b857600080fd5b50336000806101000a81548173ffffffffffffffffffffffffffffffffffffffff021916908373ffffffffffffffffffffffffffffffffffffffff16021790555033600260006101000a81548173ffffffffffffffffffffffffffffffffffffffff021916908373ffffffffffffffffffffffffffffffffffffffff16021790555060018060146101000a81548160ff0219169083151502179055506200022f565b828054828255906000526020600020908101928215620001d6579160200282015b82811115620001d55782518260006101000a81548173ffffffffffffffffffffffffffffffffffffffff021916908373ffffffffffffffffffffffffffffffffffffffff160217905550916020019190600101906200017b565b5b509050620001e59190620001e9565b5090565b6200022c91905b808211156200022857600081816101000a81549073ffffffffffffffffffffffffffffffffffffffff021916905550600101620001f0565b5090565b90565b61412b806200023f6000396000f30060806040526004361061027c576000357c0100000000000000000000000000000000000000000000000000000000900463ffffffff1680625b44871461028157806301ffc9a7146102ac5780630519ce791461031057806306fdde0314610367578063095ea7b3146103f757806317a87b801461044457806317ffc3201461047b5780631affcd7e146104be5780631d976e051461051f5780631f5c3a3c146105a55780632062e4571461062b578063223e97be146106585780632821ca711461068f57806328f2d4da146106d05780632d620e1e1461071157806334e73122146107a95780633f4ba83a146107f45780634e0a33791461080b5780634e71e0c81461084e5780634fd81926146108655780635327091014610892578063572b7a03146108f35780635c975abb1461091e5780635de3ba971461094d5780636103d70b146109b95780636352211e146109d05780636751676f14610a3d578063683ad72714610aaa57806382d708c414610b2c5780638456cb5914610b575780638a33184614610b6e5780638b018bca14610b995780638da5cb5b14610bc457806390b17f9914610c1b57806392efd27714610c4657806395d89b4114610c9d5780639eb180a714610d2d578063a132e33614610d6e578063a25287c514610da5578063a9059cbb14610dd4578063a971c23d14610e21578063aa601a7114610e4c578063b2e6ceeb14610e7b578063b95d2a5314610ea8578063c34588ba14610f4e578063cfa3c13214610f79578063d96a094a14610fba578063e2982c2114610fda578063e30c397814611031578063e435f2c914611088578063e78562c0146110ee578063ee8b39f614611119578063f2fde38b14611130575b600080fd5b34801561028d57600080fd5b50610296611173565b6040518082815260200191505060405180910390f35b3480156102b857600080fd5b506102f660048036038101908080357bffffffffffffffffffffffffffffffffffffffffffffffffffffffff19169060200190929190505050611179565b604051808215151515815260200191505060405180910390f35b34801561031c57600080fd5b50610325611499565b604051808273ffffffffffffffffffffffffffffffffffffffff1673ffffffffffffffffffffffffffffffffffffffff16815260200191505060405180910390f35b34801561037357600080fd5b5061037c6114bf565b6040518080602001828103825283818151815260200191508051906020019080838360005b838110156103bc5780820151818401526020810190506103a1565b50505050905090810190601f1680156103e95780820380516001836020036101000a031916815260200191505b509250505060405180910390f35b34801561040357600080fd5b50610442600480360381019080803573ffffffffffffffffffffffffffffffffffffffff169060200190929190803590602001909291905050506114fc565b005b34801561045057600080fd5b50610479600480360381019080803590602001909291908035906020019092919050505061157a565b005b34801561048757600080fd5b506104bc600480360381019080803573ffffffffffffffffffffffffffffffffffffffff1690602001909291905050506116a7565b005b3480156104ca57600080fd5b5061051d60048036038101908080359060200190929190803573ffffffffffffffffffffffffffffffffffffffff169060200190929190803590602001909291908035906020019092919050505061182c565b005b34801561052b57600080fd5b506105a3600480360381019080803573ffffffffffffffffffffffffffffffffffffffff169060200190929190803590602001908201803590602001908080602002602001604051908101604052809392919081815260200183836020028082843782019150505050505091929192905050506119cf565b005b3480156105b157600080fd5b50610629600480360381019080803573ffffffffffffffffffffffffffffffffffffffff16906020019092919080359060200190820180359060200190808060200260200160405190810160405280939291908181526020018383602002808284378201915050505050509192919290505050611ac0565b005b34801561063757600080fd5b5061065660048036038101908080359060200190929190505050611b75565b005b34801561066457600080fd5b5061068d6004803603810190808035906020019092919080359060200190929190505050611bdb565b005b34801561069b57600080fd5b506106ba60048036038101908080359060200190929190505050611cac565b6040518082815260200191505060405180910390f35b3480156106dc57600080fd5b506106fb60048036038101908080359060200190929190505050611d59565b6040518082815260200191505060405180910390f35b34801561071d57600080fd5b50610752600480360381019080803573ffffffffffffffffffffffffffffffffffffffff169060200190929190505050611d7c565b6040518080602001828103825283818151815260200191508051906020019060200280838360005b8381101561079557808201518184015260208101905061077a565b505050509050019250505060405180910390f35b3480156107b557600080fd5b506107de6004803603810190808035906020019092919080359060200190929190505050611ee6565b6040518082815260200191505060405180910390f35b34801561080057600080fd5b50610809611f75565b005b34801561081757600080fd5b5061084c600480360381019080803573ffffffffffffffffffffffffffffffffffffffff169060200190929190505050612034565b005b34801561085a57600080fd5b5061086361210f565b005b34801561087157600080fd5b50610890600480360381019080803590602001909291905050506122ae565b005b34801561089e57600080fd5b506108dd600480360381019080803573ffffffffffffffffffffffffffffffffffffffff16906020019092919080359060200190929190505050612314565b6040518082815260200191505060405180910390f35b3480156108ff57600080fd5b50610908612401565b6040518082815260200191505060405180910390f35b34801561092a57600080fd5b50610933612407565b604051808215151515815260200191505060405180910390f35b34801561095957600080fd5b5061096261241a565b6040518080602001828103825283818151815260200191508051906020019060200280838360005b838110156109a557808201518184015260208101905061098a565b505050509050019250505060405180910390f35b3480156109c557600080fd5b506109ce612472565b005b3480156109dc57600080fd5b506109fb60048036038101908080359060200190929190505050612591565b604051808273ffffffffffffffffffffffffffffffffffffffff1673ffffffffffffffffffffffffffffffffffffffff16815260200191505060405180910390f35b348015610a4957600080fd5b50610a686004803603810190808035906020019092919050505061260a565b604051808273ffffffffffffffffffffffffffffffffffffffff1673ffffffffffffffffffffffffffffffffffffffff16815260200191505060405180910390f35b348015610ab657600080fd5b50610ad560048036038101908080359060200190929190505050612648565b604051808581526020018473ffffffffffffffffffffffffffffffffffffffff1673ffffffffffffffffffffffffffffffffffffffff16815260200183815260200182815260200194505050505060405180910390f35b348015610b3857600080fd5b50610b416126af565b6040518082815260200191505060405180910390f35b348015610b6357600080fd5b50610b6c6126b5565b005b348015610b7a57600080fd5b50610b83612774565b6040518082815260200191505060405180910390f35b348015610ba557600080fd5b50610bae61277a565b6040518082815260200191505060405180910390f35b348015610bd057600080fd5b50610bd9612780565b604051808273ffffffffffffffffffffffffffffffffffffffff1673ffffffffffffffffffffffffffffffffffffffff16815260200191505060405180910390f35b348015610c2757600080fd5b50610c306127a5565b6040518082815260200191505060405180910390f35b348015610c5257600080fd5b50610c87600480360381019080803573ffffffffffffffffffffffffffffffffffffffff1690602001909291905050506127ab565b6040518082815260200191505060405180910390f35b348015610ca957600080fd5b50610cb26127f4565b6040518080602001828103825283818151815260200191508051906020019080838360005b83811015610cf2578082015181840152602081019050610cd7565b50505050905090810190601f168015610d1f5780820380516001836020036101000a031916815260200191505b509250505060405180910390f35b348015610d3957600080fd5b50610d5860048036038101908080359060200190929190505050612831565b6040518082815260200191505060405180910390f35b348015610d7a57600080fd5b50610da36004803603810190808035906020019092919080359060200190929190505050612849565b005b348015610db157600080fd5b50610dba612956565b604051808215151515815260200191505060405180910390f35b348015610de057600080fd5b50610e1f600480360381019080803573ffffffffffffffffffffffffffffffffffffffff16906020019092919080359060200190929190505050612969565b005b348015610e2d57600080fd5b50610e366129e7565b6040518082815260200191505060405180910390f35b348015610e5857600080fd5b50610e796004803603810190808035151590602001909291905050506129ed565b005b348015610e8757600080fd5b50610ea660048036038101908080359060200190929190505050612a66565b005b348015610eb457600080fd5b50610ed360048036038101908080359060200190929190505050612ae2565b6040518080602001828103825283818151815260200191508051906020019080838360005b83811015610f13578082015181840152602081019050610ef8565b50505050905090810190601f168015610f405780820380516001836020036101000a031916815260200191505b509250505060405180910390f35b348015610f5a57600080fd5b50610f63612bfd565b6040518082815260200191505060405180910390f35b348015610f8557600080fd5b50610fa460048036038101908080359060200190929190505050612c0a565b6040518082815260200191505060405180910390f35b610fd860048036038101908080359060200190929190505050612c27565b005b348015610fe657600080fd5b5061101b600480360381019080803573ffffffffffffffffffffffffffffffffffffffff169060200190929190505050612f08565b6040518082815260200191505060405180910390f35b34801561103d57600080fd5b50611046612f20565b604051808273ffffffffffffffffffffffffffffffffffffffff1673ffffffffffffffffffffffffffffffffffffffff16815260200191505060405180910390f35b34801561109457600080fd5b506110ec60048036038101908080359060200190820180359060200190808060200260200160405190810160405280939291908181526020018383602002808284378201915050505050509192919290505050612f46565b005b3480156110fa57600080fd5b50611103612ff8565b6040518082815260200191505060405180910390f35b34801561112557600080fd5b5061112e612ffe565b005b34801561113c57600080fd5b50611171600480360381019080803573ffffffffffffffffffffffffffffffffffffffff1690602001909291905050506130e6565b005b60095481565b600060405180807f737570706f727473496e74657266616365286279746573342900000000000000815250601901905060405180910390207bffffffffffffffffffffffffffffffffffffffffffffffffffffffff1916827bffffffffffffffffffffffffffffffffffffffffffffffffffffffff191614806113a7575060405180807f74616b654f776e6572736869702875696e7432353629000000000000000000008152506016019050604051809103902060405180807f617070726f766528616464726573732c75696e743235362900000000000000008152506018019050604051809103902060405180807f646565644f664f776e65724279496e64657828616464726573732c75696e743281526020017f35362900000000000000000000000000000000000000000000000000000000008152506023019050604051809103902060405180807f636f756e744f66446565647342794f776e657228616464726573732900000000815250601c019050604051809103902060405180807f636f756e744f6644656564732829000000000000000000000000000000000000815250600e019050604051809103902060405180807f6f776e65724f662875696e7432353629000000000000000000000000000000008152506010019050604051809103902018181818187bffffffffffffffffffffffffffffffffffffffffffffffffffffffff1916827bffffffffffffffffffffffffffffffffffffffffffffffffffffffff1916145b80611492575060405180807f646565645572692875696e7432353629000000000000000000000000000000008152506010019050604051809103902060405180807f73796d626f6c28290000000000000000000000000000000000000000000000008152506008019050604051809103902060405180807f6e616d65282900000000000000000000000000000000000000000000000000008152506006019050604051809103902018187bffffffffffffffffffffffffffffffffffffffffffffffffffffffff1916827bffffffffffffffffffffffffffffffffffffffffffffffffffffffff1916145b9050919050565b600260009054906101000a900473ffffffffffffffffffffffffffffffffffffffff1681565b60606040805190810160405280600881526020017f4d65746147616d65000000000000000000000000000000000000000000000000815250905090565b6060600160149054906101000a900460ff1615151561151a57600080fd5b600160405190808252806020026020018201604052801561154a5781602001602082028038833980820191505090505b5090508181600081518110151561155d57fe5b90602001906020020181815250506115758382611ac0565b505050565b600260009054906101000a900473ffffffffffffffffffffffffffffffffffffffff1673ffffffffffffffffffffffffffffffffffffffff163373ffffffffffffffffffffffffffffffffffffffff161415156115d657600080fd5b3073ffffffffffffffffffffffffffffffffffffffff166003600084815260200190815260200160002060009054906101000a900473ffffffffffffffffffffffffffffffffffffffff1673ffffffffffffffffffffffffffffffffffffffff1614151561164357600080fd5b806010600084815260200190815260200160002081905550817f4afcb4a87cdbd9974efdb92ee48bc8d7cd0ae4bf217004db3d080cbaee652ca78261168784611cac565b604051808381526020018281526020019250505060405180910390a25050565b60008060009054906101000a900473ffffffffffffffffffffffffffffffffffffffff1673ffffffffffffffffffffffffffffffffffffffff163373ffffffffffffffffffffffffffffffffffffffff1614151561170457600080fd5b8173ffffffffffffffffffffffffffffffffffffffff166370a08231306040518263ffffffff167c0100000000000000000000000000000000000000000000000000000000028152600401808273ffffffffffffffffffffffffffffffffffffffff1673ffffffffffffffffffffffffffffffffffffffff168152602001915050602060405180830381600087803b15801561179f57600080fd5b505af11580156117b3573d6000803e3d6000fd5b505050506040513d60208110156117c957600080fd5b810190808051906020019092919050505090506118286000809054906101000a900473ffffffffffffffffffffffffffffffffffffffff16828473ffffffffffffffffffffffffffffffffffffffff166131859092919063ffffffff16565b5050565b6000600260009054906101000a900473ffffffffffffffffffffffffffffffffffffffff1673ffffffffffffffffffffffffffffffffffffffff163373ffffffffffffffffffffffffffffffffffffffff1614151561188a57600080fd5b6001851015151561189a57600080fd5b60006003600087815260200190815260200160002060009054906101000a900473ffffffffffffffffffffffffffffffffffffffff1673ffffffffffffffffffffffffffffffffffffffff161415156118f257600080fd5b600785908060018154018082558091505090600182039060005260206000200160009091929091909150555083905060008173ffffffffffffffffffffffffffffffffffffffff161415611944573090505b61195060008287613270565b826006600087815260200190815260200160002081905550816010600087815260200190815260200160002081905550847f4afcb4a87cdbd9974efdb92ee48bc8d7cd0ae4bf217004db3d080cbaee652ca7836119ac85611cac565b604051808381526020018281526020019250505060405180910390a25050505050565b600080600160149054906101000a900460ff161515156119ee57600080fd5b600073ffffffffffffffffffffffffffffffffffffffff168473ffffffffffffffffffffffffffffffffffffffff1614151515611a2a57600080fd5b3073ffffffffffffffffffffffffffffffffffffffff168473ffffffffffffffffffffffffffffffffffffffff1614151515611a6557600080fd5b600091505b8251821015611aba578282815181101515611a8157fe5b906020019060200201519050611a97338261342e565b1515611aa257600080fd5b611aad338583613270565b8180600101925050611a6a565b50505050565b600080600160149054906101000a900460ff16151515611adf57600080fd5b8373ffffffffffffffffffffffffffffffffffffffff163373ffffffffffffffffffffffffffffffffffffffff1614151515611b1a57600080fd5b600091505b8251821015611b6f578282815181101515611b3657fe5b906020019060200201519050611b4c338261342e565b1515611b5757600080fd5b611b6233858361349a565b8180600101925050611b1f565b50505050565b600260009054906101000a900473ffffffffffffffffffffffffffffffffffffffff1673ffffffffffffffffffffffffffffffffffffffff163373ffffffffffffffffffffffffffffffffffffffff16141515611bd157600080fd5b8060118190555050565b600260009054906101000a900473ffffffffffffffffffffffffffffffffffffffff1673ffffffffffffffffffffffffffffffffffffffff163373ffffffffffffffffffffffffffffffffffffffff16141515611c3757600080fd5b60006003600084815260200190815260200160002060009054906101000a900473ffffffffffffffffffffffffffffffffffffffff1673ffffffffffffffffffffffffffffffffffffffff1614151515611c9057600080fd5b8060066000848152602001908152602001600020819055505050565b6000670de0b6b3a7640000821015611cec57611ce56064611cd760c88561354c90919063ffffffff16565b61358790919063ffffffff16565b9050611d54565b674563918244f40000821015611d2a57611d236064611d1560968561354c90919063ffffffff16565b61358790919063ffffffff16565b9050611d54565b611d516064611d4360878561354c90919063ffffffff16565b61358790919063ffffffff16565b90505b919050565b600781815481101515611d6857fe5b906000526020600020016000915090505481565b606060006060600080600080611d91886127ab565b95506000861415611dd4576000604051908082528060200260200182016040528015611dcc5781602001602082028038833980820191505090505b509650611edb565b85604051908082528060200260200182016040528015611e035781602001602082028038833980820191505090505b509450611e0e612bfd565b935060009250600091505b83821015611ed757600782815481101515611e3057fe5b906000526020600020015490508773ffffffffffffffffffffffffffffffffffffffff166003600083815260200190815260200160002060009054906101000a900473ffffffffffffffffffffffffffffffffffffffff1673ffffffffffffffffffffffffffffffffffffffff161415611eca57808584815181101515611eb357fe5b906020019060200201818152505082806001019350505b8180600101925050611e19565b8496505b505050505050919050565b6000806000611f15620186a0611f07600b548861354c90919063ffffffff16565b61358790919063ffffffff16565b9250611f41620186a0611f33600c548861354c90919063ffffffff16565b61358790919063ffffffff16565b915083821115611f6d57611f5e84836135a290919063ffffffff16565b905082811115611f6c578092505b5b505092915050565b6000809054906101000a900473ffffffffffffffffffffffffffffffffffffffff1673ffffffffffffffffffffffffffffffffffffffff163373ffffffffffffffffffffffffffffffffffffffff16141515611fd057600080fd5b600160149054906101000a900460ff161515611feb57600080fd5b6000600160146101000a81548160ff0219169083151502179055507f7805862f689e2f13df9f062ff482ad3ad112aca9e0847911ed832e158c525b3360405160405180910390a1565b6000809054906101000a900473ffffffffffffffffffffffffffffffffffffffff1673ffffffffffffffffffffffffffffffffffffffff163373ffffffffffffffffffffffffffffffffffffffff1614151561208f57600080fd5b600073ffffffffffffffffffffffffffffffffffffffff168173ffffffffffffffffffffffffffffffffffffffff16141515156120cb57600080fd5b80600260006101000a81548173ffffffffffffffffffffffffffffffffffffffff021916908373ffffffffffffffffffffffffffffffffffffffff16021790555050565b600160009054906101000a900473ffffffffffffffffffffffffffffffffffffffff1673ffffffffffffffffffffffffffffffffffffffff163373ffffffffffffffffffffffffffffffffffffffff1614151561216b57600080fd5b600160009054906101000a900473ffffffffffffffffffffffffffffffffffffffff1673ffffffffffffffffffffffffffffffffffffffff166000809054906101000a900473ffffffffffffffffffffffffffffffffffffffff1673ffffffffffffffffffffffffffffffffffffffff167f8be0079c531659141344cd1fd0a4f28419497f9722a3daafe3b4186f6b6457e060405160405180910390a3600160009054906101000a900473ffffffffffffffffffffffffffffffffffffffff166000806101000a81548173ffffffffffffffffffffffffffffffffffffffff021916908373ffffffffffffffffffffffffffffffffffffffff1602179055506000600160006101000a81548173ffffffffffffffffffffffffffffffffffffffff021916908373ffffffffffffffffffffffffffffffffffffffff160217905550565b600260009054906101000a900473ffffffffffffffffffffffffffffffffffffffff1673ffffffffffffffffffffffffffffffffffffffff163373ffffffffffffffffffffffffffffffffffffffff1614151561230a57600080fd5b8060138190555050565b6000806000806000612325876127ab565b8610151561233257600080fd5b6000935061233e612bfd565b9250600091505b828210156123f65760078281548110151561235c57fe5b906000526020600020015490508673ffffffffffffffffffffffffffffffffffffffff166003600083815260200190815260200160002060009054906101000a900473ffffffffffffffffffffffffffffffffffffffff1673ffffffffffffffffffffffffffffffffffffffff1614156123e957858414156123e0578094506123f7565b83806001019450505b8180600101925050612345565b5b5050505092915050565b600c5481565b600160149054906101000a900460ff1681565b6060600780548060200260200160405190810160405280929190818152602001828054801561246857602002820191906000526020600020905b815481526020019060010190808311612454575b5050505050905090565b600080339150600860008373ffffffffffffffffffffffffffffffffffffffff1673ffffffffffffffffffffffffffffffffffffffff168152602001908152602001600020549050600081141515156124ca57600080fd5b803073ffffffffffffffffffffffffffffffffffffffff1631101515156124f057600080fd5b612505816009546135a290919063ffffffff16565b6009819055506000600860008473ffffffffffffffffffffffffffffffffffffffff1673ffffffffffffffffffffffffffffffffffffffff168152602001908152602001600020819055508173ffffffffffffffffffffffffffffffffffffffff166108fc829081150290604051600060405180830381858888f19350505050151561258d57fe5b5050565b60006003600083815260200190815260200160002060009054906101000a900473ffffffffffffffffffffffffffffffffffffffff169050600073ffffffffffffffffffffffffffffffffffffffff168173ffffffffffffffffffffffffffffffffffffffff161415151561260557600080fd5b919050565b600d8181548110151561261957fe5b906000526020600020016000915054906101000a900473ffffffffffffffffffffffffffffffffffffffff1681565b6000806000808493506003600086815260200190815260200160002060009054906101000a900473ffffffffffffffffffffffffffffffffffffffff169250601060008681526020019081526020016000205491506126a682611cac565b90509193509193565b600e5481565b6000809054906101000a900473ffffffffffffffffffffffffffffffffffffffff1673ffffffffffffffffffffffffffffffffffffffff163373ffffffffffffffffffffffffffffffffffffffff1614151561271057600080fd5b600160149054906101000a900460ff1615151561272c57600080fd5b60018060146101000a81548160ff0219169083151502179055507f6985a02210a168e66602d3235cb6db0e70f92b3ba4d376a33c0f3d9434bff62560405160405180910390a1565b600a5481565b60135481565b6000809054906101000a900473ffffffffffffffffffffffffffffffffffffffff1681565b60115481565b6000600560008373ffffffffffffffffffffffffffffffffffffffff1673ffffffffffffffffffffffffffffffffffffffff168152602001908152602001600020549050919050565b60606040805190810160405280600281526020017f4d47000000000000000000000000000000000000000000000000000000000000815250905090565b60106020528060005260406000206000915090505481565b3373ffffffffffffffffffffffffffffffffffffffff166003600084815260200190815260200160002060009054906101000a900473ffffffffffffffffffffffffffffffffffffffff1673ffffffffffffffffffffffffffffffffffffffff161415156128b657600080fd5b601260009054906101000a900460ff1615156128d157600080fd5b6010600083815260200190815260200160002054811015156128f257600080fd5b806010600084815260200190815260200160002081905550817f4afcb4a87cdbd9974efdb92ee48bc8d7cd0ae4bf217004db3d080cbaee652ca78261293684611cac565b604051808381526020018281526020019250505060405180910390a25050565b601260009054906101000a900460ff1681565b6060600160149054906101000a900460ff1615151561298757600080fd5b60016040519080825280602002602001820160405280156129b75781602001602082028038833980820191505090505b509050818160008151811015156129ca57fe5b90602001906020020181815250506129e283826119cf565b505050565b600b5481565b600260009054906101000a900473ffffffffffffffffffffffffffffffffffffffff1673ffffffffffffffffffffffffffffffffffffffff163373ffffffffffffffffffffffffffffffffffffffff16141515612a4957600080fd5b80601260006101000a81548160ff02191690831515021790555050565b6060600160149054906101000a900460ff16151515612a8457600080fd5b6001604051908082528060200260200182016040528015612ab45781602001602082028038833980820191505090505b50905081816000815181101515612ac757fe5b9060200190602002018181525050612ade81612f46565b5050565b6060806000620f424084101515612af857600080fd5b606060405190810160405280602281526020017f68747470733a2f2f6d6574612e7175617a722e696f2f636172642f787878787881526020017f78780000000000000000000000000000000000000000000000000000000000008152509250829150600090505b6007811015612bf657600a81600a0a85811515612b7857fe5b04811515612b8257fe5b066030017f0100000000000000000000000000000000000000000000000000000000000000028282602103815181101515612bb957fe5b9060200101907effffffffffffffffffffffffffffffffffffffffffffffffffffffffffffff1916908160001a9053508080600101915050612b5f565b5050919050565b6000600780549050905090565b600060066000838152602001908152602001600020549050919050565b6000806000806000806000600160149054906101000a900460ff16151515612c4e57600080fd5b6000600360008a815260200190815260200160002060009054906101000a900473ffffffffffffffffffffffffffffffffffffffff1673ffffffffffffffffffffffffffffffffffffffff1614151515612ca757600080fd5b6003600089815260200190815260200160002060009054906101000a900473ffffffffffffffffffffffffffffffffffffffff169650601060008981526020019081526020016000205495503373ffffffffffffffffffffffffffffffffffffffff168773ffffffffffffffffffffffffffffffffffffffff1614151515612d2e57600080fd5b853410151515612d3d57600080fd5b612d4686611cac565b945084601060008a815260200190815260200160002081905550612d6b87338a613270565b877f4afcb4a87cdbd9974efdb92ee48bc8d7cd0ae4bf217004db3d080cbaee652ca786612d9788611cac565b604051808381526020018281526020019250505060405180910390a2873373ffffffffffffffffffffffffffffffffffffffff168873ffffffffffffffffffffffffffffffffffffffff167ef93dbdb72854b6b6fb35433086556f2635fc83c37080c667496fecfa650fb48986604051808381526020018281526020019250505060405180910390a4612e2a88876135bb565b9350612e368685611ee6565b9250612e5d83612e4f86896135a290919063ffffffff16565b6135a290919063ffffffff16565b9150612e683361361d565b3073ffffffffffffffffffffffffffffffffffffffff168773ffffffffffffffffffffffffffffffffffffffff16141515612ea857612ea78783613958565b5b85340390506000811115612efe573373ffffffffffffffffffffffffffffffffffffffff166108fc829081150290604051600060405180830381858888f19350505050158015612efc573d6000803e3d6000fd5b505b5050505050505050565b60086020528060005260406000206000915090505481565b600160009054906101000a900473ffffffffffffffffffffffffffffffffffffffff1681565b6000806000600160149054906101000a900460ff16151515612f6757600080fd5b600092505b8351831015612ff2578383815181101515612f8357fe5b9060200190602002015191506003600083815260200190815260200160002060009054906101000a900473ffffffffffffffffffffffffffffffffffffffff169050612fcf33836139bc565b1515612fda57600080fd5b612fe5813384613270565b8280600101935050612f6c565b50505050565b600f5481565b6000600260009054906101000a900473ffffffffffffffffffffffffffffffffffffffff1673ffffffffffffffffffffffffffffffffffffffff163373ffffffffffffffffffffffffffffffffffffffff1614151561305c57600080fd5b6009543073ffffffffffffffffffffffffffffffffffffffff1631039050600260009054906101000a900473ffffffffffffffffffffffffffffffffffffffff1673ffffffffffffffffffffffffffffffffffffffff166108fc829081150290604051600060405180830381858888f193505050501580156130e2573d6000803e3d6000fd5b5050565b6000809054906101000a900473ffffffffffffffffffffffffffffffffffffffff1673ffffffffffffffffffffffffffffffffffffffff163373ffffffffffffffffffffffffffffffffffffffff1614151561314157600080fd5b80600160006101000a81548173ffffffffffffffffffffffffffffffffffffffff021916908373ffffffffffffffffffffffffffffffffffffffff16021790555050565b8273ffffffffffffffffffffffffffffffffffffffff1663a9059cbb83836040518363ffffffff167c0100000000000000000000000000000000000000000000000000000000028152600401808373ffffffffffffffffffffffffffffffffffffffff1673ffffffffffffffffffffffffffffffffffffffff16815260200182815260200192505050602060405180830381600087803b15801561322857600080fd5b505af115801561323c573d6000803e3d6000fd5b505050506040513d602081101561325257600080fd5b8101908080519060200190929190505050151561326b57fe5b505050565b600560008373ffffffffffffffffffffffffffffffffffffffff1673ffffffffffffffffffffffffffffffffffffffff16815260200190815260200160002060008154809291906001019190505550816003600083815260200190815260200160002060006101000a81548173ffffffffffffffffffffffffffffffffffffffff021916908373ffffffffffffffffffffffffffffffffffffffff160217905550600073ffffffffffffffffffffffffffffffffffffffff168373ffffffffffffffffffffffffffffffffffffffff161415156133ce57600560008473ffffffffffffffffffffffffffffffffffffffff1673ffffffffffffffffffffffffffffffffffffffff16815260200190815260200160002060008154809291906001900391905055506004600082815260200190815260200160002060006101000a81549073ffffffffffffffffffffffffffffffffffffffff02191690555b808273ffffffffffffffffffffffffffffffffffffffff168473ffffffffffffffffffffffffffffffffffffffff167fddf252ad1be2c89b69c2b068fc378daa952ba7f163c4a11628f55a4df523b3ef60405160405180910390a4505050565b60008273ffffffffffffffffffffffffffffffffffffffff166003600084815260200190815260200160002060009054906101000a900473ffffffffffffffffffffffffffffffffffffffff1673ffffffffffffffffffffffffffffffffffffffff1614905092915050565b816004600083815260200190815260200160002060006101000a81548173ffffffffffffffffffffffffffffffffffffffff021916908373ffffffffffffffffffffffffffffffffffffffff160217905550808273ffffffffffffffffffffffffffffffffffffffff168473ffffffffffffffffffffffffffffffffffffffff167f8c5be1e5ebec7d5bd14f71427d1e84f3dd0314c0f7b2291e5b200ac8c7c3b92560405160405180910390a4505050565b60008060008414156135615760009150613580565b828402905082848281151561357257fe5b0414151561357c57fe5b8091505b5092915050565b600080828481151561359557fe5b0490508091505092915050565b60008282111515156135b057fe5b818303905092915050565b6000806135e8620186a06135da600a548661354c90919063ffffffff16565b61358790919063ffffffff16565b90506135f78485836000613a28565b915061361461360584613b5f565b8361402d90919063ffffffff16565b91505092915050565b600d600481548110151561362d57fe5b9060005260206000200160009054906101000a900473ffffffffffffffffffffffffffffffffffffffff16600d600581548110151561366857fe5b9060005260206000200160006101000a81548173ffffffffffffffffffffffffffffffffffffffff021916908373ffffffffffffffffffffffffffffffffffffffff160217905550600d60038154811015156136c057fe5b9060005260206000200160009054906101000a900473ffffffffffffffffffffffffffffffffffffffff16600d60048154811015156136fb57fe5b9060005260206000200160006101000a81548173ffffffffffffffffffffffffffffffffffffffff021916908373ffffffffffffffffffffffffffffffffffffffff160217905550600d600281548110151561375357fe5b9060005260206000200160009054906101000a900473ffffffffffffffffffffffffffffffffffffffff16600d600381548110151561378e57fe5b9060005260206000200160006101000a81548173ffffffffffffffffffffffffffffffffffffffff021916908373ffffffffffffffffffffffffffffffffffffffff160217905550600d60018154811015156137e657fe5b9060005260206000200160009054906101000a900473ffffffffffffffffffffffffffffffffffffffff16600d600281548110151561382157fe5b9060005260206000200160006101000a81548173ffffffffffffffffffffffffffffffffffffffff021916908373ffffffffffffffffffffffffffffffffffffffff160217905550600d600081548110151561387957fe5b9060005260206000200160009054906101000a900473ffffffffffffffffffffffffffffffffffffffff16600d60018154811015156138b457fe5b9060005260206000200160006101000a81548173ffffffffffffffffffffffffffffffffffffffff021916908373ffffffffffffffffffffffffffffffffffffffff16021790555080600d600081548110151561390d57fe5b9060005260206000200160006101000a81548173ffffffffffffffffffffffffffffffffffffffff021916908373ffffffffffffffffffffffffffffffffffffffff16021790555050565b6011548110156139715761396c828261404b565b6139b8565b8173ffffffffffffffffffffffffffffffffffffffff166108fc829081150290604051600060405180830381858888f1935050505015156139b7576139b6828261404b565b5b5b5050565b60008273ffffffffffffffffffffffffffffffffffffffff166004600084815260200190815260200160002060009054906101000a900473ffffffffffffffffffffffffffffffffffffffff1673ffffffffffffffffffffffffffffffffffffffff1614905092915050565b6000806000806006600088815260200190815260200160002054925060008314158015613a56575060135485105b15613b4f576003600084815260200190815260200160002060009054906101000a900473ffffffffffffffffffffffffffffffffffffffff1691503073ffffffffffffffffffffffffffffffffffffffff168273ffffffffffffffffffffffffffffffffffffffff16141515613b2157613ad08287613958565b82888373ffffffffffffffffffffffffffffffffffffffff167f7875bbe2cfc0c5746093cb37f9404afd9499851458db1f5f0d33475e291dd92c896040518082815260200191505060405180910390a45b859350613b3388848860018901613a28565b9050613b48818561402d90919063ffffffff16565b9350613b54565b600093505b505050949350505050565b600080613b8c620186a0613b7e600e548661354c90919063ffffffff16565b61358790919063ffffffff16565b90506000600d6000815481101515613ba057fe5b9060005260206000200160009054906101000a900473ffffffffffffffffffffffffffffffffffffffff1673ffffffffffffffffffffffffffffffffffffffff16141515613c2d57613c2c600d6000815481101515613bfb57fe5b9060005260206000200160009054906101000a900473ffffffffffffffffffffffffffffffffffffffff1682613958565b5b809150613c45600f548261358790919063ffffffff16565b90506000600d6001815481101515613c5957fe5b9060005260206000200160009054906101000a900473ffffffffffffffffffffffffffffffffffffffff1673ffffffffffffffffffffffffffffffffffffffff16141515613ce657613ce5600d6001815481101515613cb457fe5b9060005260206000200160009054906101000a900473ffffffffffffffffffffffffffffffffffffffff1682613958565b5b613cf9818361402d90919063ffffffff16565b9150613d10600f548261358790919063ffffffff16565b90506000600d6002815481101515613d2457fe5b9060005260206000200160009054906101000a900473ffffffffffffffffffffffffffffffffffffffff1673ffffffffffffffffffffffffffffffffffffffff16141515613db157613db0600d6002815481101515613d7f57fe5b9060005260206000200160009054906101000a900473ffffffffffffffffffffffffffffffffffffffff1682613958565b5b613dc4818361402d90919063ffffffff16565b9150613ddb600f548261358790919063ffffffff16565b90506000600d6003815481101515613def57fe5b9060005260206000200160009054906101000a900473ffffffffffffffffffffffffffffffffffffffff1673ffffffffffffffffffffffffffffffffffffffff16141515613e7c57613e7b600d6003815481101515613e4a57fe5b9060005260206000200160009054906101000a900473ffffffffffffffffffffffffffffffffffffffff1682613958565b5b613e8f818361402d90919063ffffffff16565b9150613ea6600f548261358790919063ffffffff16565b90506000600d6004815481101515613eba57fe5b9060005260206000200160009054906101000a900473ffffffffffffffffffffffffffffffffffffffff1673ffffffffffffffffffffffffffffffffffffffff16141515613f4757613f46600d6004815481101515613f1557fe5b9060005260206000200160009054906101000a900473ffffffffffffffffffffffffffffffffffffffff1682613958565b5b613f5a818361402d90919063ffffffff16565b9150613f71600f548261358790919063ffffffff16565b90506000600d6005815481101515613f8557fe5b9060005260206000200160009054906101000a900473ffffffffffffffffffffffffffffffffffffffff1673ffffffffffffffffffffffffffffffffffffffff1614151561401257614011600d6005815481101515613fe057fe5b9060005260206000200160009054906101000a900473ffffffffffffffffffffffffffffffffffffffff1682613958565b5b614025818361402d90919063ffffffff16565b915050919050565b600080828401905083811015151561404157fe5b8091505092915050565b61409d81600860008573ffffffffffffffffffffffffffffffffffffffff1673ffffffffffffffffffffffffffffffffffffffff1681526020019081526020016000205461402d90919063ffffffff16565b600860008473ffffffffffffffffffffffffffffffffffffffff1673ffffffffffffffffffffffffffffffffffffffff168152602001908152602001600020819055506140f58160095461402d90919063ffffffff16565b60098190555050505600a165627a7a72305820f5418397e3e45cc1edce7e16a13e41eabae34354c692e00966d9d1c62b4ca31b0029",
  "source": "\n\n\n\nlibrary SafeMath {\n\n  \n  function mul(uint256 a, uint256 b) internal pure returns (uint256) {\n    if (a == 0) {\n      return 0;\n    }\n    uint256 c = a * b;\n    assert(c / a == b);\n    return c;\n  }\n\n  \n  function div(uint256 a, uint256 b) internal pure returns (uint256) {\n    \n    uint256 c = a / b;\n    \n    return c;\n  }\n\n  \n  function sub(uint256 a, uint256 b) internal pure returns (uint256) {\n    assert(b <= a);\n    return a - b;\n  }\n\n  \n  function add(uint256 a, uint256 b) internal pure returns (uint256) {\n    uint256 c = a + b;\n    assert(c >= a);\n    return c;\n  }\n}\n\n\n\ncontract Ownable {\n  address public owner;\n\n\n  event OwnershipTransferred(address indexed previousOwner, address indexed newOwner);\n\n\n  \n  function Ownable() public {\n    owner = msg.sender;\n  }\n\n  \n  modifier onlyOwner() {\n    require(msg.sender == owner);\n    _;\n  }\n\n  \n  function transferOwnership(address newOwner) public onlyOwner {\n    require(newOwner != address(0));\n    OwnershipTransferred(owner, newOwner);\n    owner = newOwner;\n  }\n\n}\n\n\n\ncontract Claimable is Ownable {\n  address public pendingOwner;\n\n  \n  modifier onlyPendingOwner() {\n    require(msg.sender == pendingOwner);\n    _;\n  }\n\n  \n  function transferOwnership(address newOwner) onlyOwner public {\n    pendingOwner = newOwner;\n  }\n\n  \n  function claimOwnership() onlyPendingOwner public {\n    OwnershipTransferred(owner, pendingOwner);\n    owner = pendingOwner;\n    pendingOwner = address(0);\n  }\n}\n\n\n\ncontract Pausable is Ownable {\n  event Pause();\n  event Unpause();\n\n  bool public paused = false;\n\n\n  \n  modifier whenNotPaused() {\n    require(!paused);\n    _;\n  }\n\n  \n  modifier whenPaused() {\n    require(paused);\n    _;\n  }\n\n  \n  function pause() onlyOwner whenNotPaused public {\n    paused = true;\n    Pause();\n  }\n\n  \n  function unpause() onlyOwner whenPaused public {\n    paused = false;\n    Unpause();\n  }\n}\n\n\n\ncontract ERC20Basic {\n  function totalSupply() public view returns (uint256);\n  function balanceOf(address who) public view returns (uint256);\n  function transfer(address to, uint256 value) public returns (bool);\n  event Transfer(address indexed from, address indexed to, uint256 value);\n}\n\n\n\ncontract ERC20 is ERC20Basic {\n  function allowance(address owner, address spender) public view returns (uint256);\n  function transferFrom(address from, address to, uint256 value) public returns (bool);\n  function approve(address spender, uint256 value) public returns (bool);\n  event Approval(address indexed owner, address indexed spender, uint256 value);\n}\n\n\n\nlibrary SafeERC20 {\n  function safeTransfer(ERC20Basic token, address to, uint256 value) internal {\n    assert(token.transfer(to, value));\n  }\n\n  function safeTransferFrom(ERC20 token, address from, address to, uint256 value) internal {\n    assert(token.transferFrom(from, to, value));\n  }\n\n  function safeApprove(ERC20 token, address spender, uint256 value) internal {\n    assert(token.approve(spender, value));\n  }\n}\n\n\n\ncontract CanReclaimToken is Ownable {\n  using SafeERC20 for ERC20Basic;\n\n  \n  function reclaimToken(ERC20Basic token) external onlyOwner {\n    uint256 balance = token.balanceOf(this);\n    token.safeTransfer(owner, balance);\n  }\n\n}\n\n\n\ncontract MetaGameAccessControl is Claimable, Pausable, CanReclaimToken {\n    address public cfoAddress;\n    \n    function MetaGameAccessControl() public {\n        \n        cfoAddress = msg.sender;\n    }\n    \n    \n    modifier onlyCFO() {\n        require(msg.sender == cfoAddress);\n        _;\n    }\n\n    \n    \n    function setCFO(address _newCFO) external onlyOwner {\n        require(_newCFO != address(0));\n\n        cfoAddress = _newCFO;\n    }\n}\n\n\n\ncontract MetaGameBase is MetaGameAccessControl {\n    using SafeMath for uint256;\n    \n    mapping (uint256 => address) identifierToOwner;\n    mapping (uint256 => address) identifierToApproved;\n    mapping (address => uint256) ownershipDeedCount;\n    \n    mapping (uint256 => uint256) identifierToParentIdentifier;\n    \n    \n    uint256[] public identifiers;\n    \n    \n    function getAllIdentifiers() external view returns(uint256[]) {\n        return identifiers;\n    }\n    \n    \n    \n    \n    function parentOf(uint256 identifier) external view returns (uint256 parentIdentifier) {\n        parentIdentifier = identifierToParentIdentifier[identifier];\n    }\n}\n\n\n\n\n\ninterface ERC721 {\n\n    \n\n    \n    \n    \n\n    \n    \n    \n    \n    \n    \n    \n    \n\n    \n    \n    \n    \n    function supportsInterface(bytes4 _interfaceID) external pure returns (bool);\n\n    \n\n    \n    \n    \n    \n    \n    \n    function ownerOf(uint256 _deedId) external view returns (address _owner);\n\n    \n    \n    \n    function countOfDeeds() public view returns (uint256 _count);\n\n    \n    \n    \n    \n    function countOfDeedsByOwner(address _owner) public view returns (uint256 _count);\n\n    \n    \n    \n    \n    \n    \n    \n    \n    function deedOfOwnerByIndex(address _owner, uint256 _index) external view returns (uint256 _deedId);\n\n    \n\n    \n    \n    \n    \n    event Transfer(address indexed from, address indexed to, uint256 indexed deedId);\n\n    \n    \n    \n    \n    event Approval(address indexed owner, address indexed approved, uint256 indexed deedId);\n\n    \n    \n    \n    \n    \n    \n    function approve(address _to, uint256 _deedId) external;\n\n    \n    \n    \n    \n    function takeOwnership(uint256 _deedId) external;\n    \n    \n    \n    \n    \n    \n    \n    \n    function transfer(address _to, uint256 _deedId) external;\n}\n\n\n\n\n\ninterface ERC721Metadata {\n\n    \n    \n    \n    \n    \n\n    \n    \n    \n    function name() public pure returns (string _deedName);\n\n    \n    \n    function symbol() public pure returns (string _deedSymbol);\n\n    \n    \n    \n    \n    \n    \n    \n    \n    \n    \n    \n    \n    \n    \n    \n    \n    function deedUri(uint256 _deedId) external pure returns (string _uri);\n}\n\n\n\ncontract MetaGameDeed is MetaGameBase, ERC721, ERC721Metadata {\n    \n    \n    function name() public pure returns (string _deedName) {\n        _deedName = \"MetaGame\";\n    }\n    \n    \n    function symbol() public pure returns (string _deedSymbol) {\n        _deedSymbol = \"MG\";\n    }\n    \n    \n    bytes4 internal constant INTERFACE_SIGNATURE_ERC165 = \n        bytes4(keccak256('supportsInterface(bytes4)'));\n\n    \n    bytes4 internal constant INTERFACE_SIGNATURE_ERC721 = \n        bytes4(keccak256('ownerOf(uint256)')) ^\n        bytes4(keccak256('countOfDeeds()')) ^\n        bytes4(keccak256('countOfDeedsByOwner(address)')) ^\n        bytes4(keccak256('deedOfOwnerByIndex(address,uint256)')) ^\n        bytes4(keccak256('approve(address,uint256)')) ^\n        bytes4(keccak256('takeOwnership(uint256)'));\n        \n    \n    bytes4 internal constant INTERFACE_SIGNATURE_ERC721Metadata = \n        bytes4(keccak256('name()')) ^\n        bytes4(keccak256('symbol()')) ^\n        bytes4(keccak256('deedUri(uint256)'));\n    \n    \n    \n    \n    function supportsInterface(bytes4 _interfaceID) external pure returns (bool) {\n        return (\n            (_interfaceID == INTERFACE_SIGNATURE_ERC165)\n            || (_interfaceID == INTERFACE_SIGNATURE_ERC721)\n            || (_interfaceID == INTERFACE_SIGNATURE_ERC721Metadata)\n        );\n    }\n    \n    \n    \n    \n    function _owns(address _owner, uint256 _deedId) internal view returns (bool) {\n        return identifierToOwner[_deedId] == _owner;\n    }\n    \n    \n    \n    \n    \n    function _approve(address _from, address _to, uint256 _deedId) internal {\n        identifierToApproved[_deedId] = _to;\n        \n        \n        Approval(_from, _to, _deedId);\n    }\n    \n    \n    \n    \n    function _approvedFor(address _claimant, uint256 _deedId) internal view returns (bool) {\n        return identifierToApproved[_deedId] == _claimant;\n    }\n    \n    \n    \n    \n    \n    function _transfer(address _from, address _to, uint256 _deedId) internal {\n        \n        \n        ownershipDeedCount[_to]++;\n        \n        \n        identifierToOwner[_deedId] = _to;\n        \n        \n        \n        if (_from != address(0)) {\n            ownershipDeedCount[_from]--;\n            \n            \n            delete identifierToApproved[_deedId];\n        }\n        \n        \n        Transfer(_from, _to, _deedId);\n    }\n    \n    \n    \n    \n    \n    function countOfDeeds() public view returns (uint256) {\n        return identifiers.length;\n    }\n    \n    \n    \n    \n    function countOfDeedsByOwner(address _owner) public view returns (uint256) {\n        return ownershipDeedCount[_owner];\n    }\n    \n    \n    \n    function ownerOf(uint256 _deedId) external view returns (address _owner) {\n        _owner = identifierToOwner[_deedId];\n\n        require(_owner != address(0));\n    }\n    \n    \n    \n    \n    \n    function approve(address _to, uint256 _deedId) external whenNotPaused {\n        uint256[] memory _deedIds = new uint256[](1);\n        _deedIds[0] = _deedId;\n        \n        approveMultiple(_to, _deedIds);\n    }\n    \n    \n    \n    \n    function approveMultiple(address _to, uint256[] _deedIds) public whenNotPaused {\n        \n        require(msg.sender != _to);\n    \n        for (uint256 i = 0; i < _deedIds.length; i++) {\n            uint256 _deedId = _deedIds[i];\n            \n            \n            require(_owns(msg.sender, _deedId));\n            \n            \n            _approve(msg.sender, _to, _deedId);\n        }\n    }\n    \n    \n    \n    \n    \n    \n    \n    function transfer(address _to, uint256 _deedId) external whenNotPaused {\n        uint256[] memory _deedIds = new uint256[](1);\n        _deedIds[0] = _deedId;\n        \n        transferMultiple(_to, _deedIds);\n    }\n    \n    \n    \n    \n    \n    \n    function transferMultiple(address _to, uint256[] _deedIds) public whenNotPaused {\n        \n        require(_to != address(0));\n        \n        \n        require(_to != address(this));\n    \n        for (uint256 i = 0; i < _deedIds.length; i++) {\n            uint256 _deedId = _deedIds[i];\n            \n            \n            require(_owns(msg.sender, _deedId));\n\n            \n            _transfer(msg.sender, _to, _deedId);\n        }\n    }\n    \n    \n    \n    \n    \n    function takeOwnership(uint256 _deedId) external whenNotPaused {\n        uint256[] memory _deedIds = new uint256[](1);\n        _deedIds[0] = _deedId;\n        \n        takeOwnershipMultiple(_deedIds);\n    }\n    \n    \n    \n    \n    function takeOwnershipMultiple(uint256[] _deedIds) public whenNotPaused {\n        for (uint256 i = 0; i < _deedIds.length; i++) {\n            uint256 _deedId = _deedIds[i];\n            address _from = identifierToOwner[_deedId];\n            \n            \n            require(_approvedFor(msg.sender, _deedId));\n\n            \n            _transfer(_from, msg.sender, _deedId);\n        }\n    }\n    \n    \n    \n    \n    \n    \n    function deedsOfOwner(address _owner) external view returns(uint256[]) {\n        uint256 deedCount = countOfDeedsByOwner(_owner);\n\n        if (deedCount == 0) {\n            \n            return new uint256[](0);\n        } else {\n            uint256[] memory result = new uint256[](deedCount);\n            uint256 totalDeeds = countOfDeeds();\n            uint256 resultIndex = 0;\n            \n            for (uint256 deedNumber = 0; deedNumber < totalDeeds; deedNumber++) {\n                uint256 identifier = identifiers[deedNumber];\n                if (identifierToOwner[identifier] == _owner) {\n                    result[resultIndex] = identifier;\n                    resultIndex++;\n                }\n            }\n\n            return result;\n        }\n    }\n    \n    \n    \n    \n    function deedOfOwnerByIndex(address _owner, uint256 _index) external view returns (uint256) {\n        \n        require(_index < countOfDeedsByOwner(_owner));\n\n        \n        uint256 seen = 0;\n        uint256 totalDeeds = countOfDeeds();\n        \n        for (uint256 deedNumber = 0; deedNumber < totalDeeds; deedNumber++) {\n            uint256 identifier = identifiers[deedNumber];\n            if (identifierToOwner[identifier] == _owner) {\n                if (seen == _index) {\n                    return identifier;\n                }\n                \n                seen++;\n            }\n        }\n    }\n    \n    \n    \n    \n    \n    function deedUri(uint256 _deedId) external pure returns (string uri) {\n        \n        require (_deedId < 1000000);\n        \n        uri = \"https://meta.quazr.io/card/xxxxxxx\";\n        bytes memory _uri = bytes(uri);\n        \n        for (uint256 i = 0; i < 7; i++) {\n            _uri[33 - i] = byte(48 + (_deedId / 10 ** i) % 10);\n        }\n    }\n}\n\n\n\ncontract PullPayment {\n  using SafeMath for uint256;\n\n  mapping(address => uint256) public payments;\n  uint256 public totalPayments;\n\n  \n  function withdrawPayments() public {\n    address payee = msg.sender;\n    uint256 payment = payments[payee];\n\n    require(payment != 0);\n    require(this.balance >= payment);\n\n    totalPayments = totalPayments.sub(payment);\n    payments[payee] = 0;\n\n    assert(payee.send(payment));\n  }\n\n  \n  function asyncSend(address dest, uint256 amount) internal {\n    payments[dest] = payments[dest].add(amount);\n    totalPayments = totalPayments.add(amount);\n  }\n}\n\n\n\ncontract MetaGameFinance is MetaGameDeed, PullPayment {\n    \n    \n    uint256 public dividendParentsPercentage = 1000;\n    \n    \n    \n    uint256 public minimumFeePercentage = 2500;\n    \n    \n    \n    \n    \n    \n    uint256 public minimumFeePlusDividendsPercentage = 8000;\n    \n    \n    \n    \n    \n    address[] public recentBuyers = new address[](6);\n    \n    \n    \n    \n    uint256 public dividendRecentBuyersPercentage = 1000;\n    uint256 public dividendRecentBuyersPercentageDecreaseFactor = 2;\n    \n    \n    mapping (uint256 => uint256) public identifierToPrice;\n    \n    \n    \n    uint256 public directPaymentThreshold = 0 ether;\n    \n    \n    \n    bool public allowChangePrice = false;\n    \n    \n    uint256 public maxDividendDepth = 6;\n    \n    \n    event Price(uint256 indexed identifier, uint256 price, uint256 nextPrice);\n    \n    \n    event Buy(address indexed oldOwner, address indexed newOwner, uint256 indexed identifier, uint256 price, uint256 ownerWinnings);\n    \n    \n    event DividendPaid(address indexed beneficiary, uint256 indexed identifierBought, uint256 indexed identifier, uint256 dividend);\n    \n    \n    \n    function setDirectPaymentThreshold(uint256 threshold) external onlyCFO {\n        directPaymentThreshold = threshold;\n    }\n    \n    \n    \n    function setAllowChangePrice(bool _allowChangePrice) external onlyCFO {\n        allowChangePrice = _allowChangePrice;\n    }\n    \n    \n    \n    function setMaxDividendDepth(uint256 _maxDividendDepth) external onlyCFO {\n        maxDividendDepth = _maxDividendDepth;\n    }\n    \n    \n    \n    function nextPrice(uint256 currentPrice) public pure returns(uint256) {\n        if (currentPrice < 1 ether) {\n            return currentPrice.mul(200).div(100); \n        } else if (currentPrice < 5 ether) {\n            return currentPrice.mul(150).div(100); \n        } else {\n            return currentPrice.mul(135).div(100); \n        }\n    }\n    \n    \n    \n    \n    function changeDeedPrice(uint256 identifier, uint256 newPrice) public {\n        \n        require(identifierToOwner[identifier] == msg.sender);\n        \n        \n        require(allowChangePrice);\n        \n        \n        require(newPrice < identifierToPrice[identifier]);\n        \n        \n        identifierToPrice[identifier] = newPrice;\n        Price(identifier, newPrice, nextPrice(newPrice));\n    }\n    \n    \n    \n    \n    function changeInitialPrice(uint256 identifier, uint256 newPrice) public onlyCFO {        \n        \n        require(identifierToOwner[identifier] == address(this));\n        \n        \n        identifierToPrice[identifier] = newPrice;\n        Price(identifier, newPrice, nextPrice(newPrice));\n    }\n    \n    \n    \n    \n    \n    \n    function _payParentDividends(uint256 identifierBought, uint256 identifier, uint256 dividend, uint256 depth)\n        internal\n        returns(uint256 totalDividendsPaid)\n    {\n        uint256 parentIdentifier = identifierToParentIdentifier[identifier];\n        \n        if (parentIdentifier != 0 && depth < maxDividendDepth) {\n            address parentOwner = identifierToOwner[parentIdentifier];\n        \n            if (parentOwner != address(this)) {            \n                \n                _sendFunds(parentOwner, dividend);\n                DividendPaid(parentOwner, identifierBought, parentIdentifier, dividend);\n            }\n            \n            totalDividendsPaid = dividend;\n        \n            \n            uint256 dividendsPaid = _payParentDividends(identifierBought, parentIdentifier, dividend, depth + 1);\n            \n            totalDividendsPaid = totalDividendsPaid.add(dividendsPaid);\n        } else {\n            \n            \n            totalDividendsPaid = 0;\n        }\n    }\n    \n    \n    \n    function _payRecentBuyerDividends(uint256 price)\n        internal\n        returns(uint256 totalDividendsPaid)\n    {\n        uint256 dividend = price.mul(dividendRecentBuyersPercentage).div(100000);\n        \n        \n        if (recentBuyers[0] != 0x0) {\n            _sendFunds(recentBuyers[0], dividend);\n        }\n        totalDividendsPaid = dividend;\n        \n        \n        dividend = dividend.div(dividendRecentBuyersPercentageDecreaseFactor);\n        if (recentBuyers[1] != 0x0) {\n            _sendFunds(recentBuyers[1], dividend);\n        }\n        totalDividendsPaid = totalDividendsPaid.add(dividend);\n        \n        \n        dividend = dividend.div(dividendRecentBuyersPercentageDecreaseFactor);\n        if (recentBuyers[2] != 0x0) {\n            _sendFunds(recentBuyers[2], dividend);\n        }\n        totalDividendsPaid = totalDividendsPaid.add(dividend);\n        \n        \n        dividend = dividend.div(dividendRecentBuyersPercentageDecreaseFactor);\n        if (recentBuyers[3] != 0x0) {\n            _sendFunds(recentBuyers[3], dividend);\n        }\n        totalDividendsPaid = totalDividendsPaid.add(dividend);\n        \n        \n        dividend = dividend.div(dividendRecentBuyersPercentageDecreaseFactor);\n        if (recentBuyers[4] != 0x0) {\n            _sendFunds(recentBuyers[4], dividend);\n        }\n        totalDividendsPaid = totalDividendsPaid.add(dividend);\n        \n        \n        dividend = dividend.div(dividendRecentBuyersPercentageDecreaseFactor);\n        if (recentBuyers[5] != 0x0) {\n            _sendFunds(recentBuyers[5], dividend);\n        }\n        totalDividendsPaid = totalDividendsPaid.add(dividend);\n    }\n    \n    \n    \n    \n    function _payDividends(uint256 identifier, uint256 price)\n        internal\n        returns(uint256 totalDividendsPaid)\n    {\n        \n        uint256 parentDividend = price.mul(dividendParentsPercentage).div(100000);\n        totalDividendsPaid = _payParentDividends(identifier, identifier, parentDividend, 0);\n        \n        \n        totalDividendsPaid = totalDividendsPaid.add(_payRecentBuyerDividends(price));\n    }\n    \n    \n    \n    \n    function calculateFee(uint256 price, uint256 dividendsPaid) public view returns(uint256 fee) {\n        \n        fee = price.mul(minimumFeePercentage).div(100000);\n        \n        \n        \n        \n        uint256 _minimumFeePlusDividends = price.mul(minimumFeePlusDividendsPercentage).div(100000);\n        \n        if (_minimumFeePlusDividends > dividendsPaid) {\n            uint256 feeMinusDividends = _minimumFeePlusDividends.sub(dividendsPaid);\n        \n            \n            \n            if (feeMinusDividends > fee) {\n                fee = feeMinusDividends;\n            }\n        }\n    }\n    \n    \n    \n    \n    \n    function _shiftRecentBuyers(address newBuyer) internal {\n        recentBuyers[5] = recentBuyers[4];\n        recentBuyers[4] = recentBuyers[3];\n        recentBuyers[3] = recentBuyers[2];\n        recentBuyers[2] = recentBuyers[1];\n        recentBuyers[1] = recentBuyers[0];\n        recentBuyers[0] = newBuyer;\n    }\n    \n    \n    \n    \n    \n    function _sendFunds(address beneficiary, uint256 amount) internal {\n        if (amount < directPaymentThreshold) {\n            \n            \n            asyncSend(beneficiary, amount);\n        } else if (!beneficiary.send(amount)) {\n            \n            \n            \n            \n            \n            asyncSend(beneficiary, amount);\n        }\n    }\n    \n    \n    function withdrawFreeBalance() external onlyCFO {\n        \n        \n        \n        uint256 freeBalance = this.balance - totalPayments;\n        \n        cfoAddress.transfer(freeBalance);\n    }\n}\n\n\n\ncontract MetaGameCore is MetaGameFinance {\n    \n    function MetaGameCore() public {\n        \n        paused = true;\n    }\n    \n    \n    \n    \n    \n    \n    \n    \n    function createCollectible(uint256 identifier, address owner, uint256 parentIdentifier, uint256 price) external onlyCFO {\n        \n        \n        require(identifier >= 1);\n    \n        \n        require(identifierToOwner[identifier] == 0x0);\n        \n        \n        identifiers.push(identifier);\n        \n        address initialOwner = owner;\n        \n        if (initialOwner == 0x0) {\n            \n            initialOwner = address(this);\n        }\n        \n        \n        _transfer(0x0, initialOwner, identifier);\n        \n        \n        identifierToParentIdentifier[identifier] = parentIdentifier;\n        \n        \n        identifierToPrice[identifier] = price;\n        \n        \n        Price(identifier, price, nextPrice(price));\n    }\n    \n    \n    function setParent(uint256 identifier, uint256 parentIdentifier) external onlyCFO {\n        \n        require(identifierToOwner[identifier] != 0x0);\n        \n        identifierToParentIdentifier[identifier] = parentIdentifier;\n    }\n    \n    \n    function buy(uint256 identifier) external payable whenNotPaused {\n        \n        require(identifierToOwner[identifier] != 0x0);\n        \n        address oldOwner = identifierToOwner[identifier];\n        uint256 price = identifierToPrice[identifier];\n        \n        \n        require(oldOwner != msg.sender);\n        \n        \n        require(msg.value >= price);\n        \n        \n        uint256 newPrice = nextPrice(price);\n        identifierToPrice[identifier] = newPrice;\n        \n        \n        _transfer(oldOwner, msg.sender, identifier);\n        \n        \n        Price(identifier, newPrice, nextPrice(newPrice));\n        \n        \n        Buy(oldOwner, msg.sender, identifier, price, oldOwnerWinnings);\n        \n        \n        uint256 dividendsPaid = _payDividends(identifier, price);\n        \n        \n        uint256 fee = calculateFee(price, dividendsPaid);\n        \n        \n        uint256 oldOwnerWinnings = price.sub(dividendsPaid).sub(fee);\n        \n        \n        _shiftRecentBuyers(msg.sender);\n        \n        if (oldOwner != address(this)) {\n            \n            \n            _sendFunds(oldOwner, oldOwnerWinnings);\n        }\n        \n        \n        \n        uint256 excess = msg.value - price;\n        \n        if (excess > 0) {\n            \n            msg.sender.transfer(excess);\n        }\n    }\n    \n    \n    \n    function getDeed(uint256 identifier)\n        external\n        view\n        returns(uint256 deedId, address owner, uint256 buyPrice, uint256 nextBuyPrice)\n    {\n        deedId = identifier;\n        owner = identifierToOwner[identifier];\n        buyPrice = identifierToPrice[identifier];\n        nextBuyPrice = nextPrice(buyPrice);\n    }\n}",
  "sourcePath": "/home/XXX-1/smartrim-experiment/for-rlf/0x9d8b33f8719470478dbd48711d004a0736d86956/contracts/0x9d8b33f8719470478dbd48711d004a0736d86956.sol",
  "compiler": {
    "name": "solc",
    "version": "0.4.25+commit.59dbf8f1.Emscripten.clang"
  },
  "schemaVersion": "3.4.16",
  "updatedAt": "2025-08-14T04:01:47.190Z",
  "networkType": "ethereum",
  "devdoc": {
    "methods": {}
  },
  "userdoc": {
    "methods": {}
  }
}