{
  "contractName": "StockExchange",
  "abi": [
    {
      "constant": true,
      "inputs": [],
      "name": "stopTime",
      "outputs": [
        {
          "name": "",
          "type": "uint256"
        }
      ],
      "payable": false,
      "stateMutability": "view",
      "type": "function"
    },
    {
      "constant": true,
      "inputs": [
        {
          "name": "",
          "type": "uint256"
        }
      ],
      "name": "priceList",
      "outputs": [
        {
          "name": "",
          "type": "uint256"
        }
      ],
      "payable": false,
      "stateMutability": "view",
      "type": "function"
    },
    {
      "constant": true,
      "inputs": [
        {
          "name": "",
          "type": "uint256"
        }
      ],
      "name": "holderList",
      "outputs": [
        {
          "name": "",
          "type": "address"
        }
      ],
      "payable": false,
      "stateMutability": "view",
      "type": "function"
    },
    {
      "constant": true,
      "inputs": [],
      "name": "started",
      "outputs": [
        {
          "name": "",
          "type": "bool"
        }
      ],
      "payable": false,
      "stateMutability": "view",
      "type": "function"
    },
    {
      "constant": true,
      "inputs": [],
      "name": "cap",
      "outputs": [
        {
          "name": "",
          "type": "uint256"
        }
      ],
      "payable": false,
      "stateMutability": "view",
      "type": "function"
    },
    {
      "constant": true,
      "inputs": [],
      "name": "deusETH",
      "outputs": [
        {
          "name": "",
          "type": "address"
        }
      ],
      "payable": false,
      "stateMutability": "view",
      "type": "function"
    },
    {
      "constant": true,
      "inputs": [],
      "name": "owner",
      "outputs": [
        {
          "name": "",
          "type": "address"
        }
      ],
      "payable": false,
      "stateMutability": "view",
      "type": "function"
    },
    {
      "constant": true,
      "inputs": [],
      "name": "stopTimeLength",
      "outputs": [
        {
          "name": "",
          "type": "uint256"
        }
      ],
      "payable": false,
      "stateMutability": "view",
      "type": "function"
    },
    {
      "inputs": [],
      "payable": false,
      "stateMutability": "nonpayable",
      "type": "constructor"
    },
    {
      "anonymous": false,
      "inputs": [
        {
          "indexed": true,
          "name": "id",
          "type": "uint256"
        },
        {
          "indexed": false,
          "name": "price",
          "type": "uint256"
        }
      ],
      "name": "TokenSale",
      "type": "event"
    },
    {
      "anonymous": false,
      "inputs": [
        {
          "indexed": true,
          "name": "id",
          "type": "uint256"
        }
      ],
      "name": "TokenBack",
      "type": "event"
    },
    {
      "anonymous": false,
      "inputs": [
        {
          "indexed": true,
          "name": "id",
          "type": "uint256"
        },
        {
          "indexed": false,
          "name": "price",
          "type": "uint256"
        }
      ],
      "name": "TokenSold",
      "type": "event"
    },
    {
      "constant": false,
      "inputs": [
        {
          "name": "_lottery",
          "type": "address"
        }
      ],
      "name": "setLottery",
      "outputs": [],
      "payable": false,
      "stateMutability": "nonpayable",
      "type": "function"
    },
    {
      "constant": false,
      "inputs": [
        {
          "name": "_id",
          "type": "uint256"
        },
        {
          "name": "_price",
          "type": "uint256"
        }
      ],
      "name": "sale",
      "outputs": [
        {
          "name": "",
          "type": "bool"
        }
      ],
      "payable": false,
      "stateMutability": "nonpayable",
      "type": "function"
    },
    {
      "constant": false,
      "inputs": [
        {
          "name": "_id",
          "type": "uint256"
        }
      ],
      "name": "getBackToken",
      "outputs": [
        {
          "name": "",
          "type": "bool"
        }
      ],
      "payable": false,
      "stateMutability": "nonpayable",
      "type": "function"
    },
    {
      "constant": false,
      "inputs": [
        {
          "name": "_id",
          "type": "uint256"
        }
      ],
      "name": "buy",
      "outputs": [
        {
          "name": "",
          "type": "bool"
        }
      ],
      "payable": true,
      "stateMutability": "payable",
      "type": "function"
    },
    {
      "constant": false,
      "inputs": [],
      "name": "pause",
      "outputs": [],
      "payable": false,
      "stateMutability": "nonpayable",
      "type": "function"
    },
    {
      "constant": true,
      "inputs": [
        {
          "name": "_id",
          "type": "uint256"
        }
      ],
      "name": "getTokenPrice",
      "outputs": [
        {
          "name": "",
          "type": "uint256"
        }
      ],
      "payable": false,
      "stateMutability": "view",
      "type": "function"
    }
  ],
  "bytecode": "0x608060405260008060006101000a81548160ff021916908315150217905550611c20600155600060025560326003556000600860006101000a81548173ffffffffffffffffffffffffffffffffffffffff021916908373ffffffffffffffffffffffffffffffffffffffff16021790555034801561007c57600080fd5b5033600460006101000a81548173ffffffffffffffffffffffffffffffffffffffff021916908373ffffffffffffffffffffffffffffffffffffffff160217905550611399806100cd6000396000f3006080604052600436106100d0576000357c0100000000000000000000000000000000000000000000000000000000900463ffffffff16806303ff5e73146100d5578063045585a41461010057806316ad42ad146101415780631c35f962146101ae5780631f2698ab146101fd578063278c688e1461022c578063355274ea146102715780635a1bdaa11461029c5780638456cb59146102f35780638da5cb5b1461030a578063bfd525b314610361578063c457fb371461038c578063d96a094a146103cd578063f298083b14610405575b600080fd5b3480156100e157600080fd5b506100ea610448565b6040518082815260200191505060405180910390f35b34801561010c57600080fd5b5061012b6004803603810190808035906020019092919050505061044e565b6040518082815260200191505060405180910390f35b34801561014d57600080fd5b5061016c60048036038101908080359060200190929190505050610466565b604051808273ffffffffffffffffffffffffffffffffffffffff1673ffffffffffffffffffffffffffffffffffffffff16815260200191505060405180910390f35b3480156101ba57600080fd5b506101e36004803603810190808035906020019092919080359060200190929190505050610499565b604051808215151515815260200191505060405180910390f35b34801561020957600080fd5b50610212610935565b604051808215151515815260200191505060405180910390f35b34801561023857600080fd5b5061025760048036038101908080359060200190929190505050610947565b604051808215151515815260200191505060405180910390f35b34801561027d57600080fd5b50610286610d41565b6040518082815260200191505060405180910390f35b3480156102a857600080fd5b506102b1610d47565b604051808273ffffffffffffffffffffffffffffffffffffffff1673ffffffffffffffffffffffffffffffffffffffff16815260200191505060405180910390f35b3480156102ff57600080fd5b50610308610d6d565b005b34801561031657600080fd5b5061031f610dd6565b604051808273ffffffffffffffffffffffffffffffffffffffff1673ffffffffffffffffffffffffffffffffffffffff16815260200191505060405180910390f35b34801561036d57600080fd5b50610376610dfc565b6040518082815260200191505060405180910390f35b34801561039857600080fd5b506103b760048036038101908080359060200190929190505050610e02565b6040518082815260200191505060405180910390f35b6103eb60048036038101908080359060200190929190505050610e1f565b604051808215151515815260200191505060405180910390f35b34801561041157600080fd5b50610446600480360381019080803573ffffffffffffffffffffffffffffffffffffffff169060200190929190505050611257565b005b60025481565b60066020528060005260406000206000915090505481565b60076020528060005260406000206000915054906101000a900473ffffffffffffffffffffffffffffffffffffffff1681565b60008060009054906101000a900460ff1615156104b557600080fd5b6000831180156104c757506003548311155b15156104d257600080fd5b600860009054906101000a900473ffffffffffffffffffffffffffffffffffffffff1673ffffffffffffffffffffffffffffffffffffffff1663bdb337d16040518163ffffffff167c0100000000000000000000000000000000000000000000000000000000028152600401602060405180830381600087803b15801561055857600080fd5b505af115801561056c573d6000803e3d6000fd5b505050506040513d602081101561058257600080fd5b810190808051906020019092919050505015151561059f57600080fd5b600860009054906101000a900473ffffffffffffffffffffffffffffffffffffffff1673ffffffffffffffffffffffffffffffffffffffff1663a66b62e66040518163ffffffff167c0100000000000000000000000000000000000000000000000000000000028152600401602060405180830381600087803b15801561062557600080fd5b505af1158015610639573d6000803e3d6000fd5b505050506040513d602081101561064f57600080fd5b810190808051906020019092919050505015151561066c57600080fd5b6002544211151561067c57600080fd5b3373ffffffffffffffffffffffffffffffffffffffff16600860009054906101000a900473ffffffffffffffffffffffffffffffffffffffff1673ffffffffffffffffffffffffffffffffffffffff1663e8a96b46856040518263ffffffff167c010000000000000000000000000000000000000000000000000000000002815260040180828152602001915050602060405180830381600087803b15801561072457600080fd5b505af1158015610738573d6000803e3d6000fd5b505050506040513d602081101561074e57600080fd5b810190808051906020019092919050505073ffffffffffffffffffffffffffffffffffffffff1614151561078157600080fd5b816006600085815260200190815260200160002081905550336007600085815260200190815260200160002060006101000a81548173ffffffffffffffffffffffffffffffffffffffff021916908373ffffffffffffffffffffffffffffffffffffffff160217905550600860009054906101000a900473ffffffffffffffffffffffffffffffffffffffff1673ffffffffffffffffffffffffffffffffffffffff166316f4acf884306040518363ffffffff167c0100000000000000000000000000000000000000000000000000000000028152600401808381526020018273ffffffffffffffffffffffffffffffffffffffff1673ffffffffffffffffffffffffffffffffffffffff16815260200192505050602060405180830381600087803b1580156108b057600080fd5b505af11580156108c4573d6000803e3d6000fd5b505050506040513d60208110156108da57600080fd5b810190808051906020019092919050505015156108f357fe5b827f19901f1d77e4f5e7e16754d39ec40967187b43750a35595110618ed3cb46327f836040518082815260200191505060405180910390a26001905092915050565b6000809054906101000a900460ff1681565b60008060009054906101000a900460ff16151561096357600080fd5b60008211801561097557506003548211155b151561098057600080fd5b600860009054906101000a900473ffffffffffffffffffffffffffffffffffffffff1673ffffffffffffffffffffffffffffffffffffffff1663bdb337d16040518163ffffffff167c0100000000000000000000000000000000000000000000000000000000028152600401602060405180830381600087803b158015610a0657600080fd5b505af1158015610a1a573d6000803e3d6000fd5b505050506040513d6020811015610a3057600080fd5b8101908080519060200190929190505050151515610a4d57600080fd5b600860009054906101000a900473ffffffffffffffffffffffffffffffffffffffff1673ffffffffffffffffffffffffffffffffffffffff1663a66b62e66040518163ffffffff167c0100000000000000000000000000000000000000000000000000000000028152600401602060405180830381600087803b158015610ad357600080fd5b505af1158015610ae7573d6000803e3d6000fd5b505050506040513d6020811015610afd57600080fd5b8101908080519060200190929190505050151515610b1a57600080fd5b60025442111515610b2a57600080fd5b3373ffffffffffffffffffffffffffffffffffffffff166007600084815260200190815260200160002060009054906101000a900473ffffffffffffffffffffffffffffffffffffffff1673ffffffffffffffffffffffffffffffffffffffff16141515610b9757600080fd5b60006007600084815260200190815260200160002060006101000a81548173ffffffffffffffffffffffffffffffffffffffff021916908373ffffffffffffffffffffffffffffffffffffffff16021790555060006006600084815260200190815260200160002081905550600860009054906101000a900473ffffffffffffffffffffffffffffffffffffffff1673ffffffffffffffffffffffffffffffffffffffff166316f4acf883336040518363ffffffff167c0100000000000000000000000000000000000000000000000000000000028152600401808381526020018273ffffffffffffffffffffffffffffffffffffffff1673ffffffffffffffffffffffffffffffffffffffff16815260200192505050602060405180830381600087803b158015610cc857600080fd5b505af1158015610cdc573d6000803e3d6000fd5b505050506040513d6020811015610cf257600080fd5b81019080805190602001909291905050501515610d0b57fe5b817f248659f090d0fbc0e68579b5a39c464d13ec0feb60494f97cd1a1c755d44c88060405160405180910390a260019050919050565b60035481565b600560009054906101000a900473ffffffffffffffffffffffffffffffffffffffff1681565b600460009054906101000a900473ffffffffffffffffffffffffffffffffffffffff1673ffffffffffffffffffffffffffffffffffffffff163373ffffffffffffffffffffffffffffffffffffffff16141515610dc957600080fd5b6001544201600281905550565b600460009054906101000a900473ffffffffffffffffffffffffffffffffffffffff1681565b60015481565b600060066000838152602001908152602001600020549050919050565b6000806000809054906101000a900460ff161515610e3c57600080fd5b600083118015610e4e57506003548311155b1515610e5957600080fd5b600860009054906101000a900473ffffffffffffffffffffffffffffffffffffffff1673ffffffffffffffffffffffffffffffffffffffff1663bdb337d16040518163ffffffff167c0100000000000000000000000000000000000000000000000000000000028152600401602060405180830381600087803b158015610edf57600080fd5b505af1158015610ef3573d6000803e3d6000fd5b505050506040513d6020811015610f0957600080fd5b8101908080519060200190929190505050151515610f2657600080fd5b600860009054906101000a900473ffffffffffffffffffffffffffffffffffffffff1673ffffffffffffffffffffffffffffffffffffffff1663a66b62e66040518163ffffffff167c0100000000000000000000000000000000000000000000000000000000028152600401602060405180830381600087803b158015610fac57600080fd5b505af1158015610fc0573d6000803e3d6000fd5b505050506040513d6020811015610fd657600080fd5b8101908080519060200190929190505050151515610ff357600080fd5b6002544211151561100357600080fd5b34600660008581526020019081526020016000205414151561102457600080fd5b6007600084815260200190815260200160002060009054906101000a900473ffffffffffffffffffffffffffffffffffffffff16905060006007600085815260200190815260200160002060006101000a81548173ffffffffffffffffffffffffffffffffffffffff021916908373ffffffffffffffffffffffffffffffffffffffff16021790555060006006600085815260200190815260200160002081905550600860009054906101000a900473ffffffffffffffffffffffffffffffffffffffff1673ffffffffffffffffffffffffffffffffffffffff166316f4acf884336040518363ffffffff167c0100000000000000000000000000000000000000000000000000000000028152600401808381526020018273ffffffffffffffffffffffffffffffffffffffff1673ffffffffffffffffffffffffffffffffffffffff16815260200192505050602060405180830381600087803b15801561118b57600080fd5b505af115801561119f573d6000803e3d6000fd5b505050506040513d60208110156111b557600080fd5b810190808051906020019092919050505015156111ce57fe5b8073ffffffffffffffffffffffffffffffffffffffff166108fc349081150290604051600060405180830381858888f19350505050158015611214573d6000803e3d6000fd5b50827f5120429c88882edc469993b2f7c2d1f13287fd3ccf3ec20d28f3af207fd6b281346040518082815260200191505060405180910390a26001915050919050565b600460009054906101000a900473ffffffffffffffffffffffffffffffffffffffff1673ffffffffffffffffffffffffffffffffffffffff163373ffffffffffffffffffffffffffffffffffffffff161415156112b357600080fd5b6000809054906101000a900460ff161515156112ce57600080fd5b80600860006101000a81548173ffffffffffffffffffffffffffffffffffffffff021916908373ffffffffffffffffffffffffffffffffffffffff16021790555080600560006101000a81548173ffffffffffffffffffffffffffffffffffffffff021916908373ffffffffffffffffffffffffffffffffffffffff16021790555060016000806101000a81548160ff021916908315150217905550505600a165627a7a72305820b20bf3ce1a00f504a1f55442bd6690f0938391dd27fc1c7009bfd94730fa3a8a0029",
  "source": "\n\n\ncontract InterfaceDeusETH {\n    bool public gameOver;\n    bool public gameOverByUser;\n    function getHolder(uint256 _id) public returns (address);\n    function changeHolder(uint256 _id, address _newholder) public returns (bool);\n}\n\n\ncontract StockExchange {\n    bool public started = false;\n\n    \n    uint256 public stopTimeLength = 7200;\n    uint256 public stopTime = 0;\n\n    \n    uint256 public cap = 50;\n\n    address public owner;\n\n    \n    address public deusETH;\n\n    mapping(uint256 => uint256) public priceList;\n    mapping(uint256 => address) public holderList;\n\n    InterfaceDeusETH private lottery = InterfaceDeusETH(0x0);\n\n    event TokenSale(uint256 indexed id, uint256 price);\n    event TokenBack(uint256 indexed id);\n    event TokenSold(uint256 indexed id, uint256 price);\n\n    modifier onlyOwner() {\n        require(msg.sender == owner);\n        _;\n    }\n\n    function StockExchange() public {\n        owner = msg.sender;\n    }\n\n    function setLottery(address _lottery) public onlyOwner {\n        require(!started);\n        lottery = InterfaceDeusETH(_lottery);\n        deusETH = _lottery;\n        started = true;\n    }\n\n    function sale(uint256 _id, uint256 _price) public returns (bool) {\n        require(started);\n        require(_id > 0 && _id <= cap);\n        require(!lottery.gameOver());\n        require(!lottery.gameOverByUser());\n        require(now > stopTime);\n        require(lottery.getHolder(_id) == msg.sender);\n\n        priceList[_id] = _price;\n        holderList[_id] = msg.sender;\n\n        assert(lottery.changeHolder(_id, this));\n        TokenSale(_id, _price);\n        return true;\n    }\n\n    function getBackToken(uint256 _id) public returns (bool) {\n        require(started);\n        require(_id > 0 && _id <= cap);\n        require(!lottery.gameOver());\n        require(!lottery.gameOverByUser());\n        require(now > stopTime);\n        require(holderList[_id] == msg.sender);\n\n        holderList[_id] = 0x0;\n        priceList[_id] = 0;\n        assert(lottery.changeHolder(_id, msg.sender));\n        TokenBack(_id);\n        return true;\n    }\n\n    function buy(uint256 _id) public payable returns (bool) {\n        require(started);\n        require(_id > 0 && _id <= cap);\n        require(!lottery.gameOver());\n        require(!lottery.gameOverByUser());\n        require(now > stopTime);\n\n        require(priceList[_id] == msg.value);\n        address oldHolder = holderList[_id];\n        holderList[_id] = 0x0;\n        priceList[_id] = 0;\n\n        assert(lottery.changeHolder(_id, msg.sender));\n\n        oldHolder.transfer(msg.value);\n        TokenSold(_id, msg.value);\n        return true;\n    }\n\n    function pause() public onlyOwner {\n        stopTime = now + stopTimeLength;\n    }\n\n    function getTokenPrice(uint _id) public view returns(uint256) {\n        return priceList[_id];\n    }\n}",
  "sourcePath": "/home/XXX-1/smartrim-experiment/for-rlf/0x8ab65829fb1b2f117fc0f593725f04d4f85d1a6f/contracts/0x8ab65829fb1b2f117fc0f593725f04d4f85d1a6f.sol",
  "compiler": {
    "name": "solc",
    "version": "0.4.25+commit.59dbf8f1.Emscripten.clang"
  },
  "schemaVersion": "3.4.16",
  "updatedAt": "2025-08-14T04:00:04.815Z",
  "networkType": "ethereum",
  "devdoc": {
    "methods": {}
  },
  "userdoc": {
    "methods": {}
  }
}