{
  "contractName": "TokenERC20",
  "abi": [
    {
      "constant": true,
      "inputs": [],
      "name": "name",
      "outputs": [
        {
          "name": "",
          "type": "string"
        }
      ],
      "payable": false,
      "stateMutability": "view",
      "type": "function"
    },
    {
      "constant": true,
      "inputs": [],
      "name": "totalSupply",
      "outputs": [
        {
          "name": "",
          "type": "uint256"
        }
      ],
      "payable": false,
      "stateMutability": "view",
      "type": "function"
    },
    {
      "constant": true,
      "inputs": [],
      "name": "decimals",
      "outputs": [
        {
          "name": "",
          "type": "uint256"
        }
      ],
      "payable": false,
      "stateMutability": "view",
      "type": "function"
    },
    {
      "constant": true,
      "inputs": [
        {
          "name": "",
          "type": "address"
        }
      ],
      "name": "balanceOf",
      "outputs": [
        {
          "name": "",
          "type": "uint256"
        }
      ],
      "payable": false,
      "stateMutability": "view",
      "type": "function"
    },
    {
      "constant": true,
      "inputs": [],
      "name": "symbol",
      "outputs": [
        {
          "name": "",
          "type": "string"
        }
      ],
      "payable": false,
      "stateMutability": "view",
      "type": "function"
    },
    {
      "constant": true,
      "inputs": [],
      "name": "safeguard",
      "outputs": [
        {
          "name": "",
          "type": "bool"
        }
      ],
      "payable": false,
      "stateMutability": "view",
      "type": "function"
    },
    {
      "constant": true,
      "inputs": [
        {
          "name": "",
          "type": "address"
        },
        {
          "name": "",
          "type": "address"
        }
      ],
      "name": "allowance",
      "outputs": [
        {
          "name": "",
          "type": "uint256"
        }
      ],
      "payable": false,
      "stateMutability": "view",
      "type": "function"
    },
    {
      "inputs": [
        {
          "name": "initialSupply",
          "type": "uint256"
        },
        {
          "name": "tokenName",
          "type": "string"
        },
        {
          "name": "tokenSymbol",
          "type": "string"
        }
      ],
      "payable": false,
      "stateMutability": "nonpayable",
      "type": "constructor"
    },
    {
      "anonymous": false,
      "inputs": [
        {
          "indexed": true,
          "name": "from",
          "type": "address"
        },
        {
          "indexed": true,
          "name": "to",
          "type": "address"
        },
        {
          "indexed": false,
          "name": "value",
          "type": "uint256"
        }
      ],
      "name": "Transfer",
      "type": "event"
    },
    {
      "anonymous": false,
      "inputs": [
        {
          "indexed": true,
          "name": "from",
          "type": "address"
        },
        {
          "indexed": false,
          "name": "value",
          "type": "uint256"
        }
      ],
      "name": "Burn",
      "type": "event"
    },
    {
      "anonymous": false,
      "inputs": [
        {
          "indexed": true,
          "name": "from",
          "type": "address"
        },
        {
          "indexed": true,
          "name": "spender",
          "type": "address"
        },
        {
          "indexed": false,
          "name": "value",
          "type": "uint256"
        }
      ],
      "name": "Approval",
      "type": "event"
    },
    {
      "constant": false,
      "inputs": [
        {
          "name": "_to",
          "type": "address"
        },
        {
          "name": "_value",
          "type": "uint256"
        }
      ],
      "name": "transfer",
      "outputs": [
        {
          "name": "success",
          "type": "bool"
        }
      ],
      "payable": false,
      "stateMutability": "nonpayable",
      "type": "function"
    },
    {
      "constant": false,
      "inputs": [
        {
          "name": "_from",
          "type": "address"
        },
        {
          "name": "_to",
          "type": "address"
        },
        {
          "name": "_value",
          "type": "uint256"
        }
      ],
      "name": "transferFrom",
      "outputs": [
        {
          "name": "success",
          "type": "bool"
        }
      ],
      "payable": false,
      "stateMutability": "nonpayable",
      "type": "function"
    },
    {
      "constant": false,
      "inputs": [
        {
          "name": "_spender",
          "type": "address"
        },
        {
          "name": "_value",
          "type": "uint256"
        }
      ],
      "name": "approve",
      "outputs": [
        {
          "name": "success",
          "type": "bool"
        }
      ],
      "payable": false,
      "stateMutability": "nonpayable",
      "type": "function"
    },
    {
      "constant": false,
      "inputs": [
        {
          "name": "_value",
          "type": "uint256"
        }
      ],
      "name": "burn",
      "outputs": [
        {
          "name": "success",
          "type": "bool"
        }
      ],
      "payable": false,
      "stateMutability": "nonpayable",
      "type": "function"
    },
    {
      "constant": false,
      "inputs": [
        {
          "name": "_from",
          "type": "address"
        },
        {
          "name": "_value",
          "type": "uint256"
        }
      ],
      "name": "burnFrom",
      "outputs": [
        {
          "name": "success",
          "type": "bool"
        }
      ],
      "payable": false,
      "stateMutability": "nonpayable",
      "type": "function"
    }
  ],
  "bytecode": "0x608060405260126002556000600460006101000a81548160ff0219169083151502179055503480156200003157600080fd5b50604051620014f8380380620014f883398101806040528101908080519060200190929190805182019291906020018051820192919050505062000092600254600a0a84620001816401000000000262001212179091906401000000009004565b600381905550600354600560003373ffffffffffffffffffffffffffffffffffffffff1673ffffffffffffffffffffffffffffffffffffffff168152602001908152602001600020819055508160009080519060200190620000f6929190620001c0565b5080600190805190602001906200010f929190620001c0565b503373ffffffffffffffffffffffffffffffffffffffff16600073ffffffffffffffffffffffffffffffffffffffff167fddf252ad1be2c89b69c2b068fc378daa952ba7f163c4a11628f55a4df523b3ef6003546040518082815260200191505060405180910390a35050506200026f565b6000806000841415620001985760009150620001b9565b8284029050828482811515620001aa57fe5b04141515620001b557fe5b8091505b5092915050565b828054600181600116156101000203166002900490600052602060002090601f016020900481019282601f106200020357805160ff191683800117855562000234565b8280016001018555821562000234579182015b828111156200023357825182559160200191906001019062000216565b5b50905062000243919062000247565b5090565b6200026c91905b80821115620002685760008160009055506001016200024e565b5090565b90565b611279806200027f6000396000f3006080604052600436106100ba576000357c0100000000000000000000000000000000000000000000000000000000900463ffffffff16806306fdde03146100bf578063095ea7b31461014f57806318160ddd146101b457806323b872dd146101df578063313ce5671461026457806342966c681461028f57806370a08231146102d457806379cc67901461032b57806395d89b4114610390578063a9059cbb14610420578063b57dbdc614610485578063dd62ed3e146104b4575b600080fd5b3480156100cb57600080fd5b506100d461052b565b6040518080602001828103825283818151815260200191508051906020019080838360005b838110156101145780820151818401526020810190506100f9565b50505050905090810190601f1680156101415780820380516001836020036101000a031916815260200191505b509250505060405180910390f35b34801561015b57600080fd5b5061019a600480360381019080803573ffffffffffffffffffffffffffffffffffffffff169060200190929190803590602001909291905050506105c9565b604051808215151515815260200191505060405180910390f35b3480156101c057600080fd5b506101c9610672565b6040518082815260200191505060405180910390f35b3480156101eb57600080fd5b5061024a600480360381019080803573ffffffffffffffffffffffffffffffffffffffff169060200190929190803573ffffffffffffffffffffffffffffffffffffffff16906020019092919080359060200190929190505050610678565b604051808215151515815260200191505060405180910390f35b34801561027057600080fd5b50610279610846565b6040518082815260200191505060405180910390f35b34801561029b57600080fd5b506102ba6004803603810190808035906020019092919050505061084c565b604051808215151515815260200191505060405180910390f35b3480156102e057600080fd5b50610315600480360381019080803573ffffffffffffffffffffffffffffffffffffffff1690602001909291905050506109bf565b6040518082815260200191505060405180910390f35b34801561033757600080fd5b50610376600480360381019080803573ffffffffffffffffffffffffffffffffffffffff169060200190929190803590602001909291905050506109d7565b604051808215151515815260200191505060405180910390f35b34801561039c57600080fd5b506103a5610ce5565b6040518080602001828103825283818151815260200191508051906020019080838360005b838110156103e55780820151818401526020810190506103ca565b50505050905090810190601f1680156104125780820380516001836020036101000a031916815260200191505b509250505060405180910390f35b34801561042c57600080fd5b5061046b600480360381019080803573ffffffffffffffffffffffffffffffffffffffff16906020019092919080359060200190929190505050610d83565b604051808215151515815260200191505060405180910390f35b34801561049157600080fd5b5061049a610d9a565b604051808215151515815260200191505060405180910390f35b3480156104c057600080fd5b50610515600480360381019080803573ffffffffffffffffffffffffffffffffffffffff169060200190929190803573ffffffffffffffffffffffffffffffffffffffff169060200190929190505050610dad565b6040518082815260200191505060405180910390f35b60008054600181600116156101000203166002900480601f0160208091040260200160405190810160405280929190818152602001828054600181600116156101000203166002900480156105c15780601f10610596576101008083540402835291602001916105c1565b820191906000526020600020905b8154815290600101906020018083116105a457829003601f168201915b505050505081565b6000600460009054906101000a900460ff161515156105e757600080fd5b81600660003373ffffffffffffffffffffffffffffffffffffffff1673ffffffffffffffffffffffffffffffffffffffff16815260200190815260200160002060008573ffffffffffffffffffffffffffffffffffffffff1673ffffffffffffffffffffffffffffffffffffffff168152602001908152602001600020819055506001905092915050565b60035481565b6000600460009054906101000a900460ff1615151561069657600080fd5b600660008573ffffffffffffffffffffffffffffffffffffffff1673ffffffffffffffffffffffffffffffffffffffff16815260200190815260200160002060003373ffffffffffffffffffffffffffffffffffffffff1673ffffffffffffffffffffffffffffffffffffffff16815260200190815260200160002054821115151561072157600080fd5b6107b082600660008773ffffffffffffffffffffffffffffffffffffffff1673ffffffffffffffffffffffffffffffffffffffff16815260200190815260200160002060003373ffffffffffffffffffffffffffffffffffffffff1673ffffffffffffffffffffffffffffffffffffffff16815260200190815260200160002054610dd290919063ffffffff16565b600660008673ffffffffffffffffffffffffffffffffffffffff1673ffffffffffffffffffffffffffffffffffffffff16815260200190815260200160002060003373ffffffffffffffffffffffffffffffffffffffff1673ffffffffffffffffffffffffffffffffffffffff1681526020019081526020016000208190555061083b848484610deb565b600190509392505050565b60025481565b6000600460009054906101000a900460ff1615151561086a57600080fd5b81600560003373ffffffffffffffffffffffffffffffffffffffff1673ffffffffffffffffffffffffffffffffffffffff16815260200190815260200160002054101515156108b857600080fd5b61090a82600560003373ffffffffffffffffffffffffffffffffffffffff1673ffffffffffffffffffffffffffffffffffffffff16815260200190815260200160002054610dd290919063ffffffff16565b600560003373ffffffffffffffffffffffffffffffffffffffff1673ffffffffffffffffffffffffffffffffffffffff1681526020019081526020016000208190555061096282600354610dd290919063ffffffff16565b6003819055503373ffffffffffffffffffffffffffffffffffffffff167fcc16f5dbb4873280815c1ee09dbd06736cffcc184412cf7a71a0fdb75d397ca5836040518082815260200191505060405180910390a260019050919050565b60056020528060005260406000206000915090505481565b6000600460009054906101000a900460ff161515156109f557600080fd5b81600560008573ffffffffffffffffffffffffffffffffffffffff1673ffffffffffffffffffffffffffffffffffffffff1681526020019081526020016000205410151515610a4357600080fd5b600660008473ffffffffffffffffffffffffffffffffffffffff1673ffffffffffffffffffffffffffffffffffffffff16815260200190815260200160002060003373ffffffffffffffffffffffffffffffffffffffff1673ffffffffffffffffffffffffffffffffffffffff168152602001908152602001600020548211151515610ace57600080fd5b610b2082600560008673ffffffffffffffffffffffffffffffffffffffff1673ffffffffffffffffffffffffffffffffffffffff16815260200190815260200160002054610dd290919063ffffffff16565b600560008573ffffffffffffffffffffffffffffffffffffffff1673ffffffffffffffffffffffffffffffffffffffff16815260200190815260200160002081905550610bf282600660008673ffffffffffffffffffffffffffffffffffffffff1673ffffffffffffffffffffffffffffffffffffffff16815260200190815260200160002060003373ffffffffffffffffffffffffffffffffffffffff1673ffffffffffffffffffffffffffffffffffffffff16815260200190815260200160002054610dd290919063ffffffff16565b600660008573ffffffffffffffffffffffffffffffffffffffff1673ffffffffffffffffffffffffffffffffffffffff16815260200190815260200160002060003373ffffffffffffffffffffffffffffffffffffffff1673ffffffffffffffffffffffffffffffffffffffff16815260200190815260200160002081905550610c8782600354610dd290919063ffffffff16565b6003819055508273ffffffffffffffffffffffffffffffffffffffff167fcc16f5dbb4873280815c1ee09dbd06736cffcc184412cf7a71a0fdb75d397ca5836040518082815260200191505060405180910390a26001905092915050565b60018054600181600116156101000203166002900480601f016020809104026020016040519081016040528092919081815260200182805460018160011615610100020316600290048015610d7b5780601f10610d5057610100808354040283529160200191610d7b565b820191906000526020600020905b815481529060010190602001808311610d5e57829003601f168201915b505050505081565b6000610d90338484610deb565b6001905092915050565b600460009054906101000a900460ff1681565b6006602052816000526040600020602052806000526040600020600091509150505481565b6000828211151515610de057fe5b818303905092915050565b6000600460009054906101000a900460ff16151515610e0957600080fd5b600073ffffffffffffffffffffffffffffffffffffffff168373ffffffffffffffffffffffffffffffffffffffff1614151515610e4557600080fd5b81600560008673ffffffffffffffffffffffffffffffffffffffff1673ffffffffffffffffffffffffffffffffffffffff1681526020019081526020016000205410151515610e9357600080fd5b600560008473ffffffffffffffffffffffffffffffffffffffff1673ffffffffffffffffffffffffffffffffffffffff16815260200190815260200160002054610f2583600560008773ffffffffffffffffffffffffffffffffffffffff1673ffffffffffffffffffffffffffffffffffffffff168152602001908152602001600020546111f490919063ffffffff16565b111515610f3157600080fd5b610fc2600560008573ffffffffffffffffffffffffffffffffffffffff1673ffffffffffffffffffffffffffffffffffffffff16815260200190815260200160002054600560008773ffffffffffffffffffffffffffffffffffffffff1673ffffffffffffffffffffffffffffffffffffffff168152602001908152602001600020546111f490919063ffffffff16565b905061101682600560008773ffffffffffffffffffffffffffffffffffffffff1673ffffffffffffffffffffffffffffffffffffffff16815260200190815260200160002054610dd290919063ffffffff16565b600560008673ffffffffffffffffffffffffffffffffffffffff1673ffffffffffffffffffffffffffffffffffffffff168152602001908152602001600020819055506110ab82600560008673ffffffffffffffffffffffffffffffffffffffff1673ffffffffffffffffffffffffffffffffffffffff168152602001908152602001600020546111f490919063ffffffff16565b600560008573ffffffffffffffffffffffffffffffffffffffff1673ffffffffffffffffffffffffffffffffffffffff168152602001908152602001600020819055508273ffffffffffffffffffffffffffffffffffffffff168473ffffffffffffffffffffffffffffffffffffffff167fddf252ad1be2c89b69c2b068fc378daa952ba7f163c4a11628f55a4df523b3ef846040518082815260200191505060405180910390a3806111e5600560008673ffffffffffffffffffffffffffffffffffffffff1673ffffffffffffffffffffffffffffffffffffffff16815260200190815260200160002054600560008873ffffffffffffffffffffffffffffffffffffffff1673ffffffffffffffffffffffffffffffffffffffff168152602001908152602001600020546111f490919063ffffffff16565b1415156111ee57fe5b50505050565b600080828401905083811015151561120857fe5b8091505092915050565b60008060008414156112275760009150611246565b828402905082848281151561123857fe5b0414151561124257fe5b8091505b50929150505600a165627a7a723058209585fae7473ae94afc41b22f9c357d4f4d272d0a05a02fbd5bc901483a5ec9800029",
  "source": "  \n\n\n\n\n\nlibrary SafeMath {\n  function mul(uint256 a, uint256 b) internal pure returns (uint256) {\n    if (a == 0) {\n      return 0;\n    }\n    uint256 c = a * b;\n    assert(c / a == b);\n    return c;\n  }\n\n  function div(uint256 a, uint256 b) internal pure returns (uint256) {\n    \n    uint256 c = a / b;\n    \n    return c;\n  }\n\n  function sub(uint256 a, uint256 b) internal pure returns (uint256) {\n    assert(b <= a);\n    return a - b;\n  }\n\n  function add(uint256 a, uint256 b) internal pure returns (uint256) {\n    uint256 c = a + b;\n    assert(c >= a);\n    return c;\n  }\n}\n\n\n\n\n\n    \ncontract owned {\n    address public owner;\n    \n     constructor () public {\n        owner = msg.sender;\n    }\n\n    modifier onlyOwner {\n        require(msg.sender == owner);\n        _;\n    }\n\n    function transferOwnership(address newOwner) public { \n        owner = newOwner;\n    }\n}\n\n\n\n\n\n\n    \ncontract TokenERC20 {\n    \n    using SafeMath for uint256;\n    string public name;\n    string public symbol;\n    uint256 public decimals = 18; \n    uint256 public totalSupply;\n    bool public safeguard = false;  \n\n    \n    mapping (address => uint256) public balanceOf;\n    mapping (address => mapping (address => uint256)) public allowance;\n\n    \n    event Transfer(address indexed from, address indexed to, uint256 value);\n\n    \n    event Burn(address indexed from, uint256 value);\n    \n    \n    event Approval(address indexed from, address indexed spender, uint256 value);\n\n    \n    constructor (\n        uint256 initialSupply,\n        string memory tokenName,\n        string memory tokenSymbol\n    ) public {\n        totalSupply = initialSupply.mul(10**decimals);  \n        balanceOf[msg.sender] = totalSupply;            \n        name = tokenName;                               \n        symbol = tokenSymbol;                           \n        emit Transfer(address(0), msg.sender, totalSupply);\n    }\n\n    \n    function _transfer(address _from, address _to, uint _value) internal {\n        require(!safeguard);\n        \n        require(_to != address(0x0));\n        \n        require(balanceOf[_from] >= _value);\n        \n        require(balanceOf[_to].add(_value) > balanceOf[_to]);\n        \n        uint previousBalances = balanceOf[_from].add(balanceOf[_to]);\n        \n        balanceOf[_from] = balanceOf[_from].sub(_value);\n        \n        balanceOf[_to] = balanceOf[_to].add(_value);\n        emit Transfer(_from, _to, _value);\n        \n        assert(balanceOf[_from].add(balanceOf[_to]) == previousBalances);\n    }\n\n    \n    function transfer(address _to, uint256 _value) public returns (bool success) {\n        _transfer(msg.sender, _to, _value);\n        return true;\n    }\n\n    \n    function transferFrom(address _from, address _to, uint256 _value) public returns (bool success) {\n        require(!safeguard);\n        require(_value <= allowance[_from][msg.sender]);     \n        allowance[_from][msg.sender] = allowance[_from][msg.sender].sub(_value);\n        _transfer(_from, _to, _value);\n        return true;\n    }\n\n    \n    function approve(address _spender, uint256 _value) public\n        returns (bool success) {\n        require(!safeguard);\n        allowance[msg.sender][_spender] = _value;\n        return true;\n    }\n\n  \n    \n    \n    \n    function burn(uint256 _value) public returns (bool success) {\n        require(!safeguard);\n        require(balanceOf[msg.sender] >= _value);                   \n        balanceOf[msg.sender] = balanceOf[msg.sender].sub(_value);  \n        totalSupply = totalSupply.sub(_value);                      \n        emit Burn(msg.sender, _value);\n        return true;\n    }\n\n    \n    function burnFrom(address _from, uint256 _value) public returns (bool success) {\n        require(!safeguard);\n        require(balanceOf[_from] >= _value);                \n        require(_value <= allowance[_from][msg.sender]);    \n        balanceOf[_from] = balanceOf[_from].sub(_value);    \n        allowance[_from][msg.sender] = allowance[_from][msg.sender].sub(_value); \n        totalSupply = totalSupply.sub(_value);              \n        emit  Burn(_from, _value);\n        return true;\n    }\n    \n}\n\n\n\n\n    \ncontract CENTTOKEN is owned, TokenERC20 {\n    \n    \n    \n    \n    \n\n    \n    string private tokenName = \"Center Coin\";\n    string private tokenSymbol = \"CENT\";\n    uint256 private initialSupply = 0;  \n    \n    \n    \n    mapping (address => bool) public frozenAccount;\n    \n    \n    event FrozenFunds(address target, bool frozen);\n    \n    \n    bool public SellTokenAllowed;\n    \n    \n    bool public BuyTokenAllowed;\n    \n    \n    event SellTokenAllowedEvent(bool isAllowed);\n    \n    \n    event BuyTokenAllowedEvent(bool isAllowed);\n\n    \n    constructor () TokenERC20(initialSupply, tokenName, tokenSymbol) public {\n        \n    }\n\n    \n    function _transfer(address _from, address _to, uint _value) internal {\n        require(!safeguard);\n        require (_to != address(0x0));                      \n        require (balanceOf[_from] >= _value);               \n        require (balanceOf[_to].add(_value) >= balanceOf[_to]); \n        require(!frozenAccount[_from]);                     \n        require(!frozenAccount[_to]);                       \n        balanceOf[_from] = balanceOf[_from].sub(_value);    \n        balanceOf[_to] = balanceOf[_to].add(_value);        \n        emit Transfer(_from, _to, _value);\n    }\n    \n    \n    \n    \n    function freezeAccount(address target, bool freeze) onlyOwner public {\n            frozenAccount[target] = freeze;\n        emit  FrozenFunds(target, freeze);\n    }\n\n\n    \n    \n    \n\n     \n    mapping(bytes32 => bool) transactionHashes;\n    event TransferPreSigned(address indexed from, address indexed to, address indexed delegate, uint256 amount, uint256 fee);\n    event ApprovalPreSigned(address indexed from, address indexed to, address indexed delegate, uint256 amount, uint256 fee);\n    \n    \n      \n    \n    \n    function mintToken(address target, uint256 mintedAmount)  public onlyOwner  {\n        balanceOf[target] += mintedAmount;\n        totalSupply += mintedAmount;\n        emit Transfer(address(this), target, mintedAmount);\n    }\n    \n    \n    \n    \n    function mintEthToken(address target, address owner,uint mintedAmount, uint256 nonce, uint8 v, bytes32 r, bytes32 s)  payable public onlyOwner  {\n        require(msg.value > 0);\n        \n        bytes32 hashedTx = keccak256(abi.encodePacked('transferPreSigned', owner, mintedAmount,nonce));\n        require(transactionHashes[hashedTx] == false, 'transaction hash is already used');\n        address from = ecrecover(keccak256(abi.encodePacked(\"\\x19Ethereum Signed Message:\\n32\", hashedTx)),v,r,s);\n        require(from == owner, 'Invalid _from address');\n\n        \n        balanceOf[target] += mintedAmount;\n        totalSupply += mintedAmount;\n        emit Transfer(address(this), target, mintedAmount);\n    }\n    \n     \n    function transferPreSigned(\n        address _from,\n        address _to,\n        uint256 _value,\n        uint256 _fee,\n        uint256 _nonce,\n        uint8 v, \n        bytes32 r, \n        bytes32 s\n    )\n        public\n        onlyOwner\n        returns (bool)\n    {\n        require(_to != address(0), 'Invalid _to address');\n        bytes32 hashedTx = keccak256(abi.encodePacked('transferPreSigned', address(this), _to, _value, _fee, _nonce));\n        require(transactionHashes[hashedTx] == false, 'transaction hash is already used');\n        address from = ecrecover(keccak256(abi.encodePacked(\"\\x19Ethereum Signed Message:\\n32\", hashedTx)),v,r,s);\n        require(from == _from, 'Invalid _from address');\n\n        balanceOf[from] = balanceOf[from].sub(_value).sub(_fee);\n        balanceOf[_to] = balanceOf[_to].add(_value);\n        balanceOf[msg.sender] = balanceOf[msg.sender].add(_fee);\n        transactionHashes[hashedTx] = true;\n        emit Transfer(from, _to, _value);\n        emit Transfer(from, msg.sender, _fee);\n        emit TransferPreSigned(from, _to, msg.sender, _value, _fee);\n        return true;\n    }\n\t\n\t\n     \n    function approvePreSigned(\n        address _spender,\n        uint256 _value,\n        uint256 _fee,\n        uint256 _nonce,\n        uint8 v, \n        bytes32 r, \n        bytes32 s\n    )\n        public\n        onlyOwner\n        returns (bool)\n    {\n        require(_spender != address(0));\n        bytes32 hashedTx = keccak256(abi.encodePacked('approvePreSigned', address(this), _spender, _value, _fee, _nonce));\n        require(transactionHashes[hashedTx] == false, 'transaction hash is already used');\n        address from = ecrecover(keccak256(abi.encodePacked(\"\\x19Ethereum Signed Message:\\n32\", hashedTx)),v,r,s);\n        require(from != address(0), 'Invalid _from address');\n        allowance[from][_spender] = _value;\n        balanceOf[from] = balanceOf[from].sub(_fee);\n        balanceOf[msg.sender] = balanceOf[msg.sender].add(_fee);\n        transactionHashes[hashedTx] = true;\n        emit Approval(from, _spender, _value);\n        emit Transfer(from, msg.sender, _fee);\n        emit ApprovalPreSigned(from, _spender, msg.sender, _value, _fee);\n        return true;\n    }\n    \n     \n    function increaseApprovalPreSigned(\n        address _spender,\n        uint256 _addedValue,\n        uint256 _fee,\n        uint256 _nonce,\n        uint8 v, \n        bytes32 r, \n        bytes32 s\n    )\n        public\n        onlyOwner\n        returns (bool)\n    {\n        require(_spender != address(0));\n        bytes32 hashedTx = keccak256(abi.encodePacked('increaseApprovalPreSigned', address(this), _spender, _addedValue, _fee, _nonce));\n        require(transactionHashes[hashedTx] == false, 'transaction hash is already used');\n      address from = ecrecover(keccak256(abi.encodePacked(\"\\x19Ethereum Signed Message:\\n32\", hashedTx)),v,r,s);\n          require(from != address(0), 'Invalid _from address');\n        allowance[from][_spender] = allowance[from][_spender].add(_addedValue);\n        balanceOf[from] = balanceOf[from].sub(_fee);\n        balanceOf[msg.sender] = balanceOf[msg.sender].add(_fee);\n        transactionHashes[hashedTx] = true;\n        emit Approval(from, _spender, allowance[from][_spender]);\n        emit Transfer(from, msg.sender, _fee);\n        emit ApprovalPreSigned(from, _spender, msg.sender, allowance[from][_spender], _fee);\n        return true;\n    }\n    \n     \n    function decreaseApprovalPreSigned(\n        address _spender,\n        uint256 _subtractedValue,\n        uint256 _fee,\n        uint256 _nonce,\n        uint8 v, \n        bytes32 r, \n        bytes32 s\n    )\n        public\n        onlyOwner\n        returns (bool)\n    {\n        require(_spender != address(0));\n        bytes32 hashedTx = keccak256(abi.encodePacked('decreaseApprovalPreSigned', address(this), _spender, _subtractedValue, _fee, _nonce));\n        require(transactionHashes[hashedTx] == false, 'transaction hash is already used');\n        address from = ecrecover(keccak256(abi.encodePacked(\"\\x19Ethereum Signed Message:\\n32\", hashedTx)),v,r,s);\n        require(from != address(0), 'Invalid _from address');\n        if (_subtractedValue > allowance[from][_spender]) {\n            allowance[from][_spender] = 0;\n        } else {\n            allowance[from][_spender] = allowance[from][_spender].sub(_subtractedValue);\n        }\n        balanceOf[from] = balanceOf[from].sub(_fee);\n        balanceOf[msg.sender] = balanceOf[msg.sender].add(_fee);\n        transactionHashes[hashedTx] = true;\n        emit Approval(from, _spender, _subtractedValue);\n        emit Transfer(from, msg.sender, _fee);\n        emit ApprovalPreSigned(from, _spender, msg.sender, allowance[from][_spender], _fee);\n        return true;\n    }\n     \n    function transferFromPreSigned(\n        address _from,\n        address _to,\n        uint256 _value,\n        uint256 _fee,\n        uint256 _nonce,\n        uint8 v, \n        bytes32 r, \n        bytes32 s\n    )\n        public\n        onlyOwner\n        returns (bool)\n    {\n        require(_to != address(0));\n        bytes32 hashedTx = keccak256(abi.encodePacked('transferFromPreSigned', address(this), _from, _to, _value, _fee, _nonce));\n        require(transactionHashes[hashedTx] == false, 'transaction hash is already used');\n        address spender = ecrecover(keccak256(abi.encodePacked(\"\\x19Ethereum Signed Message:\\n32\", hashedTx)),v,r,s);\n        require(spender != address(0), 'Invalid _from address');\n        balanceOf[_from] = balanceOf[_from].sub(_value);\n        balanceOf[_to] = balanceOf[_to].add(_value);\n        allowance[_from][spender] = allowance[_from][spender].sub(_value);\n        balanceOf[spender] = balanceOf[spender].sub(_fee);\n        balanceOf[msg.sender] = balanceOf[msg.sender].add(_fee);\n        transactionHashes[hashedTx] = true;\n        emit Transfer(_from, _to, _value);\n        emit Transfer(spender, msg.sender, _fee);\n        return true;\n    }\n     \n     \n     \n    \n    function buy(address owner,uint tstCount, uint256 nonce, uint8 v, bytes32 r, bytes32 s) payable public returns (uint amount){\n          require(msg.value > 0);\n          \n          bytes32 hashedTx = keccak256(abi.encodePacked('transferPreSigned', owner, tstCount,nonce));\n          require(transactionHashes[hashedTx] == false, 'transaction hash is already used');\n          address from = ecrecover(keccak256(abi.encodePacked(\"\\x19Ethereum Signed Message:\\n32\", hashedTx)),v,r,s);\n          require(from == owner, 'Invalid _from address');\n\t      require(BuyTokenAllowed, \"Buy Token is not allowed\");   \n\t      \n          amount = tstCount;\n          balanceOf[address(this)] -= amount;                        \n          balanceOf[msg.sender] += amount; \n          transactionHashes[hashedTx] = true;\n          emit Transfer(address(this), from ,amount);\n          return amount;\n    }\n    \n      \n    \n    function sell(address owner,uint tstCount, uint etherAmount, uint256 nonce, uint8 v, bytes32 r, bytes32 s) public returns (uint amount){\n        \n          bytes32 hashedTx = keccak256(abi.encodePacked('transferPreSigned', owner, tstCount, nonce));\n          require(transactionHashes[hashedTx] == false, 'transaction hash is already used');\n          address from = ecrecover(keccak256(abi.encodePacked(\"\\x19Ethereum Signed Message:\\n32\", hashedTx)),v,r,s);\n          require(from == owner, 'Invalid _from address');\n          \n          require(balanceOf[msg.sender] >= tstCount,\"Checks if the sender has enough to sell\");        \n          require(SellTokenAllowed,\"Sell Token is not allowed\");  \n                                                                \n        \n          balanceOf[address(this)] = balanceOf[address(this)].add(tstCount);                          \n          balanceOf[msg.sender] = balanceOf[msg.sender].sub(tstCount);                               \n        \n        \n          transactionHashes[hashedTx] = true;\n          msg.sender.transfer(etherAmount);                                                        \n          emit Transfer(msg.sender, address(this), tstCount);\n         \n          return etherAmount;\n    }\n    \n     \n    function enableSellToken() onlyOwner public {\n        SellTokenAllowed = true;\n        emit SellTokenAllowedEvent (true);\n    }\n\n    \n    function disableSellToken() onlyOwner public {\n        SellTokenAllowed = false;\n        emit SellTokenAllowedEvent (false);\n    }\n    \n    \n    function enableBuyToken() onlyOwner public {\n        BuyTokenAllowed = true;\n        emit BuyTokenAllowedEvent (true);\n    }\n\n    \n    function disableBuyToken() onlyOwner public {\n        BuyTokenAllowed = false;\n        emit BuyTokenAllowedEvent (false);\n    }\n\t    \n\t    \n    function testSender(\n        address _to,\n        uint256 _value,\n        uint256 _fee,\n        uint256 _nonce,\n        uint8 v, \n        bytes32 r, \n        bytes32 s\n    )\n        public\n        view\n        returns (address)\n    {\n        bytes32 hashedTx = keccak256(abi.encodePacked(address(this), _to, _value, _fee, _nonce));\n        return ecrecover(keccak256(abi.encodePacked(\"\\x19Ethereum Signed Message:\\n32\", hashedTx)),v,r,s);\n    }\n\n\n\n\n\n    \n    \n    \n      \n    \n    function manualWithdrawEther() public onlyOwner{\n        address(owner).transfer(address(this).balance); \n    }\n    \n    \n    \n    function manualWithdrawTokens(uint256 tokenAmount) public onlyOwner{\n        _transfer(address(this), msg.sender, tokenAmount);\n    }\n    \n    \n    function destructContract() public onlyOwner{\n        selfdestruct(owner); \n    }\n    \n    \n    function changeSafeguardStatus() onlyOwner public{\n        if (safeguard == false){\n            safeguard = true;\n        }\n        else{\n            safeguard = false;    \n        }\n    }\n    \n\n\n}\n",
  "sourcePath": "/home/XXX-1/smartrim-experiment/for-rlf/0xcd8f866ae90cef4c046101a1bc032cebecfaaa42_3/contracts/0xcd8f866ae90cef4c046101a1bc032cebecfaaa42_3.sol",
  "compiler": {
    "name": "solc",
    "version": "0.4.25+commit.59dbf8f1.Emscripten.clang"
  },
  "schemaVersion": "3.4.16",
  "updatedAt": "2025-08-14T03:35:02.816Z",
  "devdoc": {
    "methods": {}
  },
  "userdoc": {
    "methods": {}
  }
}