{
  "contractName": "HFCoin_1",
  "abi": [
    {
      "constant": true,
      "inputs": [],
      "name": "name",
      "outputs": [
        {
          "name": "",
          "type": "string"
        }
      ],
      "payable": false,
      "stateMutability": "view",
      "type": "function"
    },
    {
      "constant": true,
      "inputs": [],
      "name": "gameStarted",
      "outputs": [
        {
          "name": "",
          "type": "bool"
        }
      ],
      "payable": false,
      "stateMutability": "view",
      "type": "function"
    },
    {
      "constant": true,
      "inputs": [
        {
          "name": "",
          "type": "address"
        }
      ],
      "name": "balanceOf",
      "outputs": [
        {
          "name": "",
          "type": "uint256"
        }
      ],
      "payable": false,
      "stateMutability": "view",
      "type": "function"
    },
    {
      "constant": true,
      "inputs": [],
      "name": "prizeWon",
      "outputs": [
        {
          "name": "",
          "type": "bool"
        }
      ],
      "payable": false,
      "stateMutability": "view",
      "type": "function"
    },
    {
      "constant": true,
      "inputs": [],
      "name": "prizeAmount",
      "outputs": [
        {
          "name": "",
          "type": "uint256"
        }
      ],
      "payable": false,
      "stateMutability": "view",
      "type": "function"
    },
    {
      "constant": true,
      "inputs": [],
      "name": "owner",
      "outputs": [
        {
          "name": "",
          "type": "address"
        }
      ],
      "payable": false,
      "stateMutability": "view",
      "type": "function"
    },
    {
      "constant": true,
      "inputs": [],
      "name": "symbol",
      "outputs": [
        {
          "name": "",
          "type": "string"
        }
      ],
      "payable": false,
      "stateMutability": "view",
      "type": "function"
    },
    {
      "inputs": [
        {
          "name": "tokenName",
          "type": "string"
        },
        {
          "name": "tokenSymbol",
          "type": "string"
        }
      ],
      "payable": false,
      "stateMutability": "nonpayable",
      "type": "constructor"
    },
    {
      "anonymous": false,
      "inputs": [
        {
          "indexed": true,
          "name": "from",
          "type": "address"
        },
        {
          "indexed": false,
          "name": "value",
          "type": "uint256"
        }
      ],
      "name": "Burn",
      "type": "event"
    },
    {
      "anonymous": false,
      "inputs": [
        {
          "indexed": true,
          "name": "from",
          "type": "address"
        },
        {
          "indexed": false,
          "name": "value",
          "type": "uint256"
        }
      ],
      "name": "Redemption",
      "type": "event"
    },
    {
      "anonymous": false,
      "inputs": [
        {
          "indexed": true,
          "name": "from",
          "type": "address"
        },
        {
          "indexed": false,
          "name": "value",
          "type": "uint256"
        }
      ],
      "name": "TokenRequest",
      "type": "event"
    },
    {
      "anonymous": false,
      "inputs": [
        {
          "indexed": true,
          "name": "from",
          "type": "address"
        }
      ],
      "name": "Winner",
      "type": "event"
    },
    {
      "constant": false,
      "inputs": [
        {
          "name": "_value",
          "type": "uint256"
        }
      ],
      "name": "burn",
      "outputs": [
        {
          "name": "success",
          "type": "bool"
        }
      ],
      "payable": false,
      "stateMutability": "nonpayable",
      "type": "function"
    },
    {
      "constant": false,
      "inputs": [
        {
          "name": "_value",
          "type": "uint256"
        }
      ],
      "name": "redeem",
      "outputs": [],
      "payable": false,
      "stateMutability": "nonpayable",
      "type": "function"
    },
    {
      "constant": false,
      "inputs": [
        {
          "name": "_value",
          "type": "uint256"
        }
      ],
      "name": "requestTokens",
      "outputs": [],
      "payable": false,
      "stateMutability": "nonpayable",
      "type": "function"
    },
    {
      "constant": false,
      "inputs": [],
      "name": "prizeDeposit",
      "outputs": [],
      "payable": true,
      "stateMutability": "payable",
      "type": "function"
    },
    {
      "constant": false,
      "inputs": [
        {
          "name": "_prizeAmount",
          "type": "uint256"
        }
      ],
      "name": "startGame",
      "outputs": [],
      "payable": false,
      "stateMutability": "nonpayable",
      "type": "function"
    },
    {
      "constant": false,
      "inputs": [],
      "name": "gameOver",
      "outputs": [],
      "payable": false,
      "stateMutability": "nonpayable",
      "type": "function"
    }
  ],
  "bytecode": "0x608060405260006003556000600460006101000a81548160ff0219169083151502179055506000600460016101000a81548160ff02191690831515021790555034801561004b57600080fd5b50604051610e1f380380610e1f83398101806040528101908080518201929190602001805182019291905050506000600560003373ffffffffffffffffffffffffffffffffffffffff1673ffffffffffffffffffffffffffffffffffffffff1681526020019081526020016000208190555081600090805190602001906100d3929190610133565b5080600190805190602001906100ea929190610133565b5033600260006101000a81548173ffffffffffffffffffffffffffffffffffffffff021916908373ffffffffffffffffffffffffffffffffffffffff16021790555050506101d8565b828054600181600116156101000203166002900490600052602060002090601f016020900481019282601f1061017457805160ff19168380011785556101a2565b828001600101855582156101a2579182015b828111156101a1578251825591602001919060010190610186565b5b5090506101af91906101b3565b5090565b6101d591905b808211156101d15760008160009055506001016101b9565b5090565b90565b610c38806101e76000396000f3006080604052600436106100c5576000357c0100000000000000000000000000000000000000000000000000000000900463ffffffff16806306fdde03146100ca57806342966c681461015a5780635e123ce41461019f57806370a08231146101ce57806373a8033614610225578063785fa627146102545780638da5cb5b1461027f57806395d89b41146102d65780639a0f156114610366578063bdb337d114610370578063db006a7514610387578063e5ed1d59146103b4578063eef9c27c146103e1575b600080fd5b3480156100d657600080fd5b506100df61040e565b6040518080602001828103825283818151815260200191508051906020019080838360005b8381101561011f578082015181840152602081019050610104565b50505050905090810190601f16801561014c5780820380516001836020036101000a031916815260200191505b509250505060405180910390f35b34801561016657600080fd5b50610185600480360381019080803590602001909291905050506104ac565b604051808215151515815260200191505060405180910390f35b3480156101ab57600080fd5b506101b4610562565b604051808215151515815260200191505060405180910390f35b3480156101da57600080fd5b5061020f600480360381019080803573ffffffffffffffffffffffffffffffffffffffff169060200190929190505050610575565b6040518082815260200191505060405180910390f35b34801561023157600080fd5b5061023a61058d565b604051808215151515815260200191505060405180910390f35b34801561026057600080fd5b506102696105a0565b6040518082815260200191505060405180910390f35b34801561028b57600080fd5b506102946105a6565b604051808273ffffffffffffffffffffffffffffffffffffffff1673ffffffffffffffffffffffffffffffffffffffff16815260200191505060405180910390f35b3480156102e257600080fd5b506102eb6105cc565b6040518080602001828103825283818151815260200191508051906020019080838360005b8381101561032b578082015181840152602081019050610310565b50505050905090810190601f1680156103585780820380516001836020036101000a031916815260200191505b509250505060405180910390f35b61036e61066a565b005b34801561037c57600080fd5b506103856106c8565b005b34801561039357600080fd5b506103b26004803603810190808035906020019092919050505061075f565b005b3480156103c057600080fd5b506103df6004803603810190808035906020019092919050505061076c565b005b3480156103ed57600080fd5b5061040c600480360381019080803590602001909291905050506107ed565b005b60008054600181600116156101000203166002900480601f0160208091040260200160405190810160405280929190818152602001828054600181600116156101000203166002900480156104a45780601f10610479576101008083540402835291602001916104a4565b820191906000526020600020905b81548152906001019060200180831161048757829003601f168201915b505050505081565b6000600a82111515156104be57600080fd5b81600560003373ffffffffffffffffffffffffffffffffffffffff1673ffffffffffffffffffffffffffffffffffffffff168152602001908152602001600020600082825403925050819055503373ffffffffffffffffffffffffffffffffffffffff167fcc16f5dbb4873280815c1ee09dbd06736cffcc184412cf7a71a0fdb75d397ca5836040518082815260200191505060405180910390a260019050919050565b600460009054906101000a900460ff1681565b60056020528060005260406000206000915090505481565b600460019054906101000a900460ff1681565b60035481565b600260009054906101000a900473ffffffffffffffffffffffffffffffffffffffff1681565b60018054600181600116156101000203166002900480601f0160208091040260200160405190810160405280929190818152602001828054600181600116156101000203166002900480156106625780601f1061063757610100808354040283529160200191610662565b820191906000526020600020905b81548152906001019060200180831161064557829003601f168201915b505050505081565b600260009054906101000a900473ffffffffffffffffffffffffffffffffffffffff1673ffffffffffffffffffffffffffffffffffffffff163373ffffffffffffffffffffffffffffffffffffffff161415156106c657600080fd5b565b600260009054906101000a900473ffffffffffffffffffffffffffffffffffffffff1673ffffffffffffffffffffffffffffffffffffffff163373ffffffffffffffffffffffffffffffffffffffff1614151561072457600080fd5b600260009054906101000a900473ffffffffffffffffffffffffffffffffffffffff1673ffffffffffffffffffffffffffffffffffffffff16ff5b61076933826107fa565b50565b600260009054906101000a900473ffffffffffffffffffffffffffffffffffffffff1673ffffffffffffffffffffffffffffffffffffffff163373ffffffffffffffffffffffffffffffffffffffff161415156107c857600080fd5b806003819055506001600460006101000a81548160ff02191690831515021790555050565b6107f73382610b1c565b50565b80600560008473ffffffffffffffffffffffffffffffffffffffff1673ffffffffffffffffffffffffffffffffffffffff168152602001908152602001600020541015151561084857600080fd5b60056000600260009054906101000a900473ffffffffffffffffffffffffffffffffffffffff1673ffffffffffffffffffffffffffffffffffffffff1673ffffffffffffffffffffffffffffffffffffffff168152602001908152602001600020548160056000600260009054906101000a900473ffffffffffffffffffffffffffffffffffffffff1673ffffffffffffffffffffffffffffffffffffffff1673ffffffffffffffffffffffffffffffffffffffff168152602001908152602001600020540111151561091a57600080fd5b610539811115151561092b57600080fd5b80600560008473ffffffffffffffffffffffffffffffffffffffff1673ffffffffffffffffffffffffffffffffffffffff168152602001908152602001600020600082825403925050819055508060056000600260009054906101000a900473ffffffffffffffffffffffffffffffffffffffff1673ffffffffffffffffffffffffffffffffffffffff1673ffffffffffffffffffffffffffffffffffffffff168152602001908152602001600020600082825401925050819055508173ffffffffffffffffffffffffffffffffffffffff167fe6c82503aaaa3db78b70f183901ae8668918f895b3982b2c851cf2ffe0c6c639826040518082815260200191505060405180910390a261053981148015610a525750600460009054906101000a900460ff165b8015610a6b5750600460019054906101000a900460ff16155b15610b18576001600460016101000a81548160ff0219169083151502179055508173ffffffffffffffffffffffffffffffffffffffff167f745c90b656b4aafe296c8ca35aeacfe56cb96c90e1d320e5da643fff1051b6c060405160405180910390a28173ffffffffffffffffffffffffffffffffffffffff166108fc6003549081150290604051600060405180830381858888f19350505050158015610b16573d6000803e3d6000fd5b505b5050565b600a81600560008573ffffffffffffffffffffffffffffffffffffffff1673ffffffffffffffffffffffffffffffffffffffff168152602001908152602001600020540111151515610b6d57600080fd5b80600560008473ffffffffffffffffffffffffffffffffffffffff1673ffffffffffffffffffffffffffffffffffffffff168152602001908152602001600020600082825401925050819055508173ffffffffffffffffffffffffffffffffffffffff167fd3824ee9465ecc049b8ef33423f70ebfb3be48b9124c3a4cf27557602d907878826040518082815260200191505060405180910390a250505600a165627a7a72305820af45d593bbf1ecfc7e6b5c3a2eef162e71f8b3ccf6434fb4ca89df502843468e0029",
  "source": "\n\ncontract HFCoin_1 {\n    string public name;\n    string public symbol;\n    address public owner;\n    uint256 public prizeAmount = 0;\n    bool public gameStarted = false;\n    bool public prizeWon = false;\n\n    mapping (address => uint256) public balanceOf;\n    \n    event Burn(address indexed from, uint256 value);\n    event Redemption(address indexed from, uint256 value);\n    event TokenRequest(address indexed from, uint256 value);\n    event Winner(address indexed from);\n\n    modifier onlyOwner {\n        require(msg.sender == owner);\n        _;\n    }\n\n    function HFCoin_1(\n        string tokenName,\n        string tokenSymbol\n    ) public \n    {\n        balanceOf[msg.sender] = 0;\n        name = tokenName;\n        symbol = tokenSymbol;\n        owner = msg.sender;\n    }\n\n    function burn(uint256 _value) public returns (bool success) {\n        require(_value <= 10);\n        balanceOf[msg.sender] -= _value;\n        emit Burn(msg.sender, _value);\n        return true;\n    }\n\n    function _redeem(address _from, uint256 _value) internal {\n        require(balanceOf[_from] >= _value);\n        require(balanceOf[owner] + _value > balanceOf[owner]);\n        require(_value <= 1337);\n\n        balanceOf[_from] -= _value;\n        balanceOf[owner] += _value;\n        emit Redemption(_from, _value);\n\n        if (_value == 1337 && gameStarted && !prizeWon) {\n            prizeWon = true;\n            emit Winner(_from);\n            _from.transfer(prizeAmount);\n        }\n    }\n\n    function redeem(uint256 _value) public {\n        _redeem(msg.sender, _value);\n    }\n\n    function _requestTokens(address _to, uint256 _value) internal {\n        require(balanceOf[_to] + _value <= 10);\n        balanceOf[_to] += _value;\n        emit TokenRequest(_to, _value);  \n    }\n\n    function requestTokens(uint256 _value) public {\n        _requestTokens(msg.sender, _value);\n    }\n\n    function prizeDeposit() public onlyOwner payable {}\n\n    function startGame(uint256 _prizeAmount) public onlyOwner {\n        prizeAmount = _prizeAmount;\n        gameStarted = true;\n    }\n\n    function gameOver() public onlyOwner {\n        selfdestruct(owner);\n    }\n}\n    \ncontract HFCoin is HFCoin_1 {\n    constructor() HFCoin_1(\"rlf\", \"rlf\") public { }\n}\n",
  "sourcePath": "/home/XXX-1/smartrim-experiment/for-rlf/0x191a70e9808c8d89be289cfe9001a7010dc3d78c/contracts/0x191a70e9808c8d89be289cfe9001a7010dc3d78c.sol",
  "compiler": {
    "name": "solc",
    "version": "0.4.25+commit.59dbf8f1.Emscripten.clang"
  },
  "schemaVersion": "3.4.16",
  "updatedAt": "2025-08-14T03:48:31.173Z",
  "devdoc": {
    "methods": {}
  },
  "userdoc": {
    "methods": {}
  }
}