{
  "contractName": "Goldmint",
  "abi": [
    {
      "constant": true,
      "inputs": [],
      "name": "creator",
      "outputs": [
        {
          "name": "",
          "type": "address"
        }
      ],
      "payable": false,
      "stateMutability": "view",
      "type": "function"
    },
    {
      "constant": false,
      "inputs": [
        {
          "name": "_new",
          "type": "address"
        }
      ],
      "name": "setOtherCurrenciesChecker",
      "outputs": [],
      "payable": false,
      "stateMutability": "nonpayable",
      "type": "function"
    },
    {
      "constant": true,
      "inputs": [],
      "name": "currentState",
      "outputs": [
        {
          "name": "",
          "type": "uint8"
        }
      ],
      "payable": false,
      "stateMutability": "view",
      "type": "function"
    },
    {
      "constant": false,
      "inputs": [
        {
          "name": "_from",
          "type": "address"
        },
        {
          "name": "_tokens",
          "type": "uint256"
        }
      ],
      "name": "burnTokens",
      "outputs": [],
      "payable": false,
      "stateMutability": "nonpayable",
      "type": "function"
    },
    {
      "constant": true,
      "inputs": [],
      "name": "foundersRewardsMinted",
      "outputs": [
        {
          "name": "",
          "type": "bool"
        }
      ],
      "payable": false,
      "stateMutability": "view",
      "type": "function"
    },
    {
      "constant": true,
      "inputs": [],
      "name": "tokenManager",
      "outputs": [
        {
          "name": "",
          "type": "address"
        }
      ],
      "payable": false,
      "stateMutability": "view",
      "type": "function"
    },
    {
      "constant": true,
      "inputs": [],
      "name": "multisigAddress",
      "outputs": [
        {
          "name": "",
          "type": "address"
        }
      ],
      "payable": false,
      "stateMutability": "view",
      "type": "function"
    },
    {
      "constant": false,
      "inputs": [],
      "name": "getMyRefund",
      "outputs": [],
      "payable": false,
      "stateMutability": "nonpayable",
      "type": "function"
    },
    {
      "constant": false,
      "inputs": [
        {
          "name": "_nextState",
          "type": "uint8"
        }
      ],
      "name": "setState",
      "outputs": [],
      "payable": false,
      "stateMutability": "nonpayable",
      "type": "function"
    },
    {
      "constant": true,
      "inputs": [],
      "name": "unsoldContract",
      "outputs": [
        {
          "name": "",
          "type": "address"
        }
      ],
      "payable": false,
      "stateMutability": "view",
      "type": "function"
    },
    {
      "constant": true,
      "inputs": [],
      "name": "ICO_TOKEN_SOFT_CAP",
      "outputs": [
        {
          "name": "",
          "type": "uint256"
        }
      ],
      "payable": false,
      "stateMutability": "view",
      "type": "function"
    },
    {
      "constant": false,
      "inputs": [
        {
          "name": "_to",
          "type": "address"
        },
        {
          "name": "_wei_count",
          "type": "uint256"
        }
      ],
      "name": "issueTokensFromOtherCurrency",
      "outputs": [],
      "payable": false,
      "stateMutability": "nonpayable",
      "type": "function"
    },
    {
      "constant": true,
      "inputs": [],
      "name": "getTokensIcoSold",
      "outputs": [
        {
          "name": "",
          "type": "uint256"
        }
      ],
      "payable": false,
      "stateMutability": "view",
      "type": "function"
    },
    {
      "constant": false,
      "inputs": [],
      "name": "isIcoFinished",
      "outputs": [
        {
          "name": "",
          "type": "bool"
        }
      ],
      "payable": false,
      "stateMutability": "nonpayable",
      "type": "function"
    },
    {
      "constant": false,
      "inputs": [
        {
          "name": "_new",
          "type": "address"
        }
      ],
      "name": "setTokenManager",
      "outputs": [],
      "payable": false,
      "stateMutability": "nonpayable",
      "type": "function"
    },
    {
      "constant": true,
      "inputs": [],
      "name": "mntToken",
      "outputs": [
        {
          "name": "",
          "type": "address"
        }
      ],
      "payable": false,
      "stateMutability": "view",
      "type": "function"
    },
    {
      "constant": true,
      "inputs": [],
      "name": "icoTokensUnsold",
      "outputs": [
        {
          "name": "",
          "type": "uint256"
        }
      ],
      "payable": false,
      "stateMutability": "view",
      "type": "function"
    },
    {
      "constant": true,
      "inputs": [],
      "name": "icoStartedTime",
      "outputs": [
        {
          "name": "",
          "type": "uint64"
        }
      ],
      "payable": false,
      "stateMutability": "view",
      "type": "function"
    },
    {
      "constant": true,
      "inputs": [],
      "name": "ICO_TOKEN_SUPPLY_LIMIT",
      "outputs": [
        {
          "name": "",
          "type": "uint256"
        }
      ],
      "payable": false,
      "stateMutability": "view",
      "type": "function"
    },
    {
      "constant": true,
      "inputs": [],
      "name": "restTokensMoved",
      "outputs": [
        {
          "name": "",
          "type": "bool"
        }
      ],
      "payable": false,
      "stateMutability": "view",
      "type": "function"
    },
    {
      "constant": true,
      "inputs": [],
      "name": "icoTokensSold",
      "outputs": [
        {
          "name": "",
          "type": "uint256"
        }
      ],
      "payable": false,
      "stateMutability": "view",
      "type": "function"
    },
    {
      "constant": true,
      "inputs": [],
      "name": "SINGLE_BLOCK_LEN",
      "outputs": [
        {
          "name": "",
          "type": "uint256"
        }
      ],
      "payable": false,
      "stateMutability": "view",
      "type": "function"
    },
    {
      "constant": true,
      "inputs": [],
      "name": "otherCurrenciesChecker",
      "outputs": [
        {
          "name": "",
          "type": "address"
        }
      ],
      "payable": false,
      "stateMutability": "view",
      "type": "function"
    },
    {
      "constant": true,
      "inputs": [],
      "name": "issuedExternallyTokens",
      "outputs": [
        {
          "name": "",
          "type": "uint256"
        }
      ],
      "payable": false,
      "stateMutability": "view",
      "type": "function"
    },
    {
      "constant": true,
      "inputs": [
        {
          "name": "_of",
          "type": "address"
        }
      ],
      "name": "getMntTokenBalance",
      "outputs": [
        {
          "name": "",
          "type": "uint256"
        }
      ],
      "payable": false,
      "stateMutability": "view",
      "type": "function"
    },
    {
      "constant": false,
      "inputs": [
        {
          "name": "_to",
          "type": "address"
        },
        {
          "name": "_tokens",
          "type": "uint256"
        }
      ],
      "name": "issueTokensExternal",
      "outputs": [],
      "payable": false,
      "stateMutability": "nonpayable",
      "type": "function"
    },
    {
      "constant": true,
      "inputs": [],
      "name": "getBlockLength",
      "outputs": [
        {
          "name": "",
          "type": "uint256"
        }
      ],
      "payable": false,
      "stateMutability": "view",
      "type": "function"
    },
    {
      "constant": true,
      "inputs": [],
      "name": "BONUS_REWARD",
      "outputs": [
        {
          "name": "",
          "type": "uint256"
        }
      ],
      "payable": false,
      "stateMutability": "view",
      "type": "function"
    },
    {
      "constant": true,
      "inputs": [
        {
          "name": "tokensSold",
          "type": "uint256"
        }
      ],
      "name": "getMntTokensPerEth",
      "outputs": [
        {
          "name": "",
          "type": "uint256"
        }
      ],
      "payable": false,
      "stateMutability": "view",
      "type": "function"
    },
    {
      "constant": true,
      "inputs": [],
      "name": "getCurrentPrice",
      "outputs": [
        {
          "name": "",
          "type": "uint256"
        }
      ],
      "payable": false,
      "stateMutability": "view",
      "type": "function"
    },
    {
      "constant": false,
      "inputs": [
        {
          "name": "_buyer",
          "type": "address"
        }
      ],
      "name": "buyTokens",
      "outputs": [],
      "payable": true,
      "stateMutability": "payable",
      "type": "function"
    },
    {
      "constant": true,
      "inputs": [],
      "name": "FOUNDERS_REWARD",
      "outputs": [
        {
          "name": "",
          "type": "uint256"
        }
      ],
      "payable": false,
      "stateMutability": "view",
      "type": "function"
    },
    {
      "constant": true,
      "inputs": [],
      "name": "foundersRewardsAccount",
      "outputs": [
        {
          "name": "",
          "type": "address"
        }
      ],
      "payable": false,
      "stateMutability": "view",
      "type": "function"
    },
    {
      "constant": true,
      "inputs": [],
      "name": "getTotalIcoTokens",
      "outputs": [
        {
          "name": "",
          "type": "uint256"
        }
      ],
      "payable": false,
      "stateMutability": "view",
      "type": "function"
    },
    {
      "inputs": [],
      "payable": false,
      "stateMutability": "nonpayable",
      "type": "constructor"
    },
    {
      "payable": true,
      "stateMutability": "payable",
      "type": "fallback"
    },
    {
      "anonymous": false,
      "inputs": [
        {
          "indexed": false,
          "name": "newState",
          "type": "uint8"
        }
      ],
      "name": "LogStateSwitch",
      "type": "event"
    },
    {
      "anonymous": false,
      "inputs": [
        {
          "indexed": true,
          "name": "owner",
          "type": "address"
        },
        {
          "indexed": false,
          "name": "value",
          "type": "uint256"
        }
      ],
      "name": "LogBuy",
      "type": "event"
    },
    {
      "anonymous": false,
      "inputs": [
        {
          "indexed": true,
          "name": "owner",
          "type": "address"
        },
        {
          "indexed": false,
          "name": "value",
          "type": "uint256"
        }
      ],
      "name": "LogBurn",
      "type": "event"
    }
  ],
  "bytecode": "0x608060405260008060006101000a81548173ffffffffffffffffffffffffffffffffffffffff021916908373ffffffffffffffffffffffffffffffffffffffff1602179055506000600160006101000a81548173ffffffffffffffffffffffffffffffffffffffff021916908373ffffffffffffffffffffffffffffffffffffffff1602179055506000600260006101000a81548173ffffffffffffffffffffffffffffffffffffffff021916908373ffffffffffffffffffffffffffffffffffffffff1602179055506000600360006101000a81548173ffffffffffffffffffffffffffffffffffffffff021916908373ffffffffffffffffffffffffffffffffffffffff1602179055506000600360146101000a81548167ffffffffffffffff021916908367ffffffffffffffff1602179055506000600755600060085560006009556000600a60006101000a81548160ff0219169083151502179055506000600a60016101000a81548160ff0219169083151502179055506000600a60026101000a81548173ffffffffffffffffffffffffffffffffffffffff021916908373ffffffffffffffffffffffffffffffffffffffff1602179055506000600a60166101000a81548160ff021916908360048111156101db57fe5b02179055503480156101ec57600080fd5b50610123806101238061012380336000806101000a81548173ffffffffffffffffffffffffffffffffffffffff021916908373ffffffffffffffffffffffffffffffffffffffff16021790555085600260006101000a81548173ffffffffffffffffffffffffffffffffffffffff021916908373ffffffffffffffffffffffffffffffffffffffff16021790555084600160006101000a81548173ffffffffffffffffffffffffffffffffffffffff021916908373ffffffffffffffffffffffffffffffffffffffff16021790555083600360006101000a81548173ffffffffffffffffffffffffffffffffffffffff021916908373ffffffffffffffffffffffffffffffffffffffff16021790555082600460006101000a81548173ffffffffffffffffffffffffffffffffffffffff021916908373ffffffffffffffffffffffffffffffffffffffff16021790555081600560006101000a81548173ffffffffffffffffffffffffffffffffffffffff021916908373ffffffffffffffffffffffffffffffffffffffff16021790555080600a60026101000a81548173ffffffffffffffffffffffffffffffffffffffff021916908373ffffffffffffffffffffffffffffffffffffffff160217905550505050505050612513806103d46000396000f3006080604052600436106101ac576000357c0100000000000000000000000000000000000000000000000000000000900463ffffffff16806302d05d3f146101b757806307a993e51461020e5780630c3f6acf146102515780630d1118ce1461028a5780630d1dcd74146102d75780632a709b14146103065780635462870d1461035d5780635546e1ab146103b457806356de96db146103cb578063618fb1a6146103fb57806367608d381461045257806371ec98dd1461047d578063781a4a74146104ca5780637a543a94146104f55780637cb2b79c146105245780637f0554ca1461056757806392e4cd75146105be5780639762e9ea146105e957806398e0fb0814610628578063a08e3f0e14610653578063aab725b314610682578063ad9a9f17146106ad578063af2fa91c146106d8578063bf6ca1381461072f578063bfd9726d1461075a578063da942ab3146107b1578063dce57755146107fe578063e3c3ec9214610829578063e74ba7b314610854578063eb91d37e14610895578063ec8ac4d8146108c0578063f7868884146108f6578063ff6f291414610921578063ffd4e0e214610978575b6101b5336109a3565b005b3480156101c357600080fd5b506101cc610b09565b604051808273ffffffffffffffffffffffffffffffffffffffff1673ffffffffffffffffffffffffffffffffffffffff16815260200191505060405180910390f35b34801561021a57600080fd5b5061024f600480360381019080803573ffffffffffffffffffffffffffffffffffffffff169060200190929190505050610b2e565b005b34801561025d57600080fd5b50610266610bcd565b6040518082600481111561027657fe5b60ff16815260200191505060405180910390f35b34801561029657600080fd5b506102d5600480360381019080803573ffffffffffffffffffffffffffffffffffffffff16906020019092919080359060200190929190505050610be0565b005b3480156102e357600080fd5b506102ec610da1565b604051808215151515815260200191505060405180910390f35b34801561031257600080fd5b5061031b610db4565b604051808273ffffffffffffffffffffffffffffffffffffffff1673ffffffffffffffffffffffffffffffffffffffff16815260200191505060405180910390f35b34801561036957600080fd5b50610372610dda565b604051808273ffffffffffffffffffffffffffffffffffffffff1673ffffffffffffffffffffffffffffffffffffffff16815260200191505060405180910390f35b3480156103c057600080fd5b506103c9610e00565b005b3480156103d757600080fd5b506103f9600480360381019080803560ff16906020019092919050505061108a565b005b34801561040757600080fd5b50610410611419565b604051808273ffffffffffffffffffffffffffffffffffffffff1673ffffffffffffffffffffffffffffffffffffffff16815260200191505060405180910390f35b34801561045e57600080fd5b5061046761143f565b6040518082815260200191505060405180910390f35b34801561048957600080fd5b506104c8600480360381019080803573ffffffffffffffffffffffffffffffffffffffff1690602001909291908035906020019092919050505061144d565b005b3480156104d657600080fd5b506104df611522565b6040518082815260200191505060405180910390f35b34801561050157600080fd5b5061050a61152c565b604051808215151515815260200191505060405180910390f35b34801561053057600080fd5b50610565600480360381019080803573ffffffffffffffffffffffffffffffffffffffff1690602001909291905050506115c0565b005b34801561057357600080fd5b5061057c611660565b604051808273ffffffffffffffffffffffffffffffffffffffff1673ffffffffffffffffffffffffffffffffffffffff16815260200191505060405180910390f35b3480156105ca57600080fd5b506105d3611686565b6040518082815260200191505060405180910390f35b3480156105f557600080fd5b506105fe61168c565b604051808267ffffffffffffffff1667ffffffffffffffff16815260200191505060405180910390f35b34801561063457600080fd5b5061063d6116a6565b6040518082815260200191505060405180910390f35b34801561065f57600080fd5b506106686116b3565b604051808215151515815260200191505060405180910390f35b34801561068e57600080fd5b506106976116c6565b6040518082815260200191505060405180910390f35b3480156106b957600080fd5b506106c26116cc565b6040518082815260200191505060405180910390f35b3480156106e457600080fd5b506106ed6116d1565b604051808273ffffffffffffffffffffffffffffffffffffffff1673ffffffffffffffffffffffffffffffffffffffff16815260200191505060405180910390f35b34801561073b57600080fd5b506107446116f7565b6040518082815260200191505060405180910390f35b34801561076657600080fd5b5061079b600480360381019080803573ffffffffffffffffffffffffffffffffffffffff1690602001909291905050506116fd565b6040518082815260200191505060405180910390f35b3480156107bd57600080fd5b506107fc600480360381019080803573ffffffffffffffffffffffffffffffffffffffff169060200190929190803590602001909291905050506117fe565b005b34801561080a57600080fd5b50610813611999565b6040518082815260200191505060405180910390f35b34801561083557600080fd5b5061083e6119a2565b6040518082815260200191505060405180910390f35b34801561086057600080fd5b5061087f600480360381019080803590602001909291905050506119b0565b6040518082815260200191505060405180910390f35b3480156108a157600080fd5b506108aa611acc565b6040518082815260200191505060405180910390f35b6108f4600480360381019080803573ffffffffffffffffffffffffffffffffffffffff1690602001909291905050506109a3565b005b34801561090257600080fd5b5061090b611ade565b6040518082815260200191505060405180910390f35b34801561092d57600080fd5b50610936611aed565b604051808273ffffffffffffffffffffffffffffffffffffffff1673ffffffffffffffffffffffffffffffffffffffff16815260200191505060405180910390f35b34801561098457600080fd5b5061098d611b13565b6040518082815260200191505060405180910390f35b60006109ad6124a9565b6001600a60169054906101000a900460ff1660048111156109ca57fe5b8160048111156109d657fe5b1415156109e257600080fd5b600034141515156109f257600080fd5b670de0b6b3a7640000610a066007546119b0565b3402811515610a1157fe5b049250610a1e8484611b24565b600660003373ffffffffffffffffffffffffffffffffffffffff1673ffffffffffffffffffffffffffffffffffffffff168152602001908152602001600020604080519081016040529081600082015481526020016001820154815250509150610a8c826000015134611c7f565b826000018181525050610aa3826020015184611c7f565b82602001818152505081600660003373ffffffffffffffffffffffffffffffffffffffff1673ffffffffffffffffffffffffffffffffffffffff168152602001908152602001600020600082015181600001556020820151816001015590505050505050565b6000809054906101000a900473ffffffffffffffffffffffffffffffffffffffff1681565b6000809054906101000a900473ffffffffffffffffffffffffffffffffffffffff1673ffffffffffffffffffffffffffffffffffffffff163373ffffffffffffffffffffffffffffffffffffffff16141515610b8957600080fd5b80600360006101000a81548173ffffffffffffffffffffffffffffffffffffffff021916908373ffffffffffffffffffffffffffffffffffffffff16021790555050565b600a60169054906101000a900460ff1681565b6003600a60169054906101000a900460ff166004811115610bfd57fe5b816004811115610c0957fe5b141515610c1557600080fd5b600160009054906101000a900473ffffffffffffffffffffffffffffffffffffffff1673ffffffffffffffffffffffffffffffffffffffff163373ffffffffffffffffffffffffffffffffffffffff16141515610c7157600080fd5b600460009054906101000a900473ffffffffffffffffffffffffffffffffffffffff1673ffffffffffffffffffffffffffffffffffffffff16630d1118ce84846040518363ffffffff167c0100000000000000000000000000000000000000000000000000000000028152600401808373ffffffffffffffffffffffffffffffffffffffff1673ffffffffffffffffffffffffffffffffffffffff16815260200182815260200192505050600060405180830381600087803b158015610d3657600080fd5b505af1158015610d4a573d6000803e3d6000fd5b505050508273ffffffffffffffffffffffffffffffffffffffff167f38d762ef507761291a578e921acfe29c1af31a7331ea03e391cf16cfc4d4f581836040518082815260200191505060405180910390a2505050565b600a60009054906101000a900460ff1681565b600160009054906101000a900473ffffffffffffffffffffffffffffffffffffffff1681565b600260009054906101000a900473ffffffffffffffffffffffffffffffffffffffff1681565b60006004600a60169054906101000a900460ff166004811115610e1f57fe5b816004811115610e2b57fe5b141515610e3757600080fd5b339150600660008373ffffffffffffffffffffffffffffffffffffffff1673ffffffffffffffffffffffffffffffffffffffff16815260200190815260200160002060000154600014151515610e8c57600080fd5b600660008373ffffffffffffffffffffffffffffffffffffffff1673ffffffffffffffffffffffffffffffffffffffff16815260200190815260200160002060010154600014151515610ede57600080fd5b8173ffffffffffffffffffffffffffffffffffffffff166108fc600660008573ffffffffffffffffffffffffffffffffffffffff1673ffffffffffffffffffffffffffffffffffffffff168152602001908152602001600020600001549081150290604051600060405180830381858888f19350505050158015610f66573d6000803e3d6000fd5b50600460009054906101000a900473ffffffffffffffffffffffffffffffffffffffff1673ffffffffffffffffffffffffffffffffffffffff16630d1118ce83600660008673ffffffffffffffffffffffffffffffffffffffff1673ffffffffffffffffffffffffffffffffffffffff168152602001908152602001600020600101546040518363ffffffff167c0100000000000000000000000000000000000000000000000000000000028152600401808373ffffffffffffffffffffffffffffffffffffffff1673ffffffffffffffffffffffffffffffffffffffff16815260200182815260200192505050600060405180830381600087803b15801561106e57600080fd5b505af1158015611082573d6000803e3d6000fd5b505050505050565b600080600061109761152c565b92506000809054906101000a900473ffffffffffffffffffffffffffffffffffffffff1673ffffffffffffffffffffffffffffffffffffffff163373ffffffffffffffffffffffffffffffffffffffff1614806111135750828015611112575083600481111561110357fe5b6003600481111561111057fe5b145b5b915081151561112157600080fd5b6000600481111561112e57fe5b600a60169054906101000a900460ff16600481111561114957fe5b14801561116c57506001600481111561115e57fe5b84600481111561116a57fe5b145b806111be57506001600481111561117f57fe5b600a60169054906101000a900460ff16600481111561119a57fe5b1480156111bd5750600260048111156111af57fe5b8460048111156111bb57fe5b145b5b806112105750600260048111156111d157fe5b600a60169054906101000a900460ff1660048111156111ec57fe5b14801561120f57506001600481111561120157fe5b84600481111561120d57fe5b145b5b8061126257506001600481111561122357fe5b600a60169054906101000a900460ff16600481111561123e57fe5b14801561126157506003600481111561125357fe5b84600481111561125f57fe5b145b5b806112b357506001600481111561127557fe5b600a60169054906101000a900460ff16600481111561129057fe5b1480156112b257506004808111156112a457fe5b8460048111156112b057fe5b145b5b90508015156112c157600080fd5b83600a60166101000a81548160ff021916908360048111156112df57fe5b02179055507f024adb25d8e34435d96423524c2e431120ff0ca86a894cdbf7e068f4318afecf846040518082600481111561131657fe5b60ff16815260200191505060405180910390a16001600481111561133657fe5b600a60169054906101000a900460ff16600481111561135157fe5b14156113645761135f611ca9565b611413565b6003600481111561137157fe5b600a60169054906101000a900460ff16600481111561138c57fe5b141561139f5761139a611e32565b611412565b600260048111156113ac57fe5b600a60169054906101000a900460ff1660048111156113c757fe5b14156113da576113d561217b565b611411565b6004808111156113e657fe5b600a60169054906101000a900460ff16600481111561140157fe5b14156114105761140f6121d8565b5b5b5b5b50505050565b600560009054906101000a900473ffffffffffffffffffffffffffffffffffffffff1681565b691fc3842bd1f071c0000081565b60006001600a60169054906101000a900460ff16600481111561146c57fe5b81600481111561147857fe5b14151561148457600080fd5b600360009054906101000a900473ffffffffffffffffffffffffffffffffffffffff1673ffffffffffffffffffffffffffffffffffffffff163373ffffffffffffffffffffffffffffffffffffffff161415156114e057600080fd5b600083141515156114f057600080fd5b670de0b6b3a76400006115046007546119b0565b840281151561150f57fe5b04915061151c8483611b24565b50505050565b6000600754905090565b6000806000600360149054906101000a900467ffffffffffffffff1667ffffffffffffffff16141561156157600091506115bc565b62278d00600360149054906101000a900467ffffffffffffffff160190508067ffffffffffffffff1642111561159a57600191506115bc565b680821ab0d44149800006007541015156115b757600191506115bc565b600091505b5090565b600160009054906101000a900473ffffffffffffffffffffffffffffffffffffffff1673ffffffffffffffffffffffffffffffffffffffff163373ffffffffffffffffffffffffffffffffffffffff1614151561161c57600080fd5b80600160006101000a81548173ffffffffffffffffffffffffffffffffffffffff021916908373ffffffffffffffffffffffffffffffffffffffff16021790555050565b600460009054906101000a900473ffffffffffffffffffffffffffffffffffffffff1681565b60085481565b600360149054906101000a900467ffffffffffffffff1681565b680821ab0d441498000081565b600a60019054906101000a900460ff1681565b60075481565b606481565b600360009054906101000a900473ffffffffffffffffffffffffffffffffffffffff1681565b60095481565b6000600460009054906101000a900473ffffffffffffffffffffffffffffffffffffffff1673ffffffffffffffffffffffffffffffffffffffff166370a08231836040518263ffffffff167c0100000000000000000000000000000000000000000000000000000000028152600401808273ffffffffffffffffffffffffffffffffffffffff1673ffffffffffffffffffffffffffffffffffffffff168152602001915050602060405180830381600087803b1580156117bc57600080fd5b505af11580156117d0573d6000803e3d6000fd5b505050506040513d60208110156117e657600080fd5b81019080805190602001909291905050509050919050565b6003600a60169054906101000a900460ff16600481111561181b57fe5b81600481111561182757fe5b14151561183357600080fd5b600160009054906101000a900473ffffffffffffffffffffffffffffffffffffffff1673ffffffffffffffffffffffffffffffffffffffff163373ffffffffffffffffffffffffffffffffffffffff1614151561188f57600080fd5b69d3c21bcecceda10000008260095401111515156118ac57600080fd5b600460009054906101000a900473ffffffffffffffffffffffffffffffffffffffff1673ffffffffffffffffffffffffffffffffffffffff1663475a9fa984846040518363ffffffff167c0100000000000000000000000000000000000000000000000000000000028152600401808373ffffffffffffffffffffffffffffffffffffffff1673ffffffffffffffffffffffffffffffffffffffff16815260200182815260200192505050600060405180830381600087803b15801561197157600080fd5b505af1158015611985573d6000803e3d6000fd5b505050508160095401600981905550505050565b60006064905090565b69d3c21bcecceda100000081565b6000806119bb6124c3565b6000806064670de0b6b3a7640000878115156119d357fe5b048115156119dd57fe5b049350600084101580156119f2575060098411155b15156119fa57fe5b61014060405190810160405280601460ff168152602001600f60ff168152602001600a60ff168152602001600860ff168152602001600660ff168152602001600460ff168152602001600260ff168152602001600060ff168152602001600060ff168152602001600060ff1681525092508284600a81101515611a7957fe5b602002015160640160ff16670de0b6b3a76400006064611b580202811515611a9d57fe5b04915081670de0b6b3a7640000806103e861012c020202811515611abd57fe5b04905080945050505050919050565b6000611ad96007546119b0565b905090565b6a01a784379d99db4200000081565b600a60029054906101000a900473ffffffffffffffffffffffffffffffffffffffff1681565b6000680821ab0d4414980000905090565b680821ab0d4414980000816007540111151515611b4057600080fd5b600460009054906101000a900473ffffffffffffffffffffffffffffffffffffffff1673ffffffffffffffffffffffffffffffffffffffff1663475a9fa983836040518363ffffffff167c0100000000000000000000000000000000000000000000000000000000028152600401808373ffffffffffffffffffffffffffffffffffffffff1673ffffffffffffffffffffffffffffffffffffffff16815260200182815260200192505050600060405180830381600087803b158015611c0557600080fd5b505af1158015611c19573d6000803e3d6000fd5b50505050806007600082825401925050819055508173ffffffffffffffffffffffffffffffffffffffff167f4f79409f494e81c38036d80aa8a6507c2cb08d90bfb2fead5519447646b3497e826040518082815260200191505060405180910390a25050565b6000808284019050838110158015611c975750828110155b1515611c9f57fe5b8091505092915050565b6000809054906101000a900473ffffffffffffffffffffffffffffffffffffffff1673ffffffffffffffffffffffffffffffffffffffff163373ffffffffffffffffffffffffffffffffffffffff16141515611d0457600080fd5b611d2f600a60029054906101000a900473ffffffffffffffffffffffffffffffffffffffff16612318565b600460009054906101000a900473ffffffffffffffffffffffffffffffffffffffff1673ffffffffffffffffffffffffffffffffffffffff166320b44b2960016040518263ffffffff167c01000000000000000000000000000000000000000000000000000000000281526004018082151515158152602001915050600060405180830381600087803b158015611dc557600080fd5b505af1158015611dd9573d6000803e3d6000fd5b505050506000600360149054906101000a900467ffffffffffffffff1667ffffffffffffffff161415611e305742600360146101000a81548167ffffffffffffffff021916908367ffffffffffffffff1602179055505b565b600460009054906101000a900473ffffffffffffffffffffffffffffffffffffffff1673ffffffffffffffffffffffffffffffffffffffff166320b44b2960006040518263ffffffff167c01000000000000000000000000000000000000000000000000000000000281526004018082151515158152602001915050600060405180830381600087803b158015611ec857600080fd5b505af1158015611edc573d6000803e3d6000fd5b50505050600a60019054906101000a900460ff1615156120d8576001600a60016101000a81548160ff021916908315150217905550611f26680821ab0d4414980000600754612490565b600881905550600060085411156120d757600460009054906101000a900473ffffffffffffffffffffffffffffffffffffffff1673ffffffffffffffffffffffffffffffffffffffff1663475a9fa9600560009054906101000a900473ffffffffffffffffffffffffffffffffffffffff166008546040518363ffffffff167c0100000000000000000000000000000000000000000000000000000000028152600401808373ffffffffffffffffffffffffffffffffffffffff1673ffffffffffffffffffffffffffffffffffffffff16815260200182815260200192505050600060405180830381600087803b15801561202057600080fd5b505af1158015612034573d6000803e3d6000fd5b50505050600560009054906101000a900473ffffffffffffffffffffffffffffffffffffffff1673ffffffffffffffffffffffffffffffffffffffff1663ec42f82f6040518163ffffffff167c0100000000000000000000000000000000000000000000000000000000028152600401600060405180830381600087803b1580156120be57600080fd5b505af11580156120d2573d6000803e3d6000fd5b505050505b5b60003073ffffffffffffffffffffffffffffffffffffffff1631111561217957600260009054906101000a900473ffffffffffffffffffffffffffffffffffffffff1673ffffffffffffffffffffffffffffffffffffffff166108fc3073ffffffffffffffffffffffffffffffffffffffff16319081150290604051600060405180830381858888f19350505050158015612177573d6000803e3d6000fd5b505b565b6000809054906101000a900473ffffffffffffffffffffffffffffffffffffffff1673ffffffffffffffffffffffffffffffffffffffff163373ffffffffffffffffffffffffffffffffffffffff161415156121d657600080fd5b565b6000809054906101000a900473ffffffffffffffffffffffffffffffffffffffff1673ffffffffffffffffffffffffffffffffffffffff163373ffffffffffffffffffffffffffffffffffffffff1614151561223357600080fd5b691fc3842bd1f071c0000060075410151561224d57600080fd5b600460009054906101000a900473ffffffffffffffffffffffffffffffffffffffff1673ffffffffffffffffffffffffffffffffffffffff166382b74b896040518163ffffffff167c0100000000000000000000000000000000000000000000000000000000028152600401602060405180830381600087803b1580156122d357600080fd5b505af11580156122e7573d6000803e3d6000fd5b505050506040513d60208110156122fd57600080fd5b8101908080519060200190929190505050151561231657fe5b565b6000809054906101000a900473ffffffffffffffffffffffffffffffffffffffff1673ffffffffffffffffffffffffffffffffffffffff163373ffffffffffffffffffffffffffffffffffffffff1614151561237357600080fd5b600a60009054906101000a900460ff16151561248d576001600a60006101000a81548160ff021916908315150217905550600460009054906101000a900473ffffffffffffffffffffffffffffffffffffffff1673ffffffffffffffffffffffffffffffffffffffff1663475a9fa9826a01a784379d99db420000006040518363ffffffff167c0100000000000000000000000000000000000000000000000000000000028152600401808373ffffffffffffffffffffffffffffffffffffffff1673ffffffffffffffffffffffffffffffffffffffff16815260200182815260200192505050600060405180830381600087803b15801561247457600080fd5b505af1158015612488573d6000803e3d6000fd5b505050505b50565b600082821115151561249e57fe5b818303905092915050565b604080519081016040528060008152602001600081525090565b61014060405190810160405280600a906020820280388339808201915050905050905600a165627a7a723058200de84bb1d43a9813525e4763555fa3eb29876b18c4349b8c4441a6ab0177e0d60029",
  "source": "\n\ncontract SafeMath {\n     function safeMul(uint a, uint b) internal returns (uint) {\n          uint c = a * b;\n          assert(a == 0 || c / a == b);\n          return c;\n     }\n\n     function safeSub(uint a, uint b) internal returns (uint) {\n          assert(b <= a);\n          return a - b;\n     }\n\n     function safeAdd(uint a, uint b) internal returns (uint) {\n          uint c = a + b;\n          assert(c>=a && c>=b);\n          return c;\n     }\n}\n\n\n\ncontract Token is SafeMath {\n     \n     \n     function totalSupply() constant returns (uint256 supply) {}\n\n     \n     \n     function balanceOf(address _owner) constant returns (uint256 balance) {}\n\n     \n     \n     \n     function transfer(address _to, uint256 _value) returns(bool) {}\n\n     \n     \n     \n     \n     \n     function transferFrom(address _from, address _to, uint256 _value)returns(bool){}\n\n     \n     \n     \n     \n     function approve(address _spender, uint256 _value) returns (bool success) {}\n\n     \n     \n     \n     function allowance(address _owner, address _spender) constant returns (uint256 remaining) {}\n\n     \n     event Transfer(address indexed _from, address indexed _to, uint256 _value);\n     event Approval(address indexed _owner, address indexed _spender, uint256 _value);\n}\n\ncontract StdToken is Token {\n     \n     mapping(address => uint256) balances;\n     mapping (address => mapping (address => uint256)) allowed;\n     uint public totalSupply = 0;\n\n     \n     function transfer(address _to, uint256 _value) returns(bool){\n          require(balances[msg.sender] >= _value);\n          require(balances[_to] + _value > balances[_to]);\n\n          balances[msg.sender] = safeSub(balances[msg.sender],_value);\n          balances[_to] = safeAdd(balances[_to],_value);\n\n          Transfer(msg.sender, _to, _value);\n          return true;\n     }\n\n     function transferFrom(address _from, address _to, uint256 _value) returns(bool){\n          require(balances[_from] >= _value);\n          require(allowed[_from][msg.sender] >= _value);\n          require(balances[_to] + _value > balances[_to]);\n\n          balances[_to] = safeAdd(balances[_to],_value);\n          balances[_from] = safeSub(balances[_from],_value);\n          allowed[_from][msg.sender] = safeSub(allowed[_from][msg.sender],_value);\n\n          Transfer(_from, _to, _value);\n          return true;\n     }\n\n     function balanceOf(address _owner) constant returns (uint256 balance) {\n          return balances[_owner];\n     }\n\n     function approve(address _spender, uint256 _value) returns (bool success) {\n          allowed[msg.sender][_spender] = _value;\n          Approval(msg.sender, _spender, _value);\n          return true;\n     }\n\n     function allowance(address _owner, address _spender) constant returns (uint256 remaining) {\n          return allowed[_owner][_spender];\n     }\n\n     modifier onlyPayloadSize(uint _size) {\n          require(msg.data.length >= _size + 4);\n          _;\n     }\n}\n\ncontract MNTP is StdToken {\n\n     string public constant name = \"Goldmint_1 MNT Prelaunch Token\";\n     string public constant symbol = \"MNTP\";\n     uint public constant decimals = 18;\n\n     address public creator = 0x0;\n     address public icoContractAddress = 0x0;\n     bool public lockTransfers = false;\n\n     \n     uint public constant TOTAL_TOKEN_SUPPLY = 10000000 * (1 ether / 1 wei);\n\n\n     modifier onlyCreator() { \n          require(msg.sender == creator); \n          _; \n     }\n\n     modifier byCreatorOrIcoContract() { \n          require((msg.sender == creator) || (msg.sender == icoContractAddress)); \n          _; \n     }\n\n     function setCreator(address _creator) onlyCreator {\n          creator = _creator;\n     }\n\n\n     function setIcoContractAddress(address _icoContractAddress) onlyCreator {\n          icoContractAddress = _icoContractAddress;\n     }\n\n\n     \n     function MNTP() {\n          creator = msg.sender;\n\n          \n          assert(TOTAL_TOKEN_SUPPLY == (10000000 * (1 ether / 1 wei)));\n     }\n\n     \n     function transfer(address _to, uint256 _value) public returns(bool){\n          require(!lockTransfers);\n          return super.transfer(_to,_value);\n     }\n\n     \n     function transferFrom(address _from, address _to, uint256 _value) public returns(bool){\n          require(!lockTransfers);\n          return super.transferFrom(_from,_to,_value);\n     }\n\n     function issueTokens(address _who, uint _tokens) byCreatorOrIcoContract {\n          require((totalSupply + _tokens) <= TOTAL_TOKEN_SUPPLY);\n\n          balances[_who] = safeAdd(balances[_who],_tokens);\n          totalSupply = safeAdd(totalSupply,_tokens);\n     }\n\n     function burnTokens(address _who, uint _tokens) byCreatorOrIcoContract {\n          balances[_who] = safeSub(balances[_who], _tokens);\n          totalSupply = safeSub(totalSupply, _tokens);\n     }\n\n     function lockTransfer(bool _lock) byCreatorOrIcoContract {\n          lockTransfers = _lock;\n     }\n\n     \n     function() {\n          revert();\n     }\n}\n\n\n\ncontract Goldmint_1Unsold is SafeMath {\n     address public creator;\n     address public teamAccountAddress;\n     address public icoContractAddress;\n     uint64 public icoIsFinishedDate;\n\n     MNTP public mntToken;\n\n     function Goldmint_1Unsold(address _teamAccountAddress,address _mntTokenAddress){\n          creator = msg.sender;\n          teamAccountAddress = _teamAccountAddress;\n\n          mntToken = MNTP(_mntTokenAddress);          \n     }\n\n     modifier onlyCreator() { \n          require(msg.sender==creator); \n          _; \n     }\n\n     modifier onlyIcoContract() { \n          require(msg.sender==icoContractAddress); \n          _; \n     }\n\n\n     function setIcoContractAddress(address _icoContractAddress) onlyCreator {\n          icoContractAddress = _icoContractAddress;\n     }\n\n     \n     function finishIco() public onlyIcoContract {\n          icoIsFinishedDate = uint64(now);\n     }\n\n     \n     function withdrawTokens() public {\n          \n          uint64 oneYearPassed = icoIsFinishedDate + 365 days;  \n          require(uint(now) >= oneYearPassed);\n\n          \n          uint total = mntToken.balanceOf(this);\n          mntToken.transfer(teamAccountAddress,total);\n     }\n\n     \n     function() payable {\n          revert();\n     }\n}\n\ncontract FoundersVesting is SafeMath {\n     address public teamAccountAddress;\n     uint64 public lastWithdrawTime;\n\n     uint public withdrawsCount = 0;\n     uint public amountToSend = 0;\n\n     MNTP public mntToken;\n\n     function FoundersVesting(address _teamAccountAddress,address _mntTokenAddress){\n          teamAccountAddress = _teamAccountAddress;\n          lastWithdrawTime = uint64(now);\n\n          mntToken = MNTP(_mntTokenAddress);          \n     }\n\n     \n     function withdrawTokens() public {\n          \n          uint64 oneMonth = lastWithdrawTime + 30 days;  \n          require(uint(now) >= oneMonth);\n\n          \n          if(withdrawsCount==0){\n               amountToSend = mntToken.balanceOf(this) / 10;\n          }\n\n          require(amountToSend!=0);\n\n          \n          uint currentBalance = mntToken.balanceOf(this);\n          if(currentBalance<amountToSend){\n             amountToSend = currentBalance;  \n          }\n          mntToken.transfer(teamAccountAddress,amountToSend);\n\n          \n          withdrawsCount++;\n          lastWithdrawTime = uint64(now);\n     }\n\n     \n     function() payable {\n          require(false);\n     }\n}\n\ncontract Goldmint_1 is SafeMath {\n     address public creator = 0x0;\n     address public tokenManager = 0x0;\n     address public multisigAddress = 0x0;\n     address public otherCurrenciesChecker = 0x0;\n\n     uint64 public icoStartedTime = 0;\n\n     MNTP public mntToken; \n     Goldmint_1Unsold public unsoldContract;\n\n     struct TokenBuyer {\n          uint weiSent;\n          uint tokensGot;\n     }\n     mapping(address => TokenBuyer) buyers;\n\n     \n     uint constant STD_PRICE_USD_PER_1000_TOKENS = 7000;\n     \n     uint constant ETH_PRICE_IN_USD = 300;\n     \n     \n\n     \n     uint public constant SINGLE_BLOCK_LEN = 100;\n\n\n     \n     uint public constant BONUS_REWARD = 1000000 * (1 ether/ 1 wei);\n     \n     uint public constant FOUNDERS_REWARD = 2000000 * (1 ether / 1 wei);\n     \n     \n\n     \n     \n     uint public constant ICO_TOKEN_SUPPLY_LIMIT = 150 * (1 ether / 1 wei); \n\n     \n     uint public constant ICO_TOKEN_SOFT_CAP = 150000 * (1 ether / 1 wei);\n     \n     \n     uint public icoTokensSold = 0;\n     \n     uint public icoTokensUnsold = 0;\n\n     \n     uint public issuedExternallyTokens = 0;\n\n     bool public foundersRewardsMinted = false;\n     bool public restTokensMoved = false;\n\n     \n     address public foundersRewardsAccount = 0x0;\n\n     enum State{\n          Init,\n\n          ICORunning,\n          ICOPaused,\n         \n          ICOFinished,\n\n          Refunding\n     }\n     State public currentState = State.Init;\n\n\n     modifier onlyCreator() { \n          require(msg.sender==creator); \n          _; \n     }\n     modifier onlyTokenManager() { \n          require(msg.sender==tokenManager); \n          _; \n     }\n     modifier onlyOtherCurrenciesChecker() { \n          require(msg.sender==otherCurrenciesChecker); \n          _; \n     }\n     modifier onlyInState(State state){ \n          require(state==currentState); \n          _; \n     }\n\n\n     event LogStateSwitch(State newState);\n     event LogBuy(address indexed owner, uint value);\n     event LogBurn(address indexed owner, uint value);\n     \n\n     \n     function Goldmint_1(\n          address _multisigAddress,\n          address _tokenManager,\n          address _otherCurrenciesChecker,\n\n          address _mntTokenAddress,\n          address _unsoldContractAddress,\n          address _foundersVestingAddress)\n     {\n          creator = msg.sender;\n\n          multisigAddress = _multisigAddress;\n          tokenManager = _tokenManager;\n          otherCurrenciesChecker = _otherCurrenciesChecker; \n\n          mntToken = MNTP(_mntTokenAddress);\n          unsoldContract = Goldmint_1Unsold(_unsoldContractAddress);\n\n          \n          foundersRewardsAccount = _foundersVestingAddress;\n     }\n\n     \n     \n     function startICO() internal onlyCreator {\n          mintFoundersRewards(foundersRewardsAccount);\n\n          mntToken.lockTransfer(true);\n\n          if(icoStartedTime==0){\n               icoStartedTime = uint64(now);\n          }\n     }\n\n     function pauseICO() internal onlyCreator {\n     }\n\n     function startRefunding() internal onlyCreator {\n          \n          require(icoTokensSold<ICO_TOKEN_SOFT_CAP);\n\n          \n          assert(mntToken.lockTransfers());\n     }\n\n     \n     \n     function finishICO() internal {\n          mntToken.lockTransfer(false);\n\n          if(!restTokensMoved){\n               restTokensMoved = true;\n\n               \n               icoTokensUnsold = safeSub(ICO_TOKEN_SUPPLY_LIMIT,icoTokensSold);\n               if(icoTokensUnsold>0){\n                    mntToken.issueTokens(unsoldContract,icoTokensUnsold);\n                    unsoldContract.finishIco();\n               }\n          }\n\n          \n          if(this.balance>0){\n               multisigAddress.transfer(this.balance);\n          }\n     }\n\n     function mintFoundersRewards(address _whereToMint) internal onlyCreator {\n          if(!foundersRewardsMinted){\n               foundersRewardsMinted = true;\n               mntToken.issueTokens(_whereToMint,FOUNDERS_REWARD);\n          }\n     }\n\n\n     function setTokenManager(address _new) public onlyTokenManager {\n          tokenManager = _new;\n     }\n\n     function setOtherCurrenciesChecker(address _new) public onlyCreator {\n          otherCurrenciesChecker = _new;\n     }\n\n     function getTokensIcoSold() constant public returns (uint){\n          return icoTokensSold;\n     }\n\n     function getTotalIcoTokens() constant public returns (uint){\n          return ICO_TOKEN_SUPPLY_LIMIT;\n     }\n\n     function getMntTokenBalance(address _of) constant public returns (uint){\n          return mntToken.balanceOf(_of);\n     }\n\n     function getCurrentPrice()constant public returns (uint){\n          return getMntTokensPerEth(icoTokensSold);\n     }\n\n     function getBlockLength()constant public returns (uint){\n          return SINGLE_BLOCK_LEN;\n     }\n\n\n     function isIcoFinished() public returns(bool){\n          if(icoStartedTime==0){return false;}          \n\n          \n          uint64 oneMonth = icoStartedTime + 30 days;  \n          if(uint(now) > oneMonth){return true;}\n\n          \n          if(icoTokensSold>=ICO_TOKEN_SUPPLY_LIMIT){\n               return true;\n          }\n\n          return false;\n     }\n\n     function setState(State _nextState) public {\n          \n          \n          bool icoShouldBeFinished = isIcoFinished();\n          bool allow = (msg.sender==creator) || (icoShouldBeFinished && (State.ICOFinished==_nextState));\n          require(allow);\n\n          bool canSwitchState\n               =  (currentState == State.Init && _nextState == State.ICORunning)\n               || (currentState == State.ICORunning && _nextState == State.ICOPaused)\n               || (currentState == State.ICOPaused && _nextState == State.ICORunning)\n               || (currentState == State.ICORunning && _nextState == State.ICOFinished)\n               || (currentState == State.ICORunning && _nextState == State.Refunding);\n\n          require(canSwitchState);\n\n          currentState = _nextState;\n          LogStateSwitch(_nextState);\n\n          if(currentState==State.ICORunning){\n               startICO();\n          }else if(currentState==State.ICOFinished){\n               finishICO();\n          }else if(currentState==State.ICOPaused){\n               pauseICO();\n          }else if(currentState==State.Refunding){\n               startRefunding();\n          }\n     }\n\n     function getMntTokensPerEth(uint tokensSold) public constant returns (uint){\n          \n          uint priceIndex = (tokensSold / (1 ether/ 1 wei)) / SINGLE_BLOCK_LEN;\n          assert(priceIndex>=0 && (priceIndex<=9));\n          \n          uint8[10] memory discountPercents = [20,15,10,8,6,4,2,0,0,0];\n\n          \n          \n          uint pricePer1000tokensUsd = \n               ((STD_PRICE_USD_PER_1000_TOKENS * 100) * (1 ether / 1 wei)) / (100 + discountPercents[priceIndex]);\n\n          \n          \n          uint mntPerEth = (ETH_PRICE_IN_USD * 1000 * (1 ether / 1 wei) * (1 ether / 1 wei)) / pricePer1000tokensUsd;\n          return mntPerEth;\n     }\n\n     function buyTokens(address _buyer) public payable onlyInState(State.ICORunning) {\n          require(msg.value!=0);\n\n          \n          \n          \n          \n          \n          uint newTokens = (msg.value * getMntTokensPerEth(icoTokensSold)) / (1 ether / 1 wei);\n\n          issueTokensInternal(_buyer,newTokens);\n\n          \n          \n          TokenBuyer memory b = buyers[msg.sender];\n          b.weiSent = safeAdd(b.weiSent, msg.value);\n          b.tokensGot = safeAdd(b.tokensGot, newTokens);\n          buyers[msg.sender] = b;\n     }\n\n     \n     function issueTokensFromOtherCurrency(address _to, uint _wei_count) onlyInState(State.ICORunning) public onlyOtherCurrenciesChecker {\n          require(_wei_count!=0);\n\n          uint newTokens = (_wei_count * getMntTokensPerEth(icoTokensSold)) / (1 ether / 1 wei);\n          issueTokensInternal(_to,newTokens);\n     }\n\n     \n     \n     function issueTokensExternal(address _to, uint _tokens) public onlyInState(State.ICOFinished) onlyTokenManager {\n          \n          require((issuedExternallyTokens + _tokens)<=BONUS_REWARD);\n\n          mntToken.issueTokens(_to,_tokens);\n\n          issuedExternallyTokens = issuedExternallyTokens + _tokens;\n     }\n\n     function issueTokensInternal(address _to, uint _tokens) internal {\n          require((icoTokensSold + _tokens)<=ICO_TOKEN_SUPPLY_LIMIT);\n\n          mntToken.issueTokens(_to,_tokens);\n\n          icoTokensSold+=_tokens;\n\n          LogBuy(_to,_tokens);\n     }\n\n     function burnTokens(address _from, uint _tokens) public onlyInState(State.ICOFinished) onlyTokenManager {\n          mntToken.burnTokens(_from,_tokens);\n\n          LogBurn(_from,_tokens);\n     }\n\n     \n     function getMyRefund() public onlyInState(State.Refunding) {\n          address sender = msg.sender;\n\n          require(0!=buyers[sender].weiSent);\n          require(0!=buyers[sender].tokensGot);\n\n          \n          sender.transfer(buyers[sender].weiSent);\n\n          \n          mntToken.burnTokens(sender,buyers[sender].tokensGot);\n     }\n\n     \n     function() payable {\n          \n          buyTokens(msg.sender);\n     }\n}\n    \ncontract Goldmint is Goldmint_1 {\n    constructor() Goldmint_1(address(0x123), address(0x123), address(0x123), address(0x123), address(0x123), address(0x123)) public { }\n}\n",
  "sourcePath": "/home/XXX-1/smartrim-experiment/for-rlf/0x1590088b0003d63319bbfdb523e6f5966b18b6d0/contracts/0x1590088b0003d63319bbfdb523e6f5966b18b6d0.sol",
  "compiler": {
    "name": "solc",
    "version": "0.4.25+commit.59dbf8f1.Emscripten.clang"
  },
  "schemaVersion": "3.4.16",
  "updatedAt": "2025-08-14T03:48:04.171Z",
  "networkType": "ethereum",
  "devdoc": {
    "methods": {}
  },
  "userdoc": {
    "methods": {}
  }
}