{
  "contractName": "Ownable",
  "abi": [
    {
      "constant": true,
      "inputs": [],
      "name": "Owner",
      "outputs": [
        {
          "name": "",
          "type": "address"
        }
      ],
      "payable": false,
      "stateMutability": "view",
      "type": "function"
    },
    {
      "inputs": [],
      "payable": false,
      "stateMutability": "nonpayable",
      "type": "constructor"
    },
    {
      "constant": false,
      "inputs": [
        {
          "name": "_Owner",
          "type": "address"
        }
      ],
      "name": "transferOwner",
      "outputs": [],
      "payable": false,
      "stateMutability": "nonpayable",
      "type": "function"
    }
  ],
  "bytecode": "0x608060405234801561001057600080fd5b50336000806101000a81548173ffffffffffffffffffffffffffffffffffffffff021916908373ffffffffffffffffffffffffffffffffffffffff16021790555061020c806100606000396000f30060806040526004361061004c576000357c0100000000000000000000000000000000000000000000000000000000900463ffffffff1680634fb2e45d14610051578063b4a99a4e14610094575b600080fd5b34801561005d57600080fd5b50610092600480360381019080803573ffffffffffffffffffffffffffffffffffffffff1690602001909291905050506100eb565b005b3480156100a057600080fd5b506100a96101bb565b604051808273ffffffffffffffffffffffffffffffffffffffff1673ffffffffffffffffffffffffffffffffffffffff16815260200191505060405180910390f35b3373ffffffffffffffffffffffffffffffffffffffff166000809054906101000a900473ffffffffffffffffffffffffffffffffffffffff1673ffffffffffffffffffffffffffffffffffffffff1614156101b857600073ffffffffffffffffffffffffffffffffffffffff168173ffffffffffffffffffffffffffffffffffffffff161415156101b757806000806101000a81548173ffffffffffffffffffffffffffffffffffffffff021916908373ffffffffffffffffffffffffffffffffffffffff1602179055505b5b50565b6000809054906101000a900473ffffffffffffffffffffffffffffffffffffffff16815600a165627a7a723058202e5cec98ae47468ad1c883178bab0e55168d31beed6b4e232958431d58cb20980029",
  "source": "\n\n\ncontract Ownable {\n    address public Owner;\n    constructor() public { Owner = msg.sender; }\n    modifier onlyOwner() { if (Owner == msg.sender) { _; } }\n    \n    function transferOwner(address _Owner) public onlyOwner {\n        if (_Owner != address(0))\n            Owner = _Owner;\n    }\n}\n\ncontract MyDeposit is Ownable {\n    address public Owner;\n    mapping (address => uint) public deposits;\n    uint public openDate;\n    \n    function initalize(uint _openDate) payable public {\n        Owner = msg.sender;\n        openDate = _openDate;\n        deposit();\n    }\n    \n    function() public payable {  }\n    \n    function deposit() public payable {\n        if (msg.value >= 0.5 ether)\n            deposits[msg.sender] += msg.value;\n    }\n\n    function withdraw(uint amount) public onlyOwner {\n        if (now >= openDate) {\n            uint max = deposits[msg.sender];\n            if (amount <= max && max > 0)\n                if (!msg.sender.send(amount))\n                    revert();\n        }\n    }\n    \n    function kill() public {\n        if (address(this).balance == 0)\n            selfdestruct(msg.sender);\n    }\n}",
  "sourcePath": "/home/XXX-1/smartrim-experiment/for-rlf/0x5c8546a7b86ba30202c09a84f5a72644a2a4f7ba/contracts/0x5c8546a7b86ba30202c09a84f5a72644a2a4f7ba.sol",
  "compiler": {
    "name": "solc",
    "version": "0.4.25+commit.59dbf8f1.Emscripten.clang"
  },
  "schemaVersion": "3.4.16",
  "updatedAt": "2025-08-14T03:55:14.756Z",
  "devdoc": {
    "methods": {}
  },
  "userdoc": {
    "methods": {}
  }
}