{
  "contractName": "microICO",
  "abi": [
    {
      "constant": true,
      "inputs": [
        {
          "name": "",
          "type": "uint256"
        }
      ],
      "name": "holders",
      "outputs": [
        {
          "name": "",
          "type": "address"
        }
      ],
      "payable": false,
      "stateMutability": "view",
      "type": "function"
    },
    {
      "constant": true,
      "inputs": [],
      "name": "end_date",
      "outputs": [
        {
          "name": "",
          "type": "uint256"
        }
      ],
      "payable": false,
      "stateMutability": "view",
      "type": "function"
    },
    {
      "constant": true,
      "inputs": [],
      "name": "soft_cap",
      "outputs": [
        {
          "name": "",
          "type": "uint256"
        }
      ],
      "payable": false,
      "stateMutability": "view",
      "type": "function"
    },
    {
      "constant": true,
      "inputs": [],
      "name": "owner",
      "outputs": [
        {
          "name": "",
          "type": "address"
        }
      ],
      "payable": false,
      "stateMutability": "view",
      "type": "function"
    },
    {
      "constant": true,
      "inputs": [
        {
          "name": "",
          "type": "address"
        }
      ],
      "name": "holder_balance",
      "outputs": [
        {
          "name": "",
          "type": "uint256"
        }
      ],
      "payable": false,
      "stateMutability": "view",
      "type": "function"
    },
    {
      "payable": true,
      "stateMutability": "payable",
      "type": "fallback"
    },
    {
      "constant": false,
      "inputs": [],
      "name": "myICO",
      "outputs": [],
      "payable": false,
      "stateMutability": "nonpayable",
      "type": "function"
    },
    {
      "constant": false,
      "inputs": [
        {
          "name": "_addr",
          "type": "address"
        }
      ],
      "name": "sendFunds",
      "outputs": [],
      "payable": false,
      "stateMutability": "nonpayable",
      "type": "function"
    },
    {
      "constant": false,
      "inputs": [],
      "name": "withdraw",
      "outputs": [],
      "payable": false,
      "stateMutability": "nonpayable",
      "type": "function"
    },
    {
      "constant": true,
      "inputs": [],
      "name": "getFunds",
      "outputs": [
        {
          "name": "",
          "type": "uint256"
        }
      ],
      "payable": false,
      "stateMutability": "view",
      "type": "function"
    }
  ],
  "bytecode": "0x6080604052678ac7230489e80000600155635b54593d60025573f08fe88ed3120e19546eeee1ebe5e7b2ff66b5e7600360006101000a81548173ffffffffffffffffffffffffffffffffffffffff021916908373ffffffffffffffffffffffffffffffffffffffff160217905550336000806101000a81548173ffffffffffffffffffffffffffffffffffffffff021916908373ffffffffffffffffffffffffffffffffffffffff160217905550610661806100bc6000396000f300608060405260043610610098576000357c0100000000000000000000000000000000000000000000000000000000900463ffffffff16806231a48e1461015c5780632a11ced01461017357806333bbae93146101e05780633ccfd60b1461020b5780634d9b37351461022257806378e2df0e1461024d5780638da5cb5b14610278578063cfe52bdd146102cf578063fa6eb32914610312575b6000341115156100a757600080fd5b60043390806001815401808255809150509060018203906000526020600020016000909192909190916101000a81548173ffffffffffffffffffffffffffffffffffffffff021916908373ffffffffffffffffffffffffffffffffffffffff1602179055505034600560003373ffffffffffffffffffffffffffffffffffffffff1673ffffffffffffffffffffffffffffffffffffffff16815260200190815260200160002060008282540192505081905550005b34801561016857600080fd5b50610171610369565b005b34801561017f57600080fd5b5061019e600480360381019080803590602001909291905050506103c7565b604051808273ffffffffffffffffffffffffffffffffffffffff1673ffffffffffffffffffffffffffffffffffffffff16815260200191505060405180910390f35b3480156101ec57600080fd5b506101f5610405565b6040518082815260200191505060405180910390f35b34801561021757600080fd5b5061022061040b565b005b34801561022e57600080fd5b506102376104ee565b6040518082815260200191505060405180910390f35b34801561025957600080fd5b5061026261050d565b6040518082815260200191505060405180910390f35b34801561028457600080fd5b5061028d610513565b604051808273ffffffffffffffffffffffffffffffffffffffff1673ffffffffffffffffffffffffffffffffffffffff16815260200191505060405180910390f35b3480156102db57600080fd5b50610310600480360381019080803573ffffffffffffffffffffffffffffffffffffffff169060200190929190505050610539565b005b34801561031e57600080fd5b50610353600480360381019080803573ffffffffffffffffffffffffffffffffffffffff16906020019092919050505061061d565b6040518082815260200191505060405180910390f35b33600360006101000a81548173ffffffffffffffffffffffffffffffffffffffff021916908373ffffffffffffffffffffffffffffffffffffffff160217905550670de0b6b3a764000060018190555062278d004201600281905550565b6004818154811015156103d657fe5b906000526020600020016000915054906101000a900473ffffffffffffffffffffffffffffffffffffffff1681565b60025481565b60006002544211151561041d57600080fd5b600560003373ffffffffffffffffffffffffffffffffffffffff1673ffffffffffffffffffffffffffffffffffffffff1681526020019081526020016000205490506000600560003373ffffffffffffffffffffffffffffffffffffffff1673ffffffffffffffffffffffffffffffffffffffff168152602001908152602001600020819055503373ffffffffffffffffffffffffffffffffffffffff166108fc829081150290604051600060405180830381858888f193505050501580156104ea573d6000803e3d6000fd5b5050565b60003073ffffffffffffffffffffffffffffffffffffffff1631905090565b60015481565b600360009054906101000a900473ffffffffffffffffffffffffffffffffffffffff1681565b6000809054906101000a900473ffffffffffffffffffffffffffffffffffffffff1673ffffffffffffffffffffffffffffffffffffffff163373ffffffffffffffffffffffffffffffffffffffff1614151561059457600080fd5b6001543073ffffffffffffffffffffffffffffffffffffffff1631101515156105bc57600080fd5b8073ffffffffffffffffffffffffffffffffffffffff166108fc3073ffffffffffffffffffffffffffffffffffffffff16319081150290604051600060405180830381858888f19350505050158015610619573d6000803e3d6000fd5b5050565b600560205280600052604060002060009150905054815600a165627a7a72305820cf43aaa08b069a55c2c6b1bb5f0ec9ef22d8d0dc1797f623d2ead37db92366dd0029",
  "source": "\n\n\n\n\n\ncontract Ownable {\n    address public owner;\n    \n    function Ownable() public {\n        owner = msg.sender;\n    }\n    \n    modifier onlyOwner() {\n        require(msg.sender == owner);\n        _;\n    }\n}\n\ncontract microICO is Ownable {\n    uint public soft_cap = 10 ether;\n    uint public end_date = 1532254525;\n    address public owner = 0xF08FE88Ed3120e19546EeEE1ebe5E7b2FF66b5e7;\n    address[] public holders;\n    mapping (address => uint) public holder_balance;\n    \n    function myICO() public {\n        owner = msg.sender;\n        soft_cap = 1 ether; \n        end_date = now + 30 days; \n    }\n    \n    function sendFunds(address _addr) public onlyOwner {\n        require (address(this).balance >= soft_cap); \n        _addr.transfer(address(this).balance);\n    }\n\n    function withdraw() public {\n        uint amount;\n        require(now > end_date);\n        amount = holder_balance[msg.sender];\n        holder_balance[msg.sender] = 0;\n        msg.sender.transfer(amount);\n    }\n    \n    function () public payable {\n        require(msg.value > 0);\n        holders.push(msg.sender);\n        holder_balance[msg.sender] += msg.value;\n    }\n\n    function getFunds() public view returns (uint){\n        return address(this).balance;\n    }\n}",
  "sourcePath": "/home/XXX-1/smartrim-experiment/for-rlf/0x4b17c05fc1566891e5a9220d22527b5aeab0e1d0/contracts/0x4b17c05fc1566891e5a9220d22527b5aeab0e1d0.sol",
  "compiler": {
    "name": "solc",
    "version": "0.4.25+commit.59dbf8f1.Emscripten.clang"
  },
  "schemaVersion": "3.4.16",
  "updatedAt": "2025-08-14T03:53:18.568Z",
  "networkType": "ethereum",
  "devdoc": {
    "methods": {}
  },
  "userdoc": {
    "methods": {}
  }
}