{
  "contractName": "CryptoEngineerInterface",
  "abi": [
    {
      "constant": true,
      "inputs": [],
      "name": "prizePool",
      "outputs": [
        {
          "name": "",
          "type": "uint256"
        }
      ],
      "payable": false,
      "stateMutability": "view",
      "type": "function"
    },
    {
      "constant": true,
      "inputs": [
        {
          "name": "",
          "type": "uint256"
        }
      ],
      "name": "boostData",
      "outputs": [
        {
          "name": "owner",
          "type": "address"
        },
        {
          "name": "boostRate",
          "type": "uint256"
        },
        {
          "name": "basePrice",
          "type": "uint256"
        }
      ],
      "payable": false,
      "stateMutability": "view",
      "type": "function"
    },
    {
      "constant": true,
      "inputs": [],
      "name": "gameSponsor",
      "outputs": [
        {
          "name": "",
          "type": "address"
        }
      ],
      "payable": false,
      "stateMutability": "view",
      "type": "function"
    },
    {
      "constant": true,
      "inputs": [
        {
          "name": "",
          "type": "address"
        }
      ],
      "name": "getPlayerData",
      "outputs": [
        {
          "name": "",
          "type": "uint256"
        },
        {
          "name": "",
          "type": "uint256"
        },
        {
          "name": "",
          "type": "uint256"
        },
        {
          "name": "",
          "type": "uint256"
        },
        {
          "name": "",
          "type": "uint256"
        },
        {
          "name": "",
          "type": "uint256"
        },
        {
          "name": "",
          "type": "uint256[8]"
        },
        {
          "name": "",
          "type": "uint256"
        },
        {
          "name": "",
          "type": "uint256"
        }
      ],
      "payable": false,
      "stateMutability": "pure",
      "type": "function"
    },
    {
      "constant": false,
      "inputs": [],
      "name": "fallback",
      "outputs": [],
      "payable": true,
      "stateMutability": "payable",
      "type": "function"
    },
    {
      "constant": true,
      "inputs": [
        {
          "name": "",
          "type": "address"
        },
        {
          "name": "",
          "type": "uint256"
        }
      ],
      "name": "addVirus",
      "outputs": [],
      "payable": false,
      "stateMutability": "pure",
      "type": "function"
    },
    {
      "constant": true,
      "inputs": [
        {
          "name": "",
          "type": "address"
        },
        {
          "name": "",
          "type": "uint256"
        }
      ],
      "name": "claimPrizePool",
      "outputs": [],
      "payable": false,
      "stateMutability": "pure",
      "type": "function"
    },
    {
      "constant": true,
      "inputs": [],
      "name": "isContractMiniGame",
      "outputs": [
        {
          "name": "",
          "type": "bool"
        }
      ],
      "payable": false,
      "stateMutability": "pure",
      "type": "function"
    }
  ],
  "bytecode": "0x60806040526000805534801561001457600080fd5b50610410806100246000396000f30060806040526004361061008e576000357c0100000000000000000000000000000000000000000000000000000000900463ffffffff1680632aa531d9146100935780633281d5761461014a578063552079dc14610179578063719ce73e146101835780637baf71f9146101ae578063ac5b876c146101fb578063b3140ac314610276578063ec6f772d146102cd575b600080fd5b34801561009f57600080fd5b506100d4600480360381019080803573ffffffffffffffffffffffffffffffffffffffff16906020019092919050505061031a565b604051808a815260200189815260200188815260200187815260200186815260200185815260200184600860200280838360005b83811015610123578082015181840152602081019050610108565b50505050905001838152602001828152602001995050505050505050505060405180910390f35b34801561015657600080fd5b5061015f61033b565b604051808215151515815260200191505060405180910390f35b610181610340565b005b34801561018f57600080fd5b50610198610342565b6040518082815260200191505060405180910390f35b3480156101ba57600080fd5b506101f9600480360381019080803573ffffffffffffffffffffffffffffffffffffffff16906020019092919080359060200190929190505050610348565b005b34801561020757600080fd5b506102266004803603810190808035906020019092919050505061034c565b604051808473ffffffffffffffffffffffffffffffffffffffff1673ffffffffffffffffffffffffffffffffffffffff168152602001838152602001828152602001935050505060405180910390f35b34801561028257600080fd5b5061028b610396565b604051808273ffffffffffffffffffffffffffffffffffffffff1673ffffffffffffffffffffffffffffffffffffffff16815260200191505060405180910390f35b3480156102d957600080fd5b50610318600480360381019080803573ffffffffffffffffffffffffffffffffffffffff169060200190929190803590602001909291905050506103bc565b005b60008060008060008061032b6103c0565b6000809193959799909294969850565b600090565b565b60005481565b5050565b60026020528060005260406000206000915090508060000160009054906101000a900473ffffffffffffffffffffffffffffffffffffffff16908060010154908060020154905083565b600160009054906101000a900473ffffffffffffffffffffffffffffffffffffffff1681565b5050565b610100604051908101604052806008906020820280388339808201915050905050905600a165627a7a72305820f527cc5966d4855fcf335320f216c41dca3a3e61de4d5fd12801901df0ba71090029",
  "source": "\n\n\n\nlibrary SafeMath {\n\n    \n    function mul(uint256 a, uint256 b) internal pure returns (uint256) {\n        if (a == 0) {\n            return 0;\n        }\n        uint256 c = a * b;\n        assert(c / a == b);\n        return c;\n    }\n\n    \n    function div(uint256 a, uint256 b) internal pure returns (uint256) {\n        \n        uint256 c = a / b;\n        \n        return c;\n    }\n\n    \n    function sub(uint256 a, uint256 b) internal pure returns (uint256) {\n        assert(b <= a);\n        return a - b;\n    }\n\n    \n    function add(uint256 a, uint256 b) internal pure returns (uint256) {\n        uint256 c = a + b;\n        assert(c >= a);\n        return c;\n    }\n\n    function min(uint256 a, uint256 b) internal pure returns (uint256) {\n        return a < b ? a : b;\n    }\n}\ncontract CryptoEngineerInterface {\n    uint256 public prizePool = 0;\n    address public gameSponsor;\n    struct BoostData {\n        address owner;\n        uint256 boostRate;\n        uint256 basePrice;\n    }\n    mapping(uint256 => BoostData) public boostData;\n    function getPlayerData(address ) \n    public \n    pure \n    returns(\n        uint256 , \n        uint256 , \n        uint256 , \n        uint256 , \n        uint256 , \n        uint256 , \n        uint256[8] , \n        uint256 ,\n        uint256 \n    ) {}\n    function fallback() public payable {}\n    function addVirus(address , uint256 ) public pure {}\n    function claimPrizePool(address , uint256 ) public pure {} \n    function isContractMiniGame() public pure returns( bool ) {}\n}\ncontract CryptoMiningWarInterface {\n    uint256 public deadline; \n    uint256 public roundNumber = 0;\n    mapping(address => PlayerData) public players;\n    struct PlayerData {\n        uint256 roundNumber;\n        mapping(uint256 => uint256) minerCount;\n        uint256 hashrate;\n        uint256 crystals;\n        uint256 lastUpdateTime;\n        uint256 referral_count;\n        uint256 noQuest;\n    }\n    function getPlayerData(address ) public pure\n    returns (\n        uint256 , \n        uint256 , \n        uint256 , \n        uint256[8] , \n        uint256 , \n        uint256 , \n        uint256 , \n        uint256  \n        ) {}\n    function getBoosterData(uint256 ) public pure returns (address ,uint256 , uint256 , \n        uint256 , uint256 , uint256 ) {}\n    function addHashrate( address , uint256  ) public pure {}\n    function addCrystal( address , uint256  ) public pure {}\n    function subCrystal( address , uint256  ) public pure {}\n}\ncontract CryptoAirdropGameInterface {\n    mapping(address => PlayerData) public players;\n    struct PlayerData {\n        uint256 currentMiniGameId;\n        uint256 lastMiniGameId; \n        uint256 win;\n        uint256 share;\n        uint256 totalJoin;\n        uint256 miningWarRoundNumber;\n    }\n    function isContractMiniGame() public pure returns( bool  ) {}\n}\ncontract CryptoDepositInterface {\n    uint256 public round = 0;\n    mapping(address => Player) public players;\n    struct Player {\n        uint256 currentRound;\n        uint256 lastRound;\n        uint256 reward;\n        uint256 share; \n    }\n    function isContractMiniGame() public pure returns( bool  ) {}\n}\ncontract CryptoBossWannaCryInterface {\n    mapping(address => PlayerData) public players;\n    struct PlayerData {\n        uint256 currentBossRoundNumber;\n        uint256 lastBossRoundNumber;\n        uint256 win;\n        uint256 share;\n        uint256 dame; \n        uint256 nextTimeAtk;\n    }\n    function isContractMiniGame() public pure returns( bool  ) {}\n}\ncontract CryptoBeginnerQuest {\n    using SafeMath for uint256;\n\n    address private administrator;\n    \n    CryptoEngineerInterface     public Engineer;\n    CryptoDepositInterface      public Deposit;\n    CryptoMiningWarInterface    public MiningWar;\n    CryptoAirdropGameInterface  public AirdropGame;\n    CryptoBossWannaCryInterface public BossWannaCry;\n    \n    \n    uint256 private miningWarDeadline;\n    uint256 private miningWarRound;\n\n    \n    mapping(address => Player)           private players;\n    \n    mapping(address => MinerQuest)       private minerQuests;\n    mapping(address => EngineerQuest)    private engineerQuests;\n    mapping(address => DepositQuest)     private depositQuests;\n    mapping(address => JoinAirdropQuest) private joinAirdropQuests;\n    mapping(address => AtkBossQuest)     private atkBossQuests;\n    mapping(address => AtkPlayerQuest)   private atkPlayerQuests;\n    mapping(address => BoosterQuest)     private boosterQuests;\n    mapping(address => RedbullQuest)     private redbullQuests;\n   \n    struct Player {\n        uint256 miningWarRound;\n        uint256 currentQuest;\n    }\n    struct MinerQuest {\n        bool ended;\n    }\n    struct EngineerQuest {\n        bool ended;\n    }\n    struct DepositQuest {\n        uint256 currentDepositRound;\n        uint256 share; \n        bool ended;\n    }\n    struct JoinAirdropQuest {\n        uint256 airdropGameId;    \n        uint256 totalJoinAirdrop; \n        bool ended;\n    }\n    struct AtkBossQuest {\n        uint256 dameBossWannaCry; \n        uint256 levelBossWannaCry; \n        bool ended;\n    }\n    struct AtkPlayerQuest {\n        uint256 nextTimeAtkPlayer; \n        bool ended;\n    }\n    struct BoosterQuest {\n        bool ended;\n    }\n    struct RedbullQuest {\n        bool ended;\n    }\n\n    event ConfirmQuest(address player, uint256 questType, uint256 reward, uint256 typeReward); \n    modifier isAdministrator()\n    {\n        require(msg.sender == administrator);\n        _;\n    }\n    \n    constructor() public {\n        administrator = msg.sender;\n        \n        setMiningWarInterface(0xf84c61bb982041c030b8580d1634f00fffb89059);\n        setEngineerInterface(0x69fd0e5d0a93bf8bac02c154d343a8e3709adabf);\n        setAirdropGameInterface(0x5b813a2f4b58183d270975ab60700740af00a3c9);\n        setBossWannaCryInterface(0x54e96d609b183196de657fc7380032a96f27f384);\n        setDepositInterface(0xd67f271c2d3112d86d6991bfdfc8f9f27286bc4b);\n    }\n    function () public payable\n    {\n        \n    }\n    \n    \n    \n    \n    function setMiningWarInterface(address _addr) public isAdministrator\n    {\n        MiningWar = CryptoMiningWarInterface(_addr);\n    }\n    function setEngineerInterface(address _addr) public isAdministrator\n    {\n        CryptoEngineerInterface engineerInterface = CryptoEngineerInterface(_addr);\n        \n        require(engineerInterface.isContractMiniGame() == true);\n\n        Engineer = engineerInterface;\n    }\n    function setAirdropGameInterface(address _addr) public isAdministrator\n    {\n        CryptoAirdropGameInterface airdropGameInterface = CryptoAirdropGameInterface(_addr);\n        \n        require(airdropGameInterface.isContractMiniGame() == true);\n\n        AirdropGame = airdropGameInterface;\n    }\n    function setBossWannaCryInterface(address _addr) public isAdministrator\n    {\n        CryptoBossWannaCryInterface bossWannaCryInterface = CryptoBossWannaCryInterface(_addr);\n        \n        require(bossWannaCryInterface.isContractMiniGame() == true);\n\n        BossWannaCry = bossWannaCryInterface;\n    }\n    function setDepositInterface(address _addr) public isAdministrator\n    {\n        CryptoDepositInterface depositInterface = CryptoDepositInterface(_addr);\n        \n        require(depositInterface.isContractMiniGame() == true);\n\n        Deposit = depositInterface;\n    }\n    \n    function isContractMiniGame() public pure returns( bool _isContractMiniGame )\n    {\n        _isContractMiniGame = true;\n    }\n    function upgrade(address addr) public isAdministrator\n    {\n        selfdestruct(addr);\n    }\n    \n    function setupMiniGame( uint256 _miningWarRoundNumber, uint256 _miningWarDeadline ) public\n    {\n        miningWarDeadline = _miningWarDeadline;\n        miningWarRound    = _miningWarRoundNumber;\n    }\n    \n    function setupGame() public \n    {\n        require(msg.sender == administrator);\n        require(miningWarDeadline == 0);\n        miningWarDeadline = getMiningWarDealine();\n        miningWarRound    = getMiningWarRound();\n    }\n    function confirmQuest() public \n    {\n        if (miningWarRound != players[msg.sender].miningWarRound) {\n            players[msg.sender].currentQuest = 0;\n            players[msg.sender].miningWarRound = miningWarRound;\n        }    \n        bool _isFinish;\n        bool _ended;\n        (_isFinish, _ended) = checkQuest(msg.sender);\n        require(miningWarDeadline > now);\n        require(_isFinish == true);\n        require(_ended == false);\n\n        if (players[msg.sender].currentQuest == 0) confirmGetFreeQuest(msg.sender);\n        if (players[msg.sender].currentQuest == 1) confirmMinerQuest(msg.sender);\n        if (players[msg.sender].currentQuest == 2) confirmEngineerQuest(msg.sender);\n        if (players[msg.sender].currentQuest == 3) confirmDepositQuest(msg.sender);\n        if (players[msg.sender].currentQuest == 4) confirmJoinAirdropQuest(msg.sender);\n        if (players[msg.sender].currentQuest == 5) confirmAtkBossQuest(msg.sender);\n        if (players[msg.sender].currentQuest == 6) confirmAtkPlayerQuest(msg.sender);\n        if (players[msg.sender].currentQuest == 7) confirmBoosterQuest(msg.sender);\n        if (players[msg.sender].currentQuest == 8) confirmRedbullQuest(msg.sender);\n\n        if (players[msg.sender].currentQuest <= 7) addQuest(msg.sender);\n    }\n    function checkQuest(address _addr) public view returns(bool _isFinish, bool _ended) \n    {\n        if (players[_addr].currentQuest == 0) (_isFinish, _ended) = checkGetFreeQuest(_addr);\n        if (players[_addr].currentQuest == 1) (_isFinish, _ended) = checkMinerQuest(_addr);\n        if (players[_addr].currentQuest == 2) (_isFinish, _ended) = checkEngineerQuest(_addr);\n        if (players[_addr].currentQuest == 3) (_isFinish, _ended) = checkDepositQuest(_addr);\n        if (players[_addr].currentQuest == 4) (_isFinish, _ended) = checkJoinAirdropQuest(_addr);\n        if (players[_addr].currentQuest == 5) (_isFinish, _ended) = checkAtkBossQuest(_addr);\n        if (players[_addr].currentQuest == 6) (_isFinish, _ended) = checkAtkPlayerQuest(_addr);\n        if (players[_addr].currentQuest == 7) (_isFinish, _ended) = checkBoosterQuest(_addr);\n        if (players[_addr].currentQuest == 8) (_isFinish, _ended) = checkRedbullQuest(_addr);\n    }\n    \n    function getData(address _addr) \n    public\n    view\n    returns(\n        uint256 _miningWarRound,\n        uint256 _currentQuest,\n        bool _isFinish,\n        bool _endedQuest\n    ) {\n        Player memory p          = players[_addr];\n        _miningWarRound          = p.miningWarRound;\n        _currentQuest            = p.currentQuest;\n        if (_miningWarRound != miningWarRound) _currentQuest = 0;\n        (_isFinish, _endedQuest) = checkQuest(_addr);\n    }\n    \n    \n    \n    function addQuest(address _addr) private\n    {\n        Player storage p      = players[_addr];\n        p.currentQuest += 1;\n\n        if (p.currentQuest == 1) addMinerQuest(_addr); \n        if (p.currentQuest == 2) addEngineerQuest(_addr); \n        if (p.currentQuest == 3) addDepositQuest(_addr); \n        if (p.currentQuest == 4) addJoinAirdropQuest(_addr); \n        if (p.currentQuest == 5) addAtkBossQuest(_addr); \n        if (p.currentQuest == 6) addAtkPlayerQuest(_addr); \n        if (p.currentQuest == 7) addBoosterQuest(_addr); \n        if (p.currentQuest == 8) addRedbullQuest(_addr); \n    }\n    \n    \n    \n    function confirmGetFreeQuest(address _addr) private\n    {\n        MiningWar.addCrystal(_addr, 100);\n\n        emit ConfirmQuest(_addr, 1, 100, 1);\n    }\n    function confirmMinerQuest(address _addr) private\n    {\n        MinerQuest storage pQ = minerQuests[_addr];\n        pQ.ended = true;\n        MiningWar.addCrystal(_addr, 100);\n\n        emit ConfirmQuest(_addr, 2, 100, 1);\n    }\n    function confirmEngineerQuest(address _addr) private\n    {\n        EngineerQuest storage pQ = engineerQuests[_addr];\n        pQ.ended = true;\n        MiningWar.addCrystal(_addr, 400);\n\n        emit ConfirmQuest(_addr, 3, 400, 1);\n    }\n    function confirmDepositQuest(address _addr) private\n    {\n        DepositQuest storage pQ = depositQuests[_addr];\n        pQ.ended = true;\n        MiningWar.addHashrate(_addr, 200);\n\n        emit ConfirmQuest(_addr, 4, 200, 2);\n    }\n    function confirmJoinAirdropQuest(address _addr) private\n    {\n        JoinAirdropQuest storage pQ = joinAirdropQuests[_addr];\n        pQ.ended = true;\n        Engineer.addVirus(_addr, 10);\n\n        emit ConfirmQuest(_addr, 5, 10, 3);\n    }\n    function confirmAtkBossQuest(address _addr) private\n    {\n        AtkBossQuest storage pQ = atkBossQuests[_addr];\n        pQ.ended = true;\n        Engineer.addVirus(_addr, 10);\n\n        emit ConfirmQuest(_addr, 6, 10, 3);\n    }\n    function confirmAtkPlayerQuest(address _addr) private\n    {\n        AtkPlayerQuest storage pQ = atkPlayerQuests[_addr];\n        pQ.ended = true;\n        MiningWar.addCrystal(_addr, 10000);\n\n        emit ConfirmQuest(_addr, 7, 10000, 1);\n    }   \n    function confirmBoosterQuest(address _addr) private\n    {\n        BoosterQuest storage pQ = boosterQuests[_addr];\n        pQ.ended = true;\n        Engineer.addVirus(_addr, 100);\n\n        emit ConfirmQuest(_addr, 8, 100, 3);\n    }\n    function confirmRedbullQuest(address _addr) private\n    {\n        RedbullQuest storage pQ = redbullQuests[_addr];\n        pQ.ended = true;\n        Engineer.addVirus(_addr, 100);\n\n        emit ConfirmQuest(_addr, 9, 100, 3);\n    }\n    \n    \n    \n    function addMinerQuest(address _addr) private\n    {\n         MinerQuest storage pQ = minerQuests[_addr];\n         pQ.ended = false;\n    }\n    function addEngineerQuest(address _addr) private\n    {\n         EngineerQuest storage pQ = engineerQuests[_addr];\n         pQ.ended = false;\n    }\n    function addDepositQuest(address _addr) private\n    {\n        DepositQuest storage pQ = depositQuests[_addr];\n        uint256 currentDepositRound;\n        uint256 share;\n        (currentDepositRound, share) = getPlayerDepositData(_addr);\n        pQ.currentDepositRound       = currentDepositRound;\n        pQ.share                     = share;\n        pQ.ended = false;\n    }\n    function addJoinAirdropQuest(address _addr) private\n    {\n        uint256 airdropGameId;    \n        uint256 totalJoinAirdrop;\n        (airdropGameId , totalJoinAirdrop) = getPlayerAirdropGameData(_addr);\n        JoinAirdropQuest storage pQ = joinAirdropQuests[_addr];\n\n        pQ.airdropGameId    = airdropGameId;\n        pQ.totalJoinAirdrop = totalJoinAirdrop;\n        pQ.ended = false;\n    }\n    function addAtkBossQuest(address _addr) private\n    {\n        uint256 dameBossWannaCry; \n        uint256 levelBossWannaCry;\n        (levelBossWannaCry, dameBossWannaCry) = getPlayerBossWannaCryData(_addr);\n\n        AtkBossQuest storage pQ = atkBossQuests[_addr];\n        pQ.levelBossWannaCry = levelBossWannaCry;\n        pQ.dameBossWannaCry  = dameBossWannaCry;\n        pQ.ended = false;\n    }\n    function addAtkPlayerQuest(address _addr) private\n    {\n        AtkPlayerQuest storage pQ = atkPlayerQuests[_addr];\n        pQ.nextTimeAtkPlayer = getNextTimeAtkPlayer(_addr);\n        pQ.ended = false;\n    }   \n    function addBoosterQuest(address _addr) private\n    {\n        BoosterQuest storage pQ = boosterQuests[_addr];\n        pQ.ended = false;\n    }\n    function addRedbullQuest(address _addr) private\n    {\n        RedbullQuest storage pQ = redbullQuests[_addr];\n        pQ.ended = false;\n    }\n    \n    \n    \n    function checkGetFreeQuest(address _addr) private view returns(bool _isFinish, bool _ended)\n    {\n        if (players[_addr].currentQuest > 0) _ended = true;\n        if (miningWarRound == getMiningWarRoundOfPlayer(_addr)) _isFinish = true;\n    }\n    function checkMinerQuest(address _addr) private view returns(bool _isFinish, bool _ended)\n    {\n        MinerQuest memory pQ = minerQuests[_addr];\n        _ended = pQ.ended;\n        if (getMinerLv1(_addr) >= 10) _isFinish = true;\n    }\n    function checkEngineerQuest(address _addr) private view returns(bool _isFinish, bool _ended)\n    {\n        EngineerQuest memory pQ = engineerQuests[_addr];\n        _ended = pQ.ended;\n        if (getEngineerLv1(_addr) >= 10) _isFinish = true;\n    }\n    function checkDepositQuest(address _addr) private view returns(bool _isFinish, bool _ended)\n    {\n        DepositQuest memory pQ = depositQuests[_addr];\n        _ended = pQ.ended;\n        uint256 currentDepositRound;\n        uint256 share;\n        (currentDepositRound, share) = getPlayerDepositData(_addr);\n        if ((currentDepositRound != pQ.currentDepositRound) || (share > pQ.share)) _isFinish = true;\n    }\n    function checkJoinAirdropQuest(address _addr) private view returns(bool _isFinish, bool _ended)\n    {\n        JoinAirdropQuest memory pQ = joinAirdropQuests[_addr];\n        _ended = pQ.ended;\n        uint256 airdropGameId;    \n        uint256 totalJoinAirdrop;\n        (airdropGameId , totalJoinAirdrop) = getPlayerAirdropGameData(_addr);\n        if (\n            (pQ.airdropGameId != airdropGameId) ||\n            (pQ.airdropGameId == airdropGameId && totalJoinAirdrop > pQ.totalJoinAirdrop)\n            ) {\n            _isFinish = true;\n        }\n    }\n    function checkAtkBossQuest(address _addr) private view returns(bool _isFinish, bool _ended)\n    {\n        AtkBossQuest memory pQ = atkBossQuests[_addr];\n        _ended = pQ.ended;\n        uint256 dameBossWannaCry; \n        uint256 levelBossWannaCry;\n        (levelBossWannaCry, dameBossWannaCry) = getPlayerBossWannaCryData(_addr);\n        if (\n            (pQ.levelBossWannaCry != levelBossWannaCry) ||\n            (pQ.levelBossWannaCry == levelBossWannaCry && dameBossWannaCry > pQ.dameBossWannaCry)\n            ) {\n            _isFinish = true;\n        }\n    }\n    function checkAtkPlayerQuest(address _addr) private view returns(bool _isFinish, bool _ended)\n    {\n        AtkPlayerQuest memory pQ = atkPlayerQuests[_addr];\n        _ended = pQ.ended;\n        uint256 nextTimeAtkPlayer = getNextTimeAtkPlayer(_addr);\n        if (nextTimeAtkPlayer > pQ.nextTimeAtkPlayer) _isFinish = true;\n    }   \n    function checkBoosterQuest(address _addr) private view returns(bool _isFinish, bool _ended)\n    {\n        BoosterQuest memory pQ = boosterQuests[_addr];\n        _ended = pQ.ended;\n        address[5] memory boosters = getBoosters();\n        for(uint256 idx = 0; idx < 5; idx++) {\n            if (boosters[idx] == _addr) _isFinish = true;\n        }\n\n    }\n    function checkRedbullQuest(address _addr) private view returns(bool _isFinish, bool _ended)\n    {\n        RedbullQuest memory pQ = redbullQuests[_addr];\n        _ended = pQ.ended;\n        address[5] memory redbulls = getRedbulls();\n        for(uint256 idx = 0; idx < 5; idx++) {\n            if (redbulls[idx] == _addr) _isFinish = true;\n        }\n    }\n    \n    \n    \n    \n    function getMiningWarDealine () private view returns(uint256)\n    {\n        return MiningWar.deadline();\n    }\n    function getMiningWarRound() private view returns(uint256)\n    {\n        return MiningWar.roundNumber();\n    }\n    function getBoosters() public view returns(address[5] _boosters)\n    {\n        for (uint256 idx = 0; idx < 5; idx++) {\n            address owner;\n            (owner, , , , , ) = MiningWar.getBoosterData(idx);\n            _boosters[idx] = owner;\n        }\n    }\n    function getMinerLv1(address _addr) private view returns(uint256 _total)\n    {\n        uint256[8] memory _minersCount;\n        (, , , _minersCount, , , , ) = MiningWar.getPlayerData(_addr);\n        _total = _minersCount[0];\n    }\n    function getMiningWarRoundOfPlayer(address _addr) private view returns(uint256 _roundNumber) \n    {\n        (_roundNumber, , , , , ) = MiningWar.players(_addr);\n    }\n    \n    function getRedbulls() public view returns(address[5] _redbulls)\n    {\n        for (uint256 idx = 0; idx < 5; idx++) {\n            address owner;\n            (owner, , ) = Engineer.boostData(idx);\n            _redbulls[idx] = owner;\n        }\n    }\n    function getNextTimeAtkPlayer(address _addr) private view returns(uint256 _nextTimeAtk)\n    {\n        (, , , , , , , _nextTimeAtk,) = Engineer.getPlayerData(_addr);\n    }\n    function getEngineerLv1(address _addr) private view returns(uint256 _total)\n    {\n        uint256[8] memory _engineersCount;\n        (, , , , , , _engineersCount, ,) = Engineer.getPlayerData(_addr);\n        _total = _engineersCount[0];\n    }\n    \n    function getPlayerAirdropGameData(address _addr) private view returns(uint256 _currentGameId, uint256 _totalJoin)\n    {\n        (_currentGameId, , , , _totalJoin, ) = AirdropGame.players(_addr);\n    }\n    \n    function getPlayerBossWannaCryData(address _addr) private view returns(uint256 _currentBossRoundNumber, uint256 _dame)\n    {\n        (_currentBossRoundNumber, , , , _dame, ) = BossWannaCry.players(_addr);\n    }\n    \n    function getPlayerDepositData(address _addr) private view returns(uint256 _currentRound, uint256 _share)\n    {\n        (_currentRound, , , _share ) = Deposit.players(_addr);\n    }\n}",
  "sourcePath": "/home/XXX-1/smartrim-experiment/for-rlf/0xce3e12f5512fb3b42e1a8c9c1d5d8cb321dfb776/contracts/0xce3e12f5512fb3b42e1a8c9c1d5d8cb321dfb776.sol",
  "compiler": {
    "name": "solc",
    "version": "0.4.25+commit.59dbf8f1.Emscripten.clang"
  },
  "schemaVersion": "3.4.16",
  "updatedAt": "2025-08-14T03:43:32.061Z",
  "devdoc": {
    "methods": {}
  },
  "userdoc": {
    "methods": {}
  }
}