{
  "contractName": "Ethraffle",
  "abi": [
    {
      "constant": true,
      "inputs": [],
      "name": "rake",
      "outputs": [
        {
          "name": "",
          "type": "uint256"
        }
      ],
      "payable": false,
      "stateMutability": "view",
      "type": "function"
    },
    {
      "constant": true,
      "inputs": [],
      "name": "raffleId",
      "outputs": [
        {
          "name": "",
          "type": "uint256"
        }
      ],
      "payable": false,
      "stateMutability": "view",
      "type": "function"
    },
    {
      "constant": true,
      "inputs": [
        {
          "name": "",
          "type": "uint256"
        }
      ],
      "name": "gaps",
      "outputs": [
        {
          "name": "",
          "type": "uint256"
        }
      ],
      "payable": false,
      "stateMutability": "view",
      "type": "function"
    },
    {
      "constant": true,
      "inputs": [],
      "name": "rakeAddress",
      "outputs": [
        {
          "name": "",
          "type": "address"
        }
      ],
      "payable": false,
      "stateMutability": "view",
      "type": "function"
    },
    {
      "constant": true,
      "inputs": [],
      "name": "nextTicket",
      "outputs": [
        {
          "name": "",
          "type": "uint256"
        }
      ],
      "payable": false,
      "stateMutability": "view",
      "type": "function"
    },
    {
      "constant": true,
      "inputs": [],
      "name": "totalTickets",
      "outputs": [
        {
          "name": "",
          "type": "uint256"
        }
      ],
      "payable": false,
      "stateMutability": "view",
      "type": "function"
    },
    {
      "constant": true,
      "inputs": [
        {
          "name": "",
          "type": "uint256"
        }
      ],
      "name": "contestants",
      "outputs": [
        {
          "name": "addr",
          "type": "address"
        },
        {
          "name": "raffleId",
          "type": "uint256"
        }
      ],
      "payable": false,
      "stateMutability": "view",
      "type": "function"
    },
    {
      "constant": true,
      "inputs": [],
      "name": "prize",
      "outputs": [
        {
          "name": "",
          "type": "uint256"
        }
      ],
      "payable": false,
      "stateMutability": "view",
      "type": "function"
    },
    {
      "constant": true,
      "inputs": [],
      "name": "creatorAddress",
      "outputs": [
        {
          "name": "",
          "type": "address"
        }
      ],
      "payable": false,
      "stateMutability": "view",
      "type": "function"
    },
    {
      "constant": true,
      "inputs": [],
      "name": "pricePerTicket",
      "outputs": [
        {
          "name": "",
          "type": "uint256"
        }
      ],
      "payable": false,
      "stateMutability": "view",
      "type": "function"
    },
    {
      "inputs": [],
      "payable": false,
      "stateMutability": "nonpayable",
      "type": "constructor"
    },
    {
      "payable": true,
      "stateMutability": "payable",
      "type": "fallback"
    },
    {
      "anonymous": false,
      "inputs": [
        {
          "indexed": true,
          "name": "raffleId",
          "type": "uint256"
        },
        {
          "indexed": false,
          "name": "winningNumber",
          "type": "uint256"
        },
        {
          "indexed": false,
          "name": "winningAddress",
          "type": "address"
        },
        {
          "indexed": false,
          "name": "blockTimestamp",
          "type": "uint256"
        },
        {
          "indexed": false,
          "name": "blockNumber",
          "type": "uint256"
        },
        {
          "indexed": false,
          "name": "gasLimit",
          "type": "uint256"
        },
        {
          "indexed": false,
          "name": "difficulty",
          "type": "uint256"
        },
        {
          "indexed": false,
          "name": "gas",
          "type": "uint256"
        },
        {
          "indexed": false,
          "name": "value",
          "type": "uint256"
        },
        {
          "indexed": false,
          "name": "msgSender",
          "type": "address"
        },
        {
          "indexed": false,
          "name": "blockCoinbase",
          "type": "address"
        },
        {
          "indexed": false,
          "name": "sha",
          "type": "bytes32"
        }
      ],
      "name": "RaffleResult",
      "type": "event"
    },
    {
      "anonymous": false,
      "inputs": [
        {
          "indexed": true,
          "name": "raffleId",
          "type": "uint256"
        },
        {
          "indexed": false,
          "name": "contestant",
          "type": "address"
        },
        {
          "indexed": false,
          "name": "number",
          "type": "uint256"
        }
      ],
      "name": "TicketPurchase",
      "type": "event"
    },
    {
      "anonymous": false,
      "inputs": [
        {
          "indexed": true,
          "name": "raffleId",
          "type": "uint256"
        },
        {
          "indexed": false,
          "name": "contestant",
          "type": "address"
        },
        {
          "indexed": false,
          "name": "number",
          "type": "uint256"
        }
      ],
      "name": "TicketRefund",
      "type": "event"
    },
    {
      "constant": false,
      "inputs": [],
      "name": "buyTickets",
      "outputs": [],
      "payable": true,
      "stateMutability": "payable",
      "type": "function"
    },
    {
      "constant": false,
      "inputs": [],
      "name": "getRefund",
      "outputs": [],
      "payable": false,
      "stateMutability": "nonpayable",
      "type": "function"
    },
    {
      "constant": false,
      "inputs": [],
      "name": "kill",
      "outputs": [],
      "payable": false,
      "stateMutability": "nonpayable",
      "type": "function"
    }
  ],
  "bytecode": "0x608060405260018055600160025534801561001957600080fd5b50336000806101000a81548173ffffffffffffffffffffffffffffffffffffffff021916908373ffffffffffffffffffffffffffffffffffffffff160217905550610c81806100696000396000f3006080604052600436106100c5576000357c0100000000000000000000000000000000000000000000000000000000900463ffffffff16806322a7ac34146100cf57806341c0e1b5146100fa578063b2d5ae4414610111578063b375603c14610128578063b4894b1d14610153578063c33b76c614610194578063c7dbbc47146101eb578063c819982614610216578063dd11247e14610220578063dfd50f521461024b578063e3ac5d26146102bf578063e927fc5c146102ea578063e987410614610341575b6100cd61036c565b005b3480156100db57600080fd5b506100e461059f565b6040518082815260200191505060405180910390f35b34801561010657600080fd5b5061010f6105aa565b005b34801561011d57600080fd5b5061012661063b565b005b34801561013457600080fd5b5061013d610896565b6040518082815260200191505060405180910390f35b34801561015f57600080fd5b5061017e6004803603810190808035906020019092919050505061089c565b6040518082815260200191505060405180910390f35b3480156101a057600080fd5b506101a96108bf565b604051808273ffffffffffffffffffffffffffffffffffffffff1673ffffffffffffffffffffffffffffffffffffffff16815260200191505060405180910390f35b3480156101f757600080fd5b506102006108d7565b6040518082815260200191505060405180910390f35b61021e61036c565b005b34801561022c57600080fd5b506102356108dd565b6040518082815260200191505060405180910390f35b34801561025757600080fd5b50610276600480360381019080803590602001909291905050506108e2565b604051808373ffffffffffffffffffffffffffffffffffffffff1673ffffffffffffffffffffffffffffffffffffffff1681526020018281526020019250505060405180910390f35b3480156102cb57600080fd5b506102d4610926565b6040518082815260200191505060405180910390f35b3480156102f657600080fd5b506102ff610932565b604051808273ffffffffffffffffffffffffffffffffffffffff1673ffffffffffffffffffffffffffffffffffffffff16815260200191505060405180910390f35b34801561034d57600080fd5b50610356610957565b6040518082815260200191505060405180910390f35b6000803491505b600666470de4df82000067016345785d8a00000181151561039057fe5b0482101580156103a35750600660025411155b156105365760009050600060048054905011156103f95760046001600480549050038154811015156103d157fe5b9060005260206000200154905060048054809190600190036103f39190610c04565b5061040d565b600260008154809291906001019190505590505b60408051908101604052803373ffffffffffffffffffffffffffffffffffffffff1681526020016001548152506003600083815260200190815260200160002060008201518160000160006101000a81548173ffffffffffffffffffffffffffffffffffffffff021916908373ffffffffffffffffffffffffffffffffffffffff160217905550602082015181600101559050506001547f24c553806a0c0d72a519acfdd0ddf0a5f14a54389e411baf3055eded1126f1e63383604051808373ffffffffffffffffffffffffffffffffffffffff1673ffffffffffffffffffffffffffffffffffffffff1681526020018281526020019250505060405180910390a2600666470de4df82000067016345785d8a00000181151561052c57fe5b0482039150610373565b6006600254111561054a57610549610978565b5b600082111561059b573373ffffffffffffffffffffffffffffffffffffffff166108fc839081150290604051600060405180830381858888f19350505050158015610599573d6000803e3d6000fd5b505b5050565b66470de4df82000081565b6000809054906101000a900473ffffffffffffffffffffffffffffffffffffffff1673ffffffffffffffffffffffffffffffffffffffff163373ffffffffffffffffffffffffffffffffffffffff161415610639576000809054906101000a900473ffffffffffffffffffffffffffffffffffffffff1673ffffffffffffffffffffffffffffffffffffffff16ff5b565b60008060009150600190505b600681111515610822576003600082815260200190815260200160002060000160009054906101000a900473ffffffffffffffffffffffffffffffffffffffff1673ffffffffffffffffffffffffffffffffffffffff163373ffffffffffffffffffffffffffffffffffffffff161480156106d957506003600082815260200190815260200160002060010154600154145b156108155781806001019250506040805190810160405280600073ffffffffffffffffffffffffffffffffffffffff16815260200160008152506003600083815260200190815260200160002060008201518160000160006101000a81548173ffffffffffffffffffffffffffffffffffffffff021916908373ffffffffffffffffffffffffffffffffffffffff1602179055506020820151816001015590505060048190806001815401808255809150509060018203906000526020600020016000909192909190915055506001547fb56b591803cc7bbb211b8af54a52c3a403e25fb272b9b853e59f42cef9e41d983383604051808373ffffffffffffffffffffffffffffffffffffffff1673ffffffffffffffffffffffffffffffffffffffff1681526020018281526020019250505060405180910390a25b8080600101915050610647565b6000821115610892573373ffffffffffffffffffffffffffffffffffffffff166108fc600666470de4df82000067016345785d8a00000181151561086257fe5b0484029081150290604051600060405180830381858888f19350505050158015610890573d6000803e3d6000fd5b505b5050565b60015481565b6004818154811015156108ab57fe5b906000526020600020016000915090505481565b7315887100f3b3ca0b645f007c6aa11348665c69e581565b60025481565b600681565b60036020528060005260406000206000915090508060000160009054906101000a900473ffffffffffffffffffffffffffffffffffffffff16908060010154905082565b67016345785d8a000081565b6000809054906101000a900473ffffffffffffffffffffffffffffffffffffffff1681565b600666470de4df82000067016345785d8a00000181151561097457fe5b0481565b60008060004173ffffffffffffffffffffffffffffffffffffffff163373ffffffffffffffffffffffffffffffffffffffff16345a444543420101010101010160405180828152602001915050604051809103902092506001600684600190048115156109e157fe5b060191506003600083815260200190815260200160002060000160009054906101000a900473ffffffffffffffffffffffffffffffffffffffff1690506001547ff6f505c4e2afc66c45fc86d0f67a029205edf1dac8aa263e5f77ac6818f0572b8383424345445a3433418e604051808c81526020018b73ffffffffffffffffffffffffffffffffffffffff1673ffffffffffffffffffffffffffffffffffffffff1681526020018a81526020018981526020018881526020018781526020018681526020018581526020018473ffffffffffffffffffffffffffffffffffffffff1673ffffffffffffffffffffffffffffffffffffffff1681526020018373ffffffffffffffffffffffffffffffffffffffff1673ffffffffffffffffffffffffffffffffffffffff16815260200182600019166000191681526020019b50505050505050505050505060405180910390a260016000815480929190600101919050555060016002819055508073ffffffffffffffffffffffffffffffffffffffff166108fc67016345785d8a00009081150290604051600060405180830381858888f19350505050158015610b9c573d6000803e3d6000fd5b507315887100f3b3ca0b645f007c6aa11348665c69e573ffffffffffffffffffffffffffffffffffffffff166108fc66470de4df8200009081150290604051600060405180830381858888f19350505050158015610bfe573d6000803e3d6000fd5b50505050565b815481835581811115610c2b57818360005260206000209182019101610c2a9190610c30565b5b505050565b610c5291905b80821115610c4e576000816000905550600101610c36565b5090565b905600a165627a7a72305820c724ffa56896fa5d4d145f8cdf6ebb1476dc4f2a0036a02a2b5744a789b0ac000029",
  "source": "\n\ncontract Ethraffle {\n    struct Contestant {\n        address addr;\n        uint raffleId;\n    }\n\n    event RaffleResult(\n        uint indexed raffleId,\n        uint winningNumber,\n        address winningAddress,\n        uint blockTimestamp,\n        uint blockNumber,\n        uint gasLimit,\n        uint difficulty,\n        uint gas,\n        uint value,\n        address msgSender,\n        address blockCoinbase,\n        bytes32 sha\n    );\n\n    event TicketPurchase(\n        uint indexed raffleId,\n        address contestant,\n        uint number\n    );\n\n    event TicketRefund(\n        uint indexed raffleId,\n        address contestant,\n        uint number\n    );\n\n    \n    address public creatorAddress;\n    address constant public rakeAddress = 0x15887100f3b3cA0b645F007c6AA11348665c69e5;\n    uint constant public prize = 0.1 ether;\n    uint constant public rake = 0.02 ether;\n    uint constant public totalTickets = 6;\n    uint constant public pricePerTicket = (prize + rake) / totalTickets;\n\n    \n    uint public raffleId = 1;\n    uint public nextTicket = 1;\n    mapping (uint => Contestant) public contestants;\n    uint[] public gaps;\n\n    \n    function Ethraffle() public {\n        creatorAddress = msg.sender;\n    }\n\n    \n    function () payable public {\n        buyTickets();\n    }\n\n    function buyTickets() payable public {\n        uint moneySent = msg.value;\n\n        while (moneySent >= pricePerTicket && nextTicket <= totalTickets) {\n            uint currTicket = 0;\n            if (gaps.length > 0) {\n                currTicket = gaps[gaps.length-1];\n                gaps.length--;\n            } else {\n                currTicket = nextTicket++;\n            }\n\n            contestants[currTicket] = Contestant(msg.sender, raffleId);\n            TicketPurchase(raffleId, msg.sender, currTicket);\n            moneySent -= pricePerTicket;\n        }\n\n        \n        if (nextTicket > totalTickets) {\n            chooseWinner();\n        }\n\n        \n        if (moneySent > 0) {\n            msg.sender.transfer(moneySent);\n        }\n    }\n\n    function chooseWinner() private {\n        \n        bytes32 sha = sha3(\n            block.timestamp +\n            block.number +\n            block.gaslimit +\n            block.difficulty +\n            msg.gas +\n            msg.value +\n            uint(msg.sender) +\n            uint(block.coinbase)\n        );\n\n        uint winningNumber = (uint(sha) % totalTickets) + 1;\n        address winningAddress = contestants[winningNumber].addr;\n        RaffleResult(\n            raffleId, winningNumber, winningAddress, block.timestamp,\n            block.number, block.gaslimit, block.difficulty, msg.gas,\n            msg.value, msg.sender, block.coinbase, sha\n        );\n\n        \n        raffleId++;\n        nextTicket = 1;\n        winningAddress.transfer(prize);\n        rakeAddress.transfer(rake);\n    }\n\n    function getRefund() public {\n        uint refunds = 0;\n        for (uint i = 1; i <= totalTickets; i++) {\n            if (msg.sender == contestants[i].addr && raffleId == contestants[i].raffleId) {\n                refunds++;\n                contestants[i] = Contestant(address(0), 0);\n                gaps.push(i);\n                TicketRefund(raffleId, msg.sender, i);\n            }\n        }\n\n        if (refunds > 0) {\n            msg.sender.transfer(refunds * pricePerTicket);\n        }\n    }\n\n    function kill() public {\n        if (msg.sender == creatorAddress) {\n            selfdestruct(creatorAddress);\n        }\n    }\n}",
  "sourcePath": "/home/XXX-1/smartrim-experiment/for-rlf/0x60f52581489e879df02d86f956bd8c634f6f4db9/contracts/0x60f52581489e879df02d86f956bd8c634f6f4db9.sol",
  "compiler": {
    "name": "solc",
    "version": "0.4.25+commit.59dbf8f1.Emscripten.clang"
  },
  "schemaVersion": "3.4.16",
  "updatedAt": "2025-08-14T03:55:38.671Z",
  "networkType": "ethereum",
  "devdoc": {
    "methods": {}
  },
  "userdoc": {
    "methods": {}
  }
}