{
  "contractName": "BuilderCrowdfunding",
  "abi": [
    {
      "constant": false,
      "inputs": [
        {
          "name": "_uri",
          "type": "string"
        }
      ],
      "name": "setSecurityCheck",
      "outputs": [],
      "payable": false,
      "stateMutability": "nonpayable",
      "type": "function"
    },
    {
      "constant": false,
      "inputs": [
        {
          "name": "_owner",
          "type": "address"
        }
      ],
      "name": "setOwner",
      "outputs": [],
      "payable": false,
      "stateMutability": "nonpayable",
      "type": "function"
    },
    {
      "constant": false,
      "inputs": [
        {
          "name": "_beneficiary",
          "type": "address"
        }
      ],
      "name": "setBeneficiary",
      "outputs": [],
      "payable": false,
      "stateMutability": "nonpayable",
      "type": "function"
    },
    {
      "constant": true,
      "inputs": [],
      "name": "beneficiary",
      "outputs": [
        {
          "name": "",
          "type": "address"
        }
      ],
      "payable": false,
      "stateMutability": "view",
      "type": "function"
    },
    {
      "constant": false,
      "inputs": [
        {
          "name": "_buildingCostWei",
          "type": "uint256"
        }
      ],
      "name": "setCost",
      "outputs": [],
      "payable": false,
      "stateMutability": "nonpayable",
      "type": "function"
    },
    {
      "constant": true,
      "inputs": [],
      "name": "hammer",
      "outputs": [
        {
          "name": "",
          "type": "address"
        }
      ],
      "payable": false,
      "stateMutability": "view",
      "type": "function"
    },
    {
      "constant": true,
      "inputs": [],
      "name": "buildingCostWei",
      "outputs": [
        {
          "name": "",
          "type": "uint256"
        }
      ],
      "payable": false,
      "stateMutability": "view",
      "type": "function"
    },
    {
      "constant": false,
      "inputs": [],
      "name": "destroy",
      "outputs": [],
      "payable": false,
      "stateMutability": "nonpayable",
      "type": "function"
    },
    {
      "constant": true,
      "inputs": [],
      "name": "owner",
      "outputs": [
        {
          "name": "",
          "type": "address"
        }
      ],
      "payable": false,
      "stateMutability": "view",
      "type": "function"
    },
    {
      "constant": true,
      "inputs": [],
      "name": "getLastContract",
      "outputs": [
        {
          "name": "",
          "type": "address"
        }
      ],
      "payable": false,
      "stateMutability": "view",
      "type": "function"
    },
    {
      "constant": false,
      "inputs": [
        {
          "name": "_hammer",
          "type": "address"
        }
      ],
      "name": "setHammer",
      "outputs": [],
      "payable": false,
      "stateMutability": "nonpayable",
      "type": "function"
    },
    {
      "constant": true,
      "inputs": [
        {
          "name": "",
          "type": "address"
        },
        {
          "name": "",
          "type": "uint256"
        }
      ],
      "name": "getContractsOf",
      "outputs": [
        {
          "name": "",
          "type": "address"
        }
      ],
      "payable": false,
      "stateMutability": "view",
      "type": "function"
    },
    {
      "constant": true,
      "inputs": [],
      "name": "securityCheckURI",
      "outputs": [
        {
          "name": "",
          "type": "string"
        }
      ],
      "payable": false,
      "stateMutability": "view",
      "type": "function"
    },
    {
      "anonymous": false,
      "inputs": [
        {
          "indexed": true,
          "name": "client",
          "type": "address"
        },
        {
          "indexed": true,
          "name": "instance",
          "type": "address"
        }
      ],
      "name": "Builded",
      "type": "event"
    },
    {
      "constant": false,
      "inputs": [
        {
          "name": "_fund",
          "type": "address"
        },
        {
          "name": "_bounty",
          "type": "address"
        },
        {
          "name": "_reference",
          "type": "string"
        },
        {
          "name": "_startBlock",
          "type": "uint256"
        },
        {
          "name": "_stopBlock",
          "type": "uint256"
        },
        {
          "name": "_minValue",
          "type": "uint256"
        },
        {
          "name": "_maxValue",
          "type": "uint256"
        },
        {
          "name": "_scale",
          "type": "uint256"
        },
        {
          "name": "_startRatio",
          "type": "uint256"
        },
        {
          "name": "_reductionStep",
          "type": "uint256"
        },
        {
          "name": "_reductionValue",
          "type": "uint256"
        },
        {
          "name": "_client",
          "type": "address"
        }
      ],
      "name": "create",
      "outputs": [
        {
          "name": "",
          "type": "address"
        }
      ],
      "payable": true,
      "stateMutability": "payable",
      "type": "function"
    }
  ],
  "bytecode": "0x6080604052336000806101000a81548173ffffffffffffffffffffffffffffffffffffffff021916908373ffffffffffffffffffffffffffffffffffffffff16021790555033600160006101000a81548173ffffffffffffffffffffffffffffffffffffffff021916908373ffffffffffffffffffffffffffffffffffffffff1602179055506111d8806100946000396000f3006080604052600436106100d0576000357c0100000000000000000000000000000000000000000000000000000000900463ffffffff16806303ca71d6146100d557806313af40351461013e5780631c31f7101461018157806338af3eed146101c457806344a0d68a1461021b578063457f4d41146102485780636e942f821461029f57806383197ef0146102ca5780638da5cb5b146102e1578063c53833fe14610338578063d31fdffd1461038f578063f70532fe146103d2578063f7efd1501461045f578063fdc37c85146105ab575b600080fd5b3480156100e157600080fd5b5061013c600480360381019080803590602001908201803590602001908080601f016020809104026020016040519081016040528093929190818152602001838380828437820191505050505050919291929050505061063b565b005b34801561014a57600080fd5b5061017f600480360381019080803573ffffffffffffffffffffffffffffffffffffffff1690602001909291905050506106b0565b005b34801561018d57600080fd5b506101c2600480360381019080803573ffffffffffffffffffffffffffffffffffffffff16906020019092919050505061074e565b005b3480156101d057600080fd5b506101d96107ed565b604051808273ffffffffffffffffffffffffffffffffffffffff1673ffffffffffffffffffffffffffffffffffffffff16815260200191505060405180910390f35b34801561022757600080fd5b5061024660048036038101908080359060200190929190505050610813565b005b34801561025457600080fd5b5061025d610878565b604051808273ffffffffffffffffffffffffffffffffffffffff1673ffffffffffffffffffffffffffffffffffffffff16815260200191505060405180910390f35b3480156102ab57600080fd5b506102b461089e565b6040518082815260200191505060405180910390f35b3480156102d657600080fd5b506102df6108a4565b005b3480156102ed57600080fd5b506102f6610919565b604051808273ffffffffffffffffffffffffffffffffffffffff1673ffffffffffffffffffffffffffffffffffffffff16815260200191505060405180910390f35b34801561034457600080fd5b5061034d61093e565b604051808273ffffffffffffffffffffffffffffffffffffffff1673ffffffffffffffffffffffffffffffffffffffff16815260200191505060405180910390f35b34801561039b57600080fd5b506103d0600480360381019080803573ffffffffffffffffffffffffffffffffffffffff1690602001909291905050506109c8565b005b3480156103de57600080fd5b5061041d600480360381019080803573ffffffffffffffffffffffffffffffffffffffff16906020019092919080359060200190929190505050610a68565b604051808273ffffffffffffffffffffffffffffffffffffffff1673ffffffffffffffffffffffffffffffffffffffff16815260200191505060405180910390f35b610569600480360381019080803573ffffffffffffffffffffffffffffffffffffffff169060200190929190803573ffffffffffffffffffffffffffffffffffffffff169060200190929190803590602001908201803590602001908080601f01602080910402602001604051908101604052809392919081815260200183838082843782019150505050505091929192908035906020019092919080359060200190929190803590602001909291908035906020019092919080359060200190929190803590602001909291908035906020019092919080359060200190929190803573ffffffffffffffffffffffffffffffffffffffff169060200190929190505050610ab5565b604051808273ffffffffffffffffffffffffffffffffffffffff1673ffffffffffffffffffffffffffffffffffffffff16815260200191505060405180910390f35b3480156105b757600080fd5b506105c0611069565b6040518080602001828103825283818151815260200191508051906020019080838360005b838110156106005780820151818401526020810190506105e5565b50505050905090810190601f16801561062d5780820380516001836020036101000a031916815260200191505b509250505060405180910390f35b6000809054906101000a900473ffffffffffffffffffffffffffffffffffffffff1673ffffffffffffffffffffffffffffffffffffffff163373ffffffffffffffffffffffffffffffffffffffff1614151561069657600080fd5b80600590805190602001906106ac929190611107565b5050565b6000809054906101000a900473ffffffffffffffffffffffffffffffffffffffff1673ffffffffffffffffffffffffffffffffffffffff163373ffffffffffffffffffffffffffffffffffffffff1614151561070b57600080fd5b806000806101000a81548173ffffffffffffffffffffffffffffffffffffffff021916908373ffffffffffffffffffffffffffffffffffffffff16021790555050565b6000809054906101000a900473ffffffffffffffffffffffffffffffffffffffff1673ffffffffffffffffffffffffffffffffffffffff163373ffffffffffffffffffffffffffffffffffffffff161415156107a957600080fd5b80600360006101000a81548173ffffffffffffffffffffffffffffffffffffffff021916908373ffffffffffffffffffffffffffffffffffffffff16021790555050565b600360009054906101000a900473ffffffffffffffffffffffffffffffffffffffff1681565b6000809054906101000a900473ffffffffffffffffffffffffffffffffffffffff1673ffffffffffffffffffffffffffffffffffffffff163373ffffffffffffffffffffffffffffffffffffffff1614151561086e57600080fd5b8060048190555050565b600160009054906101000a900473ffffffffffffffffffffffffffffffffffffffff1681565b60045481565b600160009054906101000a900473ffffffffffffffffffffffffffffffffffffffff1673ffffffffffffffffffffffffffffffffffffffff163373ffffffffffffffffffffffffffffffffffffffff1614151561090057600080fd5b3373ffffffffffffffffffffffffffffffffffffffff16ff5b6000809054906101000a900473ffffffffffffffffffffffffffffffffffffffff1681565b600080600260003373ffffffffffffffffffffffffffffffffffffffff1673ffffffffffffffffffffffffffffffffffffffff168152602001908152602001600020905080600182805490500381548110151561099757fe5b9060005260206000200160009054906101000a900473ffffffffffffffffffffffffffffffffffffffff1691505090565b600160009054906101000a900473ffffffffffffffffffffffffffffffffffffffff1673ffffffffffffffffffffffffffffffffffffffff163373ffffffffffffffffffffffffffffffffffffffff16141515610a2457600080fd5b80600160006101000a81548173ffffffffffffffffffffffffffffffffffffffff021916908373ffffffffffffffffffffffffffffffffffffffff16021790555050565b600260205281600052604060002081815481101515610a8357fe5b906000526020600020016000915091509054906101000a900473ffffffffffffffffffffffffffffffffffffffff1681565b6000806000600454118015610b0357506000600360009054906101000a900473ffffffffffffffffffffffffffffffffffffffff1673ffffffffffffffffffffffffffffffffffffffff1614155b15610bcf57600454341015610b1757600080fd5b600360009054906101000a900473ffffffffffffffffffffffffffffffffffffffff1673ffffffffffffffffffffffffffffffffffffffff166108fc6004549081150290604051600060405180830381858888f193505050501515610b7b57600080fd5b600454341115610bca573373ffffffffffffffffffffffffffffffffffffffff166108fc60045434039081150290604051600060405180830381858888f193505050501515610bc957600080fd5b5b610c1a565b6000341115610c19573373ffffffffffffffffffffffffffffffffffffffff166108fc349081150290604051600060405180830381858888f193505050501515610c1857600080fd5b5b5b60008373ffffffffffffffffffffffffffffffffffffffff161415610c3d573392505b73__CreatorCrowdfunding___________________637226d0558f8f8f8f8f8f8f8f8f8f8f6040518c63ffffffff167c0100000000000000000000000000000000000000000000000000000000028152600401808c73ffffffffffffffffffffffffffffffffffffffff1673ffffffffffffffffffffffffffffffffffffffff1681526020018b73ffffffffffffffffffffffffffffffffffffffff1673ffffffffffffffffffffffffffffffffffffffff168152602001806020018a815260200189815260200188815260200187815260200186815260200185815260200184815260200183815260200182810382528b818151815260200191508051906020019080838360005b83811015610d61578082015181840152602081019050610d46565b50505050905090810190601f168015610d8e5780820380516001836020036101000a031916815260200191505b509c5050505050505050505050505060206040518083038186803b158015610db557600080fd5b505af4158015610dc9573d6000803e3d6000fd5b505050506040513d6020811015610ddf57600080fd5b810190808051906020019092919050505090508073ffffffffffffffffffffffffffffffffffffffff166313af4035846040518263ffffffff167c0100000000000000000000000000000000000000000000000000000000028152600401808273ffffffffffffffffffffffffffffffffffffffff1673ffffffffffffffffffffffffffffffffffffffff168152602001915050600060405180830381600087803b158015610e8d57600080fd5b505af1158015610ea1573d6000803e3d6000fd5b505050508073ffffffffffffffffffffffffffffffffffffffff1663d31fdffd846040518263ffffffff167c0100000000000000000000000000000000000000000000000000000000028152600401808273ffffffffffffffffffffffffffffffffffffffff1673ffffffffffffffffffffffffffffffffffffffff168152602001915050600060405180830381600087803b158015610f4057600080fd5b505af1158015610f54573d6000803e3d6000fd5b50505050600260008473ffffffffffffffffffffffffffffffffffffffff1673ffffffffffffffffffffffffffffffffffffffff1681526020019081526020016000208190806001815401808255809150509060018203906000526020600020016000909192909190916101000a81548173ffffffffffffffffffffffffffffffffffffffff021916908373ffffffffffffffffffffffffffffffffffffffff160217905550508073ffffffffffffffffffffffffffffffffffffffff168373ffffffffffffffffffffffffffffffffffffffff167f39a897fc2f5613d2a2b9ec75f5b36723b03492a752d0951ba46507590ec5265060405160405180910390a3809150509c9b505050505050505050505050565b60058054600181600116156101000203166002900480601f0160208091040260200160405190810160405280929190818152602001828054600181600116156101000203166002900480156110ff5780601f106110d4576101008083540402835291602001916110ff565b820191906000526020600020905b8154815290600101906020018083116110e257829003601f168201915b505050505081565b828054600181600116156101000203166002900490600052602060002090601f016020900481019282601f1061114857805160ff1916838001178555611176565b82800160010185558215611176579182015b8281111561117557825182559160200191906001019061115a565b5b5090506111839190611187565b5090565b6111a991905b808211156111a557600081600090555060010161118d565b5090565b905600a165627a7a72305820c1dbaee64798ba96141ec6579f2401dbbdd8bb737d969418006ea757c664e0ae0029",
  "source": "\n\n\ncontract Owned {\n    \n    address public owner;\n\n    \n    function setOwner(address _owner) onlyOwner\n    { owner = _owner; }\n\n    \n    modifier onlyOwner { if (msg.sender != owner) throw; _; }\n}\n\n\ncontract Destroyable {\n    address public hammer;\n\n    \n    function setHammer(address _hammer) onlyHammer\n    { hammer = _hammer; }\n\n    \n    function destroy() onlyHammer\n    { suicide(msg.sender); }\n\n    \n    modifier onlyHammer { if (msg.sender != hammer) throw; _; }\n}\n\n\ncontract Object is Owned, Destroyable {\n    function Object() {\n        owner  = msg.sender;\n        hammer = msg.sender;\n    }\n}\n\n\n\ncontract ERC20 \n{\n\n    \n    uint256 public totalSupply;\n\n    \n    \n    function balanceOf(address _owner) constant returns (uint256);\n\n    \n    \n    \n    \n    function transfer(address _to, uint256 _value) returns (bool);\n\n    \n    \n    \n    \n    \n    function transferFrom(address _from, address _to, uint256 _value) returns (bool);\n\n    \n    \n    \n    \n    function approve(address _spender, uint256 _value) returns (bool);\n\n    \n    \n    \n    function allowance(address _owner, address _spender) constant returns (uint256);\n\n\n    event Transfer(address indexed _from, address indexed _to, uint256 _value);\n    event Approval(address indexed _owner, address indexed _spender, uint256 _value);\n}\n\n\ncontract Recipient {\n    \n    event ReceivedEther(address indexed sender,\n                        uint256 indexed amount);\n\n    \n    event ReceivedTokens(address indexed from,\n                         uint256 indexed value,\n                         address indexed token,\n                         bytes extraData);\n\n    \n    function receiveApproval(address _from, uint256 _value,\n                             ERC20 _token, bytes _extraData) {\n        if (!_token.transferFrom(_from, this, _value)) throw;\n        ReceivedTokens(_from, _value, _token, _extraData);\n    }\n\n    \n    function () payable\n    { ReceivedEther(msg.sender, msg.value); }\n}\n\n\n\ncontract Token is Object, ERC20 {\n    \n    string public name;\n    string public symbol;\n\n    \n    uint public totalSupply;\n\n    \n    uint8 public decimals;\n    \n    \n    mapping(address => uint) balances;\n    mapping(address => mapping(address => uint)) allowances;\n \n    \n    function balanceOf(address _owner) constant returns (uint256)\n    { return balances[_owner]; }\n \n    \n    function allowance(address _owner, address _spender) constant returns (uint256)\n    { return allowances[_owner][_spender]; }\n\n    \n    function Token(string _name, string _symbol, uint8 _decimals, uint _count) {\n        name        = _name;\n        symbol      = _symbol;\n        decimals    = _decimals;\n        totalSupply = _count;\n        balances[msg.sender] = _count;\n    }\n \n    \n    function transfer(address _to, uint _value) returns (bool) {\n        if (balances[msg.sender] >= _value) {\n            balances[msg.sender] -= _value;\n            balances[_to]        += _value;\n            Transfer(msg.sender, _to, _value);\n            return true;\n        }\n        return false;\n    }\n\n    \n    function transferFrom(address _from, address _to, uint256 _value) returns (bool) {\n        var avail = allowances[_from][msg.sender]\n                  > balances[_from] ? balances[_from]\n                                    : allowances[_from][msg.sender];\n        if (avail >= _value) {\n            allowances[_from][msg.sender] -= _value;\n            balances[_from] -= _value;\n            balances[_to]   += _value;\n            Transfer(_from, _to, _value);\n            return true;\n        }\n        return false;\n    }\n\n    \n    function approve(address _spender, uint256 _value) returns (bool) {\n        allowances[msg.sender][_spender] += _value;\n        Approval(msg.sender, _spender, _value);\n        return true;\n    }\n\n    \n    function unapprove(address _spender)\n    { allowances[msg.sender][_spender] = 0; }\n}\n\ncontract TokenEmission is Token {\n    function TokenEmission(string _name, string _symbol, uint8 _decimals,\n                           uint _start_count)\n             Token(_name, _symbol, _decimals, _start_count)\n    {}\n\n    \n    function emission(uint _value) onlyOwner {\n        \n        if (_value + totalSupply < totalSupply) throw;\n\n        totalSupply     += _value;\n        balances[owner] += _value;\n    }\n \n    \n    function burn(uint _value) {\n        if (balances[msg.sender] >= _value) {\n            balances[msg.sender] -= _value;\n            totalSupply      -= _value;\n        }\n    }\n}\n\n\ncontract Crowdfunding is Object, Recipient {\n    \n    address public fund;\n\n    \n    TokenEmission public bounty;\n    \n    \n    mapping(address => uint256) public donations;\n\n    \n    uint256 public totalFunded;\n\n    \n    string public reference;\n\n    \n    Params public config;\n\n    struct Params {\n        \n        uint256 startBlock;\n        uint256 stopBlock;\n\n        \n        uint256 minValue;\n        uint256 maxValue;\n        \n        \n        uint256 bountyScale;\n        uint256 startRatio;\n        uint256 reductionStep;\n        uint256 reductionValue;\n    }\n\n    \n    function bountyValue(uint256 _value, uint256 _block) constant returns (uint256) {\n        if (_block < config.startBlock || _block > config.stopBlock)\n            return 0;\n\n        var R = config.startRatio;\n        var B = config.startBlock;\n        var S = config.reductionStep;\n        var V = config.reductionValue;\n        uint256 ratio = R - (_block - B) / S * V; \n        return _value * ratio / config.bountyScale; \n    }\n\n    \n    modifier onlyRunning {\n        bool isRunning = totalFunded + msg.value <= config.maxValue\n                      && block.number >= config.startBlock\n                      && block.number <= config.stopBlock;\n        if (!isRunning) throw;\n        _;\n    }\n\n    \n    modifier onlyFailure {\n        bool isFailure = totalFunded  < config.minValue\n                      && block.number > config.stopBlock;\n        if (!isFailure) throw;\n        _;\n    }\n\n    \n    modifier onlySuccess {\n        bool isSuccess = totalFunded >= config.minValue\n                      && block.number > config.stopBlock;\n        if (!isSuccess) throw;\n        _;\n    }\n\n    \n    function Crowdfunding(\n        address _fund,\n        address _bounty,\n        string  _reference,\n        uint256 _startBlock,\n        uint256 _stopBlock,\n        uint256 _minValue,\n        uint256 _maxValue,\n        uint256 _scale,\n        uint256 _startRatio,\n        uint256 _reductionStep,\n        uint256 _reductionValue\n    ) {\n        fund      = _fund;\n        bounty    = TokenEmission(_bounty);\n        reference = _reference;\n\n        config.startBlock     = _startBlock;\n        config.stopBlock      = _stopBlock;\n        config.minValue       = _minValue;\n        config.maxValue       = _maxValue;\n        config.bountyScale    = _scale;\n        config.startRatio     = _startRatio;\n        config.reductionStep  = _reductionStep;\n        config.reductionValue = _reductionValue;\n    }\n\n    \n    function () payable onlyRunning {\n        ReceivedEther(msg.sender, msg.value);\n\n        totalFunded           += msg.value;\n        donations[msg.sender] += msg.value;\n\n        var bountyVal = bountyValue(msg.value, block.number);\n        if (bountyVal == 0) throw;\n\n        bounty.emission(bountyVal);\n        bounty.transfer(msg.sender, bountyVal);\n    }\n\n    \n    function withdraw() onlySuccess\n    { if (!fund.send(this.balance)) throw; }\n\n    \n    function refund() onlyFailure {\n        var donation = donations[msg.sender];\n        donations[msg.sender] = 0;\n        if (!msg.sender.send(donation)) throw;\n    }\n\n    \n    function receiveApproval(address _from, uint256 _value,\n                             ERC20 _token, bytes _extraData)\n    { throw; }\n}\n\nlibrary CreatorCrowdfunding {\n    function create(address _fund, address _bounty, string _reference, uint256 _startBlock, uint256 _stopBlock, uint256 _minValue, uint256 _maxValue, uint256 _scale, uint256 _startRatio, uint256 _reductionStep, uint256 _reductionValue) returns (Crowdfunding)\n    { return new Crowdfunding(_fund, _bounty, _reference, _startBlock, _stopBlock, _minValue, _maxValue, _scale, _startRatio, _reductionStep, _reductionValue); }\n\n    function version() constant returns (string)\n    { return \"v0.6.3\"; }\n\n    function abi() constant returns (string)\n    { return '[{\"constant\":false,\"inputs\":[{\"name\":\"_owner\",\"type\":\"address\"}],\"name\":\"setOwner\",\"outputs\":[],\"payable\":false,\"type\":\"function\"},{\"constant\":false,\"inputs\":[],\"name\":\"withdraw\",\"outputs\":[],\"payable\":false,\"type\":\"function\"},{\"constant\":true,\"inputs\":[],\"name\":\"hammer\",\"outputs\":[{\"name\":\"\",\"type\":\"address\"}],\"payable\":false,\"type\":\"function\"},{\"constant\":false,\"inputs\":[],\"name\":\"refund\",\"outputs\":[],\"payable\":false,\"type\":\"function\"},{\"constant\":true,\"inputs\":[],\"name\":\"config\",\"outputs\":[{\"name\":\"startBlock\",\"type\":\"uint256\"},{\"name\":\"stopBlock\",\"type\":\"uint256\"},{\"name\":\"minValue\",\"type\":\"uint256\"},{\"name\":\"maxValue\",\"type\":\"uint256\"},{\"name\":\"bountyScale\",\"type\":\"uint256\"},{\"name\":\"startRatio\",\"type\":\"uint256\"},{\"name\":\"reductionStep\",\"type\":\"uint256\"},{\"name\":\"reductionValue\",\"type\":\"uint256\"}],\"payable\":false,\"type\":\"function\"},{\"constant\":false,\"inputs\":[],\"name\":\"destroy\",\"outputs\":[],\"payable\":false,\"type\":\"function\"},{\"constant\":true,\"inputs\":[{\"name\":\"_value\",\"type\":\"uint256\"},{\"name\":\"_block\",\"type\":\"uint256\"}],\"name\":\"bountyValue\",\"outputs\":[{\"name\":\"\",\"type\":\"uint256\"}],\"payable\":false,\"type\":\"function\"},{\"constant\":true,\"inputs\":[],\"name\":\"owner\",\"outputs\":[{\"name\":\"\",\"type\":\"address\"}],\"payable\":false,\"type\":\"function\"},{\"constant\":false,\"inputs\":[{\"name\":\"_from\",\"type\":\"address\"},{\"name\":\"_value\",\"type\":\"uint256\"},{\"name\":\"_token\",\"type\":\"address\"},{\"name\":\"_extraData\",\"type\":\"bytes\"}],\"name\":\"receiveApproval\",\"outputs\":[],\"payable\":false,\"type\":\"function\"},{\"constant\":true,\"inputs\":[],\"name\":\"bounty\",\"outputs\":[{\"name\":\"\",\"type\":\"address\"}],\"payable\":false,\"type\":\"function\"},{\"constant\":true,\"inputs\":[],\"name\":\"totalFunded\",\"outputs\":[{\"name\":\"\",\"type\":\"uint256\"}],\"payable\":false,\"type\":\"function\"},{\"constant\":true,\"inputs\":[],\"name\":\"fund\",\"outputs\":[{\"name\":\"\",\"type\":\"address\"}],\"payable\":false,\"type\":\"function\"},{\"constant\":true,\"inputs\":[],\"name\":\"reference\",\"outputs\":[{\"name\":\"\",\"type\":\"string\"}],\"payable\":false,\"type\":\"function\"},{\"constant\":true,\"inputs\":[{\"name\":\"\",\"type\":\"address\"}],\"name\":\"donations\",\"outputs\":[{\"name\":\"\",\"type\":\"uint256\"}],\"payable\":false,\"type\":\"function\"},{\"constant\":false,\"inputs\":[{\"name\":\"_hammer\",\"type\":\"address\"}],\"name\":\"setHammer\",\"outputs\":[],\"payable\":false,\"type\":\"function\"},{\"inputs\":[{\"name\":\"_fund\",\"type\":\"address\"},{\"name\":\"_bounty\",\"type\":\"address\"},{\"name\":\"_reference\",\"type\":\"string\"},{\"name\":\"_startBlock\",\"type\":\"uint256\"},{\"name\":\"_stopBlock\",\"type\":\"uint256\"},{\"name\":\"_minValue\",\"type\":\"uint256\"},{\"name\":\"_maxValue\",\"type\":\"uint256\"},{\"name\":\"_scale\",\"type\":\"uint256\"},{\"name\":\"_startRatio\",\"type\":\"uint256\"},{\"name\":\"_reductionStep\",\"type\":\"uint256\"},{\"name\":\"_reductionValue\",\"type\":\"uint256\"}],\"payable\":false,\"type\":\"constructor\"},{\"payable\":true,\"type\":\"fallback\"},{\"anonymous\":false,\"inputs\":[{\"indexed\":true,\"name\":\"sender\",\"type\":\"address\"},{\"indexed\":true,\"name\":\"amount\",\"type\":\"uint256\"}],\"name\":\"ReceivedEther\",\"type\":\"event\"},{\"anonymous\":false,\"inputs\":[{\"indexed\":true,\"name\":\"from\",\"type\":\"address\"},{\"indexed\":true,\"name\":\"value\",\"type\":\"uint256\"},{\"indexed\":true,\"name\":\"token\",\"type\":\"address\"},{\"indexed\":false,\"name\":\"extraData\",\"type\":\"bytes\"}],\"name\":\"ReceivedTokens\",\"type\":\"event\"}]'; }\n}\n\n\ncontract Builder is Object {\n    \n    event Builded(address indexed client, address indexed instance);\n \n    \n    mapping(address => address[]) public getContractsOf;\n \n    \n    function getLastContract() constant returns (address) {\n        var sender_contracts = getContractsOf[msg.sender];\n        return sender_contracts[sender_contracts.length - 1];\n    }\n\n    \n    address public beneficiary;\n\n    \n    function setBeneficiary(address _beneficiary) onlyOwner\n    { beneficiary = _beneficiary; }\n\n    \n    uint public buildingCostWei;\n\n    \n    function setCost(uint _buildingCostWei) onlyOwner\n    { buildingCostWei = _buildingCostWei; }\n\n    \n    string public securityCheckURI;\n\n    \n    function setSecurityCheck(string _uri) onlyOwner\n    { securityCheckURI = _uri; }\n}\n\n\n\n\ncontract BuilderCrowdfunding is Builder {\n    \n    function create(\n        address _fund,\n        address _bounty,\n        string _reference,\n        uint256 _startBlock,\n        uint256 _stopBlock,\n        uint256 _minValue,\n        uint256 _maxValue,\n        uint256 _scale,\n        uint256 _startRatio,\n        uint256 _reductionStep,\n        uint256 _reductionValue,\n        address _client\n    ) payable returns (address) {\n        if (buildingCostWei > 0 && beneficiary != 0) {\n            \n            if (msg.value < buildingCostWei) throw;\n            \n            if (!beneficiary.send(buildingCostWei)) throw;\n            \n            if (msg.value > buildingCostWei) {\n                if (!msg.sender.send(msg.value - buildingCostWei)) throw;\n            }\n        } else {\n            \n            if (msg.value > 0) {\n                if (!msg.sender.send(msg.value)) throw;\n            }\n        }\n\n        if (_client == 0)\n            _client = msg.sender;\n \n        var inst = CreatorCrowdfunding.create(_fund, _bounty, _reference, _startBlock,\n                                              _stopBlock, _minValue, _maxValue, _scale,\n                                              _startRatio, _reductionStep, _reductionValue);\n        inst.setOwner(_client);\n        inst.setHammer(_client);\n        getContractsOf[_client].push(inst);\n        Builded(_client, inst);\n        return inst;\n    }\n}",
  "sourcePath": "/home/XXX-1/smartrim-experiment/for-rlf/0x113058c101b2d78e001d4a7d2174a66b5ff3a4a7/contracts/0x113058c101b2d78e001d4a7d2174a66b5ff3a4a7.sol",
  "compiler": {
    "name": "solc",
    "version": "0.4.25+commit.59dbf8f1.Emscripten.clang"
  },
  "schemaVersion": "3.4.16",
  "updatedAt": "2025-08-14T03:47:06.640Z",
  "devdoc": {
    "methods": {}
  },
  "userdoc": {
    "methods": {}
  }
}