{
  "contractName": "Repo",
  "abi": [
    {
      "payable": true,
      "stateMutability": "payable",
      "type": "fallback"
    },
    {
      "constant": false,
      "inputs": [
        {
          "name": "X",
          "type": "address"
        }
      ],
      "name": "setOwner",
      "outputs": [],
      "payable": false,
      "stateMutability": "nonpayable",
      "type": "function"
    },
    {
      "constant": false,
      "inputs": [
        {
          "name": "openDate",
          "type": "uint256"
        }
      ],
      "name": "setup",
      "outputs": [],
      "payable": true,
      "stateMutability": "payable",
      "type": "function"
    },
    {
      "constant": false,
      "inputs": [],
      "name": "close",
      "outputs": [],
      "payable": false,
      "stateMutability": "nonpayable",
      "type": "function"
    }
  ],
  "bytecode": "0x608060405234801561001057600080fd5b5061021d806100206000396000f300608060405260043610610057576000357c0100000000000000000000000000000000000000000000000000000000900463ffffffff16806313af4035146100595780634313b9e51461009c57806343d726d6146100bc575b005b34801561006557600080fd5b5061009a600480360381019080803573ffffffffffffffffffffffffffffffffffffffff1690602001909291905050506100d3565b005b6100ba60048036038101908080359060200190929190505050610157565b005b3480156100c857600080fd5b506100d1610173565b005b60008060009054906101000a900473ffffffffffffffffffffffffffffffffffffffff1673ffffffffffffffffffffffffffffffffffffffff16141561015457806000806101000a81548173ffffffffffffffffffffffffffffffffffffffff021916908373ffffffffffffffffffffffffffffffffffffffff1602179055505b50565b670de0b6b3a76400003410151561017057806001819055505b50565b6000809054906101000a900473ffffffffffffffffffffffffffffffffffffffff1673ffffffffffffffffffffffffffffffffffffffff163373ffffffffffffffffffffffffffffffffffffffff161480156101d157506001544210155b156101ef573373ffffffffffffffffffffffffffffffffffffffff16ff5b5600a165627a7a72305820fb2b126c7cdb3d6e5c1f158f41e93043ea84cc35853523b28942f5c19c9d95070029",
  "source": "\n\ncontract Repo {\n    function() public payable {}\n    address Owner;\n    function setOwner(address X) public { if (Owner==0) Owner = X; }\n    function setup(uint256 openDate) public payable {\n        if (msg.value >= 1 ether) {\n            open = openDate;\n        }\n    }\n    uint256 open;\n    function close() public {\n        if (msg.sender==Owner && now>=open) {\n            selfdestruct(msg.sender);\n        }\n    }\n}",
  "sourcePath": "/home/XXX-1/smartrim-experiment/for-rlf/0x300fc708cf85af94337acf3a752af2dc18327bcb/contracts/0x300fc708cf85af94337acf3a752af2dc18327bcb.sol",
  "compiler": {
    "name": "solc",
    "version": "0.4.25+commit.59dbf8f1.Emscripten.clang"
  },
  "schemaVersion": "3.4.16",
  "updatedAt": "2025-08-14T03:51:19.775Z",
  "networkType": "ethereum",
  "devdoc": {
    "methods": {}
  },
  "userdoc": {
    "methods": {}
  }
}