{
  "contractName": "iBird",
  "abi": [
    {
      "constant": true,
      "inputs": [],
      "name": "name",
      "outputs": [
        {
          "name": "",
          "type": "string"
        }
      ],
      "payable": false,
      "stateMutability": "view",
      "type": "function"
    },
    {
      "constant": true,
      "inputs": [],
      "name": "decimals",
      "outputs": [
        {
          "name": "",
          "type": "uint8"
        }
      ],
      "payable": false,
      "stateMutability": "view",
      "type": "function"
    },
    {
      "constant": true,
      "inputs": [],
      "name": "symbol",
      "outputs": [
        {
          "name": "",
          "type": "string"
        }
      ],
      "payable": false,
      "stateMutability": "view",
      "type": "function"
    },
    {
      "constant": true,
      "inputs": [
        {
          "name": "",
          "type": "address"
        }
      ],
      "name": "Claimed",
      "outputs": [
        {
          "name": "",
          "type": "bool"
        }
      ],
      "payable": false,
      "stateMutability": "view",
      "type": "function"
    },
    {
      "payable": true,
      "stateMutability": "payable",
      "type": "fallback"
    },
    {
      "anonymous": false,
      "inputs": [
        {
          "indexed": true,
          "name": "_from",
          "type": "address"
        },
        {
          "indexed": true,
          "name": "_to",
          "type": "address"
        },
        {
          "indexed": false,
          "name": "_value",
          "type": "uint256"
        }
      ],
      "name": "Transfer",
      "type": "event"
    },
    {
      "anonymous": false,
      "inputs": [
        {
          "indexed": true,
          "name": "_owner",
          "type": "address"
        },
        {
          "indexed": true,
          "name": "_spender",
          "type": "address"
        },
        {
          "indexed": false,
          "name": "_value",
          "type": "uint256"
        }
      ],
      "name": "Approval",
      "type": "event"
    },
    {
      "anonymous": false,
      "inputs": [
        {
          "indexed": true,
          "name": "_owner",
          "type": "address"
        },
        {
          "indexed": false,
          "name": "_value",
          "type": "uint256"
        }
      ],
      "name": "Burn",
      "type": "event"
    },
    {
      "constant": false,
      "inputs": [],
      "name": "Makindo",
      "outputs": [],
      "payable": false,
      "stateMutability": "nonpayable",
      "type": "function"
    },
    {
      "constant": false,
      "inputs": [
        {
          "name": "tokenName",
          "type": "string"
        },
        {
          "name": "tokenSymbol",
          "type": "string"
        },
        {
          "name": "ExtraTokensPerETHSended",
          "type": "uint256"
        },
        {
          "name": "MaxDistribPublicSupply",
          "type": "uint256"
        },
        {
          "name": "OwnerDistribSupply",
          "type": "uint256"
        },
        {
          "name": "remainingTokensReceiverAddress",
          "type": "address"
        },
        {
          "name": "DistribFundsReceiverAddress",
          "type": "address"
        },
        {
          "name": "FreeiBird",
          "type": "uint256"
        }
      ],
      "name": "SetupiBird",
      "outputs": [],
      "payable": false,
      "stateMutability": "nonpayable",
      "type": "function"
    },
    {
      "constant": false,
      "inputs": [
        {
          "name": "ML1inX",
          "type": "uint256"
        },
        {
          "name": "ML2inX",
          "type": "uint256"
        },
        {
          "name": "LimitML1inWei",
          "type": "uint256"
        },
        {
          "name": "LimitML2inWei",
          "type": "uint256"
        }
      ],
      "name": "SetupML",
      "outputs": [],
      "payable": false,
      "stateMutability": "nonpayable",
      "type": "function"
    },
    {
      "constant": false,
      "inputs": [
        {
          "name": "ExtraTokensPerETHSended",
          "type": "uint256"
        }
      ],
      "name": "SetExtra",
      "outputs": [],
      "payable": false,
      "stateMutability": "nonpayable",
      "type": "function"
    },
    {
      "constant": false,
      "inputs": [
        {
          "name": "FreeiBird",
          "type": "uint256"
        }
      ],
      "name": "SetFreeMKI",
      "outputs": [],
      "payable": false,
      "stateMutability": "nonpayable",
      "type": "function"
    },
    {
      "constant": false,
      "inputs": [],
      "name": "StartDistrib",
      "outputs": [
        {
          "name": "success",
          "type": "bool"
        }
      ],
      "payable": false,
      "stateMutability": "nonpayable",
      "type": "function"
    },
    {
      "constant": false,
      "inputs": [],
      "name": "StopDistrib",
      "outputs": [
        {
          "name": "success",
          "type": "bool"
        }
      ],
      "payable": false,
      "stateMutability": "nonpayable",
      "type": "function"
    },
    {
      "constant": false,
      "inputs": [
        {
          "name": "addresses",
          "type": "address[]"
        },
        {
          "name": "_amount",
          "type": "uint256"
        }
      ],
      "name": "distribution",
      "outputs": [],
      "payable": false,
      "stateMutability": "nonpayable",
      "type": "function"
    },
    {
      "constant": false,
      "inputs": [
        {
          "name": "addresses",
          "type": "address[]"
        },
        {
          "name": "amounts",
          "type": "uint256[]"
        }
      ],
      "name": "distributeAmounts",
      "outputs": [],
      "payable": false,
      "stateMutability": "nonpayable",
      "type": "function"
    },
    {
      "constant": false,
      "inputs": [
        {
          "name": "amount",
          "type": "uint256"
        }
      ],
      "name": "BurnTokens",
      "outputs": [
        {
          "name": "success",
          "type": "bool"
        }
      ],
      "payable": false,
      "stateMutability": "nonpayable",
      "type": "function"
    },
    {
      "constant": true,
      "inputs": [],
      "name": "totalSupply",
      "outputs": [
        {
          "name": "totalSupplyValue",
          "type": "uint256"
        }
      ],
      "payable": false,
      "stateMutability": "view",
      "type": "function"
    },
    {
      "constant": true,
      "inputs": [],
      "name": "MaxDistribPublicSupply_",
      "outputs": [
        {
          "name": "MaxDistribPublicSupply",
          "type": "uint256"
        }
      ],
      "payable": false,
      "stateMutability": "view",
      "type": "function"
    },
    {
      "constant": true,
      "inputs": [],
      "name": "OwnerDistribSupply_",
      "outputs": [
        {
          "name": "OwnerDistribSupply",
          "type": "uint256"
        }
      ],
      "payable": false,
      "stateMutability": "view",
      "type": "function"
    },
    {
      "constant": true,
      "inputs": [],
      "name": "CurrentDistribPublicSupply_",
      "outputs": [
        {
          "name": "CurrentDistribPublicSupply",
          "type": "uint256"
        }
      ],
      "payable": false,
      "stateMutability": "view",
      "type": "function"
    },
    {
      "constant": true,
      "inputs": [],
      "name": "RemainingTokensReceiverAddress",
      "outputs": [
        {
          "name": "remainingTokensReceiverAddress",
          "type": "address"
        }
      ],
      "payable": false,
      "stateMutability": "view",
      "type": "function"
    },
    {
      "constant": true,
      "inputs": [],
      "name": "DistribFundsReceiverAddress",
      "outputs": [
        {
          "name": "DistribfundsReceiver",
          "type": "address"
        }
      ],
      "payable": false,
      "stateMutability": "view",
      "type": "function"
    },
    {
      "constant": true,
      "inputs": [],
      "name": "Owner",
      "outputs": [
        {
          "name": "ownerAddress",
          "type": "address"
        }
      ],
      "payable": false,
      "stateMutability": "view",
      "type": "function"
    },
    {
      "constant": true,
      "inputs": [],
      "name": "SetupDone",
      "outputs": [
        {
          "name": "setupDoneFlag",
          "type": "bool"
        }
      ],
      "payable": false,
      "stateMutability": "view",
      "type": "function"
    },
    {
      "constant": true,
      "inputs": [],
      "name": "IsDistribRunningFalg_",
      "outputs": [
        {
          "name": "IsDistribRunningFalg",
          "type": "bool"
        }
      ],
      "payable": false,
      "stateMutability": "view",
      "type": "function"
    },
    {
      "constant": true,
      "inputs": [],
      "name": "IsDistribStarted",
      "outputs": [
        {
          "name": "IsDistribStartedFlag",
          "type": "bool"
        }
      ],
      "payable": false,
      "stateMutability": "view",
      "type": "function"
    },
    {
      "constant": true,
      "inputs": [
        {
          "name": "_owner",
          "type": "address"
        }
      ],
      "name": "balanceOf",
      "outputs": [
        {
          "name": "balance",
          "type": "uint256"
        }
      ],
      "payable": false,
      "stateMutability": "view",
      "type": "function"
    },
    {
      "constant": false,
      "inputs": [
        {
          "name": "_to",
          "type": "address"
        },
        {
          "name": "_amount",
          "type": "uint256"
        }
      ],
      "name": "transfer",
      "outputs": [
        {
          "name": "success",
          "type": "bool"
        }
      ],
      "payable": false,
      "stateMutability": "nonpayable",
      "type": "function"
    },
    {
      "constant": false,
      "inputs": [
        {
          "name": "_from",
          "type": "address"
        },
        {
          "name": "_to",
          "type": "address"
        },
        {
          "name": "_amount",
          "type": "uint256"
        }
      ],
      "name": "transferFrom",
      "outputs": [
        {
          "name": "success",
          "type": "bool"
        }
      ],
      "payable": false,
      "stateMutability": "nonpayable",
      "type": "function"
    },
    {
      "constant": false,
      "inputs": [
        {
          "name": "_spender",
          "type": "address"
        },
        {
          "name": "_amount",
          "type": "uint256"
        }
      ],
      "name": "approve",
      "outputs": [
        {
          "name": "success",
          "type": "bool"
        }
      ],
      "payable": false,
      "stateMutability": "nonpayable",
      "type": "function"
    },
    {
      "constant": true,
      "inputs": [
        {
          "name": "_owner",
          "type": "address"
        },
        {
          "name": "_spender",
          "type": "address"
        }
      ],
      "name": "allowance",
      "outputs": [
        {
          "name": "remaining",
          "type": "uint256"
        }
      ],
      "payable": false,
      "stateMutability": "view",
      "type": "function"
    }
  ],
  "bytecode": "0x60806040526040805190810160405280600581526020017f6942697264000000000000000000000000000000000000000000000000000000815250600090805190602001906200005192919062000222565b506040805190810160405280600b81526020017f694269726420546f6b656e000000000000000000000000000000000000000000815250600190805190602001906200009f92919062000222565b50600060025561c350600355600260045560036005556004600655660aa87bee538000600755661550f7dca70000600855661ff973cafa80006009556404a817c800600a556000600b556000600c5564012a05f200600d556000600e60006101000a81548173ffffffffffffffffffffffffffffffffffffffff021916908373ffffffffffffffffffffffffffffffffffffffff1602179055506000600f60006101000a81548173ffffffffffffffffffffffffffffffffffffffff021916908373ffffffffffffffffffffffffffffffffffffffff1602179055506000601060006101000a81548173ffffffffffffffffffffffffffffffffffffffff021916908373ffffffffffffffffffffffffffffffffffffffff1602179055506000601060146101000a81548160ff0219169083151502179055506000601060156101000a81548160ff0219169083151502179055506000601060166101000a81548160ff0219169083151502179055503480156200021b57600080fd5b50620002d1565b828054600181600116156101000203166002900490600052602060002090601f016020900481019282601f106200026557805160ff191683800117855562000296565b8280016001018555821562000296579182015b828111156200029557825182559160200191906001019062000278565b5b509050620002a59190620002a9565b5090565b620002ce91905b80821115620002ca576000816000905550600101620002b0565b5090565b90565b6125a880620002e16000396000f300608060405260043610610175576000357c0100000000000000000000000000000000000000000000000000000000900463ffffffff16806306fdde03146104e8578063095ea7b31461057857806318160ddd146105dd57806318d69faa146106085780631d1cc622146106375780632092970f1461066257806323b872dd146106915780632cd3fd7014610716578063313ce5671461075b57806334c8ea261461078c5780634d9a81d4146108a357806370a08231146108d257806395d89b4114610929578063a8c310d5146109b9578063a9059cbb14610a62578063accbdfd014610ac7578063b449c24d14610af6578063b4a99a4e14610b51578063becf917f14610ba8578063c21bbe5614610bff578063c52cb00314610c2e578063cfc4561014610c59578063d21ceba014610c70578063d4d42c9114610cc7578063d8489a8114610d12578063dd62ed3e14610d3d578063ea57712a14610db4578063f30faff614610de1578063f3e4877c14610e0e575b6000601060159054906101000a900460ff16156104e057600a5481600c54011180156101a357506000600a54115b156101ad57600080fd5b600e60009054906101000a900473ffffffffffffffffffffffffffffffffffffffff1673ffffffffffffffffffffffffffffffffffffffff166108fc349081150290604051600060405180830381858888f19350505050151561020f57600080fd5b60001515601360003373ffffffffffffffffffffffffffffffffffffffff1673ffffffffffffffffffffffffffffffffffffffff16815260200190815260200160002060009054906101000a900460ff16151514156103a257670de0b6b3a764000060035402905080600c6000828254019250508190555080601160003373ffffffffffffffffffffffffffffffffffffffff1673ffffffffffffffffffffffffffffffffffffffff16815260200190815260200160002060008282540192505081905550806002600082825401925050819055503373ffffffffffffffffffffffffffffffffffffffff163073ffffffffffffffffffffffffffffffffffffffff167fddf252ad1be2c89b69c2b068fc378daa952ba7f163c4a11628f55a4df523b3ef836040518082815260200191505060405180910390a36001601360003373ffffffffffffffffffffffffffffffffffffffff1673ffffffffffffffffffffffffffffffffffffffff16815260200190815260200160002060006101000a81548160ff0219169083151502179055505b661ff973cafa8000341015156103c1576004600d543402029050610409565b661550f7dca70000341015156103e0576003600d543402029050610408565b660aa87bee538000341015156103ff576002600d543402029050610407565b600d54340290505b5b5b80600c6000828254019250508190555080601160003373ffffffffffffffffffffffffffffffffffffffff1673ffffffffffffffffffffffffffffffffffffffff16815260200190815260200160002060008282540192505081905550806002600082825401925050819055503373ffffffffffffffffffffffffffffffffffffffff163073ffffffffffffffffffffffffffffffffffffffff167fddf252ad1be2c89b69c2b068fc378daa952ba7f163c4a11628f55a4df523b3ef836040518082815260200191505060405180910390a36104e5565b600080fd5b50005b3480156104f457600080fd5b506104fd610e7e565b6040518080602001828103825283818151815260200191508051906020019080838360005b8381101561053d578082015181840152602081019050610522565b50505050905090810190601f16801561056a5780820380516001836020036101000a031916815260200191505b509250505060405180910390f35b34801561058457600080fd5b506105c3600480360381019080803573ffffffffffffffffffffffffffffffffffffffff16906020019092919080359060200190929190505050610f1c565b604051808215151515815260200191505060405180910390f35b3480156105e957600080fd5b506105f261100e565b6040518082815260200191505060405180910390f35b34801561061457600080fd5b5061061d611018565b604051808215151515815260200191505060405180910390f35b34801561064357600080fd5b5061064c61123b565b6040518082815260200191505060405180910390f35b34801561066e57600080fd5b50610677611245565b604051808215151515815260200191505060405180910390f35b34801561069d57600080fd5b506106fc600480360381019080803573ffffffffffffffffffffffffffffffffffffffff169060200190929190803573ffffffffffffffffffffffffffffffffffffffff16906020019092919080359060200190929190505050611315565b604051808215151515815260200191505060405180910390f35b34801561072257600080fd5b506107416004803603810190808035906020019092919050505061161c565b604051808215151515815260200191505060405180910390f35b34801561076757600080fd5b50610770611783565b604051808260ff1660ff16815260200191505060405180910390f35b34801561079857600080fd5b506108a1600480360381019080803590602001908201803590602001908080601f0160208091040260200160405190810160405280939291908181526020018383808284378201915050505050509192919290803590602001908201803590602001908080601f0160208091040260200160405190810160405280939291908181526020018383808284378201915050505050509192919290803590602001909291908035906020019092919080359060200190929190803573ffffffffffffffffffffffffffffffffffffffff169060200190929190803573ffffffffffffffffffffffffffffffffffffffff16906020019092919080359060200190929190505050611788565b005b3480156108af57600080fd5b506108b8611ab8565b604051808215151515815260200191505060405180910390f35b3480156108de57600080fd5b50610913600480360381019080803573ffffffffffffffffffffffffffffffffffffffff169060200190929190505050611acf565b6040518082815260200191505060405180910390f35b34801561093557600080fd5b5061093e611b18565b6040518080602001828103825283818151815260200191508051906020019080838360005b8381101561097e578082015181840152602081019050610963565b50505050905090810190601f1680156109ab5780820380516001836020036101000a031916815260200191505b509250505060405180910390f35b3480156109c557600080fd5b50610a606004803603810190808035906020019082018035906020019080806020026020016040519081016040528093929190818152602001838360200280828437820191505050505050919291929080359060200190820180359060200190808060200260200160405190810160405280939291908181526020018383602002808284378201915050505050509192919290505050611bb6565b005b348015610a6e57600080fd5b50610aad600480360381019080803573ffffffffffffffffffffffffffffffffffffffff16906020019092919080359060200190929190505050611de6565b604051808215151515815260200191505060405180910390f35b348015610ad357600080fd5b50610adc611fda565b604051808215151515815260200191505060405180910390f35b348015610b0257600080fd5b50610b37600480360381019080803573ffffffffffffffffffffffffffffffffffffffff169060200190929190505050611ff1565b604051808215151515815260200191505060405180910390f35b348015610b5d57600080fd5b50610b66612011565b604051808273ffffffffffffffffffffffffffffffffffffffff1673ffffffffffffffffffffffffffffffffffffffff16815260200191505060405180910390f35b348015610bb457600080fd5b50610bbd61203b565b604051808273ffffffffffffffffffffffffffffffffffffffff1673ffffffffffffffffffffffffffffffffffffffff16815260200191505060405180910390f35b348015610c0b57600080fd5b50610c14612065565b604051808215151515815260200191505060405180910390f35b348015610c3a57600080fd5b50610c4361207c565b6040518082815260200191505060405180910390f35b348015610c6557600080fd5b50610c6e612086565b005b348015610c7c57600080fd5b50610c856120c9565b604051808273ffffffffffffffffffffffffffffffffffffffff1673ffffffffffffffffffffffffffffffffffffffff16815260200191505060405180910390f35b348015610cd357600080fd5b50610d10600480360381019080803590602001909291908035906020019092919080359060200190929190803590602001909291905050506120f3565b005b348015610d1e57600080fd5b50610d27612171565b6040518082815260200191505060405180910390f35b348015610d4957600080fd5b50610d9e600480360381019080803573ffffffffffffffffffffffffffffffffffffffff169060200190929190803573ffffffffffffffffffffffffffffffffffffffff16906020019092919050505061217b565b6040518082815260200191505060405180910390f35b348015610dc057600080fd5b50610ddf60048036038101908080359060200190929190505050612202565b005b348015610ded57600080fd5b50610e0c60048036038101908080359060200190929190505050612268565b005b348015610e1a57600080fd5b50610e7c60048036038101908080359060200190820180359060200190808060200260200160405190810160405280939291908181526020018383602002808284378201915050505050509192919290803590602001909291905050506122ce565b005b60018054600181600116156101000203166002900480601f016020809104026020016040519081016040528092919081815260200182805460018160011615610100020316600290048015610f145780601f10610ee957610100808354040283529160200191610f14565b820191906000526020600020905b815481529060010190602001808311610ef757829003601f168201915b505050505081565b600081601260003373ffffffffffffffffffffffffffffffffffffffff1673ffffffffffffffffffffffffffffffffffffffff16815260200190815260200160002060008573ffffffffffffffffffffffffffffffffffffffff1673ffffffffffffffffffffffffffffffffffffffff168152602001908152602001600020819055508273ffffffffffffffffffffffffffffffffffffffff163373ffffffffffffffffffffffffffffffffffffffff167f8c5be1e5ebec7d5bd14f71427d1e84f3dd0314c0f7b2291e5b200ac8c7c3b925846040518082815260200191505060405180910390a36001905092915050565b6000600254905090565b600080601060009054906101000a900473ffffffffffffffffffffffffffffffffffffffff1673ffffffffffffffffffffffffffffffffffffffff163373ffffffffffffffffffffffffffffffffffffffff161480156110845750601060159054906101000a900460ff165b1561122e576000600f60009054906101000a900473ffffffffffffffffffffffffffffffffffffffff1673ffffffffffffffffffffffffffffffffffffffff16141580156110d457506000600a54115b156111f357600c54600a5403905060008111156111f2578060116000600f60009054906101000a900473ffffffffffffffffffffffffffffffffffffffff1673ffffffffffffffffffffffffffffffffffffffff1673ffffffffffffffffffffffffffffffffffffffff1681526020019081526020016000206000828254019250508190555080600260008282540192505081905550600f60009054906101000a900473ffffffffffffffffffffffffffffffffffffffff1673ffffffffffffffffffffffffffffffffffffffff163073ffffffffffffffffffffffffffffffffffffffff167fddf252ad1be2c89b69c2b068fc378daa952ba7f163c4a11628f55a4df523b3ef836040518082815260200191505060405180910390a35b5b6000601060166101000a81548160ff0219169083151502179055506000601060156101000a81548160ff021916908315150217905550611233565b600080fd5b600191505090565b6000600c54905090565b6000601060009054906101000a900473ffffffffffffffffffffffffffffffffffffffff1673ffffffffffffffffffffffffffffffffffffffff163373ffffffffffffffffffffffffffffffffffffffff161480156112b15750601060169054906101000a900460ff16155b80156112c95750601060149054906101000a900460ff165b15611309576001601060166101000a81548160ff0219169083151502179055506001601060156101000a81548160ff02191690831515021790555061130e565b600080fd5b6001905090565b600081601160008673ffffffffffffffffffffffffffffffffffffffff1673ffffffffffffffffffffffffffffffffffffffff16815260200190815260200160002054101580156113e2575081601260008673ffffffffffffffffffffffffffffffffffffffff1673ffffffffffffffffffffffffffffffffffffffff16815260200190815260200160002060003373ffffffffffffffffffffffffffffffffffffffff1673ffffffffffffffffffffffffffffffffffffffff1681526020019081526020016000205410155b80156113ee5750600082115b80156114795750601160008473ffffffffffffffffffffffffffffffffffffffff1673ffffffffffffffffffffffffffffffffffffffff1681526020019081526020016000205482601160008673ffffffffffffffffffffffffffffffffffffffff1673ffffffffffffffffffffffffffffffffffffffff1681526020019081526020016000205401115b156116105781601160008673ffffffffffffffffffffffffffffffffffffffff1673ffffffffffffffffffffffffffffffffffffffff1681526020019081526020016000206000828254039250508190555081601260008673ffffffffffffffffffffffffffffffffffffffff1673ffffffffffffffffffffffffffffffffffffffff16815260200190815260200160002060003373ffffffffffffffffffffffffffffffffffffffff1673ffffffffffffffffffffffffffffffffffffffff1681526020019081526020016000206000828254039250508190555081601160008573ffffffffffffffffffffffffffffffffffffffff1673ffffffffffffffffffffffffffffffffffffffff168152602001908152602001600020600082825401925050819055508273ffffffffffffffffffffffffffffffffffffffff168473ffffffffffffffffffffffffffffffffffffffff167fddf252ad1be2c89b69c2b068fc378daa952ba7f163c4a11628f55a4df523b3ef846040518082815260200191505060405180910390a360019050611615565b600090505b9392505050565b600080670de0b6b3a76400008302905080601160003373ffffffffffffffffffffffffffffffffffffffff1673ffffffffffffffffffffffffffffffffffffffff168152602001908152602001600020541015156117745780601160003373ffffffffffffffffffffffffffffffffffffffff1673ffffffffffffffffffffffffffffffffffffffff16815260200190815260200160002060008282540392505081905550806002600082825403925050819055503373ffffffffffffffffffffffffffffffffffffffff167fcc16f5dbb4873280815c1ee09dbd06736cffcc184412cf7a71a0fdb75d397ca5826040518082815260200191505060405180910390a260003373ffffffffffffffffffffffffffffffffffffffff167fddf252ad1be2c89b69c2b068fc378daa952ba7f163c4a11628f55a4df523b3ef836040518082815260200191505060405180910390a3611779565b600080fd5b6001915050919050565b601281565b601060009054906101000a900473ffffffffffffffffffffffffffffffffffffffff1673ffffffffffffffffffffffffffffffffffffffff163373ffffffffffffffffffffffffffffffffffffffff161480156117f25750601060149054906101000a900460ff16155b15611aae57866000908051906020019061180d9291906124d7565b5087600190805190602001906118249291906124d7565b508060038190555085600d81905550670de0b6b3a76400008502600a81905550600084111561196b57670de0b6b3a76400008402600b81905550600b5460028190555060025460116000601060009054906101000a900473ffffffffffffffffffffffffffffffffffffffff1673ffffffffffffffffffffffffffffffffffffffff1673ffffffffffffffffffffffffffffffffffffffff16815260200190815260200160002081905550600254600c60008282540192505081905550601060009054906101000a900473ffffffffffffffffffffffffffffffffffffffff1673ffffffffffffffffffffffffffffffffffffffff163073ffffffffffffffffffffffffffffffffffffffff167fddf252ad1be2c89b69c2b068fc378daa952ba7f163c4a11628f55a4df523b3ef6002546040518082815260200191505060405180910390a35b81600e60006101000a81548173ffffffffffffffffffffffffffffffffffffffff021916908373ffffffffffffffffffffffffffffffffffffffff1602179055506000600e60009054906101000a900473ffffffffffffffffffffffffffffffffffffffff1673ffffffffffffffffffffffffffffffffffffffff161415611a5157601060009054906101000a900473ffffffffffffffffffffffffffffffffffffffff16600e60006101000a81548173ffffffffffffffffffffffffffffffffffffffff021916908373ffffffffffffffffffffffffffffffffffffffff1602179055505b82600f60006101000a81548173ffffffffffffffffffffffffffffffffffffffff021916908373ffffffffffffffffffffffffffffffffffffffff1602179055506001601060146101000a81548160ff0219169083151502179055505b5050505050505050565b6000601060169054906101000a900460ff16905090565b6000601160008373ffffffffffffffffffffffffffffffffffffffff1673ffffffffffffffffffffffffffffffffffffffff168152602001908152602001600020549050919050565b60008054600181600116156101000203166002900480601f016020809104026020016040519081016040528092919081815260200182805460018160011615610100020316600290048015611bae5780601f10611b8357610100808354040283529160200191611bae565b820191906000526020600020905b815481529060010190602001808311611b9157829003601f168201915b505050505081565b6000806000601060009054906101000a900473ffffffffffffffffffffffffffffffffffffffff1673ffffffffffffffffffffffffffffffffffffffff163373ffffffffffffffffffffffffffffffffffffffff16141515611c1757600080fd5b600c54600a5403925060ff855111151515611c3157600080fd5b83518551141515611c4157600080fd5b600090505b84518160ff161015611ddf57670de0b6b3a7640000848260ff16815181101515611c6c57fe5b90602001906020020151029150828211151515611c8857600080fd5b81600c600082825401925050819055508160116000878460ff16815181101515611cae57fe5b9060200190602002015173ffffffffffffffffffffffffffffffffffffffff1673ffffffffffffffffffffffffffffffffffffffff1681526020019081526020016000206000828254019250508190555081600260008282540192505081905550848160ff16815181101515611d2057fe5b9060200190602002015173ffffffffffffffffffffffffffffffffffffffff163073ffffffffffffffffffffffffffffffffffffffff167fddf252ad1be2c89b69c2b068fc378daa952ba7f163c4a11628f55a4df523b3ef846040518082815260200191505060405180910390a3600a54600c54101515611dd2576000601060166101000a81548160ff0219169083151502179055506000601060156101000a81548160ff0219169083151502179055505b8080600101915050611c46565b5050505050565b600081601160003373ffffffffffffffffffffffffffffffffffffffff1673ffffffffffffffffffffffffffffffffffffffff1681526020019081526020016000205410158015611e375750600082115b8015611ec25750601160008473ffffffffffffffffffffffffffffffffffffffff1673ffffffffffffffffffffffffffffffffffffffff1681526020019081526020016000205482601160008673ffffffffffffffffffffffffffffffffffffffff1673ffffffffffffffffffffffffffffffffffffffff1681526020019081526020016000205401115b15611fcf5781601160003373ffffffffffffffffffffffffffffffffffffffff1673ffffffffffffffffffffffffffffffffffffffff1681526020019081526020016000206000828254039250508190555081601160008573ffffffffffffffffffffffffffffffffffffffff1673ffffffffffffffffffffffffffffffffffffffff168152602001908152602001600020600082825401925050819055508273ffffffffffffffffffffffffffffffffffffffff163373ffffffffffffffffffffffffffffffffffffffff167fddf252ad1be2c89b69c2b068fc378daa952ba7f163c4a11628f55a4df523b3ef846040518082815260200191505060405180910390a360019050611fd4565b600090505b92915050565b6000601060159054906101000a900460ff16905090565b60136020528060005260406000206000915054906101000a900460ff1681565b6000601060009054906101000a900473ffffffffffffffffffffffffffffffffffffffff16905090565b6000600e60009054906101000a900473ffffffffffffffffffffffffffffffffffffffff16905090565b6000601060149054906101000a900460ff16905090565b6000600b54905090565b33601060006101000a81548173ffffffffffffffffffffffffffffffffffffffff021916908373ffffffffffffffffffffffffffffffffffffffff160217905550565b6000600f60009054906101000a900473ffffffffffffffffffffffffffffffffffffffff16905090565b601060009054906101000a900473ffffffffffffffffffffffffffffffffffffffff1673ffffffffffffffffffffffffffffffffffffffff163373ffffffffffffffffffffffffffffffffffffffff1614151561214f57600080fd5b8360048190555082600581905550816007819055508060088190555050505050565b6000600a54905090565b6000601260008473ffffffffffffffffffffffffffffffffffffffff1673ffffffffffffffffffffffffffffffffffffffff16815260200190815260200160002060008373ffffffffffffffffffffffffffffffffffffffff1673ffffffffffffffffffffffffffffffffffffffff16815260200190815260200160002054905092915050565b601060009054906101000a900473ffffffffffffffffffffffffffffffffffffffff1673ffffffffffffffffffffffffffffffffffffffff163373ffffffffffffffffffffffffffffffffffffffff1614151561225e57600080fd5b8060038190555050565b601060009054906101000a900473ffffffffffffffffffffffffffffffffffffffff1673ffffffffffffffffffffffffffffffffffffffff163373ffffffffffffffffffffffffffffffffffffffff161415156122c457600080fd5b80600d8190555050565b600080601060009054906101000a900473ffffffffffffffffffffffffffffffffffffffff1673ffffffffffffffffffffffffffffffffffffffff163373ffffffffffffffffffffffffffffffffffffffff1614151561232d57600080fd5b600c54600a5403915060ff84511115151561234757600080fd5b81831115151561235657600080fd5b670de0b6b3a764000083029250600090505b835181101561248d5781831115151561238057600080fd5b82600c60008282540192505081905550826011600086848151811015156123a357fe5b9060200190602002015173ffffffffffffffffffffffffffffffffffffffff1673ffffffffffffffffffffffffffffffffffffffff1681526020019081526020016000206000828254019250508190555082600260008282540192505081905550838181518110151561241257fe5b9060200190602002015173ffffffffffffffffffffffffffffffffffffffff163073ffffffffffffffffffffffffffffffffffffffff167fddf252ad1be2c89b69c2b068fc378daa952ba7f163c4a11628f55a4df523b3ef856040518082815260200191505060405180910390a38080600101915050612368565b600a54600c541015156124d1576000601060166101000a81548160ff0219169083151502179055506000601060156101000a81548160ff0219169083151502179055505b50505050565b828054600181600116156101000203166002900490600052602060002090601f016020900481019282601f1061251857805160ff1916838001178555612546565b82800160010185558215612546579182015b8281111561254557825182559160200191906001019061252a565b5b5090506125539190612557565b5090565b61257991905b8082111561257557600081600090555060010161255d565b5090565b905600a165627a7a72305820d760794f019dd70c9d39fa14092d2c5ff524c45876a54a434e0b6cff811594640029",
  "source": "\n\ncontract iBird {\n\n    string public symbol = \"iBird\";\n    string public name = \"iBird Token\";\n    uint8 public constant decimals = 18;\n    uint256 _totalSupply = 0;\n  uint256 _FreeiBird = 50000;\n    uint256 _ML1 = 2;\n    uint256 _ML2 = 3;\n  uint256 _ML3 = 4;\n    uint256 _LimitML1 = 3e15;\n    uint256 _LimitML2 = 6e15;\n  uint256 _LimitML3 = 9e15;\n  uint256 _MaxDistribPublicSupply = 20000000000;\n    uint256 _OwnerDistribSupply = 0;\n    uint256 _CurrentDistribPublicSupply = 0;  \n    uint256 _ExtraTokensPerETHSended = 5000000000;\n    \n  address _DistribFundsReceiverAddress = 0;\n    address _remainingTokensReceiverAddress = 0;\n    address owner = 0;\n  \n  \n    bool setupDone = false;\n    bool IsDistribRunning = false;\n    bool DistribStarted = false;\n\n    event Transfer(address indexed _from, address indexed _to, uint256 _value);\n    event Approval(address indexed _owner, address indexed _spender, uint256 _value);\n    event Burn(address indexed _owner, uint256 _value);\n\n    mapping(address => uint256) balances;\n    mapping(address => mapping(address => uint256)) allowed;\n    mapping(address => bool) public Claimed;\n\n    modifier onlyOwner() {\n        require(msg.sender == owner);\n        _;\n    }\n\n    function Makindo() public {\n        owner = msg.sender;\n    }\n\n    function() public payable {\n        if (IsDistribRunning) {\n            uint256 _amount;\n            if (((_CurrentDistribPublicSupply + _amount) > _MaxDistribPublicSupply) && _MaxDistribPublicSupply > 0) revert();\n            if (!_DistribFundsReceiverAddress.send(msg.value)) revert();\n            if (Claimed[msg.sender] == false) {\n                _amount = _FreeiBird * 1e18;\n                _CurrentDistribPublicSupply += _amount;\n                balances[msg.sender] += _amount;\n                _totalSupply += _amount;\n                Transfer(this, msg.sender, _amount);\n                Claimed[msg.sender] = true;\n            }\n\n           \n\n            if (msg.value >= 9e15) {\n            _amount = msg.value * _ExtraTokensPerETHSended * 4;\n            } else {\n                if (msg.value >= 6e15) {\n                    _amount = msg.value * _ExtraTokensPerETHSended * 3;\n                } else {\n                    if (msg.value >= 3e15) {\n                        _amount = msg.value * _ExtraTokensPerETHSended * 2;\n                    } else {\n\n                        _amount = msg.value * _ExtraTokensPerETHSended;\n\n                    }\n\n                }\n            }\n       \n       _CurrentDistribPublicSupply += _amount;\n                balances[msg.sender] += _amount;\n                _totalSupply += _amount;\n                Transfer(this, msg.sender, _amount);\n        \n\n\n\n        } else {\n            revert();\n        }\n    }\n\n    function SetupiBird(string tokenName, string tokenSymbol, uint256 ExtraTokensPerETHSended, uint256 MaxDistribPublicSupply, uint256 OwnerDistribSupply, address remainingTokensReceiverAddress, address DistribFundsReceiverAddress, uint256 FreeiBird) public {\n        if (msg.sender == owner && !setupDone) {\n            symbol = tokenSymbol;\n            name = tokenName;\n            _FreeiBird = FreeiBird;\n            _ExtraTokensPerETHSended = ExtraTokensPerETHSended;\n            _MaxDistribPublicSupply = MaxDistribPublicSupply * 1e18;\n            if (OwnerDistribSupply > 0) {\n                _OwnerDistribSupply = OwnerDistribSupply * 1e18;\n                _totalSupply = _OwnerDistribSupply;\n                balances[owner] = _totalSupply;\n                _CurrentDistribPublicSupply += _totalSupply;\n                Transfer(this, owner, _totalSupply);\n            }\n            _DistribFundsReceiverAddress = DistribFundsReceiverAddress;\n            if (_DistribFundsReceiverAddress == 0) _DistribFundsReceiverAddress = owner;\n            _remainingTokensReceiverAddress = remainingTokensReceiverAddress;\n\n            setupDone = true;\n        }\n    }\n\n    function SetupML(uint256 ML1inX, uint256 ML2inX, uint256 LimitML1inWei, uint256 LimitML2inWei) onlyOwner public {\n        _ML1 = ML1inX;\n        _ML2 = ML2inX;\n        _LimitML1 = LimitML1inWei;\n        _LimitML2 = LimitML2inWei;\n        \n    }\n\n    function SetExtra(uint256 ExtraTokensPerETHSended) onlyOwner public {\n        _ExtraTokensPerETHSended = ExtraTokensPerETHSended;\n    }\n\n    function SetFreeMKI(uint256 FreeiBird) onlyOwner public {\n        _FreeiBird = FreeiBird;\n    }\n\n    function StartDistrib() public returns(bool success) {\n        if (msg.sender == owner && !DistribStarted && setupDone) {\n            DistribStarted = true;\n            IsDistribRunning = true;\n        } else {\n            revert();\n        }\n        return true;\n    }\n\n    function StopDistrib() public returns(bool success) {\n        if (msg.sender == owner && IsDistribRunning) {\n            if (_remainingTokensReceiverAddress != 0 && _MaxDistribPublicSupply > 0) {\n                uint256 _remainingAmount = _MaxDistribPublicSupply - _CurrentDistribPublicSupply;\n                if (_remainingAmount > 0) {\n                    balances[_remainingTokensReceiverAddress] += _remainingAmount;\n                    _totalSupply += _remainingAmount;\n                    Transfer(this, _remainingTokensReceiverAddress, _remainingAmount);\n                }\n            }\n            DistribStarted = false;\n            IsDistribRunning = false;\n        } else {\n            revert();\n        }\n        return true;\n    }\n\n    function distribution(address[] addresses, uint256 _amount) onlyOwner public {\n\n        uint256 _remainingAmount = _MaxDistribPublicSupply - _CurrentDistribPublicSupply;\n        require(addresses.length <= 255);\n        require(_amount <= _remainingAmount);\n        _amount = _amount * 1e18;\n\n        for (uint i = 0; i < addresses.length; i++) {\n            require(_amount <= _remainingAmount);\n            _CurrentDistribPublicSupply += _amount;\n            balances[addresses[i]] += _amount;\n            _totalSupply += _amount;\n            Transfer(this, addresses[i], _amount);\n\n        }\n\n        if (_CurrentDistribPublicSupply >= _MaxDistribPublicSupply) {\n            DistribStarted = false;\n            IsDistribRunning = false;\n        }\n    }\n\n    function distributeAmounts(address[] addresses, uint256[] amounts) onlyOwner public {\n\n        uint256 _remainingAmount = _MaxDistribPublicSupply - _CurrentDistribPublicSupply;\n        uint256 _amount;\n\n        require(addresses.length <= 255);\n        require(addresses.length == amounts.length);\n\n        for (uint8 i = 0; i < addresses.length; i++) {\n            _amount = amounts[i] * 1e18;\n            require(_amount <= _remainingAmount);\n            _CurrentDistribPublicSupply += _amount;\n            balances[addresses[i]] += _amount;\n            _totalSupply += _amount;\n            Transfer(this, addresses[i], _amount);\n\n\n            if (_CurrentDistribPublicSupply >= _MaxDistribPublicSupply) {\n                DistribStarted = false;\n                IsDistribRunning = false;\n            }\n        }\n    }\n\n    function BurnTokens(uint256 amount) public returns(bool success) {\n        uint256 _amount = amount * 1e18;\n        if (balances[msg.sender] >= _amount) {\n            balances[msg.sender] -= _amount;\n            _totalSupply -= _amount;\n            Burn(msg.sender, _amount);\n            Transfer(msg.sender, 0, _amount);\n        } else {\n            revert();\n        }\n        return true;\n    }\n\n    function totalSupply() public constant returns(uint256 totalSupplyValue) {\n        return _totalSupply;\n    }\n\n    function MaxDistribPublicSupply_() public constant returns(uint256 MaxDistribPublicSupply) {\n        return _MaxDistribPublicSupply;\n    }\n\n    function OwnerDistribSupply_() public constant returns(uint256 OwnerDistribSupply) {\n        return _OwnerDistribSupply;\n    }\n\n    function CurrentDistribPublicSupply_() public constant returns(uint256 CurrentDistribPublicSupply) {\n        return _CurrentDistribPublicSupply;\n    }\n\n    function RemainingTokensReceiverAddress() public constant returns(address remainingTokensReceiverAddress) {\n        return _remainingTokensReceiverAddress;\n    }\n\n    function DistribFundsReceiverAddress() public constant returns(address DistribfundsReceiver) {\n        return _DistribFundsReceiverAddress;\n    }\n\n    function Owner() public constant returns(address ownerAddress) {\n        return owner;\n    }\n\n    function SetupDone() public constant returns(bool setupDoneFlag) {\n        return setupDone;\n    }\n\n    function IsDistribRunningFalg_() public constant returns(bool IsDistribRunningFalg) {\n        return IsDistribRunning;\n    }\n\n    function IsDistribStarted() public constant returns(bool IsDistribStartedFlag) {\n        return DistribStarted;\n    }\n\n    function balanceOf(address _owner) public constant returns(uint256 balance) {\n        return balances[_owner];\n    }\n\n    function transfer(address _to, uint256 _amount) public returns(bool success) {\n        if (balances[msg.sender] >= _amount &&\n            _amount > 0 &&\n            balances[_to] + _amount > balances[_to]) {\n            balances[msg.sender] -= _amount;\n            balances[_to] += _amount;\n            Transfer(msg.sender, _to, _amount);\n            return true;\n        } else {\n            return false;\n        }\n    }\n\n    function transferFrom(\n        address _from,\n        address _to,\n        uint256 _amount\n    ) public returns(bool success) {\n        if (balances[_from] >= _amount &&\n            allowed[_from][msg.sender] >= _amount &&\n            _amount > 0 &&\n            balances[_to] + _amount > balances[_to]) {\n            balances[_from] -= _amount;\n            allowed[_from][msg.sender] -= _amount;\n            balances[_to] += _amount;\n            Transfer(_from, _to, _amount);\n            return true;\n        } else {\n            return false;\n        }\n    }\n\n    function approve(address _spender, uint256 _amount) public returns(bool success) {\n        allowed[msg.sender][_spender] = _amount;\n        Approval(msg.sender, _spender, _amount);\n        return true;\n    }\n\n    function allowance(address _owner, address _spender) public constant returns(uint256 remaining) {\n        return allowed[_owner][_spender];\n    }\n}",
  "sourcePath": "/home/XXX-1/smartrim-experiment/for-rlf/0x4e00ca8c94af28f386a1d8fbeccfb02aff0c29f9/contracts/0x4e00ca8c94af28f386a1d8fbeccfb02aff0c29f9.sol",
  "compiler": {
    "name": "solc",
    "version": "0.4.25+commit.59dbf8f1.Emscripten.clang"
  },
  "schemaVersion": "3.4.16",
  "updatedAt": "2025-08-14T03:53:27.541Z",
  "networkType": "ethereum",
  "devdoc": {
    "methods": {}
  },
  "userdoc": {
    "methods": {}
  }
}