{
  "contractName": "MSRiseToken",
  "abi": [
    {
      "constant": true,
      "inputs": [],
      "name": "_decimals",
      "outputs": [
        {
          "name": "",
          "type": "uint256"
        }
      ],
      "payable": false,
      "stateMutability": "view",
      "type": "function"
    },
    {
      "constant": true,
      "inputs": [],
      "name": "sale_reserve",
      "outputs": [
        {
          "name": "",
          "type": "uint256"
        }
      ],
      "payable": false,
      "stateMutability": "view",
      "type": "function"
    },
    {
      "constant": true,
      "inputs": [
        {
          "name": "_owner",
          "type": "address"
        }
      ],
      "name": "balanceOf",
      "outputs": [
        {
          "name": "balance",
          "type": "uint256"
        }
      ],
      "payable": false,
      "stateMutability": "view",
      "type": "function"
    },
    {
      "constant": true,
      "inputs": [],
      "name": "owner",
      "outputs": [
        {
          "name": "",
          "type": "address"
        }
      ],
      "payable": false,
      "stateMutability": "view",
      "type": "function"
    },
    {
      "constant": true,
      "inputs": [
        {
          "name": "_owner",
          "type": "address"
        },
        {
          "name": "_spender",
          "type": "address"
        }
      ],
      "name": "allowance",
      "outputs": [
        {
          "name": "remaining",
          "type": "uint256"
        }
      ],
      "payable": false,
      "stateMutability": "view",
      "type": "function"
    },
    {
      "constant": true,
      "inputs": [],
      "name": "partner_reserve",
      "outputs": [
        {
          "name": "",
          "type": "uint256"
        }
      ],
      "payable": false,
      "stateMutability": "view",
      "type": "function"
    },
    {
      "constant": true,
      "inputs": [],
      "name": "bounce_reserve",
      "outputs": [
        {
          "name": "",
          "type": "uint256"
        }
      ],
      "payable": false,
      "stateMutability": "view",
      "type": "function"
    },
    {
      "inputs": [],
      "payable": false,
      "stateMutability": "nonpayable",
      "type": "constructor"
    },
    {
      "anonymous": false,
      "inputs": [],
      "name": "Freeze",
      "type": "event"
    },
    {
      "anonymous": false,
      "inputs": [],
      "name": "Unfreeze",
      "type": "event"
    },
    {
      "anonymous": false,
      "inputs": [
        {
          "indexed": true,
          "name": "_from",
          "type": "address"
        },
        {
          "indexed": true,
          "name": "_to",
          "type": "address"
        },
        {
          "indexed": false,
          "name": "_value",
          "type": "uint256"
        }
      ],
      "name": "Transfer",
      "type": "event"
    },
    {
      "anonymous": false,
      "inputs": [
        {
          "indexed": true,
          "name": "_owner",
          "type": "address"
        },
        {
          "indexed": true,
          "name": "_spender",
          "type": "address"
        },
        {
          "indexed": false,
          "name": "_value",
          "type": "uint256"
        }
      ],
      "name": "Approval",
      "type": "event"
    },
    {
      "constant": true,
      "inputs": [],
      "name": "totalSupply",
      "outputs": [
        {
          "name": "_totalSupply",
          "type": "uint256"
        }
      ],
      "payable": false,
      "stateMutability": "view",
      "type": "function"
    },
    {
      "constant": true,
      "inputs": [],
      "name": "name",
      "outputs": [
        {
          "name": "result",
          "type": "string"
        }
      ],
      "payable": false,
      "stateMutability": "view",
      "type": "function"
    },
    {
      "constant": true,
      "inputs": [],
      "name": "symbol",
      "outputs": [
        {
          "name": "result",
          "type": "string"
        }
      ],
      "payable": false,
      "stateMutability": "view",
      "type": "function"
    },
    {
      "constant": true,
      "inputs": [],
      "name": "decimals",
      "outputs": [
        {
          "name": "result",
          "type": "uint256"
        }
      ],
      "payable": false,
      "stateMutability": "view",
      "type": "function"
    },
    {
      "constant": false,
      "inputs": [
        {
          "name": "_to",
          "type": "address"
        },
        {
          "name": "_value",
          "type": "uint256"
        }
      ],
      "name": "transfer",
      "outputs": [
        {
          "name": "success",
          "type": "bool"
        }
      ],
      "payable": false,
      "stateMutability": "nonpayable",
      "type": "function"
    },
    {
      "constant": false,
      "inputs": [
        {
          "name": "_from",
          "type": "address"
        },
        {
          "name": "_to",
          "type": "address"
        },
        {
          "name": "_value",
          "type": "uint256"
        }
      ],
      "name": "transferFrom",
      "outputs": [
        {
          "name": "success",
          "type": "bool"
        }
      ],
      "payable": false,
      "stateMutability": "nonpayable",
      "type": "function"
    },
    {
      "constant": false,
      "inputs": [
        {
          "name": "_spender",
          "type": "address"
        },
        {
          "name": "_value",
          "type": "uint256"
        }
      ],
      "name": "approve",
      "outputs": [
        {
          "name": "success",
          "type": "bool"
        }
      ],
      "payable": false,
      "stateMutability": "nonpayable",
      "type": "function"
    },
    {
      "constant": false,
      "inputs": [
        {
          "name": "_spender",
          "type": "address"
        },
        {
          "name": "_currentValue",
          "type": "uint256"
        },
        {
          "name": "_newValue",
          "type": "uint256"
        }
      ],
      "name": "approve",
      "outputs": [
        {
          "name": "success",
          "type": "bool"
        }
      ],
      "payable": false,
      "stateMutability": "nonpayable",
      "type": "function"
    },
    {
      "constant": false,
      "inputs": [
        {
          "name": "_value",
          "type": "uint256"
        }
      ],
      "name": "burnTokens",
      "outputs": [
        {
          "name": "success",
          "type": "bool"
        }
      ],
      "payable": false,
      "stateMutability": "nonpayable",
      "type": "function"
    },
    {
      "constant": false,
      "inputs": [
        {
          "name": "_value",
          "type": "uint256"
        }
      ],
      "name": "createTokens",
      "outputs": [
        {
          "name": "success",
          "type": "bool"
        }
      ],
      "payable": false,
      "stateMutability": "nonpayable",
      "type": "function"
    },
    {
      "constant": false,
      "inputs": [
        {
          "name": "_newOwner",
          "type": "address"
        }
      ],
      "name": "setOwner",
      "outputs": [],
      "payable": false,
      "stateMutability": "nonpayable",
      "type": "function"
    },
    {
      "constant": false,
      "inputs": [],
      "name": "freezeTransfers",
      "outputs": [],
      "payable": false,
      "stateMutability": "nonpayable",
      "type": "function"
    },
    {
      "constant": false,
      "inputs": [],
      "name": "unfreezeTransfers",
      "outputs": [],
      "payable": false,
      "stateMutability": "nonpayable",
      "type": "function"
    }
  ],
  "bytecode": "0x608060405260006003556000600455600060055560006006556000600760006101000a81548160ff0219169083151502179055503480156200004057600080fd5b5033600260006101000a81548173ffffffffffffffffffffffffffffffffffffffff021916908373ffffffffffffffffffffffffffffffffffffffff160217905550620000a76a295be96e6406697200000062000112640100000000026401000000009004565b506a0422ca8b0a00a42500000060058190555069d3c21bcecceda100000060048190555062000106600354620000f160055460045462000293640100000000026401000000009004565b620002cf640100000000026401000000009004565b600681905550620002e9565b6000600260009054906101000a900473ffffffffffffffffffffffffffffffffffffffff1673ffffffffffffffffffffffffffffffffffffffff163373ffffffffffffffffffffffffffffffffffffffff161415156200017157600080fd5b60008211156200028957620001b87fffffffffffffffffffffffffffffffffffffffffffffffffffffffffffffffff600354620002cf640100000000026401000000009004565b821115620001ca57600090506200028e565b620002236000803373ffffffffffffffffffffffffffffffffffffffff1673ffffffffffffffffffffffffffffffffffffffff168152602001908152602001600020548362000293640100000000026401000000009004565b6000803373ffffffffffffffffffffffffffffffffffffffff1673ffffffffffffffffffffffffffffffffffffffff16815260200190815260200160002081905550620002826003548362000293640100000000026401000000009004565b6003819055505b600190505b919050565b6000817fffffffffffffffffffffffffffffffffffffffffffffffffffffffffffffffff038311151515620002c457fe5b818301905092915050565b6000818310151515620002de57fe5b818303905092915050565b6114ed80620002f96000396000f300608060405260043610610112576000357c0100000000000000000000000000000000000000000000000000000000900463ffffffff168063015024601461011757806306fdde031461012e578063095ea7b3146101be57806313af40351461022357806318160ddd1461026657806323b872dd14610291578063313ce5671461031657806331c420d41461034157806332424aa314610358578063426a849314610383578063572960a1146103f25780636d1b229d1461041d57806370a08231146104625780637e1f2bb8146104b95780638da5cb5b146104fe57806395d89b4114610555578063a9059cbb146105e5578063dd62ed3e1461064a578063e2fa046e146106c1578063e895cfef146106ec575b600080fd5b34801561012357600080fd5b5061012c610717565b005b34801561013a57600080fd5b506101436107d3565b6040518080602001828103825283818151815260200191508051906020019080838360005b83811015610183578082015181840152602081019050610168565b50505050905090810190601f1680156101b05780820380516001836020036101000a031916815260200191505b509250505060405180910390f35b3480156101ca57600080fd5b50610209600480360381019080803573ffffffffffffffffffffffffffffffffffffffff16906020019092919080359060200190929190505050610810565b604051808215151515815260200191505060405180910390f35b34801561022f57600080fd5b50610264600480360381019080803573ffffffffffffffffffffffffffffffffffffffff169060200190929190505050610902565b005b34801561027257600080fd5b5061027b6109a2565b6040518082815260200191505060405180910390f35b34801561029d57600080fd5b506102fc600480360381019080803573ffffffffffffffffffffffffffffffffffffffff169060200190929190803573ffffffffffffffffffffffffffffffffffffffff169060200190929190803590602001909291905050506109ac565b604051808215151515815260200191505060405180910390f35b34801561032257600080fd5b5061032b6109e1565b6040518082815260200191505060405180910390f35b34801561034d57600080fd5b506103566109ea565b005b34801561036457600080fd5b5061036d610aa5565b6040518082815260200191505060405180910390f35b34801561038f57600080fd5b506103d8600480360381019080803573ffffffffffffffffffffffffffffffffffffffff1690602001909291908035906020019092919080359060200190929190505050610ab1565b604051808215151515815260200191505060405180910390f35b3480156103fe57600080fd5b50610407610ae1565b6040518082815260200191505060405180910390f35b34801561042957600080fd5b5061044860048036038101908080359060200190929190505050610ae7565b604051808215151515815260200191505060405180910390f35b34801561046e57600080fd5b506104a3600480360381019080803573ffffffffffffffffffffffffffffffffffffffff169060200190929190505050610bf0565b6040518082815260200191505060405180910390f35b3480156104c557600080fd5b506104e460048036038101908080359060200190929190505050610c38565b604051808215151515815260200191505060405180910390f35b34801561050a57600080fd5b50610513610d82565b604051808273ffffffffffffffffffffffffffffffffffffffff1673ffffffffffffffffffffffffffffffffffffffff16815260200191505060405180910390f35b34801561056157600080fd5b5061056a610da8565b6040518080602001828103825283818151815260200191508051906020019080838360005b838110156105aa57808201518184015260208101905061058f565b50505050905090810190601f1680156105d75780820380516001836020036101000a031916815260200191505b509250505060405180910390f35b3480156105f157600080fd5b50610630600480360381019080803573ffffffffffffffffffffffffffffffffffffffff16906020019092919080359060200190929190505050610de5565b604051808215151515815260200191505060405180910390f35b34801561065657600080fd5b506106ab600480360381019080803573ffffffffffffffffffffffffffffffffffffffff169060200190929190803573ffffffffffffffffffffffffffffffffffffffff169060200190929190505050610e18565b6040518082815260200191505060405180910390f35b3480156106cd57600080fd5b506106d6610e9f565b6040518082815260200191505060405180910390f35b3480156106f857600080fd5b50610701610ea5565b6040518082815260200191505060405180910390f35b600260009054906101000a900473ffffffffffffffffffffffffffffffffffffffff1673ffffffffffffffffffffffffffffffffffffffff163373ffffffffffffffffffffffffffffffffffffffff1614151561077357600080fd5b600760009054906101000a900460ff1615156107d1576001600760006101000a81548160ff0219169083151502179055507f615acbaede366d76a8b8cb2a9ada6a71495f0786513d71aa97aaf0c3910b78de60405160405180910390a15b565b60606040805190810160405280600b81526020017f4d5352697365546f6b656e000000000000000000000000000000000000000000815250905090565b600081600160003373ffffffffffffffffffffffffffffffffffffffff1673ffffffffffffffffffffffffffffffffffffffff16815260200190815260200160002060008573ffffffffffffffffffffffffffffffffffffffff1673ffffffffffffffffffffffffffffffffffffffff168152602001908152602001600020819055508273ffffffffffffffffffffffffffffffffffffffff163373ffffffffffffffffffffffffffffffffffffffff167f8c5be1e5ebec7d5bd14f71427d1e84f3dd0314c0f7b2291e5b200ac8c7c3b925846040518082815260200191505060405180910390a36001905092915050565b600260009054906101000a900473ffffffffffffffffffffffffffffffffffffffff1673ffffffffffffffffffffffffffffffffffffffff163373ffffffffffffffffffffffffffffffffffffffff1614151561095e57600080fd5b80600260006101000a81548173ffffffffffffffffffffffffffffffffffffffff021916908373ffffffffffffffffffffffffffffffffffffffff16021790555050565b6000600354905090565b6000600760009054906101000a900460ff16156109cc57600090506109da565b6109d7848484610eab565b90505b9392505050565b60006012905090565b600260009054906101000a900473ffffffffffffffffffffffffffffffffffffffff1673ffffffffffffffffffffffffffffffffffffffff163373ffffffffffffffffffffffffffffffffffffffff16141515610a4657600080fd5b600760009054906101000a900460ff1615610aa3576000600760006101000a81548160ff0219169083151502179055507f2f05ba71d0df11bf5fa562a6569d70c4f80da84284badbe015ce1456063d0ded60405160405180910390a15b565b670de0b6b3a764000081565b600082610abe3386610e18565b1415610ad557610ace8483610810565b9050610ada565b600090505b9392505050565b60065481565b60008060003373ffffffffffffffffffffffffffffffffffffffff1673ffffffffffffffffffffffffffffffffffffffff16815260200190815260200160002054821115610b385760009050610beb565b6000821115610be657610b896000803373ffffffffffffffffffffffffffffffffffffffff1673ffffffffffffffffffffffffffffffffffffffff1681526020019081526020016000205483611256565b6000803373ffffffffffffffffffffffffffffffffffffffff1673ffffffffffffffffffffffffffffffffffffffff16815260200190815260200160002081905550610bd760035483611256565b60038190555060019050610beb565b600190505b919050565b60008060008373ffffffffffffffffffffffffffffffffffffffff1673ffffffffffffffffffffffffffffffffffffffff168152602001908152602001600020549050919050565b6000600260009054906101000a900473ffffffffffffffffffffffffffffffffffffffff1673ffffffffffffffffffffffffffffffffffffffff163373ffffffffffffffffffffffffffffffffffffffff16141515610c9657600080fd5b6000821115610d7857610ccb7fffffffffffffffffffffffffffffffffffffffffffffffffffffffffffffffff600354611256565b821115610cdb5760009050610d7d565b610d236000803373ffffffffffffffffffffffffffffffffffffffff1673ffffffffffffffffffffffffffffffffffffffff168152602001908152602001600020548361126f565b6000803373ffffffffffffffffffffffffffffffffffffffff1673ffffffffffffffffffffffffffffffffffffffff16815260200190815260200160002081905550610d716003548361126f565b6003819055505b600190505b919050565b600260009054906101000a900473ffffffffffffffffffffffffffffffffffffffff1681565b60606040805190810160405280600681526020017f4d53526973650000000000000000000000000000000000000000000000000000815250905090565b6000600760009054906101000a900460ff1615610e055760009050610e12565b610e0f83836112aa565b90505b92915050565b6000600160008473ffffffffffffffffffffffffffffffffffffffff1673ffffffffffffffffffffffffffffffffffffffff16815260200190815260200160002060008373ffffffffffffffffffffffffffffffffffffffff1673ffffffffffffffffffffffffffffffffffffffff16815260200190815260200160002054905092915050565b60055481565b60045481565b600081600160008673ffffffffffffffffffffffffffffffffffffffff1673ffffffffffffffffffffffffffffffffffffffff16815260200190815260200160002060003373ffffffffffffffffffffffffffffffffffffffff1673ffffffffffffffffffffffffffffffffffffffff168152602001908152602001600020541015610f3a576000905061124f565b816000808673ffffffffffffffffffffffffffffffffffffffff1673ffffffffffffffffffffffffffffffffffffffff168152602001908152602001600020541015610f89576000905061124f565b61100f600160008673ffffffffffffffffffffffffffffffffffffffff1673ffffffffffffffffffffffffffffffffffffffff16815260200190815260200160002060003373ffffffffffffffffffffffffffffffffffffffff1673ffffffffffffffffffffffffffffffffffffffff1681526020019081526020016000205483611256565b600160008673ffffffffffffffffffffffffffffffffffffffff1673ffffffffffffffffffffffffffffffffffffffff16815260200190815260200160002060003373ffffffffffffffffffffffffffffffffffffffff1673ffffffffffffffffffffffffffffffffffffffff168152602001908152602001600020819055506000821180156110cb57508273ffffffffffffffffffffffffffffffffffffffff168473ffffffffffffffffffffffffffffffffffffffff1614155b156111e5576111186000808673ffffffffffffffffffffffffffffffffffffffff1673ffffffffffffffffffffffffffffffffffffffff1681526020019081526020016000205483611256565b6000808673ffffffffffffffffffffffffffffffffffffffff1673ffffffffffffffffffffffffffffffffffffffff168152602001908152602001600020819055506111a26000808573ffffffffffffffffffffffffffffffffffffffff1673ffffffffffffffffffffffffffffffffffffffff168152602001908152602001600020548361126f565b6000808573ffffffffffffffffffffffffffffffffffffffff1673ffffffffffffffffffffffffffffffffffffffff168152602001908152602001600020819055505b8273ffffffffffffffffffffffffffffffffffffffff168473ffffffffffffffffffffffffffffffffffffffff167fddf252ad1be2c89b69c2b068fc378daa952ba7f163c4a11628f55a4df523b3ef846040518082815260200191505060405180910390a3600190505b9392505050565b600081831015151561126457fe5b818303905092915050565b6000817fffffffffffffffffffffffffffffffffffffffffffffffffffffffffffffffff03831115151561129f57fe5b818301905092915050565b6000816000803373ffffffffffffffffffffffffffffffffffffffff1673ffffffffffffffffffffffffffffffffffffffff1681526020019081526020016000205410156112fb57600090506114bb565b60008211801561133757508273ffffffffffffffffffffffffffffffffffffffff163373ffffffffffffffffffffffffffffffffffffffff1614155b15611451576113846000803373ffffffffffffffffffffffffffffffffffffffff1673ffffffffffffffffffffffffffffffffffffffff1681526020019081526020016000205483611256565b6000803373ffffffffffffffffffffffffffffffffffffffff1673ffffffffffffffffffffffffffffffffffffffff1681526020019081526020016000208190555061140e6000808573ffffffffffffffffffffffffffffffffffffffff1673ffffffffffffffffffffffffffffffffffffffff168152602001908152602001600020548361126f565b6000808573ffffffffffffffffffffffffffffffffffffffff1673ffffffffffffffffffffffffffffffffffffffff168152602001908152602001600020819055505b8273ffffffffffffffffffffffffffffffffffffffff163373ffffffffffffffffffffffffffffffffffffffff167fddf252ad1be2c89b69c2b068fc378daa952ba7f163c4a11628f55a4df523b3ef846040518082815260200191505060405180910390a3600190505b929150505600a165627a7a7230582089b83c9c64d337c6cec811d8b80e0b00a2cd588f122b85e399103f7f8d3e23cc0029",
  "source": "\n\ncontract ERC20Token {\n\n  function totalSupply () constant returns (uint256 _totalSupply);\n\n  function balanceOf (address _owner) constant returns (uint256 balance);\n\n  function transfer (address _to, uint256 _value) returns (bool success);\n\n  function transferFrom (address _from, address _to, uint256 _value) returns (bool success);\n\n  function approve (address _spender, uint256 _value) returns (bool success);\n\n  function allowance (address _owner, address _spender) constant returns (uint256 remaining);\n\n  event Transfer (address indexed _from, address indexed _to, uint256 _value);\n\n  event Approval (address indexed _owner, address indexed _spender, uint256 _value);\n}\n\ncontract SafeMath {\n  uint256 constant private MAX_UINT256 =\n  0xFFFFFFFFFFFFFFFFFFFFFFFFFFFFFFFFFFFFFFFFFFFFFFFFFFFFFFFFFFFFFFFF;\n\n  function safeAdd (uint256 x, uint256 y) constant internal returns (uint256 z) {\n    assert (x <= MAX_UINT256 - y);\n    return x + y;\n  }\n\n  function safeSub (uint256 x, uint256 y) constant internal returns (uint256 z) {\n    assert (x >= y);\n    return x - y;\n  }\n\n  function safeMul (uint256 x, uint256 y)  constant internal  returns (uint256 z) {\n    if (y == 0) return 0; \n    assert (x <= MAX_UINT256 / y);\n    return x * y;\n  }\n  \n  \n   function safeDiv(uint256 a, uint256 b) internal pure returns (uint256) {\n    uint256 c = a / b;\n    return c;\n  }\n  \n}\n\n\ncontract Token is ERC20Token, SafeMath {\n\n  function Token () {\n    \n  }\n \n  function balanceOf (address _owner) constant returns (uint256 balance) {\n    return accounts [_owner];\n  }\n\n  function transfer (address _to, uint256 _value) returns (bool success) {\n    if (accounts [msg.sender] < _value) return false;\n    if (_value > 0 && msg.sender != _to) {\n      accounts [msg.sender] = safeSub (accounts [msg.sender], _value);\n      accounts [_to] = safeAdd (accounts [_to], _value);\n    }\n    Transfer (msg.sender, _to, _value);\n    return true;\n  }\n\n  function transferFrom (address _from, address _to, uint256 _value)  returns (bool success) {\n    if (allowances [_from][msg.sender] < _value) return false;\n    if (accounts [_from] < _value) return false;\n\n    allowances [_from][msg.sender] =\n      safeSub (allowances [_from][msg.sender], _value);\n\n    if (_value > 0 && _from != _to) {\n      accounts [_from] = safeSub (accounts [_from], _value);\n      accounts [_to] = safeAdd (accounts [_to], _value);\n    }\n    Transfer (_from, _to, _value);\n    return true;\n  }\n\n \n  function approve (address _spender, uint256 _value) returns (bool success) {\n    allowances [msg.sender][_spender] = _value;\n    Approval (msg.sender, _spender, _value);\n    return true;\n  }\n\n  \n  function allowance (address _owner, address _spender) constant\n  returns (uint256 remaining) {\n    return allowances [_owner][_spender];\n  }\n\n  \n  mapping (address => uint256) accounts;\n\n  \n  mapping (address => mapping (address => uint256)) private allowances;\n}\n\n\ncontract MSRiseToken is Token {\n    \n    address public owner;\n    \n     \n    uint256 tokenCount = 0;\n    \n    uint256 public bounce_reserve = 0;\n    uint256 public partner_reserve = 0;\n    uint256 public sale_reserve = 0;\n     \n    bool frozen = false;\n     \n    uint256 constant MAX_TOKEN_COUNT = 0xFFFFFFFFFFFFFFFFFFFFFFFFFFFFFFFFFFFFFFFFFFFFFFFFFFFFFFFFFFFFFFFF;\n     \n\tuint public constant _decimals = (10**18);\n\t\n     \n    modifier onlyOwner() {\n\t    require(owner == msg.sender);\n\t    _;\n\t}\n     \n     function MSRiseToken() {\n         owner = msg.sender;\n         \n         createTokens(5 * (10**25)); \n         \n         partner_reserve = 5 * (10**24); \n         bounce_reserve = 1 * (10**24); \n         \n         \n         sale_reserve = safeSub(tokenCount, safeAdd(partner_reserve, bounce_reserve));  \n         \n         \n     }\n     \n    function totalSupply () constant returns (uint256 _totalSupply) {\n        return tokenCount;\n    }\n     \n    function name () constant returns (string result) {\n\t\treturn \"MSRiseToken\";\n\t}\n\t\n\tfunction symbol () constant returns (string result) {\n\t\treturn \"MSRise\";\n\t}\n\t\n\tfunction decimals () constant returns (uint result) {\n        return 18;\n    }\n    \n    function transfer (address _to, uint256 _value) returns (bool success) {\n        if (frozen) return false;\n        else return Token.transfer (_to, _value);\n    }\n\n  \n  function transferFrom (address _from, address _to, uint256 _value)\n    returns (bool success) {\n    if (frozen) return false;\n    else return Token.transferFrom (_from, _to, _value);\n  }\n\n  \n  function approve (address _spender, uint256 _currentValue, uint256 _newValue)\n    returns (bool success) {\n    if (allowance (msg.sender, _spender) == _currentValue)\n      return approve (_spender, _newValue);\n    else return false;\n  }\n\n  function burnTokens (uint256 _value) returns (bool success) {\n    if (_value > accounts [msg.sender]) return false;\n    else if (_value > 0) {\n      accounts [msg.sender] = safeSub (accounts [msg.sender], _value);\n      tokenCount = safeSub (tokenCount, _value);\n      return true;\n    } else return true;\n  }\n\n\n  function createTokens (uint256 _value) returns (bool success) {\n    require (msg.sender == owner);\n\n    if (_value > 0) {\n      if (_value > safeSub (MAX_TOKEN_COUNT, tokenCount)) return false;\n      accounts [msg.sender] = safeAdd (accounts [msg.sender], _value);\n      tokenCount = safeAdd (tokenCount, _value);\n    }\n\n    return true;\n  }\n\n\n \n \n\n  function setOwner (address _newOwner) {\n    require (msg.sender == owner);\n\n    owner = _newOwner;\n  }\n\n  function freezeTransfers () {\n    require (msg.sender == owner);\n\n    if (!frozen) {\n      frozen = true;\n      Freeze ();\n    }\n  }\n\n\n  function unfreezeTransfers () {\n    require (msg.sender == owner);\n\n    if (frozen) {\n      frozen = false;\n      Unfreeze ();\n    }\n  }\n\n  event Freeze ();\n\n  event Unfreeze ();\n\n}\n\n\ncontract MSRiseTokenSale is MSRiseToken  {\n \n    address[] balancesKeys;\n    mapping (address => uint256) balances;\n \n    enum State { PRE_ICO, ICO, STOPPED }\n    \n    \n    \n    \n    State public currentState = State.STOPPED;\n\n    uint public tokenPrice = 50000000000000000;\n    uint public _minAmount = 0.05 ether;\n\t\n\tmapping (address => uint256) wallets;\n\n    address public beneficiary;\n\n\tuint256 public totalSold = 0;\n\tuint256 public totalBounces = 0;\n\t\n\tuint public current_percent = 15;\n\tuint public current_discount = 0;\n\n\tbool private _allowedTransfers = true;\n\t\n\tmodifier minAmount() {\n        require(msg.value == _minAmount);\n        _;\n    }\n    \n    modifier saleIsOn() {\n        require(currentState != State.STOPPED && totalSold < sale_reserve);\n        _;\n    }\n    \n    modifier isAllowedBounce() {\n        require(totalBounces < bounce_reserve);\n        _;\n    }\n    \n\tfunction TokenSale() {\n\t    owner = msg.sender;\n\t    beneficiary = msg.sender;\n\t}\n\n\t\n\t\n\t\n\tfunction setBouncePercent(uint _percent) public onlyOwner {\n\t    current_percent = _percent;\n\t}\n\t\n\tfunction setDiscountPercent(uint _discount) public onlyOwner {\n\t    current_discount = _discount;\n\t}\n\t\n\t\n\t\n\t\n\tfunction setState(State _newState) public onlyOwner {\n\t    currentState = _newState;\n\t}\n\t\n\t\n\t\n\tfunction setMinAmount(uint _new) public onlyOwner {\n\t    _minAmount = _new;\n\t}\n\t\n\t\n\t\n\tfunction allowTransfers() public onlyOwner {\n\t\t_allowedTransfers = true;\t\t\n\t}\n\t\n\t\n\t\n\tfunction stopTransfers() public onlyOwner {\n\t\t_allowedTransfers = false;\n\t}\n\t\n\t\n\t\n    function setBeneficiaryAddress(address _new) public onlyOwner {\n        beneficiary = _new;\n    }\n    \n    \n    \n    function setTokenPrice(uint _price) public onlyOwner {\n        tokenPrice = _price;\n    }\n    \n    \n    \n\tfunction transferPayable(address _address, uint _amount) private returns (bool) {\n\t    accounts[_address] = safeAdd(accounts[_address], _amount);\n\t    accounts[owner] = safeSub(accounts[owner], _amount);\n\t    totalSold = safeAdd(totalSold, _amount);\n\t    return true;\n\t}\n\t\n\t\n\t\n\t\n\tfunction get_tokens_count(uint _amount) private returns (uint) {\n\t    \n\t     uint currentPrice = tokenPrice;\n\t     uint tokens = safeDiv( safeMul(_amount, _decimals), currentPrice ) ;\n\t     totalSold = safeAdd(totalSold, tokens);\n\t     \n\t     if(currentState == State.PRE_ICO) {\n\t         tokens = safeAdd(tokens, get_bounce_tokens(tokens)); \n\t     } else if(currentState == State.ICO) {\n\t         tokens = safeAdd(tokens, get_discount_tokens(tokens)); \n\t     }\n\t     \n\t     return tokens;\n\t}\n\t\n\t\n\t\n\tfunction get_discount_tokens(uint _tokens) isAllowedBounce private returns (uint) {\n\t    \n\t    uint tokens = 0;\n\t    uint _current_percent = safeMul(current_discount, 100);\n\t    tokens = _tokens * _current_percent / 10000;\n\t    totalBounces = safeAdd(totalBounces, tokens);\n\t    return tokens;\n\t    \n\t}\n\t\n\t\n\t\n\tfunction get_bounce_tokens(uint _tokens) isAllowedBounce() private returns (uint) {\n\t    uint tokens = 0;\n\t    uint _current_percent = safeMul(current_percent, 100);\n\t    tokens = _tokens * _current_percent / 10000;\n\t    totalBounces = safeAdd(totalBounces, tokens);\n\t    return tokens;\n\t}\n\t\n\t\n\t\n\tfunction buy() public saleIsOn() minAmount() payable {\n\t    uint tokens;\n\t    tokens = get_tokens_count(msg.value);\n\t\trequire(transferPayable(msg.sender , tokens));\n\t\tif(_allowedTransfers) {\n\t\t\tbeneficiary.transfer(msg.value);\n\t\t\tbalances[msg.sender] = safeAdd(balances[msg.sender], msg.value);\n\t\t\tbalancesKeys.push(msg.sender);\n\t    }\n\t}\n\t\n\t\n\t\n\t\n\tfunction refund() onlyOwner {\n      for(uint i = 0 ; i < balancesKeys.length ; i++) {\n          address addr = balancesKeys[i]; \n          uint value = balances[addr];\n          balances[addr] = 0; \n          accounts[addr] = 0;\n          addr.transfer(value); \n      }\n    }\n\t\n\t\n\tfunction() external payable {\n      buy();\n    }\n\t\n    \n}",
  "sourcePath": "/home/XXX-1/smartrim-experiment/for-rlf/0x1044d3efad9a9bad4e77a1c0c86bc53636da0345/contracts/0x1044d3efad9a9bad4e77a1c0c86bc53636da0345.sol",
  "compiler": {
    "name": "solc",
    "version": "0.4.25+commit.59dbf8f1.Emscripten.clang"
  },
  "schemaVersion": "3.4.16",
  "updatedAt": "2025-08-14T03:47:01.622Z",
  "devdoc": {
    "methods": {}
  },
  "userdoc": {
    "methods": {}
  }
}