{
  "contractName": "SpaceToken",
  "abi": [
    {
      "constant": true,
      "inputs": [],
      "name": "promoCreatedCount",
      "outputs": [
        {
          "name": "",
          "type": "uint256"
        }
      ],
      "payable": false,
      "stateMutability": "view",
      "type": "function"
    },
    {
      "constant": true,
      "inputs": [],
      "name": "ceoAddress",
      "outputs": [
        {
          "name": "",
          "type": "address"
        }
      ],
      "payable": false,
      "stateMutability": "view",
      "type": "function"
    },
    {
      "constant": true,
      "inputs": [
        {
          "name": "",
          "type": "uint256"
        }
      ],
      "name": "personIndexToApproved",
      "outputs": [
        {
          "name": "",
          "type": "address"
        }
      ],
      "payable": false,
      "stateMutability": "view",
      "type": "function"
    },
    {
      "constant": true,
      "inputs": [],
      "name": "NAME",
      "outputs": [
        {
          "name": "",
          "type": "string"
        }
      ],
      "payable": false,
      "stateMutability": "view",
      "type": "function"
    },
    {
      "constant": true,
      "inputs": [
        {
          "name": "",
          "type": "uint256"
        }
      ],
      "name": "personIndexToOwner",
      "outputs": [
        {
          "name": "",
          "type": "address"
        }
      ],
      "payable": false,
      "stateMutability": "view",
      "type": "function"
    },
    {
      "constant": true,
      "inputs": [],
      "name": "cooAddress",
      "outputs": [
        {
          "name": "",
          "type": "address"
        }
      ],
      "payable": false,
      "stateMutability": "view",
      "type": "function"
    },
    {
      "constant": true,
      "inputs": [],
      "name": "SYMBOL",
      "outputs": [
        {
          "name": "",
          "type": "string"
        }
      ],
      "payable": false,
      "stateMutability": "view",
      "type": "function"
    },
    {
      "inputs": [],
      "payable": false,
      "stateMutability": "nonpayable",
      "type": "constructor"
    },
    {
      "anonymous": false,
      "inputs": [
        {
          "indexed": false,
          "name": "tokenId",
          "type": "uint256"
        },
        {
          "indexed": false,
          "name": "name",
          "type": "string"
        },
        {
          "indexed": false,
          "name": "owner",
          "type": "address"
        }
      ],
      "name": "Birth",
      "type": "event"
    },
    {
      "anonymous": false,
      "inputs": [
        {
          "indexed": false,
          "name": "tokenId",
          "type": "uint256"
        },
        {
          "indexed": false,
          "name": "oldPrice",
          "type": "uint256"
        },
        {
          "indexed": false,
          "name": "newPrice",
          "type": "uint256"
        },
        {
          "indexed": false,
          "name": "prevOwner",
          "type": "address"
        },
        {
          "indexed": false,
          "name": "winner",
          "type": "address"
        },
        {
          "indexed": false,
          "name": "name",
          "type": "string"
        }
      ],
      "name": "TokenSold",
      "type": "event"
    },
    {
      "anonymous": false,
      "inputs": [
        {
          "indexed": false,
          "name": "from",
          "type": "address"
        },
        {
          "indexed": false,
          "name": "to",
          "type": "address"
        },
        {
          "indexed": false,
          "name": "tokenId",
          "type": "uint256"
        }
      ],
      "name": "Transfer",
      "type": "event"
    },
    {
      "anonymous": false,
      "inputs": [
        {
          "indexed": true,
          "name": "owner",
          "type": "address"
        },
        {
          "indexed": true,
          "name": "approved",
          "type": "address"
        },
        {
          "indexed": false,
          "name": "tokenId",
          "type": "uint256"
        }
      ],
      "name": "Approval",
      "type": "event"
    },
    {
      "constant": false,
      "inputs": [
        {
          "name": "_to",
          "type": "address"
        },
        {
          "name": "_tokenId",
          "type": "uint256"
        }
      ],
      "name": "approve",
      "outputs": [],
      "payable": false,
      "stateMutability": "nonpayable",
      "type": "function"
    },
    {
      "constant": true,
      "inputs": [
        {
          "name": "_owner",
          "type": "address"
        }
      ],
      "name": "balanceOf",
      "outputs": [
        {
          "name": "balance",
          "type": "uint256"
        }
      ],
      "payable": false,
      "stateMutability": "view",
      "type": "function"
    },
    {
      "constant": false,
      "inputs": [
        {
          "name": "_owner",
          "type": "address"
        },
        {
          "name": "_name",
          "type": "string"
        },
        {
          "name": "_price",
          "type": "uint256"
        }
      ],
      "name": "createPromoPerson",
      "outputs": [],
      "payable": false,
      "stateMutability": "nonpayable",
      "type": "function"
    },
    {
      "constant": false,
      "inputs": [
        {
          "name": "_name",
          "type": "string"
        }
      ],
      "name": "createContractPerson",
      "outputs": [],
      "payable": false,
      "stateMutability": "nonpayable",
      "type": "function"
    },
    {
      "constant": true,
      "inputs": [
        {
          "name": "_tokenId",
          "type": "uint256"
        }
      ],
      "name": "getPerson",
      "outputs": [
        {
          "name": "personName",
          "type": "string"
        },
        {
          "name": "sellingPrice",
          "type": "uint256"
        },
        {
          "name": "owner",
          "type": "address"
        }
      ],
      "payable": false,
      "stateMutability": "view",
      "type": "function"
    },
    {
      "constant": true,
      "inputs": [],
      "name": "implementsERC721",
      "outputs": [
        {
          "name": "",
          "type": "bool"
        }
      ],
      "payable": false,
      "stateMutability": "pure",
      "type": "function"
    },
    {
      "constant": true,
      "inputs": [],
      "name": "name",
      "outputs": [
        {
          "name": "",
          "type": "string"
        }
      ],
      "payable": false,
      "stateMutability": "pure",
      "type": "function"
    },
    {
      "constant": true,
      "inputs": [
        {
          "name": "_tokenId",
          "type": "uint256"
        }
      ],
      "name": "ownerOf",
      "outputs": [
        {
          "name": "owner",
          "type": "address"
        }
      ],
      "payable": false,
      "stateMutability": "view",
      "type": "function"
    },
    {
      "constant": false,
      "inputs": [
        {
          "name": "_to",
          "type": "address"
        }
      ],
      "name": "payout",
      "outputs": [],
      "payable": false,
      "stateMutability": "nonpayable",
      "type": "function"
    },
    {
      "constant": false,
      "inputs": [
        {
          "name": "_tokenId",
          "type": "uint256"
        }
      ],
      "name": "purchase",
      "outputs": [],
      "payable": true,
      "stateMutability": "payable",
      "type": "function"
    },
    {
      "constant": true,
      "inputs": [
        {
          "name": "_tokenId",
          "type": "uint256"
        }
      ],
      "name": "priceOf",
      "outputs": [
        {
          "name": "price",
          "type": "uint256"
        }
      ],
      "payable": false,
      "stateMutability": "view",
      "type": "function"
    },
    {
      "constant": false,
      "inputs": [
        {
          "name": "_newCEO",
          "type": "address"
        }
      ],
      "name": "setCEO",
      "outputs": [],
      "payable": false,
      "stateMutability": "nonpayable",
      "type": "function"
    },
    {
      "constant": false,
      "inputs": [
        {
          "name": "_newCOO",
          "type": "address"
        }
      ],
      "name": "setCOO",
      "outputs": [],
      "payable": false,
      "stateMutability": "nonpayable",
      "type": "function"
    },
    {
      "constant": true,
      "inputs": [],
      "name": "symbol",
      "outputs": [
        {
          "name": "",
          "type": "string"
        }
      ],
      "payable": false,
      "stateMutability": "pure",
      "type": "function"
    },
    {
      "constant": false,
      "inputs": [
        {
          "name": "_tokenId",
          "type": "uint256"
        }
      ],
      "name": "takeOwnership",
      "outputs": [],
      "payable": false,
      "stateMutability": "nonpayable",
      "type": "function"
    },
    {
      "constant": true,
      "inputs": [
        {
          "name": "_owner",
          "type": "address"
        }
      ],
      "name": "tokensOfOwner",
      "outputs": [
        {
          "name": "ownerTokens",
          "type": "uint256[]"
        }
      ],
      "payable": false,
      "stateMutability": "view",
      "type": "function"
    },
    {
      "constant": true,
      "inputs": [],
      "name": "totalSupply",
      "outputs": [
        {
          "name": "total",
          "type": "uint256"
        }
      ],
      "payable": false,
      "stateMutability": "view",
      "type": "function"
    },
    {
      "constant": false,
      "inputs": [
        {
          "name": "_to",
          "type": "address"
        },
        {
          "name": "_tokenId",
          "type": "uint256"
        }
      ],
      "name": "transfer",
      "outputs": [],
      "payable": false,
      "stateMutability": "nonpayable",
      "type": "function"
    },
    {
      "constant": false,
      "inputs": [
        {
          "name": "_from",
          "type": "address"
        },
        {
          "name": "_to",
          "type": "address"
        },
        {
          "name": "_tokenId",
          "type": "uint256"
        }
      ],
      "name": "transferFrom",
      "outputs": [],
      "payable": false,
      "stateMutability": "nonpayable",
      "type": "function"
    }
  ],
  "bytecode": "0x608060405266071afd498d000060005566be78bd4c57d0006001556707d72165f25ed00060025534801561003257600080fd5b5033600760006101000a81548173ffffffffffffffffffffffffffffffffffffffff021916908373ffffffffffffffffffffffffffffffffffffffff16021790555033600860006101000a81548173ffffffffffffffffffffffffffffffffffffffff021916908373ffffffffffffffffffffffffffffffffffffffff1602179055506120a4806100c46000396000f300608060405260043610610154576000357c0100000000000000000000000000000000000000000000000000000000900463ffffffff16806305e455461461015957806306fdde0314610184578063095ea7b3146102145780630a0f8168146102615780630b7e9c44146102b85780631051db34146102fb57806318160ddd1461032a57806323b872dd14610355578063246982c4146103c257806327d7874c146104a25780632ba73c15146104e557806342287b66146105285780634955f280146105bb5780636352211e1461062457806370a08231146106915780638462151c146106e85780639433a81e1461078057806395d89b41146107ed578063a3f4df7e1461087d578063a9059cbb1461090d578063aa1d98af1461095a578063b047fb50146109c7578063b2e6ceeb14610a1e578063b9186d7d14610a4b578063efef39a114610a8c578063f76f8d7814610aac575b600080fd5b34801561016557600080fd5b5061016e610b3c565b6040518082815260200191505060405180910390f35b34801561019057600080fd5b50610199610b42565b6040518080602001828103825283818151815260200191508051906020019080838360005b838110156101d95780820151818401526020810190506101be565b50505050905090810190601f1680156102065780820380516001836020036101000a031916815260200191505b509250505060405180910390f35b34801561022057600080fd5b5061025f600480360381019080803573ffffffffffffffffffffffffffffffffffffffff16906020019092919080359060200190929190505050610b7f565b005b34801561026d57600080fd5b50610276610c4f565b604051808273ffffffffffffffffffffffffffffffffffffffff1673ffffffffffffffffffffffffffffffffffffffff16815260200191505060405180910390f35b3480156102c457600080fd5b506102f9600480360381019080803573ffffffffffffffffffffffffffffffffffffffff169060200190929190505050610c75565b005b34801561030757600080fd5b50610310610d35565b604051808215151515815260200191505060405180910390f35b34801561033657600080fd5b5061033f610d3e565b6040518082815260200191505060405180910390f35b34801561036157600080fd5b506103c0600480360381019080803573ffffffffffffffffffffffffffffffffffffffff169060200190929190803573ffffffffffffffffffffffffffffffffffffffff16906020019092919080359060200190929190505050610d4b565b005b3480156103ce57600080fd5b506103ed60048036038101908080359060200190929190505050610d99565b60405180806020018481526020018373ffffffffffffffffffffffffffffffffffffffff1673ffffffffffffffffffffffffffffffffffffffff168152602001828103825285818151815260200191508051906020019080838360005b8381101561046557808201518184015260208101905061044a565b50505050905090810190601f1680156104925780820380516001836020036101000a031916815260200191505b5094505050505060405180910390f35b3480156104ae57600080fd5b506104e3600480360381019080803573ffffffffffffffffffffffffffffffffffffffff169060200190929190505050610eae565b005b3480156104f157600080fd5b50610526600480360381019080803573ffffffffffffffffffffffffffffffffffffffff169060200190929190505050610f8a565b005b34801561053457600080fd5b506105b9600480360381019080803573ffffffffffffffffffffffffffffffffffffffff169060200190929190803590602001908201803590602001908080601f016020809104026020016040519081016040528093929190818152602001838380828437820191505050505050919291929080359060200190929190505050611066565b005b3480156105c757600080fd5b50610622600480360381019080803590602001908201803590602001908080601f0160208091040260200160405190810160405280939291908181526020018383808284378201915050505050509192919290505050611167565b005b34801561063057600080fd5b5061064f600480360381019080803590602001909291905050506111d3565b604051808273ffffffffffffffffffffffffffffffffffffffff1673ffffffffffffffffffffffffffffffffffffffff16815260200191505060405180910390f35b34801561069d57600080fd5b506106d2600480360381019080803573ffffffffffffffffffffffffffffffffffffffff16906020019092919050505061124c565b6040518082815260200191505060405180910390f35b3480156106f457600080fd5b50610729600480360381019080803573ffffffffffffffffffffffffffffffffffffffff169060200190929190505050611295565b6040518080602001828103825283818151815260200191508051906020019060200280838360005b8381101561076c578082015181840152602081019050610751565b505050509050019250505060405180910390f35b34801561078c57600080fd5b506107ab600480360381019080803590602001909291905050506113e2565b604051808273ffffffffffffffffffffffffffffffffffffffff1673ffffffffffffffffffffffffffffffffffffffff16815260200191505060405180910390f35b3480156107f957600080fd5b50610802611415565b6040518080602001828103825283818151815260200191508051906020019080838360005b83811015610842578082015181840152602081019050610827565b50505050905090810190601f16801561086f5780820380516001836020036101000a031916815260200191505b509250505060405180910390f35b34801561088957600080fd5b50610892611452565b6040518080602001828103825283818151815260200191508051906020019080838360005b838110156108d25780820151818401526020810190506108b7565b50505050905090810190601f1680156108ff5780820380516001836020036101000a031916815260200191505b509250505060405180910390f35b34801561091957600080fd5b50610958600480360381019080803573ffffffffffffffffffffffffffffffffffffffff1690602001909291908035906020019092919050505061148b565b005b34801561096657600080fd5b50610985600480360381019080803590602001909291905050506114c3565b604051808273ffffffffffffffffffffffffffffffffffffffff1673ffffffffffffffffffffffffffffffffffffffff16815260200191505060405180910390f35b3480156109d357600080fd5b506109dc6114f6565b604051808273ffffffffffffffffffffffffffffffffffffffff1673ffffffffffffffffffffffffffffffffffffffff16815260200191505060405180910390f35b348015610a2a57600080fd5b50610a496004803603810190808035906020019092919050505061151c565b005b348015610a5757600080fd5b50610a7660048036038101908080359060200190929190505050611591565b6040518082815260200191505060405180910390f35b610aaa600480360381019080803590602001909291905050506115ae565b005b348015610ab857600080fd5b50610ac1611967565b6040518080602001828103825283818151815260200191508051906020019080838360005b83811015610b01578082015181840152602081019050610ae6565b50505050905090810190601f168015610b2e5780820380516001836020036101000a031916815260200191505b509250505060405180910390f35b60095481565b60606040805190810160405280600a81526020017f4574686572537061636500000000000000000000000000000000000000000000815250905090565b610b8933826119a0565b1515610b9457600080fd5b816005600083815260200190815260200160002060006101000a81548173ffffffffffffffffffffffffffffffffffffffff021916908373ffffffffffffffffffffffffffffffffffffffff1602179055508173ffffffffffffffffffffffffffffffffffffffff163373ffffffffffffffffffffffffffffffffffffffff167f8c5be1e5ebec7d5bd14f71427d1e84f3dd0314c0f7b2291e5b200ac8c7c3b925836040518082815260200191505060405180910390a35050565b600760009054906101000a900473ffffffffffffffffffffffffffffffffffffffff1681565b600760009054906101000a900473ffffffffffffffffffffffffffffffffffffffff1673ffffffffffffffffffffffffffffffffffffffff163373ffffffffffffffffffffffffffffffffffffffff161480610d1e5750600860009054906101000a900473ffffffffffffffffffffffffffffffffffffffff1673ffffffffffffffffffffffffffffffffffffffff163373ffffffffffffffffffffffffffffffffffffffff16145b1515610d2957600080fd5b610d3281611a0c565b50565b60006001905090565b6000600a80549050905090565b610d5583826119a0565b1515610d6057600080fd5b610d6a8282611b28565b1515610d7557600080fd5b610d7e82611b94565b1515610d8957600080fd5b610d94838383611bcd565b505050565b60606000806000600a85815481101515610daf57fe5b906000526020600020019050806000018054600181600116156101000203166002900480601f016020809104026020016040519081016040528092919081815260200182805460018160011615610100020316600290048015610e535780601f10610e2857610100808354040283529160200191610e53565b820191906000526020600020905b815481529060010190602001808311610e3657829003601f168201915b50505050509350600660008681526020019081526020016000205492506003600086815260200190815260200160002060009054906101000a900473ffffffffffffffffffffffffffffffffffffffff169150509193909250565b600760009054906101000a900473ffffffffffffffffffffffffffffffffffffffff1673ffffffffffffffffffffffffffffffffffffffff163373ffffffffffffffffffffffffffffffffffffffff16141515610f0a57600080fd5b600073ffffffffffffffffffffffffffffffffffffffff168173ffffffffffffffffffffffffffffffffffffffff1614151515610f4657600080fd5b80600760006101000a81548173ffffffffffffffffffffffffffffffffffffffff021916908373ffffffffffffffffffffffffffffffffffffffff16021790555050565b600760009054906101000a900473ffffffffffffffffffffffffffffffffffffffff1673ffffffffffffffffffffffffffffffffffffffff163373ffffffffffffffffffffffffffffffffffffffff16141515610fe657600080fd5b600073ffffffffffffffffffffffffffffffffffffffff168173ffffffffffffffffffffffffffffffffffffffff161415151561102257600080fd5b80600860006101000a81548173ffffffffffffffffffffffffffffffffffffffff021916908373ffffffffffffffffffffffffffffffffffffffff16021790555050565b6000600860009054906101000a900473ffffffffffffffffffffffffffffffffffffffff1673ffffffffffffffffffffffffffffffffffffffff163373ffffffffffffffffffffffffffffffffffffffff161415156110c457600080fd5b6113886009541015156110d657600080fd5b839050600073ffffffffffffffffffffffffffffffffffffffff168173ffffffffffffffffffffffffffffffffffffffff16141561113457600860009054906101000a900473ffffffffffffffffffffffffffffffffffffffff1690505b6000821115156111445760005491505b600960008154809291906001019190505550611161838284611dcf565b50505050565b600860009054906101000a900473ffffffffffffffffffffffffffffffffffffffff1673ffffffffffffffffffffffffffffffffffffffff163373ffffffffffffffffffffffffffffffffffffffff161415156111c357600080fd5b6111d08130600054611dcf565b50565b60006003600083815260200190815260200160002060009054906101000a900473ffffffffffffffffffffffffffffffffffffffff169050600073ffffffffffffffffffffffffffffffffffffffff168173ffffffffffffffffffffffffffffffffffffffff161415151561124757600080fd5b919050565b6000600460008373ffffffffffffffffffffffffffffffffffffffff1673ffffffffffffffffffffffffffffffffffffffff168152602001908152602001600020549050919050565b60606000606060008060006112a98761124c565b945060008514156112ec5760006040519080825280602002602001820160405280156112e45781602001602082028038833980820191505090505b5095506113d8565b8460405190808252806020026020018201604052801561131b5781602001602082028038833980820191505090505b509350611326610d3e565b925060009150600090505b82811115156113d4578673ffffffffffffffffffffffffffffffffffffffff166003600083815260200190815260200160002060009054906101000a900473ffffffffffffffffffffffffffffffffffffffff1673ffffffffffffffffffffffffffffffffffffffff1614156113c7578084838151811015156113b057fe5b906020019060200201818152505081806001019250505b8080600101915050611331565b8395505b5050505050919050565b60056020528060005260406000206000915054906101000a900473ffffffffffffffffffffffffffffffffffffffff1681565b60606040805190810160405280600a81526020017f5370616365546f6b656e00000000000000000000000000000000000000000000815250905090565b6040805190810160405280600a81526020017f457468657253706163650000000000000000000000000000000000000000000081525081565b61149533826119a0565b15156114a057600080fd5b6114a982611b94565b15156114b457600080fd5b6114bf338383611bcd565b5050565b60036020528060005260406000206000915054906101000a900473ffffffffffffffffffffffffffffffffffffffff1681565b600860009054906101000a900473ffffffffffffffffffffffffffffffffffffffff1681565b6000803391506003600084815260200190815260200160002060009054906101000a900473ffffffffffffffffffffffffffffffffffffffff16905061156182611b94565b151561156c57600080fd5b6115768284611b28565b151561158157600080fd5b61158c818385611bcd565b505050565b600060066000838152602001908152602001600020549050919050565b60008060008060006003600087815260200190815260200160002060009054906101000a900473ffffffffffffffffffffffffffffffffffffffff169450339350600660008781526020019081526020016000205492508373ffffffffffffffffffffffffffffffffffffffff168573ffffffffffffffffffffffffffffffffffffffff161415151561164057600080fd5b61164984611b94565b151561165457600080fd5b82341015151561166357600080fd5b61167861167184605e611f50565b6064611f8b565b91506116843484611fa6565b90506001548310156116c1576116a561169e8460c8611f50565b605e611f8b565b600660008881526020019081526020016000208190555061172a565b6002548310156116fc576116e06116d9846078611f50565b605e611f8b565b6006600088815260200190815260200160002081905550611729565b61171161170a846073611f50565b605e611f8b565b60066000888152602001908152602001600020819055505b5b611735858588611bcd565b3073ffffffffffffffffffffffffffffffffffffffff168573ffffffffffffffffffffffffffffffffffffffff161415156117b2578473ffffffffffffffffffffffffffffffffffffffff166108fc839081150290604051600060405180830381858888f193505050501580156117b0573d6000803e3d6000fd5b505b7e8201e7bcbf010c2c07de59d6e97cb7e3cf67a46125c49cbc89b9d2cde1f48f8684600660008a8152602001908152602001600020548888600a8c8154811015156117f957fe5b90600052602060002001600001604051808781526020018681526020018581526020018473ffffffffffffffffffffffffffffffffffffffff1673ffffffffffffffffffffffffffffffffffffffff1681526020018373ffffffffffffffffffffffffffffffffffffffff1673ffffffffffffffffffffffffffffffffffffffff168152602001806020018281038252838181546001816001161561010002031660029004815260200191508054600181600116156101000203166002900480156119055780601f106118da57610100808354040283529160200191611905565b820191906000526020600020905b8154815290600101906020018083116118e857829003601f168201915b505097505050505050505060405180910390a13373ffffffffffffffffffffffffffffffffffffffff166108fc829081150290604051600060405180830381858888f1935050505015801561195e573d6000803e3d6000fd5b50505050505050565b6040805190810160405280600a81526020017f5370616365546f6b656e0000000000000000000000000000000000000000000081525081565b60006003600083815260200190815260200160002060009054906101000a900473ffffffffffffffffffffffffffffffffffffffff1673ffffffffffffffffffffffffffffffffffffffff168373ffffffffffffffffffffffffffffffffffffffff1614905092915050565b600073ffffffffffffffffffffffffffffffffffffffff168173ffffffffffffffffffffffffffffffffffffffff161415611ac657600760009054906101000a900473ffffffffffffffffffffffffffffffffffffffff1673ffffffffffffffffffffffffffffffffffffffff166108fc3073ffffffffffffffffffffffffffffffffffffffff16319081150290604051600060405180830381858888f19350505050158015611ac0573d6000803e3d6000fd5b50611b25565b8073ffffffffffffffffffffffffffffffffffffffff166108fc3073ffffffffffffffffffffffffffffffffffffffff16319081150290604051600060405180830381858888f19350505050158015611b23573d6000803e3d6000fd5b505b50565b60008273ffffffffffffffffffffffffffffffffffffffff166005600084815260200190815260200160002060009054906101000a900473ffffffffffffffffffffffffffffffffffffffff1673ffffffffffffffffffffffffffffffffffffffff1614905092915050565b60008073ffffffffffffffffffffffffffffffffffffffff168273ffffffffffffffffffffffffffffffffffffffff1614159050919050565b600460008373ffffffffffffffffffffffffffffffffffffffff1673ffffffffffffffffffffffffffffffffffffffff16815260200190815260200160002060008154809291906001019190505550816003600083815260200190815260200160002060006101000a81548173ffffffffffffffffffffffffffffffffffffffff021916908373ffffffffffffffffffffffffffffffffffffffff160217905550600073ffffffffffffffffffffffffffffffffffffffff168373ffffffffffffffffffffffffffffffffffffffff16141515611d2b57600460008473ffffffffffffffffffffffffffffffffffffffff1673ffffffffffffffffffffffffffffffffffffffff16815260200190815260200160002060008154809291906001900391905055506005600082815260200190815260200160002060006101000a81549073ffffffffffffffffffffffffffffffffffffffff02191690555b7fddf252ad1be2c89b69c2b068fc378daa952ba7f163c4a11628f55a4df523b3ef838383604051808473ffffffffffffffffffffffffffffffffffffffff1673ffffffffffffffffffffffffffffffffffffffff1681526020018373ffffffffffffffffffffffffffffffffffffffff1673ffffffffffffffffffffffffffffffffffffffff168152602001828152602001935050505060405180910390a1505050565b611dd7611fbf565b60006020604051908101604052808681525091506001600a839080600181540180825580915050906001820390600052602060002001600090919290919091506000820151816000019080519060200190611e33929190611fd3565b5050500390508063ffffffff1681141515611e4d57600080fd5b7fb3b0cf861f168bcdb275c69da97b2543631552ba562628aa3c7317d4a6089ef281868660405180848152602001806020018373ffffffffffffffffffffffffffffffffffffffff1673ffffffffffffffffffffffffffffffffffffffff168152602001828103825284818151815260200191508051906020019080838360005b83811015611ee9578082015181840152602081019050611ece565b50505050905090810190601f168015611f165780820380516001836020036101000a031916815260200191505b5094505050505060405180910390a1826006600083815260200190815260200160002081905550611f4960008583611bcd565b5050505050565b6000806000841415611f655760009150611f84565b8284029050828482811515611f7657fe5b04141515611f8057fe5b8091505b5092915050565b6000808284811515611f9957fe5b0490508091505092915050565b6000828211151515611fb457fe5b818303905092915050565b602060405190810160405280606081525090565b828054600181600116156101000203166002900490600052602060002090601f016020900481019282601f1061201457805160ff1916838001178555612042565b82800160010185558215612042579182015b82811115612041578251825591602001919060010190612026565b5b50905061204f9190612053565b5090565b61207591905b80821115612071576000816000905550600101612059565b5090565b905600a165627a7a723058201bb5e3fe4e9b45b8e99c2b0a70cf9bd1547d41dc24b0c3c834734bc25b85a9910029",
  "source": " \n \n \n \n\n\ncontract ERC721 {\n  \n  function approve(address _to, uint256 _tokenId) public;\n  function balanceOf(address _owner) public view returns (uint256 balance);\n  function implementsERC721() public pure returns (bool);\n  function ownerOf(uint256 _tokenId) public view returns (address addr);\n  function takeOwnership(uint256 _tokenId) public;\n  function totalSupply() public view returns (uint256 total);\n  function transferFrom(address _from, address _to, uint256 _tokenId) public;\n  function transfer(address _to, uint256 _tokenId) public;\n \n  event Transfer(address indexed from, address indexed to, uint256 tokenId);\n  event Approval(address indexed owner, address indexed approved, uint256 tokenId);\n \n  \n  \n  \n  \n  \n}\n \n \ncontract SpaceToken is ERC721 {\n \n  \n \n  \n  event Birth(uint256 tokenId, string name, address owner);\n \n  \n  event TokenSold(uint256 tokenId, uint256 oldPrice, uint256 newPrice, address prevOwner, address winner, string name);\n \n  \n  \n  event Transfer(address from, address to, uint256 tokenId);\n \n  \n \n  \n  string public constant NAME = \"EtherSpace\"; \n  string public constant SYMBOL = \"SpaceToken\"; \n \n  uint256 private startingPrice = 0.002 ether;\n  uint256 private constant PROMO_CREATION_LIMIT = 5000;\n  uint256 private firstStepLimit =  0.053613 ether;\n  uint256 private secondStepLimit = 0.564957 ether;\n \n  \n \n  \n  \n  mapping (uint256 => address) public personIndexToOwner;\n \n  \n  \n  mapping (address => uint256) private ownershipTokenCount;\n \n  \n  \n  \n  mapping (uint256 => address) public personIndexToApproved;\n \n  \n  mapping (uint256 => uint256) private personIndexToPrice;\n \n  \n  address public ceoAddress;\n  address public cooAddress;\n \n  uint256 public promoCreatedCount;\n \n  \n  struct Person {\n    string name;\n  }\n \n  Person[] private persons;\n \n  \n  \n  modifier onlyCEO() {\n    require(msg.sender == ceoAddress);\n    _;\n  }\n \n  \n  modifier onlyCOO() {\n    require(msg.sender == cooAddress);\n    _;\n  }\n \n  \n  modifier onlyCLevel() {\n    require(\n      msg.sender == ceoAddress ||\n      msg.sender == cooAddress\n    );\n    _;\n  }\n \n  \n  function SpaceToken() public {\n    ceoAddress = msg.sender;\n    cooAddress = msg.sender;\n  }\n \n  \n  \n  \n  \n  \n  \n  function approve(\n    address _to,\n    uint256 _tokenId\n  ) public {\n    \n    require(_owns(msg.sender, _tokenId));\n \n    personIndexToApproved[_tokenId] = _to;\n \n    Approval(msg.sender, _to, _tokenId);\n  }\n \n  \n  \n  \n  function balanceOf(address _owner) public view returns (uint256 balance) {\n    return ownershipTokenCount[_owner];\n  }\n \n  \n  function createPromoPerson(address _owner, string _name, uint256 _price) public onlyCOO {\n    require(promoCreatedCount < PROMO_CREATION_LIMIT);\n \n    address personOwner = _owner;\n    if (personOwner == address(0)) {\n      personOwner = cooAddress;\n    }\n \n    if (_price <= 0) {\n      _price = startingPrice;\n    }\n \n    promoCreatedCount++;\n    _createPerson(_name, personOwner, _price);\n  }\n \n  \n  function createContractPerson(string _name) public onlyCOO {\n    _createPerson(_name, address(this), startingPrice);\n  }\n \n  \n  \n  function getPerson(uint256 _tokenId) public view returns (\n    string personName,\n    uint256 sellingPrice,\n    address owner\n  ) {\n    Person storage person = persons[_tokenId];\n    personName = person.name;\n    sellingPrice = personIndexToPrice[_tokenId];\n    owner = personIndexToOwner[_tokenId];\n  }\n \n  function implementsERC721() public pure returns (bool) {\n    return true;\n  }\n \n  \n  function name() public pure returns (string) {\n    return NAME;\n  }\n \n  \n  \n  \n  function ownerOf(uint256 _tokenId)\n    public\n    view\n    returns (address owner)\n  {\n    owner = personIndexToOwner[_tokenId];\n    require(owner != address(0));\n  }\n \n  function payout(address _to) public onlyCLevel {\n    _payout(_to);\n  }\n \n  \n  function purchase(uint256 _tokenId) public payable {\n    address oldOwner = personIndexToOwner[_tokenId];\n    address newOwner = msg.sender;\n \n    uint256 sellingPrice = personIndexToPrice[_tokenId];\n \n    \n    require(oldOwner != newOwner);\n \n    \n    require(_addressNotNull(newOwner));\n \n    \n    require(msg.value >= sellingPrice);\n \n    uint256 payment = uint256(SafeMath.div(SafeMath.mul(sellingPrice, 94), 100));\n    uint256 purchaseExcess = SafeMath.sub(msg.value, sellingPrice);\n \n    \n    if (sellingPrice < firstStepLimit) {\n      \n      personIndexToPrice[_tokenId] = SafeMath.div(SafeMath.mul(sellingPrice, 200), 94);\n    } else if (sellingPrice < secondStepLimit) {\n      \n      personIndexToPrice[_tokenId] = SafeMath.div(SafeMath.mul(sellingPrice, 120), 94);\n    } else {\n      \n      personIndexToPrice[_tokenId] = SafeMath.div(SafeMath.mul(sellingPrice, 115), 94);\n    }\n \n    _transfer(oldOwner, newOwner, _tokenId);\n \n    \n    if (oldOwner != address(this)) {\n      oldOwner.transfer(payment); \n    }\n \n    TokenSold(_tokenId, sellingPrice, personIndexToPrice[_tokenId], oldOwner, newOwner, persons[_tokenId].name);\n \n    msg.sender.transfer(purchaseExcess);\n  }\n \n  function priceOf(uint256 _tokenId) public view returns (uint256 price) {\n    return personIndexToPrice[_tokenId];\n  }\n \n  \n  \n  function setCEO(address _newCEO) public onlyCEO {\n    require(_newCEO != address(0));\n \n    ceoAddress = _newCEO;\n  }\n \n  \n  \n  function setCOO(address _newCOO) public onlyCEO {\n    require(_newCOO != address(0));\n \n    cooAddress = _newCOO;\n  }\n \n  \n  function symbol() public pure returns (string) {\n    return SYMBOL;\n  }\n \n  \n  \n  \n  function takeOwnership(uint256 _tokenId) public {\n    address newOwner = msg.sender;\n    address oldOwner = personIndexToOwner[_tokenId];\n \n    \n    require(_addressNotNull(newOwner));\n \n    \n    require(_approved(newOwner, _tokenId));\n \n    _transfer(oldOwner, newOwner, _tokenId);\n  }\n \n  \n  \n  \n  \n  \n  function tokensOfOwner(address _owner) public view returns(uint256[] ownerTokens) {\n    uint256 tokenCount = balanceOf(_owner);\n    if (tokenCount == 0) {\n        \n      return new uint256[](0);\n    } else {\n      uint256[] memory result = new uint256[](tokenCount);\n      uint256 totalPersons = totalSupply();\n      uint256 resultIndex = 0;\n \n      uint256 personId;\n      for (personId = 0; personId <= totalPersons; personId++) {\n        if (personIndexToOwner[personId] == _owner) {\n          result[resultIndex] = personId;\n          resultIndex++;\n        }\n      }\n      return result;\n    }\n  }\n \n  \n  \n  function totalSupply() public view returns (uint256 total) {\n    return persons.length;\n  }\n \n  \n  \n  \n  \n  function transfer(\n    address _to,\n    uint256 _tokenId\n  ) public {\n    require(_owns(msg.sender, _tokenId));\n    require(_addressNotNull(_to));\n \n    _transfer(msg.sender, _to, _tokenId);\n  }\n \n  \n  \n  \n  \n  \n  function transferFrom(\n    address _from,\n    address _to,\n    uint256 _tokenId\n  ) public {\n    require(_owns(_from, _tokenId));\n    require(_approved(_to, _tokenId));\n    require(_addressNotNull(_to));\n \n    _transfer(_from, _to, _tokenId);\n  }\n \n  \n  \n  function _addressNotNull(address _to) private pure returns (bool) {\n    return _to != address(0);\n  }\n \n  \n  function _approved(address _to, uint256 _tokenId) private view returns (bool) {\n    return personIndexToApproved[_tokenId] == _to;\n  }\n \n  \n  function _createPerson(string _name, address _owner, uint256 _price) private {\n    Person memory _person = Person({\n      name: _name\n    });\n    uint256 newPersonId = persons.push(_person) - 1;\n \n    \n    \n    require(newPersonId == uint256(uint32(newPersonId)));\n \n    Birth(newPersonId, _name, _owner);\n \n    personIndexToPrice[newPersonId] = _price;\n \n    \n    \n    _transfer(address(0), _owner, newPersonId);\n  }\n \n  \n  function _owns(address claimant, uint256 _tokenId) private view returns (bool) {\n    return claimant == personIndexToOwner[_tokenId];\n  }\n \n  \n  function _payout(address _to) private {\n    if (_to == address(0)) {\n      ceoAddress.transfer(this.balance);\n    } else {\n      _to.transfer(this.balance);\n    }\n  }\n \n  \n  function _transfer(address _from, address _to, uint256 _tokenId) private {\n    \n    ownershipTokenCount[_to]++;\n    \n    personIndexToOwner[_tokenId] = _to;\n \n    \n    if (_from != address(0)) {\n      ownershipTokenCount[_from]--;\n      \n      delete personIndexToApproved[_tokenId];\n    }\n \n    \n    Transfer(_from, _to, _tokenId);\n  }\n}\nlibrary SafeMath {\n \n  \n  function mul(uint256 a, uint256 b) internal pure returns (uint256) {\n    if (a == 0) {\n      return 0;\n    }\n    uint256 c = a * b;\n    assert(c / a == b);\n    return c;\n  }\n \n  \n  function div(uint256 a, uint256 b) internal pure returns (uint256) {\n    \n    uint256 c = a / b;\n    \n    return c;\n  }\n \n  \n  function sub(uint256 a, uint256 b) internal pure returns (uint256) {\n    assert(b <= a);\n    return a - b;\n  }\n \n  \n  function add(uint256 a, uint256 b) internal pure returns (uint256) {\n    uint256 c = a + b;\n    assert(c >= a);\n    return c;\n  }\n}",
  "sourcePath": "/home/XXX-1/smartrim-experiment/for-rlf/0xe91125f34fcef2854a890dcf02b74cb2dcbe377f/contracts/0xe91125f34fcef2854a890dcf02b74cb2dcbe377f.sol",
  "compiler": {
    "name": "solc",
    "version": "0.4.25+commit.59dbf8f1.Emscripten.clang"
  },
  "schemaVersion": "3.4.16",
  "updatedAt": "2025-08-14T04:09:26.373Z",
  "networkType": "ethereum",
  "devdoc": {
    "methods": {}
  },
  "userdoc": {
    "methods": {}
  }
}