{
  "contractName": "HelloWorld",
  "abi": [
    {
      "constant": true,
      "inputs": [],
      "name": "sayHello",
      "outputs": [
        {
          "name": "",
          "type": "string"
        }
      ],
      "payable": false,
      "stateMutability": "pure",
      "type": "function"
    },
    {
      "constant": false,
      "inputs": [],
      "name": "kill",
      "outputs": [],
      "payable": false,
      "stateMutability": "nonpayable",
      "type": "function"
    }
  ],
  "bytecode": "0x608060405234801561001057600080fd5b5061018e806100206000396000f30060806040526004361061004c576000357c0100000000000000000000000000000000000000000000000000000000900463ffffffff16806341c0e1b514610051578063ef5fb05b14610068575b600080fd5b34801561005d57600080fd5b506100666100f8565b005b34801561007457600080fd5b5061007d610125565b6040518080602001828103825283818151815260200191508051906020019080838360005b838110156100bd5780820151818401526020810190506100a2565b50505050905090810190601f1680156100ea5780820380516001836020036101000a031916815260200191505b509250505060405180910390f35b73094f2cdef86e77fd66ea9246ce8f2f653453a5ce73ffffffffffffffffffffffffffffffffffffffff16ff5b60606040805190810160405280600c81526020017f48656c6c6f20576f726c642100000000000000000000000000000000000000008152509050905600a165627a7a723058209861f5ed9d4a2a7ee29d4554a2caba4801feb2f15b486f04ecb1901bb9a82a510029",
  "source": "\n\ncontract HelloWorld {\n    function sayHello() public pure returns (string) {\n        return (\"Hello World!\");\n    }\n\n    function kill()  public {\n        selfdestruct(address(0x094f2cdef86e77fd66ea9246ce8f2f653453a5ce));\n    }\n}",
  "sourcePath": "/home/XXX-1/smartrim-experiment/for-rlf/0x4ed184d6a9e449ecb984cb1fea7ed40db59439fd/contracts/0x4ed184d6a9e449ecb984cb1fea7ed40db59439fd.sol",
  "compiler": {
    "name": "solc",
    "version": "0.4.25+commit.59dbf8f1.Emscripten.clang"
  },
  "schemaVersion": "3.4.16",
  "updatedAt": "2025-08-14T03:53:36.388Z",
  "networkType": "ethereum",
  "devdoc": {
    "methods": {}
  },
  "userdoc": {
    "methods": {}
  }
}