{
  "contractName": "HiroyukiCoin",
  "abi": [
    {
      "constant": true,
      "inputs": [],
      "name": "name",
      "outputs": [
        {
          "name": "",
          "type": "string"
        }
      ],
      "payable": false,
      "stateMutability": "view",
      "type": "function"
    },
    {
      "constant": true,
      "inputs": [],
      "name": "startDate",
      "outputs": [
        {
          "name": "",
          "type": "uint256"
        }
      ],
      "payable": false,
      "stateMutability": "view",
      "type": "function"
    },
    {
      "constant": true,
      "inputs": [],
      "name": "decimals",
      "outputs": [
        {
          "name": "",
          "type": "uint8"
        }
      ],
      "payable": false,
      "stateMutability": "view",
      "type": "function"
    },
    {
      "constant": true,
      "inputs": [],
      "name": "_totalSupply",
      "outputs": [
        {
          "name": "",
          "type": "uint256"
        }
      ],
      "payable": false,
      "stateMutability": "view",
      "type": "function"
    },
    {
      "constant": false,
      "inputs": [],
      "name": "acceptOwnership",
      "outputs": [],
      "payable": false,
      "stateMutability": "nonpayable",
      "type": "function"
    },
    {
      "constant": true,
      "inputs": [],
      "name": "owner",
      "outputs": [
        {
          "name": "",
          "type": "address"
        }
      ],
      "payable": false,
      "stateMutability": "view",
      "type": "function"
    },
    {
      "constant": true,
      "inputs": [],
      "name": "symbol",
      "outputs": [
        {
          "name": "",
          "type": "string"
        }
      ],
      "payable": false,
      "stateMutability": "view",
      "type": "function"
    },
    {
      "constant": true,
      "inputs": [],
      "name": "_currentSupply",
      "outputs": [
        {
          "name": "",
          "type": "uint256"
        }
      ],
      "payable": false,
      "stateMutability": "view",
      "type": "function"
    },
    {
      "constant": true,
      "inputs": [],
      "name": "endDate",
      "outputs": [
        {
          "name": "",
          "type": "uint256"
        }
      ],
      "payable": false,
      "stateMutability": "view",
      "type": "function"
    },
    {
      "constant": true,
      "inputs": [],
      "name": "newOwner",
      "outputs": [
        {
          "name": "",
          "type": "address"
        }
      ],
      "payable": false,
      "stateMutability": "view",
      "type": "function"
    },
    {
      "constant": false,
      "inputs": [
        {
          "name": "_newOwner",
          "type": "address"
        }
      ],
      "name": "transferOwnership",
      "outputs": [],
      "payable": false,
      "stateMutability": "nonpayable",
      "type": "function"
    },
    {
      "inputs": [],
      "payable": false,
      "stateMutability": "nonpayable",
      "type": "constructor"
    },
    {
      "payable": true,
      "stateMutability": "payable",
      "type": "fallback"
    },
    {
      "anonymous": false,
      "inputs": [
        {
          "indexed": true,
          "name": "_from",
          "type": "address"
        },
        {
          "indexed": true,
          "name": "_to",
          "type": "address"
        }
      ],
      "name": "OwnershipTransferred",
      "type": "event"
    },
    {
      "anonymous": false,
      "inputs": [
        {
          "indexed": true,
          "name": "from",
          "type": "address"
        },
        {
          "indexed": true,
          "name": "to",
          "type": "address"
        },
        {
          "indexed": false,
          "name": "tokens",
          "type": "uint256"
        }
      ],
      "name": "Transfer",
      "type": "event"
    },
    {
      "anonymous": false,
      "inputs": [
        {
          "indexed": true,
          "name": "tokenOwner",
          "type": "address"
        },
        {
          "indexed": true,
          "name": "spender",
          "type": "address"
        },
        {
          "indexed": false,
          "name": "tokens",
          "type": "uint256"
        }
      ],
      "name": "Approval",
      "type": "event"
    },
    {
      "anonymous": false,
      "inputs": [
        {
          "indexed": true,
          "name": "from",
          "type": "address"
        },
        {
          "indexed": false,
          "name": "tokens",
          "type": "uint256"
        }
      ],
      "name": "Burn",
      "type": "event"
    },
    {
      "constant": true,
      "inputs": [],
      "name": "totalSupply",
      "outputs": [
        {
          "name": "",
          "type": "uint256"
        }
      ],
      "payable": false,
      "stateMutability": "view",
      "type": "function"
    },
    {
      "constant": true,
      "inputs": [
        {
          "name": "tokenOwner",
          "type": "address"
        }
      ],
      "name": "balanceOf",
      "outputs": [
        {
          "name": "balance",
          "type": "uint256"
        }
      ],
      "payable": false,
      "stateMutability": "view",
      "type": "function"
    },
    {
      "constant": false,
      "inputs": [
        {
          "name": "to",
          "type": "address"
        },
        {
          "name": "tokens",
          "type": "uint256"
        }
      ],
      "name": "transfer",
      "outputs": [
        {
          "name": "success",
          "type": "bool"
        }
      ],
      "payable": false,
      "stateMutability": "nonpayable",
      "type": "function"
    },
    {
      "constant": false,
      "inputs": [
        {
          "name": "spender",
          "type": "address"
        },
        {
          "name": "tokens",
          "type": "uint256"
        }
      ],
      "name": "approve",
      "outputs": [
        {
          "name": "success",
          "type": "bool"
        }
      ],
      "payable": false,
      "stateMutability": "nonpayable",
      "type": "function"
    },
    {
      "constant": false,
      "inputs": [
        {
          "name": "from",
          "type": "address"
        },
        {
          "name": "to",
          "type": "address"
        },
        {
          "name": "tokens",
          "type": "uint256"
        }
      ],
      "name": "transferFrom",
      "outputs": [
        {
          "name": "success",
          "type": "bool"
        }
      ],
      "payable": false,
      "stateMutability": "nonpayable",
      "type": "function"
    },
    {
      "constant": false,
      "inputs": [
        {
          "name": "tokens",
          "type": "uint256"
        }
      ],
      "name": "burn",
      "outputs": [
        {
          "name": "success",
          "type": "bool"
        }
      ],
      "payable": false,
      "stateMutability": "nonpayable",
      "type": "function"
    },
    {
      "constant": true,
      "inputs": [
        {
          "name": "tokenOwner",
          "type": "address"
        },
        {
          "name": "spender",
          "type": "address"
        }
      ],
      "name": "allowance",
      "outputs": [
        {
          "name": "remaining",
          "type": "uint256"
        }
      ],
      "payable": false,
      "stateMutability": "view",
      "type": "function"
    },
    {
      "constant": false,
      "inputs": [
        {
          "name": "spender",
          "type": "address"
        },
        {
          "name": "tokens",
          "type": "uint256"
        },
        {
          "name": "data",
          "type": "bytes"
        }
      ],
      "name": "approveAndCall",
      "outputs": [
        {
          "name": "success",
          "type": "bool"
        }
      ],
      "payable": false,
      "stateMutability": "nonpayable",
      "type": "function"
    },
    {
      "constant": false,
      "inputs": [
        {
          "name": "tokenAddress",
          "type": "address"
        },
        {
          "name": "tokens",
          "type": "uint256"
        }
      ],
      "name": "transferAnyERC20Token",
      "outputs": [
        {
          "name": "success",
          "type": "bool"
        }
      ],
      "payable": false,
      "stateMutability": "nonpayable",
      "type": "function"
    }
  ],
  "bytecode": "0x60806040523480156200001157600080fd5b50336000806101000a81548173ffffffffffffffffffffffffffffffffffffffff021916908373ffffffffffffffffffffffffffffffffffffffff16021790555033600260006101000a81548173ffffffffffffffffffffffffffffffffffffffff021916908373ffffffffffffffffffffffffffffffffffffffff1602179055506040805190810160405280600481526020017f4852594b0000000000000000000000000000000000000000000000000000000081525060039080519060200190620000e092919062000272565b506040805190810160405280600c81526020017f4869726f79756b69436f696e0000000000000000000000000000000000000000815250600490805190602001906200012e92919062000272565b506012600560006101000a81548160ff021916908360ff1602179055506c01431e0fae6d7217caa00000006006819055506000600781905550426008819055506224ea004201600981905550600654600a6000600260009054906101000a900473ffffffffffffffffffffffffffffffffffffffff1673ffffffffffffffffffffffffffffffffffffffff1673ffffffffffffffffffffffffffffffffffffffff16815260200190815260200160002081905550600260009054906101000a900473ffffffffffffffffffffffffffffffffffffffff1673ffffffffffffffffffffffffffffffffffffffff16600073ffffffffffffffffffffffffffffffffffffffff167fddf252ad1be2c89b69c2b068fc378daa952ba7f163c4a11628f55a4df523b3ef6006546040518082815260200191505060405180910390a362000321565b828054600181600116156101000203166002900490600052602060002090601f016020900481019282601f10620002b557805160ff1916838001178555620002e6565b82800160010185558215620002e6579182015b82811115620002e5578251825591602001919060010190620002c8565b5b509050620002f59190620002f9565b5090565b6200031e91905b808211156200031a57600081600090555060010162000300565b5090565b90565b611bbc80620003316000396000f300608060405260043610610112576000357c0100000000000000000000000000000000000000000000000000000000900463ffffffff16806306fdde03146103d4578063095ea7b3146104645780630b97bc86146104c957806318160ddd146104f457806323b872dd1461051f578063313ce567146105a45780633eaaf86b146105d557806342966c681461060057806370a082311461064557806379ba50971461069c5780638da5cb5b146106b357806395d89b411461070a578063a4fefad61461079a578063a9059cbb146107c5578063c24a0f8b1461082a578063cae9ca5114610855578063d4ee1d9014610900578063dc39d06d14610957578063dd62ed3e146109bc578063f2fde38b14610a33575b60008060003411151561012457600080fd5b426008541115801561013857506009544211155b151561014357600080fd5b339150610154346304c4b400610a76565b905060065461016560075483610aae565b1115151561017257600080fd5b6101bb600a60008473ffffffffffffffffffffffffffffffffffffffff1673ffffffffffffffffffffffffffffffffffffffff1681526020019081526020016000205482610aae565b600a60008473ffffffffffffffffffffffffffffffffffffffff1673ffffffffffffffffffffffffffffffffffffffff16815260200190815260200160002081905550610269600a6000600260009054906101000a900473ffffffffffffffffffffffffffffffffffffffff1673ffffffffffffffffffffffffffffffffffffffff1673ffffffffffffffffffffffffffffffffffffffff1681526020019081526020016000205482610aca565b600a6000600260009054906101000a900473ffffffffffffffffffffffffffffffffffffffff1673ffffffffffffffffffffffffffffffffffffffff1673ffffffffffffffffffffffffffffffffffffffff168152602001908152602001600020819055508173ffffffffffffffffffffffffffffffffffffffff16600260009054906101000a900473ffffffffffffffffffffffffffffffffffffffff1673ffffffffffffffffffffffffffffffffffffffff167fddf252ad1be2c89b69c2b068fc378daa952ba7f163c4a11628f55a4df523b3ef836040518082815260200191505060405180910390a3600260009054906101000a900473ffffffffffffffffffffffffffffffffffffffff1673ffffffffffffffffffffffffffffffffffffffff166108fc349081150290604051600060405180830381858888f193505050501580156103bd573d6000803e3d6000fd5b506103ca60075482610aae565b6007819055505050005b3480156103e057600080fd5b506103e9610ae3565b6040518080602001828103825283818151815260200191508051906020019080838360005b8381101561042957808201518184015260208101905061040e565b50505050905090810190601f1680156104565780820380516001836020036101000a031916815260200191505b509250505060405180910390f35b34801561047057600080fd5b506104af600480360381019080803573ffffffffffffffffffffffffffffffffffffffff16906020019092919080359060200190929190505050610b81565b604051808215151515815260200191505060405180910390f35b3480156104d557600080fd5b506104de610c73565b6040518082815260200191505060405180910390f35b34801561050057600080fd5b50610509610c79565b6040518082815260200191505060405180910390f35b34801561052b57600080fd5b5061058a600480360381019080803573ffffffffffffffffffffffffffffffffffffffff169060200190929190803573ffffffffffffffffffffffffffffffffffffffff16906020019092919080359060200190929190505050610cc4565b604051808215151515815260200191505060405180910390f35b3480156105b057600080fd5b506105b9611068565b604051808260ff1660ff16815260200191505060405180910390f35b3480156105e157600080fd5b506105ea61107b565b6040518082815260200191505060405180910390f35b34801561060c57600080fd5b5061062b60048036038101908080359060200190929190505050611081565b604051808215151515815260200191505060405180910390f35b34801561065157600080fd5b50610686600480360381019080803573ffffffffffffffffffffffffffffffffffffffff1690602001909291905050506111c6565b6040518082815260200191505060405180910390f35b3480156106a857600080fd5b506106b161120f565b005b3480156106bf57600080fd5b506106c86113ae565b604051808273ffffffffffffffffffffffffffffffffffffffff1673ffffffffffffffffffffffffffffffffffffffff16815260200191505060405180910390f35b34801561071657600080fd5b5061071f6113d4565b6040518080602001828103825283818151815260200191508051906020019080838360005b8381101561075f578082015181840152602081019050610744565b50505050905090810190601f16801561078c5780820380516001836020036101000a031916815260200191505b509250505060405180910390f35b3480156107a657600080fd5b506107af611472565b6040518082815260200191505060405180910390f35b3480156107d157600080fd5b50610810600480360381019080803573ffffffffffffffffffffffffffffffffffffffff16906020019092919080359060200190929190505050611478565b604051808215151515815260200191505060405180910390f35b34801561083657600080fd5b5061083f61168a565b6040518082815260200191505060405180910390f35b34801561086157600080fd5b506108e6600480360381019080803573ffffffffffffffffffffffffffffffffffffffff16906020019092919080359060200190929190803590602001908201803590602001908080601f0160208091040260200160405190810160405280939291908181526020018383808284378201915050505050509192919290505050611690565b604051808215151515815260200191505060405180910390f35b34801561090c57600080fd5b506109156118df565b604051808273ffffffffffffffffffffffffffffffffffffffff1673ffffffffffffffffffffffffffffffffffffffff16815260200191505060405180910390f35b34801561096357600080fd5b506109a2600480360381019080803573ffffffffffffffffffffffffffffffffffffffff16906020019092919080359060200190929190505050611905565b604051808215151515815260200191505060405180910390f35b3480156109c857600080fd5b50610a1d600480360381019080803573ffffffffffffffffffffffffffffffffffffffff169060200190929190803573ffffffffffffffffffffffffffffffffffffffff169060200190929190505050611a6a565b6040518082815260200191505060405180910390f35b348015610a3f57600080fd5b50610a74600480360381019080803573ffffffffffffffffffffffffffffffffffffffff169060200190929190505050611af1565b005b600080831415610a895760009050610aa8565b8183029050818382811515610a9a57fe5b04141515610aa457fe5b8090505b92915050565b60008183019050828110151515610ac157fe5b80905092915050565b6000828211151515610ad857fe5b818303905092915050565b60048054600181600116156101000203166002900480601f016020809104026020016040519081016040528092919081815260200182805460018160011615610100020316600290048015610b795780601f10610b4e57610100808354040283529160200191610b79565b820191906000526020600020905b815481529060010190602001808311610b5c57829003601f168201915b505050505081565b600081600b60003373ffffffffffffffffffffffffffffffffffffffff1673ffffffffffffffffffffffffffffffffffffffff16815260200190815260200160002060008573ffffffffffffffffffffffffffffffffffffffff1673ffffffffffffffffffffffffffffffffffffffff168152602001908152602001600020819055508273ffffffffffffffffffffffffffffffffffffffff163373ffffffffffffffffffffffffffffffffffffffff167f8c5be1e5ebec7d5bd14f71427d1e84f3dd0314c0f7b2291e5b200ac8c7c3b925846040518082815260200191505060405180910390a36001905092915050565b60085481565b6000600a60008073ffffffffffffffffffffffffffffffffffffffff1673ffffffffffffffffffffffffffffffffffffffff1681526020019081526020016000205460065403905090565b60008073ffffffffffffffffffffffffffffffffffffffff168373ffffffffffffffffffffffffffffffffffffffff1614151515610d0157600080fd5b600a60008573ffffffffffffffffffffffffffffffffffffffff1673ffffffffffffffffffffffffffffffffffffffff168152602001908152602001600020548211151515610d4f57600080fd5b600b60008573ffffffffffffffffffffffffffffffffffffffff1673ffffffffffffffffffffffffffffffffffffffff16815260200190815260200160002060003373ffffffffffffffffffffffffffffffffffffffff1673ffffffffffffffffffffffffffffffffffffffff168152602001908152602001600020548211151515610dda57600080fd5b610e23600a60008673ffffffffffffffffffffffffffffffffffffffff1673ffffffffffffffffffffffffffffffffffffffff1681526020019081526020016000205483610aca565b600a60008673ffffffffffffffffffffffffffffffffffffffff1673ffffffffffffffffffffffffffffffffffffffff16815260200190815260200160002081905550610eec600b60008673ffffffffffffffffffffffffffffffffffffffff1673ffffffffffffffffffffffffffffffffffffffff16815260200190815260200160002060003373ffffffffffffffffffffffffffffffffffffffff1673ffffffffffffffffffffffffffffffffffffffff1681526020019081526020016000205483610aca565b600b60008673ffffffffffffffffffffffffffffffffffffffff1673ffffffffffffffffffffffffffffffffffffffff16815260200190815260200160002060003373ffffffffffffffffffffffffffffffffffffffff1673ffffffffffffffffffffffffffffffffffffffff16815260200190815260200160002081905550610fb5600a60008573ffffffffffffffffffffffffffffffffffffffff1673ffffffffffffffffffffffffffffffffffffffff1681526020019081526020016000205483610aae565b600a60008573ffffffffffffffffffffffffffffffffffffffff1673ffffffffffffffffffffffffffffffffffffffff168152602001908152602001600020819055508273ffffffffffffffffffffffffffffffffffffffff168473ffffffffffffffffffffffffffffffffffffffff167fddf252ad1be2c89b69c2b068fc378daa952ba7f163c4a11628f55a4df523b3ef846040518082815260200191505060405180910390a3600190509392505050565b600560009054906101000a900460ff1681565b60065481565b6000600a60003373ffffffffffffffffffffffffffffffffffffffff1673ffffffffffffffffffffffffffffffffffffffff1681526020019081526020016000205482111515156110d157600080fd5b61111a600a60003373ffffffffffffffffffffffffffffffffffffffff1673ffffffffffffffffffffffffffffffffffffffff1681526020019081526020016000205483610aca565b600a60003373ffffffffffffffffffffffffffffffffffffffff1673ffffffffffffffffffffffffffffffffffffffff1681526020019081526020016000208190555061116960065483610aca565b6006819055503373ffffffffffffffffffffffffffffffffffffffff167fcc16f5dbb4873280815c1ee09dbd06736cffcc184412cf7a71a0fdb75d397ca5836040518082815260200191505060405180910390a260019050919050565b6000600a60008373ffffffffffffffffffffffffffffffffffffffff1673ffffffffffffffffffffffffffffffffffffffff168152602001908152602001600020549050919050565b600160009054906101000a900473ffffffffffffffffffffffffffffffffffffffff1673ffffffffffffffffffffffffffffffffffffffff163373ffffffffffffffffffffffffffffffffffffffff1614151561126b57600080fd5b600160009054906101000a900473ffffffffffffffffffffffffffffffffffffffff1673ffffffffffffffffffffffffffffffffffffffff166000809054906101000a900473ffffffffffffffffffffffffffffffffffffffff1673ffffffffffffffffffffffffffffffffffffffff167f8be0079c531659141344cd1fd0a4f28419497f9722a3daafe3b4186f6b6457e060405160405180910390a3600160009054906101000a900473ffffffffffffffffffffffffffffffffffffffff166000806101000a81548173ffffffffffffffffffffffffffffffffffffffff021916908373ffffffffffffffffffffffffffffffffffffffff1602179055506000600160006101000a81548173ffffffffffffffffffffffffffffffffffffffff021916908373ffffffffffffffffffffffffffffffffffffffff160217905550565b600260009054906101000a900473ffffffffffffffffffffffffffffffffffffffff1681565b60038054600181600116156101000203166002900480601f01602080910402602001604051908101604052809291908181526020018280546001816001161561010002031660029004801561146a5780601f1061143f5761010080835404028352916020019161146a565b820191906000526020600020905b81548152906001019060200180831161144d57829003601f168201915b505050505081565b60075481565b60008073ffffffffffffffffffffffffffffffffffffffff168373ffffffffffffffffffffffffffffffffffffffff16141515156114b557600080fd5b600a60003373ffffffffffffffffffffffffffffffffffffffff1673ffffffffffffffffffffffffffffffffffffffff16815260200190815260200160002054821115151561150357600080fd5b61154c600a60003373ffffffffffffffffffffffffffffffffffffffff1673ffffffffffffffffffffffffffffffffffffffff1681526020019081526020016000205483610aca565b600a60003373ffffffffffffffffffffffffffffffffffffffff1673ffffffffffffffffffffffffffffffffffffffff168152602001908152602001600020819055506115d8600a60008573ffffffffffffffffffffffffffffffffffffffff1673ffffffffffffffffffffffffffffffffffffffff1681526020019081526020016000205483610aae565b600a60008573ffffffffffffffffffffffffffffffffffffffff1673ffffffffffffffffffffffffffffffffffffffff168152602001908152602001600020819055508273ffffffffffffffffffffffffffffffffffffffff163373ffffffffffffffffffffffffffffffffffffffff167fddf252ad1be2c89b69c2b068fc378daa952ba7f163c4a11628f55a4df523b3ef846040518082815260200191505060405180910390a36001905092915050565b60095481565b600082600b60003373ffffffffffffffffffffffffffffffffffffffff1673ffffffffffffffffffffffffffffffffffffffff16815260200190815260200160002060008673ffffffffffffffffffffffffffffffffffffffff1673ffffffffffffffffffffffffffffffffffffffff168152602001908152602001600020819055508373ffffffffffffffffffffffffffffffffffffffff163373ffffffffffffffffffffffffffffffffffffffff167f8c5be1e5ebec7d5bd14f71427d1e84f3dd0314c0f7b2291e5b200ac8c7c3b925856040518082815260200191505060405180910390a38373ffffffffffffffffffffffffffffffffffffffff16638f4ffcb1338530866040518563ffffffff167c0100000000000000000000000000000000000000000000000000000000028152600401808573ffffffffffffffffffffffffffffffffffffffff1673ffffffffffffffffffffffffffffffffffffffff1681526020018481526020018373ffffffffffffffffffffffffffffffffffffffff1673ffffffffffffffffffffffffffffffffffffffff16815260200180602001828103825283818151815260200191508051906020019080838360005b8381101561186d578082015181840152602081019050611852565b50505050905090810190601f16801561189a5780820380516001836020036101000a031916815260200191505b5095505050505050600060405180830381600087803b1580156118bc57600080fd5b505af11580156118d0573d6000803e3d6000fd5b50505050600190509392505050565b600160009054906101000a900473ffffffffffffffffffffffffffffffffffffffff1681565b60008060009054906101000a900473ffffffffffffffffffffffffffffffffffffffff1673ffffffffffffffffffffffffffffffffffffffff163373ffffffffffffffffffffffffffffffffffffffff1614151561196257600080fd5b8273ffffffffffffffffffffffffffffffffffffffff1663a9059cbb600260009054906101000a900473ffffffffffffffffffffffffffffffffffffffff16846040518363ffffffff167c0100000000000000000000000000000000000000000000000000000000028152600401808373ffffffffffffffffffffffffffffffffffffffff1673ffffffffffffffffffffffffffffffffffffffff16815260200182815260200192505050602060405180830381600087803b158015611a2757600080fd5b505af1158015611a3b573d6000803e3d6000fd5b505050506040513d6020811015611a5157600080fd5b8101908080519060200190929190505050905092915050565b6000600b60008473ffffffffffffffffffffffffffffffffffffffff1673ffffffffffffffffffffffffffffffffffffffff16815260200190815260200160002060008373ffffffffffffffffffffffffffffffffffffffff1673ffffffffffffffffffffffffffffffffffffffff16815260200190815260200160002054905092915050565b6000809054906101000a900473ffffffffffffffffffffffffffffffffffffffff1673ffffffffffffffffffffffffffffffffffffffff163373ffffffffffffffffffffffffffffffffffffffff16141515611b4c57600080fd5b80600160006101000a81548173ffffffffffffffffffffffffffffffffffffffff021916908373ffffffffffffffffffffffffffffffffffffffff160217905550505600a165627a7a723058204a12e922d82355e39f4a7f4d993b0620647e85bc9c0a28249c03196fb4c948120029",
  "source": "\n\n\n\n\n\n\n\n\n\n\n\n\n\n\n\nlibrary SafeMath {\n    function mul(uint256 a, uint256 b) internal pure returns (uint256 c) {\n        if (a == 0) {\n            return 0;\n        }\n        c = a * b;\n        assert(c / a == b);\n        return c;\n    }\n\n    function div(uint256 a, uint256 b) internal pure returns (uint256) {\n        assert(b > 0); \n        \n        \n        return a / b;\n    }\n\n    function sub(uint256 a, uint256 b) internal pure returns (uint256) {\n        assert(b <= a);\n        return a - b;\n    }\n\n    function add(uint256 a, uint256 b) internal pure returns (uint256 c) {\n        c = a + b;\n        assert(c >= a);\n        return c;\n    }\n}\n\n\n\ncontract ERC20Interface {\n    function totalSupply() public constant returns (uint256);\n    function balanceOf(address tokenOwner) public constant returns (uint256 balance);\n    function allowance(address tokenOwner, address spender) public constant returns (uint256 remaining);\n    function transfer(address to, uint256 tokens) public returns (bool success);\n    function approve(address spender, uint256 tokens) public returns (bool success);\n    function transferFrom(address from, address to, uint256 tokens) public returns (bool success);\n    event Transfer(address indexed from, address indexed to, uint256 tokens);\n    event Approval(address indexed tokenOwner, address indexed spender, uint256 tokens);\n    event Burn(address indexed from, uint256 tokens);\n}\n\n\n\ncontract ApproveAndCallFallBack {\n    function receiveApproval(address from, uint256 tokens, address token, bytes data) public;\n}\n\n\n\ncontract Owned {\n    address public owner;\n    address public newOwner;\n\n    event OwnershipTransferred(address indexed _from, address indexed _to);\n\n    function Owned() public {\n        owner = msg.sender;\n    }\n\n    modifier onlyOwner {\n        require(msg.sender == owner);\n        _;\n    }\n\n    function transferOwnership(address _newOwner) public onlyOwner {\n        newOwner = _newOwner;\n    }\n    function acceptOwnership() public {\n        require(msg.sender == newOwner);\n        OwnershipTransferred(owner, newOwner);\n        owner = newOwner;\n        newOwner = address(0);\n    }\n}\n\n\n\ncontract HiroyukiCoin is ERC20Interface, Owned {\n    using SafeMath for uint;\n\n    address public owner;\n    string public symbol;\n    string public  name;\n    uint8 public decimals;\n    \n    uint256 public _totalSupply;\n    uint256 public _currentSupply;\n\n    uint public startDate;\n    uint public endDate;\n\n    mapping (address => uint256) balances;\n    mapping (address => mapping (address => uint256)) allowed;\n\n\n    \n    \n    \n    function HiroyukiCoin() public {\n        owner = msg.sender;\n\n        symbol = \"HRYK\";\n        name = \"HiroyukiCoin\";\n        decimals = 18;\n\n        _totalSupply = 100000000000000000000000000000;\n        _currentSupply = 0;\n\n        startDate = now;\n        endDate = now + 4 weeks;\n\n        balances[owner] = _totalSupply;\n        Transfer(address(0), owner, _totalSupply);\n    }\n\n\n    \n    \n    \n    function totalSupply() public constant returns (uint256) {\n        return _totalSupply - balances[address(0)];\n    }\n\n\n    \n    \n    \n    function balanceOf(address tokenOwner) public constant returns (uint256 balance) {\n        return balances[tokenOwner];\n    }\n\n\n    \n    \n    \n    \n    \n    function transfer(address to, uint256 tokens) public returns (bool success) {\n        require(to != address(0));\n        require(tokens <= balances[msg.sender]);\n        balances[msg.sender] = SafeMath.sub(balances[msg.sender], tokens);\n        balances[to] = SafeMath.add(balances[to], tokens);\n        Transfer(msg.sender, to, tokens);\n        return true;\n    }\n\n\n    \n    \n    \n    \n    \n    \n    \n    \n    function approve(address spender, uint256 tokens) public returns (bool success) {\n        allowed[msg.sender][spender] = tokens;\n        Approval(msg.sender, spender, tokens);\n        return true;\n    }\n\n\n    \n    \n    \n    \n    \n    \n    \n    \n    \n    function transferFrom(address from, address to, uint256 tokens) public returns (bool success) {\n        require(to != address(0));\n        require(tokens <= balances[from]);\n        require(tokens <= allowed[from][msg.sender]);\n        balances[from] = SafeMath.sub(balances[from], tokens);\n        allowed[from][msg.sender] = SafeMath.sub(allowed[from][msg.sender], tokens);\n        balances[to] = SafeMath.add(balances[to], tokens);\n        Transfer(from, to, tokens);\n        return true;\n    }\n\n    function burn(uint256 tokens) public returns (bool success) {\n        require(tokens <= balances[msg.sender]);\n        balances[msg.sender] = SafeMath.sub(balances[msg.sender], tokens);\n        _totalSupply = SafeMath.sub(_totalSupply, tokens);\n        Burn(msg.sender, tokens);\n        return true;\n    }\n\n    \n    \n    \n    \n    function allowance(address tokenOwner, address spender) public constant returns (uint256 remaining) {\n        return allowed[tokenOwner][spender];\n    }\n\n\n    \n    \n    \n    \n    \n    function approveAndCall(address spender, uint256 tokens, bytes data) public returns (bool success) {\n        allowed[msg.sender][spender] = tokens;\n        Approval(msg.sender, spender, tokens);\n        ApproveAndCallFallBack(spender).receiveApproval(msg.sender, tokens, this, data);\n        return true;\n    }\n\n\n    \n    \n    \n    function () public payable {\n        require(msg.value > 0);\n        require(startDate <= now && now <= endDate);\n        address _to = msg.sender;\n        uint256 tokens = SafeMath.mul(msg.value, 80000000);\n        require(SafeMath.add(_currentSupply, tokens) <= _totalSupply); \n        balances[_to] = SafeMath.add(balances[_to], tokens);\n        balances[owner] = SafeMath.sub(balances[owner], tokens);\n        Transfer(owner, _to, tokens);\n        owner.transfer(msg.value);\n        _currentSupply = SafeMath.add(_currentSupply, tokens);\n    }\n\n\n\n    \n    \n    \n    function transferAnyERC20Token(address tokenAddress, uint256 tokens) public onlyOwner returns (bool success) {\n        return ERC20Interface(tokenAddress).transfer(owner, tokens);\n    }\n}",
  "sourcePath": "/home/XXX-1/smartrim-experiment/for-rlf/0x295b13831dc5c5df5e0ed3df874d9be83c79ac15/contracts/0x295b13831dc5c5df5e0ed3df874d9be83c79ac15.sol",
  "compiler": {
    "name": "solc",
    "version": "0.4.25+commit.59dbf8f1.Emscripten.clang"
  },
  "schemaVersion": "3.4.16",
  "updatedAt": "2025-08-14T03:50:15.957Z",
  "networkType": "ethereum",
  "devdoc": {
    "methods": {}
  },
  "userdoc": {
    "methods": {}
  }
}