{
  "contractName": "AnyChicken",
  "abi": [
    {
      "constant": true,
      "inputs": [],
      "name": "bigAmount",
      "outputs": [
        {
          "name": "",
          "type": "uint256"
        }
      ],
      "payable": false,
      "stateMutability": "view",
      "type": "function"
    },
    {
      "constant": true,
      "inputs": [],
      "name": "bigChicken",
      "outputs": [
        {
          "name": "",
          "type": "address"
        }
      ],
      "payable": false,
      "stateMutability": "view",
      "type": "function"
    },
    {
      "constant": true,
      "inputs": [],
      "name": "lastBlock",
      "outputs": [
        {
          "name": "",
          "type": "uint256"
        }
      ],
      "payable": false,
      "stateMutability": "view",
      "type": "function"
    },
    {
      "constant": true,
      "inputs": [],
      "name": "owner",
      "outputs": [
        {
          "name": "",
          "type": "address"
        }
      ],
      "payable": false,
      "stateMutability": "view",
      "type": "function"
    },
    {
      "inputs": [],
      "payable": true,
      "stateMutability": "payable",
      "type": "constructor"
    },
    {
      "payable": true,
      "stateMutability": "payable",
      "type": "fallback"
    }
  ],
  "bytecode": "0x6080604052336000806101000a81548173ffffffffffffffffffffffffffffffffffffffff021916908373ffffffffffffffffffffffffffffffffffffffff16021790555033600160006101000a81548173ffffffffffffffffffffffffffffffffffffffff021916908373ffffffffffffffffffffffffffffffffffffffff16021790555034600281905550436003819055506103af806100a26000396000f300608060405260043610610062576000357c0100000000000000000000000000000000000000000000000000000000900463ffffffff1680631ace4d05146102285780631ca46d6114610253578063806b984f146102aa5780638da5cb5b146102d5575b6103e86003540143111515610149576002543411151561008157600080fd5b33600160006101000a81548173ffffffffffffffffffffffffffffffffffffffff021916908373ffffffffffffffffffffffffffffffffffffffff16021790555034600281905550436003819055506000809054906101000a900473ffffffffffffffffffffffffffffffffffffffff1673ffffffffffffffffffffffffffffffffffffffff166108fc60643481151561011757fe5b049081150290604051600060405180830381858888f19350505050158015610143573d6000803e3d6000fd5b50610226565b600160009054906101000a900473ffffffffffffffffffffffffffffffffffffffff1673ffffffffffffffffffffffffffffffffffffffff163373ffffffffffffffffffffffffffffffffffffffff161415156101a557600080fd5b600160009054906101000a900473ffffffffffffffffffffffffffffffffffffffff1673ffffffffffffffffffffffffffffffffffffffff166108fc3073ffffffffffffffffffffffffffffffffffffffff16319081150290604051600060405180830381858888f19350505050158015610224573d6000803e3d6000fd5b505b005b34801561023457600080fd5b5061023d61032c565b6040518082815260200191505060405180910390f35b34801561025f57600080fd5b50610268610332565b604051808273ffffffffffffffffffffffffffffffffffffffff1673ffffffffffffffffffffffffffffffffffffffff16815260200191505060405180910390f35b3480156102b657600080fd5b506102bf610358565b6040518082815260200191505060405180910390f35b3480156102e157600080fd5b506102ea61035e565b604051808273ffffffffffffffffffffffffffffffffffffffff1673ffffffffffffffffffffffffffffffffffffffff16815260200191505060405180910390f35b60025481565b600160009054906101000a900473ffffffffffffffffffffffffffffffffffffffff1681565b60035481565b6000809054906101000a900473ffffffffffffffffffffffffffffffffffffffff16815600a165627a7a723058209e649dbd616b89bd820663cf1389a4cadea89cd9522511088300b2e31d8795730029",
  "source": "\n\ncontract AnyChicken {\n\n    address public owner;\n\taddress public bigChicken;\n\tuint public bigAmount;\n\tuint public lastBlock;\n\t\n\tfunction AnyChicken() public payable {\n\t\towner = msg.sender;\n\t\tbigChicken = msg.sender;\n\t\tbigAmount = msg.value;\n\t\tlastBlock = block.number;\n\t}\n\t\n\tfunction () public payable {\n\t\tif (block.number <= lastBlock + 1000) {\n\t\t\trequire(msg.value > bigAmount);\n\t\t\tbigChicken = msg.sender;\n\t\t\tbigAmount = msg.value;\n\t\t\tlastBlock = block.number;\n\t\t\towner.transfer(msg.value/100);\n\t\t}\n\t\telse {\n\t\t\trequire(msg.sender == bigChicken);\n\t\t\tbigChicken.transfer(this.balance);\n\t\t}\n\t}\n}",
  "sourcePath": "/home/XXX-1/smartrim-experiment/for-rlf/0xbd9dc7d3a4b0f6777ba79f5d52ff2cc27688c45d/contracts/0xbd9dc7d3a4b0f6777ba79f5d52ff2cc27688c45d.sol",
  "compiler": {
    "name": "solc",
    "version": "0.4.25+commit.59dbf8f1.Emscripten.clang"
  },
  "schemaVersion": "3.4.16",
  "updatedAt": "2025-08-14T04:05:33.572Z",
  "networkType": "ethereum",
  "devdoc": {
    "methods": {}
  },
  "userdoc": {
    "methods": {}
  }
}