{
  "contractName": "PowhCoin4",
  "abi": [
    {
      "constant": true,
      "inputs": [],
      "name": "name",
      "outputs": [
        {
          "name": "",
          "type": "string"
        }
      ],
      "payable": false,
      "stateMutability": "view",
      "type": "function"
    },
    {
      "constant": true,
      "inputs": [],
      "name": "totalSupply",
      "outputs": [
        {
          "name": "",
          "type": "uint256"
        }
      ],
      "payable": false,
      "stateMutability": "view",
      "type": "function"
    },
    {
      "constant": true,
      "inputs": [
        {
          "name": "",
          "type": "address"
        }
      ],
      "name": "balanceOfOld",
      "outputs": [
        {
          "name": "",
          "type": "uint256"
        }
      ],
      "payable": false,
      "stateMutability": "view",
      "type": "function"
    },
    {
      "constant": true,
      "inputs": [],
      "name": "decimals",
      "outputs": [
        {
          "name": "",
          "type": "uint8"
        }
      ],
      "payable": false,
      "stateMutability": "view",
      "type": "function"
    },
    {
      "constant": true,
      "inputs": [],
      "name": "symbol",
      "outputs": [
        {
          "name": "",
          "type": "string"
        }
      ],
      "payable": false,
      "stateMutability": "view",
      "type": "function"
    },
    {
      "constant": true,
      "inputs": [
        {
          "name": "",
          "type": "address"
        },
        {
          "name": "",
          "type": "address"
        }
      ],
      "name": "allowance",
      "outputs": [
        {
          "name": "",
          "type": "uint256"
        }
      ],
      "payable": false,
      "stateMutability": "view",
      "type": "function"
    },
    {
      "inputs": [],
      "payable": false,
      "stateMutability": "nonpayable",
      "type": "constructor"
    },
    {
      "payable": true,
      "stateMutability": "payable",
      "type": "fallback"
    },
    {
      "anonymous": false,
      "inputs": [
        {
          "indexed": true,
          "name": "from",
          "type": "address"
        },
        {
          "indexed": true,
          "name": "to",
          "type": "address"
        },
        {
          "indexed": false,
          "name": "value",
          "type": "uint256"
        }
      ],
      "name": "Transfer",
      "type": "event"
    },
    {
      "anonymous": false,
      "inputs": [
        {
          "indexed": true,
          "name": "owner",
          "type": "address"
        },
        {
          "indexed": true,
          "name": "spender",
          "type": "address"
        },
        {
          "indexed": false,
          "name": "value",
          "type": "uint256"
        }
      ],
      "name": "Approval",
      "type": "event"
    },
    {
      "constant": true,
      "inputs": [
        {
          "name": "_owner",
          "type": "address"
        }
      ],
      "name": "balanceOf",
      "outputs": [
        {
          "name": "balance",
          "type": "uint256"
        }
      ],
      "payable": false,
      "stateMutability": "view",
      "type": "function"
    },
    {
      "constant": false,
      "inputs": [
        {
          "name": "tokenCount",
          "type": "uint256"
        }
      ],
      "name": "withdraw",
      "outputs": [
        {
          "name": "",
          "type": "bool"
        }
      ],
      "payable": false,
      "stateMutability": "nonpayable",
      "type": "function"
    },
    {
      "constant": false,
      "inputs": [],
      "name": "sellMyTokensDaddy",
      "outputs": [],
      "payable": false,
      "stateMutability": "nonpayable",
      "type": "function"
    },
    {
      "constant": false,
      "inputs": [],
      "name": "getMeOutOfHere",
      "outputs": [],
      "payable": false,
      "stateMutability": "nonpayable",
      "type": "function"
    },
    {
      "constant": false,
      "inputs": [],
      "name": "fund",
      "outputs": [
        {
          "name": "",
          "type": "bool"
        }
      ],
      "payable": true,
      "stateMutability": "payable",
      "type": "function"
    },
    {
      "constant": true,
      "inputs": [],
      "name": "buyPrice",
      "outputs": [
        {
          "name": "",
          "type": "uint256"
        }
      ],
      "payable": false,
      "stateMutability": "view",
      "type": "function"
    },
    {
      "constant": true,
      "inputs": [],
      "name": "sellPrice",
      "outputs": [
        {
          "name": "",
          "type": "uint256"
        }
      ],
      "payable": false,
      "stateMutability": "view",
      "type": "function"
    },
    {
      "constant": false,
      "inputs": [
        {
          "name": "_to",
          "type": "address"
        },
        {
          "name": "_value",
          "type": "uint256"
        }
      ],
      "name": "transfer",
      "outputs": [],
      "payable": false,
      "stateMutability": "nonpayable",
      "type": "function"
    },
    {
      "constant": false,
      "inputs": [
        {
          "name": "_from",
          "type": "address"
        },
        {
          "name": "_to",
          "type": "address"
        },
        {
          "name": "_value",
          "type": "uint256"
        }
      ],
      "name": "transferFrom",
      "outputs": [],
      "payable": false,
      "stateMutability": "nonpayable",
      "type": "function"
    },
    {
      "constant": false,
      "inputs": [
        {
          "name": "_spender",
          "type": "address"
        },
        {
          "name": "_value",
          "type": "uint256"
        }
      ],
      "name": "approve",
      "outputs": [],
      "payable": false,
      "stateMutability": "nonpayable",
      "type": "function"
    },
    {
      "constant": true,
      "inputs": [
        {
          "name": "_owner",
          "type": "address"
        }
      ],
      "name": "dividends",
      "outputs": [
        {
          "name": "amount",
          "type": "uint256"
        }
      ],
      "payable": false,
      "stateMutability": "view",
      "type": "function"
    },
    {
      "constant": false,
      "inputs": [
        {
          "name": "to",
          "type": "address"
        }
      ],
      "name": "withdrawOld",
      "outputs": [],
      "payable": false,
      "stateMutability": "nonpayable",
      "type": "function"
    },
    {
      "constant": true,
      "inputs": [],
      "name": "reserve",
      "outputs": [
        {
          "name": "amount",
          "type": "uint256"
        }
      ],
      "payable": false,
      "stateMutability": "view",
      "type": "function"
    },
    {
      "constant": true,
      "inputs": [
        {
          "name": "ethervalue",
          "type": "uint256"
        }
      ],
      "name": "getTokensForEther",
      "outputs": [
        {
          "name": "tokens",
          "type": "uint256"
        }
      ],
      "payable": false,
      "stateMutability": "view",
      "type": "function"
    },
    {
      "constant": true,
      "inputs": [
        {
          "name": "tokens",
          "type": "uint256"
        }
      ],
      "name": "getEtherForTokens",
      "outputs": [
        {
          "name": "ethervalue",
          "type": "uint256"
        }
      ],
      "payable": false,
      "stateMutability": "view",
      "type": "function"
    }
  ],
  "bytecode": "0x608060405234801561001057600080fd5b5061166a806100206000396000f30060806040526004361061011d576000357c0100000000000000000000000000000000000000000000000000000000900463ffffffff16806306fdde031461013f578063095ea7b3146101cf57806318160ddd1461021c57806323b872dd14610247578063276c9d0a146102b45780632e1a7d4d1461030b578063313ce5671461035057806339ffe67c146103815780634b750334146103c457806362dbf261146103ef57806368306e431461043057806370a082311461048757806375c7d4e1146104de5780638620410b146104f557806395d89b4114610520578063a9059cbb146105b0578063b1e35242146105fd578063b60d428814610614578063b9f308f214610636578063cd3293de14610677578063dd62ed3e146106a2575b60003411156101335761012e610719565b61013d565b61013c336108cf565b5b005b34801561014b57600080fd5b5061015461099a565b6040518080602001828103825283818151815260200191508051906020019080838360005b83811015610194578082015181840152602081019050610179565b50505050905090810190601f1680156101c15780820380516001836020036101000a031916815260200191505b509250505060405180910390f35b3480156101db57600080fd5b5061021a600480360381019080803573ffffffffffffffffffffffffffffffffffffffff169060200190929190803590602001909291905050506109d3565b005b34801561022857600080fd5b50610231610b55565b6040518082815260200191505060405180910390f35b34801561025357600080fd5b506102b2600480360381019080803573ffffffffffffffffffffffffffffffffffffffff169060200190929190803573ffffffffffffffffffffffffffffffffffffffff16906020019092919080359060200190929190505050610b5b565b005b3480156102c057600080fd5b506102f5600480360381019080803573ffffffffffffffffffffffffffffffffffffffff169060200190929190505050610c7d565b6040518082815260200191505060405180910390f35b34801561031757600080fd5b5061033660048036038101908080359060200190929190505050610c95565b604051808215151515815260200191505060405180910390f35b34801561035c57600080fd5b50610365610d67565b604051808260ff1660ff16815260200191505060405180910390f35b34801561038d57600080fd5b506103c2600480360381019080803573ffffffffffffffffffffffffffffffffffffffff1690602001909291905050506108cf565b005b3480156103d057600080fd5b506103d9610d6c565b6040518082815260200191505060405180910390f35b3480156103fb57600080fd5b5061041a60048036038101908080359060200190929190505050610d83565b6040518082815260200191505060405180910390f35b34801561043c57600080fd5b50610471600480360381019080803573ffffffffffffffffffffffffffffffffffffffff169060200190929190505050610dda565b6040518082815260200191505060405180910390f35b34801561049357600080fd5b506104c8600480360381019080803573ffffffffffffffffffffffffffffffffffffffff169060200190929190505050610e7c565b6040518082815260200191505060405180910390f35b3480156104ea57600080fd5b506104f3610ec5565b005b34801561050157600080fd5b5061050a610ee0565b6040518082815260200191505060405180910390f35b34801561052c57600080fd5b50610535610ef7565b6040518080602001828103825283818151815260200191508051906020019080838360005b8381101561057557808201518184015260208101905061055a565b50505050905090810190601f1680156105a25780820380516001836020036101000a031916815260200191505b509250505060405180910390f35b3480156105bc57600080fd5b506105fb600480360381019080803573ffffffffffffffffffffffffffffffffffffffff16906020019092919080359060200190929190505050610f30565b005b34801561060957600080fd5b50610612610f3f565b005b61061c610f54565b604051808215151515815260200191505060405180910390f35b34801561064257600080fd5b5061066160048036038101908080359060200190929190505050610f81565b6040518082815260200191505060405180910390f35b34801561068357600080fd5b5061068c610ff2565b6040518082815260200191505060405180910390f35b3480156106ae57600080fd5b50610703600480360381019080803573ffffffffffffffffffffffffffffffffffffffff169060200190929190803573ffffffffffffffffffffffffffffffffffffffff169060200190929190505050611024565b6040518082815260200191505060405180910390f35b600080600080600080600080600064e8d4a51000341080610743575069d3c21bcecceda100000034115b1561074d57600080fd5b339850600a3481151561075c57fe5b049750873403965061076d87610d83565b955068010000000000000000880294506000805411156108025760016002036002888860005401680100000000000000008a8c6107a8610ff2565b0102028115156107b457fe5b048115156107be57fe5b046801000000000000000003028115156107d457fe5b04935083880292508285039450600054838115156107ee57fe5b049150816005600082825401925050819055505b85600080828254019250508190555085600160008b73ffffffffffffffffffffffffffffffffffffffff1673ffffffffffffffffffffffffffffffffffffffff1681526020019081526020016000206000828254019250508190555084866005540203905080600360008b73ffffffffffffffffffffffffffffffffffffffff1673ffffffffffffffffffffffffffffffffffffffff1681526020019081526020016000206000828254019250508190555080600460008282540192505081905550505050505050505050565b60006108da33610dda565b9050680100000000000000008102600360003373ffffffffffffffffffffffffffffffffffffffff1673ffffffffffffffffffffffffffffffffffffffff168152602001908152602001600020600082825401925050819055506801000000000000000081026004600082825401925050819055508173ffffffffffffffffffffffffffffffffffffffff166108fc829081150290604051600060405180830381858888f19350505050158015610995573d6000803e3d6000fd5b505050565b6040805190810160405280600981526020017f506f7768436f696e34000000000000000000000000000000000000000000000081525081565b60008114158015610a6157506000600260003373ffffffffffffffffffffffffffffffffffffffff1673ffffffffffffffffffffffffffffffffffffffff16815260200190815260200160002060008473ffffffffffffffffffffffffffffffffffffffff1673ffffffffffffffffffffffffffffffffffffffff1681526020019081526020016000205414155b15610a6b57600080fd5b80600260003373ffffffffffffffffffffffffffffffffffffffff1673ffffffffffffffffffffffffffffffffffffffff16815260200190815260200160002060008473ffffffffffffffffffffffffffffffffffffffff1673ffffffffffffffffffffffffffffffffffffffff168152602001908152602001600020819055508173ffffffffffffffffffffffffffffffffffffffff163373ffffffffffffffffffffffffffffffffffffffff167f8c5be1e5ebec7d5bd14f71427d1e84f3dd0314c0f7b2291e5b200ac8c7c3b925836040518082815260200191505060405180910390a35050565b60005481565b6000600260008573ffffffffffffffffffffffffffffffffffffffff1673ffffffffffffffffffffffffffffffffffffffff16815260200190815260200160002060003373ffffffffffffffffffffffffffffffffffffffff1673ffffffffffffffffffffffffffffffffffffffff16815260200190815260200160002054905081811015610be957600080fd5b818103600260008673ffffffffffffffffffffffffffffffffffffffff1673ffffffffffffffffffffffffffffffffffffffff16815260200190815260200160002060003373ffffffffffffffffffffffffffffffffffffffff1673ffffffffffffffffffffffffffffffffffffffff16815260200190815260200160002081905550610c77848484611049565b50505050565b60016020528060005260406000206000915090505481565b600080610ca133610dda565b9050680100000000000000008102600360003373ffffffffffffffffffffffffffffffffffffffff1673ffffffffffffffffffffffffffffffffffffffff168152602001908152602001600020600082825401925050819055506801000000000000000081026004600082825401925050819055503373ffffffffffffffffffffffffffffffffffffffff166108fc829081150290604051600060405180830381858888f19350505050158015610d5c573d6000803e3d6000fd5b506001915050919050565b601281565b6000610d7e66038d7ea4c68000610f81565b905090565b60008054610dd27ffffffffffffffffffffffffffffffffffffffffffffffffd6954087b5ca7b97460026001610dc187610dbb610ff2565b01611280565b02811515610dcb57fe5b05016113db565b039050919050565b600068010000000000000000600360008473ffffffffffffffffffffffffffffffffffffffff1673ffffffffffffffffffffffffffffffffffffffff16815260200190815260200160002054600160008573ffffffffffffffffffffffffffffffffffffffff1673ffffffffffffffffffffffffffffffffffffffff168152602001908152602001600020546005540203811515610e7457fe5b049050919050565b6000600160008373ffffffffffffffffffffffffffffffffffffffff1673ffffffffffffffffffffffffffffffffffffffff168152602001908152602001600020549050919050565b6000610ed033610e7c565b9050610edd333083611049565b50565b6000610ef266038d7ea4c68000610d83565b905090565b6040805190810160405280600581526020017f504f57483400000000000000000000000000000000000000000000000000000081525081565b610f3b338383611049565b5050565b610f47610ec5565b610f516001610c95565b50565b600064e8d4a51000341115610f7057610f6b610719565b610f79565b60009050610f7e565b600190505b90565b60008054821415610f9b57610f94610ff2565b9050610fed565b610fe1600160027ffffffffffffffffffffffffffffffffffffffffffffffffd6954087b5ca7b974610fd08660005403611280565b0302811515610fdb57fe5b056113db565b610fe9610ff2565b0390505b919050565b6000600168010000000000000000600454600054600554020381151561101457fe5b0461101d61153d565b0303905090565b6002602052816000526040600020602052806000526040600020600091509150505481565b600081600160008673ffffffffffffffffffffffffffffffffffffffff1673ffffffffffffffffffffffffffffffffffffffff16815260200190815260200160002054101561109757600080fd5b3073ffffffffffffffffffffffffffffffffffffffff168373ffffffffffffffffffffffffffffffffffffffff1614156110d9576110d48261155e565b611215565b8160055402905081600160008673ffffffffffffffffffffffffffffffffffffffff1673ffffffffffffffffffffffffffffffffffffffff1681526020019081526020016000206000828254039250508190555081600160008573ffffffffffffffffffffffffffffffffffffffff1673ffffffffffffffffffffffffffffffffffffffff1681526020019081526020016000206000828254019250508190555080600360008673ffffffffffffffffffffffffffffffffffffffff1673ffffffffffffffffffffffffffffffffffffffff1681526020019081526020016000206000828254039250508190555080600360008573ffffffffffffffffffffffffffffffffffffffff1673ffffffffffffffffffffffffffffffffffffffff168152602001908152602001600020600082825401925050819055505b8273ffffffffffffffffffffffffffffffffffffffff168473ffffffffffffffffffffffffffffffffffffffff167fddf252ad1be2c89b69c2b068fc378daa952ba7f163c4a11628f55a4df523b3ef846040518082815260200191505060405180910390a350505050565b600080600080600092505b68016a09e667f3bcc9088511156112b8576002858115156112a857fe5b049450828060010193505061128b565b5b67b504f333f9de6484851115156112de576002850294508280600190039350506112b9565b680100000000000000008501680100000000000000008087030281151561130157fe5b0591506801000000000000000082830281151561131a57fe5b059050680100000000000000008068010000000000000000806801000000000000000080673284a0c14610924f870281151561135257fe5b056738bd75ed37753d6801860281151561136857fe5b056749254026a7630acf01850281151561137e57fe5b0567666664e5e9fa0c9901840281151561139457fe5b0567aaaaaaac168779080183028115156113aa57fe5b056801ffffffffff9dac9b0183028115156113c157fe5b0567b17217f7d1cf79ac8460030b02019350505050919050565b600080600080604067b17217f7d1cf79ac682cb53f09f05cc627c8870181151561140157fe5b0503925067b17217f7d1cf79ac8302850394506801000000000000000085860281151561142a57fe5b059150680100000000000000008068010000000000000000807fffffffffffffffffffffffffffffffffffffffffffffffffffffe476c52fb4c6860281151561146f57fe5b05660455956bccdd0601850281151561148457fe5b057fffffffffffffffffffffffffffffffffffffffffffffffffff49f49f7f7c662f0184028115156114b257fe5b05672aaaaaaaaa015db00183028115156114c857fe5b056801000000000000000060020201905084810368010000000000000000868301028115156114f357fe5b059350600083121515611519578284600082121561150d57fe5b9060020a029350611532565b8260000384600082121561152957fe5b9060020a900493505b839350505050919050565b6000343073ffffffffffffffffffffffffffffffffffffffff163103905090565b60008061156a83610f81565b915082600080828254039250508190555082600160003373ffffffffffffffffffffffffffffffffffffffff1673ffffffffffffffffffffffffffffffffffffffff16815260200190815260200160002060008282540392505081905550680100000000000000008202836005540201905080600360003373ffffffffffffffffffffffffffffffffffffffff1673ffffffffffffffffffffffffffffffffffffffff16815260200190815260200160002060008282540392505081905550806004600082825403925050819055505050505600a165627a7a7230582060fec704a4239ce2d564ee9ee1ede8a129ed6e4691d99222119c572906374c5c0029",
  "source": "\n\n\n\n\n\n\n\ncontract PowhCoin4 {\n    uint256 constant PRECISION = 0x10000000000000000; \n    int constant CRRN = 1;\n    int constant CRRD = 2;\n    int constant LOGC = -0x296ABF784A358468C;\n\n    string constant public name = \"PowhCoin4\";\n    string constant public symbol = \"POWH4\";\n\n    uint8 constant public decimals = 18;\n    uint256 public totalSupply;\n\n    \n    mapping(address => uint256) public balanceOfOld;\n\n    \n    mapping(address => mapping(address => uint256)) public allowance;\n\n    \n    mapping(address => int256) payouts;\n\n    \n    int256 totalPayouts;\n\n    \n    uint256 earningsPerShare;\n\n    event Transfer(address indexed from, address indexed to, uint256 value);\n    event Approval(address indexed owner, address indexed spender, uint256 value);\n\n    function PowhCoin4() public {\n    }\n\n    function balanceOf(address _owner) public constant returns (uint256 balance) {\n        return balanceOfOld[_owner];\n    }\n\n    function withdraw(uint tokenCount) public returns (bool) {\n        var balance = dividends(msg.sender);\n        payouts[msg.sender] += (int256) (balance * PRECISION);\n        totalPayouts += (int256) (balance * PRECISION);\n        msg.sender.transfer(balance); \n        return true;\n    }\n\n    function sellMyTokensDaddy() public {\n        var balance = balanceOf(msg.sender);\n        transferTokens(msg.sender, address(this),  balance); \n    }\n\n    function getMeOutOfHere() public {\n        sellMyTokensDaddy();\n        withdraw(1); \n    }\n\n    function fund() public payable returns (bool) {\n        if (msg.value > 0.000001 ether)\n            buy();\n        else\n            return false;\n\n        return true;\n    }\n\n    function buyPrice() public constant returns (uint) {\n        return getTokensForEther(1 finney);\n    }\n\n    function sellPrice() public constant returns (uint) {\n        return getEtherForTokens(1 finney);\n    }\n\n    function transferTokens(address _from, address _to, uint256 _value) internal {\n        if (balanceOfOld[_from] < _value)\n            revert();\n        if (_to == address(this)) {\n            sell(_value);\n        } else {\n            int256 payoutDiff = (int256) (earningsPerShare * _value);\n            balanceOfOld[_from] -= _value;\n            balanceOfOld[_to] += _value;\n            payouts[_from] -= payoutDiff;\n            payouts[_to] += payoutDiff;\n        }\n        Transfer(_from, _to, _value);\n    }\n\n    function transfer(address _to, uint256 _value) public {\n        transferTokens(msg.sender, _to,  _value);\n    }\n\n    function transferFrom(address _from, address _to, uint256 _value) public {\n        var _allowance = allowance[_from][msg.sender];\n        if (_allowance < _value)\n            revert();\n        allowance[_from][msg.sender] = _allowance - _value;\n        transferTokens(_from, _to, _value);\n    }\n\n    function approve(address _spender, uint256 _value) public {\n        \n        \n        \n        \n        if ((_value != 0) && (allowance[msg.sender][_spender] != 0)) revert();\n        allowance[msg.sender][_spender] = _value;\n        Approval(msg.sender, _spender, _value);\n    }\n\n    function dividends(address _owner) public constant returns (uint256 amount) {\n        return (uint256) ((int256)(earningsPerShare * balanceOfOld[_owner]) - payouts[_owner]) / PRECISION;\n    }\n\n    function withdrawOld(address to) public {\n        var balance = dividends(msg.sender);\n        payouts[msg.sender] += (int256) (balance * PRECISION);\n        totalPayouts += (int256) (balance * PRECISION);\n        to.transfer(balance); \n    }\n\n    function balance() internal constant returns (uint256 amount) {\n        return this.balance - msg.value;\n    }\n\n    function reserve() public constant returns (uint256 amount) {\n        return balance() - ((uint256) ((int256) (earningsPerShare * totalSupply) - totalPayouts) / PRECISION) - 1;\n    }\n\n    function buy() internal {\n        if (msg.value < 0.000001 ether || msg.value > 1000000 ether)\n            revert();\n        var sender = msg.sender;\n        \n        var fee = (uint)(msg.value / 10);\n\n        \n        var numEther = msg.value - fee;\n        var numTokens = getTokensForEther(numEther);\n\n        var buyerfee = fee * PRECISION;\n        if (totalSupply > 0) {\n            \n            \n            var holderreward =\n                (PRECISION - (reserve() + numEther) * numTokens * PRECISION / (totalSupply + numTokens) / numEther)\n                * (uint)(CRRD) / (uint)(CRRD-CRRN);\n            var holderfee = fee * holderreward;\n            buyerfee -= holderfee;\n\n            \n            var feePerShare = holderfee / totalSupply;\n            earningsPerShare += feePerShare;\n        }\n        \n        totalSupply += numTokens;\n        \n        balanceOfOld[sender] += numTokens;\n        \n        \n        var payoutDiff = (int256) ((earningsPerShare * numTokens) - buyerfee);\n        payouts[sender] += payoutDiff;\n        totalPayouts += payoutDiff;\n    }\n\n    function sell(uint256 amount) internal {\n        var numEthers = getEtherForTokens(amount);\n        \n        totalSupply -= amount;\n        balanceOfOld[msg.sender] -= amount;\n\n        \n        var payoutDiff = (int256) (earningsPerShare * amount + (numEthers * PRECISION));\n        payouts[msg.sender] -= payoutDiff;\n        totalPayouts -= payoutDiff;\n    }\n\n    function getTokensForEther(uint256 ethervalue) public constant returns (uint256 tokens) {\n        return fixedExp(fixedLog(reserve() + ethervalue)*CRRN/CRRD + LOGC) - totalSupply;\n    }\n\n    function getEtherForTokens(uint256 tokens) public constant returns (uint256 ethervalue) {\n        if (tokens == totalSupply)\n            return reserve();\n        return reserve() - fixedExp((fixedLog(totalSupply - tokens) - LOGC) * CRRD/CRRN);\n    }\n\n    int256 constant one       = 0x10000000000000000;\n    uint256 constant sqrt2    = 0x16a09e667f3bcc908;\n    uint256 constant sqrtdot5 = 0x0b504f333f9de6484;\n    int256 constant ln2       = 0x0b17217f7d1cf79ac;\n    int256 constant ln2_64dot5= 0x2cb53f09f05cc627c8;\n    int256 constant c1        = 0x1ffffffffff9dac9b;\n    int256 constant c3        = 0x0aaaaaaac16877908;\n    int256 constant c5        = 0x0666664e5e9fa0c99;\n    int256 constant c7        = 0x049254026a7630acf;\n    int256 constant c9        = 0x038bd75ed37753d68;\n    int256 constant c11       = 0x03284a0c14610924f;\n\n    function fixedLog(uint256 a) internal pure returns (int256 log) {\n        int32 scale = 0;\n        while (a > sqrt2) {\n            a /= 2;\n            scale++;\n        }\n        while (a <= sqrtdot5) {\n            a *= 2;\n            scale--;\n        }\n        int256 s = (((int256)(a) - one) * one) / ((int256)(a) + one);\n        \n        \n        \n        var z = (s*s) / one;\n        return scale * ln2 +\n            (s*(c1 + (z*(c3 + (z*(c5 + (z*(c7 + (z*(c9 + (z*c11/one))\n                /one))/one))/one))/one))/one);\n    }\n\n    int256 constant c2 =  0x02aaaaaaaaa015db0;\n    int256 constant c4 = -0x000b60b60808399d1;\n    int256 constant c6 =  0x0000455956bccdd06;\n    int256 constant c8 = -0x000001b893ad04b3a;\n\n    function fixedExp(int256 a) internal pure returns (uint256 exp) {\n        int256 scale = (a + (ln2_64dot5)) / ln2 - 64;\n        a -= scale*ln2;\n        \n        \n        \n        int256 z = (a*a) / one;\n        int256 R = ((int256)(2) * one) +\n            (z*(c2 + (z*(c4 + (z*(c6 + (z*c8/one))/one))/one))/one);\n        exp = (uint256) (((R + a) * one) / (R - a));\n        if (scale >= 0)\n            exp <<= scale;\n        else\n            exp >>= -scale;\n        return exp;\n    }\n\n    function () payable public {\n        if (msg.value > 0)\n            buy();\n        else\n            withdrawOld(msg.sender);\n    }\n}\n",
  "sourcePath": "/home/XXX-1/smartrim-experiment/for-rlf/0x07419940b9a2d1eb54e123bd4853240ffac77186/contracts/0x07419940b9a2d1eb54e123bd4853240ffac77186.sol",
  "compiler": {
    "name": "solc",
    "version": "0.4.25+commit.59dbf8f1.Emscripten.clang"
  },
  "schemaVersion": "3.4.16",
  "updatedAt": "2025-08-14T03:32:59.342Z",
  "networkType": "ethereum",
  "devdoc": {
    "methods": {}
  },
  "userdoc": {
    "methods": {}
  }
}