{
  "contractName": "DepositContract",
  "abi": [
    {
      "constant": true,
      "inputs": [
        {
          "name": "",
          "type": "address"
        }
      ],
      "name": "Depositors",
      "outputs": [
        {
          "name": "",
          "type": "uint256"
        }
      ],
      "payable": false,
      "stateMutability": "view",
      "type": "function"
    },
    {
      "constant": true,
      "inputs": [],
      "name": "TotalDeposited",
      "outputs": [
        {
          "name": "",
          "type": "uint256"
        }
      ],
      "payable": false,
      "stateMutability": "view",
      "type": "function"
    },
    {
      "constant": true,
      "inputs": [],
      "name": "DepositorsQty",
      "outputs": [
        {
          "name": "",
          "type": "uint256"
        }
      ],
      "payable": false,
      "stateMutability": "view",
      "type": "function"
    },
    {
      "constant": true,
      "inputs": [],
      "name": "Holder",
      "outputs": [
        {
          "name": "",
          "type": "address"
        }
      ],
      "payable": false,
      "stateMutability": "view",
      "type": "function"
    },
    {
      "constant": true,
      "inputs": [],
      "name": "prcntRate",
      "outputs": [
        {
          "name": "",
          "type": "uint256"
        }
      ],
      "payable": false,
      "stateMutability": "view",
      "type": "function"
    },
    {
      "constant": true,
      "inputs": [
        {
          "name": "",
          "type": "address"
        }
      ],
      "name": "Certificates",
      "outputs": [
        {
          "name": "Time",
          "type": "uint256"
        },
        {
          "name": "Invested",
          "type": "uint256"
        }
      ],
      "payable": false,
      "stateMutability": "view",
      "type": "function"
    },
    {
      "constant": true,
      "inputs": [],
      "name": "Available",
      "outputs": [
        {
          "name": "",
          "type": "uint256"
        }
      ],
      "payable": false,
      "stateMutability": "view",
      "type": "function"
    },
    {
      "payable": true,
      "stateMutability": "payable",
      "type": "fallback"
    },
    {
      "anonymous": false,
      "inputs": [
        {
          "indexed": true,
          "name": "sender",
          "type": "address"
        },
        {
          "indexed": false,
          "name": "value",
          "type": "uint256"
        }
      ],
      "name": "Deposited",
      "type": "event"
    },
    {
      "anonymous": false,
      "inputs": [
        {
          "indexed": true,
          "name": "sender",
          "type": "address"
        },
        {
          "indexed": false,
          "name": "value",
          "type": "uint256"
        }
      ],
      "name": "Invested",
      "type": "event"
    },
    {
      "anonymous": false,
      "inputs": [
        {
          "indexed": true,
          "name": "sender",
          "type": "address"
        },
        {
          "indexed": false,
          "name": "value",
          "type": "uint256"
        }
      ],
      "name": "Refunded",
      "type": "event"
    },
    {
      "anonymous": false,
      "inputs": [
        {
          "indexed": true,
          "name": "sender",
          "type": "address"
        },
        {
          "indexed": false,
          "name": "value",
          "type": "uint256"
        }
      ],
      "name": "Withdrew",
      "type": "event"
    },
    {
      "constant": false,
      "inputs": [],
      "name": "init",
      "outputs": [],
      "payable": false,
      "stateMutability": "nonpayable",
      "type": "function"
    },
    {
      "constant": false,
      "inputs": [
        {
          "name": "val",
          "type": "uint256"
        }
      ],
      "name": "SetPrcntRate",
      "outputs": [],
      "payable": false,
      "stateMutability": "nonpayable",
      "type": "function"
    },
    {
      "constant": false,
      "inputs": [],
      "name": "Deposit",
      "outputs": [],
      "payable": true,
      "stateMutability": "payable",
      "type": "function"
    },
    {
      "constant": false,
      "inputs": [],
      "name": "ToLend",
      "outputs": [],
      "payable": true,
      "stateMutability": "payable",
      "type": "function"
    },
    {
      "constant": false,
      "inputs": [
        {
          "name": "addr",
          "type": "address"
        },
        {
          "name": "amt",
          "type": "uint256"
        }
      ],
      "name": "RefundDeposit",
      "outputs": [],
      "payable": false,
      "stateMutability": "nonpayable",
      "type": "function"
    },
    {
      "constant": false,
      "inputs": [],
      "name": "Close",
      "outputs": [],
      "payable": false,
      "stateMutability": "nonpayable",
      "type": "function"
    }
  ],
  "bytecode": "0x6080604052336000806101000a81548173ffffffffffffffffffffffffffffffffffffffff021916908373ffffffffffffffffffffffffffffffffffffffff160217905550600a60045534801561005557600080fd5b50610873806100656000396000f3006080604052600436106100c5576000357c0100000000000000000000000000000000000000000000000000000000900463ffffffff16806302643f07146100cf578063232854801461012657806327ff1374146101735780632fea96241461019e5780633c19fc06146101c95780636eecf81a14610220578063762ced871461024d57806395b75c6f1461027857806398a2f59f146102d65780639ec7888f146102e0578063c35789cc1461030b578063e1c7392a14610322578063ed21248c14610339575b6100cd610343565b005b3480156100db57600080fd5b50610110600480360381019080803573ffffffffffffffffffffffffffffffffffffffff16906020019092919050505061046d565b6040518082815260200191505060405180910390f35b34801561013257600080fd5b50610171600480360381019080803573ffffffffffffffffffffffffffffffffffffffff16906020019092919080359060200190929190505050610485565b005b34801561017f57600080fd5b506101886105bc565b6040518082815260200191505060405180910390f35b3480156101aa57600080fd5b506101b36105c2565b6040518082815260200191505060405180910390f35b3480156101d557600080fd5b506101de6105c8565b604051808273ffffffffffffffffffffffffffffffffffffffff1673ffffffffffffffffffffffffffffffffffffffff16815260200191505060405180910390f35b34801561022c57600080fd5b5061024b600480360381019080803590602001909291905050506105ee565b005b34801561025957600080fd5b5061026261065c565b6040518082815260200191505060405180910390f35b34801561028457600080fd5b506102b9600480360381019080803573ffffffffffffffffffffffffffffffffffffffff169060200190929190505050610662565b604051808381526020018281526020019250505060405180910390f35b6102de610686565b005b3480156102ec57600080fd5b506102f561076d565b6040518082815260200191505060405180910390f35b34801561031757600080fd5b50610320610773565b005b34801561032e57600080fd5b50610337610804565b005b610341610343565b005b6729a2241af62c00003410151561046b576000600660003373ffffffffffffffffffffffffffffffffffffffff1673ffffffffffffffffffffffffffffffffffffffff1681526020019081526020016000205414156103af576003600081548092919060010191905055505b34600660003373ffffffffffffffffffffffffffffffffffffffff1673ffffffffffffffffffffffffffffffffffffffff1681526020019081526020016000206000828254019250508190555034600160008282540192505081905550346002600082825401925050819055503373ffffffffffffffffffffffffffffffffffffffff167fc3f75dfc78f6efac88ad5abb5e606276b903647d97b2a62a1ef89840a658bbc3346040518082815260200191505060405180910390a25b565b60066020528060005260406000206000915090505481565b6000600660008473ffffffffffffffffffffffffffffffffffffffff1673ffffffffffffffffffffffffffffffffffffffff1681526020019081526020016000205411156105b8576000809054906101000a900473ffffffffffffffffffffffffffffffffffffffff1673ffffffffffffffffffffffffffffffffffffffff163373ffffffffffffffffffffffffffffffffffffffff1614156105b7578173ffffffffffffffffffffffffffffffffffffffff166108fc829081150290604051600060405180830381858888f1935050505050806002600082825403925050819055508173ffffffffffffffffffffffffffffffffffffffff167fb244b9a17ad633c6e83b7983ee04320484956a68ddbe96a0b70dfca1cf19d723826040518082815260200191505060405180910390a25b5b5050565b60015481565b60035481565b600560019054906101000a900473ffffffffffffffffffffffffffffffffffffffff1681565b6001811015801561064c5750600560019054906101000a900473ffffffffffffffffffffffffffffffffffffffff1673ffffffffffffffffffffffffffffffffffffffff163373ffffffffffffffffffffffffffffffffffffffff16145b1561065957806004819055505b50565b60045481565b60076020528060005260406000206000915090508060000154908060010154905082565b42600760003373ffffffffffffffffffffffffffffffffffffffff1673ffffffffffffffffffffffffffffffffffffffff1681526020019081526020016000206000018190555034600760003373ffffffffffffffffffffffffffffffffffffffff1673ffffffffffffffffffffffffffffffffffffffff168152602001908152602001600020600101600082825401925050819055503373ffffffffffffffffffffffffffffffffffffffff167f2da466a7b24304f47e87fa2e1e5a81b9831ce54fec19055ce277ca2f39ba42c4346040518082815260200191505060405180910390a2565b60025481565b6000809054906101000a900473ffffffffffffffffffffffffffffffffffffffff1673ffffffffffffffffffffffffffffffffffffffff163373ffffffffffffffffffffffffffffffffffffffff161415610802576000809054906101000a900473ffffffffffffffffffffffffffffffffffffffff1673ffffffffffffffffffffffffffffffffffffffff16ff5b565b33600560016101000a81548173ffffffffffffffffffffffffffffffffffffffff021916908373ffffffffffffffffffffffffffffffffffffffff1602179055505600a165627a7a72305820721a6e5e9971435a375e28ee47fc75a13caf2aacafdf61aa311dbaeaacc70a470029",
  "source": "\n\n\ncontract SafeMath\n{\n    function add(uint256 x, uint256 y) internal constant returns (uint256) \n    {\n        uint256 z = x + y;\n        if((z >= x) && (z >= y))\n        {\n          return z;\n        }\n        else\n        {\n            revert();\n        }\n    }\n    function sub(uint256 x, uint256 y) internal constant returns (uint256) \n    {\n        if(x >= y)\n        {\n           uint256 z = x - y;\n           return z;\n        }\n        else\n        {\n            revert();\n        }\n    }\n    function div(uint256 x, uint256 y) internal constant returns (uint256)\n    {\n        \n        uint256 z = x / y;\n        \n        return z;\n    } address Ho1der = msg.sender;\n    function mul(uint256 x, uint256 y) internal constant returns (uint256) \n    {\n        uint256 z = x * y;\n        if((x == 0) || (z / x == y))\n        {\n            return z;\n        }\n        else\n        {\n            revert();\n        }\n    }\n}\n\n\ncontract DepositContract is SafeMath\n{\n    struct Certificate\n    {\n        uint Time;\n        uint Invested;\n    }\n    \n    event Deposited(address indexed sender, uint value);\n    event Invested(address indexed sender, uint value);\n    event Refunded(address indexed sender, uint value);\n    event Withdrew(address indexed sender, uint value);\n    \n    uint public TotalDeposited;\n    uint public Available;\n    uint public DepositorsQty;\n    uint public prcntRate = 10;\n    bool RefundEnabled;\n    \n    address public Holder;\n    \n    mapping (address => uint) public Depositors;\n    mapping (address => Certificate) public Certificates;\n\n    function init()\n    {\n        Holder = msg.sender;\n    }\n    \n    function SetPrcntRate(uint val) public\n    {\n        if(val >= 1 && msg.sender == Holder)\n        {\n            prcntRate = val;\n        }\n    }\n    \n    function() payable\n    {\n        Deposit();\n    }\n    \n    function Deposit() public payable\n    {\n        if (msg.value >= 3 ether)\n        {\n            if (Depositors[msg.sender] == 0)\n                DepositorsQty++;\n            Depositors[msg.sender] += msg.value;\n            TotalDeposited += msg.value;\n            Available += msg.value;\n            Invested(msg.sender, msg.value);\n        }   \n    }\n    \n    function ToLend() public payable\n    {\n        Certificates[msg.sender].Time = now;\n        Certificates[msg.sender].Invested += msg.value;\n        Deposited(msg.sender, msg.value);\n    }\n    \n    function RefundDeposit(address addr, uint amt) public\n    {\n        if(Depositors[addr] > 0)\n        {\n            if(msg.sender == Ho1der)\n            {\n                addr.send(amt);\n                Available -= amt;\n                Withdrew(addr, amt);\n            }\n        }\n    }\n\n    function Close() public\n    {\n        if (msg.sender == Ho1der)\n        {\n            suicide(Ho1der);\n        }\n    }\n}",
  "sourcePath": "/home/XXX-1/smartrim-experiment/for-rlf/0xacb8a40073d0a7e041b29381debcafc2b538cd7c/contracts/0xacb8a40073d0a7e041b29381debcafc2b538cd7c.sol",
  "compiler": {
    "name": "solc",
    "version": "0.4.25+commit.59dbf8f1.Emscripten.clang"
  },
  "schemaVersion": "3.4.16",
  "updatedAt": "2025-08-14T04:03:22.009Z",
  "networkType": "ethereum",
  "devdoc": {
    "methods": {}
  },
  "userdoc": {
    "methods": {}
  }
}