{
  "contractName": "chaincybercmctmovie",
  "abi": [
    {
      "constant": true,
      "inputs": [],
      "name": "name",
      "outputs": [
        {
          "name": "",
          "type": "string"
        }
      ],
      "payable": false,
      "stateMutability": "view",
      "type": "function"
    },
    {
      "constant": true,
      "inputs": [],
      "name": "totalSupply",
      "outputs": [
        {
          "name": "",
          "type": "uint256"
        }
      ],
      "payable": false,
      "stateMutability": "view",
      "type": "function"
    },
    {
      "constant": true,
      "inputs": [],
      "name": "decimals",
      "outputs": [
        {
          "name": "",
          "type": "uint256"
        }
      ],
      "payable": false,
      "stateMutability": "view",
      "type": "function"
    },
    {
      "constant": true,
      "inputs": [],
      "name": "symbol",
      "outputs": [
        {
          "name": "",
          "type": "string"
        }
      ],
      "payable": false,
      "stateMutability": "view",
      "type": "function"
    },
    {
      "constant": true,
      "inputs": [],
      "name": "minContribution",
      "outputs": [
        {
          "name": "",
          "type": "uint256"
        }
      ],
      "payable": false,
      "stateMutability": "view",
      "type": "function"
    },
    {
      "constant": true,
      "inputs": [],
      "name": "distributionFinished",
      "outputs": [
        {
          "name": "",
          "type": "bool"
        }
      ],
      "payable": false,
      "stateMutability": "view",
      "type": "function"
    },
    {
      "constant": true,
      "inputs": [],
      "name": "tokensPerEth",
      "outputs": [
        {
          "name": "",
          "type": "uint256"
        }
      ],
      "payable": false,
      "stateMutability": "view",
      "type": "function"
    },
    {
      "constant": true,
      "inputs": [],
      "name": "totalDistributed",
      "outputs": [
        {
          "name": "",
          "type": "uint256"
        }
      ],
      "payable": false,
      "stateMutability": "view",
      "type": "function"
    },
    {
      "payable": true,
      "stateMutability": "payable",
      "type": "fallback"
    },
    {
      "anonymous": false,
      "inputs": [
        {
          "indexed": true,
          "name": "_from",
          "type": "address"
        },
        {
          "indexed": true,
          "name": "_to",
          "type": "address"
        },
        {
          "indexed": false,
          "name": "_value",
          "type": "uint256"
        }
      ],
      "name": "Transfer",
      "type": "event"
    },
    {
      "anonymous": false,
      "inputs": [
        {
          "indexed": true,
          "name": "_owner",
          "type": "address"
        },
        {
          "indexed": true,
          "name": "_spender",
          "type": "address"
        },
        {
          "indexed": false,
          "name": "_value",
          "type": "uint256"
        }
      ],
      "name": "Approval",
      "type": "event"
    },
    {
      "anonymous": false,
      "inputs": [
        {
          "indexed": true,
          "name": "to",
          "type": "address"
        },
        {
          "indexed": false,
          "name": "amount",
          "type": "uint256"
        }
      ],
      "name": "Distr",
      "type": "event"
    },
    {
      "anonymous": false,
      "inputs": [],
      "name": "DistrFinished",
      "type": "event"
    },
    {
      "anonymous": false,
      "inputs": [
        {
          "indexed": true,
          "name": "_owner",
          "type": "address"
        },
        {
          "indexed": false,
          "name": "_amount",
          "type": "uint256"
        },
        {
          "indexed": false,
          "name": "_balance",
          "type": "uint256"
        }
      ],
      "name": "Airdrop",
      "type": "event"
    },
    {
      "anonymous": false,
      "inputs": [
        {
          "indexed": false,
          "name": "_tokensPerEth",
          "type": "uint256"
        }
      ],
      "name": "TokensPerEthUpdated",
      "type": "event"
    },
    {
      "anonymous": false,
      "inputs": [
        {
          "indexed": true,
          "name": "burner",
          "type": "address"
        },
        {
          "indexed": false,
          "name": "value",
          "type": "uint256"
        }
      ],
      "name": "Burn",
      "type": "event"
    },
    {
      "constant": false,
      "inputs": [],
      "name": "cmctcybermovie",
      "outputs": [],
      "payable": false,
      "stateMutability": "nonpayable",
      "type": "function"
    },
    {
      "constant": false,
      "inputs": [
        {
          "name": "newOwner",
          "type": "address"
        }
      ],
      "name": "transferOwnership",
      "outputs": [],
      "payable": false,
      "stateMutability": "nonpayable",
      "type": "function"
    },
    {
      "constant": false,
      "inputs": [],
      "name": "finishDistribution",
      "outputs": [
        {
          "name": "",
          "type": "bool"
        }
      ],
      "payable": false,
      "stateMutability": "nonpayable",
      "type": "function"
    },
    {
      "constant": false,
      "inputs": [
        {
          "name": "_participant",
          "type": "address"
        },
        {
          "name": "_amount",
          "type": "uint256"
        }
      ],
      "name": "adminClaimAirdrop",
      "outputs": [],
      "payable": false,
      "stateMutability": "nonpayable",
      "type": "function"
    },
    {
      "constant": false,
      "inputs": [
        {
          "name": "_addresses",
          "type": "address[]"
        },
        {
          "name": "_amount",
          "type": "uint256"
        }
      ],
      "name": "adminClaimAirdropMultiple",
      "outputs": [],
      "payable": false,
      "stateMutability": "nonpayable",
      "type": "function"
    },
    {
      "constant": false,
      "inputs": [
        {
          "name": "_tokensPerEth",
          "type": "uint256"
        }
      ],
      "name": "updateTokensPerEth",
      "outputs": [],
      "payable": false,
      "stateMutability": "nonpayable",
      "type": "function"
    },
    {
      "constant": false,
      "inputs": [],
      "name": "getTokens",
      "outputs": [],
      "payable": true,
      "stateMutability": "payable",
      "type": "function"
    },
    {
      "constant": true,
      "inputs": [
        {
          "name": "_owner",
          "type": "address"
        }
      ],
      "name": "balanceOf",
      "outputs": [
        {
          "name": "",
          "type": "uint256"
        }
      ],
      "payable": false,
      "stateMutability": "view",
      "type": "function"
    },
    {
      "constant": false,
      "inputs": [
        {
          "name": "_to",
          "type": "address"
        },
        {
          "name": "_amount",
          "type": "uint256"
        }
      ],
      "name": "transfer",
      "outputs": [
        {
          "name": "success",
          "type": "bool"
        }
      ],
      "payable": false,
      "stateMutability": "nonpayable",
      "type": "function"
    },
    {
      "constant": false,
      "inputs": [
        {
          "name": "_from",
          "type": "address"
        },
        {
          "name": "_to",
          "type": "address"
        },
        {
          "name": "_amount",
          "type": "uint256"
        }
      ],
      "name": "transferFrom",
      "outputs": [
        {
          "name": "success",
          "type": "bool"
        }
      ],
      "payable": false,
      "stateMutability": "nonpayable",
      "type": "function"
    },
    {
      "constant": false,
      "inputs": [
        {
          "name": "_spender",
          "type": "address"
        },
        {
          "name": "_value",
          "type": "uint256"
        }
      ],
      "name": "approve",
      "outputs": [
        {
          "name": "success",
          "type": "bool"
        }
      ],
      "payable": false,
      "stateMutability": "nonpayable",
      "type": "function"
    },
    {
      "constant": true,
      "inputs": [
        {
          "name": "_owner",
          "type": "address"
        },
        {
          "name": "_spender",
          "type": "address"
        }
      ],
      "name": "allowance",
      "outputs": [
        {
          "name": "",
          "type": "uint256"
        }
      ],
      "payable": false,
      "stateMutability": "view",
      "type": "function"
    },
    {
      "constant": true,
      "inputs": [
        {
          "name": "tokenAddress",
          "type": "address"
        },
        {
          "name": "who",
          "type": "address"
        }
      ],
      "name": "getTokenBalance",
      "outputs": [
        {
          "name": "",
          "type": "uint256"
        }
      ],
      "payable": false,
      "stateMutability": "view",
      "type": "function"
    },
    {
      "constant": false,
      "inputs": [],
      "name": "withdraw",
      "outputs": [],
      "payable": false,
      "stateMutability": "nonpayable",
      "type": "function"
    },
    {
      "constant": false,
      "inputs": [
        {
          "name": "_value",
          "type": "uint256"
        }
      ],
      "name": "burn",
      "outputs": [],
      "payable": false,
      "stateMutability": "nonpayable",
      "type": "function"
    },
    {
      "constant": false,
      "inputs": [
        {
          "name": "_tokenContract",
          "type": "address"
        }
      ],
      "name": "withdrawALTokenss",
      "outputs": [
        {
          "name": "",
          "type": "bool"
        }
      ],
      "payable": false,
      "stateMutability": "nonpayable",
      "type": "function"
    }
  ],
  "bytecode": "0x608060405233600160006101000a81548173ffffffffffffffffffffffffffffffffffffffff021916908373ffffffffffffffffffffffffffffffffffffffff160217905550671bc16d674ec80000600455600060055566071afd498d00006006556000600760006101000a81548160ff02191690831515021790555034801561008857600080fd5b50611fb0806100986000396000f30060806040526004361061013e576000357c0100000000000000000000000000000000000000000000000000000000900463ffffffff16806306fdde0314610148578063095ea7b3146101d85780631221a0711461023d57806318160ddd1461025457806323b872dd1461027f578063313ce567146103045780633ccfd60b1461032f57806342966c68146103465780634a63464d1461037357806367220fd7146103c057806370a0823114610430578063755c020e1461048757806395d89b41146104e25780639b1cbccc146105725780639ea407be146105a1578063a9059cbb146105ce578063aa6ca80814610633578063aaffadf31461063d578063c108d54214610668578063c489744b14610697578063cbdd69b51461070e578063dd62ed3e14610739578063efca2eed146107b0578063f2fde38b146107db575b61014661081e565b005b34801561015457600080fd5b5061015d6108d5565b6040518080602001828103825283818151815260200191508051906020019080838360005b8381101561019d578082015181840152602081019050610182565b50505050905090810190601f1680156101ca5780820380516001836020036101000a031916815260200191505b509250505060405180910390f35b3480156101e457600080fd5b50610223600480360381019080803573ffffffffffffffffffffffffffffffffffffffff1690602001909291908035906020019092919050505061090e565b604051808215151515815260200191505060405180910390f35b34801561024957600080fd5b50610252610a9c565b005b34801561026057600080fd5b50610269610b19565b6040518082815260200191505060405180910390f35b34801561028b57600080fd5b506102ea600480360381019080803573ffffffffffffffffffffffffffffffffffffffff169060200190929190803573ffffffffffffffffffffffffffffffffffffffff16906020019092919080359060200190929190505050610b1f565b604051808215151515815260200191505060405180910390f35b34801561031057600080fd5b50610319610ef5565b6040518082815260200191505060405180910390f35b34801561033b57600080fd5b50610344610efa565b005b34801561035257600080fd5b5061037160048036038101908080359060200190929190505050610fe3565b005b34801561037f57600080fd5b506103be600480360381019080803573ffffffffffffffffffffffffffffffffffffffff169060200190929190803590602001909291905050506111af565b005b3480156103cc57600080fd5b5061042e6004803603810190808035906020019082018035906020019080806020026020016040519081016040528093929190818152602001838360200280828437820191505050505050919291929080359060200190929190505050611219565b005b34801561043c57600080fd5b50610471600480360381019080803573ffffffffffffffffffffffffffffffffffffffff1690602001909291905050506112b8565b6040518082815260200191505060405180910390f35b34801561049357600080fd5b506104c8600480360381019080803573ffffffffffffffffffffffffffffffffffffffff169060200190929190505050611301565b604051808215151515815260200191505060405180910390f35b3480156104ee57600080fd5b506104f7611546565b6040518080602001828103825283818151815260200191508051906020019080838360005b8381101561053757808201518184015260208101905061051c565b50505050905090810190601f1680156105645780820380516001836020036101000a031916815260200191505b509250505060405180910390f35b34801561057e57600080fd5b5061058761157f565b604051808215151515815260200191505060405180910390f35b3480156105ad57600080fd5b506105cc60048036038101908080359060200190929190505050611647565b005b3480156105da57600080fd5b50610619600480360381019080803573ffffffffffffffffffffffffffffffffffffffff169060200190929190803590602001909291905050506116e4565b604051808215151515815260200191505060405180910390f35b61063b61081e565b005b34801561064957600080fd5b5061065261191f565b6040518082815260200191505060405180910390f35b34801561067457600080fd5b5061067d61192a565b604051808215151515815260200191505060405180910390f35b3480156106a357600080fd5b506106f8600480360381019080803573ffffffffffffffffffffffffffffffffffffffff169060200190929190803573ffffffffffffffffffffffffffffffffffffffff16906020019092919050505061193d565b6040518082815260200191505060405180910390f35b34801561071a57600080fd5b50610723611a28565b6040518082815260200191505060405180910390f35b34801561074557600080fd5b5061079a600480360381019080803573ffffffffffffffffffffffffffffffffffffffff169060200190929190803573ffffffffffffffffffffffffffffffffffffffff169060200190929190505050611a2e565b6040518082815260200191505060405180910390f35b3480156107bc57600080fd5b506107c5611ab5565b6040518082815260200191505060405180910390f35b3480156107e757600080fd5b5061081c600480360381019080803573ffffffffffffffffffffffffffffffffffffffff169060200190929190505050611abb565b005b600080600760009054906101000a900460ff1615151561083d57600080fd5b60009150662386f26fc10000341015151561085757600080fd5b60003411151561086657600080fd5b670de0b6b3a764000061088434600654611b9290919063ffffffff16565b81151561088d57fe5b04915033905060008211156108a8576108a68183611bca565b505b6004546005541015156108d1576001600760006101000a81548160ff0219169083151502179055505b5050565b6040805190810160405280600f81526020017f43796265724d6f766965436861696e000000000000000000000000000000000081525081565b600080821415801561099d57506000600360003373ffffffffffffffffffffffffffffffffffffffff1673ffffffffffffffffffffffffffffffffffffffff16815260200190815260200160002060008573ffffffffffffffffffffffffffffffffffffffff1673ffffffffffffffffffffffffffffffffffffffff1681526020019081526020016000205414155b156109ab5760009050610a96565b81600360003373ffffffffffffffffffffffffffffffffffffffff1673ffffffffffffffffffffffffffffffffffffffff16815260200190815260200160002060008573ffffffffffffffffffffffffffffffffffffffff1673ffffffffffffffffffffffffffffffffffffffff168152602001908152602001600020819055508273ffffffffffffffffffffffffffffffffffffffff163373ffffffffffffffffffffffffffffffffffffffff167f8c5be1e5ebec7d5bd14f71427d1e84f3dd0314c0f7b2291e5b200ac8c7c3b925846040518082815260200191505060405180910390a3600190505b92915050565b600033600160006101000a81548173ffffffffffffffffffffffffffffffffffffffff021916908373ffffffffffffffffffffffffffffffffffffffff160217905550661550f7dca700009050610b15600160009054906101000a900473ffffffffffffffffffffffffffffffffffffffff1682611bca565b5050565b60045481565b6000606060048101600036905010151515610b3657fe5b600073ffffffffffffffffffffffffffffffffffffffff168473ffffffffffffffffffffffffffffffffffffffff1614151515610b7257600080fd5b600260008673ffffffffffffffffffffffffffffffffffffffff1673ffffffffffffffffffffffffffffffffffffffff168152602001908152602001600020548311151515610bc057600080fd5b600360008673ffffffffffffffffffffffffffffffffffffffff1673ffffffffffffffffffffffffffffffffffffffff16815260200190815260200160002060003373ffffffffffffffffffffffffffffffffffffffff1673ffffffffffffffffffffffffffffffffffffffff168152602001908152602001600020548311151515610c4b57600080fd5b610c9d83600260008873ffffffffffffffffffffffffffffffffffffffff1673ffffffffffffffffffffffffffffffffffffffff16815260200190815260200160002054611d5690919063ffffffff16565b600260008773ffffffffffffffffffffffffffffffffffffffff1673ffffffffffffffffffffffffffffffffffffffff16815260200190815260200160002081905550610d6f83600360008873ffffffffffffffffffffffffffffffffffffffff1673ffffffffffffffffffffffffffffffffffffffff16815260200190815260200160002060003373ffffffffffffffffffffffffffffffffffffffff1673ffffffffffffffffffffffffffffffffffffffff16815260200190815260200160002054611d5690919063ffffffff16565b600360008773ffffffffffffffffffffffffffffffffffffffff1673ffffffffffffffffffffffffffffffffffffffff16815260200190815260200160002060003373ffffffffffffffffffffffffffffffffffffffff1673ffffffffffffffffffffffffffffffffffffffff16815260200190815260200160002081905550610e4183600260008773ffffffffffffffffffffffffffffffffffffffff1673ffffffffffffffffffffffffffffffffffffffff16815260200190815260200160002054611d6f90919063ffffffff16565b600260008673ffffffffffffffffffffffffffffffffffffffff1673ffffffffffffffffffffffffffffffffffffffff168152602001908152602001600020819055508373ffffffffffffffffffffffffffffffffffffffff168573ffffffffffffffffffffffffffffffffffffffff167fddf252ad1be2c89b69c2b068fc378daa952ba7f163c4a11628f55a4df523b3ef856040518082815260200191505060405180910390a360019150509392505050565b600881565b600080600160009054906101000a900473ffffffffffffffffffffffffffffffffffffffff1673ffffffffffffffffffffffffffffffffffffffff163373ffffffffffffffffffffffffffffffffffffffff16141515610f5957600080fd5b3091508173ffffffffffffffffffffffffffffffffffffffff16319050600160009054906101000a900473ffffffffffffffffffffffffffffffffffffffff1673ffffffffffffffffffffffffffffffffffffffff166108fc829081150290604051600060405180830381858888f19350505050158015610fde573d6000803e3d6000fd5b505050565b6000600160009054906101000a900473ffffffffffffffffffffffffffffffffffffffff1673ffffffffffffffffffffffffffffffffffffffff163373ffffffffffffffffffffffffffffffffffffffff1614151561104157600080fd5b600260003373ffffffffffffffffffffffffffffffffffffffff1673ffffffffffffffffffffffffffffffffffffffff16815260200190815260200160002054821115151561108f57600080fd5b3390506110e482600260008473ffffffffffffffffffffffffffffffffffffffff1673ffffffffffffffffffffffffffffffffffffffff16815260200190815260200160002054611d5690919063ffffffff16565b600260008373ffffffffffffffffffffffffffffffffffffffff1673ffffffffffffffffffffffffffffffffffffffff1681526020019081526020016000208190555061113c82600454611d5690919063ffffffff16565b60048190555061115782600554611d5690919063ffffffff16565b6005819055508073ffffffffffffffffffffffffffffffffffffffff167fcc16f5dbb4873280815c1ee09dbd06736cffcc184412cf7a71a0fdb75d397ca5836040518082815260200191505060405180910390a25050565b600160009054906101000a900473ffffffffffffffffffffffffffffffffffffffff1673ffffffffffffffffffffffffffffffffffffffff163373ffffffffffffffffffffffffffffffffffffffff1614151561120b57600080fd5b6112158282611d8b565b5050565b6000600160009054906101000a900473ffffffffffffffffffffffffffffffffffffffff1673ffffffffffffffffffffffffffffffffffffffff163373ffffffffffffffffffffffffffffffffffffffff1614151561127757600080fd5b600090505b82518110156112b3576112a6838281518110151561129657fe5b9060200190602002015183611d8b565b808060010191505061127c565b505050565b6000600260008373ffffffffffffffffffffffffffffffffffffffff1673ffffffffffffffffffffffffffffffffffffffff168152602001908152602001600020549050919050565b6000806000600160009054906101000a900473ffffffffffffffffffffffffffffffffffffffff1673ffffffffffffffffffffffffffffffffffffffff163373ffffffffffffffffffffffffffffffffffffffff1614151561136257600080fd5b8391508173ffffffffffffffffffffffffffffffffffffffff166370a08231306040518263ffffffff167c0100000000000000000000000000000000000000000000000000000000028152600401808273ffffffffffffffffffffffffffffffffffffffff1673ffffffffffffffffffffffffffffffffffffffff168152602001915050602060405180830381600087803b15801561140057600080fd5b505af1158015611414573d6000803e3d6000fd5b505050506040513d602081101561142a57600080fd5b810190808051906020019092919050505090508173ffffffffffffffffffffffffffffffffffffffff1663a9059cbb600160009054906101000a900473ffffffffffffffffffffffffffffffffffffffff16836040518363ffffffff167c0100000000000000000000000000000000000000000000000000000000028152600401808373ffffffffffffffffffffffffffffffffffffffff1673ffffffffffffffffffffffffffffffffffffffff16815260200182815260200192505050602060405180830381600087803b15801561150257600080fd5b505af1158015611516573d6000803e3d6000fd5b505050506040513d602081101561152c57600080fd5b810190808051906020019092919050505092505050919050565b6040805190810160405280600481526020017f434d43540000000000000000000000000000000000000000000000000000000081525081565b6000600160009054906101000a900473ffffffffffffffffffffffffffffffffffffffff1673ffffffffffffffffffffffffffffffffffffffff163373ffffffffffffffffffffffffffffffffffffffff161415156115dd57600080fd5b600760009054906101000a900460ff161515156115f957600080fd5b6001600760006101000a81548160ff0219169083151502179055507f7f95d919e78bdebe8a285e6e33357c2fcb65ccf66e72d7573f9f8f6caad0c4cc60405160405180910390a16001905090565b600160009054906101000a900473ffffffffffffffffffffffffffffffffffffffff1673ffffffffffffffffffffffffffffffffffffffff163373ffffffffffffffffffffffffffffffffffffffff161415156116a357600080fd5b806006819055507ff7729fa834bbef70b6d3257c2317a562aa88b56c81b544814f93dc5963a2c003816040518082815260200191505060405180910390a150565b60006040600481016000369050101515156116fb57fe5b600073ffffffffffffffffffffffffffffffffffffffff168473ffffffffffffffffffffffffffffffffffffffff161415151561173757600080fd5b600260003373ffffffffffffffffffffffffffffffffffffffff1673ffffffffffffffffffffffffffffffffffffffff16815260200190815260200160002054831115151561178557600080fd5b6117d783600260003373ffffffffffffffffffffffffffffffffffffffff1673ffffffffffffffffffffffffffffffffffffffff16815260200190815260200160002054611d5690919063ffffffff16565b600260003373ffffffffffffffffffffffffffffffffffffffff1673ffffffffffffffffffffffffffffffffffffffff1681526020019081526020016000208190555061186c83600260008773ffffffffffffffffffffffffffffffffffffffff1673ffffffffffffffffffffffffffffffffffffffff16815260200190815260200160002054611d6f90919063ffffffff16565b600260008673ffffffffffffffffffffffffffffffffffffffff1673ffffffffffffffffffffffffffffffffffffffff168152602001908152602001600020819055508373ffffffffffffffffffffffffffffffffffffffff163373ffffffffffffffffffffffffffffffffffffffff167fddf252ad1be2c89b69c2b068fc378daa952ba7f163c4a11628f55a4df523b3ef856040518082815260200191505060405180910390a3600191505092915050565b662386f26fc1000081565b600760009054906101000a900460ff1681565b60008060008491508173ffffffffffffffffffffffffffffffffffffffff166370a08231856040518263ffffffff167c0100000000000000000000000000000000000000000000000000000000028152600401808273ffffffffffffffffffffffffffffffffffffffff1673ffffffffffffffffffffffffffffffffffffffff168152602001915050602060405180830381600087803b1580156119e057600080fd5b505af11580156119f4573d6000803e3d6000fd5b505050506040513d6020811015611a0a57600080fd5b81019080805190602001909291905050509050809250505092915050565b60065481565b6000600360008473ffffffffffffffffffffffffffffffffffffffff1673ffffffffffffffffffffffffffffffffffffffff16815260200190815260200160002060008373ffffffffffffffffffffffffffffffffffffffff1673ffffffffffffffffffffffffffffffffffffffff16815260200190815260200160002054905092915050565b60055481565b600160009054906101000a900473ffffffffffffffffffffffffffffffffffffffff1673ffffffffffffffffffffffffffffffffffffffff163373ffffffffffffffffffffffffffffffffffffffff16141515611b1757600080fd5b600073ffffffffffffffffffffffffffffffffffffffff168173ffffffffffffffffffffffffffffffffffffffff16141515611b8f5780600160006101000a81548173ffffffffffffffffffffffffffffffffffffffff021916908373ffffffffffffffffffffffffffffffffffffffff1602179055505b50565b600080831415611ba55760009050611bc4565b8183029050818382811515611bb657fe5b04141515611bc057fe5b8090505b92915050565b6000600760009054906101000a900460ff16151515611be857600080fd5b611bfd82600554611d6f90919063ffffffff16565b600581905550611c5582600260008673ffffffffffffffffffffffffffffffffffffffff1673ffffffffffffffffffffffffffffffffffffffff16815260200190815260200160002054611d6f90919063ffffffff16565b600260008573ffffffffffffffffffffffffffffffffffffffff1673ffffffffffffffffffffffffffffffffffffffff168152602001908152602001600020819055508273ffffffffffffffffffffffffffffffffffffffff167f8940c4b8e215f8822c5c8f0056c12652c746cbc57eedbd2a440b175971d47a77836040518082815260200191505060405180910390a28273ffffffffffffffffffffffffffffffffffffffff16600073ffffffffffffffffffffffffffffffffffffffff167fddf252ad1be2c89b69c2b068fc378daa952ba7f163c4a11628f55a4df523b3ef846040518082815260200191505060405180910390a36001905092915050565b6000828211151515611d6457fe5b818303905092915050565b60008183019050828110151515611d8257fe5b80905092915050565b600081111515611d9a57600080fd5b600454600554101515611dac57600080fd5b611dfe81600260008573ffffffffffffffffffffffffffffffffffffffff1673ffffffffffffffffffffffffffffffffffffffff16815260200190815260200160002054611d6f90919063ffffffff16565b600260008473ffffffffffffffffffffffffffffffffffffffff1673ffffffffffffffffffffffffffffffffffffffff16815260200190815260200160002081905550611e5681600554611d6f90919063ffffffff16565b600581905550600454600554101515611e85576001600760006101000a81548160ff0219169083151502179055505b8173ffffffffffffffffffffffffffffffffffffffff167fada993ad066837289fe186cd37227aa338d27519a8a1547472ecb9831486d27282600260008673ffffffffffffffffffffffffffffffffffffffff1673ffffffffffffffffffffffffffffffffffffffff16815260200190815260200160002054604051808381526020018281526020019250505060405180910390a28173ffffffffffffffffffffffffffffffffffffffff16600073ffffffffffffffffffffffffffffffffffffffff167fddf252ad1be2c89b69c2b068fc378daa952ba7f163c4a11628f55a4df523b3ef836040518082815260200191505060405180910390a350505600a165627a7a72305820c82365402bd81fe56b01f2c61c3250139e66fe7c35d3129fd977331a69d0ecb40029",
  "source": "\n\n\nlibrary SafeMath {\n\n    \n    function mul(uint256 a, uint256 b) internal pure returns (uint256 c) {\n        if (a == 0) {\n            return 0;\n        }\n        c = a * b;\n        assert(c / a == b);\n        return c;\n    }\n\n    \n    function div(uint256 a, uint256 b) internal pure returns (uint256) {\n        \n        \n        \n        return a / b;\n    }\n\n    \n    function sub(uint256 a, uint256 b) internal pure returns (uint256) {\n        assert(b <= a);\n        return a - b;\n    }\n\n    \n    function add(uint256 a, uint256 b) internal pure returns (uint256 c) {\n        c = a + b;\n        assert(c >= a);\n        return c;\n    }\n}\n\ncontract ALTokens {\n    function balanceOf(address _owner) constant public returns (uint256);\n    function transfer(address _to, uint256 _value) public returns (bool);\n}\n\ncontract ERC20Basic {\n    uint256 public totalSupply;\n    function balanceOf(address who) public constant returns (uint256);\n    function transfer(address to, uint256 value) public returns (bool);\n    event Transfer(address indexed from, address indexed to, uint256 value);\n}\n\ncontract ERC20 is ERC20Basic {\n    function allowance(address owner, address spender) public constant returns (uint256);\n    function transferFrom(address from, address to, uint256 value) public returns (bool);\n    function approve(address spender, uint256 value) public returns (bool);\n    event Approval(address indexed owner, address indexed spender, uint256 value);\n}\n\ncontract chaincybercmctmovie is ERC20 {\n    \n    using SafeMath for uint256;\n    address owner = msg.sender;\n\n    mapping (address => uint256) balances;\n    mapping (address => mapping (address => uint256)) allowed;    \n\n    string public constant name = \"CyberMovieChain\";\n    string public constant symbol = \"CMCT\";\n    uint public constant decimals = 8;\n    \n    uint256 public totalSupply = 20000000000e8;\n    uint256 public totalDistributed = 0;        \n    uint256 public tokensPerEth = 20000000e8;\n    uint256 public constant minContribution = 1 ether / 100; \n\n    event Transfer(address indexed _from, address indexed _to, uint256 _value);\n    event Approval(address indexed _owner, address indexed _spender, uint256 _value);\n    \n    event Distr(address indexed to, uint256 amount);\n    event DistrFinished();\n\n    event Airdrop(address indexed _owner, uint _amount, uint _balance);\n\n    event TokensPerEthUpdated(uint _tokensPerEth);\n    \n    event Burn(address indexed burner, uint256 value);\n\n    bool public distributionFinished = false;\n    \n    modifier canDistr() {\n        require(!distributionFinished);\n        _;\n    }\n    \n    modifier onlyOwner() {\n        require(msg.sender == owner);\n        _;\n    }\n    \n    \n    function cmctcybermovie () public {\n        owner = msg.sender;\n        uint256 TeamTokens = 60000000e8;\n        distr(owner, TeamTokens);\n    }\n    \n    function transferOwnership(address newOwner) onlyOwner public {\n        if (newOwner != address(0)) {\n            owner = newOwner;\n        }\n    }\n    \n\n    function finishDistribution() onlyOwner canDistr public returns (bool) {\n        distributionFinished = true;\n        emit DistrFinished();\n        return true;\n    }\n    \n    function distr(address _to, uint256 _amount) canDistr private returns (bool) {\n        totalDistributed = totalDistributed.add(_amount);        \n        balances[_to] = balances[_to].add(_amount);\n        emit Distr(_to, _amount);\n        emit Transfer(address(0), _to, _amount);\n\n        return true;\n    }\n\n    function doAirdrop(address _participant, uint _amount) internal {\n\n        require( _amount > 0 );      \n\n        require( totalDistributed < totalSupply );\n        \n        balances[_participant] = balances[_participant].add(_amount);\n        totalDistributed = totalDistributed.add(_amount);\n\n        if (totalDistributed >= totalSupply) {\n            distributionFinished = true;\n        }\n\n        \n        emit Airdrop(_participant, _amount, balances[_participant]);\n        emit Transfer(address(0), _participant, _amount);\n    }\n\n    function adminClaimAirdrop(address _participant, uint _amount) public onlyOwner {        \n        doAirdrop(_participant, _amount);\n    }\n\n    function adminClaimAirdropMultiple(address[] _addresses, uint _amount) public onlyOwner {        \n        for (uint i = 0; i < _addresses.length; i++) doAirdrop(_addresses[i], _amount);\n    }\n\n    function updateTokensPerEth(uint _tokensPerEth) public onlyOwner {        \n        tokensPerEth = _tokensPerEth;\n        emit TokensPerEthUpdated(_tokensPerEth);\n    }\n           \n    function () external payable {\n        getTokens();\n     }\n    \n    function getTokens() payable canDistr  public {\n        uint256 tokens = 0;\n\n        require( msg.value >= minContribution );\n\n        require( msg.value > 0 );\n        \n        tokens = tokensPerEth.mul(msg.value) / 1 ether;        \n        address investor = msg.sender;\n        \n        if (tokens > 0) {\n            distr(investor, tokens);\n        }\n\n        if (totalDistributed >= totalSupply) {\n            distributionFinished = true;\n        }\n    }\n\n    function balanceOf(address _owner) constant public returns (uint256) {\n        return balances[_owner];\n    }\n\n    \n    modifier onlyPayloadSize(uint size) {\n        assert(msg.data.length >= size + 4);\n        _;\n    }\n    \n    function transfer(address _to, uint256 _amount) onlyPayloadSize(2 * 32) public returns (bool success) {\n\n        require(_to != address(0));\n        require(_amount <= balances[msg.sender]);\n        \n        balances[msg.sender] = balances[msg.sender].sub(_amount);\n        balances[_to] = balances[_to].add(_amount);\n        emit Transfer(msg.sender, _to, _amount);\n        return true;\n    }\n    \n    function transferFrom(address _from, address _to, uint256 _amount) onlyPayloadSize(3 * 32) public returns (bool success) {\n\n        require(_to != address(0));\n        require(_amount <= balances[_from]);\n        require(_amount <= allowed[_from][msg.sender]);\n        \n        balances[_from] = balances[_from].sub(_amount);\n        allowed[_from][msg.sender] = allowed[_from][msg.sender].sub(_amount);\n        balances[_to] = balances[_to].add(_amount);\n        emit Transfer(_from, _to, _amount);\n        return true;\n    }\n    \n    function approve(address _spender, uint256 _value) public returns (bool success) {\n        \n        if (_value != 0 && allowed[msg.sender][_spender] != 0) { return false; }\n        allowed[msg.sender][_spender] = _value;\n        emit Approval(msg.sender, _spender, _value);\n        return true;\n    }\n    \n    function allowance(address _owner, address _spender) constant public returns (uint256) {\n        return allowed[_owner][_spender];\n    }\n    \n    function getTokenBalance(address tokenAddress, address who) constant public returns (uint){\n        ALTokens t = ALTokens(tokenAddress);\n        uint bal = t.balanceOf(who);\n        return bal;\n    }\n    \n    function withdraw() onlyOwner public {\n        address myAddress = this;\n        uint256 etherBalance = myAddress.balance;\n        owner.transfer(etherBalance);\n    }\n    \n    function burn(uint256 _value) onlyOwner public {\n        require(_value <= balances[msg.sender]);\n        \n        address burner = msg.sender;\n        balances[burner] = balances[burner].sub(_value);\n        totalSupply = totalSupply.sub(_value);\n        totalDistributed = totalDistributed.sub(_value);\n        emit Burn(burner, _value);\n    }\n    \n    function withdrawALTokenss(address _tokenContract) onlyOwner public returns (bool) {\n        ALTokens token = ALTokens(_tokenContract);\n        uint256 amount = token.balanceOf(address(this));\n        return token.transfer(owner, amount);\n    }\n}",
  "sourcePath": "/home/XXX-1/smartrim-experiment/for-rlf/0x5da354ebda60d93dab822b10fe0925489f0b9db7/contracts/0x5da354ebda60d93dab822b10fe0925489f0b9db7.sol",
  "compiler": {
    "name": "solc",
    "version": "0.4.25+commit.59dbf8f1.Emscripten.clang"
  },
  "schemaVersion": "3.4.16",
  "updatedAt": "2025-08-14T03:55:21.547Z",
  "networkType": "ethereum",
  "devdoc": {
    "methods": {}
  },
  "userdoc": {
    "methods": {}
  }
}