{
  "contractName": "DecentBetVault",
  "abi": [
    {
      "constant": true,
      "inputs": [],
      "name": "timeOffset",
      "outputs": [
        {
          "name": "",
          "type": "uint256"
        }
      ],
      "payable": false,
      "stateMutability": "view",
      "type": "function"
    },
    {
      "constant": true,
      "inputs": [],
      "name": "isDecentBetVault",
      "outputs": [
        {
          "name": "",
          "type": "bool"
        }
      ],
      "payable": false,
      "stateMutability": "view",
      "type": "function"
    },
    {
      "inputs": [
        {
          "name": "_decentBetMultisig",
          "type": "address"
        }
      ],
      "payable": false,
      "stateMutability": "nonpayable",
      "type": "constructor"
    },
    {
      "payable": true,
      "stateMutability": "payable",
      "type": "fallback"
    },
    {
      "constant": false,
      "inputs": [],
      "name": "unlock",
      "outputs": [],
      "payable": false,
      "stateMutability": "nonpayable",
      "type": "function"
    }
  ],
  "bytecode": "0x608060405260008060006101000a81548160ff02191690831515021790555034801561002a57600080fd5b506040516020806105028339810180604052810190808051906020019092919050505060008173ffffffffffffffffffffffffffffffffffffffff16141561007157600080fd5b33600060016101000a81548173ffffffffffffffffffffffffffffffffffffffff021916908373ffffffffffffffffffffffffffffffffffffffff16021790555080600160006101000a81548173ffffffffffffffffffffffffffffffffffffffff021916908373ffffffffffffffffffffffffffffffffffffffff16021790555060016000806101000a81548160ff02191690831515021790555061014061012761014c640100000000026401000000009004565b6301e13380610154640100000000026401000000009004565b6002819055505061019c565b600042905090565b600080828401905061018384821015801561016f5750838210155b61018d640100000000026401000000009004565b8091505092915050565b80151561019957600080fd5b50565b610357806101ab6000396000f300608060405260043610610057576000357c0100000000000000000000000000000000000000000000000000000000900463ffffffff168063a438b0e51461005c578063a69df4b514610087578063cd3faa6a1461009e575b600080fd5b34801561006857600080fd5b506100716100cd565b6040518082815260200191505060405180910390f35b34801561009357600080fd5b5061009c6100d5565b005b3480156100aa57600080fd5b506100b3610311565b604051808215151515815260200191505060405180910390f35b6301e1338081565b6002546100e0610323565b10156100eb57600080fd5b600060019054906101000a900473ffffffffffffffffffffffffffffffffffffffff1673ffffffffffffffffffffffffffffffffffffffff1663a9059cbb600160009054906101000a900473ffffffffffffffffffffffffffffffffffffffff16600060019054906101000a900473ffffffffffffffffffffffffffffffffffffffff1673ffffffffffffffffffffffffffffffffffffffff166370a08231306040518263ffffffff167c0100000000000000000000000000000000000000000000000000000000028152600401808273ffffffffffffffffffffffffffffffffffffffff1673ffffffffffffffffffffffffffffffffffffffff168152602001915050602060405180830381600087803b15801561020957600080fd5b505af115801561021d573d6000803e3d6000fd5b505050506040513d602081101561023357600080fd5b81019080805190602001909291905050506040518363ffffffff167c0100000000000000000000000000000000000000000000000000000000028152600401808373ffffffffffffffffffffffffffffffffffffffff1673ffffffffffffffffffffffffffffffffffffffff16815260200182815260200192505050602060405180830381600087803b1580156102c957600080fd5b505af11580156102dd573d6000803e3d6000fd5b505050506040513d60208110156102f357600080fd5b8101908080519060200190929190505050151561030f57600080fd5b565b6000809054906101000a900460ff1681565b6000429050905600a165627a7a72305820b8ec59b6e99f42c78140865edce93b4d6a5955a6aa29eae3909f6504272fd4a60029",
  "source": "\n\n\n\ncontract ERC20 {\n    uint public totalSupply;\n    function balanceOf(address who) constant returns (uint);\n    function allowance(address owner, address spender) constant returns (uint);\n\n    function transfer(address to, uint value) returns (bool ok);\n    function transferFrom(address from, address to, uint value) returns (bool ok);\n    function approve(address spender, uint value) returns (bool ok);\n    event Transfer(address indexed from, address indexed to, uint value);\n    event Approval(address indexed owner, address indexed spender, uint value);\n}\n\n\n\n\ncontract SafeMath {\n    function safeMul(uint a, uint b) internal returns (uint) {\n        uint c = a * b;\n        assert(a == 0 || c / a == b);\n        return c;\n    }\n\n    function safeDiv(uint a, uint b) internal returns (uint) {\n        assert(b > 0);\n        uint c = a / b;\n        assert(a == b * c + a % b);\n        return c;\n    }\n\n    function safeSub(uint a, uint b) internal returns (uint) {\n        assert(b <= a);\n        return a - b;\n    }\n\n    function safeAdd(uint a, uint b) internal returns (uint) {\n        uint c = a + b;\n        assert(c >= a && c >= b);\n        return c;\n    }\n\n    function max64(uint64 a, uint64 b) internal constant returns (uint64) {\n        return a >= b ? a : b;\n    }\n\n    function min64(uint64 a, uint64 b) internal constant returns (uint64) {\n        return a < b ? a : b;\n    }\n\n    function max256(uint256 a, uint256 b) internal constant returns (uint256) {\n        return a >= b ? a : b;\n    }\n\n    function min256(uint256 a, uint256 b) internal constant returns (uint256) {\n        return a < b ? a : b;\n    }\n\n    function assert(bool assertion) internal {\n        if (!assertion) {\n            throw;\n        }\n    }\n\n}\n\n\n\ncontract MultiSigWallet {\n\n    \n    bool public isMultiSigWallet = false;\n\n    uint constant public MAX_OWNER_COUNT = 50;\n\n    event Confirmation(address indexed sender, uint indexed transactionId);\n    event Revocation(address indexed sender, uint indexed transactionId);\n    event Submission(uint indexed transactionId);\n    event Execution(uint indexed transactionId);\n    event ExecutionFailure(uint indexed transactionId);\n    event Deposit(address indexed sender, uint value);\n    event OwnerAddition(address indexed owner);\n    event OwnerRemoval(address indexed owner);\n    event RequirementChange(uint required);\n\n    mapping (uint => Transaction) public transactions;\n    mapping (uint => mapping (address => bool)) public confirmations;\n    mapping (address => bool) public isOwner;\n    address[] public owners;\n    uint public required;\n    uint public transactionCount;\n\n    struct Transaction {\n    address destination;\n    uint value;\n    bytes data;\n    bool executed;\n    }\n\n    modifier onlyWallet() {\n        if (msg.sender != address(this)) throw;\n        _;\n    }\n\n    modifier ownerDoesNotExist(address owner) {\n        if (isOwner[owner]) throw;\n        _;\n    }\n\n    modifier ownerExists(address owner) {\n        if (!isOwner[owner]) throw;\n        _;\n    }\n\n    modifier transactionExists(uint transactionId) {\n        if (transactions[transactionId].destination == 0) throw;\n        _;\n    }\n\n    modifier confirmed(uint transactionId, address owner) {\n        if (!confirmations[transactionId][owner]) throw;\n        _;\n    }\n\n    modifier notConfirmed(uint transactionId, address owner) {\n        if (confirmations[transactionId][owner]) throw;\n        _;\n    }\n\n    modifier notExecuted(uint transactionId) {\n        if (transactions[transactionId].executed) throw;\n        _;\n    }\n\n    modifier notNull(address _address) {\n        if (_address == 0) throw;\n        _;\n    }\n\n    modifier validRequirement(uint ownerCount, uint _required) {\n        if (ownerCount > MAX_OWNER_COUNT) throw;\n        if (_required > ownerCount) throw;\n        if (_required == 0) throw;\n        if (ownerCount == 0) throw;\n        _;\n    }\n\n    \n    function()\n    payable\n    {\n        if (msg.value > 0)\n        Deposit(msg.sender, msg.value);\n    }\n\n    \n    \n    \n    \n    function MultiSigWallet(address[] _owners, uint _required)\n    public\n    validRequirement(_owners.length, _required)\n    {\n        for (uint i=0; i<_owners.length; i++) {\n            if (isOwner[_owners[i]] || _owners[i] == 0) throw;\n            isOwner[_owners[i]] = true;\n        }\n        isMultiSigWallet = true;\n        owners = _owners;\n        required = _required;\n    }\n\n    \n    \n    function addOwner(address owner)\n    public\n    onlyWallet\n    ownerDoesNotExist(owner)\n    notNull(owner)\n    validRequirement(owners.length + 1, required)\n    {\n        isOwner[owner] = true;\n        owners.push(owner);\n        OwnerAddition(owner);\n    }\n\n    \n    \n    function removeOwner(address owner)\n    public\n    onlyWallet\n    ownerExists(owner)\n    {\n        isOwner[owner] = false;\n        for (uint i=0; i<owners.length - 1; i++)\n        if (owners[i] == owner) {\n            owners[i] = owners[owners.length - 1];\n            break;\n        }\n        owners.length -= 1;\n        if (required > owners.length)\n        changeRequirement(owners.length);\n        OwnerRemoval(owner);\n    }\n\n    \n    \n    \n    \n    function replaceOwnerIndexed(address owner, address newOwner, uint index)\n    public\n    onlyWallet\n    ownerExists(owner)\n    ownerDoesNotExist(newOwner)\n    {\n        if (owners[index] != owner) throw;\n        owners[index] = newOwner;\n        isOwner[owner] = false;\n        isOwner[newOwner] = true;\n        OwnerRemoval(owner);\n        OwnerAddition(newOwner);\n    }\n\n\n    \n    \n    function changeRequirement(uint _required)\n    public\n    onlyWallet\n    validRequirement(owners.length, _required)\n    {\n        required = _required;\n        RequirementChange(_required);\n    }\n\n    \n    \n    \n    \n    \n    function submitTransaction(address destination, uint value, bytes data)\n    public\n    returns (uint transactionId)\n    {\n        transactionId = addTransaction(destination, value, data);\n        confirmTransaction(transactionId);\n    }\n\n    \n    \n    function confirmTransaction(uint transactionId)\n    public\n    ownerExists(msg.sender)\n    transactionExists(transactionId)\n    notConfirmed(transactionId, msg.sender)\n    {\n        confirmations[transactionId][msg.sender] = true;\n        Confirmation(msg.sender, transactionId);\n        executeTransaction(transactionId);\n    }\n\n    \n    \n    function revokeConfirmation(uint transactionId)\n    public\n    ownerExists(msg.sender)\n    confirmed(transactionId, msg.sender)\n    notExecuted(transactionId)\n    {\n        confirmations[transactionId][msg.sender] = false;\n        Revocation(msg.sender, transactionId);\n    }\n\n    \n    \n    \n    function isConfirmed(uint transactionId)\n    public\n    constant\n    returns (bool)\n    {\n        uint count = 0;\n        for (uint i=0; i<owners.length; i++) {\n            if (confirmations[transactionId][owners[i]])\n            count += 1;\n            if (count == required)\n            return true;\n        }\n    }\n\n    \n\n    \n    \n    function executeTransaction(uint transactionId)\n    internal\n    notExecuted(transactionId)\n    {\n        if (isConfirmed(transactionId)) {\n            Transaction tx = transactions[transactionId];\n            tx.executed = true;\n            if (tx.destination.call.value(tx.value)(tx.data))\n            Execution(transactionId);\n            else {\n                ExecutionFailure(transactionId);\n                tx.executed = false;\n            }\n        }\n    }\n\n    \n    \n    \n    \n    \n    function addTransaction(address destination, uint value, bytes data)\n    internal\n    notNull(destination)\n    returns (uint transactionId)\n    {\n        transactionId = transactionCount;\n        transactions[transactionId] = Transaction({\n        destination: destination,\n        value: value,\n        data: data,\n        executed: false\n        });\n        transactionCount += 1;\n        Submission(transactionId);\n    }\n\n    \n    \n    \n    \n    function getConfirmationCount(uint transactionId)\n    public\n    constant\n    returns (uint count)\n    {\n        for (uint i=0; i<owners.length; i++)\n        if (confirmations[transactionId][owners[i]])\n        count += 1;\n    }\n\n    \n    \n    \n    \n    function getTransactionCount(bool pending, bool executed)\n    public\n    constant\n    returns (uint count)\n    {\n        for (uint i=0; i<transactionCount; i++)\n        if ((pending && !transactions[i].executed) ||\n        (executed && transactions[i].executed))\n        count += 1;\n    }\n\n    \n    \n    function getOwners()\n    public\n    constant\n    returns (address[])\n    {\n        return owners;\n    }\n\n    \n    \n    \n    function getConfirmations(uint transactionId)\n    public\n    constant\n    returns (address[] _confirmations)\n    {\n        address[] memory confirmationsTemp = new address[](owners.length);\n        uint count = 0;\n        uint i;\n        for (i=0; i<owners.length; i++)\n        if (confirmations[transactionId][owners[i]]) {\n            confirmationsTemp[count] = owners[i];\n            count += 1;\n        }\n        _confirmations = new address[](count);\n        for (i=0; i<count; i++)\n        _confirmations[i] = confirmationsTemp[i];\n    }\n\n    \n    \n    \n    \n    \n    \n    function getTransactionIds(uint from, uint to, bool pending, bool executed)\n    public\n    constant\n    returns (uint[] _transactionIds)\n    {\n        uint[] memory transactionIdsTemp = new uint[](transactionCount);\n        uint count = 0;\n        uint i;\n        for (i=0; i<transactionCount; i++)\n        if ((pending && !transactions[i].executed) ||\n        (executed && transactions[i].executed))\n        {\n            transactionIdsTemp[count] = i;\n            count += 1;\n        }\n        _transactionIds = new uint[](to - from);\n        for (i=from; i<to; i++)\n        _transactionIds[i - from] = transactionIdsTemp[i];\n    }\n\n}\n\ncontract UpgradeAgent is SafeMath {\n    address public owner;\n\n    bool public isUpgradeAgent;\n\n    function upgradeFrom(address _from, uint256 _value) public;\n\n    function finalizeUpgrade() public;\n\n    function setOriginalSupply() public;\n}\n\n\ncontract DecentBetVault is SafeMath {\n\n    \n    bool public isDecentBetVault = false;\n\n    DecentBetToken_1 decentBetToken;\n\n    address decentBetMultisig;\n\n    uint256 unlockedAtTime;\n\n    \n    uint256 public constant timeOffset = 1 years;\n\n    \n    \n    function DecentBetVault(address _decentBetMultisig)  {\n        if (_decentBetMultisig == 0x0) throw;\n        decentBetToken = DecentBetToken_1(msg.sender);\n        decentBetMultisig = _decentBetMultisig;\n        isDecentBetVault = true;\n\n        \n        unlockedAtTime = safeAdd(getTime(), timeOffset);\n    }\n\n    \n    function unlock() external {\n        \n        if (getTime() < unlockedAtTime) throw;\n        \n        if (!decentBetToken.transfer(decentBetMultisig, decentBetToken.balanceOf(this))) throw;\n    }\n\n    function getTime() internal returns (uint256) {\n        return now;\n    }\n\n    \n    function() payable {\n        throw;\n    }\n\n}\n\n\n\ncontract DecentBetToken_1 is SafeMath, ERC20 {\n\n    \n    bool public isDecentBetToken_1 = false;\n\n    \n    enum State{Waiting, PreSale, CommunitySale, PublicSale, Success}\n\n    \n    string public constant name = \"Decent.Bet Token\";\n\n    string public constant symbol = \"DBET\";\n\n    uint256 public constant decimals = 18;  \n\n    uint256 public constant housePercentOfTotal = 10;\n\n    uint256 public constant vaultPercentOfTotal = 18;\n\n    uint256 public constant bountyPercentOfTotal = 2;\n\n    uint256 public constant crowdfundPercentOfTotal = 70;\n\n    uint256 public constant hundredPercent = 100;\n\n    mapping (address => uint256) balances;\n\n    mapping (address => mapping (address => uint256)) allowed;\n\n    \n    address public team;\n\n    \n    bool public finalizedUpgrade = false;\n\n    address public upgradeMaster;\n\n    UpgradeAgent public upgradeAgent;\n\n    uint256 public totalUpgraded;\n\n    \n    bool public finalizedCrowdfunding = false;\n\n    \n    address[] public preSaleWhitelist;\n    mapping (address => bool) public preSaleAllowed;\n\n    \n    address[] public communitySaleWhitelist;\n    mapping (address => bool) public communitySaleAllowed;\n    uint[2] public communitySaleCap = [100000 ether, 200000 ether];\n    mapping (address => uint[2]) communitySalePurchases;\n\n    uint256 public preSaleStartTime; \n    uint256 public fundingStartTime; \n    uint256 public fundingEndTime; \n    \n    \n    uint256 public baseTokensPerEther;\n    uint256 public tokenCreationMax = safeMul(250000 ether, 1000); \n\n    \n    uint256 public preSaleAllotment;\n    \n    address public preSaleAddress;\n\n    \n    \n    \n\n    address public decentBetMultisig;\n\n    DecentBetVault public timeVault; \n\n    event Upgrade(address indexed _from, address indexed _to, uint256 _value);\n\n    event UpgradeFinalized(address sender, address upgradeAgent);\n\n    event UpgradeAgentSet(address agent);\n\n    \n    modifier onlyTeam() {\n        if(msg.sender != team) throw;\n        _;\n    }\n\n    function DecentBetToken_1(address _decentBetMultisig,\n    address _upgradeMaster, address _team,\n    uint256 _baseTokensPerEther, uint256 _fundingStartTime,\n    uint256 _fundingEndTime) {\n\n        if (_decentBetMultisig == 0) throw;\n        if (_team == 0) throw;\n        if (_upgradeMaster == 0) throw;\n        if (_baseTokensPerEther == 0) throw;\n\n        \n        \n        \n        if (_fundingStartTime < getTime()) throw;\n\n        if (_fundingEndTime <= _fundingStartTime) throw;\n\n        isDecentBetToken_1 = true;\n\n        upgradeMaster = _upgradeMaster;\n        team = _team;\n\n        baseTokensPerEther = _baseTokensPerEther;\n\n        preSaleStartTime = _fundingStartTime - 1 days;\n        fundingStartTime = _fundingStartTime;\n        fundingEndTime = _fundingEndTime;\n\n        \n        \n        preSaleAddress = 0x87f7beeda96216ec2a325e417a45ed262495686b;\n        preSaleAllotment = 45000000 ether;\n\n        balances[preSaleAddress] = preSaleAllotment;\n        totalSupply = safeAdd(totalSupply, preSaleAllotment);\n\n        timeVault = new DecentBetVault(_decentBetMultisig);\n        if (!timeVault.isDecentBetVault()) throw;\n\n        decentBetMultisig = _decentBetMultisig;\n        if (!MultiSigWallet(decentBetMultisig).isMultiSigWallet()) throw;\n    }\n\n    function balanceOf(address who) constant returns (uint) {\n        return balances[who];\n    }\n\n    \n    \n    \n    \n    \n    \n    \n    function transfer(address to, uint256 value) returns (bool ok) {\n        if (getState() != State.Success) throw;\n        \n        uint256 senderBalance = balances[msg.sender];\n        if (senderBalance >= value && value > 0) {\n            senderBalance = safeSub(senderBalance, value);\n            balances[msg.sender] = senderBalance;\n            balances[to] = safeAdd(balances[to], value);\n            Transfer(msg.sender, to, value);\n            return true;\n        }\n        return false;\n    }\n\n    \n    \n    \n    \n    \n    \n    \n    \n    function transferFrom(address from, address to, uint256 value) returns (bool ok) {\n        if (getState() != State.Success) throw;\n        \n        \n        if (balances[from] >= value &&\n        allowed[from][msg.sender] >= value &&\n        safeAdd(balances[to], value) > balances[to])\n        {\n            balances[to] = safeAdd(balances[to], value);\n            balances[from] = safeSub(balances[from], value);\n            allowed[from][msg.sender] = safeSub(allowed[from][msg.sender], value);\n            Transfer(from, to, value);\n            return true;\n        }\n        else {return false;}\n    }\n\n    \n    \n    \n    \n    function approve(address spender, uint256 value) returns (bool ok) {\n        if (getState() != State.Success) throw;\n        \n        allowed[msg.sender][spender] = value;\n        Approval(msg.sender, spender, value);\n        return true;\n    }\n\n    \n    \n    \n    function allowance(address owner, address spender) constant returns (uint) {\n        return allowed[owner][spender];\n    }\n\n    \n\n    \n    \n    \n    function upgrade(uint256 value) external {\n        if (getState() != State.Success) throw;\n        \n        if (upgradeAgent.owner() == 0x0) throw;\n        \n        if (finalizedUpgrade) throw;\n        \n\n        \n        if (value == 0) throw;\n        if (value > balances[msg.sender]) throw;\n\n        \n        balances[msg.sender] = safeSub(balances[msg.sender], value);\n        totalSupply = safeSub(totalSupply, value);\n        totalUpgraded = safeAdd(totalUpgraded, value);\n        upgradeAgent.upgradeFrom(msg.sender, value);\n        Upgrade(msg.sender, upgradeAgent, value);\n    }\n\n    \n    \n    \n    \n    function setUpgradeAgent(address agent) external {\n        if (getState() != State.Success) throw;\n        \n        if (agent == 0x0) throw;\n        \n        if (msg.sender != upgradeMaster) throw;\n        \n        upgradeAgent = UpgradeAgent(agent);\n        if (!upgradeAgent.isUpgradeAgent()) throw;\n        \n        upgradeAgent.setOriginalSupply();\n        UpgradeAgentSet(upgradeAgent);\n    }\n\n    \n    \n    \n    \n    function setUpgradeMaster(address master) external {\n        if (getState() != State.Success) throw;\n        \n        if (master == 0x0) throw;\n        if (msg.sender != upgradeMaster) throw;\n        \n        upgradeMaster = master;\n    }\n\n    \n    \n    function finalizeUpgrade() external {\n        if (getState() != State.Success) throw;\n        \n        if (upgradeAgent.owner() == 0x0) throw;\n        \n        if (msg.sender != upgradeMaster) throw;\n        \n        if (finalizedUpgrade) throw;\n        \n\n        finalizedUpgrade = true;\n        \n\n        upgradeAgent.finalizeUpgrade();\n        \n        UpgradeFinalized(msg.sender, upgradeAgent);\n    }\n\n    \n    function() payable {\n        invest();\n    }\n\n    \n    function updateBaseTokensPerEther(uint _baseTokensPerEther) onlyTeam {\n        if(getState() != State.Waiting) throw;\n\n        baseTokensPerEther = _baseTokensPerEther;\n    }\n\n    \n    function getTokensAtCurrentRate(uint weiValue) constant returns (uint) {\n        \n        if(getTime() >= preSaleStartTime && getTime() < fundingStartTime) {\n            return safeDiv(safeMul(weiValue, safeMul(baseTokensPerEther, 120)), 100); \n        }\n\n        \n        else if(getTime() >= fundingStartTime && getTime() < fundingStartTime + 1 days) {\n            return safeDiv(safeMul(weiValue, safeMul(baseTokensPerEther, 120)), 100); \n        } else if(getTime() >= (fundingStartTime + 1 days) && getTime() < fundingStartTime + 2 days) {\n            return safeDiv(safeMul(weiValue, safeMul(baseTokensPerEther, 120)), 100); \n        }\n\n        \n        else if(getTime() >= (fundingStartTime + 2 days) && getTime() < fundingStartTime + 1 weeks) {\n            return safeDiv(safeMul(weiValue, safeMul(baseTokensPerEther, 110)), 100); \n        } else if(getTime() >= fundingStartTime + 1 weeks && getTime() < fundingStartTime + 2 weeks) {\n            return safeDiv(safeMul(weiValue, safeMul(baseTokensPerEther, 105)), 100); \n        } else if(getTime() >= fundingStartTime + 2 weeks && getTime() < fundingEndTime) {\n            return safeMul(weiValue, baseTokensPerEther); \n        }\n    }\n\n    \n    function addToPreSaleWhitelist(address _address) onlyTeam {\n\n        \n        if(getState() != State.Waiting) throw;\n\n        \n        if (preSaleAllowed[_address]) throw;\n\n        preSaleWhitelist.push(_address);\n        preSaleAllowed[_address] = true;\n    }\n\n    \n    function addToCommunitySaleWhitelist(address[] addresses) onlyTeam {\n\n        \n        if(getState() != State.Waiting &&\n        getState() != State.PreSale) throw;\n\n        for(uint i = 0; i < addresses.length; i++) {\n            if(!communitySaleAllowed[addresses[i]]) {\n                communitySaleWhitelist.push(addresses[i]);\n                communitySaleAllowed[addresses[i]] = true;\n            }\n        }\n    }\n\n    \n    \n    \n    function invest() payable {\n\n        \n        if (getState() != State.PreSale &&\n        getState() != State.CommunitySale &&\n        getState() != State.PublicSale) throw;\n\n        \n        if(getState() == State.PreSale && !preSaleAllowed[msg.sender]) throw;\n\n        \n        if(getState() == State.CommunitySale && !communitySaleAllowed[msg.sender]) throw;\n\n        \n        if (msg.value == 0) throw;\n\n        \n        uint256 createdTokens = getTokensAtCurrentRate(msg.value);\n\n        allocateTokens(msg.sender, createdTokens);\n    }\n\n    \n    function allocateTokens(address _address, uint amount) internal {\n\n        \n        totalSupply = safeAdd(totalSupply, amount);\n\n        \n        if (totalSupply > tokenCreationMax) throw;\n\n        \n        if(getState() == State.CommunitySale) {\n            \n            \n            if(getTime() >= fundingStartTime &&\n            getTime() < fundingStartTime + 1 days) {\n                if(safeAdd(communitySalePurchases[msg.sender][0], amount) > communitySaleCap[0])\n                throw;\n                else\n                communitySalePurchases[msg.sender][0] =\n                safeAdd(communitySalePurchases[msg.sender][0], amount);\n            }\n\n            \n            \n            else if(getTime() >= (fundingStartTime + 1 days) &&\n            getTime() < fundingStartTime + 2 days) {\n                if(safeAdd(communitySalePurchases[msg.sender][1], amount) > communitySaleCap[1])\n                throw;\n                else\n                communitySalePurchases[msg.sender][1] =\n                safeAdd(communitySalePurchases[msg.sender][1], amount);\n            }\n        }\n\n        \n        balances[_address] = safeAdd(balances[_address], amount);\n\n        \n        Transfer(0, _address, amount);\n    }\n\n    \n    \n    \n    \n    \n    function finalizeCrowdfunding() external {\n        \n        if (getState() != State.Success) throw;\n        \n        if (finalizedCrowdfunding) throw;\n        \n\n        \n        finalizedCrowdfunding = true;\n\n        \n        uint256 vaultTokens = safeDiv(safeMul(totalSupply, vaultPercentOfTotal), crowdfundPercentOfTotal);\n        balances[timeVault] = safeAdd(balances[timeVault], vaultTokens);\n        Transfer(0, timeVault, vaultTokens);\n\n        \n        uint256 houseTokens = safeDiv(safeMul(totalSupply, housePercentOfTotal), crowdfundPercentOfTotal);\n        balances[timeVault] = safeAdd(balances[decentBetMultisig], houseTokens);\n        Transfer(0, decentBetMultisig, houseTokens);\n\n        \n        uint256 bountyTokens = safeDiv(safeMul(totalSupply, bountyPercentOfTotal), crowdfundPercentOfTotal);\n        balances[decentBetMultisig] = safeAdd(balances[decentBetMultisig], bountyTokens);\n        Transfer(0, decentBetMultisig, bountyTokens);\n\n        \n        if (!decentBetMultisig.send(this.balance)) throw;\n    }\n\n    \n    function isDecentBetCrowdsale() returns (bool) {\n        return true;\n    }\n\n    function getTime() constant returns (uint256) {\n        return now;\n    }\n\n    \n    \n    \n    function getState() public constant returns (State){\n        \n        if(finalizedCrowdfunding) return State.Success;\n\n        \n        else if (getTime() < preSaleStartTime) return State.Waiting;\n\n        \n        else if (getTime() >= preSaleStartTime &&\n        getTime() < fundingStartTime &&\n        totalSupply < tokenCreationMax) return State.PreSale;\n\n        \n        else if (getTime() >= fundingStartTime &&\n        getTime() < fundingStartTime + 2 days &&\n        totalSupply < tokenCreationMax) return State.CommunitySale;\n\n        \n        else if (getTime() >= (fundingStartTime + 2 days) &&\n        getTime() < fundingEndTime &&\n        totalSupply < tokenCreationMax) return State.PublicSale;\n\n        \n        else if (getTime() >= fundingEndTime ||\n        totalSupply == tokenCreationMax) return State.Success;\n    }\n\n}\n    \ncontract DecentBetToken is DecentBetToken_1 {\n    constructor() DecentBetToken_1(address(0x123), address(0x123), address(0x123), 78, 78, 78) public { }\n}\n",
  "sourcePath": "/home/XXX-1/smartrim-experiment/for-rlf/0x540449e4d172cd9491c76320440cd74933d5691a/contracts/0x540449e4d172cd9491c76320440cd74933d5691a.sol",
  "compiler": {
    "name": "solc",
    "version": "0.4.25+commit.59dbf8f1.Emscripten.clang"
  },
  "schemaVersion": "3.4.16",
  "updatedAt": "2025-08-14T03:54:05.632Z",
  "devdoc": {
    "methods": {}
  },
  "userdoc": {
    "methods": {}
  }
}