{
  "contractName": "GuessTheNumberGame",
  "abi": [
    {
      "constant": true,
      "inputs": [],
      "name": "bet",
      "outputs": [
        {
          "name": "",
          "type": "uint256"
        }
      ],
      "payable": false,
      "stateMutability": "view",
      "type": "function"
    },
    {
      "constant": true,
      "inputs": [
        {
          "name": "",
          "type": "uint256"
        }
      ],
      "name": "guesses",
      "outputs": [
        {
          "name": "guesses_number",
          "type": "uint256"
        }
      ],
      "payable": false,
      "stateMutability": "view",
      "type": "function"
    },
    {
      "constant": false,
      "inputs": [
        {
          "name": "_result",
          "type": "uint256"
        }
      ],
      "name": "submitResult",
      "outputs": [],
      "payable": true,
      "stateMutability": "payable",
      "type": "function"
    },
    {
      "constant": true,
      "inputs": [],
      "name": "winningNumber",
      "outputs": [
        {
          "name": "",
          "type": "uint256"
        }
      ],
      "payable": false,
      "stateMutability": "view",
      "type": "function"
    },
    {
      "constant": false,
      "inputs": [],
      "name": "closeGame",
      "outputs": [],
      "payable": false,
      "stateMutability": "nonpayable",
      "type": "function"
    },
    {
      "constant": false,
      "inputs": [
        {
          "name": "_notary",
          "type": "address"
        }
      ],
      "name": "openGame",
      "outputs": [],
      "payable": false,
      "stateMutability": "nonpayable",
      "type": "function"
    },
    {
      "constant": true,
      "inputs": [],
      "name": "owner",
      "outputs": [
        {
          "name": "",
          "type": "address"
        }
      ],
      "payable": false,
      "stateMutability": "view",
      "type": "function"
    },
    {
      "constant": true,
      "inputs": [],
      "name": "notary",
      "outputs": [
        {
          "name": "",
          "type": "address"
        }
      ],
      "payable": false,
      "stateMutability": "view",
      "type": "function"
    },
    {
      "constant": true,
      "inputs": [],
      "name": "state",
      "outputs": [
        {
          "name": "",
          "type": "uint8"
        }
      ],
      "payable": false,
      "stateMutability": "view",
      "type": "function"
    },
    {
      "constant": false,
      "inputs": [],
      "name": "collectOwnerWinnings",
      "outputs": [],
      "payable": false,
      "stateMutability": "nonpayable",
      "type": "function"
    },
    {
      "constant": false,
      "inputs": [],
      "name": "collectPlayerWinnings",
      "outputs": [],
      "payable": false,
      "stateMutability": "nonpayable",
      "type": "function"
    },
    {
      "constant": false,
      "inputs": [
        {
          "name": "_guess",
          "type": "uint256"
        }
      ],
      "name": "submitGuess",
      "outputs": [],
      "payable": true,
      "stateMutability": "payable",
      "type": "function"
    },
    {
      "inputs": [],
      "payable": false,
      "stateMutability": "nonpayable",
      "type": "constructor"
    },
    {
      "anonymous": false,
      "inputs": [
        {
          "indexed": false,
          "name": "bet",
          "type": "uint256"
        }
      ],
      "name": "GameCreated",
      "type": "event"
    },
    {
      "anonymous": false,
      "inputs": [
        {
          "indexed": false,
          "name": "notary",
          "type": "address"
        }
      ],
      "name": "GameOpened",
      "type": "event"
    },
    {
      "anonymous": false,
      "inputs": [],
      "name": "GameClosed",
      "type": "event"
    },
    {
      "anonymous": false,
      "inputs": [
        {
          "indexed": false,
          "name": "player",
          "type": "address"
        },
        {
          "indexed": false,
          "name": "guess",
          "type": "uint256"
        }
      ],
      "name": "GuessSubmitted",
      "type": "event"
    },
    {
      "anonymous": false,
      "inputs": [
        {
          "indexed": false,
          "name": "result",
          "type": "uint256"
        }
      ],
      "name": "ResultSubmitted",
      "type": "event"
    },
    {
      "anonymous": false,
      "inputs": [
        {
          "indexed": false,
          "name": "winningNumber",
          "type": "uint256"
        },
        {
          "indexed": false,
          "name": "jackpot",
          "type": "uint256"
        }
      ],
      "name": "PlayersWin",
      "type": "event"
    },
    {
      "anonymous": false,
      "inputs": [],
      "name": "OwnerWins",
      "type": "event"
    }
  ],
  "bytecode": "0x6080604052600060045534801561001557600080fd5b50604e60008111151561002757600080fd5b336000806101000a81548173ffffffffffffffffffffffffffffffffffffffff021916908373ffffffffffffffffffffffffffffffffffffffff1602179055506000600160146101000a81548160ff0219169083600481111561008657fe5b0217905550806003819055507fbd19c47e9925eb6f7be8bb1c13a841e0240aaeaf17f217e90022e9c8eb66877f6003546040518082815260200191505060405180910390a150610cd8806100db6000396000f3006080604052600436106100ba576000357c0100000000000000000000000000000000000000000000000000000000900463ffffffff16806311610c25146100bf5780631f491389146100ea57806321dc64291461012b5780634664611e1461014b578063786b844b146101765780637b269d0f1461018d5780638da5cb5b146101d05780639d54c79d14610227578063c19d93fb1461027e578063cc4bedfd146102b7578063d97a4c41146102ce578063e32c6329146102e5575b600080fd5b3480156100cb57600080fd5b506100d4610305565b6040518082815260200191505060405180910390f35b3480156100f657600080fd5b506101156004803603810190808035906020019092919050505061030b565b6040518082815260200191505060405180910390f35b61014960048036038101908080359060200190929190505050610329565b005b34801561015757600080fd5b50610160610596565b6040518082815260200191505060405180910390f35b34801561018257600080fd5b5061018b61059c565b005b34801561019957600080fd5b506101ce600480360381019080803573ffffffffffffffffffffffffffffffffffffffff16906020019092919050505061067f565b005b3480156101dc57600080fd5b506101e56107fc565b604051808273ffffffffffffffffffffffffffffffffffffffff1673ffffffffffffffffffffffffffffffffffffffff16815260200191505060405180910390f35b34801561023357600080fd5b5061023c610821565b604051808273ffffffffffffffffffffffffffffffffffffffff1673ffffffffffffffffffffffffffffffffffffffff16815260200191505060405180910390f35b34801561028a57600080fd5b50610293610847565b604051808260048111156102a357fe5b60ff16815260200191505060405180910390f35b3480156102c357600080fd5b506102cc61085a565b005b3480156102da57600080fd5b506102e36108c9565b005b61030360048036038101908080359060200190929190505050610aa8565b005b60035481565b60026020528060005260406000206000915090508060010154905081565b6000600160009054906101000a900473ffffffffffffffffffffffffffffffffffffffff1673ffffffffffffffffffffffffffffffffffffffff163373ffffffffffffffffffffffffffffffffffffffff1614151561038757600080fd5b600280600481111561039557fe5b600160149054906101000a900460ff1660048111156103b057fe5b1415156103bc57600080fd5b6103c583610c71565b15156103d057600080fd5b7f3cedd85a821054e133fbf5f696f78f7014a6b1dfe7c8892560faeaddd80fd067836040518082815260200191505060405180910390a18291505b60008211801561044157506003600481111561042357fe5b600160149054906101000a900460ff16600481111561043e57fe5b14155b156105115760006002600084815260200190815260200160002060010154111561050357816004819055506003600160146101000a81548160ff0219169083600481111561048b57fe5b021790555060026000838152602001908152602001600020600101546104af610c8d565b8115156104b857fe5b046005819055507f1b1d7a3cceea9800960558bd09958580587d77822d91ea16a5748dc5299fa30f600454600554604051808381526020018281526020019250505060405180910390a15b81806001900392505061040b565b6003600481111561051e57fe5b600160149054906101000a900460ff16600481111561053957fe5b141515610591576004600160146101000a81548160ff0219169083600481111561055f57fe5b02179055507f4813b6a335aca5775f9834fffe028eb782d0807486720776e11e6b2f4686935360405160405180910390a15b505050565b60045481565b6000809054906101000a900473ffffffffffffffffffffffffffffffffffffffff1673ffffffffffffffffffffffffffffffffffffffff163373ffffffffffffffffffffffffffffffffffffffff161415156105f757600080fd5b600180600481111561060557fe5b600160149054906101000a900460ff16600481111561062057fe5b14151561062c57600080fd5b6002600160146101000a81548160ff0219169083600481111561064b57fe5b02179055507f110c2c58fa523adf6e04cc3a248340fa015271e972e26ff8e8dcc7a308ba1a3d60405160405180910390a150565b6000809054906101000a900473ffffffffffffffffffffffffffffffffffffffff1673ffffffffffffffffffffffffffffffffffffffff163373ffffffffffffffffffffffffffffffffffffffff161415156106da57600080fd5b60008060048111156106e857fe5b600160149054906101000a900460ff16600481111561070357fe5b14151561070f57600080fd5b81600160006101000a81548173ffffffffffffffffffffffffffffffffffffffff021916908373ffffffffffffffffffffffffffffffffffffffff16021790555060018060146101000a81548160ff0219169083600481111561076e57fe5b02179055507fc4e2c1df0769839ee9e698c057261c8023bbdf5875a21f14d4ea93bb8704984b600160009054906101000a900473ffffffffffffffffffffffffffffffffffffffff16604051808273ffffffffffffffffffffffffffffffffffffffff1673ffffffffffffffffffffffffffffffffffffffff16815260200191505060405180910390a15050565b6000809054906101000a900473ffffffffffffffffffffffffffffffffffffffff1681565b600160009054906101000a900473ffffffffffffffffffffffffffffffffffffffff1681565b600160149054906101000a900460ff1681565b600480600481111561086857fe5b600160149054906101000a900460ff16600481111561088357fe5b14151561088f57600080fd5b6000809054906101000a900473ffffffffffffffffffffffffffffffffffffffff1673ffffffffffffffffffffffffffffffffffffffff16ff5b600160009054906101000a900473ffffffffffffffffffffffffffffffffffffffff1673ffffffffffffffffffffffffffffffffffffffff163373ffffffffffffffffffffffffffffffffffffffff161415151561092657600080fd5b600380600481111561093457fe5b600160149054906101000a900460ff16600481111561094f57fe5b14151561095b57600080fd5b6001600281111561096857fe5b60026000600454815260200190815260200160002060000160003373ffffffffffffffffffffffffffffffffffffffff1673ffffffffffffffffffffffffffffffffffffffff16815260200190815260200160002060009054906101000a900460ff1660028111156109d657fe5b1415610aa0576002806000600454815260200190815260200160002060000160003373ffffffffffffffffffffffffffffffffffffffff1673ffffffffffffffffffffffffffffffffffffffff16815260200190815260200160002060006101000a81548160ff02191690836002811115610a4d57fe5b02179055503373ffffffffffffffffffffffffffffffffffffffff166108fc6005549081150290604051600060405180830381858888f19350505050158015610a9a573d6000803e3d6000fd5b50610aa5565b600080fd5b50565b600160009054906101000a900473ffffffffffffffffffffffffffffffffffffffff1673ffffffffffffffffffffffffffffffffffffffff163373ffffffffffffffffffffffffffffffffffffffff1614151515610b0557600080fd5b6001806004811115610b1357fe5b600160149054906101000a900460ff166004811115610b2e57fe5b141515610b3a57600080fd5b610b4382610c71565b1515610b4e57600080fd5b66038d7ea4c680006003540234141515610b6757600080fd5b600260008381526020019081526020016000206001016000815480929190600101919050555060016002600084815260200190815260200160002060000160003373ffffffffffffffffffffffffffffffffffffffff1673ffffffffffffffffffffffffffffffffffffffff16815260200190815260200160002060006101000a81548160ff02191690836002811115610bfd57fe5b02179055507ff8a4fdb4f1e6ed484ccf9dd879868965d63da6479d6a9b12c4b8ad33b86e60c03383604051808373ffffffffffffffffffffffffffffffffffffffff1673ffffffffffffffffffffffffffffffffffffffff1681526020018281526020019250505060405180910390a15050565b600060018210158015610c8657506103e88211155b9050919050565b60003073ffffffffffffffffffffffffffffffffffffffff16319050905600a165627a7a7230582047a0c91e3a9aa497cf1f32a23e1176f3cdaec22c158b2e28d3dc9c45779158530029",
  "source": "\n\n\ncontract GuessTheNumberGame_1 {\n    \n    \n    event GameCreated(uint bet);\n    event GameOpened(address notary);\n    event GameClosed();\n    event GuessSubmitted(address player, uint guess);\n    \n    event ResultSubmitted(uint result);\n    event PlayersWin(uint winningNumber, uint256 jackpot);\n    event OwnerWins();\n    \n    \n    enum State {\n        SETUP, OPEN, CLOSED, PLAYERS_WIN, OWNER_WIN\n    }\n\n    enum PaidStatus {\n        UNDEFINED,\n        NOT_PAID,\n        PAID\n    }\n    \n    struct Guess {\n        mapping (address => PaidStatus) players;\n        uint guesses_number;\n    }\n    \n    \n    address public owner;\n    address public notary;\n    State public state;\n\n    mapping (uint => Guess) public guesses;\n\n    uint256 public bet;\n    \n    uint public winningNumber = 0;\n    uint256 splitJackpot;\n\n    \n    \n    modifier byPlayer(){\n        require(msg.sender != notary);\n        _;\n    }\n    \n    \n    modifier byOwner(){\n        require(msg.sender == owner);\n        _;\n    }\n    \n    \n    modifier byNotary(){\n        require(msg.sender == notary);\n        _;\n    }\n    \n    \n    modifier inState(State expected) {\n        require(state == expected);\n        _;\n    }\n    \n\n    constructor(uint256 _bet) public {\n        require(_bet > 0);\n        \n        owner = msg.sender;\n        state = State.SETUP;\n        bet = _bet;\n        \n        emit GameCreated(bet);\n    }\n    \n    function openGame(address _notary) public byOwner inState(State.SETUP){\n        notary = _notary;\n        state = State.OPEN;\n        \n        emit GameOpened(notary);\n    }\n    \n    function closeGame() public byOwner inState(State.OPEN){\n        state = State.CLOSED;\n        \n        emit GameClosed();\n    }\n    \n    function submitGuess(uint _guess) public payable byPlayer inState(State.OPEN) {\n        require(isValidNumber(_guess));\n        require(msg.value == (bet * 0.001 ether));\n\n        guesses[_guess].guesses_number++;\n        guesses[_guess].players[msg.sender] = PaidStatus.NOT_PAID;\n        \n        emit GuessSubmitted(msg.sender, _guess);\n    }\n    \n    function submitResult(uint _result) public payable byNotary inState(State.CLOSED) {\n        require(isValidNumber(_result));\n        emit ResultSubmitted(_result);\n         \n        for(uint i = _result; (i > 0 && state != State.PLAYERS_WIN); i--){\n            if(guesses[i].guesses_number > 0){\n                winningNumber = i;\n                state = State.PLAYERS_WIN;\n                splitJackpot = getBalance()/guesses[i].guesses_number;\n                emit PlayersWin(winningNumber, splitJackpot);\n            }\n        }\n\n        if(state != State.PLAYERS_WIN){\n            state = State.OWNER_WIN;\n            emit OwnerWins();\n        }\n    }\n    \n    function collectOwnerWinnings() public  inState(State.OWNER_WIN){\n        selfdestruct(owner); \n    }\n    \n    function collectPlayerWinnings() public byPlayer inState(State.PLAYERS_WIN){\n        if(guesses[winningNumber].players[msg.sender] == PaidStatus.NOT_PAID){\n            guesses[winningNumber].players[msg.sender] = PaidStatus.PAID;\n            msg.sender.transfer(splitJackpot); \n        } else revert();\n    }\n\n    function getBalance() private view returns (uint256){\n        return address(this).balance;\n    }\n    \n    function isValidNumber(uint _guess) private pure returns (bool) {\n        return _guess >= 1 && _guess <= 1000;\n    } \n    \n}\n\n    \ncontract GuessTheNumberGame is GuessTheNumberGame_1 {\n    constructor() GuessTheNumberGame_1(78) public { }\n}\n",
  "sourcePath": "/home/XXX-1/smartrim-experiment/for-rlf/0x34bc9a332350a41374aa650f1152c8d88e35a878_2/contracts/0x34bc9a332350a41374aa650f1152c8d88e35a878_2.sol",
  "compiler": {
    "name": "solc",
    "version": "0.4.25+commit.59dbf8f1.Emscripten.clang"
  },
  "schemaVersion": "3.4.16",
  "updatedAt": "2025-08-14T03:35:53.224Z",
  "networkType": "ethereum",
  "devdoc": {
    "methods": {}
  },
  "userdoc": {
    "methods": {}
  }
}