{
  "contractName": "Etherumble",
  "abi": [
    {
      "payable": true,
      "stateMutability": "payable",
      "type": "fallback"
    },
    {
      "constant": false,
      "inputs": [],
      "name": "Lottery",
      "outputs": [],
      "payable": false,
      "stateMutability": "nonpayable",
      "type": "function"
    },
    {
      "constant": true,
      "inputs": [],
      "name": "getActivePlayers",
      "outputs": [
        {
          "name": "",
          "type": "uint256"
        }
      ],
      "payable": false,
      "stateMutability": "view",
      "type": "function"
    },
    {
      "constant": true,
      "inputs": [
        {
          "name": "index",
          "type": "uint256"
        }
      ],
      "name": "getPlayerAddress",
      "outputs": [
        {
          "name": "",
          "type": "address"
        }
      ],
      "payable": false,
      "stateMutability": "view",
      "type": "function"
    },
    {
      "constant": true,
      "inputs": [
        {
          "name": "index",
          "type": "uint256"
        }
      ],
      "name": "getPlayerBet",
      "outputs": [
        {
          "name": "",
          "type": "uint256"
        }
      ],
      "payable": false,
      "stateMutability": "view",
      "type": "function"
    },
    {
      "constant": true,
      "inputs": [],
      "name": "getEndBlock",
      "outputs": [
        {
          "name": "",
          "type": "uint256"
        }
      ],
      "payable": false,
      "stateMutability": "view",
      "type": "function"
    },
    {
      "constant": true,
      "inputs": [],
      "name": "getLastWinner",
      "outputs": [
        {
          "name": "",
          "type": "address"
        }
      ],
      "payable": false,
      "stateMutability": "view",
      "type": "function"
    },
    {
      "constant": true,
      "inputs": [],
      "name": "getLastWinnerTicket",
      "outputs": [
        {
          "name": "",
          "type": "uint256"
        }
      ],
      "payable": false,
      "stateMutability": "view",
      "type": "function"
    },
    {
      "constant": true,
      "inputs": [],
      "name": "getTotalGames",
      "outputs": [
        {
          "name": "",
          "type": "uint256"
        }
      ],
      "payable": false,
      "stateMutability": "view",
      "type": "function"
    },
    {
      "constant": false,
      "inputs": [],
      "name": "withrawFee",
      "outputs": [],
      "payable": false,
      "stateMutability": "nonpayable",
      "type": "function"
    },
    {
      "constant": false,
      "inputs": [],
      "name": "destroykill",
      "outputs": [],
      "payable": false,
      "stateMutability": "nonpayable",
      "type": "function"
    },
    {
      "constant": false,
      "inputs": [],
      "name": "callback",
      "outputs": [],
      "payable": false,
      "stateMutability": "nonpayable",
      "type": "function"
    }
  ],
  "bytecode": "0x608060405260146040519080825280602002602001820160405280156100345781602001602082028038833980820191505090505b506001908051906020019061004a9291906100c2565b50601460405190808252806020026020018201604052801561007b5781602001602082028038833980820191505090505b506002908051906020019061009192919061014c565b50600060035560006004556000600555600060065560006009556000600a553480156100bc57600080fd5b50610201565b82805482825590600052602060002090810192821561013b579160200282015b8281111561013a5782518260006101000a81548173ffffffffffffffffffffffffffffffffffffffff021916908373ffffffffffffffffffffffffffffffffffffffff160217905550916020019190600101906100e2565b5b5090506101489190610199565b5090565b828054828255906000526020600020908101928215610188579160200282015b8281111561018757825182559160200191906001019061016c565b5b50905061019591906101dc565b5090565b6101d991905b808211156101d557600081816101000a81549073ffffffffffffffffffffffffffffffffffffffff02191690555060010161019f565b5090565b90565b6101fe91905b808211156101fa5760008160009055506001016101e2565b5090565b90565b6109ae806102106000396000f3006080604052600436106100af576000357c0100000000000000000000000000000000000000000000000000000000900463ffffffff168063083b27321461023b5780633a689082146102525780633c4f5a66146102695780633fa1930d146102945780634245b0f7146102d55780634706840e146102ec5780635163311e146103035780635bd4349b1461032e5780636522566514610359578063f88649a1146103c6578063fb7a5f4f1461041d575b662386f26fc1000034101580156100c857506013600354105b15156100d357600080fd5b6100db610448565b3360016003548154811015156100ed57fe5b9060005260206000200160006101000a81548173ffffffffffffffffffffffffffffffffffffffff021916908373ffffffffffffffffffffffffffffffffffffffff16021790555034600260035481548110151561014757fe5b9060005260206000200181905550600060408051908101604052803373ffffffffffffffffffffffffffffffffffffffff168152602001348152509080600181540180825580915050906001820390600052602060002090600202016000909192909190915060008201518160000160006101000a81548173ffffffffffffffffffffffffffffffffffffffff021916908373ffffffffffffffffffffffffffffffffffffffff16021790555060208201518160010155505050600360008154809291906001019190505550346004600082825401925050819055506002600354141561023957600f43016006819055505b005b34801561024757600080fd5b5061025061046d565b005b34801561025e57600080fd5b506102676104ee565b005b34801561027557600080fd5b5061027e6105bf565b6040518082815260200191505060405180910390f35b3480156102a057600080fd5b506102bf600480360381019080803590602001909291905050506105c9565b6040518082815260200191505060405180910390f35b3480156102e157600080fd5b506102ea6105ec565b005b3480156102f857600080fd5b5061030161062f565b005b34801561030f57600080fd5b506103186106c6565b6040518082815260200191505060405180910390f35b34801561033a57600080fd5b506103436106d0565b6040518082815260200191505060405180910390f35b34801561036557600080fd5b50610384600480360381019080803590602001909291905050506106da565b604051808273ffffffffffffffffffffffffffffffffffffffff1673ffffffffffffffffffffffffffffffffffffffff16815260200191505060405180910390f35b3480156103d257600080fd5b506103db61071d565b604051808273ffffffffffffffffffffffffffffffffffffffff1673ffffffffffffffffffffffffffffffffffffffff16815260200191505060405180910390f35b34801561042957600080fd5b50610432610747565b6040518082815260200191505060405180910390f35b436006541115801561045d5750600060065414155b1561046b5761046a610751565b5b565b600760009054906101000a900473ffffffffffffffffffffffffffffffffffffffff1673ffffffffffffffffffffffffffffffffffffffff163373ffffffffffffffffffffffffffffffffffffffff161415156104c957600080fd5b43600654111580156104de5750600060065414155b156104ec576104eb610751565b5b565b600760009054906101000a900473ffffffffffffffffffffffffffffffffffffffff1673ffffffffffffffffffffffffffffffffffffffff163373ffffffffffffffffffffffffffffffffffffffff1614151561054a57600080fd5b600760009054906101000a900473ffffffffffffffffffffffffffffffffffffffff1673ffffffffffffffffffffffffffffffffffffffff166108fc6005549081150290604051600060405180830381858888f193505050501580156105b4573d6000803e3d6000fd5b506000600581905550565b6000600354905090565b60006002828154811015156105da57fe5b90600052602060002001549050919050565b33600760006101000a81548173ffffffffffffffffffffffffffffffffffffffff021916908373ffffffffffffffffffffffffffffffffffffffff160217905550565b600760009054906101000a900473ffffffffffffffffffffffffffffffffffffffff1673ffffffffffffffffffffffffffffffffffffffff163373ffffffffffffffffffffffffffffffffffffffff1614151561068b57600080fd5b600760009054906101000a900473ffffffffffffffffffffffffffffffffffffffff1673ffffffffffffffffffffffffffffffffffffffff16ff5b6000600954905090565b6000600a54905090565b60006001828154811015156106eb57fe5b9060005260206000200160009054906101000a900473ffffffffffffffffffffffffffffffffffffffff169050919050565b6000600860009054906101000a900473ffffffffffffffffffffffffffffffffffffffff16905090565b6000600654905090565b600080600080925060045460014303406001900481151561076e57fe5b069150600090505b60035481101561080a5760008181548110151561078f57fe5b9060005260206000209060020201600101548301925081831015156107fd576107f86000828154811015156107c057fe5b906000526020600020906002020160000160009054906101000a900473ffffffffffffffffffffffffffffffffffffffff1683610810565b61080b565b8080600101915050610776565b5b505050565b6000600454905081600981905550600a600081548092919060010191905055506000600381905550600060048190555060006006819055506000806108559190610910565b60646005820281151561086457fe5b046005600082825401925050819055508273ffffffffffffffffffffffffffffffffffffffff166108fc6064605f840281151561089d57fe5b049081150290604051600060405180830381858888f193505050501580156108c9573d6000803e3d6000fd5b5082600860006101000a81548173ffffffffffffffffffffffffffffffffffffffff021916908373ffffffffffffffffffffffffffffffffffffffff160217905550505050565b50805460008255600202906000526020600020908101906109319190610934565b50565b61097f91905b8082111561097b57600080820160006101000a81549073ffffffffffffffffffffffffffffffffffffffff021916905560018201600090555060020161093a565b5090565b905600a165627a7a72305820448b73e91ca6aa49f9c0debd8f60f362ac5c8edcdb9da34f6003f6ca3f77c4830029",
  "source": "\n\ncontract Etherumble {\n\n    struct PlayerBets {\n        address addPlayer;\n        uint amount;\n    }\n\n    PlayerBets[] users;\n    \n    address[] players = new address[](20);\n    uint[] bets = new uint[](20);\n\n    uint nbUsers = 0;\n    uint totalBets = 0;\n    uint fees = 0;\n    uint endBlock = 0;\n\n    address owner;\n    \n    address lastWinner;\n    uint lastWinnerTicket=0;\n    uint totalGames = 0;\n    \n    modifier isOwner() {\n        require(msg.sender == owner);\n        _;\n    }\n\n    modifier hasValue() {\n        require(msg.value >= 10000000000000000 && nbUsers < 19); \n        _;\n    }\n\n    modifier onlyIf(bool _condition) {\n        require(_condition);\n        _;\n    }\n\n    function Lottery() public {\n        owner = msg.sender;\n    }\n    \n    function getActivePlayers() public constant returns(uint) {\n        return nbUsers;\n    }\n    \n    function getPlayerAddress(uint index) public constant returns(address) {\n        return players[index];\n    }\n    \n    function getPlayerBet(uint index) public constant returns(uint) {\n        return bets[index];\n    }\n    function getEndBlock() public constant returns(uint) {\n        return endBlock;\n    }\n    function getLastWinner() public constant returns(address) {\n        return lastWinner;\n    }\n    function getLastWinnerTicket() public constant returns(uint) {\n        return lastWinnerTicket;\n    }\n    function getTotalGames() public constant returns(uint) {\n        return totalGames;\n    }\n    \n\n    function() public payable hasValue {\n        checkinter();\n        players[nbUsers] = msg.sender;\n        bets[nbUsers] = msg.value;\n        \n        users.push(PlayerBets(msg.sender, msg.value));\n        nbUsers++;\n        totalBets += msg.value;\n        if (nbUsers == 2) { \n            endBlock = block.number + 15;\n        }\n    }\n\n    function endLottery() internal {\n        uint sum = 0;\n        uint winningNumber = uint(block.blockhash(block.number - 1)) % totalBets;\n\n        for (uint i = 0; i < nbUsers; i++) {\n            sum += users[i].amount;\n\n            if (sum >= winningNumber) {\n                \n                withrawWin(users[i].addPlayer,winningNumber);\n                return;\n            }\n        }\n    }\n\n    function withrawWin(address winner,uint winticket) internal {\n        uint tempTot = totalBets;\n        lastWinnerTicket = winticket;\n        totalGames++;\n        \n        \n        nbUsers = 0;\n        totalBets = 0;\n        endBlock = 0;\n        delete users;\n        \n        fees += tempTot * 5 / 100;\n        winner.transfer(tempTot * 95 / 100);\n        lastWinner = winner;\n    }\n    \n    function withrawFee() public isOwner {\n        owner.transfer(fees);\n        fees = 0;\n    }\n    function destroykill() public isOwner {\n        selfdestruct(owner);\n    }\n\n    function checkinter() internal{ \n        \n        if (endBlock <= block.number && endBlock != 0) {\n            endLottery();\n        }\n    }\n    \n    function callback() public isOwner{ \n        \n        if (endBlock <= block.number && endBlock != 0) {\n            endLottery();\n        }\n    }\n}",
  "sourcePath": "/home/XXX-1/smartrim-experiment/for-rlf/0x013620bf5142f9d8487e92c1d514c38e1b086613/contracts/0x013620bf5142f9d8487e92c1d514c38e1b086613.sol",
  "compiler": {
    "name": "solc",
    "version": "0.4.25+commit.59dbf8f1.Emscripten.clang"
  },
  "schemaVersion": "3.4.16",
  "updatedAt": "2025-08-14T03:44:33.416Z",
  "networkType": "ethereum",
  "devdoc": {
    "methods": {}
  },
  "userdoc": {
    "methods": {}
  }
}