{
  "contractName": "ECR20HoneycombToken",
  "abi": [
    {
      "constant": true,
      "inputs": [],
      "name": "name",
      "outputs": [
        {
          "name": "",
          "type": "string"
        }
      ],
      "payable": false,
      "stateMutability": "view",
      "type": "function"
    },
    {
      "constant": true,
      "inputs": [],
      "name": "totalSupply",
      "outputs": [
        {
          "name": "",
          "type": "uint256"
        }
      ],
      "payable": false,
      "stateMutability": "view",
      "type": "function"
    },
    {
      "constant": true,
      "inputs": [],
      "name": "minimumPayout",
      "outputs": [
        {
          "name": "",
          "type": "uint256"
        }
      ],
      "payable": false,
      "stateMutability": "view",
      "type": "function"
    },
    {
      "constant": true,
      "inputs": [],
      "name": "decimals",
      "outputs": [
        {
          "name": "",
          "type": "uint8"
        }
      ],
      "payable": false,
      "stateMutability": "view",
      "type": "function"
    },
    {
      "constant": true,
      "inputs": [],
      "name": "sellPrice",
      "outputs": [
        {
          "name": "",
          "type": "uint256"
        }
      ],
      "payable": false,
      "stateMutability": "view",
      "type": "function"
    },
    {
      "constant": true,
      "inputs": [
        {
          "name": "",
          "type": "address"
        }
      ],
      "name": "balanceOf",
      "outputs": [
        {
          "name": "",
          "type": "uint256"
        }
      ],
      "payable": false,
      "stateMutability": "view",
      "type": "function"
    },
    {
      "constant": true,
      "inputs": [],
      "name": "buyPrice",
      "outputs": [
        {
          "name": "",
          "type": "uint256"
        }
      ],
      "payable": false,
      "stateMutability": "view",
      "type": "function"
    },
    {
      "constant": true,
      "inputs": [],
      "name": "owner",
      "outputs": [
        {
          "name": "",
          "type": "address"
        }
      ],
      "payable": false,
      "stateMutability": "view",
      "type": "function"
    },
    {
      "constant": true,
      "inputs": [],
      "name": "symbol",
      "outputs": [
        {
          "name": "",
          "type": "string"
        }
      ],
      "payable": false,
      "stateMutability": "view",
      "type": "function"
    },
    {
      "constant": false,
      "inputs": [
        {
          "name": "flag",
          "type": "bool"
        }
      ],
      "name": "allowTransferOwnership",
      "outputs": [],
      "payable": false,
      "stateMutability": "nonpayable",
      "type": "function"
    },
    {
      "constant": true,
      "inputs": [],
      "name": "ownershipTransferAllowed",
      "outputs": [
        {
          "name": "",
          "type": "bool"
        }
      ],
      "payable": false,
      "stateMutability": "view",
      "type": "function"
    },
    {
      "constant": true,
      "inputs": [
        {
          "name": "",
          "type": "address"
        },
        {
          "name": "",
          "type": "address"
        }
      ],
      "name": "allowance",
      "outputs": [
        {
          "name": "",
          "type": "uint256"
        }
      ],
      "payable": false,
      "stateMutability": "view",
      "type": "function"
    },
    {
      "constant": false,
      "inputs": [
        {
          "name": "newOwner",
          "type": "address"
        }
      ],
      "name": "transferOwnership",
      "outputs": [],
      "payable": false,
      "stateMutability": "nonpayable",
      "type": "function"
    },
    {
      "inputs": [],
      "payable": false,
      "stateMutability": "nonpayable",
      "type": "constructor"
    },
    {
      "payable": true,
      "stateMutability": "payable",
      "type": "fallback"
    },
    {
      "anonymous": false,
      "inputs": [
        {
          "indexed": true,
          "name": "from",
          "type": "address"
        },
        {
          "indexed": true,
          "name": "to",
          "type": "address"
        },
        {
          "indexed": false,
          "name": "value",
          "type": "uint256"
        }
      ],
      "name": "Transfer",
      "type": "event"
    },
    {
      "constant": false,
      "inputs": [],
      "name": "buy",
      "outputs": [
        {
          "name": "amountToken",
          "type": "uint256"
        }
      ],
      "payable": true,
      "stateMutability": "payable",
      "type": "function"
    },
    {
      "constant": false,
      "inputs": [
        {
          "name": "amountToken",
          "type": "uint256"
        }
      ],
      "name": "sell",
      "outputs": [
        {
          "name": "revenue",
          "type": "uint256"
        }
      ],
      "payable": false,
      "stateMutability": "nonpayable",
      "type": "function"
    },
    {
      "constant": false,
      "inputs": [
        {
          "name": "_to",
          "type": "address"
        },
        {
          "name": "_value",
          "type": "uint256"
        }
      ],
      "name": "transfer",
      "outputs": [],
      "payable": false,
      "stateMutability": "nonpayable",
      "type": "function"
    },
    {
      "constant": false,
      "inputs": [
        {
          "name": "_from",
          "type": "address"
        },
        {
          "name": "_to",
          "type": "address"
        },
        {
          "name": "_value",
          "type": "uint256"
        }
      ],
      "name": "transferFrom",
      "outputs": [
        {
          "name": "success",
          "type": "bool"
        }
      ],
      "payable": false,
      "stateMutability": "nonpayable",
      "type": "function"
    },
    {
      "constant": false,
      "inputs": [
        {
          "name": "_spender",
          "type": "address"
        },
        {
          "name": "_value",
          "type": "uint256"
        }
      ],
      "name": "approve",
      "outputs": [
        {
          "name": "success",
          "type": "bool"
        }
      ],
      "payable": false,
      "stateMutability": "nonpayable",
      "type": "function"
    },
    {
      "constant": false,
      "inputs": [
        {
          "name": "_spender",
          "type": "address"
        },
        {
          "name": "_value",
          "type": "uint256"
        },
        {
          "name": "_extraData",
          "type": "bytes"
        }
      ],
      "name": "approveAndCall",
      "outputs": [
        {
          "name": "success",
          "type": "bool"
        }
      ],
      "payable": false,
      "stateMutability": "nonpayable",
      "type": "function"
    },
    {
      "constant": false,
      "inputs": [
        {
          "name": "amount",
          "type": "uint256"
        }
      ],
      "name": "setMinimumPayout",
      "outputs": [],
      "payable": false,
      "stateMutability": "nonpayable",
      "type": "function"
    },
    {
      "constant": false,
      "inputs": [
        {
          "name": "amount",
          "type": "uint256"
        }
      ],
      "name": "save",
      "outputs": [],
      "payable": false,
      "stateMutability": "nonpayable",
      "type": "function"
    },
    {
      "constant": false,
      "inputs": [],
      "name": "constructor",
      "outputs": [],
      "payable": false,
      "stateMutability": "nonpayable",
      "type": "function"
    },
    {
      "constant": false,
      "inputs": [
        {
          "name": "amount",
          "type": "uint256"
        }
      ],
      "name": "restore",
      "outputs": [],
      "payable": false,
      "stateMutability": "nonpayable",
      "type": "function"
    }
  ],
  "bytecode": "0x608060405260008060146101000a81548160ff0219169083151502179055506040805190810160405280600981526020017f486f6e6579636f6d620000000000000000000000000000000000000000000000815250600190805190602001906200006b9291906200067a565b506040805190810160405280600481526020017f434f4d420000000000000000000000000000000000000000000000000000000081525060029080519060200190620000b99291906200067a565b506012600360006101000a81548160ff021916908360ff160217905550600360009054906101000a900460ff1660ff16600a0a60045568aa4e5b2e4dc416a00060055560045461271002600655600460075566038d7ea4c680006008553480156200012357600080fd5b506004546210000002600981905550600954600c60003373ffffffffffffffffffffffffffffffffffffffff1673ffffffffffffffffffffffffffffffffffffffff16815260200190815260200160002081905550336000806101000a81548173ffffffffffffffffffffffffffffffffffffffff021916908373ffffffffffffffffffffffffffffffffffffffff1602179055506000809054906101000a900473ffffffffffffffffffffffffffffffffffffffff1673ffffffffffffffffffffffffffffffffffffffff1660007fddf252ad1be2c89b69c2b068fc378daa952ba7f163c4a11628f55a4df523b3ef6009546040518082815260200191505060405180910390a3620002726000809054906101000a900473ffffffffffffffffffffffffffffffffffffffff16306004546140000260095403620002ea640100000000026401000000009004565b620002e4620002cf600c60003073ffffffffffffffffffffffffffffffffffffffff1673ffffffffffffffffffffffffffffffffffffffff1681526020019081526020016000205462000604640100000000026401000000009004565b62000651640100000000026401000000009004565b62000729565b6000808373ffffffffffffffffffffffffffffffffffffffff16141515156200031257600080fd5b81600c60008673ffffffffffffffffffffffffffffffffffffffff1673ffffffffffffffffffffffffffffffffffffffff16815260200190815260200160002054101515156200036157600080fd5b600c60008473ffffffffffffffffffffffffffffffffffffffff1673ffffffffffffffffffffffffffffffffffffffff1681526020019081526020016000205482600c60008673ffffffffffffffffffffffffffffffffffffffff1673ffffffffffffffffffffffffffffffffffffffff1681526020019081526020016000205401111515620003f057600080fd5b600c60008473ffffffffffffffffffffffffffffffffffffffff1673ffffffffffffffffffffffffffffffffffffffff16815260200190815260200160002054600c60008673ffffffffffffffffffffffffffffffffffffffff1673ffffffffffffffffffffffffffffffffffffffff1681526020019081526020016000205401905081600c60008673ffffffffffffffffffffffffffffffffffffffff1673ffffffffffffffffffffffffffffffffffffffff1681526020019081526020016000206000828254039250508190555081600c60008573ffffffffffffffffffffffffffffffffffffffff1673ffffffffffffffffffffffffffffffffffffffff168152602001908152602001600020600082825401925050819055508273ffffffffffffffffffffffffffffffffffffffff168473ffffffffffffffffffffffffffffffffffffffff167fddf252ad1be2c89b69c2b068fc378daa952ba7f163c4a11628f55a4df523b3ef846040518082815260200191505060405180910390a380600c60008573ffffffffffffffffffffffffffffffffffffffff1673ffffffffffffffffffffffffffffffffffffffff16815260200190815260200160002054600c60008773ffffffffffffffffffffffffffffffffffffffff1673ffffffffffffffffffffffffffffffffffffffff1681526020019081526020016000205401141515620005fe57fe5b50505050565b60006007548283028115156200061657fe5b0460075483600954028115156200062957fe5b046006546009540201036006548302600554028115156200064657fe5b049050809050919050565b80600b819055506305f5e10063086deb2c600b54028115156200067057fe5b04600a8190555050565b828054600181600116156101000203166002900490600052602060002090601f016020900481019282601f10620006bd57805160ff1916838001178555620006ee565b82800160010185558215620006ee579182015b82811115620006ed578251825591602001919060010190620006d0565b5b509050620006fd919062000701565b5090565b6200072691905b808211156200072257600081600090555060010162000708565b5090565b90565b61164a80620007396000396000f300608060405260043610610133576000357c0100000000000000000000000000000000000000000000000000000000900463ffffffff16806306fdde031461013e578063095ea7b3146101ce57806318160ddd146102335780631b8620271461025e5780631e78cfe11461028b57806323b872dd146102b6578063313ce5671461033b5780634b7503341461036c578063596957541461039757806370a08231146103c45780638620410b1461041b5780638da5cb5b1461044657806390fa17bb1461049d57806395d89b41146104b45780639bea62ad14610544578063a6f2ae3a14610571578063a9059cbb1461058f578063c7bdbb95146105dc578063cae9ca511461060b578063d811f09e146106b6578063dd62ed3e146106e5578063e4849b321461075c578063f2fde38b1461079d575b61013b6107e0565b50005b34801561014a57600080fd5b50610153610871565b6040518080602001828103825283818151815260200191508051906020019080838360005b83811015610193578082015181840152602081019050610178565b50505050905090810190601f1680156101c05780820380516001836020036101000a031916815260200191505b509250505060405180910390f35b3480156101da57600080fd5b50610219600480360381019080803573ffffffffffffffffffffffffffffffffffffffff1690602001909291908035906020019092919050505061090f565b604051808215151515815260200191505060405180910390f35b34801561023f57600080fd5b5061024861099c565b6040518082815260200191505060405180910390f35b34801561026a57600080fd5b50610289600480360381019080803590602001909291905050506109a2565b005b34801561029757600080fd5b506102a0610a79565b6040518082815260200191505060405180910390f35b3480156102c257600080fd5b50610321600480360381019080803573ffffffffffffffffffffffffffffffffffffffff169060200190929190803573ffffffffffffffffffffffffffffffffffffffff16906020019092919080359060200190929190505050610a7f565b604051808215151515815260200191505060405180910390f35b34801561034757600080fd5b50610350610bac565b604051808260ff1660ff16815260200191505060405180910390f35b34801561037857600080fd5b50610381610bbf565b6040518082815260200191505060405180910390f35b3480156103a357600080fd5b506103c260048036038101908080359060200190929190505050610bc5565b005b3480156103d057600080fd5b50610405600480360381019080803573ffffffffffffffffffffffffffffffffffffffff169060200190929190505050610c2a565b6040518082815260200191505060405180910390f35b34801561042757600080fd5b50610430610c42565b6040518082815260200191505060405180910390f35b34801561045257600080fd5b5061045b610c48565b604051808273ffffffffffffffffffffffffffffffffffffffff1673ffffffffffffffffffffffffffffffffffffffff16815260200191505060405180910390f35b3480156104a957600080fd5b506104b2610c6d565b005b3480156104c057600080fd5b506104c9610caf565b6040518080602001828103825283818151815260200191508051906020019080838360005b838110156105095780820151818401526020810190506104ee565b50505050905090810190601f1680156105365780820380516001836020036101000a031916815260200191505b509250505060405180910390f35b34801561055057600080fd5b5061056f60048036038101908080359060200190929190505050610d4d565b005b6105796107e0565b6040518082815260200191505060405180910390f35b34801561059b57600080fd5b506105da600480360381019080803573ffffffffffffffffffffffffffffffffffffffff16906020019092919080359060200190929190505050610e2f565b005b3480156105e857600080fd5b50610609600480360381019080803515159060200190929190505050610e82565b005b34801561061757600080fd5b5061069c600480360381019080803573ffffffffffffffffffffffffffffffffffffffff16906020019092919080359060200190929190803590602001908201803590602001908080601f0160208091040260200160405190810160405280939291908181526020018383808284378201915050505050509192919290505050610efa565b604051808215151515815260200191505060405180910390f35b3480156106c257600080fd5b506106cb61107d565b604051808215151515815260200191505060405180910390f35b3480156106f157600080fd5b50610746600480360381019080803573ffffffffffffffffffffffffffffffffffffffff169060200190929190803573ffffffffffffffffffffffffffffffffffffffff169060200190929190505050611090565b6040518082815260200191505060405180910390f35b34801561076857600080fd5b50610787600480360381019080803590602001909291905050506110b5565b6040518082815260200191505060405180910390f35b3480156107a957600080fd5b506107de600480360381019080803573ffffffffffffffffffffffffffffffffffffffff16906020019092919050505061119d565b005b600080600454600b5434028115156107f457fe5b04915061084182600c60003073ffffffffffffffffffffffffffffffffffffffff1673ffffffffffffffffffffffffffffffffffffffff1681526020019081526020016000205403611296565b9050600a548160020211151561085657600080fd5b6108613033846112e0565b61086a816115f6565b8191505090565b60018054600181600116156101000203166002900480601f0160208091040260200160405190810160405280929190818152602001828054600181600116156101000203166002900480156109075780601f106108dc57610100808354040283529160200191610907565b820191906000526020600020905b8154815290600101906020018083116108ea57829003601f168201915b505050505081565b600081600d60003373ffffffffffffffffffffffffffffffffffffffff1673ffffffffffffffffffffffffffffffffffffffff16815260200190815260200160002060008573ffffffffffffffffffffffffffffffffffffffff1673ffffffffffffffffffffffffffffffffffffffff168152602001908152602001600020819055506001905092915050565b60095481565b6000809054906101000a900473ffffffffffffffffffffffffffffffffffffffff1673ffffffffffffffffffffffffffffffffffffffff163373ffffffffffffffffffffffffffffffffffffffff161415156109fd57600080fd5b6008548110151515610a0e57600080fd5b6000809054906101000a900473ffffffffffffffffffffffffffffffffffffffff1673ffffffffffffffffffffffffffffffffffffffff166108fc829081150290604051600060405180830381858888f19350505050158015610a75573d6000803e3d6000fd5b5050565b60085481565b6000600d60008573ffffffffffffffffffffffffffffffffffffffff1673ffffffffffffffffffffffffffffffffffffffff16815260200190815260200160002060003373ffffffffffffffffffffffffffffffffffffffff1673ffffffffffffffffffffffffffffffffffffffff168152602001908152602001600020548211151515610b0c57600080fd5b81600d60008673ffffffffffffffffffffffffffffffffffffffff1673ffffffffffffffffffffffffffffffffffffffff16815260200190815260200160002060003373ffffffffffffffffffffffffffffffffffffffff1673ffffffffffffffffffffffffffffffffffffffff16815260200190815260200160002060008282540392505081905550610ba18484846112e0565b600190509392505050565b600360009054906101000a900460ff1681565b600a5481565b6000809054906101000a900473ffffffffffffffffffffffffffffffffffffffff1673ffffffffffffffffffffffffffffffffffffffff163373ffffffffffffffffffffffffffffffffffffffff16141515610c2057600080fd5b8060088190555050565b600c6020528060005260406000206000915090505481565b600b5481565b6000809054906101000a900473ffffffffffffffffffffffffffffffffffffffff1681565b336000806101000a81548173ffffffffffffffffffffffffffffffffffffffff021916908373ffffffffffffffffffffffffffffffffffffffff160217905550565b60028054600181600116156101000203166002900480601f016020809104026020016040519081016040528092919081815260200182805460018160011615610100020316600290048015610d455780601f10610d1a57610100808354040283529160200191610d45565b820191906000526020600020905b815481529060010190602001808311610d2857829003601f168201915b505050505081565b60008060009054906101000a900473ffffffffffffffffffffffffffffffffffffffff1673ffffffffffffffffffffffffffffffffffffffff163373ffffffffffffffffffffffffffffffffffffffff16141515610daa57600080fd5b610df482600c60003073ffffffffffffffffffffffffffffffffffffffff1673ffffffffffffffffffffffffffffffffffffffff1681526020019081526020016000205401611296565b9050610e226000809054906101000a900473ffffffffffffffffffffffffffffffffffffffff1630846112e0565b610e2b816115f6565b5050565b3073ffffffffffffffffffffffffffffffffffffffff168273ffffffffffffffffffffffffffffffffffffffff161415610e7257610e6c816110b5565b50610e7e565b610e7d3383836112e0565b5b5050565b6000809054906101000a900473ffffffffffffffffffffffffffffffffffffffff1673ffffffffffffffffffffffffffffffffffffffff163373ffffffffffffffffffffffffffffffffffffffff16141515610edd57600080fd5b80600060146101000a81548160ff02191690831515021790555050565b600080849050610f0a858561090f565b15611074578073ffffffffffffffffffffffffffffffffffffffff16638f4ffcb1338630876040518563ffffffff167c0100000000000000000000000000000000000000000000000000000000028152600401808573ffffffffffffffffffffffffffffffffffffffff1673ffffffffffffffffffffffffffffffffffffffff1681526020018481526020018373ffffffffffffffffffffffffffffffffffffffff1673ffffffffffffffffffffffffffffffffffffffff16815260200180602001828103825283818151815260200191508051906020019080838360005b83811015611004578082015181840152602081019050610fe9565b50505050905090810190601f1680156110315780820380516001836020036101000a031916815260200191505b5095505050505050600060405180830381600087803b15801561105357600080fd5b505af1158015611067573d6000803e3d6000fd5b5050505060019150611075565b5b509392505050565b600060149054906101000a900460ff1681565b600d602052816000526040600020602052806000526040600020600091509150505481565b600080600a5460045484028115156110c957fe5b04915060085482101515156110dd57600080fd5b61112783600c60003073ffffffffffffffffffffffffffffffffffffffff1673ffffffffffffffffffffffffffffffffffffffff1681526020019081526020016000205401611296565b9050600a548110151561113957600080fd5b6111443330856112e0565b61114d816115f6565b3373ffffffffffffffffffffffffffffffffffffffff166108fc839081150290604051600060405180830381858888f19350505050158015611193573d6000803e3d6000fd5b5081915050919050565b6000809054906101000a900473ffffffffffffffffffffffffffffffffffffffff1673ffffffffffffffffffffffffffffffffffffffff163373ffffffffffffffffffffffffffffffffffffffff161415156111f857600080fd5b60008173ffffffffffffffffffffffffffffffffffffffff161415151561121e57600080fd5b600060149054906101000a900460ff16151561123957600080fd5b806000806101000a81548173ffffffffffffffffffffffffffffffffffffffff021916908373ffffffffffffffffffffffffffffffffffffffff16021790555060008060146101000a81548160ff02191690831515021790555050565b60006007548283028115156112a757fe5b0460075483600954028115156112b957fe5b046006546009540201036006548302600554028115156112d557fe5b049050809050919050565b6000808373ffffffffffffffffffffffffffffffffffffffff161415151561130757600080fd5b81600c60008673ffffffffffffffffffffffffffffffffffffffff1673ffffffffffffffffffffffffffffffffffffffff168152602001908152602001600020541015151561135557600080fd5b600c60008473ffffffffffffffffffffffffffffffffffffffff1673ffffffffffffffffffffffffffffffffffffffff1681526020019081526020016000205482600c60008673ffffffffffffffffffffffffffffffffffffffff1673ffffffffffffffffffffffffffffffffffffffff16815260200190815260200160002054011115156113e357600080fd5b600c60008473ffffffffffffffffffffffffffffffffffffffff1673ffffffffffffffffffffffffffffffffffffffff16815260200190815260200160002054600c60008673ffffffffffffffffffffffffffffffffffffffff1673ffffffffffffffffffffffffffffffffffffffff1681526020019081526020016000205401905081600c60008673ffffffffffffffffffffffffffffffffffffffff1673ffffffffffffffffffffffffffffffffffffffff1681526020019081526020016000206000828254039250508190555081600c60008573ffffffffffffffffffffffffffffffffffffffff1673ffffffffffffffffffffffffffffffffffffffff168152602001908152602001600020600082825401925050819055508273ffffffffffffffffffffffffffffffffffffffff168473ffffffffffffffffffffffffffffffffffffffff167fddf252ad1be2c89b69c2b068fc378daa952ba7f163c4a11628f55a4df523b3ef846040518082815260200191505060405180910390a380600c60008573ffffffffffffffffffffffffffffffffffffffff1673ffffffffffffffffffffffffffffffffffffffff16815260200190815260200160002054600c60008773ffffffffffffffffffffffffffffffffffffffff1673ffffffffffffffffffffffffffffffffffffffff16815260200190815260200160002054011415156115f057fe5b50505050565b80600b819055506305f5e10063086deb2c600b540281151561161457fe5b04600a81905550505600a165627a7a72305820c747bf6ad326d181f8a11ce964f10ca74d82acddfd9cddfadc59d67cf023f6c70029",
  "source": "\n\ninterface tokenRecipient { function receiveApproval(address _from, uint256 _value, address _token, bytes _extraData) external; }\n\ncontract owned {\n    address public owner;\n    bool public ownershipTransferAllowed = false;\n\n    function constructor() public {\n        owner = msg.sender;\n    }\n\n    modifier onlyOwner {\n        require(msg.sender == owner);\n        _;\n    }\n\n    function allowTransferOwnership(bool flag ) public onlyOwner {\n      ownershipTransferAllowed = flag;\n    }\n \n    function transferOwnership(address newOwner) public onlyOwner {\n        require( newOwner != 0x0 );                                             \n        require( ownershipTransferAllowed );                                 \n        owner = newOwner;\n        ownershipTransferAllowed = false;\n    }\n}\n\ncontract ECR20HoneycombToken is owned {\n    \n    string public name = \"Honeycomb\";\n    string public symbol = \"COMB\";\n    uint8 public decimals = 18;\n    \n    \n    uint256 private tokenFactor = 10 ** uint256(decimals);\n    uint256 private initialBuyPrice = 3141592650000000000000;                   \n    uint256 private buyConst1 = 10000 * tokenFactor;                            \n    uint256 private buyConst2 = 4;                                              \n    \n    uint256 public minimumPayout = 1000000000000000;\t\t\t\t\t\t\t\n       \n    uint256 public totalSupply;                                                 \n\n\t\n    uint256 public sellPrice;\n    uint256 public buyPrice;\n\n    \n    mapping (address => uint256) public balanceOf;\n    mapping (address => mapping (address => uint256)) public allowance;\n\n    \n    event Transfer(address indexed from, address indexed to, uint256 value);\n\n    \n    function ECR20HoneycombToken() public {\n        totalSupply = 1048576 * tokenFactor;                                    \n        balanceOf[msg.sender] = totalSupply;                                    \n        owner = msg.sender;\t\t\t                                            \n        emit Transfer(0, owner, totalSupply);                                   \n        _transfer(owner, this, totalSupply - (16384*tokenFactor));              \n        _setPrices(_newPrice(balanceOf[this]));                                 \n    }\n    \n    function _newPrice(uint256 tokenLeft) internal view returns (uint256 newPrice) {\n        newPrice = initialBuyPrice \n            * ( tokenLeft * buyConst1 )\n            / ( totalSupply*buyConst1 + totalSupply*tokenLeft/buyConst2 - tokenLeft*tokenLeft/buyConst2 ); \n        return newPrice;\n    }\n\n    function _setPrices(uint256 newPrice) internal {\n        buyPrice = newPrice;\n        sellPrice = buyPrice * 141421356 / 100000000;                           \n    }\n\n\t\n\tfunction buy() payable public returns (uint256 amountToken){\n        amountToken = msg.value * buyPrice / tokenFactor;                       \n        uint256 newPrice = _newPrice(balanceOf[this] - amountToken);            \n        require( (2*newPrice) > sellPrice);                                     \n        _transfer(this, msg.sender, amountToken);                               \n        _setPrices( newPrice );                                                 \n        return amountToken;\n    }\n\n    \n\tfunction () payable public {\n\t    buy();\n    }\n\n    \n    function sell(uint256 amountToken) public returns (uint256 revenue){\n        revenue = amountToken * tokenFactor / sellPrice;                        \n        require( revenue >= minimumPayout );\t\t\t\t\t\t\t\t\t\n        uint256 newPrice = _newPrice(balanceOf[this] + amountToken);            \n        require( newPrice < sellPrice );                                        \n        _transfer(msg.sender, this, amountToken);                               \n        _setPrices( newPrice );                                                 \n        msg.sender.transfer(revenue);                                           \n        return revenue;\n    }\n\t\t\n    \n    function transfer(address _to, uint256 _value) public {\n        if ( _to  == address(this) )\n        {\n          sell(_value);                                                         \n        }\n        else\n        {\n          _transfer(msg.sender, _to, _value);\n        }\n    }\n\n    \n    function transferFrom(address _from, address _to, uint256 _value) public returns (bool success) {\n        require(_value <= allowance[_from][msg.sender]);     \n        allowance[_from][msg.sender] -= _value;\n        _transfer(_from, _to, _value);\n        return true;\n    }\n\n    \n    function approve(address _spender, uint256 _value) public\n        returns (bool success) {\n        allowance[msg.sender][_spender] = _value;\n        return true;\n    }\n\n    \n    function approveAndCall(address _spender, uint256 _value, bytes _extraData) public returns (bool success) {\n        tokenRecipient spender = tokenRecipient(_spender);\n        if (approve(_spender, _value)) {\n            spender.receiveApproval(msg.sender, _value, this, _extraData);\n            return true;\n        }\n    }\n\n\t\n\t\tfunction setMinimumPayout(uint256 amount) public onlyOwner {\n\t\tminimumPayout = amount;\n    }\n\t\t\n\t\n\t\tfunction save(uint256 amount) public onlyOwner {\n        require( amount >= minimumPayout );\t\n        owner.transfer( amount);\n    }\n\t\t\n\t\n\t\tfunction restore(uint256 amount) public onlyOwner {\n        uint256 newPrice = _newPrice(balanceOf[this] + amount);                 \n        _transfer(owner, this, amount );                                        \n        _setPrices( newPrice );                                                 \n    }\n\t\t\n\t\n    function _transfer(address _from, address _to, uint _value) internal {\n        \n        require(_to != 0x0);\n        \n        require(balanceOf[_from] >= _value);\n        \n        require(balanceOf[_to] + _value > balanceOf[_to]);\n        \n        uint previousBalances = balanceOf[_from] + balanceOf[_to];\n        \n        balanceOf[_from] -= _value;\n        \n        balanceOf[_to] += _value;\n        emit Transfer(_from, _to, _value);\n        \n        assert(balanceOf[_from] + balanceOf[_to] == previousBalances);\n    }\n\n}",
  "sourcePath": "/home/XXX-1/smartrim-experiment/for-rlf/0xa86914a1402f3cdcb27084e08a47445e8ab1bbab/contracts/0xa86914a1402f3cdcb27084e08a47445e8ab1bbab.sol",
  "compiler": {
    "name": "solc",
    "version": "0.4.25+commit.59dbf8f1.Emscripten.clang"
  },
  "schemaVersion": "3.4.16",
  "updatedAt": "2025-08-14T04:02:54.873Z",
  "networkType": "ethereum",
  "devdoc": {
    "methods": {}
  },
  "userdoc": {
    "methods": {}
  }
}