{
  "contractName": "BFTToken",
  "abi": [
    {
      "constant": true,
      "inputs": [],
      "name": "name",
      "outputs": [
        {
          "name": "",
          "type": "string"
        }
      ],
      "payable": false,
      "stateMutability": "view",
      "type": "function"
    },
    {
      "constant": true,
      "inputs": [],
      "name": "totalSupply",
      "outputs": [
        {
          "name": "",
          "type": "uint256"
        }
      ],
      "payable": false,
      "stateMutability": "view",
      "type": "function"
    },
    {
      "constant": true,
      "inputs": [],
      "name": "decimals",
      "outputs": [
        {
          "name": "",
          "type": "uint256"
        }
      ],
      "payable": false,
      "stateMutability": "view",
      "type": "function"
    },
    {
      "constant": true,
      "inputs": [],
      "name": "value",
      "outputs": [
        {
          "name": "",
          "type": "uint256"
        }
      ],
      "payable": false,
      "stateMutability": "view",
      "type": "function"
    },
    {
      "constant": true,
      "inputs": [],
      "name": "symbol",
      "outputs": [
        {
          "name": "",
          "type": "string"
        }
      ],
      "payable": false,
      "stateMutability": "view",
      "type": "function"
    },
    {
      "constant": true,
      "inputs": [],
      "name": "distributionFinished",
      "outputs": [
        {
          "name": "",
          "type": "bool"
        }
      ],
      "payable": false,
      "stateMutability": "view",
      "type": "function"
    },
    {
      "constant": true,
      "inputs": [],
      "name": "totalRemaining",
      "outputs": [
        {
          "name": "",
          "type": "uint256"
        }
      ],
      "payable": false,
      "stateMutability": "view",
      "type": "function"
    },
    {
      "constant": true,
      "inputs": [],
      "name": "totalDistributed",
      "outputs": [
        {
          "name": "",
          "type": "uint256"
        }
      ],
      "payable": false,
      "stateMutability": "view",
      "type": "function"
    },
    {
      "constant": true,
      "inputs": [
        {
          "name": "",
          "type": "address"
        }
      ],
      "name": "blacklist",
      "outputs": [
        {
          "name": "",
          "type": "bool"
        }
      ],
      "payable": false,
      "stateMutability": "view",
      "type": "function"
    },
    {
      "payable": true,
      "stateMutability": "payable",
      "type": "fallback"
    },
    {
      "anonymous": false,
      "inputs": [
        {
          "indexed": true,
          "name": "_from",
          "type": "address"
        },
        {
          "indexed": true,
          "name": "_to",
          "type": "address"
        },
        {
          "indexed": false,
          "name": "_value",
          "type": "uint256"
        }
      ],
      "name": "Transfer",
      "type": "event"
    },
    {
      "anonymous": false,
      "inputs": [
        {
          "indexed": true,
          "name": "_owner",
          "type": "address"
        },
        {
          "indexed": true,
          "name": "_spender",
          "type": "address"
        },
        {
          "indexed": false,
          "name": "_value",
          "type": "uint256"
        }
      ],
      "name": "Approval",
      "type": "event"
    },
    {
      "anonymous": false,
      "inputs": [
        {
          "indexed": true,
          "name": "to",
          "type": "address"
        },
        {
          "indexed": false,
          "name": "amount",
          "type": "uint256"
        }
      ],
      "name": "Distr",
      "type": "event"
    },
    {
      "anonymous": false,
      "inputs": [],
      "name": "DistrFinished",
      "type": "event"
    },
    {
      "anonymous": false,
      "inputs": [
        {
          "indexed": true,
          "name": "burner",
          "type": "address"
        },
        {
          "indexed": false,
          "name": "value",
          "type": "uint256"
        }
      ],
      "name": "Burn",
      "type": "event"
    },
    {
      "constant": false,
      "inputs": [],
      "name": "QMQCoin",
      "outputs": [],
      "payable": false,
      "stateMutability": "nonpayable",
      "type": "function"
    },
    {
      "constant": false,
      "inputs": [
        {
          "name": "newOwner",
          "type": "address"
        }
      ],
      "name": "transferOwnership",
      "outputs": [],
      "payable": false,
      "stateMutability": "nonpayable",
      "type": "function"
    },
    {
      "constant": false,
      "inputs": [
        {
          "name": "addresses",
          "type": "address[]"
        }
      ],
      "name": "enableWhitelist",
      "outputs": [],
      "payable": false,
      "stateMutability": "nonpayable",
      "type": "function"
    },
    {
      "constant": false,
      "inputs": [
        {
          "name": "addresses",
          "type": "address[]"
        }
      ],
      "name": "disableWhitelist",
      "outputs": [],
      "payable": false,
      "stateMutability": "nonpayable",
      "type": "function"
    },
    {
      "constant": false,
      "inputs": [],
      "name": "finishDistribution",
      "outputs": [
        {
          "name": "",
          "type": "bool"
        }
      ],
      "payable": false,
      "stateMutability": "nonpayable",
      "type": "function"
    },
    {
      "constant": false,
      "inputs": [
        {
          "name": "addresses",
          "type": "address[]"
        }
      ],
      "name": "airdrop",
      "outputs": [],
      "payable": false,
      "stateMutability": "nonpayable",
      "type": "function"
    },
    {
      "constant": false,
      "inputs": [
        {
          "name": "addresses",
          "type": "address[]"
        },
        {
          "name": "amount",
          "type": "uint256"
        }
      ],
      "name": "distribution",
      "outputs": [],
      "payable": false,
      "stateMutability": "nonpayable",
      "type": "function"
    },
    {
      "constant": false,
      "inputs": [
        {
          "name": "addresses",
          "type": "address[]"
        },
        {
          "name": "amounts",
          "type": "uint256[]"
        }
      ],
      "name": "distributeAmounts",
      "outputs": [],
      "payable": false,
      "stateMutability": "nonpayable",
      "type": "function"
    },
    {
      "constant": false,
      "inputs": [],
      "name": "getTokens",
      "outputs": [],
      "payable": true,
      "stateMutability": "payable",
      "type": "function"
    },
    {
      "constant": true,
      "inputs": [
        {
          "name": "_owner",
          "type": "address"
        }
      ],
      "name": "balanceOf",
      "outputs": [
        {
          "name": "",
          "type": "uint256"
        }
      ],
      "payable": false,
      "stateMutability": "view",
      "type": "function"
    },
    {
      "constant": false,
      "inputs": [
        {
          "name": "_to",
          "type": "address"
        },
        {
          "name": "_amount",
          "type": "uint256"
        }
      ],
      "name": "transfer",
      "outputs": [
        {
          "name": "success",
          "type": "bool"
        }
      ],
      "payable": false,
      "stateMutability": "nonpayable",
      "type": "function"
    },
    {
      "constant": false,
      "inputs": [
        {
          "name": "_from",
          "type": "address"
        },
        {
          "name": "_to",
          "type": "address"
        },
        {
          "name": "_amount",
          "type": "uint256"
        }
      ],
      "name": "transferFrom",
      "outputs": [
        {
          "name": "success",
          "type": "bool"
        }
      ],
      "payable": false,
      "stateMutability": "nonpayable",
      "type": "function"
    },
    {
      "constant": false,
      "inputs": [
        {
          "name": "_spender",
          "type": "address"
        },
        {
          "name": "_value",
          "type": "uint256"
        }
      ],
      "name": "approve",
      "outputs": [
        {
          "name": "success",
          "type": "bool"
        }
      ],
      "payable": false,
      "stateMutability": "nonpayable",
      "type": "function"
    },
    {
      "constant": true,
      "inputs": [
        {
          "name": "_owner",
          "type": "address"
        },
        {
          "name": "_spender",
          "type": "address"
        }
      ],
      "name": "allowance",
      "outputs": [
        {
          "name": "",
          "type": "uint256"
        }
      ],
      "payable": false,
      "stateMutability": "view",
      "type": "function"
    },
    {
      "constant": true,
      "inputs": [
        {
          "name": "tokenAddress",
          "type": "address"
        },
        {
          "name": "who",
          "type": "address"
        }
      ],
      "name": "getTokenBalance",
      "outputs": [
        {
          "name": "",
          "type": "uint256"
        }
      ],
      "payable": false,
      "stateMutability": "view",
      "type": "function"
    },
    {
      "constant": false,
      "inputs": [],
      "name": "withdraw",
      "outputs": [],
      "payable": false,
      "stateMutability": "nonpayable",
      "type": "function"
    },
    {
      "constant": false,
      "inputs": [
        {
          "name": "_value",
          "type": "uint256"
        }
      ],
      "name": "burn",
      "outputs": [],
      "payable": false,
      "stateMutability": "nonpayable",
      "type": "function"
    },
    {
      "constant": false,
      "inputs": [
        {
          "name": "_tokenContract",
          "type": "address"
        }
      ],
      "name": "withdrawForeignTokens",
      "outputs": [
        {
          "name": "",
          "type": "bool"
        }
      ],
      "payable": false,
      "stateMutability": "nonpayable",
      "type": "function"
    },
    {
      "constant": false,
      "inputs": [
        {
          "name": "_spender",
          "type": "address"
        },
        {
          "name": "_value",
          "type": "uint256"
        },
        {
          "name": "_extraData",
          "type": "bytes"
        }
      ],
      "name": "approveAndCall",
      "outputs": [
        {
          "name": "success",
          "type": "bool"
        }
      ],
      "payable": false,
      "stateMutability": "nonpayable",
      "type": "function"
    }
  ],
  "bytecode": "0x608060405233600160006101000a81548173ffffffffffffffffffffffffffffffffffffffff021916908373ffffffffffffffffffffffffffffffffffffffff16021790555067016345785d8a0000600555666a94d74f43000060065562000083600654600554620000b564010000000002620026af179091906401000000009004565b6007556000600960006101000a81548160ff021916908315150217905550348015620000ae57600080fd5b50620000cf565b6000828211151515620000c457fe5b818303905092915050565b61271280620000df6000396000f30060806040526004361061016a576000357c0100000000000000000000000000000000000000000000000000000000900463ffffffff16806306fdde0314610174578063095ea7b31461020457806318160ddd1461026957806323b872dd1461029457806330aa311a14610319578063313ce567146103305780633ccfd60b1461035b5780633fa4f2451461037257806342966c681461039d578063502dadb0146103ca57806370a0823114610430578063729ad39e1461048757806395d89b41146104ed5780639b1cbccc1461057d5780639c09c835146105ac578063a8c310d514610612578063a9059cbb146106bb578063aa6ca80814610720578063c108d5421461072a578063c489744b14610759578063cae9ca51146107d0578063d8a543601461087b578063dd62ed3e146108a6578063e58fc54c1461091d578063efca2eed14610978578063f2fde38b146109a3578063f3e4877c146109e6578063f9f92be414610a56575b610172610ab1565b005b34801561018057600080fd5b50610189610c2d565b6040518080602001828103825283818151815260200191508051906020019080838360005b838110156101c95780820151818401526020810190506101ae565b50505050905090810190601f1680156101f65780820380516001836020036101000a031916815260200191505b509250505060405180910390f35b34801561021057600080fd5b5061024f600480360381019080803573ffffffffffffffffffffffffffffffffffffffff16906020019092919080359060200190929190505050610c66565b604051808215151515815260200191505060405180910390f35b34801561027557600080fd5b5061027e610d58565b6040518082815260200191505060405180910390f35b3480156102a057600080fd5b506102ff600480360381019080803573ffffffffffffffffffffffffffffffffffffffff169060200190929190803573ffffffffffffffffffffffffffffffffffffffff16906020019092919080359060200190929190505050610d5e565b604051808215151515815260200191505060405180910390f35b34801561032557600080fd5b5061032e611134565b005b34801561033c57600080fd5b506103456111b2565b6040518082815260200191505060405180910390f35b34801561036757600080fd5b506103706111b7565b005b34801561037e57600080fd5b5061038761129b565b6040518082815260200191505060405180910390f35b3480156103a957600080fd5b506103c8600480360381019080803590602001909291905050506112a1565b005b3480156103d657600080fd5b5061042e6004803603810190808035906020019082018035906020019080806020026020016040519081016040528093929190818152602001838360200280828437820191505050505050919291929050505061146d565b005b34801561043c57600080fd5b50610471600480360381019080803573ffffffffffffffffffffffffffffffffffffffff169060200190929190505050611559565b6040518082815260200191505060405180910390f35b34801561049357600080fd5b506104eb600480360381019080803590602001908201803590602001908080602002602001604051908101604052809392919081815260200183836020028082843782019150505050505091929192905050506115a2565b005b3480156104f957600080fd5b506105026116bf565b6040518080602001828103825283818151815260200191508051906020019080838360005b83811015610542578082015181840152602081019050610527565b50505050905090810190601f16801561056f5780820380516001836020036101000a031916815260200191505b509250505060405180910390f35b34801561058957600080fd5b506105926116f8565b604051808215151515815260200191505060405180910390f35b3480156105b857600080fd5b50610610600480360381019080803590602001908201803590602001908080602002602001604051908101604052809392919081815260200183836020028082843782019150505050505091929192905050506117c0565b005b34801561061e57600080fd5b506106b960048036038101908080359060200190820180359060200190808060200260200160405190810160405280939291908181526020018383602002808284378201915050505050509192919290803590602001908201803590602001908080602002602001604051908101604052809392919081815260200183836020028082843782019150505050505091929192905050506118ac565b005b3480156106c757600080fd5b50610706600480360381019080803573ffffffffffffffffffffffffffffffffffffffff169060200190929190803590602001909291905050506119fd565b604051808215151515815260200191505060405180910390f35b610728610ab1565b005b34801561073657600080fd5b5061073f611c38565b604051808215151515815260200191505060405180910390f35b34801561076557600080fd5b506107ba600480360381019080803573ffffffffffffffffffffffffffffffffffffffff169060200190929190803573ffffffffffffffffffffffffffffffffffffffff169060200190929190505050611c4b565b6040518082815260200191505060405180910390f35b3480156107dc57600080fd5b50610861600480360381019080803573ffffffffffffffffffffffffffffffffffffffff16906020019092919080359060200190929190803590602001908201803590602001908080601f0160208091040260200160405190810160405280939291908181526020018383808284378201915050505050509192919290505050611d36565b604051808215151515815260200191505060405180910390f35b34801561088757600080fd5b50610890611fd3565b6040518082815260200191505060405180910390f35b3480156108b257600080fd5b50610907600480360381019080803573ffffffffffffffffffffffffffffffffffffffff169060200190929190803573ffffffffffffffffffffffffffffffffffffffff169060200190929190505050611fd9565b6040518082815260200191505060405180910390f35b34801561092957600080fd5b5061095e600480360381019080803573ffffffffffffffffffffffffffffffffffffffff169060200190929190505050612060565b604051808215151515815260200191505060405180910390f35b34801561098457600080fd5b5061098d6122a5565b6040518082815260200191505060405180910390f35b3480156109af57600080fd5b506109e4600480360381019080803573ffffffffffffffffffffffffffffffffffffffff1690602001909291905050506122ab565b005b3480156109f257600080fd5b50610a546004803603810190808035906020019082018035906020019080806020026020016040519081016040528093929190818152602001838360200280828437820191505050505050919291929080359060200190929190505050612382565b005b348015610a6257600080fd5b50610a97600480360381019080803573ffffffffffffffffffffffffffffffffffffffff16906020019092919050505061249a565b604051808215151515815260200191505060405180910390f35b600080600960009054906101000a900460ff16151515610ad057600080fd5b60001515600460003373ffffffffffffffffffffffffffffffffffffffff1673ffffffffffffffffffffffffffffffffffffffff16815260200190815260200160002060009054906101000a900460ff161515141515610b2f57600080fd5b6007546008541115610b45576007546008819055505b60075460085411151515610b5857600080fd5b3391506008549050610b6a82826124ba565b506000811115610bcd576001600460008473ffffffffffffffffffffffffffffffffffffffff1673ffffffffffffffffffffffffffffffffffffffff16815260200190815260200160002060006101000a81548160ff0219169083151502179055505b600554600654101515610bf6576001600960006101000a81548160ff0219169083151502179055505b610c236201869f610c15620186a060085461266190919063ffffffff16565b61267c90919063ffffffff16565b6008819055505050565b6040805190810160405280601181526020017f4275726d6120666972737420746f6b656e00000000000000000000000000000081525081565b600081600360003373ffffffffffffffffffffffffffffffffffffffff1673ffffffffffffffffffffffffffffffffffffffff16815260200190815260200160002060008573ffffffffffffffffffffffffffffffffffffffff1673ffffffffffffffffffffffffffffffffffffffff168152602001908152602001600020819055508273ffffffffffffffffffffffffffffffffffffffff163373ffffffffffffffffffffffffffffffffffffffff167f8c5be1e5ebec7d5bd14f71427d1e84f3dd0314c0f7b2291e5b200ac8c7c3b925846040518082815260200191505060405180910390a36001905092915050565b60055481565b6000606060048101600036905010151515610d7557fe5b600073ffffffffffffffffffffffffffffffffffffffff168473ffffffffffffffffffffffffffffffffffffffff1614151515610db157600080fd5b600260008673ffffffffffffffffffffffffffffffffffffffff1673ffffffffffffffffffffffffffffffffffffffff168152602001908152602001600020548311151515610dff57600080fd5b600360008673ffffffffffffffffffffffffffffffffffffffff1673ffffffffffffffffffffffffffffffffffffffff16815260200190815260200160002060003373ffffffffffffffffffffffffffffffffffffffff1673ffffffffffffffffffffffffffffffffffffffff168152602001908152602001600020548311151515610e8a57600080fd5b610edc83600260008873ffffffffffffffffffffffffffffffffffffffff1673ffffffffffffffffffffffffffffffffffffffff168152602001908152602001600020546126af90919063ffffffff16565b600260008773ffffffffffffffffffffffffffffffffffffffff1673ffffffffffffffffffffffffffffffffffffffff16815260200190815260200160002081905550610fae83600360008873ffffffffffffffffffffffffffffffffffffffff1673ffffffffffffffffffffffffffffffffffffffff16815260200190815260200160002060003373ffffffffffffffffffffffffffffffffffffffff1673ffffffffffffffffffffffffffffffffffffffff168152602001908152602001600020546126af90919063ffffffff16565b600360008773ffffffffffffffffffffffffffffffffffffffff1673ffffffffffffffffffffffffffffffffffffffff16815260200190815260200160002060003373ffffffffffffffffffffffffffffffffffffffff1673ffffffffffffffffffffffffffffffffffffffff1681526020019081526020016000208190555061108083600260008773ffffffffffffffffffffffffffffffffffffffff1673ffffffffffffffffffffffffffffffffffffffff168152602001908152602001600020546126c890919063ffffffff16565b600260008673ffffffffffffffffffffffffffffffffffffffff1673ffffffffffffffffffffffffffffffffffffffff168152602001908152602001600020819055508373ffffffffffffffffffffffffffffffffffffffff168573ffffffffffffffffffffffffffffffffffffffff167fddf252ad1be2c89b69c2b068fc378daa952ba7f163c4a11628f55a4df523b3ef856040518082815260200191505060405180910390a360019150509392505050565b33600160006101000a81548173ffffffffffffffffffffffffffffffffffffffff021916908373ffffffffffffffffffffffffffffffffffffffff16021790555064746a5288006008819055506111af600160009054906101000a900473ffffffffffffffffffffffffffffffffffffffff166006546124ba565b50565b600881565b6000600160009054906101000a900473ffffffffffffffffffffffffffffffffffffffff1673ffffffffffffffffffffffffffffffffffffffff163373ffffffffffffffffffffffffffffffffffffffff1614151561121557600080fd5b3073ffffffffffffffffffffffffffffffffffffffff16319050600160009054906101000a900473ffffffffffffffffffffffffffffffffffffffff1673ffffffffffffffffffffffffffffffffffffffff166108fc829081150290604051600060405180830381858888f19350505050158015611297573d6000803e3d6000fd5b5050565b60085481565b6000600160009054906101000a900473ffffffffffffffffffffffffffffffffffffffff1673ffffffffffffffffffffffffffffffffffffffff163373ffffffffffffffffffffffffffffffffffffffff161415156112ff57600080fd5b600260003373ffffffffffffffffffffffffffffffffffffffff1673ffffffffffffffffffffffffffffffffffffffff16815260200190815260200160002054821115151561134d57600080fd5b3390506113a282600260008473ffffffffffffffffffffffffffffffffffffffff1673ffffffffffffffffffffffffffffffffffffffff168152602001908152602001600020546126af90919063ffffffff16565b600260008373ffffffffffffffffffffffffffffffffffffffff1673ffffffffffffffffffffffffffffffffffffffff168152602001908152602001600020819055506113fa826005546126af90919063ffffffff16565b600581905550611415826006546126af90919063ffffffff16565b6006819055508073ffffffffffffffffffffffffffffffffffffffff167fcc16f5dbb4873280815c1ee09dbd06736cffcc184412cf7a71a0fdb75d397ca5836040518082815260200191505060405180910390a25050565b6000600160009054906101000a900473ffffffffffffffffffffffffffffffffffffffff1673ffffffffffffffffffffffffffffffffffffffff163373ffffffffffffffffffffffffffffffffffffffff161415156114cb57600080fd5b600090505b81518110156115555760016004600084848151811015156114ed57fe5b9060200190602002015173ffffffffffffffffffffffffffffffffffffffff1673ffffffffffffffffffffffffffffffffffffffff16815260200190815260200160002060006101000a81548160ff02191690831515021790555080806001019150506114d0565b5050565b6000600260008373ffffffffffffffffffffffffffffffffffffffff1673ffffffffffffffffffffffffffffffffffffffff168152602001908152602001600020549050919050565b6000600160009054906101000a900473ffffffffffffffffffffffffffffffffffffffff1673ffffffffffffffffffffffffffffffffffffffff163373ffffffffffffffffffffffffffffffffffffffff1614151561160057600080fd5b600960009054906101000a900460ff1615151561161c57600080fd5b60ff82511115151561162d57600080fd5b6007546008541115151561164057600080fd5b600090505b8151811015611692576007546008541115151561166157600080fd5b611684828281518110151561167257fe5b906020019060200201516008546124ba565b508080600101915050611645565b6005546006541015156116bb576001600960006101000a81548160ff0219169083151502179055505b5050565b6040805190810160405280600381526020017f424654000000000000000000000000000000000000000000000000000000000081525081565b6000600160009054906101000a900473ffffffffffffffffffffffffffffffffffffffff1673ffffffffffffffffffffffffffffffffffffffff163373ffffffffffffffffffffffffffffffffffffffff1614151561175657600080fd5b600960009054906101000a900460ff1615151561177257600080fd5b6001600960006101000a81548160ff0219169083151502179055507f7f95d919e78bdebe8a285e6e33357c2fcb65ccf66e72d7573f9f8f6caad0c4cc60405160405180910390a16001905090565b6000600160009054906101000a900473ffffffffffffffffffffffffffffffffffffffff1673ffffffffffffffffffffffffffffffffffffffff163373ffffffffffffffffffffffffffffffffffffffff1614151561181e57600080fd5b600090505b81518110156118a857600060046000848481518110151561184057fe5b9060200190602002015173ffffffffffffffffffffffffffffffffffffffff1673ffffffffffffffffffffffffffffffffffffffff16815260200190815260200160002060006101000a81548160ff0219169083151502179055508080600101915050611823565b5050565b6000600160009054906101000a900473ffffffffffffffffffffffffffffffffffffffff1673ffffffffffffffffffffffffffffffffffffffff163373ffffffffffffffffffffffffffffffffffffffff1614151561190a57600080fd5b600960009054906101000a900460ff1615151561192657600080fd5b60ff83511115151561193757600080fd5b8151835114151561194757600080fd5b600090505b82518160ff1610156119f857600754828260ff1681518110151561196c57fe5b906020019060200201511115151561198357600080fd5b6119c1838260ff1681518110151561199757fe5b90602001906020020151838360ff168151811015156119b257fe5b906020019060200201516124ba565b506005546006541015156119eb576001600960006101000a81548160ff0219169083151502179055505b808060010191505061194c565b505050565b6000604060048101600036905010151515611a1457fe5b600073ffffffffffffffffffffffffffffffffffffffff168473ffffffffffffffffffffffffffffffffffffffff1614151515611a5057600080fd5b600260003373ffffffffffffffffffffffffffffffffffffffff1673ffffffffffffffffffffffffffffffffffffffff168152602001908152602001600020548311151515611a9e57600080fd5b611af083600260003373ffffffffffffffffffffffffffffffffffffffff1673ffffffffffffffffffffffffffffffffffffffff168152602001908152602001600020546126af90919063ffffffff16565b600260003373ffffffffffffffffffffffffffffffffffffffff1673ffffffffffffffffffffffffffffffffffffffff16815260200190815260200160002081905550611b8583600260008773ffffffffffffffffffffffffffffffffffffffff1673ffffffffffffffffffffffffffffffffffffffff168152602001908152602001600020546126c890919063ffffffff16565b600260008673ffffffffffffffffffffffffffffffffffffffff1673ffffffffffffffffffffffffffffffffffffffff168152602001908152602001600020819055508373ffffffffffffffffffffffffffffffffffffffff163373ffffffffffffffffffffffffffffffffffffffff167fddf252ad1be2c89b69c2b068fc378daa952ba7f163c4a11628f55a4df523b3ef856040518082815260200191505060405180910390a3600191505092915050565b600960009054906101000a900460ff1681565b60008060008491508173ffffffffffffffffffffffffffffffffffffffff166370a08231856040518263ffffffff167c0100000000000000000000000000000000000000000000000000000000028152600401808273ffffffffffffffffffffffffffffffffffffffff1673ffffffffffffffffffffffffffffffffffffffff168152602001915050602060405180830381600087803b158015611cee57600080fd5b505af1158015611d02573d6000803e3d6000fd5b505050506040513d6020811015611d1857600080fd5b81019080805190602001909291905050509050809250505092915050565b600082600360003373ffffffffffffffffffffffffffffffffffffffff1673ffffffffffffffffffffffffffffffffffffffff16815260200190815260200160002060008673ffffffffffffffffffffffffffffffffffffffff1673ffffffffffffffffffffffffffffffffffffffff168152602001908152602001600020819055508373ffffffffffffffffffffffffffffffffffffffff163373ffffffffffffffffffffffffffffffffffffffff167f8c5be1e5ebec7d5bd14f71427d1e84f3dd0314c0f7b2291e5b200ac8c7c3b925856040518082815260200191505060405180910390a38373ffffffffffffffffffffffffffffffffffffffff1660405180807f72656365697665417070726f76616c28616464726573732c75696e743235362c81526020017f616464726573732c627974657329000000000000000000000000000000000000815250602e01905060405180910390207c01000000000000000000000000000000000000000000000000000000009004338530866040518563ffffffff167c0100000000000000000000000000000000000000000000000000000000028152600401808573ffffffffffffffffffffffffffffffffffffffff1673ffffffffffffffffffffffffffffffffffffffff1681526020018481526020018373ffffffffffffffffffffffffffffffffffffffff1673ffffffffffffffffffffffffffffffffffffffff168152602001828051906020019080838360005b83811015611f77578082015181840152602081019050611f5c565b50505050905090810190601f168015611fa45780820380516001836020036101000a031916815260200191505b509450505050506000604051808303816000875af1925050501515611fc857600080fd5b600190509392505050565b60075481565b6000600360008473ffffffffffffffffffffffffffffffffffffffff1673ffffffffffffffffffffffffffffffffffffffff16815260200190815260200160002060008373ffffffffffffffffffffffffffffffffffffffff1673ffffffffffffffffffffffffffffffffffffffff16815260200190815260200160002054905092915050565b6000806000600160009054906101000a900473ffffffffffffffffffffffffffffffffffffffff1673ffffffffffffffffffffffffffffffffffffffff163373ffffffffffffffffffffffffffffffffffffffff161415156120c157600080fd5b8391508173ffffffffffffffffffffffffffffffffffffffff166370a08231306040518263ffffffff167c0100000000000000000000000000000000000000000000000000000000028152600401808273ffffffffffffffffffffffffffffffffffffffff1673ffffffffffffffffffffffffffffffffffffffff168152602001915050602060405180830381600087803b15801561215f57600080fd5b505af1158015612173573d6000803e3d6000fd5b505050506040513d602081101561218957600080fd5b810190808051906020019092919050505090508173ffffffffffffffffffffffffffffffffffffffff1663a9059cbb600160009054906101000a900473ffffffffffffffffffffffffffffffffffffffff16836040518363ffffffff167c0100000000000000000000000000000000000000000000000000000000028152600401808373ffffffffffffffffffffffffffffffffffffffff1673ffffffffffffffffffffffffffffffffffffffff16815260200182815260200192505050602060405180830381600087803b15801561226157600080fd5b505af1158015612275573d6000803e3d6000fd5b505050506040513d602081101561228b57600080fd5b810190808051906020019092919050505092505050919050565b60065481565b600160009054906101000a900473ffffffffffffffffffffffffffffffffffffffff1673ffffffffffffffffffffffffffffffffffffffff163373ffffffffffffffffffffffffffffffffffffffff1614151561230757600080fd5b600073ffffffffffffffffffffffffffffffffffffffff168173ffffffffffffffffffffffffffffffffffffffff1614151561237f5780600160006101000a81548173ffffffffffffffffffffffffffffffffffffffff021916908373ffffffffffffffffffffffffffffffffffffffff1602179055505b50565b6000600160009054906101000a900473ffffffffffffffffffffffffffffffffffffffff1673ffffffffffffffffffffffffffffffffffffffff163373ffffffffffffffffffffffffffffffffffffffff161415156123e057600080fd5b600960009054906101000a900460ff161515156123fc57600080fd5b60ff83511115151561240d57600080fd5b600754821115151561241e57600080fd5b600090505b825181101561246c57600754821115151561243d57600080fd5b61245e838281518110151561244e57fe5b90602001906020020151836124ba565b508080600101915050612423565b600554600654101515612495576001600960006101000a81548160ff0219169083151502179055505b505050565b60046020528060005260406000206000915054906101000a900460ff1681565b6000600960009054906101000a900460ff161515156124d857600080fd5b6124ed826006546126c890919063ffffffff16565b600681905550612508826007546126af90919063ffffffff16565b60078190555061256082600260008673ffffffffffffffffffffffffffffffffffffffff1673ffffffffffffffffffffffffffffffffffffffff168152602001908152602001600020546126c890919063ffffffff16565b600260008573ffffffffffffffffffffffffffffffffffffffff1673ffffffffffffffffffffffffffffffffffffffff168152602001908152602001600020819055508273ffffffffffffffffffffffffffffffffffffffff167f8940c4b8e215f8822c5c8f0056c12652c746cbc57eedbd2a440b175971d47a77836040518082815260200191505060405180910390a28273ffffffffffffffffffffffffffffffffffffffff16600073ffffffffffffffffffffffffffffffffffffffff167fddf252ad1be2c89b69c2b068fc378daa952ba7f163c4a11628f55a4df523b3ef846040518082815260200191505060405180910390a36001905092915050565b600080828481151561266f57fe5b0490508091505092915050565b6000808284029050600084148061269d575082848281151561269a57fe5b04145b15156126a557fe5b8091505092915050565b60008282111515156126bd57fe5b818303905092915050565b60008082840190508381101515156126dc57fe5b80915050929150505600a165627a7a723058207456980947855a5c405bdac5465fd34447b5636b33738ea66b88047ddc2b9daf0029",
  "source": "\n\nlibrary SafeMath {\n  function mul(uint256 a, uint256 b) internal pure returns (uint256) {\n    uint256 c = a * b;\n    assert(a == 0 || c / a == b);\n    return c;\n  }\n\n  function div(uint256 a, uint256 b) internal pure returns (uint256) {\n    uint256 c = a / b;\n    return c;\n  }\n\n  function sub(uint256 a, uint256 b) internal pure returns (uint256) {\n    assert(b <= a);\n    return a - b;\n  }\n\n  function add(uint256 a, uint256 b) internal pure returns (uint256) {\n    uint256 c = a + b;\n    assert(c >= a);\n    return c;\n  }\n}\n\ncontract ForeignToken {\n    function balanceOf(address _owner) constant public returns (uint256);\n    function transfer(address _to, uint256 _value) public returns (bool);\n}\n\ncontract ERC20Basic {\n    uint256 public totalSupply;\n    function balanceOf(address who) public constant returns (uint256);\n    function transfer(address to, uint256 value) public returns (bool);\n    event Transfer(address indexed from, address indexed to, uint256 value);\n}\n\ncontract ERC20 is ERC20Basic {\n    function allowance(address owner, address spender) public constant returns (uint256);\n    function transferFrom(address from, address to, uint256 value) public returns (bool);\n    function approve(address spender, uint256 value) public returns (bool);\n    event Approval(address indexed owner, address indexed spender, uint256 value);\n}\n\ninterface Token { \n    function distr(address _to, uint256 _value) public returns (bool);\n    function totalSupply() constant public returns (uint256 supply);\n    function balanceOf(address _owner) constant public returns (uint256 balance);\n}\n\ncontract BFTToken is ERC20 {\n    \n    using SafeMath for uint256;\n    address owner = msg.sender;\n\n    mapping (address => uint256) balances;\n    mapping (address => mapping (address => uint256)) allowed;\n    mapping (address => bool) public blacklist;\n\n    string public constant name = \"Burma first token\";\n    string public constant symbol = \"BFT\";\n    uint public constant decimals = 8;\n    \n    uint256 public totalSupply = 1000000000e8;\n    uint256 public totalDistributed = 300000000e8;\n    uint256 public totalRemaining = totalSupply.sub(totalDistributed);\n    uint256 public value;\n\n    event Transfer(address indexed _from, address indexed _to, uint256 _value);\n    event Approval(address indexed _owner, address indexed _spender, uint256 _value);\n    \n    event Distr(address indexed to, uint256 amount);\n    event DistrFinished();\n    \n    event Burn(address indexed burner, uint256 value);\n\n    bool public distributionFinished = false;\n    \n    modifier canDistr() {\n        require(!distributionFinished);\n        _;\n    }\n    \n    modifier onlyOwner() {\n        require(msg.sender == owner);\n        _;\n    }\n    \n    modifier onlyWhitelist() {\n        require(blacklist[msg.sender] == false);\n        _;\n    }\n    \n    function QMQCoin () public {\n        owner = msg.sender;\n        value = 5000e8;\n        distr(owner, totalDistributed);\n    }\n    \n    function transferOwnership(address newOwner) onlyOwner public {\n        if (newOwner != address(0)) {\n            owner = newOwner;\n        }\n    }\n    \n    function enableWhitelist(address[] addresses) onlyOwner public {\n        for (uint i = 0; i < addresses.length; i++) {\n            blacklist[addresses[i]] = false;\n        }\n    }\n\n    function disableWhitelist(address[] addresses) onlyOwner public {\n        for (uint i = 0; i < addresses.length; i++) {\n            blacklist[addresses[i]] = true;\n        }\n    }\n\n    function finishDistribution() onlyOwner canDistr public returns (bool) {\n        distributionFinished = true;\n        DistrFinished();\n        return true;\n    }\n    \n    function distr(address _to, uint256 _amount) canDistr private returns (bool) {\n        totalDistributed = totalDistributed.add(_amount);\n        totalRemaining = totalRemaining.sub(_amount);\n        balances[_to] = balances[_to].add(_amount);\n        Distr(_to, _amount);\n        Transfer(address(0), _to, _amount);\n        return true;\n        \n        if (totalDistributed >= totalSupply) {\n            distributionFinished = true;\n        }\n    }\n    \n    function airdrop(address[] addresses) onlyOwner canDistr public {\n        \n        require(addresses.length <= 255);\n        require(value <= totalRemaining);\n        \n        for (uint i = 0; i < addresses.length; i++) {\n            require(value <= totalRemaining);\n            distr(addresses[i], value);\n        }\n\t\n        if (totalDistributed >= totalSupply) {\n            distributionFinished = true;\n        }\n    }\n    \n    function distribution(address[] addresses, uint256 amount) onlyOwner canDistr public {\n        \n        require(addresses.length <= 255);\n        require(amount <= totalRemaining);\n        \n        for (uint i = 0; i < addresses.length; i++) {\n            require(amount <= totalRemaining);\n            distr(addresses[i], amount);\n        }\n\t\n        if (totalDistributed >= totalSupply) {\n            distributionFinished = true;\n        }\n    }\n    \n    function distributeAmounts(address[] addresses, uint256[] amounts) onlyOwner canDistr public {\n\n        require(addresses.length <= 255);\n        require(addresses.length == amounts.length);\n        \n        for (uint8 i = 0; i < addresses.length; i++) {\n            require(amounts[i] <= totalRemaining);\n            distr(addresses[i], amounts[i]);\n            \n            if (totalDistributed >= totalSupply) {\n                distributionFinished = true;\n            }\n        }\n    }\n    \n    function () external payable {\n            getTokens();\n     }\n    \n    function getTokens() payable canDistr onlyWhitelist public {\n        \n        if (value > totalRemaining) {\n            value = totalRemaining;\n        }\n        \n        require(value <= totalRemaining);\n        \n        address investor = msg.sender;\n        uint256 toGive = value;\n        \n        distr(investor, toGive);\n        \n        if (toGive > 0) {\n            blacklist[investor] = true;\n        }\n\n        if (totalDistributed >= totalSupply) {\n            distributionFinished = true;\n        }\n        \n        value = value.div(100000).mul(99999);\n    }\n\n    function balanceOf(address _owner) constant public returns (uint256) {\n\t    return balances[_owner];\n    }\n\n    \n    modifier onlyPayloadSize(uint size) {\n        assert(msg.data.length >= size + 4);\n        _;\n    }\n    \n    function transfer(address _to, uint256 _amount) onlyPayloadSize(2 * 32) public returns (bool success) {\n\n        require(_to != address(0));\n        require(_amount <= balances[msg.sender]);\n        \n        balances[msg.sender] = balances[msg.sender].sub(_amount);\n        balances[_to] = balances[_to].add(_amount);\n        Transfer(msg.sender, _to, _amount);\n        return true;\n    }\n    \n    function transferFrom(address _from, address _to, uint256 _amount) onlyPayloadSize(3 * 32) public returns (bool success) {\n\n        require(_to != address(0));\n        require(_amount <= balances[_from]);\n        require(_amount <= allowed[_from][msg.sender]);\n        \n        balances[_from] = balances[_from].sub(_amount);\n        allowed[_from][msg.sender] = allowed[_from][msg.sender].sub(_amount);\n        balances[_to] = balances[_to].add(_amount);\n        Transfer(_from, _to, _amount);\n        return true;\n    }\n    \n    function approve(address _spender, uint256 _value) public returns (bool success) {\n        allowed[msg.sender][_spender] = _value;\n        Approval(msg.sender, _spender, _value);\n        return true;\n    }\n    \n    function allowance(address _owner, address _spender) constant public returns (uint256) {\n        return allowed[_owner][_spender];\n    }\n    \n    function getTokenBalance(address tokenAddress, address who) constant public returns (uint){\n        ForeignToken t = ForeignToken(tokenAddress);\n        uint bal = t.balanceOf(who);\n        return bal;\n    }\n    \n    function withdraw() onlyOwner public {\n        uint256 etherBalance = this.balance;\n        owner.transfer(etherBalance);\n    }\n    \n    function burn(uint256 _value) onlyOwner public {\n        require(_value <= balances[msg.sender]);\n\n        address burner = msg.sender;\n        balances[burner] = balances[burner].sub(_value);\n        totalSupply = totalSupply.sub(_value);\n        totalDistributed = totalDistributed.sub(_value);\n        Burn(burner, _value);\n    }\n    \n    function withdrawForeignTokens(address _tokenContract) onlyOwner public returns (bool) {\n        ForeignToken token = ForeignToken(_tokenContract);\n        uint256 amount = token.balanceOf(address(this));\n        return token.transfer(owner, amount);\n    }\n    \n    function approveAndCall(address _spender, uint256 _value, bytes _extraData) public returns (bool success) {\n        allowed[msg.sender][_spender] = _value;\n        Approval(msg.sender, _spender, _value);\n        \n        require(_spender.call(bytes4(bytes32(keccak256(\"receiveApproval(address,uint256,address,bytes)\"))), msg.sender, _value, this, _extraData));\n        return true;\n    }\n\n}",
  "sourcePath": "/home/XXX-1/smartrim-experiment/for-rlf/0xa21551510d28bc0bc40fa725aa980f64419d8eb1/contracts/0xa21551510d28bc0bc40fa725aa980f64419d8eb1.sol",
  "compiler": {
    "name": "solc",
    "version": "0.4.25+commit.59dbf8f1.Emscripten.clang"
  },
  "schemaVersion": "3.4.16",
  "updatedAt": "2025-08-14T04:02:18.925Z",
  "networkType": "ethereum",
  "devdoc": {
    "methods": {}
  },
  "userdoc": {
    "methods": {}
  }
}