{
  "contractName": "Missing",
  "abi": [
    {
      "payable": true,
      "stateMutability": "payable",
      "type": "fallback"
    },
    {
      "constant": false,
      "inputs": [],
      "name": "IamMissing",
      "outputs": [],
      "payable": false,
      "stateMutability": "nonpayable",
      "type": "function"
    },
    {
      "constant": false,
      "inputs": [],
      "name": "withdraw",
      "outputs": [],
      "payable": false,
      "stateMutability": "nonpayable",
      "type": "function"
    }
  ],
  "bytecode": "0x608060405234801561001057600080fd5b506101c6806100206000396000f30060806040526004361061004c576000357c0100000000000000000000000000000000000000000000000000000000900463ffffffff1680632e4071d41461004e5780633ccfd60b14610065575b005b34801561005a57600080fd5b5061006361007c565b005b34801561007157600080fd5b5061007a6100be565b005b336000806101000a81548173ffffffffffffffffffffffffffffffffffffffff021916908373ffffffffffffffffffffffffffffffffffffffff160217905550565b6000809054906101000a900473ffffffffffffffffffffffffffffffffffffffff1673ffffffffffffffffffffffffffffffffffffffff163373ffffffffffffffffffffffffffffffffffffffff1614151561011957600080fd5b6000809054906101000a900473ffffffffffffffffffffffffffffffffffffffff1673ffffffffffffffffffffffffffffffffffffffff166108fc3073ffffffffffffffffffffffffffffffffffffffff16319081150290604051600060405180830381858888f19350505050158015610197573d6000803e3d6000fd5b505600a165627a7a7230582023585d24d9c7118bad6a0cde184f010e47bd695c25487e32bb9821cc0d4f8d580029",
  "source": "\n\n\n\ncontract Missing{\n    address private owner;\n\n    modifier onlyowner {\n        require(msg.sender==owner);\n        _;\n    }\n\n    \n    \n    \n    function IamMissing()\n        public\n    {\n        owner = msg.sender;\n    }\n\n    function () payable {}\n\n    function withdraw()\n        public\n        onlyowner\n    {\n       owner.transfer(this.balance); \n    }\n}\n",
  "sourcePath": "/home/XXX-1/smartrim-experiment/for-rlf/incorrect_constructor_name1/contracts/incorrect_constructor_name1.sol",
  "compiler": {
    "name": "solc",
    "version": "0.4.25+commit.59dbf8f1.Emscripten.clang"
  },
  "schemaVersion": "3.4.16",
  "updatedAt": "2025-08-14T03:32:19.520Z",
  "networkType": "ethereum",
  "devdoc": {
    "methods": {}
  },
  "userdoc": {
    "methods": {}
  }
}