{
  "contractName": "DSTContract_1",
  "abi": [
    {
      "constant": true,
      "inputs": [],
      "name": "name",
      "outputs": [
        {
          "name": "",
          "type": "string"
        }
      ],
      "payable": false,
      "stateMutability": "view",
      "type": "function"
    },
    {
      "constant": false,
      "inputs": [
        {
          "name": "spender",
          "type": "address"
        },
        {
          "name": "value",
          "type": "uint256"
        }
      ],
      "name": "approve",
      "outputs": [
        {
          "name": "success",
          "type": "bool"
        }
      ],
      "payable": false,
      "stateMutability": "nonpayable",
      "type": "function"
    },
    {
      "constant": true,
      "inputs": [],
      "name": "totalSupply",
      "outputs": [
        {
          "name": "totalSupply",
          "type": "uint256"
        }
      ],
      "payable": false,
      "stateMutability": "view",
      "type": "function"
    },
    {
      "constant": false,
      "inputs": [
        {
          "name": "from",
          "type": "address"
        },
        {
          "name": "to",
          "type": "address"
        },
        {
          "name": "value",
          "type": "uint256"
        }
      ],
      "name": "transferFrom",
      "outputs": [
        {
          "name": "success",
          "type": "bool"
        }
      ],
      "payable": false,
      "stateMutability": "nonpayable",
      "type": "function"
    },
    {
      "constant": true,
      "inputs": [],
      "name": "decimals",
      "outputs": [
        {
          "name": "",
          "type": "uint8"
        }
      ],
      "payable": false,
      "stateMutability": "view",
      "type": "function"
    },
    {
      "constant": true,
      "inputs": [
        {
          "name": "owner",
          "type": "address"
        }
      ],
      "name": "balanceOf",
      "outputs": [
        {
          "name": "balance",
          "type": "uint256"
        }
      ],
      "payable": false,
      "stateMutability": "view",
      "type": "function"
    },
    {
      "constant": true,
      "inputs": [],
      "name": "symbol",
      "outputs": [
        {
          "name": "",
          "type": "string"
        }
      ],
      "payable": false,
      "stateMutability": "view",
      "type": "function"
    },
    {
      "constant": false,
      "inputs": [
        {
          "name": "to",
          "type": "address"
        },
        {
          "name": "value",
          "type": "uint256"
        }
      ],
      "name": "transfer",
      "outputs": [
        {
          "name": "success",
          "type": "bool"
        }
      ],
      "payable": false,
      "stateMutability": "nonpayable",
      "type": "function"
    },
    {
      "constant": true,
      "inputs": [
        {
          "name": "owner",
          "type": "address"
        },
        {
          "name": "spender",
          "type": "address"
        }
      ],
      "name": "allowance",
      "outputs": [
        {
          "name": "remaining",
          "type": "uint256"
        }
      ],
      "payable": false,
      "stateMutability": "view",
      "type": "function"
    },
    {
      "inputs": [
        {
          "name": "eventInfoAddr",
          "type": "address"
        },
        {
          "name": "hackerGoldAddr",
          "type": "address"
        },
        {
          "name": "dstName",
          "type": "string"
        },
        {
          "name": "dstSymbol",
          "type": "string"
        }
      ],
      "payable": false,
      "stateMutability": "nonpayable",
      "type": "constructor"
    },
    {
      "payable": true,
      "stateMutability": "payable",
      "type": "fallback"
    },
    {
      "anonymous": false,
      "inputs": [
        {
          "indexed": true,
          "name": "qtyForOneHKG",
          "type": "uint256"
        },
        {
          "indexed": true,
          "name": "tokensSold",
          "type": "uint256"
        },
        {
          "indexed": true,
          "name": "totalSupply",
          "type": "uint256"
        }
      ],
      "name": "PriceHKGChange",
      "type": "event"
    },
    {
      "anonymous": false,
      "inputs": [
        {
          "indexed": true,
          "name": "buyer",
          "type": "address"
        },
        {
          "indexed": true,
          "name": "tokensSold",
          "type": "uint256"
        },
        {
          "indexed": true,
          "name": "totalSupply",
          "type": "uint256"
        },
        {
          "indexed": false,
          "name": "qtyForOneHKG",
          "type": "uint256"
        },
        {
          "indexed": false,
          "name": "tokensAmount",
          "type": "uint256"
        }
      ],
      "name": "BuyForHKGTransaction",
      "type": "event"
    },
    {
      "anonymous": false,
      "inputs": [
        {
          "indexed": true,
          "name": "buyer",
          "type": "address"
        },
        {
          "indexed": true,
          "name": "tokensSold",
          "type": "uint256"
        },
        {
          "indexed": true,
          "name": "totalSupply",
          "type": "uint256"
        },
        {
          "indexed": false,
          "name": "qtyForOneEther",
          "type": "uint256"
        },
        {
          "indexed": false,
          "name": "tokensAmount",
          "type": "uint256"
        }
      ],
      "name": "BuyForEtherTransaction",
      "type": "event"
    },
    {
      "anonymous": false,
      "inputs": [
        {
          "indexed": true,
          "name": "qtyForOneHKG",
          "type": "uint256"
        },
        {
          "indexed": true,
          "name": "tokensSold",
          "type": "uint256"
        },
        {
          "indexed": true,
          "name": "totalSupply",
          "type": "uint256"
        },
        {
          "indexed": false,
          "name": "qtyToEmit",
          "type": "uint256"
        }
      ],
      "name": "DstTokensIssued",
      "type": "event"
    },
    {
      "anonymous": false,
      "inputs": [
        {
          "indexed": false,
          "name": "id",
          "type": "bytes32"
        },
        {
          "indexed": false,
          "name": "value",
          "type": "uint256"
        },
        {
          "indexed": false,
          "name": "timeEnds",
          "type": "uint256"
        },
        {
          "indexed": false,
          "name": "url",
          "type": "string"
        },
        {
          "indexed": false,
          "name": "sender",
          "type": "address"
        }
      ],
      "name": "ProposalRequestSubmitted",
      "type": "event"
    },
    {
      "anonymous": false,
      "inputs": [
        {
          "indexed": false,
          "name": "sender",
          "type": "address"
        },
        {
          "indexed": false,
          "name": "value",
          "type": "uint256"
        }
      ],
      "name": "EtherRedeemAccepted",
      "type": "event"
    },
    {
      "anonymous": false,
      "inputs": [
        {
          "indexed": false,
          "name": "id",
          "type": "bytes32"
        },
        {
          "indexed": false,
          "name": "voter",
          "type": "address"
        },
        {
          "indexed": false,
          "name": "votes",
          "type": "uint256"
        }
      ],
      "name": "ObjectedVote",
      "type": "event"
    },
    {
      "anonymous": false,
      "inputs": [
        {
          "indexed": false,
          "name": "submitter",
          "type": "address"
        },
        {
          "indexed": false,
          "name": "urlDetails",
          "type": "string"
        },
        {
          "indexed": false,
          "name": "votindEndTS",
          "type": "uint256"
        },
        {
          "indexed": false,
          "name": "newExecutive",
          "type": "address"
        }
      ],
      "name": "ImpeachmentProposed",
      "type": "event"
    },
    {
      "anonymous": false,
      "inputs": [
        {
          "indexed": false,
          "name": "supportter",
          "type": "address"
        },
        {
          "indexed": false,
          "name": "votes",
          "type": "uint256"
        }
      ],
      "name": "ImpeachmentSupport",
      "type": "event"
    },
    {
      "anonymous": false,
      "inputs": [
        {
          "indexed": false,
          "name": "newExecutive",
          "type": "address"
        }
      ],
      "name": "ImpeachmentAccepted",
      "type": "event"
    },
    {
      "anonymous": false,
      "inputs": [
        {
          "indexed": false,
          "name": "newQtyForOneEther",
          "type": "uint256"
        }
      ],
      "name": "NewEtherPrice",
      "type": "event"
    },
    {
      "anonymous": false,
      "inputs": [],
      "name": "DisableTokenIssuance",
      "type": "event"
    },
    {
      "anonymous": false,
      "inputs": [],
      "name": "BurnedAllRemainedTokens",
      "type": "event"
    },
    {
      "anonymous": false,
      "inputs": [
        {
          "indexed": true,
          "name": "from",
          "type": "address"
        },
        {
          "indexed": true,
          "name": "to",
          "type": "address"
        },
        {
          "indexed": false,
          "name": "value",
          "type": "uint256"
        }
      ],
      "name": "Transfer",
      "type": "event"
    },
    {
      "anonymous": false,
      "inputs": [
        {
          "indexed": true,
          "name": "owner",
          "type": "address"
        },
        {
          "indexed": true,
          "name": "spender",
          "type": "address"
        },
        {
          "indexed": false,
          "name": "value",
          "type": "uint256"
        }
      ],
      "name": "Approval",
      "type": "event"
    },
    {
      "constant": false,
      "inputs": [
        {
          "name": "qtyForOneHKG",
          "type": "uint256"
        }
      ],
      "name": "setHKGPrice",
      "outputs": [],
      "payable": false,
      "stateMutability": "nonpayable",
      "type": "function"
    },
    {
      "constant": false,
      "inputs": [
        {
          "name": "qtyForOneHKG",
          "type": "uint256"
        },
        {
          "name": "qtyToEmit",
          "type": "uint256"
        }
      ],
      "name": "issuePreferedTokens",
      "outputs": [],
      "payable": false,
      "stateMutability": "nonpayable",
      "type": "function"
    },
    {
      "constant": false,
      "inputs": [
        {
          "name": "hkgValue",
          "type": "uint256"
        }
      ],
      "name": "buyForHackerGold",
      "outputs": [
        {
          "name": "success",
          "type": "bool"
        }
      ],
      "payable": false,
      "stateMutability": "nonpayable",
      "type": "function"
    },
    {
      "constant": false,
      "inputs": [
        {
          "name": "qtyForOneEther",
          "type": "uint256"
        },
        {
          "name": "qtyToEmit",
          "type": "uint256"
        }
      ],
      "name": "issueTokens",
      "outputs": [],
      "payable": false,
      "stateMutability": "nonpayable",
      "type": "function"
    },
    {
      "constant": false,
      "inputs": [
        {
          "name": "qtyForOneEther",
          "type": "uint256"
        }
      ],
      "name": "setEtherPrice",
      "outputs": [],
      "payable": false,
      "stateMutability": "nonpayable",
      "type": "function"
    },
    {
      "constant": false,
      "inputs": [],
      "name": "disableTokenIssuance",
      "outputs": [],
      "payable": false,
      "stateMutability": "nonpayable",
      "type": "function"
    },
    {
      "constant": false,
      "inputs": [],
      "name": "burnRemainToken",
      "outputs": [],
      "payable": false,
      "stateMutability": "nonpayable",
      "type": "function"
    },
    {
      "constant": false,
      "inputs": [
        {
          "name": "requestValue",
          "type": "uint256"
        },
        {
          "name": "url",
          "type": "string"
        }
      ],
      "name": "submitEtherProposal",
      "outputs": [
        {
          "name": "resultId",
          "type": "bytes32"
        },
        {
          "name": "resultSucces",
          "type": "bool"
        }
      ],
      "payable": false,
      "stateMutability": "nonpayable",
      "type": "function"
    },
    {
      "constant": false,
      "inputs": [
        {
          "name": "requestValue",
          "type": "uint256"
        },
        {
          "name": "url",
          "type": "string"
        }
      ],
      "name": "submitHKGProposal",
      "outputs": [
        {
          "name": "resultId",
          "type": "bytes32"
        },
        {
          "name": "resultSucces",
          "type": "bool"
        }
      ],
      "payable": false,
      "stateMutability": "nonpayable",
      "type": "function"
    },
    {
      "constant": false,
      "inputs": [
        {
          "name": "id",
          "type": "bytes32"
        }
      ],
      "name": "objectProposal",
      "outputs": [],
      "payable": false,
      "stateMutability": "nonpayable",
      "type": "function"
    },
    {
      "constant": false,
      "inputs": [
        {
          "name": "id",
          "type": "bytes32"
        }
      ],
      "name": "getIndexByProposalId",
      "outputs": [
        {
          "name": "result",
          "type": "uint256"
        }
      ],
      "payable": false,
      "stateMutability": "nonpayable",
      "type": "function"
    },
    {
      "constant": false,
      "inputs": [
        {
          "name": "id",
          "type": "bytes32"
        }
      ],
      "name": "redeemProposalFunds",
      "outputs": [],
      "payable": false,
      "stateMutability": "nonpayable",
      "type": "function"
    },
    {
      "constant": false,
      "inputs": [],
      "name": "getAllTheFunds",
      "outputs": [],
      "payable": false,
      "stateMutability": "nonpayable",
      "type": "function"
    },
    {
      "constant": false,
      "inputs": [
        {
          "name": "urlDetails",
          "type": "string"
        },
        {
          "name": "newExecutive",
          "type": "address"
        }
      ],
      "name": "submitImpeachmentProposal",
      "outputs": [],
      "payable": false,
      "stateMutability": "nonpayable",
      "type": "function"
    },
    {
      "constant": false,
      "inputs": [],
      "name": "supportImpeachment",
      "outputs": [],
      "payable": false,
      "stateMutability": "nonpayable",
      "type": "function"
    },
    {
      "constant": true,
      "inputs": [
        {
          "name": "_owner",
          "type": "address"
        }
      ],
      "name": "votingRightsOf",
      "outputs": [
        {
          "name": "result",
          "type": "uint256"
        }
      ],
      "payable": false,
      "stateMutability": "view",
      "type": "function"
    },
    {
      "constant": true,
      "inputs": [],
      "name": "getPreferedQtySold",
      "outputs": [
        {
          "name": "result",
          "type": "uint256"
        }
      ],
      "payable": false,
      "stateMutability": "view",
      "type": "function"
    },
    {
      "constant": false,
      "inputs": [
        {
          "name": "virtualExchangeAddr",
          "type": "address"
        }
      ],
      "name": "setVirtualExchange",
      "outputs": [],
      "payable": false,
      "stateMutability": "nonpayable",
      "type": "function"
    },
    {
      "constant": true,
      "inputs": [],
      "name": "getHKGOwned",
      "outputs": [
        {
          "name": "result",
          "type": "uint256"
        }
      ],
      "payable": false,
      "stateMutability": "view",
      "type": "function"
    },
    {
      "constant": true,
      "inputs": [],
      "name": "getEtherValue",
      "outputs": [
        {
          "name": "result",
          "type": "uint256"
        }
      ],
      "payable": false,
      "stateMutability": "view",
      "type": "function"
    },
    {
      "constant": true,
      "inputs": [],
      "name": "getExecutive",
      "outputs": [
        {
          "name": "result",
          "type": "address"
        }
      ],
      "payable": false,
      "stateMutability": "view",
      "type": "function"
    },
    {
      "constant": true,
      "inputs": [],
      "name": "getHKGPrice",
      "outputs": [
        {
          "name": "result",
          "type": "uint256"
        }
      ],
      "payable": false,
      "stateMutability": "view",
      "type": "function"
    },
    {
      "constant": true,
      "inputs": [],
      "name": "getEtherPrice",
      "outputs": [
        {
          "name": "result",
          "type": "uint256"
        }
      ],
      "payable": false,
      "stateMutability": "view",
      "type": "function"
    },
    {
      "constant": true,
      "inputs": [],
      "name": "getDSTName",
      "outputs": [
        {
          "name": "result",
          "type": "string"
        }
      ],
      "payable": false,
      "stateMutability": "view",
      "type": "function"
    },
    {
      "constant": true,
      "inputs": [],
      "name": "getDSTNameBytes",
      "outputs": [
        {
          "name": "result",
          "type": "bytes32"
        }
      ],
      "payable": false,
      "stateMutability": "view",
      "type": "function"
    },
    {
      "constant": true,
      "inputs": [],
      "name": "getDSTSymbol",
      "outputs": [
        {
          "name": "result",
          "type": "string"
        }
      ],
      "payable": false,
      "stateMutability": "view",
      "type": "function"
    },
    {
      "constant": true,
      "inputs": [],
      "name": "getDSTSymbolBytes",
      "outputs": [
        {
          "name": "result",
          "type": "bytes32"
        }
      ],
      "payable": false,
      "stateMutability": "view",
      "type": "function"
    },
    {
      "constant": true,
      "inputs": [],
      "name": "getAddress",
      "outputs": [
        {
          "name": "result",
          "type": "address"
        }
      ],
      "payable": false,
      "stateMutability": "view",
      "type": "function"
    },
    {
      "constant": true,
      "inputs": [],
      "name": "getTotalSupply",
      "outputs": [
        {
          "name": "result",
          "type": "uint256"
        }
      ],
      "payable": false,
      "stateMutability": "view",
      "type": "function"
    },
    {
      "constant": true,
      "inputs": [],
      "name": "getCollectedEther",
      "outputs": [
        {
          "name": "results",
          "type": "uint256"
        }
      ],
      "payable": false,
      "stateMutability": "view",
      "type": "function"
    },
    {
      "constant": true,
      "inputs": [],
      "name": "getCounterProposals",
      "outputs": [
        {
          "name": "result",
          "type": "uint256"
        }
      ],
      "payable": false,
      "stateMutability": "view",
      "type": "function"
    },
    {
      "constant": true,
      "inputs": [
        {
          "name": "i",
          "type": "uint256"
        }
      ],
      "name": "getProposalIdByIndex",
      "outputs": [
        {
          "name": "result",
          "type": "bytes32"
        }
      ],
      "payable": false,
      "stateMutability": "view",
      "type": "function"
    },
    {
      "constant": true,
      "inputs": [
        {
          "name": "i",
          "type": "uint256"
        }
      ],
      "name": "getProposalObjectionByIndex",
      "outputs": [
        {
          "name": "result",
          "type": "uint256"
        }
      ],
      "payable": false,
      "stateMutability": "view",
      "type": "function"
    },
    {
      "constant": true,
      "inputs": [
        {
          "name": "i",
          "type": "uint256"
        }
      ],
      "name": "getProposalValueByIndex",
      "outputs": [
        {
          "name": "result",
          "type": "uint256"
        }
      ],
      "payable": false,
      "stateMutability": "view",
      "type": "function"
    },
    {
      "constant": true,
      "inputs": [],
      "name": "getCurrentImpeachmentUrlDetails",
      "outputs": [
        {
          "name": "result",
          "type": "string"
        }
      ],
      "payable": false,
      "stateMutability": "view",
      "type": "function"
    },
    {
      "constant": true,
      "inputs": [],
      "name": "getCurrentImpeachmentVotesSupporting",
      "outputs": [
        {
          "name": "result",
          "type": "uint256"
        }
      ],
      "payable": false,
      "stateMutability": "view",
      "type": "function"
    },
    {
      "constant": false,
      "inputs": [
        {
          "name": "key",
          "type": "string"
        }
      ],
      "name": "convert",
      "outputs": [
        {
          "name": "ret",
          "type": "bytes32"
        }
      ],
      "payable": false,
      "stateMutability": "nonpayable",
      "type": "function"
    },
    {
      "constant": false,
      "inputs": [
        {
          "name": "voter",
          "type": "address"
        },
        {
          "name": "ammount",
          "type": "uint256"
        }
      ],
      "name": "setVoteRight",
      "outputs": [],
      "payable": false,
      "stateMutability": "nonpayable",
      "type": "function"
    },
    {
      "constant": false,
      "inputs": [
        {
          "name": "owner",
          "type": "address"
        },
        {
          "name": "ammount",
          "type": "uint256"
        }
      ],
      "name": "setBalance",
      "outputs": [],
      "payable": false,
      "stateMutability": "nonpayable",
      "type": "function"
    },
    {
      "constant": false,
      "inputs": [
        {
          "name": "fixExecutive",
          "type": "address"
        },
        {
          "name": "fixTotalSupply",
          "type": "uint256"
        },
        {
          "name": "fixPreferedQtySold",
          "type": "uint256"
        },
        {
          "name": "fixCollectedHKG",
          "type": "uint256"
        },
        {
          "name": "fixCollectedEther",
          "type": "uint256"
        }
      ],
      "name": "setInternalInfo",
      "outputs": [],
      "payable": false,
      "stateMutability": "nonpayable",
      "type": "function"
    }
  ],
  "bytecode": "0x60806040526103e8600355620d2f0060045560146005556040805190810160405280600381526020017f2e2e2e0000000000000000000000000000000000000000000000000000000000815250600d90805190602001906200006392919062000238565b506003600e60006101000a81548160ff021916908360ff1602179055506040805190810160405280600381526020017f2e2e2e0000000000000000000000000000000000000000000000000000000000815250600f9080519060200190620000cd92919062000238565b506001601060006101000a81548160ff021916908315150217905550348015620000f657600080fd5b50604051620053e0380380620053e08339810180604052810190808051906020019092919080519060200190929190805182019291906020018051820192919050505033600660006101000a81548173ffffffffffffffffffffffffffffffffffffffff021916908373ffffffffffffffffffffffffffffffffffffffff16021790555081600d90805190602001906200019292919062000238565b5080600f9080519060200190620001ab92919062000238565b5082600960006101000a81548173ffffffffffffffffffffffffffffffffffffffff021916908373ffffffffffffffffffffffffffffffffffffffff16021790555083600760006101000a81548173ffffffffffffffffffffffffffffffffffffffff021916908373ffffffffffffffffffffffffffffffffffffffff16021790555050505050620002e7565b828054600181600116156101000203166002900490600052602060002090601f016020900481019282601f106200027b57805160ff1916838001178555620002ac565b82800160010185558215620002ac579182015b82811115620002ab5782518255916020019190600101906200028e565b5b509050620002bb9190620002bf565b5090565b620002e491905b80821115620002e0576000816000905550600101620002c6565b5090565b90565b6150e980620002f76000396000f300608060405260043610610251576000357c0100000000000000000000000000000000000000000000000000000000900463ffffffff16806306fdde0314610546578063095ea7b3146105d65780630b0b6d5b1461063b57806318160ddd146106525780631b1ccc471461067d57806320e870931461070d57806323b872dd1461074057806325b29d84146107c557806327187991146107f0578063277ccde21461081d5780632e1fbfcd14610848578063308b2fdc14610889578063313ce567146108ca57806338cc4831146108fb57806340eddc4e1461095257806341f4793a1461097d578063467ed261146109a8578063471ad963146109db5780634e860ebb14610a0c5780634efbe93314610a2357806354786b4e14610a6857806354e35ba214610af857806358793ad414610b2f5780635abedab214610bc95780635af2f82114610be057806360483a3f14610c0b57806360d12fa014610ca557806364aba26314610cfc578063698f2e8414610d675780636a74998614610daa5780636d5f663914610de15780636e9c368314610e1257806370a0823114610e575780637a290fe514610eae5780637e75414614610ec557806394c41bdb14610f5557806395d89b4114610f80578063962a64cd14611010578063a0b6533214611095578063a5e8c5d6146110de578063a9059cbb1461112b578063ab62438f14611190578063b63ca98114611219578063b7c54c6f14611246578063c4e41b2214611271578063ca7c4dba1461129c578063cb79e31b146112c7578063dd62ed3e1461131e578063e30443bc14611395575b600080600760009054906101000a900473ffffffffffffffffffffffffffffffffffffffff1673ffffffffffffffffffffffffffffffffffffffff1663d4884b566040518163ffffffff167c0100000000000000000000000000000000000000000000000000000000028152600401602060405180830381600087803b1580156102da57600080fd5b505af11580156102ee573d6000803e3d6000fd5b505050506040513d602081101561030457600080fd5b810190808051906020019092919050505042101561032157600080fd5b6000600c54141561033157600080fd5b670de0b6b3a7640000600354600c5434020281151561034c57fe5b0491506000905081600160003073ffffffffffffffffffffffffffffffffffffffff1673ffffffffffffffffffffffffffffffffffffffff16815260200190815260200160002054101561043857600160003073ffffffffffffffffffffffffffffffffffffffff1673ffffffffffffffffffffffffffffffffffffffff16815260200190815260200160002054915066038d7ea4c68000600c54838115156103f157fe5b0402340390503373ffffffffffffffffffffffffffffffffffffffff166108fc829081150290604051600060405180830381858888f19350505050151561043757600080fd5b5b81600160003373ffffffffffffffffffffffffffffffffffffffff1673ffffffffffffffffffffffffffffffffffffffff1681526020019081526020016000206000828254019250508190555081600160003073ffffffffffffffffffffffffffffffffffffffff1673ffffffffffffffffffffffffffffffffffffffff168152602001908152602001600020600082825403925050819055508034036013600082825401925050819055506000546013543373ffffffffffffffffffffffffffffffffffffffff167f5a0391f2a67f11ed0034b68f8cf14e7e41d6f86e0a7622f2af5ea8f07b488396600c5486604051808381526020018281526020019250505060405180910390a45050005b34801561055257600080fd5b5061055b6113e2565b6040518080602001828103825283818151815260200191508051906020019080838360005b8381101561059b578082015181840152602081019050610580565b50505050905090810190601f1680156105c85780820380516001836020036101000a031916815260200191505b509250505060405180910390f35b3480156105e257600080fd5b50610621600480360381019080803573ffffffffffffffffffffffffffffffffffffffff16906020019092919080359060200190929190505050611480565b604051808215151515815260200191505060405180910390f35b34801561064757600080fd5b50610650611572565b005b34801561065e57600080fd5b506106676118e3565b6040518082815260200191505060405180910390f35b34801561068957600080fd5b506106926118ec565b6040518080602001828103825283818151815260200191508051906020019080838360005b838110156106d25780820151818401526020810190506106b7565b50505050905090810190601f1680156106ff5780820380516001836020036101000a031916815260200191505b509250505060405180910390f35b34801561071957600080fd5b5061072261198e565b60405180826000191660001916815260200191505060405180910390f35b34801561074c57600080fd5b506107ab600480360381019080803573ffffffffffffffffffffffffffffffffffffffff169060200190929190803573ffffffffffffffffffffffffffffffffffffffff16906020019092919080359060200190929190505050611a38565b604051808215151515815260200191505060405180910390f35b3480156107d157600080fd5b506107da611cb4565b6040518082815260200191505060405180910390f35b3480156107fc57600080fd5b5061081b60048036038101908080359060200190929190505050611cd3565b005b34801561082957600080fd5b50610832611e3d565b6040518082815260200191505060405180910390f35b34801561085457600080fd5b5061087360048036038101908080359060200190929190505050611e47565b6040518082815260200191505060405180910390f35b34801561089557600080fd5b506108b460048036038101908080359060200190929190505050611e71565b6040518082815260200191505060405180910390f35b3480156108d657600080fd5b506108df611e9b565b604051808260ff1660ff16815260200191505060405180910390f35b34801561090757600080fd5b50610910611eae565b604051808273ffffffffffffffffffffffffffffffffffffffff1673ffffffffffffffffffffffffffffffffffffffff16815260200191505060405180910390f35b34801561095e57600080fd5b50610967611eb6565b6040518082815260200191505060405180910390f35b34801561098957600080fd5b50610992611ec0565b6040518082815260200191505060405180910390f35b3480156109b457600080fd5b506109bd611ecd565b60405180826000191660001916815260200191505060405180910390f35b3480156109e757600080fd5b50610a0a6004803603810190808035600019169060200190929190505050611f77565b005b348015610a1857600080fd5b50610a21612464565b005b348015610a2f57600080fd5b50610a4e60048036038101908080359060200190929190505050612509565b604051808215151515815260200191505060405180910390f35b348015610a7457600080fd5b50610a7d612751565b6040518080602001828103825283818151815260200191508051906020019080838360005b83811015610abd578082015181840152602081019050610aa2565b50505050905090810190601f168015610aea5780820380516001836020036101000a031916815260200191505b509250505060405180910390f35b348015610b0457600080fd5b50610b2d60048036038101908080359060200190929190803590602001909291905050506127f3565b005b348015610b3b57600080fd5b50610ba060048036038101908080359060200190929190803590602001908201803590602001908080601f01602080910402602001604051908101604052809392919081815260200183838082843782019150505050505091929192905050506129dc565b604051808360001916600019168152602001821515151581526020019250505060405180910390f35b348015610bd557600080fd5b50610bde612ffb565b005b348015610bec57600080fd5b50610bf5613284565b6040518082815260200191505060405180910390f35b348015610c1757600080fd5b50610c7c60048036038101908080359060200190929190803590602001908201803590602001908080601f016020809104026020016040519081016040528093929190818152602001838380828437820191505050505050919291929050505061328e565b604051808360001916600019168152602001821515151581526020019250505060405180910390f35b348015610cb157600080fd5b50610cba61380b565b604051808273ffffffffffffffffffffffffffffffffffffffff1673ffffffffffffffffffffffffffffffffffffffff16815260200191505060405180910390f35b348015610d0857600080fd5b50610d65600480360381019080803573ffffffffffffffffffffffffffffffffffffffff16906020019092919080359060200190929190803590602001909291908035906020019092919080359060200190929190505050613835565b005b348015610d7357600080fd5b50610da8600480360381019080803573ffffffffffffffffffffffffffffffffffffffff1690602001909291905050506138e2565b005b348015610db657600080fd5b50610ddf600480360381019080803590602001909291908035906020019092919050505061396d565b005b348015610ded57600080fd5b50610e106004803603810190808035600019169060200190929190505050613d9f565b005b348015610e1e57600080fd5b50610e416004803603810190808035600019169060200190929190505050614315565b6040518082815260200191505060405180910390f35b348015610e6357600080fd5b50610e98600480360381019080803573ffffffffffffffffffffffffffffffffffffffff169060200190929190505050614374565b6040518082815260200191505060405180910390f35b348015610eba57600080fd5b50610ec36143bd565b005b348015610ed157600080fd5b50610eda6144da565b6040518080602001828103825283818151815260200191508051906020019080838360005b83811015610f1a578082015181840152602081019050610eff565b50505050905090810190601f168015610f475780820380516001836020036101000a031916815260200191505b509250505060405180910390f35b348015610f6157600080fd5b50610f6a61457f565b6040518082815260200191505060405180910390f35b348015610f8c57600080fd5b50610f95614589565b6040518080602001828103825283818151815260200191508051906020019080838360005b83811015610fd5578082015181840152602081019050610fba565b50505050905090810190601f1680156110025780820380516001836020036101000a031916815260200191505b509250505060405180910390f35b34801561101c57600080fd5b50611077600480360381019080803590602001908201803590602001908080601f0160208091040260200160405190810160405280939291908181526020018383808284378201915050505050509192919290505050614627565b60405180826000191660001916815260200191505060405180910390f35b3480156110a157600080fd5b506110c060048036038101908080359060200190929190505050614644565b60405180826000191660001916815260200191505060405180910390f35b3480156110ea57600080fd5b50611129600480360381019080803573ffffffffffffffffffffffffffffffffffffffff1690602001909291908035906020019092919050505061466e565b005b34801561113757600080fd5b50611176600480360381019080803573ffffffffffffffffffffffffffffffffffffffff169060200190929190803590602001909291905050506146ff565b604051808215151515815260200191505060405180910390f35b34801561119c57600080fd5b50611217600480360381019080803590602001908201803590602001908080601f0160208091040260200160405190810160405280939291908181526020018383808284378201915050505050509192919290803573ffffffffffffffffffffffffffffffffffffffff169060200190929190505050614868565b005b34801561122557600080fd5b5061124460048036038101908080359060200190929190505050614c19565b005b34801561125257600080fd5b5061125b614cb2565b6040518082815260200191505060405180910390f35b34801561127d57600080fd5b50611286614db1565b6040518082815260200191505060405180910390f35b3480156112a857600080fd5b506112b1614dba565b6040518082815260200191505060405180910390f35b3480156112d357600080fd5b50611308600480360381019080803573ffffffffffffffffffffffffffffffffffffffff169060200190929190505050614dc4565b6040518082815260200191505060405180910390f35b34801561132a57600080fd5b5061137f600480360381019080803573ffffffffffffffffffffffffffffffffffffffff169060200190929190803573ffffffffffffffffffffffffffffffffffffffff169060200190929190505050614e0d565b6040518082815260200191505060405180910390f35b3480156113a157600080fd5b506113e0600480360381019080803573ffffffffffffffffffffffffffffffffffffffff16906020019092919080359060200190929190505050614e94565b005b600d8054600181600116156101000203166002900480601f0160208091040260200160405190810160405280929190818152602001828054600181600116156101000203166002900480156114785780601f1061144d57610100808354040283529160200191611478565b820191906000526020600020905b81548152906001019060200180831161145b57829003601f168201915b505050505081565b600081600260003373ffffffffffffffffffffffffffffffffffffffff1673ffffffffffffffffffffffffffffffffffffffff16815260200190815260200160002060008573ffffffffffffffffffffffffffffffffffffffff1673ffffffffffffffffffffffffffffffffffffffff168152602001908152602001600020819055508273ffffffffffffffffffffffffffffffffffffffff163373ffffffffffffffffffffffffffffffffffffffff167f8c5be1e5ebec7d5bd14f71427d1e84f3dd0314c0f7b2291e5b200ac8c7c3b925846040518082815260200191505060405180910390a36001905092915050565b600080601960010160009054906101000a900473ffffffffffffffffffffffffffffffffffffffff1673ffffffffffffffffffffffffffffffffffffffff1614156115bc57600080fd5b6000600a60003373ffffffffffffffffffffffffffffffffffffffff1673ffffffffffffffffffffffffffffffffffffffff16815260200190815260200160002054141561160957600080fd5b601960040160003373ffffffffffffffffffffffffffffffffffffffff1673ffffffffffffffffffffffffffffffffffffffff16815260200190815260200160002060009054906101000a900460ff161561166357600080fd5b42621275006019600201540111151561167b57600080fd5b6001601960040160003373ffffffffffffffffffffffffffffffffffffffff1673ffffffffffffffffffffffffffffffffffffffff16815260200190815260200160002060006101000a81548160ff021916908315150217905550600a60003373ffffffffffffffffffffffffffffffffffffffff1673ffffffffffffffffffffffffffffffffffffffff168152602001908152602001600020546019600301600082825401925050819055507f475c7605c08471fdc551a58d2c318b163628c5852f69323a1b91c34eb0bb093333600a60003373ffffffffffffffffffffffffffffffffffffffff1673ffffffffffffffffffffffffffffffffffffffff16815260200190815260200160002054604051808373ffffffffffffffffffffffffffffffffffffffff1673ffffffffffffffffffffffffffffffffffffffff1681526020018281526020019250505060405180910390a160646011548115156117e057fe5b049050806046026019600301541015156118e057601960010160009054906101000a900473ffffffffffffffffffffffffffffffffffffffff16600660006101000a81548173ffffffffffffffffffffffffffffffffffffffff021916908373ffffffffffffffffffffffffffffffffffffffff1602179055507f6b8184e23a898262087be50aa3ea5de648451e63f94413e810586c25282d58c2600660009054906101000a900473ffffffffffffffffffffffffffffffffffffffff16604051808273ffffffffffffffffffffffffffffffffffffffff1673ffffffffffffffffffffffffffffffffffffffff16815260200191505060405180910390a15b50565b60008054905090565b6060600d8054600181600116156101000203166002900480601f0160208091040260200160405190810160405280929190818152602001828054600181600116156101000203166002900480156119845780601f1061195957610100808354040283529160200191611984565b820191906000526020600020905b81548152906001019060200180831161196757829003601f168201915b5050505050905090565b6000611a33600f8054600181600116156101000203166002900480601f016020809104026020016040519081016040528092919081815260200182805460018160011615610100020316600290048015611a295780601f106119fe57610100808354040283529160200191611a29565b820191906000526020600020905b815481529060010190602001808311611a0c57829003601f168201915b5050505050614627565b905090565b600081600160008673ffffffffffffffffffffffffffffffffffffffff1673ffffffffffffffffffffffffffffffffffffffff1681526020019081526020016000205410158015611b05575081600260008673ffffffffffffffffffffffffffffffffffffffff1673ffffffffffffffffffffffffffffffffffffffff16815260200190815260200160002060003373ffffffffffffffffffffffffffffffffffffffff1673ffffffffffffffffffffffffffffffffffffffff1681526020019081526020016000205410155b8015611b115750600082115b15611ca85781600160008673ffffffffffffffffffffffffffffffffffffffff1673ffffffffffffffffffffffffffffffffffffffff1681526020019081526020016000206000828254039250508190555081600160008573ffffffffffffffffffffffffffffffffffffffff1673ffffffffffffffffffffffffffffffffffffffff1681526020019081526020016000206000828254019250508190555081600260008673ffffffffffffffffffffffffffffffffffffffff1673ffffffffffffffffffffffffffffffffffffffff16815260200190815260200160002060003373ffffffffffffffffffffffffffffffffffffffff1673ffffffffffffffffffffffffffffffffffffffff168152602001908152602001600020600082825403925050819055508273ffffffffffffffffffffffffffffffffffffffff168473ffffffffffffffffffffffffffffffffffffffff167fddf252ad1be2c89b69c2b068fc378daa952ba7f163c4a11628f55a4df523b3ef846040518082815260200191505060405180910390a360019050611cad565b600090505b9392505050565b60003073ffffffffffffffffffffffffffffffffffffffff1631905090565b600760009054906101000a900473ffffffffffffffffffffffffffffffffffffffff1673ffffffffffffffffffffffffffffffffffffffff1663d4884b566040518163ffffffff167c0100000000000000000000000000000000000000000000000000000000028152600401602060405180830381600087803b158015611d5957600080fd5b505af1158015611d6d573d6000803e3d6000fd5b505050506040513d6020811015611d8357600080fd5b8101908080519060200190929190505050421015611da057600080fd5b600660009054906101000a900473ffffffffffffffffffffffffffffffffffffffff1673ffffffffffffffffffffffffffffffffffffffff163373ffffffffffffffffffffffffffffffffffffffff16141515611dfc57600080fd5b80600c819055507f0bbd501ef336990995d82b5e3fd82a15abe1ff10c982757a1698ac5d1c3e7957816040518082815260200191505060405180910390a150565b6000600b54905090565b6000601882815481101515611e5857fe5b9060005260206000209060070201600401549050919050565b6000601882815481101515611e8257fe5b9060005260206000209060070201600101549050919050565b600e60009054906101000a900460ff1681565b600030905090565b6000601354905090565b6000601960030154905090565b6000611f72600d8054600181600116156101000203166002900480601f016020809104026020016040519081016040528092919081815260200182805460018160011615610100020316600290048015611f685780601f10611f3d57610100808354040283529160200191611f68565b820191906000526020600020905b815481529060010190602001808311611f4b57829003601f168201915b5050505050614627565b905090565b600080600660009054906101000a900473ffffffffffffffffffffffffffffffffffffffff1673ffffffffffffffffffffffffffffffffffffffff163373ffffffffffffffffffffffffffffffffffffffff16141515611fd657600080fd5b60006001026014600085600019166000191681526020019081526020016000206000015460001916141561200957600080fd5b3373ffffffffffffffffffffffffffffffffffffffff1660146000856000191660001916815260200190815260200160002060050160009054906101000a900473ffffffffffffffffffffffffffffffffffffffff1673ffffffffffffffffffffffffffffffffffffffff1614151561208157600080fd5b601460008460001916600019168152602001908152602001600020600301544210156120ac57600080fd5b60146000846000191660001916815260200190815260200160002060050160149054906101000a900460ff16156120e257600080fd5b603760646011548115156120f257fe5b040291508160146000856000191660001916815260200190815260200160002060040154111561212157600080fd5b6000600181111561212e57fe5b60146000856000191660001916815260200190815260200160002060050160159054906101000a900460ff16600181111561216557fe5b14156122cd57600960009054906101000a900473ffffffffffffffffffffffffffffffffffffffff1673ffffffffffffffffffffffffffffffffffffffff1663a9059cbb60146000866000191660001916815260200190815260200160002060050160009054906101000a900473ffffffffffffffffffffffffffffffffffffffff16601460008760001916600019168152602001908152602001600020600101546040518363ffffffff167c0100000000000000000000000000000000000000000000000000000000028152600401808373ffffffffffffffffffffffffffffffffffffffff1673ffffffffffffffffffffffffffffffffffffffff16815260200182815260200192505050602060405180830381600087803b15801561228c57600080fd5b505af11580156122a0573d6000803e3d6000fd5b505050506040513d60208110156122b657600080fd5b810190808051906020019092919050505050612428565b60146000846000191660001916815260200190815260200160002060050160009054906101000a900473ffffffffffffffffffffffffffffffffffffffff1673ffffffffffffffffffffffffffffffffffffffff166108fc601460008660001916600019168152602001908152602001600020600101549081150290604051600060405180830381858888f1935050505090507f2648a7e2f9c34700b91370233666e5118fa8be3e0c21fed4f7402b941df8efdd60146000856000191660001916815260200190815260200160002060050160009054906101000a900473ffffffffffffffffffffffffffffffffffffffff1660146000866000191660001916815260200190815260200160002060010154604051808373ffffffffffffffffffffffffffffffffffffffff1673ffffffffffffffffffffffffffffffffffffffff1681526020018281526020019250505060405180910390a15b600160146000856000191660001916815260200190815260200160002060050160146101000a81548160ff021916908315150217905550505050565b600660009054906101000a900473ffffffffffffffffffffffffffffffffffffffff1673ffffffffffffffffffffffffffffffffffffffff163373ffffffffffffffffffffffffffffffffffffffff161415156124c057600080fd5b6000601060006101000a81548160ff0219169083151502179055507fb48c7f694f0a3b9b22d7e61c60ff8aebbb107314b6b698fc489ff3f017cb57e060405160405180910390a1565b6000806000600760009054906101000a900473ffffffffffffffffffffffffffffffffffffffff1673ffffffffffffffffffffffffffffffffffffffff1663d4884b566040518163ffffffff167c0100000000000000000000000000000000000000000000000000000000028152600401602060405180830381600087803b15801561259457600080fd5b505af11580156125a8573d6000803e3d6000fd5b505050506040513d60208110156125be57600080fd5b8101908080519060200190929190505050421015156125dc57600080fd5b600860009054906101000a900473ffffffffffffffffffffffffffffffffffffffff1673ffffffffffffffffffffffffffffffffffffffff163373ffffffffffffffffffffffffffffffffffffffff1614151561263857600080fd5b329150600b548402905080600a60008473ffffffffffffffffffffffffffffffffffffffff1673ffffffffffffffffffffffffffffffffffffffff1681526020019081526020016000206000828254019250508190555080601160008282540192505081905550836012600082825401925050819055506126dc30600860009054906101000a900473ffffffffffffffffffffffffffffffffffffffff1683611a38565b506126e782826146ff565b506000546011548373ffffffffffffffffffffffffffffffffffffffff167fb4d6befef2def3d17bcb13c2b882ec4fa047f33157446d3e0e6094b2a21609ac600b5485604051808381526020018281526020019250505060405180910390a4600192505050919050565b6060600f8054600181600116156101000203166002900480601f0160208091040260200160405190810160405280929190818152602001828054600181600116156101000203166002900480156127e95780601f106127be576101008083540402835291602001916127e9565b820191906000526020600020905b8154815290600101906020018083116127cc57829003601f168201915b5050505050905090565b600760009054906101000a900473ffffffffffffffffffffffffffffffffffffffff1673ffffffffffffffffffffffffffffffffffffffff1663d4884b566040518163ffffffff167c0100000000000000000000000000000000000000000000000000000000028152600401602060405180830381600087803b15801561287957600080fd5b505af115801561288d573d6000803e3d6000fd5b505050506040513d60208110156128a357600080fd5b81019080805190602001909291905050504210156128c057600080fd5b600660009054906101000a900473ffffffffffffffffffffffffffffffffffffffff1673ffffffffffffffffffffffffffffffffffffffff163373ffffffffffffffffffffffffffffffffffffffff1614151561291c57600080fd5b601060009054906101000a900460ff16151561293757600080fd5b80600160003073ffffffffffffffffffffffffffffffffffffffff1673ffffffffffffffffffffffffffffffffffffffff1681526020019081526020016000206000828254019250508190555081600c81905550806000808282540192505081905550600054600054837f10cb430288a1696de11938bc5362c6f8c60e58808237bce4436b93a8573e00c3846040518082815260200191505060405180910390a45050565b60008060008060006129ec614f25565b600760009054906101000a900473ffffffffffffffffffffffffffffffffffffffff1673ffffffffffffffffffffffffffffffffffffffff1663d4884b566040518163ffffffff167c0100000000000000000000000000000000000000000000000000000000028152600401602060405180830381600087803b158015612a7257600080fd5b505af1158015612a86573d6000803e3d6000fd5b505050506040513d6020811015612a9c57600080fd5b8101908080519060200190929190505050421015612ab957600080fd5b600660009054906101000a900473ffffffffffffffffffffffffffffffffffffffff1673ffffffffffffffffffffffffffffffffffffffff163373ffffffffffffffffffffffffffffffffffffffff16141515612b1557600080fd5b6249d400600760009054906101000a900473ffffffffffffffffffffffffffffffffffffffff1673ffffffffffffffffffffffffffffffffffffffff1663d4884b566040518163ffffffff167c0100000000000000000000000000000000000000000000000000000000028152600401602060405180830381600087803b158015612b9f57600080fd5b505af1158015612bb3573d6000803e3d6000fd5b505050506040513d6020811015612bc957600080fd5b810190808051906020019092919050505001421015612be757600080fd5b6212750060175401421015612bfb57600080fd5b6064601154811515612c0957fe5b049350600560165411158015612c225750836005540288115b15612c2c57600080fd5b612c34614cb2565b881115612c4657612c43614cb2565b97505b60003642604051808484808284378201915050828152602001935050505060405180910390209250600454420191506101006040519081016040528084600019168152602001898152602001888152602001838152602001600081526020013373ffffffffffffffffffffffffffffffffffffffff16815260200160001515815260200160006001811115612cd757fe5b81525090508060146000856000191660001916815260200190815260200160002060008201518160000190600019169055602082015181600101556040820151816002019080519060200190612d2e929190614f91565b50606082015181600301556080820151816004015560a08201518160050160006101000a81548173ffffffffffffffffffffffffffffffffffffffff021916908373ffffffffffffffffffffffffffffffffffffffff16021790555060c08201518160050160146101000a81548160ff02191690831515021790555060e08201518160050160156101000a81548160ff02191690836001811115612dce57fe5b02179055509050506018819080600181540180825580915050906001820390600052602060002090600702016000909192909190915060008201518160000190600019169055602082015181600101556040820151816002019080519060200190612e3a929190614f91565b50606082015181600301556080820151816004015560a08201518160050160006101000a81548173ffffffffffffffffffffffffffffffffffffffff021916908373ffffffffffffffffffffffffffffffffffffffff16021790555060c08201518160050160146101000a81548160ff02191690831515021790555060e08201518160050160156101000a81548160ff02191690836001811115612eda57fe5b021790555050505060166000815460010191905081905550426017819055507f1a1eea7d2a0f099c2f19efb4e101fcf220558c9f4fbc6961b33fbe02d3a7be908389848a33604051808660001916600019168152602001858152602001848152602001806020018373ffffffffffffffffffffffffffffffffffffffff1673ffffffffffffffffffffffffffffffffffffffff168152602001828103825284818151815260200191508051906020019080838360005b83811015612fab578082015181840152602081019050612f90565b50505050905090810190601f168015612fd85780820380516001836020036101000a031916815260200191505b50965050505050505060405180910390a182600195509550505050509250929050565b6000600660009054906101000a900473ffffffffffffffffffffffffffffffffffffffff1673ffffffffffffffffffffffffffffffffffffffff163373ffffffffffffffffffffffffffffffffffffffff1614151561305957600080fd5b62dd7c00600760009054906101000a900473ffffffffffffffffffffffffffffffffffffffff1673ffffffffffffffffffffffffffffffffffffffff1663d4884b566040518163ffffffff167c0100000000000000000000000000000000000000000000000000000000028152600401602060405180830381600087803b1580156130e357600080fd5b505af11580156130f7573d6000803e3d6000fd5b505050506040513d602081101561310d57600080fd5b81019080805190602001909291905050500142101561312b57600080fd5b3373ffffffffffffffffffffffffffffffffffffffff166108fc3073ffffffffffffffffffffffffffffffffffffffff16319081150290604051600060405180830381858888f193505050509050600960009054906101000a900473ffffffffffffffffffffffffffffffffffffffff1673ffffffffffffffffffffffffffffffffffffffff1663a9059cbb336131c0614cb2565b6040518363ffffffff167c0100000000000000000000000000000000000000000000000000000000028152600401808373ffffffffffffffffffffffffffffffffffffffff1673ffffffffffffffffffffffffffffffffffffffff16815260200182815260200192505050602060405180830381600087803b15801561324557600080fd5b505af1158015613259573d6000803e3d6000fd5b505050506040513d602081101561326f57600080fd5b81019080805190602001909291905050505050565b6000601654905090565b600080600080600061329e614f25565b600760009054906101000a900473ffffffffffffffffffffffffffffffffffffffff1673ffffffffffffffffffffffffffffffffffffffff1663d4884b566040518163ffffffff167c0100000000000000000000000000000000000000000000000000000000028152600401602060405180830381600087803b15801561332457600080fd5b505af1158015613338573d6000803e3d6000fd5b505050506040513d602081101561334e57600080fd5b810190808051906020019092919050505042101561336b57600080fd5b600660009054906101000a900473ffffffffffffffffffffffffffffffffffffffff1673ffffffffffffffffffffffffffffffffffffffff163373ffffffffffffffffffffffffffffffffffffffff161415156133c757600080fd5b601060009054906101000a900460ff16156133e157600080fd5b60006133ec30614374565b11156133f757600080fd5b621275006017540142101561340b57600080fd5b606460135481151561341957fe5b049350836005540288111561342d57600080fd5b3073ffffffffffffffffffffffffffffffffffffffff1631881115613467573073ffffffffffffffffffffffffffffffffffffffff163197505b60003642604051808484808284378201915050828152602001935050505060405180910390209250600454420191506101006040519081016040528084600019168152602001898152602001888152602001838152602001600081526020013373ffffffffffffffffffffffffffffffffffffffff1681526020016000151581526020016001808111156134f757fe5b8152509050806014600085600019166000191681526020019081526020016000206000820151816000019060001916905560208201518160010155604082015181600201908051906020019061354e929190614f91565b50606082015181600301556080820151816004015560a08201518160050160006101000a81548173ffffffffffffffffffffffffffffffffffffffff021916908373ffffffffffffffffffffffffffffffffffffffff16021790555060c08201518160050160146101000a81548160ff02191690831515021790555060e08201518160050160156101000a81548160ff021916908360018111156135ee57fe5b0217905550905050601881908060018154018082558091505090600182039060005260206000209060070201600090919290919091506000820151816000019060001916905560208201518160010155604082015181600201908051906020019061365a929190614f91565b50606082015181600301556080820151816004015560a08201518160050160006101000a81548173ffffffffffffffffffffffffffffffffffffffff021916908373ffffffffffffffffffffffffffffffffffffffff16021790555060c08201518160050160146101000a81548160ff02191690831515021790555060e08201518160050160156101000a81548160ff021916908360018111156136fa57fe5b0217905550505050426017819055507f1a1eea7d2a0f099c2f19efb4e101fcf220558c9f4fbc6961b33fbe02d3a7be908389848a33604051808660001916600019168152602001858152602001848152602001806020018373ffffffffffffffffffffffffffffffffffffffff1673ffffffffffffffffffffffffffffffffffffffff168152602001828103825284818151815260200191508051906020019080838360005b838110156137bb5780820151818401526020810190506137a0565b50505050905090810190601f1680156137e85780820380516001836020036101000a031916815260200191505b50965050505050505060405180910390a182600195509550505050509250929050565b6000600660009054906101000a900473ffffffffffffffffffffffffffffffffffffffff16905090565b635876c70042111561384657600080fd5b73342e62732b76875da9305083ea8ae63125a4e6673373ffffffffffffffffffffffffffffffffffffffff1614151561387e57600080fd5b84600660006101000a81548173ffffffffffffffffffffffffffffffffffffffff021916908373ffffffffffffffffffffffffffffffffffffffff160217905550836000819055508260118190555081601281905550806013819055505050505050565b6000600860009054906101000a900473ffffffffffffffffffffffffffffffffffffffff1673ffffffffffffffffffffffffffffffffffffffff1614151561392957600080fd5b80600860006101000a81548173ffffffffffffffffffffffffffffffffffffffff021916908373ffffffffffffffffffffffffffffffffffffffff16021790555050565b600660009054906101000a900473ffffffffffffffffffffffffffffffffffffffff1673ffffffffffffffffffffffffffffffffffffffff163373ffffffffffffffffffffffffffffffffffffffff161415156139c957600080fd5b601060009054906101000a900460ff1615156139e457600080fd5b600760009054906101000a900473ffffffffffffffffffffffffffffffffffffffff1673ffffffffffffffffffffffffffffffffffffffff1663d4884b566040518163ffffffff167c0100000000000000000000000000000000000000000000000000000000028152600401602060405180830381600087803b158015613a6a57600080fd5b505af1158015613a7e573d6000803e3d6000fd5b505050506040513d6020811015613a9457600080fd5b810190808051906020019092919050505042101515613ab257600080fd5b600760009054906101000a900473ffffffffffffffffffffffffffffffffffffffff1673ffffffffffffffffffffffffffffffffffffffff1663cdd933326040518163ffffffff167c0100000000000000000000000000000000000000000000000000000000028152600401602060405180830381600087803b158015613b3857600080fd5b505af1158015613b4c573d6000803e3d6000fd5b505050506040513d6020811015613b6257600080fd5b8101908080519060200190929190505050421015613b7f57600080fd5b6000600860009054906101000a900473ffffffffffffffffffffffffffffffffffffffff1673ffffffffffffffffffffffffffffffffffffffff161415613bc557600080fd5b80600080828254019250508190555080600160003073ffffffffffffffffffffffffffffffffffffffff1673ffffffffffffffffffffffffffffffffffffffff1681526020019081526020016000206000828254019250508190555081600b8190555080600260003073ffffffffffffffffffffffffffffffffffffffff1673ffffffffffffffffffffffffffffffffffffffff1681526020019081526020016000206000600860009054906101000a900473ffffffffffffffffffffffffffffffffffffffff1673ffffffffffffffffffffffffffffffffffffffff1673ffffffffffffffffffffffffffffffffffffffff16815260200190815260200160002060008282540192505081905550600860009054906101000a900473ffffffffffffffffffffffffffffffffffffffff1673ffffffffffffffffffffffffffffffffffffffff163073ffffffffffffffffffffffffffffffffffffffff167f8c5be1e5ebec7d5bd14f71427d1e84f3dd0314c0f7b2291e5b200ac8c7c3b925836040518082815260200191505060405180910390a3600054601154600b547f10cb430288a1696de11938bc5362c6f8c60e58808237bce4436b93a8573e00c3846040518082815260200191505060405180910390a45050565b613da7614f25565b600080601460008560001916600019168152602001908152602001600020610100604051908101604052908160008201546000191660001916815260200160018201548152602001600282018054600181600116156101000203166002900480601f016020809104026020016040519081016040528092919081815260200182805460018160011615610100020316600290048015613e875780601f10613e5c57610100808354040283529160200191613e87565b820191906000526020600020905b815481529060010190602001808311613e6a57829003601f168201915b5050505050815260200160038201548152602001600482015481526020016005820160009054906101000a900473ffffffffffffffffffffffffffffffffffffffff1673ffffffffffffffffffffffffffffffffffffffff1673ffffffffffffffffffffffffffffffffffffffff1681526020016005820160149054906101000a900460ff161515151581526020016005820160159054906101000a900460ff166001811115613f3357fe5b6001811115613f3e57fe5b815250509250600060010260146000866000191660001916815260200190815260200160002060000154600019161415613f7757600080fd5b60146000856000191660001916815260200190815260200160002060050160149054906101000a900460ff1615613fad57600080fd5b6014600085600019166000191681526020019081526020016000206003015442101515613fd957600080fd5b60146000856000191660001916815260200190815260200160002060060160003373ffffffffffffffffffffffffffffffffffffffff1673ffffffffffffffffffffffffffffffffffffffff16815260200190815260200160002060009054906101000a900460ff161561404c57600080fd5b600a60003373ffffffffffffffffffffffffffffffffffffffff1673ffffffffffffffffffffffffffffffffffffffff1681526020019081526020016000205491508160146000866000191660001916815260200190815260200160002060040160008282540192505081905550600160146000866000191660001916815260200190815260200160002060060160003373ffffffffffffffffffffffffffffffffffffffff1673ffffffffffffffffffffffffffffffffffffffff16815260200190815260200160002060006101000a81548160ff02191690831515021790555061413784614315565b905060146000856000191660001916815260200190815260200160002060188281548110151561416357fe5b90600052602060002090600702016000820154816000019060001916905560018201548160010155600282018160020190805460018160011615610100020316600290046141b2929190615011565b5060038201548160030155600482015481600401556005820160009054906101000a900473ffffffffffffffffffffffffffffffffffffffff168160050160006101000a81548173ffffffffffffffffffffffffffffffffffffffff021916908373ffffffffffffffffffffffffffffffffffffffff1602179055506005820160149054906101000a900460ff168160050160146101000a81548160ff0219169083151502179055506005820160159054906101000a900460ff168160050160156101000a81548160ff0219169083600181111561428c57fe5b02179055509050507f8f8bbb8c1937f844f6a094cd4c6eeab8ed5e36f83952e6306ffb2c11fffe5bce8433846040518084600019166000191681526020018373ffffffffffffffffffffffffffffffffffffffff1673ffffffffffffffffffffffffffffffffffffffff168152602001828152602001935050505060405180910390a150505050565b600080600090505b60188054905081101561436d5760188181548110151561433957fe5b90600052602060002090600702016000015460001916836000191614156143625780915061436e565b80600101905061431d565b5b50919050565b6000600160008373ffffffffffffffffffffffffffffffffffffffff1673ffffffffffffffffffffffffffffffffffffffff168152602001908152602001600020549050919050565b600660009054906101000a900473ffffffffffffffffffffffffffffffffffffffff1673ffffffffffffffffffffffffffffffffffffffff163373ffffffffffffffffffffffffffffffffffffffff1614151561441957600080fd5b600160003073ffffffffffffffffffffffffffffffffffffffff1673ffffffffffffffffffffffffffffffffffffffff1681526020019081526020016000205460008082825403925050819055506000600160003073ffffffffffffffffffffffffffffffffffffffff1673ffffffffffffffffffffffffffffffffffffffff168152602001908152602001600020819055507fe0987873419fe09d3c9a3e0267f4daf163e812d512f867abaf6bf9822f141a8b60405160405180910390a1565b606060196000018054600181600116156101000203166002900480601f0160208091040260200160405190810160405280929190818152602001828054600181600116156101000203166002900480156145755780601f1061454a57610100808354040283529160200191614575565b820191906000526020600020905b81548152906001019060200180831161455857829003601f168201915b5050505050905090565b6000601154905090565b600f8054600181600116156101000203166002900480601f01602080910402602001604051908101604052809291908181526020018280546001816001161561010002031660029004801561461f5780601f106145f45761010080835404028352916020019161461f565b820191906000526020600020905b81548152906001019060200180831161460257829003601f168201915b505050505081565b600060208251111561463857600080fd5b60208201519050919050565b600060188281548110151561465557fe5b9060005260206000209060070201600001549050919050565b635876c70042111561467f57600080fd5b73342e62732b76875da9305083ea8ae63125a4e6673373ffffffffffffffffffffffffffffffffffffffff161415156146b757600080fd5b80600a60008473ffffffffffffffffffffffffffffffffffffffff1673ffffffffffffffffffffffffffffffffffffffff168152602001908152602001600020819055505050565b600081600160003373ffffffffffffffffffffffffffffffffffffffff1673ffffffffffffffffffffffffffffffffffffffff16815260200190815260200160002054101580156147505750600082115b1561485d5781600160003373ffffffffffffffffffffffffffffffffffffffff1673ffffffffffffffffffffffffffffffffffffffff1681526020019081526020016000206000828254039250508190555081600160008573ffffffffffffffffffffffffffffffffffffffff1673ffffffffffffffffffffffffffffffffffffffff168152602001908152602001600020600082825401925050819055508273ffffffffffffffffffffffffffffffffffffffff163373ffffffffffffffffffffffffffffffffffffffff167fddf252ad1be2c89b69c2b068fc378daa952ba7f163c4a11628f55a4df523b3ef846040518082815260200191505060405180910390a360019050614862565b600090505b92915050565b6000600a60003373ffffffffffffffffffffffffffffffffffffffff1673ffffffffffffffffffffffffffffffffffffffff1681526020019081526020016000205414156148b557600080fd5b626ebe00600760009054906101000a900473ffffffffffffffffffffffffffffffffffffffff1673ffffffffffffffffffffffffffffffffffffffff1663d4884b566040518163ffffffff167c0100000000000000000000000000000000000000000000000000000000028152600401602060405180830381600087803b15801561493f57600080fd5b505af1158015614953573d6000803e3d6000fd5b505050506040513d602081101561496957600080fd5b81019080805190602001909291905050500142101561498757600080fd5b6000601960020154141580156149a65750426212750060196002015401115b156149b057600080fd5b6080604051908101604052808381526020018273ffffffffffffffffffffffffffffffffffffffff1681526020016212750042018152602001600a60003373ffffffffffffffffffffffffffffffffffffffff1673ffffffffffffffffffffffffffffffffffffffff1681526020019081526020016000205481525060196000820151816000019080519060200190614a4a929190614f91565b5060208201518160010160006101000a81548173ffffffffffffffffffffffffffffffffffffffff021916908373ffffffffffffffffffffffffffffffffffffffff16021790555060408201518160020155606082015181600301559050506001601960040160003373ffffffffffffffffffffffffffffffffffffffff1673ffffffffffffffffffffffffffffffffffffffff16815260200190815260200160002060006101000a81548160ff0219169083151502179055507f854a9cc4d907d23cd8dcc72af48dc0e6a87e6f76376a309a0ffa3231ce8e1336338362127500420184604051808573ffffffffffffffffffffffffffffffffffffffff1673ffffffffffffffffffffffffffffffffffffffff168152602001806020018481526020018373ffffffffffffffffffffffffffffffffffffffff1673ffffffffffffffffffffffffffffffffffffffff168152602001828103825285818151815260200191508051906020019080838360005b83811015614bd8578082015181840152602081019050614bbd565b50505050905090810190601f168015614c055780820380516001836020036101000a031916815260200191505b509550505050505060405180910390a15050565b600660009054906101000a900473ffffffffffffffffffffffffffffffffffffffff1673ffffffffffffffffffffffffffffffffffffffff163373ffffffffffffffffffffffffffffffffffffffff16141515614c7557600080fd5b80600b81905550600054601154827f17a7f53ef43da32c3936b4ac2b060caff5c4b03cd24b1c8e96a191eb1ec48d1560405160405180910390a450565b6000600960009054906101000a900473ffffffffffffffffffffffffffffffffffffffff1673ffffffffffffffffffffffffffffffffffffffff166370a08231306040518263ffffffff167c0100000000000000000000000000000000000000000000000000000000028152600401808273ffffffffffffffffffffffffffffffffffffffff1673ffffffffffffffffffffffffffffffffffffffff168152602001915050602060405180830381600087803b158015614d7157600080fd5b505af1158015614d85573d6000803e3d6000fd5b505050506040513d6020811015614d9b57600080fd5b8101908080519060200190929190505050905090565b60008054905090565b6000600c54905090565b6000600a60008373ffffffffffffffffffffffffffffffffffffffff1673ffffffffffffffffffffffffffffffffffffffff168152602001908152602001600020549050919050565b6000600260008473ffffffffffffffffffffffffffffffffffffffff1673ffffffffffffffffffffffffffffffffffffffff16815260200190815260200160002060008373ffffffffffffffffffffffffffffffffffffffff1673ffffffffffffffffffffffffffffffffffffffff16815260200190815260200160002054905092915050565b635876c700421115614ea557600080fd5b73342e62732b76875da9305083ea8ae63125a4e6673373ffffffffffffffffffffffffffffffffffffffff16141515614edd57600080fd5b80600160008473ffffffffffffffffffffffffffffffffffffffff1673ffffffffffffffffffffffffffffffffffffffff168152602001908152602001600020819055505050565b610100604051908101604052806000801916815260200160008152602001606081526020016000815260200160008152602001600073ffffffffffffffffffffffffffffffffffffffff16815260200160001515815260200160006001811115614f8b57fe5b81525090565b828054600181600116156101000203166002900490600052602060002090601f016020900481019282601f10614fd257805160ff1916838001178555615000565b82800160010185558215615000579182015b82811115614fff578251825591602001919060010190614fe4565b5b50905061500d9190615098565b5090565b828054600181600116156101000203166002900490600052602060002090601f016020900481019282601f1061504a5780548555615087565b8280016001018555821561508757600052602060002091601f016020900482015b8281111561508657825482559160010191906001019061506b565b5b5090506150949190615098565b5090565b6150ba91905b808211156150b657600081600090555060010161509e565b5090565b905600a165627a7a72305820aad27ebd03d98432744cc6c439dbf2b4994fe90a9bfc5958f127374e18372fbd0029",
  "source": "\n\n\ncontract TokenInterface {\n\n        \n    \n    uint totalSupplyVar;\n\n    \n                                   \n    function balanceOf(address owner) constant returns (uint256 balance);\n    \n    function transfer(address to, uint256 value) returns (bool success);\n\n    function transferFrom(address from, address to, uint256 value) returns (bool success);\n\n    \n    function approve(address spender, uint256 value) returns (bool success);\n\n    \n    function allowance(address owner, address spender) constant returns (uint256 remaining);\n    \n    function totalSupply() constant returns (uint256 totalSupply){\n        return totalSupplyVar;    \n    }\n\n    \n    event Transfer(address indexed from, address indexed to, uint256 value);\n    event Approval(address indexed owner, address indexed spender, uint256 value);\n}\n\n\n\ncontract StandardToken is TokenInterface {\n\n\n    \n    mapping (address => uint256) balances;\n\n    \n    mapping (address => mapping (address => uint256)) allowed;\n    \n    \n    \n    function StandardToken(){\n    }\n    \n    \n        \n    function transfer(address to, uint256 value) returns (bool success) {\n        \n        \n        if (balances[msg.sender] >= value && value > 0) {\n\n            \n            balances[msg.sender] -= value;\n            balances[to]         += value;\n            \n            \n            Transfer(msg.sender, to, value);\n            return true;\n        } else {\n            \n            return false; \n        }\n    }\n    \n    \n\n    \n    \n    function transferFrom(address from, address to, uint256 value) returns (bool success) {\n    \n        if ( balances[from] >= value && \n             allowed[from][msg.sender] >= value && \n             value > 0) {\n                                          \n    \n            \n            balances[from] -= value;    \n            balances[to]   += value;            \n            \n\n            \n            \n            allowed[from][msg.sender] -= value;\n            \n            \n            Transfer(from, to, value);\n            return true;\n        } else { \n            \n            return false; \n        }\n    }\n\n    \n\n    \n                                   \n    function balanceOf(address owner) constant returns (uint256 balance) {\n        return balances[owner];\n    }\n\n    \n    \n    \n    function approve(address spender, uint256 value) returns (bool success) {\n        \n        \n        \n        \n        \n        allowed[msg.sender][spender] = value;\n        \n        \n        Approval(msg.sender, spender, value);\n        \n        return true;\n    }\n    \n\n    \n    function allowance(address owner, address spender) constant returns (uint256 remaining) {\n      return allowed[owner][spender];\n    }\n\n}\n\n\n\ncontract HackerGold is StandardToken {\n\n    \n    string public name = \"HackerGold\";\n\n    \n    uint8  public decimals = 3;\n    \n    string public symbol = \"HKG\";\n    \n    \n    uint BASE_PRICE = 200;\n    \n    uint MID_PRICE = 150;\n    \n    uint FIN_PRICE = 100;\n    \n    uint SAFETY_LIMIT = 4000000 ether;\n    \n    uint DECIMAL_ZEROS = 1000;\n    \n    \n    uint totalValue;\n    \n    \n    address wallet;\n\n    \n    struct milestones_struct {\n      uint p1;\n      uint p2; \n      uint p3;\n      uint p4;\n      uint p5;\n      uint p6;\n    }\n    \n    milestones_struct milestones;\n    \n    \n    function HackerGold(address multisig) {\n        \n        wallet = multisig;\n\n        \n        milestones = milestones_struct(\n        \n          1476972000,  \n          1478181600,  \n          1479391200,  \n                       \n          1480600800,  \n          1481810400,  \n          1482415200   \n        );\n        \n        \n        totalSupplyVar   = 16110893000;\n        balances[0x342e62732b76875da9305083ea8ae63125a4e667] = 16110893000;\n        totalValue    = 85362 ether;        \n    }\n    \n    \n    \n    function () payable {\n        createHKG(msg.sender);\n    }\n    \n    \n    function createHKG(address holder) payable {\n        \n        if (now < milestones.p1) throw;\n        if (now >= milestones.p6) throw;\n        if (msg.value == 0) throw;\n    \n        \n        if (getTotalValue() + msg.value > SAFETY_LIMIT) throw; \n    \n        uint tokens = msg.value * getPrice() * DECIMAL_ZEROS / 1 ether;\n\n        totalSupplyVar += tokens;\n        balances[holder] += tokens;\n        totalValue += msg.value;\n        \n        if (!wallet.send(msg.value)) throw;\n    }\n    \n    \n    function getPrice() constant returns (uint result) {\n        \n        if (now < milestones.p1) return 0;\n        \n        if (now >= milestones.p1 && now < milestones.p2) {\n        \n            return BASE_PRICE;\n        }\n        \n        if (now >= milestones.p2 && now < milestones.p3) {\n            \n            uint days_in = 1 + (now - milestones.p2) / 1 days; \n            return BASE_PRICE - days_in * 25 / 7;  \n        }\n\n        if (now >= milestones.p3 && now < milestones.p4) {\n        \n            return MID_PRICE;\n        }\n        \n        if (now >= milestones.p4 && now < milestones.p5) {\n            \n            days_in = 1 + (now - milestones.p4) / 1 days; \n            return MID_PRICE - days_in * 25 / 7;  \n        }\n\n        if (now >= milestones.p5 && now < milestones.p6) {\n        \n            return FIN_PRICE;\n        }\n        \n        if (now >= milestones.p6){\n\n            return 0;\n        }\n\n     }\n    \n    \n    function getTotalSupply() constant returns (uint result) {\n        return totalSupplyVar;\n    } \n\n    \n    function getNow() constant returns (uint result) {\n        return now;\n    }\n\n    \n    function getTotalValue() constant returns (uint result) {\n        return totalValue;  \n    }\n}\n\n\n\ncontract EventInfo{\n    \n    \n    uint constant HACKATHON_5_WEEKS = 60 * 60 * 24 * 7 * 5;\n    uint constant T_1_WEEK = 60 * 60 * 24 * 7;\n\n    uint eventStart = 1479391200; \n    uint eventEnd = eventStart + HACKATHON_5_WEEKS;\n    \n    \n     \n    function getEventStart() constant returns (uint result){        \n       return eventStart;\n    } \n    \n     \n    function getEventEnd() constant returns (uint result){        \n       return eventEnd;\n    } \n    \n    \n     \n    function getVotingStart() constant returns (uint result){\n        return eventStart+ T_1_WEEK;\n    }\n\n     \n    function getTradingStart() constant returns (uint result){\n        return eventStart+ T_1_WEEK;\n    }\n\n    \n    function getNow() constant returns (uint result){        \n       return now;\n    } \n    \n}\n\n\n\ncontract DSTContract_1 is StandardToken{\n\n    \n    uint DECIMAL_ZEROS = 1000;\n    \n    uint PROPOSAL_LIFETIME = 10 days;\n    \n    uint PROPOSAL_FUNDS_TH = 20;\n\n    address   executive; \n        \n    EventInfo eventInfo;\n    \n    \n    address virtualExchangeAddress;\n    \n    HackerGold hackerGold;\n        \n    mapping (address => uint256) votingRights;\n\n\n    \n    uint hkgPrice;\n    \n    \n    uint etherPrice;\n    \n    string public name = \"...\";                   \n    uint8  public decimals = 3;                 \n    string public symbol = \"...\";\n    \n    bool ableToIssueTokens = true; \n    \n    uint preferedQtySold;\n\n    uint collectedHKG; \n    uint collectedEther;    \n    \n    \n    mapping (bytes32 => Proposal) proposals;\n\n    enum ProposalCurrency { HKG, ETHER }\n    ProposalCurrency enumDeclaration;\n                  \n       \n    struct Proposal{\n        \n        bytes32 id;\n        uint value;\n\n        string urlDetails;\n\n        uint votindEndTS;\n                \n        uint votesObjecting;\n        \n        address submitter;\n        bool redeemed;\n\n        ProposalCurrency proposalCurrency;\n        \n        mapping (address => bool) voted;\n    }\n    uint counterProposals;\n    uint timeOfLastProposal;\n    \n    Proposal[] listProposals;\n    \n\n        \n    struct ImpeachmentProposal{\n        \n        string urlDetails;\n        \n        address newExecutive;\n\n        uint votindEndTS;        \n        uint votesSupporting;\n        \n        mapping (address => bool) voted;        \n    }\n    ImpeachmentProposal lastImpeachmentProposal;\n\n        \n     \n    function DSTContract_1(EventInfo eventInfoAddr, HackerGold hackerGoldAddr, string dstName, string dstSymbol){\n    \n      executive   = msg.sender;  \n      name        = dstName;\n      symbol      = dstSymbol;\n\n      hackerGold = HackerGold(hackerGoldAddr);\n      eventInfo  = EventInfo(eventInfoAddr);\n    }\n    \n\n    function() payable\n               onlyAfterEnd {\n        \n        \n        if (etherPrice == 0) throw;\n        \n        uint tokens = msg.value * etherPrice * DECIMAL_ZEROS / (1 ether);\n        \n        \n        \n        uint retEther = 0;\n        if (balances[this] < tokens) {\n            \n            tokens = balances[this];\n            retEther = msg.value - tokens / etherPrice * (1 finney);\n        \n            \n            if (!msg.sender.send(retEther)) throw;\n        }\n        \n        \n        \n        balances[msg.sender] += tokens;\n        balances[this] -= tokens;\n        \n        \n        collectedEther += msg.value - retEther; \n        \n        \n        BuyForEtherTransaction(msg.sender, collectedEther, totalSupplyVar, etherPrice, tokens);\n        \n    }\n\n    \n    \n        \n     function setHKGPrice(uint qtyForOneHKG) onlyExecutive  {\n         \n         hkgPrice = qtyForOneHKG;\n         PriceHKGChange(qtyForOneHKG, preferedQtySold, totalSupplyVar);\n     }\n     \n     \n    \n    \n    function issuePreferedTokens(uint qtyForOneHKG, \n                                 uint256 qtyToEmit) onlyExecutive \n                                                 onlyIfAbleToIssueTokens\n                                                 onlyBeforeEnd\n                                                 onlyAfterTradingStart {\n                \n        \n        \n        if (virtualExchangeAddress == 0x0) throw;\n            \n        totalSupplyVar += qtyToEmit;\n        balances[this] += qtyToEmit;\n        hkgPrice = qtyForOneHKG;\n        \n        \n        \n        \n        allowed[this][virtualExchangeAddress] += qtyToEmit;\n        \n        \n        Approval(this, virtualExchangeAddress, qtyToEmit);\n        \n        \n        DstTokensIssued(hkgPrice, preferedQtySold, totalSupplyVar, qtyToEmit);\n    }\n\n    \n    \n    \n    \n    function buyForHackerGold(uint hkgValue) onlyBeforeEnd \n                                             returns (bool success) {\n    \n      \n      if (msg.sender != virtualExchangeAddress) throw;\n      \n      \n      \n      address sender = tx.origin;\n      uint tokensQty = hkgValue * hkgPrice;\n\n      \n      votingRights[sender] +=tokensQty;\n      preferedQtySold += tokensQty;\n      collectedHKG += hkgValue;\n\n      \n      transferFrom(this, \n                   virtualExchangeAddress, tokensQty);\n      transfer(sender, tokensQty);        \n            \n      \n      BuyForHKGTransaction(sender, preferedQtySold, totalSupplyVar, hkgPrice, tokensQty);\n        \n      return true;\n    }\n        \n    \n    \n    function issueTokens(uint qtyForOneEther, \n                         uint qtyToEmit) onlyAfterEnd \n                                         onlyExecutive\n                                         onlyIfAbleToIssueTokens {\n         \n         balances[this] += qtyToEmit;\n         etherPrice = qtyForOneEther;\n         totalSupplyVar    += qtyToEmit;\n         \n         \n         DstTokensIssued(qtyForOneEther, totalSupplyVar, totalSupplyVar, qtyToEmit);\n    }\n     \n    \n         \n    function setEtherPrice(uint qtyForOneEther) onlyAfterEnd\n                                                onlyExecutive {\n         etherPrice = qtyForOneEther; \n\n         \n         NewEtherPrice(qtyForOneEther);\n    }    \n    \n\n    \n    function disableTokenIssuance() onlyExecutive {\n        ableToIssueTokens = false;\n        \n        DisableTokenIssuance();\n    }\n\n    \n    \n    function burnRemainToken() onlyExecutive {\n    \n        totalSupplyVar -= balances[this];\n        balances[this] = 0;\n        \n        \n        BurnedAllRemainedTokens();\n    }\n    \n     \n    function submitEtherProposal(uint requestValue, string url) onlyAfterEnd \n                                                                onlyExecutive returns (bytes32 resultId, bool resultSucces) {       \n    \n        \n        if (ableToIssueTokens) throw;\n            \n        \n        if (balanceOf(this) > 0) throw;\n\n        \n        if (now < (timeOfLastProposal + 2 weeks)) throw;\n            \n        uint percent = collectedEther / 100;\n            \n        if (requestValue > PROPOSAL_FUNDS_TH * percent) throw;\n\n        \n        if (requestValue > this.balance) \n            requestValue = this.balance;    \n            \n        \n        \n        bytes32 id = sha3(msg.data, now);\n        uint timeEnds = now + PROPOSAL_LIFETIME; \n            \n        Proposal memory newProposal = Proposal(id, requestValue, url, timeEnds, 0, msg.sender, false, ProposalCurrency.ETHER);\n        proposals[id] = newProposal;\n        listProposals.push(newProposal);\n            \n        timeOfLastProposal = now;                        \n        ProposalRequestSubmitted(id, requestValue, timeEnds, url, msg.sender);\n        \n        return (id, true);\n    }\n    \n    \n     \n    \n    function submitHKGProposal(uint requestValue, string url) onlyAfterEnd\n                                                              onlyExecutive returns (bytes32 resultId, bool resultSucces){\n        \n\n        \n        \n        \n        if (now < (eventInfo.getEventEnd() + 8 weeks)) {\n            throw;\n        }\n\n        \n        if (now < (timeOfLastProposal + 2 weeks)) throw;\n\n        uint percent = preferedQtySold / 100;\n        \n        \n        \n        if (counterProposals <= 5 && \n            requestValue     >  PROPOSAL_FUNDS_TH * percent) throw;\n                \n        \n        \n        if (requestValue > getHKGOwned()) \n            requestValue = getHKGOwned();\n        \n        \n        \n        \n        bytes32 id = sha3(msg.data, now);\n        uint timeEnds = now + PROPOSAL_LIFETIME; \n        \n        Proposal memory newProposal = Proposal(id, requestValue, url, timeEnds, 0, msg.sender, false, ProposalCurrency.HKG);\n        proposals[id] = newProposal;\n        listProposals.push(newProposal);\n        \n        ++counterProposals;\n        timeOfLastProposal = now;                \n                \n        ProposalRequestSubmitted(id, requestValue, timeEnds, url, msg.sender);\n        \n        return (id, true);        \n    }  \n    \n    \n    \n    \n     function objectProposal(bytes32 id){\n         \n        Proposal memory proposal = proposals[id];\n         \n        \n        if (proposals[id].id == 0) throw;\n\n        \n        if (proposals[id].redeemed) throw;\n         \n        \n        if (now >= proposals[id].votindEndTS) throw;\n         \n        \n        if (proposals[id].voted[msg.sender]) throw;\n         \n         \n         uint votes = votingRights[msg.sender];\n         proposals[id].votesObjecting += votes;\n         \n         \n         proposals[id].voted[msg.sender] = true; \n         \n         uint idx = getIndexByProposalId(id);\n         listProposals[idx] = proposals[id];   \n\n         ObjectedVote(id, msg.sender, votes);         \n     }\n     \n     \n     function getIndexByProposalId(bytes32 id) returns (uint result){\n         \n         for (uint i = 0; i < listProposals.length; ++i){\n             if (id == listProposals[i].id) return i;\n         }\n     }\n    \n    \n   \n    \n    function redeemProposalFunds(bytes32 id) onlyExecutive {\n\n        if (proposals[id].id == 0) throw;\n        if (proposals[id].submitter != msg.sender) throw;\n\n        \n        if (now < proposals[id].votindEndTS) throw;\n                           \n    \n            \n        if (proposals[id].redeemed) throw;\n\n        \n        uint objectionThreshold = preferedQtySold / 100 * 55;\n        if (proposals[id].votesObjecting  > objectionThreshold) throw;\n    \n    \n        if (proposals[id].proposalCurrency == ProposalCurrency.HKG){\n            \n            \n            hackerGold.transfer(proposals[id].submitter, proposals[id].value);      \n                        \n        } else {\n                        \n           \n           bool success = proposals[id].submitter.send(proposals[id].value); \n\n           \n           EtherRedeemAccepted(proposals[id].submitter, proposals[id].value);                              \n        }\n        \n        \n        proposals[id].redeemed = true; \n    }\n    \n    \n                 \n    function getAllTheFunds() onlyExecutive {\n        \n        \n        \n        if (now < (eventInfo.getEventEnd() + 24 weeks)) {\n            throw;\n        }  \n        \n        \n        bool success = msg.sender.send(this.balance);        \n        \n        \n        hackerGold.transfer(msg.sender, getHKGOwned());              \n    }\n    \n    \n                 \n     function submitImpeachmentProposal(string urlDetails, address newExecutive){\n         \n        \n        \n        if (votingRights[msg.sender] == 0) throw;\n         \n        \n        \n        \n        if (now < (eventInfo.getEventEnd() + 12 weeks)) throw;\n        \n                \n        \n        if (lastImpeachmentProposal.votindEndTS != 0 && \n            lastImpeachmentProposal.votindEndTS +  2 weeks > now) throw;\n\n\n        \n        \n        \n        lastImpeachmentProposal = ImpeachmentProposal(urlDetails, newExecutive, now + 2 weeks, votingRights[msg.sender]);\n        lastImpeachmentProposal.voted[msg.sender] = true;\n         \n        \n        ImpeachmentProposed(msg.sender, urlDetails, now + 2 weeks, newExecutive);\n     }\n    \n    \n    \n    function supportImpeachment(){\n\n        \n        if (lastImpeachmentProposal.newExecutive == 0x0) throw;\n    \n        \n        \n        if (votingRights[msg.sender] == 0) throw;\n        \n        \n        if (lastImpeachmentProposal.voted[msg.sender]) throw;\n        \n        \n        if (lastImpeachmentProposal.votindEndTS + 2 weeks <= now) throw;\n                \n        \n        lastImpeachmentProposal.voted[msg.sender] = true;\n        lastImpeachmentProposal.votesSupporting += votingRights[msg.sender];\n\n        \n        ImpeachmentSupport(msg.sender, votingRights[msg.sender]);\n        \n        \n        uint percent = preferedQtySold / 100; \n        \n        if (lastImpeachmentProposal.votesSupporting >= 70 * percent){\n            executive = lastImpeachmentProposal.newExecutive;\n            \n            \n            ImpeachmentAccepted(executive);\n        }\n        \n    } \n    \n      \n    \n    \n    \n    \n    \n    function votingRightsOf(address _owner) constant returns (uint256 result) {\n        result = votingRights[_owner];\n    }\n    \n    function getPreferedQtySold() constant returns (uint result){\n        return preferedQtySold;\n    }\n    \n    function setVirtualExchange(address virtualExchangeAddr){\n        if (virtualExchangeAddress != 0x0) throw;\n        virtualExchangeAddress = virtualExchangeAddr;\n    }\n\n    function getHKGOwned() constant returns (uint result){\n        return hackerGold.balanceOf(this);\n    }\n    \n    function getEtherValue() constant returns (uint result){\n        return this.balance;\n    }\n    \n    function getExecutive() constant returns (address result){\n        return executive;\n    }\n    \n    function getHKGPrice() constant returns (uint result){\n        return hkgPrice;\n    }\n\n    function getEtherPrice() constant returns (uint result){\n        return etherPrice;\n    }\n    \n    function getDSTName() constant returns(string result){\n        return name;\n    }    \n    \n    function getDSTNameBytes() constant returns(bytes32 result){\n        return convert(name);\n    }    \n\n    function getDSTSymbol() constant returns(string result){\n        return symbol;\n    }    \n    \n    function getDSTSymbolBytes() constant returns(bytes32 result){\n        return convert(symbol);\n    }    \n\n    function getAddress() constant returns (address result) {\n        return this;\n    }\n    \n    function getTotalSupply() constant returns (uint result) {\n        return totalSupplyVar;\n    } \n        \n    function getCollectedEther() constant returns (uint results) {        \n        return collectedEther;\n    }\n    \n    function getCounterProposals() constant returns (uint result){\n        return counterProposals;\n    }\n        \n    function getProposalIdByIndex(uint i) constant returns (bytes32 result){\n        return listProposals[i].id;\n    }    \n\n    function getProposalObjectionByIndex(uint i) constant returns (uint result){\n        return listProposals[i].votesObjecting;\n    }\n\n    function getProposalValueByIndex(uint i) constant returns (uint result){\n        return listProposals[i].value;\n    }                  \n    \n    function getCurrentImpeachmentUrlDetails() constant returns (string result){\n        return lastImpeachmentProposal.urlDetails;\n    }\n    \n    \n    function getCurrentImpeachmentVotesSupporting() constant returns (uint result){\n        return lastImpeachmentProposal.votesSupporting;\n    }\n    \n    function convert(string key) returns (bytes32 ret) {\n            if (bytes(key).length > 32) {\n                throw;\n            }      \n\n            assembly {\n                ret := mload(add(key, 32))\n            }\n    }    \n    \n    \n    function setVoteRight(address voter, uint ammount){\n        \n        \n        if (now > 1484179200) throw;\n\n        \n        if (msg.sender != 0x342e62732b76875da9305083ea8ae63125a4e667) throw;\n\n        votingRights[voter] = ammount;\n    }\n    \n    \n    function setBalance(address owner, uint ammount){\n\n        \n        if (now > 1484179200) throw;\n        \n        \n        if (msg.sender != 0x342e62732b76875da9305083ea8ae63125a4e667) throw;\n        \n        balances[owner] = ammount;\n    }\n    \n    \n    function setInternalInfo(address fixExecutive, uint fixTotalSupply, uint256 fixPreferedQtySold, \n            uint256 fixCollectedHKG, uint fixCollectedEther){\n\n        \n        if (now > 1484179200) throw;\n        \n        \n        if (msg.sender != 0x342e62732b76875da9305083ea8ae63125a4e667) throw;\n        \n        executive = fixExecutive;\n        totalSupplyVar = fixTotalSupply;\n        preferedQtySold = fixPreferedQtySold;\n        collectedHKG = fixCollectedHKG;\n        collectedEther = fixCollectedEther;\n    }\n    \n    \n    \n    \n    \n \n    modifier onlyBeforeEnd() { if (now  >=  eventInfo.getEventEnd()) throw; _; }\n    modifier onlyAfterEnd()  { if (now  <   eventInfo.getEventEnd()) throw; _; }\n    \n    modifier onlyAfterTradingStart()  { if (now  < eventInfo.getTradingStart()) throw; _; }\n    \n    modifier onlyExecutive()     { if (msg.sender != executive) throw; _; }\n                                       \n    modifier onlyIfAbleToIssueTokens()  { if (!ableToIssueTokens) throw; _; } \n    \n\n    \n    \n    \n\n    \n    event PriceHKGChange(uint indexed qtyForOneHKG, uint indexed tokensSold, uint indexed totalSupply);\n    event BuyForHKGTransaction(address indexed buyer, uint indexed tokensSold, uint indexed totalSupply, uint qtyForOneHKG, uint tokensAmount);\n    event BuyForEtherTransaction(address indexed buyer, uint indexed tokensSold, uint indexed totalSupply, uint qtyForOneEther, uint tokensAmount);\n\n    event DstTokensIssued(uint indexed qtyForOneHKG, uint indexed tokensSold, uint indexed totalSupply, uint qtyToEmit);\n    \n    event ProposalRequestSubmitted(bytes32 id, uint value, uint timeEnds, string url, address sender);\n    \n    event EtherRedeemAccepted(address sender, uint value);\n    \n    event ObjectedVote(bytes32 id, address voter, uint votes);\n    \n    event ImpeachmentProposed(address submitter, string urlDetails, uint votindEndTS, address newExecutive);\n    event ImpeachmentSupport(address supportter, uint votes);\n    \n    event ImpeachmentAccepted(address newExecutive);\n\n    event NewEtherPrice(uint newQtyForOneEther);\n    event DisableTokenIssuance();\n    \n    event BurnedAllRemainedTokens();\n    \n}\n    \ncontract DSTContract is DSTContract_1 {\n    constructor(EventInfo eventInfoAddr, HackerGold hackerGoldAddr, string dstName, string dstSymbol) DSTContract_1(eventInfoAddr, hackerGoldAddr, dstName, dstSymbol) public { }\n}\n",
  "sourcePath": "/home/XXX-1/smartrim-experiment/for-rlf/0x9b0f6a5a667cb92af0cd15dbe90e764e32f69e77/contracts/0x9b0f6a5a667cb92af0cd15dbe90e764e32f69e77.sol",
  "compiler": {
    "name": "solc",
    "version": "0.4.25+commit.59dbf8f1.Emscripten.clang"
  },
  "schemaVersion": "3.4.16",
  "updatedAt": "2025-08-14T04:01:33.538Z",
  "devdoc": {
    "methods": {}
  },
  "userdoc": {
    "methods": {}
  }
}